{
	"W6/bigint/src/bignum.sol": {
		"BigInt": {
			"abi": [
				{
					"inputs": [
						{
							"components": [
								{
									"internalType": "uint256[]",
									"name": "limbs",
									"type": "uint256[]"
								}
							],
							"internalType": "struct BigInt.bigint",
							"name": "a",
							"type": "tuple"
						},
						{
							"components": [
								{
									"internalType": "uint256[]",
									"name": "limbs",
									"type": "uint256[]"
								}
							],
							"internalType": "struct BigInt.bigint",
							"name": "b",
							"type": "tuple"
						}
					],
					"name": "add",
					"outputs": [
						{
							"components": [
								{
									"internalType": "uint256[]",
									"name": "limbs",
									"type": "uint256[]"
								}
							],
							"internalType": "struct BigInt.bigint",
							"name": "",
							"type": "tuple"
						}
					],
					"stateMutability": "pure",
					"type": "function"
				}
			],
			"devdoc": {
				"kind": "dev",
				"methods": {},
				"version": 1
			},
			"evm": {
				"assembly": "    /* \"W6/bigint/src/bignum.sol\":171:10241  library BigInt {... */\n  dataSize(sub_0)\n  dataOffset(sub_0)\n  0x0b\n  dup3\n  dup3\n  dup3\n  codecopy\n  dup1\n  mload\n  0x00\n  byte\n  0x73\n  eq\n  tag_1\n  jumpi\n  mstore(0x00, 0x4e487b7100000000000000000000000000000000000000000000000000000000)\n  mstore(0x04, 0x00)\n  revert(0x00, 0x24)\ntag_1:\n  mstore(0x00, address)\n  0x73\n  dup2\n  mstore8\n  dup3\n  dup2\n  return\nstop\n\nsub_0: assembly {\n        /* \"W6/bigint/src/bignum.sol\":171:10241  library BigInt {... */\n      eq(address, deployTimeAddress())\n      mstore(0x40, 0x80)\n      jumpi(tag_1, lt(calldatasize, 0x04))\n      shr(0xe0, calldataload(0x00))\n      dup1\n      0x385a7ef8\n      eq\n      tag_2\n      jumpi\n    tag_1:\n      0x00\n      dup1\n      revert\n        /* \"W6/bigint/src/bignum.sol\":321:1467  function add(bigint memory a, bigint memory b) public pure returns (bigint memory) {... */\n    tag_2:\n      tag_3\n      0x04\n      dup1\n      calldatasize\n      sub\n      dup2\n      add\n      swap1\n      tag_4\n      swap2\n      swap1\n      tag_5\n      jump\t// in\n    tag_4:\n      tag_6\n      jump\t// in\n    tag_3:\n      mload(0x40)\n      tag_7\n      swap2\n      swap1\n      tag_8\n      jump\t// in\n    tag_7:\n      mload(0x40)\n      dup1\n      swap2\n      sub\n      swap1\n      return\n    tag_6:\n        /* \"W6/bigint/src/bignum.sol\":389:402  bigint memory */\n      tag_9\n      tag_10\n      jump\t// in\n    tag_9:\n        /* \"W6/bigint/src/bignum.sol\":415:433  uint256 max_length */\n      0x00\n        /* \"W6/bigint/src/bignum.sol\":436:471  max(a.limbs.length, b.limbs.length) */\n      tag_12\n        /* \"W6/bigint/src/bignum.sol\":440:441  a */\n      dup5\n        /* \"W6/bigint/src/bignum.sol\":440:447  a.limbs */\n      0x00\n      add\n      mload\n        /* \"W6/bigint/src/bignum.sol\":440:454  a.limbs.length */\n      mload\n        /* \"W6/bigint/src/bignum.sol\":456:457  b */\n      dup5\n        /* \"W6/bigint/src/bignum.sol\":456:463  b.limbs */\n      0x00\n      add\n      mload\n        /* \"W6/bigint/src/bignum.sol\":456:470  b.limbs.length */\n      mload\n        /* \"W6/bigint/src/bignum.sol\":436:439  max */\n      tag_13\n        /* \"W6/bigint/src/bignum.sol\":436:471  max(a.limbs.length, b.limbs.length) */\n      jump\t// in\n    tag_12:\n        /* \"W6/bigint/src/bignum.sol\":415:471  uint256 max_length = max(a.limbs.length, b.limbs.length) */\n      swap1\n      pop\n        /* \"W6/bigint/src/bignum.sol\":482:500  uint256 min_length */\n      0x00\n        /* \"W6/bigint/src/bignum.sol\":503:538  min(a.limbs.length, b.limbs.length) */\n      tag_14\n        /* \"W6/bigint/src/bignum.sol\":507:508  a */\n      dup6\n        /* \"W6/bigint/src/bignum.sol\":507:514  a.limbs */\n      0x00\n      add\n      mload\n        /* \"W6/bigint/src/bignum.sol\":507:521  a.limbs.length */\n      mload\n        /* \"W6/bigint/src/bignum.sol\":523:524  b */\n      dup6\n        /* \"W6/bigint/src/bignum.sol\":523:530  b.limbs */\n      0x00\n      add\n      mload\n        /* \"W6/bigint/src/bignum.sol\":523:537  b.limbs.length */\n      mload\n        /* \"W6/bigint/src/bignum.sol\":503:506  min */\n      tag_15\n        /* \"W6/bigint/src/bignum.sol\":503:538  min(a.limbs.length, b.limbs.length) */\n      jump\t// in\n    tag_14:\n        /* \"W6/bigint/src/bignum.sol\":482:538  uint256 min_length = min(a.limbs.length, b.limbs.length) */\n      swap1\n      pop\n        /* \"W6/bigint/src/bignum.sol\":551:571  bigint memory result */\n      tag_16\n      tag_10\n      jump\t// in\n    tag_16:\n        /* \"W6/bigint/src/bignum.sol\":624:625  1 */\n      0x01\n        /* \"W6/bigint/src/bignum.sol\":611:621  max_length */\n      dup4\n        /* \"W6/bigint/src/bignum.sol\":611:625  max_length + 1 */\n      tag_17\n      swap2\n      swap1\n      tag_18\n      jump\t// in\n    tag_17:\n        /* \"W6/bigint/src/bignum.sol\":597:626  new uint256[](max_length + 1) */\n      0xffffffffffffffff\n      dup2\n      gt\n      iszero\n      tag_19\n      jumpi\n      tag_20\n      tag_21\n      jump\t// in\n    tag_20:\n    tag_19:\n      mload(0x40)\n      swap1\n      dup1\n      dup3\n      mstore\n      dup1\n      0x20\n      mul\n      0x20\n      add\n      dup3\n      add\n      0x40\n      mstore\n      dup1\n      iszero\n      tag_22\n      jumpi\n      dup2\n      0x20\n      add\n      0x20\n      dup3\n      mul\n      dup1\n      calldatasize\n      dup4\n      calldatacopy\n      dup1\n      dup3\n      add\n      swap2\n      pop\n      pop\n      swap1\n      pop\n    tag_22:\n      pop\n        /* \"W6/bigint/src/bignum.sol\":582:588  result */\n      dup2\n        /* \"W6/bigint/src/bignum.sol\":582:594  result.limbs */\n      0x00\n      add\n        /* \"W6/bigint/src/bignum.sol\":582:626  result.limbs = new uint256[](max_length + 1) */\n      dup2\n      swap1\n      mstore\n      pop\n        /* \"W6/bigint/src/bignum.sol\":643:652  uint256 i */\n      0x00\n        /* \"W6/bigint/src/bignum.sol\":639:747  for(uint256 i = 0; i < min_length; i++) {... */\n    tag_23:\n        /* \"W6/bigint/src/bignum.sol\":662:672  min_length */\n      dup3\n        /* \"W6/bigint/src/bignum.sol\":658:659  i */\n      dup2\n        /* \"W6/bigint/src/bignum.sol\":658:672  i < min_length */\n      lt\n        /* \"W6/bigint/src/bignum.sol\":639:747  for(uint256 i = 0; i < min_length; i++) {... */\n      iszero\n      tag_24\n      jumpi\n        /* \"W6/bigint/src/bignum.sol\":725:726  b */\n      dup6\n        /* \"W6/bigint/src/bignum.sol\":725:732  b.limbs */\n      0x00\n      add\n      mload\n        /* \"W6/bigint/src/bignum.sol\":733:734  i */\n      dup2\n        /* \"W6/bigint/src/bignum.sol\":725:735  b.limbs[i] */\n      dup2\n      mload\n      dup2\n      lt\n      tag_26\n      jumpi\n      tag_27\n      tag_28\n      jump\t// in\n    tag_27:\n    tag_26:\n      0x20\n      mul\n      0x20\n      add\n      add\n      mload\n        /* \"W6/bigint/src/bignum.sol\":712:713  a */\n      dup8\n        /* \"W6/bigint/src/bignum.sol\":712:719  a.limbs */\n      0x00\n      add\n      mload\n        /* \"W6/bigint/src/bignum.sol\":720:721  i */\n      dup3\n        /* \"W6/bigint/src/bignum.sol\":712:722  a.limbs[i] */\n      dup2\n      mload\n      dup2\n      lt\n      tag_29\n      jumpi\n      tag_30\n      tag_28\n      jump\t// in\n    tag_30:\n    tag_29:\n      0x20\n      mul\n      0x20\n      add\n      add\n      mload\n        /* \"W6/bigint/src/bignum.sol\":712:735  a.limbs[i] + b.limbs[i] */\n      tag_31\n      swap2\n      swap1\n      tag_18\n      jump\t// in\n    tag_31:\n        /* \"W6/bigint/src/bignum.sol\":694:700  result */\n      dup3\n        /* \"W6/bigint/src/bignum.sol\":694:706  result.limbs */\n      0x00\n      add\n      mload\n        /* \"W6/bigint/src/bignum.sol\":707:708  i */\n      dup3\n        /* \"W6/bigint/src/bignum.sol\":694:709  result.limbs[i] */\n      dup2\n      mload\n      dup2\n      lt\n      tag_32\n      jumpi\n      tag_33\n      tag_28\n      jump\t// in\n    tag_33:\n    tag_32:\n      0x20\n      mul\n      0x20\n      add\n      add\n        /* \"W6/bigint/src/bignum.sol\":694:735  result.limbs[i] = a.limbs[i] + b.limbs[i] */\n      dup2\n      dup2\n      mstore\n      pop\n      pop\n        /* \"W6/bigint/src/bignum.sol\":674:677  i++ */\n      dup1\n      dup1\n      tag_34\n      swap1\n      tag_35\n      jump\t// in\n    tag_34:\n      swap2\n      pop\n      pop\n        /* \"W6/bigint/src/bignum.sol\":639:747  for(uint256 i = 0; i < min_length; i++) {... */\n      jump(tag_23)\n    tag_24:\n      pop\n        /* \"W6/bigint/src/bignum.sol\":761:770  uint256 i */\n      0x00\n        /* \"W6/bigint/src/bignum.sol\":773:783  min_length */\n      dup3\n        /* \"W6/bigint/src/bignum.sol\":761:783  uint256 i = min_length */\n      swap1\n      pop\n        /* \"W6/bigint/src/bignum.sol\":757:908  for(uint256 i = min_length; i < max_length; i++) {... */\n    tag_36:\n        /* \"W6/bigint/src/bignum.sol\":789:799  max_length */\n      dup4\n        /* \"W6/bigint/src/bignum.sol\":785:786  i */\n      dup2\n        /* \"W6/bigint/src/bignum.sol\":785:799  i < max_length */\n      lt\n        /* \"W6/bigint/src/bignum.sol\":757:908  for(uint256 i = min_length; i < max_length; i++) {... */\n      iszero\n      tag_37\n      jumpi\n        /* \"W6/bigint/src/bignum.sol\":856:857  b */\n      dup6\n        /* \"W6/bigint/src/bignum.sol\":856:863  b.limbs */\n      0x00\n      add\n      mload\n        /* \"W6/bigint/src/bignum.sol\":856:870  b.limbs.length */\n      mload\n        /* \"W6/bigint/src/bignum.sol\":839:840  a */\n      dup8\n        /* \"W6/bigint/src/bignum.sol\":839:846  a.limbs */\n      0x00\n      add\n      mload\n        /* \"W6/bigint/src/bignum.sol\":839:853  a.limbs.length */\n      mload\n        /* \"W6/bigint/src/bignum.sol\":839:870  a.limbs.length > b.limbs.length */\n      gt\n        /* \"W6/bigint/src/bignum.sol\":839:896  a.limbs.length > b.limbs.length ? a.limbs[i] : b.limbs[i] */\n      tag_39\n      jumpi\n        /* \"W6/bigint/src/bignum.sol\":886:887  b */\n      dup6\n        /* \"W6/bigint/src/bignum.sol\":886:893  b.limbs */\n      0x00\n      add\n      mload\n        /* \"W6/bigint/src/bignum.sol\":894:895  i */\n      dup2\n        /* \"W6/bigint/src/bignum.sol\":886:896  b.limbs[i] */\n      dup2\n      mload\n      dup2\n      lt\n      tag_40\n      jumpi\n      tag_41\n      tag_28\n      jump\t// in\n    tag_41:\n    tag_40:\n      0x20\n      mul\n      0x20\n      add\n      add\n      mload\n        /* \"W6/bigint/src/bignum.sol\":839:896  a.limbs.length > b.limbs.length ? a.limbs[i] : b.limbs[i] */\n      jump(tag_42)\n    tag_39:\n        /* \"W6/bigint/src/bignum.sol\":873:874  a */\n      dup7\n        /* \"W6/bigint/src/bignum.sol\":873:880  a.limbs */\n      0x00\n      add\n      mload\n        /* \"W6/bigint/src/bignum.sol\":881:882  i */\n      dup2\n        /* \"W6/bigint/src/bignum.sol\":873:883  a.limbs[i] */\n      dup2\n      mload\n      dup2\n      lt\n      tag_43\n      jumpi\n      tag_44\n      tag_28\n      jump\t// in\n    tag_44:\n    tag_43:\n      0x20\n      mul\n      0x20\n      add\n      add\n      mload\n        /* \"W6/bigint/src/bignum.sol\":839:896  a.limbs.length > b.limbs.length ? a.limbs[i] : b.limbs[i] */\n    tag_42:\n        /* \"W6/bigint/src/bignum.sol\":821:827  result */\n      dup3\n        /* \"W6/bigint/src/bignum.sol\":821:833  result.limbs */\n      0x00\n      add\n      mload\n        /* \"W6/bigint/src/bignum.sol\":834:835  i */\n      dup3\n        /* \"W6/bigint/src/bignum.sol\":821:836  result.limbs[i] */\n      dup2\n      mload\n      dup2\n      lt\n      tag_45\n      jumpi\n      tag_46\n      tag_28\n      jump\t// in\n    tag_46:\n    tag_45:\n      0x20\n      mul\n      0x20\n      add\n      add\n        /* \"W6/bigint/src/bignum.sol\":821:896  result.limbs[i] = a.limbs.length > b.limbs.length ? a.limbs[i] : b.limbs[i] */\n      dup2\n      dup2\n      mstore\n      pop\n      pop\n        /* \"W6/bigint/src/bignum.sol\":801:804  i++ */\n      dup1\n      dup1\n      tag_47\n      swap1\n      tag_35\n      jump\t// in\n    tag_47:\n      swap2\n      pop\n      pop\n        /* \"W6/bigint/src/bignum.sol\":757:908  for(uint256 i = min_length; i < max_length; i++) {... */\n      jump(tag_36)\n    tag_37:\n      pop\n        /* \"W6/bigint/src/bignum.sol\":922:931  uint256 i */\n      0x00\n        /* \"W6/bigint/src/bignum.sol\":918:1134  for(uint256 i = 0; i < max_length; i++) {... */\n    tag_48:\n        /* \"W6/bigint/src/bignum.sol\":941:951  max_length */\n      dup4\n        /* \"W6/bigint/src/bignum.sol\":937:938  i */\n      dup2\n        /* \"W6/bigint/src/bignum.sol\":937:951  i < max_length */\n      lt\n        /* \"W6/bigint/src/bignum.sol\":918:1134  for(uint256 i = 0; i < max_length; i++) {... */\n      iszero\n      tag_49\n      jumpi\n        /* \"W6/bigint/src/bignum.sol\":306:312  10**38 */\n      0x4b3b4ca85a86c47a098a224000000000\n        /* \"W6/bigint/src/bignum.sol\":976:982  result */\n      dup3\n        /* \"W6/bigint/src/bignum.sol\":976:988  result.limbs */\n      0x00\n      add\n      mload\n        /* \"W6/bigint/src/bignum.sol\":989:990  i */\n      dup3\n        /* \"W6/bigint/src/bignum.sol\":976:991  result.limbs[i] */\n      dup2\n      mload\n      dup2\n      lt\n      tag_51\n      jumpi\n      tag_52\n      tag_28\n      jump\t// in\n    tag_52:\n    tag_51:\n      0x20\n      mul\n      0x20\n      add\n      add\n      mload\n        /* \"W6/bigint/src/bignum.sol\":976:999  result.limbs[i] >= BASE */\n      lt\n        /* \"W6/bigint/src/bignum.sol\":973:1123  if(result.limbs[i] >= BASE) {... */\n      tag_53\n      jumpi\n        /* \"W6/bigint/src/bignum.sol\":306:312  10**38 */\n      0x4b3b4ca85a86c47a098a224000000000\n        /* \"W6/bigint/src/bignum.sol\":1043:1049  result */\n      dup3\n        /* \"W6/bigint/src/bignum.sol\":1043:1055  result.limbs */\n      0x00\n      add\n      mload\n        /* \"W6/bigint/src/bignum.sol\":1056:1057  i */\n      dup3\n        /* \"W6/bigint/src/bignum.sol\":1043:1058  result.limbs[i] */\n      dup2\n      mload\n      dup2\n      lt\n      tag_54\n      jumpi\n      tag_55\n      tag_28\n      jump\t// in\n    tag_55:\n    tag_54:\n      0x20\n      mul\n      0x20\n      add\n      add\n      mload\n        /* \"W6/bigint/src/bignum.sol\":1043:1065  result.limbs[i] / BASE */\n      tag_56\n      swap2\n      swap1\n      tag_57\n      jump\t// in\n    tag_56:\n        /* \"W6/bigint/src/bignum.sol\":1020:1026  result */\n      dup3\n        /* \"W6/bigint/src/bignum.sol\":1020:1032  result.limbs */\n      0x00\n      add\n      mload\n        /* \"W6/bigint/src/bignum.sol\":1037:1038  1 */\n      0x01\n        /* \"W6/bigint/src/bignum.sol\":1033:1034  i */\n      dup4\n        /* \"W6/bigint/src/bignum.sol\":1033:1038  i + 1 */\n      tag_58\n      swap2\n      swap1\n      tag_18\n      jump\t// in\n    tag_58:\n        /* \"W6/bigint/src/bignum.sol\":1020:1039  result.limbs[i + 1] */\n      dup2\n      mload\n      dup2\n      lt\n      tag_59\n      jumpi\n      tag_60\n      tag_28\n      jump\t// in\n    tag_60:\n    tag_59:\n      0x20\n      mul\n      0x20\n      add\n      add\n        /* \"W6/bigint/src/bignum.sol\":1020:1065  result.limbs[i + 1] += result.limbs[i] / BASE */\n      dup2\n      dup2\n      mload\n      tag_61\n      swap2\n      swap1\n      tag_18\n      jump\t// in\n    tag_61:\n      swap2\n      pop\n      dup2\n      dup2\n      mstore\n      pop\n      pop\n        /* \"W6/bigint/src/bignum.sol\":306:312  10**38 */\n      0x4b3b4ca85a86c47a098a224000000000\n        /* \"W6/bigint/src/bignum.sol\":1084:1090  result */\n      dup3\n        /* \"W6/bigint/src/bignum.sol\":1084:1096  result.limbs */\n      0x00\n      add\n      mload\n        /* \"W6/bigint/src/bignum.sol\":1097:1098  i */\n      dup3\n        /* \"W6/bigint/src/bignum.sol\":1084:1099  result.limbs[i] */\n      dup2\n      mload\n      dup2\n      lt\n      tag_62\n      jumpi\n      tag_63\n      tag_28\n      jump\t// in\n    tag_63:\n    tag_62:\n      0x20\n      mul\n      0x20\n      add\n      add\n        /* \"W6/bigint/src/bignum.sol\":1084:1107  result.limbs[i] %= BASE */\n      dup2\n      dup2\n      mload\n      tag_64\n      swap2\n      swap1\n      tag_65\n      jump\t// in\n    tag_64:\n      swap2\n      pop\n      dup2\n      dup2\n      mstore\n      pop\n      pop\n        /* \"W6/bigint/src/bignum.sol\":973:1123  if(result.limbs[i] >= BASE) {... */\n    tag_53:\n        /* \"W6/bigint/src/bignum.sol\":953:956  i++ */\n      dup1\n      dup1\n      tag_66\n      swap1\n      tag_35\n      jump\t// in\n    tag_66:\n      swap2\n      pop\n      pop\n        /* \"W6/bigint/src/bignum.sol\":918:1134  for(uint256 i = 0; i < max_length; i++) {... */\n      jump(tag_48)\n    tag_49:\n      pop\n        /* \"W6/bigint/src/bignum.sol\":1175:1176  0 */\n      0x00\n        /* \"W6/bigint/src/bignum.sol\":1147:1153  result */\n      dup2\n        /* \"W6/bigint/src/bignum.sol\":1147:1159  result.limbs */\n      0x00\n      add\n      mload\n        /* \"W6/bigint/src/bignum.sol\":1160:1170  max_length */\n      dup5\n        /* \"W6/bigint/src/bignum.sol\":1147:1171  result.limbs[max_length] */\n      dup2\n      mload\n      dup2\n      lt\n      tag_67\n      jumpi\n      tag_68\n      tag_28\n      jump\t// in\n    tag_68:\n    tag_67:\n      0x20\n      mul\n      0x20\n      add\n      add\n      mload\n        /* \"W6/bigint/src/bignum.sol\":1147:1176  result.limbs[max_length] == 0 */\n      sub\n        /* \"W6/bigint/src/bignum.sol\":1144:1434  if(result.limbs[max_length] == 0) {... */\n      tag_69\n      jumpi\n        /* \"W6/bigint/src/bignum.sol\":1193:1214  bigint memory result2 */\n      tag_70\n      tag_10\n      jump\t// in\n    tag_70:\n        /* \"W6/bigint/src/bignum.sol\":1259:1269  max_length */\n      dup4\n        /* \"W6/bigint/src/bignum.sol\":1245:1270  new uint256[](max_length) */\n      0xffffffffffffffff\n      dup2\n      gt\n      iszero\n      tag_71\n      jumpi\n      tag_72\n      tag_21\n      jump\t// in\n    tag_72:\n    tag_71:\n      mload(0x40)\n      swap1\n      dup1\n      dup3\n      mstore\n      dup1\n      0x20\n      mul\n      0x20\n      add\n      dup3\n      add\n      0x40\n      mstore\n      dup1\n      iszero\n      tag_73\n      jumpi\n      dup2\n      0x20\n      add\n      0x20\n      dup3\n      mul\n      dup1\n      calldatasize\n      dup4\n      calldatacopy\n      dup1\n      dup3\n      add\n      swap2\n      pop\n      pop\n      swap1\n      pop\n    tag_73:\n      pop\n        /* \"W6/bigint/src/bignum.sol\":1229:1236  result2 */\n      dup2\n        /* \"W6/bigint/src/bignum.sol\":1229:1242  result2.limbs */\n      0x00\n      add\n        /* \"W6/bigint/src/bignum.sol\":1229:1270  result2.limbs = new uint256[](max_length) */\n      dup2\n      swap1\n      mstore\n      pop\n        /* \"W6/bigint/src/bignum.sol\":1289:1298  uint256 i */\n      0x00\n        /* \"W6/bigint/src/bignum.sol\":1285:1394  for(uint256 i = 0; i < max_length; i++) {... */\n    tag_74:\n        /* \"W6/bigint/src/bignum.sol\":1308:1318  max_length */\n      dup5\n        /* \"W6/bigint/src/bignum.sol\":1304:1305  i */\n      dup2\n        /* \"W6/bigint/src/bignum.sol\":1304:1318  i < max_length */\n      lt\n        /* \"W6/bigint/src/bignum.sol\":1285:1394  for(uint256 i = 0; i < max_length; i++) {... */\n      iszero\n      tag_75\n      jumpi\n        /* \"W6/bigint/src/bignum.sol\":1363:1369  result */\n      dup3\n        /* \"W6/bigint/src/bignum.sol\":1363:1375  result.limbs */\n      0x00\n      add\n      mload\n        /* \"W6/bigint/src/bignum.sol\":1376:1377  i */\n      dup2\n        /* \"W6/bigint/src/bignum.sol\":1363:1378  result.limbs[i] */\n      dup2\n      mload\n      dup2\n      lt\n      tag_77\n      jumpi\n      tag_78\n      tag_28\n      jump\t// in\n    tag_78:\n    tag_77:\n      0x20\n      mul\n      0x20\n      add\n      add\n      mload\n        /* \"W6/bigint/src/bignum.sol\":1344:1351  result2 */\n      dup3\n        /* \"W6/bigint/src/bignum.sol\":1344:1357  result2.limbs */\n      0x00\n      add\n      mload\n        /* \"W6/bigint/src/bignum.sol\":1358:1359  i */\n      dup3\n        /* \"W6/bigint/src/bignum.sol\":1344:1360  result2.limbs[i] */\n      dup2\n      mload\n      dup2\n      lt\n      tag_79\n      jumpi\n      tag_80\n      tag_28\n      jump\t// in\n    tag_80:\n    tag_79:\n      0x20\n      mul\n      0x20\n      add\n      add\n        /* \"W6/bigint/src/bignum.sol\":1344:1378  result2.limbs[i] = result.limbs[i] */\n      dup2\n      dup2\n      mstore\n      pop\n      pop\n        /* \"W6/bigint/src/bignum.sol\":1320:1323  i++ */\n      dup1\n      dup1\n      tag_81\n      swap1\n      tag_35\n      jump\t// in\n    tag_81:\n      swap2\n      pop\n      pop\n        /* \"W6/bigint/src/bignum.sol\":1285:1394  for(uint256 i = 0; i < max_length; i++) {... */\n      jump(tag_74)\n    tag_75:\n      pop\n        /* \"W6/bigint/src/bignum.sol\":1415:1422  result2 */\n      dup1\n        /* \"W6/bigint/src/bignum.sol\":1408:1422  return result2 */\n      swap5\n      pop\n      pop\n      pop\n      pop\n      pop\n      jump(tag_11)\n        /* \"W6/bigint/src/bignum.sol\":1144:1434  if(result.limbs[max_length] == 0) {... */\n    tag_69:\n        /* \"W6/bigint/src/bignum.sol\":1453:1459  result */\n      dup1\n        /* \"W6/bigint/src/bignum.sol\":1446:1459  return result */\n      swap4\n      pop\n      pop\n      pop\n      pop\n        /* \"W6/bigint/src/bignum.sol\":321:1467  function add(bigint memory a, bigint memory b) public pure returns (bigint memory) {... */\n    tag_11:\n      swap3\n      swap2\n      pop\n      pop\n      jump\t// out\n        /* \"W6/bigint/src/bignum.sol\":5073:5178  function max(uint256 a, uint256 b) private pure returns (uint256) {... */\n    tag_13:\n        /* \"W6/bigint/src/bignum.sol\":5130:5137  uint256 */\n      0x00\n        /* \"W6/bigint/src/bignum.sol\":5161:5162  b */\n      dup2\n        /* \"W6/bigint/src/bignum.sol\":5157:5158  a */\n      dup4\n        /* \"W6/bigint/src/bignum.sol\":5157:5162  a > b */\n      gt\n        /* \"W6/bigint/src/bignum.sol\":5157:5170  a > b ? a : b */\n      tag_83\n      jumpi\n        /* \"W6/bigint/src/bignum.sol\":5169:5170  b */\n      dup2\n        /* \"W6/bigint/src/bignum.sol\":5157:5170  a > b ? a : b */\n      jump(tag_84)\n    tag_83:\n        /* \"W6/bigint/src/bignum.sol\":5165:5166  a */\n      dup3\n        /* \"W6/bigint/src/bignum.sol\":5157:5170  a > b ? a : b */\n    tag_84:\n        /* \"W6/bigint/src/bignum.sol\":5150:5170  return a > b ? a : b */\n      swap1\n      pop\n        /* \"W6/bigint/src/bignum.sol\":5073:5178  function max(uint256 a, uint256 b) private pure returns (uint256) {... */\n      swap3\n      swap2\n      pop\n      pop\n      jump\t// out\n        /* \"W6/bigint/src/bignum.sol\":5184:5289  function min(uint256 a, uint256 b) private pure returns (uint256) {... */\n    tag_15:\n        /* \"W6/bigint/src/bignum.sol\":5241:5248  uint256 */\n      0x00\n        /* \"W6/bigint/src/bignum.sol\":5272:5273  b */\n      dup2\n        /* \"W6/bigint/src/bignum.sol\":5268:5269  a */\n      dup4\n        /* \"W6/bigint/src/bignum.sol\":5268:5273  a < b */\n      lt\n        /* \"W6/bigint/src/bignum.sol\":5268:5281  a < b ? a : b */\n      tag_86\n      jumpi\n        /* \"W6/bigint/src/bignum.sol\":5280:5281  b */\n      dup2\n        /* \"W6/bigint/src/bignum.sol\":5268:5281  a < b ? a : b */\n      jump(tag_87)\n    tag_86:\n        /* \"W6/bigint/src/bignum.sol\":5276:5277  a */\n      dup3\n        /* \"W6/bigint/src/bignum.sol\":5268:5281  a < b ? a : b */\n    tag_87:\n        /* \"W6/bigint/src/bignum.sol\":5261:5281  return a < b ? a : b */\n      swap1\n      pop\n        /* \"W6/bigint/src/bignum.sol\":5184:5289  function min(uint256 a, uint256 b) private pure returns (uint256) {... */\n      swap3\n      swap2\n      pop\n      pop\n      jump\t// out\n    tag_10:\n      mload(0x40)\n      dup1\n      0x20\n      add\n      0x40\n      mstore\n      dup1\n      0x60\n      dup2\n      mstore\n      pop\n      swap1\n      jump\t// out\n        /* \"#utility.yul\":7:82   */\n    tag_88:\n        /* \"#utility.yul\":40:46   */\n      0x00\n        /* \"#utility.yul\":73:75   */\n      0x40\n        /* \"#utility.yul\":67:76   */\n      mload\n        /* \"#utility.yul\":57:76   */\n      swap1\n      pop\n        /* \"#utility.yul\":7:82   */\n      swap1\n      jump\t// out\n        /* \"#utility.yul\":88:205   */\n    tag_89:\n        /* \"#utility.yul\":197:198   */\n      0x00\n        /* \"#utility.yul\":194:195   */\n      dup1\n        /* \"#utility.yul\":187:199   */\n      revert\n        /* \"#utility.yul\":211:328   */\n    tag_90:\n        /* \"#utility.yul\":320:321   */\n      0x00\n        /* \"#utility.yul\":317:318   */\n      dup1\n        /* \"#utility.yul\":310:322   */\n      revert\n        /* \"#utility.yul\":334:451   */\n    tag_91:\n        /* \"#utility.yul\":443:444   */\n      0x00\n        /* \"#utility.yul\":440:441   */\n      dup1\n        /* \"#utility.yul\":433:445   */\n      revert\n        /* \"#utility.yul\":457:559   */\n    tag_92:\n        /* \"#utility.yul\":498:504   */\n      0x00\n        /* \"#utility.yul\":549:551   */\n      0x1f\n        /* \"#utility.yul\":545:552   */\n      not\n        /* \"#utility.yul\":540:542   */\n      0x1f\n        /* \"#utility.yul\":533:538   */\n      dup4\n        /* \"#utility.yul\":529:543   */\n      add\n        /* \"#utility.yul\":525:553   */\n      and\n        /* \"#utility.yul\":515:553   */\n      swap1\n      pop\n        /* \"#utility.yul\":457:559   */\n      swap2\n      swap1\n      pop\n      jump\t// out\n        /* \"#utility.yul\":565:745   */\n    tag_21:\n        /* \"#utility.yul\":613:690   */\n      0x4e487b7100000000000000000000000000000000000000000000000000000000\n        /* \"#utility.yul\":610:611   */\n      0x00\n        /* \"#utility.yul\":603:691   */\n      mstore\n        /* \"#utility.yul\":710:714   */\n      0x41\n        /* \"#utility.yul\":707:708   */\n      0x04\n        /* \"#utility.yul\":700:715   */\n      mstore\n        /* \"#utility.yul\":734:738   */\n      0x24\n        /* \"#utility.yul\":731:732   */\n      0x00\n        /* \"#utility.yul\":724:739   */\n      revert\n        /* \"#utility.yul\":751:1032   */\n    tag_93:\n        /* \"#utility.yul\":834:861   */\n      tag_123\n        /* \"#utility.yul\":856:860   */\n      dup3\n        /* \"#utility.yul\":834:861   */\n      tag_92\n      jump\t// in\n    tag_123:\n        /* \"#utility.yul\":826:832   */\n      dup2\n        /* \"#utility.yul\":822:862   */\n      add\n        /* \"#utility.yul\":964:970   */\n      dup2\n        /* \"#utility.yul\":952:962   */\n      dup2\n        /* \"#utility.yul\":949:971   */\n      lt\n        /* \"#utility.yul\":928:946   */\n      0xffffffffffffffff\n        /* \"#utility.yul\":916:926   */\n      dup3\n        /* \"#utility.yul\":913:947   */\n      gt\n        /* \"#utility.yul\":910:972   */\n      or\n        /* \"#utility.yul\":907:995   */\n      iszero\n      tag_124\n      jumpi\n        /* \"#utility.yul\":975:993   */\n      tag_125\n      tag_21\n      jump\t// in\n    tag_125:\n        /* \"#utility.yul\":907:995   */\n    tag_124:\n        /* \"#utility.yul\":1015:1025   */\n      dup1\n        /* \"#utility.yul\":1011:1013   */\n      0x40\n        /* \"#utility.yul\":1004:1026   */\n      mstore\n        /* \"#utility.yul\":794:1032   */\n      pop\n        /* \"#utility.yul\":751:1032   */\n      pop\n      pop\n      jump\t// out\n        /* \"#utility.yul\":1038:1167   */\n    tag_94:\n        /* \"#utility.yul\":1072:1078   */\n      0x00\n        /* \"#utility.yul\":1099:1119   */\n      tag_127\n      tag_88\n      jump\t// in\n    tag_127:\n        /* \"#utility.yul\":1089:1119   */\n      swap1\n      pop\n        /* \"#utility.yul\":1128:1161   */\n      tag_128\n        /* \"#utility.yul\":1156:1160   */\n      dup3\n        /* \"#utility.yul\":1148:1154   */\n      dup3\n        /* \"#utility.yul\":1128:1161   */\n      tag_93\n      jump\t// in\n    tag_128:\n        /* \"#utility.yul\":1038:1167   */\n      swap2\n      swap1\n      pop\n      jump\t// out\n        /* \"#utility.yul\":1173:1290   */\n    tag_95:\n        /* \"#utility.yul\":1282:1283   */\n      0x00\n        /* \"#utility.yul\":1279:1280   */\n      dup1\n        /* \"#utility.yul\":1272:1284   */\n      revert\n        /* \"#utility.yul\":1296:1413   */\n    tag_96:\n        /* \"#utility.yul\":1405:1406   */\n      0x00\n        /* \"#utility.yul\":1402:1403   */\n      dup1\n        /* \"#utility.yul\":1395:1407   */\n      revert\n        /* \"#utility.yul\":1419:1730   */\n    tag_97:\n        /* \"#utility.yul\":1496:1500   */\n      0x00\n        /* \"#utility.yul\":1586:1604   */\n      0xffffffffffffffff\n        /* \"#utility.yul\":1578:1584   */\n      dup3\n        /* \"#utility.yul\":1575:1605   */\n      gt\n        /* \"#utility.yul\":1572:1628   */\n      iszero\n      tag_132\n      jumpi\n        /* \"#utility.yul\":1608:1626   */\n      tag_133\n      tag_21\n      jump\t// in\n    tag_133:\n        /* \"#utility.yul\":1572:1628   */\n    tag_132:\n        /* \"#utility.yul\":1658:1662   */\n      0x20\n        /* \"#utility.yul\":1650:1656   */\n      dup3\n        /* \"#utility.yul\":1646:1663   */\n      mul\n        /* \"#utility.yul\":1638:1663   */\n      swap1\n      pop\n        /* \"#utility.yul\":1718:1722   */\n      0x20\n        /* \"#utility.yul\":1712:1716   */\n      dup2\n        /* \"#utility.yul\":1708:1723   */\n      add\n        /* \"#utility.yul\":1700:1723   */\n      swap1\n      pop\n        /* \"#utility.yul\":1419:1730   */\n      swap2\n      swap1\n      pop\n      jump\t// out\n        /* \"#utility.yul\":1736:1853   */\n    tag_98:\n        /* \"#utility.yul\":1845:1846   */\n      0x00\n        /* \"#utility.yul\":1842:1843   */\n      dup1\n        /* \"#utility.yul\":1835:1847   */\n      revert\n        /* \"#utility.yul\":1859:1936   */\n    tag_99:\n        /* \"#utility.yul\":1896:1903   */\n      0x00\n        /* \"#utility.yul\":1925:1930   */\n      dup2\n        /* \"#utility.yul\":1914:1930   */\n      swap1\n      pop\n        /* \"#utility.yul\":1859:1936   */\n      swap2\n      swap1\n      pop\n      jump\t// out\n        /* \"#utility.yul\":1942:2064   */\n    tag_100:\n        /* \"#utility.yul\":2015:2039   */\n      tag_137\n        /* \"#utility.yul\":2033:2038   */\n      dup2\n        /* \"#utility.yul\":2015:2039   */\n      tag_99\n      jump\t// in\n    tag_137:\n        /* \"#utility.yul\":2008:2013   */\n      dup2\n        /* \"#utility.yul\":2005:2040   */\n      eq\n        /* \"#utility.yul\":1995:2058   */\n      tag_138\n      jumpi\n        /* \"#utility.yul\":2054:2055   */\n      0x00\n        /* \"#utility.yul\":2051:2052   */\n      dup1\n        /* \"#utility.yul\":2044:2056   */\n      revert\n        /* \"#utility.yul\":1995:2058   */\n    tag_138:\n        /* \"#utility.yul\":1942:2064   */\n      pop\n      jump\t// out\n        /* \"#utility.yul\":2070:2209   */\n    tag_101:\n        /* \"#utility.yul\":2116:2121   */\n      0x00\n        /* \"#utility.yul\":2154:2160   */\n      dup2\n        /* \"#utility.yul\":2141:2161   */\n      calldataload\n        /* \"#utility.yul\":2132:2161   */\n      swap1\n      pop\n        /* \"#utility.yul\":2170:2203   */\n      tag_140\n        /* \"#utility.yul\":2197:2202   */\n      dup2\n        /* \"#utility.yul\":2170:2203   */\n      tag_100\n      jump\t// in\n    tag_140:\n        /* \"#utility.yul\":2070:2209   */\n      swap3\n      swap2\n      pop\n      pop\n      jump\t// out\n        /* \"#utility.yul\":2232:2942   */\n    tag_102:\n        /* \"#utility.yul\":2328:2333   */\n      0x00\n        /* \"#utility.yul\":2353:2434   */\n      tag_142\n        /* \"#utility.yul\":2369:2433   */\n      tag_143\n        /* \"#utility.yul\":2426:2432   */\n      dup5\n        /* \"#utility.yul\":2369:2433   */\n      tag_97\n      jump\t// in\n    tag_143:\n        /* \"#utility.yul\":2353:2434   */\n      tag_94\n      jump\t// in\n    tag_142:\n        /* \"#utility.yul\":2344:2434   */\n      swap1\n      pop\n        /* \"#utility.yul\":2454:2459   */\n      dup1\n        /* \"#utility.yul\":2483:2489   */\n      dup4\n        /* \"#utility.yul\":2476:2481   */\n      dup3\n        /* \"#utility.yul\":2469:2490   */\n      mstore\n        /* \"#utility.yul\":2517:2521   */\n      0x20\n        /* \"#utility.yul\":2510:2515   */\n      dup3\n        /* \"#utility.yul\":2506:2522   */\n      add\n        /* \"#utility.yul\":2499:2522   */\n      swap1\n      pop\n        /* \"#utility.yul\":2570:2574   */\n      0x20\n        /* \"#utility.yul\":2562:2568   */\n      dup5\n        /* \"#utility.yul\":2558:2575   */\n      mul\n        /* \"#utility.yul\":2550:2556   */\n      dup4\n        /* \"#utility.yul\":2546:2576   */\n      add\n        /* \"#utility.yul\":2599:2602   */\n      dup6\n        /* \"#utility.yul\":2591:2597   */\n      dup2\n        /* \"#utility.yul\":2588:2603   */\n      gt\n        /* \"#utility.yul\":2585:2707   */\n      iszero\n      tag_144\n      jumpi\n        /* \"#utility.yul\":2618:2697   */\n      tag_145\n      tag_98\n      jump\t// in\n    tag_145:\n        /* \"#utility.yul\":2585:2707   */\n    tag_144:\n        /* \"#utility.yul\":2733:2739   */\n      dup4\n        /* \"#utility.yul\":2716:2936   */\n    tag_146:\n        /* \"#utility.yul\":2750:2756   */\n      dup2\n        /* \"#utility.yul\":2745:2748   */\n      dup2\n        /* \"#utility.yul\":2742:2757   */\n      lt\n        /* \"#utility.yul\":2716:2936   */\n      iszero\n      tag_148\n      jumpi\n        /* \"#utility.yul\":2825:2828   */\n      dup1\n        /* \"#utility.yul\":2854:2891   */\n      tag_149\n        /* \"#utility.yul\":2887:2890   */\n      dup9\n        /* \"#utility.yul\":2875:2885   */\n      dup3\n        /* \"#utility.yul\":2854:2891   */\n      tag_101\n      jump\t// in\n    tag_149:\n        /* \"#utility.yul\":2849:2852   */\n      dup5\n        /* \"#utility.yul\":2842:2892   */\n      mstore\n        /* \"#utility.yul\":2921:2925   */\n      0x20\n        /* \"#utility.yul\":2916:2919   */\n      dup5\n        /* \"#utility.yul\":2912:2926   */\n      add\n        /* \"#utility.yul\":2905:2926   */\n      swap4\n      pop\n        /* \"#utility.yul\":2792:2936   */\n      pop\n        /* \"#utility.yul\":2776:2780   */\n      0x20\n        /* \"#utility.yul\":2771:2774   */\n      dup2\n        /* \"#utility.yul\":2767:2781   */\n      add\n        /* \"#utility.yul\":2760:2781   */\n      swap1\n      pop\n        /* \"#utility.yul\":2716:2936   */\n      jump(tag_146)\n    tag_148:\n        /* \"#utility.yul\":2720:2741   */\n      pop\n        /* \"#utility.yul\":2334:2942   */\n      pop\n      pop\n        /* \"#utility.yul\":2232:2942   */\n      swap4\n      swap3\n      pop\n      pop\n      pop\n      jump\t// out\n        /* \"#utility.yul\":2965:3335   */\n    tag_103:\n        /* \"#utility.yul\":3036:3041   */\n      0x00\n        /* \"#utility.yul\":3085:3088   */\n      dup3\n        /* \"#utility.yul\":3078:3082   */\n      0x1f\n        /* \"#utility.yul\":3070:3076   */\n      dup4\n        /* \"#utility.yul\":3066:3083   */\n      add\n        /* \"#utility.yul\":3062:3089   */\n      slt\n        /* \"#utility.yul\":3052:3174   */\n      tag_151\n      jumpi\n        /* \"#utility.yul\":3093:3172   */\n      tag_152\n      tag_96\n      jump\t// in\n    tag_152:\n        /* \"#utility.yul\":3052:3174   */\n    tag_151:\n        /* \"#utility.yul\":3210:3216   */\n      dup2\n        /* \"#utility.yul\":3197:3217   */\n      calldataload\n        /* \"#utility.yul\":3235:3329   */\n      tag_153\n        /* \"#utility.yul\":3325:3328   */\n      dup5\n        /* \"#utility.yul\":3317:3323   */\n      dup3\n        /* \"#utility.yul\":3310:3314   */\n      0x20\n        /* \"#utility.yul\":3302:3308   */\n      dup7\n        /* \"#utility.yul\":3298:3315   */\n      add\n        /* \"#utility.yul\":3235:3329   */\n      tag_102\n      jump\t// in\n    tag_153:\n        /* \"#utility.yul\":3226:3329   */\n      swap2\n      pop\n        /* \"#utility.yul\":3042:3335   */\n      pop\n        /* \"#utility.yul\":2965:3335   */\n      swap3\n      swap2\n      pop\n      pop\n      jump\t// out\n        /* \"#utility.yul\":3369:3967   */\n    tag_104:\n        /* \"#utility.yul\":3442:3447   */\n      0x00\n        /* \"#utility.yul\":3486:3490   */\n      0x20\n        /* \"#utility.yul\":3474:3483   */\n      dup3\n        /* \"#utility.yul\":3469:3472   */\n      dup5\n        /* \"#utility.yul\":3465:3484   */\n      sub\n        /* \"#utility.yul\":3461:3491   */\n      slt\n        /* \"#utility.yul\":3458:3575   */\n      iszero\n      tag_155\n      jumpi\n        /* \"#utility.yul\":3494:3573   */\n      tag_156\n      tag_91\n      jump\t// in\n    tag_156:\n        /* \"#utility.yul\":3458:3575   */\n    tag_155:\n        /* \"#utility.yul\":3593:3614   */\n      tag_157\n        /* \"#utility.yul\":3609:3613   */\n      0x20\n        /* \"#utility.yul\":3593:3614   */\n      tag_94\n      jump\t// in\n    tag_157:\n        /* \"#utility.yul\":3584:3614   */\n      swap1\n      pop\n        /* \"#utility.yul\":3702:3703   */\n      0x00\n        /* \"#utility.yul\":3691:3700   */\n      dup3\n        /* \"#utility.yul\":3687:3704   */\n      add\n        /* \"#utility.yul\":3674:3705   */\n      calldataload\n        /* \"#utility.yul\":3732:3750   */\n      0xffffffffffffffff\n        /* \"#utility.yul\":3724:3730   */\n      dup2\n        /* \"#utility.yul\":3721:3751   */\n      gt\n        /* \"#utility.yul\":3718:3835   */\n      iszero\n      tag_158\n      jumpi\n        /* \"#utility.yul\":3754:3833   */\n      tag_159\n      tag_95\n      jump\t// in\n    tag_159:\n        /* \"#utility.yul\":3718:3835   */\n    tag_158:\n        /* \"#utility.yul\":3874:3948   */\n      tag_160\n        /* \"#utility.yul\":3944:3947   */\n      dup5\n        /* \"#utility.yul\":3935:3941   */\n      dup3\n        /* \"#utility.yul\":3924:3933   */\n      dup6\n        /* \"#utility.yul\":3920:3942   */\n      add\n        /* \"#utility.yul\":3874:3948   */\n      tag_103\n      jump\t// in\n    tag_160:\n        /* \"#utility.yul\":3867:3871   */\n      0x00\n        /* \"#utility.yul\":3860:3865   */\n      dup4\n        /* \"#utility.yul\":3856:3872   */\n      add\n        /* \"#utility.yul\":3849:3949   */\n      mstore\n        /* \"#utility.yul\":3624:3960   */\n      pop\n        /* \"#utility.yul\":3369:3967   */\n      swap3\n      swap2\n      pop\n      pop\n      jump\t// out\n        /* \"#utility.yul\":3973:4863   */\n    tag_5:\n        /* \"#utility.yul\":4089:4095   */\n      0x00\n        /* \"#utility.yul\":4097:4103   */\n      dup1\n        /* \"#utility.yul\":4146:4148   */\n      0x40\n        /* \"#utility.yul\":4134:4143   */\n      dup4\n        /* \"#utility.yul\":4125:4132   */\n      dup6\n        /* \"#utility.yul\":4121:4144   */\n      sub\n        /* \"#utility.yul\":4117:4149   */\n      slt\n        /* \"#utility.yul\":4114:4233   */\n      iszero\n      tag_162\n      jumpi\n        /* \"#utility.yul\":4152:4231   */\n      tag_163\n      tag_89\n      jump\t// in\n    tag_163:\n        /* \"#utility.yul\":4114:4233   */\n    tag_162:\n        /* \"#utility.yul\":4300:4301   */\n      0x00\n        /* \"#utility.yul\":4289:4298   */\n      dup4\n        /* \"#utility.yul\":4285:4302   */\n      add\n        /* \"#utility.yul\":4272:4303   */\n      calldataload\n        /* \"#utility.yul\":4330:4348   */\n      0xffffffffffffffff\n        /* \"#utility.yul\":4322:4328   */\n      dup2\n        /* \"#utility.yul\":4319:4349   */\n      gt\n        /* \"#utility.yul\":4316:4433   */\n      iszero\n      tag_164\n      jumpi\n        /* \"#utility.yul\":4352:4431   */\n      tag_165\n      tag_90\n      jump\t// in\n    tag_165:\n        /* \"#utility.yul\":4316:4433   */\n    tag_164:\n        /* \"#utility.yul\":4457:4534   */\n      tag_166\n        /* \"#utility.yul\":4526:4533   */\n      dup6\n        /* \"#utility.yul\":4517:4523   */\n      dup3\n        /* \"#utility.yul\":4506:4515   */\n      dup7\n        /* \"#utility.yul\":4502:4524   */\n      add\n        /* \"#utility.yul\":4457:4534   */\n      tag_104\n      jump\t// in\n    tag_166:\n        /* \"#utility.yul\":4447:4534   */\n      swap3\n      pop\n        /* \"#utility.yul\":4243:4544   */\n      pop\n        /* \"#utility.yul\":4611:4613   */\n      0x20\n        /* \"#utility.yul\":4600:4609   */\n      dup4\n        /* \"#utility.yul\":4596:4614   */\n      add\n        /* \"#utility.yul\":4583:4615   */\n      calldataload\n        /* \"#utility.yul\":4642:4660   */\n      0xffffffffffffffff\n        /* \"#utility.yul\":4634:4640   */\n      dup2\n        /* \"#utility.yul\":4631:4661   */\n      gt\n        /* \"#utility.yul\":4628:4745   */\n      iszero\n      tag_167\n      jumpi\n        /* \"#utility.yul\":4664:4743   */\n      tag_168\n      tag_90\n      jump\t// in\n    tag_168:\n        /* \"#utility.yul\":4628:4745   */\n    tag_167:\n        /* \"#utility.yul\":4769:4846   */\n      tag_169\n        /* \"#utility.yul\":4838:4845   */\n      dup6\n        /* \"#utility.yul\":4829:4835   */\n      dup3\n        /* \"#utility.yul\":4818:4827   */\n      dup7\n        /* \"#utility.yul\":4814:4836   */\n      add\n        /* \"#utility.yul\":4769:4846   */\n      tag_104\n      jump\t// in\n    tag_169:\n        /* \"#utility.yul\":4759:4846   */\n      swap2\n      pop\n        /* \"#utility.yul\":4554:4856   */\n      pop\n        /* \"#utility.yul\":3973:4863   */\n      swap3\n      pop\n      swap3\n      swap1\n      pop\n      jump\t// out\n        /* \"#utility.yul\":4869:4983   */\n    tag_105:\n        /* \"#utility.yul\":4936:4942   */\n      0x00\n        /* \"#utility.yul\":4970:4975   */\n      dup2\n        /* \"#utility.yul\":4964:4976   */\n      mload\n        /* \"#utility.yul\":4954:4976   */\n      swap1\n      pop\n        /* \"#utility.yul\":4869:4983   */\n      swap2\n      swap1\n      pop\n      jump\t// out\n        /* \"#utility.yul\":4989:5171   */\n    tag_106:\n        /* \"#utility.yul\":5086:5097   */\n      0x00\n        /* \"#utility.yul\":5120:5126   */\n      dup3\n        /* \"#utility.yul\":5115:5118   */\n      dup3\n        /* \"#utility.yul\":5108:5127   */\n      mstore\n        /* \"#utility.yul\":5160:5164   */\n      0x20\n        /* \"#utility.yul\":5155:5158   */\n      dup3\n        /* \"#utility.yul\":5151:5165   */\n      add\n        /* \"#utility.yul\":5136:5165   */\n      swap1\n      pop\n        /* \"#utility.yul\":4989:5171   */\n      swap3\n      swap2\n      pop\n      pop\n      jump\t// out\n        /* \"#utility.yul\":5177:5309   */\n    tag_107:\n        /* \"#utility.yul\":5244:5248   */\n      0x00\n        /* \"#utility.yul\":5267:5270   */\n      dup2\n        /* \"#utility.yul\":5259:5270   */\n      swap1\n      pop\n        /* \"#utility.yul\":5297:5301   */\n      0x20\n        /* \"#utility.yul\":5292:5295   */\n      dup3\n        /* \"#utility.yul\":5288:5302   */\n      add\n        /* \"#utility.yul\":5280:5302   */\n      swap1\n      pop\n        /* \"#utility.yul\":5177:5309   */\n      swap2\n      swap1\n      pop\n      jump\t// out\n        /* \"#utility.yul\":5315:5431   */\n    tag_108:\n        /* \"#utility.yul\":5400:5424   */\n      tag_174\n        /* \"#utility.yul\":5418:5423   */\n      dup2\n        /* \"#utility.yul\":5400:5424   */\n      tag_99\n      jump\t// in\n    tag_174:\n        /* \"#utility.yul\":5395:5398   */\n      dup3\n        /* \"#utility.yul\":5388:5425   */\n      mstore\n        /* \"#utility.yul\":5315:5431   */\n      pop\n      pop\n      jump\t// out\n        /* \"#utility.yul\":5437:5632   */\n    tag_109:\n        /* \"#utility.yul\":5514:5524   */\n      0x00\n        /* \"#utility.yul\":5535:5589   */\n      tag_176\n        /* \"#utility.yul\":5585:5588   */\n      dup4\n        /* \"#utility.yul\":5577:5583   */\n      dup4\n        /* \"#utility.yul\":5535:5589   */\n      tag_108\n      jump\t// in\n    tag_176:\n        /* \"#utility.yul\":5621:5625   */\n      0x20\n        /* \"#utility.yul\":5616:5619   */\n      dup4\n        /* \"#utility.yul\":5612:5626   */\n      add\n        /* \"#utility.yul\":5598:5626   */\n      swap1\n      pop\n        /* \"#utility.yul\":5437:5632   */\n      swap3\n      swap2\n      pop\n      pop\n      jump\t// out\n        /* \"#utility.yul\":5638:5751   */\n    tag_110:\n        /* \"#utility.yul\":5708:5712   */\n      0x00\n        /* \"#utility.yul\":5740:5744   */\n      0x20\n        /* \"#utility.yul\":5735:5738   */\n      dup3\n        /* \"#utility.yul\":5731:5745   */\n      add\n        /* \"#utility.yul\":5723:5745   */\n      swap1\n      pop\n        /* \"#utility.yul\":5638:5751   */\n      swap2\n      swap1\n      pop\n      jump\t// out\n        /* \"#utility.yul\":5787:6523   */\n    tag_111:\n        /* \"#utility.yul\":5904:5907   */\n      0x00\n        /* \"#utility.yul\":5933:5987   */\n      tag_179\n        /* \"#utility.yul\":5981:5986   */\n      dup3\n        /* \"#utility.yul\":5933:5987   */\n      tag_105\n      jump\t// in\n    tag_179:\n        /* \"#utility.yul\":6003:6087   */\n      tag_180\n        /* \"#utility.yul\":6080:6086   */\n      dup2\n        /* \"#utility.yul\":6075:6078   */\n      dup6\n        /* \"#utility.yul\":6003:6087   */\n      tag_106\n      jump\t// in\n    tag_180:\n        /* \"#utility.yul\":5996:6087   */\n      swap4\n      pop\n        /* \"#utility.yul\":6111:6167   */\n      tag_181\n        /* \"#utility.yul\":6161:6166   */\n      dup4\n        /* \"#utility.yul\":6111:6167   */\n      tag_107\n      jump\t// in\n    tag_181:\n        /* \"#utility.yul\":6190:6197   */\n      dup1\n        /* \"#utility.yul\":6221:6222   */\n      0x00\n        /* \"#utility.yul\":6206:6498   */\n    tag_182:\n        /* \"#utility.yul\":6231:6237   */\n      dup4\n        /* \"#utility.yul\":6228:6229   */\n      dup2\n        /* \"#utility.yul\":6225:6238   */\n      lt\n        /* \"#utility.yul\":6206:6498   */\n      iszero\n      tag_184\n      jumpi\n        /* \"#utility.yul\":6307:6313   */\n      dup2\n        /* \"#utility.yul\":6301:6314   */\n      mload\n        /* \"#utility.yul\":6334:6405   */\n      tag_185\n        /* \"#utility.yul\":6401:6404   */\n      dup9\n        /* \"#utility.yul\":6386:6399   */\n      dup3\n        /* \"#utility.yul\":6334:6405   */\n      tag_109\n      jump\t// in\n    tag_185:\n        /* \"#utility.yul\":6327:6405   */\n      swap8\n      pop\n        /* \"#utility.yul\":6428:6488   */\n      tag_186\n        /* \"#utility.yul\":6481:6487   */\n      dup4\n        /* \"#utility.yul\":6428:6488   */\n      tag_110\n      jump\t// in\n    tag_186:\n        /* \"#utility.yul\":6418:6488   */\n      swap3\n      pop\n        /* \"#utility.yul\":6266:6498   */\n      pop\n        /* \"#utility.yul\":6253:6254   */\n      0x01\n        /* \"#utility.yul\":6250:6251   */\n      dup2\n        /* \"#utility.yul\":6246:6255   */\n      add\n        /* \"#utility.yul\":6241:6255   */\n      swap1\n      pop\n        /* \"#utility.yul\":6206:6498   */\n      jump(tag_182)\n    tag_184:\n        /* \"#utility.yul\":6210:6224   */\n      pop\n        /* \"#utility.yul\":6514:6517   */\n      dup6\n        /* \"#utility.yul\":6507:6517   */\n      swap4\n      pop\n        /* \"#utility.yul\":5909:6523   */\n      pop\n      pop\n      pop\n        /* \"#utility.yul\":5787:6523   */\n      swap3\n      swap2\n      pop\n      pop\n      jump\t// out\n        /* \"#utility.yul\":6581:7058   */\n    tag_112:\n        /* \"#utility.yul\":6706:6709   */\n      0x00\n        /* \"#utility.yul\":6742:6746   */\n      0x20\n        /* \"#utility.yul\":6737:6740   */\n      dup4\n        /* \"#utility.yul\":6733:6747   */\n      add\n        /* \"#utility.yul\":6830:6834   */\n      0x00\n        /* \"#utility.yul\":6823:6828   */\n      dup4\n        /* \"#utility.yul\":6819:6835   */\n      add\n        /* \"#utility.yul\":6813:6836   */\n      mload\n        /* \"#utility.yul\":6883:6886   */\n      dup5\n        /* \"#utility.yul\":6877:6881   */\n      dup3\n        /* \"#utility.yul\":6873:6887   */\n      sub\n        /* \"#utility.yul\":6866:6870   */\n      0x00\n        /* \"#utility.yul\":6861:6864   */\n      dup7\n        /* \"#utility.yul\":6857:6871   */\n      add\n        /* \"#utility.yul\":6850:6888   */\n      mstore\n        /* \"#utility.yul\":6909:7020   */\n      tag_188\n        /* \"#utility.yul\":7015:7019   */\n      dup3\n        /* \"#utility.yul\":7001:7013   */\n      dup3\n        /* \"#utility.yul\":6909:7020   */\n      tag_111\n      jump\t// in\n    tag_188:\n        /* \"#utility.yul\":6901:7020   */\n      swap2\n      pop\n        /* \"#utility.yul\":6757:7031   */\n      pop\n        /* \"#utility.yul\":7048:7052   */\n      dup1\n        /* \"#utility.yul\":7041:7052   */\n      swap2\n      pop\n        /* \"#utility.yul\":6711:7058   */\n      pop\n        /* \"#utility.yul\":6581:7058   */\n      swap3\n      swap2\n      pop\n      pop\n      jump\t// out\n        /* \"#utility.yul\":7064:7449   */\n    tag_8:\n        /* \"#utility.yul\":7213:7217   */\n      0x00\n        /* \"#utility.yul\":7251:7253   */\n      0x20\n        /* \"#utility.yul\":7240:7249   */\n      dup3\n        /* \"#utility.yul\":7236:7254   */\n      add\n        /* \"#utility.yul\":7228:7254   */\n      swap1\n      pop\n        /* \"#utility.yul\":7300:7309   */\n      dup2\n        /* \"#utility.yul\":7294:7298   */\n      dup2\n        /* \"#utility.yul\":7290:7310   */\n      sub\n        /* \"#utility.yul\":7286:7287   */\n      0x00\n        /* \"#utility.yul\":7275:7284   */\n      dup4\n        /* \"#utility.yul\":7271:7288   */\n      add\n        /* \"#utility.yul\":7264:7311   */\n      mstore\n        /* \"#utility.yul\":7328:7442   */\n      tag_190\n        /* \"#utility.yul\":7437:7441   */\n      dup2\n        /* \"#utility.yul\":7428:7434   */\n      dup5\n        /* \"#utility.yul\":7328:7442   */\n      tag_112\n      jump\t// in\n    tag_190:\n        /* \"#utility.yul\":7320:7442   */\n      swap1\n      pop\n        /* \"#utility.yul\":7064:7449   */\n      swap3\n      swap2\n      pop\n      pop\n      jump\t// out\n        /* \"#utility.yul\":7455:7635   */\n    tag_113:\n        /* \"#utility.yul\":7503:7580   */\n      0x4e487b7100000000000000000000000000000000000000000000000000000000\n        /* \"#utility.yul\":7500:7501   */\n      0x00\n        /* \"#utility.yul\":7493:7581   */\n      mstore\n        /* \"#utility.yul\":7600:7604   */\n      0x11\n        /* \"#utility.yul\":7597:7598   */\n      0x04\n        /* \"#utility.yul\":7590:7605   */\n      mstore\n        /* \"#utility.yul\":7624:7628   */\n      0x24\n        /* \"#utility.yul\":7621:7622   */\n      0x00\n        /* \"#utility.yul\":7614:7629   */\n      revert\n        /* \"#utility.yul\":7641:7832   */\n    tag_18:\n        /* \"#utility.yul\":7681:7684   */\n      0x00\n        /* \"#utility.yul\":7700:7720   */\n      tag_193\n        /* \"#utility.yul\":7718:7719   */\n      dup3\n        /* \"#utility.yul\":7700:7720   */\n      tag_99\n      jump\t// in\n    tag_193:\n        /* \"#utility.yul\":7695:7720   */\n      swap2\n      pop\n        /* \"#utility.yul\":7734:7754   */\n      tag_194\n        /* \"#utility.yul\":7752:7753   */\n      dup4\n        /* \"#utility.yul\":7734:7754   */\n      tag_99\n      jump\t// in\n    tag_194:\n        /* \"#utility.yul\":7729:7754   */\n      swap3\n      pop\n        /* \"#utility.yul\":7777:7778   */\n      dup3\n        /* \"#utility.yul\":7774:7775   */\n      dup3\n        /* \"#utility.yul\":7770:7779   */\n      add\n        /* \"#utility.yul\":7763:7779   */\n      swap1\n      pop\n        /* \"#utility.yul\":7798:7801   */\n      dup1\n        /* \"#utility.yul\":7795:7796   */\n      dup3\n        /* \"#utility.yul\":7792:7802   */\n      gt\n        /* \"#utility.yul\":7789:7825   */\n      iszero\n      tag_195\n      jumpi\n        /* \"#utility.yul\":7805:7823   */\n      tag_196\n      tag_113\n      jump\t// in\n    tag_196:\n        /* \"#utility.yul\":7789:7825   */\n    tag_195:\n        /* \"#utility.yul\":7641:7832   */\n      swap3\n      swap2\n      pop\n      pop\n      jump\t// out\n        /* \"#utility.yul\":7838:8018   */\n    tag_28:\n        /* \"#utility.yul\":7886:7963   */\n      0x4e487b7100000000000000000000000000000000000000000000000000000000\n        /* \"#utility.yul\":7883:7884   */\n      0x00\n        /* \"#utility.yul\":7876:7964   */\n      mstore\n        /* \"#utility.yul\":7983:7987   */\n      0x32\n        /* \"#utility.yul\":7980:7981   */\n      0x04\n        /* \"#utility.yul\":7973:7988   */\n      mstore\n        /* \"#utility.yul\":8007:8011   */\n      0x24\n        /* \"#utility.yul\":8004:8005   */\n      0x00\n        /* \"#utility.yul\":7997:8012   */\n      revert\n        /* \"#utility.yul\":8024:8257   */\n    tag_35:\n        /* \"#utility.yul\":8063:8066   */\n      0x00\n        /* \"#utility.yul\":8086:8110   */\n      tag_199\n        /* \"#utility.yul\":8104:8109   */\n      dup3\n        /* \"#utility.yul\":8086:8110   */\n      tag_99\n      jump\t// in\n    tag_199:\n        /* \"#utility.yul\":8077:8110   */\n      swap2\n      pop\n        /* \"#utility.yul\":8132:8198   */\n      0xffffffffffffffffffffffffffffffffffffffffffffffffffffffffffffffff\n        /* \"#utility.yul\":8125:8130   */\n      dup3\n        /* \"#utility.yul\":8122:8199   */\n      sub\n        /* \"#utility.yul\":8119:8222   */\n      tag_200\n      jumpi\n        /* \"#utility.yul\":8202:8220   */\n      tag_201\n      tag_113\n      jump\t// in\n    tag_201:\n        /* \"#utility.yul\":8119:8222   */\n    tag_200:\n        /* \"#utility.yul\":8249:8250   */\n      0x01\n        /* \"#utility.yul\":8242:8247   */\n      dup3\n        /* \"#utility.yul\":8238:8251   */\n      add\n        /* \"#utility.yul\":8231:8251   */\n      swap1\n      pop\n        /* \"#utility.yul\":8024:8257   */\n      swap2\n      swap1\n      pop\n      jump\t// out\n        /* \"#utility.yul\":8263:8443   */\n    tag_114:\n        /* \"#utility.yul\":8311:8388   */\n      0x4e487b7100000000000000000000000000000000000000000000000000000000\n        /* \"#utility.yul\":8308:8309   */\n      0x00\n        /* \"#utility.yul\":8301:8389   */\n      mstore\n        /* \"#utility.yul\":8408:8412   */\n      0x12\n        /* \"#utility.yul\":8405:8406   */\n      0x04\n        /* \"#utility.yul\":8398:8413   */\n      mstore\n        /* \"#utility.yul\":8432:8436   */\n      0x24\n        /* \"#utility.yul\":8429:8430   */\n      0x00\n        /* \"#utility.yul\":8422:8437   */\n      revert\n        /* \"#utility.yul\":8449:8634   */\n    tag_57:\n        /* \"#utility.yul\":8489:8490   */\n      0x00\n        /* \"#utility.yul\":8506:8526   */\n      tag_204\n        /* \"#utility.yul\":8524:8525   */\n      dup3\n        /* \"#utility.yul\":8506:8526   */\n      tag_99\n      jump\t// in\n    tag_204:\n        /* \"#utility.yul\":8501:8526   */\n      swap2\n      pop\n        /* \"#utility.yul\":8540:8560   */\n      tag_205\n        /* \"#utility.yul\":8558:8559   */\n      dup4\n        /* \"#utility.yul\":8540:8560   */\n      tag_99\n      jump\t// in\n    tag_205:\n        /* \"#utility.yul\":8535:8560   */\n      swap3\n      pop\n        /* \"#utility.yul\":8579:8580   */\n      dup3\n        /* \"#utility.yul\":8569:8604   */\n      tag_206\n      jumpi\n        /* \"#utility.yul\":8584:8602   */\n      tag_207\n      tag_114\n      jump\t// in\n    tag_207:\n        /* \"#utility.yul\":8569:8604   */\n    tag_206:\n        /* \"#utility.yul\":8626:8627   */\n      dup3\n        /* \"#utility.yul\":8623:8624   */\n      dup3\n        /* \"#utility.yul\":8619:8628   */\n      div\n        /* \"#utility.yul\":8614:8628   */\n      swap1\n      pop\n        /* \"#utility.yul\":8449:8634   */\n      swap3\n      swap2\n      pop\n      pop\n      jump\t// out\n        /* \"#utility.yul\":8640:8816   */\n    tag_65:\n        /* \"#utility.yul\":8672:8673   */\n      0x00\n        /* \"#utility.yul\":8689:8709   */\n      tag_209\n        /* \"#utility.yul\":8707:8708   */\n      dup3\n        /* \"#utility.yul\":8689:8709   */\n      tag_99\n      jump\t// in\n    tag_209:\n        /* \"#utility.yul\":8684:8709   */\n      swap2\n      pop\n        /* \"#utility.yul\":8723:8743   */\n      tag_210\n        /* \"#utility.yul\":8741:8742   */\n      dup4\n        /* \"#utility.yul\":8723:8743   */\n      tag_99\n      jump\t// in\n    tag_210:\n        /* \"#utility.yul\":8718:8743   */\n      swap3\n      pop\n        /* \"#utility.yul\":8762:8763   */\n      dup3\n        /* \"#utility.yul\":8752:8787   */\n      tag_211\n      jumpi\n        /* \"#utility.yul\":8767:8785   */\n      tag_212\n      tag_114\n      jump\t// in\n    tag_212:\n        /* \"#utility.yul\":8752:8787   */\n    tag_211:\n        /* \"#utility.yul\":8808:8809   */\n      dup3\n        /* \"#utility.yul\":8805:8806   */\n      dup3\n        /* \"#utility.yul\":8801:8810   */\n      mod\n        /* \"#utility.yul\":8796:8810   */\n      swap1\n      pop\n        /* \"#utility.yul\":8640:8816   */\n      swap3\n      swap2\n      pop\n      pop\n      jump\t// out\n\n    auxdata: 0xa26469706673582212204d900a4827ff4056641cb7f9457c6c06400fbaf0b52f450734912a60f4030dcb64736f6c63430008120033\n}\n",
				"bytecode": {
					"linkReferences": {},
					"object": "6109a1610053600b82828239805160001a607314610046577f4e487b7100000000000000000000000000000000000000000000000000000000600052600060045260246000fd5b30600052607381538281f3fe73000000000000000000000000000000000000000030146080604052600436106100355760003560e01c8063385a7ef81461003a575b600080fd5b610054600480360381019061004f919061067e565b61006a565b60405161006191906107de565b60405180910390f35b610072610466565b6000610088846000015151846000015151610434565b905060006100a085600001515185600001515161044d565b90506100aa610466565b6001836100b7919061082f565b67ffffffffffffffff8111156100d0576100cf6104a3565b5b6040519080825280602002602001820160405280156100fe5781602001602082028036833780820191505090505b50816000018190525060005b82811015610190578560000151818151811061012957610128610863565b5b60200260200101518760000151828151811061014857610147610863565b5b602002602001015161015a919061082f565b8260000151828151811061017157610170610863565b5b602002602001018181525050808061018890610892565b91505061010a565b5060008290505b8381101561022a57856000015151876000015151116101d457856000015181815181106101c7576101c6610863565b5b60200260200101516101f4565b866000015181815181106101eb576101ea610863565b5b60200260200101515b8260000151828151811061020b5761020a610863565b5b602002602001018181525050808061022290610892565b915050610197565b5060005b8381101561033a576f4b3b4ca85a86c47a098a2240000000008260000151828151811061025e5761025d610863565b5b602002602001015110610327576f4b3b4ca85a86c47a098a2240000000008260000151828151811061029357610292610863565b5b60200260200101516102a59190610909565b82600001516001836102b7919061082f565b815181106102c8576102c7610863565b5b602002602001018181516102dc919061082f565b915081815250506f4b3b4ca85a86c47a098a2240000000008260000151828151811061030b5761030a610863565b5b6020026020010181815161031f919061093a565b915081815250505b808061033290610892565b91505061022e565b5060008160000151848151811061035457610353610863565b5b60200260200101510361042757610369610466565b8367ffffffffffffffff811115610383576103826104a3565b5b6040519080825280602002602001820160405280156103b15781602001602082028036833780820191505090505b50816000018190525060005b8481101561041a57826000015181815181106103dc576103db610863565b5b6020026020010151826000015182815181106103fb576103fa610863565b5b602002602001018181525050808061041290610892565b9150506103bd565b508094505050505061042e565b8093505050505b92915050565b60008183116104435781610445565b825b905092915050565b600081831061045c578161045e565b825b905092915050565b6040518060200160405280606081525090565b6000604051905090565b600080fd5b600080fd5b600080fd5b6000601f19601f8301169050919050565b7f4e487b7100000000000000000000000000000000000000000000000000000000600052604160045260246000fd5b6104db82610492565b810181811067ffffffffffffffff821117156104fa576104f96104a3565b5b80604052505050565b600061050d610479565b905061051982826104d2565b919050565b600080fd5b600080fd5b600067ffffffffffffffff821115610543576105426104a3565b5b602082029050602081019050919050565b600080fd5b6000819050919050565b61056c81610559565b811461057757600080fd5b50565b60008135905061058981610563565b92915050565b60006105a261059d84610528565b610503565b905080838252602082019050602084028301858111156105c5576105c4610554565b5b835b818110156105ee57806105da888261057a565b8452602084019350506020810190506105c7565b5050509392505050565b600082601f83011261060d5761060c610523565b5b813561061d84826020860161058f565b91505092915050565b60006020828403121561063c5761063b61048d565b5b6106466020610503565b9050600082013567ffffffffffffffff8111156106665761066561051e565b5b610672848285016105f8565b60008301525092915050565b6000806040838503121561069557610694610483565b5b600083013567ffffffffffffffff8111156106b3576106b2610488565b5b6106bf85828601610626565b925050602083013567ffffffffffffffff8111156106e0576106df610488565b5b6106ec85828601610626565b9150509250929050565b600081519050919050565b600082825260208201905092915050565b6000819050602082019050919050565b61072b81610559565b82525050565b600061073d8383610722565b60208301905092915050565b6000602082019050919050565b6000610761826106f6565b61076b8185610701565b935061077683610712565b8060005b838110156107a757815161078e8882610731565b975061079983610749565b92505060018101905061077a565b5085935050505092915050565b600060208301600083015184820360008601526107d18282610756565b9150508091505092915050565b600060208201905081810360008301526107f881846107b4565b905092915050565b7f4e487b7100000000000000000000000000000000000000000000000000000000600052601160045260246000fd5b600061083a82610559565b915061084583610559565b925082820190508082111561085d5761085c610800565b5b92915050565b7f4e487b7100000000000000000000000000000000000000000000000000000000600052603260045260246000fd5b600061089d82610559565b91507fffffffffffffffffffffffffffffffffffffffffffffffffffffffffffffffff82036108cf576108ce610800565b5b600182019050919050565b7f4e487b7100000000000000000000000000000000000000000000000000000000600052601260045260246000fd5b600061091482610559565b915061091f83610559565b92508261092f5761092e6108da565b5b828204905092915050565b600061094582610559565b915061095083610559565b9250826109605761095f6108da565b5b82820690509291505056fea26469706673582212204d900a4827ff4056641cb7f9457c6c06400fbaf0b52f450734912a60f4030dcb64736f6c63430008120033",
					"opcodes": "PUSH2 0x9A1 PUSH2 0x53 PUSH1 0xB DUP3 DUP3 DUP3 CODECOPY DUP1 MLOAD PUSH1 0x0 BYTE PUSH1 0x73 EQ PUSH2 0x46 JUMPI PUSH32 0x4E487B7100000000000000000000000000000000000000000000000000000000 PUSH1 0x0 MSTORE PUSH1 0x0 PUSH1 0x4 MSTORE PUSH1 0x24 PUSH1 0x0 REVERT JUMPDEST ADDRESS PUSH1 0x0 MSTORE PUSH1 0x73 DUP2 MSTORE8 DUP3 DUP2 RETURN INVALID PUSH20 0x0 ADDRESS EQ PUSH1 0x80 PUSH1 0x40 MSTORE PUSH1 0x4 CALLDATASIZE LT PUSH2 0x35 JUMPI PUSH1 0x0 CALLDATALOAD PUSH1 0xE0 SHR DUP1 PUSH4 0x385A7EF8 EQ PUSH2 0x3A JUMPI JUMPDEST PUSH1 0x0 DUP1 REVERT JUMPDEST PUSH2 0x54 PUSH1 0x4 DUP1 CALLDATASIZE SUB DUP2 ADD SWAP1 PUSH2 0x4F SWAP2 SWAP1 PUSH2 0x67E JUMP JUMPDEST PUSH2 0x6A JUMP JUMPDEST PUSH1 0x40 MLOAD PUSH2 0x61 SWAP2 SWAP1 PUSH2 0x7DE JUMP JUMPDEST PUSH1 0x40 MLOAD DUP1 SWAP2 SUB SWAP1 RETURN JUMPDEST PUSH2 0x72 PUSH2 0x466 JUMP JUMPDEST PUSH1 0x0 PUSH2 0x88 DUP5 PUSH1 0x0 ADD MLOAD MLOAD DUP5 PUSH1 0x0 ADD MLOAD MLOAD PUSH2 0x434 JUMP JUMPDEST SWAP1 POP PUSH1 0x0 PUSH2 0xA0 DUP6 PUSH1 0x0 ADD MLOAD MLOAD DUP6 PUSH1 0x0 ADD MLOAD MLOAD PUSH2 0x44D JUMP JUMPDEST SWAP1 POP PUSH2 0xAA PUSH2 0x466 JUMP JUMPDEST PUSH1 0x1 DUP4 PUSH2 0xB7 SWAP2 SWAP1 PUSH2 0x82F JUMP JUMPDEST PUSH8 0xFFFFFFFFFFFFFFFF DUP2 GT ISZERO PUSH2 0xD0 JUMPI PUSH2 0xCF PUSH2 0x4A3 JUMP JUMPDEST JUMPDEST PUSH1 0x40 MLOAD SWAP1 DUP1 DUP3 MSTORE DUP1 PUSH1 0x20 MUL PUSH1 0x20 ADD DUP3 ADD PUSH1 0x40 MSTORE DUP1 ISZERO PUSH2 0xFE JUMPI DUP2 PUSH1 0x20 ADD PUSH1 0x20 DUP3 MUL DUP1 CALLDATASIZE DUP4 CALLDATACOPY DUP1 DUP3 ADD SWAP2 POP POP SWAP1 POP JUMPDEST POP DUP2 PUSH1 0x0 ADD DUP2 SWAP1 MSTORE POP PUSH1 0x0 JUMPDEST DUP3 DUP2 LT ISZERO PUSH2 0x190 JUMPI DUP6 PUSH1 0x0 ADD MLOAD DUP2 DUP2 MLOAD DUP2 LT PUSH2 0x129 JUMPI PUSH2 0x128 PUSH2 0x863 JUMP JUMPDEST JUMPDEST PUSH1 0x20 MUL PUSH1 0x20 ADD ADD MLOAD DUP8 PUSH1 0x0 ADD MLOAD DUP3 DUP2 MLOAD DUP2 LT PUSH2 0x148 JUMPI PUSH2 0x147 PUSH2 0x863 JUMP JUMPDEST JUMPDEST PUSH1 0x20 MUL PUSH1 0x20 ADD ADD MLOAD PUSH2 0x15A SWAP2 SWAP1 PUSH2 0x82F JUMP JUMPDEST DUP3 PUSH1 0x0 ADD MLOAD DUP3 DUP2 MLOAD DUP2 LT PUSH2 0x171 JUMPI PUSH2 0x170 PUSH2 0x863 JUMP JUMPDEST JUMPDEST PUSH1 0x20 MUL PUSH1 0x20 ADD ADD DUP2 DUP2 MSTORE POP POP DUP1 DUP1 PUSH2 0x188 SWAP1 PUSH2 0x892 JUMP JUMPDEST SWAP2 POP POP PUSH2 0x10A JUMP JUMPDEST POP PUSH1 0x0 DUP3 SWAP1 POP JUMPDEST DUP4 DUP2 LT ISZERO PUSH2 0x22A JUMPI DUP6 PUSH1 0x0 ADD MLOAD MLOAD DUP8 PUSH1 0x0 ADD MLOAD MLOAD GT PUSH2 0x1D4 JUMPI DUP6 PUSH1 0x0 ADD MLOAD DUP2 DUP2 MLOAD DUP2 LT PUSH2 0x1C7 JUMPI PUSH2 0x1C6 PUSH2 0x863 JUMP JUMPDEST JUMPDEST PUSH1 0x20 MUL PUSH1 0x20 ADD ADD MLOAD PUSH2 0x1F4 JUMP JUMPDEST DUP7 PUSH1 0x0 ADD MLOAD DUP2 DUP2 MLOAD DUP2 LT PUSH2 0x1EB JUMPI PUSH2 0x1EA PUSH2 0x863 JUMP JUMPDEST JUMPDEST PUSH1 0x20 MUL PUSH1 0x20 ADD ADD MLOAD JUMPDEST DUP3 PUSH1 0x0 ADD MLOAD DUP3 DUP2 MLOAD DUP2 LT PUSH2 0x20B JUMPI PUSH2 0x20A PUSH2 0x863 JUMP JUMPDEST JUMPDEST PUSH1 0x20 MUL PUSH1 0x20 ADD ADD DUP2 DUP2 MSTORE POP POP DUP1 DUP1 PUSH2 0x222 SWAP1 PUSH2 0x892 JUMP JUMPDEST SWAP2 POP POP PUSH2 0x197 JUMP JUMPDEST POP PUSH1 0x0 JUMPDEST DUP4 DUP2 LT ISZERO PUSH2 0x33A JUMPI PUSH16 0x4B3B4CA85A86C47A098A224000000000 DUP3 PUSH1 0x0 ADD MLOAD DUP3 DUP2 MLOAD DUP2 LT PUSH2 0x25E JUMPI PUSH2 0x25D PUSH2 0x863 JUMP JUMPDEST JUMPDEST PUSH1 0x20 MUL PUSH1 0x20 ADD ADD MLOAD LT PUSH2 0x327 JUMPI PUSH16 0x4B3B4CA85A86C47A098A224000000000 DUP3 PUSH1 0x0 ADD MLOAD DUP3 DUP2 MLOAD DUP2 LT PUSH2 0x293 JUMPI PUSH2 0x292 PUSH2 0x863 JUMP JUMPDEST JUMPDEST PUSH1 0x20 MUL PUSH1 0x20 ADD ADD MLOAD PUSH2 0x2A5 SWAP2 SWAP1 PUSH2 0x909 JUMP JUMPDEST DUP3 PUSH1 0x0 ADD MLOAD PUSH1 0x1 DUP4 PUSH2 0x2B7 SWAP2 SWAP1 PUSH2 0x82F JUMP JUMPDEST DUP2 MLOAD DUP2 LT PUSH2 0x2C8 JUMPI PUSH2 0x2C7 PUSH2 0x863 JUMP JUMPDEST JUMPDEST PUSH1 0x20 MUL PUSH1 0x20 ADD ADD DUP2 DUP2 MLOAD PUSH2 0x2DC SWAP2 SWAP1 PUSH2 0x82F JUMP JUMPDEST SWAP2 POP DUP2 DUP2 MSTORE POP POP PUSH16 0x4B3B4CA85A86C47A098A224000000000 DUP3 PUSH1 0x0 ADD MLOAD DUP3 DUP2 MLOAD DUP2 LT PUSH2 0x30B JUMPI PUSH2 0x30A PUSH2 0x863 JUMP JUMPDEST JUMPDEST PUSH1 0x20 MUL PUSH1 0x20 ADD ADD DUP2 DUP2 MLOAD PUSH2 0x31F SWAP2 SWAP1 PUSH2 0x93A JUMP JUMPDEST SWAP2 POP DUP2 DUP2 MSTORE POP POP JUMPDEST DUP1 DUP1 PUSH2 0x332 SWAP1 PUSH2 0x892 JUMP JUMPDEST SWAP2 POP POP PUSH2 0x22E JUMP JUMPDEST POP PUSH1 0x0 DUP2 PUSH1 0x0 ADD MLOAD DUP5 DUP2 MLOAD DUP2 LT PUSH2 0x354 JUMPI PUSH2 0x353 PUSH2 0x863 JUMP JUMPDEST JUMPDEST PUSH1 0x20 MUL PUSH1 0x20 ADD ADD MLOAD SUB PUSH2 0x427 JUMPI PUSH2 0x369 PUSH2 0x466 JUMP JUMPDEST DUP4 PUSH8 0xFFFFFFFFFFFFFFFF DUP2 GT ISZERO PUSH2 0x383 JUMPI PUSH2 0x382 PUSH2 0x4A3 JUMP JUMPDEST JUMPDEST PUSH1 0x40 MLOAD SWAP1 DUP1 DUP3 MSTORE DUP1 PUSH1 0x20 MUL PUSH1 0x20 ADD DUP3 ADD PUSH1 0x40 MSTORE DUP1 ISZERO PUSH2 0x3B1 JUMPI DUP2 PUSH1 0x20 ADD PUSH1 0x20 DUP3 MUL DUP1 CALLDATASIZE DUP4 CALLDATACOPY DUP1 DUP3 ADD SWAP2 POP POP SWAP1 POP JUMPDEST POP DUP2 PUSH1 0x0 ADD DUP2 SWAP1 MSTORE POP PUSH1 0x0 JUMPDEST DUP5 DUP2 LT ISZERO PUSH2 0x41A JUMPI DUP3 PUSH1 0x0 ADD MLOAD DUP2 DUP2 MLOAD DUP2 LT PUSH2 0x3DC JUMPI PUSH2 0x3DB PUSH2 0x863 JUMP JUMPDEST JUMPDEST PUSH1 0x20 MUL PUSH1 0x20 ADD ADD MLOAD DUP3 PUSH1 0x0 ADD MLOAD DUP3 DUP2 MLOAD DUP2 LT PUSH2 0x3FB JUMPI PUSH2 0x3FA PUSH2 0x863 JUMP JUMPDEST JUMPDEST PUSH1 0x20 MUL PUSH1 0x20 ADD ADD DUP2 DUP2 MSTORE POP POP DUP1 DUP1 PUSH2 0x412 SWAP1 PUSH2 0x892 JUMP JUMPDEST SWAP2 POP POP PUSH2 0x3BD JUMP JUMPDEST POP DUP1 SWAP5 POP POP POP POP POP PUSH2 0x42E JUMP JUMPDEST DUP1 SWAP4 POP POP POP POP JUMPDEST SWAP3 SWAP2 POP POP JUMP JUMPDEST PUSH1 0x0 DUP2 DUP4 GT PUSH2 0x443 JUMPI DUP2 PUSH2 0x445 JUMP JUMPDEST DUP3 JUMPDEST SWAP1 POP SWAP3 SWAP2 POP POP JUMP JUMPDEST PUSH1 0x0 DUP2 DUP4 LT PUSH2 0x45C JUMPI DUP2 PUSH2 0x45E JUMP JUMPDEST DUP3 JUMPDEST SWAP1 POP SWAP3 SWAP2 POP POP JUMP JUMPDEST PUSH1 0x40 MLOAD DUP1 PUSH1 0x20 ADD PUSH1 0x40 MSTORE DUP1 PUSH1 0x60 DUP2 MSTORE POP SWAP1 JUMP JUMPDEST PUSH1 0x0 PUSH1 0x40 MLOAD SWAP1 POP SWAP1 JUMP JUMPDEST PUSH1 0x0 DUP1 REVERT JUMPDEST PUSH1 0x0 DUP1 REVERT JUMPDEST PUSH1 0x0 DUP1 REVERT JUMPDEST PUSH1 0x0 PUSH1 0x1F NOT PUSH1 0x1F DUP4 ADD AND SWAP1 POP SWAP2 SWAP1 POP JUMP JUMPDEST PUSH32 0x4E487B7100000000000000000000000000000000000000000000000000000000 PUSH1 0x0 MSTORE PUSH1 0x41 PUSH1 0x4 MSTORE PUSH1 0x24 PUSH1 0x0 REVERT JUMPDEST PUSH2 0x4DB DUP3 PUSH2 0x492 JUMP JUMPDEST DUP2 ADD DUP2 DUP2 LT PUSH8 0xFFFFFFFFFFFFFFFF DUP3 GT OR ISZERO PUSH2 0x4FA JUMPI PUSH2 0x4F9 PUSH2 0x4A3 JUMP JUMPDEST JUMPDEST DUP1 PUSH1 0x40 MSTORE POP POP POP JUMP JUMPDEST PUSH1 0x0 PUSH2 0x50D PUSH2 0x479 JUMP JUMPDEST SWAP1 POP PUSH2 0x519 DUP3 DUP3 PUSH2 0x4D2 JUMP JUMPDEST SWAP2 SWAP1 POP JUMP JUMPDEST PUSH1 0x0 DUP1 REVERT JUMPDEST PUSH1 0x0 DUP1 REVERT JUMPDEST PUSH1 0x0 PUSH8 0xFFFFFFFFFFFFFFFF DUP3 GT ISZERO PUSH2 0x543 JUMPI PUSH2 0x542 PUSH2 0x4A3 JUMP JUMPDEST JUMPDEST PUSH1 0x20 DUP3 MUL SWAP1 POP PUSH1 0x20 DUP2 ADD SWAP1 POP SWAP2 SWAP1 POP JUMP JUMPDEST PUSH1 0x0 DUP1 REVERT JUMPDEST PUSH1 0x0 DUP2 SWAP1 POP SWAP2 SWAP1 POP JUMP JUMPDEST PUSH2 0x56C DUP2 PUSH2 0x559 JUMP JUMPDEST DUP2 EQ PUSH2 0x577 JUMPI PUSH1 0x0 DUP1 REVERT JUMPDEST POP JUMP JUMPDEST PUSH1 0x0 DUP2 CALLDATALOAD SWAP1 POP PUSH2 0x589 DUP2 PUSH2 0x563 JUMP JUMPDEST SWAP3 SWAP2 POP POP JUMP JUMPDEST PUSH1 0x0 PUSH2 0x5A2 PUSH2 0x59D DUP5 PUSH2 0x528 JUMP JUMPDEST PUSH2 0x503 JUMP JUMPDEST SWAP1 POP DUP1 DUP4 DUP3 MSTORE PUSH1 0x20 DUP3 ADD SWAP1 POP PUSH1 0x20 DUP5 MUL DUP4 ADD DUP6 DUP2 GT ISZERO PUSH2 0x5C5 JUMPI PUSH2 0x5C4 PUSH2 0x554 JUMP JUMPDEST JUMPDEST DUP4 JUMPDEST DUP2 DUP2 LT ISZERO PUSH2 0x5EE JUMPI DUP1 PUSH2 0x5DA DUP9 DUP3 PUSH2 0x57A JUMP JUMPDEST DUP5 MSTORE PUSH1 0x20 DUP5 ADD SWAP4 POP POP PUSH1 0x20 DUP2 ADD SWAP1 POP PUSH2 0x5C7 JUMP JUMPDEST POP POP POP SWAP4 SWAP3 POP POP POP JUMP JUMPDEST PUSH1 0x0 DUP3 PUSH1 0x1F DUP4 ADD SLT PUSH2 0x60D JUMPI PUSH2 0x60C PUSH2 0x523 JUMP JUMPDEST JUMPDEST DUP2 CALLDATALOAD PUSH2 0x61D DUP5 DUP3 PUSH1 0x20 DUP7 ADD PUSH2 0x58F JUMP JUMPDEST SWAP2 POP POP SWAP3 SWAP2 POP POP JUMP JUMPDEST PUSH1 0x0 PUSH1 0x20 DUP3 DUP5 SUB SLT ISZERO PUSH2 0x63C JUMPI PUSH2 0x63B PUSH2 0x48D JUMP JUMPDEST JUMPDEST PUSH2 0x646 PUSH1 0x20 PUSH2 0x503 JUMP JUMPDEST SWAP1 POP PUSH1 0x0 DUP3 ADD CALLDATALOAD PUSH8 0xFFFFFFFFFFFFFFFF DUP2 GT ISZERO PUSH2 0x666 JUMPI PUSH2 0x665 PUSH2 0x51E JUMP JUMPDEST JUMPDEST PUSH2 0x672 DUP5 DUP3 DUP6 ADD PUSH2 0x5F8 JUMP JUMPDEST PUSH1 0x0 DUP4 ADD MSTORE POP SWAP3 SWAP2 POP POP JUMP JUMPDEST PUSH1 0x0 DUP1 PUSH1 0x40 DUP4 DUP6 SUB SLT ISZERO PUSH2 0x695 JUMPI PUSH2 0x694 PUSH2 0x483 JUMP JUMPDEST JUMPDEST PUSH1 0x0 DUP4 ADD CALLDATALOAD PUSH8 0xFFFFFFFFFFFFFFFF DUP2 GT ISZERO PUSH2 0x6B3 JUMPI PUSH2 0x6B2 PUSH2 0x488 JUMP JUMPDEST JUMPDEST PUSH2 0x6BF DUP6 DUP3 DUP7 ADD PUSH2 0x626 JUMP JUMPDEST SWAP3 POP POP PUSH1 0x20 DUP4 ADD CALLDATALOAD PUSH8 0xFFFFFFFFFFFFFFFF DUP2 GT ISZERO PUSH2 0x6E0 JUMPI PUSH2 0x6DF PUSH2 0x488 JUMP JUMPDEST JUMPDEST PUSH2 0x6EC DUP6 DUP3 DUP7 ADD PUSH2 0x626 JUMP JUMPDEST SWAP2 POP POP SWAP3 POP SWAP3 SWAP1 POP JUMP JUMPDEST PUSH1 0x0 DUP2 MLOAD SWAP1 POP SWAP2 SWAP1 POP JUMP JUMPDEST PUSH1 0x0 DUP3 DUP3 MSTORE PUSH1 0x20 DUP3 ADD SWAP1 POP SWAP3 SWAP2 POP POP JUMP JUMPDEST PUSH1 0x0 DUP2 SWAP1 POP PUSH1 0x20 DUP3 ADD SWAP1 POP SWAP2 SWAP1 POP JUMP JUMPDEST PUSH2 0x72B DUP2 PUSH2 0x559 JUMP JUMPDEST DUP3 MSTORE POP POP JUMP JUMPDEST PUSH1 0x0 PUSH2 0x73D DUP4 DUP4 PUSH2 0x722 JUMP JUMPDEST PUSH1 0x20 DUP4 ADD SWAP1 POP SWAP3 SWAP2 POP POP JUMP JUMPDEST PUSH1 0x0 PUSH1 0x20 DUP3 ADD SWAP1 POP SWAP2 SWAP1 POP JUMP JUMPDEST PUSH1 0x0 PUSH2 0x761 DUP3 PUSH2 0x6F6 JUMP JUMPDEST PUSH2 0x76B DUP2 DUP6 PUSH2 0x701 JUMP JUMPDEST SWAP4 POP PUSH2 0x776 DUP4 PUSH2 0x712 JUMP JUMPDEST DUP1 PUSH1 0x0 JUMPDEST DUP4 DUP2 LT ISZERO PUSH2 0x7A7 JUMPI DUP2 MLOAD PUSH2 0x78E DUP9 DUP3 PUSH2 0x731 JUMP JUMPDEST SWAP8 POP PUSH2 0x799 DUP4 PUSH2 0x749 JUMP JUMPDEST SWAP3 POP POP PUSH1 0x1 DUP2 ADD SWAP1 POP PUSH2 0x77A JUMP JUMPDEST POP DUP6 SWAP4 POP POP POP POP SWAP3 SWAP2 POP POP JUMP JUMPDEST PUSH1 0x0 PUSH1 0x20 DUP4 ADD PUSH1 0x0 DUP4 ADD MLOAD DUP5 DUP3 SUB PUSH1 0x0 DUP7 ADD MSTORE PUSH2 0x7D1 DUP3 DUP3 PUSH2 0x756 JUMP JUMPDEST SWAP2 POP POP DUP1 SWAP2 POP POP SWAP3 SWAP2 POP POP JUMP JUMPDEST PUSH1 0x0 PUSH1 0x20 DUP3 ADD SWAP1 POP DUP2 DUP2 SUB PUSH1 0x0 DUP4 ADD MSTORE PUSH2 0x7F8 DUP2 DUP5 PUSH2 0x7B4 JUMP JUMPDEST SWAP1 POP SWAP3 SWAP2 POP POP JUMP JUMPDEST PUSH32 0x4E487B7100000000000000000000000000000000000000000000000000000000 PUSH1 0x0 MSTORE PUSH1 0x11 PUSH1 0x4 MSTORE PUSH1 0x24 PUSH1 0x0 REVERT JUMPDEST PUSH1 0x0 PUSH2 0x83A DUP3 PUSH2 0x559 JUMP JUMPDEST SWAP2 POP PUSH2 0x845 DUP4 PUSH2 0x559 JUMP JUMPDEST SWAP3 POP DUP3 DUP3 ADD SWAP1 POP DUP1 DUP3 GT ISZERO PUSH2 0x85D JUMPI PUSH2 0x85C PUSH2 0x800 JUMP JUMPDEST JUMPDEST SWAP3 SWAP2 POP POP JUMP JUMPDEST PUSH32 0x4E487B7100000000000000000000000000000000000000000000000000000000 PUSH1 0x0 MSTORE PUSH1 0x32 PUSH1 0x4 MSTORE PUSH1 0x24 PUSH1 0x0 REVERT JUMPDEST PUSH1 0x0 PUSH2 0x89D DUP3 PUSH2 0x559 JUMP JUMPDEST SWAP2 POP PUSH32 0xFFFFFFFFFFFFFFFFFFFFFFFFFFFFFFFFFFFFFFFFFFFFFFFFFFFFFFFFFFFFFFFF DUP3 SUB PUSH2 0x8CF JUMPI PUSH2 0x8CE PUSH2 0x800 JUMP JUMPDEST JUMPDEST PUSH1 0x1 DUP3 ADD SWAP1 POP SWAP2 SWAP1 POP JUMP JUMPDEST PUSH32 0x4E487B7100000000000000000000000000000000000000000000000000000000 PUSH1 0x0 MSTORE PUSH1 0x12 PUSH1 0x4 MSTORE PUSH1 0x24 PUSH1 0x0 REVERT JUMPDEST PUSH1 0x0 PUSH2 0x914 DUP3 PUSH2 0x559 JUMP JUMPDEST SWAP2 POP PUSH2 0x91F DUP4 PUSH2 0x559 JUMP JUMPDEST SWAP3 POP DUP3 PUSH2 0x92F JUMPI PUSH2 0x92E PUSH2 0x8DA JUMP JUMPDEST JUMPDEST DUP3 DUP3 DIV SWAP1 POP SWAP3 SWAP2 POP POP JUMP JUMPDEST PUSH1 0x0 PUSH2 0x945 DUP3 PUSH2 0x559 JUMP JUMPDEST SWAP2 POP PUSH2 0x950 DUP4 PUSH2 0x559 JUMP JUMPDEST SWAP3 POP DUP3 PUSH2 0x960 JUMPI PUSH2 0x95F PUSH2 0x8DA JUMP JUMPDEST JUMPDEST DUP3 DUP3 MOD SWAP1 POP SWAP3 SWAP2 POP POP JUMP INVALID LOG2 PUSH5 0x6970667358 0x22 SLT KECCAK256 0x4D SWAP1 EXP BASEFEE 0x27 SELFDESTRUCT BLOCKHASH JUMP PUSH5 0x1CB7F9457C PUSH13 0x6400FBAF0B52F450734912A60 DELEGATECALL SUB 0xD 0xCB PUSH5 0x736F6C6343 STOP ADDMOD SLT STOP CALLER "
				},
				"gasEstimates": {
					"creation": {
						"codeDepositCost": "493000",
						"executionCost": "555",
						"totalCost": "493555"
					},
					"external": {
						"add(BigInt.bigint,BigInt.bigint)": "infinite"
					},
					"internal": {
						"bytesToUint256(bytes memory)": "infinite",
						"compare(struct BigInt.bigint memory,struct BigInt.bigint memory)": "infinite",
						"divide(struct BigInt.bigint memory,struct BigInt.bigint memory)": "infinite",
						"get_Decimal(struct BigInt.bigint memory)": "infinite",
						"karatsubaMultiply(struct BigInt.bigint memory,struct BigInt.bigint memory)": "infinite",
						"leftShift(struct BigInt.bigint memory,uint256)": "infinite",
						"max(uint256,uint256)": "64",
						"min(uint256,uint256)": "64",
						"mod(struct BigInt.bigint memory,uint256)": "infinite",
						"reverse(string memory)": "infinite",
						"rightShift(struct BigInt.bigint memory,uint256)": "infinite",
						"setBit(struct BigInt.bigint memory,uint256)": "infinite",
						"set_String(string memory)": "infinite",
						"set_Uint256(uint256)": "infinite",
						"slice(struct BigInt.bigint memory,uint256,uint256)": "infinite",
						"stringToUint256(string memory)": "infinite",
						"subtract(struct BigInt.bigint memory,struct BigInt.bigint memory)": "infinite"
					}
				},
				"methodIdentifiers": {
					"add(BigInt.bigint,BigInt.bigint)": "385a7ef8"
				}
			},
			"storageLayout": {
				"storage": [],
				"types": null
			},
			"userdoc": {
				"kind": "user",
				"methods": {},
				"version": 1
			}
		}
	}
}