{
	"W6/bigint/src/simpleamm.sol": {
		"AMM": {
			"abi": [
				{
					"inputs": [
						{
							"internalType": "address",
							"name": "_token",
							"type": "address"
						}
					],
					"stateMutability": "nonpayable",
					"type": "constructor"
				},
				{
					"inputs": [],
					"name": "ETH_ADDRESS",
					"outputs": [
						{
							"internalType": "address",
							"name": "",
							"type": "address"
						}
					],
					"stateMutability": "view",
					"type": "function"
				},
				{
					"inputs": [
						{
							"internalType": "uint256",
							"name": "x",
							"type": "uint256"
						}
					],
					"name": "_sqrt",
					"outputs": [
						{
							"internalType": "uint256",
							"name": "",
							"type": "uint256"
						}
					],
					"stateMutability": "pure",
					"type": "function"
				},
				{
					"inputs": [
						{
							"internalType": "uint256",
							"name": "_amount1",
							"type": "uint256"
						}
					],
					"name": "addLiquidity",
					"outputs": [
						{
							"internalType": "uint256",
							"name": "shares",
							"type": "uint256"
						}
					],
					"stateMutability": "payable",
					"type": "function"
				},
				{
					"inputs": [
						{
							"internalType": "address",
							"name": "",
							"type": "address"
						}
					],
					"name": "balanceOf",
					"outputs": [
						{
							"internalType": "uint256",
							"name": "",
							"type": "uint256"
						}
					],
					"stateMutability": "view",
					"type": "function"
				},
				{
					"inputs": [],
					"name": "getERCPrice",
					"outputs": [
						{
							"internalType": "uint256",
							"name": "",
							"type": "uint256"
						}
					],
					"stateMutability": "view",
					"type": "function"
				},
				{
					"inputs": [],
					"name": "getETHPrice",
					"outputs": [
						{
							"internalType": "uint256",
							"name": "",
							"type": "uint256"
						}
					],
					"stateMutability": "view",
					"type": "function"
				},
				{
					"inputs": [],
					"name": "reserve0",
					"outputs": [
						{
							"internalType": "uint256",
							"name": "",
							"type": "uint256"
						}
					],
					"stateMutability": "view",
					"type": "function"
				},
				{
					"inputs": [],
					"name": "reserve1",
					"outputs": [
						{
							"internalType": "uint256",
							"name": "",
							"type": "uint256"
						}
					],
					"stateMutability": "view",
					"type": "function"
				},
				{
					"inputs": [
						{
							"internalType": "uint256",
							"name": "_amountIn",
							"type": "uint256"
						}
					],
					"name": "swap",
					"outputs": [
						{
							"internalType": "uint256",
							"name": "amountOut",
							"type": "uint256"
						}
					],
					"stateMutability": "payable",
					"type": "function"
				},
				{
					"inputs": [
						{
							"internalType": "uint256",
							"name": "_amountIn",
							"type": "uint256"
						}
					],
					"name": "swapTokenForETH",
					"outputs": [
						{
							"internalType": "uint256",
							"name": "amountOut",
							"type": "uint256"
						}
					],
					"stateMutability": "nonpayable",
					"type": "function"
				},
				{
					"inputs": [],
					"name": "token",
					"outputs": [
						{
							"internalType": "contract IERC20",
							"name": "",
							"type": "address"
						}
					],
					"stateMutability": "view",
					"type": "function"
				},
				{
					"inputs": [],
					"name": "totalSupply",
					"outputs": [
						{
							"internalType": "uint256",
							"name": "",
							"type": "uint256"
						}
					],
					"stateMutability": "view",
					"type": "function"
				}
			],
			"devdoc": {
				"kind": "dev",
				"methods": {},
				"version": 1
			},
			"evm": {
				"assembly": "    /* \"W6/bigint/src/simpleamm.sol\":285:4016  contract AMM {... */\n  mstore(0x40, 0xa0)\n    /* \"W6/bigint/src/simpleamm.sol\":546:615  constructor(address _token) {... */\n  callvalue\n  dup1\n  iszero\n  tag_1\n  jumpi\n  0x00\n  dup1\n  revert\ntag_1:\n  pop\n  mload(0x40)\n  sub(codesize, bytecodeSize)\n  dup1\n  bytecodeSize\n  dup4\n  codecopy\n  dup2\n  dup2\n  add\n  0x40\n  mstore\n  dup2\n  add\n  swap1\n  tag_2\n  swap2\n  swap1\n  tag_3\n  jump\t// in\ntag_2:\n    /* \"W6/bigint/src/simpleamm.sol\":600:606  _token */\n  dup1\n    /* \"W6/bigint/src/simpleamm.sol\":585:607  token = IERC20(_token) */\n  0xffffffffffffffffffffffffffffffffffffffff\n  and\n  0x80\n  dup2\n  0xffffffffffffffffffffffffffffffffffffffff\n  and\n  dup2\n  mstore\n  pop\n  pop\n    /* \"W6/bigint/src/simpleamm.sol\":546:615  constructor(address _token) {... */\n  pop\n    /* \"W6/bigint/src/simpleamm.sol\":285:4016  contract AMM {... */\n  jump(tag_6)\n    /* \"#utility.yul\":88:205   */\ntag_8:\n    /* \"#utility.yul\":197:198   */\n  0x00\n    /* \"#utility.yul\":194:195   */\n  dup1\n    /* \"#utility.yul\":187:199   */\n  revert\n    /* \"#utility.yul\":334:460   */\ntag_10:\n    /* \"#utility.yul\":371:378   */\n  0x00\n    /* \"#utility.yul\":411:453   */\n  0xffffffffffffffffffffffffffffffffffffffff\n    /* \"#utility.yul\":404:409   */\n  dup3\n    /* \"#utility.yul\":400:454   */\n  and\n    /* \"#utility.yul\":389:454   */\n  swap1\n  pop\n    /* \"#utility.yul\":334:460   */\n  swap2\n  swap1\n  pop\n  jump\t// out\n    /* \"#utility.yul\":466:562   */\ntag_11:\n    /* \"#utility.yul\":503:510   */\n  0x00\n    /* \"#utility.yul\":532:556   */\n  tag_20\n    /* \"#utility.yul\":550:555   */\n  dup3\n    /* \"#utility.yul\":532:556   */\n  tag_10\n  jump\t// in\ntag_20:\n    /* \"#utility.yul\":521:556   */\n  swap1\n  pop\n    /* \"#utility.yul\":466:562   */\n  swap2\n  swap1\n  pop\n  jump\t// out\n    /* \"#utility.yul\":568:690   */\ntag_12:\n    /* \"#utility.yul\":641:665   */\n  tag_22\n    /* \"#utility.yul\":659:664   */\n  dup2\n    /* \"#utility.yul\":641:665   */\n  tag_11\n  jump\t// in\ntag_22:\n    /* \"#utility.yul\":634:639   */\n  dup2\n    /* \"#utility.yul\":631:666   */\n  eq\n    /* \"#utility.yul\":621:684   */\n  tag_23\n  jumpi\n    /* \"#utility.yul\":680:681   */\n  0x00\n    /* \"#utility.yul\":677:678   */\n  dup1\n    /* \"#utility.yul\":670:682   */\n  revert\n    /* \"#utility.yul\":621:684   */\ntag_23:\n    /* \"#utility.yul\":568:690   */\n  pop\n  jump\t// out\n    /* \"#utility.yul\":696:839   */\ntag_13:\n    /* \"#utility.yul\":753:758   */\n  0x00\n    /* \"#utility.yul\":784:790   */\n  dup2\n    /* \"#utility.yul\":778:791   */\n  mload\n    /* \"#utility.yul\":769:791   */\n  swap1\n  pop\n    /* \"#utility.yul\":800:833   */\n  tag_25\n    /* \"#utility.yul\":827:832   */\n  dup2\n    /* \"#utility.yul\":800:833   */\n  tag_12\n  jump\t// in\ntag_25:\n    /* \"#utility.yul\":696:839   */\n  swap3\n  swap2\n  pop\n  pop\n  jump\t// out\n    /* \"#utility.yul\":845:1196   */\ntag_3:\n    /* \"#utility.yul\":915:921   */\n  0x00\n    /* \"#utility.yul\":964:966   */\n  0x20\n    /* \"#utility.yul\":952:961   */\n  dup3\n    /* \"#utility.yul\":943:950   */\n  dup5\n    /* \"#utility.yul\":939:962   */\n  sub\n    /* \"#utility.yul\":935:967   */\n  slt\n    /* \"#utility.yul\":932:1051   */\n  iszero\n  tag_27\n  jumpi\n    /* \"#utility.yul\":970:1049   */\n  tag_28\n  tag_8\n  jump\t// in\ntag_28:\n    /* \"#utility.yul\":932:1051   */\ntag_27:\n    /* \"#utility.yul\":1090:1091   */\n  0x00\n    /* \"#utility.yul\":1115:1179   */\n  tag_29\n    /* \"#utility.yul\":1171:1178   */\n  dup5\n    /* \"#utility.yul\":1162:1168   */\n  dup3\n    /* \"#utility.yul\":1151:1160   */\n  dup6\n    /* \"#utility.yul\":1147:1169   */\n  add\n    /* \"#utility.yul\":1115:1179   */\n  tag_13\n  jump\t// in\ntag_29:\n    /* \"#utility.yul\":1105:1179   */\n  swap2\n  pop\n    /* \"#utility.yul\":1061:1189   */\n  pop\n    /* \"#utility.yul\":845:1196   */\n  swap3\n  swap2\n  pop\n  pop\n  jump\t// out\n    /* \"W6/bigint/src/simpleamm.sol\":285:4016  contract AMM {... */\ntag_6:\n  mload(0x80)\n  codecopy(0x00, dataOffset(sub_0), dataSize(sub_0))\n  0x00\n  assignImmutable(\"0x97798a7ce1eedb778fe135ba4f72c5cd61b1904f61f817965236ff22acf6c32a\")\n  return(0x00, dataSize(sub_0))\nstop\n\nsub_0: assembly {\n        /* \"W6/bigint/src/simpleamm.sol\":285:4016  contract AMM {... */\n      mstore(0x40, 0x80)\n      jumpi(tag_1, lt(calldatasize, 0x04))\n      shr(0xe0, calldataload(0x00))\n      dup1\n      0x70a08231\n      gt\n      tag_14\n      jumpi\n      dup1\n      0x70a08231\n      eq\n      tag_8\n      jumpi\n      dup1\n      0x94b918de\n      eq\n      tag_9\n      jumpi\n      dup1\n      0xa607a8d9\n      eq\n      tag_10\n      jumpi\n      dup1\n      0xa734f06e\n      eq\n      tag_11\n      jumpi\n      dup1\n      0xfc0c546a\n      eq\n      tag_12\n      jumpi\n      dup1\n      0xfcc2ba08\n      eq\n      tag_13\n      jumpi\n      jump(tag_1)\n    tag_14:\n      dup1\n      0x18160ddd\n      eq\n      tag_2\n      jumpi\n      dup1\n      0x443cb4bc\n      eq\n      tag_3\n      jumpi\n      dup1\n      0x51c6590a\n      eq\n      tag_4\n      jumpi\n      dup1\n      0x5a76f25e\n      eq\n      tag_5\n      jumpi\n      dup1\n      0x6a263f02\n      eq\n      tag_6\n      jumpi\n      dup1\n      0x6fb84b74\n      eq\n      tag_7\n      jumpi\n    tag_1:\n      0x00\n      dup1\n      revert\n        /* \"W6/bigint/src/simpleamm.sol\":460:486  uint256 public totalSupply */\n    tag_2:\n      callvalue\n      dup1\n      iszero\n      tag_15\n      jumpi\n      0x00\n      dup1\n      revert\n    tag_15:\n      pop\n      tag_16\n      tag_17\n      jump\t// in\n    tag_16:\n      mload(0x40)\n      tag_18\n      swap2\n      swap1\n      tag_19\n      jump\t// in\n    tag_18:\n      mload(0x40)\n      dup1\n      swap2\n      sub\n      swap1\n      return\n        /* \"W6/bigint/src/simpleamm.sol\":398:421  uint256 public reserve0 */\n    tag_3:\n      callvalue\n      dup1\n      iszero\n      tag_20\n      jumpi\n      0x00\n      dup1\n      revert\n    tag_20:\n      pop\n      tag_21\n      tag_22\n      jump\t// in\n    tag_21:\n      mload(0x40)\n      tag_23\n      swap2\n      swap1\n      tag_19\n      jump\t// in\n    tag_23:\n      mload(0x40)\n      dup1\n      swap2\n      sub\n      swap1\n      return\n        /* \"W6/bigint/src/simpleamm.sol\":1982:2743  function addLiquidity(uint256 _amount1) external payable returns (uint256 shares) {... */\n    tag_4:\n      tag_24\n      0x04\n      dup1\n      calldatasize\n      sub\n      dup2\n      add\n      swap1\n      tag_25\n      swap2\n      swap1\n      tag_26\n      jump\t// in\n    tag_25:\n      tag_27\n      jump\t// in\n    tag_24:\n      mload(0x40)\n      tag_28\n      swap2\n      swap1\n      tag_19\n      jump\t// in\n    tag_28:\n      mload(0x40)\n      dup1\n      swap2\n      sub\n      swap1\n      return\n        /* \"W6/bigint/src/simpleamm.sol\":428:451  uint256 public reserve1 */\n    tag_5:\n      callvalue\n      dup1\n      iszero\n      tag_29\n      jumpi\n      0x00\n      dup1\n      revert\n    tag_29:\n      pop\n      tag_30\n      tag_31\n      jump\t// in\n    tag_30:\n      mload(0x40)\n      tag_32\n      swap2\n      swap1\n      tag_19\n      jump\t// in\n    tag_32:\n      mload(0x40)\n      dup1\n      swap2\n      sub\n      swap1\n      return\n        /* \"W6/bigint/src/simpleamm.sol\":3306:3554  function _sqrt(uint256 x) public pure returns (uint256) {... */\n    tag_6:\n      callvalue\n      dup1\n      iszero\n      tag_33\n      jumpi\n      0x00\n      dup1\n      revert\n    tag_33:\n      pop\n      tag_34\n      0x04\n      dup1\n      calldatasize\n      sub\n      dup2\n      add\n      swap1\n      tag_35\n      swap2\n      swap1\n      tag_26\n      jump\t// in\n    tag_35:\n      tag_36\n      jump\t// in\n    tag_34:\n      mload(0x40)\n      tag_37\n      swap2\n      swap1\n      tag_19\n      jump\t// in\n    tag_37:\n      mload(0x40)\n      dup1\n      swap2\n      sub\n      swap1\n      return\n        /* \"W6/bigint/src/simpleamm.sol\":1471:1974  function swapTokenForETH(uint256 _amountIn) external returns (uint256 amountOut) {... */\n    tag_7:\n      callvalue\n      dup1\n      iszero\n      tag_38\n      jumpi\n      0x00\n      dup1\n      revert\n    tag_38:\n      pop\n      tag_39\n      0x04\n      dup1\n      calldatasize\n      sub\n      dup2\n      add\n      swap1\n      tag_40\n      swap2\n      swap1\n      tag_26\n      jump\t// in\n    tag_40:\n      tag_41\n      jump\t// in\n    tag_39:\n      mload(0x40)\n      tag_42\n      swap2\n      swap1\n      tag_19\n      jump\t// in\n    tag_42:\n      mload(0x40)\n      dup1\n      swap2\n      sub\n      swap1\n      return\n        /* \"W6/bigint/src/simpleamm.sol\":493:537  mapping(address => uint256) public balanceOf */\n    tag_8:\n      callvalue\n      dup1\n      iszero\n      tag_43\n      jumpi\n      0x00\n      dup1\n      revert\n    tag_43:\n      pop\n      tag_44\n      0x04\n      dup1\n      calldatasize\n      sub\n      dup2\n      add\n      swap1\n      tag_45\n      swap2\n      swap1\n      tag_46\n      jump\t// in\n    tag_45:\n      tag_47\n      jump\t// in\n    tag_44:\n      mload(0x40)\n      tag_48\n      swap2\n      swap1\n      tag_19\n      jump\t// in\n    tag_48:\n      mload(0x40)\n      dup1\n      swap2\n      sub\n      swap1\n      return\n        /* \"W6/bigint/src/simpleamm.sol\":1044:1465  function swap(uint256 _amountIn) external payable returns (uint256 amountOut) {... */\n    tag_9:\n      tag_49\n      0x04\n      dup1\n      calldatasize\n      sub\n      dup2\n      add\n      swap1\n      tag_50\n      swap2\n      swap1\n      tag_26\n      jump\t// in\n    tag_50:\n      tag_51\n      jump\t// in\n    tag_49:\n      mload(0x40)\n      tag_52\n      swap2\n      swap1\n      tag_19\n      jump\t// in\n    tag_52:\n      mload(0x40)\n      dup1\n      swap2\n      sub\n      swap1\n      return\n        /* \"W6/bigint/src/simpleamm.sol\":3673:3838  function getETHPrice() public view returns (uint256) {... */\n    tag_10:\n      callvalue\n      dup1\n      iszero\n      tag_53\n      jumpi\n      0x00\n      dup1\n      revert\n    tag_53:\n      pop\n      tag_54\n      tag_55\n      jump\t// in\n    tag_54:\n      mload(0x40)\n      tag_56\n      swap2\n      swap1\n      tag_19\n      jump\t// in\n    tag_56:\n      mload(0x40)\n      dup1\n      swap2\n      sub\n      swap1\n      return\n        /* \"W6/bigint/src/simpleamm.sol\":341:389  address public constant ETH_ADDRESS = address(0) */\n    tag_11:\n      callvalue\n      dup1\n      iszero\n      tag_57\n      jumpi\n      0x00\n      dup1\n      revert\n    tag_57:\n      pop\n      tag_58\n      tag_59\n      jump\t// in\n    tag_58:\n      mload(0x40)\n      tag_60\n      swap2\n      swap1\n      tag_61\n      jump\t// in\n    tag_60:\n      mload(0x40)\n      dup1\n      swap2\n      sub\n      swap1\n      return\n        /* \"W6/bigint/src/simpleamm.sol\":305:334  IERC20 public immutable token */\n    tag_12:\n      callvalue\n      dup1\n      iszero\n      tag_62\n      jumpi\n      0x00\n      dup1\n      revert\n    tag_62:\n      pop\n      tag_63\n      tag_64\n      jump\t// in\n    tag_63:\n      mload(0x40)\n      tag_65\n      swap2\n      swap1\n      tag_66\n      jump\t// in\n    tag_65:\n      mload(0x40)\n      dup1\n      swap2\n      sub\n      swap1\n      return\n        /* \"W6/bigint/src/simpleamm.sol\":3844:4009  function getERCPrice() public view returns (uint256) {... */\n    tag_13:\n      callvalue\n      dup1\n      iszero\n      tag_67\n      jumpi\n      0x00\n      dup1\n      revert\n    tag_67:\n      pop\n      tag_68\n      tag_69\n      jump\t// in\n    tag_68:\n      mload(0x40)\n      tag_70\n      swap2\n      swap1\n      tag_19\n      jump\t// in\n    tag_70:\n      mload(0x40)\n      dup1\n      swap2\n      sub\n      swap1\n      return\n        /* \"W6/bigint/src/simpleamm.sol\":460:486  uint256 public totalSupply */\n    tag_17:\n      sload(0x02)\n      dup2\n      jump\t// out\n        /* \"W6/bigint/src/simpleamm.sol\":398:421  uint256 public reserve0 */\n    tag_22:\n      sload(0x00)\n      dup2\n      jump\t// out\n        /* \"W6/bigint/src/simpleamm.sol\":1982:2743  function addLiquidity(uint256 _amount1) external payable returns (uint256 shares) {... */\n    tag_27:\n        /* \"W6/bigint/src/simpleamm.sol\":2048:2062  uint256 shares */\n      0x00\n        /* \"W6/bigint/src/simpleamm.sol\":2075:2080  token */\n      immutable(\"0x97798a7ce1eedb778fe135ba4f72c5cd61b1904f61f817965236ff22acf6c32a\")\n        /* \"W6/bigint/src/simpleamm.sol\":2075:2093  token.transferFrom */\n      0xffffffffffffffffffffffffffffffffffffffff\n      and\n      0x23b872dd\n        /* \"W6/bigint/src/simpleamm.sol\":2094:2104  msg.sender */\n      caller\n        /* \"W6/bigint/src/simpleamm.sol\":2114:2118  this */\n      address\n        /* \"W6/bigint/src/simpleamm.sol\":2121:2129  _amount1 */\n      dup6\n        /* \"W6/bigint/src/simpleamm.sol\":2075:2130  token.transferFrom(msg.sender, address(this), _amount1) */\n      mload(0x40)\n      dup5\n      0xffffffff\n      and\n      0xe0\n      shl\n      dup2\n      mstore\n      0x04\n      add\n      tag_72\n      swap4\n      swap3\n      swap2\n      swap1\n      tag_73\n      jump\t// in\n    tag_72:\n      0x20\n      mload(0x40)\n      dup1\n      dup4\n      sub\n      dup2\n      0x00\n      dup8\n      gas\n      call\n      iszero\n      dup1\n      iszero\n      tag_75\n      jumpi\n      returndatasize\n      0x00\n      dup1\n      returndatacopy\n      revert(0x00, returndatasize)\n    tag_75:\n      pop\n      pop\n      pop\n      pop\n      mload(0x40)\n      returndatasize\n      not(0x1f)\n      0x1f\n      dup3\n      add\n      and\n      dup3\n      add\n      dup1\n      0x40\n      mstore\n      pop\n      dup2\n      add\n      swap1\n      tag_76\n      swap2\n      swap1\n      tag_77\n      jump\t// in\n    tag_76:\n      pop\n        /* \"W6/bigint/src/simpleamm.sol\":2143:2159  uint256 _amount0 */\n      0x00\n        /* \"W6/bigint/src/simpleamm.sol\":2162:2171  msg.value */\n      callvalue\n        /* \"W6/bigint/src/simpleamm.sol\":2143:2171  uint256 _amount0 = msg.value */\n      swap1\n      pop\n        /* \"W6/bigint/src/simpleamm.sol\":2199:2200  0 */\n      0x00\n        /* \"W6/bigint/src/simpleamm.sol\":2188:2196  reserve0 */\n      dup1\n      sload\n        /* \"W6/bigint/src/simpleamm.sol\":2188:2200  reserve0 > 0 */\n      gt\n        /* \"W6/bigint/src/simpleamm.sol\":2188:2216  reserve0 > 0 || reserve1 > 0 */\n      dup1\n      tag_78\n      jumpi\n      pop\n        /* \"W6/bigint/src/simpleamm.sol\":2215:2216  0 */\n      0x00\n        /* \"W6/bigint/src/simpleamm.sol\":2204:2212  reserve1 */\n      sload(0x01)\n        /* \"W6/bigint/src/simpleamm.sol\":2204:2216  reserve1 > 0 */\n      gt\n        /* \"W6/bigint/src/simpleamm.sol\":2188:2216  reserve0 > 0 || reserve1 > 0 */\n    tag_78:\n        /* \"W6/bigint/src/simpleamm.sol\":2184:2316  if (reserve0 > 0 || reserve1 > 0) {... */\n      iszero\n      tag_79\n      jumpi\n        /* \"W6/bigint/src/simpleamm.sol\":2275:2283  _amount0 */\n      dup1\n        /* \"W6/bigint/src/simpleamm.sol\":2264:2272  reserve1 */\n      sload(0x01)\n        /* \"W6/bigint/src/simpleamm.sol\":2264:2283  reserve1 * _amount0 */\n      tag_80\n      swap2\n      swap1\n      tag_81\n      jump\t// in\n    tag_80:\n        /* \"W6/bigint/src/simpleamm.sol\":2252:2260  _amount1 */\n      dup4\n        /* \"W6/bigint/src/simpleamm.sol\":2241:2249  reserve0 */\n      sload(0x00)\n        /* \"W6/bigint/src/simpleamm.sol\":2241:2260  reserve0 * _amount1 */\n      tag_82\n      swap2\n      swap1\n      tag_81\n      jump\t// in\n    tag_82:\n        /* \"W6/bigint/src/simpleamm.sol\":2241:2283  reserve0 * _amount1 == reserve1 * _amount0 */\n      eq\n        /* \"W6/bigint/src/simpleamm.sol\":2233:2304  require(reserve0 * _amount1 == reserve1 * _amount0, \"x / y != dx / dy\") */\n      tag_83\n      jumpi\n      mload(0x40)\n      0x08c379a000000000000000000000000000000000000000000000000000000000\n      dup2\n      mstore\n      0x04\n      add\n      tag_84\n      swap1\n      tag_85\n      jump\t// in\n    tag_84:\n      mload(0x40)\n      dup1\n      swap2\n      sub\n      swap1\n      revert\n    tag_83:\n        /* \"W6/bigint/src/simpleamm.sol\":2184:2316  if (reserve0 > 0 || reserve1 > 0) {... */\n    tag_79:\n        /* \"W6/bigint/src/simpleamm.sol\":2347:2348  0 */\n      0x00\n        /* \"W6/bigint/src/simpleamm.sol\":2332:2343  totalSupply */\n      sload(0x02)\n        /* \"W6/bigint/src/simpleamm.sol\":2332:2348  totalSupply == 0 */\n      sub\n        /* \"W6/bigint/src/simpleamm.sol\":2328:2581  if (totalSupply == 0) {... */\n      tag_86\n      jumpi\n        /* \"W6/bigint/src/simpleamm.sol\":2374:2400  _sqrt(_amount0 * _amount1) */\n      tag_87\n        /* \"W6/bigint/src/simpleamm.sol\":2391:2399  _amount1 */\n      dup4\n        /* \"W6/bigint/src/simpleamm.sol\":2380:2388  _amount0 */\n      dup3\n        /* \"W6/bigint/src/simpleamm.sol\":2380:2399  _amount0 * _amount1 */\n      tag_88\n      swap2\n      swap1\n      tag_81\n      jump\t// in\n    tag_88:\n        /* \"W6/bigint/src/simpleamm.sol\":2374:2379  _sqrt */\n      tag_36\n        /* \"W6/bigint/src/simpleamm.sol\":2374:2400  _sqrt(_amount0 * _amount1) */\n      jump\t// in\n    tag_87:\n        /* \"W6/bigint/src/simpleamm.sol\":2365:2400  shares = _sqrt(_amount0 * _amount1) */\n      swap2\n      pop\n        /* \"W6/bigint/src/simpleamm.sol\":2328:2581  if (totalSupply == 0) {... */\n      jump(tag_89)\n    tag_86:\n        /* \"W6/bigint/src/simpleamm.sol\":2442:2569  _min(... */\n      tag_90\n        /* \"W6/bigint/src/simpleamm.sol\":2492:2500  reserve0 */\n      sload(0x00)\n        /* \"W6/bigint/src/simpleamm.sol\":2477:2488  totalSupply */\n      sload(0x02)\n        /* \"W6/bigint/src/simpleamm.sol\":2466:2474  _amount0 */\n      dup4\n        /* \"W6/bigint/src/simpleamm.sol\":2466:2488  _amount0 * totalSupply */\n      tag_91\n      swap2\n      swap1\n      tag_81\n      jump\t// in\n    tag_91:\n        /* \"W6/bigint/src/simpleamm.sol\":2465:2500  (_amount0 * totalSupply) / reserve0 */\n      tag_92\n      swap2\n      swap1\n      tag_93\n      jump\t// in\n    tag_92:\n        /* \"W6/bigint/src/simpleamm.sol\":2546:2554  reserve1 */\n      sload(0x01)\n        /* \"W6/bigint/src/simpleamm.sol\":2531:2542  totalSupply */\n      sload(0x02)\n        /* \"W6/bigint/src/simpleamm.sol\":2520:2528  _amount1 */\n      dup7\n        /* \"W6/bigint/src/simpleamm.sol\":2520:2542  _amount1 * totalSupply */\n      tag_94\n      swap2\n      swap1\n      tag_81\n      jump\t// in\n    tag_94:\n        /* \"W6/bigint/src/simpleamm.sol\":2519:2554  (_amount1 * totalSupply) / reserve1 */\n      tag_95\n      swap2\n      swap1\n      tag_93\n      jump\t// in\n    tag_95:\n        /* \"W6/bigint/src/simpleamm.sol\":2442:2446  _min */\n      tag_96\n        /* \"W6/bigint/src/simpleamm.sol\":2442:2569  _min(... */\n      jump\t// in\n    tag_90:\n        /* \"W6/bigint/src/simpleamm.sol\":2433:2569  shares = _min(... */\n      swap2\n      pop\n        /* \"W6/bigint/src/simpleamm.sol\":2328:2581  if (totalSupply == 0) {... */\n    tag_89:\n        /* \"W6/bigint/src/simpleamm.sol\":2608:2609  0 */\n      0x00\n        /* \"W6/bigint/src/simpleamm.sol\":2599:2605  shares */\n      dup3\n        /* \"W6/bigint/src/simpleamm.sol\":2599:2609  shares > 0 */\n      gt\n        /* \"W6/bigint/src/simpleamm.sol\":2591:2624  require(shares > 0, \"shares = 0\") */\n      tag_97\n      jumpi\n      mload(0x40)\n      0x08c379a000000000000000000000000000000000000000000000000000000000\n      dup2\n      mstore\n      0x04\n      add\n      tag_98\n      swap1\n      tag_99\n      jump\t// in\n    tag_98:\n      mload(0x40)\n      dup1\n      swap2\n      sub\n      swap1\n      revert\n    tag_97:\n        /* \"W6/bigint/src/simpleamm.sol\":2635:2660  _mint(msg.sender, shares) */\n      tag_100\n        /* \"W6/bigint/src/simpleamm.sol\":2641:2651  msg.sender */\n      caller\n        /* \"W6/bigint/src/simpleamm.sol\":2653:2659  shares */\n      dup4\n        /* \"W6/bigint/src/simpleamm.sol\":2635:2640  _mint */\n      tag_101\n        /* \"W6/bigint/src/simpleamm.sol\":2635:2660  _mint(msg.sender, shares) */\n      jump\t// in\n    tag_100:\n        /* \"W6/bigint/src/simpleamm.sol\":2673:2735  _update(address(this).balance, token.balanceOf(address(this))) */\n      tag_102\n        /* \"W6/bigint/src/simpleamm.sol\":2681:2702  address(this).balance */\n      selfbalance\n        /* \"W6/bigint/src/simpleamm.sol\":2704:2709  token */\n      immutable(\"0x97798a7ce1eedb778fe135ba4f72c5cd61b1904f61f817965236ff22acf6c32a\")\n        /* \"W6/bigint/src/simpleamm.sol\":2704:2719  token.balanceOf */\n      0xffffffffffffffffffffffffffffffffffffffff\n      and\n      0x70a08231\n        /* \"W6/bigint/src/simpleamm.sol\":2728:2732  this */\n      address\n        /* \"W6/bigint/src/simpleamm.sol\":2704:2734  token.balanceOf(address(this)) */\n      mload(0x40)\n      dup3\n      0xffffffff\n      and\n      0xe0\n      shl\n      dup2\n      mstore\n      0x04\n      add\n      tag_103\n      swap2\n      swap1\n      tag_61\n      jump\t// in\n    tag_103:\n      0x20\n      mload(0x40)\n      dup1\n      dup4\n      sub\n      dup2\n      dup7\n      gas\n      staticcall\n      iszero\n      dup1\n      iszero\n      tag_105\n      jumpi\n      returndatasize\n      0x00\n      dup1\n      returndatacopy\n      revert(0x00, returndatasize)\n    tag_105:\n      pop\n      pop\n      pop\n      pop\n      mload(0x40)\n      returndatasize\n      not(0x1f)\n      0x1f\n      dup3\n      add\n      and\n      dup3\n      add\n      dup1\n      0x40\n      mstore\n      pop\n      dup2\n      add\n      swap1\n      tag_106\n      swap2\n      swap1\n      tag_107\n      jump\t// in\n    tag_106:\n        /* \"W6/bigint/src/simpleamm.sol\":2673:2680  _update */\n      tag_108\n        /* \"W6/bigint/src/simpleamm.sol\":2673:2735  _update(address(this).balance, token.balanceOf(address(this))) */\n      jump\t// in\n    tag_102:\n        /* \"W6/bigint/src/simpleamm.sol\":2064:2743  {... */\n      pop\n        /* \"W6/bigint/src/simpleamm.sol\":1982:2743  function addLiquidity(uint256 _amount1) external payable returns (uint256 shares) {... */\n      swap2\n      swap1\n      pop\n      jump\t// out\n        /* \"W6/bigint/src/simpleamm.sol\":428:451  uint256 public reserve1 */\n    tag_31:\n      sload(0x01)\n      dup2\n      jump\t// out\n        /* \"W6/bigint/src/simpleamm.sol\":3306:3554  function _sqrt(uint256 x) public pure returns (uint256) {... */\n    tag_36:\n        /* \"W6/bigint/src/simpleamm.sol\":3353:3360  uint256 */\n      0x00\n        /* \"W6/bigint/src/simpleamm.sol\":3378:3379  0 */\n      dup1\n        /* \"W6/bigint/src/simpleamm.sol\":3373:3374  x */\n      dup3\n        /* \"W6/bigint/src/simpleamm.sol\":3373:3379  x == 0 */\n      sub\n        /* \"W6/bigint/src/simpleamm.sol\":3369:3389  if (x == 0) return 0 */\n      tag_110\n      jumpi\n        /* \"W6/bigint/src/simpleamm.sol\":3388:3389  0 */\n      0x00\n        /* \"W6/bigint/src/simpleamm.sol\":3381:3389  return 0 */\n      swap1\n      pop\n      jump(tag_109)\n        /* \"W6/bigint/src/simpleamm.sol\":3369:3389  if (x == 0) return 0 */\n    tag_110:\n        /* \"W6/bigint/src/simpleamm.sol\":3402:3411  uint256 z */\n      0x00\n        /* \"W6/bigint/src/simpleamm.sol\":3424:3425  2 */\n      0x02\n        /* \"W6/bigint/src/simpleamm.sol\":3419:3420  1 */\n      0x01\n        /* \"W6/bigint/src/simpleamm.sol\":3415:3416  x */\n      dup5\n        /* \"W6/bigint/src/simpleamm.sol\":3415:3420  x + 1 */\n      tag_111\n      swap2\n      swap1\n      tag_112\n      jump\t// in\n    tag_111:\n        /* \"W6/bigint/src/simpleamm.sol\":3414:3425  (x + 1) / 2 */\n      tag_113\n      swap2\n      swap1\n      tag_93\n      jump\t// in\n    tag_113:\n        /* \"W6/bigint/src/simpleamm.sol\":3402:3425  uint256 z = (x + 1) / 2 */\n      swap1\n      pop\n        /* \"W6/bigint/src/simpleamm.sol\":3432:3441  uint256 y */\n      0x00\n        /* \"W6/bigint/src/simpleamm.sol\":3444:3445  x */\n      dup4\n        /* \"W6/bigint/src/simpleamm.sol\":3432:3445  uint256 y = x */\n      swap1\n      pop\n        /* \"W6/bigint/src/simpleamm.sol\":3458:3526  while (z < y) {... */\n    tag_114:\n        /* \"W6/bigint/src/simpleamm.sol\":3469:3470  y */\n      dup1\n        /* \"W6/bigint/src/simpleamm.sol\":3465:3466  z */\n      dup3\n        /* \"W6/bigint/src/simpleamm.sol\":3465:3470  z < y */\n      lt\n        /* \"W6/bigint/src/simpleamm.sol\":3458:3526  while (z < y) {... */\n      iszero\n      tag_115\n      jumpi\n        /* \"W6/bigint/src/simpleamm.sol\":3487:3488  z */\n      dup2\n        /* \"W6/bigint/src/simpleamm.sol\":3483:3488  y = z */\n      swap1\n      pop\n        /* \"W6/bigint/src/simpleamm.sol\":3517:3518  2 */\n      0x02\n        /* \"W6/bigint/src/simpleamm.sol\":3512:3513  z */\n      dup3\n        /* \"W6/bigint/src/simpleamm.sol\":3508:3509  z */\n      dup4\n        /* \"W6/bigint/src/simpleamm.sol\":3504:3505  x */\n      dup7\n        /* \"W6/bigint/src/simpleamm.sol\":3504:3509  x / z */\n      tag_116\n      swap2\n      swap1\n      tag_93\n      jump\t// in\n    tag_116:\n        /* \"W6/bigint/src/simpleamm.sol\":3504:3513  x / z + z */\n      tag_117\n      swap2\n      swap1\n      tag_112\n      jump\t// in\n    tag_117:\n        /* \"W6/bigint/src/simpleamm.sol\":3503:3518  (x / z + z) / 2 */\n      tag_118\n      swap2\n      swap1\n      tag_93\n      jump\t// in\n    tag_118:\n        /* \"W6/bigint/src/simpleamm.sol\":3499:3518  z = (x / z + z) / 2 */\n      swap2\n      pop\n        /* \"W6/bigint/src/simpleamm.sol\":3458:3526  while (z < y) {... */\n      jump(tag_114)\n    tag_115:\n        /* \"W6/bigint/src/simpleamm.sol\":3545:3546  y */\n      dup1\n        /* \"W6/bigint/src/simpleamm.sol\":3538:3546  return y */\n      swap3\n      pop\n      pop\n      pop\n        /* \"W6/bigint/src/simpleamm.sol\":3306:3554  function _sqrt(uint256 x) public pure returns (uint256) {... */\n    tag_109:\n      swap2\n      swap1\n      pop\n      jump\t// out\n        /* \"W6/bigint/src/simpleamm.sol\":1471:1974  function swapTokenForETH(uint256 _amountIn) external returns (uint256 amountOut) {... */\n    tag_41:\n        /* \"W6/bigint/src/simpleamm.sol\":1533:1550  uint256 amountOut */\n      0x00\n        /* \"W6/bigint/src/simpleamm.sol\":1563:1586  uint256 amountInWithFee */\n      dup1\n        /* \"W6/bigint/src/simpleamm.sol\":1609:1613  1000 */\n      0x03e8\n        /* \"W6/bigint/src/simpleamm.sol\":1602:1605  997 */\n      0x03e5\n        /* \"W6/bigint/src/simpleamm.sol\":1590:1599  _amountIn */\n      dup5\n        /* \"W6/bigint/src/simpleamm.sol\":1590:1605  _amountIn * 997 */\n      tag_120\n      swap2\n      swap1\n      tag_81\n      jump\t// in\n    tag_120:\n        /* \"W6/bigint/src/simpleamm.sol\":1589:1613  (_amountIn * 997) / 1000 */\n      tag_121\n      swap2\n      swap1\n      tag_93\n      jump\t// in\n    tag_121:\n        /* \"W6/bigint/src/simpleamm.sol\":1563:1613  uint256 amountInWithFee = (_amountIn * 997) / 1000 */\n      swap1\n      pop\n        /* \"W6/bigint/src/simpleamm.sol\":1681:1696  amountInWithFee */\n      dup1\n        /* \"W6/bigint/src/simpleamm.sol\":1670:1678  reserve1 */\n      sload(0x01)\n        /* \"W6/bigint/src/simpleamm.sol\":1670:1696  reserve1 + amountInWithFee */\n      tag_122\n      swap2\n      swap1\n      tag_112\n      jump\t// in\n    tag_122:\n        /* \"W6/bigint/src/simpleamm.sol\":1650:1665  amountInWithFee */\n      dup2\n        /* \"W6/bigint/src/simpleamm.sol\":1639:1647  reserve0 */\n      sload(0x00)\n        /* \"W6/bigint/src/simpleamm.sol\":1639:1665  reserve0 * amountInWithFee */\n      tag_123\n      swap2\n      swap1\n      tag_81\n      jump\t// in\n    tag_123:\n        /* \"W6/bigint/src/simpleamm.sol\":1638:1697  (reserve0 * amountInWithFee) / (reserve1 + amountInWithFee) */\n      tag_124\n      swap2\n      swap1\n      tag_93\n      jump\t// in\n    tag_124:\n        /* \"W6/bigint/src/simpleamm.sol\":1626:1697  amountOut = (reserve0 * amountInWithFee) / (reserve1 + amountInWithFee) */\n      swap2\n      pop\n        /* \"W6/bigint/src/simpleamm.sol\":1728:1729  0 */\n      0x00\n        /* \"W6/bigint/src/simpleamm.sol\":1716:1725  amountOut */\n      dup3\n        /* \"W6/bigint/src/simpleamm.sol\":1716:1729  amountOut > 0 */\n      gt\n        /* \"W6/bigint/src/simpleamm.sol\":1708:1760  require(amountOut > 0, \"Insufficient output amount\") */\n      tag_125\n      jumpi\n      mload(0x40)\n      0x08c379a000000000000000000000000000000000000000000000000000000000\n      dup2\n      mstore\n      0x04\n      add\n      tag_126\n      swap1\n      tag_127\n      jump\t// in\n    tag_126:\n      mload(0x40)\n      dup1\n      swap2\n      sub\n      swap1\n      revert\n    tag_125:\n        /* \"W6/bigint/src/simpleamm.sol\":1773:1778  token */\n      immutable(\"0x97798a7ce1eedb778fe135ba4f72c5cd61b1904f61f817965236ff22acf6c32a\")\n        /* \"W6/bigint/src/simpleamm.sol\":1773:1791  token.transferFrom */\n      0xffffffffffffffffffffffffffffffffffffffff\n      and\n      0x23b872dd\n        /* \"W6/bigint/src/simpleamm.sol\":1792:1802  msg.sender */\n      caller\n        /* \"W6/bigint/src/simpleamm.sol\":1812:1816  this */\n      address\n        /* \"W6/bigint/src/simpleamm.sol\":1819:1828  _amountIn */\n      dup7\n        /* \"W6/bigint/src/simpleamm.sol\":1773:1829  token.transferFrom(msg.sender, address(this), _amountIn) */\n      mload(0x40)\n      dup5\n      0xffffffff\n      and\n      0xe0\n      shl\n      dup2\n      mstore\n      0x04\n      add\n      tag_128\n      swap4\n      swap3\n      swap2\n      swap1\n      tag_73\n      jump\t// in\n    tag_128:\n      0x20\n      mload(0x40)\n      dup1\n      dup4\n      sub\n      dup2\n      0x00\n      dup8\n      gas\n      call\n      iszero\n      dup1\n      iszero\n      tag_130\n      jumpi\n      returndatasize\n      0x00\n      dup1\n      returndatacopy\n      revert(0x00, returndatasize)\n    tag_130:\n      pop\n      pop\n      pop\n      pop\n      mload(0x40)\n      returndatasize\n      not(0x1f)\n      0x1f\n      dup3\n      add\n      and\n      dup3\n      add\n      dup1\n      0x40\n      mstore\n      pop\n      dup2\n      add\n      swap1\n      tag_131\n      swap2\n      swap1\n      tag_77\n      jump\t// in\n    tag_131:\n      pop\n        /* \"W6/bigint/src/simpleamm.sol\":1848:1858  msg.sender */\n      caller\n        /* \"W6/bigint/src/simpleamm.sol\":1840:1868  payable(msg.sender).transfer */\n      0xffffffffffffffffffffffffffffffffffffffff\n      and\n        /* \"W6/bigint/src/simpleamm.sol\":1840:1879  payable(msg.sender).transfer(amountOut) */\n      0x08fc\n        /* \"W6/bigint/src/simpleamm.sol\":1869:1878  amountOut */\n      dup4\n        /* \"W6/bigint/src/simpleamm.sol\":1840:1879  payable(msg.sender).transfer(amountOut) */\n      swap1\n      dup2\n      iszero\n      mul\n      swap1\n      mload(0x40)\n      0x00\n      mload(0x40)\n      dup1\n      dup4\n      sub\n      dup2\n      dup6\n      dup9\n      dup9\n      call\n      swap4\n      pop\n      pop\n      pop\n      pop\n      iszero\n      dup1\n      iszero\n      tag_133\n      jumpi\n      returndatasize\n      0x00\n      dup1\n      returndatacopy\n      revert(0x00, returndatasize)\n    tag_133:\n      pop\n        /* \"W6/bigint/src/simpleamm.sol\":1892:1966  _update(address(this).balance - amountOut, token.balanceOf(address(this))) */\n      tag_134\n        /* \"W6/bigint/src/simpleamm.sol\":1924:1933  amountOut */\n      dup3\n        /* \"W6/bigint/src/simpleamm.sol\":1900:1921  address(this).balance */\n      selfbalance\n        /* \"W6/bigint/src/simpleamm.sol\":1900:1933  address(this).balance - amountOut */\n      tag_135\n      swap2\n      swap1\n      tag_136\n      jump\t// in\n    tag_135:\n        /* \"W6/bigint/src/simpleamm.sol\":1935:1940  token */\n      immutable(\"0x97798a7ce1eedb778fe135ba4f72c5cd61b1904f61f817965236ff22acf6c32a\")\n        /* \"W6/bigint/src/simpleamm.sol\":1935:1950  token.balanceOf */\n      0xffffffffffffffffffffffffffffffffffffffff\n      and\n      0x70a08231\n        /* \"W6/bigint/src/simpleamm.sol\":1959:1963  this */\n      address\n        /* \"W6/bigint/src/simpleamm.sol\":1935:1965  token.balanceOf(address(this)) */\n      mload(0x40)\n      dup3\n      0xffffffff\n      and\n      0xe0\n      shl\n      dup2\n      mstore\n      0x04\n      add\n      tag_137\n      swap2\n      swap1\n      tag_61\n      jump\t// in\n    tag_137:\n      0x20\n      mload(0x40)\n      dup1\n      dup4\n      sub\n      dup2\n      dup7\n      gas\n      staticcall\n      iszero\n      dup1\n      iszero\n      tag_139\n      jumpi\n      returndatasize\n      0x00\n      dup1\n      returndatacopy\n      revert(0x00, returndatasize)\n    tag_139:\n      pop\n      pop\n      pop\n      pop\n      mload(0x40)\n      returndatasize\n      not(0x1f)\n      0x1f\n      dup3\n      add\n      and\n      dup3\n      add\n      dup1\n      0x40\n      mstore\n      pop\n      dup2\n      add\n      swap1\n      tag_140\n      swap2\n      swap1\n      tag_107\n      jump\t// in\n    tag_140:\n        /* \"W6/bigint/src/simpleamm.sol\":1892:1899  _update */\n      tag_108\n        /* \"W6/bigint/src/simpleamm.sol\":1892:1966  _update(address(this).balance - amountOut, token.balanceOf(address(this))) */\n      jump\t// in\n    tag_134:\n        /* \"W6/bigint/src/simpleamm.sol\":1552:1974  {... */\n      pop\n        /* \"W6/bigint/src/simpleamm.sol\":1471:1974  function swapTokenForETH(uint256 _amountIn) external returns (uint256 amountOut) {... */\n      swap2\n      swap1\n      pop\n      jump\t// out\n        /* \"W6/bigint/src/simpleamm.sol\":493:537  mapping(address => uint256) public balanceOf */\n    tag_47:\n      mstore(0x20, 0x03)\n      dup1\n      0x00\n      mstore\n      keccak256(0x00, 0x40)\n      0x00\n      swap2\n      pop\n      swap1\n      pop\n      sload\n      dup2\n      jump\t// out\n        /* \"W6/bigint/src/simpleamm.sol\":1044:1465  function swap(uint256 _amountIn) external payable returns (uint256 amountOut) {... */\n    tag_51:\n        /* \"W6/bigint/src/simpleamm.sol\":1103:1120  uint256 amountOut */\n      0x00\n        /* \"W6/bigint/src/simpleamm.sol\":1154:1163  _amountIn */\n      dup2\n        /* \"W6/bigint/src/simpleamm.sol\":1141:1150  msg.value */\n      callvalue\n        /* \"W6/bigint/src/simpleamm.sol\":1141:1163  msg.value == _amountIn */\n      eq\n        /* \"W6/bigint/src/simpleamm.sol\":1133:1187  require(msg.value == _amountIn, \"ETH amount mismatch\") */\n      tag_142\n      jumpi\n      mload(0x40)\n      0x08c379a000000000000000000000000000000000000000000000000000000000\n      dup2\n      mstore\n      0x04\n      add\n      tag_143\n      swap1\n      tag_144\n      jump\t// in\n    tag_143:\n      mload(0x40)\n      dup1\n      swap2\n      sub\n      swap1\n      revert\n    tag_142:\n        /* \"W6/bigint/src/simpleamm.sol\":1200:1223  uint256 amountInWithFee */\n      0x00\n        /* \"W6/bigint/src/simpleamm.sol\":1246:1250  1000 */\n      0x03e8\n        /* \"W6/bigint/src/simpleamm.sol\":1239:1242  997 */\n      0x03e5\n        /* \"W6/bigint/src/simpleamm.sol\":1227:1236  _amountIn */\n      dup5\n        /* \"W6/bigint/src/simpleamm.sol\":1227:1242  _amountIn * 997 */\n      tag_145\n      swap2\n      swap1\n      tag_81\n      jump\t// in\n    tag_145:\n        /* \"W6/bigint/src/simpleamm.sol\":1226:1250  (_amountIn * 997) / 1000 */\n      tag_146\n      swap2\n      swap1\n      tag_93\n      jump\t// in\n    tag_146:\n        /* \"W6/bigint/src/simpleamm.sol\":1200:1250  uint256 amountInWithFee = (_amountIn * 997) / 1000 */\n      swap1\n      pop\n        /* \"W6/bigint/src/simpleamm.sol\":1316:1331  amountInWithFee */\n      dup1\n        /* \"W6/bigint/src/simpleamm.sol\":1305:1313  reserve0 */\n      sload(0x00)\n        /* \"W6/bigint/src/simpleamm.sol\":1305:1331  reserve0 + amountInWithFee */\n      tag_147\n      swap2\n      swap1\n      tag_112\n      jump\t// in\n    tag_147:\n        /* \"W6/bigint/src/simpleamm.sol\":1285:1300  amountInWithFee */\n      dup2\n        /* \"W6/bigint/src/simpleamm.sol\":1274:1282  reserve1 */\n      sload(0x01)\n        /* \"W6/bigint/src/simpleamm.sol\":1274:1300  reserve1 * amountInWithFee */\n      tag_148\n      swap2\n      swap1\n      tag_81\n      jump\t// in\n    tag_148:\n        /* \"W6/bigint/src/simpleamm.sol\":1273:1332  (reserve1 * amountInWithFee) / (reserve0 + amountInWithFee) */\n      tag_149\n      swap2\n      swap1\n      tag_93\n      jump\t// in\n    tag_149:\n        /* \"W6/bigint/src/simpleamm.sol\":1261:1332  amountOut = (reserve1 * amountInWithFee) / (reserve0 + amountInWithFee) */\n      swap2\n      pop\n        /* \"W6/bigint/src/simpleamm.sol\":1345:1350  token */\n      immutable(\"0x97798a7ce1eedb778fe135ba4f72c5cd61b1904f61f817965236ff22acf6c32a\")\n        /* \"W6/bigint/src/simpleamm.sol\":1345:1359  token.transfer */\n      0xffffffffffffffffffffffffffffffffffffffff\n      and\n      0xa9059cbb\n        /* \"W6/bigint/src/simpleamm.sol\":1360:1370  msg.sender */\n      caller\n        /* \"W6/bigint/src/simpleamm.sol\":1372:1381  amountOut */\n      dup5\n        /* \"W6/bigint/src/simpleamm.sol\":1345:1382  token.transfer(msg.sender, amountOut) */\n      mload(0x40)\n      dup4\n      0xffffffff\n      and\n      0xe0\n      shl\n      dup2\n      mstore\n      0x04\n      add\n      tag_150\n      swap3\n      swap2\n      swap1\n      tag_151\n      jump\t// in\n    tag_150:\n      0x20\n      mload(0x40)\n      dup1\n      dup4\n      sub\n      dup2\n      0x00\n      dup8\n      gas\n      call\n      iszero\n      dup1\n      iszero\n      tag_153\n      jumpi\n      returndatasize\n      0x00\n      dup1\n      returndatacopy\n      revert(0x00, returndatasize)\n    tag_153:\n      pop\n      pop\n      pop\n      pop\n      mload(0x40)\n      returndatasize\n      not(0x1f)\n      0x1f\n      dup3\n      add\n      and\n      dup3\n      add\n      dup1\n      0x40\n      mstore\n      pop\n      dup2\n      add\n      swap1\n      tag_154\n      swap2\n      swap1\n      tag_77\n      jump\t// in\n    tag_154:\n      pop\n        /* \"W6/bigint/src/simpleamm.sol\":1395:1457  _update(address(this).balance, token.balanceOf(address(this))) */\n      tag_155\n        /* \"W6/bigint/src/simpleamm.sol\":1403:1424  address(this).balance */\n      selfbalance\n        /* \"W6/bigint/src/simpleamm.sol\":1426:1431  token */\n      immutable(\"0x97798a7ce1eedb778fe135ba4f72c5cd61b1904f61f817965236ff22acf6c32a\")\n        /* \"W6/bigint/src/simpleamm.sol\":1426:1441  token.balanceOf */\n      0xffffffffffffffffffffffffffffffffffffffff\n      and\n      0x70a08231\n        /* \"W6/bigint/src/simpleamm.sol\":1450:1454  this */\n      address\n        /* \"W6/bigint/src/simpleamm.sol\":1426:1456  token.balanceOf(address(this)) */\n      mload(0x40)\n      dup3\n      0xffffffff\n      and\n      0xe0\n      shl\n      dup2\n      mstore\n      0x04\n      add\n      tag_156\n      swap2\n      swap1\n      tag_61\n      jump\t// in\n    tag_156:\n      0x20\n      mload(0x40)\n      dup1\n      dup4\n      sub\n      dup2\n      dup7\n      gas\n      staticcall\n      iszero\n      dup1\n      iszero\n      tag_158\n      jumpi\n      returndatasize\n      0x00\n      dup1\n      returndatacopy\n      revert(0x00, returndatasize)\n    tag_158:\n      pop\n      pop\n      pop\n      pop\n      mload(0x40)\n      returndatasize\n      not(0x1f)\n      0x1f\n      dup3\n      add\n      and\n      dup3\n      add\n      dup1\n      0x40\n      mstore\n      pop\n      dup2\n      add\n      swap1\n      tag_159\n      swap2\n      swap1\n      tag_107\n      jump\t// in\n    tag_159:\n        /* \"W6/bigint/src/simpleamm.sol\":1395:1402  _update */\n      tag_108\n        /* \"W6/bigint/src/simpleamm.sol\":1395:1457  _update(address(this).balance, token.balanceOf(address(this))) */\n      jump\t// in\n    tag_155:\n        /* \"W6/bigint/src/simpleamm.sol\":1122:1465  {... */\n      pop\n        /* \"W6/bigint/src/simpleamm.sol\":1044:1465  function swap(uint256 _amountIn) external payable returns (uint256 amountOut) {... */\n      swap2\n      swap1\n      pop\n      jump\t// out\n        /* \"W6/bigint/src/simpleamm.sol\":3673:3838  function getETHPrice() public view returns (uint256) {... */\n    tag_55:\n        /* \"W6/bigint/src/simpleamm.sol\":3717:3724  uint256 */\n      0x00\n        /* \"W6/bigint/src/simpleamm.sol\":3763:3764  0 */\n      dup1\n        /* \"W6/bigint/src/simpleamm.sol\":3752:3760  reserve1 */\n      sload(0x01)\n        /* \"W6/bigint/src/simpleamm.sol\":3741:3749  reserve0 */\n      sload(0x00)\n        /* \"W6/bigint/src/simpleamm.sol\":3741:3760  reserve0 + reserve1 */\n      tag_161\n      swap2\n      swap1\n      tag_112\n      jump\t// in\n    tag_161:\n        /* \"W6/bigint/src/simpleamm.sol\":3741:3764  reserve0 + reserve1 > 0 */\n      gt\n        /* \"W6/bigint/src/simpleamm.sol\":3733:3785  require(reserve0 + reserve1 > 0, \"Invalid reserves\") */\n      tag_162\n      jumpi\n      mload(0x40)\n      0x08c379a000000000000000000000000000000000000000000000000000000000\n      dup2\n      mstore\n      0x04\n      add\n      tag_163\n      swap1\n      tag_164\n      jump\t// in\n    tag_163:\n      mload(0x40)\n      dup1\n      swap2\n      sub\n      swap1\n      revert\n    tag_162:\n        /* \"W6/bigint/src/simpleamm.sol\":3822:3830  reserve0 */\n      sload(0x00)\n        /* \"W6/bigint/src/simpleamm.sol\":3811:3818  1 ether */\n      0x0de0b6b3a7640000\n        /* \"W6/bigint/src/simpleamm.sol\":3800:3808  reserve1 */\n      sload(0x01)\n        /* \"W6/bigint/src/simpleamm.sol\":3800:3818  reserve1 * 1 ether */\n      tag_165\n      swap2\n      swap1\n      tag_81\n      jump\t// in\n    tag_165:\n        /* \"W6/bigint/src/simpleamm.sol\":3799:3830  (reserve1 * 1 ether) / reserve0 */\n      tag_166\n      swap2\n      swap1\n      tag_93\n      jump\t// in\n    tag_166:\n        /* \"W6/bigint/src/simpleamm.sol\":3792:3830  return (reserve1 * 1 ether) / reserve0 */\n      swap1\n      pop\n        /* \"W6/bigint/src/simpleamm.sol\":3673:3838  function getETHPrice() public view returns (uint256) {... */\n      swap1\n      jump\t// out\n        /* \"W6/bigint/src/simpleamm.sol\":341:389  address public constant ETH_ADDRESS = address(0) */\n    tag_59:\n        /* \"W6/bigint/src/simpleamm.sol\":387:388  0 */\n      0x00\n        /* \"W6/bigint/src/simpleamm.sol\":341:389  address public constant ETH_ADDRESS = address(0) */\n      dup2\n      jump\t// out\n        /* \"W6/bigint/src/simpleamm.sol\":305:334  IERC20 public immutable token */\n    tag_64:\n      immutable(\"0x97798a7ce1eedb778fe135ba4f72c5cd61b1904f61f817965236ff22acf6c32a\")\n      dup2\n      jump\t// out\n        /* \"W6/bigint/src/simpleamm.sol\":3844:4009  function getERCPrice() public view returns (uint256) {... */\n    tag_69:\n        /* \"W6/bigint/src/simpleamm.sol\":3888:3895  uint256 */\n      0x00\n        /* \"W6/bigint/src/simpleamm.sol\":3934:3935  0 */\n      dup1\n        /* \"W6/bigint/src/simpleamm.sol\":3923:3931  reserve1 */\n      sload(0x01)\n        /* \"W6/bigint/src/simpleamm.sol\":3912:3920  reserve0 */\n      sload(0x00)\n        /* \"W6/bigint/src/simpleamm.sol\":3912:3931  reserve0 + reserve1 */\n      tag_168\n      swap2\n      swap1\n      tag_112\n      jump\t// in\n    tag_168:\n        /* \"W6/bigint/src/simpleamm.sol\":3912:3935  reserve0 + reserve1 > 0 */\n      gt\n        /* \"W6/bigint/src/simpleamm.sol\":3904:3956  require(reserve0 + reserve1 > 0, \"Invalid reserves\") */\n      tag_169\n      jumpi\n      mload(0x40)\n      0x08c379a000000000000000000000000000000000000000000000000000000000\n      dup2\n      mstore\n      0x04\n      add\n      tag_170\n      swap1\n      tag_164\n      jump\t// in\n    tag_170:\n      mload(0x40)\n      dup1\n      swap2\n      sub\n      swap1\n      revert\n    tag_169:\n        /* \"W6/bigint/src/simpleamm.sol\":3993:4001  reserve1 */\n      sload(0x01)\n        /* \"W6/bigint/src/simpleamm.sol\":3982:3989  1 ether */\n      0x0de0b6b3a7640000\n        /* \"W6/bigint/src/simpleamm.sol\":3971:3979  reserve0 */\n      sload(0x00)\n        /* \"W6/bigint/src/simpleamm.sol\":3971:3989  reserve0 * 1 ether */\n      tag_171\n      swap2\n      swap1\n      tag_81\n      jump\t// in\n    tag_171:\n        /* \"W6/bigint/src/simpleamm.sol\":3970:4001  (reserve0 * 1 ether) / reserve1 */\n      tag_172\n      swap2\n      swap1\n      tag_93\n      jump\t// in\n    tag_172:\n        /* \"W6/bigint/src/simpleamm.sol\":3963:4001  return (reserve0 * 1 ether) / reserve1 */\n      swap1\n      pop\n        /* \"W6/bigint/src/simpleamm.sol\":3844:4009  function getERCPrice() public view returns (uint256) {... */\n      swap1\n      jump\t// out\n        /* \"W6/bigint/src/simpleamm.sol\":3560:3667  function _min(uint256 x, uint256 y) private pure returns (uint256) {... */\n    tag_96:\n        /* \"W6/bigint/src/simpleamm.sol\":3618:3625  uint256 */\n      0x00\n        /* \"W6/bigint/src/simpleamm.sol\":3650:3651  y */\n      dup2\n        /* \"W6/bigint/src/simpleamm.sol\":3645:3646  x */\n      dup4\n        /* \"W6/bigint/src/simpleamm.sol\":3645:3651  x <= y */\n      gt\n      iszero\n        /* \"W6/bigint/src/simpleamm.sol\":3645:3659  x <= y ? x : y */\n      tag_174\n      jumpi\n        /* \"W6/bigint/src/simpleamm.sol\":3658:3659  y */\n      dup2\n        /* \"W6/bigint/src/simpleamm.sol\":3645:3659  x <= y ? x : y */\n      jump(tag_175)\n    tag_174:\n        /* \"W6/bigint/src/simpleamm.sol\":3654:3655  x */\n      dup3\n        /* \"W6/bigint/src/simpleamm.sol\":3645:3659  x <= y ? x : y */\n    tag_175:\n        /* \"W6/bigint/src/simpleamm.sol\":3638:3659  return x <= y ? x : y */\n      swap1\n      pop\n        /* \"W6/bigint/src/simpleamm.sol\":3560:3667  function _min(uint256 x, uint256 y) private pure returns (uint256) {... */\n      swap3\n      swap2\n      pop\n      pop\n      jump\t// out\n        /* \"W6/bigint/src/simpleamm.sol\":623:753  function _mint(address _to, uint256 _amount) private {... */\n    tag_101:\n        /* \"W6/bigint/src/simpleamm.sol\":705:712  _amount */\n      dup1\n        /* \"W6/bigint/src/simpleamm.sol\":687:696  balanceOf */\n      0x03\n        /* \"W6/bigint/src/simpleamm.sol\":687:701  balanceOf[_to] */\n      0x00\n        /* \"W6/bigint/src/simpleamm.sol\":697:700  _to */\n      dup5\n        /* \"W6/bigint/src/simpleamm.sol\":687:701  balanceOf[_to] */\n      0xffffffffffffffffffffffffffffffffffffffff\n      and\n      0xffffffffffffffffffffffffffffffffffffffff\n      and\n      dup2\n      mstore\n      0x20\n      add\n      swap1\n      dup2\n      mstore\n      0x20\n      add\n      0x00\n      keccak256\n      0x00\n        /* \"W6/bigint/src/simpleamm.sol\":687:712  balanceOf[_to] += _amount */\n      dup3\n      dup3\n      sload\n      tag_177\n      swap2\n      swap1\n      tag_112\n      jump\t// in\n    tag_177:\n      swap3\n      pop\n      pop\n      dup2\n      swap1\n      sstore\n      pop\n        /* \"W6/bigint/src/simpleamm.sol\":738:745  _amount */\n      dup1\n        /* \"W6/bigint/src/simpleamm.sol\":723:734  totalSupply */\n      0x02\n      0x00\n        /* \"W6/bigint/src/simpleamm.sol\":723:745  totalSupply += _amount */\n      dup3\n      dup3\n      sload\n      tag_178\n      swap2\n      swap1\n      tag_112\n      jump\t// in\n    tag_178:\n      swap3\n      pop\n      pop\n      dup2\n      swap1\n      sstore\n      pop\n        /* \"W6/bigint/src/simpleamm.sol\":623:753  function _mint(address _to, uint256 _amount) private {... */\n      pop\n      pop\n      jump\t// out\n        /* \"W6/bigint/src/simpleamm.sol\":903:1036  function _update(uint256 _reserve0, uint256 _reserve1) private {... */\n    tag_108:\n        /* \"W6/bigint/src/simpleamm.sol\":988:997  _reserve0 */\n      dup2\n        /* \"W6/bigint/src/simpleamm.sol\":977:985  reserve0 */\n      0x00\n        /* \"W6/bigint/src/simpleamm.sol\":977:997  reserve0 = _reserve0 */\n      dup2\n      swap1\n      sstore\n      pop\n        /* \"W6/bigint/src/simpleamm.sol\":1019:1028  _reserve1 */\n      dup1\n        /* \"W6/bigint/src/simpleamm.sol\":1008:1016  reserve1 */\n      0x01\n        /* \"W6/bigint/src/simpleamm.sol\":1008:1028  reserve1 = _reserve1 */\n      dup2\n      swap1\n      sstore\n      pop\n        /* \"W6/bigint/src/simpleamm.sol\":903:1036  function _update(uint256 _reserve0, uint256 _reserve1) private {... */\n      pop\n      pop\n      jump\t// out\n        /* \"#utility.yul\":7:84   */\n    tag_180:\n        /* \"#utility.yul\":44:51   */\n      0x00\n        /* \"#utility.yul\":73:78   */\n      dup2\n        /* \"#utility.yul\":62:78   */\n      swap1\n      pop\n        /* \"#utility.yul\":7:84   */\n      swap2\n      swap1\n      pop\n      jump\t// out\n        /* \"#utility.yul\":90:208   */\n    tag_181:\n        /* \"#utility.yul\":177:201   */\n      tag_217\n        /* \"#utility.yul\":195:200   */\n      dup2\n        /* \"#utility.yul\":177:201   */\n      tag_180\n      jump\t// in\n    tag_217:\n        /* \"#utility.yul\":172:175   */\n      dup3\n        /* \"#utility.yul\":165:202   */\n      mstore\n        /* \"#utility.yul\":90:208   */\n      pop\n      pop\n      jump\t// out\n        /* \"#utility.yul\":214:436   */\n    tag_19:\n        /* \"#utility.yul\":307:311   */\n      0x00\n        /* \"#utility.yul\":345:347   */\n      0x20\n        /* \"#utility.yul\":334:343   */\n      dup3\n        /* \"#utility.yul\":330:348   */\n      add\n        /* \"#utility.yul\":322:348   */\n      swap1\n      pop\n        /* \"#utility.yul\":358:429   */\n      tag_219\n        /* \"#utility.yul\":426:427   */\n      0x00\n        /* \"#utility.yul\":415:424   */\n      dup4\n        /* \"#utility.yul\":411:428   */\n      add\n        /* \"#utility.yul\":402:408   */\n      dup5\n        /* \"#utility.yul\":358:429   */\n      tag_181\n      jump\t// in\n    tag_219:\n        /* \"#utility.yul\":214:436   */\n      swap3\n      swap2\n      pop\n      pop\n      jump\t// out\n        /* \"#utility.yul\":523:640   */\n    tag_183:\n        /* \"#utility.yul\":632:633   */\n      0x00\n        /* \"#utility.yul\":629:630   */\n      dup1\n        /* \"#utility.yul\":622:634   */\n      revert\n        /* \"#utility.yul\":769:891   */\n    tag_185:\n        /* \"#utility.yul\":842:866   */\n      tag_224\n        /* \"#utility.yul\":860:865   */\n      dup2\n        /* \"#utility.yul\":842:866   */\n      tag_180\n      jump\t// in\n    tag_224:\n        /* \"#utility.yul\":835:840   */\n      dup2\n        /* \"#utility.yul\":832:867   */\n      eq\n        /* \"#utility.yul\":822:885   */\n      tag_225\n      jumpi\n        /* \"#utility.yul\":881:882   */\n      0x00\n        /* \"#utility.yul\":878:879   */\n      dup1\n        /* \"#utility.yul\":871:883   */\n      revert\n        /* \"#utility.yul\":822:885   */\n    tag_225:\n        /* \"#utility.yul\":769:891   */\n      pop\n      jump\t// out\n        /* \"#utility.yul\":897:1036   */\n    tag_186:\n        /* \"#utility.yul\":943:948   */\n      0x00\n        /* \"#utility.yul\":981:987   */\n      dup2\n        /* \"#utility.yul\":968:988   */\n      calldataload\n        /* \"#utility.yul\":959:988   */\n      swap1\n      pop\n        /* \"#utility.yul\":997:1030   */\n      tag_227\n        /* \"#utility.yul\":1024:1029   */\n      dup2\n        /* \"#utility.yul\":997:1030   */\n      tag_185\n      jump\t// in\n    tag_227:\n        /* \"#utility.yul\":897:1036   */\n      swap3\n      swap2\n      pop\n      pop\n      jump\t// out\n        /* \"#utility.yul\":1042:1371   */\n    tag_26:\n        /* \"#utility.yul\":1101:1107   */\n      0x00\n        /* \"#utility.yul\":1150:1152   */\n      0x20\n        /* \"#utility.yul\":1138:1147   */\n      dup3\n        /* \"#utility.yul\":1129:1136   */\n      dup5\n        /* \"#utility.yul\":1125:1148   */\n      sub\n        /* \"#utility.yul\":1121:1153   */\n      slt\n        /* \"#utility.yul\":1118:1237   */\n      iszero\n      tag_229\n      jumpi\n        /* \"#utility.yul\":1156:1235   */\n      tag_230\n      tag_183\n      jump\t// in\n    tag_230:\n        /* \"#utility.yul\":1118:1237   */\n    tag_229:\n        /* \"#utility.yul\":1276:1277   */\n      0x00\n        /* \"#utility.yul\":1301:1354   */\n      tag_231\n        /* \"#utility.yul\":1346:1353   */\n      dup5\n        /* \"#utility.yul\":1337:1343   */\n      dup3\n        /* \"#utility.yul\":1326:1335   */\n      dup6\n        /* \"#utility.yul\":1322:1344   */\n      add\n        /* \"#utility.yul\":1301:1354   */\n      tag_186\n      jump\t// in\n    tag_231:\n        /* \"#utility.yul\":1291:1354   */\n      swap2\n      pop\n        /* \"#utility.yul\":1247:1364   */\n      pop\n        /* \"#utility.yul\":1042:1371   */\n      swap3\n      swap2\n      pop\n      pop\n      jump\t// out\n        /* \"#utility.yul\":1377:1503   */\n    tag_187:\n        /* \"#utility.yul\":1414:1421   */\n      0x00\n        /* \"#utility.yul\":1454:1496   */\n      0xffffffffffffffffffffffffffffffffffffffff\n        /* \"#utility.yul\":1447:1452   */\n      dup3\n        /* \"#utility.yul\":1443:1497   */\n      and\n        /* \"#utility.yul\":1432:1497   */\n      swap1\n      pop\n        /* \"#utility.yul\":1377:1503   */\n      swap2\n      swap1\n      pop\n      jump\t// out\n        /* \"#utility.yul\":1509:1605   */\n    tag_188:\n        /* \"#utility.yul\":1546:1553   */\n      0x00\n        /* \"#utility.yul\":1575:1599   */\n      tag_234\n        /* \"#utility.yul\":1593:1598   */\n      dup3\n        /* \"#utility.yul\":1575:1599   */\n      tag_187\n      jump\t// in\n    tag_234:\n        /* \"#utility.yul\":1564:1599   */\n      swap1\n      pop\n        /* \"#utility.yul\":1509:1605   */\n      swap2\n      swap1\n      pop\n      jump\t// out\n        /* \"#utility.yul\":1611:1733   */\n    tag_189:\n        /* \"#utility.yul\":1684:1708   */\n      tag_236\n        /* \"#utility.yul\":1702:1707   */\n      dup2\n        /* \"#utility.yul\":1684:1708   */\n      tag_188\n      jump\t// in\n    tag_236:\n        /* \"#utility.yul\":1677:1682   */\n      dup2\n        /* \"#utility.yul\":1674:1709   */\n      eq\n        /* \"#utility.yul\":1664:1727   */\n      tag_237\n      jumpi\n        /* \"#utility.yul\":1723:1724   */\n      0x00\n        /* \"#utility.yul\":1720:1721   */\n      dup1\n        /* \"#utility.yul\":1713:1725   */\n      revert\n        /* \"#utility.yul\":1664:1727   */\n    tag_237:\n        /* \"#utility.yul\":1611:1733   */\n      pop\n      jump\t// out\n        /* \"#utility.yul\":1739:1878   */\n    tag_190:\n        /* \"#utility.yul\":1785:1790   */\n      0x00\n        /* \"#utility.yul\":1823:1829   */\n      dup2\n        /* \"#utility.yul\":1810:1830   */\n      calldataload\n        /* \"#utility.yul\":1801:1830   */\n      swap1\n      pop\n        /* \"#utility.yul\":1839:1872   */\n      tag_239\n        /* \"#utility.yul\":1866:1871   */\n      dup2\n        /* \"#utility.yul\":1839:1872   */\n      tag_189\n      jump\t// in\n    tag_239:\n        /* \"#utility.yul\":1739:1878   */\n      swap3\n      swap2\n      pop\n      pop\n      jump\t// out\n        /* \"#utility.yul\":1884:2213   */\n    tag_46:\n        /* \"#utility.yul\":1943:1949   */\n      0x00\n        /* \"#utility.yul\":1992:1994   */\n      0x20\n        /* \"#utility.yul\":1980:1989   */\n      dup3\n        /* \"#utility.yul\":1971:1978   */\n      dup5\n        /* \"#utility.yul\":1967:1990   */\n      sub\n        /* \"#utility.yul\":1963:1995   */\n      slt\n        /* \"#utility.yul\":1960:2079   */\n      iszero\n      tag_241\n      jumpi\n        /* \"#utility.yul\":1998:2077   */\n      tag_242\n      tag_183\n      jump\t// in\n    tag_242:\n        /* \"#utility.yul\":1960:2079   */\n    tag_241:\n        /* \"#utility.yul\":2118:2119   */\n      0x00\n        /* \"#utility.yul\":2143:2196   */\n      tag_243\n        /* \"#utility.yul\":2188:2195   */\n      dup5\n        /* \"#utility.yul\":2179:2185   */\n      dup3\n        /* \"#utility.yul\":2168:2177   */\n      dup6\n        /* \"#utility.yul\":2164:2186   */\n      add\n        /* \"#utility.yul\":2143:2196   */\n      tag_190\n      jump\t// in\n    tag_243:\n        /* \"#utility.yul\":2133:2196   */\n      swap2\n      pop\n        /* \"#utility.yul\":2089:2206   */\n      pop\n        /* \"#utility.yul\":1884:2213   */\n      swap3\n      swap2\n      pop\n      pop\n      jump\t// out\n        /* \"#utility.yul\":2219:2337   */\n    tag_191:\n        /* \"#utility.yul\":2306:2330   */\n      tag_245\n        /* \"#utility.yul\":2324:2329   */\n      dup2\n        /* \"#utility.yul\":2306:2330   */\n      tag_188\n      jump\t// in\n    tag_245:\n        /* \"#utility.yul\":2301:2304   */\n      dup3\n        /* \"#utility.yul\":2294:2331   */\n      mstore\n        /* \"#utility.yul\":2219:2337   */\n      pop\n      pop\n      jump\t// out\n        /* \"#utility.yul\":2343:2565   */\n    tag_61:\n        /* \"#utility.yul\":2436:2440   */\n      0x00\n        /* \"#utility.yul\":2474:2476   */\n      0x20\n        /* \"#utility.yul\":2463:2472   */\n      dup3\n        /* \"#utility.yul\":2459:2477   */\n      add\n        /* \"#utility.yul\":2451:2477   */\n      swap1\n      pop\n        /* \"#utility.yul\":2487:2558   */\n      tag_247\n        /* \"#utility.yul\":2555:2556   */\n      0x00\n        /* \"#utility.yul\":2544:2553   */\n      dup4\n        /* \"#utility.yul\":2540:2557   */\n      add\n        /* \"#utility.yul\":2531:2537   */\n      dup5\n        /* \"#utility.yul\":2487:2558   */\n      tag_191\n      jump\t// in\n    tag_247:\n        /* \"#utility.yul\":2343:2565   */\n      swap3\n      swap2\n      pop\n      pop\n      jump\t// out\n        /* \"#utility.yul\":2571:2631   */\n    tag_192:\n        /* \"#utility.yul\":2599:2602   */\n      0x00\n        /* \"#utility.yul\":2620:2625   */\n      dup2\n        /* \"#utility.yul\":2613:2625   */\n      swap1\n      pop\n        /* \"#utility.yul\":2571:2631   */\n      swap2\n      swap1\n      pop\n      jump\t// out\n        /* \"#utility.yul\":2637:2779   */\n    tag_193:\n        /* \"#utility.yul\":2687:2696   */\n      0x00\n        /* \"#utility.yul\":2720:2773   */\n      tag_250\n        /* \"#utility.yul\":2738:2772   */\n      tag_251\n        /* \"#utility.yul\":2747:2771   */\n      tag_252\n        /* \"#utility.yul\":2765:2770   */\n      dup5\n        /* \"#utility.yul\":2747:2771   */\n      tag_187\n      jump\t// in\n    tag_252:\n        /* \"#utility.yul\":2738:2772   */\n      tag_192\n      jump\t// in\n    tag_251:\n        /* \"#utility.yul\":2720:2773   */\n      tag_187\n      jump\t// in\n    tag_250:\n        /* \"#utility.yul\":2707:2773   */\n      swap1\n      pop\n        /* \"#utility.yul\":2637:2779   */\n      swap2\n      swap1\n      pop\n      jump\t// out\n        /* \"#utility.yul\":2785:2911   */\n    tag_194:\n        /* \"#utility.yul\":2835:2844   */\n      0x00\n        /* \"#utility.yul\":2868:2905   */\n      tag_254\n        /* \"#utility.yul\":2899:2904   */\n      dup3\n        /* \"#utility.yul\":2868:2905   */\n      tag_193\n      jump\t// in\n    tag_254:\n        /* \"#utility.yul\":2855:2905   */\n      swap1\n      pop\n        /* \"#utility.yul\":2785:2911   */\n      swap2\n      swap1\n      pop\n      jump\t// out\n        /* \"#utility.yul\":2917:3057   */\n    tag_195:\n        /* \"#utility.yul\":2981:2990   */\n      0x00\n        /* \"#utility.yul\":3014:3051   */\n      tag_256\n        /* \"#utility.yul\":3045:3050   */\n      dup3\n        /* \"#utility.yul\":3014:3051   */\n      tag_194\n      jump\t// in\n    tag_256:\n        /* \"#utility.yul\":3001:3051   */\n      swap1\n      pop\n        /* \"#utility.yul\":2917:3057   */\n      swap2\n      swap1\n      pop\n      jump\t// out\n        /* \"#utility.yul\":3063:3222   */\n    tag_196:\n        /* \"#utility.yul\":3164:3215   */\n      tag_258\n        /* \"#utility.yul\":3209:3214   */\n      dup2\n        /* \"#utility.yul\":3164:3215   */\n      tag_195\n      jump\t// in\n    tag_258:\n        /* \"#utility.yul\":3159:3162   */\n      dup3\n        /* \"#utility.yul\":3152:3216   */\n      mstore\n        /* \"#utility.yul\":3063:3222   */\n      pop\n      pop\n      jump\t// out\n        /* \"#utility.yul\":3228:3478   */\n    tag_66:\n        /* \"#utility.yul\":3335:3339   */\n      0x00\n        /* \"#utility.yul\":3373:3375   */\n      0x20\n        /* \"#utility.yul\":3362:3371   */\n      dup3\n        /* \"#utility.yul\":3358:3376   */\n      add\n        /* \"#utility.yul\":3350:3376   */\n      swap1\n      pop\n        /* \"#utility.yul\":3386:3471   */\n      tag_260\n        /* \"#utility.yul\":3468:3469   */\n      0x00\n        /* \"#utility.yul\":3457:3466   */\n      dup4\n        /* \"#utility.yul\":3453:3470   */\n      add\n        /* \"#utility.yul\":3444:3450   */\n      dup5\n        /* \"#utility.yul\":3386:3471   */\n      tag_196\n      jump\t// in\n    tag_260:\n        /* \"#utility.yul\":3228:3478   */\n      swap3\n      swap2\n      pop\n      pop\n      jump\t// out\n        /* \"#utility.yul\":3484:3926   */\n    tag_73:\n        /* \"#utility.yul\":3633:3637   */\n      0x00\n        /* \"#utility.yul\":3671:3673   */\n      0x60\n        /* \"#utility.yul\":3660:3669   */\n      dup3\n        /* \"#utility.yul\":3656:3674   */\n      add\n        /* \"#utility.yul\":3648:3674   */\n      swap1\n      pop\n        /* \"#utility.yul\":3684:3755   */\n      tag_262\n        /* \"#utility.yul\":3752:3753   */\n      0x00\n        /* \"#utility.yul\":3741:3750   */\n      dup4\n        /* \"#utility.yul\":3737:3754   */\n      add\n        /* \"#utility.yul\":3728:3734   */\n      dup7\n        /* \"#utility.yul\":3684:3755   */\n      tag_191\n      jump\t// in\n    tag_262:\n        /* \"#utility.yul\":3765:3837   */\n      tag_263\n        /* \"#utility.yul\":3833:3835   */\n      0x20\n        /* \"#utility.yul\":3822:3831   */\n      dup4\n        /* \"#utility.yul\":3818:3836   */\n      add\n        /* \"#utility.yul\":3809:3815   */\n      dup6\n        /* \"#utility.yul\":3765:3837   */\n      tag_191\n      jump\t// in\n    tag_263:\n        /* \"#utility.yul\":3847:3919   */\n      tag_264\n        /* \"#utility.yul\":3915:3917   */\n      0x40\n        /* \"#utility.yul\":3904:3913   */\n      dup4\n        /* \"#utility.yul\":3900:3918   */\n      add\n        /* \"#utility.yul\":3891:3897   */\n      dup5\n        /* \"#utility.yul\":3847:3919   */\n      tag_181\n      jump\t// in\n    tag_264:\n        /* \"#utility.yul\":3484:3926   */\n      swap5\n      swap4\n      pop\n      pop\n      pop\n      pop\n      jump\t// out\n        /* \"#utility.yul\":3932:4022   */\n    tag_197:\n        /* \"#utility.yul\":3966:3973   */\n      0x00\n        /* \"#utility.yul\":4009:4014   */\n      dup2\n        /* \"#utility.yul\":4002:4015   */\n      iszero\n        /* \"#utility.yul\":3995:4016   */\n      iszero\n        /* \"#utility.yul\":3984:4016   */\n      swap1\n      pop\n        /* \"#utility.yul\":3932:4022   */\n      swap2\n      swap1\n      pop\n      jump\t// out\n        /* \"#utility.yul\":4028:4144   */\n    tag_198:\n        /* \"#utility.yul\":4098:4119   */\n      tag_267\n        /* \"#utility.yul\":4113:4118   */\n      dup2\n        /* \"#utility.yul\":4098:4119   */\n      tag_197\n      jump\t// in\n    tag_267:\n        /* \"#utility.yul\":4091:4096   */\n      dup2\n        /* \"#utility.yul\":4088:4120   */\n      eq\n        /* \"#utility.yul\":4078:4138   */\n      tag_268\n      jumpi\n        /* \"#utility.yul\":4134:4135   */\n      0x00\n        /* \"#utility.yul\":4131:4132   */\n      dup1\n        /* \"#utility.yul\":4124:4136   */\n      revert\n        /* \"#utility.yul\":4078:4138   */\n    tag_268:\n        /* \"#utility.yul\":4028:4144   */\n      pop\n      jump\t// out\n        /* \"#utility.yul\":4150:4287   */\n    tag_199:\n        /* \"#utility.yul\":4204:4209   */\n      0x00\n        /* \"#utility.yul\":4235:4241   */\n      dup2\n        /* \"#utility.yul\":4229:4242   */\n      mload\n        /* \"#utility.yul\":4220:4242   */\n      swap1\n      pop\n        /* \"#utility.yul\":4251:4281   */\n      tag_270\n        /* \"#utility.yul\":4275:4280   */\n      dup2\n        /* \"#utility.yul\":4251:4281   */\n      tag_198\n      jump\t// in\n    tag_270:\n        /* \"#utility.yul\":4150:4287   */\n      swap3\n      swap2\n      pop\n      pop\n      jump\t// out\n        /* \"#utility.yul\":4293:4638   */\n    tag_77:\n        /* \"#utility.yul\":4360:4366   */\n      0x00\n        /* \"#utility.yul\":4409:4411   */\n      0x20\n        /* \"#utility.yul\":4397:4406   */\n      dup3\n        /* \"#utility.yul\":4388:4395   */\n      dup5\n        /* \"#utility.yul\":4384:4407   */\n      sub\n        /* \"#utility.yul\":4380:4412   */\n      slt\n        /* \"#utility.yul\":4377:4496   */\n      iszero\n      tag_272\n      jumpi\n        /* \"#utility.yul\":4415:4494   */\n      tag_273\n      tag_183\n      jump\t// in\n    tag_273:\n        /* \"#utility.yul\":4377:4496   */\n    tag_272:\n        /* \"#utility.yul\":4535:4536   */\n      0x00\n        /* \"#utility.yul\":4560:4621   */\n      tag_274\n        /* \"#utility.yul\":4613:4620   */\n      dup5\n        /* \"#utility.yul\":4604:4610   */\n      dup3\n        /* \"#utility.yul\":4593:4602   */\n      dup6\n        /* \"#utility.yul\":4589:4611   */\n      add\n        /* \"#utility.yul\":4560:4621   */\n      tag_199\n      jump\t// in\n    tag_274:\n        /* \"#utility.yul\":4550:4621   */\n      swap2\n      pop\n        /* \"#utility.yul\":4506:4631   */\n      pop\n        /* \"#utility.yul\":4293:4638   */\n      swap3\n      swap2\n      pop\n      pop\n      jump\t// out\n        /* \"#utility.yul\":4644:4824   */\n    tag_200:\n        /* \"#utility.yul\":4692:4769   */\n      0x4e487b7100000000000000000000000000000000000000000000000000000000\n        /* \"#utility.yul\":4689:4690   */\n      0x00\n        /* \"#utility.yul\":4682:4770   */\n      mstore\n        /* \"#utility.yul\":4789:4793   */\n      0x11\n        /* \"#utility.yul\":4786:4787   */\n      0x04\n        /* \"#utility.yul\":4779:4794   */\n      mstore\n        /* \"#utility.yul\":4813:4817   */\n      0x24\n        /* \"#utility.yul\":4810:4811   */\n      0x00\n        /* \"#utility.yul\":4803:4818   */\n      revert\n        /* \"#utility.yul\":4830:5240   */\n    tag_81:\n        /* \"#utility.yul\":4870:4877   */\n      0x00\n        /* \"#utility.yul\":4893:4913   */\n      tag_277\n        /* \"#utility.yul\":4911:4912   */\n      dup3\n        /* \"#utility.yul\":4893:4913   */\n      tag_180\n      jump\t// in\n    tag_277:\n        /* \"#utility.yul\":4888:4913   */\n      swap2\n      pop\n        /* \"#utility.yul\":4927:4947   */\n      tag_278\n        /* \"#utility.yul\":4945:4946   */\n      dup4\n        /* \"#utility.yul\":4927:4947   */\n      tag_180\n      jump\t// in\n    tag_278:\n        /* \"#utility.yul\":4922:4947   */\n      swap3\n      pop\n        /* \"#utility.yul\":4982:4983   */\n      dup3\n        /* \"#utility.yul\":4979:4980   */\n      dup3\n        /* \"#utility.yul\":4975:4984   */\n      mul\n        /* \"#utility.yul\":5004:5034   */\n      tag_279\n        /* \"#utility.yul\":5022:5033   */\n      dup2\n        /* \"#utility.yul\":5004:5034   */\n      tag_180\n      jump\t// in\n    tag_279:\n        /* \"#utility.yul\":4993:5034   */\n      swap2\n      pop\n        /* \"#utility.yul\":5183:5184   */\n      dup3\n        /* \"#utility.yul\":5174:5181   */\n      dup3\n        /* \"#utility.yul\":5170:5185   */\n      div\n        /* \"#utility.yul\":5167:5168   */\n      dup5\n        /* \"#utility.yul\":5164:5186   */\n      eq\n        /* \"#utility.yul\":5144:5145   */\n      dup4\n        /* \"#utility.yul\":5137:5146   */\n      iszero\n        /* \"#utility.yul\":5117:5200   */\n      or\n        /* \"#utility.yul\":5094:5233   */\n      tag_280\n      jumpi\n        /* \"#utility.yul\":5213:5231   */\n      tag_281\n      tag_200\n      jump\t// in\n    tag_281:\n        /* \"#utility.yul\":5094:5233   */\n    tag_280:\n        /* \"#utility.yul\":4878:5240   */\n      pop\n        /* \"#utility.yul\":4830:5240   */\n      swap3\n      swap2\n      pop\n      pop\n      jump\t// out\n        /* \"#utility.yul\":5246:5415   */\n    tag_201:\n        /* \"#utility.yul\":5330:5341   */\n      0x00\n        /* \"#utility.yul\":5364:5370   */\n      dup3\n        /* \"#utility.yul\":5359:5362   */\n      dup3\n        /* \"#utility.yul\":5352:5371   */\n      mstore\n        /* \"#utility.yul\":5404:5408   */\n      0x20\n        /* \"#utility.yul\":5399:5402   */\n      dup3\n        /* \"#utility.yul\":5395:5409   */\n      add\n        /* \"#utility.yul\":5380:5409   */\n      swap1\n      pop\n        /* \"#utility.yul\":5246:5415   */\n      swap3\n      swap2\n      pop\n      pop\n      jump\t// out\n        /* \"#utility.yul\":5421:5587   */\n    tag_202:\n        /* \"#utility.yul\":5561:5579   */\n      0x78202f207920213d206478202f20647900000000000000000000000000000000\n        /* \"#utility.yul\":5557:5558   */\n      0x00\n        /* \"#utility.yul\":5549:5555   */\n      dup3\n        /* \"#utility.yul\":5545:5559   */\n      add\n        /* \"#utility.yul\":5538:5580   */\n      mstore\n        /* \"#utility.yul\":5421:5587   */\n      pop\n      jump\t// out\n        /* \"#utility.yul\":5593:5959   */\n    tag_203:\n        /* \"#utility.yul\":5735:5738   */\n      0x00\n        /* \"#utility.yul\":5756:5823   */\n      tag_285\n        /* \"#utility.yul\":5820:5822   */\n      0x10\n        /* \"#utility.yul\":5815:5818   */\n      dup4\n        /* \"#utility.yul\":5756:5823   */\n      tag_201\n      jump\t// in\n    tag_285:\n        /* \"#utility.yul\":5749:5823   */\n      swap2\n      pop\n        /* \"#utility.yul\":5832:5925   */\n      tag_286\n        /* \"#utility.yul\":5921:5924   */\n      dup3\n        /* \"#utility.yul\":5832:5925   */\n      tag_202\n      jump\t// in\n    tag_286:\n        /* \"#utility.yul\":5950:5952   */\n      0x20\n        /* \"#utility.yul\":5945:5948   */\n      dup3\n        /* \"#utility.yul\":5941:5953   */\n      add\n        /* \"#utility.yul\":5934:5953   */\n      swap1\n      pop\n        /* \"#utility.yul\":5593:5959   */\n      swap2\n      swap1\n      pop\n      jump\t// out\n        /* \"#utility.yul\":5965:6384   */\n    tag_85:\n        /* \"#utility.yul\":6131:6135   */\n      0x00\n        /* \"#utility.yul\":6169:6171   */\n      0x20\n        /* \"#utility.yul\":6158:6167   */\n      dup3\n        /* \"#utility.yul\":6154:6172   */\n      add\n        /* \"#utility.yul\":6146:6172   */\n      swap1\n      pop\n        /* \"#utility.yul\":6218:6227   */\n      dup2\n        /* \"#utility.yul\":6212:6216   */\n      dup2\n        /* \"#utility.yul\":6208:6228   */\n      sub\n        /* \"#utility.yul\":6204:6205   */\n      0x00\n        /* \"#utility.yul\":6193:6202   */\n      dup4\n        /* \"#utility.yul\":6189:6206   */\n      add\n        /* \"#utility.yul\":6182:6229   */\n      mstore\n        /* \"#utility.yul\":6246:6377   */\n      tag_288\n        /* \"#utility.yul\":6372:6376   */\n      dup2\n        /* \"#utility.yul\":6246:6377   */\n      tag_203\n      jump\t// in\n    tag_288:\n        /* \"#utility.yul\":6238:6377   */\n      swap1\n      pop\n        /* \"#utility.yul\":5965:6384   */\n      swap2\n      swap1\n      pop\n      jump\t// out\n        /* \"#utility.yul\":6390:6570   */\n    tag_204:\n        /* \"#utility.yul\":6438:6515   */\n      0x4e487b7100000000000000000000000000000000000000000000000000000000\n        /* \"#utility.yul\":6435:6436   */\n      0x00\n        /* \"#utility.yul\":6428:6516   */\n      mstore\n        /* \"#utility.yul\":6535:6539   */\n      0x12\n        /* \"#utility.yul\":6532:6533   */\n      0x04\n        /* \"#utility.yul\":6525:6540   */\n      mstore\n        /* \"#utility.yul\":6559:6563   */\n      0x24\n        /* \"#utility.yul\":6556:6557   */\n      0x00\n        /* \"#utility.yul\":6549:6564   */\n      revert\n        /* \"#utility.yul\":6576:6761   */\n    tag_93:\n        /* \"#utility.yul\":6616:6617   */\n      0x00\n        /* \"#utility.yul\":6633:6653   */\n      tag_291\n        /* \"#utility.yul\":6651:6652   */\n      dup3\n        /* \"#utility.yul\":6633:6653   */\n      tag_180\n      jump\t// in\n    tag_291:\n        /* \"#utility.yul\":6628:6653   */\n      swap2\n      pop\n        /* \"#utility.yul\":6667:6687   */\n      tag_292\n        /* \"#utility.yul\":6685:6686   */\n      dup4\n        /* \"#utility.yul\":6667:6687   */\n      tag_180\n      jump\t// in\n    tag_292:\n        /* \"#utility.yul\":6662:6687   */\n      swap3\n      pop\n        /* \"#utility.yul\":6706:6707   */\n      dup3\n        /* \"#utility.yul\":6696:6731   */\n      tag_293\n      jumpi\n        /* \"#utility.yul\":6711:6729   */\n      tag_294\n      tag_204\n      jump\t// in\n    tag_294:\n        /* \"#utility.yul\":6696:6731   */\n    tag_293:\n        /* \"#utility.yul\":6753:6754   */\n      dup3\n        /* \"#utility.yul\":6750:6751   */\n      dup3\n        /* \"#utility.yul\":6746:6755   */\n      div\n        /* \"#utility.yul\":6741:6755   */\n      swap1\n      pop\n        /* \"#utility.yul\":6576:6761   */\n      swap3\n      swap2\n      pop\n      pop\n      jump\t// out\n        /* \"#utility.yul\":6767:6927   */\n    tag_205:\n        /* \"#utility.yul\":6907:6919   */\n      0x736861726573203d203000000000000000000000000000000000000000000000\n        /* \"#utility.yul\":6903:6904   */\n      0x00\n        /* \"#utility.yul\":6895:6901   */\n      dup3\n        /* \"#utility.yul\":6891:6905   */\n      add\n        /* \"#utility.yul\":6884:6920   */\n      mstore\n        /* \"#utility.yul\":6767:6927   */\n      pop\n      jump\t// out\n        /* \"#utility.yul\":6933:7299   */\n    tag_206:\n        /* \"#utility.yul\":7075:7078   */\n      0x00\n        /* \"#utility.yul\":7096:7163   */\n      tag_297\n        /* \"#utility.yul\":7160:7162   */\n      0x0a\n        /* \"#utility.yul\":7155:7158   */\n      dup4\n        /* \"#utility.yul\":7096:7163   */\n      tag_201\n      jump\t// in\n    tag_297:\n        /* \"#utility.yul\":7089:7163   */\n      swap2\n      pop\n        /* \"#utility.yul\":7172:7265   */\n      tag_298\n        /* \"#utility.yul\":7261:7264   */\n      dup3\n        /* \"#utility.yul\":7172:7265   */\n      tag_205\n      jump\t// in\n    tag_298:\n        /* \"#utility.yul\":7290:7292   */\n      0x20\n        /* \"#utility.yul\":7285:7288   */\n      dup3\n        /* \"#utility.yul\":7281:7293   */\n      add\n        /* \"#utility.yul\":7274:7293   */\n      swap1\n      pop\n        /* \"#utility.yul\":6933:7299   */\n      swap2\n      swap1\n      pop\n      jump\t// out\n        /* \"#utility.yul\":7305:7724   */\n    tag_99:\n        /* \"#utility.yul\":7471:7475   */\n      0x00\n        /* \"#utility.yul\":7509:7511   */\n      0x20\n        /* \"#utility.yul\":7498:7507   */\n      dup3\n        /* \"#utility.yul\":7494:7512   */\n      add\n        /* \"#utility.yul\":7486:7512   */\n      swap1\n      pop\n        /* \"#utility.yul\":7558:7567   */\n      dup2\n        /* \"#utility.yul\":7552:7556   */\n      dup2\n        /* \"#utility.yul\":7548:7568   */\n      sub\n        /* \"#utility.yul\":7544:7545   */\n      0x00\n        /* \"#utility.yul\":7533:7542   */\n      dup4\n        /* \"#utility.yul\":7529:7546   */\n      add\n        /* \"#utility.yul\":7522:7569   */\n      mstore\n        /* \"#utility.yul\":7586:7717   */\n      tag_300\n        /* \"#utility.yul\":7712:7716   */\n      dup2\n        /* \"#utility.yul\":7586:7717   */\n      tag_206\n      jump\t// in\n    tag_300:\n        /* \"#utility.yul\":7578:7717   */\n      swap1\n      pop\n        /* \"#utility.yul\":7305:7724   */\n      swap2\n      swap1\n      pop\n      jump\t// out\n        /* \"#utility.yul\":7730:7873   */\n    tag_207:\n        /* \"#utility.yul\":7787:7792   */\n      0x00\n        /* \"#utility.yul\":7818:7824   */\n      dup2\n        /* \"#utility.yul\":7812:7825   */\n      mload\n        /* \"#utility.yul\":7803:7825   */\n      swap1\n      pop\n        /* \"#utility.yul\":7834:7867   */\n      tag_302\n        /* \"#utility.yul\":7861:7866   */\n      dup2\n        /* \"#utility.yul\":7834:7867   */\n      tag_185\n      jump\t// in\n    tag_302:\n        /* \"#utility.yul\":7730:7873   */\n      swap3\n      swap2\n      pop\n      pop\n      jump\t// out\n        /* \"#utility.yul\":7879:8230   */\n    tag_107:\n        /* \"#utility.yul\":7949:7955   */\n      0x00\n        /* \"#utility.yul\":7998:8000   */\n      0x20\n        /* \"#utility.yul\":7986:7995   */\n      dup3\n        /* \"#utility.yul\":7977:7984   */\n      dup5\n        /* \"#utility.yul\":7973:7996   */\n      sub\n        /* \"#utility.yul\":7969:8001   */\n      slt\n        /* \"#utility.yul\":7966:8085   */\n      iszero\n      tag_304\n      jumpi\n        /* \"#utility.yul\":8004:8083   */\n      tag_305\n      tag_183\n      jump\t// in\n    tag_305:\n        /* \"#utility.yul\":7966:8085   */\n    tag_304:\n        /* \"#utility.yul\":8124:8125   */\n      0x00\n        /* \"#utility.yul\":8149:8213   */\n      tag_306\n        /* \"#utility.yul\":8205:8212   */\n      dup5\n        /* \"#utility.yul\":8196:8202   */\n      dup3\n        /* \"#utility.yul\":8185:8194   */\n      dup6\n        /* \"#utility.yul\":8181:8203   */\n      add\n        /* \"#utility.yul\":8149:8213   */\n      tag_207\n      jump\t// in\n    tag_306:\n        /* \"#utility.yul\":8139:8213   */\n      swap2\n      pop\n        /* \"#utility.yul\":8095:8223   */\n      pop\n        /* \"#utility.yul\":7879:8230   */\n      swap3\n      swap2\n      pop\n      pop\n      jump\t// out\n        /* \"#utility.yul\":8236:8427   */\n    tag_112:\n        /* \"#utility.yul\":8276:8279   */\n      0x00\n        /* \"#utility.yul\":8295:8315   */\n      tag_308\n        /* \"#utility.yul\":8313:8314   */\n      dup3\n        /* \"#utility.yul\":8295:8315   */\n      tag_180\n      jump\t// in\n    tag_308:\n        /* \"#utility.yul\":8290:8315   */\n      swap2\n      pop\n        /* \"#utility.yul\":8329:8349   */\n      tag_309\n        /* \"#utility.yul\":8347:8348   */\n      dup4\n        /* \"#utility.yul\":8329:8349   */\n      tag_180\n      jump\t// in\n    tag_309:\n        /* \"#utility.yul\":8324:8349   */\n      swap3\n      pop\n        /* \"#utility.yul\":8372:8373   */\n      dup3\n        /* \"#utility.yul\":8369:8370   */\n      dup3\n        /* \"#utility.yul\":8365:8374   */\n      add\n        /* \"#utility.yul\":8358:8374   */\n      swap1\n      pop\n        /* \"#utility.yul\":8393:8396   */\n      dup1\n        /* \"#utility.yul\":8390:8391   */\n      dup3\n        /* \"#utility.yul\":8387:8397   */\n      gt\n        /* \"#utility.yul\":8384:8420   */\n      iszero\n      tag_310\n      jumpi\n        /* \"#utility.yul\":8400:8418   */\n      tag_311\n      tag_200\n      jump\t// in\n    tag_311:\n        /* \"#utility.yul\":8384:8420   */\n    tag_310:\n        /* \"#utility.yul\":8236:8427   */\n      swap3\n      swap2\n      pop\n      pop\n      jump\t// out\n        /* \"#utility.yul\":8433:8609   */\n    tag_208:\n        /* \"#utility.yul\":8573:8601   */\n      0x496e73756666696369656e74206f757470757420616d6f756e74000000000000\n        /* \"#utility.yul\":8569:8570   */\n      0x00\n        /* \"#utility.yul\":8561:8567   */\n      dup3\n        /* \"#utility.yul\":8557:8571   */\n      add\n        /* \"#utility.yul\":8550:8602   */\n      mstore\n        /* \"#utility.yul\":8433:8609   */\n      pop\n      jump\t// out\n        /* \"#utility.yul\":8615:8981   */\n    tag_209:\n        /* \"#utility.yul\":8757:8760   */\n      0x00\n        /* \"#utility.yul\":8778:8845   */\n      tag_314\n        /* \"#utility.yul\":8842:8844   */\n      0x1a\n        /* \"#utility.yul\":8837:8840   */\n      dup4\n        /* \"#utility.yul\":8778:8845   */\n      tag_201\n      jump\t// in\n    tag_314:\n        /* \"#utility.yul\":8771:8845   */\n      swap2\n      pop\n        /* \"#utility.yul\":8854:8947   */\n      tag_315\n        /* \"#utility.yul\":8943:8946   */\n      dup3\n        /* \"#utility.yul\":8854:8947   */\n      tag_208\n      jump\t// in\n    tag_315:\n        /* \"#utility.yul\":8972:8974   */\n      0x20\n        /* \"#utility.yul\":8967:8970   */\n      dup3\n        /* \"#utility.yul\":8963:8975   */\n      add\n        /* \"#utility.yul\":8956:8975   */\n      swap1\n      pop\n        /* \"#utility.yul\":8615:8981   */\n      swap2\n      swap1\n      pop\n      jump\t// out\n        /* \"#utility.yul\":8987:9406   */\n    tag_127:\n        /* \"#utility.yul\":9153:9157   */\n      0x00\n        /* \"#utility.yul\":9191:9193   */\n      0x20\n        /* \"#utility.yul\":9180:9189   */\n      dup3\n        /* \"#utility.yul\":9176:9194   */\n      add\n        /* \"#utility.yul\":9168:9194   */\n      swap1\n      pop\n        /* \"#utility.yul\":9240:9249   */\n      dup2\n        /* \"#utility.yul\":9234:9238   */\n      dup2\n        /* \"#utility.yul\":9230:9250   */\n      sub\n        /* \"#utility.yul\":9226:9227   */\n      0x00\n        /* \"#utility.yul\":9215:9224   */\n      dup4\n        /* \"#utility.yul\":9211:9228   */\n      add\n        /* \"#utility.yul\":9204:9251   */\n      mstore\n        /* \"#utility.yul\":9268:9399   */\n      tag_317\n        /* \"#utility.yul\":9394:9398   */\n      dup2\n        /* \"#utility.yul\":9268:9399   */\n      tag_209\n      jump\t// in\n    tag_317:\n        /* \"#utility.yul\":9260:9399   */\n      swap1\n      pop\n        /* \"#utility.yul\":8987:9406   */\n      swap2\n      swap1\n      pop\n      jump\t// out\n        /* \"#utility.yul\":9412:9606   */\n    tag_136:\n        /* \"#utility.yul\":9452:9456   */\n      0x00\n        /* \"#utility.yul\":9472:9492   */\n      tag_319\n        /* \"#utility.yul\":9490:9491   */\n      dup3\n        /* \"#utility.yul\":9472:9492   */\n      tag_180\n      jump\t// in\n    tag_319:\n        /* \"#utility.yul\":9467:9492   */\n      swap2\n      pop\n        /* \"#utility.yul\":9506:9526   */\n      tag_320\n        /* \"#utility.yul\":9524:9525   */\n      dup4\n        /* \"#utility.yul\":9506:9526   */\n      tag_180\n      jump\t// in\n    tag_320:\n        /* \"#utility.yul\":9501:9526   */\n      swap3\n      pop\n        /* \"#utility.yul\":9550:9551   */\n      dup3\n        /* \"#utility.yul\":9547:9548   */\n      dup3\n        /* \"#utility.yul\":9543:9552   */\n      sub\n        /* \"#utility.yul\":9535:9552   */\n      swap1\n      pop\n        /* \"#utility.yul\":9574:9575   */\n      dup2\n        /* \"#utility.yul\":9568:9572   */\n      dup2\n        /* \"#utility.yul\":9565:9576   */\n      gt\n        /* \"#utility.yul\":9562:9599   */\n      iszero\n      tag_321\n      jumpi\n        /* \"#utility.yul\":9579:9597   */\n      tag_322\n      tag_200\n      jump\t// in\n    tag_322:\n        /* \"#utility.yul\":9562:9599   */\n    tag_321:\n        /* \"#utility.yul\":9412:9606   */\n      swap3\n      swap2\n      pop\n      pop\n      jump\t// out\n        /* \"#utility.yul\":9612:9781   */\n    tag_210:\n        /* \"#utility.yul\":9752:9773   */\n      0x45544820616d6f756e74206d69736d6174636800000000000000000000000000\n        /* \"#utility.yul\":9748:9749   */\n      0x00\n        /* \"#utility.yul\":9740:9746   */\n      dup3\n        /* \"#utility.yul\":9736:9750   */\n      add\n        /* \"#utility.yul\":9729:9774   */\n      mstore\n        /* \"#utility.yul\":9612:9781   */\n      pop\n      jump\t// out\n        /* \"#utility.yul\":9787:10153   */\n    tag_211:\n        /* \"#utility.yul\":9929:9932   */\n      0x00\n        /* \"#utility.yul\":9950:10017   */\n      tag_325\n        /* \"#utility.yul\":10014:10016   */\n      0x13\n        /* \"#utility.yul\":10009:10012   */\n      dup4\n        /* \"#utility.yul\":9950:10017   */\n      tag_201\n      jump\t// in\n    tag_325:\n        /* \"#utility.yul\":9943:10017   */\n      swap2\n      pop\n        /* \"#utility.yul\":10026:10119   */\n      tag_326\n        /* \"#utility.yul\":10115:10118   */\n      dup3\n        /* \"#utility.yul\":10026:10119   */\n      tag_210\n      jump\t// in\n    tag_326:\n        /* \"#utility.yul\":10144:10146   */\n      0x20\n        /* \"#utility.yul\":10139:10142   */\n      dup3\n        /* \"#utility.yul\":10135:10147   */\n      add\n        /* \"#utility.yul\":10128:10147   */\n      swap1\n      pop\n        /* \"#utility.yul\":9787:10153   */\n      swap2\n      swap1\n      pop\n      jump\t// out\n        /* \"#utility.yul\":10159:10578   */\n    tag_144:\n        /* \"#utility.yul\":10325:10329   */\n      0x00\n        /* \"#utility.yul\":10363:10365   */\n      0x20\n        /* \"#utility.yul\":10352:10361   */\n      dup3\n        /* \"#utility.yul\":10348:10366   */\n      add\n        /* \"#utility.yul\":10340:10366   */\n      swap1\n      pop\n        /* \"#utility.yul\":10412:10421   */\n      dup2\n        /* \"#utility.yul\":10406:10410   */\n      dup2\n        /* \"#utility.yul\":10402:10422   */\n      sub\n        /* \"#utility.yul\":10398:10399   */\n      0x00\n        /* \"#utility.yul\":10387:10396   */\n      dup4\n        /* \"#utility.yul\":10383:10400   */\n      add\n        /* \"#utility.yul\":10376:10423   */\n      mstore\n        /* \"#utility.yul\":10440:10571   */\n      tag_328\n        /* \"#utility.yul\":10566:10570   */\n      dup2\n        /* \"#utility.yul\":10440:10571   */\n      tag_211\n      jump\t// in\n    tag_328:\n        /* \"#utility.yul\":10432:10571   */\n      swap1\n      pop\n        /* \"#utility.yul\":10159:10578   */\n      swap2\n      swap1\n      pop\n      jump\t// out\n        /* \"#utility.yul\":10584:10916   */\n    tag_151:\n        /* \"#utility.yul\":10705:10709   */\n      0x00\n        /* \"#utility.yul\":10743:10745   */\n      0x40\n        /* \"#utility.yul\":10732:10741   */\n      dup3\n        /* \"#utility.yul\":10728:10746   */\n      add\n        /* \"#utility.yul\":10720:10746   */\n      swap1\n      pop\n        /* \"#utility.yul\":10756:10827   */\n      tag_330\n        /* \"#utility.yul\":10824:10825   */\n      0x00\n        /* \"#utility.yul\":10813:10822   */\n      dup4\n        /* \"#utility.yul\":10809:10826   */\n      add\n        /* \"#utility.yul\":10800:10806   */\n      dup6\n        /* \"#utility.yul\":10756:10827   */\n      tag_191\n      jump\t// in\n    tag_330:\n        /* \"#utility.yul\":10837:10909   */\n      tag_331\n        /* \"#utility.yul\":10905:10907   */\n      0x20\n        /* \"#utility.yul\":10894:10903   */\n      dup4\n        /* \"#utility.yul\":10890:10908   */\n      add\n        /* \"#utility.yul\":10881:10887   */\n      dup5\n        /* \"#utility.yul\":10837:10909   */\n      tag_181\n      jump\t// in\n    tag_331:\n        /* \"#utility.yul\":10584:10916   */\n      swap4\n      swap3\n      pop\n      pop\n      pop\n      jump\t// out\n        /* \"#utility.yul\":10922:11088   */\n    tag_212:\n        /* \"#utility.yul\":11062:11080   */\n      0x496e76616c696420726573657276657300000000000000000000000000000000\n        /* \"#utility.yul\":11058:11059   */\n      0x00\n        /* \"#utility.yul\":11050:11056   */\n      dup3\n        /* \"#utility.yul\":11046:11060   */\n      add\n        /* \"#utility.yul\":11039:11081   */\n      mstore\n        /* \"#utility.yul\":10922:11088   */\n      pop\n      jump\t// out\n        /* \"#utility.yul\":11094:11460   */\n    tag_213:\n        /* \"#utility.yul\":11236:11239   */\n      0x00\n        /* \"#utility.yul\":11257:11324   */\n      tag_334\n        /* \"#utility.yul\":11321:11323   */\n      0x10\n        /* \"#utility.yul\":11316:11319   */\n      dup4\n        /* \"#utility.yul\":11257:11324   */\n      tag_201\n      jump\t// in\n    tag_334:\n        /* \"#utility.yul\":11250:11324   */\n      swap2\n      pop\n        /* \"#utility.yul\":11333:11426   */\n      tag_335\n        /* \"#utility.yul\":11422:11425   */\n      dup3\n        /* \"#utility.yul\":11333:11426   */\n      tag_212\n      jump\t// in\n    tag_335:\n        /* \"#utility.yul\":11451:11453   */\n      0x20\n        /* \"#utility.yul\":11446:11449   */\n      dup3\n        /* \"#utility.yul\":11442:11454   */\n      add\n        /* \"#utility.yul\":11435:11454   */\n      swap1\n      pop\n        /* \"#utility.yul\":11094:11460   */\n      swap2\n      swap1\n      pop\n      jump\t// out\n        /* \"#utility.yul\":11466:11885   */\n    tag_164:\n        /* \"#utility.yul\":11632:11636   */\n      0x00\n        /* \"#utility.yul\":11670:11672   */\n      0x20\n        /* \"#utility.yul\":11659:11668   */\n      dup3\n        /* \"#utility.yul\":11655:11673   */\n      add\n        /* \"#utility.yul\":11647:11673   */\n      swap1\n      pop\n        /* \"#utility.yul\":11719:11728   */\n      dup2\n        /* \"#utility.yul\":11713:11717   */\n      dup2\n        /* \"#utility.yul\":11709:11729   */\n      sub\n        /* \"#utility.yul\":11705:11706   */\n      0x00\n        /* \"#utility.yul\":11694:11703   */\n      dup4\n        /* \"#utility.yul\":11690:11707   */\n      add\n        /* \"#utility.yul\":11683:11730   */\n      mstore\n        /* \"#utility.yul\":11747:11878   */\n      tag_337\n        /* \"#utility.yul\":11873:11877   */\n      dup2\n        /* \"#utility.yul\":11747:11878   */\n      tag_213\n      jump\t// in\n    tag_337:\n        /* \"#utility.yul\":11739:11878   */\n      swap1\n      pop\n        /* \"#utility.yul\":11466:11885   */\n      swap2\n      swap1\n      pop\n      jump\t// out\n\n    auxdata: 0xa2646970667358221220d9342f492605ebb14bd4c790a61040123b9c28edaac413f387db75cba0ae5fb464736f6c63430008120033\n}\n",
				"bytecode": {
					"linkReferences": {},
					"object": "60a06040523480156200001157600080fd5b5060405162001377380380620013778339818101604052810190620000379190620000dc565b8073ffffffffffffffffffffffffffffffffffffffff1660808173ffffffffffffffffffffffffffffffffffffffff1681525050506200010e565b600080fd5b600073ffffffffffffffffffffffffffffffffffffffff82169050919050565b6000620000a48262000077565b9050919050565b620000b68162000097565b8114620000c257600080fd5b50565b600081519050620000d681620000ab565b92915050565b600060208284031215620000f557620000f462000072565b5b60006200010584828501620000c5565b91505092915050565b6080516112236200015460003960008181610300015281816104d10152818161067c01528181610773015281816108bb0152818161095e0152610a8301526112236000f3fe6080604052600436106100a75760003560e01c806370a082311161006457806370a08231146101d757806394b918de14610214578063a607a8d914610244578063a734f06e1461026f578063fc0c546a1461029a578063fcc2ba08146102c5576100a7565b806318160ddd146100ac578063443cb4bc146100d757806351c6590a146101025780635a76f25e146101325780636a263f021461015d5780636fb84b741461019a575b600080fd5b3480156100b857600080fd5b506100c16102f0565b6040516100ce9190610bd8565b60405180910390f35b3480156100e357600080fd5b506100ec6102f6565b6040516100f99190610bd8565b60405180910390f35b61011c60048036038101906101179190610c24565b6102fc565b6040516101299190610bd8565b60405180910390f35b34801561013e57600080fd5b50610147610574565b6040516101549190610bd8565b60405180910390f35b34801561016957600080fd5b50610184600480360381019061017f9190610c24565b61057a565b6040516101919190610bd8565b60405180910390f35b3480156101a657600080fd5b506101c160048036038101906101bc9190610c24565b6105ef565b6040516101ce9190610bd8565b60405180910390f35b3480156101e357600080fd5b506101fe60048036038101906101f99190610caf565b610816565b60405161020b9190610bd8565b60405180910390f35b61022e60048036038101906102299190610c24565b61082e565b60405161023b9190610bd8565b60405180910390f35b34801561025057600080fd5b50610259610a01565b6040516102669190610bd8565b60405180910390f35b34801561027b57600080fd5b50610284610a7c565b6040516102919190610ceb565b60405180910390f35b3480156102a657600080fd5b506102af610a81565b6040516102bc9190610d65565b60405180910390f35b3480156102d157600080fd5b506102da610aa5565b6040516102e79190610bd8565b60405180910390f35b60025481565b60005481565b60007f000000000000000000000000000000000000000000000000000000000000000073ffffffffffffffffffffffffffffffffffffffff166323b872dd3330856040518463ffffffff1660e01b815260040161035b93929190610d80565b6020604051808303816000875af115801561037a573d6000803e3d6000fd5b505050506040513d601f19601f8201168201806040525081019061039e9190610def565b5060003490506000805411806103b657506000600154115b1561041857806001546103c99190610e4b565b836000546103d79190610e4b565b14610417576040517f08c379a000000000000000000000000000000000000000000000000000000000815260040161040e90610eea565b60405180910390fd5b5b60006002540361043d5761043683826104319190610e4b565b61057a565b915061047e565b61047b600054600254836104519190610e4b565b61045b9190610f39565b6001546002548661046c9190610e4b565b6104769190610f39565b610b20565b91505b600082116104c1576040517f08c379a00000000000000000000000000000000000000000000000000000000081526004016104b890610fb6565b60405180910390fd5b6104cb3383610b3a565b61056e477f000000000000000000000000000000000000000000000000000000000000000073ffffffffffffffffffffffffffffffffffffffff166370a08231306040518263ffffffff1660e01b81526004016105289190610ceb565b602060405180830381865afa158015610545573d6000803e3d6000fd5b505050506040513d601f19601f820116820180604052508101906105699190610feb565b610bad565b50919050565b60015481565b600080820361058c57600090506105ea565b6000600260018461059d9190611018565b6105a79190610f39565b905060008390505b808210156105e45781905060028283866105c99190610f39565b6105d39190611018565b6105dd9190610f39565b91506105af565b80925050505b919050565b6000806103e86103e5846106039190610e4b565b61060d9190610f39565b90508060015461061d9190611018565b8160005461062b9190610e4b565b6106359190610f39565b91506000821161067a576040517f08c379a000000000000000000000000000000000000000000000000000000000815260040161067190611098565b60405180910390fd5b7f000000000000000000000000000000000000000000000000000000000000000073ffffffffffffffffffffffffffffffffffffffff166323b872dd3330866040518463ffffffff1660e01b81526004016106d793929190610d80565b6020604051808303816000875af11580156106f6573d6000803e3d6000fd5b505050506040513d601f19601f8201168201806040525081019061071a9190610def565b503373ffffffffffffffffffffffffffffffffffffffff166108fc839081150290604051600060405180830381858888f19350505050158015610761573d6000803e3d6000fd5b50610810824761077191906110b8565b7f000000000000000000000000000000000000000000000000000000000000000073ffffffffffffffffffffffffffffffffffffffff166370a08231306040518263ffffffff1660e01b81526004016107ca9190610ceb565b602060405180830381865afa1580156107e7573d6000803e3d6000fd5b505050506040513d601f19601f8201168201806040525081019061080b9190610feb565b610bad565b50919050565b60036020528060005260406000206000915090505481565b6000813414610872576040517f08c379a000000000000000000000000000000000000000000000000000000000815260040161086990611138565b60405180910390fd5b60006103e86103e5846108859190610e4b565b61088f9190610f39565b90508060005461089f9190611018565b816001546108ad9190610e4b565b6108b79190610f39565b91507f000000000000000000000000000000000000000000000000000000000000000073ffffffffffffffffffffffffffffffffffffffff1663a9059cbb33846040518363ffffffff1660e01b8152600401610914929190611158565b6020604051808303816000875af1158015610933573d6000803e3d6000fd5b505050506040513d601f19601f820116820180604052508101906109579190610def565b506109fb477f000000000000000000000000000000000000000000000000000000000000000073ffffffffffffffffffffffffffffffffffffffff166370a08231306040518263ffffffff1660e01b81526004016109b59190610ceb565b602060405180830381865afa1580156109d2573d6000803e3d6000fd5b505050506040513d601f19601f820116820180604052508101906109f69190610feb565b610bad565b50919050565b600080600154600054610a149190611018565b11610a54576040517f08c379a0000000000000000000000000000000000000000000000000000000008152600401610a4b906111cd565b60405180910390fd5b600054670de0b6b3a7640000600154610a6d9190610e4b565b610a779190610f39565b905090565b600081565b7f000000000000000000000000000000000000000000000000000000000000000081565b600080600154600054610ab89190611018565b11610af8576040517f08c379a0000000000000000000000000000000000000000000000000000000008152600401610aef906111cd565b60405180910390fd5b600154670de0b6b3a7640000600054610b119190610e4b565b610b1b9190610f39565b905090565b600081831115610b305781610b32565b825b905092915050565b80600360008473ffffffffffffffffffffffffffffffffffffffff1673ffffffffffffffffffffffffffffffffffffffff1681526020019081526020016000206000828254610b899190611018565b925050819055508060026000828254610ba29190611018565b925050819055505050565b81600081905550806001819055505050565b6000819050919050565b610bd281610bbf565b82525050565b6000602082019050610bed6000830184610bc9565b92915050565b600080fd5b610c0181610bbf565b8114610c0c57600080fd5b50565b600081359050610c1e81610bf8565b92915050565b600060208284031215610c3a57610c39610bf3565b5b6000610c4884828501610c0f565b91505092915050565b600073ffffffffffffffffffffffffffffffffffffffff82169050919050565b6000610c7c82610c51565b9050919050565b610c8c81610c71565b8114610c9757600080fd5b50565b600081359050610ca981610c83565b92915050565b600060208284031215610cc557610cc4610bf3565b5b6000610cd384828501610c9a565b91505092915050565b610ce581610c71565b82525050565b6000602082019050610d006000830184610cdc565b92915050565b6000819050919050565b6000610d2b610d26610d2184610c51565b610d06565b610c51565b9050919050565b6000610d3d82610d10565b9050919050565b6000610d4f82610d32565b9050919050565b610d5f81610d44565b82525050565b6000602082019050610d7a6000830184610d56565b92915050565b6000606082019050610d956000830186610cdc565b610da26020830185610cdc565b610daf6040830184610bc9565b949350505050565b60008115159050919050565b610dcc81610db7565b8114610dd757600080fd5b50565b600081519050610de981610dc3565b92915050565b600060208284031215610e0557610e04610bf3565b5b6000610e1384828501610dda565b91505092915050565b7f4e487b7100000000000000000000000000000000000000000000000000000000600052601160045260246000fd5b6000610e5682610bbf565b9150610e6183610bbf565b9250828202610e6f81610bbf565b91508282048414831517610e8657610e85610e1c565b5b5092915050565b600082825260208201905092915050565b7f78202f207920213d206478202f20647900000000000000000000000000000000600082015250565b6000610ed4601083610e8d565b9150610edf82610e9e565b602082019050919050565b60006020820190508181036000830152610f0381610ec7565b9050919050565b7f4e487b7100000000000000000000000000000000000000000000000000000000600052601260045260246000fd5b6000610f4482610bbf565b9150610f4f83610bbf565b925082610f5f57610f5e610f0a565b5b828204905092915050565b7f736861726573203d203000000000000000000000000000000000000000000000600082015250565b6000610fa0600a83610e8d565b9150610fab82610f6a565b602082019050919050565b60006020820190508181036000830152610fcf81610f93565b9050919050565b600081519050610fe581610bf8565b92915050565b60006020828403121561100157611000610bf3565b5b600061100f84828501610fd6565b91505092915050565b600061102382610bbf565b915061102e83610bbf565b925082820190508082111561104657611045610e1c565b5b92915050565b7f496e73756666696369656e74206f757470757420616d6f756e74000000000000600082015250565b6000611082601a83610e8d565b915061108d8261104c565b602082019050919050565b600060208201905081810360008301526110b181611075565b9050919050565b60006110c382610bbf565b91506110ce83610bbf565b92508282039050818111156110e6576110e5610e1c565b5b92915050565b7f45544820616d6f756e74206d69736d6174636800000000000000000000000000600082015250565b6000611122601383610e8d565b915061112d826110ec565b602082019050919050565b6000602082019050818103600083015261115181611115565b9050919050565b600060408201905061116d6000830185610cdc565b61117a6020830184610bc9565b9392505050565b7f496e76616c696420726573657276657300000000000000000000000000000000600082015250565b60006111b7601083610e8d565b91506111c282611181565b602082019050919050565b600060208201905081810360008301526111e6816111aa565b905091905056fea2646970667358221220d9342f492605ebb14bd4c790a61040123b9c28edaac413f387db75cba0ae5fb464736f6c63430008120033",
					"opcodes": "PUSH1 0xA0 PUSH1 0x40 MSTORE CALLVALUE DUP1 ISZERO PUSH3 0x11 JUMPI PUSH1 0x0 DUP1 REVERT JUMPDEST POP PUSH1 0x40 MLOAD PUSH3 0x1377 CODESIZE SUB DUP1 PUSH3 0x1377 DUP4 CODECOPY DUP2 DUP2 ADD PUSH1 0x40 MSTORE DUP2 ADD SWAP1 PUSH3 0x37 SWAP2 SWAP1 PUSH3 0xDC JUMP JUMPDEST DUP1 PUSH20 0xFFFFFFFFFFFFFFFFFFFFFFFFFFFFFFFFFFFFFFFF AND PUSH1 0x80 DUP2 PUSH20 0xFFFFFFFFFFFFFFFFFFFFFFFFFFFFFFFFFFFFFFFF AND DUP2 MSTORE POP POP POP PUSH3 0x10E JUMP JUMPDEST PUSH1 0x0 DUP1 REVERT JUMPDEST PUSH1 0x0 PUSH20 0xFFFFFFFFFFFFFFFFFFFFFFFFFFFFFFFFFFFFFFFF DUP3 AND SWAP1 POP SWAP2 SWAP1 POP JUMP JUMPDEST PUSH1 0x0 PUSH3 0xA4 DUP3 PUSH3 0x77 JUMP JUMPDEST SWAP1 POP SWAP2 SWAP1 POP JUMP JUMPDEST PUSH3 0xB6 DUP2 PUSH3 0x97 JUMP JUMPDEST DUP2 EQ PUSH3 0xC2 JUMPI PUSH1 0x0 DUP1 REVERT JUMPDEST POP JUMP JUMPDEST PUSH1 0x0 DUP2 MLOAD SWAP1 POP PUSH3 0xD6 DUP2 PUSH3 0xAB JUMP JUMPDEST SWAP3 SWAP2 POP POP JUMP JUMPDEST PUSH1 0x0 PUSH1 0x20 DUP3 DUP5 SUB SLT ISZERO PUSH3 0xF5 JUMPI PUSH3 0xF4 PUSH3 0x72 JUMP JUMPDEST JUMPDEST PUSH1 0x0 PUSH3 0x105 DUP5 DUP3 DUP6 ADD PUSH3 0xC5 JUMP JUMPDEST SWAP2 POP POP SWAP3 SWAP2 POP POP JUMP JUMPDEST PUSH1 0x80 MLOAD PUSH2 0x1223 PUSH3 0x154 PUSH1 0x0 CODECOPY PUSH1 0x0 DUP2 DUP2 PUSH2 0x300 ADD MSTORE DUP2 DUP2 PUSH2 0x4D1 ADD MSTORE DUP2 DUP2 PUSH2 0x67C ADD MSTORE DUP2 DUP2 PUSH2 0x773 ADD MSTORE DUP2 DUP2 PUSH2 0x8BB ADD MSTORE DUP2 DUP2 PUSH2 0x95E ADD MSTORE PUSH2 0xA83 ADD MSTORE PUSH2 0x1223 PUSH1 0x0 RETURN INVALID PUSH1 0x80 PUSH1 0x40 MSTORE PUSH1 0x4 CALLDATASIZE LT PUSH2 0xA7 JUMPI PUSH1 0x0 CALLDATALOAD PUSH1 0xE0 SHR DUP1 PUSH4 0x70A08231 GT PUSH2 0x64 JUMPI DUP1 PUSH4 0x70A08231 EQ PUSH2 0x1D7 JUMPI DUP1 PUSH4 0x94B918DE EQ PUSH2 0x214 JUMPI DUP1 PUSH4 0xA607A8D9 EQ PUSH2 0x244 JUMPI DUP1 PUSH4 0xA734F06E EQ PUSH2 0x26F JUMPI DUP1 PUSH4 0xFC0C546A EQ PUSH2 0x29A JUMPI DUP1 PUSH4 0xFCC2BA08 EQ PUSH2 0x2C5 JUMPI PUSH2 0xA7 JUMP JUMPDEST DUP1 PUSH4 0x18160DDD EQ PUSH2 0xAC JUMPI DUP1 PUSH4 0x443CB4BC EQ PUSH2 0xD7 JUMPI DUP1 PUSH4 0x51C6590A EQ PUSH2 0x102 JUMPI DUP1 PUSH4 0x5A76F25E EQ PUSH2 0x132 JUMPI DUP1 PUSH4 0x6A263F02 EQ PUSH2 0x15D JUMPI DUP1 PUSH4 0x6FB84B74 EQ PUSH2 0x19A JUMPI JUMPDEST PUSH1 0x0 DUP1 REVERT JUMPDEST CALLVALUE DUP1 ISZERO PUSH2 0xB8 JUMPI PUSH1 0x0 DUP1 REVERT JUMPDEST POP PUSH2 0xC1 PUSH2 0x2F0 JUMP JUMPDEST PUSH1 0x40 MLOAD PUSH2 0xCE SWAP2 SWAP1 PUSH2 0xBD8 JUMP JUMPDEST PUSH1 0x40 MLOAD DUP1 SWAP2 SUB SWAP1 RETURN JUMPDEST CALLVALUE DUP1 ISZERO PUSH2 0xE3 JUMPI PUSH1 0x0 DUP1 REVERT JUMPDEST POP PUSH2 0xEC PUSH2 0x2F6 JUMP JUMPDEST PUSH1 0x40 MLOAD PUSH2 0xF9 SWAP2 SWAP1 PUSH2 0xBD8 JUMP JUMPDEST PUSH1 0x40 MLOAD DUP1 SWAP2 SUB SWAP1 RETURN JUMPDEST PUSH2 0x11C PUSH1 0x4 DUP1 CALLDATASIZE SUB DUP2 ADD SWAP1 PUSH2 0x117 SWAP2 SWAP1 PUSH2 0xC24 JUMP JUMPDEST PUSH2 0x2FC JUMP JUMPDEST PUSH1 0x40 MLOAD PUSH2 0x129 SWAP2 SWAP1 PUSH2 0xBD8 JUMP JUMPDEST PUSH1 0x40 MLOAD DUP1 SWAP2 SUB SWAP1 RETURN JUMPDEST CALLVALUE DUP1 ISZERO PUSH2 0x13E JUMPI PUSH1 0x0 DUP1 REVERT JUMPDEST POP PUSH2 0x147 PUSH2 0x574 JUMP JUMPDEST PUSH1 0x40 MLOAD PUSH2 0x154 SWAP2 SWAP1 PUSH2 0xBD8 JUMP JUMPDEST PUSH1 0x40 MLOAD DUP1 SWAP2 SUB SWAP1 RETURN JUMPDEST CALLVALUE DUP1 ISZERO PUSH2 0x169 JUMPI PUSH1 0x0 DUP1 REVERT JUMPDEST POP PUSH2 0x184 PUSH1 0x4 DUP1 CALLDATASIZE SUB DUP2 ADD SWAP1 PUSH2 0x17F SWAP2 SWAP1 PUSH2 0xC24 JUMP JUMPDEST PUSH2 0x57A JUMP JUMPDEST PUSH1 0x40 MLOAD PUSH2 0x191 SWAP2 SWAP1 PUSH2 0xBD8 JUMP JUMPDEST PUSH1 0x40 MLOAD DUP1 SWAP2 SUB SWAP1 RETURN JUMPDEST CALLVALUE DUP1 ISZERO PUSH2 0x1A6 JUMPI PUSH1 0x0 DUP1 REVERT JUMPDEST POP PUSH2 0x1C1 PUSH1 0x4 DUP1 CALLDATASIZE SUB DUP2 ADD SWAP1 PUSH2 0x1BC SWAP2 SWAP1 PUSH2 0xC24 JUMP JUMPDEST PUSH2 0x5EF JUMP JUMPDEST PUSH1 0x40 MLOAD PUSH2 0x1CE SWAP2 SWAP1 PUSH2 0xBD8 JUMP JUMPDEST PUSH1 0x40 MLOAD DUP1 SWAP2 SUB SWAP1 RETURN JUMPDEST CALLVALUE DUP1 ISZERO PUSH2 0x1E3 JUMPI PUSH1 0x0 DUP1 REVERT JUMPDEST POP PUSH2 0x1FE PUSH1 0x4 DUP1 CALLDATASIZE SUB DUP2 ADD SWAP1 PUSH2 0x1F9 SWAP2 SWAP1 PUSH2 0xCAF JUMP JUMPDEST PUSH2 0x816 JUMP JUMPDEST PUSH1 0x40 MLOAD PUSH2 0x20B SWAP2 SWAP1 PUSH2 0xBD8 JUMP JUMPDEST PUSH1 0x40 MLOAD DUP1 SWAP2 SUB SWAP1 RETURN JUMPDEST PUSH2 0x22E PUSH1 0x4 DUP1 CALLDATASIZE SUB DUP2 ADD SWAP1 PUSH2 0x229 SWAP2 SWAP1 PUSH2 0xC24 JUMP JUMPDEST PUSH2 0x82E JUMP JUMPDEST PUSH1 0x40 MLOAD PUSH2 0x23B SWAP2 SWAP1 PUSH2 0xBD8 JUMP JUMPDEST PUSH1 0x40 MLOAD DUP1 SWAP2 SUB SWAP1 RETURN JUMPDEST CALLVALUE DUP1 ISZERO PUSH2 0x250 JUMPI PUSH1 0x0 DUP1 REVERT JUMPDEST POP PUSH2 0x259 PUSH2 0xA01 JUMP JUMPDEST PUSH1 0x40 MLOAD PUSH2 0x266 SWAP2 SWAP1 PUSH2 0xBD8 JUMP JUMPDEST PUSH1 0x40 MLOAD DUP1 SWAP2 SUB SWAP1 RETURN JUMPDEST CALLVALUE DUP1 ISZERO PUSH2 0x27B JUMPI PUSH1 0x0 DUP1 REVERT JUMPDEST POP PUSH2 0x284 PUSH2 0xA7C JUMP JUMPDEST PUSH1 0x40 MLOAD PUSH2 0x291 SWAP2 SWAP1 PUSH2 0xCEB JUMP JUMPDEST PUSH1 0x40 MLOAD DUP1 SWAP2 SUB SWAP1 RETURN JUMPDEST CALLVALUE DUP1 ISZERO PUSH2 0x2A6 JUMPI PUSH1 0x0 DUP1 REVERT JUMPDEST POP PUSH2 0x2AF PUSH2 0xA81 JUMP JUMPDEST PUSH1 0x40 MLOAD PUSH2 0x2BC SWAP2 SWAP1 PUSH2 0xD65 JUMP JUMPDEST PUSH1 0x40 MLOAD DUP1 SWAP2 SUB SWAP1 RETURN JUMPDEST CALLVALUE DUP1 ISZERO PUSH2 0x2D1 JUMPI PUSH1 0x0 DUP1 REVERT JUMPDEST POP PUSH2 0x2DA PUSH2 0xAA5 JUMP JUMPDEST PUSH1 0x40 MLOAD PUSH2 0x2E7 SWAP2 SWAP1 PUSH2 0xBD8 JUMP JUMPDEST PUSH1 0x40 MLOAD DUP1 SWAP2 SUB SWAP1 RETURN JUMPDEST PUSH1 0x2 SLOAD DUP2 JUMP JUMPDEST PUSH1 0x0 SLOAD DUP2 JUMP JUMPDEST PUSH1 0x0 PUSH32 0x0 PUSH20 0xFFFFFFFFFFFFFFFFFFFFFFFFFFFFFFFFFFFFFFFF AND PUSH4 0x23B872DD CALLER ADDRESS DUP6 PUSH1 0x40 MLOAD DUP5 PUSH4 0xFFFFFFFF AND PUSH1 0xE0 SHL DUP2 MSTORE PUSH1 0x4 ADD PUSH2 0x35B SWAP4 SWAP3 SWAP2 SWAP1 PUSH2 0xD80 JUMP JUMPDEST PUSH1 0x20 PUSH1 0x40 MLOAD DUP1 DUP4 SUB DUP2 PUSH1 0x0 DUP8 GAS CALL ISZERO DUP1 ISZERO PUSH2 0x37A JUMPI RETURNDATASIZE PUSH1 0x0 DUP1 RETURNDATACOPY RETURNDATASIZE PUSH1 0x0 REVERT JUMPDEST POP POP POP POP PUSH1 0x40 MLOAD RETURNDATASIZE PUSH1 0x1F NOT PUSH1 0x1F DUP3 ADD AND DUP3 ADD DUP1 PUSH1 0x40 MSTORE POP DUP2 ADD SWAP1 PUSH2 0x39E SWAP2 SWAP1 PUSH2 0xDEF JUMP JUMPDEST POP PUSH1 0x0 CALLVALUE SWAP1 POP PUSH1 0x0 DUP1 SLOAD GT DUP1 PUSH2 0x3B6 JUMPI POP PUSH1 0x0 PUSH1 0x1 SLOAD GT JUMPDEST ISZERO PUSH2 0x418 JUMPI DUP1 PUSH1 0x1 SLOAD PUSH2 0x3C9 SWAP2 SWAP1 PUSH2 0xE4B JUMP JUMPDEST DUP4 PUSH1 0x0 SLOAD PUSH2 0x3D7 SWAP2 SWAP1 PUSH2 0xE4B JUMP JUMPDEST EQ PUSH2 0x417 JUMPI PUSH1 0x40 MLOAD PUSH32 0x8C379A000000000000000000000000000000000000000000000000000000000 DUP2 MSTORE PUSH1 0x4 ADD PUSH2 0x40E SWAP1 PUSH2 0xEEA JUMP JUMPDEST PUSH1 0x40 MLOAD DUP1 SWAP2 SUB SWAP1 REVERT JUMPDEST JUMPDEST PUSH1 0x0 PUSH1 0x2 SLOAD SUB PUSH2 0x43D JUMPI PUSH2 0x436 DUP4 DUP3 PUSH2 0x431 SWAP2 SWAP1 PUSH2 0xE4B JUMP JUMPDEST PUSH2 0x57A JUMP JUMPDEST SWAP2 POP PUSH2 0x47E JUMP JUMPDEST PUSH2 0x47B PUSH1 0x0 SLOAD PUSH1 0x2 SLOAD DUP4 PUSH2 0x451 SWAP2 SWAP1 PUSH2 0xE4B JUMP JUMPDEST PUSH2 0x45B SWAP2 SWAP1 PUSH2 0xF39 JUMP JUMPDEST PUSH1 0x1 SLOAD PUSH1 0x2 SLOAD DUP7 PUSH2 0x46C SWAP2 SWAP1 PUSH2 0xE4B JUMP JUMPDEST PUSH2 0x476 SWAP2 SWAP1 PUSH2 0xF39 JUMP JUMPDEST PUSH2 0xB20 JUMP JUMPDEST SWAP2 POP JUMPDEST PUSH1 0x0 DUP3 GT PUSH2 0x4C1 JUMPI PUSH1 0x40 MLOAD PUSH32 0x8C379A000000000000000000000000000000000000000000000000000000000 DUP2 MSTORE PUSH1 0x4 ADD PUSH2 0x4B8 SWAP1 PUSH2 0xFB6 JUMP JUMPDEST PUSH1 0x40 MLOAD DUP1 SWAP2 SUB SWAP1 REVERT JUMPDEST PUSH2 0x4CB CALLER DUP4 PUSH2 0xB3A JUMP JUMPDEST PUSH2 0x56E SELFBALANCE PUSH32 0x0 PUSH20 0xFFFFFFFFFFFFFFFFFFFFFFFFFFFFFFFFFFFFFFFF AND PUSH4 0x70A08231 ADDRESS PUSH1 0x40 MLOAD DUP3 PUSH4 0xFFFFFFFF AND PUSH1 0xE0 SHL DUP2 MSTORE PUSH1 0x4 ADD PUSH2 0x528 SWAP2 SWAP1 PUSH2 0xCEB JUMP JUMPDEST PUSH1 0x20 PUSH1 0x40 MLOAD DUP1 DUP4 SUB DUP2 DUP7 GAS STATICCALL ISZERO DUP1 ISZERO PUSH2 0x545 JUMPI RETURNDATASIZE PUSH1 0x0 DUP1 RETURNDATACOPY RETURNDATASIZE PUSH1 0x0 REVERT JUMPDEST POP POP POP POP PUSH1 0x40 MLOAD RETURNDATASIZE PUSH1 0x1F NOT PUSH1 0x1F DUP3 ADD AND DUP3 ADD DUP1 PUSH1 0x40 MSTORE POP DUP2 ADD SWAP1 PUSH2 0x569 SWAP2 SWAP1 PUSH2 0xFEB JUMP JUMPDEST PUSH2 0xBAD JUMP JUMPDEST POP SWAP2 SWAP1 POP JUMP JUMPDEST PUSH1 0x1 SLOAD DUP2 JUMP JUMPDEST PUSH1 0x0 DUP1 DUP3 SUB PUSH2 0x58C JUMPI PUSH1 0x0 SWAP1 POP PUSH2 0x5EA JUMP JUMPDEST PUSH1 0x0 PUSH1 0x2 PUSH1 0x1 DUP5 PUSH2 0x59D SWAP2 SWAP1 PUSH2 0x1018 JUMP JUMPDEST PUSH2 0x5A7 SWAP2 SWAP1 PUSH2 0xF39 JUMP JUMPDEST SWAP1 POP PUSH1 0x0 DUP4 SWAP1 POP JUMPDEST DUP1 DUP3 LT ISZERO PUSH2 0x5E4 JUMPI DUP2 SWAP1 POP PUSH1 0x2 DUP3 DUP4 DUP7 PUSH2 0x5C9 SWAP2 SWAP1 PUSH2 0xF39 JUMP JUMPDEST PUSH2 0x5D3 SWAP2 SWAP1 PUSH2 0x1018 JUMP JUMPDEST PUSH2 0x5DD SWAP2 SWAP1 PUSH2 0xF39 JUMP JUMPDEST SWAP2 POP PUSH2 0x5AF JUMP JUMPDEST DUP1 SWAP3 POP POP POP JUMPDEST SWAP2 SWAP1 POP JUMP JUMPDEST PUSH1 0x0 DUP1 PUSH2 0x3E8 PUSH2 0x3E5 DUP5 PUSH2 0x603 SWAP2 SWAP1 PUSH2 0xE4B JUMP JUMPDEST PUSH2 0x60D SWAP2 SWAP1 PUSH2 0xF39 JUMP JUMPDEST SWAP1 POP DUP1 PUSH1 0x1 SLOAD PUSH2 0x61D SWAP2 SWAP1 PUSH2 0x1018 JUMP JUMPDEST DUP2 PUSH1 0x0 SLOAD PUSH2 0x62B SWAP2 SWAP1 PUSH2 0xE4B JUMP JUMPDEST PUSH2 0x635 SWAP2 SWAP1 PUSH2 0xF39 JUMP JUMPDEST SWAP2 POP PUSH1 0x0 DUP3 GT PUSH2 0x67A JUMPI PUSH1 0x40 MLOAD PUSH32 0x8C379A000000000000000000000000000000000000000000000000000000000 DUP2 MSTORE PUSH1 0x4 ADD PUSH2 0x671 SWAP1 PUSH2 0x1098 JUMP JUMPDEST PUSH1 0x40 MLOAD DUP1 SWAP2 SUB SWAP1 REVERT JUMPDEST PUSH32 0x0 PUSH20 0xFFFFFFFFFFFFFFFFFFFFFFFFFFFFFFFFFFFFFFFF AND PUSH4 0x23B872DD CALLER ADDRESS DUP7 PUSH1 0x40 MLOAD DUP5 PUSH4 0xFFFFFFFF AND PUSH1 0xE0 SHL DUP2 MSTORE PUSH1 0x4 ADD PUSH2 0x6D7 SWAP4 SWAP3 SWAP2 SWAP1 PUSH2 0xD80 JUMP JUMPDEST PUSH1 0x20 PUSH1 0x40 MLOAD DUP1 DUP4 SUB DUP2 PUSH1 0x0 DUP8 GAS CALL ISZERO DUP1 ISZERO PUSH2 0x6F6 JUMPI RETURNDATASIZE PUSH1 0x0 DUP1 RETURNDATACOPY RETURNDATASIZE PUSH1 0x0 REVERT JUMPDEST POP POP POP POP PUSH1 0x40 MLOAD RETURNDATASIZE PUSH1 0x1F NOT PUSH1 0x1F DUP3 ADD AND DUP3 ADD DUP1 PUSH1 0x40 MSTORE POP DUP2 ADD SWAP1 PUSH2 0x71A SWAP2 SWAP1 PUSH2 0xDEF JUMP JUMPDEST POP CALLER PUSH20 0xFFFFFFFFFFFFFFFFFFFFFFFFFFFFFFFFFFFFFFFF AND PUSH2 0x8FC DUP4 SWAP1 DUP2 ISZERO MUL SWAP1 PUSH1 0x40 MLOAD PUSH1 0x0 PUSH1 0x40 MLOAD DUP1 DUP4 SUB DUP2 DUP6 DUP9 DUP9 CALL SWAP4 POP POP POP POP ISZERO DUP1 ISZERO PUSH2 0x761 JUMPI RETURNDATASIZE PUSH1 0x0 DUP1 RETURNDATACOPY RETURNDATASIZE PUSH1 0x0 REVERT JUMPDEST POP PUSH2 0x810 DUP3 SELFBALANCE PUSH2 0x771 SWAP2 SWAP1 PUSH2 0x10B8 JUMP JUMPDEST PUSH32 0x0 PUSH20 0xFFFFFFFFFFFFFFFFFFFFFFFFFFFFFFFFFFFFFFFF AND PUSH4 0x70A08231 ADDRESS PUSH1 0x40 MLOAD DUP3 PUSH4 0xFFFFFFFF AND PUSH1 0xE0 SHL DUP2 MSTORE PUSH1 0x4 ADD PUSH2 0x7CA SWAP2 SWAP1 PUSH2 0xCEB JUMP JUMPDEST PUSH1 0x20 PUSH1 0x40 MLOAD DUP1 DUP4 SUB DUP2 DUP7 GAS STATICCALL ISZERO DUP1 ISZERO PUSH2 0x7E7 JUMPI RETURNDATASIZE PUSH1 0x0 DUP1 RETURNDATACOPY RETURNDATASIZE PUSH1 0x0 REVERT JUMPDEST POP POP POP POP PUSH1 0x40 MLOAD RETURNDATASIZE PUSH1 0x1F NOT PUSH1 0x1F DUP3 ADD AND DUP3 ADD DUP1 PUSH1 0x40 MSTORE POP DUP2 ADD SWAP1 PUSH2 0x80B SWAP2 SWAP1 PUSH2 0xFEB JUMP JUMPDEST PUSH2 0xBAD JUMP JUMPDEST POP SWAP2 SWAP1 POP JUMP JUMPDEST PUSH1 0x3 PUSH1 0x20 MSTORE DUP1 PUSH1 0x0 MSTORE PUSH1 0x40 PUSH1 0x0 KECCAK256 PUSH1 0x0 SWAP2 POP SWAP1 POP SLOAD DUP2 JUMP JUMPDEST PUSH1 0x0 DUP2 CALLVALUE EQ PUSH2 0x872 JUMPI PUSH1 0x40 MLOAD PUSH32 0x8C379A000000000000000000000000000000000000000000000000000000000 DUP2 MSTORE PUSH1 0x4 ADD PUSH2 0x869 SWAP1 PUSH2 0x1138 JUMP JUMPDEST PUSH1 0x40 MLOAD DUP1 SWAP2 SUB SWAP1 REVERT JUMPDEST PUSH1 0x0 PUSH2 0x3E8 PUSH2 0x3E5 DUP5 PUSH2 0x885 SWAP2 SWAP1 PUSH2 0xE4B JUMP JUMPDEST PUSH2 0x88F SWAP2 SWAP1 PUSH2 0xF39 JUMP JUMPDEST SWAP1 POP DUP1 PUSH1 0x0 SLOAD PUSH2 0x89F SWAP2 SWAP1 PUSH2 0x1018 JUMP JUMPDEST DUP2 PUSH1 0x1 SLOAD PUSH2 0x8AD SWAP2 SWAP1 PUSH2 0xE4B JUMP JUMPDEST PUSH2 0x8B7 SWAP2 SWAP1 PUSH2 0xF39 JUMP JUMPDEST SWAP2 POP PUSH32 0x0 PUSH20 0xFFFFFFFFFFFFFFFFFFFFFFFFFFFFFFFFFFFFFFFF AND PUSH4 0xA9059CBB CALLER DUP5 PUSH1 0x40 MLOAD DUP4 PUSH4 0xFFFFFFFF AND PUSH1 0xE0 SHL DUP2 MSTORE PUSH1 0x4 ADD PUSH2 0x914 SWAP3 SWAP2 SWAP1 PUSH2 0x1158 JUMP JUMPDEST PUSH1 0x20 PUSH1 0x40 MLOAD DUP1 DUP4 SUB DUP2 PUSH1 0x0 DUP8 GAS CALL ISZERO DUP1 ISZERO PUSH2 0x933 JUMPI RETURNDATASIZE PUSH1 0x0 DUP1 RETURNDATACOPY RETURNDATASIZE PUSH1 0x0 REVERT JUMPDEST POP POP POP POP PUSH1 0x40 MLOAD RETURNDATASIZE PUSH1 0x1F NOT PUSH1 0x1F DUP3 ADD AND DUP3 ADD DUP1 PUSH1 0x40 MSTORE POP DUP2 ADD SWAP1 PUSH2 0x957 SWAP2 SWAP1 PUSH2 0xDEF JUMP JUMPDEST POP PUSH2 0x9FB SELFBALANCE PUSH32 0x0 PUSH20 0xFFFFFFFFFFFFFFFFFFFFFFFFFFFFFFFFFFFFFFFF AND PUSH4 0x70A08231 ADDRESS PUSH1 0x40 MLOAD DUP3 PUSH4 0xFFFFFFFF AND PUSH1 0xE0 SHL DUP2 MSTORE PUSH1 0x4 ADD PUSH2 0x9B5 SWAP2 SWAP1 PUSH2 0xCEB JUMP JUMPDEST PUSH1 0x20 PUSH1 0x40 MLOAD DUP1 DUP4 SUB DUP2 DUP7 GAS STATICCALL ISZERO DUP1 ISZERO PUSH2 0x9D2 JUMPI RETURNDATASIZE PUSH1 0x0 DUP1 RETURNDATACOPY RETURNDATASIZE PUSH1 0x0 REVERT JUMPDEST POP POP POP POP PUSH1 0x40 MLOAD RETURNDATASIZE PUSH1 0x1F NOT PUSH1 0x1F DUP3 ADD AND DUP3 ADD DUP1 PUSH1 0x40 MSTORE POP DUP2 ADD SWAP1 PUSH2 0x9F6 SWAP2 SWAP1 PUSH2 0xFEB JUMP JUMPDEST PUSH2 0xBAD JUMP JUMPDEST POP SWAP2 SWAP1 POP JUMP JUMPDEST PUSH1 0x0 DUP1 PUSH1 0x1 SLOAD PUSH1 0x0 SLOAD PUSH2 0xA14 SWAP2 SWAP1 PUSH2 0x1018 JUMP JUMPDEST GT PUSH2 0xA54 JUMPI PUSH1 0x40 MLOAD PUSH32 0x8C379A000000000000000000000000000000000000000000000000000000000 DUP2 MSTORE PUSH1 0x4 ADD PUSH2 0xA4B SWAP1 PUSH2 0x11CD JUMP JUMPDEST PUSH1 0x40 MLOAD DUP1 SWAP2 SUB SWAP1 REVERT JUMPDEST PUSH1 0x0 SLOAD PUSH8 0xDE0B6B3A7640000 PUSH1 0x1 SLOAD PUSH2 0xA6D SWAP2 SWAP1 PUSH2 0xE4B JUMP JUMPDEST PUSH2 0xA77 SWAP2 SWAP1 PUSH2 0xF39 JUMP JUMPDEST SWAP1 POP SWAP1 JUMP JUMPDEST PUSH1 0x0 DUP2 JUMP JUMPDEST PUSH32 0x0 DUP2 JUMP JUMPDEST PUSH1 0x0 DUP1 PUSH1 0x1 SLOAD PUSH1 0x0 SLOAD PUSH2 0xAB8 SWAP2 SWAP1 PUSH2 0x1018 JUMP JUMPDEST GT PUSH2 0xAF8 JUMPI PUSH1 0x40 MLOAD PUSH32 0x8C379A000000000000000000000000000000000000000000000000000000000 DUP2 MSTORE PUSH1 0x4 ADD PUSH2 0xAEF SWAP1 PUSH2 0x11CD JUMP JUMPDEST PUSH1 0x40 MLOAD DUP1 SWAP2 SUB SWAP1 REVERT JUMPDEST PUSH1 0x1 SLOAD PUSH8 0xDE0B6B3A7640000 PUSH1 0x0 SLOAD PUSH2 0xB11 SWAP2 SWAP1 PUSH2 0xE4B JUMP JUMPDEST PUSH2 0xB1B SWAP2 SWAP1 PUSH2 0xF39 JUMP JUMPDEST SWAP1 POP SWAP1 JUMP JUMPDEST PUSH1 0x0 DUP2 DUP4 GT ISZERO PUSH2 0xB30 JUMPI DUP2 PUSH2 0xB32 JUMP JUMPDEST DUP3 JUMPDEST SWAP1 POP SWAP3 SWAP2 POP POP JUMP JUMPDEST DUP1 PUSH1 0x3 PUSH1 0x0 DUP5 PUSH20 0xFFFFFFFFFFFFFFFFFFFFFFFFFFFFFFFFFFFFFFFF AND PUSH20 0xFFFFFFFFFFFFFFFFFFFFFFFFFFFFFFFFFFFFFFFF AND DUP2 MSTORE PUSH1 0x20 ADD SWAP1 DUP2 MSTORE PUSH1 0x20 ADD PUSH1 0x0 KECCAK256 PUSH1 0x0 DUP3 DUP3 SLOAD PUSH2 0xB89 SWAP2 SWAP1 PUSH2 0x1018 JUMP JUMPDEST SWAP3 POP POP DUP2 SWAP1 SSTORE POP DUP1 PUSH1 0x2 PUSH1 0x0 DUP3 DUP3 SLOAD PUSH2 0xBA2 SWAP2 SWAP1 PUSH2 0x1018 JUMP JUMPDEST SWAP3 POP POP DUP2 SWAP1 SSTORE POP POP POP JUMP JUMPDEST DUP2 PUSH1 0x0 DUP2 SWAP1 SSTORE POP DUP1 PUSH1 0x1 DUP2 SWAP1 SSTORE POP POP POP JUMP JUMPDEST PUSH1 0x0 DUP2 SWAP1 POP SWAP2 SWAP1 POP JUMP JUMPDEST PUSH2 0xBD2 DUP2 PUSH2 0xBBF JUMP JUMPDEST DUP3 MSTORE POP POP JUMP JUMPDEST PUSH1 0x0 PUSH1 0x20 DUP3 ADD SWAP1 POP PUSH2 0xBED PUSH1 0x0 DUP4 ADD DUP5 PUSH2 0xBC9 JUMP JUMPDEST SWAP3 SWAP2 POP POP JUMP JUMPDEST PUSH1 0x0 DUP1 REVERT JUMPDEST PUSH2 0xC01 DUP2 PUSH2 0xBBF JUMP JUMPDEST DUP2 EQ PUSH2 0xC0C JUMPI PUSH1 0x0 DUP1 REVERT JUMPDEST POP JUMP JUMPDEST PUSH1 0x0 DUP2 CALLDATALOAD SWAP1 POP PUSH2 0xC1E DUP2 PUSH2 0xBF8 JUMP JUMPDEST SWAP3 SWAP2 POP POP JUMP JUMPDEST PUSH1 0x0 PUSH1 0x20 DUP3 DUP5 SUB SLT ISZERO PUSH2 0xC3A JUMPI PUSH2 0xC39 PUSH2 0xBF3 JUMP JUMPDEST JUMPDEST PUSH1 0x0 PUSH2 0xC48 DUP5 DUP3 DUP6 ADD PUSH2 0xC0F JUMP JUMPDEST SWAP2 POP POP SWAP3 SWAP2 POP POP JUMP JUMPDEST PUSH1 0x0 PUSH20 0xFFFFFFFFFFFFFFFFFFFFFFFFFFFFFFFFFFFFFFFF DUP3 AND SWAP1 POP SWAP2 SWAP1 POP JUMP JUMPDEST PUSH1 0x0 PUSH2 0xC7C DUP3 PUSH2 0xC51 JUMP JUMPDEST SWAP1 POP SWAP2 SWAP1 POP JUMP JUMPDEST PUSH2 0xC8C DUP2 PUSH2 0xC71 JUMP JUMPDEST DUP2 EQ PUSH2 0xC97 JUMPI PUSH1 0x0 DUP1 REVERT JUMPDEST POP JUMP JUMPDEST PUSH1 0x0 DUP2 CALLDATALOAD SWAP1 POP PUSH2 0xCA9 DUP2 PUSH2 0xC83 JUMP JUMPDEST SWAP3 SWAP2 POP POP JUMP JUMPDEST PUSH1 0x0 PUSH1 0x20 DUP3 DUP5 SUB SLT ISZERO PUSH2 0xCC5 JUMPI PUSH2 0xCC4 PUSH2 0xBF3 JUMP JUMPDEST JUMPDEST PUSH1 0x0 PUSH2 0xCD3 DUP5 DUP3 DUP6 ADD PUSH2 0xC9A JUMP JUMPDEST SWAP2 POP POP SWAP3 SWAP2 POP POP JUMP JUMPDEST PUSH2 0xCE5 DUP2 PUSH2 0xC71 JUMP JUMPDEST DUP3 MSTORE POP POP JUMP JUMPDEST PUSH1 0x0 PUSH1 0x20 DUP3 ADD SWAP1 POP PUSH2 0xD00 PUSH1 0x0 DUP4 ADD DUP5 PUSH2 0xCDC JUMP JUMPDEST SWAP3 SWAP2 POP POP JUMP JUMPDEST PUSH1 0x0 DUP2 SWAP1 POP SWAP2 SWAP1 POP JUMP JUMPDEST PUSH1 0x0 PUSH2 0xD2B PUSH2 0xD26 PUSH2 0xD21 DUP5 PUSH2 0xC51 JUMP JUMPDEST PUSH2 0xD06 JUMP JUMPDEST PUSH2 0xC51 JUMP JUMPDEST SWAP1 POP SWAP2 SWAP1 POP JUMP JUMPDEST PUSH1 0x0 PUSH2 0xD3D DUP3 PUSH2 0xD10 JUMP JUMPDEST SWAP1 POP SWAP2 SWAP1 POP JUMP JUMPDEST PUSH1 0x0 PUSH2 0xD4F DUP3 PUSH2 0xD32 JUMP JUMPDEST SWAP1 POP SWAP2 SWAP1 POP JUMP JUMPDEST PUSH2 0xD5F DUP2 PUSH2 0xD44 JUMP JUMPDEST DUP3 MSTORE POP POP JUMP JUMPDEST PUSH1 0x0 PUSH1 0x20 DUP3 ADD SWAP1 POP PUSH2 0xD7A PUSH1 0x0 DUP4 ADD DUP5 PUSH2 0xD56 JUMP JUMPDEST SWAP3 SWAP2 POP POP JUMP JUMPDEST PUSH1 0x0 PUSH1 0x60 DUP3 ADD SWAP1 POP PUSH2 0xD95 PUSH1 0x0 DUP4 ADD DUP7 PUSH2 0xCDC JUMP JUMPDEST PUSH2 0xDA2 PUSH1 0x20 DUP4 ADD DUP6 PUSH2 0xCDC JUMP JUMPDEST PUSH2 0xDAF PUSH1 0x40 DUP4 ADD DUP5 PUSH2 0xBC9 JUMP JUMPDEST SWAP5 SWAP4 POP POP POP POP JUMP JUMPDEST PUSH1 0x0 DUP2 ISZERO ISZERO SWAP1 POP SWAP2 SWAP1 POP JUMP JUMPDEST PUSH2 0xDCC DUP2 PUSH2 0xDB7 JUMP JUMPDEST DUP2 EQ PUSH2 0xDD7 JUMPI PUSH1 0x0 DUP1 REVERT JUMPDEST POP JUMP JUMPDEST PUSH1 0x0 DUP2 MLOAD SWAP1 POP PUSH2 0xDE9 DUP2 PUSH2 0xDC3 JUMP JUMPDEST SWAP3 SWAP2 POP POP JUMP JUMPDEST PUSH1 0x0 PUSH1 0x20 DUP3 DUP5 SUB SLT ISZERO PUSH2 0xE05 JUMPI PUSH2 0xE04 PUSH2 0xBF3 JUMP JUMPDEST JUMPDEST PUSH1 0x0 PUSH2 0xE13 DUP5 DUP3 DUP6 ADD PUSH2 0xDDA JUMP JUMPDEST SWAP2 POP POP SWAP3 SWAP2 POP POP JUMP JUMPDEST PUSH32 0x4E487B7100000000000000000000000000000000000000000000000000000000 PUSH1 0x0 MSTORE PUSH1 0x11 PUSH1 0x4 MSTORE PUSH1 0x24 PUSH1 0x0 REVERT JUMPDEST PUSH1 0x0 PUSH2 0xE56 DUP3 PUSH2 0xBBF JUMP JUMPDEST SWAP2 POP PUSH2 0xE61 DUP4 PUSH2 0xBBF JUMP JUMPDEST SWAP3 POP DUP3 DUP3 MUL PUSH2 0xE6F DUP2 PUSH2 0xBBF JUMP JUMPDEST SWAP2 POP DUP3 DUP3 DIV DUP5 EQ DUP4 ISZERO OR PUSH2 0xE86 JUMPI PUSH2 0xE85 PUSH2 0xE1C JUMP JUMPDEST JUMPDEST POP SWAP3 SWAP2 POP POP JUMP JUMPDEST PUSH1 0x0 DUP3 DUP3 MSTORE PUSH1 0x20 DUP3 ADD SWAP1 POP SWAP3 SWAP2 POP POP JUMP JUMPDEST PUSH32 0x78202F207920213D206478202F20647900000000000000000000000000000000 PUSH1 0x0 DUP3 ADD MSTORE POP JUMP JUMPDEST PUSH1 0x0 PUSH2 0xED4 PUSH1 0x10 DUP4 PUSH2 0xE8D JUMP JUMPDEST SWAP2 POP PUSH2 0xEDF DUP3 PUSH2 0xE9E JUMP JUMPDEST PUSH1 0x20 DUP3 ADD SWAP1 POP SWAP2 SWAP1 POP JUMP JUMPDEST PUSH1 0x0 PUSH1 0x20 DUP3 ADD SWAP1 POP DUP2 DUP2 SUB PUSH1 0x0 DUP4 ADD MSTORE PUSH2 0xF03 DUP2 PUSH2 0xEC7 JUMP JUMPDEST SWAP1 POP SWAP2 SWAP1 POP JUMP JUMPDEST PUSH32 0x4E487B7100000000000000000000000000000000000000000000000000000000 PUSH1 0x0 MSTORE PUSH1 0x12 PUSH1 0x4 MSTORE PUSH1 0x24 PUSH1 0x0 REVERT JUMPDEST PUSH1 0x0 PUSH2 0xF44 DUP3 PUSH2 0xBBF JUMP JUMPDEST SWAP2 POP PUSH2 0xF4F DUP4 PUSH2 0xBBF JUMP JUMPDEST SWAP3 POP DUP3 PUSH2 0xF5F JUMPI PUSH2 0xF5E PUSH2 0xF0A JUMP JUMPDEST JUMPDEST DUP3 DUP3 DIV SWAP1 POP SWAP3 SWAP2 POP POP JUMP JUMPDEST PUSH32 0x736861726573203D203000000000000000000000000000000000000000000000 PUSH1 0x0 DUP3 ADD MSTORE POP JUMP JUMPDEST PUSH1 0x0 PUSH2 0xFA0 PUSH1 0xA DUP4 PUSH2 0xE8D JUMP JUMPDEST SWAP2 POP PUSH2 0xFAB DUP3 PUSH2 0xF6A JUMP JUMPDEST PUSH1 0x20 DUP3 ADD SWAP1 POP SWAP2 SWAP1 POP JUMP JUMPDEST PUSH1 0x0 PUSH1 0x20 DUP3 ADD SWAP1 POP DUP2 DUP2 SUB PUSH1 0x0 DUP4 ADD MSTORE PUSH2 0xFCF DUP2 PUSH2 0xF93 JUMP JUMPDEST SWAP1 POP SWAP2 SWAP1 POP JUMP JUMPDEST PUSH1 0x0 DUP2 MLOAD SWAP1 POP PUSH2 0xFE5 DUP2 PUSH2 0xBF8 JUMP JUMPDEST SWAP3 SWAP2 POP POP JUMP JUMPDEST PUSH1 0x0 PUSH1 0x20 DUP3 DUP5 SUB SLT ISZERO PUSH2 0x1001 JUMPI PUSH2 0x1000 PUSH2 0xBF3 JUMP JUMPDEST JUMPDEST PUSH1 0x0 PUSH2 0x100F DUP5 DUP3 DUP6 ADD PUSH2 0xFD6 JUMP JUMPDEST SWAP2 POP POP SWAP3 SWAP2 POP POP JUMP JUMPDEST PUSH1 0x0 PUSH2 0x1023 DUP3 PUSH2 0xBBF JUMP JUMPDEST SWAP2 POP PUSH2 0x102E DUP4 PUSH2 0xBBF JUMP JUMPDEST SWAP3 POP DUP3 DUP3 ADD SWAP1 POP DUP1 DUP3 GT ISZERO PUSH2 0x1046 JUMPI PUSH2 0x1045 PUSH2 0xE1C JUMP JUMPDEST JUMPDEST SWAP3 SWAP2 POP POP JUMP JUMPDEST PUSH32 0x496E73756666696369656E74206F757470757420616D6F756E74000000000000 PUSH1 0x0 DUP3 ADD MSTORE POP JUMP JUMPDEST PUSH1 0x0 PUSH2 0x1082 PUSH1 0x1A DUP4 PUSH2 0xE8D JUMP JUMPDEST SWAP2 POP PUSH2 0x108D DUP3 PUSH2 0x104C JUMP JUMPDEST PUSH1 0x20 DUP3 ADD SWAP1 POP SWAP2 SWAP1 POP JUMP JUMPDEST PUSH1 0x0 PUSH1 0x20 DUP3 ADD SWAP1 POP DUP2 DUP2 SUB PUSH1 0x0 DUP4 ADD MSTORE PUSH2 0x10B1 DUP2 PUSH2 0x1075 JUMP JUMPDEST SWAP1 POP SWAP2 SWAP1 POP JUMP JUMPDEST PUSH1 0x0 PUSH2 0x10C3 DUP3 PUSH2 0xBBF JUMP JUMPDEST SWAP2 POP PUSH2 0x10CE DUP4 PUSH2 0xBBF JUMP JUMPDEST SWAP3 POP DUP3 DUP3 SUB SWAP1 POP DUP2 DUP2 GT ISZERO PUSH2 0x10E6 JUMPI PUSH2 0x10E5 PUSH2 0xE1C JUMP JUMPDEST JUMPDEST SWAP3 SWAP2 POP POP JUMP JUMPDEST PUSH32 0x45544820616D6F756E74206D69736D6174636800000000000000000000000000 PUSH1 0x0 DUP3 ADD MSTORE POP JUMP JUMPDEST PUSH1 0x0 PUSH2 0x1122 PUSH1 0x13 DUP4 PUSH2 0xE8D JUMP JUMPDEST SWAP2 POP PUSH2 0x112D DUP3 PUSH2 0x10EC JUMP JUMPDEST PUSH1 0x20 DUP3 ADD SWAP1 POP SWAP2 SWAP1 POP JUMP JUMPDEST PUSH1 0x0 PUSH1 0x20 DUP3 ADD SWAP1 POP DUP2 DUP2 SUB PUSH1 0x0 DUP4 ADD MSTORE PUSH2 0x1151 DUP2 PUSH2 0x1115 JUMP JUMPDEST SWAP1 POP SWAP2 SWAP1 POP JUMP JUMPDEST PUSH1 0x0 PUSH1 0x40 DUP3 ADD SWAP1 POP PUSH2 0x116D PUSH1 0x0 DUP4 ADD DUP6 PUSH2 0xCDC JUMP JUMPDEST PUSH2 0x117A PUSH1 0x20 DUP4 ADD DUP5 PUSH2 0xBC9 JUMP JUMPDEST SWAP4 SWAP3 POP POP POP JUMP JUMPDEST PUSH32 0x496E76616C696420726573657276657300000000000000000000000000000000 PUSH1 0x0 DUP3 ADD MSTORE POP JUMP JUMPDEST PUSH1 0x0 PUSH2 0x11B7 PUSH1 0x10 DUP4 PUSH2 0xE8D JUMP JUMPDEST SWAP2 POP PUSH2 0x11C2 DUP3 PUSH2 0x1181 JUMP JUMPDEST PUSH1 0x20 DUP3 ADD SWAP1 POP SWAP2 SWAP1 POP JUMP JUMPDEST PUSH1 0x0 PUSH1 0x20 DUP3 ADD SWAP1 POP DUP2 DUP2 SUB PUSH1 0x0 DUP4 ADD MSTORE PUSH2 0x11E6 DUP2 PUSH2 0x11AA JUMP JUMPDEST SWAP1 POP SWAP2 SWAP1 POP JUMP INVALID LOG2 PUSH5 0x6970667358 0x22 SLT KECCAK256 0xD9 CALLVALUE 0x2F 0x49 0x26 SDIV 0xEB 0xB1 0x4B 0xD4 0xC7 SWAP1 0xA6 LT BLOCKHASH SLT EXTCODESIZE SWAP13 0x28 0xED 0xAA 0xC4 SGT RETURN DUP8 0xDB PUSH22 0xCBA0AE5FB464736F6C63430008120033000000000000 "
				},
				"gasEstimates": {
					"creation": {
						"codeDepositCost": "928600",
						"executionCost": "infinite",
						"totalCost": "infinite"
					},
					"external": {
						"ETH_ADDRESS()": "444",
						"_sqrt(uint256)": "infinite",
						"addLiquidity(uint256)": "infinite",
						"balanceOf(address)": "2814",
						"getERCPrice()": "infinite",
						"getETHPrice()": "infinite",
						"reserve0()": "2452",
						"reserve1()": "2496",
						"swap(uint256)": "infinite",
						"swapTokenForETH(uint256)": "infinite",
						"token()": "infinite",
						"totalSupply()": "2430"
					},
					"internal": {
						"_burn(address,uint256)": "infinite",
						"_min(uint256,uint256)": "67",
						"_mint(address,uint256)": "infinite",
						"_update(uint256,uint256)": "44241",
						"removeLiquidity(uint256)": "infinite"
					}
				},
				"methodIdentifiers": {
					"ETH_ADDRESS()": "a734f06e",
					"_sqrt(uint256)": "6a263f02",
					"addLiquidity(uint256)": "51c6590a",
					"balanceOf(address)": "70a08231",
					"getERCPrice()": "fcc2ba08",
					"getETHPrice()": "a607a8d9",
					"reserve0()": "443cb4bc",
					"reserve1()": "5a76f25e",
					"swap(uint256)": "94b918de",
					"swapTokenForETH(uint256)": "6fb84b74",
					"token()": "fc0c546a",
					"totalSupply()": "18160ddd"
				}
			},
			"storageLayout": {
				"storage": [
					{
						"astId": 797,
						"contract": "W6/bigint/src/simpleamm.sol:AMM",
						"label": "reserve0",
						"offset": 0,
						"slot": "0",
						"type": "t_uint256"
					},
					{
						"astId": 799,
						"contract": "W6/bigint/src/simpleamm.sol:AMM",
						"label": "reserve1",
						"offset": 0,
						"slot": "1",
						"type": "t_uint256"
					},
					{
						"astId": 801,
						"contract": "W6/bigint/src/simpleamm.sol:AMM",
						"label": "totalSupply",
						"offset": 0,
						"slot": "2",
						"type": "t_uint256"
					},
					{
						"astId": 805,
						"contract": "W6/bigint/src/simpleamm.sol:AMM",
						"label": "balanceOf",
						"offset": 0,
						"slot": "3",
						"type": "t_mapping(t_address,t_uint256)"
					}
				],
				"types": {
					"t_address": {
						"encoding": "inplace",
						"label": "address",
						"numberOfBytes": "20"
					},
					"t_mapping(t_address,t_uint256)": {
						"encoding": "mapping",
						"key": "t_address",
						"label": "mapping(address => uint256)",
						"numberOfBytes": "32",
						"value": "t_uint256"
					},
					"t_uint256": {
						"encoding": "inplace",
						"label": "uint256",
						"numberOfBytes": "32"
					}
				}
			},
			"userdoc": {
				"kind": "user",
				"methods": {},
				"version": 1
			}
		}
	}
}