{
	"exam/qOr.sol": {
		"Pool": {
			"abi": [
				{
					"inputs": [],
					"stateMutability": "nonpayable",
					"type": "constructor"
				},
				{
					"inputs": [],
					"name": "getLatestEthPrice",
					"outputs": [
						{
							"internalType": "uint256",
							"name": "",
							"type": "uint256"
						}
					],
					"stateMutability": "view",
					"type": "function"
				},
				{
					"inputs": [],
					"name": "price",
					"outputs": [
						{
							"internalType": "uint256",
							"name": "",
							"type": "uint256"
						}
					],
					"stateMutability": "view",
					"type": "function"
				}
			],
			"devdoc": {
				"kind": "dev",
				"methods": {},
				"version": 1
			},
			"evm": {
				"assembly": "    /* \"exam/qOr.sol\":151:552  contract Pool {... */\n  mstore(0x40, 0x80)\n    /* \"exam/qOr.sol\":240:282  0xD4a33860578De61DBAbDc8BFdb98FD742fA7028e */\n  0xd4a33860578de61dbabdc8bfdb98fd742fa7028e\n    /* \"exam/qOr.sol\":172:283  AggregatorV3Interface internal ethPriceFeed = AggregatorV3Interface(0xD4a33860578De61DBAbDc8BFdb98FD742fA7028e) */\n  0x00\n  dup1\n  0x0100\n  exp\n  dup2\n  sload\n  dup2\n  0xffffffffffffffffffffffffffffffffffffffff\n  mul\n  not\n  and\n  swap1\n  dup4\n  0xffffffffffffffffffffffffffffffffffffffff\n  and\n  mul\n  or\n  swap1\n  sstore\n  pop\n    /* \"exam/qOr.sol\":317:377  constructor() {... */\n  callvalue\n  dup1\n  iszero\n  tag_1\n  jumpi\n  0x00\n  dup1\n  revert\ntag_1:\n  pop\n    /* \"exam/qOr.sol\":350:369  getLatestEthPrice() */\n  tag_4\n    /* \"exam/qOr.sol\":350:367  getLatestEthPrice */\n  shl(0x20, tag_5)\n    /* \"exam/qOr.sol\":350:369  getLatestEthPrice() */\n  0x20\n  shr\n  jump\t// in\ntag_4:\n    /* \"exam/qOr.sol\":342:347  price */\n  0x01\n    /* \"exam/qOr.sol\":342:369  price = getLatestEthPrice() */\n  dup2\n  swap1\n  sstore\n  pop\n    /* \"exam/qOr.sol\":151:552  contract Pool {... */\n  jump(tag_6)\n    /* \"exam/qOr.sol\":383:547  function getLatestEthPrice() public view returns (uint256) {... */\ntag_5:\n    /* \"exam/qOr.sol\":433:440  uint256 */\n  0x00\n    /* \"exam/qOr.sol\":456:469  int256 answer */\n  dup1\n    /* \"exam/qOr.sol\":476:488  ethPriceFeed */\n  0x00\n  dup1\n  sload\n  swap1\n  0x0100\n  exp\n  swap1\n  div\n  0xffffffffffffffffffffffffffffffffffffffff\n  and\n    /* \"exam/qOr.sol\":476:504  ethPriceFeed.latestRoundData */\n  0xffffffffffffffffffffffffffffffffffffffff\n  and\n  0xfeaf968c\n    /* \"exam/qOr.sol\":476:506  ethPriceFeed.latestRoundData() */\n  mload(0x40)\n  dup2\n  0xffffffff\n  and\n  0xe0\n  shl\n  dup2\n  mstore\n  0x04\n  add\n  0xa0\n  mload(0x40)\n  dup1\n  dup4\n  sub\n  dup2\n  dup7\n  gas\n  staticcall\n  iszero\n  dup1\n  iszero\n  tag_9\n  jumpi\n  returndatasize\n  0x00\n  dup1\n  returndatacopy\n  revert(0x00, returndatasize)\ntag_9:\n  pop\n  pop\n  pop\n  pop\n  mload(0x40)\n  returndatasize\n  not(0x1f)\n  0x1f\n  dup3\n  add\n  and\n  dup3\n  add\n  dup1\n  0x40\n  mstore\n  pop\n  dup2\n  add\n  swap1\n  tag_10\n  swap2\n  swap1\n  tag_11\n  jump\t// in\ntag_10:\n    /* \"exam/qOr.sol\":453:506  (, int256 answer,,,) = ethPriceFeed.latestRoundData() */\n  pop\n  pop\n  pop\n  swap2\n  pop\n  pop\n    /* \"exam/qOr.sol\":532:538  answer */\n  dup1\n    /* \"exam/qOr.sol\":517:539  return uint256(answer) */\n  swap2\n  pop\n  pop\n    /* \"exam/qOr.sol\":383:547  function getLatestEthPrice() public view returns (uint256) {... */\n  swap1\n  jump\t// out\n    /* \"#utility.yul\":88:205   */\ntag_13:\n    /* \"#utility.yul\":197:198   */\n  0x00\n    /* \"#utility.yul\":194:195   */\n  dup1\n    /* \"#utility.yul\":187:199   */\n  revert\n    /* \"#utility.yul\":334:439   */\ntag_15:\n    /* \"#utility.yul\":370:377   */\n  0x00\n    /* \"#utility.yul\":410:432   */\n  0xffffffffffffffffffff\n    /* \"#utility.yul\":403:408   */\n  dup3\n    /* \"#utility.yul\":399:433   */\n  and\n    /* \"#utility.yul\":388:433   */\n  swap1\n  pop\n    /* \"#utility.yul\":334:439   */\n  swap2\n  swap1\n  pop\n  jump\t// out\n    /* \"#utility.yul\":445:565   */\ntag_16:\n    /* \"#utility.yul\":517:540   */\n  tag_30\n    /* \"#utility.yul\":534:539   */\n  dup2\n    /* \"#utility.yul\":517:540   */\n  tag_15\n  jump\t// in\ntag_30:\n    /* \"#utility.yul\":510:515   */\n  dup2\n    /* \"#utility.yul\":507:541   */\n  eq\n    /* \"#utility.yul\":497:559   */\n  tag_31\n  jumpi\n    /* \"#utility.yul\":555:556   */\n  0x00\n    /* \"#utility.yul\":552:553   */\n  dup1\n    /* \"#utility.yul\":545:557   */\n  revert\n    /* \"#utility.yul\":497:559   */\ntag_31:\n    /* \"#utility.yul\":445:565   */\n  pop\n  jump\t// out\n    /* \"#utility.yul\":571:712   */\ntag_17:\n    /* \"#utility.yul\":627:632   */\n  0x00\n    /* \"#utility.yul\":658:664   */\n  dup2\n    /* \"#utility.yul\":652:665   */\n  mload\n    /* \"#utility.yul\":643:665   */\n  swap1\n  pop\n    /* \"#utility.yul\":674:706   */\n  tag_33\n    /* \"#utility.yul\":700:705   */\n  dup2\n    /* \"#utility.yul\":674:706   */\n  tag_16\n  jump\t// in\ntag_33:\n    /* \"#utility.yul\":571:712   */\n  swap3\n  swap2\n  pop\n  pop\n  jump\t// out\n    /* \"#utility.yul\":718:794   */\ntag_18:\n    /* \"#utility.yul\":754:761   */\n  0x00\n    /* \"#utility.yul\":783:788   */\n  dup2\n    /* \"#utility.yul\":772:788   */\n  swap1\n  pop\n    /* \"#utility.yul\":718:794   */\n  swap2\n  swap1\n  pop\n  jump\t// out\n    /* \"#utility.yul\":800:920   */\ntag_19:\n    /* \"#utility.yul\":872:895   */\n  tag_36\n    /* \"#utility.yul\":889:894   */\n  dup2\n    /* \"#utility.yul\":872:895   */\n  tag_18\n  jump\t// in\ntag_36:\n    /* \"#utility.yul\":865:870   */\n  dup2\n    /* \"#utility.yul\":862:896   */\n  eq\n    /* \"#utility.yul\":852:914   */\n  tag_37\n  jumpi\n    /* \"#utility.yul\":910:911   */\n  0x00\n    /* \"#utility.yul\":907:908   */\n  dup1\n    /* \"#utility.yul\":900:912   */\n  revert\n    /* \"#utility.yul\":852:914   */\ntag_37:\n    /* \"#utility.yul\":800:920   */\n  pop\n  jump\t// out\n    /* \"#utility.yul\":926:1067   */\ntag_20:\n    /* \"#utility.yul\":982:987   */\n  0x00\n    /* \"#utility.yul\":1013:1019   */\n  dup2\n    /* \"#utility.yul\":1007:1020   */\n  mload\n    /* \"#utility.yul\":998:1020   */\n  swap1\n  pop\n    /* \"#utility.yul\":1029:1061   */\n  tag_39\n    /* \"#utility.yul\":1055:1060   */\n  dup2\n    /* \"#utility.yul\":1029:1061   */\n  tag_19\n  jump\t// in\ntag_39:\n    /* \"#utility.yul\":926:1067   */\n  swap3\n  swap2\n  pop\n  pop\n  jump\t// out\n    /* \"#utility.yul\":1073:1150   */\ntag_21:\n    /* \"#utility.yul\":1110:1117   */\n  0x00\n    /* \"#utility.yul\":1139:1144   */\n  dup2\n    /* \"#utility.yul\":1128:1144   */\n  swap1\n  pop\n    /* \"#utility.yul\":1073:1150   */\n  swap2\n  swap1\n  pop\n  jump\t// out\n    /* \"#utility.yul\":1156:1278   */\ntag_22:\n    /* \"#utility.yul\":1229:1253   */\n  tag_42\n    /* \"#utility.yul\":1247:1252   */\n  dup2\n    /* \"#utility.yul\":1229:1253   */\n  tag_21\n  jump\t// in\ntag_42:\n    /* \"#utility.yul\":1222:1227   */\n  dup2\n    /* \"#utility.yul\":1219:1254   */\n  eq\n    /* \"#utility.yul\":1209:1272   */\n  tag_43\n  jumpi\n    /* \"#utility.yul\":1268:1269   */\n  0x00\n    /* \"#utility.yul\":1265:1266   */\n  dup1\n    /* \"#utility.yul\":1258:1270   */\n  revert\n    /* \"#utility.yul\":1209:1272   */\ntag_43:\n    /* \"#utility.yul\":1156:1278   */\n  pop\n  jump\t// out\n    /* \"#utility.yul\":1284:1427   */\ntag_23:\n    /* \"#utility.yul\":1341:1346   */\n  0x00\n    /* \"#utility.yul\":1372:1378   */\n  dup2\n    /* \"#utility.yul\":1366:1379   */\n  mload\n    /* \"#utility.yul\":1357:1379   */\n  swap1\n  pop\n    /* \"#utility.yul\":1388:1421   */\n  tag_45\n    /* \"#utility.yul\":1415:1420   */\n  dup2\n    /* \"#utility.yul\":1388:1421   */\n  tag_22\n  jump\t// in\ntag_45:\n    /* \"#utility.yul\":1284:1427   */\n  swap3\n  swap2\n  pop\n  pop\n  jump\t// out\n    /* \"#utility.yul\":1433:2404   */\ntag_11:\n    /* \"#utility.yul\":1536:1542   */\n  0x00\n    /* \"#utility.yul\":1544:1550   */\n  dup1\n    /* \"#utility.yul\":1552:1558   */\n  0x00\n    /* \"#utility.yul\":1560:1566   */\n  dup1\n    /* \"#utility.yul\":1568:1574   */\n  0x00\n    /* \"#utility.yul\":1617:1620   */\n  0xa0\n    /* \"#utility.yul\":1605:1614   */\n  dup7\n    /* \"#utility.yul\":1596:1603   */\n  dup9\n    /* \"#utility.yul\":1592:1615   */\n  sub\n    /* \"#utility.yul\":1588:1621   */\n  slt\n    /* \"#utility.yul\":1585:1705   */\n  iszero\n  tag_47\n  jumpi\n    /* \"#utility.yul\":1624:1703   */\n  tag_48\n  tag_13\n  jump\t// in\ntag_48:\n    /* \"#utility.yul\":1585:1705   */\ntag_47:\n    /* \"#utility.yul\":1744:1745   */\n  0x00\n    /* \"#utility.yul\":1769:1832   */\n  tag_49\n    /* \"#utility.yul\":1824:1831   */\n  dup9\n    /* \"#utility.yul\":1815:1821   */\n  dup3\n    /* \"#utility.yul\":1804:1813   */\n  dup10\n    /* \"#utility.yul\":1800:1822   */\n  add\n    /* \"#utility.yul\":1769:1832   */\n  tag_17\n  jump\t// in\ntag_49:\n    /* \"#utility.yul\":1759:1832   */\n  swap6\n  pop\n    /* \"#utility.yul\":1715:1842   */\n  pop\n    /* \"#utility.yul\":1881:1883   */\n  0x20\n    /* \"#utility.yul\":1907:1970   */\n  tag_50\n    /* \"#utility.yul\":1962:1969   */\n  dup9\n    /* \"#utility.yul\":1953:1959   */\n  dup3\n    /* \"#utility.yul\":1942:1951   */\n  dup10\n    /* \"#utility.yul\":1938:1960   */\n  add\n    /* \"#utility.yul\":1907:1970   */\n  tag_20\n  jump\t// in\ntag_50:\n    /* \"#utility.yul\":1897:1970   */\n  swap5\n  pop\n    /* \"#utility.yul\":1852:1980   */\n  pop\n    /* \"#utility.yul\":2019:2021   */\n  0x40\n    /* \"#utility.yul\":2045:2109   */\n  tag_51\n    /* \"#utility.yul\":2101:2108   */\n  dup9\n    /* \"#utility.yul\":2092:2098   */\n  dup3\n    /* \"#utility.yul\":2081:2090   */\n  dup10\n    /* \"#utility.yul\":2077:2099   */\n  add\n    /* \"#utility.yul\":2045:2109   */\n  tag_23\n  jump\t// in\ntag_51:\n    /* \"#utility.yul\":2035:2109   */\n  swap4\n  pop\n    /* \"#utility.yul\":1990:2119   */\n  pop\n    /* \"#utility.yul\":2158:2160   */\n  0x60\n    /* \"#utility.yul\":2184:2248   */\n  tag_52\n    /* \"#utility.yul\":2240:2247   */\n  dup9\n    /* \"#utility.yul\":2231:2237   */\n  dup3\n    /* \"#utility.yul\":2220:2229   */\n  dup10\n    /* \"#utility.yul\":2216:2238   */\n  add\n    /* \"#utility.yul\":2184:2248   */\n  tag_23\n  jump\t// in\ntag_52:\n    /* \"#utility.yul\":2174:2248   */\n  swap3\n  pop\n    /* \"#utility.yul\":2129:2258   */\n  pop\n    /* \"#utility.yul\":2297:2300   */\n  0x80\n    /* \"#utility.yul\":2324:2387   */\n  tag_53\n    /* \"#utility.yul\":2379:2386   */\n  dup9\n    /* \"#utility.yul\":2370:2376   */\n  dup3\n    /* \"#utility.yul\":2359:2368   */\n  dup10\n    /* \"#utility.yul\":2355:2377   */\n  add\n    /* \"#utility.yul\":2324:2387   */\n  tag_17\n  jump\t// in\ntag_53:\n    /* \"#utility.yul\":2314:2387   */\n  swap2\n  pop\n    /* \"#utility.yul\":2268:2397   */\n  pop\n    /* \"#utility.yul\":1433:2404   */\n  swap3\n  swap6\n  pop\n  swap3\n  swap6\n  swap1\n  swap4\n  pop\n  jump\t// out\n    /* \"exam/qOr.sol\":151:552  contract Pool {... */\ntag_6:\n  dataSize(sub_0)\n  dup1\n  dataOffset(sub_0)\n  0x00\n  codecopy\n  0x00\n  return\nstop\n\nsub_0: assembly {\n        /* \"exam/qOr.sol\":151:552  contract Pool {... */\n      mstore(0x40, 0x80)\n      callvalue\n      dup1\n      iszero\n      tag_1\n      jumpi\n      0x00\n      dup1\n      revert\n    tag_1:\n      pop\n      jumpi(tag_2, lt(calldatasize, 0x04))\n      shr(0xe0, calldataload(0x00))\n      dup1\n      0x30c0b9ec\n      eq\n      tag_3\n      jumpi\n      dup1\n      0xa035b1fe\n      eq\n      tag_4\n      jumpi\n    tag_2:\n      0x00\n      dup1\n      revert\n        /* \"exam/qOr.sol\":383:547  function getLatestEthPrice() public view returns (uint256) {... */\n    tag_3:\n      tag_5\n      tag_6\n      jump\t// in\n    tag_5:\n      mload(0x40)\n      tag_7\n      swap2\n      swap1\n      tag_8\n      jump\t// in\n    tag_7:\n      mload(0x40)\n      dup1\n      swap2\n      sub\n      swap1\n      return\n        /* \"exam/qOr.sol\":290:310  uint256 public price */\n    tag_4:\n      tag_9\n      tag_10\n      jump\t// in\n    tag_9:\n      mload(0x40)\n      tag_11\n      swap2\n      swap1\n      tag_8\n      jump\t// in\n    tag_11:\n      mload(0x40)\n      dup1\n      swap2\n      sub\n      swap1\n      return\n        /* \"exam/qOr.sol\":383:547  function getLatestEthPrice() public view returns (uint256) {... */\n    tag_6:\n        /* \"exam/qOr.sol\":433:440  uint256 */\n      0x00\n        /* \"exam/qOr.sol\":456:469  int256 answer */\n      dup1\n        /* \"exam/qOr.sol\":476:488  ethPriceFeed */\n      0x00\n      dup1\n      sload\n      swap1\n      0x0100\n      exp\n      swap1\n      div\n      0xffffffffffffffffffffffffffffffffffffffff\n      and\n        /* \"exam/qOr.sol\":476:504  ethPriceFeed.latestRoundData */\n      0xffffffffffffffffffffffffffffffffffffffff\n      and\n      0xfeaf968c\n        /* \"exam/qOr.sol\":476:506  ethPriceFeed.latestRoundData() */\n      mload(0x40)\n      dup2\n      0xffffffff\n      and\n      0xe0\n      shl\n      dup2\n      mstore\n      0x04\n      add\n      0xa0\n      mload(0x40)\n      dup1\n      dup4\n      sub\n      dup2\n      dup7\n      gas\n      staticcall\n      iszero\n      dup1\n      iszero\n      tag_14\n      jumpi\n      returndatasize\n      0x00\n      dup1\n      returndatacopy\n      revert(0x00, returndatasize)\n    tag_14:\n      pop\n      pop\n      pop\n      pop\n      mload(0x40)\n      returndatasize\n      not(0x1f)\n      0x1f\n      dup3\n      add\n      and\n      dup3\n      add\n      dup1\n      0x40\n      mstore\n      pop\n      dup2\n      add\n      swap1\n      tag_15\n      swap2\n      swap1\n      tag_16\n      jump\t// in\n    tag_15:\n        /* \"exam/qOr.sol\":453:506  (, int256 answer,,,) = ethPriceFeed.latestRoundData() */\n      pop\n      pop\n      pop\n      swap2\n      pop\n      pop\n        /* \"exam/qOr.sol\":532:538  answer */\n      dup1\n        /* \"exam/qOr.sol\":517:539  return uint256(answer) */\n      swap2\n      pop\n      pop\n        /* \"exam/qOr.sol\":383:547  function getLatestEthPrice() public view returns (uint256) {... */\n      swap1\n      jump\t// out\n        /* \"exam/qOr.sol\":290:310  uint256 public price */\n    tag_10:\n      sload(0x01)\n      dup2\n      jump\t// out\n        /* \"#utility.yul\":7:84   */\n    tag_17:\n        /* \"#utility.yul\":44:51   */\n      0x00\n        /* \"#utility.yul\":73:78   */\n      dup2\n        /* \"#utility.yul\":62:78   */\n      swap1\n      pop\n        /* \"#utility.yul\":7:84   */\n      swap2\n      swap1\n      pop\n      jump\t// out\n        /* \"#utility.yul\":90:208   */\n    tag_18:\n        /* \"#utility.yul\":177:201   */\n      tag_33\n        /* \"#utility.yul\":195:200   */\n      dup2\n        /* \"#utility.yul\":177:201   */\n      tag_17\n      jump\t// in\n    tag_33:\n        /* \"#utility.yul\":172:175   */\n      dup3\n        /* \"#utility.yul\":165:202   */\n      mstore\n        /* \"#utility.yul\":90:208   */\n      pop\n      pop\n      jump\t// out\n        /* \"#utility.yul\":214:436   */\n    tag_8:\n        /* \"#utility.yul\":307:311   */\n      0x00\n        /* \"#utility.yul\":345:347   */\n      0x20\n        /* \"#utility.yul\":334:343   */\n      dup3\n        /* \"#utility.yul\":330:348   */\n      add\n        /* \"#utility.yul\":322:348   */\n      swap1\n      pop\n        /* \"#utility.yul\":358:429   */\n      tag_35\n        /* \"#utility.yul\":426:427   */\n      0x00\n        /* \"#utility.yul\":415:424   */\n      dup4\n        /* \"#utility.yul\":411:428   */\n      add\n        /* \"#utility.yul\":402:408   */\n      dup5\n        /* \"#utility.yul\":358:429   */\n      tag_18\n      jump\t// in\n    tag_35:\n        /* \"#utility.yul\":214:436   */\n      swap3\n      swap2\n      pop\n      pop\n      jump\t// out\n        /* \"#utility.yul\":523:640   */\n    tag_20:\n        /* \"#utility.yul\":632:633   */\n      0x00\n        /* \"#utility.yul\":629:630   */\n      dup1\n        /* \"#utility.yul\":622:634   */\n      revert\n        /* \"#utility.yul\":769:874   */\n    tag_22:\n        /* \"#utility.yul\":805:812   */\n      0x00\n        /* \"#utility.yul\":845:867   */\n      0xffffffffffffffffffff\n        /* \"#utility.yul\":838:843   */\n      dup3\n        /* \"#utility.yul\":834:868   */\n      and\n        /* \"#utility.yul\":823:868   */\n      swap1\n      pop\n        /* \"#utility.yul\":769:874   */\n      swap2\n      swap1\n      pop\n      jump\t// out\n        /* \"#utility.yul\":880:1000   */\n    tag_23:\n        /* \"#utility.yul\":952:975   */\n      tag_41\n        /* \"#utility.yul\":969:974   */\n      dup2\n        /* \"#utility.yul\":952:975   */\n      tag_22\n      jump\t// in\n    tag_41:\n        /* \"#utility.yul\":945:950   */\n      dup2\n        /* \"#utility.yul\":942:976   */\n      eq\n        /* \"#utility.yul\":932:994   */\n      tag_42\n      jumpi\n        /* \"#utility.yul\":990:991   */\n      0x00\n        /* \"#utility.yul\":987:988   */\n      dup1\n        /* \"#utility.yul\":980:992   */\n      revert\n        /* \"#utility.yul\":932:994   */\n    tag_42:\n        /* \"#utility.yul\":880:1000   */\n      pop\n      jump\t// out\n        /* \"#utility.yul\":1006:1147   */\n    tag_24:\n        /* \"#utility.yul\":1062:1067   */\n      0x00\n        /* \"#utility.yul\":1093:1099   */\n      dup2\n        /* \"#utility.yul\":1087:1100   */\n      mload\n        /* \"#utility.yul\":1078:1100   */\n      swap1\n      pop\n        /* \"#utility.yul\":1109:1141   */\n      tag_44\n        /* \"#utility.yul\":1135:1140   */\n      dup2\n        /* \"#utility.yul\":1109:1141   */\n      tag_23\n      jump\t// in\n    tag_44:\n        /* \"#utility.yul\":1006:1147   */\n      swap3\n      swap2\n      pop\n      pop\n      jump\t// out\n        /* \"#utility.yul\":1153:1229   */\n    tag_25:\n        /* \"#utility.yul\":1189:1196   */\n      0x00\n        /* \"#utility.yul\":1218:1223   */\n      dup2\n        /* \"#utility.yul\":1207:1223   */\n      swap1\n      pop\n        /* \"#utility.yul\":1153:1229   */\n      swap2\n      swap1\n      pop\n      jump\t// out\n        /* \"#utility.yul\":1235:1355   */\n    tag_26:\n        /* \"#utility.yul\":1307:1330   */\n      tag_47\n        /* \"#utility.yul\":1324:1329   */\n      dup2\n        /* \"#utility.yul\":1307:1330   */\n      tag_25\n      jump\t// in\n    tag_47:\n        /* \"#utility.yul\":1300:1305   */\n      dup2\n        /* \"#utility.yul\":1297:1331   */\n      eq\n        /* \"#utility.yul\":1287:1349   */\n      tag_48\n      jumpi\n        /* \"#utility.yul\":1345:1346   */\n      0x00\n        /* \"#utility.yul\":1342:1343   */\n      dup1\n        /* \"#utility.yul\":1335:1347   */\n      revert\n        /* \"#utility.yul\":1287:1349   */\n    tag_48:\n        /* \"#utility.yul\":1235:1355   */\n      pop\n      jump\t// out\n        /* \"#utility.yul\":1361:1502   */\n    tag_27:\n        /* \"#utility.yul\":1417:1422   */\n      0x00\n        /* \"#utility.yul\":1448:1454   */\n      dup2\n        /* \"#utility.yul\":1442:1455   */\n      mload\n        /* \"#utility.yul\":1433:1455   */\n      swap1\n      pop\n        /* \"#utility.yul\":1464:1496   */\n      tag_50\n        /* \"#utility.yul\":1490:1495   */\n      dup2\n        /* \"#utility.yul\":1464:1496   */\n      tag_26\n      jump\t// in\n    tag_50:\n        /* \"#utility.yul\":1361:1502   */\n      swap3\n      swap2\n      pop\n      pop\n      jump\t// out\n        /* \"#utility.yul\":1508:1630   */\n    tag_28:\n        /* \"#utility.yul\":1581:1605   */\n      tag_52\n        /* \"#utility.yul\":1599:1604   */\n      dup2\n        /* \"#utility.yul\":1581:1605   */\n      tag_17\n      jump\t// in\n    tag_52:\n        /* \"#utility.yul\":1574:1579   */\n      dup2\n        /* \"#utility.yul\":1571:1606   */\n      eq\n        /* \"#utility.yul\":1561:1624   */\n      tag_53\n      jumpi\n        /* \"#utility.yul\":1620:1621   */\n      0x00\n        /* \"#utility.yul\":1617:1618   */\n      dup1\n        /* \"#utility.yul\":1610:1622   */\n      revert\n        /* \"#utility.yul\":1561:1624   */\n    tag_53:\n        /* \"#utility.yul\":1508:1630   */\n      pop\n      jump\t// out\n        /* \"#utility.yul\":1636:1779   */\n    tag_29:\n        /* \"#utility.yul\":1693:1698   */\n      0x00\n        /* \"#utility.yul\":1724:1730   */\n      dup2\n        /* \"#utility.yul\":1718:1731   */\n      mload\n        /* \"#utility.yul\":1709:1731   */\n      swap1\n      pop\n        /* \"#utility.yul\":1740:1773   */\n      tag_55\n        /* \"#utility.yul\":1767:1772   */\n      dup2\n        /* \"#utility.yul\":1740:1773   */\n      tag_28\n      jump\t// in\n    tag_55:\n        /* \"#utility.yul\":1636:1779   */\n      swap3\n      swap2\n      pop\n      pop\n      jump\t// out\n        /* \"#utility.yul\":1785:2756   */\n    tag_16:\n        /* \"#utility.yul\":1888:1894   */\n      0x00\n        /* \"#utility.yul\":1896:1902   */\n      dup1\n        /* \"#utility.yul\":1904:1910   */\n      0x00\n        /* \"#utility.yul\":1912:1918   */\n      dup1\n        /* \"#utility.yul\":1920:1926   */\n      0x00\n        /* \"#utility.yul\":1969:1972   */\n      0xa0\n        /* \"#utility.yul\":1957:1966   */\n      dup7\n        /* \"#utility.yul\":1948:1955   */\n      dup9\n        /* \"#utility.yul\":1944:1967   */\n      sub\n        /* \"#utility.yul\":1940:1973   */\n      slt\n        /* \"#utility.yul\":1937:2057   */\n      iszero\n      tag_57\n      jumpi\n        /* \"#utility.yul\":1976:2055   */\n      tag_58\n      tag_20\n      jump\t// in\n    tag_58:\n        /* \"#utility.yul\":1937:2057   */\n    tag_57:\n        /* \"#utility.yul\":2096:2097   */\n      0x00\n        /* \"#utility.yul\":2121:2184   */\n      tag_59\n        /* \"#utility.yul\":2176:2183   */\n      dup9\n        /* \"#utility.yul\":2167:2173   */\n      dup3\n        /* \"#utility.yul\":2156:2165   */\n      dup10\n        /* \"#utility.yul\":2152:2174   */\n      add\n        /* \"#utility.yul\":2121:2184   */\n      tag_24\n      jump\t// in\n    tag_59:\n        /* \"#utility.yul\":2111:2184   */\n      swap6\n      pop\n        /* \"#utility.yul\":2067:2194   */\n      pop\n        /* \"#utility.yul\":2233:2235   */\n      0x20\n        /* \"#utility.yul\":2259:2322   */\n      tag_60\n        /* \"#utility.yul\":2314:2321   */\n      dup9\n        /* \"#utility.yul\":2305:2311   */\n      dup3\n        /* \"#utility.yul\":2294:2303   */\n      dup10\n        /* \"#utility.yul\":2290:2312   */\n      add\n        /* \"#utility.yul\":2259:2322   */\n      tag_27\n      jump\t// in\n    tag_60:\n        /* \"#utility.yul\":2249:2322   */\n      swap5\n      pop\n        /* \"#utility.yul\":2204:2332   */\n      pop\n        /* \"#utility.yul\":2371:2373   */\n      0x40\n        /* \"#utility.yul\":2397:2461   */\n      tag_61\n        /* \"#utility.yul\":2453:2460   */\n      dup9\n        /* \"#utility.yul\":2444:2450   */\n      dup3\n        /* \"#utility.yul\":2433:2442   */\n      dup10\n        /* \"#utility.yul\":2429:2451   */\n      add\n        /* \"#utility.yul\":2397:2461   */\n      tag_29\n      jump\t// in\n    tag_61:\n        /* \"#utility.yul\":2387:2461   */\n      swap4\n      pop\n        /* \"#utility.yul\":2342:2471   */\n      pop\n        /* \"#utility.yul\":2510:2512   */\n      0x60\n        /* \"#utility.yul\":2536:2600   */\n      tag_62\n        /* \"#utility.yul\":2592:2599   */\n      dup9\n        /* \"#utility.yul\":2583:2589   */\n      dup3\n        /* \"#utility.yul\":2572:2581   */\n      dup10\n        /* \"#utility.yul\":2568:2590   */\n      add\n        /* \"#utility.yul\":2536:2600   */\n      tag_29\n      jump\t// in\n    tag_62:\n        /* \"#utility.yul\":2526:2600   */\n      swap3\n      pop\n        /* \"#utility.yul\":2481:2610   */\n      pop\n        /* \"#utility.yul\":2649:2652   */\n      0x80\n        /* \"#utility.yul\":2676:2739   */\n      tag_63\n        /* \"#utility.yul\":2731:2738   */\n      dup9\n        /* \"#utility.yul\":2722:2728   */\n      dup3\n        /* \"#utility.yul\":2711:2720   */\n      dup10\n        /* \"#utility.yul\":2707:2729   */\n      add\n        /* \"#utility.yul\":2676:2739   */\n      tag_24\n      jump\t// in\n    tag_63:\n        /* \"#utility.yul\":2666:2739   */\n      swap2\n      pop\n        /* \"#utility.yul\":2620:2749   */\n      pop\n        /* \"#utility.yul\":1785:2756   */\n      swap3\n      swap6\n      pop\n      swap3\n      swap6\n      swap1\n      swap4\n      pop\n      jump\t// out\n\n    auxdata: 0xa26469706673582212202806f86a0ab18657c89fa57a4ecb12674a421f3610e664017fa550be083d61e064736f6c63430008120033\n}\n",
				"bytecode": {
					"linkReferences": {},
					"object": "608060405273d4a33860578de61dbabdc8bfdb98fd742fa7028e6000806101000a81548173ffffffffffffffffffffffffffffffffffffffff021916908373ffffffffffffffffffffffffffffffffffffffff16021790555034801561006457600080fd5b5061007361007e60201b60201c565b60018190555061024b565b60008060008054906101000a900473ffffffffffffffffffffffffffffffffffffffff1673ffffffffffffffffffffffffffffffffffffffff1663feaf968c6040518163ffffffff1660e01b815260040160a060405180830381865afa1580156100ec573d6000803e3d6000fd5b505050506040513d601f19601f8201168201806040525081019061011091906101d0565b5050509150508091505090565b600080fd5b600069ffffffffffffffffffff82169050919050565b61014181610122565b811461014c57600080fd5b50565b60008151905061015e81610138565b92915050565b6000819050919050565b61017781610164565b811461018257600080fd5b50565b6000815190506101948161016e565b92915050565b6000819050919050565b6101ad8161019a565b81146101b857600080fd5b50565b6000815190506101ca816101a4565b92915050565b600080600080600060a086880312156101ec576101eb61011d565b5b60006101fa8882890161014f565b955050602061020b88828901610185565b945050604061021c888289016101bb565b935050606061022d888289016101bb565b925050608061023e8882890161014f565b9150509295509295909350565b6102aa8061025a6000396000f3fe608060405234801561001057600080fd5b50600436106100365760003560e01c806330c0b9ec1461003b578063a035b1fe14610059575b600080fd5b610043610077565b6040516100509190610135565b60405180910390f35b610061610116565b60405161006e9190610135565b60405180910390f35b60008060008054906101000a900473ffffffffffffffffffffffffffffffffffffffff1673ffffffffffffffffffffffffffffffffffffffff1663feaf968c6040518163ffffffff1660e01b815260040160a060405180830381865afa1580156100e5573d6000803e3d6000fd5b505050506040513d601f19601f8201168201806040525081019061010991906101f9565b5050509150508091505090565b60015481565b6000819050919050565b61012f8161011c565b82525050565b600060208201905061014a6000830184610126565b92915050565b600080fd5b600069ffffffffffffffffffff82169050919050565b61017481610155565b811461017f57600080fd5b50565b6000815190506101918161016b565b92915050565b6000819050919050565b6101aa81610197565b81146101b557600080fd5b50565b6000815190506101c7816101a1565b92915050565b6101d68161011c565b81146101e157600080fd5b50565b6000815190506101f3816101cd565b92915050565b600080600080600060a0868803121561021557610214610150565b5b600061022388828901610182565b9550506020610234888289016101b8565b9450506040610245888289016101e4565b9350506060610256888289016101e4565b925050608061026788828901610182565b915050929550929590935056fea26469706673582212202806f86a0ab18657c89fa57a4ecb12674a421f3610e664017fa550be083d61e064736f6c63430008120033",
					"opcodes": "PUSH1 0x80 PUSH1 0x40 MSTORE PUSH20 0xD4A33860578DE61DBABDC8BFDB98FD742FA7028E PUSH1 0x0 DUP1 PUSH2 0x100 EXP DUP2 SLOAD DUP2 PUSH20 0xFFFFFFFFFFFFFFFFFFFFFFFFFFFFFFFFFFFFFFFF MUL NOT AND SWAP1 DUP4 PUSH20 0xFFFFFFFFFFFFFFFFFFFFFFFFFFFFFFFFFFFFFFFF AND MUL OR SWAP1 SSTORE POP CALLVALUE DUP1 ISZERO PUSH2 0x64 JUMPI PUSH1 0x0 DUP1 REVERT JUMPDEST POP PUSH2 0x73 PUSH2 0x7E PUSH1 0x20 SHL PUSH1 0x20 SHR JUMP JUMPDEST PUSH1 0x1 DUP2 SWAP1 SSTORE POP PUSH2 0x24B JUMP JUMPDEST PUSH1 0x0 DUP1 PUSH1 0x0 DUP1 SLOAD SWAP1 PUSH2 0x100 EXP SWAP1 DIV PUSH20 0xFFFFFFFFFFFFFFFFFFFFFFFFFFFFFFFFFFFFFFFF AND PUSH20 0xFFFFFFFFFFFFFFFFFFFFFFFFFFFFFFFFFFFFFFFF AND PUSH4 0xFEAF968C PUSH1 0x40 MLOAD DUP2 PUSH4 0xFFFFFFFF AND PUSH1 0xE0 SHL DUP2 MSTORE PUSH1 0x4 ADD PUSH1 0xA0 PUSH1 0x40 MLOAD DUP1 DUP4 SUB DUP2 DUP7 GAS STATICCALL ISZERO DUP1 ISZERO PUSH2 0xEC JUMPI RETURNDATASIZE PUSH1 0x0 DUP1 RETURNDATACOPY RETURNDATASIZE PUSH1 0x0 REVERT JUMPDEST POP POP POP POP PUSH1 0x40 MLOAD RETURNDATASIZE PUSH1 0x1F NOT PUSH1 0x1F DUP3 ADD AND DUP3 ADD DUP1 PUSH1 0x40 MSTORE POP DUP2 ADD SWAP1 PUSH2 0x110 SWAP2 SWAP1 PUSH2 0x1D0 JUMP JUMPDEST POP POP POP SWAP2 POP POP DUP1 SWAP2 POP POP SWAP1 JUMP JUMPDEST PUSH1 0x0 DUP1 REVERT JUMPDEST PUSH1 0x0 PUSH10 0xFFFFFFFFFFFFFFFFFFFF DUP3 AND SWAP1 POP SWAP2 SWAP1 POP JUMP JUMPDEST PUSH2 0x141 DUP2 PUSH2 0x122 JUMP JUMPDEST DUP2 EQ PUSH2 0x14C JUMPI PUSH1 0x0 DUP1 REVERT JUMPDEST POP JUMP JUMPDEST PUSH1 0x0 DUP2 MLOAD SWAP1 POP PUSH2 0x15E DUP2 PUSH2 0x138 JUMP JUMPDEST SWAP3 SWAP2 POP POP JUMP JUMPDEST PUSH1 0x0 DUP2 SWAP1 POP SWAP2 SWAP1 POP JUMP JUMPDEST PUSH2 0x177 DUP2 PUSH2 0x164 JUMP JUMPDEST DUP2 EQ PUSH2 0x182 JUMPI PUSH1 0x0 DUP1 REVERT JUMPDEST POP JUMP JUMPDEST PUSH1 0x0 DUP2 MLOAD SWAP1 POP PUSH2 0x194 DUP2 PUSH2 0x16E JUMP JUMPDEST SWAP3 SWAP2 POP POP JUMP JUMPDEST PUSH1 0x0 DUP2 SWAP1 POP SWAP2 SWAP1 POP JUMP JUMPDEST PUSH2 0x1AD DUP2 PUSH2 0x19A JUMP JUMPDEST DUP2 EQ PUSH2 0x1B8 JUMPI PUSH1 0x0 DUP1 REVERT JUMPDEST POP JUMP JUMPDEST PUSH1 0x0 DUP2 MLOAD SWAP1 POP PUSH2 0x1CA DUP2 PUSH2 0x1A4 JUMP JUMPDEST SWAP3 SWAP2 POP POP JUMP JUMPDEST PUSH1 0x0 DUP1 PUSH1 0x0 DUP1 PUSH1 0x0 PUSH1 0xA0 DUP7 DUP9 SUB SLT ISZERO PUSH2 0x1EC JUMPI PUSH2 0x1EB PUSH2 0x11D JUMP JUMPDEST JUMPDEST PUSH1 0x0 PUSH2 0x1FA DUP9 DUP3 DUP10 ADD PUSH2 0x14F JUMP JUMPDEST SWAP6 POP POP PUSH1 0x20 PUSH2 0x20B DUP9 DUP3 DUP10 ADD PUSH2 0x185 JUMP JUMPDEST SWAP5 POP POP PUSH1 0x40 PUSH2 0x21C DUP9 DUP3 DUP10 ADD PUSH2 0x1BB JUMP JUMPDEST SWAP4 POP POP PUSH1 0x60 PUSH2 0x22D DUP9 DUP3 DUP10 ADD PUSH2 0x1BB JUMP JUMPDEST SWAP3 POP POP PUSH1 0x80 PUSH2 0x23E DUP9 DUP3 DUP10 ADD PUSH2 0x14F JUMP JUMPDEST SWAP2 POP POP SWAP3 SWAP6 POP SWAP3 SWAP6 SWAP1 SWAP4 POP JUMP JUMPDEST PUSH2 0x2AA DUP1 PUSH2 0x25A PUSH1 0x0 CODECOPY PUSH1 0x0 RETURN INVALID PUSH1 0x80 PUSH1 0x40 MSTORE CALLVALUE DUP1 ISZERO PUSH2 0x10 JUMPI PUSH1 0x0 DUP1 REVERT JUMPDEST POP PUSH1 0x4 CALLDATASIZE LT PUSH2 0x36 JUMPI PUSH1 0x0 CALLDATALOAD PUSH1 0xE0 SHR DUP1 PUSH4 0x30C0B9EC EQ PUSH2 0x3B JUMPI DUP1 PUSH4 0xA035B1FE EQ PUSH2 0x59 JUMPI JUMPDEST PUSH1 0x0 DUP1 REVERT JUMPDEST PUSH2 0x43 PUSH2 0x77 JUMP JUMPDEST PUSH1 0x40 MLOAD PUSH2 0x50 SWAP2 SWAP1 PUSH2 0x135 JUMP JUMPDEST PUSH1 0x40 MLOAD DUP1 SWAP2 SUB SWAP1 RETURN JUMPDEST PUSH2 0x61 PUSH2 0x116 JUMP JUMPDEST PUSH1 0x40 MLOAD PUSH2 0x6E SWAP2 SWAP1 PUSH2 0x135 JUMP JUMPDEST PUSH1 0x40 MLOAD DUP1 SWAP2 SUB SWAP1 RETURN JUMPDEST PUSH1 0x0 DUP1 PUSH1 0x0 DUP1 SLOAD SWAP1 PUSH2 0x100 EXP SWAP1 DIV PUSH20 0xFFFFFFFFFFFFFFFFFFFFFFFFFFFFFFFFFFFFFFFF AND PUSH20 0xFFFFFFFFFFFFFFFFFFFFFFFFFFFFFFFFFFFFFFFF AND PUSH4 0xFEAF968C PUSH1 0x40 MLOAD DUP2 PUSH4 0xFFFFFFFF AND PUSH1 0xE0 SHL DUP2 MSTORE PUSH1 0x4 ADD PUSH1 0xA0 PUSH1 0x40 MLOAD DUP1 DUP4 SUB DUP2 DUP7 GAS STATICCALL ISZERO DUP1 ISZERO PUSH2 0xE5 JUMPI RETURNDATASIZE PUSH1 0x0 DUP1 RETURNDATACOPY RETURNDATASIZE PUSH1 0x0 REVERT JUMPDEST POP POP POP POP PUSH1 0x40 MLOAD RETURNDATASIZE PUSH1 0x1F NOT PUSH1 0x1F DUP3 ADD AND DUP3 ADD DUP1 PUSH1 0x40 MSTORE POP DUP2 ADD SWAP1 PUSH2 0x109 SWAP2 SWAP1 PUSH2 0x1F9 JUMP JUMPDEST POP POP POP SWAP2 POP POP DUP1 SWAP2 POP POP SWAP1 JUMP JUMPDEST PUSH1 0x1 SLOAD DUP2 JUMP JUMPDEST PUSH1 0x0 DUP2 SWAP1 POP SWAP2 SWAP1 POP JUMP JUMPDEST PUSH2 0x12F DUP2 PUSH2 0x11C JUMP JUMPDEST DUP3 MSTORE POP POP JUMP JUMPDEST PUSH1 0x0 PUSH1 0x20 DUP3 ADD SWAP1 POP PUSH2 0x14A PUSH1 0x0 DUP4 ADD DUP5 PUSH2 0x126 JUMP JUMPDEST SWAP3 SWAP2 POP POP JUMP JUMPDEST PUSH1 0x0 DUP1 REVERT JUMPDEST PUSH1 0x0 PUSH10 0xFFFFFFFFFFFFFFFFFFFF DUP3 AND SWAP1 POP SWAP2 SWAP1 POP JUMP JUMPDEST PUSH2 0x174 DUP2 PUSH2 0x155 JUMP JUMPDEST DUP2 EQ PUSH2 0x17F JUMPI PUSH1 0x0 DUP1 REVERT JUMPDEST POP JUMP JUMPDEST PUSH1 0x0 DUP2 MLOAD SWAP1 POP PUSH2 0x191 DUP2 PUSH2 0x16B JUMP JUMPDEST SWAP3 SWAP2 POP POP JUMP JUMPDEST PUSH1 0x0 DUP2 SWAP1 POP SWAP2 SWAP1 POP JUMP JUMPDEST PUSH2 0x1AA DUP2 PUSH2 0x197 JUMP JUMPDEST DUP2 EQ PUSH2 0x1B5 JUMPI PUSH1 0x0 DUP1 REVERT JUMPDEST POP JUMP JUMPDEST PUSH1 0x0 DUP2 MLOAD SWAP1 POP PUSH2 0x1C7 DUP2 PUSH2 0x1A1 JUMP JUMPDEST SWAP3 SWAP2 POP POP JUMP JUMPDEST PUSH2 0x1D6 DUP2 PUSH2 0x11C JUMP JUMPDEST DUP2 EQ PUSH2 0x1E1 JUMPI PUSH1 0x0 DUP1 REVERT JUMPDEST POP JUMP JUMPDEST PUSH1 0x0 DUP2 MLOAD SWAP1 POP PUSH2 0x1F3 DUP2 PUSH2 0x1CD JUMP JUMPDEST SWAP3 SWAP2 POP POP JUMP JUMPDEST PUSH1 0x0 DUP1 PUSH1 0x0 DUP1 PUSH1 0x0 PUSH1 0xA0 DUP7 DUP9 SUB SLT ISZERO PUSH2 0x215 JUMPI PUSH2 0x214 PUSH2 0x150 JUMP JUMPDEST JUMPDEST PUSH1 0x0 PUSH2 0x223 DUP9 DUP3 DUP10 ADD PUSH2 0x182 JUMP JUMPDEST SWAP6 POP POP PUSH1 0x20 PUSH2 0x234 DUP9 DUP3 DUP10 ADD PUSH2 0x1B8 JUMP JUMPDEST SWAP5 POP POP PUSH1 0x40 PUSH2 0x245 DUP9 DUP3 DUP10 ADD PUSH2 0x1E4 JUMP JUMPDEST SWAP4 POP POP PUSH1 0x60 PUSH2 0x256 DUP9 DUP3 DUP10 ADD PUSH2 0x1E4 JUMP JUMPDEST SWAP3 POP POP PUSH1 0x80 PUSH2 0x267 DUP9 DUP3 DUP10 ADD PUSH2 0x182 JUMP JUMPDEST SWAP2 POP POP SWAP3 SWAP6 POP SWAP3 SWAP6 SWAP1 SWAP4 POP JUMP INVALID LOG2 PUSH5 0x6970667358 0x22 SLT KECCAK256 0x28 MOD 0xF8 PUSH11 0xAB18657C89FA57A4ECB12 PUSH8 0x4A421F3610E66401 PUSH32 0xA550BE083D61E064736F6C634300081200330000000000000000000000000000 "
				},
				"gasEstimates": {
					"creation": {
						"codeDepositCost": "136400",
						"executionCost": "infinite",
						"totalCost": "infinite"
					},
					"external": {
						"getLatestEthPrice()": "infinite",
						"price()": "2429"
					}
				},
				"methodIdentifiers": {
					"getLatestEthPrice()": "30c0b9ec",
					"price()": "a035b1fe"
				}
			},
			"storageLayout": {
				"storage": [
					{
						"astId": 54,
						"contract": "exam/qOr.sol:Pool",
						"label": "ethPriceFeed",
						"offset": 0,
						"slot": "0",
						"type": "t_contract(AggregatorV3Interface)45"
					},
					{
						"astId": 56,
						"contract": "exam/qOr.sol:Pool",
						"label": "price",
						"offset": 0,
						"slot": "1",
						"type": "t_uint256"
					}
				],
				"types": {
					"t_contract(AggregatorV3Interface)45": {
						"encoding": "inplace",
						"label": "contract AggregatorV3Interface",
						"numberOfBytes": "20"
					},
					"t_uint256": {
						"encoding": "inplace",
						"label": "uint256",
						"numberOfBytes": "32"
					}
				}
			},
			"userdoc": {
				"kind": "user",
				"methods": {},
				"version": 1
			}
		}
	}
}