{
	"W6/simpleAMM/src/test2.sol": {
		"Airdrop": {
			"abi": [
				{
					"inputs": [
						{
							"internalType": "uint256[]",
							"name": "_arr",
							"type": "uint256[]"
						}
					],
					"name": "getSum",
					"outputs": [
						{
							"internalType": "uint256",
							"name": "sum",
							"type": "uint256"
						}
					],
					"stateMutability": "pure",
					"type": "function"
				},
				{
					"inputs": [
						{
							"internalType": "address",
							"name": "_token",
							"type": "address"
						},
						{
							"internalType": "address[]",
							"name": "_addresses",
							"type": "address[]"
						},
						{
							"internalType": "uint256[]",
							"name": "_amounts",
							"type": "uint256[]"
						}
					],
					"name": "multiTransferToken",
					"outputs": [],
					"stateMutability": "payable",
					"type": "function"
				}
			],
			"devdoc": {
				"kind": "dev",
				"methods": {},
				"version": 1
			},
			"evm": {
				"assembly": "    /* \"W6/simpleAMM/src/test2.sol\":1706:2668  contract Airdrop {... */\n  mstore(0x40, 0x80)\n  callvalue\n  dup1\n  iszero\n  tag_1\n  jumpi\n  0x00\n  dup1\n  revert\ntag_1:\n  pop\n  dataSize(sub_0)\n  dup1\n  dataOffset(sub_0)\n  0x00\n  codecopy\n  0x00\n  return\nstop\n\nsub_0: assembly {\n        /* \"W6/simpleAMM/src/test2.sol\":1706:2668  contract Airdrop {... */\n      mstore(0x40, 0x80)\n      jumpi(tag_1, lt(calldatasize, 0x04))\n      shr(0xe0, calldataload(0x00))\n      dup1\n      0x41ed24a2\n      eq\n      tag_2\n      jumpi\n      dup1\n      0xccb8c1e0\n      eq\n      tag_3\n      jumpi\n    tag_1:\n      0x00\n      dup1\n      revert\n        /* \"W6/simpleAMM/src/test2.sol\":1729:2498  function multiTransferToken(address _token,address[] calldata _addresses,uint256[] calldata _amounts) external payable {... */\n    tag_2:\n      tag_4\n      0x04\n      dup1\n      calldatasize\n      sub\n      dup2\n      add\n      swap1\n      tag_5\n      swap2\n      swap1\n      tag_6\n      jump\t// in\n    tag_5:\n      tag_7\n      jump\t// in\n    tag_4:\n      stop\n        /* \"W6/simpleAMM/src/test2.sol\":2504:2665  function getSum(uint256[] calldata _arr) public pure returns(uint sum)... */\n    tag_3:\n      callvalue\n      dup1\n      iszero\n      tag_8\n      jumpi\n      0x00\n      dup1\n      revert\n    tag_8:\n      pop\n      tag_9\n      0x04\n      dup1\n      calldatasize\n      sub\n      dup2\n      add\n      swap1\n      tag_10\n      swap2\n      swap1\n      tag_11\n      jump\t// in\n    tag_10:\n      tag_12\n      jump\t// in\n    tag_9:\n      mload(0x40)\n      tag_13\n      swap2\n      swap1\n      tag_14\n      jump\t// in\n    tag_13:\n      mload(0x40)\n      dup1\n      swap2\n      sub\n      swap1\n      return\n        /* \"W6/simpleAMM/src/test2.sol\":1729:2498  function multiTransferToken(address _token,address[] calldata _addresses,uint256[] calldata _amounts) external payable {... */\n    tag_7:\n        /* \"W6/simpleAMM/src/test2.sol\":1961:1969  _amounts */\n      dup2\n      dup2\n        /* \"W6/simpleAMM/src/test2.sol\":1961:1976  _amounts.length */\n      swap1\n      pop\n        /* \"W6/simpleAMM/src/test2.sol\":1940:1950  _addresses */\n      dup5\n      dup5\n        /* \"W6/simpleAMM/src/test2.sol\":1940:1957  _addresses.length */\n      swap1\n      pop\n        /* \"W6/simpleAMM/src/test2.sol\":1940:1976  _addresses.length == _amounts.length */\n      eq\n        /* \"W6/simpleAMM/src/test2.sol\":1932:2023  require(_addresses.length == _amounts.length, \"Lengths of Addresses and Amounts NOT EQUAL\") */\n      tag_16\n      jumpi\n      mload(0x40)\n      0x08c379a000000000000000000000000000000000000000000000000000000000\n      dup2\n      mstore\n      0x04\n      add\n      tag_17\n      swap1\n      tag_18\n      jump\t// in\n    tag_17:\n      mload(0x40)\n      dup1\n      swap2\n      sub\n      swap1\n      revert\n    tag_16:\n        /* \"W6/simpleAMM/src/test2.sol\":2029:2041  IERC20 token */\n      0x00\n        /* \"W6/simpleAMM/src/test2.sol\":2051:2057  _token */\n      dup6\n        /* \"W6/simpleAMM/src/test2.sol\":2029:2058  IERC20 token = IERC20(_token) */\n      swap1\n      pop\n        /* \"W6/simpleAMM/src/test2.sol\":2090:2105  uint _amountSum */\n      0x00\n        /* \"W6/simpleAMM/src/test2.sol\":2108:2124  getSum(_amounts) */\n      tag_19\n        /* \"W6/simpleAMM/src/test2.sol\":2115:2123  _amounts */\n      dup5\n      dup5\n        /* \"W6/simpleAMM/src/test2.sol\":2108:2114  getSum */\n      tag_12\n        /* \"W6/simpleAMM/src/test2.sol\":2108:2124  getSum(_amounts) */\n      jump\t// in\n    tag_19:\n        /* \"W6/simpleAMM/src/test2.sol\":2090:2124  uint _amountSum = getSum(_amounts) */\n      swap1\n      pop\n        /* \"W6/simpleAMM/src/test2.sol\":2275:2285  _amountSum */\n      dup1\n        /* \"W6/simpleAMM/src/test2.sol\":2229:2234  token */\n      dup3\n        /* \"W6/simpleAMM/src/test2.sol\":2229:2244  token.allowance */\n      0xffffffffffffffffffffffffffffffffffffffff\n      and\n      0xdd62ed3e\n        /* \"W6/simpleAMM/src/test2.sol\":2245:2255  msg.sender */\n      caller\n        /* \"W6/simpleAMM/src/test2.sol\":2265:2269  this */\n      address\n        /* \"W6/simpleAMM/src/test2.sol\":2229:2271  token.allowance(msg.sender, address(this)) */\n      mload(0x40)\n      dup4\n      0xffffffff\n      and\n      0xe0\n      shl\n      dup2\n      mstore\n      0x04\n      add\n      tag_20\n      swap3\n      swap2\n      swap1\n      tag_21\n      jump\t// in\n    tag_20:\n      0x20\n      mload(0x40)\n      dup1\n      dup4\n      sub\n      dup2\n      dup7\n      gas\n      staticcall\n      iszero\n      dup1\n      iszero\n      tag_23\n      jumpi\n      returndatasize\n      0x00\n      dup1\n      returndatacopy\n      revert(0x00, returndatasize)\n    tag_23:\n      pop\n      pop\n      pop\n      pop\n      mload(0x40)\n      returndatasize\n      not(0x1f)\n      0x1f\n      dup3\n      add\n      and\n      dup3\n      add\n      dup1\n      0x40\n      mstore\n      pop\n      dup2\n      add\n      swap1\n      tag_24\n      swap2\n      swap1\n      tag_25\n      jump\t// in\n    tag_24:\n        /* \"W6/simpleAMM/src/test2.sol\":2229:2285  token.allowance(msg.sender, address(this)) >= _amountSum */\n      lt\n      iszero\n        /* \"W6/simpleAMM/src/test2.sol\":2221:2314  require(token.allowance(msg.sender, address(this)) >= _amountSum, \"Need Approve ERC20 token\") */\n      tag_26\n      jumpi\n      mload(0x40)\n      0x08c379a000000000000000000000000000000000000000000000000000000000\n      dup2\n      mstore\n      0x04\n      add\n      tag_27\n      swap1\n      tag_28\n      jump\t// in\n    tag_27:\n      mload(0x40)\n      dup1\n      swap2\n      sub\n      swap1\n      revert\n    tag_26:\n        /* \"W6/simpleAMM/src/test2.sol\":2384:2391  uint8 i */\n      0x00\n        /* \"W6/simpleAMM/src/test2.sol\":2379:2496  for (uint8 i; i < _addresses.length; i++) {... */\n    tag_29:\n        /* \"W6/simpleAMM/src/test2.sol\":2397:2407  _addresses */\n      dup7\n      dup7\n        /* \"W6/simpleAMM/src/test2.sol\":2397:2414  _addresses.length */\n      swap1\n      pop\n        /* \"W6/simpleAMM/src/test2.sol\":2393:2394  i */\n      dup2\n        /* \"W6/simpleAMM/src/test2.sol\":2393:2414  i < _addresses.length */\n      0xff\n      and\n      lt\n        /* \"W6/simpleAMM/src/test2.sol\":2379:2496  for (uint8 i; i < _addresses.length; i++) {... */\n      iszero\n      tag_30\n      jumpi\n        /* \"W6/simpleAMM/src/test2.sol\":2431:2436  token */\n      dup3\n        /* \"W6/simpleAMM/src/test2.sol\":2431:2449  token.transferFrom */\n      0xffffffffffffffffffffffffffffffffffffffff\n      and\n      0x23b872dd\n        /* \"W6/simpleAMM/src/test2.sol\":2450:2460  msg.sender */\n      caller\n        /* \"W6/simpleAMM/src/test2.sol\":2462:2472  _addresses */\n      dup10\n      dup10\n        /* \"W6/simpleAMM/src/test2.sol\":2473:2474  i */\n      dup6\n        /* \"W6/simpleAMM/src/test2.sol\":2462:2475  _addresses[i] */\n      0xff\n      and\n      dup2\n      dup2\n      lt\n      tag_32\n      jumpi\n      tag_33\n      tag_34\n      jump\t// in\n    tag_33:\n    tag_32:\n      swap1\n      pop\n      0x20\n      mul\n      add\n      0x20\n      dup2\n      add\n      swap1\n      tag_35\n      swap2\n      swap1\n      tag_36\n      jump\t// in\n    tag_35:\n        /* \"W6/simpleAMM/src/test2.sol\":2477:2485  _amounts */\n      dup9\n      dup9\n        /* \"W6/simpleAMM/src/test2.sol\":2486:2487  i */\n      dup7\n        /* \"W6/simpleAMM/src/test2.sol\":2477:2488  _amounts[i] */\n      0xff\n      and\n      dup2\n      dup2\n      lt\n      tag_37\n      jumpi\n      tag_38\n      tag_34\n      jump\t// in\n    tag_38:\n    tag_37:\n      swap1\n      pop\n      0x20\n      mul\n      add\n      calldataload\n        /* \"W6/simpleAMM/src/test2.sol\":2431:2489  token.transferFrom(msg.sender, _addresses[i], _amounts[i]) */\n      mload(0x40)\n      dup5\n      0xffffffff\n      and\n      0xe0\n      shl\n      dup2\n      mstore\n      0x04\n      add\n      tag_39\n      swap4\n      swap3\n      swap2\n      swap1\n      tag_40\n      jump\t// in\n    tag_39:\n      0x20\n      mload(0x40)\n      dup1\n      dup4\n      sub\n      dup2\n      0x00\n      dup8\n      gas\n      call\n      iszero\n      dup1\n      iszero\n      tag_42\n      jumpi\n      returndatasize\n      0x00\n      dup1\n      returndatacopy\n      revert(0x00, returndatasize)\n    tag_42:\n      pop\n      pop\n      pop\n      pop\n      mload(0x40)\n      returndatasize\n      not(0x1f)\n      0x1f\n      dup3\n      add\n      and\n      dup3\n      add\n      dup1\n      0x40\n      mstore\n      pop\n      dup2\n      add\n      swap1\n      tag_43\n      swap2\n      swap1\n      tag_44\n      jump\t// in\n    tag_43:\n      pop\n        /* \"W6/simpleAMM/src/test2.sol\":2416:2419  i++ */\n      dup1\n      dup1\n      tag_45\n      swap1\n      tag_46\n      jump\t// in\n    tag_45:\n      swap2\n      pop\n      pop\n        /* \"W6/simpleAMM/src/test2.sol\":2379:2496  for (uint8 i; i < _addresses.length; i++) {... */\n      jump(tag_29)\n    tag_30:\n      pop\n        /* \"W6/simpleAMM/src/test2.sol\":1848:2498  {... */\n      pop\n      pop\n        /* \"W6/simpleAMM/src/test2.sol\":1729:2498  function multiTransferToken(address _token,address[] calldata _addresses,uint256[] calldata _amounts) external payable {... */\n      pop\n      pop\n      pop\n      pop\n      pop\n      jump\t// out\n        /* \"W6/simpleAMM/src/test2.sol\":2504:2665  function getSum(uint256[] calldata _arr) public pure returns(uint sum)... */\n    tag_12:\n        /* \"W6/simpleAMM/src/test2.sol\":2565:2573  uint sum */\n      0x00\n        /* \"W6/simpleAMM/src/test2.sol\":2593:2599  uint i */\n      dup1\n        /* \"W6/simpleAMM/src/test2.sol\":2602:2603  0 */\n      0x00\n        /* \"W6/simpleAMM/src/test2.sol\":2593:2603  uint i = 0 */\n      swap1\n      pop\n        /* \"W6/simpleAMM/src/test2.sol\":2589:2658  for(uint i = 0; i < _arr.length; i++)... */\n    tag_48:\n        /* \"W6/simpleAMM/src/test2.sol\":2609:2613  _arr */\n      dup4\n      dup4\n        /* \"W6/simpleAMM/src/test2.sol\":2609:2620  _arr.length */\n      swap1\n      pop\n        /* \"W6/simpleAMM/src/test2.sol\":2605:2606  i */\n      dup2\n        /* \"W6/simpleAMM/src/test2.sol\":2605:2620  i < _arr.length */\n      lt\n        /* \"W6/simpleAMM/src/test2.sol\":2589:2658  for(uint i = 0; i < _arr.length; i++)... */\n      iszero\n      tag_49\n      jumpi\n        /* \"W6/simpleAMM/src/test2.sol\":2651:2655  _arr */\n      dup4\n      dup4\n        /* \"W6/simpleAMM/src/test2.sol\":2656:2657  i */\n      dup3\n        /* \"W6/simpleAMM/src/test2.sol\":2651:2658  _arr[i] */\n      dup2\n      dup2\n      lt\n      tag_51\n      jumpi\n      tag_52\n      tag_34\n      jump\t// in\n    tag_52:\n    tag_51:\n      swap1\n      pop\n      0x20\n      mul\n      add\n      calldataload\n        /* \"W6/simpleAMM/src/test2.sol\":2645:2648  sum */\n      dup3\n        /* \"W6/simpleAMM/src/test2.sol\":2645:2658  sum + _arr[i] */\n      tag_53\n      swap2\n      swap1\n      tag_54\n      jump\t// in\n    tag_53:\n        /* \"W6/simpleAMM/src/test2.sol\":2639:2658  sum = sum + _arr[i] */\n      swap2\n      pop\n        /* \"W6/simpleAMM/src/test2.sol\":2622:2625  i++ */\n      dup1\n      dup1\n      tag_55\n      swap1\n      tag_56\n      jump\t// in\n    tag_55:\n      swap2\n      pop\n      pop\n        /* \"W6/simpleAMM/src/test2.sol\":2589:2658  for(uint i = 0; i < _arr.length; i++)... */\n      jump(tag_48)\n    tag_49:\n      pop\n        /* \"W6/simpleAMM/src/test2.sol\":2504:2665  function getSum(uint256[] calldata _arr) public pure returns(uint sum)... */\n      swap3\n      swap2\n      pop\n      pop\n      jump\t// out\n        /* \"#utility.yul\":88:205   */\n    tag_58:\n        /* \"#utility.yul\":197:198   */\n      0x00\n        /* \"#utility.yul\":194:195   */\n      dup1\n        /* \"#utility.yul\":187:199   */\n      revert\n        /* \"#utility.yul\":211:328   */\n    tag_59:\n        /* \"#utility.yul\":320:321   */\n      0x00\n        /* \"#utility.yul\":317:318   */\n      dup1\n        /* \"#utility.yul\":310:322   */\n      revert\n        /* \"#utility.yul\":334:460   */\n    tag_60:\n        /* \"#utility.yul\":371:378   */\n      0x00\n        /* \"#utility.yul\":411:453   */\n      0xffffffffffffffffffffffffffffffffffffffff\n        /* \"#utility.yul\":404:409   */\n      dup3\n        /* \"#utility.yul\":400:454   */\n      and\n        /* \"#utility.yul\":389:454   */\n      swap1\n      pop\n        /* \"#utility.yul\":334:460   */\n      swap2\n      swap1\n      pop\n      jump\t// out\n        /* \"#utility.yul\":466:562   */\n    tag_61:\n        /* \"#utility.yul\":503:510   */\n      0x00\n        /* \"#utility.yul\":532:556   */\n      tag_90\n        /* \"#utility.yul\":550:555   */\n      dup3\n        /* \"#utility.yul\":532:556   */\n      tag_60\n      jump\t// in\n    tag_90:\n        /* \"#utility.yul\":521:556   */\n      swap1\n      pop\n        /* \"#utility.yul\":466:562   */\n      swap2\n      swap1\n      pop\n      jump\t// out\n        /* \"#utility.yul\":568:690   */\n    tag_62:\n        /* \"#utility.yul\":641:665   */\n      tag_92\n        /* \"#utility.yul\":659:664   */\n      dup2\n        /* \"#utility.yul\":641:665   */\n      tag_61\n      jump\t// in\n    tag_92:\n        /* \"#utility.yul\":634:639   */\n      dup2\n        /* \"#utility.yul\":631:666   */\n      eq\n        /* \"#utility.yul\":621:684   */\n      tag_93\n      jumpi\n        /* \"#utility.yul\":680:681   */\n      0x00\n        /* \"#utility.yul\":677:678   */\n      dup1\n        /* \"#utility.yul\":670:682   */\n      revert\n        /* \"#utility.yul\":621:684   */\n    tag_93:\n        /* \"#utility.yul\":568:690   */\n      pop\n      jump\t// out\n        /* \"#utility.yul\":696:835   */\n    tag_63:\n        /* \"#utility.yul\":742:747   */\n      0x00\n        /* \"#utility.yul\":780:786   */\n      dup2\n        /* \"#utility.yul\":767:787   */\n      calldataload\n        /* \"#utility.yul\":758:787   */\n      swap1\n      pop\n        /* \"#utility.yul\":796:829   */\n      tag_95\n        /* \"#utility.yul\":823:828   */\n      dup2\n        /* \"#utility.yul\":796:829   */\n      tag_62\n      jump\t// in\n    tag_95:\n        /* \"#utility.yul\":696:835   */\n      swap3\n      swap2\n      pop\n      pop\n      jump\t// out\n        /* \"#utility.yul\":841:958   */\n    tag_64:\n        /* \"#utility.yul\":950:951   */\n      0x00\n        /* \"#utility.yul\":947:948   */\n      dup1\n        /* \"#utility.yul\":940:952   */\n      revert\n        /* \"#utility.yul\":964:1081   */\n    tag_65:\n        /* \"#utility.yul\":1073:1074   */\n      0x00\n        /* \"#utility.yul\":1070:1071   */\n      dup1\n        /* \"#utility.yul\":1063:1075   */\n      revert\n        /* \"#utility.yul\":1087:1204   */\n    tag_66:\n        /* \"#utility.yul\":1196:1197   */\n      0x00\n        /* \"#utility.yul\":1193:1194   */\n      dup1\n        /* \"#utility.yul\":1186:1198   */\n      revert\n        /* \"#utility.yul\":1227:1795   */\n    tag_67:\n        /* \"#utility.yul\":1300:1308   */\n      0x00\n        /* \"#utility.yul\":1310:1316   */\n      dup1\n        /* \"#utility.yul\":1360:1363   */\n      dup4\n        /* \"#utility.yul\":1353:1357   */\n      0x1f\n        /* \"#utility.yul\":1345:1351   */\n      dup5\n        /* \"#utility.yul\":1341:1358   */\n      add\n        /* \"#utility.yul\":1337:1364   */\n      slt\n        /* \"#utility.yul\":1327:1449   */\n      tag_100\n      jumpi\n        /* \"#utility.yul\":1368:1447   */\n      tag_101\n      tag_64\n      jump\t// in\n    tag_101:\n        /* \"#utility.yul\":1327:1449   */\n    tag_100:\n        /* \"#utility.yul\":1481:1487   */\n      dup3\n        /* \"#utility.yul\":1468:1488   */\n      calldataload\n        /* \"#utility.yul\":1458:1488   */\n      swap1\n      pop\n        /* \"#utility.yul\":1511:1529   */\n      0xffffffffffffffff\n        /* \"#utility.yul\":1503:1509   */\n      dup2\n        /* \"#utility.yul\":1500:1530   */\n      gt\n        /* \"#utility.yul\":1497:1614   */\n      iszero\n      tag_102\n      jumpi\n        /* \"#utility.yul\":1533:1612   */\n      tag_103\n      tag_65\n      jump\t// in\n    tag_103:\n        /* \"#utility.yul\":1497:1614   */\n    tag_102:\n        /* \"#utility.yul\":1647:1651   */\n      0x20\n        /* \"#utility.yul\":1639:1645   */\n      dup4\n        /* \"#utility.yul\":1635:1652   */\n      add\n        /* \"#utility.yul\":1623:1652   */\n      swap2\n      pop\n        /* \"#utility.yul\":1701:1704   */\n      dup4\n        /* \"#utility.yul\":1693:1697   */\n      0x20\n        /* \"#utility.yul\":1685:1691   */\n      dup3\n        /* \"#utility.yul\":1681:1698   */\n      mul\n        /* \"#utility.yul\":1671:1679   */\n      dup4\n        /* \"#utility.yul\":1667:1699   */\n      add\n        /* \"#utility.yul\":1664:1705   */\n      gt\n        /* \"#utility.yul\":1661:1789   */\n      iszero\n      tag_104\n      jumpi\n        /* \"#utility.yul\":1708:1787   */\n      tag_105\n      tag_66\n      jump\t// in\n    tag_105:\n        /* \"#utility.yul\":1661:1789   */\n    tag_104:\n        /* \"#utility.yul\":1227:1795   */\n      swap3\n      pop\n      swap3\n      swap1\n      pop\n      jump\t// out\n        /* \"#utility.yul\":1818:2386   */\n    tag_68:\n        /* \"#utility.yul\":1891:1899   */\n      0x00\n        /* \"#utility.yul\":1901:1907   */\n      dup1\n        /* \"#utility.yul\":1951:1954   */\n      dup4\n        /* \"#utility.yul\":1944:1948   */\n      0x1f\n        /* \"#utility.yul\":1936:1942   */\n      dup5\n        /* \"#utility.yul\":1932:1949   */\n      add\n        /* \"#utility.yul\":1928:1955   */\n      slt\n        /* \"#utility.yul\":1918:2040   */\n      tag_107\n      jumpi\n        /* \"#utility.yul\":1959:2038   */\n      tag_108\n      tag_64\n      jump\t// in\n    tag_108:\n        /* \"#utility.yul\":1918:2040   */\n    tag_107:\n        /* \"#utility.yul\":2072:2078   */\n      dup3\n        /* \"#utility.yul\":2059:2079   */\n      calldataload\n        /* \"#utility.yul\":2049:2079   */\n      swap1\n      pop\n        /* \"#utility.yul\":2102:2120   */\n      0xffffffffffffffff\n        /* \"#utility.yul\":2094:2100   */\n      dup2\n        /* \"#utility.yul\":2091:2121   */\n      gt\n        /* \"#utility.yul\":2088:2205   */\n      iszero\n      tag_109\n      jumpi\n        /* \"#utility.yul\":2124:2203   */\n      tag_110\n      tag_65\n      jump\t// in\n    tag_110:\n        /* \"#utility.yul\":2088:2205   */\n    tag_109:\n        /* \"#utility.yul\":2238:2242   */\n      0x20\n        /* \"#utility.yul\":2230:2236   */\n      dup4\n        /* \"#utility.yul\":2226:2243   */\n      add\n        /* \"#utility.yul\":2214:2243   */\n      swap2\n      pop\n        /* \"#utility.yul\":2292:2295   */\n      dup4\n        /* \"#utility.yul\":2284:2288   */\n      0x20\n        /* \"#utility.yul\":2276:2282   */\n      dup3\n        /* \"#utility.yul\":2272:2289   */\n      mul\n        /* \"#utility.yul\":2262:2270   */\n      dup4\n        /* \"#utility.yul\":2258:2290   */\n      add\n        /* \"#utility.yul\":2255:2296   */\n      gt\n        /* \"#utility.yul\":2252:2380   */\n      iszero\n      tag_111\n      jumpi\n        /* \"#utility.yul\":2299:2378   */\n      tag_112\n      tag_66\n      jump\t// in\n    tag_112:\n        /* \"#utility.yul\":2252:2380   */\n    tag_111:\n        /* \"#utility.yul\":1818:2386   */\n      swap3\n      pop\n      swap3\n      swap1\n      pop\n      jump\t// out\n        /* \"#utility.yul\":2392:3471   */\n    tag_6:\n        /* \"#utility.yul\":2523:2529   */\n      0x00\n        /* \"#utility.yul\":2531:2537   */\n      dup1\n        /* \"#utility.yul\":2539:2545   */\n      0x00\n        /* \"#utility.yul\":2547:2553   */\n      dup1\n        /* \"#utility.yul\":2555:2561   */\n      0x00\n        /* \"#utility.yul\":2604:2606   */\n      0x60\n        /* \"#utility.yul\":2592:2601   */\n      dup7\n        /* \"#utility.yul\":2583:2590   */\n      dup9\n        /* \"#utility.yul\":2579:2602   */\n      sub\n        /* \"#utility.yul\":2575:2607   */\n      slt\n        /* \"#utility.yul\":2572:2691   */\n      iszero\n      tag_114\n      jumpi\n        /* \"#utility.yul\":2610:2689   */\n      tag_115\n      tag_58\n      jump\t// in\n    tag_115:\n        /* \"#utility.yul\":2572:2691   */\n    tag_114:\n        /* \"#utility.yul\":2730:2731   */\n      0x00\n        /* \"#utility.yul\":2755:2808   */\n      tag_116\n        /* \"#utility.yul\":2800:2807   */\n      dup9\n        /* \"#utility.yul\":2791:2797   */\n      dup3\n        /* \"#utility.yul\":2780:2789   */\n      dup10\n        /* \"#utility.yul\":2776:2798   */\n      add\n        /* \"#utility.yul\":2755:2808   */\n      tag_63\n      jump\t// in\n    tag_116:\n        /* \"#utility.yul\":2745:2808   */\n      swap6\n      pop\n        /* \"#utility.yul\":2701:2818   */\n      pop\n        /* \"#utility.yul\":2885:2887   */\n      0x20\n        /* \"#utility.yul\":2874:2883   */\n      dup7\n        /* \"#utility.yul\":2870:2888   */\n      add\n        /* \"#utility.yul\":2857:2889   */\n      calldataload\n        /* \"#utility.yul\":2916:2934   */\n      0xffffffffffffffff\n        /* \"#utility.yul\":2908:2914   */\n      dup2\n        /* \"#utility.yul\":2905:2935   */\n      gt\n        /* \"#utility.yul\":2902:3019   */\n      iszero\n      tag_117\n      jumpi\n        /* \"#utility.yul\":2938:3017   */\n      tag_118\n      tag_59\n      jump\t// in\n    tag_118:\n        /* \"#utility.yul\":2902:3019   */\n    tag_117:\n        /* \"#utility.yul\":3051:3131   */\n      tag_119\n        /* \"#utility.yul\":3123:3130   */\n      dup9\n        /* \"#utility.yul\":3114:3120   */\n      dup3\n        /* \"#utility.yul\":3103:3112   */\n      dup10\n        /* \"#utility.yul\":3099:3121   */\n      add\n        /* \"#utility.yul\":3051:3131   */\n      tag_67\n      jump\t// in\n    tag_119:\n        /* \"#utility.yul\":3033:3131   */\n      swap5\n      pop\n      swap5\n      pop\n        /* \"#utility.yul\":2828:3141   */\n      pop\n        /* \"#utility.yul\":3208:3210   */\n      0x40\n        /* \"#utility.yul\":3197:3206   */\n      dup7\n        /* \"#utility.yul\":3193:3211   */\n      add\n        /* \"#utility.yul\":3180:3212   */\n      calldataload\n        /* \"#utility.yul\":3239:3257   */\n      0xffffffffffffffff\n        /* \"#utility.yul\":3231:3237   */\n      dup2\n        /* \"#utility.yul\":3228:3258   */\n      gt\n        /* \"#utility.yul\":3225:3342   */\n      iszero\n      tag_120\n      jumpi\n        /* \"#utility.yul\":3261:3340   */\n      tag_121\n      tag_59\n      jump\t// in\n    tag_121:\n        /* \"#utility.yul\":3225:3342   */\n    tag_120:\n        /* \"#utility.yul\":3374:3454   */\n      tag_122\n        /* \"#utility.yul\":3446:3453   */\n      dup9\n        /* \"#utility.yul\":3437:3443   */\n      dup3\n        /* \"#utility.yul\":3426:3435   */\n      dup10\n        /* \"#utility.yul\":3422:3444   */\n      add\n        /* \"#utility.yul\":3374:3454   */\n      tag_68\n      jump\t// in\n    tag_122:\n        /* \"#utility.yul\":3356:3454   */\n      swap3\n      pop\n      swap3\n      pop\n        /* \"#utility.yul\":3151:3464   */\n      pop\n        /* \"#utility.yul\":2392:3471   */\n      swap3\n      swap6\n      pop\n      swap3\n      swap6\n      swap1\n      swap4\n      pop\n      jump\t// out\n        /* \"#utility.yul\":3477:4036   */\n    tag_11:\n        /* \"#utility.yul\":3563:3569   */\n      0x00\n        /* \"#utility.yul\":3571:3577   */\n      dup1\n        /* \"#utility.yul\":3620:3622   */\n      0x20\n        /* \"#utility.yul\":3608:3617   */\n      dup4\n        /* \"#utility.yul\":3599:3606   */\n      dup6\n        /* \"#utility.yul\":3595:3618   */\n      sub\n        /* \"#utility.yul\":3591:3623   */\n      slt\n        /* \"#utility.yul\":3588:3707   */\n      iszero\n      tag_124\n      jumpi\n        /* \"#utility.yul\":3626:3705   */\n      tag_125\n      tag_58\n      jump\t// in\n    tag_125:\n        /* \"#utility.yul\":3588:3707   */\n    tag_124:\n        /* \"#utility.yul\":3774:3775   */\n      0x00\n        /* \"#utility.yul\":3763:3772   */\n      dup4\n        /* \"#utility.yul\":3759:3776   */\n      add\n        /* \"#utility.yul\":3746:3777   */\n      calldataload\n        /* \"#utility.yul\":3804:3822   */\n      0xffffffffffffffff\n        /* \"#utility.yul\":3796:3802   */\n      dup2\n        /* \"#utility.yul\":3793:3823   */\n      gt\n        /* \"#utility.yul\":3790:3907   */\n      iszero\n      tag_126\n      jumpi\n        /* \"#utility.yul\":3826:3905   */\n      tag_127\n      tag_59\n      jump\t// in\n    tag_127:\n        /* \"#utility.yul\":3790:3907   */\n    tag_126:\n        /* \"#utility.yul\":3939:4019   */\n      tag_128\n        /* \"#utility.yul\":4011:4018   */\n      dup6\n        /* \"#utility.yul\":4002:4008   */\n      dup3\n        /* \"#utility.yul\":3991:4000   */\n      dup7\n        /* \"#utility.yul\":3987:4009   */\n      add\n        /* \"#utility.yul\":3939:4019   */\n      tag_68\n      jump\t// in\n    tag_128:\n        /* \"#utility.yul\":3921:4019   */\n      swap3\n      pop\n      swap3\n      pop\n        /* \"#utility.yul\":3717:4029   */\n      pop\n        /* \"#utility.yul\":3477:4036   */\n      swap3\n      pop\n      swap3\n      swap1\n      pop\n      jump\t// out\n        /* \"#utility.yul\":4042:4119   */\n    tag_69:\n        /* \"#utility.yul\":4079:4086   */\n      0x00\n        /* \"#utility.yul\":4108:4113   */\n      dup2\n        /* \"#utility.yul\":4097:4113   */\n      swap1\n      pop\n        /* \"#utility.yul\":4042:4119   */\n      swap2\n      swap1\n      pop\n      jump\t// out\n        /* \"#utility.yul\":4125:4243   */\n    tag_70:\n        /* \"#utility.yul\":4212:4236   */\n      tag_131\n        /* \"#utility.yul\":4230:4235   */\n      dup2\n        /* \"#utility.yul\":4212:4236   */\n      tag_69\n      jump\t// in\n    tag_131:\n        /* \"#utility.yul\":4207:4210   */\n      dup3\n        /* \"#utility.yul\":4200:4237   */\n      mstore\n        /* \"#utility.yul\":4125:4243   */\n      pop\n      pop\n      jump\t// out\n        /* \"#utility.yul\":4249:4471   */\n    tag_14:\n        /* \"#utility.yul\":4342:4346   */\n      0x00\n        /* \"#utility.yul\":4380:4382   */\n      0x20\n        /* \"#utility.yul\":4369:4378   */\n      dup3\n        /* \"#utility.yul\":4365:4383   */\n      add\n        /* \"#utility.yul\":4357:4383   */\n      swap1\n      pop\n        /* \"#utility.yul\":4393:4464   */\n      tag_133\n        /* \"#utility.yul\":4461:4462   */\n      0x00\n        /* \"#utility.yul\":4450:4459   */\n      dup4\n        /* \"#utility.yul\":4446:4463   */\n      add\n        /* \"#utility.yul\":4437:4443   */\n      dup5\n        /* \"#utility.yul\":4393:4464   */\n      tag_70\n      jump\t// in\n    tag_133:\n        /* \"#utility.yul\":4249:4471   */\n      swap3\n      swap2\n      pop\n      pop\n      jump\t// out\n        /* \"#utility.yul\":4477:4646   */\n    tag_71:\n        /* \"#utility.yul\":4561:4572   */\n      0x00\n        /* \"#utility.yul\":4595:4601   */\n      dup3\n        /* \"#utility.yul\":4590:4593   */\n      dup3\n        /* \"#utility.yul\":4583:4602   */\n      mstore\n        /* \"#utility.yul\":4635:4639   */\n      0x20\n        /* \"#utility.yul\":4630:4633   */\n      dup3\n        /* \"#utility.yul\":4626:4640   */\n      add\n        /* \"#utility.yul\":4611:4640   */\n      swap1\n      pop\n        /* \"#utility.yul\":4477:4646   */\n      swap3\n      swap2\n      pop\n      pop\n      jump\t// out\n        /* \"#utility.yul\":4652:4881   */\n    tag_72:\n        /* \"#utility.yul\":4792:4826   */\n      0x4c656e67746873206f662041646472657373657320616e6420416d6f756e7473\n        /* \"#utility.yul\":4788:4789   */\n      0x00\n        /* \"#utility.yul\":4780:4786   */\n      dup3\n        /* \"#utility.yul\":4776:4790   */\n      add\n        /* \"#utility.yul\":4769:4827   */\n      mstore\n        /* \"#utility.yul\":4861:4873   */\n      0x204e4f5420455155414c00000000000000000000000000000000000000000000\n        /* \"#utility.yul\":4856:4858   */\n      0x20\n        /* \"#utility.yul\":4848:4854   */\n      dup3\n        /* \"#utility.yul\":4844:4859   */\n      add\n        /* \"#utility.yul\":4837:4874   */\n      mstore\n        /* \"#utility.yul\":4652:4881   */\n      pop\n      jump\t// out\n        /* \"#utility.yul\":4887:5253   */\n    tag_73:\n        /* \"#utility.yul\":5029:5032   */\n      0x00\n        /* \"#utility.yul\":5050:5117   */\n      tag_137\n        /* \"#utility.yul\":5114:5116   */\n      0x2a\n        /* \"#utility.yul\":5109:5112   */\n      dup4\n        /* \"#utility.yul\":5050:5117   */\n      tag_71\n      jump\t// in\n    tag_137:\n        /* \"#utility.yul\":5043:5117   */\n      swap2\n      pop\n        /* \"#utility.yul\":5126:5219   */\n      tag_138\n        /* \"#utility.yul\":5215:5218   */\n      dup3\n        /* \"#utility.yul\":5126:5219   */\n      tag_72\n      jump\t// in\n    tag_138:\n        /* \"#utility.yul\":5244:5246   */\n      0x40\n        /* \"#utility.yul\":5239:5242   */\n      dup3\n        /* \"#utility.yul\":5235:5247   */\n      add\n        /* \"#utility.yul\":5228:5247   */\n      swap1\n      pop\n        /* \"#utility.yul\":4887:5253   */\n      swap2\n      swap1\n      pop\n      jump\t// out\n        /* \"#utility.yul\":5259:5678   */\n    tag_18:\n        /* \"#utility.yul\":5425:5429   */\n      0x00\n        /* \"#utility.yul\":5463:5465   */\n      0x20\n        /* \"#utility.yul\":5452:5461   */\n      dup3\n        /* \"#utility.yul\":5448:5466   */\n      add\n        /* \"#utility.yul\":5440:5466   */\n      swap1\n      pop\n        /* \"#utility.yul\":5512:5521   */\n      dup2\n        /* \"#utility.yul\":5506:5510   */\n      dup2\n        /* \"#utility.yul\":5502:5522   */\n      sub\n        /* \"#utility.yul\":5498:5499   */\n      0x00\n        /* \"#utility.yul\":5487:5496   */\n      dup4\n        /* \"#utility.yul\":5483:5500   */\n      add\n        /* \"#utility.yul\":5476:5523   */\n      mstore\n        /* \"#utility.yul\":5540:5671   */\n      tag_140\n        /* \"#utility.yul\":5666:5670   */\n      dup2\n        /* \"#utility.yul\":5540:5671   */\n      tag_73\n      jump\t// in\n    tag_140:\n        /* \"#utility.yul\":5532:5671   */\n      swap1\n      pop\n        /* \"#utility.yul\":5259:5678   */\n      swap2\n      swap1\n      pop\n      jump\t// out\n        /* \"#utility.yul\":5684:5802   */\n    tag_74:\n        /* \"#utility.yul\":5771:5795   */\n      tag_142\n        /* \"#utility.yul\":5789:5794   */\n      dup2\n        /* \"#utility.yul\":5771:5795   */\n      tag_61\n      jump\t// in\n    tag_142:\n        /* \"#utility.yul\":5766:5769   */\n      dup3\n        /* \"#utility.yul\":5759:5796   */\n      mstore\n        /* \"#utility.yul\":5684:5802   */\n      pop\n      pop\n      jump\t// out\n        /* \"#utility.yul\":5808:6140   */\n    tag_21:\n        /* \"#utility.yul\":5929:5933   */\n      0x00\n        /* \"#utility.yul\":5967:5969   */\n      0x40\n        /* \"#utility.yul\":5956:5965   */\n      dup3\n        /* \"#utility.yul\":5952:5970   */\n      add\n        /* \"#utility.yul\":5944:5970   */\n      swap1\n      pop\n        /* \"#utility.yul\":5980:6051   */\n      tag_144\n        /* \"#utility.yul\":6048:6049   */\n      0x00\n        /* \"#utility.yul\":6037:6046   */\n      dup4\n        /* \"#utility.yul\":6033:6050   */\n      add\n        /* \"#utility.yul\":6024:6030   */\n      dup6\n        /* \"#utility.yul\":5980:6051   */\n      tag_74\n      jump\t// in\n    tag_144:\n        /* \"#utility.yul\":6061:6133   */\n      tag_145\n        /* \"#utility.yul\":6129:6131   */\n      0x20\n        /* \"#utility.yul\":6118:6127   */\n      dup4\n        /* \"#utility.yul\":6114:6132   */\n      add\n        /* \"#utility.yul\":6105:6111   */\n      dup5\n        /* \"#utility.yul\":6061:6133   */\n      tag_74\n      jump\t// in\n    tag_145:\n        /* \"#utility.yul\":5808:6140   */\n      swap4\n      swap3\n      pop\n      pop\n      pop\n      jump\t// out\n        /* \"#utility.yul\":6146:6268   */\n    tag_75:\n        /* \"#utility.yul\":6219:6243   */\n      tag_147\n        /* \"#utility.yul\":6237:6242   */\n      dup2\n        /* \"#utility.yul\":6219:6243   */\n      tag_69\n      jump\t// in\n    tag_147:\n        /* \"#utility.yul\":6212:6217   */\n      dup2\n        /* \"#utility.yul\":6209:6244   */\n      eq\n        /* \"#utility.yul\":6199:6262   */\n      tag_148\n      jumpi\n        /* \"#utility.yul\":6258:6259   */\n      0x00\n        /* \"#utility.yul\":6255:6256   */\n      dup1\n        /* \"#utility.yul\":6248:6260   */\n      revert\n        /* \"#utility.yul\":6199:6262   */\n    tag_148:\n        /* \"#utility.yul\":6146:6268   */\n      pop\n      jump\t// out\n        /* \"#utility.yul\":6274:6417   */\n    tag_76:\n        /* \"#utility.yul\":6331:6336   */\n      0x00\n        /* \"#utility.yul\":6362:6368   */\n      dup2\n        /* \"#utility.yul\":6356:6369   */\n      mload\n        /* \"#utility.yul\":6347:6369   */\n      swap1\n      pop\n        /* \"#utility.yul\":6378:6411   */\n      tag_150\n        /* \"#utility.yul\":6405:6410   */\n      dup2\n        /* \"#utility.yul\":6378:6411   */\n      tag_75\n      jump\t// in\n    tag_150:\n        /* \"#utility.yul\":6274:6417   */\n      swap3\n      swap2\n      pop\n      pop\n      jump\t// out\n        /* \"#utility.yul\":6423:6774   */\n    tag_25:\n        /* \"#utility.yul\":6493:6499   */\n      0x00\n        /* \"#utility.yul\":6542:6544   */\n      0x20\n        /* \"#utility.yul\":6530:6539   */\n      dup3\n        /* \"#utility.yul\":6521:6528   */\n      dup5\n        /* \"#utility.yul\":6517:6540   */\n      sub\n        /* \"#utility.yul\":6513:6545   */\n      slt\n        /* \"#utility.yul\":6510:6629   */\n      iszero\n      tag_152\n      jumpi\n        /* \"#utility.yul\":6548:6627   */\n      tag_153\n      tag_58\n      jump\t// in\n    tag_153:\n        /* \"#utility.yul\":6510:6629   */\n    tag_152:\n        /* \"#utility.yul\":6668:6669   */\n      0x00\n        /* \"#utility.yul\":6693:6757   */\n      tag_154\n        /* \"#utility.yul\":6749:6756   */\n      dup5\n        /* \"#utility.yul\":6740:6746   */\n      dup3\n        /* \"#utility.yul\":6729:6738   */\n      dup6\n        /* \"#utility.yul\":6725:6747   */\n      add\n        /* \"#utility.yul\":6693:6757   */\n      tag_76\n      jump\t// in\n    tag_154:\n        /* \"#utility.yul\":6683:6757   */\n      swap2\n      pop\n        /* \"#utility.yul\":6639:6767   */\n      pop\n        /* \"#utility.yul\":6423:6774   */\n      swap3\n      swap2\n      pop\n      pop\n      jump\t// out\n        /* \"#utility.yul\":6780:6954   */\n    tag_77:\n        /* \"#utility.yul\":6920:6946   */\n      0x4e65656420417070726f766520455243323020746f6b656e0000000000000000\n        /* \"#utility.yul\":6916:6917   */\n      0x00\n        /* \"#utility.yul\":6908:6914   */\n      dup3\n        /* \"#utility.yul\":6904:6918   */\n      add\n        /* \"#utility.yul\":6897:6947   */\n      mstore\n        /* \"#utility.yul\":6780:6954   */\n      pop\n      jump\t// out\n        /* \"#utility.yul\":6960:7326   */\n    tag_78:\n        /* \"#utility.yul\":7102:7105   */\n      0x00\n        /* \"#utility.yul\":7123:7190   */\n      tag_157\n        /* \"#utility.yul\":7187:7189   */\n      0x18\n        /* \"#utility.yul\":7182:7185   */\n      dup4\n        /* \"#utility.yul\":7123:7190   */\n      tag_71\n      jump\t// in\n    tag_157:\n        /* \"#utility.yul\":7116:7190   */\n      swap2\n      pop\n        /* \"#utility.yul\":7199:7292   */\n      tag_158\n        /* \"#utility.yul\":7288:7291   */\n      dup3\n        /* \"#utility.yul\":7199:7292   */\n      tag_77\n      jump\t// in\n    tag_158:\n        /* \"#utility.yul\":7317:7319   */\n      0x20\n        /* \"#utility.yul\":7312:7315   */\n      dup3\n        /* \"#utility.yul\":7308:7320   */\n      add\n        /* \"#utility.yul\":7301:7320   */\n      swap1\n      pop\n        /* \"#utility.yul\":6960:7326   */\n      swap2\n      swap1\n      pop\n      jump\t// out\n        /* \"#utility.yul\":7332:7751   */\n    tag_28:\n        /* \"#utility.yul\":7498:7502   */\n      0x00\n        /* \"#utility.yul\":7536:7538   */\n      0x20\n        /* \"#utility.yul\":7525:7534   */\n      dup3\n        /* \"#utility.yul\":7521:7539   */\n      add\n        /* \"#utility.yul\":7513:7539   */\n      swap1\n      pop\n        /* \"#utility.yul\":7585:7594   */\n      dup2\n        /* \"#utility.yul\":7579:7583   */\n      dup2\n        /* \"#utility.yul\":7575:7595   */\n      sub\n        /* \"#utility.yul\":7571:7572   */\n      0x00\n        /* \"#utility.yul\":7560:7569   */\n      dup4\n        /* \"#utility.yul\":7556:7573   */\n      add\n        /* \"#utility.yul\":7549:7596   */\n      mstore\n        /* \"#utility.yul\":7613:7744   */\n      tag_160\n        /* \"#utility.yul\":7739:7743   */\n      dup2\n        /* \"#utility.yul\":7613:7744   */\n      tag_78\n      jump\t// in\n    tag_160:\n        /* \"#utility.yul\":7605:7744   */\n      swap1\n      pop\n        /* \"#utility.yul\":7332:7751   */\n      swap2\n      swap1\n      pop\n      jump\t// out\n        /* \"#utility.yul\":7757:7937   */\n    tag_34:\n        /* \"#utility.yul\":7805:7882   */\n      0x4e487b7100000000000000000000000000000000000000000000000000000000\n        /* \"#utility.yul\":7802:7803   */\n      0x00\n        /* \"#utility.yul\":7795:7883   */\n      mstore\n        /* \"#utility.yul\":7902:7906   */\n      0x32\n        /* \"#utility.yul\":7899:7900   */\n      0x04\n        /* \"#utility.yul\":7892:7907   */\n      mstore\n        /* \"#utility.yul\":7926:7930   */\n      0x24\n        /* \"#utility.yul\":7923:7924   */\n      0x00\n        /* \"#utility.yul\":7916:7931   */\n      revert\n        /* \"#utility.yul\":7943:8272   */\n    tag_36:\n        /* \"#utility.yul\":8002:8008   */\n      0x00\n        /* \"#utility.yul\":8051:8053   */\n      0x20\n        /* \"#utility.yul\":8039:8048   */\n      dup3\n        /* \"#utility.yul\":8030:8037   */\n      dup5\n        /* \"#utility.yul\":8026:8049   */\n      sub\n        /* \"#utility.yul\":8022:8054   */\n      slt\n        /* \"#utility.yul\":8019:8138   */\n      iszero\n      tag_163\n      jumpi\n        /* \"#utility.yul\":8057:8136   */\n      tag_164\n      tag_58\n      jump\t// in\n    tag_164:\n        /* \"#utility.yul\":8019:8138   */\n    tag_163:\n        /* \"#utility.yul\":8177:8178   */\n      0x00\n        /* \"#utility.yul\":8202:8255   */\n      tag_165\n        /* \"#utility.yul\":8247:8254   */\n      dup5\n        /* \"#utility.yul\":8238:8244   */\n      dup3\n        /* \"#utility.yul\":8227:8236   */\n      dup6\n        /* \"#utility.yul\":8223:8245   */\n      add\n        /* \"#utility.yul\":8202:8255   */\n      tag_63\n      jump\t// in\n    tag_165:\n        /* \"#utility.yul\":8192:8255   */\n      swap2\n      pop\n        /* \"#utility.yul\":8148:8265   */\n      pop\n        /* \"#utility.yul\":7943:8272   */\n      swap3\n      swap2\n      pop\n      pop\n      jump\t// out\n        /* \"#utility.yul\":8278:8720   */\n    tag_40:\n        /* \"#utility.yul\":8427:8431   */\n      0x00\n        /* \"#utility.yul\":8465:8467   */\n      0x60\n        /* \"#utility.yul\":8454:8463   */\n      dup3\n        /* \"#utility.yul\":8450:8468   */\n      add\n        /* \"#utility.yul\":8442:8468   */\n      swap1\n      pop\n        /* \"#utility.yul\":8478:8549   */\n      tag_167\n        /* \"#utility.yul\":8546:8547   */\n      0x00\n        /* \"#utility.yul\":8535:8544   */\n      dup4\n        /* \"#utility.yul\":8531:8548   */\n      add\n        /* \"#utility.yul\":8522:8528   */\n      dup7\n        /* \"#utility.yul\":8478:8549   */\n      tag_74\n      jump\t// in\n    tag_167:\n        /* \"#utility.yul\":8559:8631   */\n      tag_168\n        /* \"#utility.yul\":8627:8629   */\n      0x20\n        /* \"#utility.yul\":8616:8625   */\n      dup4\n        /* \"#utility.yul\":8612:8630   */\n      add\n        /* \"#utility.yul\":8603:8609   */\n      dup6\n        /* \"#utility.yul\":8559:8631   */\n      tag_74\n      jump\t// in\n    tag_168:\n        /* \"#utility.yul\":8641:8713   */\n      tag_169\n        /* \"#utility.yul\":8709:8711   */\n      0x40\n        /* \"#utility.yul\":8698:8707   */\n      dup4\n        /* \"#utility.yul\":8694:8712   */\n      add\n        /* \"#utility.yul\":8685:8691   */\n      dup5\n        /* \"#utility.yul\":8641:8713   */\n      tag_70\n      jump\t// in\n    tag_169:\n        /* \"#utility.yul\":8278:8720   */\n      swap5\n      swap4\n      pop\n      pop\n      pop\n      pop\n      jump\t// out\n        /* \"#utility.yul\":8726:8816   */\n    tag_79:\n        /* \"#utility.yul\":8760:8767   */\n      0x00\n        /* \"#utility.yul\":8803:8808   */\n      dup2\n        /* \"#utility.yul\":8796:8809   */\n      iszero\n        /* \"#utility.yul\":8789:8810   */\n      iszero\n        /* \"#utility.yul\":8778:8810   */\n      swap1\n      pop\n        /* \"#utility.yul\":8726:8816   */\n      swap2\n      swap1\n      pop\n      jump\t// out\n        /* \"#utility.yul\":8822:8938   */\n    tag_80:\n        /* \"#utility.yul\":8892:8913   */\n      tag_172\n        /* \"#utility.yul\":8907:8912   */\n      dup2\n        /* \"#utility.yul\":8892:8913   */\n      tag_79\n      jump\t// in\n    tag_172:\n        /* \"#utility.yul\":8885:8890   */\n      dup2\n        /* \"#utility.yul\":8882:8914   */\n      eq\n        /* \"#utility.yul\":8872:8932   */\n      tag_173\n      jumpi\n        /* \"#utility.yul\":8928:8929   */\n      0x00\n        /* \"#utility.yul\":8925:8926   */\n      dup1\n        /* \"#utility.yul\":8918:8930   */\n      revert\n        /* \"#utility.yul\":8872:8932   */\n    tag_173:\n        /* \"#utility.yul\":8822:8938   */\n      pop\n      jump\t// out\n        /* \"#utility.yul\":8944:9081   */\n    tag_81:\n        /* \"#utility.yul\":8998:9003   */\n      0x00\n        /* \"#utility.yul\":9029:9035   */\n      dup2\n        /* \"#utility.yul\":9023:9036   */\n      mload\n        /* \"#utility.yul\":9014:9036   */\n      swap1\n      pop\n        /* \"#utility.yul\":9045:9075   */\n      tag_175\n        /* \"#utility.yul\":9069:9074   */\n      dup2\n        /* \"#utility.yul\":9045:9075   */\n      tag_80\n      jump\t// in\n    tag_175:\n        /* \"#utility.yul\":8944:9081   */\n      swap3\n      swap2\n      pop\n      pop\n      jump\t// out\n        /* \"#utility.yul\":9087:9432   */\n    tag_44:\n        /* \"#utility.yul\":9154:9160   */\n      0x00\n        /* \"#utility.yul\":9203:9205   */\n      0x20\n        /* \"#utility.yul\":9191:9200   */\n      dup3\n        /* \"#utility.yul\":9182:9189   */\n      dup5\n        /* \"#utility.yul\":9178:9201   */\n      sub\n        /* \"#utility.yul\":9174:9206   */\n      slt\n        /* \"#utility.yul\":9171:9290   */\n      iszero\n      tag_177\n      jumpi\n        /* \"#utility.yul\":9209:9288   */\n      tag_178\n      tag_58\n      jump\t// in\n    tag_178:\n        /* \"#utility.yul\":9171:9290   */\n    tag_177:\n        /* \"#utility.yul\":9329:9330   */\n      0x00\n        /* \"#utility.yul\":9354:9415   */\n      tag_179\n        /* \"#utility.yul\":9407:9414   */\n      dup5\n        /* \"#utility.yul\":9398:9404   */\n      dup3\n        /* \"#utility.yul\":9387:9396   */\n      dup6\n        /* \"#utility.yul\":9383:9405   */\n      add\n        /* \"#utility.yul\":9354:9415   */\n      tag_81\n      jump\t// in\n    tag_179:\n        /* \"#utility.yul\":9344:9415   */\n      swap2\n      pop\n        /* \"#utility.yul\":9300:9425   */\n      pop\n        /* \"#utility.yul\":9087:9432   */\n      swap3\n      swap2\n      pop\n      pop\n      jump\t// out\n        /* \"#utility.yul\":9438:9618   */\n    tag_82:\n        /* \"#utility.yul\":9486:9563   */\n      0x4e487b7100000000000000000000000000000000000000000000000000000000\n        /* \"#utility.yul\":9483:9484   */\n      0x00\n        /* \"#utility.yul\":9476:9564   */\n      mstore\n        /* \"#utility.yul\":9583:9587   */\n      0x11\n        /* \"#utility.yul\":9580:9581   */\n      0x04\n        /* \"#utility.yul\":9573:9588   */\n      mstore\n        /* \"#utility.yul\":9607:9611   */\n      0x24\n        /* \"#utility.yul\":9604:9605   */\n      0x00\n        /* \"#utility.yul\":9597:9612   */\n      revert\n        /* \"#utility.yul\":9624:9710   */\n    tag_83:\n        /* \"#utility.yul\":9659:9666   */\n      0x00\n        /* \"#utility.yul\":9699:9703   */\n      0xff\n        /* \"#utility.yul\":9692:9697   */\n      dup3\n        /* \"#utility.yul\":9688:9704   */\n      and\n        /* \"#utility.yul\":9677:9704   */\n      swap1\n      pop\n        /* \"#utility.yul\":9624:9710   */\n      swap2\n      swap1\n      pop\n      jump\t// out\n        /* \"#utility.yul\":9716:9883   */\n    tag_46:\n        /* \"#utility.yul\":9753:9756   */\n      0x00\n        /* \"#utility.yul\":9776:9798   */\n      tag_183\n        /* \"#utility.yul\":9792:9797   */\n      dup3\n        /* \"#utility.yul\":9776:9798   */\n      tag_83\n      jump\t// in\n    tag_183:\n        /* \"#utility.yul\":9767:9798   */\n      swap2\n      pop\n        /* \"#utility.yul\":9820:9824   */\n      0xff\n        /* \"#utility.yul\":9813:9818   */\n      dup3\n        /* \"#utility.yul\":9810:9825   */\n      sub\n        /* \"#utility.yul\":9807:9848   */\n      tag_184\n      jumpi\n        /* \"#utility.yul\":9828:9846   */\n      tag_185\n      tag_82\n      jump\t// in\n    tag_185:\n        /* \"#utility.yul\":9807:9848   */\n    tag_184:\n        /* \"#utility.yul\":9875:9876   */\n      0x01\n        /* \"#utility.yul\":9868:9873   */\n      dup3\n        /* \"#utility.yul\":9864:9877   */\n      add\n        /* \"#utility.yul\":9857:9877   */\n      swap1\n      pop\n        /* \"#utility.yul\":9716:9883   */\n      swap2\n      swap1\n      pop\n      jump\t// out\n        /* \"#utility.yul\":9889:10080   */\n    tag_54:\n        /* \"#utility.yul\":9929:9932   */\n      0x00\n        /* \"#utility.yul\":9948:9968   */\n      tag_187\n        /* \"#utility.yul\":9966:9967   */\n      dup3\n        /* \"#utility.yul\":9948:9968   */\n      tag_69\n      jump\t// in\n    tag_187:\n        /* \"#utility.yul\":9943:9968   */\n      swap2\n      pop\n        /* \"#utility.yul\":9982:10002   */\n      tag_188\n        /* \"#utility.yul\":10000:10001   */\n      dup4\n        /* \"#utility.yul\":9982:10002   */\n      tag_69\n      jump\t// in\n    tag_188:\n        /* \"#utility.yul\":9977:10002   */\n      swap3\n      pop\n        /* \"#utility.yul\":10025:10026   */\n      dup3\n        /* \"#utility.yul\":10022:10023   */\n      dup3\n        /* \"#utility.yul\":10018:10027   */\n      add\n        /* \"#utility.yul\":10011:10027   */\n      swap1\n      pop\n        /* \"#utility.yul\":10046:10049   */\n      dup1\n        /* \"#utility.yul\":10043:10044   */\n      dup3\n        /* \"#utility.yul\":10040:10050   */\n      gt\n        /* \"#utility.yul\":10037:10073   */\n      iszero\n      tag_189\n      jumpi\n        /* \"#utility.yul\":10053:10071   */\n      tag_190\n      tag_82\n      jump\t// in\n    tag_190:\n        /* \"#utility.yul\":10037:10073   */\n    tag_189:\n        /* \"#utility.yul\":9889:10080   */\n      swap3\n      swap2\n      pop\n      pop\n      jump\t// out\n        /* \"#utility.yul\":10086:10319   */\n    tag_56:\n        /* \"#utility.yul\":10125:10128   */\n      0x00\n        /* \"#utility.yul\":10148:10172   */\n      tag_192\n        /* \"#utility.yul\":10166:10171   */\n      dup3\n        /* \"#utility.yul\":10148:10172   */\n      tag_69\n      jump\t// in\n    tag_192:\n        /* \"#utility.yul\":10139:10172   */\n      swap2\n      pop\n        /* \"#utility.yul\":10194:10260   */\n      0xffffffffffffffffffffffffffffffffffffffffffffffffffffffffffffffff\n        /* \"#utility.yul\":10187:10192   */\n      dup3\n        /* \"#utility.yul\":10184:10261   */\n      sub\n        /* \"#utility.yul\":10181:10284   */\n      tag_193\n      jumpi\n        /* \"#utility.yul\":10264:10282   */\n      tag_194\n      tag_82\n      jump\t// in\n    tag_194:\n        /* \"#utility.yul\":10181:10284   */\n    tag_193:\n        /* \"#utility.yul\":10311:10312   */\n      0x01\n        /* \"#utility.yul\":10304:10309   */\n      dup3\n        /* \"#utility.yul\":10300:10313   */\n      add\n        /* \"#utility.yul\":10293:10313   */\n      swap1\n      pop\n        /* \"#utility.yul\":10086:10319   */\n      swap2\n      swap1\n      pop\n      jump\t// out\n\n    auxdata: 0xa26469706673582212200d9fccdbc6dd3f4eae88a70c3bc470b185709ceceb12c042a0d603b147a8179764736f6c63430008120033\n}\n",
				"bytecode": {
					"linkReferences": {},
					"object": "608060405234801561001057600080fd5b506108d1806100206000396000f3fe6080604052600436106100295760003560e01c806341ed24a21461002e578063ccb8c1e01461004a575b600080fd5b6100486004803603810190610043919061040c565b610087565b005b34801561005657600080fd5b50610071600480360381019061006c91906104a1565b610295565b60405161007e9190610507565b60405180910390f35b8181905084849050146100cf576040517f08c379a00000000000000000000000000000000000000000000000000000000081526004016100c6906105a5565b60405180910390fd5b600085905060006100e08484610295565b9050808273ffffffffffffffffffffffffffffffffffffffff1663dd62ed3e33306040518363ffffffff1660e01b815260040161011e9291906105d4565b602060405180830381865afa15801561013b573d6000803e3d6000fd5b505050506040513d601f19601f8201168201806040525081019061015f9190610629565b10156101a0576040517f08c379a0000000000000000000000000000000000000000000000000000000008152600401610197906106a2565b60405180910390fd5b60005b868690508160ff16101561028b578273ffffffffffffffffffffffffffffffffffffffff166323b872dd3389898560ff168181106101e4576101e36106c2565b5b90506020020160208101906101f991906106f1565b88888660ff1681811061020f5761020e6106c2565b5b905060200201356040518463ffffffff1660e01b81526004016102349392919061071e565b6020604051808303816000875af1158015610253573d6000803e3d6000fd5b505050506040513d601f19601f82011682018060405250810190610277919061078d565b508080610283906107f6565b9150506101a3565b5050505050505050565b600080600090505b838390508110156102e2578383828181106102bb576102ba6106c2565b5b90506020020135826102cd919061081f565b915080806102da90610853565b91505061029d565b5092915050565b600080fd5b600080fd5b600073ffffffffffffffffffffffffffffffffffffffff82169050919050565b600061031e826102f3565b9050919050565b61032e81610313565b811461033957600080fd5b50565b60008135905061034b81610325565b92915050565b600080fd5b600080fd5b600080fd5b60008083601f84011261037657610375610351565b5b8235905067ffffffffffffffff81111561039357610392610356565b5b6020830191508360208202830111156103af576103ae61035b565b5b9250929050565b60008083601f8401126103cc576103cb610351565b5b8235905067ffffffffffffffff8111156103e9576103e8610356565b5b6020830191508360208202830111156104055761040461035b565b5b9250929050565b600080600080600060608688031215610428576104276102e9565b5b60006104368882890161033c565b955050602086013567ffffffffffffffff811115610457576104566102ee565b5b61046388828901610360565b9450945050604086013567ffffffffffffffff811115610486576104856102ee565b5b610492888289016103b6565b92509250509295509295909350565b600080602083850312156104b8576104b76102e9565b5b600083013567ffffffffffffffff8111156104d6576104d56102ee565b5b6104e2858286016103b6565b92509250509250929050565b6000819050919050565b610501816104ee565b82525050565b600060208201905061051c60008301846104f8565b92915050565b600082825260208201905092915050565b7f4c656e67746873206f662041646472657373657320616e6420416d6f756e747360008201527f204e4f5420455155414c00000000000000000000000000000000000000000000602082015250565b600061058f602a83610522565b915061059a82610533565b604082019050919050565b600060208201905081810360008301526105be81610582565b9050919050565b6105ce81610313565b82525050565b60006040820190506105e960008301856105c5565b6105f660208301846105c5565b9392505050565b610606816104ee565b811461061157600080fd5b50565b600081519050610623816105fd565b92915050565b60006020828403121561063f5761063e6102e9565b5b600061064d84828501610614565b91505092915050565b7f4e65656420417070726f766520455243323020746f6b656e0000000000000000600082015250565b600061068c601883610522565b915061069782610656565b602082019050919050565b600060208201905081810360008301526106bb8161067f565b9050919050565b7f4e487b7100000000000000000000000000000000000000000000000000000000600052603260045260246000fd5b600060208284031215610707576107066102e9565b5b60006107158482850161033c565b91505092915050565b600060608201905061073360008301866105c5565b61074060208301856105c5565b61074d60408301846104f8565b949350505050565b60008115159050919050565b61076a81610755565b811461077557600080fd5b50565b60008151905061078781610761565b92915050565b6000602082840312156107a3576107a26102e9565b5b60006107b184828501610778565b91505092915050565b7f4e487b7100000000000000000000000000000000000000000000000000000000600052601160045260246000fd5b600060ff82169050919050565b6000610801826107e9565b915060ff8203610814576108136107ba565b5b600182019050919050565b600061082a826104ee565b9150610835836104ee565b925082820190508082111561084d5761084c6107ba565b5b92915050565b600061085e826104ee565b91507fffffffffffffffffffffffffffffffffffffffffffffffffffffffffffffffff82036108905761088f6107ba565b5b60018201905091905056fea26469706673582212200d9fccdbc6dd3f4eae88a70c3bc470b185709ceceb12c042a0d603b147a8179764736f6c63430008120033",
					"opcodes": "PUSH1 0x80 PUSH1 0x40 MSTORE CALLVALUE DUP1 ISZERO PUSH2 0x10 JUMPI PUSH1 0x0 DUP1 REVERT JUMPDEST POP PUSH2 0x8D1 DUP1 PUSH2 0x20 PUSH1 0x0 CODECOPY PUSH1 0x0 RETURN INVALID PUSH1 0x80 PUSH1 0x40 MSTORE PUSH1 0x4 CALLDATASIZE LT PUSH2 0x29 JUMPI PUSH1 0x0 CALLDATALOAD PUSH1 0xE0 SHR DUP1 PUSH4 0x41ED24A2 EQ PUSH2 0x2E JUMPI DUP1 PUSH4 0xCCB8C1E0 EQ PUSH2 0x4A JUMPI JUMPDEST PUSH1 0x0 DUP1 REVERT JUMPDEST PUSH2 0x48 PUSH1 0x4 DUP1 CALLDATASIZE SUB DUP2 ADD SWAP1 PUSH2 0x43 SWAP2 SWAP1 PUSH2 0x40C JUMP JUMPDEST PUSH2 0x87 JUMP JUMPDEST STOP JUMPDEST CALLVALUE DUP1 ISZERO PUSH2 0x56 JUMPI PUSH1 0x0 DUP1 REVERT JUMPDEST POP PUSH2 0x71 PUSH1 0x4 DUP1 CALLDATASIZE SUB DUP2 ADD SWAP1 PUSH2 0x6C SWAP2 SWAP1 PUSH2 0x4A1 JUMP JUMPDEST PUSH2 0x295 JUMP JUMPDEST PUSH1 0x40 MLOAD PUSH2 0x7E SWAP2 SWAP1 PUSH2 0x507 JUMP JUMPDEST PUSH1 0x40 MLOAD DUP1 SWAP2 SUB SWAP1 RETURN JUMPDEST DUP2 DUP2 SWAP1 POP DUP5 DUP5 SWAP1 POP EQ PUSH2 0xCF JUMPI PUSH1 0x40 MLOAD PUSH32 0x8C379A000000000000000000000000000000000000000000000000000000000 DUP2 MSTORE PUSH1 0x4 ADD PUSH2 0xC6 SWAP1 PUSH2 0x5A5 JUMP JUMPDEST PUSH1 0x40 MLOAD DUP1 SWAP2 SUB SWAP1 REVERT JUMPDEST PUSH1 0x0 DUP6 SWAP1 POP PUSH1 0x0 PUSH2 0xE0 DUP5 DUP5 PUSH2 0x295 JUMP JUMPDEST SWAP1 POP DUP1 DUP3 PUSH20 0xFFFFFFFFFFFFFFFFFFFFFFFFFFFFFFFFFFFFFFFF AND PUSH4 0xDD62ED3E CALLER ADDRESS PUSH1 0x40 MLOAD DUP4 PUSH4 0xFFFFFFFF AND PUSH1 0xE0 SHL DUP2 MSTORE PUSH1 0x4 ADD PUSH2 0x11E SWAP3 SWAP2 SWAP1 PUSH2 0x5D4 JUMP JUMPDEST PUSH1 0x20 PUSH1 0x40 MLOAD DUP1 DUP4 SUB DUP2 DUP7 GAS STATICCALL ISZERO DUP1 ISZERO PUSH2 0x13B JUMPI RETURNDATASIZE PUSH1 0x0 DUP1 RETURNDATACOPY RETURNDATASIZE PUSH1 0x0 REVERT JUMPDEST POP POP POP POP PUSH1 0x40 MLOAD RETURNDATASIZE PUSH1 0x1F NOT PUSH1 0x1F DUP3 ADD AND DUP3 ADD DUP1 PUSH1 0x40 MSTORE POP DUP2 ADD SWAP1 PUSH2 0x15F SWAP2 SWAP1 PUSH2 0x629 JUMP JUMPDEST LT ISZERO PUSH2 0x1A0 JUMPI PUSH1 0x40 MLOAD PUSH32 0x8C379A000000000000000000000000000000000000000000000000000000000 DUP2 MSTORE PUSH1 0x4 ADD PUSH2 0x197 SWAP1 PUSH2 0x6A2 JUMP JUMPDEST PUSH1 0x40 MLOAD DUP1 SWAP2 SUB SWAP1 REVERT JUMPDEST PUSH1 0x0 JUMPDEST DUP7 DUP7 SWAP1 POP DUP2 PUSH1 0xFF AND LT ISZERO PUSH2 0x28B JUMPI DUP3 PUSH20 0xFFFFFFFFFFFFFFFFFFFFFFFFFFFFFFFFFFFFFFFF AND PUSH4 0x23B872DD CALLER DUP10 DUP10 DUP6 PUSH1 0xFF AND DUP2 DUP2 LT PUSH2 0x1E4 JUMPI PUSH2 0x1E3 PUSH2 0x6C2 JUMP JUMPDEST JUMPDEST SWAP1 POP PUSH1 0x20 MUL ADD PUSH1 0x20 DUP2 ADD SWAP1 PUSH2 0x1F9 SWAP2 SWAP1 PUSH2 0x6F1 JUMP JUMPDEST DUP9 DUP9 DUP7 PUSH1 0xFF AND DUP2 DUP2 LT PUSH2 0x20F JUMPI PUSH2 0x20E PUSH2 0x6C2 JUMP JUMPDEST JUMPDEST SWAP1 POP PUSH1 0x20 MUL ADD CALLDATALOAD PUSH1 0x40 MLOAD DUP5 PUSH4 0xFFFFFFFF AND PUSH1 0xE0 SHL DUP2 MSTORE PUSH1 0x4 ADD PUSH2 0x234 SWAP4 SWAP3 SWAP2 SWAP1 PUSH2 0x71E JUMP JUMPDEST PUSH1 0x20 PUSH1 0x40 MLOAD DUP1 DUP4 SUB DUP2 PUSH1 0x0 DUP8 GAS CALL ISZERO DUP1 ISZERO PUSH2 0x253 JUMPI RETURNDATASIZE PUSH1 0x0 DUP1 RETURNDATACOPY RETURNDATASIZE PUSH1 0x0 REVERT JUMPDEST POP POP POP POP PUSH1 0x40 MLOAD RETURNDATASIZE PUSH1 0x1F NOT PUSH1 0x1F DUP3 ADD AND DUP3 ADD DUP1 PUSH1 0x40 MSTORE POP DUP2 ADD SWAP1 PUSH2 0x277 SWAP2 SWAP1 PUSH2 0x78D JUMP JUMPDEST POP DUP1 DUP1 PUSH2 0x283 SWAP1 PUSH2 0x7F6 JUMP JUMPDEST SWAP2 POP POP PUSH2 0x1A3 JUMP JUMPDEST POP POP POP POP POP POP POP POP JUMP JUMPDEST PUSH1 0x0 DUP1 PUSH1 0x0 SWAP1 POP JUMPDEST DUP4 DUP4 SWAP1 POP DUP2 LT ISZERO PUSH2 0x2E2 JUMPI DUP4 DUP4 DUP3 DUP2 DUP2 LT PUSH2 0x2BB JUMPI PUSH2 0x2BA PUSH2 0x6C2 JUMP JUMPDEST JUMPDEST SWAP1 POP PUSH1 0x20 MUL ADD CALLDATALOAD DUP3 PUSH2 0x2CD SWAP2 SWAP1 PUSH2 0x81F JUMP JUMPDEST SWAP2 POP DUP1 DUP1 PUSH2 0x2DA SWAP1 PUSH2 0x853 JUMP JUMPDEST SWAP2 POP POP PUSH2 0x29D JUMP JUMPDEST POP SWAP3 SWAP2 POP POP JUMP JUMPDEST PUSH1 0x0 DUP1 REVERT JUMPDEST PUSH1 0x0 DUP1 REVERT JUMPDEST PUSH1 0x0 PUSH20 0xFFFFFFFFFFFFFFFFFFFFFFFFFFFFFFFFFFFFFFFF DUP3 AND SWAP1 POP SWAP2 SWAP1 POP JUMP JUMPDEST PUSH1 0x0 PUSH2 0x31E DUP3 PUSH2 0x2F3 JUMP JUMPDEST SWAP1 POP SWAP2 SWAP1 POP JUMP JUMPDEST PUSH2 0x32E DUP2 PUSH2 0x313 JUMP JUMPDEST DUP2 EQ PUSH2 0x339 JUMPI PUSH1 0x0 DUP1 REVERT JUMPDEST POP JUMP JUMPDEST PUSH1 0x0 DUP2 CALLDATALOAD SWAP1 POP PUSH2 0x34B DUP2 PUSH2 0x325 JUMP JUMPDEST SWAP3 SWAP2 POP POP JUMP JUMPDEST PUSH1 0x0 DUP1 REVERT JUMPDEST PUSH1 0x0 DUP1 REVERT JUMPDEST PUSH1 0x0 DUP1 REVERT JUMPDEST PUSH1 0x0 DUP1 DUP4 PUSH1 0x1F DUP5 ADD SLT PUSH2 0x376 JUMPI PUSH2 0x375 PUSH2 0x351 JUMP JUMPDEST JUMPDEST DUP3 CALLDATALOAD SWAP1 POP PUSH8 0xFFFFFFFFFFFFFFFF DUP2 GT ISZERO PUSH2 0x393 JUMPI PUSH2 0x392 PUSH2 0x356 JUMP JUMPDEST JUMPDEST PUSH1 0x20 DUP4 ADD SWAP2 POP DUP4 PUSH1 0x20 DUP3 MUL DUP4 ADD GT ISZERO PUSH2 0x3AF JUMPI PUSH2 0x3AE PUSH2 0x35B JUMP JUMPDEST JUMPDEST SWAP3 POP SWAP3 SWAP1 POP JUMP JUMPDEST PUSH1 0x0 DUP1 DUP4 PUSH1 0x1F DUP5 ADD SLT PUSH2 0x3CC JUMPI PUSH2 0x3CB PUSH2 0x351 JUMP JUMPDEST JUMPDEST DUP3 CALLDATALOAD SWAP1 POP PUSH8 0xFFFFFFFFFFFFFFFF DUP2 GT ISZERO PUSH2 0x3E9 JUMPI PUSH2 0x3E8 PUSH2 0x356 JUMP JUMPDEST JUMPDEST PUSH1 0x20 DUP4 ADD SWAP2 POP DUP4 PUSH1 0x20 DUP3 MUL DUP4 ADD GT ISZERO PUSH2 0x405 JUMPI PUSH2 0x404 PUSH2 0x35B JUMP JUMPDEST JUMPDEST SWAP3 POP SWAP3 SWAP1 POP JUMP JUMPDEST PUSH1 0x0 DUP1 PUSH1 0x0 DUP1 PUSH1 0x0 PUSH1 0x60 DUP7 DUP9 SUB SLT ISZERO PUSH2 0x428 JUMPI PUSH2 0x427 PUSH2 0x2E9 JUMP JUMPDEST JUMPDEST PUSH1 0x0 PUSH2 0x436 DUP9 DUP3 DUP10 ADD PUSH2 0x33C JUMP JUMPDEST SWAP6 POP POP PUSH1 0x20 DUP7 ADD CALLDATALOAD PUSH8 0xFFFFFFFFFFFFFFFF DUP2 GT ISZERO PUSH2 0x457 JUMPI PUSH2 0x456 PUSH2 0x2EE JUMP JUMPDEST JUMPDEST PUSH2 0x463 DUP9 DUP3 DUP10 ADD PUSH2 0x360 JUMP JUMPDEST SWAP5 POP SWAP5 POP POP PUSH1 0x40 DUP7 ADD CALLDATALOAD PUSH8 0xFFFFFFFFFFFFFFFF DUP2 GT ISZERO PUSH2 0x486 JUMPI PUSH2 0x485 PUSH2 0x2EE JUMP JUMPDEST JUMPDEST PUSH2 0x492 DUP9 DUP3 DUP10 ADD PUSH2 0x3B6 JUMP JUMPDEST SWAP3 POP SWAP3 POP POP SWAP3 SWAP6 POP SWAP3 SWAP6 SWAP1 SWAP4 POP JUMP JUMPDEST PUSH1 0x0 DUP1 PUSH1 0x20 DUP4 DUP6 SUB SLT ISZERO PUSH2 0x4B8 JUMPI PUSH2 0x4B7 PUSH2 0x2E9 JUMP JUMPDEST JUMPDEST PUSH1 0x0 DUP4 ADD CALLDATALOAD PUSH8 0xFFFFFFFFFFFFFFFF DUP2 GT ISZERO PUSH2 0x4D6 JUMPI PUSH2 0x4D5 PUSH2 0x2EE JUMP JUMPDEST JUMPDEST PUSH2 0x4E2 DUP6 DUP3 DUP7 ADD PUSH2 0x3B6 JUMP JUMPDEST SWAP3 POP SWAP3 POP POP SWAP3 POP SWAP3 SWAP1 POP JUMP JUMPDEST PUSH1 0x0 DUP2 SWAP1 POP SWAP2 SWAP1 POP JUMP JUMPDEST PUSH2 0x501 DUP2 PUSH2 0x4EE JUMP JUMPDEST DUP3 MSTORE POP POP JUMP JUMPDEST PUSH1 0x0 PUSH1 0x20 DUP3 ADD SWAP1 POP PUSH2 0x51C PUSH1 0x0 DUP4 ADD DUP5 PUSH2 0x4F8 JUMP JUMPDEST SWAP3 SWAP2 POP POP JUMP JUMPDEST PUSH1 0x0 DUP3 DUP3 MSTORE PUSH1 0x20 DUP3 ADD SWAP1 POP SWAP3 SWAP2 POP POP JUMP JUMPDEST PUSH32 0x4C656E67746873206F662041646472657373657320616E6420416D6F756E7473 PUSH1 0x0 DUP3 ADD MSTORE PUSH32 0x204E4F5420455155414C00000000000000000000000000000000000000000000 PUSH1 0x20 DUP3 ADD MSTORE POP JUMP JUMPDEST PUSH1 0x0 PUSH2 0x58F PUSH1 0x2A DUP4 PUSH2 0x522 JUMP JUMPDEST SWAP2 POP PUSH2 0x59A DUP3 PUSH2 0x533 JUMP JUMPDEST PUSH1 0x40 DUP3 ADD SWAP1 POP SWAP2 SWAP1 POP JUMP JUMPDEST PUSH1 0x0 PUSH1 0x20 DUP3 ADD SWAP1 POP DUP2 DUP2 SUB PUSH1 0x0 DUP4 ADD MSTORE PUSH2 0x5BE DUP2 PUSH2 0x582 JUMP JUMPDEST SWAP1 POP SWAP2 SWAP1 POP JUMP JUMPDEST PUSH2 0x5CE DUP2 PUSH2 0x313 JUMP JUMPDEST DUP3 MSTORE POP POP JUMP JUMPDEST PUSH1 0x0 PUSH1 0x40 DUP3 ADD SWAP1 POP PUSH2 0x5E9 PUSH1 0x0 DUP4 ADD DUP6 PUSH2 0x5C5 JUMP JUMPDEST PUSH2 0x5F6 PUSH1 0x20 DUP4 ADD DUP5 PUSH2 0x5C5 JUMP JUMPDEST SWAP4 SWAP3 POP POP POP JUMP JUMPDEST PUSH2 0x606 DUP2 PUSH2 0x4EE JUMP JUMPDEST DUP2 EQ PUSH2 0x611 JUMPI PUSH1 0x0 DUP1 REVERT JUMPDEST POP JUMP JUMPDEST PUSH1 0x0 DUP2 MLOAD SWAP1 POP PUSH2 0x623 DUP2 PUSH2 0x5FD JUMP JUMPDEST SWAP3 SWAP2 POP POP JUMP JUMPDEST PUSH1 0x0 PUSH1 0x20 DUP3 DUP5 SUB SLT ISZERO PUSH2 0x63F JUMPI PUSH2 0x63E PUSH2 0x2E9 JUMP JUMPDEST JUMPDEST PUSH1 0x0 PUSH2 0x64D DUP5 DUP3 DUP6 ADD PUSH2 0x614 JUMP JUMPDEST SWAP2 POP POP SWAP3 SWAP2 POP POP JUMP JUMPDEST PUSH32 0x4E65656420417070726F766520455243323020746F6B656E0000000000000000 PUSH1 0x0 DUP3 ADD MSTORE POP JUMP JUMPDEST PUSH1 0x0 PUSH2 0x68C PUSH1 0x18 DUP4 PUSH2 0x522 JUMP JUMPDEST SWAP2 POP PUSH2 0x697 DUP3 PUSH2 0x656 JUMP JUMPDEST PUSH1 0x20 DUP3 ADD SWAP1 POP SWAP2 SWAP1 POP JUMP JUMPDEST PUSH1 0x0 PUSH1 0x20 DUP3 ADD SWAP1 POP DUP2 DUP2 SUB PUSH1 0x0 DUP4 ADD MSTORE PUSH2 0x6BB DUP2 PUSH2 0x67F JUMP JUMPDEST SWAP1 POP SWAP2 SWAP1 POP JUMP JUMPDEST PUSH32 0x4E487B7100000000000000000000000000000000000000000000000000000000 PUSH1 0x0 MSTORE PUSH1 0x32 PUSH1 0x4 MSTORE PUSH1 0x24 PUSH1 0x0 REVERT JUMPDEST PUSH1 0x0 PUSH1 0x20 DUP3 DUP5 SUB SLT ISZERO PUSH2 0x707 JUMPI PUSH2 0x706 PUSH2 0x2E9 JUMP JUMPDEST JUMPDEST PUSH1 0x0 PUSH2 0x715 DUP5 DUP3 DUP6 ADD PUSH2 0x33C JUMP JUMPDEST SWAP2 POP POP SWAP3 SWAP2 POP POP JUMP JUMPDEST PUSH1 0x0 PUSH1 0x60 DUP3 ADD SWAP1 POP PUSH2 0x733 PUSH1 0x0 DUP4 ADD DUP7 PUSH2 0x5C5 JUMP JUMPDEST PUSH2 0x740 PUSH1 0x20 DUP4 ADD DUP6 PUSH2 0x5C5 JUMP JUMPDEST PUSH2 0x74D PUSH1 0x40 DUP4 ADD DUP5 PUSH2 0x4F8 JUMP JUMPDEST SWAP5 SWAP4 POP POP POP POP JUMP JUMPDEST PUSH1 0x0 DUP2 ISZERO ISZERO SWAP1 POP SWAP2 SWAP1 POP JUMP JUMPDEST PUSH2 0x76A DUP2 PUSH2 0x755 JUMP JUMPDEST DUP2 EQ PUSH2 0x775 JUMPI PUSH1 0x0 DUP1 REVERT JUMPDEST POP JUMP JUMPDEST PUSH1 0x0 DUP2 MLOAD SWAP1 POP PUSH2 0x787 DUP2 PUSH2 0x761 JUMP JUMPDEST SWAP3 SWAP2 POP POP JUMP JUMPDEST PUSH1 0x0 PUSH1 0x20 DUP3 DUP5 SUB SLT ISZERO PUSH2 0x7A3 JUMPI PUSH2 0x7A2 PUSH2 0x2E9 JUMP JUMPDEST JUMPDEST PUSH1 0x0 PUSH2 0x7B1 DUP5 DUP3 DUP6 ADD PUSH2 0x778 JUMP JUMPDEST SWAP2 POP POP SWAP3 SWAP2 POP POP JUMP JUMPDEST PUSH32 0x4E487B7100000000000000000000000000000000000000000000000000000000 PUSH1 0x0 MSTORE PUSH1 0x11 PUSH1 0x4 MSTORE PUSH1 0x24 PUSH1 0x0 REVERT JUMPDEST PUSH1 0x0 PUSH1 0xFF DUP3 AND SWAP1 POP SWAP2 SWAP1 POP JUMP JUMPDEST PUSH1 0x0 PUSH2 0x801 DUP3 PUSH2 0x7E9 JUMP JUMPDEST SWAP2 POP PUSH1 0xFF DUP3 SUB PUSH2 0x814 JUMPI PUSH2 0x813 PUSH2 0x7BA JUMP JUMPDEST JUMPDEST PUSH1 0x1 DUP3 ADD SWAP1 POP SWAP2 SWAP1 POP JUMP JUMPDEST PUSH1 0x0 PUSH2 0x82A DUP3 PUSH2 0x4EE JUMP JUMPDEST SWAP2 POP PUSH2 0x835 DUP4 PUSH2 0x4EE JUMP JUMPDEST SWAP3 POP DUP3 DUP3 ADD SWAP1 POP DUP1 DUP3 GT ISZERO PUSH2 0x84D JUMPI PUSH2 0x84C PUSH2 0x7BA JUMP JUMPDEST JUMPDEST SWAP3 SWAP2 POP POP JUMP JUMPDEST PUSH1 0x0 PUSH2 0x85E DUP3 PUSH2 0x4EE JUMP JUMPDEST SWAP2 POP PUSH32 0xFFFFFFFFFFFFFFFFFFFFFFFFFFFFFFFFFFFFFFFFFFFFFFFFFFFFFFFFFFFFFFFF DUP3 SUB PUSH2 0x890 JUMPI PUSH2 0x88F PUSH2 0x7BA JUMP JUMPDEST JUMPDEST PUSH1 0x1 DUP3 ADD SWAP1 POP SWAP2 SWAP1 POP JUMP INVALID LOG2 PUSH5 0x6970667358 0x22 SLT KECCAK256 0xD SWAP16 0xCC 0xDB 0xC6 0xDD EXTCODEHASH 0x4E 0xAE DUP9 0xA7 0xC EXTCODESIZE 0xC4 PUSH17 0xB185709CECEB12C042A0D603B147A81797 PUSH5 0x736F6C6343 STOP ADDMOD SLT STOP CALLER "
				},
				"gasEstimates": {
					"creation": {
						"codeDepositCost": "451400",
						"executionCost": "486",
						"totalCost": "451886"
					},
					"external": {
						"getSum(uint256[])": "infinite",
						"multiTransferToken(address,address[],uint256[])": "infinite"
					}
				},
				"methodIdentifiers": {
					"getSum(uint256[])": "ccb8c1e0",
					"multiTransferToken(address,address[],uint256[])": "41ed24a2"
				}
			},
			"storageLayout": {
				"storage": [],
				"types": null
			},
			"userdoc": {
				"kind": "user",
				"methods": {},
				"version": 1
			}
		}
	}
}