{
	"W6/simpleAMM/src/simpleAMMV6.sol": {
		"AMM": {
			"abi": [
				{
					"inputs": [
						{
							"internalType": "address",
							"name": "_token",
							"type": "address"
						}
					],
					"stateMutability": "nonpayable",
					"type": "constructor"
				},
				{
					"inputs": [],
					"name": "ETH_ADDRESS",
					"outputs": [
						{
							"internalType": "address",
							"name": "",
							"type": "address"
						}
					],
					"stateMutability": "view",
					"type": "function"
				},
				{
					"inputs": [
						{
							"internalType": "uint256",
							"name": "_amount1",
							"type": "uint256"
						}
					],
					"name": "addLiquidity",
					"outputs": [
						{
							"internalType": "uint256",
							"name": "shares",
							"type": "uint256"
						}
					],
					"stateMutability": "payable",
					"type": "function"
				},
				{
					"inputs": [
						{
							"internalType": "address",
							"name": "",
							"type": "address"
						}
					],
					"name": "balanceOf",
					"outputs": [
						{
							"internalType": "uint256",
							"name": "",
							"type": "uint256"
						}
					],
					"stateMutability": "view",
					"type": "function"
				},
				{
					"inputs": [],
					"name": "getERCPrice",
					"outputs": [
						{
							"internalType": "uint256",
							"name": "",
							"type": "uint256"
						}
					],
					"stateMutability": "view",
					"type": "function"
				},
				{
					"inputs": [],
					"name": "getETHPrice",
					"outputs": [
						{
							"internalType": "uint256",
							"name": "",
							"type": "uint256"
						}
					],
					"stateMutability": "view",
					"type": "function"
				},
				{
					"inputs": [
						{
							"internalType": "uint256",
							"name": "_amount",
							"type": "uint256"
						}
					],
					"name": "getInERCPredictOutputETH",
					"outputs": [
						{
							"internalType": "uint256",
							"name": "",
							"type": "uint256"
						}
					],
					"stateMutability": "view",
					"type": "function"
				},
				{
					"inputs": [
						{
							"internalType": "uint256",
							"name": "_amount",
							"type": "uint256"
						}
					],
					"name": "getInETHPredictOutputERC",
					"outputs": [
						{
							"internalType": "uint256",
							"name": "",
							"type": "uint256"
						}
					],
					"stateMutability": "view",
					"type": "function"
				},
				{
					"inputs": [],
					"name": "my_shars",
					"outputs": [
						{
							"internalType": "uint256",
							"name": "",
							"type": "uint256"
						}
					],
					"stateMutability": "view",
					"type": "function"
				},
				{
					"inputs": [
						{
							"internalType": "address",
							"name": "_user",
							"type": "address"
						}
					],
					"name": "removeAllLiquidity",
					"outputs": [
						{
							"internalType": "uint256",
							"name": "amountETH",
							"type": "uint256"
						},
						{
							"internalType": "uint256",
							"name": "amountERC",
							"type": "uint256"
						}
					],
					"stateMutability": "nonpayable",
					"type": "function"
				},
				{
					"inputs": [
						{
							"internalType": "uint256",
							"name": "_shares",
							"type": "uint256"
						}
					],
					"name": "removeLiquidity",
					"outputs": [
						{
							"internalType": "uint256",
							"name": "amountETH",
							"type": "uint256"
						},
						{
							"internalType": "uint256",
							"name": "amountERC",
							"type": "uint256"
						}
					],
					"stateMutability": "nonpayable",
					"type": "function"
				},
				{
					"inputs": [
						{
							"internalType": "address",
							"name": "_user",
							"type": "address"
						},
						{
							"internalType": "uint256",
							"name": "_shares",
							"type": "uint256"
						}
					],
					"name": "removeLiquidity",
					"outputs": [
						{
							"internalType": "uint256",
							"name": "amountETH",
							"type": "uint256"
						},
						{
							"internalType": "uint256",
							"name": "amountERC",
							"type": "uint256"
						}
					],
					"stateMutability": "nonpayable",
					"type": "function"
				},
				{
					"inputs": [],
					"name": "reserveERC",
					"outputs": [
						{
							"internalType": "uint256",
							"name": "",
							"type": "uint256"
						}
					],
					"stateMutability": "view",
					"type": "function"
				},
				{
					"inputs": [],
					"name": "reserveETH",
					"outputs": [
						{
							"internalType": "uint256",
							"name": "",
							"type": "uint256"
						}
					],
					"stateMutability": "view",
					"type": "function"
				},
				{
					"inputs": [
						{
							"internalType": "address",
							"name": "_user",
							"type": "address"
						}
					],
					"name": "sharesOf",
					"outputs": [
						{
							"internalType": "uint256",
							"name": "",
							"type": "uint256"
						}
					],
					"stateMutability": "view",
					"type": "function"
				},
				{
					"inputs": [
						{
							"internalType": "uint256",
							"name": "_amountIn",
							"type": "uint256"
						}
					],
					"name": "swap",
					"outputs": [
						{
							"internalType": "uint256",
							"name": "amountOut",
							"type": "uint256"
						}
					],
					"stateMutability": "payable",
					"type": "function"
				},
				{
					"inputs": [
						{
							"internalType": "uint256",
							"name": "_amountIn",
							"type": "uint256"
						}
					],
					"name": "swapTokenForETH",
					"outputs": [
						{
							"internalType": "uint256",
							"name": "amountOut",
							"type": "uint256"
						}
					],
					"stateMutability": "nonpayable",
					"type": "function"
				},
				{
					"inputs": [
						{
							"internalType": "uint256",
							"name": "_amountIn",
							"type": "uint256"
						},
						{
							"internalType": "uint256",
							"name": "_forwardOutput",
							"type": "uint256"
						},
						{
							"internalType": "uint256",
							"name": "_slipLock",
							"type": "uint256"
						}
					],
					"name": "swapTokenForETH_WithSlipLock",
					"outputs": [
						{
							"internalType": "uint256",
							"name": "amountOut",
							"type": "uint256"
						}
					],
					"stateMutability": "nonpayable",
					"type": "function"
				},
				{
					"inputs": [
						{
							"internalType": "uint256",
							"name": "_amountIn",
							"type": "uint256"
						},
						{
							"internalType": "uint256",
							"name": "_forwardOutput",
							"type": "uint256"
						},
						{
							"internalType": "uint256",
							"name": "_slipLock",
							"type": "uint256"
						}
					],
					"name": "swap_WithSlipLock",
					"outputs": [
						{
							"internalType": "uint256",
							"name": "amountOut",
							"type": "uint256"
						}
					],
					"stateMutability": "payable",
					"type": "function"
				},
				{
					"inputs": [],
					"name": "token",
					"outputs": [
						{
							"internalType": "contract IERC20",
							"name": "",
							"type": "address"
						}
					],
					"stateMutability": "view",
					"type": "function"
				},
				{
					"inputs": [],
					"name": "totalSupply",
					"outputs": [
						{
							"internalType": "uint256",
							"name": "",
							"type": "uint256"
						}
					],
					"stateMutability": "view",
					"type": "function"
				}
			],
			"devdoc": {
				"kind": "dev",
				"methods": {},
				"version": 1
			},
			"evm": {
				"assembly": "    /* \"W6/simpleAMM/src/simpleAMMV6.sol\":639:8037  contract AMM {... */\n  mstore(0x40, 0xa0)\n    /* \"W6/simpleAMM/src/simpleAMMV6.sol\":946:1048  constructor(address _token) {... */\n  callvalue\n  dup1\n  iszero\n  tag_1\n  jumpi\n  0x00\n  dup1\n  revert\ntag_1:\n  pop\n  mload(0x40)\n  sub(codesize, bytecodeSize)\n  dup1\n  bytecodeSize\n  dup4\n  codecopy\n  dup2\n  dup2\n  add\n  0x40\n  mstore\n  dup2\n  add\n  swap1\n  tag_2\n  swap2\n  swap1\n  tag_3\n  jump\t// in\ntag_2:\n    /* \"W6/simpleAMM/src/simpleAMMV6.sol\":997:1007  msg.sender */\n  caller\n    /* \"W6/simpleAMM/src/simpleAMMV6.sol\":985:994  developer */\n  0x00\n  dup1\n    /* \"W6/simpleAMM/src/simpleAMMV6.sol\":985:1007  developer = msg.sender */\n  0x0100\n  exp\n  dup2\n  sload\n  dup2\n  0xffffffffffffffffffffffffffffffffffffffff\n  mul\n  not\n  and\n  swap1\n  dup4\n  0xffffffffffffffffffffffffffffffffffffffff\n  and\n  mul\n  or\n  swap1\n  sstore\n  pop\n    /* \"W6/simpleAMM/src/simpleAMMV6.sol\":1033:1039  _token */\n  dup1\n    /* \"W6/simpleAMM/src/simpleAMMV6.sol\":1018:1040  token = IERC20(_token) */\n  0xffffffffffffffffffffffffffffffffffffffff\n  and\n  0x80\n  dup2\n  0xffffffffffffffffffffffffffffffffffffffff\n  and\n  dup2\n  mstore\n  pop\n  pop\n    /* \"W6/simpleAMM/src/simpleAMMV6.sol\":946:1048  constructor(address _token) {... */\n  pop\n    /* \"W6/simpleAMM/src/simpleAMMV6.sol\":639:8037  contract AMM {... */\n  jump(tag_6)\n    /* \"#utility.yul\":88:205   */\ntag_8:\n    /* \"#utility.yul\":197:198   */\n  0x00\n    /* \"#utility.yul\":194:195   */\n  dup1\n    /* \"#utility.yul\":187:199   */\n  revert\n    /* \"#utility.yul\":334:460   */\ntag_10:\n    /* \"#utility.yul\":371:378   */\n  0x00\n    /* \"#utility.yul\":411:453   */\n  0xffffffffffffffffffffffffffffffffffffffff\n    /* \"#utility.yul\":404:409   */\n  dup3\n    /* \"#utility.yul\":400:454   */\n  and\n    /* \"#utility.yul\":389:454   */\n  swap1\n  pop\n    /* \"#utility.yul\":334:460   */\n  swap2\n  swap1\n  pop\n  jump\t// out\n    /* \"#utility.yul\":466:562   */\ntag_11:\n    /* \"#utility.yul\":503:510   */\n  0x00\n    /* \"#utility.yul\":532:556   */\n  tag_20\n    /* \"#utility.yul\":550:555   */\n  dup3\n    /* \"#utility.yul\":532:556   */\n  tag_10\n  jump\t// in\ntag_20:\n    /* \"#utility.yul\":521:556   */\n  swap1\n  pop\n    /* \"#utility.yul\":466:562   */\n  swap2\n  swap1\n  pop\n  jump\t// out\n    /* \"#utility.yul\":568:690   */\ntag_12:\n    /* \"#utility.yul\":641:665   */\n  tag_22\n    /* \"#utility.yul\":659:664   */\n  dup2\n    /* \"#utility.yul\":641:665   */\n  tag_11\n  jump\t// in\ntag_22:\n    /* \"#utility.yul\":634:639   */\n  dup2\n    /* \"#utility.yul\":631:666   */\n  eq\n    /* \"#utility.yul\":621:684   */\n  tag_23\n  jumpi\n    /* \"#utility.yul\":680:681   */\n  0x00\n    /* \"#utility.yul\":677:678   */\n  dup1\n    /* \"#utility.yul\":670:682   */\n  revert\n    /* \"#utility.yul\":621:684   */\ntag_23:\n    /* \"#utility.yul\":568:690   */\n  pop\n  jump\t// out\n    /* \"#utility.yul\":696:839   */\ntag_13:\n    /* \"#utility.yul\":753:758   */\n  0x00\n    /* \"#utility.yul\":784:790   */\n  dup2\n    /* \"#utility.yul\":778:791   */\n  mload\n    /* \"#utility.yul\":769:791   */\n  swap1\n  pop\n    /* \"#utility.yul\":800:833   */\n  tag_25\n    /* \"#utility.yul\":827:832   */\n  dup2\n    /* \"#utility.yul\":800:833   */\n  tag_12\n  jump\t// in\ntag_25:\n    /* \"#utility.yul\":696:839   */\n  swap3\n  swap2\n  pop\n  pop\n  jump\t// out\n    /* \"#utility.yul\":845:1196   */\ntag_3:\n    /* \"#utility.yul\":915:921   */\n  0x00\n    /* \"#utility.yul\":964:966   */\n  0x20\n    /* \"#utility.yul\":952:961   */\n  dup3\n    /* \"#utility.yul\":943:950   */\n  dup5\n    /* \"#utility.yul\":939:962   */\n  sub\n    /* \"#utility.yul\":935:967   */\n  slt\n    /* \"#utility.yul\":932:1051   */\n  iszero\n  tag_27\n  jumpi\n    /* \"#utility.yul\":970:1049   */\n  tag_28\n  tag_8\n  jump\t// in\ntag_28:\n    /* \"#utility.yul\":932:1051   */\ntag_27:\n    /* \"#utility.yul\":1090:1091   */\n  0x00\n    /* \"#utility.yul\":1115:1179   */\n  tag_29\n    /* \"#utility.yul\":1171:1178   */\n  dup5\n    /* \"#utility.yul\":1162:1168   */\n  dup3\n    /* \"#utility.yul\":1151:1160   */\n  dup6\n    /* \"#utility.yul\":1147:1169   */\n  add\n    /* \"#utility.yul\":1115:1179   */\n  tag_13\n  jump\t// in\ntag_29:\n    /* \"#utility.yul\":1105:1179   */\n  swap2\n  pop\n    /* \"#utility.yul\":1061:1189   */\n  pop\n    /* \"#utility.yul\":845:1196   */\n  swap3\n  swap2\n  pop\n  pop\n  jump\t// out\n    /* \"W6/simpleAMM/src/simpleAMMV6.sol\":639:8037  contract AMM {... */\ntag_6:\n  mload(0x80)\n  codecopy(0x00, dataOffset(sub_0), dataSize(sub_0))\n  0x00\n  assignImmutable(\"0xe9ec5ebbfe521ba5a70e4c2b13332e74dda4e055153dc29723307e62e8ed0f2a\")\n  return(0x00, dataSize(sub_0))\nstop\n\nsub_0: assembly {\n        /* \"W6/simpleAMM/src/simpleAMMV6.sol\":639:8037  contract AMM {... */\n      mstore(0x40, 0x80)\n      jumpi(tag_1, lt(calldatasize, 0x04))\n      shr(0xe0, calldataload(0x00))\n      dup1\n      0x9c8f9f23\n      gt\n      tag_22\n      jumpi\n      dup1\n      0xdccc5fea\n      gt\n      tag_23\n      jumpi\n      dup1\n      0xdccc5fea\n      eq\n      tag_17\n      jumpi\n      dup1\n      0xe764e67c\n      eq\n      tag_18\n      jumpi\n      dup1\n      0xf5eb42dc\n      eq\n      tag_19\n      jumpi\n      dup1\n      0xfc0c546a\n      eq\n      tag_20\n      jumpi\n      dup1\n      0xfcc2ba08\n      eq\n      tag_21\n      jumpi\n      jump(tag_1)\n    tag_23:\n      dup1\n      0x9c8f9f23\n      eq\n      tag_12\n      jumpi\n      dup1\n      0xa201ccf6\n      eq\n      tag_13\n      jumpi\n      dup1\n      0xa607a8d9\n      eq\n      tag_14\n      jumpi\n      dup1\n      0xa734f06e\n      eq\n      tag_15\n      jumpi\n      dup1\n      0xdc2d845b\n      eq\n      tag_16\n      jumpi\n      jump(tag_1)\n    tag_22:\n      dup1\n      0x6cae4f84\n      gt\n      tag_24\n      jumpi\n      dup1\n      0x6cae4f84\n      eq\n      tag_7\n      jumpi\n      dup1\n      0x6fb84b74\n      eq\n      tag_8\n      jumpi\n      dup1\n      0x70a08231\n      eq\n      tag_9\n      jumpi\n      dup1\n      0x7a6a5e1b\n      eq\n      tag_10\n      jumpi\n      dup1\n      0x94b918de\n      eq\n      tag_11\n      jumpi\n      jump(tag_1)\n    tag_24:\n      dup1\n      0x100af203\n      eq\n      tag_2\n      jumpi\n      dup1\n      0x18160ddd\n      eq\n      tag_3\n      jumpi\n      dup1\n      0x51c6590a\n      eq\n      tag_4\n      jumpi\n      dup1\n      0x56c1d7eb\n      eq\n      tag_5\n      jumpi\n      dup1\n      0x62279b65\n      eq\n      tag_6\n      jumpi\n    tag_1:\n      0x00\n      dup1\n      revert\n        /* \"W6/simpleAMM/src/simpleAMMV6.sol\":778:803  uint256 public reserveETH */\n    tag_2:\n      callvalue\n      dup1\n      iszero\n      tag_25\n      jumpi\n      0x00\n      dup1\n      revert\n    tag_25:\n      pop\n      tag_26\n      tag_27\n      jump\t// in\n    tag_26:\n      mload(0x40)\n      tag_28\n      swap2\n      swap1\n      tag_29\n      jump\t// in\n    tag_28:\n      mload(0x40)\n      dup1\n      swap2\n      sub\n      swap1\n      return\n        /* \"W6/simpleAMM/src/simpleAMMV6.sol\":860:886  uint256 public totalSupply */\n    tag_3:\n      callvalue\n      dup1\n      iszero\n      tag_30\n      jumpi\n      0x00\n      dup1\n      revert\n    tag_30:\n      pop\n      tag_31\n      tag_32\n      jump\t// in\n    tag_31:\n      mload(0x40)\n      tag_33\n      swap2\n      swap1\n      tag_29\n      jump\t// in\n    tag_33:\n      mload(0x40)\n      dup1\n      swap2\n      sub\n      swap1\n      return\n        /* \"W6/simpleAMM/src/simpleAMMV6.sol\":4299:5076  function addLiquidity(uint256 _amount1) external payable returns (uint256 shares) {... */\n    tag_4:\n      tag_34\n      0x04\n      dup1\n      calldatasize\n      sub\n      dup2\n      add\n      swap1\n      tag_35\n      swap2\n      swap1\n      tag_36\n      jump\t// in\n    tag_35:\n      tag_37\n      jump\t// in\n    tag_34:\n      mload(0x40)\n      tag_38\n      swap2\n      swap1\n      tag_29\n      jump\t// in\n    tag_38:\n      mload(0x40)\n      dup1\n      swap2\n      sub\n      swap1\n      return\n        /* \"W6/simpleAMM/src/simpleAMMV6.sol\":7392:7710  function getInETHPredictOutputERC(uint256 _amount) public view returns (uint256) {... */\n    tag_5:\n      callvalue\n      dup1\n      iszero\n      tag_39\n      jumpi\n      0x00\n      dup1\n      revert\n    tag_39:\n      pop\n      tag_40\n      0x04\n      dup1\n      calldatasize\n      sub\n      dup2\n      add\n      swap1\n      tag_41\n      swap2\n      swap1\n      tag_36\n      jump\t// in\n    tag_41:\n      tag_42\n      jump\t// in\n    tag_40:\n      mload(0x40)\n      tag_43\n      swap2\n      swap1\n      tag_29\n      jump\t// in\n    tag_43:\n      mload(0x40)\n      dup1\n      swap2\n      sub\n      swap1\n      return\n        /* \"W6/simpleAMM/src/simpleAMMV6.sol\":2719:3502  function swap_WithSlipLock(uint256 _amountIn,uint256 _forwardOutput,uint256 _slipLock) public payable returns (uint256 amountOut)... */\n    tag_6:\n      tag_44\n      0x04\n      dup1\n      calldatasize\n      sub\n      dup2\n      add\n      swap1\n      tag_45\n      swap2\n      swap1\n      tag_46\n      jump\t// in\n    tag_45:\n      tag_47\n      jump\t// in\n    tag_44:\n      mload(0x40)\n      tag_48\n      swap2\n      swap1\n      tag_29\n      jump\t// in\n    tag_48:\n      mload(0x40)\n      dup1\n      swap2\n      sub\n      swap1\n      return\n        /* \"W6/simpleAMM/src/simpleAMMV6.sol\":6295:6390  function my_shars() public view returns(uint256){... */\n    tag_7:\n      callvalue\n      dup1\n      iszero\n      tag_49\n      jumpi\n      0x00\n      dup1\n      revert\n    tag_49:\n      pop\n      tag_50\n      tag_51\n      jump\t// in\n    tag_50:\n      mload(0x40)\n      tag_52\n      swap2\n      swap1\n      tag_29\n      jump\t// in\n    tag_52:\n      mload(0x40)\n      dup1\n      swap2\n      sub\n      swap1\n      return\n        /* \"W6/simpleAMM/src/simpleAMMV6.sol\":2065:2713  function swapTokenForETH(uint256 _amountIn) public returns (uint256 amountOut) {... */\n    tag_8:\n      callvalue\n      dup1\n      iszero\n      tag_53\n      jumpi\n      0x00\n      dup1\n      revert\n    tag_53:\n      pop\n      tag_54\n      0x04\n      dup1\n      calldatasize\n      sub\n      dup2\n      add\n      swap1\n      tag_55\n      swap2\n      swap1\n      tag_36\n      jump\t// in\n    tag_55:\n      tag_56\n      jump\t// in\n    tag_54:\n      mload(0x40)\n      tag_57\n      swap2\n      swap1\n      tag_29\n      jump\t// in\n    tag_57:\n      mload(0x40)\n      dup1\n      swap2\n      sub\n      swap1\n      return\n        /* \"W6/simpleAMM/src/simpleAMMV6.sol\":893:937  mapping(address => uint256) public balanceOf */\n    tag_9:\n      callvalue\n      dup1\n      iszero\n      tag_58\n      jumpi\n      0x00\n      dup1\n      revert\n    tag_58:\n      pop\n      tag_59\n      0x04\n      dup1\n      calldatasize\n      sub\n      dup2\n      add\n      swap1\n      tag_60\n      swap2\n      swap1\n      tag_61\n      jump\t// in\n    tag_60:\n      tag_62\n      jump\t// in\n    tag_59:\n      mload(0x40)\n      tag_63\n      swap2\n      swap1\n      tag_29\n      jump\t// in\n    tag_63:\n      mload(0x40)\n      dup1\n      swap2\n      sub\n      swap1\n      return\n        /* \"W6/simpleAMM/src/simpleAMMV6.sol\":5084:5249  function removeAllLiquidity(address _user) external returns (uint256 amountETH, uint256 amountERC) {... */\n    tag_10:\n      callvalue\n      dup1\n      iszero\n      tag_64\n      jumpi\n      0x00\n      dup1\n      revert\n    tag_64:\n      pop\n      tag_65\n      0x04\n      dup1\n      calldatasize\n      sub\n      dup2\n      add\n      swap1\n      tag_66\n      swap2\n      swap1\n      tag_61\n      jump\t// in\n    tag_66:\n      tag_67\n      jump\t// in\n    tag_65:\n      mload(0x40)\n      tag_68\n      swap3\n      swap2\n      swap1\n      tag_69\n      jump\t// in\n    tag_68:\n      mload(0x40)\n      dup1\n      swap2\n      sub\n      swap1\n      return\n        /* \"W6/simpleAMM/src/simpleAMMV6.sol\":1481:2059  function swap(uint256 _amountIn) public payable returns (uint256 amountOut) {... */\n    tag_11:\n      tag_70\n      0x04\n      dup1\n      calldatasize\n      sub\n      dup2\n      add\n      swap1\n      tag_71\n      swap2\n      swap1\n      tag_36\n      jump\t// in\n    tag_71:\n      tag_72\n      jump\t// in\n    tag_70:\n      mload(0x40)\n      tag_73\n      swap2\n      swap1\n      tag_29\n      jump\t// in\n    tag_73:\n      mload(0x40)\n      dup1\n      swap2\n      sub\n      swap1\n      return\n        /* \"W6/simpleAMM/src/simpleAMMV6.sol\":5255:5492  function removeLiquidity(uint256 _shares) external returns (uint256 amountETH, uint256 amountERC) {... */\n    tag_12:\n      callvalue\n      dup1\n      iszero\n      tag_74\n      jumpi\n      0x00\n      dup1\n      revert\n    tag_74:\n      pop\n      tag_75\n      0x04\n      dup1\n      calldatasize\n      sub\n      dup2\n      add\n      swap1\n      tag_76\n      swap2\n      swap1\n      tag_36\n      jump\t// in\n    tag_76:\n      tag_77\n      jump\t// in\n    tag_75:\n      mload(0x40)\n      tag_78\n      swap3\n      swap2\n      swap1\n      tag_69\n      jump\t// in\n    tag_78:\n      mload(0x40)\n      dup1\n      swap2\n      sub\n      swap1\n      return\n        /* \"W6/simpleAMM/src/simpleAMMV6.sol\":5500:5742  function removeLiquidity(address _user, uint256 _shares) external returns (uint256 amountETH, uint256 amountERC) {... */\n    tag_13:\n      callvalue\n      dup1\n      iszero\n      tag_79\n      jumpi\n      0x00\n      dup1\n      revert\n    tag_79:\n      pop\n      tag_80\n      0x04\n      dup1\n      calldatasize\n      sub\n      dup2\n      add\n      swap1\n      tag_81\n      swap2\n      swap1\n      tag_82\n      jump\t// in\n    tag_81:\n      tag_83\n      jump\t// in\n    tag_80:\n      mload(0x40)\n      tag_84\n      swap3\n      swap2\n      swap1\n      tag_69\n      jump\t// in\n    tag_84:\n      mload(0x40)\n      dup1\n      swap2\n      sub\n      swap1\n      return\n        /* \"W6/simpleAMM/src/simpleAMMV6.sol\":6930:7119  function getETHPrice() public view returns (uint256) {... */\n    tag_14:\n      callvalue\n      dup1\n      iszero\n      tag_85\n      jumpi\n      0x00\n      dup1\n      revert\n    tag_85:\n      pop\n      tag_86\n      tag_87\n      jump\t// in\n    tag_86:\n      mload(0x40)\n      tag_88\n      swap2\n      swap1\n      tag_29\n      jump\t// in\n    tag_88:\n      mload(0x40)\n      dup1\n      swap2\n      sub\n      swap1\n      return\n        /* \"W6/simpleAMM/src/simpleAMMV6.sol\":721:769  address public constant ETH_ADDRESS = address(0) */\n    tag_15:\n      callvalue\n      dup1\n      iszero\n      tag_89\n      jumpi\n      0x00\n      dup1\n      revert\n    tag_89:\n      pop\n      tag_90\n      tag_91\n      jump\t// in\n    tag_90:\n      mload(0x40)\n      tag_92\n      swap2\n      swap1\n      tag_93\n      jump\t// in\n    tag_92:\n      mload(0x40)\n      dup1\n      swap2\n      sub\n      swap1\n      return\n        /* \"W6/simpleAMM/src/simpleAMMV6.sol\":3508:4293  function swapTokenForETH_WithSlipLock(uint256 _amountIn,uint256 _forwardOutput,uint256 _slipLock) public returns (uint256 amountOut) {... */\n    tag_16:\n      callvalue\n      dup1\n      iszero\n      tag_94\n      jumpi\n      0x00\n      dup1\n      revert\n    tag_94:\n      pop\n      tag_95\n      0x04\n      dup1\n      calldatasize\n      sub\n      dup2\n      add\n      swap1\n      tag_96\n      swap2\n      swap1\n      tag_46\n      jump\t// in\n    tag_96:\n      tag_97\n      jump\t// in\n    tag_95:\n      mload(0x40)\n      tag_98\n      swap2\n      swap1\n      tag_29\n      jump\t// in\n    tag_98:\n      mload(0x40)\n      dup1\n      swap2\n      sub\n      swap1\n      return\n        /* \"W6/simpleAMM/src/simpleAMMV6.sol\":7716:8032  function getInERCPredictOutputETH(uint256 _amount) public view returns (uint256) {... */\n    tag_17:\n      callvalue\n      dup1\n      iszero\n      tag_99\n      jumpi\n      0x00\n      dup1\n      revert\n    tag_99:\n      pop\n      tag_100\n      0x04\n      dup1\n      calldatasize\n      sub\n      dup2\n      add\n      swap1\n      tag_101\n      swap2\n      swap1\n      tag_36\n      jump\t// in\n    tag_101:\n      tag_102\n      jump\t// in\n    tag_100:\n      mload(0x40)\n      tag_103\n      swap2\n      swap1\n      tag_29\n      jump\t// in\n    tag_103:\n      mload(0x40)\n      dup1\n      swap2\n      sub\n      swap1\n      return\n        /* \"W6/simpleAMM/src/simpleAMMV6.sol\":817:842  uint256 public reserveERC */\n    tag_18:\n      callvalue\n      dup1\n      iszero\n      tag_104\n      jumpi\n      0x00\n      dup1\n      revert\n    tag_104:\n      pop\n      tag_105\n      tag_106\n      jump\t// in\n    tag_105:\n      mload(0x40)\n      tag_107\n      swap2\n      swap1\n      tag_29\n      jump\t// in\n    tag_107:\n      mload(0x40)\n      dup1\n      swap2\n      sub\n      swap1\n      return\n        /* \"W6/simpleAMM/src/simpleAMMV6.sol\":6396:6499  function sharesOf(address _user) public view returns(uint256){... */\n    tag_19:\n      callvalue\n      dup1\n      iszero\n      tag_108\n      jumpi\n      0x00\n      dup1\n      revert\n    tag_108:\n      pop\n      tag_109\n      0x04\n      dup1\n      calldatasize\n      sub\n      dup2\n      add\n      swap1\n      tag_110\n      swap2\n      swap1\n      tag_61\n      jump\t// in\n    tag_110:\n      tag_111\n      jump\t// in\n    tag_109:\n      mload(0x40)\n      tag_112\n      swap2\n      swap1\n      tag_29\n      jump\t// in\n    tag_112:\n      mload(0x40)\n      dup1\n      swap2\n      sub\n      swap1\n      return\n        /* \"W6/simpleAMM/src/simpleAMMV6.sol\":685:714  IERC20 public immutable token */\n    tag_20:\n      callvalue\n      dup1\n      iszero\n      tag_113\n      jumpi\n      0x00\n      dup1\n      revert\n    tag_113:\n      pop\n      tag_114\n      tag_115\n      jump\t// in\n    tag_114:\n      mload(0x40)\n      tag_116\n      swap2\n      swap1\n      tag_117\n      jump\t// in\n    tag_116:\n      mload(0x40)\n      dup1\n      swap2\n      sub\n      swap1\n      return\n        /* \"W6/simpleAMM/src/simpleAMMV6.sol\":7125:7384  function getERCPrice() public view returns (uint256) {... */\n    tag_21:\n      callvalue\n      dup1\n      iszero\n      tag_118\n      jumpi\n      0x00\n      dup1\n      revert\n    tag_118:\n      pop\n      tag_119\n      tag_120\n      jump\t// in\n    tag_119:\n      mload(0x40)\n      tag_121\n      swap2\n      swap1\n      tag_29\n      jump\t// in\n    tag_121:\n      mload(0x40)\n      dup1\n      swap2\n      sub\n      swap1\n      return\n        /* \"W6/simpleAMM/src/simpleAMMV6.sol\":778:803  uint256 public reserveETH */\n    tag_27:\n      sload(0x01)\n      dup2\n      jump\t// out\n        /* \"W6/simpleAMM/src/simpleAMMV6.sol\":860:886  uint256 public totalSupply */\n    tag_32:\n      sload(0x03)\n      dup2\n      jump\t// out\n        /* \"W6/simpleAMM/src/simpleAMMV6.sol\":4299:5076  function addLiquidity(uint256 _amount1) external payable returns (uint256 shares) {... */\n    tag_37:\n        /* \"W6/simpleAMM/src/simpleAMMV6.sol\":4365:4379  uint256 shares */\n      0x00\n        /* \"W6/simpleAMM/src/simpleAMMV6.sol\":4392:4397  token */\n      immutable(\"0xe9ec5ebbfe521ba5a70e4c2b13332e74dda4e055153dc29723307e62e8ed0f2a\")\n        /* \"W6/simpleAMM/src/simpleAMMV6.sol\":4392:4410  token.transferFrom */\n      0xffffffffffffffffffffffffffffffffffffffff\n      and\n      0x23b872dd\n        /* \"W6/simpleAMM/src/simpleAMMV6.sol\":4411:4421  msg.sender */\n      caller\n        /* \"W6/simpleAMM/src/simpleAMMV6.sol\":4431:4435  this */\n      address\n        /* \"W6/simpleAMM/src/simpleAMMV6.sol\":4438:4446  _amount1 */\n      dup6\n        /* \"W6/simpleAMM/src/simpleAMMV6.sol\":4392:4447  token.transferFrom(msg.sender, address(this), _amount1) */\n      mload(0x40)\n      dup5\n      0xffffffff\n      and\n      0xe0\n      shl\n      dup2\n      mstore\n      0x04\n      add\n      tag_123\n      swap4\n      swap3\n      swap2\n      swap1\n      tag_124\n      jump\t// in\n    tag_123:\n      0x20\n      mload(0x40)\n      dup1\n      dup4\n      sub\n      dup2\n      0x00\n      dup8\n      gas\n      call\n      iszero\n      dup1\n      iszero\n      tag_126\n      jumpi\n      returndatasize\n      0x00\n      dup1\n      returndatacopy\n      revert(0x00, returndatasize)\n    tag_126:\n      pop\n      pop\n      pop\n      pop\n      mload(0x40)\n      returndatasize\n      not(0x1f)\n      0x1f\n      dup3\n      add\n      and\n      dup3\n      add\n      dup1\n      0x40\n      mstore\n      pop\n      dup2\n      add\n      swap1\n      tag_127\n      swap2\n      swap1\n      tag_128\n      jump\t// in\n    tag_127:\n      pop\n        /* \"W6/simpleAMM/src/simpleAMMV6.sol\":4460:4476  uint256 _amount0 */\n      0x00\n        /* \"W6/simpleAMM/src/simpleAMMV6.sol\":4479:4488  msg.value */\n      callvalue\n        /* \"W6/simpleAMM/src/simpleAMMV6.sol\":4460:4488  uint256 _amount0 = msg.value */\n      swap1\n      pop\n        /* \"W6/simpleAMM/src/simpleAMMV6.sol\":4518:4519  0 */\n      0x00\n        /* \"W6/simpleAMM/src/simpleAMMV6.sol\":4505:4515  reserveETH */\n      sload(0x01)\n        /* \"W6/simpleAMM/src/simpleAMMV6.sol\":4505:4519  reserveETH > 0 */\n      gt\n        /* \"W6/simpleAMM/src/simpleAMMV6.sol\":4505:4537  reserveETH > 0 || reserveERC > 0 */\n      dup1\n      tag_129\n      jumpi\n      pop\n        /* \"W6/simpleAMM/src/simpleAMMV6.sol\":4536:4537  0 */\n      0x00\n        /* \"W6/simpleAMM/src/simpleAMMV6.sol\":4523:4533  reserveERC */\n      sload(0x02)\n        /* \"W6/simpleAMM/src/simpleAMMV6.sol\":4523:4537  reserveERC > 0 */\n      gt\n        /* \"W6/simpleAMM/src/simpleAMMV6.sol\":4505:4537  reserveETH > 0 || reserveERC > 0 */\n    tag_129:\n        /* \"W6/simpleAMM/src/simpleAMMV6.sol\":4501:4641  if (reserveETH > 0 || reserveERC > 0) {... */\n      iszero\n      tag_130\n      jumpi\n        /* \"W6/simpleAMM/src/simpleAMMV6.sol\":4600:4608  _amount0 */\n      dup1\n        /* \"W6/simpleAMM/src/simpleAMMV6.sol\":4587:4597  reserveERC */\n      sload(0x02)\n        /* \"W6/simpleAMM/src/simpleAMMV6.sol\":4587:4608  reserveERC * _amount0 */\n      tag_131\n      swap2\n      swap1\n      tag_132\n      jump\t// in\n    tag_131:\n        /* \"W6/simpleAMM/src/simpleAMMV6.sol\":4575:4583  _amount1 */\n      dup4\n        /* \"W6/simpleAMM/src/simpleAMMV6.sol\":4562:4572  reserveETH */\n      sload(0x01)\n        /* \"W6/simpleAMM/src/simpleAMMV6.sol\":4562:4583  reserveETH * _amount1 */\n      tag_133\n      swap2\n      swap1\n      tag_132\n      jump\t// in\n    tag_133:\n        /* \"W6/simpleAMM/src/simpleAMMV6.sol\":4562:4608  reserveETH * _amount1 == reserveERC * _amount0 */\n      eq\n        /* \"W6/simpleAMM/src/simpleAMMV6.sol\":4554:4629  require(reserveETH * _amount1 == reserveERC * _amount0, \"x / y != dx / dy\") */\n      tag_134\n      jumpi\n      mload(0x40)\n      0x08c379a000000000000000000000000000000000000000000000000000000000\n      dup2\n      mstore\n      0x04\n      add\n      tag_135\n      swap1\n      tag_136\n      jump\t// in\n    tag_135:\n      mload(0x40)\n      dup1\n      swap2\n      sub\n      swap1\n      revert\n    tag_134:\n        /* \"W6/simpleAMM/src/simpleAMMV6.sol\":4501:4641  if (reserveETH > 0 || reserveERC > 0) {... */\n    tag_130:\n        /* \"W6/simpleAMM/src/simpleAMMV6.sol\":4672:4673  0 */\n      0x00\n        /* \"W6/simpleAMM/src/simpleAMMV6.sol\":4657:4668  totalSupply */\n      sload(0x03)\n        /* \"W6/simpleAMM/src/simpleAMMV6.sol\":4657:4673  totalSupply == 0 */\n      sub\n        /* \"W6/simpleAMM/src/simpleAMMV6.sol\":4653:4914  if (totalSupply == 0) {... */\n      tag_137\n      jumpi\n        /* \"W6/simpleAMM/src/simpleAMMV6.sol\":4699:4725  _sqrt(_amount0 * _amount1) */\n      tag_138\n        /* \"W6/simpleAMM/src/simpleAMMV6.sol\":4716:4724  _amount1 */\n      dup4\n        /* \"W6/simpleAMM/src/simpleAMMV6.sol\":4705:4713  _amount0 */\n      dup3\n        /* \"W6/simpleAMM/src/simpleAMMV6.sol\":4705:4724  _amount0 * _amount1 */\n      tag_139\n      swap2\n      swap1\n      tag_132\n      jump\t// in\n    tag_139:\n        /* \"W6/simpleAMM/src/simpleAMMV6.sol\":4699:4704  _sqrt */\n      tag_140\n        /* \"W6/simpleAMM/src/simpleAMMV6.sol\":4699:4725  _sqrt(_amount0 * _amount1) */\n      jump\t// in\n    tag_138:\n        /* \"W6/simpleAMM/src/simpleAMMV6.sol\":4690:4725  shares = _sqrt(_amount0 * _amount1) */\n      swap2\n      pop\n        /* \"W6/simpleAMM/src/simpleAMMV6.sol\":4653:4914  if (totalSupply == 0) {... */\n      jump(tag_141)\n    tag_137:\n        /* \"W6/simpleAMM/src/simpleAMMV6.sol\":4767:4902  Math.min(... */\n      tag_142\n        /* \"W6/simpleAMM/src/simpleAMMV6.sol\":4821:4831  reserveETH */\n      sload(0x01)\n        /* \"W6/simpleAMM/src/simpleAMMV6.sol\":4806:4817  totalSupply */\n      sload(0x03)\n        /* \"W6/simpleAMM/src/simpleAMMV6.sol\":4795:4803  _amount0 */\n      dup4\n        /* \"W6/simpleAMM/src/simpleAMMV6.sol\":4795:4817  _amount0 * totalSupply */\n      tag_143\n      swap2\n      swap1\n      tag_132\n      jump\t// in\n    tag_143:\n        /* \"W6/simpleAMM/src/simpleAMMV6.sol\":4794:4831  (_amount0 * totalSupply) / reserveETH */\n      tag_144\n      swap2\n      swap1\n      tag_145\n      jump\t// in\n    tag_144:\n        /* \"W6/simpleAMM/src/simpleAMMV6.sol\":4877:4887  reserveERC */\n      sload(0x02)\n        /* \"W6/simpleAMM/src/simpleAMMV6.sol\":4862:4873  totalSupply */\n      sload(0x03)\n        /* \"W6/simpleAMM/src/simpleAMMV6.sol\":4851:4859  _amount1 */\n      dup7\n        /* \"W6/simpleAMM/src/simpleAMMV6.sol\":4851:4873  _amount1 * totalSupply */\n      tag_146\n      swap2\n      swap1\n      tag_132\n      jump\t// in\n    tag_146:\n        /* \"W6/simpleAMM/src/simpleAMMV6.sol\":4850:4887  (_amount1 * totalSupply) / reserveERC */\n      tag_147\n      swap2\n      swap1\n      tag_145\n      jump\t// in\n    tag_147:\n        /* \"W6/simpleAMM/src/simpleAMMV6.sol\":4767:4775  Math.min */\n      tag_148\n        /* \"W6/simpleAMM/src/simpleAMMV6.sol\":4767:4902  Math.min(... */\n      jump\t// in\n    tag_142:\n        /* \"W6/simpleAMM/src/simpleAMMV6.sol\":4758:4902  shares = Math.min(... */\n      swap2\n      pop\n        /* \"W6/simpleAMM/src/simpleAMMV6.sol\":4653:4914  if (totalSupply == 0) {... */\n    tag_141:\n        /* \"W6/simpleAMM/src/simpleAMMV6.sol\":4941:4942  0 */\n      0x00\n        /* \"W6/simpleAMM/src/simpleAMMV6.sol\":4932:4938  shares */\n      dup3\n        /* \"W6/simpleAMM/src/simpleAMMV6.sol\":4932:4942  shares > 0 */\n      gt\n        /* \"W6/simpleAMM/src/simpleAMMV6.sol\":4924:4957  require(shares > 0, \"shares = 0\") */\n      tag_149\n      jumpi\n      mload(0x40)\n      0x08c379a000000000000000000000000000000000000000000000000000000000\n      dup2\n      mstore\n      0x04\n      add\n      tag_150\n      swap1\n      tag_151\n      jump\t// in\n    tag_150:\n      mload(0x40)\n      dup1\n      swap2\n      sub\n      swap1\n      revert\n    tag_149:\n        /* \"W6/simpleAMM/src/simpleAMMV6.sol\":4968:4993  _mint(msg.sender, shares) */\n      tag_152\n        /* \"W6/simpleAMM/src/simpleAMMV6.sol\":4974:4984  msg.sender */\n      caller\n        /* \"W6/simpleAMM/src/simpleAMMV6.sol\":4986:4992  shares */\n      dup4\n        /* \"W6/simpleAMM/src/simpleAMMV6.sol\":4968:4973  _mint */\n      tag_153\n        /* \"W6/simpleAMM/src/simpleAMMV6.sol\":4968:4993  _mint(msg.sender, shares) */\n      jump\t// in\n    tag_152:\n        /* \"W6/simpleAMM/src/simpleAMMV6.sol\":5006:5068  _update(address(this).balance, token.balanceOf(address(this))) */\n      tag_154\n        /* \"W6/simpleAMM/src/simpleAMMV6.sol\":5014:5035  address(this).balance */\n      selfbalance\n        /* \"W6/simpleAMM/src/simpleAMMV6.sol\":5037:5042  token */\n      immutable(\"0xe9ec5ebbfe521ba5a70e4c2b13332e74dda4e055153dc29723307e62e8ed0f2a\")\n        /* \"W6/simpleAMM/src/simpleAMMV6.sol\":5037:5052  token.balanceOf */\n      0xffffffffffffffffffffffffffffffffffffffff\n      and\n      0x70a08231\n        /* \"W6/simpleAMM/src/simpleAMMV6.sol\":5061:5065  this */\n      address\n        /* \"W6/simpleAMM/src/simpleAMMV6.sol\":5037:5067  token.balanceOf(address(this)) */\n      mload(0x40)\n      dup3\n      0xffffffff\n      and\n      0xe0\n      shl\n      dup2\n      mstore\n      0x04\n      add\n      tag_155\n      swap2\n      swap1\n      tag_93\n      jump\t// in\n    tag_155:\n      0x20\n      mload(0x40)\n      dup1\n      dup4\n      sub\n      dup2\n      dup7\n      gas\n      staticcall\n      iszero\n      dup1\n      iszero\n      tag_157\n      jumpi\n      returndatasize\n      0x00\n      dup1\n      returndatacopy\n      revert(0x00, returndatasize)\n    tag_157:\n      pop\n      pop\n      pop\n      pop\n      mload(0x40)\n      returndatasize\n      not(0x1f)\n      0x1f\n      dup3\n      add\n      and\n      dup3\n      add\n      dup1\n      0x40\n      mstore\n      pop\n      dup2\n      add\n      swap1\n      tag_158\n      swap2\n      swap1\n      tag_159\n      jump\t// in\n    tag_158:\n        /* \"W6/simpleAMM/src/simpleAMMV6.sol\":5006:5013  _update */\n      tag_160\n        /* \"W6/simpleAMM/src/simpleAMMV6.sol\":5006:5068  _update(address(this).balance, token.balanceOf(address(this))) */\n      jump\t// in\n    tag_154:\n        /* \"W6/simpleAMM/src/simpleAMMV6.sol\":4381:5076  {... */\n      pop\n        /* \"W6/simpleAMM/src/simpleAMMV6.sol\":4299:5076  function addLiquidity(uint256 _amount1) external payable returns (uint256 shares) {... */\n      swap2\n      swap1\n      pop\n      jump\t// out\n        /* \"W6/simpleAMM/src/simpleAMMV6.sol\":7392:7710  function getInETHPredictOutputERC(uint256 _amount) public view returns (uint256) {... */\n    tag_42:\n        /* \"W6/simpleAMM/src/simpleAMMV6.sol\":7464:7471  uint256 */\n      0x00\n        /* \"W6/simpleAMM/src/simpleAMMV6.sol\":7505:7506  0 */\n      dup1\n        /* \"W6/simpleAMM/src/simpleAMMV6.sol\":7492:7502  reserveETH */\n      sload(0x01)\n        /* \"W6/simpleAMM/src/simpleAMMV6.sol\":7492:7506  reserveETH > 0 */\n      gt\n        /* \"W6/simpleAMM/src/simpleAMMV6.sol\":7492:7524  reserveETH > 0 && reserveERC > 0 */\n      dup1\n      iszero\n      tag_162\n      jumpi\n      pop\n        /* \"W6/simpleAMM/src/simpleAMMV6.sol\":7523:7524  0 */\n      0x00\n        /* \"W6/simpleAMM/src/simpleAMMV6.sol\":7510:7520  reserveERC */\n      sload(0x02)\n        /* \"W6/simpleAMM/src/simpleAMMV6.sol\":7510:7524  reserveERC > 0 */\n      gt\n        /* \"W6/simpleAMM/src/simpleAMMV6.sol\":7492:7524  reserveETH > 0 && reserveERC > 0 */\n    tag_162:\n        /* \"W6/simpleAMM/src/simpleAMMV6.sol\":7492:7537  reserveETH > 0 && reserveERC > 0 && _amount>0 */\n      dup1\n      iszero\n      tag_163\n      jumpi\n      pop\n        /* \"W6/simpleAMM/src/simpleAMMV6.sol\":7536:7537  0 */\n      0x00\n        /* \"W6/simpleAMM/src/simpleAMMV6.sol\":7528:7535  _amount */\n      dup3\n        /* \"W6/simpleAMM/src/simpleAMMV6.sol\":7528:7537  _amount>0 */\n      gt\n        /* \"W6/simpleAMM/src/simpleAMMV6.sol\":7492:7537  reserveETH > 0 && reserveERC > 0 && _amount>0 */\n    tag_163:\n        /* \"W6/simpleAMM/src/simpleAMMV6.sol\":7484:7564  require(reserveETH > 0 && reserveERC > 0 && _amount>0, \"Invalid ERC20 reserves\") */\n      tag_164\n      jumpi\n      mload(0x40)\n      0x08c379a000000000000000000000000000000000000000000000000000000000\n      dup2\n      mstore\n      0x04\n      add\n      tag_165\n      swap1\n      tag_166\n      jump\t// in\n    tag_165:\n      mload(0x40)\n      dup1\n      swap2\n      sub\n      swap1\n      revert\n    tag_164:\n        /* \"W6/simpleAMM/src/simpleAMMV6.sol\":7575:7598  uint256 amountInWithFee */\n      0x00\n        /* \"W6/simpleAMM/src/simpleAMMV6.sol\":7617:7621  1000 */\n      0x03e8\n        /* \"W6/simpleAMM/src/simpleAMMV6.sol\":7610:7613  997 */\n      0x03e5\n        /* \"W6/simpleAMM/src/simpleAMMV6.sol\":7600:7607  _amount */\n      dup5\n        /* \"W6/simpleAMM/src/simpleAMMV6.sol\":7600:7613  _amount * 997 */\n      tag_167\n      swap2\n      swap1\n      tag_132\n      jump\t// in\n    tag_167:\n        /* \"W6/simpleAMM/src/simpleAMMV6.sol\":7599:7621  (_amount * 997) / 1000 */\n      tag_168\n      swap2\n      swap1\n      tag_145\n      jump\t// in\n    tag_168:\n        /* \"W6/simpleAMM/src/simpleAMMV6.sol\":7575:7621  uint256 amountInWithFee=(_amount * 997) / 1000 */\n      swap1\n      pop\n        /* \"W6/simpleAMM/src/simpleAMMV6.sol\":7686:7701  amountInWithFee */\n      dup1\n        /* \"W6/simpleAMM/src/simpleAMMV6.sol\":7673:7683  reserveETH */\n      sload(0x01)\n        /* \"W6/simpleAMM/src/simpleAMMV6.sol\":7673:7701  reserveETH + amountInWithFee */\n      tag_169\n      swap2\n      swap1\n      tag_170\n      jump\t// in\n    tag_169:\n        /* \"W6/simpleAMM/src/simpleAMMV6.sol\":7653:7668  amountInWithFee */\n      dup2\n        /* \"W6/simpleAMM/src/simpleAMMV6.sol\":7640:7650  reserveERC */\n      sload(0x02)\n        /* \"W6/simpleAMM/src/simpleAMMV6.sol\":7640:7668  reserveERC * amountInWithFee */\n      tag_171\n      swap2\n      swap1\n      tag_132\n      jump\t// in\n    tag_171:\n        /* \"W6/simpleAMM/src/simpleAMMV6.sol\":7639:7702  (reserveERC * amountInWithFee) / (reserveETH + amountInWithFee) */\n      tag_172\n      swap2\n      swap1\n      tag_145\n      jump\t// in\n    tag_172:\n        /* \"W6/simpleAMM/src/simpleAMMV6.sol\":7632:7702  return (reserveERC * amountInWithFee) / (reserveETH + amountInWithFee) */\n      swap2\n      pop\n      pop\n        /* \"W6/simpleAMM/src/simpleAMMV6.sol\":7392:7710  function getInETHPredictOutputERC(uint256 _amount) public view returns (uint256) {... */\n      swap2\n      swap1\n      pop\n      jump\t// out\n        /* \"W6/simpleAMM/src/simpleAMMV6.sol\":2719:3502  function swap_WithSlipLock(uint256 _amountIn,uint256 _forwardOutput,uint256 _slipLock) public payable returns (uint256 amountOut)... */\n    tag_47:\n        /* \"W6/simpleAMM/src/simpleAMMV6.sol\":2830:2847  uint256 amountOut */\n      0x00\n        /* \"W6/simpleAMM/src/simpleAMMV6.sol\":2886:2895  _amountIn */\n      dup4\n        /* \"W6/simpleAMM/src/simpleAMMV6.sol\":2873:2882  msg.value */\n      callvalue\n        /* \"W6/simpleAMM/src/simpleAMMV6.sol\":2873:2895  msg.value == _amountIn */\n      eq\n        /* \"W6/simpleAMM/src/simpleAMMV6.sol\":2865:2919  require(msg.value == _amountIn, \"ETH amount mismatch\") */\n      tag_174\n      jumpi\n      mload(0x40)\n      0x08c379a000000000000000000000000000000000000000000000000000000000\n      dup2\n      mstore\n      0x04\n      add\n      tag_175\n      swap1\n      tag_176\n      jump\t// in\n    tag_175:\n      mload(0x40)\n      dup1\n      swap2\n      sub\n      swap1\n      revert\n    tag_174:\n        /* \"W6/simpleAMM/src/simpleAMMV6.sol\":2932:2955  uint256 amountInWithFee */\n      0x00\n        /* \"W6/simpleAMM/src/simpleAMMV6.sol\":2978:2982  1000 */\n      0x03e8\n        /* \"W6/simpleAMM/src/simpleAMMV6.sol\":2971:2974  997 */\n      0x03e5\n        /* \"W6/simpleAMM/src/simpleAMMV6.sol\":2959:2968  _amountIn */\n      dup7\n        /* \"W6/simpleAMM/src/simpleAMMV6.sol\":2959:2974  _amountIn * 997 */\n      tag_177\n      swap2\n      swap1\n      tag_132\n      jump\t// in\n    tag_177:\n        /* \"W6/simpleAMM/src/simpleAMMV6.sol\":2958:2982  (_amountIn * 997) / 1000 */\n      tag_178\n      swap2\n      swap1\n      tag_145\n      jump\t// in\n    tag_178:\n        /* \"W6/simpleAMM/src/simpleAMMV6.sol\":2932:2982  uint256 amountInWithFee = (_amountIn * 997) / 1000 */\n      swap1\n      pop\n        /* \"W6/simpleAMM/src/simpleAMMV6.sol\":3052:3067  amountInWithFee */\n      dup1\n        /* \"W6/simpleAMM/src/simpleAMMV6.sol\":3039:3049  reserveETH */\n      sload(0x01)\n        /* \"W6/simpleAMM/src/simpleAMMV6.sol\":3039:3067  reserveETH + amountInWithFee */\n      tag_179\n      swap2\n      swap1\n      tag_170\n      jump\t// in\n    tag_179:\n        /* \"W6/simpleAMM/src/simpleAMMV6.sol\":3019:3034  amountInWithFee */\n      dup2\n        /* \"W6/simpleAMM/src/simpleAMMV6.sol\":3006:3016  reserveERC */\n      sload(0x02)\n        /* \"W6/simpleAMM/src/simpleAMMV6.sol\":3006:3034  reserveERC * amountInWithFee */\n      tag_180\n      swap2\n      swap1\n      tag_132\n      jump\t// in\n    tag_180:\n        /* \"W6/simpleAMM/src/simpleAMMV6.sol\":3005:3068  (reserveERC * amountInWithFee) / (reserveETH + amountInWithFee) */\n      tag_181\n      swap2\n      swap1\n      tag_145\n      jump\t// in\n    tag_181:\n        /* \"W6/simpleAMM/src/simpleAMMV6.sol\":2993:3068  amountOut = (reserveERC * amountInWithFee) / (reserveETH + amountInWithFee) */\n      swap2\n      pop\n        /* \"W6/simpleAMM/src/simpleAMMV6.sol\":3099:3100  0 */\n      0x00\n        /* \"W6/simpleAMM/src/simpleAMMV6.sol\":3087:3096  amountOut */\n      dup3\n        /* \"W6/simpleAMM/src/simpleAMMV6.sol\":3087:3100  amountOut > 0 */\n      gt\n        /* \"W6/simpleAMM/src/simpleAMMV6.sol\":3079:3131  require(amountOut > 0, \"Insufficient output amount\") */\n      tag_182\n      jumpi\n      mload(0x40)\n      0x08c379a000000000000000000000000000000000000000000000000000000000\n      dup2\n      mstore\n      0x04\n      add\n      tag_183\n      swap1\n      tag_184\n      jump\t// in\n    tag_183:\n      mload(0x40)\n      dup1\n      swap2\n      sub\n      swap1\n      revert\n    tag_182:\n        /* \"W6/simpleAMM/src/simpleAMMV6.sol\":3196:3200  1000 */\n      0x03e8\n        /* \"W6/simpleAMM/src/simpleAMMV6.sol\":3185:3194  _slipLock */\n      dup4\n        /* \"W6/simpleAMM/src/simpleAMMV6.sol\":3180:3184  1000 */\n      0x03e8\n        /* \"W6/simpleAMM/src/simpleAMMV6.sol\":3180:3194  1000-_slipLock */\n      tag_185\n      swap2\n      swap1\n      tag_186\n      jump\t// in\n    tag_185:\n        /* \"W6/simpleAMM/src/simpleAMMV6.sol\":3164:3178  _forwardOutput */\n      dup6\n        /* \"W6/simpleAMM/src/simpleAMMV6.sol\":3164:3195  _forwardOutput*(1000-_slipLock) */\n      tag_187\n      swap2\n      swap1\n      tag_132\n      jump\t// in\n    tag_187:\n        /* \"W6/simpleAMM/src/simpleAMMV6.sol\":3164:3200  _forwardOutput*(1000-_slipLock)/1000 */\n      tag_188\n      swap2\n      swap1\n      tag_145\n      jump\t// in\n    tag_188:\n        /* \"W6/simpleAMM/src/simpleAMMV6.sol\":3150:3159  amountOut */\n      dup3\n        /* \"W6/simpleAMM/src/simpleAMMV6.sol\":3150:3201  amountOut >= (_forwardOutput*(1000-_slipLock)/1000) */\n      lt\n      iszero\n        /* \"W6/simpleAMM/src/simpleAMMV6.sol\":3142:3214  require(amountOut >= (_forwardOutput*(1000-_slipLock)/1000), \"SlipLock\") */\n      tag_189\n      jumpi\n      mload(0x40)\n      0x08c379a000000000000000000000000000000000000000000000000000000000\n      dup2\n      mstore\n      0x04\n      add\n      tag_190\n      swap1\n      tag_191\n      jump\t// in\n    tag_190:\n      mload(0x40)\n      dup1\n      swap2\n      sub\n      swap1\n      revert\n    tag_189:\n        /* \"W6/simpleAMM/src/simpleAMMV6.sol\":3225:3247  uint256 feeToDeveloper */\n      0x00\n        /* \"W6/simpleAMM/src/simpleAMMV6.sol\":3288:3292  2000 */\n      0x07d0\n        /* \"W6/simpleAMM/src/simpleAMMV6.sol\":3277:3287  reserveETH */\n      sload(0x01)\n        /* \"W6/simpleAMM/src/simpleAMMV6.sol\":3277:3292  reserveETH*2000 */\n      tag_192\n      swap2\n      swap1\n      tag_132\n      jump\t// in\n    tag_192:\n        /* \"W6/simpleAMM/src/simpleAMMV6.sol\":3264:3275  totalSupply */\n      sload(0x03)\n        /* \"W6/simpleAMM/src/simpleAMMV6.sol\":3262:3263  3 */\n      0x03\n        /* \"W6/simpleAMM/src/simpleAMMV6.sol\":3250:3259  _amountIn */\n      dup9\n        /* \"W6/simpleAMM/src/simpleAMMV6.sol\":3250:3263  _amountIn * 3 */\n      tag_193\n      swap2\n      swap1\n      tag_132\n      jump\t// in\n    tag_193:\n        /* \"W6/simpleAMM/src/simpleAMMV6.sol\":3250:3275  _amountIn * 3*totalSupply */\n      tag_194\n      swap2\n      swap1\n      tag_132\n      jump\t// in\n    tag_194:\n        /* \"W6/simpleAMM/src/simpleAMMV6.sol\":3250:3293  _amountIn * 3*totalSupply/(reserveETH*2000) */\n      tag_195\n      swap2\n      swap1\n      tag_145\n      jump\t// in\n    tag_195:\n        /* \"W6/simpleAMM/src/simpleAMMV6.sol\":3225:3293  uint256 feeToDeveloper = _amountIn * 3*totalSupply/(reserveETH*2000) */\n      swap1\n      pop\n        /* \"W6/simpleAMM/src/simpleAMMV6.sol\":3304:3335  _mint(developer,feeToDeveloper) */\n      tag_196\n        /* \"W6/simpleAMM/src/simpleAMMV6.sol\":3310:3319  developer */\n      0x00\n      dup1\n      sload\n      swap1\n      0x0100\n      exp\n      swap1\n      div\n      0xffffffffffffffffffffffffffffffffffffffff\n      and\n        /* \"W6/simpleAMM/src/simpleAMMV6.sol\":3320:3334  feeToDeveloper */\n      dup3\n        /* \"W6/simpleAMM/src/simpleAMMV6.sol\":3304:3309  _mint */\n      tag_153\n        /* \"W6/simpleAMM/src/simpleAMMV6.sol\":3304:3335  _mint(developer,feeToDeveloper) */\n      jump\t// in\n    tag_196:\n        /* \"W6/simpleAMM/src/simpleAMMV6.sol\":3382:3387  token */\n      immutable(\"0xe9ec5ebbfe521ba5a70e4c2b13332e74dda4e055153dc29723307e62e8ed0f2a\")\n        /* \"W6/simpleAMM/src/simpleAMMV6.sol\":3382:3396  token.transfer */\n      0xffffffffffffffffffffffffffffffffffffffff\n      and\n      0xa9059cbb\n        /* \"W6/simpleAMM/src/simpleAMMV6.sol\":3397:3407  msg.sender */\n      caller\n        /* \"W6/simpleAMM/src/simpleAMMV6.sol\":3409:3418  amountOut */\n      dup6\n        /* \"W6/simpleAMM/src/simpleAMMV6.sol\":3382:3419  token.transfer(msg.sender, amountOut) */\n      mload(0x40)\n      dup4\n      0xffffffff\n      and\n      0xe0\n      shl\n      dup2\n      mstore\n      0x04\n      add\n      tag_197\n      swap3\n      swap2\n      swap1\n      tag_198\n      jump\t// in\n    tag_197:\n      0x20\n      mload(0x40)\n      dup1\n      dup4\n      sub\n      dup2\n      0x00\n      dup8\n      gas\n      call\n      iszero\n      dup1\n      iszero\n      tag_200\n      jumpi\n      returndatasize\n      0x00\n      dup1\n      returndatacopy\n      revert(0x00, returndatasize)\n    tag_200:\n      pop\n      pop\n      pop\n      pop\n      mload(0x40)\n      returndatasize\n      not(0x1f)\n      0x1f\n      dup3\n      add\n      and\n      dup3\n      add\n      dup1\n      0x40\n      mstore\n      pop\n      dup2\n      add\n      swap1\n      tag_201\n      swap2\n      swap1\n      tag_128\n      jump\t// in\n    tag_201:\n      pop\n        /* \"W6/simpleAMM/src/simpleAMMV6.sol\":3432:3494  _update(address(this).balance, token.balanceOf(address(this))) */\n      tag_202\n        /* \"W6/simpleAMM/src/simpleAMMV6.sol\":3440:3461  address(this).balance */\n      selfbalance\n        /* \"W6/simpleAMM/src/simpleAMMV6.sol\":3463:3468  token */\n      immutable(\"0xe9ec5ebbfe521ba5a70e4c2b13332e74dda4e055153dc29723307e62e8ed0f2a\")\n        /* \"W6/simpleAMM/src/simpleAMMV6.sol\":3463:3478  token.balanceOf */\n      0xffffffffffffffffffffffffffffffffffffffff\n      and\n      0x70a08231\n        /* \"W6/simpleAMM/src/simpleAMMV6.sol\":3487:3491  this */\n      address\n        /* \"W6/simpleAMM/src/simpleAMMV6.sol\":3463:3493  token.balanceOf(address(this)) */\n      mload(0x40)\n      dup3\n      0xffffffff\n      and\n      0xe0\n      shl\n      dup2\n      mstore\n      0x04\n      add\n      tag_203\n      swap2\n      swap1\n      tag_93\n      jump\t// in\n    tag_203:\n      0x20\n      mload(0x40)\n      dup1\n      dup4\n      sub\n      dup2\n      dup7\n      gas\n      staticcall\n      iszero\n      dup1\n      iszero\n      tag_205\n      jumpi\n      returndatasize\n      0x00\n      dup1\n      returndatacopy\n      revert(0x00, returndatasize)\n    tag_205:\n      pop\n      pop\n      pop\n      pop\n      mload(0x40)\n      returndatasize\n      not(0x1f)\n      0x1f\n      dup3\n      add\n      and\n      dup3\n      add\n      dup1\n      0x40\n      mstore\n      pop\n      dup2\n      add\n      swap1\n      tag_206\n      swap2\n      swap1\n      tag_159\n      jump\t// in\n    tag_206:\n        /* \"W6/simpleAMM/src/simpleAMMV6.sol\":3432:3439  _update */\n      tag_160\n        /* \"W6/simpleAMM/src/simpleAMMV6.sol\":3432:3494  _update(address(this).balance, token.balanceOf(address(this))) */\n      jump\t// in\n    tag_202:\n        /* \"W6/simpleAMM/src/simpleAMMV6.sol\":2854:3502  {... */\n      pop\n      pop\n        /* \"W6/simpleAMM/src/simpleAMMV6.sol\":2719:3502  function swap_WithSlipLock(uint256 _amountIn,uint256 _forwardOutput,uint256 _slipLock) public payable returns (uint256 amountOut)... */\n      swap4\n      swap3\n      pop\n      pop\n      pop\n      jump\t// out\n        /* \"W6/simpleAMM/src/simpleAMMV6.sol\":6295:6390  function my_shars() public view returns(uint256){... */\n    tag_51:\n        /* \"W6/simpleAMM/src/simpleAMMV6.sol\":6335:6342  uint256 */\n      0x00\n        /* \"W6/simpleAMM/src/simpleAMMV6.sol\":6361:6370  balanceOf */\n      0x04\n        /* \"W6/simpleAMM/src/simpleAMMV6.sol\":6361:6382  balanceOf[msg.sender] */\n      0x00\n        /* \"W6/simpleAMM/src/simpleAMMV6.sol\":6371:6381  msg.sender */\n      caller\n        /* \"W6/simpleAMM/src/simpleAMMV6.sol\":6361:6382  balanceOf[msg.sender] */\n      0xffffffffffffffffffffffffffffffffffffffff\n      and\n      0xffffffffffffffffffffffffffffffffffffffff\n      and\n      dup2\n      mstore\n      0x20\n      add\n      swap1\n      dup2\n      mstore\n      0x20\n      add\n      0x00\n      keccak256\n      sload\n        /* \"W6/simpleAMM/src/simpleAMMV6.sol\":6354:6382  return balanceOf[msg.sender] */\n      swap1\n      pop\n        /* \"W6/simpleAMM/src/simpleAMMV6.sol\":6295:6390  function my_shars() public view returns(uint256){... */\n      swap1\n      jump\t// out\n        /* \"W6/simpleAMM/src/simpleAMMV6.sol\":2065:2713  function swapTokenForETH(uint256 _amountIn) public returns (uint256 amountOut) {... */\n    tag_56:\n        /* \"W6/simpleAMM/src/simpleAMMV6.sol\":2125:2142  uint256 amountOut */\n      0x00\n        /* \"W6/simpleAMM/src/simpleAMMV6.sol\":2155:2178  uint256 amountInWithFee */\n      dup1\n        /* \"W6/simpleAMM/src/simpleAMMV6.sol\":2201:2205  1000 */\n      0x03e8\n        /* \"W6/simpleAMM/src/simpleAMMV6.sol\":2194:2197  997 */\n      0x03e5\n        /* \"W6/simpleAMM/src/simpleAMMV6.sol\":2182:2191  _amountIn */\n      dup5\n        /* \"W6/simpleAMM/src/simpleAMMV6.sol\":2182:2197  _amountIn * 997 */\n      tag_209\n      swap2\n      swap1\n      tag_132\n      jump\t// in\n    tag_209:\n        /* \"W6/simpleAMM/src/simpleAMMV6.sol\":2181:2205  (_amountIn * 997) / 1000 */\n      tag_210\n      swap2\n      swap1\n      tag_145\n      jump\t// in\n    tag_210:\n        /* \"W6/simpleAMM/src/simpleAMMV6.sol\":2155:2205  uint256 amountInWithFee = (_amountIn * 997) / 1000 */\n      swap1\n      pop\n        /* \"W6/simpleAMM/src/simpleAMMV6.sol\":2277:2292  amountInWithFee */\n      dup1\n        /* \"W6/simpleAMM/src/simpleAMMV6.sol\":2264:2274  reserveERC */\n      sload(0x02)\n        /* \"W6/simpleAMM/src/simpleAMMV6.sol\":2264:2292  reserveERC + amountInWithFee */\n      tag_211\n      swap2\n      swap1\n      tag_170\n      jump\t// in\n    tag_211:\n        /* \"W6/simpleAMM/src/simpleAMMV6.sol\":2244:2259  amountInWithFee */\n      dup2\n        /* \"W6/simpleAMM/src/simpleAMMV6.sol\":2231:2241  reserveETH */\n      sload(0x01)\n        /* \"W6/simpleAMM/src/simpleAMMV6.sol\":2231:2259  reserveETH * amountInWithFee */\n      tag_212\n      swap2\n      swap1\n      tag_132\n      jump\t// in\n    tag_212:\n        /* \"W6/simpleAMM/src/simpleAMMV6.sol\":2230:2293  (reserveETH * amountInWithFee) / (reserveERC + amountInWithFee) */\n      tag_213\n      swap2\n      swap1\n      tag_145\n      jump\t// in\n    tag_213:\n        /* \"W6/simpleAMM/src/simpleAMMV6.sol\":2218:2293  amountOut = (reserveETH * amountInWithFee) / (reserveERC + amountInWithFee) */\n      swap2\n      pop\n        /* \"W6/simpleAMM/src/simpleAMMV6.sol\":2324:2325  0 */\n      0x00\n        /* \"W6/simpleAMM/src/simpleAMMV6.sol\":2312:2321  amountOut */\n      dup3\n        /* \"W6/simpleAMM/src/simpleAMMV6.sol\":2312:2325  amountOut > 0 */\n      gt\n        /* \"W6/simpleAMM/src/simpleAMMV6.sol\":2304:2356  require(amountOut > 0, \"Insufficient output amount\") */\n      tag_214\n      jumpi\n      mload(0x40)\n      0x08c379a000000000000000000000000000000000000000000000000000000000\n      dup2\n      mstore\n      0x04\n      add\n      tag_215\n      swap1\n      tag_184\n      jump\t// in\n    tag_215:\n      mload(0x40)\n      dup1\n      swap2\n      sub\n      swap1\n      revert\n    tag_214:\n        /* \"W6/simpleAMM/src/simpleAMMV6.sol\":2367:2389  uint256 feeToDeveloper */\n      0x00\n        /* \"W6/simpleAMM/src/simpleAMMV6.sol\":2430:2434  2000 */\n      0x07d0\n        /* \"W6/simpleAMM/src/simpleAMMV6.sol\":2419:2429  reserveERC */\n      sload(0x02)\n        /* \"W6/simpleAMM/src/simpleAMMV6.sol\":2419:2434  reserveERC*2000 */\n      tag_216\n      swap2\n      swap1\n      tag_132\n      jump\t// in\n    tag_216:\n        /* \"W6/simpleAMM/src/simpleAMMV6.sol\":2406:2417  totalSupply */\n      sload(0x03)\n        /* \"W6/simpleAMM/src/simpleAMMV6.sol\":2404:2405  3 */\n      0x03\n        /* \"W6/simpleAMM/src/simpleAMMV6.sol\":2392:2401  _amountIn */\n      dup7\n        /* \"W6/simpleAMM/src/simpleAMMV6.sol\":2392:2405  _amountIn * 3 */\n      tag_217\n      swap2\n      swap1\n      tag_132\n      jump\t// in\n    tag_217:\n        /* \"W6/simpleAMM/src/simpleAMMV6.sol\":2392:2417  _amountIn * 3*totalSupply */\n      tag_218\n      swap2\n      swap1\n      tag_132\n      jump\t// in\n    tag_218:\n        /* \"W6/simpleAMM/src/simpleAMMV6.sol\":2392:2435  _amountIn * 3*totalSupply/(reserveERC*2000) */\n      tag_219\n      swap2\n      swap1\n      tag_145\n      jump\t// in\n    tag_219:\n        /* \"W6/simpleAMM/src/simpleAMMV6.sol\":2367:2435  uint256 feeToDeveloper = _amountIn * 3*totalSupply/(reserveERC*2000) */\n      swap1\n      pop\n        /* \"W6/simpleAMM/src/simpleAMMV6.sol\":2446:2477  _mint(developer,feeToDeveloper) */\n      tag_220\n        /* \"W6/simpleAMM/src/simpleAMMV6.sol\":2452:2461  developer */\n      0x00\n      dup1\n      sload\n      swap1\n      0x0100\n      exp\n      swap1\n      div\n      0xffffffffffffffffffffffffffffffffffffffff\n      and\n        /* \"W6/simpleAMM/src/simpleAMMV6.sol\":2462:2476  feeToDeveloper */\n      dup3\n        /* \"W6/simpleAMM/src/simpleAMMV6.sol\":2446:2451  _mint */\n      tag_153\n        /* \"W6/simpleAMM/src/simpleAMMV6.sol\":2446:2477  _mint(developer,feeToDeveloper) */\n      jump\t// in\n    tag_220:\n        /* \"W6/simpleAMM/src/simpleAMMV6.sol\":2524:2529  token */\n      immutable(\"0xe9ec5ebbfe521ba5a70e4c2b13332e74dda4e055153dc29723307e62e8ed0f2a\")\n        /* \"W6/simpleAMM/src/simpleAMMV6.sol\":2524:2542  token.transferFrom */\n      0xffffffffffffffffffffffffffffffffffffffff\n      and\n      0x23b872dd\n        /* \"W6/simpleAMM/src/simpleAMMV6.sol\":2543:2553  msg.sender */\n      caller\n        /* \"W6/simpleAMM/src/simpleAMMV6.sol\":2563:2567  this */\n      address\n        /* \"W6/simpleAMM/src/simpleAMMV6.sol\":2570:2579  _amountIn */\n      dup8\n        /* \"W6/simpleAMM/src/simpleAMMV6.sol\":2524:2580  token.transferFrom(msg.sender, address(this), _amountIn) */\n      mload(0x40)\n      dup5\n      0xffffffff\n      and\n      0xe0\n      shl\n      dup2\n      mstore\n      0x04\n      add\n      tag_221\n      swap4\n      swap3\n      swap2\n      swap1\n      tag_124\n      jump\t// in\n    tag_221:\n      0x20\n      mload(0x40)\n      dup1\n      dup4\n      sub\n      dup2\n      0x00\n      dup8\n      gas\n      call\n      iszero\n      dup1\n      iszero\n      tag_223\n      jumpi\n      returndatasize\n      0x00\n      dup1\n      returndatacopy\n      revert(0x00, returndatasize)\n    tag_223:\n      pop\n      pop\n      pop\n      pop\n      mload(0x40)\n      returndatasize\n      not(0x1f)\n      0x1f\n      dup3\n      add\n      and\n      dup3\n      add\n      dup1\n      0x40\n      mstore\n      pop\n      dup2\n      add\n      swap1\n      tag_224\n      swap2\n      swap1\n      tag_128\n      jump\t// in\n    tag_224:\n      pop\n        /* \"W6/simpleAMM/src/simpleAMMV6.sol\":2599:2609  msg.sender */\n      caller\n        /* \"W6/simpleAMM/src/simpleAMMV6.sol\":2591:2619  payable(msg.sender).transfer */\n      0xffffffffffffffffffffffffffffffffffffffff\n      and\n        /* \"W6/simpleAMM/src/simpleAMMV6.sol\":2591:2630  payable(msg.sender).transfer(amountOut) */\n      0x08fc\n        /* \"W6/simpleAMM/src/simpleAMMV6.sol\":2620:2629  amountOut */\n      dup5\n        /* \"W6/simpleAMM/src/simpleAMMV6.sol\":2591:2630  payable(msg.sender).transfer(amountOut) */\n      swap1\n      dup2\n      iszero\n      mul\n      swap1\n      mload(0x40)\n      0x00\n      mload(0x40)\n      dup1\n      dup4\n      sub\n      dup2\n      dup6\n      dup9\n      dup9\n      call\n      swap4\n      pop\n      pop\n      pop\n      pop\n      iszero\n      dup1\n      iszero\n      tag_226\n      jumpi\n      returndatasize\n      0x00\n      dup1\n      returndatacopy\n      revert(0x00, returndatasize)\n    tag_226:\n      pop\n        /* \"W6/simpleAMM/src/simpleAMMV6.sol\":2643:2705  _update(address(this).balance, token.balanceOf(address(this))) */\n      tag_227\n        /* \"W6/simpleAMM/src/simpleAMMV6.sol\":2651:2672  address(this).balance */\n      selfbalance\n        /* \"W6/simpleAMM/src/simpleAMMV6.sol\":2674:2679  token */\n      immutable(\"0xe9ec5ebbfe521ba5a70e4c2b13332e74dda4e055153dc29723307e62e8ed0f2a\")\n        /* \"W6/simpleAMM/src/simpleAMMV6.sol\":2674:2689  token.balanceOf */\n      0xffffffffffffffffffffffffffffffffffffffff\n      and\n      0x70a08231\n        /* \"W6/simpleAMM/src/simpleAMMV6.sol\":2698:2702  this */\n      address\n        /* \"W6/simpleAMM/src/simpleAMMV6.sol\":2674:2704  token.balanceOf(address(this)) */\n      mload(0x40)\n      dup3\n      0xffffffff\n      and\n      0xe0\n      shl\n      dup2\n      mstore\n      0x04\n      add\n      tag_228\n      swap2\n      swap1\n      tag_93\n      jump\t// in\n    tag_228:\n      0x20\n      mload(0x40)\n      dup1\n      dup4\n      sub\n      dup2\n      dup7\n      gas\n      staticcall\n      iszero\n      dup1\n      iszero\n      tag_230\n      jumpi\n      returndatasize\n      0x00\n      dup1\n      returndatacopy\n      revert(0x00, returndatasize)\n    tag_230:\n      pop\n      pop\n      pop\n      pop\n      mload(0x40)\n      returndatasize\n      not(0x1f)\n      0x1f\n      dup3\n      add\n      and\n      dup3\n      add\n      dup1\n      0x40\n      mstore\n      pop\n      dup2\n      add\n      swap1\n      tag_231\n      swap2\n      swap1\n      tag_159\n      jump\t// in\n    tag_231:\n        /* \"W6/simpleAMM/src/simpleAMMV6.sol\":2643:2650  _update */\n      tag_160\n        /* \"W6/simpleAMM/src/simpleAMMV6.sol\":2643:2705  _update(address(this).balance, token.balanceOf(address(this))) */\n      jump\t// in\n    tag_227:\n        /* \"W6/simpleAMM/src/simpleAMMV6.sol\":2144:2713  {... */\n      pop\n      pop\n        /* \"W6/simpleAMM/src/simpleAMMV6.sol\":2065:2713  function swapTokenForETH(uint256 _amountIn) public returns (uint256 amountOut) {... */\n      swap2\n      swap1\n      pop\n      jump\t// out\n        /* \"W6/simpleAMM/src/simpleAMMV6.sol\":893:937  mapping(address => uint256) public balanceOf */\n    tag_62:\n      mstore(0x20, 0x04)\n      dup1\n      0x00\n      mstore\n      keccak256(0x00, 0x40)\n      0x00\n      swap2\n      pop\n      swap1\n      pop\n      sload\n      dup2\n      jump\t// out\n        /* \"W6/simpleAMM/src/simpleAMMV6.sol\":5084:5249  function removeAllLiquidity(address _user) external returns (uint256 amountETH, uint256 amountERC) {... */\n    tag_67:\n        /* \"W6/simpleAMM/src/simpleAMMV6.sol\":5145:5162  uint256 amountETH */\n      0x00\n        /* \"W6/simpleAMM/src/simpleAMMV6.sol\":5164:5181  uint256 amountERC */\n      dup1\n        /* \"W6/simpleAMM/src/simpleAMMV6.sol\":5201:5241  _removeLiquidity(_user,balanceOf[_user]) */\n      tag_233\n        /* \"W6/simpleAMM/src/simpleAMMV6.sol\":5218:5223  _user */\n      dup4\n        /* \"W6/simpleAMM/src/simpleAMMV6.sol\":5224:5233  balanceOf */\n      0x04\n        /* \"W6/simpleAMM/src/simpleAMMV6.sol\":5224:5240  balanceOf[_user] */\n      0x00\n        /* \"W6/simpleAMM/src/simpleAMMV6.sol\":5234:5239  _user */\n      dup7\n        /* \"W6/simpleAMM/src/simpleAMMV6.sol\":5224:5240  balanceOf[_user] */\n      0xffffffffffffffffffffffffffffffffffffffff\n      and\n      0xffffffffffffffffffffffffffffffffffffffff\n      and\n      dup2\n      mstore\n      0x20\n      add\n      swap1\n      dup2\n      mstore\n      0x20\n      add\n      0x00\n      keccak256\n      sload\n        /* \"W6/simpleAMM/src/simpleAMMV6.sol\":5201:5217  _removeLiquidity */\n      tag_234\n        /* \"W6/simpleAMM/src/simpleAMMV6.sol\":5201:5241  _removeLiquidity(_user,balanceOf[_user]) */\n      jump\t// in\n    tag_233:\n        /* \"W6/simpleAMM/src/simpleAMMV6.sol\":5194:5241  return _removeLiquidity(_user,balanceOf[_user]) */\n      swap2\n      pop\n      swap2\n      pop\n        /* \"W6/simpleAMM/src/simpleAMMV6.sol\":5084:5249  function removeAllLiquidity(address _user) external returns (uint256 amountETH, uint256 amountERC) {... */\n      swap2\n      pop\n      swap2\n      jump\t// out\n        /* \"W6/simpleAMM/src/simpleAMMV6.sol\":1481:2059  function swap(uint256 _amountIn) public payable returns (uint256 amountOut) {... */\n    tag_72:\n        /* \"W6/simpleAMM/src/simpleAMMV6.sol\":1538:1555  uint256 amountOut */\n      0x00\n        /* \"W6/simpleAMM/src/simpleAMMV6.sol\":1589:1598  _amountIn */\n      dup2\n        /* \"W6/simpleAMM/src/simpleAMMV6.sol\":1576:1585  msg.value */\n      callvalue\n        /* \"W6/simpleAMM/src/simpleAMMV6.sol\":1576:1598  msg.value == _amountIn */\n      eq\n        /* \"W6/simpleAMM/src/simpleAMMV6.sol\":1568:1622  require(msg.value == _amountIn, \"ETH amount mismatch\") */\n      tag_236\n      jumpi\n      mload(0x40)\n      0x08c379a000000000000000000000000000000000000000000000000000000000\n      dup2\n      mstore\n      0x04\n      add\n      tag_237\n      swap1\n      tag_176\n      jump\t// in\n    tag_237:\n      mload(0x40)\n      dup1\n      swap2\n      sub\n      swap1\n      revert\n    tag_236:\n        /* \"W6/simpleAMM/src/simpleAMMV6.sol\":1635:1658  uint256 amountInWithFee */\n      0x00\n        /* \"W6/simpleAMM/src/simpleAMMV6.sol\":1681:1685  1000 */\n      0x03e8\n        /* \"W6/simpleAMM/src/simpleAMMV6.sol\":1674:1677  997 */\n      0x03e5\n        /* \"W6/simpleAMM/src/simpleAMMV6.sol\":1662:1671  _amountIn */\n      dup5\n        /* \"W6/simpleAMM/src/simpleAMMV6.sol\":1662:1677  _amountIn * 997 */\n      tag_238\n      swap2\n      swap1\n      tag_132\n      jump\t// in\n    tag_238:\n        /* \"W6/simpleAMM/src/simpleAMMV6.sol\":1661:1685  (_amountIn * 997) / 1000 */\n      tag_239\n      swap2\n      swap1\n      tag_145\n      jump\t// in\n    tag_239:\n        /* \"W6/simpleAMM/src/simpleAMMV6.sol\":1635:1685  uint256 amountInWithFee = (_amountIn * 997) / 1000 */\n      swap1\n      pop\n        /* \"W6/simpleAMM/src/simpleAMMV6.sol\":1755:1770  amountInWithFee */\n      dup1\n        /* \"W6/simpleAMM/src/simpleAMMV6.sol\":1742:1752  reserveETH */\n      sload(0x01)\n        /* \"W6/simpleAMM/src/simpleAMMV6.sol\":1742:1770  reserveETH + amountInWithFee */\n      tag_240\n      swap2\n      swap1\n      tag_170\n      jump\t// in\n    tag_240:\n        /* \"W6/simpleAMM/src/simpleAMMV6.sol\":1722:1737  amountInWithFee */\n      dup2\n        /* \"W6/simpleAMM/src/simpleAMMV6.sol\":1709:1719  reserveERC */\n      sload(0x02)\n        /* \"W6/simpleAMM/src/simpleAMMV6.sol\":1709:1737  reserveERC * amountInWithFee */\n      tag_241\n      swap2\n      swap1\n      tag_132\n      jump\t// in\n    tag_241:\n        /* \"W6/simpleAMM/src/simpleAMMV6.sol\":1708:1771  (reserveERC * amountInWithFee) / (reserveETH + amountInWithFee) */\n      tag_242\n      swap2\n      swap1\n      tag_145\n      jump\t// in\n    tag_242:\n        /* \"W6/simpleAMM/src/simpleAMMV6.sol\":1696:1771  amountOut = (reserveERC * amountInWithFee) / (reserveETH + amountInWithFee) */\n      swap2\n      pop\n        /* \"W6/simpleAMM/src/simpleAMMV6.sol\":1782:1804  uint256 feeToDeveloper */\n      0x00\n        /* \"W6/simpleAMM/src/simpleAMMV6.sol\":1845:1849  2000 */\n      0x07d0\n        /* \"W6/simpleAMM/src/simpleAMMV6.sol\":1834:1844  reserveETH */\n      sload(0x01)\n        /* \"W6/simpleAMM/src/simpleAMMV6.sol\":1834:1849  reserveETH*2000 */\n      tag_243\n      swap2\n      swap1\n      tag_132\n      jump\t// in\n    tag_243:\n        /* \"W6/simpleAMM/src/simpleAMMV6.sol\":1821:1832  totalSupply */\n      sload(0x03)\n        /* \"W6/simpleAMM/src/simpleAMMV6.sol\":1819:1820  3 */\n      0x03\n        /* \"W6/simpleAMM/src/simpleAMMV6.sol\":1807:1816  _amountIn */\n      dup7\n        /* \"W6/simpleAMM/src/simpleAMMV6.sol\":1807:1820  _amountIn * 3 */\n      tag_244\n      swap2\n      swap1\n      tag_132\n      jump\t// in\n    tag_244:\n        /* \"W6/simpleAMM/src/simpleAMMV6.sol\":1807:1832  _amountIn * 3*totalSupply */\n      tag_245\n      swap2\n      swap1\n      tag_132\n      jump\t// in\n    tag_245:\n        /* \"W6/simpleAMM/src/simpleAMMV6.sol\":1807:1850  _amountIn * 3*totalSupply/(reserveETH*2000) */\n      tag_246\n      swap2\n      swap1\n      tag_145\n      jump\t// in\n    tag_246:\n        /* \"W6/simpleAMM/src/simpleAMMV6.sol\":1782:1850  uint256 feeToDeveloper = _amountIn * 3*totalSupply/(reserveETH*2000) */\n      swap1\n      pop\n        /* \"W6/simpleAMM/src/simpleAMMV6.sol\":1861:1892  _mint(developer,feeToDeveloper) */\n      tag_247\n        /* \"W6/simpleAMM/src/simpleAMMV6.sol\":1867:1876  developer */\n      0x00\n      dup1\n      sload\n      swap1\n      0x0100\n      exp\n      swap1\n      div\n      0xffffffffffffffffffffffffffffffffffffffff\n      and\n        /* \"W6/simpleAMM/src/simpleAMMV6.sol\":1877:1891  feeToDeveloper */\n      dup3\n        /* \"W6/simpleAMM/src/simpleAMMV6.sol\":1861:1866  _mint */\n      tag_153\n        /* \"W6/simpleAMM/src/simpleAMMV6.sol\":1861:1892  _mint(developer,feeToDeveloper) */\n      jump\t// in\n    tag_247:\n        /* \"W6/simpleAMM/src/simpleAMMV6.sol\":1939:1944  token */\n      immutable(\"0xe9ec5ebbfe521ba5a70e4c2b13332e74dda4e055153dc29723307e62e8ed0f2a\")\n        /* \"W6/simpleAMM/src/simpleAMMV6.sol\":1939:1953  token.transfer */\n      0xffffffffffffffffffffffffffffffffffffffff\n      and\n      0xa9059cbb\n        /* \"W6/simpleAMM/src/simpleAMMV6.sol\":1954:1964  msg.sender */\n      caller\n        /* \"W6/simpleAMM/src/simpleAMMV6.sol\":1966:1975  amountOut */\n      dup6\n        /* \"W6/simpleAMM/src/simpleAMMV6.sol\":1939:1976  token.transfer(msg.sender, amountOut) */\n      mload(0x40)\n      dup4\n      0xffffffff\n      and\n      0xe0\n      shl\n      dup2\n      mstore\n      0x04\n      add\n      tag_248\n      swap3\n      swap2\n      swap1\n      tag_198\n      jump\t// in\n    tag_248:\n      0x20\n      mload(0x40)\n      dup1\n      dup4\n      sub\n      dup2\n      0x00\n      dup8\n      gas\n      call\n      iszero\n      dup1\n      iszero\n      tag_250\n      jumpi\n      returndatasize\n      0x00\n      dup1\n      returndatacopy\n      revert(0x00, returndatasize)\n    tag_250:\n      pop\n      pop\n      pop\n      pop\n      mload(0x40)\n      returndatasize\n      not(0x1f)\n      0x1f\n      dup3\n      add\n      and\n      dup3\n      add\n      dup1\n      0x40\n      mstore\n      pop\n      dup2\n      add\n      swap1\n      tag_251\n      swap2\n      swap1\n      tag_128\n      jump\t// in\n    tag_251:\n      pop\n        /* \"W6/simpleAMM/src/simpleAMMV6.sol\":1989:2051  _update(address(this).balance, token.balanceOf(address(this))) */\n      tag_252\n        /* \"W6/simpleAMM/src/simpleAMMV6.sol\":1997:2018  address(this).balance */\n      selfbalance\n        /* \"W6/simpleAMM/src/simpleAMMV6.sol\":2020:2025  token */\n      immutable(\"0xe9ec5ebbfe521ba5a70e4c2b13332e74dda4e055153dc29723307e62e8ed0f2a\")\n        /* \"W6/simpleAMM/src/simpleAMMV6.sol\":2020:2035  token.balanceOf */\n      0xffffffffffffffffffffffffffffffffffffffff\n      and\n      0x70a08231\n        /* \"W6/simpleAMM/src/simpleAMMV6.sol\":2044:2048  this */\n      address\n        /* \"W6/simpleAMM/src/simpleAMMV6.sol\":2020:2050  token.balanceOf(address(this)) */\n      mload(0x40)\n      dup3\n      0xffffffff\n      and\n      0xe0\n      shl\n      dup2\n      mstore\n      0x04\n      add\n      tag_253\n      swap2\n      swap1\n      tag_93\n      jump\t// in\n    tag_253:\n      0x20\n      mload(0x40)\n      dup1\n      dup4\n      sub\n      dup2\n      dup7\n      gas\n      staticcall\n      iszero\n      dup1\n      iszero\n      tag_255\n      jumpi\n      returndatasize\n      0x00\n      dup1\n      returndatacopy\n      revert(0x00, returndatasize)\n    tag_255:\n      pop\n      pop\n      pop\n      pop\n      mload(0x40)\n      returndatasize\n      not(0x1f)\n      0x1f\n      dup3\n      add\n      and\n      dup3\n      add\n      dup1\n      0x40\n      mstore\n      pop\n      dup2\n      add\n      swap1\n      tag_256\n      swap2\n      swap1\n      tag_159\n      jump\t// in\n    tag_256:\n        /* \"W6/simpleAMM/src/simpleAMMV6.sol\":1989:1996  _update */\n      tag_160\n        /* \"W6/simpleAMM/src/simpleAMMV6.sol\":1989:2051  _update(address(this).balance, token.balanceOf(address(this))) */\n      jump\t// in\n    tag_252:\n        /* \"W6/simpleAMM/src/simpleAMMV6.sol\":1557:2059  {... */\n      pop\n      pop\n        /* \"W6/simpleAMM/src/simpleAMMV6.sol\":1481:2059  function swap(uint256 _amountIn) public payable returns (uint256 amountOut) {... */\n      swap2\n      swap1\n      pop\n      jump\t// out\n        /* \"W6/simpleAMM/src/simpleAMMV6.sol\":5255:5492  function removeLiquidity(uint256 _shares) external returns (uint256 amountETH, uint256 amountERC) {... */\n    tag_77:\n        /* \"W6/simpleAMM/src/simpleAMMV6.sol\":5315:5332  uint256 amountETH */\n      0x00\n        /* \"W6/simpleAMM/src/simpleAMMV6.sol\":5334:5351  uint256 amountERC */\n      dup1\n        /* \"W6/simpleAMM/src/simpleAMMV6.sol\":5383:5392  balanceOf */\n      0x04\n        /* \"W6/simpleAMM/src/simpleAMMV6.sol\":5383:5404  balanceOf[msg.sender] */\n      0x00\n        /* \"W6/simpleAMM/src/simpleAMMV6.sol\":5393:5403  msg.sender */\n      caller\n        /* \"W6/simpleAMM/src/simpleAMMV6.sol\":5383:5404  balanceOf[msg.sender] */\n      0xffffffffffffffffffffffffffffffffffffffff\n      and\n      0xffffffffffffffffffffffffffffffffffffffff\n      and\n      dup2\n      mstore\n      0x20\n      add\n      swap1\n      dup2\n      mstore\n      0x20\n      add\n      0x00\n      keccak256\n      sload\n        /* \"W6/simpleAMM/src/simpleAMMV6.sol\":5372:5379  _shares */\n      dup4\n        /* \"W6/simpleAMM/src/simpleAMMV6.sol\":5372:5404  _shares <= balanceOf[msg.sender] */\n      gt\n      iszero\n        /* \"W6/simpleAMM/src/simpleAMMV6.sol\":5364:5429  require(_shares <= balanceOf[msg.sender], \"Insufficient balance\") */\n      tag_258\n      jumpi\n      mload(0x40)\n      0x08c379a000000000000000000000000000000000000000000000000000000000\n      dup2\n      mstore\n      0x04\n      add\n      tag_259\n      swap1\n      tag_260\n      jump\t// in\n    tag_259:\n      mload(0x40)\n      dup1\n      swap2\n      sub\n      swap1\n      revert\n    tag_258:\n        /* \"W6/simpleAMM/src/simpleAMMV6.sol\":5447:5484  _removeLiquidity(msg.sender, _shares) */\n      tag_261\n        /* \"W6/simpleAMM/src/simpleAMMV6.sol\":5464:5474  msg.sender */\n      caller\n        /* \"W6/simpleAMM/src/simpleAMMV6.sol\":5476:5483  _shares */\n      dup5\n        /* \"W6/simpleAMM/src/simpleAMMV6.sol\":5447:5463  _removeLiquidity */\n      tag_234\n        /* \"W6/simpleAMM/src/simpleAMMV6.sol\":5447:5484  _removeLiquidity(msg.sender, _shares) */\n      jump\t// in\n    tag_261:\n        /* \"W6/simpleAMM/src/simpleAMMV6.sol\":5440:5484  return _removeLiquidity(msg.sender, _shares) */\n      swap2\n      pop\n      swap2\n      pop\n        /* \"W6/simpleAMM/src/simpleAMMV6.sol\":5255:5492  function removeLiquidity(uint256 _shares) external returns (uint256 amountETH, uint256 amountERC) {... */\n      swap2\n      pop\n      swap2\n      jump\t// out\n        /* \"W6/simpleAMM/src/simpleAMMV6.sol\":5500:5742  function removeLiquidity(address _user, uint256 _shares) external returns (uint256 amountETH, uint256 amountERC) {... */\n    tag_83:\n        /* \"W6/simpleAMM/src/simpleAMMV6.sol\":5575:5592  uint256 amountETH */\n      0x00\n        /* \"W6/simpleAMM/src/simpleAMMV6.sol\":5594:5611  uint256 amountERC */\n      dup1\n        /* \"W6/simpleAMM/src/simpleAMMV6.sol\":5643:5652  balanceOf */\n      0x04\n        /* \"W6/simpleAMM/src/simpleAMMV6.sol\":5643:5659  balanceOf[_user] */\n      0x00\n        /* \"W6/simpleAMM/src/simpleAMMV6.sol\":5653:5658  _user */\n      dup6\n        /* \"W6/simpleAMM/src/simpleAMMV6.sol\":5643:5659  balanceOf[_user] */\n      0xffffffffffffffffffffffffffffffffffffffff\n      and\n      0xffffffffffffffffffffffffffffffffffffffff\n      and\n      dup2\n      mstore\n      0x20\n      add\n      swap1\n      dup2\n      mstore\n      0x20\n      add\n      0x00\n      keccak256\n      sload\n        /* \"W6/simpleAMM/src/simpleAMMV6.sol\":5632:5639  _shares */\n      dup4\n        /* \"W6/simpleAMM/src/simpleAMMV6.sol\":5632:5659  _shares <= balanceOf[_user] */\n      gt\n      iszero\n        /* \"W6/simpleAMM/src/simpleAMMV6.sol\":5624:5684  require(_shares <= balanceOf[_user], \"Insufficient balance\") */\n      tag_263\n      jumpi\n      mload(0x40)\n      0x08c379a000000000000000000000000000000000000000000000000000000000\n      dup2\n      mstore\n      0x04\n      add\n      tag_264\n      swap1\n      tag_260\n      jump\t// in\n    tag_264:\n      mload(0x40)\n      dup1\n      swap2\n      sub\n      swap1\n      revert\n    tag_263:\n        /* \"W6/simpleAMM/src/simpleAMMV6.sol\":5702:5734  _removeLiquidity(_user, _shares) */\n      tag_265\n        /* \"W6/simpleAMM/src/simpleAMMV6.sol\":5719:5724  _user */\n      dup5\n        /* \"W6/simpleAMM/src/simpleAMMV6.sol\":5726:5733  _shares */\n      dup5\n        /* \"W6/simpleAMM/src/simpleAMMV6.sol\":5702:5718  _removeLiquidity */\n      tag_234\n        /* \"W6/simpleAMM/src/simpleAMMV6.sol\":5702:5734  _removeLiquidity(_user, _shares) */\n      jump\t// in\n    tag_265:\n        /* \"W6/simpleAMM/src/simpleAMMV6.sol\":5695:5734  return _removeLiquidity(_user, _shares) */\n      swap2\n      pop\n      swap2\n      pop\n        /* \"W6/simpleAMM/src/simpleAMMV6.sol\":5500:5742  function removeLiquidity(address _user, uint256 _shares) external returns (uint256 amountETH, uint256 amountERC) {... */\n      swap3\n      pop\n      swap3\n      swap1\n      pop\n      jump\t// out\n        /* \"W6/simpleAMM/src/simpleAMMV6.sol\":6930:7119  function getETHPrice() public view returns (uint256) {... */\n    tag_87:\n        /* \"W6/simpleAMM/src/simpleAMMV6.sol\":6974:6981  uint256 */\n      0x00\n        /* \"W6/simpleAMM/src/simpleAMMV6.sol\":7015:7016  0 */\n      dup1\n        /* \"W6/simpleAMM/src/simpleAMMV6.sol\":7002:7012  reserveETH */\n      sload(0x01)\n        /* \"W6/simpleAMM/src/simpleAMMV6.sol\":7002:7016  reserveETH > 0 */\n      gt\n        /* \"W6/simpleAMM/src/simpleAMMV6.sol\":7002:7034  reserveETH > 0 && reserveERC > 0 */\n      dup1\n      iszero\n      tag_267\n      jumpi\n      pop\n        /* \"W6/simpleAMM/src/simpleAMMV6.sol\":7033:7034  0 */\n      0x00\n        /* \"W6/simpleAMM/src/simpleAMMV6.sol\":7020:7030  reserveERC */\n      sload(0x02)\n        /* \"W6/simpleAMM/src/simpleAMMV6.sol\":7020:7034  reserveERC > 0 */\n      gt\n        /* \"W6/simpleAMM/src/simpleAMMV6.sol\":7002:7034  reserveETH > 0 && reserveERC > 0 */\n    tag_267:\n        /* \"W6/simpleAMM/src/simpleAMMV6.sol\":6994:7059  require(reserveETH > 0 && reserveERC > 0, \"Invalid ETH reserves\") */\n      tag_268\n      jumpi\n      mload(0x40)\n      0x08c379a000000000000000000000000000000000000000000000000000000000\n      dup2\n      mstore\n      0x04\n      add\n      tag_269\n      swap1\n      tag_270\n      jump\t// in\n    tag_269:\n      mload(0x40)\n      dup1\n      swap2\n      sub\n      swap1\n      revert\n    tag_268:\n        /* \"W6/simpleAMM/src/simpleAMMV6.sol\":7101:7111  reserveETH */\n      sload(0x01)\n        /* \"W6/simpleAMM/src/simpleAMMV6.sol\":7091:7097  10**18 */\n      0x0de0b6b3a7640000\n        /* \"W6/simpleAMM/src/simpleAMMV6.sol\":7078:7088  reserveERC */\n      sload(0x02)\n        /* \"W6/simpleAMM/src/simpleAMMV6.sol\":7078:7097  reserveERC * 10**18 */\n      tag_271\n      swap2\n      swap1\n      tag_132\n      jump\t// in\n    tag_271:\n        /* \"W6/simpleAMM/src/simpleAMMV6.sol\":7077:7111  (reserveERC * 10**18) / reserveETH */\n      tag_272\n      swap2\n      swap1\n      tag_145\n      jump\t// in\n    tag_272:\n        /* \"W6/simpleAMM/src/simpleAMMV6.sol\":7070:7111  return (reserveERC * 10**18) / reserveETH */\n      swap1\n      pop\n        /* \"W6/simpleAMM/src/simpleAMMV6.sol\":6930:7119  function getETHPrice() public view returns (uint256) {... */\n      swap1\n      jump\t// out\n        /* \"W6/simpleAMM/src/simpleAMMV6.sol\":721:769  address public constant ETH_ADDRESS = address(0) */\n    tag_91:\n        /* \"W6/simpleAMM/src/simpleAMMV6.sol\":767:768  0 */\n      0x00\n        /* \"W6/simpleAMM/src/simpleAMMV6.sol\":721:769  address public constant ETH_ADDRESS = address(0) */\n      dup2\n      jump\t// out\n        /* \"W6/simpleAMM/src/simpleAMMV6.sol\":3508:4293  function swapTokenForETH_WithSlipLock(uint256 _amountIn,uint256 _forwardOutput,uint256 _slipLock) public returns (uint256 amountOut) {... */\n    tag_97:\n        /* \"W6/simpleAMM/src/simpleAMMV6.sol\":3622:3639  uint256 amountOut */\n      0x00\n        /* \"W6/simpleAMM/src/simpleAMMV6.sol\":3652:3675  uint256 amountInWithFee */\n      dup1\n        /* \"W6/simpleAMM/src/simpleAMMV6.sol\":3698:3702  1000 */\n      0x03e8\n        /* \"W6/simpleAMM/src/simpleAMMV6.sol\":3691:3694  997 */\n      0x03e5\n        /* \"W6/simpleAMM/src/simpleAMMV6.sol\":3679:3688  _amountIn */\n      dup7\n        /* \"W6/simpleAMM/src/simpleAMMV6.sol\":3679:3694  _amountIn * 997 */\n      tag_274\n      swap2\n      swap1\n      tag_132\n      jump\t// in\n    tag_274:\n        /* \"W6/simpleAMM/src/simpleAMMV6.sol\":3678:3702  (_amountIn * 997) / 1000 */\n      tag_275\n      swap2\n      swap1\n      tag_145\n      jump\t// in\n    tag_275:\n        /* \"W6/simpleAMM/src/simpleAMMV6.sol\":3652:3702  uint256 amountInWithFee = (_amountIn * 997) / 1000 */\n      swap1\n      pop\n        /* \"W6/simpleAMM/src/simpleAMMV6.sol\":3774:3789  amountInWithFee */\n      dup1\n        /* \"W6/simpleAMM/src/simpleAMMV6.sol\":3761:3771  reserveERC */\n      sload(0x02)\n        /* \"W6/simpleAMM/src/simpleAMMV6.sol\":3761:3789  reserveERC + amountInWithFee */\n      tag_276\n      swap2\n      swap1\n      tag_170\n      jump\t// in\n    tag_276:\n        /* \"W6/simpleAMM/src/simpleAMMV6.sol\":3741:3756  amountInWithFee */\n      dup2\n        /* \"W6/simpleAMM/src/simpleAMMV6.sol\":3728:3738  reserveETH */\n      sload(0x01)\n        /* \"W6/simpleAMM/src/simpleAMMV6.sol\":3728:3756  reserveETH * amountInWithFee */\n      tag_277\n      swap2\n      swap1\n      tag_132\n      jump\t// in\n    tag_277:\n        /* \"W6/simpleAMM/src/simpleAMMV6.sol\":3727:3790  (reserveETH * amountInWithFee) / (reserveERC + amountInWithFee) */\n      tag_278\n      swap2\n      swap1\n      tag_145\n      jump\t// in\n    tag_278:\n        /* \"W6/simpleAMM/src/simpleAMMV6.sol\":3715:3790  amountOut = (reserveETH * amountInWithFee) / (reserveERC + amountInWithFee) */\n      swap2\n      pop\n        /* \"W6/simpleAMM/src/simpleAMMV6.sol\":3821:3822  0 */\n      0x00\n        /* \"W6/simpleAMM/src/simpleAMMV6.sol\":3809:3818  amountOut */\n      dup3\n        /* \"W6/simpleAMM/src/simpleAMMV6.sol\":3809:3822  amountOut > 0 */\n      gt\n        /* \"W6/simpleAMM/src/simpleAMMV6.sol\":3801:3853  require(amountOut > 0, \"Insufficient output amount\") */\n      tag_279\n      jumpi\n      mload(0x40)\n      0x08c379a000000000000000000000000000000000000000000000000000000000\n      dup2\n      mstore\n      0x04\n      add\n      tag_280\n      swap1\n      tag_184\n      jump\t// in\n    tag_280:\n      mload(0x40)\n      dup1\n      swap2\n      sub\n      swap1\n      revert\n    tag_279:\n        /* \"W6/simpleAMM/src/simpleAMMV6.sol\":3918:3922  1000 */\n      0x03e8\n        /* \"W6/simpleAMM/src/simpleAMMV6.sol\":3907:3916  _slipLock */\n      dup4\n        /* \"W6/simpleAMM/src/simpleAMMV6.sol\":3902:3906  1000 */\n      0x03e8\n        /* \"W6/simpleAMM/src/simpleAMMV6.sol\":3902:3916  1000-_slipLock */\n      tag_281\n      swap2\n      swap1\n      tag_186\n      jump\t// in\n    tag_281:\n        /* \"W6/simpleAMM/src/simpleAMMV6.sol\":3886:3900  _forwardOutput */\n      dup6\n        /* \"W6/simpleAMM/src/simpleAMMV6.sol\":3886:3917  _forwardOutput*(1000-_slipLock) */\n      tag_282\n      swap2\n      swap1\n      tag_132\n      jump\t// in\n    tag_282:\n        /* \"W6/simpleAMM/src/simpleAMMV6.sol\":3886:3922  _forwardOutput*(1000-_slipLock)/1000 */\n      tag_283\n      swap2\n      swap1\n      tag_145\n      jump\t// in\n    tag_283:\n        /* \"W6/simpleAMM/src/simpleAMMV6.sol\":3872:3881  amountOut */\n      dup3\n        /* \"W6/simpleAMM/src/simpleAMMV6.sol\":3872:3923  amountOut >= (_forwardOutput*(1000-_slipLock)/1000) */\n      lt\n      iszero\n        /* \"W6/simpleAMM/src/simpleAMMV6.sol\":3864:3936  require(amountOut >= (_forwardOutput*(1000-_slipLock)/1000), \"SlipLock\") */\n      tag_284\n      jumpi\n      mload(0x40)\n      0x08c379a000000000000000000000000000000000000000000000000000000000\n      dup2\n      mstore\n      0x04\n      add\n      tag_285\n      swap1\n      tag_191\n      jump\t// in\n    tag_285:\n      mload(0x40)\n      dup1\n      swap2\n      sub\n      swap1\n      revert\n    tag_284:\n        /* \"W6/simpleAMM/src/simpleAMMV6.sol\":3947:3969  uint256 feeToDeveloper */\n      0x00\n        /* \"W6/simpleAMM/src/simpleAMMV6.sol\":4010:4014  2000 */\n      0x07d0\n        /* \"W6/simpleAMM/src/simpleAMMV6.sol\":3999:4009  reserveERC */\n      sload(0x02)\n        /* \"W6/simpleAMM/src/simpleAMMV6.sol\":3999:4014  reserveERC*2000 */\n      tag_286\n      swap2\n      swap1\n      tag_132\n      jump\t// in\n    tag_286:\n        /* \"W6/simpleAMM/src/simpleAMMV6.sol\":3986:3997  totalSupply */\n      sload(0x03)\n        /* \"W6/simpleAMM/src/simpleAMMV6.sol\":3984:3985  3 */\n      0x03\n        /* \"W6/simpleAMM/src/simpleAMMV6.sol\":3972:3981  _amountIn */\n      dup9\n        /* \"W6/simpleAMM/src/simpleAMMV6.sol\":3972:3985  _amountIn * 3 */\n      tag_287\n      swap2\n      swap1\n      tag_132\n      jump\t// in\n    tag_287:\n        /* \"W6/simpleAMM/src/simpleAMMV6.sol\":3972:3997  _amountIn * 3*totalSupply */\n      tag_288\n      swap2\n      swap1\n      tag_132\n      jump\t// in\n    tag_288:\n        /* \"W6/simpleAMM/src/simpleAMMV6.sol\":3972:4015  _amountIn * 3*totalSupply/(reserveERC*2000) */\n      tag_289\n      swap2\n      swap1\n      tag_145\n      jump\t// in\n    tag_289:\n        /* \"W6/simpleAMM/src/simpleAMMV6.sol\":3947:4015  uint256 feeToDeveloper = _amountIn * 3*totalSupply/(reserveERC*2000) */\n      swap1\n      pop\n        /* \"W6/simpleAMM/src/simpleAMMV6.sol\":4026:4057  _mint(developer,feeToDeveloper) */\n      tag_290\n        /* \"W6/simpleAMM/src/simpleAMMV6.sol\":4032:4041  developer */\n      0x00\n      dup1\n      sload\n      swap1\n      0x0100\n      exp\n      swap1\n      div\n      0xffffffffffffffffffffffffffffffffffffffff\n      and\n        /* \"W6/simpleAMM/src/simpleAMMV6.sol\":4042:4056  feeToDeveloper */\n      dup3\n        /* \"W6/simpleAMM/src/simpleAMMV6.sol\":4026:4031  _mint */\n      tag_153\n        /* \"W6/simpleAMM/src/simpleAMMV6.sol\":4026:4057  _mint(developer,feeToDeveloper) */\n      jump\t// in\n    tag_290:\n        /* \"W6/simpleAMM/src/simpleAMMV6.sol\":4104:4109  token */\n      immutable(\"0xe9ec5ebbfe521ba5a70e4c2b13332e74dda4e055153dc29723307e62e8ed0f2a\")\n        /* \"W6/simpleAMM/src/simpleAMMV6.sol\":4104:4122  token.transferFrom */\n      0xffffffffffffffffffffffffffffffffffffffff\n      and\n      0x23b872dd\n        /* \"W6/simpleAMM/src/simpleAMMV6.sol\":4123:4133  msg.sender */\n      caller\n        /* \"W6/simpleAMM/src/simpleAMMV6.sol\":4143:4147  this */\n      address\n        /* \"W6/simpleAMM/src/simpleAMMV6.sol\":4150:4159  _amountIn */\n      dup10\n        /* \"W6/simpleAMM/src/simpleAMMV6.sol\":4104:4160  token.transferFrom(msg.sender, address(this), _amountIn) */\n      mload(0x40)\n      dup5\n      0xffffffff\n      and\n      0xe0\n      shl\n      dup2\n      mstore\n      0x04\n      add\n      tag_291\n      swap4\n      swap3\n      swap2\n      swap1\n      tag_124\n      jump\t// in\n    tag_291:\n      0x20\n      mload(0x40)\n      dup1\n      dup4\n      sub\n      dup2\n      0x00\n      dup8\n      gas\n      call\n      iszero\n      dup1\n      iszero\n      tag_293\n      jumpi\n      returndatasize\n      0x00\n      dup1\n      returndatacopy\n      revert(0x00, returndatasize)\n    tag_293:\n      pop\n      pop\n      pop\n      pop\n      mload(0x40)\n      returndatasize\n      not(0x1f)\n      0x1f\n      dup3\n      add\n      and\n      dup3\n      add\n      dup1\n      0x40\n      mstore\n      pop\n      dup2\n      add\n      swap1\n      tag_294\n      swap2\n      swap1\n      tag_128\n      jump\t// in\n    tag_294:\n      pop\n        /* \"W6/simpleAMM/src/simpleAMMV6.sol\":4179:4189  msg.sender */\n      caller\n        /* \"W6/simpleAMM/src/simpleAMMV6.sol\":4171:4199  payable(msg.sender).transfer */\n      0xffffffffffffffffffffffffffffffffffffffff\n      and\n        /* \"W6/simpleAMM/src/simpleAMMV6.sol\":4171:4210  payable(msg.sender).transfer(amountOut) */\n      0x08fc\n        /* \"W6/simpleAMM/src/simpleAMMV6.sol\":4200:4209  amountOut */\n      dup5\n        /* \"W6/simpleAMM/src/simpleAMMV6.sol\":4171:4210  payable(msg.sender).transfer(amountOut) */\n      swap1\n      dup2\n      iszero\n      mul\n      swap1\n      mload(0x40)\n      0x00\n      mload(0x40)\n      dup1\n      dup4\n      sub\n      dup2\n      dup6\n      dup9\n      dup9\n      call\n      swap4\n      pop\n      pop\n      pop\n      pop\n      iszero\n      dup1\n      iszero\n      tag_296\n      jumpi\n      returndatasize\n      0x00\n      dup1\n      returndatacopy\n      revert(0x00, returndatasize)\n    tag_296:\n      pop\n        /* \"W6/simpleAMM/src/simpleAMMV6.sol\":4223:4285  _update(address(this).balance, token.balanceOf(address(this))) */\n      tag_297\n        /* \"W6/simpleAMM/src/simpleAMMV6.sol\":4231:4252  address(this).balance */\n      selfbalance\n        /* \"W6/simpleAMM/src/simpleAMMV6.sol\":4254:4259  token */\n      immutable(\"0xe9ec5ebbfe521ba5a70e4c2b13332e74dda4e055153dc29723307e62e8ed0f2a\")\n        /* \"W6/simpleAMM/src/simpleAMMV6.sol\":4254:4269  token.balanceOf */\n      0xffffffffffffffffffffffffffffffffffffffff\n      and\n      0x70a08231\n        /* \"W6/simpleAMM/src/simpleAMMV6.sol\":4278:4282  this */\n      address\n        /* \"W6/simpleAMM/src/simpleAMMV6.sol\":4254:4284  token.balanceOf(address(this)) */\n      mload(0x40)\n      dup3\n      0xffffffff\n      and\n      0xe0\n      shl\n      dup2\n      mstore\n      0x04\n      add\n      tag_298\n      swap2\n      swap1\n      tag_93\n      jump\t// in\n    tag_298:\n      0x20\n      mload(0x40)\n      dup1\n      dup4\n      sub\n      dup2\n      dup7\n      gas\n      staticcall\n      iszero\n      dup1\n      iszero\n      tag_300\n      jumpi\n      returndatasize\n      0x00\n      dup1\n      returndatacopy\n      revert(0x00, returndatasize)\n    tag_300:\n      pop\n      pop\n      pop\n      pop\n      mload(0x40)\n      returndatasize\n      not(0x1f)\n      0x1f\n      dup3\n      add\n      and\n      dup3\n      add\n      dup1\n      0x40\n      mstore\n      pop\n      dup2\n      add\n      swap1\n      tag_301\n      swap2\n      swap1\n      tag_159\n      jump\t// in\n    tag_301:\n        /* \"W6/simpleAMM/src/simpleAMMV6.sol\":4223:4230  _update */\n      tag_160\n        /* \"W6/simpleAMM/src/simpleAMMV6.sol\":4223:4285  _update(address(this).balance, token.balanceOf(address(this))) */\n      jump\t// in\n    tag_297:\n        /* \"W6/simpleAMM/src/simpleAMMV6.sol\":3641:4293  {... */\n      pop\n      pop\n        /* \"W6/simpleAMM/src/simpleAMMV6.sol\":3508:4293  function swapTokenForETH_WithSlipLock(uint256 _amountIn,uint256 _forwardOutput,uint256 _slipLock) public returns (uint256 amountOut) {... */\n      swap4\n      swap3\n      pop\n      pop\n      pop\n      jump\t// out\n        /* \"W6/simpleAMM/src/simpleAMMV6.sol\":7716:8032  function getInERCPredictOutputETH(uint256 _amount) public view returns (uint256) {... */\n    tag_102:\n        /* \"W6/simpleAMM/src/simpleAMMV6.sol\":7788:7795  uint256 */\n      0x00\n        /* \"W6/simpleAMM/src/simpleAMMV6.sol\":7829:7830  0 */\n      dup1\n        /* \"W6/simpleAMM/src/simpleAMMV6.sol\":7816:7826  reserveETH */\n      sload(0x01)\n        /* \"W6/simpleAMM/src/simpleAMMV6.sol\":7816:7830  reserveETH > 0 */\n      gt\n        /* \"W6/simpleAMM/src/simpleAMMV6.sol\":7816:7848  reserveETH > 0 && reserveERC > 0 */\n      dup1\n      iszero\n      tag_303\n      jumpi\n      pop\n        /* \"W6/simpleAMM/src/simpleAMMV6.sol\":7847:7848  0 */\n      0x00\n        /* \"W6/simpleAMM/src/simpleAMMV6.sol\":7834:7844  reserveERC */\n      sload(0x02)\n        /* \"W6/simpleAMM/src/simpleAMMV6.sol\":7834:7848  reserveERC > 0 */\n      gt\n        /* \"W6/simpleAMM/src/simpleAMMV6.sol\":7816:7848  reserveETH > 0 && reserveERC > 0 */\n    tag_303:\n        /* \"W6/simpleAMM/src/simpleAMMV6.sol\":7816:7861  reserveETH > 0 && reserveERC > 0 && _amount>0 */\n      dup1\n      iszero\n      tag_304\n      jumpi\n      pop\n        /* \"W6/simpleAMM/src/simpleAMMV6.sol\":7860:7861  0 */\n      0x00\n        /* \"W6/simpleAMM/src/simpleAMMV6.sol\":7852:7859  _amount */\n      dup3\n        /* \"W6/simpleAMM/src/simpleAMMV6.sol\":7852:7861  _amount>0 */\n      gt\n        /* \"W6/simpleAMM/src/simpleAMMV6.sol\":7816:7861  reserveETH > 0 && reserveERC > 0 && _amount>0 */\n    tag_304:\n        /* \"W6/simpleAMM/src/simpleAMMV6.sol\":7808:7886  require(reserveETH > 0 && reserveERC > 0 && _amount>0, \"Invalid ETH reserves\") */\n      tag_305\n      jumpi\n      mload(0x40)\n      0x08c379a000000000000000000000000000000000000000000000000000000000\n      dup2\n      mstore\n      0x04\n      add\n      tag_306\n      swap1\n      tag_270\n      jump\t// in\n    tag_306:\n      mload(0x40)\n      dup1\n      swap2\n      sub\n      swap1\n      revert\n    tag_305:\n        /* \"W6/simpleAMM/src/simpleAMMV6.sol\":7897:7920  uint256 amountInWithFee */\n      0x00\n        /* \"W6/simpleAMM/src/simpleAMMV6.sol\":7939:7943  1000 */\n      0x03e8\n        /* \"W6/simpleAMM/src/simpleAMMV6.sol\":7932:7935  997 */\n      0x03e5\n        /* \"W6/simpleAMM/src/simpleAMMV6.sol\":7922:7929  _amount */\n      dup5\n        /* \"W6/simpleAMM/src/simpleAMMV6.sol\":7922:7935  _amount * 997 */\n      tag_307\n      swap2\n      swap1\n      tag_132\n      jump\t// in\n    tag_307:\n        /* \"W6/simpleAMM/src/simpleAMMV6.sol\":7921:7943  (_amount * 997) / 1000 */\n      tag_308\n      swap2\n      swap1\n      tag_145\n      jump\t// in\n    tag_308:\n        /* \"W6/simpleAMM/src/simpleAMMV6.sol\":7897:7943  uint256 amountInWithFee=(_amount * 997) / 1000 */\n      swap1\n      pop\n        /* \"W6/simpleAMM/src/simpleAMMV6.sol\":8008:8023  amountInWithFee */\n      dup1\n        /* \"W6/simpleAMM/src/simpleAMMV6.sol\":7995:8005  reserveERC */\n      sload(0x02)\n        /* \"W6/simpleAMM/src/simpleAMMV6.sol\":7995:8023  reserveERC + amountInWithFee */\n      tag_309\n      swap2\n      swap1\n      tag_170\n      jump\t// in\n    tag_309:\n        /* \"W6/simpleAMM/src/simpleAMMV6.sol\":7975:7990  amountInWithFee */\n      dup2\n        /* \"W6/simpleAMM/src/simpleAMMV6.sol\":7962:7972  reserveETH */\n      sload(0x01)\n        /* \"W6/simpleAMM/src/simpleAMMV6.sol\":7962:7990  reserveETH * amountInWithFee */\n      tag_310\n      swap2\n      swap1\n      tag_132\n      jump\t// in\n    tag_310:\n        /* \"W6/simpleAMM/src/simpleAMMV6.sol\":7961:8024  (reserveETH * amountInWithFee) / (reserveERC + amountInWithFee) */\n      tag_311\n      swap2\n      swap1\n      tag_145\n      jump\t// in\n    tag_311:\n        /* \"W6/simpleAMM/src/simpleAMMV6.sol\":7954:8024  return (reserveETH * amountInWithFee) / (reserveERC + amountInWithFee) */\n      swap2\n      pop\n      pop\n        /* \"W6/simpleAMM/src/simpleAMMV6.sol\":7716:8032  function getInERCPredictOutputETH(uint256 _amount) public view returns (uint256) {... */\n      swap2\n      swap1\n      pop\n      jump\t// out\n        /* \"W6/simpleAMM/src/simpleAMMV6.sol\":817:842  uint256 public reserveERC */\n    tag_106:\n      sload(0x02)\n      dup2\n      jump\t// out\n        /* \"W6/simpleAMM/src/simpleAMMV6.sol\":6396:6499  function sharesOf(address _user) public view returns(uint256){... */\n    tag_111:\n        /* \"W6/simpleAMM/src/simpleAMMV6.sol\":6449:6456  uint256 */\n      0x00\n        /* \"W6/simpleAMM/src/simpleAMMV6.sol\":6475:6484  balanceOf */\n      0x04\n        /* \"W6/simpleAMM/src/simpleAMMV6.sol\":6475:6491  balanceOf[_user] */\n      0x00\n        /* \"W6/simpleAMM/src/simpleAMMV6.sol\":6485:6490  _user */\n      dup4\n        /* \"W6/simpleAMM/src/simpleAMMV6.sol\":6475:6491  balanceOf[_user] */\n      0xffffffffffffffffffffffffffffffffffffffff\n      and\n      0xffffffffffffffffffffffffffffffffffffffff\n      and\n      dup2\n      mstore\n      0x20\n      add\n      swap1\n      dup2\n      mstore\n      0x20\n      add\n      0x00\n      keccak256\n      sload\n        /* \"W6/simpleAMM/src/simpleAMMV6.sol\":6468:6491  return balanceOf[_user] */\n      swap1\n      pop\n        /* \"W6/simpleAMM/src/simpleAMMV6.sol\":6396:6499  function sharesOf(address _user) public view returns(uint256){... */\n      swap2\n      swap1\n      pop\n      jump\t// out\n        /* \"W6/simpleAMM/src/simpleAMMV6.sol\":685:714  IERC20 public immutable token */\n    tag_115:\n      immutable(\"0xe9ec5ebbfe521ba5a70e4c2b13332e74dda4e055153dc29723307e62e8ed0f2a\")\n      dup2\n      jump\t// out\n        /* \"W6/simpleAMM/src/simpleAMMV6.sol\":7125:7384  function getERCPrice() public view returns (uint256) {... */\n    tag_120:\n        /* \"W6/simpleAMM/src/simpleAMMV6.sol\":7169:7176  uint256 */\n      0x00\n        /* \"W6/simpleAMM/src/simpleAMMV6.sol\":7210:7211  0 */\n      dup1\n        /* \"W6/simpleAMM/src/simpleAMMV6.sol\":7197:7207  reserveETH */\n      sload(0x01)\n        /* \"W6/simpleAMM/src/simpleAMMV6.sol\":7197:7211  reserveETH > 0 */\n      gt\n        /* \"W6/simpleAMM/src/simpleAMMV6.sol\":7197:7229  reserveETH > 0 && reserveERC > 0 */\n      dup1\n      iszero\n      tag_314\n      jumpi\n      pop\n        /* \"W6/simpleAMM/src/simpleAMMV6.sol\":7228:7229  0 */\n      0x00\n        /* \"W6/simpleAMM/src/simpleAMMV6.sol\":7215:7225  reserveERC */\n      sload(0x02)\n        /* \"W6/simpleAMM/src/simpleAMMV6.sol\":7215:7229  reserveERC > 0 */\n      gt\n        /* \"W6/simpleAMM/src/simpleAMMV6.sol\":7197:7229  reserveETH > 0 && reserveERC > 0 */\n    tag_314:\n        /* \"W6/simpleAMM/src/simpleAMMV6.sol\":7189:7256  require(reserveETH > 0 && reserveERC > 0, \"Invalid ERC20 reserves\") */\n      tag_315\n      jumpi\n      mload(0x40)\n      0x08c379a000000000000000000000000000000000000000000000000000000000\n      dup2\n      mstore\n      0x04\n      add\n      tag_316\n      swap1\n      tag_166\n      jump\t// in\n    tag_316:\n      mload(0x40)\n      dup1\n      swap2\n      sub\n      swap1\n      revert\n    tag_315:\n        /* \"W6/simpleAMM/src/simpleAMMV6.sol\":7267:7283  uint256 decimals */\n      0x00\n        /* \"W6/simpleAMM/src/simpleAMMV6.sol\":7300:7305  token */\n      immutable(\"0xe9ec5ebbfe521ba5a70e4c2b13332e74dda4e055153dc29723307e62e8ed0f2a\")\n        /* \"W6/simpleAMM/src/simpleAMMV6.sol\":7286:7316  ERC20(address(token)).decimals */\n      0xffffffffffffffffffffffffffffffffffffffff\n      and\n      0x313ce567\n        /* \"W6/simpleAMM/src/simpleAMMV6.sol\":7286:7318  ERC20(address(token)).decimals() */\n      mload(0x40)\n      dup2\n      0xffffffff\n      and\n      0xe0\n      shl\n      dup2\n      mstore\n      0x04\n      add\n      0x20\n      mload(0x40)\n      dup1\n      dup4\n      sub\n      dup2\n      dup7\n      gas\n      staticcall\n      iszero\n      dup1\n      iszero\n      tag_318\n      jumpi\n      returndatasize\n      0x00\n      dup1\n      returndatacopy\n      revert(0x00, returndatasize)\n    tag_318:\n      pop\n      pop\n      pop\n      pop\n      mload(0x40)\n      returndatasize\n      not(0x1f)\n      0x1f\n      dup3\n      add\n      and\n      dup3\n      add\n      dup1\n      0x40\n      mstore\n      pop\n      dup2\n      add\n      swap1\n      tag_319\n      swap2\n      swap1\n      tag_320\n      jump\t// in\n    tag_319:\n        /* \"W6/simpleAMM/src/simpleAMMV6.sol\":7267:7318  uint256 decimals = ERC20(address(token)).decimals() */\n      0xff\n      and\n      swap1\n      pop\n        /* \"W6/simpleAMM/src/simpleAMMV6.sol\":7366:7376  reserveERC */\n      sload(0x02)\n        /* \"W6/simpleAMM/src/simpleAMMV6.sol\":7354:7362  decimals */\n      dup2\n        /* \"W6/simpleAMM/src/simpleAMMV6.sol\":7350:7352  10 */\n      0x0a\n        /* \"W6/simpleAMM/src/simpleAMMV6.sol\":7350:7362  10**decimals */\n      tag_321\n      swap2\n      swap1\n      tag_322\n      jump\t// in\n    tag_321:\n        /* \"W6/simpleAMM/src/simpleAMMV6.sol\":7337:7347  reserveETH */\n      sload(0x01)\n        /* \"W6/simpleAMM/src/simpleAMMV6.sol\":7337:7362  reserveETH * 10**decimals */\n      tag_323\n      swap2\n      swap1\n      tag_132\n      jump\t// in\n    tag_323:\n        /* \"W6/simpleAMM/src/simpleAMMV6.sol\":7336:7376  (reserveETH * 10**decimals) / reserveERC */\n      tag_324\n      swap2\n      swap1\n      tag_145\n      jump\t// in\n    tag_324:\n        /* \"W6/simpleAMM/src/simpleAMMV6.sol\":7329:7376  return (reserveETH * 10**decimals) / reserveERC */\n      swap2\n      pop\n      pop\n        /* \"W6/simpleAMM/src/simpleAMMV6.sol\":7125:7384  function getERCPrice() public view returns (uint256) {... */\n      swap1\n      jump\t// out\n        /* \"W6/simpleAMM/src/simpleAMMV6.sol\":6507:6811  function _sqrt(uint y) internal pure returns (uint z) {... */\n    tag_140:\n        /* \"W6/simpleAMM/src/simpleAMMV6.sol\":6553:6559  uint z */\n      0x00\n        /* \"W6/simpleAMM/src/simpleAMMV6.sol\":6580:6581  3 */\n      0x03\n        /* \"W6/simpleAMM/src/simpleAMMV6.sol\":6576:6577  y */\n      dup3\n        /* \"W6/simpleAMM/src/simpleAMMV6.sol\":6576:6581  y > 3 */\n      gt\n        /* \"W6/simpleAMM/src/simpleAMMV6.sol\":6572:6804  if (y > 3) {... */\n      iszero\n      tag_326\n      jumpi\n        /* \"W6/simpleAMM/src/simpleAMMV6.sol\":6602:6603  y */\n      dup2\n        /* \"W6/simpleAMM/src/simpleAMMV6.sol\":6598:6603  z = y */\n      swap1\n      pop\n        /* \"W6/simpleAMM/src/simpleAMMV6.sol\":6618:6624  uint x */\n      0x00\n        /* \"W6/simpleAMM/src/simpleAMMV6.sol\":6635:6636  1 */\n      0x01\n        /* \"W6/simpleAMM/src/simpleAMMV6.sol\":6631:6632  2 */\n      0x02\n        /* \"W6/simpleAMM/src/simpleAMMV6.sol\":6627:6628  y */\n      dup5\n        /* \"W6/simpleAMM/src/simpleAMMV6.sol\":6627:6632  y / 2 */\n      tag_327\n      swap2\n      swap1\n      tag_145\n      jump\t// in\n    tag_327:\n        /* \"W6/simpleAMM/src/simpleAMMV6.sol\":6627:6636  y / 2 + 1 */\n      tag_328\n      swap2\n      swap1\n      tag_170\n      jump\t// in\n    tag_328:\n        /* \"W6/simpleAMM/src/simpleAMMV6.sol\":6618:6636  uint x = y / 2 + 1 */\n      swap1\n      pop\n        /* \"W6/simpleAMM/src/simpleAMMV6.sol\":6651:6743  while (x < z) {... */\n    tag_329:\n        /* \"W6/simpleAMM/src/simpleAMMV6.sol\":6662:6663  z */\n      dup2\n        /* \"W6/simpleAMM/src/simpleAMMV6.sol\":6658:6659  x */\n      dup2\n        /* \"W6/simpleAMM/src/simpleAMMV6.sol\":6658:6663  x < z */\n      lt\n        /* \"W6/simpleAMM/src/simpleAMMV6.sol\":6651:6743  while (x < z) {... */\n      iszero\n      tag_330\n      jumpi\n        /* \"W6/simpleAMM/src/simpleAMMV6.sol\":6688:6689  x */\n      dup1\n        /* \"W6/simpleAMM/src/simpleAMMV6.sol\":6684:6689  z = x */\n      swap2\n      pop\n        /* \"W6/simpleAMM/src/simpleAMMV6.sol\":6726:6727  2 */\n      0x02\n        /* \"W6/simpleAMM/src/simpleAMMV6.sol\":6721:6722  x */\n      dup2\n        /* \"W6/simpleAMM/src/simpleAMMV6.sol\":6717:6718  x */\n      dup3\n        /* \"W6/simpleAMM/src/simpleAMMV6.sol\":6713:6714  y */\n      dup6\n        /* \"W6/simpleAMM/src/simpleAMMV6.sol\":6713:6718  y / x */\n      tag_331\n      swap2\n      swap1\n      tag_145\n      jump\t// in\n    tag_331:\n        /* \"W6/simpleAMM/src/simpleAMMV6.sol\":6713:6722  y / x + x */\n      tag_332\n      swap2\n      swap1\n      tag_170\n      jump\t// in\n    tag_332:\n        /* \"W6/simpleAMM/src/simpleAMMV6.sol\":6712:6727  (y / x + x) / 2 */\n      tag_333\n      swap2\n      swap1\n      tag_145\n      jump\t// in\n    tag_333:\n        /* \"W6/simpleAMM/src/simpleAMMV6.sol\":6708:6727  x = (y / x + x) / 2 */\n      swap1\n      pop\n        /* \"W6/simpleAMM/src/simpleAMMV6.sol\":6651:6743  while (x < z) {... */\n      jump(tag_329)\n    tag_330:\n        /* \"W6/simpleAMM/src/simpleAMMV6.sol\":6583:6754  {... */\n      pop\n        /* \"W6/simpleAMM/src/simpleAMMV6.sol\":6572:6804  if (y > 3) {... */\n      jump(tag_334)\n    tag_326:\n        /* \"W6/simpleAMM/src/simpleAMMV6.sol\":6769:6770  0 */\n      0x00\n        /* \"W6/simpleAMM/src/simpleAMMV6.sol\":6764:6765  y */\n      dup3\n        /* \"W6/simpleAMM/src/simpleAMMV6.sol\":6764:6770  y != 0 */\n      eq\n        /* \"W6/simpleAMM/src/simpleAMMV6.sol\":6760:6804  if (y != 0) {... */\n      tag_335\n      jumpi\n        /* \"W6/simpleAMM/src/simpleAMMV6.sol\":6791:6792  1 */\n      0x01\n        /* \"W6/simpleAMM/src/simpleAMMV6.sol\":6787:6792  z = 1 */\n      swap1\n      pop\n        /* \"W6/simpleAMM/src/simpleAMMV6.sol\":6760:6804  if (y != 0) {... */\n    tag_335:\n        /* \"W6/simpleAMM/src/simpleAMMV6.sol\":6572:6804  if (y > 3) {... */\n    tag_334:\n        /* \"W6/simpleAMM/src/simpleAMMV6.sol\":6507:6811  function _sqrt(uint y) internal pure returns (uint z) {... */\n      swap2\n      swap1\n      pop\n      jump\t// out\n        /* \"@openzeppelin/contracts/utils/math/Math.sol\":588:692  function min(uint256 a, uint256 b) internal pure returns (uint256) {... */\n    tag_148:\n        /* \"@openzeppelin/contracts/utils/math/Math.sol\":646:653  uint256 */\n      0x00\n        /* \"@openzeppelin/contracts/utils/math/Math.sol\":676:677  b */\n      dup2\n        /* \"@openzeppelin/contracts/utils/math/Math.sol\":672:673  a */\n      dup4\n        /* \"@openzeppelin/contracts/utils/math/Math.sol\":672:677  a < b */\n      lt\n        /* \"@openzeppelin/contracts/utils/math/Math.sol\":672:685  a < b ? a : b */\n      tag_337\n      jumpi\n        /* \"@openzeppelin/contracts/utils/math/Math.sol\":684:685  b */\n      dup2\n        /* \"@openzeppelin/contracts/utils/math/Math.sol\":672:685  a < b ? a : b */\n      jump(tag_338)\n    tag_337:\n        /* \"@openzeppelin/contracts/utils/math/Math.sol\":680:681  a */\n      dup3\n        /* \"@openzeppelin/contracts/utils/math/Math.sol\":672:685  a < b ? a : b */\n    tag_338:\n        /* \"@openzeppelin/contracts/utils/math/Math.sol\":665:685  return a < b ? a : b */\n      swap1\n      pop\n        /* \"@openzeppelin/contracts/utils/math/Math.sol\":588:692  function min(uint256 a, uint256 b) internal pure returns (uint256) {... */\n      swap3\n      swap2\n      pop\n      pop\n      jump\t// out\n        /* \"W6/simpleAMM/src/simpleAMMV6.sol\":1056:1186  function _mint(address _to, uint256 _amount) private {... */\n    tag_153:\n        /* \"W6/simpleAMM/src/simpleAMMV6.sol\":1138:1145  _amount */\n      dup1\n        /* \"W6/simpleAMM/src/simpleAMMV6.sol\":1120:1129  balanceOf */\n      0x04\n        /* \"W6/simpleAMM/src/simpleAMMV6.sol\":1120:1134  balanceOf[_to] */\n      0x00\n        /* \"W6/simpleAMM/src/simpleAMMV6.sol\":1130:1133  _to */\n      dup5\n        /* \"W6/simpleAMM/src/simpleAMMV6.sol\":1120:1134  balanceOf[_to] */\n      0xffffffffffffffffffffffffffffffffffffffff\n      and\n      0xffffffffffffffffffffffffffffffffffffffff\n      and\n      dup2\n      mstore\n      0x20\n      add\n      swap1\n      dup2\n      mstore\n      0x20\n      add\n      0x00\n      keccak256\n      0x00\n        /* \"W6/simpleAMM/src/simpleAMMV6.sol\":1120:1145  balanceOf[_to] += _amount */\n      dup3\n      dup3\n      sload\n      tag_340\n      swap2\n      swap1\n      tag_170\n      jump\t// in\n    tag_340:\n      swap3\n      pop\n      pop\n      dup2\n      swap1\n      sstore\n      pop\n        /* \"W6/simpleAMM/src/simpleAMMV6.sol\":1171:1178  _amount */\n      dup1\n        /* \"W6/simpleAMM/src/simpleAMMV6.sol\":1156:1167  totalSupply */\n      0x03\n      0x00\n        /* \"W6/simpleAMM/src/simpleAMMV6.sol\":1156:1178  totalSupply += _amount */\n      dup3\n      dup3\n      sload\n      tag_341\n      swap2\n      swap1\n      tag_170\n      jump\t// in\n    tag_341:\n      swap3\n      pop\n      pop\n      dup2\n      swap1\n      sstore\n      pop\n        /* \"W6/simpleAMM/src/simpleAMMV6.sol\":1056:1186  function _mint(address _to, uint256 _amount) private {... */\n      pop\n      pop\n      jump\t// out\n        /* \"W6/simpleAMM/src/simpleAMMV6.sol\":1336:1473  function _update(uint256 _reserve0, uint256 _reserve1) private {... */\n    tag_160:\n        /* \"W6/simpleAMM/src/simpleAMMV6.sol\":1423:1432  _reserve0 */\n      dup2\n        /* \"W6/simpleAMM/src/simpleAMMV6.sol\":1410:1420  reserveETH */\n      0x01\n        /* \"W6/simpleAMM/src/simpleAMMV6.sol\":1410:1432  reserveETH = _reserve0 */\n      dup2\n      swap1\n      sstore\n      pop\n        /* \"W6/simpleAMM/src/simpleAMMV6.sol\":1456:1465  _reserve1 */\n      dup1\n        /* \"W6/simpleAMM/src/simpleAMMV6.sol\":1443:1453  reserveERC */\n      0x02\n        /* \"W6/simpleAMM/src/simpleAMMV6.sol\":1443:1465  reserveERC = _reserve1 */\n      dup2\n      swap1\n      sstore\n      pop\n        /* \"W6/simpleAMM/src/simpleAMMV6.sol\":1336:1473  function _update(uint256 _reserve0, uint256 _reserve1) private {... */\n      pop\n      pop\n      jump\t// out\n        /* \"W6/simpleAMM/src/simpleAMMV6.sol\":5748:6289  function _removeLiquidity(address _user, uint256 _shares) internal returns (uint256 amountETH, uint256 amountERC) {... */\n    tag_234:\n        /* \"W6/simpleAMM/src/simpleAMMV6.sol\":5824:5841  uint256 amountETH */\n      0x00\n        /* \"W6/simpleAMM/src/simpleAMMV6.sol\":5843:5860  uint256 amountERC */\n      dup1\n        /* \"W6/simpleAMM/src/simpleAMMV6.sol\":5910:5921  totalSupply */\n      sload(0x03)\n        /* \"W6/simpleAMM/src/simpleAMMV6.sol\":5896:5906  reserveETH */\n      sload(0x01)\n        /* \"W6/simpleAMM/src/simpleAMMV6.sol\":5886:5893  _shares */\n      dup5\n        /* \"W6/simpleAMM/src/simpleAMMV6.sol\":5886:5906  _shares * reserveETH */\n      tag_344\n      swap2\n      swap1\n      tag_132\n      jump\t// in\n    tag_344:\n        /* \"W6/simpleAMM/src/simpleAMMV6.sol\":5885:5921  (_shares * reserveETH) / totalSupply */\n      tag_345\n      swap2\n      swap1\n      tag_145\n      jump\t// in\n    tag_345:\n        /* \"W6/simpleAMM/src/simpleAMMV6.sol\":5873:5921  amountETH = (_shares * reserveETH) / totalSupply */\n      swap2\n      pop\n        /* \"W6/simpleAMM/src/simpleAMMV6.sol\":5969:5980  totalSupply */\n      sload(0x03)\n        /* \"W6/simpleAMM/src/simpleAMMV6.sol\":5955:5965  reserveERC */\n      sload(0x02)\n        /* \"W6/simpleAMM/src/simpleAMMV6.sol\":5945:5952  _shares */\n      dup5\n        /* \"W6/simpleAMM/src/simpleAMMV6.sol\":5945:5965  _shares * reserveERC */\n      tag_346\n      swap2\n      swap1\n      tag_132\n      jump\t// in\n    tag_346:\n        /* \"W6/simpleAMM/src/simpleAMMV6.sol\":5944:5980  (_shares * reserveERC) / totalSupply */\n      tag_347\n      swap2\n      swap1\n      tag_145\n      jump\t// in\n    tag_347:\n        /* \"W6/simpleAMM/src/simpleAMMV6.sol\":5932:5980  amountERC = (_shares * reserveERC) / totalSupply */\n      swap1\n      pop\n        /* \"W6/simpleAMM/src/simpleAMMV6.sol\":6011:6012  0 */\n      0x00\n        /* \"W6/simpleAMM/src/simpleAMMV6.sol\":5999:6008  amountETH */\n      dup3\n        /* \"W6/simpleAMM/src/simpleAMMV6.sol\":5999:6012  amountETH > 0 */\n      gt\n        /* \"W6/simpleAMM/src/simpleAMMV6.sol\":5999:6029  amountETH > 0 && amountERC > 0 */\n      dup1\n      iszero\n      tag_348\n      jumpi\n      pop\n        /* \"W6/simpleAMM/src/simpleAMMV6.sol\":6028:6029  0 */\n      0x00\n        /* \"W6/simpleAMM/src/simpleAMMV6.sol\":6016:6025  amountERC */\n      dup2\n        /* \"W6/simpleAMM/src/simpleAMMV6.sol\":6016:6029  amountERC > 0 */\n      gt\n        /* \"W6/simpleAMM/src/simpleAMMV6.sol\":5999:6029  amountETH > 0 && amountERC > 0 */\n    tag_348:\n        /* \"W6/simpleAMM/src/simpleAMMV6.sol\":5991:6060  require(amountETH > 0 && amountERC > 0, \"amountETH or amountERC = 0\") */\n      tag_349\n      jumpi\n      mload(0x40)\n      0x08c379a000000000000000000000000000000000000000000000000000000000\n      dup2\n      mstore\n      0x04\n      add\n      tag_350\n      swap1\n      tag_351\n      jump\t// in\n    tag_350:\n      mload(0x40)\n      dup1\n      swap2\n      sub\n      swap1\n      revert\n    tag_349:\n        /* \"W6/simpleAMM/src/simpleAMMV6.sol\":6073:6094  _burn(_user, _shares) */\n      tag_352\n        /* \"W6/simpleAMM/src/simpleAMMV6.sol\":6079:6084  _user */\n      dup5\n        /* \"W6/simpleAMM/src/simpleAMMV6.sol\":6086:6093  _shares */\n      dup5\n        /* \"W6/simpleAMM/src/simpleAMMV6.sol\":6073:6078  _burn */\n      tag_353\n        /* \"W6/simpleAMM/src/simpleAMMV6.sol\":6073:6094  _burn(_user, _shares) */\n      jump\t// in\n    tag_352:\n        /* \"W6/simpleAMM/src/simpleAMMV6.sol\":6105:6191  _update(address(this).balance - amountETH, token.balanceOf(address(this)) - amountERC) */\n      tag_354\n        /* \"W6/simpleAMM/src/simpleAMMV6.sol\":6137:6146  amountETH */\n      dup3\n        /* \"W6/simpleAMM/src/simpleAMMV6.sol\":6113:6134  address(this).balance */\n      selfbalance\n        /* \"W6/simpleAMM/src/simpleAMMV6.sol\":6113:6146  address(this).balance - amountETH */\n      tag_355\n      swap2\n      swap1\n      tag_186\n      jump\t// in\n    tag_355:\n        /* \"W6/simpleAMM/src/simpleAMMV6.sol\":6181:6190  amountERC */\n      dup3\n        /* \"W6/simpleAMM/src/simpleAMMV6.sol\":6148:6153  token */\n      immutable(\"0xe9ec5ebbfe521ba5a70e4c2b13332e74dda4e055153dc29723307e62e8ed0f2a\")\n        /* \"W6/simpleAMM/src/simpleAMMV6.sol\":6148:6163  token.balanceOf */\n      0xffffffffffffffffffffffffffffffffffffffff\n      and\n      0x70a08231\n        /* \"W6/simpleAMM/src/simpleAMMV6.sol\":6172:6176  this */\n      address\n        /* \"W6/simpleAMM/src/simpleAMMV6.sol\":6148:6178  token.balanceOf(address(this)) */\n      mload(0x40)\n      dup3\n      0xffffffff\n      and\n      0xe0\n      shl\n      dup2\n      mstore\n      0x04\n      add\n      tag_356\n      swap2\n      swap1\n      tag_93\n      jump\t// in\n    tag_356:\n      0x20\n      mload(0x40)\n      dup1\n      dup4\n      sub\n      dup2\n      dup7\n      gas\n      staticcall\n      iszero\n      dup1\n      iszero\n      tag_358\n      jumpi\n      returndatasize\n      0x00\n      dup1\n      returndatacopy\n      revert(0x00, returndatasize)\n    tag_358:\n      pop\n      pop\n      pop\n      pop\n      mload(0x40)\n      returndatasize\n      not(0x1f)\n      0x1f\n      dup3\n      add\n      and\n      dup3\n      add\n      dup1\n      0x40\n      mstore\n      pop\n      dup2\n      add\n      swap1\n      tag_359\n      swap2\n      swap1\n      tag_159\n      jump\t// in\n    tag_359:\n        /* \"W6/simpleAMM/src/simpleAMMV6.sol\":6148:6190  token.balanceOf(address(this)) - amountERC */\n      tag_360\n      swap2\n      swap1\n      tag_186\n      jump\t// in\n    tag_360:\n        /* \"W6/simpleAMM/src/simpleAMMV6.sol\":6105:6112  _update */\n      tag_160\n        /* \"W6/simpleAMM/src/simpleAMMV6.sol\":6105:6191  _update(address(this).balance - amountETH, token.balanceOf(address(this)) - amountERC) */\n      jump\t// in\n    tag_354:\n        /* \"W6/simpleAMM/src/simpleAMMV6.sol\":6212:6217  _user */\n      dup4\n        /* \"W6/simpleAMM/src/simpleAMMV6.sol\":6204:6227  payable(_user).transfer */\n      0xffffffffffffffffffffffffffffffffffffffff\n      and\n        /* \"W6/simpleAMM/src/simpleAMMV6.sol\":6204:6238  payable(_user).transfer(amountETH) */\n      0x08fc\n        /* \"W6/simpleAMM/src/simpleAMMV6.sol\":6228:6237  amountETH */\n      dup4\n        /* \"W6/simpleAMM/src/simpleAMMV6.sol\":6204:6238  payable(_user).transfer(amountETH) */\n      swap1\n      dup2\n      iszero\n      mul\n      swap1\n      mload(0x40)\n      0x00\n      mload(0x40)\n      dup1\n      dup4\n      sub\n      dup2\n      dup6\n      dup9\n      dup9\n      call\n      swap4\n      pop\n      pop\n      pop\n      pop\n      iszero\n      dup1\n      iszero\n      tag_362\n      jumpi\n      returndatasize\n      0x00\n      dup1\n      returndatacopy\n      revert(0x00, returndatasize)\n    tag_362:\n      pop\n        /* \"W6/simpleAMM/src/simpleAMMV6.sol\":6249:6254  token */\n      immutable(\"0xe9ec5ebbfe521ba5a70e4c2b13332e74dda4e055153dc29723307e62e8ed0f2a\")\n        /* \"W6/simpleAMM/src/simpleAMMV6.sol\":6249:6263  token.transfer */\n      0xffffffffffffffffffffffffffffffffffffffff\n      and\n      0xa9059cbb\n        /* \"W6/simpleAMM/src/simpleAMMV6.sol\":6264:6269  _user */\n      dup6\n        /* \"W6/simpleAMM/src/simpleAMMV6.sol\":6271:6280  amountERC */\n      dup4\n        /* \"W6/simpleAMM/src/simpleAMMV6.sol\":6249:6281  token.transfer(_user, amountERC) */\n      mload(0x40)\n      dup4\n      0xffffffff\n      and\n      0xe0\n      shl\n      dup2\n      mstore\n      0x04\n      add\n      tag_363\n      swap3\n      swap2\n      swap1\n      tag_198\n      jump\t// in\n    tag_363:\n      0x20\n      mload(0x40)\n      dup1\n      dup4\n      sub\n      dup2\n      0x00\n      dup8\n      gas\n      call\n      iszero\n      dup1\n      iszero\n      tag_365\n      jumpi\n      returndatasize\n      0x00\n      dup1\n      returndatacopy\n      revert(0x00, returndatasize)\n    tag_365:\n      pop\n      pop\n      pop\n      pop\n      mload(0x40)\n      returndatasize\n      not(0x1f)\n      0x1f\n      dup3\n      add\n      and\n      dup3\n      add\n      dup1\n      0x40\n      mstore\n      pop\n      dup2\n      add\n      swap1\n      tag_366\n      swap2\n      swap1\n      tag_128\n      jump\t// in\n    tag_366:\n      pop\n        /* \"W6/simpleAMM/src/simpleAMMV6.sol\":5748:6289  function _removeLiquidity(address _user, uint256 _shares) internal returns (uint256 amountETH, uint256 amountERC) {... */\n      swap3\n      pop\n      swap3\n      swap1\n      pop\n      jump\t// out\n        /* \"W6/simpleAMM/src/simpleAMMV6.sol\":1194:1328  function _burn(address _from, uint256 _amount) private {... */\n    tag_353:\n        /* \"W6/simpleAMM/src/simpleAMMV6.sol\":1280:1287  _amount */\n      dup1\n        /* \"W6/simpleAMM/src/simpleAMMV6.sol\":1260:1269  balanceOf */\n      0x04\n        /* \"W6/simpleAMM/src/simpleAMMV6.sol\":1260:1276  balanceOf[_from] */\n      0x00\n        /* \"W6/simpleAMM/src/simpleAMMV6.sol\":1270:1275  _from */\n      dup5\n        /* \"W6/simpleAMM/src/simpleAMMV6.sol\":1260:1276  balanceOf[_from] */\n      0xffffffffffffffffffffffffffffffffffffffff\n      and\n      0xffffffffffffffffffffffffffffffffffffffff\n      and\n      dup2\n      mstore\n      0x20\n      add\n      swap1\n      dup2\n      mstore\n      0x20\n      add\n      0x00\n      keccak256\n      0x00\n        /* \"W6/simpleAMM/src/simpleAMMV6.sol\":1260:1287  balanceOf[_from] -= _amount */\n      dup3\n      dup3\n      sload\n      tag_368\n      swap2\n      swap1\n      tag_186\n      jump\t// in\n    tag_368:\n      swap3\n      pop\n      pop\n      dup2\n      swap1\n      sstore\n      pop\n        /* \"W6/simpleAMM/src/simpleAMMV6.sol\":1313:1320  _amount */\n      dup1\n        /* \"W6/simpleAMM/src/simpleAMMV6.sol\":1298:1309  totalSupply */\n      0x03\n      0x00\n        /* \"W6/simpleAMM/src/simpleAMMV6.sol\":1298:1320  totalSupply -= _amount */\n      dup3\n      dup3\n      sload\n      tag_369\n      swap2\n      swap1\n      tag_186\n      jump\t// in\n    tag_369:\n      swap3\n      pop\n      pop\n      dup2\n      swap1\n      sstore\n      pop\n        /* \"W6/simpleAMM/src/simpleAMMV6.sol\":1194:1328  function _burn(address _from, uint256 _amount) private {... */\n      pop\n      pop\n      jump\t// out\n        /* \"#utility.yul\":7:84   */\n    tag_370:\n        /* \"#utility.yul\":44:51   */\n      0x00\n        /* \"#utility.yul\":73:78   */\n      dup2\n        /* \"#utility.yul\":62:78   */\n      swap1\n      pop\n        /* \"#utility.yul\":7:84   */\n      swap2\n      swap1\n      pop\n      jump\t// out\n        /* \"#utility.yul\":90:208   */\n    tag_371:\n        /* \"#utility.yul\":177:201   */\n      tag_421\n        /* \"#utility.yul\":195:200   */\n      dup2\n        /* \"#utility.yul\":177:201   */\n      tag_370\n      jump\t// in\n    tag_421:\n        /* \"#utility.yul\":172:175   */\n      dup3\n        /* \"#utility.yul\":165:202   */\n      mstore\n        /* \"#utility.yul\":90:208   */\n      pop\n      pop\n      jump\t// out\n        /* \"#utility.yul\":214:436   */\n    tag_29:\n        /* \"#utility.yul\":307:311   */\n      0x00\n        /* \"#utility.yul\":345:347   */\n      0x20\n        /* \"#utility.yul\":334:343   */\n      dup3\n        /* \"#utility.yul\":330:348   */\n      add\n        /* \"#utility.yul\":322:348   */\n      swap1\n      pop\n        /* \"#utility.yul\":358:429   */\n      tag_423\n        /* \"#utility.yul\":426:427   */\n      0x00\n        /* \"#utility.yul\":415:424   */\n      dup4\n        /* \"#utility.yul\":411:428   */\n      add\n        /* \"#utility.yul\":402:408   */\n      dup5\n        /* \"#utility.yul\":358:429   */\n      tag_371\n      jump\t// in\n    tag_423:\n        /* \"#utility.yul\":214:436   */\n      swap3\n      swap2\n      pop\n      pop\n      jump\t// out\n        /* \"#utility.yul\":523:640   */\n    tag_373:\n        /* \"#utility.yul\":632:633   */\n      0x00\n        /* \"#utility.yul\":629:630   */\n      dup1\n        /* \"#utility.yul\":622:634   */\n      revert\n        /* \"#utility.yul\":769:891   */\n    tag_375:\n        /* \"#utility.yul\":842:866   */\n      tag_428\n        /* \"#utility.yul\":860:865   */\n      dup2\n        /* \"#utility.yul\":842:866   */\n      tag_370\n      jump\t// in\n    tag_428:\n        /* \"#utility.yul\":835:840   */\n      dup2\n        /* \"#utility.yul\":832:867   */\n      eq\n        /* \"#utility.yul\":822:885   */\n      tag_429\n      jumpi\n        /* \"#utility.yul\":881:882   */\n      0x00\n        /* \"#utility.yul\":878:879   */\n      dup1\n        /* \"#utility.yul\":871:883   */\n      revert\n        /* \"#utility.yul\":822:885   */\n    tag_429:\n        /* \"#utility.yul\":769:891   */\n      pop\n      jump\t// out\n        /* \"#utility.yul\":897:1036   */\n    tag_376:\n        /* \"#utility.yul\":943:948   */\n      0x00\n        /* \"#utility.yul\":981:987   */\n      dup2\n        /* \"#utility.yul\":968:988   */\n      calldataload\n        /* \"#utility.yul\":959:988   */\n      swap1\n      pop\n        /* \"#utility.yul\":997:1030   */\n      tag_431\n        /* \"#utility.yul\":1024:1029   */\n      dup2\n        /* \"#utility.yul\":997:1030   */\n      tag_375\n      jump\t// in\n    tag_431:\n        /* \"#utility.yul\":897:1036   */\n      swap3\n      swap2\n      pop\n      pop\n      jump\t// out\n        /* \"#utility.yul\":1042:1371   */\n    tag_36:\n        /* \"#utility.yul\":1101:1107   */\n      0x00\n        /* \"#utility.yul\":1150:1152   */\n      0x20\n        /* \"#utility.yul\":1138:1147   */\n      dup3\n        /* \"#utility.yul\":1129:1136   */\n      dup5\n        /* \"#utility.yul\":1125:1148   */\n      sub\n        /* \"#utility.yul\":1121:1153   */\n      slt\n        /* \"#utility.yul\":1118:1237   */\n      iszero\n      tag_433\n      jumpi\n        /* \"#utility.yul\":1156:1235   */\n      tag_434\n      tag_373\n      jump\t// in\n    tag_434:\n        /* \"#utility.yul\":1118:1237   */\n    tag_433:\n        /* \"#utility.yul\":1276:1277   */\n      0x00\n        /* \"#utility.yul\":1301:1354   */\n      tag_435\n        /* \"#utility.yul\":1346:1353   */\n      dup5\n        /* \"#utility.yul\":1337:1343   */\n      dup3\n        /* \"#utility.yul\":1326:1335   */\n      dup6\n        /* \"#utility.yul\":1322:1344   */\n      add\n        /* \"#utility.yul\":1301:1354   */\n      tag_376\n      jump\t// in\n    tag_435:\n        /* \"#utility.yul\":1291:1354   */\n      swap2\n      pop\n        /* \"#utility.yul\":1247:1364   */\n      pop\n        /* \"#utility.yul\":1042:1371   */\n      swap3\n      swap2\n      pop\n      pop\n      jump\t// out\n        /* \"#utility.yul\":1377:1996   */\n    tag_46:\n        /* \"#utility.yul\":1454:1460   */\n      0x00\n        /* \"#utility.yul\":1462:1468   */\n      dup1\n        /* \"#utility.yul\":1470:1476   */\n      0x00\n        /* \"#utility.yul\":1519:1521   */\n      0x60\n        /* \"#utility.yul\":1507:1516   */\n      dup5\n        /* \"#utility.yul\":1498:1505   */\n      dup7\n        /* \"#utility.yul\":1494:1517   */\n      sub\n        /* \"#utility.yul\":1490:1522   */\n      slt\n        /* \"#utility.yul\":1487:1606   */\n      iszero\n      tag_437\n      jumpi\n        /* \"#utility.yul\":1525:1604   */\n      tag_438\n      tag_373\n      jump\t// in\n    tag_438:\n        /* \"#utility.yul\":1487:1606   */\n    tag_437:\n        /* \"#utility.yul\":1645:1646   */\n      0x00\n        /* \"#utility.yul\":1670:1723   */\n      tag_439\n        /* \"#utility.yul\":1715:1722   */\n      dup7\n        /* \"#utility.yul\":1706:1712   */\n      dup3\n        /* \"#utility.yul\":1695:1704   */\n      dup8\n        /* \"#utility.yul\":1691:1713   */\n      add\n        /* \"#utility.yul\":1670:1723   */\n      tag_376\n      jump\t// in\n    tag_439:\n        /* \"#utility.yul\":1660:1723   */\n      swap4\n      pop\n        /* \"#utility.yul\":1616:1733   */\n      pop\n        /* \"#utility.yul\":1772:1774   */\n      0x20\n        /* \"#utility.yul\":1798:1851   */\n      tag_440\n        /* \"#utility.yul\":1843:1850   */\n      dup7\n        /* \"#utility.yul\":1834:1840   */\n      dup3\n        /* \"#utility.yul\":1823:1832   */\n      dup8\n        /* \"#utility.yul\":1819:1841   */\n      add\n        /* \"#utility.yul\":1798:1851   */\n      tag_376\n      jump\t// in\n    tag_440:\n        /* \"#utility.yul\":1788:1851   */\n      swap3\n      pop\n        /* \"#utility.yul\":1743:1861   */\n      pop\n        /* \"#utility.yul\":1900:1902   */\n      0x40\n        /* \"#utility.yul\":1926:1979   */\n      tag_441\n        /* \"#utility.yul\":1971:1978   */\n      dup7\n        /* \"#utility.yul\":1962:1968   */\n      dup3\n        /* \"#utility.yul\":1951:1960   */\n      dup8\n        /* \"#utility.yul\":1947:1969   */\n      add\n        /* \"#utility.yul\":1926:1979   */\n      tag_376\n      jump\t// in\n    tag_441:\n        /* \"#utility.yul\":1916:1979   */\n      swap2\n      pop\n        /* \"#utility.yul\":1871:1989   */\n      pop\n        /* \"#utility.yul\":1377:1996   */\n      swap3\n      pop\n      swap3\n      pop\n      swap3\n      jump\t// out\n        /* \"#utility.yul\":2002:2128   */\n    tag_377:\n        /* \"#utility.yul\":2039:2046   */\n      0x00\n        /* \"#utility.yul\":2079:2121   */\n      0xffffffffffffffffffffffffffffffffffffffff\n        /* \"#utility.yul\":2072:2077   */\n      dup3\n        /* \"#utility.yul\":2068:2122   */\n      and\n        /* \"#utility.yul\":2057:2122   */\n      swap1\n      pop\n        /* \"#utility.yul\":2002:2128   */\n      swap2\n      swap1\n      pop\n      jump\t// out\n        /* \"#utility.yul\":2134:2230   */\n    tag_378:\n        /* \"#utility.yul\":2171:2178   */\n      0x00\n        /* \"#utility.yul\":2200:2224   */\n      tag_444\n        /* \"#utility.yul\":2218:2223   */\n      dup3\n        /* \"#utility.yul\":2200:2224   */\n      tag_377\n      jump\t// in\n    tag_444:\n        /* \"#utility.yul\":2189:2224   */\n      swap1\n      pop\n        /* \"#utility.yul\":2134:2230   */\n      swap2\n      swap1\n      pop\n      jump\t// out\n        /* \"#utility.yul\":2236:2358   */\n    tag_379:\n        /* \"#utility.yul\":2309:2333   */\n      tag_446\n        /* \"#utility.yul\":2327:2332   */\n      dup2\n        /* \"#utility.yul\":2309:2333   */\n      tag_378\n      jump\t// in\n    tag_446:\n        /* \"#utility.yul\":2302:2307   */\n      dup2\n        /* \"#utility.yul\":2299:2334   */\n      eq\n        /* \"#utility.yul\":2289:2352   */\n      tag_447\n      jumpi\n        /* \"#utility.yul\":2348:2349   */\n      0x00\n        /* \"#utility.yul\":2345:2346   */\n      dup1\n        /* \"#utility.yul\":2338:2350   */\n      revert\n        /* \"#utility.yul\":2289:2352   */\n    tag_447:\n        /* \"#utility.yul\":2236:2358   */\n      pop\n      jump\t// out\n        /* \"#utility.yul\":2364:2503   */\n    tag_380:\n        /* \"#utility.yul\":2410:2415   */\n      0x00\n        /* \"#utility.yul\":2448:2454   */\n      dup2\n        /* \"#utility.yul\":2435:2455   */\n      calldataload\n        /* \"#utility.yul\":2426:2455   */\n      swap1\n      pop\n        /* \"#utility.yul\":2464:2497   */\n      tag_449\n        /* \"#utility.yul\":2491:2496   */\n      dup2\n        /* \"#utility.yul\":2464:2497   */\n      tag_379\n      jump\t// in\n    tag_449:\n        /* \"#utility.yul\":2364:2503   */\n      swap3\n      swap2\n      pop\n      pop\n      jump\t// out\n        /* \"#utility.yul\":2509:2838   */\n    tag_61:\n        /* \"#utility.yul\":2568:2574   */\n      0x00\n        /* \"#utility.yul\":2617:2619   */\n      0x20\n        /* \"#utility.yul\":2605:2614   */\n      dup3\n        /* \"#utility.yul\":2596:2603   */\n      dup5\n        /* \"#utility.yul\":2592:2615   */\n      sub\n        /* \"#utility.yul\":2588:2620   */\n      slt\n        /* \"#utility.yul\":2585:2704   */\n      iszero\n      tag_451\n      jumpi\n        /* \"#utility.yul\":2623:2702   */\n      tag_452\n      tag_373\n      jump\t// in\n    tag_452:\n        /* \"#utility.yul\":2585:2704   */\n    tag_451:\n        /* \"#utility.yul\":2743:2744   */\n      0x00\n        /* \"#utility.yul\":2768:2821   */\n      tag_453\n        /* \"#utility.yul\":2813:2820   */\n      dup5\n        /* \"#utility.yul\":2804:2810   */\n      dup3\n        /* \"#utility.yul\":2793:2802   */\n      dup6\n        /* \"#utility.yul\":2789:2811   */\n      add\n        /* \"#utility.yul\":2768:2821   */\n      tag_380\n      jump\t// in\n    tag_453:\n        /* \"#utility.yul\":2758:2821   */\n      swap2\n      pop\n        /* \"#utility.yul\":2714:2831   */\n      pop\n        /* \"#utility.yul\":2509:2838   */\n      swap3\n      swap2\n      pop\n      pop\n      jump\t// out\n        /* \"#utility.yul\":2844:3176   */\n    tag_69:\n        /* \"#utility.yul\":2965:2969   */\n      0x00\n        /* \"#utility.yul\":3003:3005   */\n      0x40\n        /* \"#utility.yul\":2992:3001   */\n      dup3\n        /* \"#utility.yul\":2988:3006   */\n      add\n        /* \"#utility.yul\":2980:3006   */\n      swap1\n      pop\n        /* \"#utility.yul\":3016:3087   */\n      tag_455\n        /* \"#utility.yul\":3084:3085   */\n      0x00\n        /* \"#utility.yul\":3073:3082   */\n      dup4\n        /* \"#utility.yul\":3069:3086   */\n      add\n        /* \"#utility.yul\":3060:3066   */\n      dup6\n        /* \"#utility.yul\":3016:3087   */\n      tag_371\n      jump\t// in\n    tag_455:\n        /* \"#utility.yul\":3097:3169   */\n      tag_456\n        /* \"#utility.yul\":3165:3167   */\n      0x20\n        /* \"#utility.yul\":3154:3163   */\n      dup4\n        /* \"#utility.yul\":3150:3168   */\n      add\n        /* \"#utility.yul\":3141:3147   */\n      dup5\n        /* \"#utility.yul\":3097:3169   */\n      tag_371\n      jump\t// in\n    tag_456:\n        /* \"#utility.yul\":2844:3176   */\n      swap4\n      swap3\n      pop\n      pop\n      pop\n      jump\t// out\n        /* \"#utility.yul\":3182:3656   */\n    tag_82:\n        /* \"#utility.yul\":3250:3256   */\n      0x00\n        /* \"#utility.yul\":3258:3264   */\n      dup1\n        /* \"#utility.yul\":3307:3309   */\n      0x40\n        /* \"#utility.yul\":3295:3304   */\n      dup4\n        /* \"#utility.yul\":3286:3293   */\n      dup6\n        /* \"#utility.yul\":3282:3305   */\n      sub\n        /* \"#utility.yul\":3278:3310   */\n      slt\n        /* \"#utility.yul\":3275:3394   */\n      iszero\n      tag_458\n      jumpi\n        /* \"#utility.yul\":3313:3392   */\n      tag_459\n      tag_373\n      jump\t// in\n    tag_459:\n        /* \"#utility.yul\":3275:3394   */\n    tag_458:\n        /* \"#utility.yul\":3433:3434   */\n      0x00\n        /* \"#utility.yul\":3458:3511   */\n      tag_460\n        /* \"#utility.yul\":3503:3510   */\n      dup6\n        /* \"#utility.yul\":3494:3500   */\n      dup3\n        /* \"#utility.yul\":3483:3492   */\n      dup7\n        /* \"#utility.yul\":3479:3501   */\n      add\n        /* \"#utility.yul\":3458:3511   */\n      tag_380\n      jump\t// in\n    tag_460:\n        /* \"#utility.yul\":3448:3511   */\n      swap3\n      pop\n        /* \"#utility.yul\":3404:3521   */\n      pop\n        /* \"#utility.yul\":3560:3562   */\n      0x20\n        /* \"#utility.yul\":3586:3639   */\n      tag_461\n        /* \"#utility.yul\":3631:3638   */\n      dup6\n        /* \"#utility.yul\":3622:3628   */\n      dup3\n        /* \"#utility.yul\":3611:3620   */\n      dup7\n        /* \"#utility.yul\":3607:3629   */\n      add\n        /* \"#utility.yul\":3586:3639   */\n      tag_376\n      jump\t// in\n    tag_461:\n        /* \"#utility.yul\":3576:3639   */\n      swap2\n      pop\n        /* \"#utility.yul\":3531:3649   */\n      pop\n        /* \"#utility.yul\":3182:3656   */\n      swap3\n      pop\n      swap3\n      swap1\n      pop\n      jump\t// out\n        /* \"#utility.yul\":3662:3780   */\n    tag_381:\n        /* \"#utility.yul\":3749:3773   */\n      tag_463\n        /* \"#utility.yul\":3767:3772   */\n      dup2\n        /* \"#utility.yul\":3749:3773   */\n      tag_378\n      jump\t// in\n    tag_463:\n        /* \"#utility.yul\":3744:3747   */\n      dup3\n        /* \"#utility.yul\":3737:3774   */\n      mstore\n        /* \"#utility.yul\":3662:3780   */\n      pop\n      pop\n      jump\t// out\n        /* \"#utility.yul\":3786:4008   */\n    tag_93:\n        /* \"#utility.yul\":3879:3883   */\n      0x00\n        /* \"#utility.yul\":3917:3919   */\n      0x20\n        /* \"#utility.yul\":3906:3915   */\n      dup3\n        /* \"#utility.yul\":3902:3920   */\n      add\n        /* \"#utility.yul\":3894:3920   */\n      swap1\n      pop\n        /* \"#utility.yul\":3930:4001   */\n      tag_465\n        /* \"#utility.yul\":3998:3999   */\n      0x00\n        /* \"#utility.yul\":3987:3996   */\n      dup4\n        /* \"#utility.yul\":3983:4000   */\n      add\n        /* \"#utility.yul\":3974:3980   */\n      dup5\n        /* \"#utility.yul\":3930:4001   */\n      tag_381\n      jump\t// in\n    tag_465:\n        /* \"#utility.yul\":3786:4008   */\n      swap3\n      swap2\n      pop\n      pop\n      jump\t// out\n        /* \"#utility.yul\":4014:4074   */\n    tag_382:\n        /* \"#utility.yul\":4042:4045   */\n      0x00\n        /* \"#utility.yul\":4063:4068   */\n      dup2\n        /* \"#utility.yul\":4056:4068   */\n      swap1\n      pop\n        /* \"#utility.yul\":4014:4074   */\n      swap2\n      swap1\n      pop\n      jump\t// out\n        /* \"#utility.yul\":4080:4222   */\n    tag_383:\n        /* \"#utility.yul\":4130:4139   */\n      0x00\n        /* \"#utility.yul\":4163:4216   */\n      tag_468\n        /* \"#utility.yul\":4181:4215   */\n      tag_469\n        /* \"#utility.yul\":4190:4214   */\n      tag_470\n        /* \"#utility.yul\":4208:4213   */\n      dup5\n        /* \"#utility.yul\":4190:4214   */\n      tag_377\n      jump\t// in\n    tag_470:\n        /* \"#utility.yul\":4181:4215   */\n      tag_382\n      jump\t// in\n    tag_469:\n        /* \"#utility.yul\":4163:4216   */\n      tag_377\n      jump\t// in\n    tag_468:\n        /* \"#utility.yul\":4150:4216   */\n      swap1\n      pop\n        /* \"#utility.yul\":4080:4222   */\n      swap2\n      swap1\n      pop\n      jump\t// out\n        /* \"#utility.yul\":4228:4354   */\n    tag_384:\n        /* \"#utility.yul\":4278:4287   */\n      0x00\n        /* \"#utility.yul\":4311:4348   */\n      tag_472\n        /* \"#utility.yul\":4342:4347   */\n      dup3\n        /* \"#utility.yul\":4311:4348   */\n      tag_383\n      jump\t// in\n    tag_472:\n        /* \"#utility.yul\":4298:4348   */\n      swap1\n      pop\n        /* \"#utility.yul\":4228:4354   */\n      swap2\n      swap1\n      pop\n      jump\t// out\n        /* \"#utility.yul\":4360:4500   */\n    tag_385:\n        /* \"#utility.yul\":4424:4433   */\n      0x00\n        /* \"#utility.yul\":4457:4494   */\n      tag_474\n        /* \"#utility.yul\":4488:4493   */\n      dup3\n        /* \"#utility.yul\":4457:4494   */\n      tag_384\n      jump\t// in\n    tag_474:\n        /* \"#utility.yul\":4444:4494   */\n      swap1\n      pop\n        /* \"#utility.yul\":4360:4500   */\n      swap2\n      swap1\n      pop\n      jump\t// out\n        /* \"#utility.yul\":4506:4665   */\n    tag_386:\n        /* \"#utility.yul\":4607:4658   */\n      tag_476\n        /* \"#utility.yul\":4652:4657   */\n      dup2\n        /* \"#utility.yul\":4607:4658   */\n      tag_385\n      jump\t// in\n    tag_476:\n        /* \"#utility.yul\":4602:4605   */\n      dup3\n        /* \"#utility.yul\":4595:4659   */\n      mstore\n        /* \"#utility.yul\":4506:4665   */\n      pop\n      pop\n      jump\t// out\n        /* \"#utility.yul\":4671:4921   */\n    tag_117:\n        /* \"#utility.yul\":4778:4782   */\n      0x00\n        /* \"#utility.yul\":4816:4818   */\n      0x20\n        /* \"#utility.yul\":4805:4814   */\n      dup3\n        /* \"#utility.yul\":4801:4819   */\n      add\n        /* \"#utility.yul\":4793:4819   */\n      swap1\n      pop\n        /* \"#utility.yul\":4829:4914   */\n      tag_478\n        /* \"#utility.yul\":4911:4912   */\n      0x00\n        /* \"#utility.yul\":4900:4909   */\n      dup4\n        /* \"#utility.yul\":4896:4913   */\n      add\n        /* \"#utility.yul\":4887:4893   */\n      dup5\n        /* \"#utility.yul\":4829:4914   */\n      tag_386\n      jump\t// in\n    tag_478:\n        /* \"#utility.yul\":4671:4921   */\n      swap3\n      swap2\n      pop\n      pop\n      jump\t// out\n        /* \"#utility.yul\":4927:5369   */\n    tag_124:\n        /* \"#utility.yul\":5076:5080   */\n      0x00\n        /* \"#utility.yul\":5114:5116   */\n      0x60\n        /* \"#utility.yul\":5103:5112   */\n      dup3\n        /* \"#utility.yul\":5099:5117   */\n      add\n        /* \"#utility.yul\":5091:5117   */\n      swap1\n      pop\n        /* \"#utility.yul\":5127:5198   */\n      tag_480\n        /* \"#utility.yul\":5195:5196   */\n      0x00\n        /* \"#utility.yul\":5184:5193   */\n      dup4\n        /* \"#utility.yul\":5180:5197   */\n      add\n        /* \"#utility.yul\":5171:5177   */\n      dup7\n        /* \"#utility.yul\":5127:5198   */\n      tag_381\n      jump\t// in\n    tag_480:\n        /* \"#utility.yul\":5208:5280   */\n      tag_481\n        /* \"#utility.yul\":5276:5278   */\n      0x20\n        /* \"#utility.yul\":5265:5274   */\n      dup4\n        /* \"#utility.yul\":5261:5279   */\n      add\n        /* \"#utility.yul\":5252:5258   */\n      dup6\n        /* \"#utility.yul\":5208:5280   */\n      tag_381\n      jump\t// in\n    tag_481:\n        /* \"#utility.yul\":5290:5362   */\n      tag_482\n        /* \"#utility.yul\":5358:5360   */\n      0x40\n        /* \"#utility.yul\":5347:5356   */\n      dup4\n        /* \"#utility.yul\":5343:5361   */\n      add\n        /* \"#utility.yul\":5334:5340   */\n      dup5\n        /* \"#utility.yul\":5290:5362   */\n      tag_371\n      jump\t// in\n    tag_482:\n        /* \"#utility.yul\":4927:5369   */\n      swap5\n      swap4\n      pop\n      pop\n      pop\n      pop\n      jump\t// out\n        /* \"#utility.yul\":5375:5465   */\n    tag_387:\n        /* \"#utility.yul\":5409:5416   */\n      0x00\n        /* \"#utility.yul\":5452:5457   */\n      dup2\n        /* \"#utility.yul\":5445:5458   */\n      iszero\n        /* \"#utility.yul\":5438:5459   */\n      iszero\n        /* \"#utility.yul\":5427:5459   */\n      swap1\n      pop\n        /* \"#utility.yul\":5375:5465   */\n      swap2\n      swap1\n      pop\n      jump\t// out\n        /* \"#utility.yul\":5471:5587   */\n    tag_388:\n        /* \"#utility.yul\":5541:5562   */\n      tag_485\n        /* \"#utility.yul\":5556:5561   */\n      dup2\n        /* \"#utility.yul\":5541:5562   */\n      tag_387\n      jump\t// in\n    tag_485:\n        /* \"#utility.yul\":5534:5539   */\n      dup2\n        /* \"#utility.yul\":5531:5563   */\n      eq\n        /* \"#utility.yul\":5521:5581   */\n      tag_486\n      jumpi\n        /* \"#utility.yul\":5577:5578   */\n      0x00\n        /* \"#utility.yul\":5574:5575   */\n      dup1\n        /* \"#utility.yul\":5567:5579   */\n      revert\n        /* \"#utility.yul\":5521:5581   */\n    tag_486:\n        /* \"#utility.yul\":5471:5587   */\n      pop\n      jump\t// out\n        /* \"#utility.yul\":5593:5730   */\n    tag_389:\n        /* \"#utility.yul\":5647:5652   */\n      0x00\n        /* \"#utility.yul\":5678:5684   */\n      dup2\n        /* \"#utility.yul\":5672:5685   */\n      mload\n        /* \"#utility.yul\":5663:5685   */\n      swap1\n      pop\n        /* \"#utility.yul\":5694:5724   */\n      tag_488\n        /* \"#utility.yul\":5718:5723   */\n      dup2\n        /* \"#utility.yul\":5694:5724   */\n      tag_388\n      jump\t// in\n    tag_488:\n        /* \"#utility.yul\":5593:5730   */\n      swap3\n      swap2\n      pop\n      pop\n      jump\t// out\n        /* \"#utility.yul\":5736:6081   */\n    tag_128:\n        /* \"#utility.yul\":5803:5809   */\n      0x00\n        /* \"#utility.yul\":5852:5854   */\n      0x20\n        /* \"#utility.yul\":5840:5849   */\n      dup3\n        /* \"#utility.yul\":5831:5838   */\n      dup5\n        /* \"#utility.yul\":5827:5850   */\n      sub\n        /* \"#utility.yul\":5823:5855   */\n      slt\n        /* \"#utility.yul\":5820:5939   */\n      iszero\n      tag_490\n      jumpi\n        /* \"#utility.yul\":5858:5937   */\n      tag_491\n      tag_373\n      jump\t// in\n    tag_491:\n        /* \"#utility.yul\":5820:5939   */\n    tag_490:\n        /* \"#utility.yul\":5978:5979   */\n      0x00\n        /* \"#utility.yul\":6003:6064   */\n      tag_492\n        /* \"#utility.yul\":6056:6063   */\n      dup5\n        /* \"#utility.yul\":6047:6053   */\n      dup3\n        /* \"#utility.yul\":6036:6045   */\n      dup6\n        /* \"#utility.yul\":6032:6054   */\n      add\n        /* \"#utility.yul\":6003:6064   */\n      tag_389\n      jump\t// in\n    tag_492:\n        /* \"#utility.yul\":5993:6064   */\n      swap2\n      pop\n        /* \"#utility.yul\":5949:6074   */\n      pop\n        /* \"#utility.yul\":5736:6081   */\n      swap3\n      swap2\n      pop\n      pop\n      jump\t// out\n        /* \"#utility.yul\":6087:6267   */\n    tag_390:\n        /* \"#utility.yul\":6135:6212   */\n      0x4e487b7100000000000000000000000000000000000000000000000000000000\n        /* \"#utility.yul\":6132:6133   */\n      0x00\n        /* \"#utility.yul\":6125:6213   */\n      mstore\n        /* \"#utility.yul\":6232:6236   */\n      0x11\n        /* \"#utility.yul\":6229:6230   */\n      0x04\n        /* \"#utility.yul\":6222:6237   */\n      mstore\n        /* \"#utility.yul\":6256:6260   */\n      0x24\n        /* \"#utility.yul\":6253:6254   */\n      0x00\n        /* \"#utility.yul\":6246:6261   */\n      revert\n        /* \"#utility.yul\":6273:6683   */\n    tag_132:\n        /* \"#utility.yul\":6313:6320   */\n      0x00\n        /* \"#utility.yul\":6336:6356   */\n      tag_495\n        /* \"#utility.yul\":6354:6355   */\n      dup3\n        /* \"#utility.yul\":6336:6356   */\n      tag_370\n      jump\t// in\n    tag_495:\n        /* \"#utility.yul\":6331:6356   */\n      swap2\n      pop\n        /* \"#utility.yul\":6370:6390   */\n      tag_496\n        /* \"#utility.yul\":6388:6389   */\n      dup4\n        /* \"#utility.yul\":6370:6390   */\n      tag_370\n      jump\t// in\n    tag_496:\n        /* \"#utility.yul\":6365:6390   */\n      swap3\n      pop\n        /* \"#utility.yul\":6425:6426   */\n      dup3\n        /* \"#utility.yul\":6422:6423   */\n      dup3\n        /* \"#utility.yul\":6418:6427   */\n      mul\n        /* \"#utility.yul\":6447:6477   */\n      tag_497\n        /* \"#utility.yul\":6465:6476   */\n      dup2\n        /* \"#utility.yul\":6447:6477   */\n      tag_370\n      jump\t// in\n    tag_497:\n        /* \"#utility.yul\":6436:6477   */\n      swap2\n      pop\n        /* \"#utility.yul\":6626:6627   */\n      dup3\n        /* \"#utility.yul\":6617:6624   */\n      dup3\n        /* \"#utility.yul\":6613:6628   */\n      div\n        /* \"#utility.yul\":6610:6611   */\n      dup5\n        /* \"#utility.yul\":6607:6629   */\n      eq\n        /* \"#utility.yul\":6587:6588   */\n      dup4\n        /* \"#utility.yul\":6580:6589   */\n      iszero\n        /* \"#utility.yul\":6560:6643   */\n      or\n        /* \"#utility.yul\":6537:6676   */\n      tag_498\n      jumpi\n        /* \"#utility.yul\":6656:6674   */\n      tag_499\n      tag_390\n      jump\t// in\n    tag_499:\n        /* \"#utility.yul\":6537:6676   */\n    tag_498:\n        /* \"#utility.yul\":6321:6683   */\n      pop\n        /* \"#utility.yul\":6273:6683   */\n      swap3\n      swap2\n      pop\n      pop\n      jump\t// out\n        /* \"#utility.yul\":6689:6858   */\n    tag_391:\n        /* \"#utility.yul\":6773:6784   */\n      0x00\n        /* \"#utility.yul\":6807:6813   */\n      dup3\n        /* \"#utility.yul\":6802:6805   */\n      dup3\n        /* \"#utility.yul\":6795:6814   */\n      mstore\n        /* \"#utility.yul\":6847:6851   */\n      0x20\n        /* \"#utility.yul\":6842:6845   */\n      dup3\n        /* \"#utility.yul\":6838:6852   */\n      add\n        /* \"#utility.yul\":6823:6852   */\n      swap1\n      pop\n        /* \"#utility.yul\":6689:6858   */\n      swap3\n      swap2\n      pop\n      pop\n      jump\t// out\n        /* \"#utility.yul\":6864:7030   */\n    tag_392:\n        /* \"#utility.yul\":7004:7022   */\n      0x78202f207920213d206478202f20647900000000000000000000000000000000\n        /* \"#utility.yul\":7000:7001   */\n      0x00\n        /* \"#utility.yul\":6992:6998   */\n      dup3\n        /* \"#utility.yul\":6988:7002   */\n      add\n        /* \"#utility.yul\":6981:7023   */\n      mstore\n        /* \"#utility.yul\":6864:7030   */\n      pop\n      jump\t// out\n        /* \"#utility.yul\":7036:7402   */\n    tag_393:\n        /* \"#utility.yul\":7178:7181   */\n      0x00\n        /* \"#utility.yul\":7199:7266   */\n      tag_503\n        /* \"#utility.yul\":7263:7265   */\n      0x10\n        /* \"#utility.yul\":7258:7261   */\n      dup4\n        /* \"#utility.yul\":7199:7266   */\n      tag_391\n      jump\t// in\n    tag_503:\n        /* \"#utility.yul\":7192:7266   */\n      swap2\n      pop\n        /* \"#utility.yul\":7275:7368   */\n      tag_504\n        /* \"#utility.yul\":7364:7367   */\n      dup3\n        /* \"#utility.yul\":7275:7368   */\n      tag_392\n      jump\t// in\n    tag_504:\n        /* \"#utility.yul\":7393:7395   */\n      0x20\n        /* \"#utility.yul\":7388:7391   */\n      dup3\n        /* \"#utility.yul\":7384:7396   */\n      add\n        /* \"#utility.yul\":7377:7396   */\n      swap1\n      pop\n        /* \"#utility.yul\":7036:7402   */\n      swap2\n      swap1\n      pop\n      jump\t// out\n        /* \"#utility.yul\":7408:7827   */\n    tag_136:\n        /* \"#utility.yul\":7574:7578   */\n      0x00\n        /* \"#utility.yul\":7612:7614   */\n      0x20\n        /* \"#utility.yul\":7601:7610   */\n      dup3\n        /* \"#utility.yul\":7597:7615   */\n      add\n        /* \"#utility.yul\":7589:7615   */\n      swap1\n      pop\n        /* \"#utility.yul\":7661:7670   */\n      dup2\n        /* \"#utility.yul\":7655:7659   */\n      dup2\n        /* \"#utility.yul\":7651:7671   */\n      sub\n        /* \"#utility.yul\":7647:7648   */\n      0x00\n        /* \"#utility.yul\":7636:7645   */\n      dup4\n        /* \"#utility.yul\":7632:7649   */\n      add\n        /* \"#utility.yul\":7625:7672   */\n      mstore\n        /* \"#utility.yul\":7689:7820   */\n      tag_506\n        /* \"#utility.yul\":7815:7819   */\n      dup2\n        /* \"#utility.yul\":7689:7820   */\n      tag_393\n      jump\t// in\n    tag_506:\n        /* \"#utility.yul\":7681:7820   */\n      swap1\n      pop\n        /* \"#utility.yul\":7408:7827   */\n      swap2\n      swap1\n      pop\n      jump\t// out\n        /* \"#utility.yul\":7833:8013   */\n    tag_394:\n        /* \"#utility.yul\":7881:7958   */\n      0x4e487b7100000000000000000000000000000000000000000000000000000000\n        /* \"#utility.yul\":7878:7879   */\n      0x00\n        /* \"#utility.yul\":7871:7959   */\n      mstore\n        /* \"#utility.yul\":7978:7982   */\n      0x12\n        /* \"#utility.yul\":7975:7976   */\n      0x04\n        /* \"#utility.yul\":7968:7983   */\n      mstore\n        /* \"#utility.yul\":8002:8006   */\n      0x24\n        /* \"#utility.yul\":7999:8000   */\n      0x00\n        /* \"#utility.yul\":7992:8007   */\n      revert\n        /* \"#utility.yul\":8019:8204   */\n    tag_145:\n        /* \"#utility.yul\":8059:8060   */\n      0x00\n        /* \"#utility.yul\":8076:8096   */\n      tag_509\n        /* \"#utility.yul\":8094:8095   */\n      dup3\n        /* \"#utility.yul\":8076:8096   */\n      tag_370\n      jump\t// in\n    tag_509:\n        /* \"#utility.yul\":8071:8096   */\n      swap2\n      pop\n        /* \"#utility.yul\":8110:8130   */\n      tag_510\n        /* \"#utility.yul\":8128:8129   */\n      dup4\n        /* \"#utility.yul\":8110:8130   */\n      tag_370\n      jump\t// in\n    tag_510:\n        /* \"#utility.yul\":8105:8130   */\n      swap3\n      pop\n        /* \"#utility.yul\":8149:8150   */\n      dup3\n        /* \"#utility.yul\":8139:8174   */\n      tag_511\n      jumpi\n        /* \"#utility.yul\":8154:8172   */\n      tag_512\n      tag_394\n      jump\t// in\n    tag_512:\n        /* \"#utility.yul\":8139:8174   */\n    tag_511:\n        /* \"#utility.yul\":8196:8197   */\n      dup3\n        /* \"#utility.yul\":8193:8194   */\n      dup3\n        /* \"#utility.yul\":8189:8198   */\n      div\n        /* \"#utility.yul\":8184:8198   */\n      swap1\n      pop\n        /* \"#utility.yul\":8019:8204   */\n      swap3\n      swap2\n      pop\n      pop\n      jump\t// out\n        /* \"#utility.yul\":8210:8370   */\n    tag_395:\n        /* \"#utility.yul\":8350:8362   */\n      0x736861726573203d203000000000000000000000000000000000000000000000\n        /* \"#utility.yul\":8346:8347   */\n      0x00\n        /* \"#utility.yul\":8338:8344   */\n      dup3\n        /* \"#utility.yul\":8334:8348   */\n      add\n        /* \"#utility.yul\":8327:8363   */\n      mstore\n        /* \"#utility.yul\":8210:8370   */\n      pop\n      jump\t// out\n        /* \"#utility.yul\":8376:8742   */\n    tag_396:\n        /* \"#utility.yul\":8518:8521   */\n      0x00\n        /* \"#utility.yul\":8539:8606   */\n      tag_515\n        /* \"#utility.yul\":8603:8605   */\n      0x0a\n        /* \"#utility.yul\":8598:8601   */\n      dup4\n        /* \"#utility.yul\":8539:8606   */\n      tag_391\n      jump\t// in\n    tag_515:\n        /* \"#utility.yul\":8532:8606   */\n      swap2\n      pop\n        /* \"#utility.yul\":8615:8708   */\n      tag_516\n        /* \"#utility.yul\":8704:8707   */\n      dup3\n        /* \"#utility.yul\":8615:8708   */\n      tag_395\n      jump\t// in\n    tag_516:\n        /* \"#utility.yul\":8733:8735   */\n      0x20\n        /* \"#utility.yul\":8728:8731   */\n      dup3\n        /* \"#utility.yul\":8724:8736   */\n      add\n        /* \"#utility.yul\":8717:8736   */\n      swap1\n      pop\n        /* \"#utility.yul\":8376:8742   */\n      swap2\n      swap1\n      pop\n      jump\t// out\n        /* \"#utility.yul\":8748:9167   */\n    tag_151:\n        /* \"#utility.yul\":8914:8918   */\n      0x00\n        /* \"#utility.yul\":8952:8954   */\n      0x20\n        /* \"#utility.yul\":8941:8950   */\n      dup3\n        /* \"#utility.yul\":8937:8955   */\n      add\n        /* \"#utility.yul\":8929:8955   */\n      swap1\n      pop\n        /* \"#utility.yul\":9001:9010   */\n      dup2\n        /* \"#utility.yul\":8995:8999   */\n      dup2\n        /* \"#utility.yul\":8991:9011   */\n      sub\n        /* \"#utility.yul\":8987:8988   */\n      0x00\n        /* \"#utility.yul\":8976:8985   */\n      dup4\n        /* \"#utility.yul\":8972:8989   */\n      add\n        /* \"#utility.yul\":8965:9012   */\n      mstore\n        /* \"#utility.yul\":9029:9160   */\n      tag_518\n        /* \"#utility.yul\":9155:9159   */\n      dup2\n        /* \"#utility.yul\":9029:9160   */\n      tag_396\n      jump\t// in\n    tag_518:\n        /* \"#utility.yul\":9021:9160   */\n      swap1\n      pop\n        /* \"#utility.yul\":8748:9167   */\n      swap2\n      swap1\n      pop\n      jump\t// out\n        /* \"#utility.yul\":9173:9316   */\n    tag_397:\n        /* \"#utility.yul\":9230:9235   */\n      0x00\n        /* \"#utility.yul\":9261:9267   */\n      dup2\n        /* \"#utility.yul\":9255:9268   */\n      mload\n        /* \"#utility.yul\":9246:9268   */\n      swap1\n      pop\n        /* \"#utility.yul\":9277:9310   */\n      tag_520\n        /* \"#utility.yul\":9304:9309   */\n      dup2\n        /* \"#utility.yul\":9277:9310   */\n      tag_375\n      jump\t// in\n    tag_520:\n        /* \"#utility.yul\":9173:9316   */\n      swap3\n      swap2\n      pop\n      pop\n      jump\t// out\n        /* \"#utility.yul\":9322:9673   */\n    tag_159:\n        /* \"#utility.yul\":9392:9398   */\n      0x00\n        /* \"#utility.yul\":9441:9443   */\n      0x20\n        /* \"#utility.yul\":9429:9438   */\n      dup3\n        /* \"#utility.yul\":9420:9427   */\n      dup5\n        /* \"#utility.yul\":9416:9439   */\n      sub\n        /* \"#utility.yul\":9412:9444   */\n      slt\n        /* \"#utility.yul\":9409:9528   */\n      iszero\n      tag_522\n      jumpi\n        /* \"#utility.yul\":9447:9526   */\n      tag_523\n      tag_373\n      jump\t// in\n    tag_523:\n        /* \"#utility.yul\":9409:9528   */\n    tag_522:\n        /* \"#utility.yul\":9567:9568   */\n      0x00\n        /* \"#utility.yul\":9592:9656   */\n      tag_524\n        /* \"#utility.yul\":9648:9655   */\n      dup5\n        /* \"#utility.yul\":9639:9645   */\n      dup3\n        /* \"#utility.yul\":9628:9637   */\n      dup6\n        /* \"#utility.yul\":9624:9646   */\n      add\n        /* \"#utility.yul\":9592:9656   */\n      tag_397\n      jump\t// in\n    tag_524:\n        /* \"#utility.yul\":9582:9656   */\n      swap2\n      pop\n        /* \"#utility.yul\":9538:9666   */\n      pop\n        /* \"#utility.yul\":9322:9673   */\n      swap3\n      swap2\n      pop\n      pop\n      jump\t// out\n        /* \"#utility.yul\":9679:9851   */\n    tag_398:\n        /* \"#utility.yul\":9819:9843   */\n      0x496e76616c696420455243323020726573657276657300000000000000000000\n        /* \"#utility.yul\":9815:9816   */\n      0x00\n        /* \"#utility.yul\":9807:9813   */\n      dup3\n        /* \"#utility.yul\":9803:9817   */\n      add\n        /* \"#utility.yul\":9796:9844   */\n      mstore\n        /* \"#utility.yul\":9679:9851   */\n      pop\n      jump\t// out\n        /* \"#utility.yul\":9857:10223   */\n    tag_399:\n        /* \"#utility.yul\":9999:10002   */\n      0x00\n        /* \"#utility.yul\":10020:10087   */\n      tag_527\n        /* \"#utility.yul\":10084:10086   */\n      0x16\n        /* \"#utility.yul\":10079:10082   */\n      dup4\n        /* \"#utility.yul\":10020:10087   */\n      tag_391\n      jump\t// in\n    tag_527:\n        /* \"#utility.yul\":10013:10087   */\n      swap2\n      pop\n        /* \"#utility.yul\":10096:10189   */\n      tag_528\n        /* \"#utility.yul\":10185:10188   */\n      dup3\n        /* \"#utility.yul\":10096:10189   */\n      tag_398\n      jump\t// in\n    tag_528:\n        /* \"#utility.yul\":10214:10216   */\n      0x20\n        /* \"#utility.yul\":10209:10212   */\n      dup3\n        /* \"#utility.yul\":10205:10217   */\n      add\n        /* \"#utility.yul\":10198:10217   */\n      swap1\n      pop\n        /* \"#utility.yul\":9857:10223   */\n      swap2\n      swap1\n      pop\n      jump\t// out\n        /* \"#utility.yul\":10229:10648   */\n    tag_166:\n        /* \"#utility.yul\":10395:10399   */\n      0x00\n        /* \"#utility.yul\":10433:10435   */\n      0x20\n        /* \"#utility.yul\":10422:10431   */\n      dup3\n        /* \"#utility.yul\":10418:10436   */\n      add\n        /* \"#utility.yul\":10410:10436   */\n      swap1\n      pop\n        /* \"#utility.yul\":10482:10491   */\n      dup2\n        /* \"#utility.yul\":10476:10480   */\n      dup2\n        /* \"#utility.yul\":10472:10492   */\n      sub\n        /* \"#utility.yul\":10468:10469   */\n      0x00\n        /* \"#utility.yul\":10457:10466   */\n      dup4\n        /* \"#utility.yul\":10453:10470   */\n      add\n        /* \"#utility.yul\":10446:10493   */\n      mstore\n        /* \"#utility.yul\":10510:10641   */\n      tag_530\n        /* \"#utility.yul\":10636:10640   */\n      dup2\n        /* \"#utility.yul\":10510:10641   */\n      tag_399\n      jump\t// in\n    tag_530:\n        /* \"#utility.yul\":10502:10641   */\n      swap1\n      pop\n        /* \"#utility.yul\":10229:10648   */\n      swap2\n      swap1\n      pop\n      jump\t// out\n        /* \"#utility.yul\":10654:10845   */\n    tag_170:\n        /* \"#utility.yul\":10694:10697   */\n      0x00\n        /* \"#utility.yul\":10713:10733   */\n      tag_532\n        /* \"#utility.yul\":10731:10732   */\n      dup3\n        /* \"#utility.yul\":10713:10733   */\n      tag_370\n      jump\t// in\n    tag_532:\n        /* \"#utility.yul\":10708:10733   */\n      swap2\n      pop\n        /* \"#utility.yul\":10747:10767   */\n      tag_533\n        /* \"#utility.yul\":10765:10766   */\n      dup4\n        /* \"#utility.yul\":10747:10767   */\n      tag_370\n      jump\t// in\n    tag_533:\n        /* \"#utility.yul\":10742:10767   */\n      swap3\n      pop\n        /* \"#utility.yul\":10790:10791   */\n      dup3\n        /* \"#utility.yul\":10787:10788   */\n      dup3\n        /* \"#utility.yul\":10783:10792   */\n      add\n        /* \"#utility.yul\":10776:10792   */\n      swap1\n      pop\n        /* \"#utility.yul\":10811:10814   */\n      dup1\n        /* \"#utility.yul\":10808:10809   */\n      dup3\n        /* \"#utility.yul\":10805:10815   */\n      gt\n        /* \"#utility.yul\":10802:10838   */\n      iszero\n      tag_534\n      jumpi\n        /* \"#utility.yul\":10818:10836   */\n      tag_535\n      tag_390\n      jump\t// in\n    tag_535:\n        /* \"#utility.yul\":10802:10838   */\n    tag_534:\n        /* \"#utility.yul\":10654:10845   */\n      swap3\n      swap2\n      pop\n      pop\n      jump\t// out\n        /* \"#utility.yul\":10851:11020   */\n    tag_400:\n        /* \"#utility.yul\":10991:11012   */\n      0x45544820616d6f756e74206d69736d6174636800000000000000000000000000\n        /* \"#utility.yul\":10987:10988   */\n      0x00\n        /* \"#utility.yul\":10979:10985   */\n      dup3\n        /* \"#utility.yul\":10975:10989   */\n      add\n        /* \"#utility.yul\":10968:11013   */\n      mstore\n        /* \"#utility.yul\":10851:11020   */\n      pop\n      jump\t// out\n        /* \"#utility.yul\":11026:11392   */\n    tag_401:\n        /* \"#utility.yul\":11168:11171   */\n      0x00\n        /* \"#utility.yul\":11189:11256   */\n      tag_538\n        /* \"#utility.yul\":11253:11255   */\n      0x13\n        /* \"#utility.yul\":11248:11251   */\n      dup4\n        /* \"#utility.yul\":11189:11256   */\n      tag_391\n      jump\t// in\n    tag_538:\n        /* \"#utility.yul\":11182:11256   */\n      swap2\n      pop\n        /* \"#utility.yul\":11265:11358   */\n      tag_539\n        /* \"#utility.yul\":11354:11357   */\n      dup3\n        /* \"#utility.yul\":11265:11358   */\n      tag_400\n      jump\t// in\n    tag_539:\n        /* \"#utility.yul\":11383:11385   */\n      0x20\n        /* \"#utility.yul\":11378:11381   */\n      dup3\n        /* \"#utility.yul\":11374:11386   */\n      add\n        /* \"#utility.yul\":11367:11386   */\n      swap1\n      pop\n        /* \"#utility.yul\":11026:11392   */\n      swap2\n      swap1\n      pop\n      jump\t// out\n        /* \"#utility.yul\":11398:11817   */\n    tag_176:\n        /* \"#utility.yul\":11564:11568   */\n      0x00\n        /* \"#utility.yul\":11602:11604   */\n      0x20\n        /* \"#utility.yul\":11591:11600   */\n      dup3\n        /* \"#utility.yul\":11587:11605   */\n      add\n        /* \"#utility.yul\":11579:11605   */\n      swap1\n      pop\n        /* \"#utility.yul\":11651:11660   */\n      dup2\n        /* \"#utility.yul\":11645:11649   */\n      dup2\n        /* \"#utility.yul\":11641:11661   */\n      sub\n        /* \"#utility.yul\":11637:11638   */\n      0x00\n        /* \"#utility.yul\":11626:11635   */\n      dup4\n        /* \"#utility.yul\":11622:11639   */\n      add\n        /* \"#utility.yul\":11615:11662   */\n      mstore\n        /* \"#utility.yul\":11679:11810   */\n      tag_541\n        /* \"#utility.yul\":11805:11809   */\n      dup2\n        /* \"#utility.yul\":11679:11810   */\n      tag_401\n      jump\t// in\n    tag_541:\n        /* \"#utility.yul\":11671:11810   */\n      swap1\n      pop\n        /* \"#utility.yul\":11398:11817   */\n      swap2\n      swap1\n      pop\n      jump\t// out\n        /* \"#utility.yul\":11823:11999   */\n    tag_402:\n        /* \"#utility.yul\":11963:11991   */\n      0x496e73756666696369656e74206f757470757420616d6f756e74000000000000\n        /* \"#utility.yul\":11959:11960   */\n      0x00\n        /* \"#utility.yul\":11951:11957   */\n      dup3\n        /* \"#utility.yul\":11947:11961   */\n      add\n        /* \"#utility.yul\":11940:11992   */\n      mstore\n        /* \"#utility.yul\":11823:11999   */\n      pop\n      jump\t// out\n        /* \"#utility.yul\":12005:12371   */\n    tag_403:\n        /* \"#utility.yul\":12147:12150   */\n      0x00\n        /* \"#utility.yul\":12168:12235   */\n      tag_544\n        /* \"#utility.yul\":12232:12234   */\n      0x1a\n        /* \"#utility.yul\":12227:12230   */\n      dup4\n        /* \"#utility.yul\":12168:12235   */\n      tag_391\n      jump\t// in\n    tag_544:\n        /* \"#utility.yul\":12161:12235   */\n      swap2\n      pop\n        /* \"#utility.yul\":12244:12337   */\n      tag_545\n        /* \"#utility.yul\":12333:12336   */\n      dup3\n        /* \"#utility.yul\":12244:12337   */\n      tag_402\n      jump\t// in\n    tag_545:\n        /* \"#utility.yul\":12362:12364   */\n      0x20\n        /* \"#utility.yul\":12357:12360   */\n      dup3\n        /* \"#utility.yul\":12353:12365   */\n      add\n        /* \"#utility.yul\":12346:12365   */\n      swap1\n      pop\n        /* \"#utility.yul\":12005:12371   */\n      swap2\n      swap1\n      pop\n      jump\t// out\n        /* \"#utility.yul\":12377:12796   */\n    tag_184:\n        /* \"#utility.yul\":12543:12547   */\n      0x00\n        /* \"#utility.yul\":12581:12583   */\n      0x20\n        /* \"#utility.yul\":12570:12579   */\n      dup3\n        /* \"#utility.yul\":12566:12584   */\n      add\n        /* \"#utility.yul\":12558:12584   */\n      swap1\n      pop\n        /* \"#utility.yul\":12630:12639   */\n      dup2\n        /* \"#utility.yul\":12624:12628   */\n      dup2\n        /* \"#utility.yul\":12620:12640   */\n      sub\n        /* \"#utility.yul\":12616:12617   */\n      0x00\n        /* \"#utility.yul\":12605:12614   */\n      dup4\n        /* \"#utility.yul\":12601:12618   */\n      add\n        /* \"#utility.yul\":12594:12641   */\n      mstore\n        /* \"#utility.yul\":12658:12789   */\n      tag_547\n        /* \"#utility.yul\":12784:12788   */\n      dup2\n        /* \"#utility.yul\":12658:12789   */\n      tag_403\n      jump\t// in\n    tag_547:\n        /* \"#utility.yul\":12650:12789   */\n      swap1\n      pop\n        /* \"#utility.yul\":12377:12796   */\n      swap2\n      swap1\n      pop\n      jump\t// out\n        /* \"#utility.yul\":12802:12996   */\n    tag_186:\n        /* \"#utility.yul\":12842:12846   */\n      0x00\n        /* \"#utility.yul\":12862:12882   */\n      tag_549\n        /* \"#utility.yul\":12880:12881   */\n      dup3\n        /* \"#utility.yul\":12862:12882   */\n      tag_370\n      jump\t// in\n    tag_549:\n        /* \"#utility.yul\":12857:12882   */\n      swap2\n      pop\n        /* \"#utility.yul\":12896:12916   */\n      tag_550\n        /* \"#utility.yul\":12914:12915   */\n      dup4\n        /* \"#utility.yul\":12896:12916   */\n      tag_370\n      jump\t// in\n    tag_550:\n        /* \"#utility.yul\":12891:12916   */\n      swap3\n      pop\n        /* \"#utility.yul\":12940:12941   */\n      dup3\n        /* \"#utility.yul\":12937:12938   */\n      dup3\n        /* \"#utility.yul\":12933:12942   */\n      sub\n        /* \"#utility.yul\":12925:12942   */\n      swap1\n      pop\n        /* \"#utility.yul\":12964:12965   */\n      dup2\n        /* \"#utility.yul\":12958:12962   */\n      dup2\n        /* \"#utility.yul\":12955:12966   */\n      gt\n        /* \"#utility.yul\":12952:12989   */\n      iszero\n      tag_551\n      jumpi\n        /* \"#utility.yul\":12969:12987   */\n      tag_552\n      tag_390\n      jump\t// in\n    tag_552:\n        /* \"#utility.yul\":12952:12989   */\n    tag_551:\n        /* \"#utility.yul\":12802:12996   */\n      swap3\n      swap2\n      pop\n      pop\n      jump\t// out\n        /* \"#utility.yul\":13002:13160   */\n    tag_404:\n        /* \"#utility.yul\":13142:13152   */\n      0x536c69704c6f636b000000000000000000000000000000000000000000000000\n        /* \"#utility.yul\":13138:13139   */\n      0x00\n        /* \"#utility.yul\":13130:13136   */\n      dup3\n        /* \"#utility.yul\":13126:13140   */\n      add\n        /* \"#utility.yul\":13119:13153   */\n      mstore\n        /* \"#utility.yul\":13002:13160   */\n      pop\n      jump\t// out\n        /* \"#utility.yul\":13166:13531   */\n    tag_405:\n        /* \"#utility.yul\":13308:13311   */\n      0x00\n        /* \"#utility.yul\":13329:13395   */\n      tag_555\n        /* \"#utility.yul\":13393:13394   */\n      0x08\n        /* \"#utility.yul\":13388:13391   */\n      dup4\n        /* \"#utility.yul\":13329:13395   */\n      tag_391\n      jump\t// in\n    tag_555:\n        /* \"#utility.yul\":13322:13395   */\n      swap2\n      pop\n        /* \"#utility.yul\":13404:13497   */\n      tag_556\n        /* \"#utility.yul\":13493:13496   */\n      dup3\n        /* \"#utility.yul\":13404:13497   */\n      tag_404\n      jump\t// in\n    tag_556:\n        /* \"#utility.yul\":13522:13524   */\n      0x20\n        /* \"#utility.yul\":13517:13520   */\n      dup3\n        /* \"#utility.yul\":13513:13525   */\n      add\n        /* \"#utility.yul\":13506:13525   */\n      swap1\n      pop\n        /* \"#utility.yul\":13166:13531   */\n      swap2\n      swap1\n      pop\n      jump\t// out\n        /* \"#utility.yul\":13537:13956   */\n    tag_191:\n        /* \"#utility.yul\":13703:13707   */\n      0x00\n        /* \"#utility.yul\":13741:13743   */\n      0x20\n        /* \"#utility.yul\":13730:13739   */\n      dup3\n        /* \"#utility.yul\":13726:13744   */\n      add\n        /* \"#utility.yul\":13718:13744   */\n      swap1\n      pop\n        /* \"#utility.yul\":13790:13799   */\n      dup2\n        /* \"#utility.yul\":13784:13788   */\n      dup2\n        /* \"#utility.yul\":13780:13800   */\n      sub\n        /* \"#utility.yul\":13776:13777   */\n      0x00\n        /* \"#utility.yul\":13765:13774   */\n      dup4\n        /* \"#utility.yul\":13761:13778   */\n      add\n        /* \"#utility.yul\":13754:13801   */\n      mstore\n        /* \"#utility.yul\":13818:13949   */\n      tag_558\n        /* \"#utility.yul\":13944:13948   */\n      dup2\n        /* \"#utility.yul\":13818:13949   */\n      tag_405\n      jump\t// in\n    tag_558:\n        /* \"#utility.yul\":13810:13949   */\n      swap1\n      pop\n        /* \"#utility.yul\":13537:13956   */\n      swap2\n      swap1\n      pop\n      jump\t// out\n        /* \"#utility.yul\":13962:14294   */\n    tag_198:\n        /* \"#utility.yul\":14083:14087   */\n      0x00\n        /* \"#utility.yul\":14121:14123   */\n      0x40\n        /* \"#utility.yul\":14110:14119   */\n      dup3\n        /* \"#utility.yul\":14106:14124   */\n      add\n        /* \"#utility.yul\":14098:14124   */\n      swap1\n      pop\n        /* \"#utility.yul\":14134:14205   */\n      tag_560\n        /* \"#utility.yul\":14202:14203   */\n      0x00\n        /* \"#utility.yul\":14191:14200   */\n      dup4\n        /* \"#utility.yul\":14187:14204   */\n      add\n        /* \"#utility.yul\":14178:14184   */\n      dup6\n        /* \"#utility.yul\":14134:14205   */\n      tag_381\n      jump\t// in\n    tag_560:\n        /* \"#utility.yul\":14215:14287   */\n      tag_561\n        /* \"#utility.yul\":14283:14285   */\n      0x20\n        /* \"#utility.yul\":14272:14281   */\n      dup4\n        /* \"#utility.yul\":14268:14286   */\n      add\n        /* \"#utility.yul\":14259:14265   */\n      dup5\n        /* \"#utility.yul\":14215:14287   */\n      tag_371\n      jump\t// in\n    tag_561:\n        /* \"#utility.yul\":13962:14294   */\n      swap4\n      swap3\n      pop\n      pop\n      pop\n      jump\t// out\n        /* \"#utility.yul\":14300:14470   */\n    tag_406:\n        /* \"#utility.yul\":14440:14462   */\n      0x496e73756666696369656e742062616c616e6365000000000000000000000000\n        /* \"#utility.yul\":14436:14437   */\n      0x00\n        /* \"#utility.yul\":14428:14434   */\n      dup3\n        /* \"#utility.yul\":14424:14438   */\n      add\n        /* \"#utility.yul\":14417:14463   */\n      mstore\n        /* \"#utility.yul\":14300:14470   */\n      pop\n      jump\t// out\n        /* \"#utility.yul\":14476:14842   */\n    tag_407:\n        /* \"#utility.yul\":14618:14621   */\n      0x00\n        /* \"#utility.yul\":14639:14706   */\n      tag_564\n        /* \"#utility.yul\":14703:14705   */\n      0x14\n        /* \"#utility.yul\":14698:14701   */\n      dup4\n        /* \"#utility.yul\":14639:14706   */\n      tag_391\n      jump\t// in\n    tag_564:\n        /* \"#utility.yul\":14632:14706   */\n      swap2\n      pop\n        /* \"#utility.yul\":14715:14808   */\n      tag_565\n        /* \"#utility.yul\":14804:14807   */\n      dup3\n        /* \"#utility.yul\":14715:14808   */\n      tag_406\n      jump\t// in\n    tag_565:\n        /* \"#utility.yul\":14833:14835   */\n      0x20\n        /* \"#utility.yul\":14828:14831   */\n      dup3\n        /* \"#utility.yul\":14824:14836   */\n      add\n        /* \"#utility.yul\":14817:14836   */\n      swap1\n      pop\n        /* \"#utility.yul\":14476:14842   */\n      swap2\n      swap1\n      pop\n      jump\t// out\n        /* \"#utility.yul\":14848:15267   */\n    tag_260:\n        /* \"#utility.yul\":15014:15018   */\n      0x00\n        /* \"#utility.yul\":15052:15054   */\n      0x20\n        /* \"#utility.yul\":15041:15050   */\n      dup3\n        /* \"#utility.yul\":15037:15055   */\n      add\n        /* \"#utility.yul\":15029:15055   */\n      swap1\n      pop\n        /* \"#utility.yul\":15101:15110   */\n      dup2\n        /* \"#utility.yul\":15095:15099   */\n      dup2\n        /* \"#utility.yul\":15091:15111   */\n      sub\n        /* \"#utility.yul\":15087:15088   */\n      0x00\n        /* \"#utility.yul\":15076:15085   */\n      dup4\n        /* \"#utility.yul\":15072:15089   */\n      add\n        /* \"#utility.yul\":15065:15112   */\n      mstore\n        /* \"#utility.yul\":15129:15260   */\n      tag_567\n        /* \"#utility.yul\":15255:15259   */\n      dup2\n        /* \"#utility.yul\":15129:15260   */\n      tag_407\n      jump\t// in\n    tag_567:\n        /* \"#utility.yul\":15121:15260   */\n      swap1\n      pop\n        /* \"#utility.yul\":14848:15267   */\n      swap2\n      swap1\n      pop\n      jump\t// out\n        /* \"#utility.yul\":15273:15443   */\n    tag_408:\n        /* \"#utility.yul\":15413:15435   */\n      0x496e76616c696420455448207265736572766573000000000000000000000000\n        /* \"#utility.yul\":15409:15410   */\n      0x00\n        /* \"#utility.yul\":15401:15407   */\n      dup3\n        /* \"#utility.yul\":15397:15411   */\n      add\n        /* \"#utility.yul\":15390:15436   */\n      mstore\n        /* \"#utility.yul\":15273:15443   */\n      pop\n      jump\t// out\n        /* \"#utility.yul\":15449:15815   */\n    tag_409:\n        /* \"#utility.yul\":15591:15594   */\n      0x00\n        /* \"#utility.yul\":15612:15679   */\n      tag_570\n        /* \"#utility.yul\":15676:15678   */\n      0x14\n        /* \"#utility.yul\":15671:15674   */\n      dup4\n        /* \"#utility.yul\":15612:15679   */\n      tag_391\n      jump\t// in\n    tag_570:\n        /* \"#utility.yul\":15605:15679   */\n      swap2\n      pop\n        /* \"#utility.yul\":15688:15781   */\n      tag_571\n        /* \"#utility.yul\":15777:15780   */\n      dup3\n        /* \"#utility.yul\":15688:15781   */\n      tag_408\n      jump\t// in\n    tag_571:\n        /* \"#utility.yul\":15806:15808   */\n      0x20\n        /* \"#utility.yul\":15801:15804   */\n      dup3\n        /* \"#utility.yul\":15797:15809   */\n      add\n        /* \"#utility.yul\":15790:15809   */\n      swap1\n      pop\n        /* \"#utility.yul\":15449:15815   */\n      swap2\n      swap1\n      pop\n      jump\t// out\n        /* \"#utility.yul\":15821:16240   */\n    tag_270:\n        /* \"#utility.yul\":15987:15991   */\n      0x00\n        /* \"#utility.yul\":16025:16027   */\n      0x20\n        /* \"#utility.yul\":16014:16023   */\n      dup3\n        /* \"#utility.yul\":16010:16028   */\n      add\n        /* \"#utility.yul\":16002:16028   */\n      swap1\n      pop\n        /* \"#utility.yul\":16074:16083   */\n      dup2\n        /* \"#utility.yul\":16068:16072   */\n      dup2\n        /* \"#utility.yul\":16064:16084   */\n      sub\n        /* \"#utility.yul\":16060:16061   */\n      0x00\n        /* \"#utility.yul\":16049:16058   */\n      dup4\n        /* \"#utility.yul\":16045:16062   */\n      add\n        /* \"#utility.yul\":16038:16085   */\n      mstore\n        /* \"#utility.yul\":16102:16233   */\n      tag_573\n        /* \"#utility.yul\":16228:16232   */\n      dup2\n        /* \"#utility.yul\":16102:16233   */\n      tag_409\n      jump\t// in\n    tag_573:\n        /* \"#utility.yul\":16094:16233   */\n      swap1\n      pop\n        /* \"#utility.yul\":15821:16240   */\n      swap2\n      swap1\n      pop\n      jump\t// out\n        /* \"#utility.yul\":16246:16332   */\n    tag_410:\n        /* \"#utility.yul\":16281:16288   */\n      0x00\n        /* \"#utility.yul\":16321:16325   */\n      0xff\n        /* \"#utility.yul\":16314:16319   */\n      dup3\n        /* \"#utility.yul\":16310:16326   */\n      and\n        /* \"#utility.yul\":16299:16326   */\n      swap1\n      pop\n        /* \"#utility.yul\":16246:16332   */\n      swap2\n      swap1\n      pop\n      jump\t// out\n        /* \"#utility.yul\":16338:16456   */\n    tag_411:\n        /* \"#utility.yul\":16409:16431   */\n      tag_576\n        /* \"#utility.yul\":16425:16430   */\n      dup2\n        /* \"#utility.yul\":16409:16431   */\n      tag_410\n      jump\t// in\n    tag_576:\n        /* \"#utility.yul\":16402:16407   */\n      dup2\n        /* \"#utility.yul\":16399:16432   */\n      eq\n        /* \"#utility.yul\":16389:16450   */\n      tag_577\n      jumpi\n        /* \"#utility.yul\":16446:16447   */\n      0x00\n        /* \"#utility.yul\":16443:16444   */\n      dup1\n        /* \"#utility.yul\":16436:16448   */\n      revert\n        /* \"#utility.yul\":16389:16450   */\n    tag_577:\n        /* \"#utility.yul\":16338:16456   */\n      pop\n      jump\t// out\n        /* \"#utility.yul\":16462:16601   */\n    tag_412:\n        /* \"#utility.yul\":16517:16522   */\n      0x00\n        /* \"#utility.yul\":16548:16554   */\n      dup2\n        /* \"#utility.yul\":16542:16555   */\n      mload\n        /* \"#utility.yul\":16533:16555   */\n      swap1\n      pop\n        /* \"#utility.yul\":16564:16595   */\n      tag_579\n        /* \"#utility.yul\":16589:16594   */\n      dup2\n        /* \"#utility.yul\":16564:16595   */\n      tag_411\n      jump\t// in\n    tag_579:\n        /* \"#utility.yul\":16462:16601   */\n      swap3\n      swap2\n      pop\n      pop\n      jump\t// out\n        /* \"#utility.yul\":16607:16954   */\n    tag_320:\n        /* \"#utility.yul\":16675:16681   */\n      0x00\n        /* \"#utility.yul\":16724:16726   */\n      0x20\n        /* \"#utility.yul\":16712:16721   */\n      dup3\n        /* \"#utility.yul\":16703:16710   */\n      dup5\n        /* \"#utility.yul\":16699:16722   */\n      sub\n        /* \"#utility.yul\":16695:16727   */\n      slt\n        /* \"#utility.yul\":16692:16811   */\n      iszero\n      tag_581\n      jumpi\n        /* \"#utility.yul\":16730:16809   */\n      tag_582\n      tag_373\n      jump\t// in\n    tag_582:\n        /* \"#utility.yul\":16692:16811   */\n    tag_581:\n        /* \"#utility.yul\":16850:16851   */\n      0x00\n        /* \"#utility.yul\":16875:16937   */\n      tag_583\n        /* \"#utility.yul\":16929:16936   */\n      dup5\n        /* \"#utility.yul\":16920:16926   */\n      dup3\n        /* \"#utility.yul\":16909:16918   */\n      dup6\n        /* \"#utility.yul\":16905:16927   */\n      add\n        /* \"#utility.yul\":16875:16937   */\n      tag_412\n      jump\t// in\n    tag_583:\n        /* \"#utility.yul\":16865:16937   */\n      swap2\n      pop\n        /* \"#utility.yul\":16821:16947   */\n      pop\n        /* \"#utility.yul\":16607:16954   */\n      swap3\n      swap2\n      pop\n      pop\n      jump\t// out\n        /* \"#utility.yul\":16960:17062   */\n    tag_413:\n        /* \"#utility.yul\":17002:17010   */\n      0x00\n        /* \"#utility.yul\":17049:17054   */\n      dup2\n        /* \"#utility.yul\":17046:17047   */\n      0x01\n        /* \"#utility.yul\":17042:17055   */\n      shr\n        /* \"#utility.yul\":17021:17055   */\n      swap1\n      pop\n        /* \"#utility.yul\":16960:17062   */\n      swap2\n      swap1\n      pop\n      jump\t// out\n        /* \"#utility.yul\":17068:17916   */\n    tag_414:\n        /* \"#utility.yul\":17129:17134   */\n      0x00\n        /* \"#utility.yul\":17136:17140   */\n      dup1\n        /* \"#utility.yul\":17160:17166   */\n      dup3\n        /* \"#utility.yul\":17151:17166   */\n      swap2\n      pop\n        /* \"#utility.yul\":17184:17189   */\n      dup4\n        /* \"#utility.yul\":17175:17189   */\n      swap1\n      pop\n        /* \"#utility.yul\":17198:17910   */\n    tag_586:\n        /* \"#utility.yul\":17219:17220   */\n      0x01\n        /* \"#utility.yul\":17209:17217   */\n      dup6\n        /* \"#utility.yul\":17206:17221   */\n      gt\n        /* \"#utility.yul\":17198:17910   */\n      iszero\n      tag_588\n      jumpi\n        /* \"#utility.yul\":17314:17318   */\n      dup1\n        /* \"#utility.yul\":17309:17312   */\n      dup7\n        /* \"#utility.yul\":17305:17319   */\n      div\n        /* \"#utility.yul\":17299:17303   */\n      dup2\n        /* \"#utility.yul\":17296:17320   */\n      gt\n        /* \"#utility.yul\":17293:17343   */\n      iszero\n      tag_589\n      jumpi\n        /* \"#utility.yul\":17323:17341   */\n      tag_590\n      tag_390\n      jump\t// in\n    tag_590:\n        /* \"#utility.yul\":17293:17343   */\n    tag_589:\n        /* \"#utility.yul\":17373:17374   */\n      0x01\n        /* \"#utility.yul\":17363:17371   */\n      dup6\n        /* \"#utility.yul\":17359:17375   */\n      and\n        /* \"#utility.yul\":17356:17807   */\n      iszero\n      tag_591\n      jumpi\n        /* \"#utility.yul\":17788:17792   */\n      dup1\n        /* \"#utility.yul\":17781:17786   */\n      dup3\n        /* \"#utility.yul\":17777:17793   */\n      mul\n        /* \"#utility.yul\":17768:17793   */\n      swap2\n      pop\n        /* \"#utility.yul\":17356:17807   */\n    tag_591:\n        /* \"#utility.yul\":17838:17842   */\n      dup1\n        /* \"#utility.yul\":17832:17836   */\n      dup2\n        /* \"#utility.yul\":17828:17843   */\n      mul\n        /* \"#utility.yul\":17820:17843   */\n      swap1\n      pop\n        /* \"#utility.yul\":17868:17900   */\n      tag_592\n        /* \"#utility.yul\":17891:17899   */\n      dup6\n        /* \"#utility.yul\":17868:17900   */\n      tag_413\n      jump\t// in\n    tag_592:\n        /* \"#utility.yul\":17856:17900   */\n      swap5\n      pop\n        /* \"#utility.yul\":17198:17910   */\n      jump(tag_586)\n    tag_588:\n        /* \"#utility.yul\":17068:17916   */\n      swap5\n      pop\n      swap5\n      swap3\n      pop\n      pop\n      pop\n      jump\t// out\n        /* \"#utility.yul\":17922:18995   */\n    tag_415:\n        /* \"#utility.yul\":17976:17981   */\n      0x00\n        /* \"#utility.yul\":18167:18175   */\n      dup3\n        /* \"#utility.yul\":18157:18197   */\n      tag_594\n      jumpi\n        /* \"#utility.yul\":18188:18189   */\n      0x01\n        /* \"#utility.yul\":18179:18189   */\n      swap1\n      pop\n        /* \"#utility.yul\":18190:18195   */\n      jump(tag_593)\n        /* \"#utility.yul\":18157:18197   */\n    tag_594:\n        /* \"#utility.yul\":18216:18220   */\n      dup2\n        /* \"#utility.yul\":18206:18242   */\n      tag_595\n      jumpi\n        /* \"#utility.yul\":18233:18234   */\n      0x00\n        /* \"#utility.yul\":18224:18234   */\n      swap1\n      pop\n        /* \"#utility.yul\":18235:18240   */\n      jump(tag_593)\n        /* \"#utility.yul\":18206:18242   */\n    tag_595:\n        /* \"#utility.yul\":18302:18306   */\n      dup2\n        /* \"#utility.yul\":18350:18351   */\n      0x01\n        /* \"#utility.yul\":18345:18372   */\n      dup2\n      eq\n      tag_597\n      jumpi\n        /* \"#utility.yul\":18386:18387   */\n      0x02\n        /* \"#utility.yul\":18381:18572   */\n      dup2\n      eq\n      tag_598\n      jumpi\n        /* \"#utility.yul\":18295:18572   */\n      jump(tag_596)\n        /* \"#utility.yul\":18345:18372   */\n    tag_597:\n        /* \"#utility.yul\":18363:18364   */\n      0x01\n        /* \"#utility.yul\":18354:18364   */\n      swap2\n      pop\n        /* \"#utility.yul\":18365:18370   */\n      pop\n      jump(tag_593)\n        /* \"#utility.yul\":18381:18572   */\n    tag_598:\n        /* \"#utility.yul\":18426:18429   */\n      0xff\n        /* \"#utility.yul\":18416:18424   */\n      dup5\n        /* \"#utility.yul\":18413:18430   */\n      gt\n        /* \"#utility.yul\":18410:18453   */\n      iszero\n      tag_599\n      jumpi\n        /* \"#utility.yul\":18433:18451   */\n      tag_600\n      tag_390\n      jump\t// in\n    tag_600:\n        /* \"#utility.yul\":18410:18453   */\n    tag_599:\n        /* \"#utility.yul\":18482:18490   */\n      dup4\n        /* \"#utility.yul\":18479:18480   */\n      0x02\n        /* \"#utility.yul\":18475:18491   */\n      exp\n        /* \"#utility.yul\":18466:18491   */\n      swap2\n      pop\n        /* \"#utility.yul\":18517:18520   */\n      dup5\n        /* \"#utility.yul\":18510:18515   */\n      dup3\n        /* \"#utility.yul\":18507:18521   */\n      gt\n        /* \"#utility.yul\":18504:18544   */\n      iszero\n      tag_601\n      jumpi\n        /* \"#utility.yul\":18524:18542   */\n      tag_602\n      tag_390\n      jump\t// in\n    tag_602:\n        /* \"#utility.yul\":18504:18544   */\n    tag_601:\n        /* \"#utility.yul\":18557:18562   */\n      pop\n      jump(tag_593)\n        /* \"#utility.yul\":18295:18572   */\n    tag_596:\n      pop\n        /* \"#utility.yul\":18681:18683   */\n      0x20\n        /* \"#utility.yul\":18671:18679   */\n      dup4\n        /* \"#utility.yul\":18668:18684   */\n      lt\n        /* \"#utility.yul\":18662:18665   */\n      0x0133\n        /* \"#utility.yul\":18656:18660   */\n      dup4\n        /* \"#utility.yul\":18653:18666   */\n      lt\n        /* \"#utility.yul\":18649:18685   */\n      and\n        /* \"#utility.yul\":18631:18633   */\n      0x4e\n        /* \"#utility.yul\":18621:18629   */\n      dup5\n        /* \"#utility.yul\":18618:18634   */\n      lt\n        /* \"#utility.yul\":18613:18615   */\n      0x0b\n        /* \"#utility.yul\":18607:18611   */\n      dup5\n        /* \"#utility.yul\":18604:18616   */\n      lt\n        /* \"#utility.yul\":18600:18635   */\n      and\n        /* \"#utility.yul\":18584:18695   */\n      or\n        /* \"#utility.yul\":18581:18827   */\n      iszero\n      tag_603\n      jumpi\n        /* \"#utility.yul\":18737:18745   */\n      dup3\n        /* \"#utility.yul\":18731:18735   */\n      dup3\n        /* \"#utility.yul\":18727:18746   */\n      exp\n        /* \"#utility.yul\":18718:18746   */\n      swap1\n      pop\n        /* \"#utility.yul\":18772:18775   */\n      dup4\n        /* \"#utility.yul\":18765:18770   */\n      dup2\n        /* \"#utility.yul\":18762:18776   */\n      gt\n        /* \"#utility.yul\":18759:18799   */\n      iszero\n      tag_604\n      jumpi\n        /* \"#utility.yul\":18779:18797   */\n      tag_605\n      tag_390\n      jump\t// in\n    tag_605:\n        /* \"#utility.yul\":18759:18799   */\n    tag_604:\n        /* \"#utility.yul\":18812:18817   */\n      jump(tag_593)\n        /* \"#utility.yul\":18581:18827   */\n    tag_603:\n        /* \"#utility.yul\":18852:18894   */\n      tag_606\n        /* \"#utility.yul\":18890:18893   */\n      dup5\n        /* \"#utility.yul\":18880:18888   */\n      dup5\n        /* \"#utility.yul\":18874:18878   */\n      dup5\n        /* \"#utility.yul\":18871:18872   */\n      0x01\n        /* \"#utility.yul\":18852:18894   */\n      tag_414\n      jump\t// in\n    tag_606:\n        /* \"#utility.yul\":18837:18894   */\n      swap3\n      pop\n      swap1\n      pop\n        /* \"#utility.yul\":18926:18930   */\n      dup2\n        /* \"#utility.yul\":18921:18924   */\n      dup5\n        /* \"#utility.yul\":18917:18931   */\n      div\n        /* \"#utility.yul\":18910:18915   */\n      dup2\n        /* \"#utility.yul\":18907:18932   */\n      gt\n        /* \"#utility.yul\":18904:18955   */\n      iszero\n      tag_607\n      jumpi\n        /* \"#utility.yul\":18935:18953   */\n      tag_608\n      tag_390\n      jump\t// in\n    tag_608:\n        /* \"#utility.yul\":18904:18955   */\n    tag_607:\n        /* \"#utility.yul\":18984:18988   */\n      dup2\n        /* \"#utility.yul\":18977:18982   */\n      dup2\n        /* \"#utility.yul\":18973:18989   */\n      mul\n        /* \"#utility.yul\":18964:18989   */\n      swap1\n      pop\n        /* \"#utility.yul\":17922:18995   */\n    tag_593:\n      swap4\n      swap3\n      pop\n      pop\n      pop\n      jump\t// out\n        /* \"#utility.yul\":19001:19286   */\n    tag_322:\n        /* \"#utility.yul\":19061:19066   */\n      0x00\n        /* \"#utility.yul\":19085:19108   */\n      tag_610\n        /* \"#utility.yul\":19103:19107   */\n      dup3\n        /* \"#utility.yul\":19085:19108   */\n      tag_370\n      jump\t// in\n    tag_610:\n        /* \"#utility.yul\":19077:19108   */\n      swap2\n      pop\n        /* \"#utility.yul\":19129:19156   */\n      tag_611\n        /* \"#utility.yul\":19147:19155   */\n      dup4\n        /* \"#utility.yul\":19129:19156   */\n      tag_370\n      jump\t// in\n    tag_611:\n        /* \"#utility.yul\":19117:19156   */\n      swap3\n      pop\n        /* \"#utility.yul\":19175:19279   */\n      tag_612\n        /* \"#utility.yul\":19212:19278   */\n      0xffffffffffffffffffffffffffffffffffffffffffffffffffffffffffffffff\n        /* \"#utility.yul\":19202:19210   */\n      dup5\n        /* \"#utility.yul\":19196:19200   */\n      dup5\n        /* \"#utility.yul\":19175:19279   */\n      tag_415\n      jump\t// in\n    tag_612:\n        /* \"#utility.yul\":19166:19279   */\n      swap1\n      pop\n        /* \"#utility.yul\":19001:19286   */\n      swap3\n      swap2\n      pop\n      pop\n      jump\t// out\n        /* \"#utility.yul\":19292:19468   */\n    tag_416:\n        /* \"#utility.yul\":19432:19460   */\n      0x616d6f756e74455448206f7220616d6f756e74455243203d2030000000000000\n        /* \"#utility.yul\":19428:19429   */\n      0x00\n        /* \"#utility.yul\":19420:19426   */\n      dup3\n        /* \"#utility.yul\":19416:19430   */\n      add\n        /* \"#utility.yul\":19409:19461   */\n      mstore\n        /* \"#utility.yul\":19292:19468   */\n      pop\n      jump\t// out\n        /* \"#utility.yul\":19474:19840   */\n    tag_417:\n        /* \"#utility.yul\":19616:19619   */\n      0x00\n        /* \"#utility.yul\":19637:19704   */\n      tag_615\n        /* \"#utility.yul\":19701:19703   */\n      0x1a\n        /* \"#utility.yul\":19696:19699   */\n      dup4\n        /* \"#utility.yul\":19637:19704   */\n      tag_391\n      jump\t// in\n    tag_615:\n        /* \"#utility.yul\":19630:19704   */\n      swap2\n      pop\n        /* \"#utility.yul\":19713:19806   */\n      tag_616\n        /* \"#utility.yul\":19802:19805   */\n      dup3\n        /* \"#utility.yul\":19713:19806   */\n      tag_416\n      jump\t// in\n    tag_616:\n        /* \"#utility.yul\":19831:19833   */\n      0x20\n        /* \"#utility.yul\":19826:19829   */\n      dup3\n        /* \"#utility.yul\":19822:19834   */\n      add\n        /* \"#utility.yul\":19815:19834   */\n      swap1\n      pop\n        /* \"#utility.yul\":19474:19840   */\n      swap2\n      swap1\n      pop\n      jump\t// out\n        /* \"#utility.yul\":19846:20265   */\n    tag_351:\n        /* \"#utility.yul\":20012:20016   */\n      0x00\n        /* \"#utility.yul\":20050:20052   */\n      0x20\n        /* \"#utility.yul\":20039:20048   */\n      dup3\n        /* \"#utility.yul\":20035:20053   */\n      add\n        /* \"#utility.yul\":20027:20053   */\n      swap1\n      pop\n        /* \"#utility.yul\":20099:20108   */\n      dup2\n        /* \"#utility.yul\":20093:20097   */\n      dup2\n        /* \"#utility.yul\":20089:20109   */\n      sub\n        /* \"#utility.yul\":20085:20086   */\n      0x00\n        /* \"#utility.yul\":20074:20083   */\n      dup4\n        /* \"#utility.yul\":20070:20087   */\n      add\n        /* \"#utility.yul\":20063:20110   */\n      mstore\n        /* \"#utility.yul\":20127:20258   */\n      tag_618\n        /* \"#utility.yul\":20253:20257   */\n      dup2\n        /* \"#utility.yul\":20127:20258   */\n      tag_417\n      jump\t// in\n    tag_618:\n        /* \"#utility.yul\":20119:20258   */\n      swap1\n      pop\n        /* \"#utility.yul\":19846:20265   */\n      swap2\n      swap1\n      pop\n      jump\t// out\n\n    auxdata: 0xa2646970667358221220cc4aba3704f8080799e44995698b45df3320985c83a1f9e00d654d788da93a9a64736f6c63430008120033\n}\n",
				"bytecode": {
					"linkReferences": {},
					"object": "60a06040523480156200001157600080fd5b50604051620027c5380380620027c583398181016040528101906200003791906200011c565b336000806101000a81548173ffffffffffffffffffffffffffffffffffffffff021916908373ffffffffffffffffffffffffffffffffffffffff1602179055508073ffffffffffffffffffffffffffffffffffffffff1660808173ffffffffffffffffffffffffffffffffffffffff1681525050506200014e565b600080fd5b600073ffffffffffffffffffffffffffffffffffffffff82169050919050565b6000620000e482620000b7565b9050919050565b620000f681620000d7565b81146200010257600080fd5b50565b6000815190506200011681620000eb565b92915050565b600060208284031215620001355762000134620000b2565b5b6000620001458482850162000105565b91505092915050565b608051612600620001c5600039600081816105440152818161071601528181610a0001528181610aa301528181610c7f01528181610d6b01528181610f6b0152818161100e015281816113bc015281816114a80152818161164c015281816116c6015281816119450152611a3501526126006000f3fe60806040526004361061011f5760003560e01c80639c8f9f23116100a0578063dccc5fea11610064578063dccc5fea14610439578063e764e67c14610476578063f5eb42dc146104a1578063fc0c546a146104de578063fcc2ba08146105095761011f565b80639c8f9f231461032a578063a201ccf614610368578063a607a8d9146103a6578063a734f06e146103d1578063dc2d845b146103fc5761011f565b80636cae4f84116100e75780636cae4f84146102175780636fb84b741461024257806370a082311461027f5780637a6a5e1b146102bc57806394b918de146102fa5761011f565b8063100af2031461012457806318160ddd1461014f57806351c6590a1461017a57806356c1d7eb146101aa57806362279b65146101e7575b600080fd5b34801561013057600080fd5b50610139610534565b6040516101469190611b65565b60405180910390f35b34801561015b57600080fd5b5061016461053a565b6040516101719190611b65565b60405180910390f35b610194600480360381019061018f9190611bb1565b610540565b6040516101a19190611b65565b60405180910390f35b3480156101b657600080fd5b506101d160048036038101906101cc9190611bb1565b6107b9565b6040516101de9190611b65565b60405180910390f35b61020160048036038101906101fc9190611bde565b610866565b60405161020e9190611b65565b60405180910390f35b34801561022357600080fd5b5061022c610b49565b6040516102399190611b65565b60405180910390f35b34801561024e57600080fd5b5061026960048036038101906102649190611bb1565b610b90565b6040516102769190611b65565b60405180910390f35b34801561028b57600080fd5b506102a660048036038101906102a19190611c8f565b610e0f565b6040516102b39190611b65565b60405180910390f35b3480156102c857600080fd5b506102e360048036038101906102de9190611c8f565b610e27565b6040516102f1929190611cbc565b60405180910390f35b610314600480360381019061030f9190611bb1565b610e7c565b6040516103219190611b65565b60405180910390f35b34801561033657600080fd5b50610351600480360381019061034c9190611bb1565b6110b2565b60405161035f929190611cbc565b60405180910390f35b34801561037457600080fd5b5061038f600480360381019061038a9190611ce5565b61114a565b60405161039d929190611cbc565b60405180910390f35b3480156103b257600080fd5b506103bb6111e4565b6040516103c89190611b65565b60405180910390f35b3480156103dd57600080fd5b506103e6611260565b6040516103f39190611d34565b60405180910390f35b34801561040857600080fd5b50610423600480360381019061041e9190611bde565b611265565b6040516104309190611b65565b60405180910390f35b34801561044557600080fd5b50610460600480360381019061045b9190611bb1565b61154e565b60405161046d9190611b65565b60405180910390f35b34801561048257600080fd5b5061048b6115fb565b6040516104989190611b65565b60405180910390f35b3480156104ad57600080fd5b506104c860048036038101906104c39190611c8f565b611601565b6040516104d59190611b65565b60405180910390f35b3480156104ea57600080fd5b506104f361164a565b6040516105009190611dae565b60405180910390f35b34801561051557600080fd5b5061051e61166e565b60405161052b9190611b65565b60405180910390f35b60015481565b60035481565b60007f000000000000000000000000000000000000000000000000000000000000000073ffffffffffffffffffffffffffffffffffffffff166323b872dd3330856040518463ffffffff1660e01b815260040161059f93929190611dc9565b6020604051808303816000875af11580156105be573d6000803e3d6000fd5b505050506040513d601f19601f820116820180604052508101906105e29190611e38565b506000349050600060015411806105fb57506000600254115b1561065d578060025461060e9190611e94565b8360015461061c9190611e94565b1461065c576040517f08c379a000000000000000000000000000000000000000000000000000000000815260040161065390611f33565b60405180910390fd5b5b6000600354036106825761067b83826106769190611e94565b611785565b91506106c3565b6106c0600154600354836106969190611e94565b6106a09190611f82565b600254600354866106b19190611e94565b6106bb9190611f82565b6117ff565b91505b60008211610706576040517f08c379a00000000000000000000000000000000000000000000000000000000081526004016106fd90611fff565b60405180910390fd5b6107103383611818565b6107b3477f000000000000000000000000000000000000000000000000000000000000000073ffffffffffffffffffffffffffffffffffffffff166370a08231306040518263ffffffff1660e01b815260040161076d9190611d34565b602060405180830381865afa15801561078a573d6000803e3d6000fd5b505050506040513d601f19601f820116820180604052508101906107ae9190612034565b61188b565b50919050565b6000806001541180156107ce57506000600254115b80156107da5750600082115b610819576040517f08c379a0000000000000000000000000000000000000000000000000000000008152600401610810906120ad565b60405180910390fd5b60006103e86103e58461082c9190611e94565b6108369190611f82565b90508060015461084691906120cd565b816002546108549190611e94565b61085e9190611f82565b915050919050565b60008334146108aa576040517f08c379a00000000000000000000000000000000000000000000000000000000081526004016108a19061214d565b60405180910390fd5b60006103e86103e5866108bd9190611e94565b6108c79190611f82565b9050806001546108d791906120cd565b816002546108e59190611e94565b6108ef9190611f82565b915060008211610934576040517f08c379a000000000000000000000000000000000000000000000000000000000815260040161092b906121b9565b60405180910390fd5b6103e8836103e861094591906121d9565b856109509190611e94565b61095a9190611f82565b82101561099c576040517f08c379a000000000000000000000000000000000000000000000000000000000815260040161099390612259565b60405180910390fd5b60006107d06001546109ae9190611e94565b6003546003886109be9190611e94565b6109c89190611e94565b6109d29190611f82565b90506109fe60008054906101000a900473ffffffffffffffffffffffffffffffffffffffff1682611818565b7f000000000000000000000000000000000000000000000000000000000000000073ffffffffffffffffffffffffffffffffffffffff1663a9059cbb33856040518363ffffffff1660e01b8152600401610a59929190612279565b6020604051808303816000875af1158015610a78573d6000803e3d6000fd5b505050506040513d601f19601f82011682018060405250810190610a9c9190611e38565b50610b40477f000000000000000000000000000000000000000000000000000000000000000073ffffffffffffffffffffffffffffffffffffffff166370a08231306040518263ffffffff1660e01b8152600401610afa9190611d34565b602060405180830381865afa158015610b17573d6000803e3d6000fd5b505050506040513d601f19601f82011682018060405250810190610b3b9190612034565b61188b565b50509392505050565b6000600460003373ffffffffffffffffffffffffffffffffffffffff1673ffffffffffffffffffffffffffffffffffffffff16815260200190815260200160002054905090565b6000806103e86103e584610ba49190611e94565b610bae9190611f82565b905080600254610bbe91906120cd565b81600154610bcc9190611e94565b610bd69190611f82565b915060008211610c1b576040517f08c379a0000000000000000000000000000000000000000000000000000000008152600401610c12906121b9565b60405180910390fd5b60006107d0600254610c2d9190611e94565b600354600386610c3d9190611e94565b610c479190611e94565b610c519190611f82565b9050610c7d60008054906101000a900473ffffffffffffffffffffffffffffffffffffffff1682611818565b7f000000000000000000000000000000000000000000000000000000000000000073ffffffffffffffffffffffffffffffffffffffff166323b872dd3330876040518463ffffffff1660e01b8152600401610cda93929190611dc9565b6020604051808303816000875af1158015610cf9573d6000803e3d6000fd5b505050506040513d601f19601f82011682018060405250810190610d1d9190611e38565b503373ffffffffffffffffffffffffffffffffffffffff166108fc849081150290604051600060405180830381858888f19350505050158015610d64573d6000803e3d6000fd5b50610e08477f000000000000000000000000000000000000000000000000000000000000000073ffffffffffffffffffffffffffffffffffffffff166370a08231306040518263ffffffff1660e01b8152600401610dc29190611d34565b602060405180830381865afa158015610ddf573d6000803e3d6000fd5b505050506040513d601f19601f82011682018060405250810190610e039190612034565b61188b565b5050919050565b60046020528060005260406000206000915090505481565b600080610e7383600460008673ffffffffffffffffffffffffffffffffffffffff1673ffffffffffffffffffffffffffffffffffffffff1681526020019081526020016000205461189d565b91509150915091565b6000813414610ec0576040517f08c379a0000000000000000000000000000000000000000000000000000000008152600401610eb79061214d565b60405180910390fd5b60006103e86103e584610ed39190611e94565b610edd9190611f82565b905080600154610eed91906120cd565b81600254610efb9190611e94565b610f059190611f82565b915060006107d0600154610f199190611e94565b600354600386610f299190611e94565b610f339190611e94565b610f3d9190611f82565b9050610f6960008054906101000a900473ffffffffffffffffffffffffffffffffffffffff1682611818565b7f000000000000000000000000000000000000000000000000000000000000000073ffffffffffffffffffffffffffffffffffffffff1663a9059cbb33856040518363ffffffff1660e01b8152600401610fc4929190612279565b6020604051808303816000875af1158015610fe3573d6000803e3d6000fd5b505050506040513d601f19601f820116820180604052508101906110079190611e38565b506110ab477f000000000000000000000000000000000000000000000000000000000000000073ffffffffffffffffffffffffffffffffffffffff166370a08231306040518263ffffffff1660e01b81526004016110659190611d34565b602060405180830381865afa158015611082573d6000803e3d6000fd5b505050506040513d601f19601f820116820180604052508101906110a69190612034565b61188b565b5050919050565b600080600460003373ffffffffffffffffffffffffffffffffffffffff1673ffffffffffffffffffffffffffffffffffffffff16815260200190815260200160002054831115611137576040517f08c379a000000000000000000000000000000000000000000000000000000000815260040161112e906122ee565b60405180910390fd5b611141338461189d565b91509150915091565b600080600460008573ffffffffffffffffffffffffffffffffffffffff1673ffffffffffffffffffffffffffffffffffffffff168152602001908152602001600020548311156111cf576040517f08c379a00000000000000000000000000000000000000000000000000000000081526004016111c6906122ee565b60405180910390fd5b6111d9848461189d565b915091509250929050565b6000806001541180156111f957506000600254115b611238576040517f08c379a000000000000000000000000000000000000000000000000000000000815260040161122f9061235a565b60405180910390fd5b600154670de0b6b3a76400006002546112519190611e94565b61125b9190611f82565b905090565b600081565b6000806103e86103e5866112799190611e94565b6112839190611f82565b90508060025461129391906120cd565b816001546112a19190611e94565b6112ab9190611f82565b9150600082116112f0576040517f08c379a00000000000000000000000000000000000000000000000000000000081526004016112e7906121b9565b60405180910390fd5b6103e8836103e861130191906121d9565b8561130c9190611e94565b6113169190611f82565b821015611358576040517f08c379a000000000000000000000000000000000000000000000000000000000815260040161134f90612259565b60405180910390fd5b60006107d060025461136a9190611e94565b60035460038861137a9190611e94565b6113849190611e94565b61138e9190611f82565b90506113ba60008054906101000a900473ffffffffffffffffffffffffffffffffffffffff1682611818565b7f000000000000000000000000000000000000000000000000000000000000000073ffffffffffffffffffffffffffffffffffffffff166323b872dd3330896040518463ffffffff1660e01b815260040161141793929190611dc9565b6020604051808303816000875af1158015611436573d6000803e3d6000fd5b505050506040513d601f19601f8201168201806040525081019061145a9190611e38565b503373ffffffffffffffffffffffffffffffffffffffff166108fc849081150290604051600060405180830381858888f193505050501580156114a1573d6000803e3d6000fd5b50611545477f000000000000000000000000000000000000000000000000000000000000000073ffffffffffffffffffffffffffffffffffffffff166370a08231306040518263ffffffff1660e01b81526004016114ff9190611d34565b602060405180830381865afa15801561151c573d6000803e3d6000fd5b505050506040513d601f19601f820116820180604052508101906115409190612034565b61188b565b50509392505050565b60008060015411801561156357506000600254115b801561156f5750600082115b6115ae576040517f08c379a00000000000000000000000000000000000000000000000000000000081526004016115a59061235a565b60405180910390fd5b60006103e86103e5846115c19190611e94565b6115cb9190611f82565b9050806002546115db91906120cd565b816001546115e99190611e94565b6115f39190611f82565b915050919050565b60025481565b6000600460008373ffffffffffffffffffffffffffffffffffffffff1673ffffffffffffffffffffffffffffffffffffffff168152602001908152602001600020549050919050565b7f000000000000000000000000000000000000000000000000000000000000000081565b60008060015411801561168357506000600254115b6116c2576040517f08c379a00000000000000000000000000000000000000000000000000000000081526004016116b9906120ad565b60405180910390fd5b60007f000000000000000000000000000000000000000000000000000000000000000073ffffffffffffffffffffffffffffffffffffffff1663313ce5676040518163ffffffff1660e01b8152600401602060405180830381865afa15801561172f573d6000803e3d6000fd5b505050506040513d601f19601f8201168201806040525081019061175391906123b3565b60ff16905060025481600a6117689190612513565b6001546117759190611e94565b61177f9190611f82565b91505090565b600060038211156117ec57819050600060016002846117a49190611f82565b6117ae91906120cd565b90505b818110156117e65780915060028182856117cb9190611f82565b6117d591906120cd565b6117df9190611f82565b90506117b1565b506117fa565b600082146117f957600190505b5b919050565b600081831061180e5781611810565b825b905092915050565b80600460008473ffffffffffffffffffffffffffffffffffffffff1673ffffffffffffffffffffffffffffffffffffffff168152602001908152602001600020600082825461186791906120cd565b92505081905550806003600082825461188091906120cd565b925050819055505050565b81600181905550806002819055505050565b600080600354600154846118b19190611e94565b6118bb9190611f82565b9150600354600254846118ce9190611e94565b6118d89190611f82565b90506000821180156118ea5750600081115b611929576040517f08c379a0000000000000000000000000000000000000000000000000000000008152600401611920906125aa565b60405180910390fd5b6119338484611ad9565b6119ec824761194291906121d9565b827f000000000000000000000000000000000000000000000000000000000000000073ffffffffffffffffffffffffffffffffffffffff166370a08231306040518263ffffffff1660e01b815260040161199c9190611d34565b602060405180830381865afa1580156119b9573d6000803e3d6000fd5b505050506040513d601f19601f820116820180604052508101906119dd9190612034565b6119e791906121d9565b61188b565b8373ffffffffffffffffffffffffffffffffffffffff166108fc839081150290604051600060405180830381858888f19350505050158015611a32573d6000803e3d6000fd5b507f000000000000000000000000000000000000000000000000000000000000000073ffffffffffffffffffffffffffffffffffffffff1663a9059cbb85836040518363ffffffff1660e01b8152600401611a8e929190612279565b6020604051808303816000875af1158015611aad573d6000803e3d6000fd5b505050506040513d601f19601f82011682018060405250810190611ad19190611e38565b509250929050565b80600460008473ffffffffffffffffffffffffffffffffffffffff1673ffffffffffffffffffffffffffffffffffffffff1681526020019081526020016000206000828254611b2891906121d9565b925050819055508060036000828254611b4191906121d9565b925050819055505050565b6000819050919050565b611b5f81611b4c565b82525050565b6000602082019050611b7a6000830184611b56565b92915050565b600080fd5b611b8e81611b4c565b8114611b9957600080fd5b50565b600081359050611bab81611b85565b92915050565b600060208284031215611bc757611bc6611b80565b5b6000611bd584828501611b9c565b91505092915050565b600080600060608486031215611bf757611bf6611b80565b5b6000611c0586828701611b9c565b9350506020611c1686828701611b9c565b9250506040611c2786828701611b9c565b9150509250925092565b600073ffffffffffffffffffffffffffffffffffffffff82169050919050565b6000611c5c82611c31565b9050919050565b611c6c81611c51565b8114611c7757600080fd5b50565b600081359050611c8981611c63565b92915050565b600060208284031215611ca557611ca4611b80565b5b6000611cb384828501611c7a565b91505092915050565b6000604082019050611cd16000830185611b56565b611cde6020830184611b56565b9392505050565b60008060408385031215611cfc57611cfb611b80565b5b6000611d0a85828601611c7a565b9250506020611d1b85828601611b9c565b9150509250929050565b611d2e81611c51565b82525050565b6000602082019050611d496000830184611d25565b92915050565b6000819050919050565b6000611d74611d6f611d6a84611c31565b611d4f565b611c31565b9050919050565b6000611d8682611d59565b9050919050565b6000611d9882611d7b565b9050919050565b611da881611d8d565b82525050565b6000602082019050611dc36000830184611d9f565b92915050565b6000606082019050611dde6000830186611d25565b611deb6020830185611d25565b611df86040830184611b56565b949350505050565b60008115159050919050565b611e1581611e00565b8114611e2057600080fd5b50565b600081519050611e3281611e0c565b92915050565b600060208284031215611e4e57611e4d611b80565b5b6000611e5c84828501611e23565b91505092915050565b7f4e487b7100000000000000000000000000000000000000000000000000000000600052601160045260246000fd5b6000611e9f82611b4c565b9150611eaa83611b4c565b9250828202611eb881611b4c565b91508282048414831517611ecf57611ece611e65565b5b5092915050565b600082825260208201905092915050565b7f78202f207920213d206478202f20647900000000000000000000000000000000600082015250565b6000611f1d601083611ed6565b9150611f2882611ee7565b602082019050919050565b60006020820190508181036000830152611f4c81611f10565b9050919050565b7f4e487b7100000000000000000000000000000000000000000000000000000000600052601260045260246000fd5b6000611f8d82611b4c565b9150611f9883611b4c565b925082611fa857611fa7611f53565b5b828204905092915050565b7f736861726573203d203000000000000000000000000000000000000000000000600082015250565b6000611fe9600a83611ed6565b9150611ff482611fb3565b602082019050919050565b6000602082019050818103600083015261201881611fdc565b9050919050565b60008151905061202e81611b85565b92915050565b60006020828403121561204a57612049611b80565b5b60006120588482850161201f565b91505092915050565b7f496e76616c696420455243323020726573657276657300000000000000000000600082015250565b6000612097601683611ed6565b91506120a282612061565b602082019050919050565b600060208201905081810360008301526120c68161208a565b9050919050565b60006120d882611b4c565b91506120e383611b4c565b92508282019050808211156120fb576120fa611e65565b5b92915050565b7f45544820616d6f756e74206d69736d6174636800000000000000000000000000600082015250565b6000612137601383611ed6565b915061214282612101565b602082019050919050565b600060208201905081810360008301526121668161212a565b9050919050565b7f496e73756666696369656e74206f757470757420616d6f756e74000000000000600082015250565b60006121a3601a83611ed6565b91506121ae8261216d565b602082019050919050565b600060208201905081810360008301526121d281612196565b9050919050565b60006121e482611b4c565b91506121ef83611b4c565b925082820390508181111561220757612206611e65565b5b92915050565b7f536c69704c6f636b000000000000000000000000000000000000000000000000600082015250565b6000612243600883611ed6565b915061224e8261220d565b602082019050919050565b6000602082019050818103600083015261227281612236565b9050919050565b600060408201905061228e6000830185611d25565b61229b6020830184611b56565b9392505050565b7f496e73756666696369656e742062616c616e6365000000000000000000000000600082015250565b60006122d8601483611ed6565b91506122e3826122a2565b602082019050919050565b60006020820190508181036000830152612307816122cb565b9050919050565b7f496e76616c696420455448207265736572766573000000000000000000000000600082015250565b6000612344601483611ed6565b915061234f8261230e565b602082019050919050565b6000602082019050818103600083015261237381612337565b9050919050565b600060ff82169050919050565b6123908161237a565b811461239b57600080fd5b50565b6000815190506123ad81612387565b92915050565b6000602082840312156123c9576123c8611b80565b5b60006123d78482850161239e565b91505092915050565b60008160011c9050919050565b6000808291508390505b60018511156124375780860481111561241357612412611e65565b5b60018516156124225780820291505b8081029050612430856123e0565b94506123f7565b94509492505050565b600082612450576001905061250c565b8161245e576000905061250c565b8160018114612474576002811461247e576124ad565b600191505061250c565b60ff8411156124905761248f611e65565b5b8360020a9150848211156124a7576124a6611e65565b5b5061250c565b5060208310610133831016604e8410600b84101617156124e25782820a9050838111156124dd576124dc611e65565b5b61250c565b6124ef84848460016123ed565b9250905081840481111561250657612505611e65565b5b81810290505b9392505050565b600061251e82611b4c565b915061252983611b4c565b92506125567fffffffffffffffffffffffffffffffffffffffffffffffffffffffffffffffff8484612440565b905092915050565b7f616d6f756e74455448206f7220616d6f756e74455243203d2030000000000000600082015250565b6000612594601a83611ed6565b915061259f8261255e565b602082019050919050565b600060208201905081810360008301526125c381612587565b905091905056fea2646970667358221220cc4aba3704f8080799e44995698b45df3320985c83a1f9e00d654d788da93a9a64736f6c63430008120033",
					"opcodes": "PUSH1 0xA0 PUSH1 0x40 MSTORE CALLVALUE DUP1 ISZERO PUSH3 0x11 JUMPI PUSH1 0x0 DUP1 REVERT JUMPDEST POP PUSH1 0x40 MLOAD PUSH3 0x27C5 CODESIZE SUB DUP1 PUSH3 0x27C5 DUP4 CODECOPY DUP2 DUP2 ADD PUSH1 0x40 MSTORE DUP2 ADD SWAP1 PUSH3 0x37 SWAP2 SWAP1 PUSH3 0x11C JUMP JUMPDEST CALLER PUSH1 0x0 DUP1 PUSH2 0x100 EXP DUP2 SLOAD DUP2 PUSH20 0xFFFFFFFFFFFFFFFFFFFFFFFFFFFFFFFFFFFFFFFF MUL NOT AND SWAP1 DUP4 PUSH20 0xFFFFFFFFFFFFFFFFFFFFFFFFFFFFFFFFFFFFFFFF AND MUL OR SWAP1 SSTORE POP DUP1 PUSH20 0xFFFFFFFFFFFFFFFFFFFFFFFFFFFFFFFFFFFFFFFF AND PUSH1 0x80 DUP2 PUSH20 0xFFFFFFFFFFFFFFFFFFFFFFFFFFFFFFFFFFFFFFFF AND DUP2 MSTORE POP POP POP PUSH3 0x14E JUMP JUMPDEST PUSH1 0x0 DUP1 REVERT JUMPDEST PUSH1 0x0 PUSH20 0xFFFFFFFFFFFFFFFFFFFFFFFFFFFFFFFFFFFFFFFF DUP3 AND SWAP1 POP SWAP2 SWAP1 POP JUMP JUMPDEST PUSH1 0x0 PUSH3 0xE4 DUP3 PUSH3 0xB7 JUMP JUMPDEST SWAP1 POP SWAP2 SWAP1 POP JUMP JUMPDEST PUSH3 0xF6 DUP2 PUSH3 0xD7 JUMP JUMPDEST DUP2 EQ PUSH3 0x102 JUMPI PUSH1 0x0 DUP1 REVERT JUMPDEST POP JUMP JUMPDEST PUSH1 0x0 DUP2 MLOAD SWAP1 POP PUSH3 0x116 DUP2 PUSH3 0xEB JUMP JUMPDEST SWAP3 SWAP2 POP POP JUMP JUMPDEST PUSH1 0x0 PUSH1 0x20 DUP3 DUP5 SUB SLT ISZERO PUSH3 0x135 JUMPI PUSH3 0x134 PUSH3 0xB2 JUMP JUMPDEST JUMPDEST PUSH1 0x0 PUSH3 0x145 DUP5 DUP3 DUP6 ADD PUSH3 0x105 JUMP JUMPDEST SWAP2 POP POP SWAP3 SWAP2 POP POP JUMP JUMPDEST PUSH1 0x80 MLOAD PUSH2 0x2600 PUSH3 0x1C5 PUSH1 0x0 CODECOPY PUSH1 0x0 DUP2 DUP2 PUSH2 0x544 ADD MSTORE DUP2 DUP2 PUSH2 0x716 ADD MSTORE DUP2 DUP2 PUSH2 0xA00 ADD MSTORE DUP2 DUP2 PUSH2 0xAA3 ADD MSTORE DUP2 DUP2 PUSH2 0xC7F ADD MSTORE DUP2 DUP2 PUSH2 0xD6B ADD MSTORE DUP2 DUP2 PUSH2 0xF6B ADD MSTORE DUP2 DUP2 PUSH2 0x100E ADD MSTORE DUP2 DUP2 PUSH2 0x13BC ADD MSTORE DUP2 DUP2 PUSH2 0x14A8 ADD MSTORE DUP2 DUP2 PUSH2 0x164C ADD MSTORE DUP2 DUP2 PUSH2 0x16C6 ADD MSTORE DUP2 DUP2 PUSH2 0x1945 ADD MSTORE PUSH2 0x1A35 ADD MSTORE PUSH2 0x2600 PUSH1 0x0 RETURN INVALID PUSH1 0x80 PUSH1 0x40 MSTORE PUSH1 0x4 CALLDATASIZE LT PUSH2 0x11F JUMPI PUSH1 0x0 CALLDATALOAD PUSH1 0xE0 SHR DUP1 PUSH4 0x9C8F9F23 GT PUSH2 0xA0 JUMPI DUP1 PUSH4 0xDCCC5FEA GT PUSH2 0x64 JUMPI DUP1 PUSH4 0xDCCC5FEA EQ PUSH2 0x439 JUMPI DUP1 PUSH4 0xE764E67C EQ PUSH2 0x476 JUMPI DUP1 PUSH4 0xF5EB42DC EQ PUSH2 0x4A1 JUMPI DUP1 PUSH4 0xFC0C546A EQ PUSH2 0x4DE JUMPI DUP1 PUSH4 0xFCC2BA08 EQ PUSH2 0x509 JUMPI PUSH2 0x11F JUMP JUMPDEST DUP1 PUSH4 0x9C8F9F23 EQ PUSH2 0x32A JUMPI DUP1 PUSH4 0xA201CCF6 EQ PUSH2 0x368 JUMPI DUP1 PUSH4 0xA607A8D9 EQ PUSH2 0x3A6 JUMPI DUP1 PUSH4 0xA734F06E EQ PUSH2 0x3D1 JUMPI DUP1 PUSH4 0xDC2D845B EQ PUSH2 0x3FC JUMPI PUSH2 0x11F JUMP JUMPDEST DUP1 PUSH4 0x6CAE4F84 GT PUSH2 0xE7 JUMPI DUP1 PUSH4 0x6CAE4F84 EQ PUSH2 0x217 JUMPI DUP1 PUSH4 0x6FB84B74 EQ PUSH2 0x242 JUMPI DUP1 PUSH4 0x70A08231 EQ PUSH2 0x27F JUMPI DUP1 PUSH4 0x7A6A5E1B EQ PUSH2 0x2BC JUMPI DUP1 PUSH4 0x94B918DE EQ PUSH2 0x2FA JUMPI PUSH2 0x11F JUMP JUMPDEST DUP1 PUSH4 0x100AF203 EQ PUSH2 0x124 JUMPI DUP1 PUSH4 0x18160DDD EQ PUSH2 0x14F JUMPI DUP1 PUSH4 0x51C6590A EQ PUSH2 0x17A JUMPI DUP1 PUSH4 0x56C1D7EB EQ PUSH2 0x1AA JUMPI DUP1 PUSH4 0x62279B65 EQ PUSH2 0x1E7 JUMPI JUMPDEST PUSH1 0x0 DUP1 REVERT JUMPDEST CALLVALUE DUP1 ISZERO PUSH2 0x130 JUMPI PUSH1 0x0 DUP1 REVERT JUMPDEST POP PUSH2 0x139 PUSH2 0x534 JUMP JUMPDEST PUSH1 0x40 MLOAD PUSH2 0x146 SWAP2 SWAP1 PUSH2 0x1B65 JUMP JUMPDEST PUSH1 0x40 MLOAD DUP1 SWAP2 SUB SWAP1 RETURN JUMPDEST CALLVALUE DUP1 ISZERO PUSH2 0x15B JUMPI PUSH1 0x0 DUP1 REVERT JUMPDEST POP PUSH2 0x164 PUSH2 0x53A JUMP JUMPDEST PUSH1 0x40 MLOAD PUSH2 0x171 SWAP2 SWAP1 PUSH2 0x1B65 JUMP JUMPDEST PUSH1 0x40 MLOAD DUP1 SWAP2 SUB SWAP1 RETURN JUMPDEST PUSH2 0x194 PUSH1 0x4 DUP1 CALLDATASIZE SUB DUP2 ADD SWAP1 PUSH2 0x18F SWAP2 SWAP1 PUSH2 0x1BB1 JUMP JUMPDEST PUSH2 0x540 JUMP JUMPDEST PUSH1 0x40 MLOAD PUSH2 0x1A1 SWAP2 SWAP1 PUSH2 0x1B65 JUMP JUMPDEST PUSH1 0x40 MLOAD DUP1 SWAP2 SUB SWAP1 RETURN JUMPDEST CALLVALUE DUP1 ISZERO PUSH2 0x1B6 JUMPI PUSH1 0x0 DUP1 REVERT JUMPDEST POP PUSH2 0x1D1 PUSH1 0x4 DUP1 CALLDATASIZE SUB DUP2 ADD SWAP1 PUSH2 0x1CC SWAP2 SWAP1 PUSH2 0x1BB1 JUMP JUMPDEST PUSH2 0x7B9 JUMP JUMPDEST PUSH1 0x40 MLOAD PUSH2 0x1DE SWAP2 SWAP1 PUSH2 0x1B65 JUMP JUMPDEST PUSH1 0x40 MLOAD DUP1 SWAP2 SUB SWAP1 RETURN JUMPDEST PUSH2 0x201 PUSH1 0x4 DUP1 CALLDATASIZE SUB DUP2 ADD SWAP1 PUSH2 0x1FC SWAP2 SWAP1 PUSH2 0x1BDE JUMP JUMPDEST PUSH2 0x866 JUMP JUMPDEST PUSH1 0x40 MLOAD PUSH2 0x20E SWAP2 SWAP1 PUSH2 0x1B65 JUMP JUMPDEST PUSH1 0x40 MLOAD DUP1 SWAP2 SUB SWAP1 RETURN JUMPDEST CALLVALUE DUP1 ISZERO PUSH2 0x223 JUMPI PUSH1 0x0 DUP1 REVERT JUMPDEST POP PUSH2 0x22C PUSH2 0xB49 JUMP JUMPDEST PUSH1 0x40 MLOAD PUSH2 0x239 SWAP2 SWAP1 PUSH2 0x1B65 JUMP JUMPDEST PUSH1 0x40 MLOAD DUP1 SWAP2 SUB SWAP1 RETURN JUMPDEST CALLVALUE DUP1 ISZERO PUSH2 0x24E JUMPI PUSH1 0x0 DUP1 REVERT JUMPDEST POP PUSH2 0x269 PUSH1 0x4 DUP1 CALLDATASIZE SUB DUP2 ADD SWAP1 PUSH2 0x264 SWAP2 SWAP1 PUSH2 0x1BB1 JUMP JUMPDEST PUSH2 0xB90 JUMP JUMPDEST PUSH1 0x40 MLOAD PUSH2 0x276 SWAP2 SWAP1 PUSH2 0x1B65 JUMP JUMPDEST PUSH1 0x40 MLOAD DUP1 SWAP2 SUB SWAP1 RETURN JUMPDEST CALLVALUE DUP1 ISZERO PUSH2 0x28B JUMPI PUSH1 0x0 DUP1 REVERT JUMPDEST POP PUSH2 0x2A6 PUSH1 0x4 DUP1 CALLDATASIZE SUB DUP2 ADD SWAP1 PUSH2 0x2A1 SWAP2 SWAP1 PUSH2 0x1C8F JUMP JUMPDEST PUSH2 0xE0F JUMP JUMPDEST PUSH1 0x40 MLOAD PUSH2 0x2B3 SWAP2 SWAP1 PUSH2 0x1B65 JUMP JUMPDEST PUSH1 0x40 MLOAD DUP1 SWAP2 SUB SWAP1 RETURN JUMPDEST CALLVALUE DUP1 ISZERO PUSH2 0x2C8 JUMPI PUSH1 0x0 DUP1 REVERT JUMPDEST POP PUSH2 0x2E3 PUSH1 0x4 DUP1 CALLDATASIZE SUB DUP2 ADD SWAP1 PUSH2 0x2DE SWAP2 SWAP1 PUSH2 0x1C8F JUMP JUMPDEST PUSH2 0xE27 JUMP JUMPDEST PUSH1 0x40 MLOAD PUSH2 0x2F1 SWAP3 SWAP2 SWAP1 PUSH2 0x1CBC JUMP JUMPDEST PUSH1 0x40 MLOAD DUP1 SWAP2 SUB SWAP1 RETURN JUMPDEST PUSH2 0x314 PUSH1 0x4 DUP1 CALLDATASIZE SUB DUP2 ADD SWAP1 PUSH2 0x30F SWAP2 SWAP1 PUSH2 0x1BB1 JUMP JUMPDEST PUSH2 0xE7C JUMP JUMPDEST PUSH1 0x40 MLOAD PUSH2 0x321 SWAP2 SWAP1 PUSH2 0x1B65 JUMP JUMPDEST PUSH1 0x40 MLOAD DUP1 SWAP2 SUB SWAP1 RETURN JUMPDEST CALLVALUE DUP1 ISZERO PUSH2 0x336 JUMPI PUSH1 0x0 DUP1 REVERT JUMPDEST POP PUSH2 0x351 PUSH1 0x4 DUP1 CALLDATASIZE SUB DUP2 ADD SWAP1 PUSH2 0x34C SWAP2 SWAP1 PUSH2 0x1BB1 JUMP JUMPDEST PUSH2 0x10B2 JUMP JUMPDEST PUSH1 0x40 MLOAD PUSH2 0x35F SWAP3 SWAP2 SWAP1 PUSH2 0x1CBC JUMP JUMPDEST PUSH1 0x40 MLOAD DUP1 SWAP2 SUB SWAP1 RETURN JUMPDEST CALLVALUE DUP1 ISZERO PUSH2 0x374 JUMPI PUSH1 0x0 DUP1 REVERT JUMPDEST POP PUSH2 0x38F PUSH1 0x4 DUP1 CALLDATASIZE SUB DUP2 ADD SWAP1 PUSH2 0x38A SWAP2 SWAP1 PUSH2 0x1CE5 JUMP JUMPDEST PUSH2 0x114A JUMP JUMPDEST PUSH1 0x40 MLOAD PUSH2 0x39D SWAP3 SWAP2 SWAP1 PUSH2 0x1CBC JUMP JUMPDEST PUSH1 0x40 MLOAD DUP1 SWAP2 SUB SWAP1 RETURN JUMPDEST CALLVALUE DUP1 ISZERO PUSH2 0x3B2 JUMPI PUSH1 0x0 DUP1 REVERT JUMPDEST POP PUSH2 0x3BB PUSH2 0x11E4 JUMP JUMPDEST PUSH1 0x40 MLOAD PUSH2 0x3C8 SWAP2 SWAP1 PUSH2 0x1B65 JUMP JUMPDEST PUSH1 0x40 MLOAD DUP1 SWAP2 SUB SWAP1 RETURN JUMPDEST CALLVALUE DUP1 ISZERO PUSH2 0x3DD JUMPI PUSH1 0x0 DUP1 REVERT JUMPDEST POP PUSH2 0x3E6 PUSH2 0x1260 JUMP JUMPDEST PUSH1 0x40 MLOAD PUSH2 0x3F3 SWAP2 SWAP1 PUSH2 0x1D34 JUMP JUMPDEST PUSH1 0x40 MLOAD DUP1 SWAP2 SUB SWAP1 RETURN JUMPDEST CALLVALUE DUP1 ISZERO PUSH2 0x408 JUMPI PUSH1 0x0 DUP1 REVERT JUMPDEST POP PUSH2 0x423 PUSH1 0x4 DUP1 CALLDATASIZE SUB DUP2 ADD SWAP1 PUSH2 0x41E SWAP2 SWAP1 PUSH2 0x1BDE JUMP JUMPDEST PUSH2 0x1265 JUMP JUMPDEST PUSH1 0x40 MLOAD PUSH2 0x430 SWAP2 SWAP1 PUSH2 0x1B65 JUMP JUMPDEST PUSH1 0x40 MLOAD DUP1 SWAP2 SUB SWAP1 RETURN JUMPDEST CALLVALUE DUP1 ISZERO PUSH2 0x445 JUMPI PUSH1 0x0 DUP1 REVERT JUMPDEST POP PUSH2 0x460 PUSH1 0x4 DUP1 CALLDATASIZE SUB DUP2 ADD SWAP1 PUSH2 0x45B SWAP2 SWAP1 PUSH2 0x1BB1 JUMP JUMPDEST PUSH2 0x154E JUMP JUMPDEST PUSH1 0x40 MLOAD PUSH2 0x46D SWAP2 SWAP1 PUSH2 0x1B65 JUMP JUMPDEST PUSH1 0x40 MLOAD DUP1 SWAP2 SUB SWAP1 RETURN JUMPDEST CALLVALUE DUP1 ISZERO PUSH2 0x482 JUMPI PUSH1 0x0 DUP1 REVERT JUMPDEST POP PUSH2 0x48B PUSH2 0x15FB JUMP JUMPDEST PUSH1 0x40 MLOAD PUSH2 0x498 SWAP2 SWAP1 PUSH2 0x1B65 JUMP JUMPDEST PUSH1 0x40 MLOAD DUP1 SWAP2 SUB SWAP1 RETURN JUMPDEST CALLVALUE DUP1 ISZERO PUSH2 0x4AD JUMPI PUSH1 0x0 DUP1 REVERT JUMPDEST POP PUSH2 0x4C8 PUSH1 0x4 DUP1 CALLDATASIZE SUB DUP2 ADD SWAP1 PUSH2 0x4C3 SWAP2 SWAP1 PUSH2 0x1C8F JUMP JUMPDEST PUSH2 0x1601 JUMP JUMPDEST PUSH1 0x40 MLOAD PUSH2 0x4D5 SWAP2 SWAP1 PUSH2 0x1B65 JUMP JUMPDEST PUSH1 0x40 MLOAD DUP1 SWAP2 SUB SWAP1 RETURN JUMPDEST CALLVALUE DUP1 ISZERO PUSH2 0x4EA JUMPI PUSH1 0x0 DUP1 REVERT JUMPDEST POP PUSH2 0x4F3 PUSH2 0x164A JUMP JUMPDEST PUSH1 0x40 MLOAD PUSH2 0x500 SWAP2 SWAP1 PUSH2 0x1DAE JUMP JUMPDEST PUSH1 0x40 MLOAD DUP1 SWAP2 SUB SWAP1 RETURN JUMPDEST CALLVALUE DUP1 ISZERO PUSH2 0x515 JUMPI PUSH1 0x0 DUP1 REVERT JUMPDEST POP PUSH2 0x51E PUSH2 0x166E JUMP JUMPDEST PUSH1 0x40 MLOAD PUSH2 0x52B SWAP2 SWAP1 PUSH2 0x1B65 JUMP JUMPDEST PUSH1 0x40 MLOAD DUP1 SWAP2 SUB SWAP1 RETURN JUMPDEST PUSH1 0x1 SLOAD DUP2 JUMP JUMPDEST PUSH1 0x3 SLOAD DUP2 JUMP JUMPDEST PUSH1 0x0 PUSH32 0x0 PUSH20 0xFFFFFFFFFFFFFFFFFFFFFFFFFFFFFFFFFFFFFFFF AND PUSH4 0x23B872DD CALLER ADDRESS DUP6 PUSH1 0x40 MLOAD DUP5 PUSH4 0xFFFFFFFF AND PUSH1 0xE0 SHL DUP2 MSTORE PUSH1 0x4 ADD PUSH2 0x59F SWAP4 SWAP3 SWAP2 SWAP1 PUSH2 0x1DC9 JUMP JUMPDEST PUSH1 0x20 PUSH1 0x40 MLOAD DUP1 DUP4 SUB DUP2 PUSH1 0x0 DUP8 GAS CALL ISZERO DUP1 ISZERO PUSH2 0x5BE JUMPI RETURNDATASIZE PUSH1 0x0 DUP1 RETURNDATACOPY RETURNDATASIZE PUSH1 0x0 REVERT JUMPDEST POP POP POP POP PUSH1 0x40 MLOAD RETURNDATASIZE PUSH1 0x1F NOT PUSH1 0x1F DUP3 ADD AND DUP3 ADD DUP1 PUSH1 0x40 MSTORE POP DUP2 ADD SWAP1 PUSH2 0x5E2 SWAP2 SWAP1 PUSH2 0x1E38 JUMP JUMPDEST POP PUSH1 0x0 CALLVALUE SWAP1 POP PUSH1 0x0 PUSH1 0x1 SLOAD GT DUP1 PUSH2 0x5FB JUMPI POP PUSH1 0x0 PUSH1 0x2 SLOAD GT JUMPDEST ISZERO PUSH2 0x65D JUMPI DUP1 PUSH1 0x2 SLOAD PUSH2 0x60E SWAP2 SWAP1 PUSH2 0x1E94 JUMP JUMPDEST DUP4 PUSH1 0x1 SLOAD PUSH2 0x61C SWAP2 SWAP1 PUSH2 0x1E94 JUMP JUMPDEST EQ PUSH2 0x65C JUMPI PUSH1 0x40 MLOAD PUSH32 0x8C379A000000000000000000000000000000000000000000000000000000000 DUP2 MSTORE PUSH1 0x4 ADD PUSH2 0x653 SWAP1 PUSH2 0x1F33 JUMP JUMPDEST PUSH1 0x40 MLOAD DUP1 SWAP2 SUB SWAP1 REVERT JUMPDEST JUMPDEST PUSH1 0x0 PUSH1 0x3 SLOAD SUB PUSH2 0x682 JUMPI PUSH2 0x67B DUP4 DUP3 PUSH2 0x676 SWAP2 SWAP1 PUSH2 0x1E94 JUMP JUMPDEST PUSH2 0x1785 JUMP JUMPDEST SWAP2 POP PUSH2 0x6C3 JUMP JUMPDEST PUSH2 0x6C0 PUSH1 0x1 SLOAD PUSH1 0x3 SLOAD DUP4 PUSH2 0x696 SWAP2 SWAP1 PUSH2 0x1E94 JUMP JUMPDEST PUSH2 0x6A0 SWAP2 SWAP1 PUSH2 0x1F82 JUMP JUMPDEST PUSH1 0x2 SLOAD PUSH1 0x3 SLOAD DUP7 PUSH2 0x6B1 SWAP2 SWAP1 PUSH2 0x1E94 JUMP JUMPDEST PUSH2 0x6BB SWAP2 SWAP1 PUSH2 0x1F82 JUMP JUMPDEST PUSH2 0x17FF JUMP JUMPDEST SWAP2 POP JUMPDEST PUSH1 0x0 DUP3 GT PUSH2 0x706 JUMPI PUSH1 0x40 MLOAD PUSH32 0x8C379A000000000000000000000000000000000000000000000000000000000 DUP2 MSTORE PUSH1 0x4 ADD PUSH2 0x6FD SWAP1 PUSH2 0x1FFF JUMP JUMPDEST PUSH1 0x40 MLOAD DUP1 SWAP2 SUB SWAP1 REVERT JUMPDEST PUSH2 0x710 CALLER DUP4 PUSH2 0x1818 JUMP JUMPDEST PUSH2 0x7B3 SELFBALANCE PUSH32 0x0 PUSH20 0xFFFFFFFFFFFFFFFFFFFFFFFFFFFFFFFFFFFFFFFF AND PUSH4 0x70A08231 ADDRESS PUSH1 0x40 MLOAD DUP3 PUSH4 0xFFFFFFFF AND PUSH1 0xE0 SHL DUP2 MSTORE PUSH1 0x4 ADD PUSH2 0x76D SWAP2 SWAP1 PUSH2 0x1D34 JUMP JUMPDEST PUSH1 0x20 PUSH1 0x40 MLOAD DUP1 DUP4 SUB DUP2 DUP7 GAS STATICCALL ISZERO DUP1 ISZERO PUSH2 0x78A JUMPI RETURNDATASIZE PUSH1 0x0 DUP1 RETURNDATACOPY RETURNDATASIZE PUSH1 0x0 REVERT JUMPDEST POP POP POP POP PUSH1 0x40 MLOAD RETURNDATASIZE PUSH1 0x1F NOT PUSH1 0x1F DUP3 ADD AND DUP3 ADD DUP1 PUSH1 0x40 MSTORE POP DUP2 ADD SWAP1 PUSH2 0x7AE SWAP2 SWAP1 PUSH2 0x2034 JUMP JUMPDEST PUSH2 0x188B JUMP JUMPDEST POP SWAP2 SWAP1 POP JUMP JUMPDEST PUSH1 0x0 DUP1 PUSH1 0x1 SLOAD GT DUP1 ISZERO PUSH2 0x7CE JUMPI POP PUSH1 0x0 PUSH1 0x2 SLOAD GT JUMPDEST DUP1 ISZERO PUSH2 0x7DA JUMPI POP PUSH1 0x0 DUP3 GT JUMPDEST PUSH2 0x819 JUMPI PUSH1 0x40 MLOAD PUSH32 0x8C379A000000000000000000000000000000000000000000000000000000000 DUP2 MSTORE PUSH1 0x4 ADD PUSH2 0x810 SWAP1 PUSH2 0x20AD JUMP JUMPDEST PUSH1 0x40 MLOAD DUP1 SWAP2 SUB SWAP1 REVERT JUMPDEST PUSH1 0x0 PUSH2 0x3E8 PUSH2 0x3E5 DUP5 PUSH2 0x82C SWAP2 SWAP1 PUSH2 0x1E94 JUMP JUMPDEST PUSH2 0x836 SWAP2 SWAP1 PUSH2 0x1F82 JUMP JUMPDEST SWAP1 POP DUP1 PUSH1 0x1 SLOAD PUSH2 0x846 SWAP2 SWAP1 PUSH2 0x20CD JUMP JUMPDEST DUP2 PUSH1 0x2 SLOAD PUSH2 0x854 SWAP2 SWAP1 PUSH2 0x1E94 JUMP JUMPDEST PUSH2 0x85E SWAP2 SWAP1 PUSH2 0x1F82 JUMP JUMPDEST SWAP2 POP POP SWAP2 SWAP1 POP JUMP JUMPDEST PUSH1 0x0 DUP4 CALLVALUE EQ PUSH2 0x8AA JUMPI PUSH1 0x40 MLOAD PUSH32 0x8C379A000000000000000000000000000000000000000000000000000000000 DUP2 MSTORE PUSH1 0x4 ADD PUSH2 0x8A1 SWAP1 PUSH2 0x214D JUMP JUMPDEST PUSH1 0x40 MLOAD DUP1 SWAP2 SUB SWAP1 REVERT JUMPDEST PUSH1 0x0 PUSH2 0x3E8 PUSH2 0x3E5 DUP7 PUSH2 0x8BD SWAP2 SWAP1 PUSH2 0x1E94 JUMP JUMPDEST PUSH2 0x8C7 SWAP2 SWAP1 PUSH2 0x1F82 JUMP JUMPDEST SWAP1 POP DUP1 PUSH1 0x1 SLOAD PUSH2 0x8D7 SWAP2 SWAP1 PUSH2 0x20CD JUMP JUMPDEST DUP2 PUSH1 0x2 SLOAD PUSH2 0x8E5 SWAP2 SWAP1 PUSH2 0x1E94 JUMP JUMPDEST PUSH2 0x8EF SWAP2 SWAP1 PUSH2 0x1F82 JUMP JUMPDEST SWAP2 POP PUSH1 0x0 DUP3 GT PUSH2 0x934 JUMPI PUSH1 0x40 MLOAD PUSH32 0x8C379A000000000000000000000000000000000000000000000000000000000 DUP2 MSTORE PUSH1 0x4 ADD PUSH2 0x92B SWAP1 PUSH2 0x21B9 JUMP JUMPDEST PUSH1 0x40 MLOAD DUP1 SWAP2 SUB SWAP1 REVERT JUMPDEST PUSH2 0x3E8 DUP4 PUSH2 0x3E8 PUSH2 0x945 SWAP2 SWAP1 PUSH2 0x21D9 JUMP JUMPDEST DUP6 PUSH2 0x950 SWAP2 SWAP1 PUSH2 0x1E94 JUMP JUMPDEST PUSH2 0x95A SWAP2 SWAP1 PUSH2 0x1F82 JUMP JUMPDEST DUP3 LT ISZERO PUSH2 0x99C JUMPI PUSH1 0x40 MLOAD PUSH32 0x8C379A000000000000000000000000000000000000000000000000000000000 DUP2 MSTORE PUSH1 0x4 ADD PUSH2 0x993 SWAP1 PUSH2 0x2259 JUMP JUMPDEST PUSH1 0x40 MLOAD DUP1 SWAP2 SUB SWAP1 REVERT JUMPDEST PUSH1 0x0 PUSH2 0x7D0 PUSH1 0x1 SLOAD PUSH2 0x9AE SWAP2 SWAP1 PUSH2 0x1E94 JUMP JUMPDEST PUSH1 0x3 SLOAD PUSH1 0x3 DUP9 PUSH2 0x9BE SWAP2 SWAP1 PUSH2 0x1E94 JUMP JUMPDEST PUSH2 0x9C8 SWAP2 SWAP1 PUSH2 0x1E94 JUMP JUMPDEST PUSH2 0x9D2 SWAP2 SWAP1 PUSH2 0x1F82 JUMP JUMPDEST SWAP1 POP PUSH2 0x9FE PUSH1 0x0 DUP1 SLOAD SWAP1 PUSH2 0x100 EXP SWAP1 DIV PUSH20 0xFFFFFFFFFFFFFFFFFFFFFFFFFFFFFFFFFFFFFFFF AND DUP3 PUSH2 0x1818 JUMP JUMPDEST PUSH32 0x0 PUSH20 0xFFFFFFFFFFFFFFFFFFFFFFFFFFFFFFFFFFFFFFFF AND PUSH4 0xA9059CBB CALLER DUP6 PUSH1 0x40 MLOAD DUP4 PUSH4 0xFFFFFFFF AND PUSH1 0xE0 SHL DUP2 MSTORE PUSH1 0x4 ADD PUSH2 0xA59 SWAP3 SWAP2 SWAP1 PUSH2 0x2279 JUMP JUMPDEST PUSH1 0x20 PUSH1 0x40 MLOAD DUP1 DUP4 SUB DUP2 PUSH1 0x0 DUP8 GAS CALL ISZERO DUP1 ISZERO PUSH2 0xA78 JUMPI RETURNDATASIZE PUSH1 0x0 DUP1 RETURNDATACOPY RETURNDATASIZE PUSH1 0x0 REVERT JUMPDEST POP POP POP POP PUSH1 0x40 MLOAD RETURNDATASIZE PUSH1 0x1F NOT PUSH1 0x1F DUP3 ADD AND DUP3 ADD DUP1 PUSH1 0x40 MSTORE POP DUP2 ADD SWAP1 PUSH2 0xA9C SWAP2 SWAP1 PUSH2 0x1E38 JUMP JUMPDEST POP PUSH2 0xB40 SELFBALANCE PUSH32 0x0 PUSH20 0xFFFFFFFFFFFFFFFFFFFFFFFFFFFFFFFFFFFFFFFF AND PUSH4 0x70A08231 ADDRESS PUSH1 0x40 MLOAD DUP3 PUSH4 0xFFFFFFFF AND PUSH1 0xE0 SHL DUP2 MSTORE PUSH1 0x4 ADD PUSH2 0xAFA SWAP2 SWAP1 PUSH2 0x1D34 JUMP JUMPDEST PUSH1 0x20 PUSH1 0x40 MLOAD DUP1 DUP4 SUB DUP2 DUP7 GAS STATICCALL ISZERO DUP1 ISZERO PUSH2 0xB17 JUMPI RETURNDATASIZE PUSH1 0x0 DUP1 RETURNDATACOPY RETURNDATASIZE PUSH1 0x0 REVERT JUMPDEST POP POP POP POP PUSH1 0x40 MLOAD RETURNDATASIZE PUSH1 0x1F NOT PUSH1 0x1F DUP3 ADD AND DUP3 ADD DUP1 PUSH1 0x40 MSTORE POP DUP2 ADD SWAP1 PUSH2 0xB3B SWAP2 SWAP1 PUSH2 0x2034 JUMP JUMPDEST PUSH2 0x188B JUMP JUMPDEST POP POP SWAP4 SWAP3 POP POP POP JUMP JUMPDEST PUSH1 0x0 PUSH1 0x4 PUSH1 0x0 CALLER PUSH20 0xFFFFFFFFFFFFFFFFFFFFFFFFFFFFFFFFFFFFFFFF AND PUSH20 0xFFFFFFFFFFFFFFFFFFFFFFFFFFFFFFFFFFFFFFFF AND DUP2 MSTORE PUSH1 0x20 ADD SWAP1 DUP2 MSTORE PUSH1 0x20 ADD PUSH1 0x0 KECCAK256 SLOAD SWAP1 POP SWAP1 JUMP JUMPDEST PUSH1 0x0 DUP1 PUSH2 0x3E8 PUSH2 0x3E5 DUP5 PUSH2 0xBA4 SWAP2 SWAP1 PUSH2 0x1E94 JUMP JUMPDEST PUSH2 0xBAE SWAP2 SWAP1 PUSH2 0x1F82 JUMP JUMPDEST SWAP1 POP DUP1 PUSH1 0x2 SLOAD PUSH2 0xBBE SWAP2 SWAP1 PUSH2 0x20CD JUMP JUMPDEST DUP2 PUSH1 0x1 SLOAD PUSH2 0xBCC SWAP2 SWAP1 PUSH2 0x1E94 JUMP JUMPDEST PUSH2 0xBD6 SWAP2 SWAP1 PUSH2 0x1F82 JUMP JUMPDEST SWAP2 POP PUSH1 0x0 DUP3 GT PUSH2 0xC1B JUMPI PUSH1 0x40 MLOAD PUSH32 0x8C379A000000000000000000000000000000000000000000000000000000000 DUP2 MSTORE PUSH1 0x4 ADD PUSH2 0xC12 SWAP1 PUSH2 0x21B9 JUMP JUMPDEST PUSH1 0x40 MLOAD DUP1 SWAP2 SUB SWAP1 REVERT JUMPDEST PUSH1 0x0 PUSH2 0x7D0 PUSH1 0x2 SLOAD PUSH2 0xC2D SWAP2 SWAP1 PUSH2 0x1E94 JUMP JUMPDEST PUSH1 0x3 SLOAD PUSH1 0x3 DUP7 PUSH2 0xC3D SWAP2 SWAP1 PUSH2 0x1E94 JUMP JUMPDEST PUSH2 0xC47 SWAP2 SWAP1 PUSH2 0x1E94 JUMP JUMPDEST PUSH2 0xC51 SWAP2 SWAP1 PUSH2 0x1F82 JUMP JUMPDEST SWAP1 POP PUSH2 0xC7D PUSH1 0x0 DUP1 SLOAD SWAP1 PUSH2 0x100 EXP SWAP1 DIV PUSH20 0xFFFFFFFFFFFFFFFFFFFFFFFFFFFFFFFFFFFFFFFF AND DUP3 PUSH2 0x1818 JUMP JUMPDEST PUSH32 0x0 PUSH20 0xFFFFFFFFFFFFFFFFFFFFFFFFFFFFFFFFFFFFFFFF AND PUSH4 0x23B872DD CALLER ADDRESS DUP8 PUSH1 0x40 MLOAD DUP5 PUSH4 0xFFFFFFFF AND PUSH1 0xE0 SHL DUP2 MSTORE PUSH1 0x4 ADD PUSH2 0xCDA SWAP4 SWAP3 SWAP2 SWAP1 PUSH2 0x1DC9 JUMP JUMPDEST PUSH1 0x20 PUSH1 0x40 MLOAD DUP1 DUP4 SUB DUP2 PUSH1 0x0 DUP8 GAS CALL ISZERO DUP1 ISZERO PUSH2 0xCF9 JUMPI RETURNDATASIZE PUSH1 0x0 DUP1 RETURNDATACOPY RETURNDATASIZE PUSH1 0x0 REVERT JUMPDEST POP POP POP POP PUSH1 0x40 MLOAD RETURNDATASIZE PUSH1 0x1F NOT PUSH1 0x1F DUP3 ADD AND DUP3 ADD DUP1 PUSH1 0x40 MSTORE POP DUP2 ADD SWAP1 PUSH2 0xD1D SWAP2 SWAP1 PUSH2 0x1E38 JUMP JUMPDEST POP CALLER PUSH20 0xFFFFFFFFFFFFFFFFFFFFFFFFFFFFFFFFFFFFFFFF AND PUSH2 0x8FC DUP5 SWAP1 DUP2 ISZERO MUL SWAP1 PUSH1 0x40 MLOAD PUSH1 0x0 PUSH1 0x40 MLOAD DUP1 DUP4 SUB DUP2 DUP6 DUP9 DUP9 CALL SWAP4 POP POP POP POP ISZERO DUP1 ISZERO PUSH2 0xD64 JUMPI RETURNDATASIZE PUSH1 0x0 DUP1 RETURNDATACOPY RETURNDATASIZE PUSH1 0x0 REVERT JUMPDEST POP PUSH2 0xE08 SELFBALANCE PUSH32 0x0 PUSH20 0xFFFFFFFFFFFFFFFFFFFFFFFFFFFFFFFFFFFFFFFF AND PUSH4 0x70A08231 ADDRESS PUSH1 0x40 MLOAD DUP3 PUSH4 0xFFFFFFFF AND PUSH1 0xE0 SHL DUP2 MSTORE PUSH1 0x4 ADD PUSH2 0xDC2 SWAP2 SWAP1 PUSH2 0x1D34 JUMP JUMPDEST PUSH1 0x20 PUSH1 0x40 MLOAD DUP1 DUP4 SUB DUP2 DUP7 GAS STATICCALL ISZERO DUP1 ISZERO PUSH2 0xDDF JUMPI RETURNDATASIZE PUSH1 0x0 DUP1 RETURNDATACOPY RETURNDATASIZE PUSH1 0x0 REVERT JUMPDEST POP POP POP POP PUSH1 0x40 MLOAD RETURNDATASIZE PUSH1 0x1F NOT PUSH1 0x1F DUP3 ADD AND DUP3 ADD DUP1 PUSH1 0x40 MSTORE POP DUP2 ADD SWAP1 PUSH2 0xE03 SWAP2 SWAP1 PUSH2 0x2034 JUMP JUMPDEST PUSH2 0x188B JUMP JUMPDEST POP POP SWAP2 SWAP1 POP JUMP JUMPDEST PUSH1 0x4 PUSH1 0x20 MSTORE DUP1 PUSH1 0x0 MSTORE PUSH1 0x40 PUSH1 0x0 KECCAK256 PUSH1 0x0 SWAP2 POP SWAP1 POP SLOAD DUP2 JUMP JUMPDEST PUSH1 0x0 DUP1 PUSH2 0xE73 DUP4 PUSH1 0x4 PUSH1 0x0 DUP7 PUSH20 0xFFFFFFFFFFFFFFFFFFFFFFFFFFFFFFFFFFFFFFFF AND PUSH20 0xFFFFFFFFFFFFFFFFFFFFFFFFFFFFFFFFFFFFFFFF AND DUP2 MSTORE PUSH1 0x20 ADD SWAP1 DUP2 MSTORE PUSH1 0x20 ADD PUSH1 0x0 KECCAK256 SLOAD PUSH2 0x189D JUMP JUMPDEST SWAP2 POP SWAP2 POP SWAP2 POP SWAP2 JUMP JUMPDEST PUSH1 0x0 DUP2 CALLVALUE EQ PUSH2 0xEC0 JUMPI PUSH1 0x40 MLOAD PUSH32 0x8C379A000000000000000000000000000000000000000000000000000000000 DUP2 MSTORE PUSH1 0x4 ADD PUSH2 0xEB7 SWAP1 PUSH2 0x214D JUMP JUMPDEST PUSH1 0x40 MLOAD DUP1 SWAP2 SUB SWAP1 REVERT JUMPDEST PUSH1 0x0 PUSH2 0x3E8 PUSH2 0x3E5 DUP5 PUSH2 0xED3 SWAP2 SWAP1 PUSH2 0x1E94 JUMP JUMPDEST PUSH2 0xEDD SWAP2 SWAP1 PUSH2 0x1F82 JUMP JUMPDEST SWAP1 POP DUP1 PUSH1 0x1 SLOAD PUSH2 0xEED SWAP2 SWAP1 PUSH2 0x20CD JUMP JUMPDEST DUP2 PUSH1 0x2 SLOAD PUSH2 0xEFB SWAP2 SWAP1 PUSH2 0x1E94 JUMP JUMPDEST PUSH2 0xF05 SWAP2 SWAP1 PUSH2 0x1F82 JUMP JUMPDEST SWAP2 POP PUSH1 0x0 PUSH2 0x7D0 PUSH1 0x1 SLOAD PUSH2 0xF19 SWAP2 SWAP1 PUSH2 0x1E94 JUMP JUMPDEST PUSH1 0x3 SLOAD PUSH1 0x3 DUP7 PUSH2 0xF29 SWAP2 SWAP1 PUSH2 0x1E94 JUMP JUMPDEST PUSH2 0xF33 SWAP2 SWAP1 PUSH2 0x1E94 JUMP JUMPDEST PUSH2 0xF3D SWAP2 SWAP1 PUSH2 0x1F82 JUMP JUMPDEST SWAP1 POP PUSH2 0xF69 PUSH1 0x0 DUP1 SLOAD SWAP1 PUSH2 0x100 EXP SWAP1 DIV PUSH20 0xFFFFFFFFFFFFFFFFFFFFFFFFFFFFFFFFFFFFFFFF AND DUP3 PUSH2 0x1818 JUMP JUMPDEST PUSH32 0x0 PUSH20 0xFFFFFFFFFFFFFFFFFFFFFFFFFFFFFFFFFFFFFFFF AND PUSH4 0xA9059CBB CALLER DUP6 PUSH1 0x40 MLOAD DUP4 PUSH4 0xFFFFFFFF AND PUSH1 0xE0 SHL DUP2 MSTORE PUSH1 0x4 ADD PUSH2 0xFC4 SWAP3 SWAP2 SWAP1 PUSH2 0x2279 JUMP JUMPDEST PUSH1 0x20 PUSH1 0x40 MLOAD DUP1 DUP4 SUB DUP2 PUSH1 0x0 DUP8 GAS CALL ISZERO DUP1 ISZERO PUSH2 0xFE3 JUMPI RETURNDATASIZE PUSH1 0x0 DUP1 RETURNDATACOPY RETURNDATASIZE PUSH1 0x0 REVERT JUMPDEST POP POP POP POP PUSH1 0x40 MLOAD RETURNDATASIZE PUSH1 0x1F NOT PUSH1 0x1F DUP3 ADD AND DUP3 ADD DUP1 PUSH1 0x40 MSTORE POP DUP2 ADD SWAP1 PUSH2 0x1007 SWAP2 SWAP1 PUSH2 0x1E38 JUMP JUMPDEST POP PUSH2 0x10AB SELFBALANCE PUSH32 0x0 PUSH20 0xFFFFFFFFFFFFFFFFFFFFFFFFFFFFFFFFFFFFFFFF AND PUSH4 0x70A08231 ADDRESS PUSH1 0x40 MLOAD DUP3 PUSH4 0xFFFFFFFF AND PUSH1 0xE0 SHL DUP2 MSTORE PUSH1 0x4 ADD PUSH2 0x1065 SWAP2 SWAP1 PUSH2 0x1D34 JUMP JUMPDEST PUSH1 0x20 PUSH1 0x40 MLOAD DUP1 DUP4 SUB DUP2 DUP7 GAS STATICCALL ISZERO DUP1 ISZERO PUSH2 0x1082 JUMPI RETURNDATASIZE PUSH1 0x0 DUP1 RETURNDATACOPY RETURNDATASIZE PUSH1 0x0 REVERT JUMPDEST POP POP POP POP PUSH1 0x40 MLOAD RETURNDATASIZE PUSH1 0x1F NOT PUSH1 0x1F DUP3 ADD AND DUP3 ADD DUP1 PUSH1 0x40 MSTORE POP DUP2 ADD SWAP1 PUSH2 0x10A6 SWAP2 SWAP1 PUSH2 0x2034 JUMP JUMPDEST PUSH2 0x188B JUMP JUMPDEST POP POP SWAP2 SWAP1 POP JUMP JUMPDEST PUSH1 0x0 DUP1 PUSH1 0x4 PUSH1 0x0 CALLER PUSH20 0xFFFFFFFFFFFFFFFFFFFFFFFFFFFFFFFFFFFFFFFF AND PUSH20 0xFFFFFFFFFFFFFFFFFFFFFFFFFFFFFFFFFFFFFFFF AND DUP2 MSTORE PUSH1 0x20 ADD SWAP1 DUP2 MSTORE PUSH1 0x20 ADD PUSH1 0x0 KECCAK256 SLOAD DUP4 GT ISZERO PUSH2 0x1137 JUMPI PUSH1 0x40 MLOAD PUSH32 0x8C379A000000000000000000000000000000000000000000000000000000000 DUP2 MSTORE PUSH1 0x4 ADD PUSH2 0x112E SWAP1 PUSH2 0x22EE JUMP JUMPDEST PUSH1 0x40 MLOAD DUP1 SWAP2 SUB SWAP1 REVERT JUMPDEST PUSH2 0x1141 CALLER DUP5 PUSH2 0x189D JUMP JUMPDEST SWAP2 POP SWAP2 POP SWAP2 POP SWAP2 JUMP JUMPDEST PUSH1 0x0 DUP1 PUSH1 0x4 PUSH1 0x0 DUP6 PUSH20 0xFFFFFFFFFFFFFFFFFFFFFFFFFFFFFFFFFFFFFFFF AND PUSH20 0xFFFFFFFFFFFFFFFFFFFFFFFFFFFFFFFFFFFFFFFF AND DUP2 MSTORE PUSH1 0x20 ADD SWAP1 DUP2 MSTORE PUSH1 0x20 ADD PUSH1 0x0 KECCAK256 SLOAD DUP4 GT ISZERO PUSH2 0x11CF JUMPI PUSH1 0x40 MLOAD PUSH32 0x8C379A000000000000000000000000000000000000000000000000000000000 DUP2 MSTORE PUSH1 0x4 ADD PUSH2 0x11C6 SWAP1 PUSH2 0x22EE JUMP JUMPDEST PUSH1 0x40 MLOAD DUP1 SWAP2 SUB SWAP1 REVERT JUMPDEST PUSH2 0x11D9 DUP5 DUP5 PUSH2 0x189D JUMP JUMPDEST SWAP2 POP SWAP2 POP SWAP3 POP SWAP3 SWAP1 POP JUMP JUMPDEST PUSH1 0x0 DUP1 PUSH1 0x1 SLOAD GT DUP1 ISZERO PUSH2 0x11F9 JUMPI POP PUSH1 0x0 PUSH1 0x2 SLOAD GT JUMPDEST PUSH2 0x1238 JUMPI PUSH1 0x40 MLOAD PUSH32 0x8C379A000000000000000000000000000000000000000000000000000000000 DUP2 MSTORE PUSH1 0x4 ADD PUSH2 0x122F SWAP1 PUSH2 0x235A JUMP JUMPDEST PUSH1 0x40 MLOAD DUP1 SWAP2 SUB SWAP1 REVERT JUMPDEST PUSH1 0x1 SLOAD PUSH8 0xDE0B6B3A7640000 PUSH1 0x2 SLOAD PUSH2 0x1251 SWAP2 SWAP1 PUSH2 0x1E94 JUMP JUMPDEST PUSH2 0x125B SWAP2 SWAP1 PUSH2 0x1F82 JUMP JUMPDEST SWAP1 POP SWAP1 JUMP JUMPDEST PUSH1 0x0 DUP2 JUMP JUMPDEST PUSH1 0x0 DUP1 PUSH2 0x3E8 PUSH2 0x3E5 DUP7 PUSH2 0x1279 SWAP2 SWAP1 PUSH2 0x1E94 JUMP JUMPDEST PUSH2 0x1283 SWAP2 SWAP1 PUSH2 0x1F82 JUMP JUMPDEST SWAP1 POP DUP1 PUSH1 0x2 SLOAD PUSH2 0x1293 SWAP2 SWAP1 PUSH2 0x20CD JUMP JUMPDEST DUP2 PUSH1 0x1 SLOAD PUSH2 0x12A1 SWAP2 SWAP1 PUSH2 0x1E94 JUMP JUMPDEST PUSH2 0x12AB SWAP2 SWAP1 PUSH2 0x1F82 JUMP JUMPDEST SWAP2 POP PUSH1 0x0 DUP3 GT PUSH2 0x12F0 JUMPI PUSH1 0x40 MLOAD PUSH32 0x8C379A000000000000000000000000000000000000000000000000000000000 DUP2 MSTORE PUSH1 0x4 ADD PUSH2 0x12E7 SWAP1 PUSH2 0x21B9 JUMP JUMPDEST PUSH1 0x40 MLOAD DUP1 SWAP2 SUB SWAP1 REVERT JUMPDEST PUSH2 0x3E8 DUP4 PUSH2 0x3E8 PUSH2 0x1301 SWAP2 SWAP1 PUSH2 0x21D9 JUMP JUMPDEST DUP6 PUSH2 0x130C SWAP2 SWAP1 PUSH2 0x1E94 JUMP JUMPDEST PUSH2 0x1316 SWAP2 SWAP1 PUSH2 0x1F82 JUMP JUMPDEST DUP3 LT ISZERO PUSH2 0x1358 JUMPI PUSH1 0x40 MLOAD PUSH32 0x8C379A000000000000000000000000000000000000000000000000000000000 DUP2 MSTORE PUSH1 0x4 ADD PUSH2 0x134F SWAP1 PUSH2 0x2259 JUMP JUMPDEST PUSH1 0x40 MLOAD DUP1 SWAP2 SUB SWAP1 REVERT JUMPDEST PUSH1 0x0 PUSH2 0x7D0 PUSH1 0x2 SLOAD PUSH2 0x136A SWAP2 SWAP1 PUSH2 0x1E94 JUMP JUMPDEST PUSH1 0x3 SLOAD PUSH1 0x3 DUP9 PUSH2 0x137A SWAP2 SWAP1 PUSH2 0x1E94 JUMP JUMPDEST PUSH2 0x1384 SWAP2 SWAP1 PUSH2 0x1E94 JUMP JUMPDEST PUSH2 0x138E SWAP2 SWAP1 PUSH2 0x1F82 JUMP JUMPDEST SWAP1 POP PUSH2 0x13BA PUSH1 0x0 DUP1 SLOAD SWAP1 PUSH2 0x100 EXP SWAP1 DIV PUSH20 0xFFFFFFFFFFFFFFFFFFFFFFFFFFFFFFFFFFFFFFFF AND DUP3 PUSH2 0x1818 JUMP JUMPDEST PUSH32 0x0 PUSH20 0xFFFFFFFFFFFFFFFFFFFFFFFFFFFFFFFFFFFFFFFF AND PUSH4 0x23B872DD CALLER ADDRESS DUP10 PUSH1 0x40 MLOAD DUP5 PUSH4 0xFFFFFFFF AND PUSH1 0xE0 SHL DUP2 MSTORE PUSH1 0x4 ADD PUSH2 0x1417 SWAP4 SWAP3 SWAP2 SWAP1 PUSH2 0x1DC9 JUMP JUMPDEST PUSH1 0x20 PUSH1 0x40 MLOAD DUP1 DUP4 SUB DUP2 PUSH1 0x0 DUP8 GAS CALL ISZERO DUP1 ISZERO PUSH2 0x1436 JUMPI RETURNDATASIZE PUSH1 0x0 DUP1 RETURNDATACOPY RETURNDATASIZE PUSH1 0x0 REVERT JUMPDEST POP POP POP POP PUSH1 0x40 MLOAD RETURNDATASIZE PUSH1 0x1F NOT PUSH1 0x1F DUP3 ADD AND DUP3 ADD DUP1 PUSH1 0x40 MSTORE POP DUP2 ADD SWAP1 PUSH2 0x145A SWAP2 SWAP1 PUSH2 0x1E38 JUMP JUMPDEST POP CALLER PUSH20 0xFFFFFFFFFFFFFFFFFFFFFFFFFFFFFFFFFFFFFFFF AND PUSH2 0x8FC DUP5 SWAP1 DUP2 ISZERO MUL SWAP1 PUSH1 0x40 MLOAD PUSH1 0x0 PUSH1 0x40 MLOAD DUP1 DUP4 SUB DUP2 DUP6 DUP9 DUP9 CALL SWAP4 POP POP POP POP ISZERO DUP1 ISZERO PUSH2 0x14A1 JUMPI RETURNDATASIZE PUSH1 0x0 DUP1 RETURNDATACOPY RETURNDATASIZE PUSH1 0x0 REVERT JUMPDEST POP PUSH2 0x1545 SELFBALANCE PUSH32 0x0 PUSH20 0xFFFFFFFFFFFFFFFFFFFFFFFFFFFFFFFFFFFFFFFF AND PUSH4 0x70A08231 ADDRESS PUSH1 0x40 MLOAD DUP3 PUSH4 0xFFFFFFFF AND PUSH1 0xE0 SHL DUP2 MSTORE PUSH1 0x4 ADD PUSH2 0x14FF SWAP2 SWAP1 PUSH2 0x1D34 JUMP JUMPDEST PUSH1 0x20 PUSH1 0x40 MLOAD DUP1 DUP4 SUB DUP2 DUP7 GAS STATICCALL ISZERO DUP1 ISZERO PUSH2 0x151C JUMPI RETURNDATASIZE PUSH1 0x0 DUP1 RETURNDATACOPY RETURNDATASIZE PUSH1 0x0 REVERT JUMPDEST POP POP POP POP PUSH1 0x40 MLOAD RETURNDATASIZE PUSH1 0x1F NOT PUSH1 0x1F DUP3 ADD AND DUP3 ADD DUP1 PUSH1 0x40 MSTORE POP DUP2 ADD SWAP1 PUSH2 0x1540 SWAP2 SWAP1 PUSH2 0x2034 JUMP JUMPDEST PUSH2 0x188B JUMP JUMPDEST POP POP SWAP4 SWAP3 POP POP POP JUMP JUMPDEST PUSH1 0x0 DUP1 PUSH1 0x1 SLOAD GT DUP1 ISZERO PUSH2 0x1563 JUMPI POP PUSH1 0x0 PUSH1 0x2 SLOAD GT JUMPDEST DUP1 ISZERO PUSH2 0x156F JUMPI POP PUSH1 0x0 DUP3 GT JUMPDEST PUSH2 0x15AE JUMPI PUSH1 0x40 MLOAD PUSH32 0x8C379A000000000000000000000000000000000000000000000000000000000 DUP2 MSTORE PUSH1 0x4 ADD PUSH2 0x15A5 SWAP1 PUSH2 0x235A JUMP JUMPDEST PUSH1 0x40 MLOAD DUP1 SWAP2 SUB SWAP1 REVERT JUMPDEST PUSH1 0x0 PUSH2 0x3E8 PUSH2 0x3E5 DUP5 PUSH2 0x15C1 SWAP2 SWAP1 PUSH2 0x1E94 JUMP JUMPDEST PUSH2 0x15CB SWAP2 SWAP1 PUSH2 0x1F82 JUMP JUMPDEST SWAP1 POP DUP1 PUSH1 0x2 SLOAD PUSH2 0x15DB SWAP2 SWAP1 PUSH2 0x20CD JUMP JUMPDEST DUP2 PUSH1 0x1 SLOAD PUSH2 0x15E9 SWAP2 SWAP1 PUSH2 0x1E94 JUMP JUMPDEST PUSH2 0x15F3 SWAP2 SWAP1 PUSH2 0x1F82 JUMP JUMPDEST SWAP2 POP POP SWAP2 SWAP1 POP JUMP JUMPDEST PUSH1 0x2 SLOAD DUP2 JUMP JUMPDEST PUSH1 0x0 PUSH1 0x4 PUSH1 0x0 DUP4 PUSH20 0xFFFFFFFFFFFFFFFFFFFFFFFFFFFFFFFFFFFFFFFF AND PUSH20 0xFFFFFFFFFFFFFFFFFFFFFFFFFFFFFFFFFFFFFFFF AND DUP2 MSTORE PUSH1 0x20 ADD SWAP1 DUP2 MSTORE PUSH1 0x20 ADD PUSH1 0x0 KECCAK256 SLOAD SWAP1 POP SWAP2 SWAP1 POP JUMP JUMPDEST PUSH32 0x0 DUP2 JUMP JUMPDEST PUSH1 0x0 DUP1 PUSH1 0x1 SLOAD GT DUP1 ISZERO PUSH2 0x1683 JUMPI POP PUSH1 0x0 PUSH1 0x2 SLOAD GT JUMPDEST PUSH2 0x16C2 JUMPI PUSH1 0x40 MLOAD PUSH32 0x8C379A000000000000000000000000000000000000000000000000000000000 DUP2 MSTORE PUSH1 0x4 ADD PUSH2 0x16B9 SWAP1 PUSH2 0x20AD JUMP JUMPDEST PUSH1 0x40 MLOAD DUP1 SWAP2 SUB SWAP1 REVERT JUMPDEST PUSH1 0x0 PUSH32 0x0 PUSH20 0xFFFFFFFFFFFFFFFFFFFFFFFFFFFFFFFFFFFFFFFF AND PUSH4 0x313CE567 PUSH1 0x40 MLOAD DUP2 PUSH4 0xFFFFFFFF AND PUSH1 0xE0 SHL DUP2 MSTORE PUSH1 0x4 ADD PUSH1 0x20 PUSH1 0x40 MLOAD DUP1 DUP4 SUB DUP2 DUP7 GAS STATICCALL ISZERO DUP1 ISZERO PUSH2 0x172F JUMPI RETURNDATASIZE PUSH1 0x0 DUP1 RETURNDATACOPY RETURNDATASIZE PUSH1 0x0 REVERT JUMPDEST POP POP POP POP PUSH1 0x40 MLOAD RETURNDATASIZE PUSH1 0x1F NOT PUSH1 0x1F DUP3 ADD AND DUP3 ADD DUP1 PUSH1 0x40 MSTORE POP DUP2 ADD SWAP1 PUSH2 0x1753 SWAP2 SWAP1 PUSH2 0x23B3 JUMP JUMPDEST PUSH1 0xFF AND SWAP1 POP PUSH1 0x2 SLOAD DUP2 PUSH1 0xA PUSH2 0x1768 SWAP2 SWAP1 PUSH2 0x2513 JUMP JUMPDEST PUSH1 0x1 SLOAD PUSH2 0x1775 SWAP2 SWAP1 PUSH2 0x1E94 JUMP JUMPDEST PUSH2 0x177F SWAP2 SWAP1 PUSH2 0x1F82 JUMP JUMPDEST SWAP2 POP POP SWAP1 JUMP JUMPDEST PUSH1 0x0 PUSH1 0x3 DUP3 GT ISZERO PUSH2 0x17EC JUMPI DUP2 SWAP1 POP PUSH1 0x0 PUSH1 0x1 PUSH1 0x2 DUP5 PUSH2 0x17A4 SWAP2 SWAP1 PUSH2 0x1F82 JUMP JUMPDEST PUSH2 0x17AE SWAP2 SWAP1 PUSH2 0x20CD JUMP JUMPDEST SWAP1 POP JUMPDEST DUP2 DUP2 LT ISZERO PUSH2 0x17E6 JUMPI DUP1 SWAP2 POP PUSH1 0x2 DUP2 DUP3 DUP6 PUSH2 0x17CB SWAP2 SWAP1 PUSH2 0x1F82 JUMP JUMPDEST PUSH2 0x17D5 SWAP2 SWAP1 PUSH2 0x20CD JUMP JUMPDEST PUSH2 0x17DF SWAP2 SWAP1 PUSH2 0x1F82 JUMP JUMPDEST SWAP1 POP PUSH2 0x17B1 JUMP JUMPDEST POP PUSH2 0x17FA JUMP JUMPDEST PUSH1 0x0 DUP3 EQ PUSH2 0x17F9 JUMPI PUSH1 0x1 SWAP1 POP JUMPDEST JUMPDEST SWAP2 SWAP1 POP JUMP JUMPDEST PUSH1 0x0 DUP2 DUP4 LT PUSH2 0x180E JUMPI DUP2 PUSH2 0x1810 JUMP JUMPDEST DUP3 JUMPDEST SWAP1 POP SWAP3 SWAP2 POP POP JUMP JUMPDEST DUP1 PUSH1 0x4 PUSH1 0x0 DUP5 PUSH20 0xFFFFFFFFFFFFFFFFFFFFFFFFFFFFFFFFFFFFFFFF AND PUSH20 0xFFFFFFFFFFFFFFFFFFFFFFFFFFFFFFFFFFFFFFFF AND DUP2 MSTORE PUSH1 0x20 ADD SWAP1 DUP2 MSTORE PUSH1 0x20 ADD PUSH1 0x0 KECCAK256 PUSH1 0x0 DUP3 DUP3 SLOAD PUSH2 0x1867 SWAP2 SWAP1 PUSH2 0x20CD JUMP JUMPDEST SWAP3 POP POP DUP2 SWAP1 SSTORE POP DUP1 PUSH1 0x3 PUSH1 0x0 DUP3 DUP3 SLOAD PUSH2 0x1880 SWAP2 SWAP1 PUSH2 0x20CD JUMP JUMPDEST SWAP3 POP POP DUP2 SWAP1 SSTORE POP POP POP JUMP JUMPDEST DUP2 PUSH1 0x1 DUP2 SWAP1 SSTORE POP DUP1 PUSH1 0x2 DUP2 SWAP1 SSTORE POP POP POP JUMP JUMPDEST PUSH1 0x0 DUP1 PUSH1 0x3 SLOAD PUSH1 0x1 SLOAD DUP5 PUSH2 0x18B1 SWAP2 SWAP1 PUSH2 0x1E94 JUMP JUMPDEST PUSH2 0x18BB SWAP2 SWAP1 PUSH2 0x1F82 JUMP JUMPDEST SWAP2 POP PUSH1 0x3 SLOAD PUSH1 0x2 SLOAD DUP5 PUSH2 0x18CE SWAP2 SWAP1 PUSH2 0x1E94 JUMP JUMPDEST PUSH2 0x18D8 SWAP2 SWAP1 PUSH2 0x1F82 JUMP JUMPDEST SWAP1 POP PUSH1 0x0 DUP3 GT DUP1 ISZERO PUSH2 0x18EA JUMPI POP PUSH1 0x0 DUP2 GT JUMPDEST PUSH2 0x1929 JUMPI PUSH1 0x40 MLOAD PUSH32 0x8C379A000000000000000000000000000000000000000000000000000000000 DUP2 MSTORE PUSH1 0x4 ADD PUSH2 0x1920 SWAP1 PUSH2 0x25AA JUMP JUMPDEST PUSH1 0x40 MLOAD DUP1 SWAP2 SUB SWAP1 REVERT JUMPDEST PUSH2 0x1933 DUP5 DUP5 PUSH2 0x1AD9 JUMP JUMPDEST PUSH2 0x19EC DUP3 SELFBALANCE PUSH2 0x1942 SWAP2 SWAP1 PUSH2 0x21D9 JUMP JUMPDEST DUP3 PUSH32 0x0 PUSH20 0xFFFFFFFFFFFFFFFFFFFFFFFFFFFFFFFFFFFFFFFF AND PUSH4 0x70A08231 ADDRESS PUSH1 0x40 MLOAD DUP3 PUSH4 0xFFFFFFFF AND PUSH1 0xE0 SHL DUP2 MSTORE PUSH1 0x4 ADD PUSH2 0x199C SWAP2 SWAP1 PUSH2 0x1D34 JUMP JUMPDEST PUSH1 0x20 PUSH1 0x40 MLOAD DUP1 DUP4 SUB DUP2 DUP7 GAS STATICCALL ISZERO DUP1 ISZERO PUSH2 0x19B9 JUMPI RETURNDATASIZE PUSH1 0x0 DUP1 RETURNDATACOPY RETURNDATASIZE PUSH1 0x0 REVERT JUMPDEST POP POP POP POP PUSH1 0x40 MLOAD RETURNDATASIZE PUSH1 0x1F NOT PUSH1 0x1F DUP3 ADD AND DUP3 ADD DUP1 PUSH1 0x40 MSTORE POP DUP2 ADD SWAP1 PUSH2 0x19DD SWAP2 SWAP1 PUSH2 0x2034 JUMP JUMPDEST PUSH2 0x19E7 SWAP2 SWAP1 PUSH2 0x21D9 JUMP JUMPDEST PUSH2 0x188B JUMP JUMPDEST DUP4 PUSH20 0xFFFFFFFFFFFFFFFFFFFFFFFFFFFFFFFFFFFFFFFF AND PUSH2 0x8FC DUP4 SWAP1 DUP2 ISZERO MUL SWAP1 PUSH1 0x40 MLOAD PUSH1 0x0 PUSH1 0x40 MLOAD DUP1 DUP4 SUB DUP2 DUP6 DUP9 DUP9 CALL SWAP4 POP POP POP POP ISZERO DUP1 ISZERO PUSH2 0x1A32 JUMPI RETURNDATASIZE PUSH1 0x0 DUP1 RETURNDATACOPY RETURNDATASIZE PUSH1 0x0 REVERT JUMPDEST POP PUSH32 0x0 PUSH20 0xFFFFFFFFFFFFFFFFFFFFFFFFFFFFFFFFFFFFFFFF AND PUSH4 0xA9059CBB DUP6 DUP4 PUSH1 0x40 MLOAD DUP4 PUSH4 0xFFFFFFFF AND PUSH1 0xE0 SHL DUP2 MSTORE PUSH1 0x4 ADD PUSH2 0x1A8E SWAP3 SWAP2 SWAP1 PUSH2 0x2279 JUMP JUMPDEST PUSH1 0x20 PUSH1 0x40 MLOAD DUP1 DUP4 SUB DUP2 PUSH1 0x0 DUP8 GAS CALL ISZERO DUP1 ISZERO PUSH2 0x1AAD JUMPI RETURNDATASIZE PUSH1 0x0 DUP1 RETURNDATACOPY RETURNDATASIZE PUSH1 0x0 REVERT JUMPDEST POP POP POP POP PUSH1 0x40 MLOAD RETURNDATASIZE PUSH1 0x1F NOT PUSH1 0x1F DUP3 ADD AND DUP3 ADD DUP1 PUSH1 0x40 MSTORE POP DUP2 ADD SWAP1 PUSH2 0x1AD1 SWAP2 SWAP1 PUSH2 0x1E38 JUMP JUMPDEST POP SWAP3 POP SWAP3 SWAP1 POP JUMP JUMPDEST DUP1 PUSH1 0x4 PUSH1 0x0 DUP5 PUSH20 0xFFFFFFFFFFFFFFFFFFFFFFFFFFFFFFFFFFFFFFFF AND PUSH20 0xFFFFFFFFFFFFFFFFFFFFFFFFFFFFFFFFFFFFFFFF AND DUP2 MSTORE PUSH1 0x20 ADD SWAP1 DUP2 MSTORE PUSH1 0x20 ADD PUSH1 0x0 KECCAK256 PUSH1 0x0 DUP3 DUP3 SLOAD PUSH2 0x1B28 SWAP2 SWAP1 PUSH2 0x21D9 JUMP JUMPDEST SWAP3 POP POP DUP2 SWAP1 SSTORE POP DUP1 PUSH1 0x3 PUSH1 0x0 DUP3 DUP3 SLOAD PUSH2 0x1B41 SWAP2 SWAP1 PUSH2 0x21D9 JUMP JUMPDEST SWAP3 POP POP DUP2 SWAP1 SSTORE POP POP POP JUMP JUMPDEST PUSH1 0x0 DUP2 SWAP1 POP SWAP2 SWAP1 POP JUMP JUMPDEST PUSH2 0x1B5F DUP2 PUSH2 0x1B4C JUMP JUMPDEST DUP3 MSTORE POP POP JUMP JUMPDEST PUSH1 0x0 PUSH1 0x20 DUP3 ADD SWAP1 POP PUSH2 0x1B7A PUSH1 0x0 DUP4 ADD DUP5 PUSH2 0x1B56 JUMP JUMPDEST SWAP3 SWAP2 POP POP JUMP JUMPDEST PUSH1 0x0 DUP1 REVERT JUMPDEST PUSH2 0x1B8E DUP2 PUSH2 0x1B4C JUMP JUMPDEST DUP2 EQ PUSH2 0x1B99 JUMPI PUSH1 0x0 DUP1 REVERT JUMPDEST POP JUMP JUMPDEST PUSH1 0x0 DUP2 CALLDATALOAD SWAP1 POP PUSH2 0x1BAB DUP2 PUSH2 0x1B85 JUMP JUMPDEST SWAP3 SWAP2 POP POP JUMP JUMPDEST PUSH1 0x0 PUSH1 0x20 DUP3 DUP5 SUB SLT ISZERO PUSH2 0x1BC7 JUMPI PUSH2 0x1BC6 PUSH2 0x1B80 JUMP JUMPDEST JUMPDEST PUSH1 0x0 PUSH2 0x1BD5 DUP5 DUP3 DUP6 ADD PUSH2 0x1B9C JUMP JUMPDEST SWAP2 POP POP SWAP3 SWAP2 POP POP JUMP JUMPDEST PUSH1 0x0 DUP1 PUSH1 0x0 PUSH1 0x60 DUP5 DUP7 SUB SLT ISZERO PUSH2 0x1BF7 JUMPI PUSH2 0x1BF6 PUSH2 0x1B80 JUMP JUMPDEST JUMPDEST PUSH1 0x0 PUSH2 0x1C05 DUP7 DUP3 DUP8 ADD PUSH2 0x1B9C JUMP JUMPDEST SWAP4 POP POP PUSH1 0x20 PUSH2 0x1C16 DUP7 DUP3 DUP8 ADD PUSH2 0x1B9C JUMP JUMPDEST SWAP3 POP POP PUSH1 0x40 PUSH2 0x1C27 DUP7 DUP3 DUP8 ADD PUSH2 0x1B9C JUMP JUMPDEST SWAP2 POP POP SWAP3 POP SWAP3 POP SWAP3 JUMP JUMPDEST PUSH1 0x0 PUSH20 0xFFFFFFFFFFFFFFFFFFFFFFFFFFFFFFFFFFFFFFFF DUP3 AND SWAP1 POP SWAP2 SWAP1 POP JUMP JUMPDEST PUSH1 0x0 PUSH2 0x1C5C DUP3 PUSH2 0x1C31 JUMP JUMPDEST SWAP1 POP SWAP2 SWAP1 POP JUMP JUMPDEST PUSH2 0x1C6C DUP2 PUSH2 0x1C51 JUMP JUMPDEST DUP2 EQ PUSH2 0x1C77 JUMPI PUSH1 0x0 DUP1 REVERT JUMPDEST POP JUMP JUMPDEST PUSH1 0x0 DUP2 CALLDATALOAD SWAP1 POP PUSH2 0x1C89 DUP2 PUSH2 0x1C63 JUMP JUMPDEST SWAP3 SWAP2 POP POP JUMP JUMPDEST PUSH1 0x0 PUSH1 0x20 DUP3 DUP5 SUB SLT ISZERO PUSH2 0x1CA5 JUMPI PUSH2 0x1CA4 PUSH2 0x1B80 JUMP JUMPDEST JUMPDEST PUSH1 0x0 PUSH2 0x1CB3 DUP5 DUP3 DUP6 ADD PUSH2 0x1C7A JUMP JUMPDEST SWAP2 POP POP SWAP3 SWAP2 POP POP JUMP JUMPDEST PUSH1 0x0 PUSH1 0x40 DUP3 ADD SWAP1 POP PUSH2 0x1CD1 PUSH1 0x0 DUP4 ADD DUP6 PUSH2 0x1B56 JUMP JUMPDEST PUSH2 0x1CDE PUSH1 0x20 DUP4 ADD DUP5 PUSH2 0x1B56 JUMP JUMPDEST SWAP4 SWAP3 POP POP POP JUMP JUMPDEST PUSH1 0x0 DUP1 PUSH1 0x40 DUP4 DUP6 SUB SLT ISZERO PUSH2 0x1CFC JUMPI PUSH2 0x1CFB PUSH2 0x1B80 JUMP JUMPDEST JUMPDEST PUSH1 0x0 PUSH2 0x1D0A DUP6 DUP3 DUP7 ADD PUSH2 0x1C7A JUMP JUMPDEST SWAP3 POP POP PUSH1 0x20 PUSH2 0x1D1B DUP6 DUP3 DUP7 ADD PUSH2 0x1B9C JUMP JUMPDEST SWAP2 POP POP SWAP3 POP SWAP3 SWAP1 POP JUMP JUMPDEST PUSH2 0x1D2E DUP2 PUSH2 0x1C51 JUMP JUMPDEST DUP3 MSTORE POP POP JUMP JUMPDEST PUSH1 0x0 PUSH1 0x20 DUP3 ADD SWAP1 POP PUSH2 0x1D49 PUSH1 0x0 DUP4 ADD DUP5 PUSH2 0x1D25 JUMP JUMPDEST SWAP3 SWAP2 POP POP JUMP JUMPDEST PUSH1 0x0 DUP2 SWAP1 POP SWAP2 SWAP1 POP JUMP JUMPDEST PUSH1 0x0 PUSH2 0x1D74 PUSH2 0x1D6F PUSH2 0x1D6A DUP5 PUSH2 0x1C31 JUMP JUMPDEST PUSH2 0x1D4F JUMP JUMPDEST PUSH2 0x1C31 JUMP JUMPDEST SWAP1 POP SWAP2 SWAP1 POP JUMP JUMPDEST PUSH1 0x0 PUSH2 0x1D86 DUP3 PUSH2 0x1D59 JUMP JUMPDEST SWAP1 POP SWAP2 SWAP1 POP JUMP JUMPDEST PUSH1 0x0 PUSH2 0x1D98 DUP3 PUSH2 0x1D7B JUMP JUMPDEST SWAP1 POP SWAP2 SWAP1 POP JUMP JUMPDEST PUSH2 0x1DA8 DUP2 PUSH2 0x1D8D JUMP JUMPDEST DUP3 MSTORE POP POP JUMP JUMPDEST PUSH1 0x0 PUSH1 0x20 DUP3 ADD SWAP1 POP PUSH2 0x1DC3 PUSH1 0x0 DUP4 ADD DUP5 PUSH2 0x1D9F JUMP JUMPDEST SWAP3 SWAP2 POP POP JUMP JUMPDEST PUSH1 0x0 PUSH1 0x60 DUP3 ADD SWAP1 POP PUSH2 0x1DDE PUSH1 0x0 DUP4 ADD DUP7 PUSH2 0x1D25 JUMP JUMPDEST PUSH2 0x1DEB PUSH1 0x20 DUP4 ADD DUP6 PUSH2 0x1D25 JUMP JUMPDEST PUSH2 0x1DF8 PUSH1 0x40 DUP4 ADD DUP5 PUSH2 0x1B56 JUMP JUMPDEST SWAP5 SWAP4 POP POP POP POP JUMP JUMPDEST PUSH1 0x0 DUP2 ISZERO ISZERO SWAP1 POP SWAP2 SWAP1 POP JUMP JUMPDEST PUSH2 0x1E15 DUP2 PUSH2 0x1E00 JUMP JUMPDEST DUP2 EQ PUSH2 0x1E20 JUMPI PUSH1 0x0 DUP1 REVERT JUMPDEST POP JUMP JUMPDEST PUSH1 0x0 DUP2 MLOAD SWAP1 POP PUSH2 0x1E32 DUP2 PUSH2 0x1E0C JUMP JUMPDEST SWAP3 SWAP2 POP POP JUMP JUMPDEST PUSH1 0x0 PUSH1 0x20 DUP3 DUP5 SUB SLT ISZERO PUSH2 0x1E4E JUMPI PUSH2 0x1E4D PUSH2 0x1B80 JUMP JUMPDEST JUMPDEST PUSH1 0x0 PUSH2 0x1E5C DUP5 DUP3 DUP6 ADD PUSH2 0x1E23 JUMP JUMPDEST SWAP2 POP POP SWAP3 SWAP2 POP POP JUMP JUMPDEST PUSH32 0x4E487B7100000000000000000000000000000000000000000000000000000000 PUSH1 0x0 MSTORE PUSH1 0x11 PUSH1 0x4 MSTORE PUSH1 0x24 PUSH1 0x0 REVERT JUMPDEST PUSH1 0x0 PUSH2 0x1E9F DUP3 PUSH2 0x1B4C JUMP JUMPDEST SWAP2 POP PUSH2 0x1EAA DUP4 PUSH2 0x1B4C JUMP JUMPDEST SWAP3 POP DUP3 DUP3 MUL PUSH2 0x1EB8 DUP2 PUSH2 0x1B4C JUMP JUMPDEST SWAP2 POP DUP3 DUP3 DIV DUP5 EQ DUP4 ISZERO OR PUSH2 0x1ECF JUMPI PUSH2 0x1ECE PUSH2 0x1E65 JUMP JUMPDEST JUMPDEST POP SWAP3 SWAP2 POP POP JUMP JUMPDEST PUSH1 0x0 DUP3 DUP3 MSTORE PUSH1 0x20 DUP3 ADD SWAP1 POP SWAP3 SWAP2 POP POP JUMP JUMPDEST PUSH32 0x78202F207920213D206478202F20647900000000000000000000000000000000 PUSH1 0x0 DUP3 ADD MSTORE POP JUMP JUMPDEST PUSH1 0x0 PUSH2 0x1F1D PUSH1 0x10 DUP4 PUSH2 0x1ED6 JUMP JUMPDEST SWAP2 POP PUSH2 0x1F28 DUP3 PUSH2 0x1EE7 JUMP JUMPDEST PUSH1 0x20 DUP3 ADD SWAP1 POP SWAP2 SWAP1 POP JUMP JUMPDEST PUSH1 0x0 PUSH1 0x20 DUP3 ADD SWAP1 POP DUP2 DUP2 SUB PUSH1 0x0 DUP4 ADD MSTORE PUSH2 0x1F4C DUP2 PUSH2 0x1F10 JUMP JUMPDEST SWAP1 POP SWAP2 SWAP1 POP JUMP JUMPDEST PUSH32 0x4E487B7100000000000000000000000000000000000000000000000000000000 PUSH1 0x0 MSTORE PUSH1 0x12 PUSH1 0x4 MSTORE PUSH1 0x24 PUSH1 0x0 REVERT JUMPDEST PUSH1 0x0 PUSH2 0x1F8D DUP3 PUSH2 0x1B4C JUMP JUMPDEST SWAP2 POP PUSH2 0x1F98 DUP4 PUSH2 0x1B4C JUMP JUMPDEST SWAP3 POP DUP3 PUSH2 0x1FA8 JUMPI PUSH2 0x1FA7 PUSH2 0x1F53 JUMP JUMPDEST JUMPDEST DUP3 DUP3 DIV SWAP1 POP SWAP3 SWAP2 POP POP JUMP JUMPDEST PUSH32 0x736861726573203D203000000000000000000000000000000000000000000000 PUSH1 0x0 DUP3 ADD MSTORE POP JUMP JUMPDEST PUSH1 0x0 PUSH2 0x1FE9 PUSH1 0xA DUP4 PUSH2 0x1ED6 JUMP JUMPDEST SWAP2 POP PUSH2 0x1FF4 DUP3 PUSH2 0x1FB3 JUMP JUMPDEST PUSH1 0x20 DUP3 ADD SWAP1 POP SWAP2 SWAP1 POP JUMP JUMPDEST PUSH1 0x0 PUSH1 0x20 DUP3 ADD SWAP1 POP DUP2 DUP2 SUB PUSH1 0x0 DUP4 ADD MSTORE PUSH2 0x2018 DUP2 PUSH2 0x1FDC JUMP JUMPDEST SWAP1 POP SWAP2 SWAP1 POP JUMP JUMPDEST PUSH1 0x0 DUP2 MLOAD SWAP1 POP PUSH2 0x202E DUP2 PUSH2 0x1B85 JUMP JUMPDEST SWAP3 SWAP2 POP POP JUMP JUMPDEST PUSH1 0x0 PUSH1 0x20 DUP3 DUP5 SUB SLT ISZERO PUSH2 0x204A JUMPI PUSH2 0x2049 PUSH2 0x1B80 JUMP JUMPDEST JUMPDEST PUSH1 0x0 PUSH2 0x2058 DUP5 DUP3 DUP6 ADD PUSH2 0x201F JUMP JUMPDEST SWAP2 POP POP SWAP3 SWAP2 POP POP JUMP JUMPDEST PUSH32 0x496E76616C696420455243323020726573657276657300000000000000000000 PUSH1 0x0 DUP3 ADD MSTORE POP JUMP JUMPDEST PUSH1 0x0 PUSH2 0x2097 PUSH1 0x16 DUP4 PUSH2 0x1ED6 JUMP JUMPDEST SWAP2 POP PUSH2 0x20A2 DUP3 PUSH2 0x2061 JUMP JUMPDEST PUSH1 0x20 DUP3 ADD SWAP1 POP SWAP2 SWAP1 POP JUMP JUMPDEST PUSH1 0x0 PUSH1 0x20 DUP3 ADD SWAP1 POP DUP2 DUP2 SUB PUSH1 0x0 DUP4 ADD MSTORE PUSH2 0x20C6 DUP2 PUSH2 0x208A JUMP JUMPDEST SWAP1 POP SWAP2 SWAP1 POP JUMP JUMPDEST PUSH1 0x0 PUSH2 0x20D8 DUP3 PUSH2 0x1B4C JUMP JUMPDEST SWAP2 POP PUSH2 0x20E3 DUP4 PUSH2 0x1B4C JUMP JUMPDEST SWAP3 POP DUP3 DUP3 ADD SWAP1 POP DUP1 DUP3 GT ISZERO PUSH2 0x20FB JUMPI PUSH2 0x20FA PUSH2 0x1E65 JUMP JUMPDEST JUMPDEST SWAP3 SWAP2 POP POP JUMP JUMPDEST PUSH32 0x45544820616D6F756E74206D69736D6174636800000000000000000000000000 PUSH1 0x0 DUP3 ADD MSTORE POP JUMP JUMPDEST PUSH1 0x0 PUSH2 0x2137 PUSH1 0x13 DUP4 PUSH2 0x1ED6 JUMP JUMPDEST SWAP2 POP PUSH2 0x2142 DUP3 PUSH2 0x2101 JUMP JUMPDEST PUSH1 0x20 DUP3 ADD SWAP1 POP SWAP2 SWAP1 POP JUMP JUMPDEST PUSH1 0x0 PUSH1 0x20 DUP3 ADD SWAP1 POP DUP2 DUP2 SUB PUSH1 0x0 DUP4 ADD MSTORE PUSH2 0x2166 DUP2 PUSH2 0x212A JUMP JUMPDEST SWAP1 POP SWAP2 SWAP1 POP JUMP JUMPDEST PUSH32 0x496E73756666696369656E74206F757470757420616D6F756E74000000000000 PUSH1 0x0 DUP3 ADD MSTORE POP JUMP JUMPDEST PUSH1 0x0 PUSH2 0x21A3 PUSH1 0x1A DUP4 PUSH2 0x1ED6 JUMP JUMPDEST SWAP2 POP PUSH2 0x21AE DUP3 PUSH2 0x216D JUMP JUMPDEST PUSH1 0x20 DUP3 ADD SWAP1 POP SWAP2 SWAP1 POP JUMP JUMPDEST PUSH1 0x0 PUSH1 0x20 DUP3 ADD SWAP1 POP DUP2 DUP2 SUB PUSH1 0x0 DUP4 ADD MSTORE PUSH2 0x21D2 DUP2 PUSH2 0x2196 JUMP JUMPDEST SWAP1 POP SWAP2 SWAP1 POP JUMP JUMPDEST PUSH1 0x0 PUSH2 0x21E4 DUP3 PUSH2 0x1B4C JUMP JUMPDEST SWAP2 POP PUSH2 0x21EF DUP4 PUSH2 0x1B4C JUMP JUMPDEST SWAP3 POP DUP3 DUP3 SUB SWAP1 POP DUP2 DUP2 GT ISZERO PUSH2 0x2207 JUMPI PUSH2 0x2206 PUSH2 0x1E65 JUMP JUMPDEST JUMPDEST SWAP3 SWAP2 POP POP JUMP JUMPDEST PUSH32 0x536C69704C6F636B000000000000000000000000000000000000000000000000 PUSH1 0x0 DUP3 ADD MSTORE POP JUMP JUMPDEST PUSH1 0x0 PUSH2 0x2243 PUSH1 0x8 DUP4 PUSH2 0x1ED6 JUMP JUMPDEST SWAP2 POP PUSH2 0x224E DUP3 PUSH2 0x220D JUMP JUMPDEST PUSH1 0x20 DUP3 ADD SWAP1 POP SWAP2 SWAP1 POP JUMP JUMPDEST PUSH1 0x0 PUSH1 0x20 DUP3 ADD SWAP1 POP DUP2 DUP2 SUB PUSH1 0x0 DUP4 ADD MSTORE PUSH2 0x2272 DUP2 PUSH2 0x2236 JUMP JUMPDEST SWAP1 POP SWAP2 SWAP1 POP JUMP JUMPDEST PUSH1 0x0 PUSH1 0x40 DUP3 ADD SWAP1 POP PUSH2 0x228E PUSH1 0x0 DUP4 ADD DUP6 PUSH2 0x1D25 JUMP JUMPDEST PUSH2 0x229B PUSH1 0x20 DUP4 ADD DUP5 PUSH2 0x1B56 JUMP JUMPDEST SWAP4 SWAP3 POP POP POP JUMP JUMPDEST PUSH32 0x496E73756666696369656E742062616C616E6365000000000000000000000000 PUSH1 0x0 DUP3 ADD MSTORE POP JUMP JUMPDEST PUSH1 0x0 PUSH2 0x22D8 PUSH1 0x14 DUP4 PUSH2 0x1ED6 JUMP JUMPDEST SWAP2 POP PUSH2 0x22E3 DUP3 PUSH2 0x22A2 JUMP JUMPDEST PUSH1 0x20 DUP3 ADD SWAP1 POP SWAP2 SWAP1 POP JUMP JUMPDEST PUSH1 0x0 PUSH1 0x20 DUP3 ADD SWAP1 POP DUP2 DUP2 SUB PUSH1 0x0 DUP4 ADD MSTORE PUSH2 0x2307 DUP2 PUSH2 0x22CB JUMP JUMPDEST SWAP1 POP SWAP2 SWAP1 POP JUMP JUMPDEST PUSH32 0x496E76616C696420455448207265736572766573000000000000000000000000 PUSH1 0x0 DUP3 ADD MSTORE POP JUMP JUMPDEST PUSH1 0x0 PUSH2 0x2344 PUSH1 0x14 DUP4 PUSH2 0x1ED6 JUMP JUMPDEST SWAP2 POP PUSH2 0x234F DUP3 PUSH2 0x230E JUMP JUMPDEST PUSH1 0x20 DUP3 ADD SWAP1 POP SWAP2 SWAP1 POP JUMP JUMPDEST PUSH1 0x0 PUSH1 0x20 DUP3 ADD SWAP1 POP DUP2 DUP2 SUB PUSH1 0x0 DUP4 ADD MSTORE PUSH2 0x2373 DUP2 PUSH2 0x2337 JUMP JUMPDEST SWAP1 POP SWAP2 SWAP1 POP JUMP JUMPDEST PUSH1 0x0 PUSH1 0xFF DUP3 AND SWAP1 POP SWAP2 SWAP1 POP JUMP JUMPDEST PUSH2 0x2390 DUP2 PUSH2 0x237A JUMP JUMPDEST DUP2 EQ PUSH2 0x239B JUMPI PUSH1 0x0 DUP1 REVERT JUMPDEST POP JUMP JUMPDEST PUSH1 0x0 DUP2 MLOAD SWAP1 POP PUSH2 0x23AD DUP2 PUSH2 0x2387 JUMP JUMPDEST SWAP3 SWAP2 POP POP JUMP JUMPDEST PUSH1 0x0 PUSH1 0x20 DUP3 DUP5 SUB SLT ISZERO PUSH2 0x23C9 JUMPI PUSH2 0x23C8 PUSH2 0x1B80 JUMP JUMPDEST JUMPDEST PUSH1 0x0 PUSH2 0x23D7 DUP5 DUP3 DUP6 ADD PUSH2 0x239E JUMP JUMPDEST SWAP2 POP POP SWAP3 SWAP2 POP POP JUMP JUMPDEST PUSH1 0x0 DUP2 PUSH1 0x1 SHR SWAP1 POP SWAP2 SWAP1 POP JUMP JUMPDEST PUSH1 0x0 DUP1 DUP3 SWAP2 POP DUP4 SWAP1 POP JUMPDEST PUSH1 0x1 DUP6 GT ISZERO PUSH2 0x2437 JUMPI DUP1 DUP7 DIV DUP2 GT ISZERO PUSH2 0x2413 JUMPI PUSH2 0x2412 PUSH2 0x1E65 JUMP JUMPDEST JUMPDEST PUSH1 0x1 DUP6 AND ISZERO PUSH2 0x2422 JUMPI DUP1 DUP3 MUL SWAP2 POP JUMPDEST DUP1 DUP2 MUL SWAP1 POP PUSH2 0x2430 DUP6 PUSH2 0x23E0 JUMP JUMPDEST SWAP5 POP PUSH2 0x23F7 JUMP JUMPDEST SWAP5 POP SWAP5 SWAP3 POP POP POP JUMP JUMPDEST PUSH1 0x0 DUP3 PUSH2 0x2450 JUMPI PUSH1 0x1 SWAP1 POP PUSH2 0x250C JUMP JUMPDEST DUP2 PUSH2 0x245E JUMPI PUSH1 0x0 SWAP1 POP PUSH2 0x250C JUMP JUMPDEST DUP2 PUSH1 0x1 DUP2 EQ PUSH2 0x2474 JUMPI PUSH1 0x2 DUP2 EQ PUSH2 0x247E JUMPI PUSH2 0x24AD JUMP JUMPDEST PUSH1 0x1 SWAP2 POP POP PUSH2 0x250C JUMP JUMPDEST PUSH1 0xFF DUP5 GT ISZERO PUSH2 0x2490 JUMPI PUSH2 0x248F PUSH2 0x1E65 JUMP JUMPDEST JUMPDEST DUP4 PUSH1 0x2 EXP SWAP2 POP DUP5 DUP3 GT ISZERO PUSH2 0x24A7 JUMPI PUSH2 0x24A6 PUSH2 0x1E65 JUMP JUMPDEST JUMPDEST POP PUSH2 0x250C JUMP JUMPDEST POP PUSH1 0x20 DUP4 LT PUSH2 0x133 DUP4 LT AND PUSH1 0x4E DUP5 LT PUSH1 0xB DUP5 LT AND OR ISZERO PUSH2 0x24E2 JUMPI DUP3 DUP3 EXP SWAP1 POP DUP4 DUP2 GT ISZERO PUSH2 0x24DD JUMPI PUSH2 0x24DC PUSH2 0x1E65 JUMP JUMPDEST JUMPDEST PUSH2 0x250C JUMP JUMPDEST PUSH2 0x24EF DUP5 DUP5 DUP5 PUSH1 0x1 PUSH2 0x23ED JUMP JUMPDEST SWAP3 POP SWAP1 POP DUP2 DUP5 DIV DUP2 GT ISZERO PUSH2 0x2506 JUMPI PUSH2 0x2505 PUSH2 0x1E65 JUMP JUMPDEST JUMPDEST DUP2 DUP2 MUL SWAP1 POP JUMPDEST SWAP4 SWAP3 POP POP POP JUMP JUMPDEST PUSH1 0x0 PUSH2 0x251E DUP3 PUSH2 0x1B4C JUMP JUMPDEST SWAP2 POP PUSH2 0x2529 DUP4 PUSH2 0x1B4C JUMP JUMPDEST SWAP3 POP PUSH2 0x2556 PUSH32 0xFFFFFFFFFFFFFFFFFFFFFFFFFFFFFFFFFFFFFFFFFFFFFFFFFFFFFFFFFFFFFFFF DUP5 DUP5 PUSH2 0x2440 JUMP JUMPDEST SWAP1 POP SWAP3 SWAP2 POP POP JUMP JUMPDEST PUSH32 0x616D6F756E74455448206F7220616D6F756E74455243203D2030000000000000 PUSH1 0x0 DUP3 ADD MSTORE POP JUMP JUMPDEST PUSH1 0x0 PUSH2 0x2594 PUSH1 0x1A DUP4 PUSH2 0x1ED6 JUMP JUMPDEST SWAP2 POP PUSH2 0x259F DUP3 PUSH2 0x255E JUMP JUMPDEST PUSH1 0x20 DUP3 ADD SWAP1 POP SWAP2 SWAP1 POP JUMP JUMPDEST PUSH1 0x0 PUSH1 0x20 DUP3 ADD SWAP1 POP DUP2 DUP2 SUB PUSH1 0x0 DUP4 ADD MSTORE PUSH2 0x25C3 DUP2 PUSH2 0x2587 JUMP JUMPDEST SWAP1 POP SWAP2 SWAP1 POP JUMP INVALID LOG2 PUSH5 0x6970667358 0x22 SLT KECCAK256 0xCC 0x4A 0xBA CALLDATACOPY DIV 0xF8 ADDMOD SMOD SWAP10 0xE4 0x49 SWAP6 PUSH10 0x8B45DF3320985C83A1F9 0xE0 0xD PUSH6 0x4D788DA93A9A PUSH5 0x736F6C6343 STOP ADDMOD SLT STOP CALLER "
				},
				"gasEstimates": {
					"creation": {
						"codeDepositCost": "1945600",
						"executionCost": "infinite",
						"totalCost": "infinite"
					},
					"external": {
						"ETH_ADDRESS()": "467",
						"addLiquidity(uint256)": "infinite",
						"balanceOf(address)": "2881",
						"getERCPrice()": "infinite",
						"getETHPrice()": "infinite",
						"getInERCPredictOutputETH(uint256)": "infinite",
						"getInETHPredictOutputERC(uint256)": "infinite",
						"my_shars()": "2549",
						"removeAllLiquidity(address)": "infinite",
						"removeLiquidity(address,uint256)": "infinite",
						"removeLiquidity(uint256)": "infinite",
						"reserveERC()": "2473",
						"reserveETH()": "2453",
						"sharesOf(address)": "2907",
						"swap(uint256)": "infinite",
						"swapTokenForETH(uint256)": "infinite",
						"swapTokenForETH_WithSlipLock(uint256,uint256,uint256)": "infinite",
						"swap_WithSlipLock(uint256,uint256,uint256)": "infinite",
						"token()": "infinite",
						"totalSupply()": "2475"
					},
					"internal": {
						"_burn(address,uint256)": "infinite",
						"_min(uint256,uint256)": "infinite",
						"_mint(address,uint256)": "infinite",
						"_removeLiquidity(address,uint256)": "infinite",
						"_sqrt(uint256)": "infinite",
						"_update(uint256,uint256)": "44241"
					}
				},
				"methodIdentifiers": {
					"ETH_ADDRESS()": "a734f06e",
					"addLiquidity(uint256)": "51c6590a",
					"balanceOf(address)": "70a08231",
					"getERCPrice()": "fcc2ba08",
					"getETHPrice()": "a607a8d9",
					"getInERCPredictOutputETH(uint256)": "dccc5fea",
					"getInETHPredictOutputERC(uint256)": "56c1d7eb",
					"my_shars()": "6cae4f84",
					"removeAllLiquidity(address)": "7a6a5e1b",
					"removeLiquidity(address,uint256)": "a201ccf6",
					"removeLiquidity(uint256)": "9c8f9f23",
					"reserveERC()": "e764e67c",
					"reserveETH()": "100af203",
					"sharesOf(address)": "f5eb42dc",
					"swap(uint256)": "94b918de",
					"swapTokenForETH(uint256)": "6fb84b74",
					"swapTokenForETH_WithSlipLock(uint256,uint256,uint256)": "dc2d845b",
					"swap_WithSlipLock(uint256,uint256,uint256)": "62279b65",
					"token()": "fc0c546a",
					"totalSupply()": "18160ddd"
				}
			},
			"storageLayout": {
				"storage": [
					{
						"astId": 1583,
						"contract": "W6/simpleAMM/src/simpleAMMV6.sol:AMM",
						"label": "developer",
						"offset": 0,
						"slot": "0",
						"type": "t_address"
					},
					{
						"astId": 1594,
						"contract": "W6/simpleAMM/src/simpleAMMV6.sol:AMM",
						"label": "reserveETH",
						"offset": 0,
						"slot": "1",
						"type": "t_uint256"
					},
					{
						"astId": 1596,
						"contract": "W6/simpleAMM/src/simpleAMMV6.sol:AMM",
						"label": "reserveERC",
						"offset": 0,
						"slot": "2",
						"type": "t_uint256"
					},
					{
						"astId": 1598,
						"contract": "W6/simpleAMM/src/simpleAMMV6.sol:AMM",
						"label": "totalSupply",
						"offset": 0,
						"slot": "3",
						"type": "t_uint256"
					},
					{
						"astId": 1602,
						"contract": "W6/simpleAMM/src/simpleAMMV6.sol:AMM",
						"label": "balanceOf",
						"offset": 0,
						"slot": "4",
						"type": "t_mapping(t_address,t_uint256)"
					}
				],
				"types": {
					"t_address": {
						"encoding": "inplace",
						"label": "address",
						"numberOfBytes": "20"
					},
					"t_mapping(t_address,t_uint256)": {
						"encoding": "mapping",
						"key": "t_address",
						"label": "mapping(address => uint256)",
						"numberOfBytes": "32",
						"value": "t_uint256"
					},
					"t_uint256": {
						"encoding": "inplace",
						"label": "uint256",
						"numberOfBytes": "32"
					}
				}
			},
			"userdoc": {
				"kind": "user",
				"methods": {},
				"version": 1
			}
		}
	}
}