{
	"W6/simpleAMM/src/simpleAMMV6.sol": {
		"AMM": {
			"abi": [
				{
					"inputs": [
						{
							"internalType": "address",
							"name": "_token",
							"type": "address"
						}
					],
					"stateMutability": "nonpayable",
					"type": "constructor"
				},
				{
					"inputs": [],
					"name": "ETH_ADDRESS",
					"outputs": [
						{
							"internalType": "address",
							"name": "",
							"type": "address"
						}
					],
					"stateMutability": "view",
					"type": "function"
				},
				{
					"inputs": [
						{
							"internalType": "uint256",
							"name": "_amount1",
							"type": "uint256"
						}
					],
					"name": "addLiquidity",
					"outputs": [
						{
							"internalType": "uint256",
							"name": "shares",
							"type": "uint256"
						}
					],
					"stateMutability": "payable",
					"type": "function"
				},
				{
					"inputs": [
						{
							"internalType": "address",
							"name": "",
							"type": "address"
						}
					],
					"name": "balanceOf",
					"outputs": [
						{
							"internalType": "uint256",
							"name": "",
							"type": "uint256"
						}
					],
					"stateMutability": "view",
					"type": "function"
				},
				{
					"inputs": [],
					"name": "getERCPrice",
					"outputs": [
						{
							"internalType": "uint256",
							"name": "",
							"type": "uint256"
						}
					],
					"stateMutability": "view",
					"type": "function"
				},
				{
					"inputs": [],
					"name": "getETHPrice",
					"outputs": [
						{
							"internalType": "uint256",
							"name": "",
							"type": "uint256"
						}
					],
					"stateMutability": "view",
					"type": "function"
				},
				{
					"inputs": [
						{
							"internalType": "uint256",
							"name": "_amount",
							"type": "uint256"
						}
					],
					"name": "getInERCPredictOutputETH",
					"outputs": [
						{
							"internalType": "uint256",
							"name": "",
							"type": "uint256"
						}
					],
					"stateMutability": "view",
					"type": "function"
				},
				{
					"inputs": [
						{
							"internalType": "uint256",
							"name": "_amount",
							"type": "uint256"
						}
					],
					"name": "getInETHPredictOutputERC",
					"outputs": [
						{
							"internalType": "uint256",
							"name": "",
							"type": "uint256"
						}
					],
					"stateMutability": "view",
					"type": "function"
				},
				{
					"inputs": [],
					"name": "my_shars",
					"outputs": [
						{
							"internalType": "uint256",
							"name": "",
							"type": "uint256"
						}
					],
					"stateMutability": "view",
					"type": "function"
				},
				{
					"inputs": [
						{
							"internalType": "address",
							"name": "_user",
							"type": "address"
						}
					],
					"name": "removeAllLiquidity",
					"outputs": [
						{
							"internalType": "uint256",
							"name": "amount0",
							"type": "uint256"
						},
						{
							"internalType": "uint256",
							"name": "amount1",
							"type": "uint256"
						}
					],
					"stateMutability": "nonpayable",
					"type": "function"
				},
				{
					"inputs": [
						{
							"internalType": "uint256",
							"name": "_shares",
							"type": "uint256"
						}
					],
					"name": "removeLiquidity",
					"outputs": [
						{
							"internalType": "uint256",
							"name": "amount0",
							"type": "uint256"
						},
						{
							"internalType": "uint256",
							"name": "amount1",
							"type": "uint256"
						}
					],
					"stateMutability": "nonpayable",
					"type": "function"
				},
				{
					"inputs": [
						{
							"internalType": "address",
							"name": "_user",
							"type": "address"
						},
						{
							"internalType": "uint256",
							"name": "_shares",
							"type": "uint256"
						}
					],
					"name": "removeLiquidity",
					"outputs": [
						{
							"internalType": "uint256",
							"name": "amount0",
							"type": "uint256"
						},
						{
							"internalType": "uint256",
							"name": "amount1",
							"type": "uint256"
						}
					],
					"stateMutability": "nonpayable",
					"type": "function"
				},
				{
					"inputs": [],
					"name": "reserve0",
					"outputs": [
						{
							"internalType": "uint256",
							"name": "",
							"type": "uint256"
						}
					],
					"stateMutability": "view",
					"type": "function"
				},
				{
					"inputs": [],
					"name": "reserve1",
					"outputs": [
						{
							"internalType": "uint256",
							"name": "",
							"type": "uint256"
						}
					],
					"stateMutability": "view",
					"type": "function"
				},
				{
					"inputs": [
						{
							"internalType": "address",
							"name": "_user",
							"type": "address"
						}
					],
					"name": "sharesOf",
					"outputs": [
						{
							"internalType": "uint256",
							"name": "",
							"type": "uint256"
						}
					],
					"stateMutability": "view",
					"type": "function"
				},
				{
					"inputs": [
						{
							"internalType": "uint256",
							"name": "_amountIn",
							"type": "uint256"
						}
					],
					"name": "swap",
					"outputs": [
						{
							"internalType": "uint256",
							"name": "amountOut",
							"type": "uint256"
						}
					],
					"stateMutability": "payable",
					"type": "function"
				},
				{
					"inputs": [
						{
							"internalType": "uint256",
							"name": "_amountIn",
							"type": "uint256"
						}
					],
					"name": "swapTokenForETH",
					"outputs": [
						{
							"internalType": "uint256",
							"name": "amountOut",
							"type": "uint256"
						}
					],
					"stateMutability": "nonpayable",
					"type": "function"
				},
				{
					"inputs": [
						{
							"internalType": "uint256",
							"name": "_amountIn",
							"type": "uint256"
						},
						{
							"internalType": "uint256",
							"name": "_forwardOutput",
							"type": "uint256"
						},
						{
							"internalType": "uint256",
							"name": "_slipLock",
							"type": "uint256"
						}
					],
					"name": "swapTokenForETH_WithSlipLock",
					"outputs": [
						{
							"internalType": "uint256",
							"name": "amountOut",
							"type": "uint256"
						}
					],
					"stateMutability": "nonpayable",
					"type": "function"
				},
				{
					"inputs": [
						{
							"internalType": "uint256",
							"name": "_amountIn",
							"type": "uint256"
						},
						{
							"internalType": "uint256",
							"name": "_forwardOutput",
							"type": "uint256"
						},
						{
							"internalType": "uint256",
							"name": "_slipLock",
							"type": "uint256"
						}
					],
					"name": "swap_WithSlipLock",
					"outputs": [
						{
							"internalType": "uint256",
							"name": "amountOut",
							"type": "uint256"
						}
					],
					"stateMutability": "payable",
					"type": "function"
				},
				{
					"inputs": [],
					"name": "token",
					"outputs": [
						{
							"internalType": "contract IERC20",
							"name": "",
							"type": "address"
						}
					],
					"stateMutability": "view",
					"type": "function"
				},
				{
					"inputs": [],
					"name": "totalSupply",
					"outputs": [
						{
							"internalType": "uint256",
							"name": "",
							"type": "uint256"
						}
					],
					"stateMutability": "view",
					"type": "function"
				}
			],
			"devdoc": {
				"kind": "dev",
				"methods": {},
				"version": 1
			},
			"evm": {
				"assembly": "    /* \"W6/simpleAMM/src/simpleAMMV6.sol\":639:7895  contract AMM {... */\n  mstore(0x40, 0xa0)\n    /* \"W6/simpleAMM/src/simpleAMMV6.sol\":942:1044  constructor(address _token) {... */\n  callvalue\n  dup1\n  iszero\n  tag_1\n  jumpi\n  0x00\n  dup1\n  revert\ntag_1:\n  pop\n  mload(0x40)\n  sub(codesize, bytecodeSize)\n  dup1\n  bytecodeSize\n  dup4\n  codecopy\n  dup2\n  dup2\n  add\n  0x40\n  mstore\n  dup2\n  add\n  swap1\n  tag_2\n  swap2\n  swap1\n  tag_3\n  jump\t// in\ntag_2:\n    /* \"W6/simpleAMM/src/simpleAMMV6.sol\":993:1003  msg.sender */\n  caller\n    /* \"W6/simpleAMM/src/simpleAMMV6.sol\":981:990  developer */\n  0x00\n  dup1\n    /* \"W6/simpleAMM/src/simpleAMMV6.sol\":981:1003  developer = msg.sender */\n  0x0100\n  exp\n  dup2\n  sload\n  dup2\n  0xffffffffffffffffffffffffffffffffffffffff\n  mul\n  not\n  and\n  swap1\n  dup4\n  0xffffffffffffffffffffffffffffffffffffffff\n  and\n  mul\n  or\n  swap1\n  sstore\n  pop\n    /* \"W6/simpleAMM/src/simpleAMMV6.sol\":1029:1035  _token */\n  dup1\n    /* \"W6/simpleAMM/src/simpleAMMV6.sol\":1014:1036  token = IERC20(_token) */\n  0xffffffffffffffffffffffffffffffffffffffff\n  and\n  0x80\n  dup2\n  0xffffffffffffffffffffffffffffffffffffffff\n  and\n  dup2\n  mstore\n  pop\n  pop\n    /* \"W6/simpleAMM/src/simpleAMMV6.sol\":942:1044  constructor(address _token) {... */\n  pop\n    /* \"W6/simpleAMM/src/simpleAMMV6.sol\":639:7895  contract AMM {... */\n  jump(tag_6)\n    /* \"#utility.yul\":88:205   */\ntag_8:\n    /* \"#utility.yul\":197:198   */\n  0x00\n    /* \"#utility.yul\":194:195   */\n  dup1\n    /* \"#utility.yul\":187:199   */\n  revert\n    /* \"#utility.yul\":334:460   */\ntag_10:\n    /* \"#utility.yul\":371:378   */\n  0x00\n    /* \"#utility.yul\":411:453   */\n  0xffffffffffffffffffffffffffffffffffffffff\n    /* \"#utility.yul\":404:409   */\n  dup3\n    /* \"#utility.yul\":400:454   */\n  and\n    /* \"#utility.yul\":389:454   */\n  swap1\n  pop\n    /* \"#utility.yul\":334:460   */\n  swap2\n  swap1\n  pop\n  jump\t// out\n    /* \"#utility.yul\":466:562   */\ntag_11:\n    /* \"#utility.yul\":503:510   */\n  0x00\n    /* \"#utility.yul\":532:556   */\n  tag_20\n    /* \"#utility.yul\":550:555   */\n  dup3\n    /* \"#utility.yul\":532:556   */\n  tag_10\n  jump\t// in\ntag_20:\n    /* \"#utility.yul\":521:556   */\n  swap1\n  pop\n    /* \"#utility.yul\":466:562   */\n  swap2\n  swap1\n  pop\n  jump\t// out\n    /* \"#utility.yul\":568:690   */\ntag_12:\n    /* \"#utility.yul\":641:665   */\n  tag_22\n    /* \"#utility.yul\":659:664   */\n  dup2\n    /* \"#utility.yul\":641:665   */\n  tag_11\n  jump\t// in\ntag_22:\n    /* \"#utility.yul\":634:639   */\n  dup2\n    /* \"#utility.yul\":631:666   */\n  eq\n    /* \"#utility.yul\":621:684   */\n  tag_23\n  jumpi\n    /* \"#utility.yul\":680:681   */\n  0x00\n    /* \"#utility.yul\":677:678   */\n  dup1\n    /* \"#utility.yul\":670:682   */\n  revert\n    /* \"#utility.yul\":621:684   */\ntag_23:\n    /* \"#utility.yul\":568:690   */\n  pop\n  jump\t// out\n    /* \"#utility.yul\":696:839   */\ntag_13:\n    /* \"#utility.yul\":753:758   */\n  0x00\n    /* \"#utility.yul\":784:790   */\n  dup2\n    /* \"#utility.yul\":778:791   */\n  mload\n    /* \"#utility.yul\":769:791   */\n  swap1\n  pop\n    /* \"#utility.yul\":800:833   */\n  tag_25\n    /* \"#utility.yul\":827:832   */\n  dup2\n    /* \"#utility.yul\":800:833   */\n  tag_12\n  jump\t// in\ntag_25:\n    /* \"#utility.yul\":696:839   */\n  swap3\n  swap2\n  pop\n  pop\n  jump\t// out\n    /* \"#utility.yul\":845:1196   */\ntag_3:\n    /* \"#utility.yul\":915:921   */\n  0x00\n    /* \"#utility.yul\":964:966   */\n  0x20\n    /* \"#utility.yul\":952:961   */\n  dup3\n    /* \"#utility.yul\":943:950   */\n  dup5\n    /* \"#utility.yul\":939:962   */\n  sub\n    /* \"#utility.yul\":935:967   */\n  slt\n    /* \"#utility.yul\":932:1051   */\n  iszero\n  tag_27\n  jumpi\n    /* \"#utility.yul\":970:1049   */\n  tag_28\n  tag_8\n  jump\t// in\ntag_28:\n    /* \"#utility.yul\":932:1051   */\ntag_27:\n    /* \"#utility.yul\":1090:1091   */\n  0x00\n    /* \"#utility.yul\":1115:1179   */\n  tag_29\n    /* \"#utility.yul\":1171:1178   */\n  dup5\n    /* \"#utility.yul\":1162:1168   */\n  dup3\n    /* \"#utility.yul\":1151:1160   */\n  dup6\n    /* \"#utility.yul\":1147:1169   */\n  add\n    /* \"#utility.yul\":1115:1179   */\n  tag_13\n  jump\t// in\ntag_29:\n    /* \"#utility.yul\":1105:1179   */\n  swap2\n  pop\n    /* \"#utility.yul\":1061:1189   */\n  pop\n    /* \"#utility.yul\":845:1196   */\n  swap3\n  swap2\n  pop\n  pop\n  jump\t// out\n    /* \"W6/simpleAMM/src/simpleAMMV6.sol\":639:7895  contract AMM {... */\ntag_6:\n  mload(0x80)\n  codecopy(0x00, dataOffset(sub_0), dataSize(sub_0))\n  0x00\n  assignImmutable(\"0xe9ec5ebbfe521ba5a70e4c2b13332e74dda4e055153dc29723307e62e8ed0f2a\")\n  return(0x00, dataSize(sub_0))\nstop\n\nsub_0: assembly {\n        /* \"W6/simpleAMM/src/simpleAMMV6.sol\":639:7895  contract AMM {... */\n      mstore(0x40, 0x80)\n      jumpi(tag_1, lt(calldatasize, 0x04))\n      shr(0xe0, calldataload(0x00))\n      dup1\n      0x94b918de\n      gt\n      tag_22\n      jumpi\n      dup1\n      0xdc2d845b\n      gt\n      tag_23\n      jumpi\n      dup1\n      0xdc2d845b\n      eq\n      tag_17\n      jumpi\n      dup1\n      0xdccc5fea\n      eq\n      tag_18\n      jumpi\n      dup1\n      0xf5eb42dc\n      eq\n      tag_19\n      jumpi\n      dup1\n      0xfc0c546a\n      eq\n      tag_20\n      jumpi\n      dup1\n      0xfcc2ba08\n      eq\n      tag_21\n      jumpi\n      jump(tag_1)\n    tag_23:\n      dup1\n      0x94b918de\n      eq\n      tag_12\n      jumpi\n      dup1\n      0x9c8f9f23\n      eq\n      tag_13\n      jumpi\n      dup1\n      0xa201ccf6\n      eq\n      tag_14\n      jumpi\n      dup1\n      0xa607a8d9\n      eq\n      tag_15\n      jumpi\n      dup1\n      0xa734f06e\n      eq\n      tag_16\n      jumpi\n      jump(tag_1)\n    tag_22:\n      dup1\n      0x62279b65\n      gt\n      tag_24\n      jumpi\n      dup1\n      0x62279b65\n      eq\n      tag_7\n      jumpi\n      dup1\n      0x6cae4f84\n      eq\n      tag_8\n      jumpi\n      dup1\n      0x6fb84b74\n      eq\n      tag_9\n      jumpi\n      dup1\n      0x70a08231\n      eq\n      tag_10\n      jumpi\n      dup1\n      0x7a6a5e1b\n      eq\n      tag_11\n      jumpi\n      jump(tag_1)\n    tag_24:\n      dup1\n      0x18160ddd\n      eq\n      tag_2\n      jumpi\n      dup1\n      0x443cb4bc\n      eq\n      tag_3\n      jumpi\n      dup1\n      0x51c6590a\n      eq\n      tag_4\n      jumpi\n      dup1\n      0x56c1d7eb\n      eq\n      tag_5\n      jumpi\n      dup1\n      0x5a76f25e\n      eq\n      tag_6\n      jumpi\n    tag_1:\n      0x00\n      dup1\n      revert\n        /* \"W6/simpleAMM/src/simpleAMMV6.sol\":856:882  uint256 public totalSupply */\n    tag_2:\n      callvalue\n      dup1\n      iszero\n      tag_25\n      jumpi\n      0x00\n      dup1\n      revert\n    tag_25:\n      pop\n      tag_26\n      tag_27\n      jump\t// in\n    tag_26:\n      mload(0x40)\n      tag_28\n      swap2\n      swap1\n      tag_29\n      jump\t// in\n    tag_28:\n      mload(0x40)\n      dup1\n      swap2\n      sub\n      swap1\n      return\n        /* \"W6/simpleAMM/src/simpleAMMV6.sol\":778:801  uint256 public reserve0 */\n    tag_3:\n      callvalue\n      dup1\n      iszero\n      tag_30\n      jumpi\n      0x00\n      dup1\n      revert\n    tag_30:\n      pop\n      tag_31\n      tag_32\n      jump\t// in\n    tag_31:\n      mload(0x40)\n      tag_33\n      swap2\n      swap1\n      tag_29\n      jump\t// in\n    tag_33:\n      mload(0x40)\n      dup1\n      swap2\n      sub\n      swap1\n      return\n        /* \"W6/simpleAMM/src/simpleAMMV6.sol\":4241:5006  function addLiquidity(uint256 _amount1) external payable returns (uint256 shares) {... */\n    tag_4:\n      tag_34\n      0x04\n      dup1\n      calldatasize\n      sub\n      dup2\n      add\n      swap1\n      tag_35\n      swap2\n      swap1\n      tag_36\n      jump\t// in\n    tag_35:\n      tag_37\n      jump\t// in\n    tag_34:\n      mload(0x40)\n      tag_38\n      swap2\n      swap1\n      tag_29\n      jump\t// in\n    tag_38:\n      mload(0x40)\n      dup1\n      swap2\n      sub\n      swap1\n      return\n        /* \"W6/simpleAMM/src/simpleAMMV6.sol\":7266:7576  function getInETHPredictOutputERC(uint256 _amount) public view returns (uint256) {... */\n    tag_5:\n      callvalue\n      dup1\n      iszero\n      tag_39\n      jumpi\n      0x00\n      dup1\n      revert\n    tag_39:\n      pop\n      tag_40\n      0x04\n      dup1\n      calldatasize\n      sub\n      dup2\n      add\n      swap1\n      tag_41\n      swap2\n      swap1\n      tag_36\n      jump\t// in\n    tag_41:\n      tag_42\n      jump\t// in\n    tag_40:\n      mload(0x40)\n      tag_43\n      swap2\n      swap1\n      tag_29\n      jump\t// in\n    tag_43:\n      mload(0x40)\n      dup1\n      swap2\n      sub\n      swap1\n      return\n        /* \"W6/simpleAMM/src/simpleAMMV6.sol\":815:838  uint256 public reserve1 */\n    tag_6:\n      callvalue\n      dup1\n      iszero\n      tag_44\n      jumpi\n      0x00\n      dup1\n      revert\n    tag_44:\n      pop\n      tag_45\n      tag_46\n      jump\t// in\n    tag_45:\n      mload(0x40)\n      tag_47\n      swap2\n      swap1\n      tag_29\n      jump\t// in\n    tag_47:\n      mload(0x40)\n      dup1\n      swap2\n      sub\n      swap1\n      return\n        /* \"W6/simpleAMM/src/simpleAMMV6.sol\":2710:3493  function swap_WithSlipLock(uint256 _amountIn,uint256 _forwardOutput,uint256 _slipLock) public payable returns (uint256 amountOut)... */\n    tag_7:\n      tag_48\n      0x04\n      dup1\n      calldatasize\n      sub\n      dup2\n      add\n      swap1\n      tag_49\n      swap2\n      swap1\n      tag_50\n      jump\t// in\n    tag_49:\n      tag_51\n      jump\t// in\n    tag_48:\n      mload(0x40)\n      tag_52\n      swap2\n      swap1\n      tag_29\n      jump\t// in\n    tag_52:\n      mload(0x40)\n      dup1\n      swap2\n      sub\n      swap1\n      return\n        /* \"W6/simpleAMM/src/simpleAMMV6.sol\":6185:6280  function my_shars() public view returns(uint256){... */\n    tag_8:\n      callvalue\n      dup1\n      iszero\n      tag_53\n      jumpi\n      0x00\n      dup1\n      revert\n    tag_53:\n      pop\n      tag_54\n      tag_55\n      jump\t// in\n    tag_54:\n      mload(0x40)\n      tag_56\n      swap2\n      swap1\n      tag_29\n      jump\t// in\n    tag_56:\n      mload(0x40)\n      dup1\n      swap2\n      sub\n      swap1\n      return\n        /* \"W6/simpleAMM/src/simpleAMMV6.sol\":2056:2704  function swapTokenForETH(uint256 _amountIn) public returns (uint256 amountOut) {... */\n    tag_9:\n      callvalue\n      dup1\n      iszero\n      tag_57\n      jumpi\n      0x00\n      dup1\n      revert\n    tag_57:\n      pop\n      tag_58\n      0x04\n      dup1\n      calldatasize\n      sub\n      dup2\n      add\n      swap1\n      tag_59\n      swap2\n      swap1\n      tag_36\n      jump\t// in\n    tag_59:\n      tag_60\n      jump\t// in\n    tag_58:\n      mload(0x40)\n      tag_61\n      swap2\n      swap1\n      tag_29\n      jump\t// in\n    tag_61:\n      mload(0x40)\n      dup1\n      swap2\n      sub\n      swap1\n      return\n        /* \"W6/simpleAMM/src/simpleAMMV6.sol\":889:933  mapping(address => uint256) public balanceOf */\n    tag_10:\n      callvalue\n      dup1\n      iszero\n      tag_62\n      jumpi\n      0x00\n      dup1\n      revert\n    tag_62:\n      pop\n      tag_63\n      0x04\n      dup1\n      calldatasize\n      sub\n      dup2\n      add\n      swap1\n      tag_64\n      swap2\n      swap1\n      tag_65\n      jump\t// in\n    tag_64:\n      tag_66\n      jump\t// in\n    tag_63:\n      mload(0x40)\n      tag_67\n      swap2\n      swap1\n      tag_29\n      jump\t// in\n    tag_67:\n      mload(0x40)\n      dup1\n      swap2\n      sub\n      swap1\n      return\n        /* \"W6/simpleAMM/src/simpleAMMV6.sol\":5014:5175  function removeAllLiquidity(address _user) external returns (uint256 amount0, uint256 amount1) {... */\n    tag_11:\n      callvalue\n      dup1\n      iszero\n      tag_68\n      jumpi\n      0x00\n      dup1\n      revert\n    tag_68:\n      pop\n      tag_69\n      0x04\n      dup1\n      calldatasize\n      sub\n      dup2\n      add\n      swap1\n      tag_70\n      swap2\n      swap1\n      tag_65\n      jump\t// in\n    tag_70:\n      tag_71\n      jump\t// in\n    tag_69:\n      mload(0x40)\n      tag_72\n      swap3\n      swap2\n      swap1\n      tag_73\n      jump\t// in\n    tag_72:\n      mload(0x40)\n      dup1\n      swap2\n      sub\n      swap1\n      return\n        /* \"W6/simpleAMM/src/simpleAMMV6.sol\":1473:2050  function swap(uint256 _amountIn) public payable returns (uint256 amountOut) {... */\n    tag_12:\n      tag_74\n      0x04\n      dup1\n      calldatasize\n      sub\n      dup2\n      add\n      swap1\n      tag_75\n      swap2\n      swap1\n      tag_36\n      jump\t// in\n    tag_75:\n      tag_76\n      jump\t// in\n    tag_74:\n      mload(0x40)\n      tag_77\n      swap2\n      swap1\n      tag_29\n      jump\t// in\n    tag_77:\n      mload(0x40)\n      dup1\n      swap2\n      sub\n      swap1\n      return\n        /* \"W6/simpleAMM/src/simpleAMMV6.sol\":5181:5414  function removeLiquidity(uint256 _shares) external returns (uint256 amount0, uint256 amount1) {... */\n    tag_13:\n      callvalue\n      dup1\n      iszero\n      tag_78\n      jumpi\n      0x00\n      dup1\n      revert\n    tag_78:\n      pop\n      tag_79\n      0x04\n      dup1\n      calldatasize\n      sub\n      dup2\n      add\n      swap1\n      tag_80\n      swap2\n      swap1\n      tag_36\n      jump\t// in\n    tag_80:\n      tag_81\n      jump\t// in\n    tag_79:\n      mload(0x40)\n      tag_82\n      swap3\n      swap2\n      swap1\n      tag_73\n      jump\t// in\n    tag_82:\n      mload(0x40)\n      dup1\n      swap2\n      sub\n      swap1\n      return\n        /* \"W6/simpleAMM/src/simpleAMMV6.sol\":5422:5660  function removeLiquidity(address _user, uint256 _shares) external returns (uint256 amount0, uint256 amount1) {... */\n    tag_14:\n      callvalue\n      dup1\n      iszero\n      tag_83\n      jumpi\n      0x00\n      dup1\n      revert\n    tag_83:\n      pop\n      tag_84\n      0x04\n      dup1\n      calldatasize\n      sub\n      dup2\n      add\n      swap1\n      tag_85\n      swap2\n      swap1\n      tag_86\n      jump\t// in\n    tag_85:\n      tag_87\n      jump\t// in\n    tag_84:\n      mload(0x40)\n      tag_88\n      swap3\n      swap2\n      swap1\n      tag_73\n      jump\t// in\n    tag_88:\n      mload(0x40)\n      dup1\n      swap2\n      sub\n      swap1\n      return\n        /* \"W6/simpleAMM/src/simpleAMMV6.sol\":6820:7001  function getETHPrice() public view returns (uint256) {... */\n    tag_15:\n      callvalue\n      dup1\n      iszero\n      tag_89\n      jumpi\n      0x00\n      dup1\n      revert\n    tag_89:\n      pop\n      tag_90\n      tag_91\n      jump\t// in\n    tag_90:\n      mload(0x40)\n      tag_92\n      swap2\n      swap1\n      tag_29\n      jump\t// in\n    tag_92:\n      mload(0x40)\n      dup1\n      swap2\n      sub\n      swap1\n      return\n        /* \"W6/simpleAMM/src/simpleAMMV6.sol\":721:769  address public constant ETH_ADDRESS = address(0) */\n    tag_16:\n      callvalue\n      dup1\n      iszero\n      tag_93\n      jumpi\n      0x00\n      dup1\n      revert\n    tag_93:\n      pop\n      tag_94\n      tag_95\n      jump\t// in\n    tag_94:\n      mload(0x40)\n      tag_96\n      swap2\n      swap1\n      tag_97\n      jump\t// in\n    tag_96:\n      mload(0x40)\n      dup1\n      swap2\n      sub\n      swap1\n      return\n        /* \"W6/simpleAMM/src/simpleAMMV6.sol\":3499:4235  function swapTokenForETH_WithSlipLock(uint256 _amountIn,uint256 _forwardOutput,uint256 _slipLock) public returns (uint256 amountOut) {... */\n    tag_17:\n      callvalue\n      dup1\n      iszero\n      tag_98\n      jumpi\n      0x00\n      dup1\n      revert\n    tag_98:\n      pop\n      tag_99\n      0x04\n      dup1\n      calldatasize\n      sub\n      dup2\n      add\n      swap1\n      tag_100\n      swap2\n      swap1\n      tag_50\n      jump\t// in\n    tag_100:\n      tag_101\n      jump\t// in\n    tag_99:\n      mload(0x40)\n      tag_102\n      swap2\n      swap1\n      tag_29\n      jump\t// in\n    tag_102:\n      mload(0x40)\n      dup1\n      swap2\n      sub\n      swap1\n      return\n        /* \"W6/simpleAMM/src/simpleAMMV6.sol\":7582:7890  function getInERCPredictOutputETH(uint256 _amount) public view returns (uint256) {... */\n    tag_18:\n      callvalue\n      dup1\n      iszero\n      tag_103\n      jumpi\n      0x00\n      dup1\n      revert\n    tag_103:\n      pop\n      tag_104\n      0x04\n      dup1\n      calldatasize\n      sub\n      dup2\n      add\n      swap1\n      tag_105\n      swap2\n      swap1\n      tag_36\n      jump\t// in\n    tag_105:\n      tag_106\n      jump\t// in\n    tag_104:\n      mload(0x40)\n      tag_107\n      swap2\n      swap1\n      tag_29\n      jump\t// in\n    tag_107:\n      mload(0x40)\n      dup1\n      swap2\n      sub\n      swap1\n      return\n        /* \"W6/simpleAMM/src/simpleAMMV6.sol\":6286:6389  function sharesOf(address _user) public view returns(uint256){... */\n    tag_19:\n      callvalue\n      dup1\n      iszero\n      tag_108\n      jumpi\n      0x00\n      dup1\n      revert\n    tag_108:\n      pop\n      tag_109\n      0x04\n      dup1\n      calldatasize\n      sub\n      dup2\n      add\n      swap1\n      tag_110\n      swap2\n      swap1\n      tag_65\n      jump\t// in\n    tag_110:\n      tag_111\n      jump\t// in\n    tag_109:\n      mload(0x40)\n      tag_112\n      swap2\n      swap1\n      tag_29\n      jump\t// in\n    tag_112:\n      mload(0x40)\n      dup1\n      swap2\n      sub\n      swap1\n      return\n        /* \"W6/simpleAMM/src/simpleAMMV6.sol\":685:714  IERC20 public immutable token */\n    tag_20:\n      callvalue\n      dup1\n      iszero\n      tag_113\n      jumpi\n      0x00\n      dup1\n      revert\n    tag_113:\n      pop\n      tag_114\n      tag_115\n      jump\t// in\n    tag_114:\n      mload(0x40)\n      tag_116\n      swap2\n      swap1\n      tag_117\n      jump\t// in\n    tag_116:\n      mload(0x40)\n      dup1\n      swap2\n      sub\n      swap1\n      return\n        /* \"W6/simpleAMM/src/simpleAMMV6.sol\":7007:7258  function getERCPrice() public view returns (uint256) {... */\n    tag_21:\n      callvalue\n      dup1\n      iszero\n      tag_118\n      jumpi\n      0x00\n      dup1\n      revert\n    tag_118:\n      pop\n      tag_119\n      tag_120\n      jump\t// in\n    tag_119:\n      mload(0x40)\n      tag_121\n      swap2\n      swap1\n      tag_29\n      jump\t// in\n    tag_121:\n      mload(0x40)\n      dup1\n      swap2\n      sub\n      swap1\n      return\n        /* \"W6/simpleAMM/src/simpleAMMV6.sol\":856:882  uint256 public totalSupply */\n    tag_27:\n      sload(0x03)\n      dup2\n      jump\t// out\n        /* \"W6/simpleAMM/src/simpleAMMV6.sol\":778:801  uint256 public reserve0 */\n    tag_32:\n      sload(0x01)\n      dup2\n      jump\t// out\n        /* \"W6/simpleAMM/src/simpleAMMV6.sol\":4241:5006  function addLiquidity(uint256 _amount1) external payable returns (uint256 shares) {... */\n    tag_37:\n        /* \"W6/simpleAMM/src/simpleAMMV6.sol\":4307:4321  uint256 shares */\n      0x00\n        /* \"W6/simpleAMM/src/simpleAMMV6.sol\":4334:4339  token */\n      immutable(\"0xe9ec5ebbfe521ba5a70e4c2b13332e74dda4e055153dc29723307e62e8ed0f2a\")\n        /* \"W6/simpleAMM/src/simpleAMMV6.sol\":4334:4352  token.transferFrom */\n      0xffffffffffffffffffffffffffffffffffffffff\n      and\n      0x23b872dd\n        /* \"W6/simpleAMM/src/simpleAMMV6.sol\":4353:4363  msg.sender */\n      caller\n        /* \"W6/simpleAMM/src/simpleAMMV6.sol\":4373:4377  this */\n      address\n        /* \"W6/simpleAMM/src/simpleAMMV6.sol\":4380:4388  _amount1 */\n      dup6\n        /* \"W6/simpleAMM/src/simpleAMMV6.sol\":4334:4389  token.transferFrom(msg.sender, address(this), _amount1) */\n      mload(0x40)\n      dup5\n      0xffffffff\n      and\n      0xe0\n      shl\n      dup2\n      mstore\n      0x04\n      add\n      tag_123\n      swap4\n      swap3\n      swap2\n      swap1\n      tag_124\n      jump\t// in\n    tag_123:\n      0x20\n      mload(0x40)\n      dup1\n      dup4\n      sub\n      dup2\n      0x00\n      dup8\n      gas\n      call\n      iszero\n      dup1\n      iszero\n      tag_126\n      jumpi\n      returndatasize\n      0x00\n      dup1\n      returndatacopy\n      revert(0x00, returndatasize)\n    tag_126:\n      pop\n      pop\n      pop\n      pop\n      mload(0x40)\n      returndatasize\n      not(0x1f)\n      0x1f\n      dup3\n      add\n      and\n      dup3\n      add\n      dup1\n      0x40\n      mstore\n      pop\n      dup2\n      add\n      swap1\n      tag_127\n      swap2\n      swap1\n      tag_128\n      jump\t// in\n    tag_127:\n      pop\n        /* \"W6/simpleAMM/src/simpleAMMV6.sol\":4402:4418  uint256 _amount0 */\n      0x00\n        /* \"W6/simpleAMM/src/simpleAMMV6.sol\":4421:4430  msg.value */\n      callvalue\n        /* \"W6/simpleAMM/src/simpleAMMV6.sol\":4402:4430  uint256 _amount0 = msg.value */\n      swap1\n      pop\n        /* \"W6/simpleAMM/src/simpleAMMV6.sol\":4458:4459  0 */\n      0x00\n        /* \"W6/simpleAMM/src/simpleAMMV6.sol\":4447:4455  reserve0 */\n      sload(0x01)\n        /* \"W6/simpleAMM/src/simpleAMMV6.sol\":4447:4459  reserve0 > 0 */\n      gt\n        /* \"W6/simpleAMM/src/simpleAMMV6.sol\":4447:4475  reserve0 > 0 || reserve1 > 0 */\n      dup1\n      tag_129\n      jumpi\n      pop\n        /* \"W6/simpleAMM/src/simpleAMMV6.sol\":4474:4475  0 */\n      0x00\n        /* \"W6/simpleAMM/src/simpleAMMV6.sol\":4463:4471  reserve1 */\n      sload(0x02)\n        /* \"W6/simpleAMM/src/simpleAMMV6.sol\":4463:4475  reserve1 > 0 */\n      gt\n        /* \"W6/simpleAMM/src/simpleAMMV6.sol\":4447:4475  reserve0 > 0 || reserve1 > 0 */\n    tag_129:\n        /* \"W6/simpleAMM/src/simpleAMMV6.sol\":4443:4575  if (reserve0 > 0 || reserve1 > 0) {... */\n      iszero\n      tag_130\n      jumpi\n        /* \"W6/simpleAMM/src/simpleAMMV6.sol\":4534:4542  _amount0 */\n      dup1\n        /* \"W6/simpleAMM/src/simpleAMMV6.sol\":4523:4531  reserve1 */\n      sload(0x02)\n        /* \"W6/simpleAMM/src/simpleAMMV6.sol\":4523:4542  reserve1 * _amount0 */\n      tag_131\n      swap2\n      swap1\n      tag_132\n      jump\t// in\n    tag_131:\n        /* \"W6/simpleAMM/src/simpleAMMV6.sol\":4511:4519  _amount1 */\n      dup4\n        /* \"W6/simpleAMM/src/simpleAMMV6.sol\":4500:4508  reserve0 */\n      sload(0x01)\n        /* \"W6/simpleAMM/src/simpleAMMV6.sol\":4500:4519  reserve0 * _amount1 */\n      tag_133\n      swap2\n      swap1\n      tag_132\n      jump\t// in\n    tag_133:\n        /* \"W6/simpleAMM/src/simpleAMMV6.sol\":4500:4542  reserve0 * _amount1 == reserve1 * _amount0 */\n      eq\n        /* \"W6/simpleAMM/src/simpleAMMV6.sol\":4492:4563  require(reserve0 * _amount1 == reserve1 * _amount0, \"x / y != dx / dy\") */\n      tag_134\n      jumpi\n      mload(0x40)\n      0x08c379a000000000000000000000000000000000000000000000000000000000\n      dup2\n      mstore\n      0x04\n      add\n      tag_135\n      swap1\n      tag_136\n      jump\t// in\n    tag_135:\n      mload(0x40)\n      dup1\n      swap2\n      sub\n      swap1\n      revert\n    tag_134:\n        /* \"W6/simpleAMM/src/simpleAMMV6.sol\":4443:4575  if (reserve0 > 0 || reserve1 > 0) {... */\n    tag_130:\n        /* \"W6/simpleAMM/src/simpleAMMV6.sol\":4606:4607  0 */\n      0x00\n        /* \"W6/simpleAMM/src/simpleAMMV6.sol\":4591:4602  totalSupply */\n      sload(0x03)\n        /* \"W6/simpleAMM/src/simpleAMMV6.sol\":4591:4607  totalSupply == 0 */\n      sub\n        /* \"W6/simpleAMM/src/simpleAMMV6.sol\":4587:4844  if (totalSupply == 0) {... */\n      tag_137\n      jumpi\n        /* \"W6/simpleAMM/src/simpleAMMV6.sol\":4633:4659  _sqrt(_amount0 * _amount1) */\n      tag_138\n        /* \"W6/simpleAMM/src/simpleAMMV6.sol\":4650:4658  _amount1 */\n      dup4\n        /* \"W6/simpleAMM/src/simpleAMMV6.sol\":4639:4647  _amount0 */\n      dup3\n        /* \"W6/simpleAMM/src/simpleAMMV6.sol\":4639:4658  _amount0 * _amount1 */\n      tag_139\n      swap2\n      swap1\n      tag_132\n      jump\t// in\n    tag_139:\n        /* \"W6/simpleAMM/src/simpleAMMV6.sol\":4633:4638  _sqrt */\n      tag_140\n        /* \"W6/simpleAMM/src/simpleAMMV6.sol\":4633:4659  _sqrt(_amount0 * _amount1) */\n      jump\t// in\n    tag_138:\n        /* \"W6/simpleAMM/src/simpleAMMV6.sol\":4624:4659  shares = _sqrt(_amount0 * _amount1) */\n      swap2\n      pop\n        /* \"W6/simpleAMM/src/simpleAMMV6.sol\":4587:4844  if (totalSupply == 0) {... */\n      jump(tag_141)\n    tag_137:\n        /* \"W6/simpleAMM/src/simpleAMMV6.sol\":4701:4832  Math.min(... */\n      tag_142\n        /* \"W6/simpleAMM/src/simpleAMMV6.sol\":4755:4763  reserve0 */\n      sload(0x01)\n        /* \"W6/simpleAMM/src/simpleAMMV6.sol\":4740:4751  totalSupply */\n      sload(0x03)\n        /* \"W6/simpleAMM/src/simpleAMMV6.sol\":4729:4737  _amount0 */\n      dup4\n        /* \"W6/simpleAMM/src/simpleAMMV6.sol\":4729:4751  _amount0 * totalSupply */\n      tag_143\n      swap2\n      swap1\n      tag_132\n      jump\t// in\n    tag_143:\n        /* \"W6/simpleAMM/src/simpleAMMV6.sol\":4728:4763  (_amount0 * totalSupply) / reserve0 */\n      tag_144\n      swap2\n      swap1\n      tag_145\n      jump\t// in\n    tag_144:\n        /* \"W6/simpleAMM/src/simpleAMMV6.sol\":4809:4817  reserve1 */\n      sload(0x02)\n        /* \"W6/simpleAMM/src/simpleAMMV6.sol\":4794:4805  totalSupply */\n      sload(0x03)\n        /* \"W6/simpleAMM/src/simpleAMMV6.sol\":4783:4791  _amount1 */\n      dup7\n        /* \"W6/simpleAMM/src/simpleAMMV6.sol\":4783:4805  _amount1 * totalSupply */\n      tag_146\n      swap2\n      swap1\n      tag_132\n      jump\t// in\n    tag_146:\n        /* \"W6/simpleAMM/src/simpleAMMV6.sol\":4782:4817  (_amount1 * totalSupply) / reserve1 */\n      tag_147\n      swap2\n      swap1\n      tag_145\n      jump\t// in\n    tag_147:\n        /* \"W6/simpleAMM/src/simpleAMMV6.sol\":4701:4709  Math.min */\n      tag_148\n        /* \"W6/simpleAMM/src/simpleAMMV6.sol\":4701:4832  Math.min(... */\n      jump\t// in\n    tag_142:\n        /* \"W6/simpleAMM/src/simpleAMMV6.sol\":4692:4832  shares = Math.min(... */\n      swap2\n      pop\n        /* \"W6/simpleAMM/src/simpleAMMV6.sol\":4587:4844  if (totalSupply == 0) {... */\n    tag_141:\n        /* \"W6/simpleAMM/src/simpleAMMV6.sol\":4871:4872  0 */\n      0x00\n        /* \"W6/simpleAMM/src/simpleAMMV6.sol\":4862:4868  shares */\n      dup3\n        /* \"W6/simpleAMM/src/simpleAMMV6.sol\":4862:4872  shares > 0 */\n      gt\n        /* \"W6/simpleAMM/src/simpleAMMV6.sol\":4854:4887  require(shares > 0, \"shares = 0\") */\n      tag_149\n      jumpi\n      mload(0x40)\n      0x08c379a000000000000000000000000000000000000000000000000000000000\n      dup2\n      mstore\n      0x04\n      add\n      tag_150\n      swap1\n      tag_151\n      jump\t// in\n    tag_150:\n      mload(0x40)\n      dup1\n      swap2\n      sub\n      swap1\n      revert\n    tag_149:\n        /* \"W6/simpleAMM/src/simpleAMMV6.sol\":4898:4923  _mint(msg.sender, shares) */\n      tag_152\n        /* \"W6/simpleAMM/src/simpleAMMV6.sol\":4904:4914  msg.sender */\n      caller\n        /* \"W6/simpleAMM/src/simpleAMMV6.sol\":4916:4922  shares */\n      dup4\n        /* \"W6/simpleAMM/src/simpleAMMV6.sol\":4898:4903  _mint */\n      tag_153\n        /* \"W6/simpleAMM/src/simpleAMMV6.sol\":4898:4923  _mint(msg.sender, shares) */\n      jump\t// in\n    tag_152:\n        /* \"W6/simpleAMM/src/simpleAMMV6.sol\":4936:4998  _update(address(this).balance, token.balanceOf(address(this))) */\n      tag_154\n        /* \"W6/simpleAMM/src/simpleAMMV6.sol\":4944:4965  address(this).balance */\n      selfbalance\n        /* \"W6/simpleAMM/src/simpleAMMV6.sol\":4967:4972  token */\n      immutable(\"0xe9ec5ebbfe521ba5a70e4c2b13332e74dda4e055153dc29723307e62e8ed0f2a\")\n        /* \"W6/simpleAMM/src/simpleAMMV6.sol\":4967:4982  token.balanceOf */\n      0xffffffffffffffffffffffffffffffffffffffff\n      and\n      0x70a08231\n        /* \"W6/simpleAMM/src/simpleAMMV6.sol\":4991:4995  this */\n      address\n        /* \"W6/simpleAMM/src/simpleAMMV6.sol\":4967:4997  token.balanceOf(address(this)) */\n      mload(0x40)\n      dup3\n      0xffffffff\n      and\n      0xe0\n      shl\n      dup2\n      mstore\n      0x04\n      add\n      tag_155\n      swap2\n      swap1\n      tag_97\n      jump\t// in\n    tag_155:\n      0x20\n      mload(0x40)\n      dup1\n      dup4\n      sub\n      dup2\n      dup7\n      gas\n      staticcall\n      iszero\n      dup1\n      iszero\n      tag_157\n      jumpi\n      returndatasize\n      0x00\n      dup1\n      returndatacopy\n      revert(0x00, returndatasize)\n    tag_157:\n      pop\n      pop\n      pop\n      pop\n      mload(0x40)\n      returndatasize\n      not(0x1f)\n      0x1f\n      dup3\n      add\n      and\n      dup3\n      add\n      dup1\n      0x40\n      mstore\n      pop\n      dup2\n      add\n      swap1\n      tag_158\n      swap2\n      swap1\n      tag_159\n      jump\t// in\n    tag_158:\n        /* \"W6/simpleAMM/src/simpleAMMV6.sol\":4936:4943  _update */\n      tag_160\n        /* \"W6/simpleAMM/src/simpleAMMV6.sol\":4936:4998  _update(address(this).balance, token.balanceOf(address(this))) */\n      jump\t// in\n    tag_154:\n        /* \"W6/simpleAMM/src/simpleAMMV6.sol\":4323:5006  {... */\n      pop\n        /* \"W6/simpleAMM/src/simpleAMMV6.sol\":4241:5006  function addLiquidity(uint256 _amount1) external payable returns (uint256 shares) {... */\n      swap2\n      swap1\n      pop\n      jump\t// out\n        /* \"W6/simpleAMM/src/simpleAMMV6.sol\":7266:7576  function getInETHPredictOutputERC(uint256 _amount) public view returns (uint256) {... */\n    tag_42:\n        /* \"W6/simpleAMM/src/simpleAMMV6.sol\":7338:7345  uint256 */\n      0x00\n        /* \"W6/simpleAMM/src/simpleAMMV6.sol\":7377:7378  0 */\n      dup1\n        /* \"W6/simpleAMM/src/simpleAMMV6.sol\":7366:7374  reserve0 */\n      sload(0x01)\n        /* \"W6/simpleAMM/src/simpleAMMV6.sol\":7366:7378  reserve0 > 0 */\n      gt\n        /* \"W6/simpleAMM/src/simpleAMMV6.sol\":7366:7394  reserve0 > 0 && reserve1 > 0 */\n      dup1\n      iszero\n      tag_162\n      jumpi\n      pop\n        /* \"W6/simpleAMM/src/simpleAMMV6.sol\":7393:7394  0 */\n      0x00\n        /* \"W6/simpleAMM/src/simpleAMMV6.sol\":7382:7390  reserve1 */\n      sload(0x02)\n        /* \"W6/simpleAMM/src/simpleAMMV6.sol\":7382:7394  reserve1 > 0 */\n      gt\n        /* \"W6/simpleAMM/src/simpleAMMV6.sol\":7366:7394  reserve0 > 0 && reserve1 > 0 */\n    tag_162:\n        /* \"W6/simpleAMM/src/simpleAMMV6.sol\":7366:7407  reserve0 > 0 && reserve1 > 0 && _amount>0 */\n      dup1\n      iszero\n      tag_163\n      jumpi\n      pop\n        /* \"W6/simpleAMM/src/simpleAMMV6.sol\":7406:7407  0 */\n      0x00\n        /* \"W6/simpleAMM/src/simpleAMMV6.sol\":7398:7405  _amount */\n      dup3\n        /* \"W6/simpleAMM/src/simpleAMMV6.sol\":7398:7407  _amount>0 */\n      gt\n        /* \"W6/simpleAMM/src/simpleAMMV6.sol\":7366:7407  reserve0 > 0 && reserve1 > 0 && _amount>0 */\n    tag_163:\n        /* \"W6/simpleAMM/src/simpleAMMV6.sol\":7358:7434  require(reserve0 > 0 && reserve1 > 0 && _amount>0, \"Invalid ERC20 reserves\") */\n      tag_164\n      jumpi\n      mload(0x40)\n      0x08c379a000000000000000000000000000000000000000000000000000000000\n      dup2\n      mstore\n      0x04\n      add\n      tag_165\n      swap1\n      tag_166\n      jump\t// in\n    tag_165:\n      mload(0x40)\n      dup1\n      swap2\n      sub\n      swap1\n      revert\n    tag_164:\n        /* \"W6/simpleAMM/src/simpleAMMV6.sol\":7445:7468  uint256 amountInWithFee */\n      0x00\n        /* \"W6/simpleAMM/src/simpleAMMV6.sol\":7487:7491  1000 */\n      0x03e8\n        /* \"W6/simpleAMM/src/simpleAMMV6.sol\":7480:7483  997 */\n      0x03e5\n        /* \"W6/simpleAMM/src/simpleAMMV6.sol\":7470:7477  _amount */\n      dup5\n        /* \"W6/simpleAMM/src/simpleAMMV6.sol\":7470:7483  _amount * 997 */\n      tag_167\n      swap2\n      swap1\n      tag_132\n      jump\t// in\n    tag_167:\n        /* \"W6/simpleAMM/src/simpleAMMV6.sol\":7469:7491  (_amount * 997) / 1000 */\n      tag_168\n      swap2\n      swap1\n      tag_145\n      jump\t// in\n    tag_168:\n        /* \"W6/simpleAMM/src/simpleAMMV6.sol\":7445:7491  uint256 amountInWithFee=(_amount * 997) / 1000 */\n      swap1\n      pop\n        /* \"W6/simpleAMM/src/simpleAMMV6.sol\":7552:7567  amountInWithFee */\n      dup1\n        /* \"W6/simpleAMM/src/simpleAMMV6.sol\":7541:7549  reserve0 */\n      sload(0x01)\n        /* \"W6/simpleAMM/src/simpleAMMV6.sol\":7541:7567  reserve0 + amountInWithFee */\n      tag_169\n      swap2\n      swap1\n      tag_170\n      jump\t// in\n    tag_169:\n        /* \"W6/simpleAMM/src/simpleAMMV6.sol\":7521:7536  amountInWithFee */\n      dup2\n        /* \"W6/simpleAMM/src/simpleAMMV6.sol\":7510:7518  reserve1 */\n      sload(0x02)\n        /* \"W6/simpleAMM/src/simpleAMMV6.sol\":7510:7536  reserve1 * amountInWithFee */\n      tag_171\n      swap2\n      swap1\n      tag_132\n      jump\t// in\n    tag_171:\n        /* \"W6/simpleAMM/src/simpleAMMV6.sol\":7509:7568  (reserve1 * amountInWithFee) / (reserve0 + amountInWithFee) */\n      tag_172\n      swap2\n      swap1\n      tag_145\n      jump\t// in\n    tag_172:\n        /* \"W6/simpleAMM/src/simpleAMMV6.sol\":7502:7568  return (reserve1 * amountInWithFee) / (reserve0 + amountInWithFee) */\n      swap2\n      pop\n      pop\n        /* \"W6/simpleAMM/src/simpleAMMV6.sol\":7266:7576  function getInETHPredictOutputERC(uint256 _amount) public view returns (uint256) {... */\n      swap2\n      swap1\n      pop\n      jump\t// out\n        /* \"W6/simpleAMM/src/simpleAMMV6.sol\":815:838  uint256 public reserve1 */\n    tag_46:\n      sload(0x02)\n      dup2\n      jump\t// out\n        /* \"W6/simpleAMM/src/simpleAMMV6.sol\":2710:3493  function swap_WithSlipLock(uint256 _amountIn,uint256 _forwardOutput,uint256 _slipLock) public payable returns (uint256 amountOut)... */\n    tag_51:\n        /* \"W6/simpleAMM/src/simpleAMMV6.sol\":2821:2838  uint256 amountOut */\n      0x00\n        /* \"W6/simpleAMM/src/simpleAMMV6.sol\":2877:2886  _amountIn */\n      dup4\n        /* \"W6/simpleAMM/src/simpleAMMV6.sol\":2864:2873  msg.value */\n      callvalue\n        /* \"W6/simpleAMM/src/simpleAMMV6.sol\":2864:2886  msg.value == _amountIn */\n      eq\n        /* \"W6/simpleAMM/src/simpleAMMV6.sol\":2856:2910  require(msg.value == _amountIn, \"ETH amount mismatch\") */\n      tag_174\n      jumpi\n      mload(0x40)\n      0x08c379a000000000000000000000000000000000000000000000000000000000\n      dup2\n      mstore\n      0x04\n      add\n      tag_175\n      swap1\n      tag_176\n      jump\t// in\n    tag_175:\n      mload(0x40)\n      dup1\n      swap2\n      sub\n      swap1\n      revert\n    tag_174:\n        /* \"W6/simpleAMM/src/simpleAMMV6.sol\":2923:2946  uint256 amountInWithFee */\n      0x00\n        /* \"W6/simpleAMM/src/simpleAMMV6.sol\":2969:2973  1000 */\n      0x03e8\n        /* \"W6/simpleAMM/src/simpleAMMV6.sol\":2962:2965  997 */\n      0x03e5\n        /* \"W6/simpleAMM/src/simpleAMMV6.sol\":2950:2959  _amountIn */\n      dup7\n        /* \"W6/simpleAMM/src/simpleAMMV6.sol\":2950:2965  _amountIn * 997 */\n      tag_177\n      swap2\n      swap1\n      tag_132\n      jump\t// in\n    tag_177:\n        /* \"W6/simpleAMM/src/simpleAMMV6.sol\":2949:2973  (_amountIn * 997) / 1000 */\n      tag_178\n      swap2\n      swap1\n      tag_145\n      jump\t// in\n    tag_178:\n        /* \"W6/simpleAMM/src/simpleAMMV6.sol\":2923:2973  uint256 amountInWithFee = (_amountIn * 997) / 1000 */\n      swap1\n      pop\n        /* \"W6/simpleAMM/src/simpleAMMV6.sol\":3039:3054  amountInWithFee */\n      dup1\n        /* \"W6/simpleAMM/src/simpleAMMV6.sol\":3028:3036  reserve0 */\n      sload(0x01)\n        /* \"W6/simpleAMM/src/simpleAMMV6.sol\":3028:3054  reserve0 + amountInWithFee */\n      tag_179\n      swap2\n      swap1\n      tag_170\n      jump\t// in\n    tag_179:\n        /* \"W6/simpleAMM/src/simpleAMMV6.sol\":3008:3023  amountInWithFee */\n      dup2\n        /* \"W6/simpleAMM/src/simpleAMMV6.sol\":2997:3005  reserve1 */\n      sload(0x02)\n        /* \"W6/simpleAMM/src/simpleAMMV6.sol\":2997:3023  reserve1 * amountInWithFee */\n      tag_180\n      swap2\n      swap1\n      tag_132\n      jump\t// in\n    tag_180:\n        /* \"W6/simpleAMM/src/simpleAMMV6.sol\":2996:3055  (reserve1 * amountInWithFee) / (reserve0 + amountInWithFee) */\n      tag_181\n      swap2\n      swap1\n      tag_145\n      jump\t// in\n    tag_181:\n        /* \"W6/simpleAMM/src/simpleAMMV6.sol\":2984:3055  amountOut = (reserve1 * amountInWithFee) / (reserve0 + amountInWithFee) */\n      swap2\n      pop\n        /* \"W6/simpleAMM/src/simpleAMMV6.sol\":3086:3087  0 */\n      0x00\n        /* \"W6/simpleAMM/src/simpleAMMV6.sol\":3074:3083  amountOut */\n      dup3\n        /* \"W6/simpleAMM/src/simpleAMMV6.sol\":3074:3087  amountOut > 0 */\n      gt\n        /* \"W6/simpleAMM/src/simpleAMMV6.sol\":3066:3118  require(amountOut > 0, \"Insufficient output amount\") */\n      tag_182\n      jumpi\n      mload(0x40)\n      0x08c379a000000000000000000000000000000000000000000000000000000000\n      dup2\n      mstore\n      0x04\n      add\n      tag_183\n      swap1\n      tag_184\n      jump\t// in\n    tag_183:\n      mload(0x40)\n      dup1\n      swap2\n      sub\n      swap1\n      revert\n    tag_182:\n        /* \"W6/simpleAMM/src/simpleAMMV6.sol\":3183:3187  1000 */\n      0x03e8\n        /* \"W6/simpleAMM/src/simpleAMMV6.sol\":3172:3181  _slipLock */\n      dup4\n        /* \"W6/simpleAMM/src/simpleAMMV6.sol\":3167:3171  1000 */\n      0x03e8\n        /* \"W6/simpleAMM/src/simpleAMMV6.sol\":3167:3181  1000-_slipLock */\n      tag_185\n      swap2\n      swap1\n      tag_186\n      jump\t// in\n    tag_185:\n        /* \"W6/simpleAMM/src/simpleAMMV6.sol\":3151:3165  _forwardOutput */\n      dup6\n        /* \"W6/simpleAMM/src/simpleAMMV6.sol\":3151:3182  _forwardOutput*(1000-_slipLock) */\n      tag_187\n      swap2\n      swap1\n      tag_132\n      jump\t// in\n    tag_187:\n        /* \"W6/simpleAMM/src/simpleAMMV6.sol\":3151:3187  _forwardOutput*(1000-_slipLock)/1000 */\n      tag_188\n      swap2\n      swap1\n      tag_145\n      jump\t// in\n    tag_188:\n        /* \"W6/simpleAMM/src/simpleAMMV6.sol\":3137:3146  amountOut */\n      dup3\n        /* \"W6/simpleAMM/src/simpleAMMV6.sol\":3137:3188  amountOut >= (_forwardOutput*(1000-_slipLock)/1000) */\n      lt\n      iszero\n        /* \"W6/simpleAMM/src/simpleAMMV6.sol\":3129:3201  require(amountOut >= (_forwardOutput*(1000-_slipLock)/1000), \"SlipLock\") */\n      tag_189\n      jumpi\n      mload(0x40)\n      0x08c379a000000000000000000000000000000000000000000000000000000000\n      dup2\n      mstore\n      0x04\n      add\n      tag_190\n      swap1\n      tag_191\n      jump\t// in\n    tag_190:\n      mload(0x40)\n      dup1\n      swap2\n      sub\n      swap1\n      revert\n    tag_189:\n        /* \"W6/simpleAMM/src/simpleAMMV6.sol\":3212:3234  uint256 feeToDeveloper */\n      0x00\n        /* \"W6/simpleAMM/src/simpleAMMV6.sol\":3276:3284  reserve0 */\n      sload(0x01)\n        /* \"W6/simpleAMM/src/simpleAMMV6.sol\":3264:3275  totalSupply */\n      sload(0x03)\n        /* \"W6/simpleAMM/src/simpleAMMV6.sol\":3261:3262  1 */\n      0x01\n        /* \"W6/simpleAMM/src/simpleAMMV6.sol\":3249:3258  amountOut */\n      dup6\n        /* \"W6/simpleAMM/src/simpleAMMV6.sol\":3239:3248  _amountIn */\n      dup10\n        /* \"W6/simpleAMM/src/simpleAMMV6.sol\":3239:3258  _amountIn-amountOut */\n      tag_192\n      swap2\n      swap1\n      tag_186\n      jump\t// in\n    tag_192:\n        /* \"W6/simpleAMM/src/simpleAMMV6.sol\":3238:3262  (_amountIn-amountOut)>>1 */\n      swap1\n      shr\n        /* \"W6/simpleAMM/src/simpleAMMV6.sol\":3237:3275  ((_amountIn-amountOut)>>1)*totalSupply */\n      tag_193\n      swap2\n      swap1\n      tag_132\n      jump\t// in\n    tag_193:\n        /* \"W6/simpleAMM/src/simpleAMMV6.sol\":3237:3284  ((_amountIn-amountOut)>>1)*totalSupply/reserve0 */\n      tag_194\n      swap2\n      swap1\n      tag_145\n      jump\t// in\n    tag_194:\n        /* \"W6/simpleAMM/src/simpleAMMV6.sol\":3212:3284  uint256 feeToDeveloper = ((_amountIn-amountOut)>>1)*totalSupply/reserve0 */\n      swap1\n      pop\n        /* \"W6/simpleAMM/src/simpleAMMV6.sol\":3295:3326  _mint(developer,feeToDeveloper) */\n      tag_195\n        /* \"W6/simpleAMM/src/simpleAMMV6.sol\":3301:3310  developer */\n      0x00\n      dup1\n      sload\n      swap1\n      0x0100\n      exp\n      swap1\n      div\n      0xffffffffffffffffffffffffffffffffffffffff\n      and\n        /* \"W6/simpleAMM/src/simpleAMMV6.sol\":3311:3325  feeToDeveloper */\n      dup3\n        /* \"W6/simpleAMM/src/simpleAMMV6.sol\":3295:3300  _mint */\n      tag_153\n        /* \"W6/simpleAMM/src/simpleAMMV6.sol\":3295:3326  _mint(developer,feeToDeveloper) */\n      jump\t// in\n    tag_195:\n        /* \"W6/simpleAMM/src/simpleAMMV6.sol\":3373:3378  token */\n      immutable(\"0xe9ec5ebbfe521ba5a70e4c2b13332e74dda4e055153dc29723307e62e8ed0f2a\")\n        /* \"W6/simpleAMM/src/simpleAMMV6.sol\":3373:3387  token.transfer */\n      0xffffffffffffffffffffffffffffffffffffffff\n      and\n      0xa9059cbb\n        /* \"W6/simpleAMM/src/simpleAMMV6.sol\":3388:3398  msg.sender */\n      caller\n        /* \"W6/simpleAMM/src/simpleAMMV6.sol\":3400:3409  amountOut */\n      dup6\n        /* \"W6/simpleAMM/src/simpleAMMV6.sol\":3373:3410  token.transfer(msg.sender, amountOut) */\n      mload(0x40)\n      dup4\n      0xffffffff\n      and\n      0xe0\n      shl\n      dup2\n      mstore\n      0x04\n      add\n      tag_196\n      swap3\n      swap2\n      swap1\n      tag_197\n      jump\t// in\n    tag_196:\n      0x20\n      mload(0x40)\n      dup1\n      dup4\n      sub\n      dup2\n      0x00\n      dup8\n      gas\n      call\n      iszero\n      dup1\n      iszero\n      tag_199\n      jumpi\n      returndatasize\n      0x00\n      dup1\n      returndatacopy\n      revert(0x00, returndatasize)\n    tag_199:\n      pop\n      pop\n      pop\n      pop\n      mload(0x40)\n      returndatasize\n      not(0x1f)\n      0x1f\n      dup3\n      add\n      and\n      dup3\n      add\n      dup1\n      0x40\n      mstore\n      pop\n      dup2\n      add\n      swap1\n      tag_200\n      swap2\n      swap1\n      tag_128\n      jump\t// in\n    tag_200:\n      pop\n        /* \"W6/simpleAMM/src/simpleAMMV6.sol\":3423:3485  _update(address(this).balance, token.balanceOf(address(this))) */\n      tag_201\n        /* \"W6/simpleAMM/src/simpleAMMV6.sol\":3431:3452  address(this).balance */\n      selfbalance\n        /* \"W6/simpleAMM/src/simpleAMMV6.sol\":3454:3459  token */\n      immutable(\"0xe9ec5ebbfe521ba5a70e4c2b13332e74dda4e055153dc29723307e62e8ed0f2a\")\n        /* \"W6/simpleAMM/src/simpleAMMV6.sol\":3454:3469  token.balanceOf */\n      0xffffffffffffffffffffffffffffffffffffffff\n      and\n      0x70a08231\n        /* \"W6/simpleAMM/src/simpleAMMV6.sol\":3478:3482  this */\n      address\n        /* \"W6/simpleAMM/src/simpleAMMV6.sol\":3454:3484  token.balanceOf(address(this)) */\n      mload(0x40)\n      dup3\n      0xffffffff\n      and\n      0xe0\n      shl\n      dup2\n      mstore\n      0x04\n      add\n      tag_202\n      swap2\n      swap1\n      tag_97\n      jump\t// in\n    tag_202:\n      0x20\n      mload(0x40)\n      dup1\n      dup4\n      sub\n      dup2\n      dup7\n      gas\n      staticcall\n      iszero\n      dup1\n      iszero\n      tag_204\n      jumpi\n      returndatasize\n      0x00\n      dup1\n      returndatacopy\n      revert(0x00, returndatasize)\n    tag_204:\n      pop\n      pop\n      pop\n      pop\n      mload(0x40)\n      returndatasize\n      not(0x1f)\n      0x1f\n      dup3\n      add\n      and\n      dup3\n      add\n      dup1\n      0x40\n      mstore\n      pop\n      dup2\n      add\n      swap1\n      tag_205\n      swap2\n      swap1\n      tag_159\n      jump\t// in\n    tag_205:\n        /* \"W6/simpleAMM/src/simpleAMMV6.sol\":3423:3430  _update */\n      tag_160\n        /* \"W6/simpleAMM/src/simpleAMMV6.sol\":3423:3485  _update(address(this).balance, token.balanceOf(address(this))) */\n      jump\t// in\n    tag_201:\n        /* \"W6/simpleAMM/src/simpleAMMV6.sol\":2845:3493  {... */\n      pop\n      pop\n        /* \"W6/simpleAMM/src/simpleAMMV6.sol\":2710:3493  function swap_WithSlipLock(uint256 _amountIn,uint256 _forwardOutput,uint256 _slipLock) public payable returns (uint256 amountOut)... */\n      swap4\n      swap3\n      pop\n      pop\n      pop\n      jump\t// out\n        /* \"W6/simpleAMM/src/simpleAMMV6.sol\":6185:6280  function my_shars() public view returns(uint256){... */\n    tag_55:\n        /* \"W6/simpleAMM/src/simpleAMMV6.sol\":6225:6232  uint256 */\n      0x00\n        /* \"W6/simpleAMM/src/simpleAMMV6.sol\":6251:6260  balanceOf */\n      0x04\n        /* \"W6/simpleAMM/src/simpleAMMV6.sol\":6251:6272  balanceOf[msg.sender] */\n      0x00\n        /* \"W6/simpleAMM/src/simpleAMMV6.sol\":6261:6271  msg.sender */\n      caller\n        /* \"W6/simpleAMM/src/simpleAMMV6.sol\":6251:6272  balanceOf[msg.sender] */\n      0xffffffffffffffffffffffffffffffffffffffff\n      and\n      0xffffffffffffffffffffffffffffffffffffffff\n      and\n      dup2\n      mstore\n      0x20\n      add\n      swap1\n      dup2\n      mstore\n      0x20\n      add\n      0x00\n      keccak256\n      sload\n        /* \"W6/simpleAMM/src/simpleAMMV6.sol\":6244:6272  return balanceOf[msg.sender] */\n      swap1\n      pop\n        /* \"W6/simpleAMM/src/simpleAMMV6.sol\":6185:6280  function my_shars() public view returns(uint256){... */\n      swap1\n      jump\t// out\n        /* \"W6/simpleAMM/src/simpleAMMV6.sol\":2056:2704  function swapTokenForETH(uint256 _amountIn) public returns (uint256 amountOut) {... */\n    tag_60:\n        /* \"W6/simpleAMM/src/simpleAMMV6.sol\":2116:2133  uint256 amountOut */\n      0x00\n        /* \"W6/simpleAMM/src/simpleAMMV6.sol\":2146:2169  uint256 amountInWithFee */\n      dup1\n        /* \"W6/simpleAMM/src/simpleAMMV6.sol\":2192:2196  1000 */\n      0x03e8\n        /* \"W6/simpleAMM/src/simpleAMMV6.sol\":2185:2188  997 */\n      0x03e5\n        /* \"W6/simpleAMM/src/simpleAMMV6.sol\":2173:2182  _amountIn */\n      dup5\n        /* \"W6/simpleAMM/src/simpleAMMV6.sol\":2173:2188  _amountIn * 997 */\n      tag_208\n      swap2\n      swap1\n      tag_132\n      jump\t// in\n    tag_208:\n        /* \"W6/simpleAMM/src/simpleAMMV6.sol\":2172:2196  (_amountIn * 997) / 1000 */\n      tag_209\n      swap2\n      swap1\n      tag_145\n      jump\t// in\n    tag_209:\n        /* \"W6/simpleAMM/src/simpleAMMV6.sol\":2146:2196  uint256 amountInWithFee = (_amountIn * 997) / 1000 */\n      swap1\n      pop\n        /* \"W6/simpleAMM/src/simpleAMMV6.sol\":2264:2279  amountInWithFee */\n      dup1\n        /* \"W6/simpleAMM/src/simpleAMMV6.sol\":2253:2261  reserve1 */\n      sload(0x02)\n        /* \"W6/simpleAMM/src/simpleAMMV6.sol\":2253:2279  reserve1 + amountInWithFee */\n      tag_210\n      swap2\n      swap1\n      tag_170\n      jump\t// in\n    tag_210:\n        /* \"W6/simpleAMM/src/simpleAMMV6.sol\":2233:2248  amountInWithFee */\n      dup2\n        /* \"W6/simpleAMM/src/simpleAMMV6.sol\":2222:2230  reserve0 */\n      sload(0x01)\n        /* \"W6/simpleAMM/src/simpleAMMV6.sol\":2222:2248  reserve0 * amountInWithFee */\n      tag_211\n      swap2\n      swap1\n      tag_132\n      jump\t// in\n    tag_211:\n        /* \"W6/simpleAMM/src/simpleAMMV6.sol\":2221:2280  (reserve0 * amountInWithFee) / (reserve1 + amountInWithFee) */\n      tag_212\n      swap2\n      swap1\n      tag_145\n      jump\t// in\n    tag_212:\n        /* \"W6/simpleAMM/src/simpleAMMV6.sol\":2209:2280  amountOut = (reserve0 * amountInWithFee) / (reserve1 + amountInWithFee) */\n      swap2\n      pop\n        /* \"W6/simpleAMM/src/simpleAMMV6.sol\":2311:2312  0 */\n      0x00\n        /* \"W6/simpleAMM/src/simpleAMMV6.sol\":2299:2308  amountOut */\n      dup3\n        /* \"W6/simpleAMM/src/simpleAMMV6.sol\":2299:2312  amountOut > 0 */\n      gt\n        /* \"W6/simpleAMM/src/simpleAMMV6.sol\":2291:2343  require(amountOut > 0, \"Insufficient output amount\") */\n      tag_213\n      jumpi\n      mload(0x40)\n      0x08c379a000000000000000000000000000000000000000000000000000000000\n      dup2\n      mstore\n      0x04\n      add\n      tag_214\n      swap1\n      tag_184\n      jump\t// in\n    tag_214:\n      mload(0x40)\n      dup1\n      swap2\n      sub\n      swap1\n      revert\n    tag_213:\n        /* \"W6/simpleAMM/src/simpleAMMV6.sol\":2354:2376  uint256 feeToDeveloper */\n      0x00\n        /* \"W6/simpleAMM/src/simpleAMMV6.sol\":2418:2426  reserve1 */\n      sload(0x02)\n        /* \"W6/simpleAMM/src/simpleAMMV6.sol\":2406:2417  totalSupply */\n      sload(0x03)\n        /* \"W6/simpleAMM/src/simpleAMMV6.sol\":2403:2404  1 */\n      0x01\n        /* \"W6/simpleAMM/src/simpleAMMV6.sol\":2391:2400  amountOut */\n      dup6\n        /* \"W6/simpleAMM/src/simpleAMMV6.sol\":2381:2390  _amountIn */\n      dup8\n        /* \"W6/simpleAMM/src/simpleAMMV6.sol\":2381:2400  _amountIn-amountOut */\n      tag_215\n      swap2\n      swap1\n      tag_186\n      jump\t// in\n    tag_215:\n        /* \"W6/simpleAMM/src/simpleAMMV6.sol\":2380:2404  (_amountIn-amountOut)>>1 */\n      swap1\n      shr\n        /* \"W6/simpleAMM/src/simpleAMMV6.sol\":2379:2417  ((_amountIn-amountOut)>>1)*totalSupply */\n      tag_216\n      swap2\n      swap1\n      tag_132\n      jump\t// in\n    tag_216:\n        /* \"W6/simpleAMM/src/simpleAMMV6.sol\":2379:2426  ((_amountIn-amountOut)>>1)*totalSupply/reserve1 */\n      tag_217\n      swap2\n      swap1\n      tag_145\n      jump\t// in\n    tag_217:\n        /* \"W6/simpleAMM/src/simpleAMMV6.sol\":2354:2426  uint256 feeToDeveloper = ((_amountIn-amountOut)>>1)*totalSupply/reserve1 */\n      swap1\n      pop\n        /* \"W6/simpleAMM/src/simpleAMMV6.sol\":2437:2468  _mint(developer,feeToDeveloper) */\n      tag_218\n        /* \"W6/simpleAMM/src/simpleAMMV6.sol\":2443:2452  developer */\n      0x00\n      dup1\n      sload\n      swap1\n      0x0100\n      exp\n      swap1\n      div\n      0xffffffffffffffffffffffffffffffffffffffff\n      and\n        /* \"W6/simpleAMM/src/simpleAMMV6.sol\":2453:2467  feeToDeveloper */\n      dup3\n        /* \"W6/simpleAMM/src/simpleAMMV6.sol\":2437:2442  _mint */\n      tag_153\n        /* \"W6/simpleAMM/src/simpleAMMV6.sol\":2437:2468  _mint(developer,feeToDeveloper) */\n      jump\t// in\n    tag_218:\n        /* \"W6/simpleAMM/src/simpleAMMV6.sol\":2515:2520  token */\n      immutable(\"0xe9ec5ebbfe521ba5a70e4c2b13332e74dda4e055153dc29723307e62e8ed0f2a\")\n        /* \"W6/simpleAMM/src/simpleAMMV6.sol\":2515:2533  token.transferFrom */\n      0xffffffffffffffffffffffffffffffffffffffff\n      and\n      0x23b872dd\n        /* \"W6/simpleAMM/src/simpleAMMV6.sol\":2534:2544  msg.sender */\n      caller\n        /* \"W6/simpleAMM/src/simpleAMMV6.sol\":2554:2558  this */\n      address\n        /* \"W6/simpleAMM/src/simpleAMMV6.sol\":2561:2570  _amountIn */\n      dup8\n        /* \"W6/simpleAMM/src/simpleAMMV6.sol\":2515:2571  token.transferFrom(msg.sender, address(this), _amountIn) */\n      mload(0x40)\n      dup5\n      0xffffffff\n      and\n      0xe0\n      shl\n      dup2\n      mstore\n      0x04\n      add\n      tag_219\n      swap4\n      swap3\n      swap2\n      swap1\n      tag_124\n      jump\t// in\n    tag_219:\n      0x20\n      mload(0x40)\n      dup1\n      dup4\n      sub\n      dup2\n      0x00\n      dup8\n      gas\n      call\n      iszero\n      dup1\n      iszero\n      tag_221\n      jumpi\n      returndatasize\n      0x00\n      dup1\n      returndatacopy\n      revert(0x00, returndatasize)\n    tag_221:\n      pop\n      pop\n      pop\n      pop\n      mload(0x40)\n      returndatasize\n      not(0x1f)\n      0x1f\n      dup3\n      add\n      and\n      dup3\n      add\n      dup1\n      0x40\n      mstore\n      pop\n      dup2\n      add\n      swap1\n      tag_222\n      swap2\n      swap1\n      tag_128\n      jump\t// in\n    tag_222:\n      pop\n        /* \"W6/simpleAMM/src/simpleAMMV6.sol\":2590:2600  msg.sender */\n      caller\n        /* \"W6/simpleAMM/src/simpleAMMV6.sol\":2582:2610  payable(msg.sender).transfer */\n      0xffffffffffffffffffffffffffffffffffffffff\n      and\n        /* \"W6/simpleAMM/src/simpleAMMV6.sol\":2582:2621  payable(msg.sender).transfer(amountOut) */\n      0x08fc\n        /* \"W6/simpleAMM/src/simpleAMMV6.sol\":2611:2620  amountOut */\n      dup5\n        /* \"W6/simpleAMM/src/simpleAMMV6.sol\":2582:2621  payable(msg.sender).transfer(amountOut) */\n      swap1\n      dup2\n      iszero\n      mul\n      swap1\n      mload(0x40)\n      0x00\n      mload(0x40)\n      dup1\n      dup4\n      sub\n      dup2\n      dup6\n      dup9\n      dup9\n      call\n      swap4\n      pop\n      pop\n      pop\n      pop\n      iszero\n      dup1\n      iszero\n      tag_224\n      jumpi\n      returndatasize\n      0x00\n      dup1\n      returndatacopy\n      revert(0x00, returndatasize)\n    tag_224:\n      pop\n        /* \"W6/simpleAMM/src/simpleAMMV6.sol\":2634:2696  _update(address(this).balance, token.balanceOf(address(this))) */\n      tag_225\n        /* \"W6/simpleAMM/src/simpleAMMV6.sol\":2642:2663  address(this).balance */\n      selfbalance\n        /* \"W6/simpleAMM/src/simpleAMMV6.sol\":2665:2670  token */\n      immutable(\"0xe9ec5ebbfe521ba5a70e4c2b13332e74dda4e055153dc29723307e62e8ed0f2a\")\n        /* \"W6/simpleAMM/src/simpleAMMV6.sol\":2665:2680  token.balanceOf */\n      0xffffffffffffffffffffffffffffffffffffffff\n      and\n      0x70a08231\n        /* \"W6/simpleAMM/src/simpleAMMV6.sol\":2689:2693  this */\n      address\n        /* \"W6/simpleAMM/src/simpleAMMV6.sol\":2665:2695  token.balanceOf(address(this)) */\n      mload(0x40)\n      dup3\n      0xffffffff\n      and\n      0xe0\n      shl\n      dup2\n      mstore\n      0x04\n      add\n      tag_226\n      swap2\n      swap1\n      tag_97\n      jump\t// in\n    tag_226:\n      0x20\n      mload(0x40)\n      dup1\n      dup4\n      sub\n      dup2\n      dup7\n      gas\n      staticcall\n      iszero\n      dup1\n      iszero\n      tag_228\n      jumpi\n      returndatasize\n      0x00\n      dup1\n      returndatacopy\n      revert(0x00, returndatasize)\n    tag_228:\n      pop\n      pop\n      pop\n      pop\n      mload(0x40)\n      returndatasize\n      not(0x1f)\n      0x1f\n      dup3\n      add\n      and\n      dup3\n      add\n      dup1\n      0x40\n      mstore\n      pop\n      dup2\n      add\n      swap1\n      tag_229\n      swap2\n      swap1\n      tag_159\n      jump\t// in\n    tag_229:\n        /* \"W6/simpleAMM/src/simpleAMMV6.sol\":2634:2641  _update */\n      tag_160\n        /* \"W6/simpleAMM/src/simpleAMMV6.sol\":2634:2696  _update(address(this).balance, token.balanceOf(address(this))) */\n      jump\t// in\n    tag_225:\n        /* \"W6/simpleAMM/src/simpleAMMV6.sol\":2135:2704  {... */\n      pop\n      pop\n        /* \"W6/simpleAMM/src/simpleAMMV6.sol\":2056:2704  function swapTokenForETH(uint256 _amountIn) public returns (uint256 amountOut) {... */\n      swap2\n      swap1\n      pop\n      jump\t// out\n        /* \"W6/simpleAMM/src/simpleAMMV6.sol\":889:933  mapping(address => uint256) public balanceOf */\n    tag_66:\n      mstore(0x20, 0x04)\n      dup1\n      0x00\n      mstore\n      keccak256(0x00, 0x40)\n      0x00\n      swap2\n      pop\n      swap1\n      pop\n      sload\n      dup2\n      jump\t// out\n        /* \"W6/simpleAMM/src/simpleAMMV6.sol\":5014:5175  function removeAllLiquidity(address _user) external returns (uint256 amount0, uint256 amount1) {... */\n    tag_71:\n        /* \"W6/simpleAMM/src/simpleAMMV6.sol\":5075:5090  uint256 amount0 */\n      0x00\n        /* \"W6/simpleAMM/src/simpleAMMV6.sol\":5092:5107  uint256 amount1 */\n      dup1\n        /* \"W6/simpleAMM/src/simpleAMMV6.sol\":5127:5167  _removeLiquidity(_user,balanceOf[_user]) */\n      tag_231\n        /* \"W6/simpleAMM/src/simpleAMMV6.sol\":5144:5149  _user */\n      dup4\n        /* \"W6/simpleAMM/src/simpleAMMV6.sol\":5150:5159  balanceOf */\n      0x04\n        /* \"W6/simpleAMM/src/simpleAMMV6.sol\":5150:5166  balanceOf[_user] */\n      0x00\n        /* \"W6/simpleAMM/src/simpleAMMV6.sol\":5160:5165  _user */\n      dup7\n        /* \"W6/simpleAMM/src/simpleAMMV6.sol\":5150:5166  balanceOf[_user] */\n      0xffffffffffffffffffffffffffffffffffffffff\n      and\n      0xffffffffffffffffffffffffffffffffffffffff\n      and\n      dup2\n      mstore\n      0x20\n      add\n      swap1\n      dup2\n      mstore\n      0x20\n      add\n      0x00\n      keccak256\n      sload\n        /* \"W6/simpleAMM/src/simpleAMMV6.sol\":5127:5143  _removeLiquidity */\n      tag_232\n        /* \"W6/simpleAMM/src/simpleAMMV6.sol\":5127:5167  _removeLiquidity(_user,balanceOf[_user]) */\n      jump\t// in\n    tag_231:\n        /* \"W6/simpleAMM/src/simpleAMMV6.sol\":5120:5167  return _removeLiquidity(_user,balanceOf[_user]) */\n      swap2\n      pop\n      swap2\n      pop\n        /* \"W6/simpleAMM/src/simpleAMMV6.sol\":5014:5175  function removeAllLiquidity(address _user) external returns (uint256 amount0, uint256 amount1) {... */\n      swap2\n      pop\n      swap2\n      jump\t// out\n        /* \"W6/simpleAMM/src/simpleAMMV6.sol\":1473:2050  function swap(uint256 _amountIn) public payable returns (uint256 amountOut) {... */\n    tag_76:\n        /* \"W6/simpleAMM/src/simpleAMMV6.sol\":1530:1547  uint256 amountOut */\n      0x00\n        /* \"W6/simpleAMM/src/simpleAMMV6.sol\":1581:1590  _amountIn */\n      dup2\n        /* \"W6/simpleAMM/src/simpleAMMV6.sol\":1568:1577  msg.value */\n      callvalue\n        /* \"W6/simpleAMM/src/simpleAMMV6.sol\":1568:1590  msg.value == _amountIn */\n      eq\n        /* \"W6/simpleAMM/src/simpleAMMV6.sol\":1560:1614  require(msg.value == _amountIn, \"ETH amount mismatch\") */\n      tag_234\n      jumpi\n      mload(0x40)\n      0x08c379a000000000000000000000000000000000000000000000000000000000\n      dup2\n      mstore\n      0x04\n      add\n      tag_235\n      swap1\n      tag_176\n      jump\t// in\n    tag_235:\n      mload(0x40)\n      dup1\n      swap2\n      sub\n      swap1\n      revert\n    tag_234:\n        /* \"W6/simpleAMM/src/simpleAMMV6.sol\":1627:1650  uint256 amountInWithFee */\n      0x00\n        /* \"W6/simpleAMM/src/simpleAMMV6.sol\":1673:1677  1000 */\n      0x03e8\n        /* \"W6/simpleAMM/src/simpleAMMV6.sol\":1666:1669  997 */\n      0x03e5\n        /* \"W6/simpleAMM/src/simpleAMMV6.sol\":1654:1663  _amountIn */\n      dup5\n        /* \"W6/simpleAMM/src/simpleAMMV6.sol\":1654:1669  _amountIn * 997 */\n      tag_236\n      swap2\n      swap1\n      tag_132\n      jump\t// in\n    tag_236:\n        /* \"W6/simpleAMM/src/simpleAMMV6.sol\":1653:1677  (_amountIn * 997) / 1000 */\n      tag_237\n      swap2\n      swap1\n      tag_145\n      jump\t// in\n    tag_237:\n        /* \"W6/simpleAMM/src/simpleAMMV6.sol\":1627:1677  uint256 amountInWithFee = (_amountIn * 997) / 1000 */\n      swap1\n      pop\n        /* \"W6/simpleAMM/src/simpleAMMV6.sol\":1743:1758  amountInWithFee */\n      dup1\n        /* \"W6/simpleAMM/src/simpleAMMV6.sol\":1732:1740  reserve0 */\n      sload(0x01)\n        /* \"W6/simpleAMM/src/simpleAMMV6.sol\":1732:1758  reserve0 + amountInWithFee */\n      tag_238\n      swap2\n      swap1\n      tag_170\n      jump\t// in\n    tag_238:\n        /* \"W6/simpleAMM/src/simpleAMMV6.sol\":1712:1727  amountInWithFee */\n      dup2\n        /* \"W6/simpleAMM/src/simpleAMMV6.sol\":1701:1709  reserve1 */\n      sload(0x02)\n        /* \"W6/simpleAMM/src/simpleAMMV6.sol\":1701:1727  reserve1 * amountInWithFee */\n      tag_239\n      swap2\n      swap1\n      tag_132\n      jump\t// in\n    tag_239:\n        /* \"W6/simpleAMM/src/simpleAMMV6.sol\":1700:1759  (reserve1 * amountInWithFee) / (reserve0 + amountInWithFee) */\n      tag_240\n      swap2\n      swap1\n      tag_145\n      jump\t// in\n    tag_240:\n        /* \"W6/simpleAMM/src/simpleAMMV6.sol\":1688:1759  amountOut = (reserve1 * amountInWithFee) / (reserve0 + amountInWithFee) */\n      swap2\n      pop\n        /* \"W6/simpleAMM/src/simpleAMMV6.sol\":1770:1792  uint256 feeToDeveloper */\n      0x00\n        /* \"W6/simpleAMM/src/simpleAMMV6.sol\":1839:1840  2 */\n      0x02\n        /* \"W6/simpleAMM/src/simpleAMMV6.sol\":1830:1838  reserve0 */\n      sload(0x01)\n        /* \"W6/simpleAMM/src/simpleAMMV6.sol\":1830:1840  reserve0*2 */\n      tag_241\n      swap2\n      swap1\n      tag_132\n      jump\t// in\n    tag_241:\n        /* \"W6/simpleAMM/src/simpleAMMV6.sol\":1817:1828  totalSupply */\n      sload(0x03)\n        /* \"W6/simpleAMM/src/simpleAMMV6.sol\":1806:1815  amountOut */\n      dup5\n        /* \"W6/simpleAMM/src/simpleAMMV6.sol\":1796:1805  _amountIn */\n      dup7\n        /* \"W6/simpleAMM/src/simpleAMMV6.sol\":1796:1815  _amountIn-amountOut */\n      tag_242\n      swap2\n      swap1\n      tag_186\n      jump\t// in\n    tag_242:\n        /* \"W6/simpleAMM/src/simpleAMMV6.sol\":1795:1828  (_amountIn-amountOut)*totalSupply */\n      tag_243\n      swap2\n      swap1\n      tag_132\n      jump\t// in\n    tag_243:\n        /* \"W6/simpleAMM/src/simpleAMMV6.sol\":1795:1841  (_amountIn-amountOut)*totalSupply/(reserve0*2) */\n      tag_244\n      swap2\n      swap1\n      tag_145\n      jump\t// in\n    tag_244:\n        /* \"W6/simpleAMM/src/simpleAMMV6.sol\":1770:1841  uint256 feeToDeveloper = (_amountIn-amountOut)*totalSupply/(reserve0*2) */\n      swap1\n      pop\n        /* \"W6/simpleAMM/src/simpleAMMV6.sol\":1852:1883  _mint(developer,feeToDeveloper) */\n      tag_245\n        /* \"W6/simpleAMM/src/simpleAMMV6.sol\":1858:1867  developer */\n      0x00\n      dup1\n      sload\n      swap1\n      0x0100\n      exp\n      swap1\n      div\n      0xffffffffffffffffffffffffffffffffffffffff\n      and\n        /* \"W6/simpleAMM/src/simpleAMMV6.sol\":1868:1882  feeToDeveloper */\n      dup3\n        /* \"W6/simpleAMM/src/simpleAMMV6.sol\":1852:1857  _mint */\n      tag_153\n        /* \"W6/simpleAMM/src/simpleAMMV6.sol\":1852:1883  _mint(developer,feeToDeveloper) */\n      jump\t// in\n    tag_245:\n        /* \"W6/simpleAMM/src/simpleAMMV6.sol\":1930:1935  token */\n      immutable(\"0xe9ec5ebbfe521ba5a70e4c2b13332e74dda4e055153dc29723307e62e8ed0f2a\")\n        /* \"W6/simpleAMM/src/simpleAMMV6.sol\":1930:1944  token.transfer */\n      0xffffffffffffffffffffffffffffffffffffffff\n      and\n      0xa9059cbb\n        /* \"W6/simpleAMM/src/simpleAMMV6.sol\":1945:1955  msg.sender */\n      caller\n        /* \"W6/simpleAMM/src/simpleAMMV6.sol\":1957:1966  amountOut */\n      dup6\n        /* \"W6/simpleAMM/src/simpleAMMV6.sol\":1930:1967  token.transfer(msg.sender, amountOut) */\n      mload(0x40)\n      dup4\n      0xffffffff\n      and\n      0xe0\n      shl\n      dup2\n      mstore\n      0x04\n      add\n      tag_246\n      swap3\n      swap2\n      swap1\n      tag_197\n      jump\t// in\n    tag_246:\n      0x20\n      mload(0x40)\n      dup1\n      dup4\n      sub\n      dup2\n      0x00\n      dup8\n      gas\n      call\n      iszero\n      dup1\n      iszero\n      tag_248\n      jumpi\n      returndatasize\n      0x00\n      dup1\n      returndatacopy\n      revert(0x00, returndatasize)\n    tag_248:\n      pop\n      pop\n      pop\n      pop\n      mload(0x40)\n      returndatasize\n      not(0x1f)\n      0x1f\n      dup3\n      add\n      and\n      dup3\n      add\n      dup1\n      0x40\n      mstore\n      pop\n      dup2\n      add\n      swap1\n      tag_249\n      swap2\n      swap1\n      tag_128\n      jump\t// in\n    tag_249:\n      pop\n        /* \"W6/simpleAMM/src/simpleAMMV6.sol\":1980:2042  _update(address(this).balance, token.balanceOf(address(this))) */\n      tag_250\n        /* \"W6/simpleAMM/src/simpleAMMV6.sol\":1988:2009  address(this).balance */\n      selfbalance\n        /* \"W6/simpleAMM/src/simpleAMMV6.sol\":2011:2016  token */\n      immutable(\"0xe9ec5ebbfe521ba5a70e4c2b13332e74dda4e055153dc29723307e62e8ed0f2a\")\n        /* \"W6/simpleAMM/src/simpleAMMV6.sol\":2011:2026  token.balanceOf */\n      0xffffffffffffffffffffffffffffffffffffffff\n      and\n      0x70a08231\n        /* \"W6/simpleAMM/src/simpleAMMV6.sol\":2035:2039  this */\n      address\n        /* \"W6/simpleAMM/src/simpleAMMV6.sol\":2011:2041  token.balanceOf(address(this)) */\n      mload(0x40)\n      dup3\n      0xffffffff\n      and\n      0xe0\n      shl\n      dup2\n      mstore\n      0x04\n      add\n      tag_251\n      swap2\n      swap1\n      tag_97\n      jump\t// in\n    tag_251:\n      0x20\n      mload(0x40)\n      dup1\n      dup4\n      sub\n      dup2\n      dup7\n      gas\n      staticcall\n      iszero\n      dup1\n      iszero\n      tag_253\n      jumpi\n      returndatasize\n      0x00\n      dup1\n      returndatacopy\n      revert(0x00, returndatasize)\n    tag_253:\n      pop\n      pop\n      pop\n      pop\n      mload(0x40)\n      returndatasize\n      not(0x1f)\n      0x1f\n      dup3\n      add\n      and\n      dup3\n      add\n      dup1\n      0x40\n      mstore\n      pop\n      dup2\n      add\n      swap1\n      tag_254\n      swap2\n      swap1\n      tag_159\n      jump\t// in\n    tag_254:\n        /* \"W6/simpleAMM/src/simpleAMMV6.sol\":1980:1987  _update */\n      tag_160\n        /* \"W6/simpleAMM/src/simpleAMMV6.sol\":1980:2042  _update(address(this).balance, token.balanceOf(address(this))) */\n      jump\t// in\n    tag_250:\n        /* \"W6/simpleAMM/src/simpleAMMV6.sol\":1549:2050  {... */\n      pop\n      pop\n        /* \"W6/simpleAMM/src/simpleAMMV6.sol\":1473:2050  function swap(uint256 _amountIn) public payable returns (uint256 amountOut) {... */\n      swap2\n      swap1\n      pop\n      jump\t// out\n        /* \"W6/simpleAMM/src/simpleAMMV6.sol\":5181:5414  function removeLiquidity(uint256 _shares) external returns (uint256 amount0, uint256 amount1) {... */\n    tag_81:\n        /* \"W6/simpleAMM/src/simpleAMMV6.sol\":5241:5256  uint256 amount0 */\n      0x00\n        /* \"W6/simpleAMM/src/simpleAMMV6.sol\":5258:5273  uint256 amount1 */\n      dup1\n        /* \"W6/simpleAMM/src/simpleAMMV6.sol\":5305:5314  balanceOf */\n      0x04\n        /* \"W6/simpleAMM/src/simpleAMMV6.sol\":5305:5326  balanceOf[msg.sender] */\n      0x00\n        /* \"W6/simpleAMM/src/simpleAMMV6.sol\":5315:5325  msg.sender */\n      caller\n        /* \"W6/simpleAMM/src/simpleAMMV6.sol\":5305:5326  balanceOf[msg.sender] */\n      0xffffffffffffffffffffffffffffffffffffffff\n      and\n      0xffffffffffffffffffffffffffffffffffffffff\n      and\n      dup2\n      mstore\n      0x20\n      add\n      swap1\n      dup2\n      mstore\n      0x20\n      add\n      0x00\n      keccak256\n      sload\n        /* \"W6/simpleAMM/src/simpleAMMV6.sol\":5294:5301  _shares */\n      dup4\n        /* \"W6/simpleAMM/src/simpleAMMV6.sol\":5294:5326  _shares <= balanceOf[msg.sender] */\n      gt\n      iszero\n        /* \"W6/simpleAMM/src/simpleAMMV6.sol\":5286:5351  require(_shares <= balanceOf[msg.sender], \"Insufficient balance\") */\n      tag_256\n      jumpi\n      mload(0x40)\n      0x08c379a000000000000000000000000000000000000000000000000000000000\n      dup2\n      mstore\n      0x04\n      add\n      tag_257\n      swap1\n      tag_258\n      jump\t// in\n    tag_257:\n      mload(0x40)\n      dup1\n      swap2\n      sub\n      swap1\n      revert\n    tag_256:\n        /* \"W6/simpleAMM/src/simpleAMMV6.sol\":5369:5406  _removeLiquidity(msg.sender, _shares) */\n      tag_259\n        /* \"W6/simpleAMM/src/simpleAMMV6.sol\":5386:5396  msg.sender */\n      caller\n        /* \"W6/simpleAMM/src/simpleAMMV6.sol\":5398:5405  _shares */\n      dup5\n        /* \"W6/simpleAMM/src/simpleAMMV6.sol\":5369:5385  _removeLiquidity */\n      tag_232\n        /* \"W6/simpleAMM/src/simpleAMMV6.sol\":5369:5406  _removeLiquidity(msg.sender, _shares) */\n      jump\t// in\n    tag_259:\n        /* \"W6/simpleAMM/src/simpleAMMV6.sol\":5362:5406  return _removeLiquidity(msg.sender, _shares) */\n      swap2\n      pop\n      swap2\n      pop\n        /* \"W6/simpleAMM/src/simpleAMMV6.sol\":5181:5414  function removeLiquidity(uint256 _shares) external returns (uint256 amount0, uint256 amount1) {... */\n      swap2\n      pop\n      swap2\n      jump\t// out\n        /* \"W6/simpleAMM/src/simpleAMMV6.sol\":5422:5660  function removeLiquidity(address _user, uint256 _shares) external returns (uint256 amount0, uint256 amount1) {... */\n    tag_87:\n        /* \"W6/simpleAMM/src/simpleAMMV6.sol\":5497:5512  uint256 amount0 */\n      0x00\n        /* \"W6/simpleAMM/src/simpleAMMV6.sol\":5514:5529  uint256 amount1 */\n      dup1\n        /* \"W6/simpleAMM/src/simpleAMMV6.sol\":5561:5570  balanceOf */\n      0x04\n        /* \"W6/simpleAMM/src/simpleAMMV6.sol\":5561:5577  balanceOf[_user] */\n      0x00\n        /* \"W6/simpleAMM/src/simpleAMMV6.sol\":5571:5576  _user */\n      dup6\n        /* \"W6/simpleAMM/src/simpleAMMV6.sol\":5561:5577  balanceOf[_user] */\n      0xffffffffffffffffffffffffffffffffffffffff\n      and\n      0xffffffffffffffffffffffffffffffffffffffff\n      and\n      dup2\n      mstore\n      0x20\n      add\n      swap1\n      dup2\n      mstore\n      0x20\n      add\n      0x00\n      keccak256\n      sload\n        /* \"W6/simpleAMM/src/simpleAMMV6.sol\":5550:5557  _shares */\n      dup4\n        /* \"W6/simpleAMM/src/simpleAMMV6.sol\":5550:5577  _shares <= balanceOf[_user] */\n      gt\n      iszero\n        /* \"W6/simpleAMM/src/simpleAMMV6.sol\":5542:5602  require(_shares <= balanceOf[_user], \"Insufficient balance\") */\n      tag_261\n      jumpi\n      mload(0x40)\n      0x08c379a000000000000000000000000000000000000000000000000000000000\n      dup2\n      mstore\n      0x04\n      add\n      tag_262\n      swap1\n      tag_258\n      jump\t// in\n    tag_262:\n      mload(0x40)\n      dup1\n      swap2\n      sub\n      swap1\n      revert\n    tag_261:\n        /* \"W6/simpleAMM/src/simpleAMMV6.sol\":5620:5652  _removeLiquidity(_user, _shares) */\n      tag_263\n        /* \"W6/simpleAMM/src/simpleAMMV6.sol\":5637:5642  _user */\n      dup5\n        /* \"W6/simpleAMM/src/simpleAMMV6.sol\":5644:5651  _shares */\n      dup5\n        /* \"W6/simpleAMM/src/simpleAMMV6.sol\":5620:5636  _removeLiquidity */\n      tag_232\n        /* \"W6/simpleAMM/src/simpleAMMV6.sol\":5620:5652  _removeLiquidity(_user, _shares) */\n      jump\t// in\n    tag_263:\n        /* \"W6/simpleAMM/src/simpleAMMV6.sol\":5613:5652  return _removeLiquidity(_user, _shares) */\n      swap2\n      pop\n      swap2\n      pop\n        /* \"W6/simpleAMM/src/simpleAMMV6.sol\":5422:5660  function removeLiquidity(address _user, uint256 _shares) external returns (uint256 amount0, uint256 amount1) {... */\n      swap3\n      pop\n      swap3\n      swap1\n      pop\n      jump\t// out\n        /* \"W6/simpleAMM/src/simpleAMMV6.sol\":6820:7001  function getETHPrice() public view returns (uint256) {... */\n    tag_91:\n        /* \"W6/simpleAMM/src/simpleAMMV6.sol\":6864:6871  uint256 */\n      0x00\n        /* \"W6/simpleAMM/src/simpleAMMV6.sol\":6903:6904  0 */\n      dup1\n        /* \"W6/simpleAMM/src/simpleAMMV6.sol\":6892:6900  reserve0 */\n      sload(0x01)\n        /* \"W6/simpleAMM/src/simpleAMMV6.sol\":6892:6904  reserve0 > 0 */\n      gt\n        /* \"W6/simpleAMM/src/simpleAMMV6.sol\":6892:6920  reserve0 > 0 && reserve1 > 0 */\n      dup1\n      iszero\n      tag_265\n      jumpi\n      pop\n        /* \"W6/simpleAMM/src/simpleAMMV6.sol\":6919:6920  0 */\n      0x00\n        /* \"W6/simpleAMM/src/simpleAMMV6.sol\":6908:6916  reserve1 */\n      sload(0x02)\n        /* \"W6/simpleAMM/src/simpleAMMV6.sol\":6908:6920  reserve1 > 0 */\n      gt\n        /* \"W6/simpleAMM/src/simpleAMMV6.sol\":6892:6920  reserve0 > 0 && reserve1 > 0 */\n    tag_265:\n        /* \"W6/simpleAMM/src/simpleAMMV6.sol\":6884:6945  require(reserve0 > 0 && reserve1 > 0, \"Invalid ETH reserves\") */\n      tag_266\n      jumpi\n      mload(0x40)\n      0x08c379a000000000000000000000000000000000000000000000000000000000\n      dup2\n      mstore\n      0x04\n      add\n      tag_267\n      swap1\n      tag_268\n      jump\t// in\n    tag_267:\n      mload(0x40)\n      dup1\n      swap2\n      sub\n      swap1\n      revert\n    tag_266:\n        /* \"W6/simpleAMM/src/simpleAMMV6.sol\":6985:6993  reserve0 */\n      sload(0x01)\n        /* \"W6/simpleAMM/src/simpleAMMV6.sol\":6975:6981  10**18 */\n      0x0de0b6b3a7640000\n        /* \"W6/simpleAMM/src/simpleAMMV6.sol\":6964:6972  reserve1 */\n      sload(0x02)\n        /* \"W6/simpleAMM/src/simpleAMMV6.sol\":6964:6981  reserve1 * 10**18 */\n      tag_269\n      swap2\n      swap1\n      tag_132\n      jump\t// in\n    tag_269:\n        /* \"W6/simpleAMM/src/simpleAMMV6.sol\":6963:6993  (reserve1 * 10**18) / reserve0 */\n      tag_270\n      swap2\n      swap1\n      tag_145\n      jump\t// in\n    tag_270:\n        /* \"W6/simpleAMM/src/simpleAMMV6.sol\":6956:6993  return (reserve1 * 10**18) / reserve0 */\n      swap1\n      pop\n        /* \"W6/simpleAMM/src/simpleAMMV6.sol\":6820:7001  function getETHPrice() public view returns (uint256) {... */\n      swap1\n      jump\t// out\n        /* \"W6/simpleAMM/src/simpleAMMV6.sol\":721:769  address public constant ETH_ADDRESS = address(0) */\n    tag_95:\n        /* \"W6/simpleAMM/src/simpleAMMV6.sol\":767:768  0 */\n      0x00\n        /* \"W6/simpleAMM/src/simpleAMMV6.sol\":721:769  address public constant ETH_ADDRESS = address(0) */\n      dup2\n      jump\t// out\n        /* \"W6/simpleAMM/src/simpleAMMV6.sol\":3499:4235  function swapTokenForETH_WithSlipLock(uint256 _amountIn,uint256 _forwardOutput,uint256 _slipLock) public returns (uint256 amountOut) {... */\n    tag_101:\n        /* \"W6/simpleAMM/src/simpleAMMV6.sol\":3613:3630  uint256 amountOut */\n      0x00\n        /* \"W6/simpleAMM/src/simpleAMMV6.sol\":3643:3666  uint256 amountInWithFee */\n      dup1\n        /* \"W6/simpleAMM/src/simpleAMMV6.sol\":3689:3693  1000 */\n      0x03e8\n        /* \"W6/simpleAMM/src/simpleAMMV6.sol\":3682:3685  997 */\n      0x03e5\n        /* \"W6/simpleAMM/src/simpleAMMV6.sol\":3670:3679  _amountIn */\n      dup7\n        /* \"W6/simpleAMM/src/simpleAMMV6.sol\":3670:3685  _amountIn * 997 */\n      tag_272\n      swap2\n      swap1\n      tag_132\n      jump\t// in\n    tag_272:\n        /* \"W6/simpleAMM/src/simpleAMMV6.sol\":3669:3693  (_amountIn * 997) / 1000 */\n      tag_273\n      swap2\n      swap1\n      tag_145\n      jump\t// in\n    tag_273:\n        /* \"W6/simpleAMM/src/simpleAMMV6.sol\":3643:3693  uint256 amountInWithFee = (_amountIn * 997) / 1000 */\n      swap1\n      pop\n        /* \"W6/simpleAMM/src/simpleAMMV6.sol\":3761:3776  amountInWithFee */\n      dup1\n        /* \"W6/simpleAMM/src/simpleAMMV6.sol\":3750:3758  reserve1 */\n      sload(0x02)\n        /* \"W6/simpleAMM/src/simpleAMMV6.sol\":3750:3776  reserve1 + amountInWithFee */\n      tag_274\n      swap2\n      swap1\n      tag_170\n      jump\t// in\n    tag_274:\n        /* \"W6/simpleAMM/src/simpleAMMV6.sol\":3730:3745  amountInWithFee */\n      dup2\n        /* \"W6/simpleAMM/src/simpleAMMV6.sol\":3719:3727  reserve0 */\n      sload(0x01)\n        /* \"W6/simpleAMM/src/simpleAMMV6.sol\":3719:3745  reserve0 * amountInWithFee */\n      tag_275\n      swap2\n      swap1\n      tag_132\n      jump\t// in\n    tag_275:\n        /* \"W6/simpleAMM/src/simpleAMMV6.sol\":3718:3777  (reserve0 * amountInWithFee) / (reserve1 + amountInWithFee) */\n      tag_276\n      swap2\n      swap1\n      tag_145\n      jump\t// in\n    tag_276:\n        /* \"W6/simpleAMM/src/simpleAMMV6.sol\":3706:3777  amountOut = (reserve0 * amountInWithFee) / (reserve1 + amountInWithFee) */\n      swap2\n      pop\n        /* \"W6/simpleAMM/src/simpleAMMV6.sol\":3808:3809  0 */\n      0x00\n        /* \"W6/simpleAMM/src/simpleAMMV6.sol\":3796:3805  amountOut */\n      dup3\n        /* \"W6/simpleAMM/src/simpleAMMV6.sol\":3796:3809  amountOut > 0 */\n      gt\n        /* \"W6/simpleAMM/src/simpleAMMV6.sol\":3788:3840  require(amountOut > 0, \"Insufficient output amount\") */\n      tag_277\n      jumpi\n      mload(0x40)\n      0x08c379a000000000000000000000000000000000000000000000000000000000\n      dup2\n      mstore\n      0x04\n      add\n      tag_278\n      swap1\n      tag_184\n      jump\t// in\n    tag_278:\n      mload(0x40)\n      dup1\n      swap2\n      sub\n      swap1\n      revert\n    tag_277:\n        /* \"W6/simpleAMM/src/simpleAMMV6.sol\":3905:3909  1000 */\n      0x03e8\n        /* \"W6/simpleAMM/src/simpleAMMV6.sol\":3894:3903  _slipLock */\n      dup4\n        /* \"W6/simpleAMM/src/simpleAMMV6.sol\":3889:3893  1000 */\n      0x03e8\n        /* \"W6/simpleAMM/src/simpleAMMV6.sol\":3889:3903  1000-_slipLock */\n      tag_279\n      swap2\n      swap1\n      tag_186\n      jump\t// in\n    tag_279:\n        /* \"W6/simpleAMM/src/simpleAMMV6.sol\":3873:3887  _forwardOutput */\n      dup6\n        /* \"W6/simpleAMM/src/simpleAMMV6.sol\":3873:3904  _forwardOutput*(1000-_slipLock) */\n      tag_280\n      swap2\n      swap1\n      tag_132\n      jump\t// in\n    tag_280:\n        /* \"W6/simpleAMM/src/simpleAMMV6.sol\":3873:3909  _forwardOutput*(1000-_slipLock)/1000 */\n      tag_281\n      swap2\n      swap1\n      tag_145\n      jump\t// in\n    tag_281:\n        /* \"W6/simpleAMM/src/simpleAMMV6.sol\":3859:3868  amountOut */\n      dup3\n        /* \"W6/simpleAMM/src/simpleAMMV6.sol\":3859:3910  amountOut >= (_forwardOutput*(1000-_slipLock)/1000) */\n      lt\n      iszero\n        /* \"W6/simpleAMM/src/simpleAMMV6.sol\":3851:3923  require(amountOut >= (_forwardOutput*(1000-_slipLock)/1000), \"SlipLock\") */\n      tag_282\n      jumpi\n      mload(0x40)\n      0x08c379a000000000000000000000000000000000000000000000000000000000\n      dup2\n      mstore\n      0x04\n      add\n      tag_283\n      swap1\n      tag_191\n      jump\t// in\n    tag_283:\n      mload(0x40)\n      dup1\n      swap2\n      sub\n      swap1\n      revert\n    tag_282:\n        /* \"W6/simpleAMM/src/simpleAMMV6.sol\":3934:3999  _mint(developer, ((_amountIn-amountOut)>>1)*totalSupply/reserve1) */\n      tag_284\n        /* \"W6/simpleAMM/src/simpleAMMV6.sol\":3940:3949  developer */\n      0x00\n      dup1\n      sload\n      swap1\n      0x0100\n      exp\n      swap1\n      div\n      0xffffffffffffffffffffffffffffffffffffffff\n      and\n        /* \"W6/simpleAMM/src/simpleAMMV6.sol\":3990:3998  reserve1 */\n      sload(0x02)\n        /* \"W6/simpleAMM/src/simpleAMMV6.sol\":3978:3989  totalSupply */\n      sload(0x03)\n        /* \"W6/simpleAMM/src/simpleAMMV6.sol\":3975:3976  1 */\n      0x01\n        /* \"W6/simpleAMM/src/simpleAMMV6.sol\":3963:3972  amountOut */\n      dup7\n        /* \"W6/simpleAMM/src/simpleAMMV6.sol\":3953:3962  _amountIn */\n      dup11\n        /* \"W6/simpleAMM/src/simpleAMMV6.sol\":3953:3972  _amountIn-amountOut */\n      tag_285\n      swap2\n      swap1\n      tag_186\n      jump\t// in\n    tag_285:\n        /* \"W6/simpleAMM/src/simpleAMMV6.sol\":3952:3976  (_amountIn-amountOut)>>1 */\n      swap1\n      shr\n        /* \"W6/simpleAMM/src/simpleAMMV6.sol\":3951:3989  ((_amountIn-amountOut)>>1)*totalSupply */\n      tag_286\n      swap2\n      swap1\n      tag_132\n      jump\t// in\n    tag_286:\n        /* \"W6/simpleAMM/src/simpleAMMV6.sol\":3951:3998  ((_amountIn-amountOut)>>1)*totalSupply/reserve1 */\n      tag_287\n      swap2\n      swap1\n      tag_145\n      jump\t// in\n    tag_287:\n        /* \"W6/simpleAMM/src/simpleAMMV6.sol\":3934:3939  _mint */\n      tag_153\n        /* \"W6/simpleAMM/src/simpleAMMV6.sol\":3934:3999  _mint(developer, ((_amountIn-amountOut)>>1)*totalSupply/reserve1) */\n      jump\t// in\n    tag_284:\n        /* \"W6/simpleAMM/src/simpleAMMV6.sol\":4046:4051  token */\n      immutable(\"0xe9ec5ebbfe521ba5a70e4c2b13332e74dda4e055153dc29723307e62e8ed0f2a\")\n        /* \"W6/simpleAMM/src/simpleAMMV6.sol\":4046:4064  token.transferFrom */\n      0xffffffffffffffffffffffffffffffffffffffff\n      and\n      0x23b872dd\n        /* \"W6/simpleAMM/src/simpleAMMV6.sol\":4065:4075  msg.sender */\n      caller\n        /* \"W6/simpleAMM/src/simpleAMMV6.sol\":4085:4089  this */\n      address\n        /* \"W6/simpleAMM/src/simpleAMMV6.sol\":4092:4101  _amountIn */\n      dup9\n        /* \"W6/simpleAMM/src/simpleAMMV6.sol\":4046:4102  token.transferFrom(msg.sender, address(this), _amountIn) */\n      mload(0x40)\n      dup5\n      0xffffffff\n      and\n      0xe0\n      shl\n      dup2\n      mstore\n      0x04\n      add\n      tag_288\n      swap4\n      swap3\n      swap2\n      swap1\n      tag_124\n      jump\t// in\n    tag_288:\n      0x20\n      mload(0x40)\n      dup1\n      dup4\n      sub\n      dup2\n      0x00\n      dup8\n      gas\n      call\n      iszero\n      dup1\n      iszero\n      tag_290\n      jumpi\n      returndatasize\n      0x00\n      dup1\n      returndatacopy\n      revert(0x00, returndatasize)\n    tag_290:\n      pop\n      pop\n      pop\n      pop\n      mload(0x40)\n      returndatasize\n      not(0x1f)\n      0x1f\n      dup3\n      add\n      and\n      dup3\n      add\n      dup1\n      0x40\n      mstore\n      pop\n      dup2\n      add\n      swap1\n      tag_291\n      swap2\n      swap1\n      tag_128\n      jump\t// in\n    tag_291:\n      pop\n        /* \"W6/simpleAMM/src/simpleAMMV6.sol\":4121:4131  msg.sender */\n      caller\n        /* \"W6/simpleAMM/src/simpleAMMV6.sol\":4113:4141  payable(msg.sender).transfer */\n      0xffffffffffffffffffffffffffffffffffffffff\n      and\n        /* \"W6/simpleAMM/src/simpleAMMV6.sol\":4113:4152  payable(msg.sender).transfer(amountOut) */\n      0x08fc\n        /* \"W6/simpleAMM/src/simpleAMMV6.sol\":4142:4151  amountOut */\n      dup4\n        /* \"W6/simpleAMM/src/simpleAMMV6.sol\":4113:4152  payable(msg.sender).transfer(amountOut) */\n      swap1\n      dup2\n      iszero\n      mul\n      swap1\n      mload(0x40)\n      0x00\n      mload(0x40)\n      dup1\n      dup4\n      sub\n      dup2\n      dup6\n      dup9\n      dup9\n      call\n      swap4\n      pop\n      pop\n      pop\n      pop\n      iszero\n      dup1\n      iszero\n      tag_293\n      jumpi\n      returndatasize\n      0x00\n      dup1\n      returndatacopy\n      revert(0x00, returndatasize)\n    tag_293:\n      pop\n        /* \"W6/simpleAMM/src/simpleAMMV6.sol\":4165:4227  _update(address(this).balance, token.balanceOf(address(this))) */\n      tag_294\n        /* \"W6/simpleAMM/src/simpleAMMV6.sol\":4173:4194  address(this).balance */\n      selfbalance\n        /* \"W6/simpleAMM/src/simpleAMMV6.sol\":4196:4201  token */\n      immutable(\"0xe9ec5ebbfe521ba5a70e4c2b13332e74dda4e055153dc29723307e62e8ed0f2a\")\n        /* \"W6/simpleAMM/src/simpleAMMV6.sol\":4196:4211  token.balanceOf */\n      0xffffffffffffffffffffffffffffffffffffffff\n      and\n      0x70a08231\n        /* \"W6/simpleAMM/src/simpleAMMV6.sol\":4220:4224  this */\n      address\n        /* \"W6/simpleAMM/src/simpleAMMV6.sol\":4196:4226  token.balanceOf(address(this)) */\n      mload(0x40)\n      dup3\n      0xffffffff\n      and\n      0xe0\n      shl\n      dup2\n      mstore\n      0x04\n      add\n      tag_295\n      swap2\n      swap1\n      tag_97\n      jump\t// in\n    tag_295:\n      0x20\n      mload(0x40)\n      dup1\n      dup4\n      sub\n      dup2\n      dup7\n      gas\n      staticcall\n      iszero\n      dup1\n      iszero\n      tag_297\n      jumpi\n      returndatasize\n      0x00\n      dup1\n      returndatacopy\n      revert(0x00, returndatasize)\n    tag_297:\n      pop\n      pop\n      pop\n      pop\n      mload(0x40)\n      returndatasize\n      not(0x1f)\n      0x1f\n      dup3\n      add\n      and\n      dup3\n      add\n      dup1\n      0x40\n      mstore\n      pop\n      dup2\n      add\n      swap1\n      tag_298\n      swap2\n      swap1\n      tag_159\n      jump\t// in\n    tag_298:\n        /* \"W6/simpleAMM/src/simpleAMMV6.sol\":4165:4172  _update */\n      tag_160\n        /* \"W6/simpleAMM/src/simpleAMMV6.sol\":4165:4227  _update(address(this).balance, token.balanceOf(address(this))) */\n      jump\t// in\n    tag_294:\n        /* \"W6/simpleAMM/src/simpleAMMV6.sol\":3632:4235  {... */\n      pop\n        /* \"W6/simpleAMM/src/simpleAMMV6.sol\":3499:4235  function swapTokenForETH_WithSlipLock(uint256 _amountIn,uint256 _forwardOutput,uint256 _slipLock) public returns (uint256 amountOut) {... */\n      swap4\n      swap3\n      pop\n      pop\n      pop\n      jump\t// out\n        /* \"W6/simpleAMM/src/simpleAMMV6.sol\":7582:7890  function getInERCPredictOutputETH(uint256 _amount) public view returns (uint256) {... */\n    tag_106:\n        /* \"W6/simpleAMM/src/simpleAMMV6.sol\":7654:7661  uint256 */\n      0x00\n        /* \"W6/simpleAMM/src/simpleAMMV6.sol\":7693:7694  0 */\n      dup1\n        /* \"W6/simpleAMM/src/simpleAMMV6.sol\":7682:7690  reserve0 */\n      sload(0x01)\n        /* \"W6/simpleAMM/src/simpleAMMV6.sol\":7682:7694  reserve0 > 0 */\n      gt\n        /* \"W6/simpleAMM/src/simpleAMMV6.sol\":7682:7710  reserve0 > 0 && reserve1 > 0 */\n      dup1\n      iszero\n      tag_300\n      jumpi\n      pop\n        /* \"W6/simpleAMM/src/simpleAMMV6.sol\":7709:7710  0 */\n      0x00\n        /* \"W6/simpleAMM/src/simpleAMMV6.sol\":7698:7706  reserve1 */\n      sload(0x02)\n        /* \"W6/simpleAMM/src/simpleAMMV6.sol\":7698:7710  reserve1 > 0 */\n      gt\n        /* \"W6/simpleAMM/src/simpleAMMV6.sol\":7682:7710  reserve0 > 0 && reserve1 > 0 */\n    tag_300:\n        /* \"W6/simpleAMM/src/simpleAMMV6.sol\":7682:7723  reserve0 > 0 && reserve1 > 0 && _amount>0 */\n      dup1\n      iszero\n      tag_301\n      jumpi\n      pop\n        /* \"W6/simpleAMM/src/simpleAMMV6.sol\":7722:7723  0 */\n      0x00\n        /* \"W6/simpleAMM/src/simpleAMMV6.sol\":7714:7721  _amount */\n      dup3\n        /* \"W6/simpleAMM/src/simpleAMMV6.sol\":7714:7723  _amount>0 */\n      gt\n        /* \"W6/simpleAMM/src/simpleAMMV6.sol\":7682:7723  reserve0 > 0 && reserve1 > 0 && _amount>0 */\n    tag_301:\n        /* \"W6/simpleAMM/src/simpleAMMV6.sol\":7674:7748  require(reserve0 > 0 && reserve1 > 0 && _amount>0, \"Invalid ETH reserves\") */\n      tag_302\n      jumpi\n      mload(0x40)\n      0x08c379a000000000000000000000000000000000000000000000000000000000\n      dup2\n      mstore\n      0x04\n      add\n      tag_303\n      swap1\n      tag_268\n      jump\t// in\n    tag_303:\n      mload(0x40)\n      dup1\n      swap2\n      sub\n      swap1\n      revert\n    tag_302:\n        /* \"W6/simpleAMM/src/simpleAMMV6.sol\":7759:7782  uint256 amountInWithFee */\n      0x00\n        /* \"W6/simpleAMM/src/simpleAMMV6.sol\":7801:7805  1000 */\n      0x03e8\n        /* \"W6/simpleAMM/src/simpleAMMV6.sol\":7794:7797  997 */\n      0x03e5\n        /* \"W6/simpleAMM/src/simpleAMMV6.sol\":7784:7791  _amount */\n      dup5\n        /* \"W6/simpleAMM/src/simpleAMMV6.sol\":7784:7797  _amount * 997 */\n      tag_304\n      swap2\n      swap1\n      tag_132\n      jump\t// in\n    tag_304:\n        /* \"W6/simpleAMM/src/simpleAMMV6.sol\":7783:7805  (_amount * 997) / 1000 */\n      tag_305\n      swap2\n      swap1\n      tag_145\n      jump\t// in\n    tag_305:\n        /* \"W6/simpleAMM/src/simpleAMMV6.sol\":7759:7805  uint256 amountInWithFee=(_amount * 997) / 1000 */\n      swap1\n      pop\n        /* \"W6/simpleAMM/src/simpleAMMV6.sol\":7866:7881  amountInWithFee */\n      dup1\n        /* \"W6/simpleAMM/src/simpleAMMV6.sol\":7855:7863  reserve1 */\n      sload(0x02)\n        /* \"W6/simpleAMM/src/simpleAMMV6.sol\":7855:7881  reserve1 + amountInWithFee */\n      tag_306\n      swap2\n      swap1\n      tag_170\n      jump\t// in\n    tag_306:\n        /* \"W6/simpleAMM/src/simpleAMMV6.sol\":7835:7850  amountInWithFee */\n      dup2\n        /* \"W6/simpleAMM/src/simpleAMMV6.sol\":7824:7832  reserve0 */\n      sload(0x01)\n        /* \"W6/simpleAMM/src/simpleAMMV6.sol\":7824:7850  reserve0 * amountInWithFee */\n      tag_307\n      swap2\n      swap1\n      tag_132\n      jump\t// in\n    tag_307:\n        /* \"W6/simpleAMM/src/simpleAMMV6.sol\":7823:7882  (reserve0 * amountInWithFee) / (reserve1 + amountInWithFee) */\n      tag_308\n      swap2\n      swap1\n      tag_145\n      jump\t// in\n    tag_308:\n        /* \"W6/simpleAMM/src/simpleAMMV6.sol\":7816:7882  return (reserve0 * amountInWithFee) / (reserve1 + amountInWithFee) */\n      swap2\n      pop\n      pop\n        /* \"W6/simpleAMM/src/simpleAMMV6.sol\":7582:7890  function getInERCPredictOutputETH(uint256 _amount) public view returns (uint256) {... */\n      swap2\n      swap1\n      pop\n      jump\t// out\n        /* \"W6/simpleAMM/src/simpleAMMV6.sol\":6286:6389  function sharesOf(address _user) public view returns(uint256){... */\n    tag_111:\n        /* \"W6/simpleAMM/src/simpleAMMV6.sol\":6339:6346  uint256 */\n      0x00\n        /* \"W6/simpleAMM/src/simpleAMMV6.sol\":6365:6374  balanceOf */\n      0x04\n        /* \"W6/simpleAMM/src/simpleAMMV6.sol\":6365:6381  balanceOf[_user] */\n      0x00\n        /* \"W6/simpleAMM/src/simpleAMMV6.sol\":6375:6380  _user */\n      dup4\n        /* \"W6/simpleAMM/src/simpleAMMV6.sol\":6365:6381  balanceOf[_user] */\n      0xffffffffffffffffffffffffffffffffffffffff\n      and\n      0xffffffffffffffffffffffffffffffffffffffff\n      and\n      dup2\n      mstore\n      0x20\n      add\n      swap1\n      dup2\n      mstore\n      0x20\n      add\n      0x00\n      keccak256\n      sload\n        /* \"W6/simpleAMM/src/simpleAMMV6.sol\":6358:6381  return balanceOf[_user] */\n      swap1\n      pop\n        /* \"W6/simpleAMM/src/simpleAMMV6.sol\":6286:6389  function sharesOf(address _user) public view returns(uint256){... */\n      swap2\n      swap1\n      pop\n      jump\t// out\n        /* \"W6/simpleAMM/src/simpleAMMV6.sol\":685:714  IERC20 public immutable token */\n    tag_115:\n      immutable(\"0xe9ec5ebbfe521ba5a70e4c2b13332e74dda4e055153dc29723307e62e8ed0f2a\")\n      dup2\n      jump\t// out\n        /* \"W6/simpleAMM/src/simpleAMMV6.sol\":7007:7258  function getERCPrice() public view returns (uint256) {... */\n    tag_120:\n        /* \"W6/simpleAMM/src/simpleAMMV6.sol\":7051:7058  uint256 */\n      0x00\n        /* \"W6/simpleAMM/src/simpleAMMV6.sol\":7090:7091  0 */\n      dup1\n        /* \"W6/simpleAMM/src/simpleAMMV6.sol\":7079:7087  reserve0 */\n      sload(0x01)\n        /* \"W6/simpleAMM/src/simpleAMMV6.sol\":7079:7091  reserve0 > 0 */\n      gt\n        /* \"W6/simpleAMM/src/simpleAMMV6.sol\":7079:7107  reserve0 > 0 && reserve1 > 0 */\n      dup1\n      iszero\n      tag_311\n      jumpi\n      pop\n        /* \"W6/simpleAMM/src/simpleAMMV6.sol\":7106:7107  0 */\n      0x00\n        /* \"W6/simpleAMM/src/simpleAMMV6.sol\":7095:7103  reserve1 */\n      sload(0x02)\n        /* \"W6/simpleAMM/src/simpleAMMV6.sol\":7095:7107  reserve1 > 0 */\n      gt\n        /* \"W6/simpleAMM/src/simpleAMMV6.sol\":7079:7107  reserve0 > 0 && reserve1 > 0 */\n    tag_311:\n        /* \"W6/simpleAMM/src/simpleAMMV6.sol\":7071:7134  require(reserve0 > 0 && reserve1 > 0, \"Invalid ERC20 reserves\") */\n      tag_312\n      jumpi\n      mload(0x40)\n      0x08c379a000000000000000000000000000000000000000000000000000000000\n      dup2\n      mstore\n      0x04\n      add\n      tag_313\n      swap1\n      tag_166\n      jump\t// in\n    tag_313:\n      mload(0x40)\n      dup1\n      swap2\n      sub\n      swap1\n      revert\n    tag_312:\n        /* \"W6/simpleAMM/src/simpleAMMV6.sol\":7145:7161  uint256 decimals */\n      0x00\n        /* \"W6/simpleAMM/src/simpleAMMV6.sol\":7178:7183  token */\n      immutable(\"0xe9ec5ebbfe521ba5a70e4c2b13332e74dda4e055153dc29723307e62e8ed0f2a\")\n        /* \"W6/simpleAMM/src/simpleAMMV6.sol\":7164:7194  ERC20(address(token)).decimals */\n      0xffffffffffffffffffffffffffffffffffffffff\n      and\n      0x313ce567\n        /* \"W6/simpleAMM/src/simpleAMMV6.sol\":7164:7196  ERC20(address(token)).decimals() */\n      mload(0x40)\n      dup2\n      0xffffffff\n      and\n      0xe0\n      shl\n      dup2\n      mstore\n      0x04\n      add\n      0x20\n      mload(0x40)\n      dup1\n      dup4\n      sub\n      dup2\n      dup7\n      gas\n      staticcall\n      iszero\n      dup1\n      iszero\n      tag_315\n      jumpi\n      returndatasize\n      0x00\n      dup1\n      returndatacopy\n      revert(0x00, returndatasize)\n    tag_315:\n      pop\n      pop\n      pop\n      pop\n      mload(0x40)\n      returndatasize\n      not(0x1f)\n      0x1f\n      dup3\n      add\n      and\n      dup3\n      add\n      dup1\n      0x40\n      mstore\n      pop\n      dup2\n      add\n      swap1\n      tag_316\n      swap2\n      swap1\n      tag_317\n      jump\t// in\n    tag_316:\n        /* \"W6/simpleAMM/src/simpleAMMV6.sol\":7145:7196  uint256 decimals = ERC20(address(token)).decimals() */\n      0xff\n      and\n      swap1\n      pop\n        /* \"W6/simpleAMM/src/simpleAMMV6.sol\":7242:7250  reserve1 */\n      sload(0x02)\n        /* \"W6/simpleAMM/src/simpleAMMV6.sol\":7230:7238  decimals */\n      dup2\n        /* \"W6/simpleAMM/src/simpleAMMV6.sol\":7226:7228  10 */\n      0x0a\n        /* \"W6/simpleAMM/src/simpleAMMV6.sol\":7226:7238  10**decimals */\n      tag_318\n      swap2\n      swap1\n      tag_319\n      jump\t// in\n    tag_318:\n        /* \"W6/simpleAMM/src/simpleAMMV6.sol\":7215:7223  reserve0 */\n      sload(0x01)\n        /* \"W6/simpleAMM/src/simpleAMMV6.sol\":7215:7238  reserve0 * 10**decimals */\n      tag_320\n      swap2\n      swap1\n      tag_132\n      jump\t// in\n    tag_320:\n        /* \"W6/simpleAMM/src/simpleAMMV6.sol\":7214:7250  (reserve0 * 10**decimals) / reserve1 */\n      tag_321\n      swap2\n      swap1\n      tag_145\n      jump\t// in\n    tag_321:\n        /* \"W6/simpleAMM/src/simpleAMMV6.sol\":7207:7250  return (reserve0 * 10**decimals) / reserve1 */\n      swap2\n      pop\n      pop\n        /* \"W6/simpleAMM/src/simpleAMMV6.sol\":7007:7258  function getERCPrice() public view returns (uint256) {... */\n      swap1\n      jump\t// out\n        /* \"W6/simpleAMM/src/simpleAMMV6.sol\":6397:6701  function _sqrt(uint y) internal pure returns (uint z) {... */\n    tag_140:\n        /* \"W6/simpleAMM/src/simpleAMMV6.sol\":6443:6449  uint z */\n      0x00\n        /* \"W6/simpleAMM/src/simpleAMMV6.sol\":6470:6471  3 */\n      0x03\n        /* \"W6/simpleAMM/src/simpleAMMV6.sol\":6466:6467  y */\n      dup3\n        /* \"W6/simpleAMM/src/simpleAMMV6.sol\":6466:6471  y > 3 */\n      gt\n        /* \"W6/simpleAMM/src/simpleAMMV6.sol\":6462:6694  if (y > 3) {... */\n      iszero\n      tag_323\n      jumpi\n        /* \"W6/simpleAMM/src/simpleAMMV6.sol\":6492:6493  y */\n      dup2\n        /* \"W6/simpleAMM/src/simpleAMMV6.sol\":6488:6493  z = y */\n      swap1\n      pop\n        /* \"W6/simpleAMM/src/simpleAMMV6.sol\":6508:6514  uint x */\n      0x00\n        /* \"W6/simpleAMM/src/simpleAMMV6.sol\":6525:6526  1 */\n      0x01\n        /* \"W6/simpleAMM/src/simpleAMMV6.sol\":6521:6522  2 */\n      0x02\n        /* \"W6/simpleAMM/src/simpleAMMV6.sol\":6517:6518  y */\n      dup5\n        /* \"W6/simpleAMM/src/simpleAMMV6.sol\":6517:6522  y / 2 */\n      tag_324\n      swap2\n      swap1\n      tag_145\n      jump\t// in\n    tag_324:\n        /* \"W6/simpleAMM/src/simpleAMMV6.sol\":6517:6526  y / 2 + 1 */\n      tag_325\n      swap2\n      swap1\n      tag_170\n      jump\t// in\n    tag_325:\n        /* \"W6/simpleAMM/src/simpleAMMV6.sol\":6508:6526  uint x = y / 2 + 1 */\n      swap1\n      pop\n        /* \"W6/simpleAMM/src/simpleAMMV6.sol\":6541:6633  while (x < z) {... */\n    tag_326:\n        /* \"W6/simpleAMM/src/simpleAMMV6.sol\":6552:6553  z */\n      dup2\n        /* \"W6/simpleAMM/src/simpleAMMV6.sol\":6548:6549  x */\n      dup2\n        /* \"W6/simpleAMM/src/simpleAMMV6.sol\":6548:6553  x < z */\n      lt\n        /* \"W6/simpleAMM/src/simpleAMMV6.sol\":6541:6633  while (x < z) {... */\n      iszero\n      tag_327\n      jumpi\n        /* \"W6/simpleAMM/src/simpleAMMV6.sol\":6578:6579  x */\n      dup1\n        /* \"W6/simpleAMM/src/simpleAMMV6.sol\":6574:6579  z = x */\n      swap2\n      pop\n        /* \"W6/simpleAMM/src/simpleAMMV6.sol\":6616:6617  2 */\n      0x02\n        /* \"W6/simpleAMM/src/simpleAMMV6.sol\":6611:6612  x */\n      dup2\n        /* \"W6/simpleAMM/src/simpleAMMV6.sol\":6607:6608  x */\n      dup3\n        /* \"W6/simpleAMM/src/simpleAMMV6.sol\":6603:6604  y */\n      dup6\n        /* \"W6/simpleAMM/src/simpleAMMV6.sol\":6603:6608  y / x */\n      tag_328\n      swap2\n      swap1\n      tag_145\n      jump\t// in\n    tag_328:\n        /* \"W6/simpleAMM/src/simpleAMMV6.sol\":6603:6612  y / x + x */\n      tag_329\n      swap2\n      swap1\n      tag_170\n      jump\t// in\n    tag_329:\n        /* \"W6/simpleAMM/src/simpleAMMV6.sol\":6602:6617  (y / x + x) / 2 */\n      tag_330\n      swap2\n      swap1\n      tag_145\n      jump\t// in\n    tag_330:\n        /* \"W6/simpleAMM/src/simpleAMMV6.sol\":6598:6617  x = (y / x + x) / 2 */\n      swap1\n      pop\n        /* \"W6/simpleAMM/src/simpleAMMV6.sol\":6541:6633  while (x < z) {... */\n      jump(tag_326)\n    tag_327:\n        /* \"W6/simpleAMM/src/simpleAMMV6.sol\":6473:6644  {... */\n      pop\n        /* \"W6/simpleAMM/src/simpleAMMV6.sol\":6462:6694  if (y > 3) {... */\n      jump(tag_331)\n    tag_323:\n        /* \"W6/simpleAMM/src/simpleAMMV6.sol\":6659:6660  0 */\n      0x00\n        /* \"W6/simpleAMM/src/simpleAMMV6.sol\":6654:6655  y */\n      dup3\n        /* \"W6/simpleAMM/src/simpleAMMV6.sol\":6654:6660  y != 0 */\n      eq\n        /* \"W6/simpleAMM/src/simpleAMMV6.sol\":6650:6694  if (y != 0) {... */\n      tag_332\n      jumpi\n        /* \"W6/simpleAMM/src/simpleAMMV6.sol\":6681:6682  1 */\n      0x01\n        /* \"W6/simpleAMM/src/simpleAMMV6.sol\":6677:6682  z = 1 */\n      swap1\n      pop\n        /* \"W6/simpleAMM/src/simpleAMMV6.sol\":6650:6694  if (y != 0) {... */\n    tag_332:\n        /* \"W6/simpleAMM/src/simpleAMMV6.sol\":6462:6694  if (y > 3) {... */\n    tag_331:\n        /* \"W6/simpleAMM/src/simpleAMMV6.sol\":6397:6701  function _sqrt(uint y) internal pure returns (uint z) {... */\n      swap2\n      swap1\n      pop\n      jump\t// out\n        /* \"@openzeppelin/contracts/utils/math/Math.sol\":588:692  function min(uint256 a, uint256 b) internal pure returns (uint256) {... */\n    tag_148:\n        /* \"@openzeppelin/contracts/utils/math/Math.sol\":646:653  uint256 */\n      0x00\n        /* \"@openzeppelin/contracts/utils/math/Math.sol\":676:677  b */\n      dup2\n        /* \"@openzeppelin/contracts/utils/math/Math.sol\":672:673  a */\n      dup4\n        /* \"@openzeppelin/contracts/utils/math/Math.sol\":672:677  a < b */\n      lt\n        /* \"@openzeppelin/contracts/utils/math/Math.sol\":672:685  a < b ? a : b */\n      tag_334\n      jumpi\n        /* \"@openzeppelin/contracts/utils/math/Math.sol\":684:685  b */\n      dup2\n        /* \"@openzeppelin/contracts/utils/math/Math.sol\":672:685  a < b ? a : b */\n      jump(tag_335)\n    tag_334:\n        /* \"@openzeppelin/contracts/utils/math/Math.sol\":680:681  a */\n      dup3\n        /* \"@openzeppelin/contracts/utils/math/Math.sol\":672:685  a < b ? a : b */\n    tag_335:\n        /* \"@openzeppelin/contracts/utils/math/Math.sol\":665:685  return a < b ? a : b */\n      swap1\n      pop\n        /* \"@openzeppelin/contracts/utils/math/Math.sol\":588:692  function min(uint256 a, uint256 b) internal pure returns (uint256) {... */\n      swap3\n      swap2\n      pop\n      pop\n      jump\t// out\n        /* \"W6/simpleAMM/src/simpleAMMV6.sol\":1052:1182  function _mint(address _to, uint256 _amount) private {... */\n    tag_153:\n        /* \"W6/simpleAMM/src/simpleAMMV6.sol\":1134:1141  _amount */\n      dup1\n        /* \"W6/simpleAMM/src/simpleAMMV6.sol\":1116:1125  balanceOf */\n      0x04\n        /* \"W6/simpleAMM/src/simpleAMMV6.sol\":1116:1130  balanceOf[_to] */\n      0x00\n        /* \"W6/simpleAMM/src/simpleAMMV6.sol\":1126:1129  _to */\n      dup5\n        /* \"W6/simpleAMM/src/simpleAMMV6.sol\":1116:1130  balanceOf[_to] */\n      0xffffffffffffffffffffffffffffffffffffffff\n      and\n      0xffffffffffffffffffffffffffffffffffffffff\n      and\n      dup2\n      mstore\n      0x20\n      add\n      swap1\n      dup2\n      mstore\n      0x20\n      add\n      0x00\n      keccak256\n      0x00\n        /* \"W6/simpleAMM/src/simpleAMMV6.sol\":1116:1141  balanceOf[_to] += _amount */\n      dup3\n      dup3\n      sload\n      tag_337\n      swap2\n      swap1\n      tag_170\n      jump\t// in\n    tag_337:\n      swap3\n      pop\n      pop\n      dup2\n      swap1\n      sstore\n      pop\n        /* \"W6/simpleAMM/src/simpleAMMV6.sol\":1167:1174  _amount */\n      dup1\n        /* \"W6/simpleAMM/src/simpleAMMV6.sol\":1152:1163  totalSupply */\n      0x03\n      0x00\n        /* \"W6/simpleAMM/src/simpleAMMV6.sol\":1152:1174  totalSupply += _amount */\n      dup3\n      dup3\n      sload\n      tag_338\n      swap2\n      swap1\n      tag_170\n      jump\t// in\n    tag_338:\n      swap3\n      pop\n      pop\n      dup2\n      swap1\n      sstore\n      pop\n        /* \"W6/simpleAMM/src/simpleAMMV6.sol\":1052:1182  function _mint(address _to, uint256 _amount) private {... */\n      pop\n      pop\n      jump\t// out\n        /* \"W6/simpleAMM/src/simpleAMMV6.sol\":1332:1465  function _update(uint256 _reserve0, uint256 _reserve1) private {... */\n    tag_160:\n        /* \"W6/simpleAMM/src/simpleAMMV6.sol\":1417:1426  _reserve0 */\n      dup2\n        /* \"W6/simpleAMM/src/simpleAMMV6.sol\":1406:1414  reserve0 */\n      0x01\n        /* \"W6/simpleAMM/src/simpleAMMV6.sol\":1406:1426  reserve0 = _reserve0 */\n      dup2\n      swap1\n      sstore\n      pop\n        /* \"W6/simpleAMM/src/simpleAMMV6.sol\":1448:1457  _reserve1 */\n      dup1\n        /* \"W6/simpleAMM/src/simpleAMMV6.sol\":1437:1445  reserve1 */\n      0x02\n        /* \"W6/simpleAMM/src/simpleAMMV6.sol\":1437:1457  reserve1 = _reserve1 */\n      dup2\n      swap1\n      sstore\n      pop\n        /* \"W6/simpleAMM/src/simpleAMMV6.sol\":1332:1465  function _update(uint256 _reserve0, uint256 _reserve1) private {... */\n      pop\n      pop\n      jump\t// out\n        /* \"W6/simpleAMM/src/simpleAMMV6.sol\":5666:6179  function _removeLiquidity(address _user, uint256 _shares) internal returns (uint256 amount0, uint256 amount1) {... */\n    tag_232:\n        /* \"W6/simpleAMM/src/simpleAMMV6.sol\":5742:5757  uint256 amount0 */\n      0x00\n        /* \"W6/simpleAMM/src/simpleAMMV6.sol\":5759:5774  uint256 amount1 */\n      dup1\n        /* \"W6/simpleAMM/src/simpleAMMV6.sol\":5820:5831  totalSupply */\n      sload(0x03)\n        /* \"W6/simpleAMM/src/simpleAMMV6.sol\":5808:5816  reserve0 */\n      sload(0x01)\n        /* \"W6/simpleAMM/src/simpleAMMV6.sol\":5798:5805  _shares */\n      dup5\n        /* \"W6/simpleAMM/src/simpleAMMV6.sol\":5798:5816  _shares * reserve0 */\n      tag_341\n      swap2\n      swap1\n      tag_132\n      jump\t// in\n    tag_341:\n        /* \"W6/simpleAMM/src/simpleAMMV6.sol\":5797:5831  (_shares * reserve0) / totalSupply */\n      tag_342\n      swap2\n      swap1\n      tag_145\n      jump\t// in\n    tag_342:\n        /* \"W6/simpleAMM/src/simpleAMMV6.sol\":5787:5831  amount0 = (_shares * reserve0) / totalSupply */\n      swap2\n      pop\n        /* \"W6/simpleAMM/src/simpleAMMV6.sol\":5875:5886  totalSupply */\n      sload(0x03)\n        /* \"W6/simpleAMM/src/simpleAMMV6.sol\":5863:5871  reserve1 */\n      sload(0x02)\n        /* \"W6/simpleAMM/src/simpleAMMV6.sol\":5853:5860  _shares */\n      dup5\n        /* \"W6/simpleAMM/src/simpleAMMV6.sol\":5853:5871  _shares * reserve1 */\n      tag_343\n      swap2\n      swap1\n      tag_132\n      jump\t// in\n    tag_343:\n        /* \"W6/simpleAMM/src/simpleAMMV6.sol\":5852:5886  (_shares * reserve1) / totalSupply */\n      tag_344\n      swap2\n      swap1\n      tag_145\n      jump\t// in\n    tag_344:\n        /* \"W6/simpleAMM/src/simpleAMMV6.sol\":5842:5886  amount1 = (_shares * reserve1) / totalSupply */\n      swap1\n      pop\n        /* \"W6/simpleAMM/src/simpleAMMV6.sol\":5915:5916  0 */\n      0x00\n        /* \"W6/simpleAMM/src/simpleAMMV6.sol\":5905:5912  amount0 */\n      dup3\n        /* \"W6/simpleAMM/src/simpleAMMV6.sol\":5905:5916  amount0 > 0 */\n      gt\n        /* \"W6/simpleAMM/src/simpleAMMV6.sol\":5905:5931  amount0 > 0 && amount1 > 0 */\n      dup1\n      iszero\n      tag_345\n      jumpi\n      pop\n        /* \"W6/simpleAMM/src/simpleAMMV6.sol\":5930:5931  0 */\n      0x00\n        /* \"W6/simpleAMM/src/simpleAMMV6.sol\":5920:5927  amount1 */\n      dup2\n        /* \"W6/simpleAMM/src/simpleAMMV6.sol\":5920:5931  amount1 > 0 */\n      gt\n        /* \"W6/simpleAMM/src/simpleAMMV6.sol\":5905:5931  amount0 > 0 && amount1 > 0 */\n    tag_345:\n        /* \"W6/simpleAMM/src/simpleAMMV6.sol\":5897:5958  require(amount0 > 0 && amount1 > 0, \"amount0 or amount1 = 0\") */\n      tag_346\n      jumpi\n      mload(0x40)\n      0x08c379a000000000000000000000000000000000000000000000000000000000\n      dup2\n      mstore\n      0x04\n      add\n      tag_347\n      swap1\n      tag_348\n      jump\t// in\n    tag_347:\n      mload(0x40)\n      dup1\n      swap2\n      sub\n      swap1\n      revert\n    tag_346:\n        /* \"W6/simpleAMM/src/simpleAMMV6.sol\":5971:5992  _burn(_user, _shares) */\n      tag_349\n        /* \"W6/simpleAMM/src/simpleAMMV6.sol\":5977:5982  _user */\n      dup5\n        /* \"W6/simpleAMM/src/simpleAMMV6.sol\":5984:5991  _shares */\n      dup5\n        /* \"W6/simpleAMM/src/simpleAMMV6.sol\":5971:5976  _burn */\n      tag_350\n        /* \"W6/simpleAMM/src/simpleAMMV6.sol\":5971:5992  _burn(_user, _shares) */\n      jump\t// in\n    tag_349:\n        /* \"W6/simpleAMM/src/simpleAMMV6.sol\":6003:6085  _update(address(this).balance - amount0, token.balanceOf(address(this)) - amount1) */\n      tag_351\n        /* \"W6/simpleAMM/src/simpleAMMV6.sol\":6035:6042  amount0 */\n      dup3\n        /* \"W6/simpleAMM/src/simpleAMMV6.sol\":6011:6032  address(this).balance */\n      selfbalance\n        /* \"W6/simpleAMM/src/simpleAMMV6.sol\":6011:6042  address(this).balance - amount0 */\n      tag_352\n      swap2\n      swap1\n      tag_186\n      jump\t// in\n    tag_352:\n        /* \"W6/simpleAMM/src/simpleAMMV6.sol\":6077:6084  amount1 */\n      dup3\n        /* \"W6/simpleAMM/src/simpleAMMV6.sol\":6044:6049  token */\n      immutable(\"0xe9ec5ebbfe521ba5a70e4c2b13332e74dda4e055153dc29723307e62e8ed0f2a\")\n        /* \"W6/simpleAMM/src/simpleAMMV6.sol\":6044:6059  token.balanceOf */\n      0xffffffffffffffffffffffffffffffffffffffff\n      and\n      0x70a08231\n        /* \"W6/simpleAMM/src/simpleAMMV6.sol\":6068:6072  this */\n      address\n        /* \"W6/simpleAMM/src/simpleAMMV6.sol\":6044:6074  token.balanceOf(address(this)) */\n      mload(0x40)\n      dup3\n      0xffffffff\n      and\n      0xe0\n      shl\n      dup2\n      mstore\n      0x04\n      add\n      tag_353\n      swap2\n      swap1\n      tag_97\n      jump\t// in\n    tag_353:\n      0x20\n      mload(0x40)\n      dup1\n      dup4\n      sub\n      dup2\n      dup7\n      gas\n      staticcall\n      iszero\n      dup1\n      iszero\n      tag_355\n      jumpi\n      returndatasize\n      0x00\n      dup1\n      returndatacopy\n      revert(0x00, returndatasize)\n    tag_355:\n      pop\n      pop\n      pop\n      pop\n      mload(0x40)\n      returndatasize\n      not(0x1f)\n      0x1f\n      dup3\n      add\n      and\n      dup3\n      add\n      dup1\n      0x40\n      mstore\n      pop\n      dup2\n      add\n      swap1\n      tag_356\n      swap2\n      swap1\n      tag_159\n      jump\t// in\n    tag_356:\n        /* \"W6/simpleAMM/src/simpleAMMV6.sol\":6044:6084  token.balanceOf(address(this)) - amount1 */\n      tag_357\n      swap2\n      swap1\n      tag_186\n      jump\t// in\n    tag_357:\n        /* \"W6/simpleAMM/src/simpleAMMV6.sol\":6003:6010  _update */\n      tag_160\n        /* \"W6/simpleAMM/src/simpleAMMV6.sol\":6003:6085  _update(address(this).balance - amount0, token.balanceOf(address(this)) - amount1) */\n      jump\t// in\n    tag_351:\n        /* \"W6/simpleAMM/src/simpleAMMV6.sol\":6106:6111  _user */\n      dup4\n        /* \"W6/simpleAMM/src/simpleAMMV6.sol\":6098:6121  payable(_user).transfer */\n      0xffffffffffffffffffffffffffffffffffffffff\n      and\n        /* \"W6/simpleAMM/src/simpleAMMV6.sol\":6098:6130  payable(_user).transfer(amount0) */\n      0x08fc\n        /* \"W6/simpleAMM/src/simpleAMMV6.sol\":6122:6129  amount0 */\n      dup4\n        /* \"W6/simpleAMM/src/simpleAMMV6.sol\":6098:6130  payable(_user).transfer(amount0) */\n      swap1\n      dup2\n      iszero\n      mul\n      swap1\n      mload(0x40)\n      0x00\n      mload(0x40)\n      dup1\n      dup4\n      sub\n      dup2\n      dup6\n      dup9\n      dup9\n      call\n      swap4\n      pop\n      pop\n      pop\n      pop\n      iszero\n      dup1\n      iszero\n      tag_359\n      jumpi\n      returndatasize\n      0x00\n      dup1\n      returndatacopy\n      revert(0x00, returndatasize)\n    tag_359:\n      pop\n        /* \"W6/simpleAMM/src/simpleAMMV6.sol\":6141:6146  token */\n      immutable(\"0xe9ec5ebbfe521ba5a70e4c2b13332e74dda4e055153dc29723307e62e8ed0f2a\")\n        /* \"W6/simpleAMM/src/simpleAMMV6.sol\":6141:6155  token.transfer */\n      0xffffffffffffffffffffffffffffffffffffffff\n      and\n      0xa9059cbb\n        /* \"W6/simpleAMM/src/simpleAMMV6.sol\":6156:6161  _user */\n      dup6\n        /* \"W6/simpleAMM/src/simpleAMMV6.sol\":6163:6170  amount1 */\n      dup4\n        /* \"W6/simpleAMM/src/simpleAMMV6.sol\":6141:6171  token.transfer(_user, amount1) */\n      mload(0x40)\n      dup4\n      0xffffffff\n      and\n      0xe0\n      shl\n      dup2\n      mstore\n      0x04\n      add\n      tag_360\n      swap3\n      swap2\n      swap1\n      tag_197\n      jump\t// in\n    tag_360:\n      0x20\n      mload(0x40)\n      dup1\n      dup4\n      sub\n      dup2\n      0x00\n      dup8\n      gas\n      call\n      iszero\n      dup1\n      iszero\n      tag_362\n      jumpi\n      returndatasize\n      0x00\n      dup1\n      returndatacopy\n      revert(0x00, returndatasize)\n    tag_362:\n      pop\n      pop\n      pop\n      pop\n      mload(0x40)\n      returndatasize\n      not(0x1f)\n      0x1f\n      dup3\n      add\n      and\n      dup3\n      add\n      dup1\n      0x40\n      mstore\n      pop\n      dup2\n      add\n      swap1\n      tag_363\n      swap2\n      swap1\n      tag_128\n      jump\t// in\n    tag_363:\n      pop\n        /* \"W6/simpleAMM/src/simpleAMMV6.sol\":5666:6179  function _removeLiquidity(address _user, uint256 _shares) internal returns (uint256 amount0, uint256 amount1) {... */\n      swap3\n      pop\n      swap3\n      swap1\n      pop\n      jump\t// out\n        /* \"W6/simpleAMM/src/simpleAMMV6.sol\":1190:1324  function _burn(address _from, uint256 _amount) private {... */\n    tag_350:\n        /* \"W6/simpleAMM/src/simpleAMMV6.sol\":1276:1283  _amount */\n      dup1\n        /* \"W6/simpleAMM/src/simpleAMMV6.sol\":1256:1265  balanceOf */\n      0x04\n        /* \"W6/simpleAMM/src/simpleAMMV6.sol\":1256:1272  balanceOf[_from] */\n      0x00\n        /* \"W6/simpleAMM/src/simpleAMMV6.sol\":1266:1271  _from */\n      dup5\n        /* \"W6/simpleAMM/src/simpleAMMV6.sol\":1256:1272  balanceOf[_from] */\n      0xffffffffffffffffffffffffffffffffffffffff\n      and\n      0xffffffffffffffffffffffffffffffffffffffff\n      and\n      dup2\n      mstore\n      0x20\n      add\n      swap1\n      dup2\n      mstore\n      0x20\n      add\n      0x00\n      keccak256\n      0x00\n        /* \"W6/simpleAMM/src/simpleAMMV6.sol\":1256:1283  balanceOf[_from] -= _amount */\n      dup3\n      dup3\n      sload\n      tag_365\n      swap2\n      swap1\n      tag_186\n      jump\t// in\n    tag_365:\n      swap3\n      pop\n      pop\n      dup2\n      swap1\n      sstore\n      pop\n        /* \"W6/simpleAMM/src/simpleAMMV6.sol\":1309:1316  _amount */\n      dup1\n        /* \"W6/simpleAMM/src/simpleAMMV6.sol\":1294:1305  totalSupply */\n      0x03\n      0x00\n        /* \"W6/simpleAMM/src/simpleAMMV6.sol\":1294:1316  totalSupply -= _amount */\n      dup3\n      dup3\n      sload\n      tag_366\n      swap2\n      swap1\n      tag_186\n      jump\t// in\n    tag_366:\n      swap3\n      pop\n      pop\n      dup2\n      swap1\n      sstore\n      pop\n        /* \"W6/simpleAMM/src/simpleAMMV6.sol\":1190:1324  function _burn(address _from, uint256 _amount) private {... */\n      pop\n      pop\n      jump\t// out\n        /* \"#utility.yul\":7:84   */\n    tag_367:\n        /* \"#utility.yul\":44:51   */\n      0x00\n        /* \"#utility.yul\":73:78   */\n      dup2\n        /* \"#utility.yul\":62:78   */\n      swap1\n      pop\n        /* \"#utility.yul\":7:84   */\n      swap2\n      swap1\n      pop\n      jump\t// out\n        /* \"#utility.yul\":90:208   */\n    tag_368:\n        /* \"#utility.yul\":177:201   */\n      tag_418\n        /* \"#utility.yul\":195:200   */\n      dup2\n        /* \"#utility.yul\":177:201   */\n      tag_367\n      jump\t// in\n    tag_418:\n        /* \"#utility.yul\":172:175   */\n      dup3\n        /* \"#utility.yul\":165:202   */\n      mstore\n        /* \"#utility.yul\":90:208   */\n      pop\n      pop\n      jump\t// out\n        /* \"#utility.yul\":214:436   */\n    tag_29:\n        /* \"#utility.yul\":307:311   */\n      0x00\n        /* \"#utility.yul\":345:347   */\n      0x20\n        /* \"#utility.yul\":334:343   */\n      dup3\n        /* \"#utility.yul\":330:348   */\n      add\n        /* \"#utility.yul\":322:348   */\n      swap1\n      pop\n        /* \"#utility.yul\":358:429   */\n      tag_420\n        /* \"#utility.yul\":426:427   */\n      0x00\n        /* \"#utility.yul\":415:424   */\n      dup4\n        /* \"#utility.yul\":411:428   */\n      add\n        /* \"#utility.yul\":402:408   */\n      dup5\n        /* \"#utility.yul\":358:429   */\n      tag_368\n      jump\t// in\n    tag_420:\n        /* \"#utility.yul\":214:436   */\n      swap3\n      swap2\n      pop\n      pop\n      jump\t// out\n        /* \"#utility.yul\":523:640   */\n    tag_370:\n        /* \"#utility.yul\":632:633   */\n      0x00\n        /* \"#utility.yul\":629:630   */\n      dup1\n        /* \"#utility.yul\":622:634   */\n      revert\n        /* \"#utility.yul\":769:891   */\n    tag_372:\n        /* \"#utility.yul\":842:866   */\n      tag_425\n        /* \"#utility.yul\":860:865   */\n      dup2\n        /* \"#utility.yul\":842:866   */\n      tag_367\n      jump\t// in\n    tag_425:\n        /* \"#utility.yul\":835:840   */\n      dup2\n        /* \"#utility.yul\":832:867   */\n      eq\n        /* \"#utility.yul\":822:885   */\n      tag_426\n      jumpi\n        /* \"#utility.yul\":881:882   */\n      0x00\n        /* \"#utility.yul\":878:879   */\n      dup1\n        /* \"#utility.yul\":871:883   */\n      revert\n        /* \"#utility.yul\":822:885   */\n    tag_426:\n        /* \"#utility.yul\":769:891   */\n      pop\n      jump\t// out\n        /* \"#utility.yul\":897:1036   */\n    tag_373:\n        /* \"#utility.yul\":943:948   */\n      0x00\n        /* \"#utility.yul\":981:987   */\n      dup2\n        /* \"#utility.yul\":968:988   */\n      calldataload\n        /* \"#utility.yul\":959:988   */\n      swap1\n      pop\n        /* \"#utility.yul\":997:1030   */\n      tag_428\n        /* \"#utility.yul\":1024:1029   */\n      dup2\n        /* \"#utility.yul\":997:1030   */\n      tag_372\n      jump\t// in\n    tag_428:\n        /* \"#utility.yul\":897:1036   */\n      swap3\n      swap2\n      pop\n      pop\n      jump\t// out\n        /* \"#utility.yul\":1042:1371   */\n    tag_36:\n        /* \"#utility.yul\":1101:1107   */\n      0x00\n        /* \"#utility.yul\":1150:1152   */\n      0x20\n        /* \"#utility.yul\":1138:1147   */\n      dup3\n        /* \"#utility.yul\":1129:1136   */\n      dup5\n        /* \"#utility.yul\":1125:1148   */\n      sub\n        /* \"#utility.yul\":1121:1153   */\n      slt\n        /* \"#utility.yul\":1118:1237   */\n      iszero\n      tag_430\n      jumpi\n        /* \"#utility.yul\":1156:1235   */\n      tag_431\n      tag_370\n      jump\t// in\n    tag_431:\n        /* \"#utility.yul\":1118:1237   */\n    tag_430:\n        /* \"#utility.yul\":1276:1277   */\n      0x00\n        /* \"#utility.yul\":1301:1354   */\n      tag_432\n        /* \"#utility.yul\":1346:1353   */\n      dup5\n        /* \"#utility.yul\":1337:1343   */\n      dup3\n        /* \"#utility.yul\":1326:1335   */\n      dup6\n        /* \"#utility.yul\":1322:1344   */\n      add\n        /* \"#utility.yul\":1301:1354   */\n      tag_373\n      jump\t// in\n    tag_432:\n        /* \"#utility.yul\":1291:1354   */\n      swap2\n      pop\n        /* \"#utility.yul\":1247:1364   */\n      pop\n        /* \"#utility.yul\":1042:1371   */\n      swap3\n      swap2\n      pop\n      pop\n      jump\t// out\n        /* \"#utility.yul\":1377:1996   */\n    tag_50:\n        /* \"#utility.yul\":1454:1460   */\n      0x00\n        /* \"#utility.yul\":1462:1468   */\n      dup1\n        /* \"#utility.yul\":1470:1476   */\n      0x00\n        /* \"#utility.yul\":1519:1521   */\n      0x60\n        /* \"#utility.yul\":1507:1516   */\n      dup5\n        /* \"#utility.yul\":1498:1505   */\n      dup7\n        /* \"#utility.yul\":1494:1517   */\n      sub\n        /* \"#utility.yul\":1490:1522   */\n      slt\n        /* \"#utility.yul\":1487:1606   */\n      iszero\n      tag_434\n      jumpi\n        /* \"#utility.yul\":1525:1604   */\n      tag_435\n      tag_370\n      jump\t// in\n    tag_435:\n        /* \"#utility.yul\":1487:1606   */\n    tag_434:\n        /* \"#utility.yul\":1645:1646   */\n      0x00\n        /* \"#utility.yul\":1670:1723   */\n      tag_436\n        /* \"#utility.yul\":1715:1722   */\n      dup7\n        /* \"#utility.yul\":1706:1712   */\n      dup3\n        /* \"#utility.yul\":1695:1704   */\n      dup8\n        /* \"#utility.yul\":1691:1713   */\n      add\n        /* \"#utility.yul\":1670:1723   */\n      tag_373\n      jump\t// in\n    tag_436:\n        /* \"#utility.yul\":1660:1723   */\n      swap4\n      pop\n        /* \"#utility.yul\":1616:1733   */\n      pop\n        /* \"#utility.yul\":1772:1774   */\n      0x20\n        /* \"#utility.yul\":1798:1851   */\n      tag_437\n        /* \"#utility.yul\":1843:1850   */\n      dup7\n        /* \"#utility.yul\":1834:1840   */\n      dup3\n        /* \"#utility.yul\":1823:1832   */\n      dup8\n        /* \"#utility.yul\":1819:1841   */\n      add\n        /* \"#utility.yul\":1798:1851   */\n      tag_373\n      jump\t// in\n    tag_437:\n        /* \"#utility.yul\":1788:1851   */\n      swap3\n      pop\n        /* \"#utility.yul\":1743:1861   */\n      pop\n        /* \"#utility.yul\":1900:1902   */\n      0x40\n        /* \"#utility.yul\":1926:1979   */\n      tag_438\n        /* \"#utility.yul\":1971:1978   */\n      dup7\n        /* \"#utility.yul\":1962:1968   */\n      dup3\n        /* \"#utility.yul\":1951:1960   */\n      dup8\n        /* \"#utility.yul\":1947:1969   */\n      add\n        /* \"#utility.yul\":1926:1979   */\n      tag_373\n      jump\t// in\n    tag_438:\n        /* \"#utility.yul\":1916:1979   */\n      swap2\n      pop\n        /* \"#utility.yul\":1871:1989   */\n      pop\n        /* \"#utility.yul\":1377:1996   */\n      swap3\n      pop\n      swap3\n      pop\n      swap3\n      jump\t// out\n        /* \"#utility.yul\":2002:2128   */\n    tag_374:\n        /* \"#utility.yul\":2039:2046   */\n      0x00\n        /* \"#utility.yul\":2079:2121   */\n      0xffffffffffffffffffffffffffffffffffffffff\n        /* \"#utility.yul\":2072:2077   */\n      dup3\n        /* \"#utility.yul\":2068:2122   */\n      and\n        /* \"#utility.yul\":2057:2122   */\n      swap1\n      pop\n        /* \"#utility.yul\":2002:2128   */\n      swap2\n      swap1\n      pop\n      jump\t// out\n        /* \"#utility.yul\":2134:2230   */\n    tag_375:\n        /* \"#utility.yul\":2171:2178   */\n      0x00\n        /* \"#utility.yul\":2200:2224   */\n      tag_441\n        /* \"#utility.yul\":2218:2223   */\n      dup3\n        /* \"#utility.yul\":2200:2224   */\n      tag_374\n      jump\t// in\n    tag_441:\n        /* \"#utility.yul\":2189:2224   */\n      swap1\n      pop\n        /* \"#utility.yul\":2134:2230   */\n      swap2\n      swap1\n      pop\n      jump\t// out\n        /* \"#utility.yul\":2236:2358   */\n    tag_376:\n        /* \"#utility.yul\":2309:2333   */\n      tag_443\n        /* \"#utility.yul\":2327:2332   */\n      dup2\n        /* \"#utility.yul\":2309:2333   */\n      tag_375\n      jump\t// in\n    tag_443:\n        /* \"#utility.yul\":2302:2307   */\n      dup2\n        /* \"#utility.yul\":2299:2334   */\n      eq\n        /* \"#utility.yul\":2289:2352   */\n      tag_444\n      jumpi\n        /* \"#utility.yul\":2348:2349   */\n      0x00\n        /* \"#utility.yul\":2345:2346   */\n      dup1\n        /* \"#utility.yul\":2338:2350   */\n      revert\n        /* \"#utility.yul\":2289:2352   */\n    tag_444:\n        /* \"#utility.yul\":2236:2358   */\n      pop\n      jump\t// out\n        /* \"#utility.yul\":2364:2503   */\n    tag_377:\n        /* \"#utility.yul\":2410:2415   */\n      0x00\n        /* \"#utility.yul\":2448:2454   */\n      dup2\n        /* \"#utility.yul\":2435:2455   */\n      calldataload\n        /* \"#utility.yul\":2426:2455   */\n      swap1\n      pop\n        /* \"#utility.yul\":2464:2497   */\n      tag_446\n        /* \"#utility.yul\":2491:2496   */\n      dup2\n        /* \"#utility.yul\":2464:2497   */\n      tag_376\n      jump\t// in\n    tag_446:\n        /* \"#utility.yul\":2364:2503   */\n      swap3\n      swap2\n      pop\n      pop\n      jump\t// out\n        /* \"#utility.yul\":2509:2838   */\n    tag_65:\n        /* \"#utility.yul\":2568:2574   */\n      0x00\n        /* \"#utility.yul\":2617:2619   */\n      0x20\n        /* \"#utility.yul\":2605:2614   */\n      dup3\n        /* \"#utility.yul\":2596:2603   */\n      dup5\n        /* \"#utility.yul\":2592:2615   */\n      sub\n        /* \"#utility.yul\":2588:2620   */\n      slt\n        /* \"#utility.yul\":2585:2704   */\n      iszero\n      tag_448\n      jumpi\n        /* \"#utility.yul\":2623:2702   */\n      tag_449\n      tag_370\n      jump\t// in\n    tag_449:\n        /* \"#utility.yul\":2585:2704   */\n    tag_448:\n        /* \"#utility.yul\":2743:2744   */\n      0x00\n        /* \"#utility.yul\":2768:2821   */\n      tag_450\n        /* \"#utility.yul\":2813:2820   */\n      dup5\n        /* \"#utility.yul\":2804:2810   */\n      dup3\n        /* \"#utility.yul\":2793:2802   */\n      dup6\n        /* \"#utility.yul\":2789:2811   */\n      add\n        /* \"#utility.yul\":2768:2821   */\n      tag_377\n      jump\t// in\n    tag_450:\n        /* \"#utility.yul\":2758:2821   */\n      swap2\n      pop\n        /* \"#utility.yul\":2714:2831   */\n      pop\n        /* \"#utility.yul\":2509:2838   */\n      swap3\n      swap2\n      pop\n      pop\n      jump\t// out\n        /* \"#utility.yul\":2844:3176   */\n    tag_73:\n        /* \"#utility.yul\":2965:2969   */\n      0x00\n        /* \"#utility.yul\":3003:3005   */\n      0x40\n        /* \"#utility.yul\":2992:3001   */\n      dup3\n        /* \"#utility.yul\":2988:3006   */\n      add\n        /* \"#utility.yul\":2980:3006   */\n      swap1\n      pop\n        /* \"#utility.yul\":3016:3087   */\n      tag_452\n        /* \"#utility.yul\":3084:3085   */\n      0x00\n        /* \"#utility.yul\":3073:3082   */\n      dup4\n        /* \"#utility.yul\":3069:3086   */\n      add\n        /* \"#utility.yul\":3060:3066   */\n      dup6\n        /* \"#utility.yul\":3016:3087   */\n      tag_368\n      jump\t// in\n    tag_452:\n        /* \"#utility.yul\":3097:3169   */\n      tag_453\n        /* \"#utility.yul\":3165:3167   */\n      0x20\n        /* \"#utility.yul\":3154:3163   */\n      dup4\n        /* \"#utility.yul\":3150:3168   */\n      add\n        /* \"#utility.yul\":3141:3147   */\n      dup5\n        /* \"#utility.yul\":3097:3169   */\n      tag_368\n      jump\t// in\n    tag_453:\n        /* \"#utility.yul\":2844:3176   */\n      swap4\n      swap3\n      pop\n      pop\n      pop\n      jump\t// out\n        /* \"#utility.yul\":3182:3656   */\n    tag_86:\n        /* \"#utility.yul\":3250:3256   */\n      0x00\n        /* \"#utility.yul\":3258:3264   */\n      dup1\n        /* \"#utility.yul\":3307:3309   */\n      0x40\n        /* \"#utility.yul\":3295:3304   */\n      dup4\n        /* \"#utility.yul\":3286:3293   */\n      dup6\n        /* \"#utility.yul\":3282:3305   */\n      sub\n        /* \"#utility.yul\":3278:3310   */\n      slt\n        /* \"#utility.yul\":3275:3394   */\n      iszero\n      tag_455\n      jumpi\n        /* \"#utility.yul\":3313:3392   */\n      tag_456\n      tag_370\n      jump\t// in\n    tag_456:\n        /* \"#utility.yul\":3275:3394   */\n    tag_455:\n        /* \"#utility.yul\":3433:3434   */\n      0x00\n        /* \"#utility.yul\":3458:3511   */\n      tag_457\n        /* \"#utility.yul\":3503:3510   */\n      dup6\n        /* \"#utility.yul\":3494:3500   */\n      dup3\n        /* \"#utility.yul\":3483:3492   */\n      dup7\n        /* \"#utility.yul\":3479:3501   */\n      add\n        /* \"#utility.yul\":3458:3511   */\n      tag_377\n      jump\t// in\n    tag_457:\n        /* \"#utility.yul\":3448:3511   */\n      swap3\n      pop\n        /* \"#utility.yul\":3404:3521   */\n      pop\n        /* \"#utility.yul\":3560:3562   */\n      0x20\n        /* \"#utility.yul\":3586:3639   */\n      tag_458\n        /* \"#utility.yul\":3631:3638   */\n      dup6\n        /* \"#utility.yul\":3622:3628   */\n      dup3\n        /* \"#utility.yul\":3611:3620   */\n      dup7\n        /* \"#utility.yul\":3607:3629   */\n      add\n        /* \"#utility.yul\":3586:3639   */\n      tag_373\n      jump\t// in\n    tag_458:\n        /* \"#utility.yul\":3576:3639   */\n      swap2\n      pop\n        /* \"#utility.yul\":3531:3649   */\n      pop\n        /* \"#utility.yul\":3182:3656   */\n      swap3\n      pop\n      swap3\n      swap1\n      pop\n      jump\t// out\n        /* \"#utility.yul\":3662:3780   */\n    tag_378:\n        /* \"#utility.yul\":3749:3773   */\n      tag_460\n        /* \"#utility.yul\":3767:3772   */\n      dup2\n        /* \"#utility.yul\":3749:3773   */\n      tag_375\n      jump\t// in\n    tag_460:\n        /* \"#utility.yul\":3744:3747   */\n      dup3\n        /* \"#utility.yul\":3737:3774   */\n      mstore\n        /* \"#utility.yul\":3662:3780   */\n      pop\n      pop\n      jump\t// out\n        /* \"#utility.yul\":3786:4008   */\n    tag_97:\n        /* \"#utility.yul\":3879:3883   */\n      0x00\n        /* \"#utility.yul\":3917:3919   */\n      0x20\n        /* \"#utility.yul\":3906:3915   */\n      dup3\n        /* \"#utility.yul\":3902:3920   */\n      add\n        /* \"#utility.yul\":3894:3920   */\n      swap1\n      pop\n        /* \"#utility.yul\":3930:4001   */\n      tag_462\n        /* \"#utility.yul\":3998:3999   */\n      0x00\n        /* \"#utility.yul\":3987:3996   */\n      dup4\n        /* \"#utility.yul\":3983:4000   */\n      add\n        /* \"#utility.yul\":3974:3980   */\n      dup5\n        /* \"#utility.yul\":3930:4001   */\n      tag_378\n      jump\t// in\n    tag_462:\n        /* \"#utility.yul\":3786:4008   */\n      swap3\n      swap2\n      pop\n      pop\n      jump\t// out\n        /* \"#utility.yul\":4014:4074   */\n    tag_379:\n        /* \"#utility.yul\":4042:4045   */\n      0x00\n        /* \"#utility.yul\":4063:4068   */\n      dup2\n        /* \"#utility.yul\":4056:4068   */\n      swap1\n      pop\n        /* \"#utility.yul\":4014:4074   */\n      swap2\n      swap1\n      pop\n      jump\t// out\n        /* \"#utility.yul\":4080:4222   */\n    tag_380:\n        /* \"#utility.yul\":4130:4139   */\n      0x00\n        /* \"#utility.yul\":4163:4216   */\n      tag_465\n        /* \"#utility.yul\":4181:4215   */\n      tag_466\n        /* \"#utility.yul\":4190:4214   */\n      tag_467\n        /* \"#utility.yul\":4208:4213   */\n      dup5\n        /* \"#utility.yul\":4190:4214   */\n      tag_374\n      jump\t// in\n    tag_467:\n        /* \"#utility.yul\":4181:4215   */\n      tag_379\n      jump\t// in\n    tag_466:\n        /* \"#utility.yul\":4163:4216   */\n      tag_374\n      jump\t// in\n    tag_465:\n        /* \"#utility.yul\":4150:4216   */\n      swap1\n      pop\n        /* \"#utility.yul\":4080:4222   */\n      swap2\n      swap1\n      pop\n      jump\t// out\n        /* \"#utility.yul\":4228:4354   */\n    tag_381:\n        /* \"#utility.yul\":4278:4287   */\n      0x00\n        /* \"#utility.yul\":4311:4348   */\n      tag_469\n        /* \"#utility.yul\":4342:4347   */\n      dup3\n        /* \"#utility.yul\":4311:4348   */\n      tag_380\n      jump\t// in\n    tag_469:\n        /* \"#utility.yul\":4298:4348   */\n      swap1\n      pop\n        /* \"#utility.yul\":4228:4354   */\n      swap2\n      swap1\n      pop\n      jump\t// out\n        /* \"#utility.yul\":4360:4500   */\n    tag_382:\n        /* \"#utility.yul\":4424:4433   */\n      0x00\n        /* \"#utility.yul\":4457:4494   */\n      tag_471\n        /* \"#utility.yul\":4488:4493   */\n      dup3\n        /* \"#utility.yul\":4457:4494   */\n      tag_381\n      jump\t// in\n    tag_471:\n        /* \"#utility.yul\":4444:4494   */\n      swap1\n      pop\n        /* \"#utility.yul\":4360:4500   */\n      swap2\n      swap1\n      pop\n      jump\t// out\n        /* \"#utility.yul\":4506:4665   */\n    tag_383:\n        /* \"#utility.yul\":4607:4658   */\n      tag_473\n        /* \"#utility.yul\":4652:4657   */\n      dup2\n        /* \"#utility.yul\":4607:4658   */\n      tag_382\n      jump\t// in\n    tag_473:\n        /* \"#utility.yul\":4602:4605   */\n      dup3\n        /* \"#utility.yul\":4595:4659   */\n      mstore\n        /* \"#utility.yul\":4506:4665   */\n      pop\n      pop\n      jump\t// out\n        /* \"#utility.yul\":4671:4921   */\n    tag_117:\n        /* \"#utility.yul\":4778:4782   */\n      0x00\n        /* \"#utility.yul\":4816:4818   */\n      0x20\n        /* \"#utility.yul\":4805:4814   */\n      dup3\n        /* \"#utility.yul\":4801:4819   */\n      add\n        /* \"#utility.yul\":4793:4819   */\n      swap1\n      pop\n        /* \"#utility.yul\":4829:4914   */\n      tag_475\n        /* \"#utility.yul\":4911:4912   */\n      0x00\n        /* \"#utility.yul\":4900:4909   */\n      dup4\n        /* \"#utility.yul\":4896:4913   */\n      add\n        /* \"#utility.yul\":4887:4893   */\n      dup5\n        /* \"#utility.yul\":4829:4914   */\n      tag_383\n      jump\t// in\n    tag_475:\n        /* \"#utility.yul\":4671:4921   */\n      swap3\n      swap2\n      pop\n      pop\n      jump\t// out\n        /* \"#utility.yul\":4927:5369   */\n    tag_124:\n        /* \"#utility.yul\":5076:5080   */\n      0x00\n        /* \"#utility.yul\":5114:5116   */\n      0x60\n        /* \"#utility.yul\":5103:5112   */\n      dup3\n        /* \"#utility.yul\":5099:5117   */\n      add\n        /* \"#utility.yul\":5091:5117   */\n      swap1\n      pop\n        /* \"#utility.yul\":5127:5198   */\n      tag_477\n        /* \"#utility.yul\":5195:5196   */\n      0x00\n        /* \"#utility.yul\":5184:5193   */\n      dup4\n        /* \"#utility.yul\":5180:5197   */\n      add\n        /* \"#utility.yul\":5171:5177   */\n      dup7\n        /* \"#utility.yul\":5127:5198   */\n      tag_378\n      jump\t// in\n    tag_477:\n        /* \"#utility.yul\":5208:5280   */\n      tag_478\n        /* \"#utility.yul\":5276:5278   */\n      0x20\n        /* \"#utility.yul\":5265:5274   */\n      dup4\n        /* \"#utility.yul\":5261:5279   */\n      add\n        /* \"#utility.yul\":5252:5258   */\n      dup6\n        /* \"#utility.yul\":5208:5280   */\n      tag_378\n      jump\t// in\n    tag_478:\n        /* \"#utility.yul\":5290:5362   */\n      tag_479\n        /* \"#utility.yul\":5358:5360   */\n      0x40\n        /* \"#utility.yul\":5347:5356   */\n      dup4\n        /* \"#utility.yul\":5343:5361   */\n      add\n        /* \"#utility.yul\":5334:5340   */\n      dup5\n        /* \"#utility.yul\":5290:5362   */\n      tag_368\n      jump\t// in\n    tag_479:\n        /* \"#utility.yul\":4927:5369   */\n      swap5\n      swap4\n      pop\n      pop\n      pop\n      pop\n      jump\t// out\n        /* \"#utility.yul\":5375:5465   */\n    tag_384:\n        /* \"#utility.yul\":5409:5416   */\n      0x00\n        /* \"#utility.yul\":5452:5457   */\n      dup2\n        /* \"#utility.yul\":5445:5458   */\n      iszero\n        /* \"#utility.yul\":5438:5459   */\n      iszero\n        /* \"#utility.yul\":5427:5459   */\n      swap1\n      pop\n        /* \"#utility.yul\":5375:5465   */\n      swap2\n      swap1\n      pop\n      jump\t// out\n        /* \"#utility.yul\":5471:5587   */\n    tag_385:\n        /* \"#utility.yul\":5541:5562   */\n      tag_482\n        /* \"#utility.yul\":5556:5561   */\n      dup2\n        /* \"#utility.yul\":5541:5562   */\n      tag_384\n      jump\t// in\n    tag_482:\n        /* \"#utility.yul\":5534:5539   */\n      dup2\n        /* \"#utility.yul\":5531:5563   */\n      eq\n        /* \"#utility.yul\":5521:5581   */\n      tag_483\n      jumpi\n        /* \"#utility.yul\":5577:5578   */\n      0x00\n        /* \"#utility.yul\":5574:5575   */\n      dup1\n        /* \"#utility.yul\":5567:5579   */\n      revert\n        /* \"#utility.yul\":5521:5581   */\n    tag_483:\n        /* \"#utility.yul\":5471:5587   */\n      pop\n      jump\t// out\n        /* \"#utility.yul\":5593:5730   */\n    tag_386:\n        /* \"#utility.yul\":5647:5652   */\n      0x00\n        /* \"#utility.yul\":5678:5684   */\n      dup2\n        /* \"#utility.yul\":5672:5685   */\n      mload\n        /* \"#utility.yul\":5663:5685   */\n      swap1\n      pop\n        /* \"#utility.yul\":5694:5724   */\n      tag_485\n        /* \"#utility.yul\":5718:5723   */\n      dup2\n        /* \"#utility.yul\":5694:5724   */\n      tag_385\n      jump\t// in\n    tag_485:\n        /* \"#utility.yul\":5593:5730   */\n      swap3\n      swap2\n      pop\n      pop\n      jump\t// out\n        /* \"#utility.yul\":5736:6081   */\n    tag_128:\n        /* \"#utility.yul\":5803:5809   */\n      0x00\n        /* \"#utility.yul\":5852:5854   */\n      0x20\n        /* \"#utility.yul\":5840:5849   */\n      dup3\n        /* \"#utility.yul\":5831:5838   */\n      dup5\n        /* \"#utility.yul\":5827:5850   */\n      sub\n        /* \"#utility.yul\":5823:5855   */\n      slt\n        /* \"#utility.yul\":5820:5939   */\n      iszero\n      tag_487\n      jumpi\n        /* \"#utility.yul\":5858:5937   */\n      tag_488\n      tag_370\n      jump\t// in\n    tag_488:\n        /* \"#utility.yul\":5820:5939   */\n    tag_487:\n        /* \"#utility.yul\":5978:5979   */\n      0x00\n        /* \"#utility.yul\":6003:6064   */\n      tag_489\n        /* \"#utility.yul\":6056:6063   */\n      dup5\n        /* \"#utility.yul\":6047:6053   */\n      dup3\n        /* \"#utility.yul\":6036:6045   */\n      dup6\n        /* \"#utility.yul\":6032:6054   */\n      add\n        /* \"#utility.yul\":6003:6064   */\n      tag_386\n      jump\t// in\n    tag_489:\n        /* \"#utility.yul\":5993:6064   */\n      swap2\n      pop\n        /* \"#utility.yul\":5949:6074   */\n      pop\n        /* \"#utility.yul\":5736:6081   */\n      swap3\n      swap2\n      pop\n      pop\n      jump\t// out\n        /* \"#utility.yul\":6087:6267   */\n    tag_387:\n        /* \"#utility.yul\":6135:6212   */\n      0x4e487b7100000000000000000000000000000000000000000000000000000000\n        /* \"#utility.yul\":6132:6133   */\n      0x00\n        /* \"#utility.yul\":6125:6213   */\n      mstore\n        /* \"#utility.yul\":6232:6236   */\n      0x11\n        /* \"#utility.yul\":6229:6230   */\n      0x04\n        /* \"#utility.yul\":6222:6237   */\n      mstore\n        /* \"#utility.yul\":6256:6260   */\n      0x24\n        /* \"#utility.yul\":6253:6254   */\n      0x00\n        /* \"#utility.yul\":6246:6261   */\n      revert\n        /* \"#utility.yul\":6273:6683   */\n    tag_132:\n        /* \"#utility.yul\":6313:6320   */\n      0x00\n        /* \"#utility.yul\":6336:6356   */\n      tag_492\n        /* \"#utility.yul\":6354:6355   */\n      dup3\n        /* \"#utility.yul\":6336:6356   */\n      tag_367\n      jump\t// in\n    tag_492:\n        /* \"#utility.yul\":6331:6356   */\n      swap2\n      pop\n        /* \"#utility.yul\":6370:6390   */\n      tag_493\n        /* \"#utility.yul\":6388:6389   */\n      dup4\n        /* \"#utility.yul\":6370:6390   */\n      tag_367\n      jump\t// in\n    tag_493:\n        /* \"#utility.yul\":6365:6390   */\n      swap3\n      pop\n        /* \"#utility.yul\":6425:6426   */\n      dup3\n        /* \"#utility.yul\":6422:6423   */\n      dup3\n        /* \"#utility.yul\":6418:6427   */\n      mul\n        /* \"#utility.yul\":6447:6477   */\n      tag_494\n        /* \"#utility.yul\":6465:6476   */\n      dup2\n        /* \"#utility.yul\":6447:6477   */\n      tag_367\n      jump\t// in\n    tag_494:\n        /* \"#utility.yul\":6436:6477   */\n      swap2\n      pop\n        /* \"#utility.yul\":6626:6627   */\n      dup3\n        /* \"#utility.yul\":6617:6624   */\n      dup3\n        /* \"#utility.yul\":6613:6628   */\n      div\n        /* \"#utility.yul\":6610:6611   */\n      dup5\n        /* \"#utility.yul\":6607:6629   */\n      eq\n        /* \"#utility.yul\":6587:6588   */\n      dup4\n        /* \"#utility.yul\":6580:6589   */\n      iszero\n        /* \"#utility.yul\":6560:6643   */\n      or\n        /* \"#utility.yul\":6537:6676   */\n      tag_495\n      jumpi\n        /* \"#utility.yul\":6656:6674   */\n      tag_496\n      tag_387\n      jump\t// in\n    tag_496:\n        /* \"#utility.yul\":6537:6676   */\n    tag_495:\n        /* \"#utility.yul\":6321:6683   */\n      pop\n        /* \"#utility.yul\":6273:6683   */\n      swap3\n      swap2\n      pop\n      pop\n      jump\t// out\n        /* \"#utility.yul\":6689:6858   */\n    tag_388:\n        /* \"#utility.yul\":6773:6784   */\n      0x00\n        /* \"#utility.yul\":6807:6813   */\n      dup3\n        /* \"#utility.yul\":6802:6805   */\n      dup3\n        /* \"#utility.yul\":6795:6814   */\n      mstore\n        /* \"#utility.yul\":6847:6851   */\n      0x20\n        /* \"#utility.yul\":6842:6845   */\n      dup3\n        /* \"#utility.yul\":6838:6852   */\n      add\n        /* \"#utility.yul\":6823:6852   */\n      swap1\n      pop\n        /* \"#utility.yul\":6689:6858   */\n      swap3\n      swap2\n      pop\n      pop\n      jump\t// out\n        /* \"#utility.yul\":6864:7030   */\n    tag_389:\n        /* \"#utility.yul\":7004:7022   */\n      0x78202f207920213d206478202f20647900000000000000000000000000000000\n        /* \"#utility.yul\":7000:7001   */\n      0x00\n        /* \"#utility.yul\":6992:6998   */\n      dup3\n        /* \"#utility.yul\":6988:7002   */\n      add\n        /* \"#utility.yul\":6981:7023   */\n      mstore\n        /* \"#utility.yul\":6864:7030   */\n      pop\n      jump\t// out\n        /* \"#utility.yul\":7036:7402   */\n    tag_390:\n        /* \"#utility.yul\":7178:7181   */\n      0x00\n        /* \"#utility.yul\":7199:7266   */\n      tag_500\n        /* \"#utility.yul\":7263:7265   */\n      0x10\n        /* \"#utility.yul\":7258:7261   */\n      dup4\n        /* \"#utility.yul\":7199:7266   */\n      tag_388\n      jump\t// in\n    tag_500:\n        /* \"#utility.yul\":7192:7266   */\n      swap2\n      pop\n        /* \"#utility.yul\":7275:7368   */\n      tag_501\n        /* \"#utility.yul\":7364:7367   */\n      dup3\n        /* \"#utility.yul\":7275:7368   */\n      tag_389\n      jump\t// in\n    tag_501:\n        /* \"#utility.yul\":7393:7395   */\n      0x20\n        /* \"#utility.yul\":7388:7391   */\n      dup3\n        /* \"#utility.yul\":7384:7396   */\n      add\n        /* \"#utility.yul\":7377:7396   */\n      swap1\n      pop\n        /* \"#utility.yul\":7036:7402   */\n      swap2\n      swap1\n      pop\n      jump\t// out\n        /* \"#utility.yul\":7408:7827   */\n    tag_136:\n        /* \"#utility.yul\":7574:7578   */\n      0x00\n        /* \"#utility.yul\":7612:7614   */\n      0x20\n        /* \"#utility.yul\":7601:7610   */\n      dup3\n        /* \"#utility.yul\":7597:7615   */\n      add\n        /* \"#utility.yul\":7589:7615   */\n      swap1\n      pop\n        /* \"#utility.yul\":7661:7670   */\n      dup2\n        /* \"#utility.yul\":7655:7659   */\n      dup2\n        /* \"#utility.yul\":7651:7671   */\n      sub\n        /* \"#utility.yul\":7647:7648   */\n      0x00\n        /* \"#utility.yul\":7636:7645   */\n      dup4\n        /* \"#utility.yul\":7632:7649   */\n      add\n        /* \"#utility.yul\":7625:7672   */\n      mstore\n        /* \"#utility.yul\":7689:7820   */\n      tag_503\n        /* \"#utility.yul\":7815:7819   */\n      dup2\n        /* \"#utility.yul\":7689:7820   */\n      tag_390\n      jump\t// in\n    tag_503:\n        /* \"#utility.yul\":7681:7820   */\n      swap1\n      pop\n        /* \"#utility.yul\":7408:7827   */\n      swap2\n      swap1\n      pop\n      jump\t// out\n        /* \"#utility.yul\":7833:8013   */\n    tag_391:\n        /* \"#utility.yul\":7881:7958   */\n      0x4e487b7100000000000000000000000000000000000000000000000000000000\n        /* \"#utility.yul\":7878:7879   */\n      0x00\n        /* \"#utility.yul\":7871:7959   */\n      mstore\n        /* \"#utility.yul\":7978:7982   */\n      0x12\n        /* \"#utility.yul\":7975:7976   */\n      0x04\n        /* \"#utility.yul\":7968:7983   */\n      mstore\n        /* \"#utility.yul\":8002:8006   */\n      0x24\n        /* \"#utility.yul\":7999:8000   */\n      0x00\n        /* \"#utility.yul\":7992:8007   */\n      revert\n        /* \"#utility.yul\":8019:8204   */\n    tag_145:\n        /* \"#utility.yul\":8059:8060   */\n      0x00\n        /* \"#utility.yul\":8076:8096   */\n      tag_506\n        /* \"#utility.yul\":8094:8095   */\n      dup3\n        /* \"#utility.yul\":8076:8096   */\n      tag_367\n      jump\t// in\n    tag_506:\n        /* \"#utility.yul\":8071:8096   */\n      swap2\n      pop\n        /* \"#utility.yul\":8110:8130   */\n      tag_507\n        /* \"#utility.yul\":8128:8129   */\n      dup4\n        /* \"#utility.yul\":8110:8130   */\n      tag_367\n      jump\t// in\n    tag_507:\n        /* \"#utility.yul\":8105:8130   */\n      swap3\n      pop\n        /* \"#utility.yul\":8149:8150   */\n      dup3\n        /* \"#utility.yul\":8139:8174   */\n      tag_508\n      jumpi\n        /* \"#utility.yul\":8154:8172   */\n      tag_509\n      tag_391\n      jump\t// in\n    tag_509:\n        /* \"#utility.yul\":8139:8174   */\n    tag_508:\n        /* \"#utility.yul\":8196:8197   */\n      dup3\n        /* \"#utility.yul\":8193:8194   */\n      dup3\n        /* \"#utility.yul\":8189:8198   */\n      div\n        /* \"#utility.yul\":8184:8198   */\n      swap1\n      pop\n        /* \"#utility.yul\":8019:8204   */\n      swap3\n      swap2\n      pop\n      pop\n      jump\t// out\n        /* \"#utility.yul\":8210:8370   */\n    tag_392:\n        /* \"#utility.yul\":8350:8362   */\n      0x736861726573203d203000000000000000000000000000000000000000000000\n        /* \"#utility.yul\":8346:8347   */\n      0x00\n        /* \"#utility.yul\":8338:8344   */\n      dup3\n        /* \"#utility.yul\":8334:8348   */\n      add\n        /* \"#utility.yul\":8327:8363   */\n      mstore\n        /* \"#utility.yul\":8210:8370   */\n      pop\n      jump\t// out\n        /* \"#utility.yul\":8376:8742   */\n    tag_393:\n        /* \"#utility.yul\":8518:8521   */\n      0x00\n        /* \"#utility.yul\":8539:8606   */\n      tag_512\n        /* \"#utility.yul\":8603:8605   */\n      0x0a\n        /* \"#utility.yul\":8598:8601   */\n      dup4\n        /* \"#utility.yul\":8539:8606   */\n      tag_388\n      jump\t// in\n    tag_512:\n        /* \"#utility.yul\":8532:8606   */\n      swap2\n      pop\n        /* \"#utility.yul\":8615:8708   */\n      tag_513\n        /* \"#utility.yul\":8704:8707   */\n      dup3\n        /* \"#utility.yul\":8615:8708   */\n      tag_392\n      jump\t// in\n    tag_513:\n        /* \"#utility.yul\":8733:8735   */\n      0x20\n        /* \"#utility.yul\":8728:8731   */\n      dup3\n        /* \"#utility.yul\":8724:8736   */\n      add\n        /* \"#utility.yul\":8717:8736   */\n      swap1\n      pop\n        /* \"#utility.yul\":8376:8742   */\n      swap2\n      swap1\n      pop\n      jump\t// out\n        /* \"#utility.yul\":8748:9167   */\n    tag_151:\n        /* \"#utility.yul\":8914:8918   */\n      0x00\n        /* \"#utility.yul\":8952:8954   */\n      0x20\n        /* \"#utility.yul\":8941:8950   */\n      dup3\n        /* \"#utility.yul\":8937:8955   */\n      add\n        /* \"#utility.yul\":8929:8955   */\n      swap1\n      pop\n        /* \"#utility.yul\":9001:9010   */\n      dup2\n        /* \"#utility.yul\":8995:8999   */\n      dup2\n        /* \"#utility.yul\":8991:9011   */\n      sub\n        /* \"#utility.yul\":8987:8988   */\n      0x00\n        /* \"#utility.yul\":8976:8985   */\n      dup4\n        /* \"#utility.yul\":8972:8989   */\n      add\n        /* \"#utility.yul\":8965:9012   */\n      mstore\n        /* \"#utility.yul\":9029:9160   */\n      tag_515\n        /* \"#utility.yul\":9155:9159   */\n      dup2\n        /* \"#utility.yul\":9029:9160   */\n      tag_393\n      jump\t// in\n    tag_515:\n        /* \"#utility.yul\":9021:9160   */\n      swap1\n      pop\n        /* \"#utility.yul\":8748:9167   */\n      swap2\n      swap1\n      pop\n      jump\t// out\n        /* \"#utility.yul\":9173:9316   */\n    tag_394:\n        /* \"#utility.yul\":9230:9235   */\n      0x00\n        /* \"#utility.yul\":9261:9267   */\n      dup2\n        /* \"#utility.yul\":9255:9268   */\n      mload\n        /* \"#utility.yul\":9246:9268   */\n      swap1\n      pop\n        /* \"#utility.yul\":9277:9310   */\n      tag_517\n        /* \"#utility.yul\":9304:9309   */\n      dup2\n        /* \"#utility.yul\":9277:9310   */\n      tag_372\n      jump\t// in\n    tag_517:\n        /* \"#utility.yul\":9173:9316   */\n      swap3\n      swap2\n      pop\n      pop\n      jump\t// out\n        /* \"#utility.yul\":9322:9673   */\n    tag_159:\n        /* \"#utility.yul\":9392:9398   */\n      0x00\n        /* \"#utility.yul\":9441:9443   */\n      0x20\n        /* \"#utility.yul\":9429:9438   */\n      dup3\n        /* \"#utility.yul\":9420:9427   */\n      dup5\n        /* \"#utility.yul\":9416:9439   */\n      sub\n        /* \"#utility.yul\":9412:9444   */\n      slt\n        /* \"#utility.yul\":9409:9528   */\n      iszero\n      tag_519\n      jumpi\n        /* \"#utility.yul\":9447:9526   */\n      tag_520\n      tag_370\n      jump\t// in\n    tag_520:\n        /* \"#utility.yul\":9409:9528   */\n    tag_519:\n        /* \"#utility.yul\":9567:9568   */\n      0x00\n        /* \"#utility.yul\":9592:9656   */\n      tag_521\n        /* \"#utility.yul\":9648:9655   */\n      dup5\n        /* \"#utility.yul\":9639:9645   */\n      dup3\n        /* \"#utility.yul\":9628:9637   */\n      dup6\n        /* \"#utility.yul\":9624:9646   */\n      add\n        /* \"#utility.yul\":9592:9656   */\n      tag_394\n      jump\t// in\n    tag_521:\n        /* \"#utility.yul\":9582:9656   */\n      swap2\n      pop\n        /* \"#utility.yul\":9538:9666   */\n      pop\n        /* \"#utility.yul\":9322:9673   */\n      swap3\n      swap2\n      pop\n      pop\n      jump\t// out\n        /* \"#utility.yul\":9679:9851   */\n    tag_395:\n        /* \"#utility.yul\":9819:9843   */\n      0x496e76616c696420455243323020726573657276657300000000000000000000\n        /* \"#utility.yul\":9815:9816   */\n      0x00\n        /* \"#utility.yul\":9807:9813   */\n      dup3\n        /* \"#utility.yul\":9803:9817   */\n      add\n        /* \"#utility.yul\":9796:9844   */\n      mstore\n        /* \"#utility.yul\":9679:9851   */\n      pop\n      jump\t// out\n        /* \"#utility.yul\":9857:10223   */\n    tag_396:\n        /* \"#utility.yul\":9999:10002   */\n      0x00\n        /* \"#utility.yul\":10020:10087   */\n      tag_524\n        /* \"#utility.yul\":10084:10086   */\n      0x16\n        /* \"#utility.yul\":10079:10082   */\n      dup4\n        /* \"#utility.yul\":10020:10087   */\n      tag_388\n      jump\t// in\n    tag_524:\n        /* \"#utility.yul\":10013:10087   */\n      swap2\n      pop\n        /* \"#utility.yul\":10096:10189   */\n      tag_525\n        /* \"#utility.yul\":10185:10188   */\n      dup3\n        /* \"#utility.yul\":10096:10189   */\n      tag_395\n      jump\t// in\n    tag_525:\n        /* \"#utility.yul\":10214:10216   */\n      0x20\n        /* \"#utility.yul\":10209:10212   */\n      dup3\n        /* \"#utility.yul\":10205:10217   */\n      add\n        /* \"#utility.yul\":10198:10217   */\n      swap1\n      pop\n        /* \"#utility.yul\":9857:10223   */\n      swap2\n      swap1\n      pop\n      jump\t// out\n        /* \"#utility.yul\":10229:10648   */\n    tag_166:\n        /* \"#utility.yul\":10395:10399   */\n      0x00\n        /* \"#utility.yul\":10433:10435   */\n      0x20\n        /* \"#utility.yul\":10422:10431   */\n      dup3\n        /* \"#utility.yul\":10418:10436   */\n      add\n        /* \"#utility.yul\":10410:10436   */\n      swap1\n      pop\n        /* \"#utility.yul\":10482:10491   */\n      dup2\n        /* \"#utility.yul\":10476:10480   */\n      dup2\n        /* \"#utility.yul\":10472:10492   */\n      sub\n        /* \"#utility.yul\":10468:10469   */\n      0x00\n        /* \"#utility.yul\":10457:10466   */\n      dup4\n        /* \"#utility.yul\":10453:10470   */\n      add\n        /* \"#utility.yul\":10446:10493   */\n      mstore\n        /* \"#utility.yul\":10510:10641   */\n      tag_527\n        /* \"#utility.yul\":10636:10640   */\n      dup2\n        /* \"#utility.yul\":10510:10641   */\n      tag_396\n      jump\t// in\n    tag_527:\n        /* \"#utility.yul\":10502:10641   */\n      swap1\n      pop\n        /* \"#utility.yul\":10229:10648   */\n      swap2\n      swap1\n      pop\n      jump\t// out\n        /* \"#utility.yul\":10654:10845   */\n    tag_170:\n        /* \"#utility.yul\":10694:10697   */\n      0x00\n        /* \"#utility.yul\":10713:10733   */\n      tag_529\n        /* \"#utility.yul\":10731:10732   */\n      dup3\n        /* \"#utility.yul\":10713:10733   */\n      tag_367\n      jump\t// in\n    tag_529:\n        /* \"#utility.yul\":10708:10733   */\n      swap2\n      pop\n        /* \"#utility.yul\":10747:10767   */\n      tag_530\n        /* \"#utility.yul\":10765:10766   */\n      dup4\n        /* \"#utility.yul\":10747:10767   */\n      tag_367\n      jump\t// in\n    tag_530:\n        /* \"#utility.yul\":10742:10767   */\n      swap3\n      pop\n        /* \"#utility.yul\":10790:10791   */\n      dup3\n        /* \"#utility.yul\":10787:10788   */\n      dup3\n        /* \"#utility.yul\":10783:10792   */\n      add\n        /* \"#utility.yul\":10776:10792   */\n      swap1\n      pop\n        /* \"#utility.yul\":10811:10814   */\n      dup1\n        /* \"#utility.yul\":10808:10809   */\n      dup3\n        /* \"#utility.yul\":10805:10815   */\n      gt\n        /* \"#utility.yul\":10802:10838   */\n      iszero\n      tag_531\n      jumpi\n        /* \"#utility.yul\":10818:10836   */\n      tag_532\n      tag_387\n      jump\t// in\n    tag_532:\n        /* \"#utility.yul\":10802:10838   */\n    tag_531:\n        /* \"#utility.yul\":10654:10845   */\n      swap3\n      swap2\n      pop\n      pop\n      jump\t// out\n        /* \"#utility.yul\":10851:11020   */\n    tag_397:\n        /* \"#utility.yul\":10991:11012   */\n      0x45544820616d6f756e74206d69736d6174636800000000000000000000000000\n        /* \"#utility.yul\":10987:10988   */\n      0x00\n        /* \"#utility.yul\":10979:10985   */\n      dup3\n        /* \"#utility.yul\":10975:10989   */\n      add\n        /* \"#utility.yul\":10968:11013   */\n      mstore\n        /* \"#utility.yul\":10851:11020   */\n      pop\n      jump\t// out\n        /* \"#utility.yul\":11026:11392   */\n    tag_398:\n        /* \"#utility.yul\":11168:11171   */\n      0x00\n        /* \"#utility.yul\":11189:11256   */\n      tag_535\n        /* \"#utility.yul\":11253:11255   */\n      0x13\n        /* \"#utility.yul\":11248:11251   */\n      dup4\n        /* \"#utility.yul\":11189:11256   */\n      tag_388\n      jump\t// in\n    tag_535:\n        /* \"#utility.yul\":11182:11256   */\n      swap2\n      pop\n        /* \"#utility.yul\":11265:11358   */\n      tag_536\n        /* \"#utility.yul\":11354:11357   */\n      dup3\n        /* \"#utility.yul\":11265:11358   */\n      tag_397\n      jump\t// in\n    tag_536:\n        /* \"#utility.yul\":11383:11385   */\n      0x20\n        /* \"#utility.yul\":11378:11381   */\n      dup3\n        /* \"#utility.yul\":11374:11386   */\n      add\n        /* \"#utility.yul\":11367:11386   */\n      swap1\n      pop\n        /* \"#utility.yul\":11026:11392   */\n      swap2\n      swap1\n      pop\n      jump\t// out\n        /* \"#utility.yul\":11398:11817   */\n    tag_176:\n        /* \"#utility.yul\":11564:11568   */\n      0x00\n        /* \"#utility.yul\":11602:11604   */\n      0x20\n        /* \"#utility.yul\":11591:11600   */\n      dup3\n        /* \"#utility.yul\":11587:11605   */\n      add\n        /* \"#utility.yul\":11579:11605   */\n      swap1\n      pop\n        /* \"#utility.yul\":11651:11660   */\n      dup2\n        /* \"#utility.yul\":11645:11649   */\n      dup2\n        /* \"#utility.yul\":11641:11661   */\n      sub\n        /* \"#utility.yul\":11637:11638   */\n      0x00\n        /* \"#utility.yul\":11626:11635   */\n      dup4\n        /* \"#utility.yul\":11622:11639   */\n      add\n        /* \"#utility.yul\":11615:11662   */\n      mstore\n        /* \"#utility.yul\":11679:11810   */\n      tag_538\n        /* \"#utility.yul\":11805:11809   */\n      dup2\n        /* \"#utility.yul\":11679:11810   */\n      tag_398\n      jump\t// in\n    tag_538:\n        /* \"#utility.yul\":11671:11810   */\n      swap1\n      pop\n        /* \"#utility.yul\":11398:11817   */\n      swap2\n      swap1\n      pop\n      jump\t// out\n        /* \"#utility.yul\":11823:11999   */\n    tag_399:\n        /* \"#utility.yul\":11963:11991   */\n      0x496e73756666696369656e74206f757470757420616d6f756e74000000000000\n        /* \"#utility.yul\":11959:11960   */\n      0x00\n        /* \"#utility.yul\":11951:11957   */\n      dup3\n        /* \"#utility.yul\":11947:11961   */\n      add\n        /* \"#utility.yul\":11940:11992   */\n      mstore\n        /* \"#utility.yul\":11823:11999   */\n      pop\n      jump\t// out\n        /* \"#utility.yul\":12005:12371   */\n    tag_400:\n        /* \"#utility.yul\":12147:12150   */\n      0x00\n        /* \"#utility.yul\":12168:12235   */\n      tag_541\n        /* \"#utility.yul\":12232:12234   */\n      0x1a\n        /* \"#utility.yul\":12227:12230   */\n      dup4\n        /* \"#utility.yul\":12168:12235   */\n      tag_388\n      jump\t// in\n    tag_541:\n        /* \"#utility.yul\":12161:12235   */\n      swap2\n      pop\n        /* \"#utility.yul\":12244:12337   */\n      tag_542\n        /* \"#utility.yul\":12333:12336   */\n      dup3\n        /* \"#utility.yul\":12244:12337   */\n      tag_399\n      jump\t// in\n    tag_542:\n        /* \"#utility.yul\":12362:12364   */\n      0x20\n        /* \"#utility.yul\":12357:12360   */\n      dup3\n        /* \"#utility.yul\":12353:12365   */\n      add\n        /* \"#utility.yul\":12346:12365   */\n      swap1\n      pop\n        /* \"#utility.yul\":12005:12371   */\n      swap2\n      swap1\n      pop\n      jump\t// out\n        /* \"#utility.yul\":12377:12796   */\n    tag_184:\n        /* \"#utility.yul\":12543:12547   */\n      0x00\n        /* \"#utility.yul\":12581:12583   */\n      0x20\n        /* \"#utility.yul\":12570:12579   */\n      dup3\n        /* \"#utility.yul\":12566:12584   */\n      add\n        /* \"#utility.yul\":12558:12584   */\n      swap1\n      pop\n        /* \"#utility.yul\":12630:12639   */\n      dup2\n        /* \"#utility.yul\":12624:12628   */\n      dup2\n        /* \"#utility.yul\":12620:12640   */\n      sub\n        /* \"#utility.yul\":12616:12617   */\n      0x00\n        /* \"#utility.yul\":12605:12614   */\n      dup4\n        /* \"#utility.yul\":12601:12618   */\n      add\n        /* \"#utility.yul\":12594:12641   */\n      mstore\n        /* \"#utility.yul\":12658:12789   */\n      tag_544\n        /* \"#utility.yul\":12784:12788   */\n      dup2\n        /* \"#utility.yul\":12658:12789   */\n      tag_400\n      jump\t// in\n    tag_544:\n        /* \"#utility.yul\":12650:12789   */\n      swap1\n      pop\n        /* \"#utility.yul\":12377:12796   */\n      swap2\n      swap1\n      pop\n      jump\t// out\n        /* \"#utility.yul\":12802:12996   */\n    tag_186:\n        /* \"#utility.yul\":12842:12846   */\n      0x00\n        /* \"#utility.yul\":12862:12882   */\n      tag_546\n        /* \"#utility.yul\":12880:12881   */\n      dup3\n        /* \"#utility.yul\":12862:12882   */\n      tag_367\n      jump\t// in\n    tag_546:\n        /* \"#utility.yul\":12857:12882   */\n      swap2\n      pop\n        /* \"#utility.yul\":12896:12916   */\n      tag_547\n        /* \"#utility.yul\":12914:12915   */\n      dup4\n        /* \"#utility.yul\":12896:12916   */\n      tag_367\n      jump\t// in\n    tag_547:\n        /* \"#utility.yul\":12891:12916   */\n      swap3\n      pop\n        /* \"#utility.yul\":12940:12941   */\n      dup3\n        /* \"#utility.yul\":12937:12938   */\n      dup3\n        /* \"#utility.yul\":12933:12942   */\n      sub\n        /* \"#utility.yul\":12925:12942   */\n      swap1\n      pop\n        /* \"#utility.yul\":12964:12965   */\n      dup2\n        /* \"#utility.yul\":12958:12962   */\n      dup2\n        /* \"#utility.yul\":12955:12966   */\n      gt\n        /* \"#utility.yul\":12952:12989   */\n      iszero\n      tag_548\n      jumpi\n        /* \"#utility.yul\":12969:12987   */\n      tag_549\n      tag_387\n      jump\t// in\n    tag_549:\n        /* \"#utility.yul\":12952:12989   */\n    tag_548:\n        /* \"#utility.yul\":12802:12996   */\n      swap3\n      swap2\n      pop\n      pop\n      jump\t// out\n        /* \"#utility.yul\":13002:13160   */\n    tag_401:\n        /* \"#utility.yul\":13142:13152   */\n      0x536c69704c6f636b000000000000000000000000000000000000000000000000\n        /* \"#utility.yul\":13138:13139   */\n      0x00\n        /* \"#utility.yul\":13130:13136   */\n      dup3\n        /* \"#utility.yul\":13126:13140   */\n      add\n        /* \"#utility.yul\":13119:13153   */\n      mstore\n        /* \"#utility.yul\":13002:13160   */\n      pop\n      jump\t// out\n        /* \"#utility.yul\":13166:13531   */\n    tag_402:\n        /* \"#utility.yul\":13308:13311   */\n      0x00\n        /* \"#utility.yul\":13329:13395   */\n      tag_552\n        /* \"#utility.yul\":13393:13394   */\n      0x08\n        /* \"#utility.yul\":13388:13391   */\n      dup4\n        /* \"#utility.yul\":13329:13395   */\n      tag_388\n      jump\t// in\n    tag_552:\n        /* \"#utility.yul\":13322:13395   */\n      swap2\n      pop\n        /* \"#utility.yul\":13404:13497   */\n      tag_553\n        /* \"#utility.yul\":13493:13496   */\n      dup3\n        /* \"#utility.yul\":13404:13497   */\n      tag_401\n      jump\t// in\n    tag_553:\n        /* \"#utility.yul\":13522:13524   */\n      0x20\n        /* \"#utility.yul\":13517:13520   */\n      dup3\n        /* \"#utility.yul\":13513:13525   */\n      add\n        /* \"#utility.yul\":13506:13525   */\n      swap1\n      pop\n        /* \"#utility.yul\":13166:13531   */\n      swap2\n      swap1\n      pop\n      jump\t// out\n        /* \"#utility.yul\":13537:13956   */\n    tag_191:\n        /* \"#utility.yul\":13703:13707   */\n      0x00\n        /* \"#utility.yul\":13741:13743   */\n      0x20\n        /* \"#utility.yul\":13730:13739   */\n      dup3\n        /* \"#utility.yul\":13726:13744   */\n      add\n        /* \"#utility.yul\":13718:13744   */\n      swap1\n      pop\n        /* \"#utility.yul\":13790:13799   */\n      dup2\n        /* \"#utility.yul\":13784:13788   */\n      dup2\n        /* \"#utility.yul\":13780:13800   */\n      sub\n        /* \"#utility.yul\":13776:13777   */\n      0x00\n        /* \"#utility.yul\":13765:13774   */\n      dup4\n        /* \"#utility.yul\":13761:13778   */\n      add\n        /* \"#utility.yul\":13754:13801   */\n      mstore\n        /* \"#utility.yul\":13818:13949   */\n      tag_555\n        /* \"#utility.yul\":13944:13948   */\n      dup2\n        /* \"#utility.yul\":13818:13949   */\n      tag_402\n      jump\t// in\n    tag_555:\n        /* \"#utility.yul\":13810:13949   */\n      swap1\n      pop\n        /* \"#utility.yul\":13537:13956   */\n      swap2\n      swap1\n      pop\n      jump\t// out\n        /* \"#utility.yul\":13962:14294   */\n    tag_197:\n        /* \"#utility.yul\":14083:14087   */\n      0x00\n        /* \"#utility.yul\":14121:14123   */\n      0x40\n        /* \"#utility.yul\":14110:14119   */\n      dup3\n        /* \"#utility.yul\":14106:14124   */\n      add\n        /* \"#utility.yul\":14098:14124   */\n      swap1\n      pop\n        /* \"#utility.yul\":14134:14205   */\n      tag_557\n        /* \"#utility.yul\":14202:14203   */\n      0x00\n        /* \"#utility.yul\":14191:14200   */\n      dup4\n        /* \"#utility.yul\":14187:14204   */\n      add\n        /* \"#utility.yul\":14178:14184   */\n      dup6\n        /* \"#utility.yul\":14134:14205   */\n      tag_378\n      jump\t// in\n    tag_557:\n        /* \"#utility.yul\":14215:14287   */\n      tag_558\n        /* \"#utility.yul\":14283:14285   */\n      0x20\n        /* \"#utility.yul\":14272:14281   */\n      dup4\n        /* \"#utility.yul\":14268:14286   */\n      add\n        /* \"#utility.yul\":14259:14265   */\n      dup5\n        /* \"#utility.yul\":14215:14287   */\n      tag_368\n      jump\t// in\n    tag_558:\n        /* \"#utility.yul\":13962:14294   */\n      swap4\n      swap3\n      pop\n      pop\n      pop\n      jump\t// out\n        /* \"#utility.yul\":14300:14470   */\n    tag_403:\n        /* \"#utility.yul\":14440:14462   */\n      0x496e73756666696369656e742062616c616e6365000000000000000000000000\n        /* \"#utility.yul\":14436:14437   */\n      0x00\n        /* \"#utility.yul\":14428:14434   */\n      dup3\n        /* \"#utility.yul\":14424:14438   */\n      add\n        /* \"#utility.yul\":14417:14463   */\n      mstore\n        /* \"#utility.yul\":14300:14470   */\n      pop\n      jump\t// out\n        /* \"#utility.yul\":14476:14842   */\n    tag_404:\n        /* \"#utility.yul\":14618:14621   */\n      0x00\n        /* \"#utility.yul\":14639:14706   */\n      tag_561\n        /* \"#utility.yul\":14703:14705   */\n      0x14\n        /* \"#utility.yul\":14698:14701   */\n      dup4\n        /* \"#utility.yul\":14639:14706   */\n      tag_388\n      jump\t// in\n    tag_561:\n        /* \"#utility.yul\":14632:14706   */\n      swap2\n      pop\n        /* \"#utility.yul\":14715:14808   */\n      tag_562\n        /* \"#utility.yul\":14804:14807   */\n      dup3\n        /* \"#utility.yul\":14715:14808   */\n      tag_403\n      jump\t// in\n    tag_562:\n        /* \"#utility.yul\":14833:14835   */\n      0x20\n        /* \"#utility.yul\":14828:14831   */\n      dup3\n        /* \"#utility.yul\":14824:14836   */\n      add\n        /* \"#utility.yul\":14817:14836   */\n      swap1\n      pop\n        /* \"#utility.yul\":14476:14842   */\n      swap2\n      swap1\n      pop\n      jump\t// out\n        /* \"#utility.yul\":14848:15267   */\n    tag_258:\n        /* \"#utility.yul\":15014:15018   */\n      0x00\n        /* \"#utility.yul\":15052:15054   */\n      0x20\n        /* \"#utility.yul\":15041:15050   */\n      dup3\n        /* \"#utility.yul\":15037:15055   */\n      add\n        /* \"#utility.yul\":15029:15055   */\n      swap1\n      pop\n        /* \"#utility.yul\":15101:15110   */\n      dup2\n        /* \"#utility.yul\":15095:15099   */\n      dup2\n        /* \"#utility.yul\":15091:15111   */\n      sub\n        /* \"#utility.yul\":15087:15088   */\n      0x00\n        /* \"#utility.yul\":15076:15085   */\n      dup4\n        /* \"#utility.yul\":15072:15089   */\n      add\n        /* \"#utility.yul\":15065:15112   */\n      mstore\n        /* \"#utility.yul\":15129:15260   */\n      tag_564\n        /* \"#utility.yul\":15255:15259   */\n      dup2\n        /* \"#utility.yul\":15129:15260   */\n      tag_404\n      jump\t// in\n    tag_564:\n        /* \"#utility.yul\":15121:15260   */\n      swap1\n      pop\n        /* \"#utility.yul\":14848:15267   */\n      swap2\n      swap1\n      pop\n      jump\t// out\n        /* \"#utility.yul\":15273:15443   */\n    tag_405:\n        /* \"#utility.yul\":15413:15435   */\n      0x496e76616c696420455448207265736572766573000000000000000000000000\n        /* \"#utility.yul\":15409:15410   */\n      0x00\n        /* \"#utility.yul\":15401:15407   */\n      dup3\n        /* \"#utility.yul\":15397:15411   */\n      add\n        /* \"#utility.yul\":15390:15436   */\n      mstore\n        /* \"#utility.yul\":15273:15443   */\n      pop\n      jump\t// out\n        /* \"#utility.yul\":15449:15815   */\n    tag_406:\n        /* \"#utility.yul\":15591:15594   */\n      0x00\n        /* \"#utility.yul\":15612:15679   */\n      tag_567\n        /* \"#utility.yul\":15676:15678   */\n      0x14\n        /* \"#utility.yul\":15671:15674   */\n      dup4\n        /* \"#utility.yul\":15612:15679   */\n      tag_388\n      jump\t// in\n    tag_567:\n        /* \"#utility.yul\":15605:15679   */\n      swap2\n      pop\n        /* \"#utility.yul\":15688:15781   */\n      tag_568\n        /* \"#utility.yul\":15777:15780   */\n      dup3\n        /* \"#utility.yul\":15688:15781   */\n      tag_405\n      jump\t// in\n    tag_568:\n        /* \"#utility.yul\":15806:15808   */\n      0x20\n        /* \"#utility.yul\":15801:15804   */\n      dup3\n        /* \"#utility.yul\":15797:15809   */\n      add\n        /* \"#utility.yul\":15790:15809   */\n      swap1\n      pop\n        /* \"#utility.yul\":15449:15815   */\n      swap2\n      swap1\n      pop\n      jump\t// out\n        /* \"#utility.yul\":15821:16240   */\n    tag_268:\n        /* \"#utility.yul\":15987:15991   */\n      0x00\n        /* \"#utility.yul\":16025:16027   */\n      0x20\n        /* \"#utility.yul\":16014:16023   */\n      dup3\n        /* \"#utility.yul\":16010:16028   */\n      add\n        /* \"#utility.yul\":16002:16028   */\n      swap1\n      pop\n        /* \"#utility.yul\":16074:16083   */\n      dup2\n        /* \"#utility.yul\":16068:16072   */\n      dup2\n        /* \"#utility.yul\":16064:16084   */\n      sub\n        /* \"#utility.yul\":16060:16061   */\n      0x00\n        /* \"#utility.yul\":16049:16058   */\n      dup4\n        /* \"#utility.yul\":16045:16062   */\n      add\n        /* \"#utility.yul\":16038:16085   */\n      mstore\n        /* \"#utility.yul\":16102:16233   */\n      tag_570\n        /* \"#utility.yul\":16228:16232   */\n      dup2\n        /* \"#utility.yul\":16102:16233   */\n      tag_406\n      jump\t// in\n    tag_570:\n        /* \"#utility.yul\":16094:16233   */\n      swap1\n      pop\n        /* \"#utility.yul\":15821:16240   */\n      swap2\n      swap1\n      pop\n      jump\t// out\n        /* \"#utility.yul\":16246:16332   */\n    tag_407:\n        /* \"#utility.yul\":16281:16288   */\n      0x00\n        /* \"#utility.yul\":16321:16325   */\n      0xff\n        /* \"#utility.yul\":16314:16319   */\n      dup3\n        /* \"#utility.yul\":16310:16326   */\n      and\n        /* \"#utility.yul\":16299:16326   */\n      swap1\n      pop\n        /* \"#utility.yul\":16246:16332   */\n      swap2\n      swap1\n      pop\n      jump\t// out\n        /* \"#utility.yul\":16338:16456   */\n    tag_408:\n        /* \"#utility.yul\":16409:16431   */\n      tag_573\n        /* \"#utility.yul\":16425:16430   */\n      dup2\n        /* \"#utility.yul\":16409:16431   */\n      tag_407\n      jump\t// in\n    tag_573:\n        /* \"#utility.yul\":16402:16407   */\n      dup2\n        /* \"#utility.yul\":16399:16432   */\n      eq\n        /* \"#utility.yul\":16389:16450   */\n      tag_574\n      jumpi\n        /* \"#utility.yul\":16446:16447   */\n      0x00\n        /* \"#utility.yul\":16443:16444   */\n      dup1\n        /* \"#utility.yul\":16436:16448   */\n      revert\n        /* \"#utility.yul\":16389:16450   */\n    tag_574:\n        /* \"#utility.yul\":16338:16456   */\n      pop\n      jump\t// out\n        /* \"#utility.yul\":16462:16601   */\n    tag_409:\n        /* \"#utility.yul\":16517:16522   */\n      0x00\n        /* \"#utility.yul\":16548:16554   */\n      dup2\n        /* \"#utility.yul\":16542:16555   */\n      mload\n        /* \"#utility.yul\":16533:16555   */\n      swap1\n      pop\n        /* \"#utility.yul\":16564:16595   */\n      tag_576\n        /* \"#utility.yul\":16589:16594   */\n      dup2\n        /* \"#utility.yul\":16564:16595   */\n      tag_408\n      jump\t// in\n    tag_576:\n        /* \"#utility.yul\":16462:16601   */\n      swap3\n      swap2\n      pop\n      pop\n      jump\t// out\n        /* \"#utility.yul\":16607:16954   */\n    tag_317:\n        /* \"#utility.yul\":16675:16681   */\n      0x00\n        /* \"#utility.yul\":16724:16726   */\n      0x20\n        /* \"#utility.yul\":16712:16721   */\n      dup3\n        /* \"#utility.yul\":16703:16710   */\n      dup5\n        /* \"#utility.yul\":16699:16722   */\n      sub\n        /* \"#utility.yul\":16695:16727   */\n      slt\n        /* \"#utility.yul\":16692:16811   */\n      iszero\n      tag_578\n      jumpi\n        /* \"#utility.yul\":16730:16809   */\n      tag_579\n      tag_370\n      jump\t// in\n    tag_579:\n        /* \"#utility.yul\":16692:16811   */\n    tag_578:\n        /* \"#utility.yul\":16850:16851   */\n      0x00\n        /* \"#utility.yul\":16875:16937   */\n      tag_580\n        /* \"#utility.yul\":16929:16936   */\n      dup5\n        /* \"#utility.yul\":16920:16926   */\n      dup3\n        /* \"#utility.yul\":16909:16918   */\n      dup6\n        /* \"#utility.yul\":16905:16927   */\n      add\n        /* \"#utility.yul\":16875:16937   */\n      tag_409\n      jump\t// in\n    tag_580:\n        /* \"#utility.yul\":16865:16937   */\n      swap2\n      pop\n        /* \"#utility.yul\":16821:16947   */\n      pop\n        /* \"#utility.yul\":16607:16954   */\n      swap3\n      swap2\n      pop\n      pop\n      jump\t// out\n        /* \"#utility.yul\":16960:17062   */\n    tag_410:\n        /* \"#utility.yul\":17002:17010   */\n      0x00\n        /* \"#utility.yul\":17049:17054   */\n      dup2\n        /* \"#utility.yul\":17046:17047   */\n      0x01\n        /* \"#utility.yul\":17042:17055   */\n      shr\n        /* \"#utility.yul\":17021:17055   */\n      swap1\n      pop\n        /* \"#utility.yul\":16960:17062   */\n      swap2\n      swap1\n      pop\n      jump\t// out\n        /* \"#utility.yul\":17068:17916   */\n    tag_411:\n        /* \"#utility.yul\":17129:17134   */\n      0x00\n        /* \"#utility.yul\":17136:17140   */\n      dup1\n        /* \"#utility.yul\":17160:17166   */\n      dup3\n        /* \"#utility.yul\":17151:17166   */\n      swap2\n      pop\n        /* \"#utility.yul\":17184:17189   */\n      dup4\n        /* \"#utility.yul\":17175:17189   */\n      swap1\n      pop\n        /* \"#utility.yul\":17198:17910   */\n    tag_583:\n        /* \"#utility.yul\":17219:17220   */\n      0x01\n        /* \"#utility.yul\":17209:17217   */\n      dup6\n        /* \"#utility.yul\":17206:17221   */\n      gt\n        /* \"#utility.yul\":17198:17910   */\n      iszero\n      tag_585\n      jumpi\n        /* \"#utility.yul\":17314:17318   */\n      dup1\n        /* \"#utility.yul\":17309:17312   */\n      dup7\n        /* \"#utility.yul\":17305:17319   */\n      div\n        /* \"#utility.yul\":17299:17303   */\n      dup2\n        /* \"#utility.yul\":17296:17320   */\n      gt\n        /* \"#utility.yul\":17293:17343   */\n      iszero\n      tag_586\n      jumpi\n        /* \"#utility.yul\":17323:17341   */\n      tag_587\n      tag_387\n      jump\t// in\n    tag_587:\n        /* \"#utility.yul\":17293:17343   */\n    tag_586:\n        /* \"#utility.yul\":17373:17374   */\n      0x01\n        /* \"#utility.yul\":17363:17371   */\n      dup6\n        /* \"#utility.yul\":17359:17375   */\n      and\n        /* \"#utility.yul\":17356:17807   */\n      iszero\n      tag_588\n      jumpi\n        /* \"#utility.yul\":17788:17792   */\n      dup1\n        /* \"#utility.yul\":17781:17786   */\n      dup3\n        /* \"#utility.yul\":17777:17793   */\n      mul\n        /* \"#utility.yul\":17768:17793   */\n      swap2\n      pop\n        /* \"#utility.yul\":17356:17807   */\n    tag_588:\n        /* \"#utility.yul\":17838:17842   */\n      dup1\n        /* \"#utility.yul\":17832:17836   */\n      dup2\n        /* \"#utility.yul\":17828:17843   */\n      mul\n        /* \"#utility.yul\":17820:17843   */\n      swap1\n      pop\n        /* \"#utility.yul\":17868:17900   */\n      tag_589\n        /* \"#utility.yul\":17891:17899   */\n      dup6\n        /* \"#utility.yul\":17868:17900   */\n      tag_410\n      jump\t// in\n    tag_589:\n        /* \"#utility.yul\":17856:17900   */\n      swap5\n      pop\n        /* \"#utility.yul\":17198:17910   */\n      jump(tag_583)\n    tag_585:\n        /* \"#utility.yul\":17068:17916   */\n      swap5\n      pop\n      swap5\n      swap3\n      pop\n      pop\n      pop\n      jump\t// out\n        /* \"#utility.yul\":17922:18995   */\n    tag_412:\n        /* \"#utility.yul\":17976:17981   */\n      0x00\n        /* \"#utility.yul\":18167:18175   */\n      dup3\n        /* \"#utility.yul\":18157:18197   */\n      tag_591\n      jumpi\n        /* \"#utility.yul\":18188:18189   */\n      0x01\n        /* \"#utility.yul\":18179:18189   */\n      swap1\n      pop\n        /* \"#utility.yul\":18190:18195   */\n      jump(tag_590)\n        /* \"#utility.yul\":18157:18197   */\n    tag_591:\n        /* \"#utility.yul\":18216:18220   */\n      dup2\n        /* \"#utility.yul\":18206:18242   */\n      tag_592\n      jumpi\n        /* \"#utility.yul\":18233:18234   */\n      0x00\n        /* \"#utility.yul\":18224:18234   */\n      swap1\n      pop\n        /* \"#utility.yul\":18235:18240   */\n      jump(tag_590)\n        /* \"#utility.yul\":18206:18242   */\n    tag_592:\n        /* \"#utility.yul\":18302:18306   */\n      dup2\n        /* \"#utility.yul\":18350:18351   */\n      0x01\n        /* \"#utility.yul\":18345:18372   */\n      dup2\n      eq\n      tag_594\n      jumpi\n        /* \"#utility.yul\":18386:18387   */\n      0x02\n        /* \"#utility.yul\":18381:18572   */\n      dup2\n      eq\n      tag_595\n      jumpi\n        /* \"#utility.yul\":18295:18572   */\n      jump(tag_593)\n        /* \"#utility.yul\":18345:18372   */\n    tag_594:\n        /* \"#utility.yul\":18363:18364   */\n      0x01\n        /* \"#utility.yul\":18354:18364   */\n      swap2\n      pop\n        /* \"#utility.yul\":18365:18370   */\n      pop\n      jump(tag_590)\n        /* \"#utility.yul\":18381:18572   */\n    tag_595:\n        /* \"#utility.yul\":18426:18429   */\n      0xff\n        /* \"#utility.yul\":18416:18424   */\n      dup5\n        /* \"#utility.yul\":18413:18430   */\n      gt\n        /* \"#utility.yul\":18410:18453   */\n      iszero\n      tag_596\n      jumpi\n        /* \"#utility.yul\":18433:18451   */\n      tag_597\n      tag_387\n      jump\t// in\n    tag_597:\n        /* \"#utility.yul\":18410:18453   */\n    tag_596:\n        /* \"#utility.yul\":18482:18490   */\n      dup4\n        /* \"#utility.yul\":18479:18480   */\n      0x02\n        /* \"#utility.yul\":18475:18491   */\n      exp\n        /* \"#utility.yul\":18466:18491   */\n      swap2\n      pop\n        /* \"#utility.yul\":18517:18520   */\n      dup5\n        /* \"#utility.yul\":18510:18515   */\n      dup3\n        /* \"#utility.yul\":18507:18521   */\n      gt\n        /* \"#utility.yul\":18504:18544   */\n      iszero\n      tag_598\n      jumpi\n        /* \"#utility.yul\":18524:18542   */\n      tag_599\n      tag_387\n      jump\t// in\n    tag_599:\n        /* \"#utility.yul\":18504:18544   */\n    tag_598:\n        /* \"#utility.yul\":18557:18562   */\n      pop\n      jump(tag_590)\n        /* \"#utility.yul\":18295:18572   */\n    tag_593:\n      pop\n        /* \"#utility.yul\":18681:18683   */\n      0x20\n        /* \"#utility.yul\":18671:18679   */\n      dup4\n        /* \"#utility.yul\":18668:18684   */\n      lt\n        /* \"#utility.yul\":18662:18665   */\n      0x0133\n        /* \"#utility.yul\":18656:18660   */\n      dup4\n        /* \"#utility.yul\":18653:18666   */\n      lt\n        /* \"#utility.yul\":18649:18685   */\n      and\n        /* \"#utility.yul\":18631:18633   */\n      0x4e\n        /* \"#utility.yul\":18621:18629   */\n      dup5\n        /* \"#utility.yul\":18618:18634   */\n      lt\n        /* \"#utility.yul\":18613:18615   */\n      0x0b\n        /* \"#utility.yul\":18607:18611   */\n      dup5\n        /* \"#utility.yul\":18604:18616   */\n      lt\n        /* \"#utility.yul\":18600:18635   */\n      and\n        /* \"#utility.yul\":18584:18695   */\n      or\n        /* \"#utility.yul\":18581:18827   */\n      iszero\n      tag_600\n      jumpi\n        /* \"#utility.yul\":18737:18745   */\n      dup3\n        /* \"#utility.yul\":18731:18735   */\n      dup3\n        /* \"#utility.yul\":18727:18746   */\n      exp\n        /* \"#utility.yul\":18718:18746   */\n      swap1\n      pop\n        /* \"#utility.yul\":18772:18775   */\n      dup4\n        /* \"#utility.yul\":18765:18770   */\n      dup2\n        /* \"#utility.yul\":18762:18776   */\n      gt\n        /* \"#utility.yul\":18759:18799   */\n      iszero\n      tag_601\n      jumpi\n        /* \"#utility.yul\":18779:18797   */\n      tag_602\n      tag_387\n      jump\t// in\n    tag_602:\n        /* \"#utility.yul\":18759:18799   */\n    tag_601:\n        /* \"#utility.yul\":18812:18817   */\n      jump(tag_590)\n        /* \"#utility.yul\":18581:18827   */\n    tag_600:\n        /* \"#utility.yul\":18852:18894   */\n      tag_603\n        /* \"#utility.yul\":18890:18893   */\n      dup5\n        /* \"#utility.yul\":18880:18888   */\n      dup5\n        /* \"#utility.yul\":18874:18878   */\n      dup5\n        /* \"#utility.yul\":18871:18872   */\n      0x01\n        /* \"#utility.yul\":18852:18894   */\n      tag_411\n      jump\t// in\n    tag_603:\n        /* \"#utility.yul\":18837:18894   */\n      swap3\n      pop\n      swap1\n      pop\n        /* \"#utility.yul\":18926:18930   */\n      dup2\n        /* \"#utility.yul\":18921:18924   */\n      dup5\n        /* \"#utility.yul\":18917:18931   */\n      div\n        /* \"#utility.yul\":18910:18915   */\n      dup2\n        /* \"#utility.yul\":18907:18932   */\n      gt\n        /* \"#utility.yul\":18904:18955   */\n      iszero\n      tag_604\n      jumpi\n        /* \"#utility.yul\":18935:18953   */\n      tag_605\n      tag_387\n      jump\t// in\n    tag_605:\n        /* \"#utility.yul\":18904:18955   */\n    tag_604:\n        /* \"#utility.yul\":18984:18988   */\n      dup2\n        /* \"#utility.yul\":18977:18982   */\n      dup2\n        /* \"#utility.yul\":18973:18989   */\n      mul\n        /* \"#utility.yul\":18964:18989   */\n      swap1\n      pop\n        /* \"#utility.yul\":17922:18995   */\n    tag_590:\n      swap4\n      swap3\n      pop\n      pop\n      pop\n      jump\t// out\n        /* \"#utility.yul\":19001:19286   */\n    tag_319:\n        /* \"#utility.yul\":19061:19066   */\n      0x00\n        /* \"#utility.yul\":19085:19108   */\n      tag_607\n        /* \"#utility.yul\":19103:19107   */\n      dup3\n        /* \"#utility.yul\":19085:19108   */\n      tag_367\n      jump\t// in\n    tag_607:\n        /* \"#utility.yul\":19077:19108   */\n      swap2\n      pop\n        /* \"#utility.yul\":19129:19156   */\n      tag_608\n        /* \"#utility.yul\":19147:19155   */\n      dup4\n        /* \"#utility.yul\":19129:19156   */\n      tag_367\n      jump\t// in\n    tag_608:\n        /* \"#utility.yul\":19117:19156   */\n      swap3\n      pop\n        /* \"#utility.yul\":19175:19279   */\n      tag_609\n        /* \"#utility.yul\":19212:19278   */\n      0xffffffffffffffffffffffffffffffffffffffffffffffffffffffffffffffff\n        /* \"#utility.yul\":19202:19210   */\n      dup5\n        /* \"#utility.yul\":19196:19200   */\n      dup5\n        /* \"#utility.yul\":19175:19279   */\n      tag_412\n      jump\t// in\n    tag_609:\n        /* \"#utility.yul\":19166:19279   */\n      swap1\n      pop\n        /* \"#utility.yul\":19001:19286   */\n      swap3\n      swap2\n      pop\n      pop\n      jump\t// out\n        /* \"#utility.yul\":19292:19464   */\n    tag_413:\n        /* \"#utility.yul\":19432:19456   */\n      0x616d6f756e7430206f7220616d6f756e7431203d203000000000000000000000\n        /* \"#utility.yul\":19428:19429   */\n      0x00\n        /* \"#utility.yul\":19420:19426   */\n      dup3\n        /* \"#utility.yul\":19416:19430   */\n      add\n        /* \"#utility.yul\":19409:19457   */\n      mstore\n        /* \"#utility.yul\":19292:19464   */\n      pop\n      jump\t// out\n        /* \"#utility.yul\":19470:19836   */\n    tag_414:\n        /* \"#utility.yul\":19612:19615   */\n      0x00\n        /* \"#utility.yul\":19633:19700   */\n      tag_612\n        /* \"#utility.yul\":19697:19699   */\n      0x16\n        /* \"#utility.yul\":19692:19695   */\n      dup4\n        /* \"#utility.yul\":19633:19700   */\n      tag_388\n      jump\t// in\n    tag_612:\n        /* \"#utility.yul\":19626:19700   */\n      swap2\n      pop\n        /* \"#utility.yul\":19709:19802   */\n      tag_613\n        /* \"#utility.yul\":19798:19801   */\n      dup3\n        /* \"#utility.yul\":19709:19802   */\n      tag_413\n      jump\t// in\n    tag_613:\n        /* \"#utility.yul\":19827:19829   */\n      0x20\n        /* \"#utility.yul\":19822:19825   */\n      dup3\n        /* \"#utility.yul\":19818:19830   */\n      add\n        /* \"#utility.yul\":19811:19830   */\n      swap1\n      pop\n        /* \"#utility.yul\":19470:19836   */\n      swap2\n      swap1\n      pop\n      jump\t// out\n        /* \"#utility.yul\":19842:20261   */\n    tag_348:\n        /* \"#utility.yul\":20008:20012   */\n      0x00\n        /* \"#utility.yul\":20046:20048   */\n      0x20\n        /* \"#utility.yul\":20035:20044   */\n      dup3\n        /* \"#utility.yul\":20031:20049   */\n      add\n        /* \"#utility.yul\":20023:20049   */\n      swap1\n      pop\n        /* \"#utility.yul\":20095:20104   */\n      dup2\n        /* \"#utility.yul\":20089:20093   */\n      dup2\n        /* \"#utility.yul\":20085:20105   */\n      sub\n        /* \"#utility.yul\":20081:20082   */\n      0x00\n        /* \"#utility.yul\":20070:20079   */\n      dup4\n        /* \"#utility.yul\":20066:20083   */\n      add\n        /* \"#utility.yul\":20059:20106   */\n      mstore\n        /* \"#utility.yul\":20123:20254   */\n      tag_615\n        /* \"#utility.yul\":20249:20253   */\n      dup2\n        /* \"#utility.yul\":20123:20254   */\n      tag_414\n      jump\t// in\n    tag_615:\n        /* \"#utility.yul\":20115:20254   */\n      swap1\n      pop\n        /* \"#utility.yul\":19842:20261   */\n      swap2\n      swap1\n      pop\n      jump\t// out\n\n    auxdata: 0xa26469706673582212206ac14c380b46adf6dbc81a79681256c2ddedcbed4a11109e23d4938011aadff864736f6c63430008120033\n}\n",
				"bytecode": {
					"linkReferences": {},
					"object": "60a06040523480156200001157600080fd5b506040516200279f3803806200279f83398181016040528101906200003791906200011c565b336000806101000a81548173ffffffffffffffffffffffffffffffffffffffff021916908373ffffffffffffffffffffffffffffffffffffffff1602179055508073ffffffffffffffffffffffffffffffffffffffff1660808173ffffffffffffffffffffffffffffffffffffffff1681525050506200014e565b600080fd5b600073ffffffffffffffffffffffffffffffffffffffff82169050919050565b6000620000e482620000b7565b9050919050565b620000f681620000d7565b81146200010257600080fd5b50565b6000815190506200011681620000eb565b92915050565b600060208284031215620001355762000134620000b2565b5b6000620001458482850162000105565b91505092915050565b6080516125da620001c56000396000818161054401528181610716015281816109fc01528181610a9f01528181610c7101528181610d5d01528181610f5b01528181610ffe0152818161139d0152818161148901528181611626015281816116a00152818161191f0152611a0f01526125da6000f3fe60806040526004361061011f5760003560e01c806394b918de116100a0578063dc2d845b11610064578063dc2d845b14610427578063dccc5fea14610464578063f5eb42dc146104a1578063fc0c546a146104de578063fcc2ba08146105095761011f565b806394b918de146103255780639c8f9f2314610355578063a201ccf614610393578063a607a8d9146103d1578063a734f06e146103fc5761011f565b806362279b65116100e757806362279b65146102125780636cae4f84146102425780636fb84b741461026d57806370a08231146102aa5780637a6a5e1b146102e75761011f565b806318160ddd14610124578063443cb4bc1461014f57806351c6590a1461017a57806356c1d7eb146101aa5780635a76f25e146101e7575b600080fd5b34801561013057600080fd5b50610139610534565b6040516101469190611b3f565b60405180910390f35b34801561015b57600080fd5b5061016461053a565b6040516101719190611b3f565b60405180910390f35b610194600480360381019061018f9190611b8b565b610540565b6040516101a19190611b3f565b60405180910390f35b3480156101b657600080fd5b506101d160048036038101906101cc9190611b8b565b6107b9565b6040516101de9190611b3f565b60405180910390f35b3480156101f357600080fd5b506101fc610866565b6040516102099190611b3f565b60405180910390f35b61022c60048036038101906102279190611bb8565b61086c565b6040516102399190611b3f565b60405180910390f35b34801561024e57600080fd5b50610257610b45565b6040516102649190611b3f565b60405180910390f35b34801561027957600080fd5b50610294600480360381019061028f9190611b8b565b610b8c565b6040516102a19190611b3f565b60405180910390f35b3480156102b657600080fd5b506102d160048036038101906102cc9190611c69565b610e01565b6040516102de9190611b3f565b60405180910390f35b3480156102f357600080fd5b5061030e60048036038101906103099190611c69565b610e19565b60405161031c929190611c96565b60405180910390f35b61033f600480360381019061033a9190611b8b565b610e6e565b60405161034c9190611b3f565b60405180910390f35b34801561036157600080fd5b5061037c60048036038101906103779190611b8b565b6110a2565b60405161038a929190611c96565b60405180910390f35b34801561039f57600080fd5b506103ba60048036038101906103b59190611cbf565b61113a565b6040516103c8929190611c96565b60405180910390f35b3480156103dd57600080fd5b506103e66111d4565b6040516103f39190611b3f565b60405180910390f35b34801561040857600080fd5b50610411611250565b60405161041e9190611d0e565b60405180910390f35b34801561043357600080fd5b5061044e60048036038101906104499190611bb8565b611255565b60405161045b9190611b3f565b60405180910390f35b34801561047057600080fd5b5061048b60048036038101906104869190611b8b565b61152e565b6040516104989190611b3f565b60405180910390f35b3480156104ad57600080fd5b506104c860048036038101906104c39190611c69565b6115db565b6040516104d59190611b3f565b60405180910390f35b3480156104ea57600080fd5b506104f3611624565b6040516105009190611d88565b60405180910390f35b34801561051557600080fd5b5061051e611648565b60405161052b9190611b3f565b60405180910390f35b60035481565b60015481565b60007f000000000000000000000000000000000000000000000000000000000000000073ffffffffffffffffffffffffffffffffffffffff166323b872dd3330856040518463ffffffff1660e01b815260040161059f93929190611da3565b6020604051808303816000875af11580156105be573d6000803e3d6000fd5b505050506040513d601f19601f820116820180604052508101906105e29190611e12565b506000349050600060015411806105fb57506000600254115b1561065d578060025461060e9190611e6e565b8360015461061c9190611e6e565b1461065c576040517f08c379a000000000000000000000000000000000000000000000000000000000815260040161065390611f0d565b60405180910390fd5b5b6000600354036106825761067b83826106769190611e6e565b61175f565b91506106c3565b6106c0600154600354836106969190611e6e565b6106a09190611f5c565b600254600354866106b19190611e6e565b6106bb9190611f5c565b6117d9565b91505b60008211610706576040517f08c379a00000000000000000000000000000000000000000000000000000000081526004016106fd90611fd9565b60405180910390fd5b61071033836117f2565b6107b3477f000000000000000000000000000000000000000000000000000000000000000073ffffffffffffffffffffffffffffffffffffffff166370a08231306040518263ffffffff1660e01b815260040161076d9190611d0e565b602060405180830381865afa15801561078a573d6000803e3d6000fd5b505050506040513d601f19601f820116820180604052508101906107ae919061200e565b611865565b50919050565b6000806001541180156107ce57506000600254115b80156107da5750600082115b610819576040517f08c379a000000000000000000000000000000000000000000000000000000000815260040161081090612087565b60405180910390fd5b60006103e86103e58461082c9190611e6e565b6108369190611f5c565b90508060015461084691906120a7565b816002546108549190611e6e565b61085e9190611f5c565b915050919050565b60025481565b60008334146108b0576040517f08c379a00000000000000000000000000000000000000000000000000000000081526004016108a790612127565b60405180910390fd5b60006103e86103e5866108c39190611e6e565b6108cd9190611f5c565b9050806001546108dd91906120a7565b816002546108eb9190611e6e565b6108f59190611f5c565b91506000821161093a576040517f08c379a000000000000000000000000000000000000000000000000000000000815260040161093190612193565b60405180910390fd5b6103e8836103e861094b91906121b3565b856109569190611e6e565b6109609190611f5c565b8210156109a2576040517f08c379a000000000000000000000000000000000000000000000000000000000815260040161099990612233565b60405180910390fd5b6000600154600354600185896109b891906121b3565b901c6109c49190611e6e565b6109ce9190611f5c565b90506109fa60008054906101000a900473ffffffffffffffffffffffffffffffffffffffff16826117f2565b7f000000000000000000000000000000000000000000000000000000000000000073ffffffffffffffffffffffffffffffffffffffff1663a9059cbb33856040518363ffffffff1660e01b8152600401610a55929190612253565b6020604051808303816000875af1158015610a74573d6000803e3d6000fd5b505050506040513d601f19601f82011682018060405250810190610a989190611e12565b50610b3c477f000000000000000000000000000000000000000000000000000000000000000073ffffffffffffffffffffffffffffffffffffffff166370a08231306040518263ffffffff1660e01b8152600401610af69190611d0e565b602060405180830381865afa158015610b13573d6000803e3d6000fd5b505050506040513d601f19601f82011682018060405250810190610b37919061200e565b611865565b50509392505050565b6000600460003373ffffffffffffffffffffffffffffffffffffffff1673ffffffffffffffffffffffffffffffffffffffff16815260200190815260200160002054905090565b6000806103e86103e584610ba09190611e6e565b610baa9190611f5c565b905080600254610bba91906120a7565b81600154610bc89190611e6e565b610bd29190611f5c565b915060008211610c17576040517f08c379a0000000000000000000000000000000000000000000000000000000008152600401610c0e90612193565b60405180910390fd5b600060025460035460018587610c2d91906121b3565b901c610c399190611e6e565b610c439190611f5c565b9050610c6f60008054906101000a900473ffffffffffffffffffffffffffffffffffffffff16826117f2565b7f000000000000000000000000000000000000000000000000000000000000000073ffffffffffffffffffffffffffffffffffffffff166323b872dd3330876040518463ffffffff1660e01b8152600401610ccc93929190611da3565b6020604051808303816000875af1158015610ceb573d6000803e3d6000fd5b505050506040513d601f19601f82011682018060405250810190610d0f9190611e12565b503373ffffffffffffffffffffffffffffffffffffffff166108fc849081150290604051600060405180830381858888f19350505050158015610d56573d6000803e3d6000fd5b50610dfa477f000000000000000000000000000000000000000000000000000000000000000073ffffffffffffffffffffffffffffffffffffffff166370a08231306040518263ffffffff1660e01b8152600401610db49190611d0e565b602060405180830381865afa158015610dd1573d6000803e3d6000fd5b505050506040513d601f19601f82011682018060405250810190610df5919061200e565b611865565b5050919050565b60046020528060005260406000206000915090505481565b600080610e6583600460008673ffffffffffffffffffffffffffffffffffffffff1673ffffffffffffffffffffffffffffffffffffffff16815260200190815260200160002054611877565b91509150915091565b6000813414610eb2576040517f08c379a0000000000000000000000000000000000000000000000000000000008152600401610ea990612127565b60405180910390fd5b60006103e86103e584610ec59190611e6e565b610ecf9190611f5c565b905080600154610edf91906120a7565b81600254610eed9190611e6e565b610ef79190611f5c565b915060006002600154610f0a9190611e6e565b6003548486610f1991906121b3565b610f239190611e6e565b610f2d9190611f5c565b9050610f5960008054906101000a900473ffffffffffffffffffffffffffffffffffffffff16826117f2565b7f000000000000000000000000000000000000000000000000000000000000000073ffffffffffffffffffffffffffffffffffffffff1663a9059cbb33856040518363ffffffff1660e01b8152600401610fb4929190612253565b6020604051808303816000875af1158015610fd3573d6000803e3d6000fd5b505050506040513d601f19601f82011682018060405250810190610ff79190611e12565b5061109b477f000000000000000000000000000000000000000000000000000000000000000073ffffffffffffffffffffffffffffffffffffffff166370a08231306040518263ffffffff1660e01b81526004016110559190611d0e565b602060405180830381865afa158015611072573d6000803e3d6000fd5b505050506040513d601f19601f82011682018060405250810190611096919061200e565b611865565b5050919050565b600080600460003373ffffffffffffffffffffffffffffffffffffffff1673ffffffffffffffffffffffffffffffffffffffff16815260200190815260200160002054831115611127576040517f08c379a000000000000000000000000000000000000000000000000000000000815260040161111e906122c8565b60405180910390fd5b6111313384611877565b91509150915091565b600080600460008573ffffffffffffffffffffffffffffffffffffffff1673ffffffffffffffffffffffffffffffffffffffff168152602001908152602001600020548311156111bf576040517f08c379a00000000000000000000000000000000000000000000000000000000081526004016111b6906122c8565b60405180910390fd5b6111c98484611877565b915091509250929050565b6000806001541180156111e957506000600254115b611228576040517f08c379a000000000000000000000000000000000000000000000000000000000815260040161121f90612334565b60405180910390fd5b600154670de0b6b3a76400006002546112419190611e6e565b61124b9190611f5c565b905090565b600081565b6000806103e86103e5866112699190611e6e565b6112739190611f5c565b90508060025461128391906120a7565b816001546112919190611e6e565b61129b9190611f5c565b9150600082116112e0576040517f08c379a00000000000000000000000000000000000000000000000000000000081526004016112d790612193565b60405180910390fd5b6103e8836103e86112f191906121b3565b856112fc9190611e6e565b6113069190611f5c565b821015611348576040517f08c379a000000000000000000000000000000000000000000000000000000000815260040161133f90612233565b60405180910390fd5b61139b60008054906101000a900473ffffffffffffffffffffffffffffffffffffffff166002546003546001868a61138091906121b3565b901c61138c9190611e6e565b6113969190611f5c565b6117f2565b7f000000000000000000000000000000000000000000000000000000000000000073ffffffffffffffffffffffffffffffffffffffff166323b872dd3330886040518463ffffffff1660e01b81526004016113f893929190611da3565b6020604051808303816000875af1158015611417573d6000803e3d6000fd5b505050506040513d601f19601f8201168201806040525081019061143b9190611e12565b503373ffffffffffffffffffffffffffffffffffffffff166108fc839081150290604051600060405180830381858888f19350505050158015611482573d6000803e3d6000fd5b50611526477f000000000000000000000000000000000000000000000000000000000000000073ffffffffffffffffffffffffffffffffffffffff166370a08231306040518263ffffffff1660e01b81526004016114e09190611d0e565b602060405180830381865afa1580156114fd573d6000803e3d6000fd5b505050506040513d601f19601f82011682018060405250810190611521919061200e565b611865565b509392505050565b60008060015411801561154357506000600254115b801561154f5750600082115b61158e576040517f08c379a000000000000000000000000000000000000000000000000000000000815260040161158590612334565b60405180910390fd5b60006103e86103e5846115a19190611e6e565b6115ab9190611f5c565b9050806002546115bb91906120a7565b816001546115c99190611e6e565b6115d39190611f5c565b915050919050565b6000600460008373ffffffffffffffffffffffffffffffffffffffff1673ffffffffffffffffffffffffffffffffffffffff168152602001908152602001600020549050919050565b7f000000000000000000000000000000000000000000000000000000000000000081565b60008060015411801561165d57506000600254115b61169c576040517f08c379a000000000000000000000000000000000000000000000000000000000815260040161169390612087565b60405180910390fd5b60007f000000000000000000000000000000000000000000000000000000000000000073ffffffffffffffffffffffffffffffffffffffff1663313ce5676040518163ffffffff1660e01b8152600401602060405180830381865afa158015611709573d6000803e3d6000fd5b505050506040513d601f19601f8201168201806040525081019061172d919061238d565b60ff16905060025481600a61174291906124ed565b60015461174f9190611e6e565b6117599190611f5c565b91505090565b600060038211156117c6578190506000600160028461177e9190611f5c565b61178891906120a7565b90505b818110156117c05780915060028182856117a59190611f5c565b6117af91906120a7565b6117b99190611f5c565b905061178b565b506117d4565b600082146117d357600190505b5b919050565b60008183106117e857816117ea565b825b905092915050565b80600460008473ffffffffffffffffffffffffffffffffffffffff1673ffffffffffffffffffffffffffffffffffffffff168152602001908152602001600020600082825461184191906120a7565b92505081905550806003600082825461185a91906120a7565b925050819055505050565b81600181905550806002819055505050565b6000806003546001548461188b9190611e6e565b6118959190611f5c565b9150600354600254846118a89190611e6e565b6118b29190611f5c565b90506000821180156118c45750600081115b611903576040517f08c379a00000000000000000000000000000000000000000000000000000000081526004016118fa90612584565b60405180910390fd5b61190d8484611ab3565b6119c6824761191c91906121b3565b827f000000000000000000000000000000000000000000000000000000000000000073ffffffffffffffffffffffffffffffffffffffff166370a08231306040518263ffffffff1660e01b81526004016119769190611d0e565b602060405180830381865afa158015611993573d6000803e3d6000fd5b505050506040513d601f19601f820116820180604052508101906119b7919061200e565b6119c191906121b3565b611865565b8373ffffffffffffffffffffffffffffffffffffffff166108fc839081150290604051600060405180830381858888f19350505050158015611a0c573d6000803e3d6000fd5b507f000000000000000000000000000000000000000000000000000000000000000073ffffffffffffffffffffffffffffffffffffffff1663a9059cbb85836040518363ffffffff1660e01b8152600401611a68929190612253565b6020604051808303816000875af1158015611a87573d6000803e3d6000fd5b505050506040513d601f19601f82011682018060405250810190611aab9190611e12565b509250929050565b80600460008473ffffffffffffffffffffffffffffffffffffffff1673ffffffffffffffffffffffffffffffffffffffff1681526020019081526020016000206000828254611b0291906121b3565b925050819055508060036000828254611b1b91906121b3565b925050819055505050565b6000819050919050565b611b3981611b26565b82525050565b6000602082019050611b546000830184611b30565b92915050565b600080fd5b611b6881611b26565b8114611b7357600080fd5b50565b600081359050611b8581611b5f565b92915050565b600060208284031215611ba157611ba0611b5a565b5b6000611baf84828501611b76565b91505092915050565b600080600060608486031215611bd157611bd0611b5a565b5b6000611bdf86828701611b76565b9350506020611bf086828701611b76565b9250506040611c0186828701611b76565b9150509250925092565b600073ffffffffffffffffffffffffffffffffffffffff82169050919050565b6000611c3682611c0b565b9050919050565b611c4681611c2b565b8114611c5157600080fd5b50565b600081359050611c6381611c3d565b92915050565b600060208284031215611c7f57611c7e611b5a565b5b6000611c8d84828501611c54565b91505092915050565b6000604082019050611cab6000830185611b30565b611cb86020830184611b30565b9392505050565b60008060408385031215611cd657611cd5611b5a565b5b6000611ce485828601611c54565b9250506020611cf585828601611b76565b9150509250929050565b611d0881611c2b565b82525050565b6000602082019050611d236000830184611cff565b92915050565b6000819050919050565b6000611d4e611d49611d4484611c0b565b611d29565b611c0b565b9050919050565b6000611d6082611d33565b9050919050565b6000611d7282611d55565b9050919050565b611d8281611d67565b82525050565b6000602082019050611d9d6000830184611d79565b92915050565b6000606082019050611db86000830186611cff565b611dc56020830185611cff565b611dd26040830184611b30565b949350505050565b60008115159050919050565b611def81611dda565b8114611dfa57600080fd5b50565b600081519050611e0c81611de6565b92915050565b600060208284031215611e2857611e27611b5a565b5b6000611e3684828501611dfd565b91505092915050565b7f4e487b7100000000000000000000000000000000000000000000000000000000600052601160045260246000fd5b6000611e7982611b26565b9150611e8483611b26565b9250828202611e9281611b26565b91508282048414831517611ea957611ea8611e3f565b5b5092915050565b600082825260208201905092915050565b7f78202f207920213d206478202f20647900000000000000000000000000000000600082015250565b6000611ef7601083611eb0565b9150611f0282611ec1565b602082019050919050565b60006020820190508181036000830152611f2681611eea565b9050919050565b7f4e487b7100000000000000000000000000000000000000000000000000000000600052601260045260246000fd5b6000611f6782611b26565b9150611f7283611b26565b925082611f8257611f81611f2d565b5b828204905092915050565b7f736861726573203d203000000000000000000000000000000000000000000000600082015250565b6000611fc3600a83611eb0565b9150611fce82611f8d565b602082019050919050565b60006020820190508181036000830152611ff281611fb6565b9050919050565b60008151905061200881611b5f565b92915050565b60006020828403121561202457612023611b5a565b5b600061203284828501611ff9565b91505092915050565b7f496e76616c696420455243323020726573657276657300000000000000000000600082015250565b6000612071601683611eb0565b915061207c8261203b565b602082019050919050565b600060208201905081810360008301526120a081612064565b9050919050565b60006120b282611b26565b91506120bd83611b26565b92508282019050808211156120d5576120d4611e3f565b5b92915050565b7f45544820616d6f756e74206d69736d6174636800000000000000000000000000600082015250565b6000612111601383611eb0565b915061211c826120db565b602082019050919050565b6000602082019050818103600083015261214081612104565b9050919050565b7f496e73756666696369656e74206f757470757420616d6f756e74000000000000600082015250565b600061217d601a83611eb0565b915061218882612147565b602082019050919050565b600060208201905081810360008301526121ac81612170565b9050919050565b60006121be82611b26565b91506121c983611b26565b92508282039050818111156121e1576121e0611e3f565b5b92915050565b7f536c69704c6f636b000000000000000000000000000000000000000000000000600082015250565b600061221d600883611eb0565b9150612228826121e7565b602082019050919050565b6000602082019050818103600083015261224c81612210565b9050919050565b60006040820190506122686000830185611cff565b6122756020830184611b30565b9392505050565b7f496e73756666696369656e742062616c616e6365000000000000000000000000600082015250565b60006122b2601483611eb0565b91506122bd8261227c565b602082019050919050565b600060208201905081810360008301526122e1816122a5565b9050919050565b7f496e76616c696420455448207265736572766573000000000000000000000000600082015250565b600061231e601483611eb0565b9150612329826122e8565b602082019050919050565b6000602082019050818103600083015261234d81612311565b9050919050565b600060ff82169050919050565b61236a81612354565b811461237557600080fd5b50565b60008151905061238781612361565b92915050565b6000602082840312156123a3576123a2611b5a565b5b60006123b184828501612378565b91505092915050565b60008160011c9050919050565b6000808291508390505b6001851115612411578086048111156123ed576123ec611e3f565b5b60018516156123fc5780820291505b808102905061240a856123ba565b94506123d1565b94509492505050565b60008261242a57600190506124e6565b8161243857600090506124e6565b816001811461244e576002811461245857612487565b60019150506124e6565b60ff84111561246a57612469611e3f565b5b8360020a91508482111561248157612480611e3f565b5b506124e6565b5060208310610133831016604e8410600b84101617156124bc5782820a9050838111156124b7576124b6611e3f565b5b6124e6565b6124c984848460016123c7565b925090508184048111156124e0576124df611e3f565b5b81810290505b9392505050565b60006124f882611b26565b915061250383611b26565b92506125307fffffffffffffffffffffffffffffffffffffffffffffffffffffffffffffffff848461241a565b905092915050565b7f616d6f756e7430206f7220616d6f756e7431203d203000000000000000000000600082015250565b600061256e601683611eb0565b915061257982612538565b602082019050919050565b6000602082019050818103600083015261259d81612561565b905091905056fea26469706673582212206ac14c380b46adf6dbc81a79681256c2ddedcbed4a11109e23d4938011aadff864736f6c63430008120033",
					"opcodes": "PUSH1 0xA0 PUSH1 0x40 MSTORE CALLVALUE DUP1 ISZERO PUSH3 0x11 JUMPI PUSH1 0x0 DUP1 REVERT JUMPDEST POP PUSH1 0x40 MLOAD PUSH3 0x279F CODESIZE SUB DUP1 PUSH3 0x279F DUP4 CODECOPY DUP2 DUP2 ADD PUSH1 0x40 MSTORE DUP2 ADD SWAP1 PUSH3 0x37 SWAP2 SWAP1 PUSH3 0x11C JUMP JUMPDEST CALLER PUSH1 0x0 DUP1 PUSH2 0x100 EXP DUP2 SLOAD DUP2 PUSH20 0xFFFFFFFFFFFFFFFFFFFFFFFFFFFFFFFFFFFFFFFF MUL NOT AND SWAP1 DUP4 PUSH20 0xFFFFFFFFFFFFFFFFFFFFFFFFFFFFFFFFFFFFFFFF AND MUL OR SWAP1 SSTORE POP DUP1 PUSH20 0xFFFFFFFFFFFFFFFFFFFFFFFFFFFFFFFFFFFFFFFF AND PUSH1 0x80 DUP2 PUSH20 0xFFFFFFFFFFFFFFFFFFFFFFFFFFFFFFFFFFFFFFFF AND DUP2 MSTORE POP POP POP PUSH3 0x14E JUMP JUMPDEST PUSH1 0x0 DUP1 REVERT JUMPDEST PUSH1 0x0 PUSH20 0xFFFFFFFFFFFFFFFFFFFFFFFFFFFFFFFFFFFFFFFF DUP3 AND SWAP1 POP SWAP2 SWAP1 POP JUMP JUMPDEST PUSH1 0x0 PUSH3 0xE4 DUP3 PUSH3 0xB7 JUMP JUMPDEST SWAP1 POP SWAP2 SWAP1 POP JUMP JUMPDEST PUSH3 0xF6 DUP2 PUSH3 0xD7 JUMP JUMPDEST DUP2 EQ PUSH3 0x102 JUMPI PUSH1 0x0 DUP1 REVERT JUMPDEST POP JUMP JUMPDEST PUSH1 0x0 DUP2 MLOAD SWAP1 POP PUSH3 0x116 DUP2 PUSH3 0xEB JUMP JUMPDEST SWAP3 SWAP2 POP POP JUMP JUMPDEST PUSH1 0x0 PUSH1 0x20 DUP3 DUP5 SUB SLT ISZERO PUSH3 0x135 JUMPI PUSH3 0x134 PUSH3 0xB2 JUMP JUMPDEST JUMPDEST PUSH1 0x0 PUSH3 0x145 DUP5 DUP3 DUP6 ADD PUSH3 0x105 JUMP JUMPDEST SWAP2 POP POP SWAP3 SWAP2 POP POP JUMP JUMPDEST PUSH1 0x80 MLOAD PUSH2 0x25DA PUSH3 0x1C5 PUSH1 0x0 CODECOPY PUSH1 0x0 DUP2 DUP2 PUSH2 0x544 ADD MSTORE DUP2 DUP2 PUSH2 0x716 ADD MSTORE DUP2 DUP2 PUSH2 0x9FC ADD MSTORE DUP2 DUP2 PUSH2 0xA9F ADD MSTORE DUP2 DUP2 PUSH2 0xC71 ADD MSTORE DUP2 DUP2 PUSH2 0xD5D ADD MSTORE DUP2 DUP2 PUSH2 0xF5B ADD MSTORE DUP2 DUP2 PUSH2 0xFFE ADD MSTORE DUP2 DUP2 PUSH2 0x139D ADD MSTORE DUP2 DUP2 PUSH2 0x1489 ADD MSTORE DUP2 DUP2 PUSH2 0x1626 ADD MSTORE DUP2 DUP2 PUSH2 0x16A0 ADD MSTORE DUP2 DUP2 PUSH2 0x191F ADD MSTORE PUSH2 0x1A0F ADD MSTORE PUSH2 0x25DA PUSH1 0x0 RETURN INVALID PUSH1 0x80 PUSH1 0x40 MSTORE PUSH1 0x4 CALLDATASIZE LT PUSH2 0x11F JUMPI PUSH1 0x0 CALLDATALOAD PUSH1 0xE0 SHR DUP1 PUSH4 0x94B918DE GT PUSH2 0xA0 JUMPI DUP1 PUSH4 0xDC2D845B GT PUSH2 0x64 JUMPI DUP1 PUSH4 0xDC2D845B EQ PUSH2 0x427 JUMPI DUP1 PUSH4 0xDCCC5FEA EQ PUSH2 0x464 JUMPI DUP1 PUSH4 0xF5EB42DC EQ PUSH2 0x4A1 JUMPI DUP1 PUSH4 0xFC0C546A EQ PUSH2 0x4DE JUMPI DUP1 PUSH4 0xFCC2BA08 EQ PUSH2 0x509 JUMPI PUSH2 0x11F JUMP JUMPDEST DUP1 PUSH4 0x94B918DE EQ PUSH2 0x325 JUMPI DUP1 PUSH4 0x9C8F9F23 EQ PUSH2 0x355 JUMPI DUP1 PUSH4 0xA201CCF6 EQ PUSH2 0x393 JUMPI DUP1 PUSH4 0xA607A8D9 EQ PUSH2 0x3D1 JUMPI DUP1 PUSH4 0xA734F06E EQ PUSH2 0x3FC JUMPI PUSH2 0x11F JUMP JUMPDEST DUP1 PUSH4 0x62279B65 GT PUSH2 0xE7 JUMPI DUP1 PUSH4 0x62279B65 EQ PUSH2 0x212 JUMPI DUP1 PUSH4 0x6CAE4F84 EQ PUSH2 0x242 JUMPI DUP1 PUSH4 0x6FB84B74 EQ PUSH2 0x26D JUMPI DUP1 PUSH4 0x70A08231 EQ PUSH2 0x2AA JUMPI DUP1 PUSH4 0x7A6A5E1B EQ PUSH2 0x2E7 JUMPI PUSH2 0x11F JUMP JUMPDEST DUP1 PUSH4 0x18160DDD EQ PUSH2 0x124 JUMPI DUP1 PUSH4 0x443CB4BC EQ PUSH2 0x14F JUMPI DUP1 PUSH4 0x51C6590A EQ PUSH2 0x17A JUMPI DUP1 PUSH4 0x56C1D7EB EQ PUSH2 0x1AA JUMPI DUP1 PUSH4 0x5A76F25E EQ PUSH2 0x1E7 JUMPI JUMPDEST PUSH1 0x0 DUP1 REVERT JUMPDEST CALLVALUE DUP1 ISZERO PUSH2 0x130 JUMPI PUSH1 0x0 DUP1 REVERT JUMPDEST POP PUSH2 0x139 PUSH2 0x534 JUMP JUMPDEST PUSH1 0x40 MLOAD PUSH2 0x146 SWAP2 SWAP1 PUSH2 0x1B3F JUMP JUMPDEST PUSH1 0x40 MLOAD DUP1 SWAP2 SUB SWAP1 RETURN JUMPDEST CALLVALUE DUP1 ISZERO PUSH2 0x15B JUMPI PUSH1 0x0 DUP1 REVERT JUMPDEST POP PUSH2 0x164 PUSH2 0x53A JUMP JUMPDEST PUSH1 0x40 MLOAD PUSH2 0x171 SWAP2 SWAP1 PUSH2 0x1B3F JUMP JUMPDEST PUSH1 0x40 MLOAD DUP1 SWAP2 SUB SWAP1 RETURN JUMPDEST PUSH2 0x194 PUSH1 0x4 DUP1 CALLDATASIZE SUB DUP2 ADD SWAP1 PUSH2 0x18F SWAP2 SWAP1 PUSH2 0x1B8B JUMP JUMPDEST PUSH2 0x540 JUMP JUMPDEST PUSH1 0x40 MLOAD PUSH2 0x1A1 SWAP2 SWAP1 PUSH2 0x1B3F JUMP JUMPDEST PUSH1 0x40 MLOAD DUP1 SWAP2 SUB SWAP1 RETURN JUMPDEST CALLVALUE DUP1 ISZERO PUSH2 0x1B6 JUMPI PUSH1 0x0 DUP1 REVERT JUMPDEST POP PUSH2 0x1D1 PUSH1 0x4 DUP1 CALLDATASIZE SUB DUP2 ADD SWAP1 PUSH2 0x1CC SWAP2 SWAP1 PUSH2 0x1B8B JUMP JUMPDEST PUSH2 0x7B9 JUMP JUMPDEST PUSH1 0x40 MLOAD PUSH2 0x1DE SWAP2 SWAP1 PUSH2 0x1B3F JUMP JUMPDEST PUSH1 0x40 MLOAD DUP1 SWAP2 SUB SWAP1 RETURN JUMPDEST CALLVALUE DUP1 ISZERO PUSH2 0x1F3 JUMPI PUSH1 0x0 DUP1 REVERT JUMPDEST POP PUSH2 0x1FC PUSH2 0x866 JUMP JUMPDEST PUSH1 0x40 MLOAD PUSH2 0x209 SWAP2 SWAP1 PUSH2 0x1B3F JUMP JUMPDEST PUSH1 0x40 MLOAD DUP1 SWAP2 SUB SWAP1 RETURN JUMPDEST PUSH2 0x22C PUSH1 0x4 DUP1 CALLDATASIZE SUB DUP2 ADD SWAP1 PUSH2 0x227 SWAP2 SWAP1 PUSH2 0x1BB8 JUMP JUMPDEST PUSH2 0x86C JUMP JUMPDEST PUSH1 0x40 MLOAD PUSH2 0x239 SWAP2 SWAP1 PUSH2 0x1B3F JUMP JUMPDEST PUSH1 0x40 MLOAD DUP1 SWAP2 SUB SWAP1 RETURN JUMPDEST CALLVALUE DUP1 ISZERO PUSH2 0x24E JUMPI PUSH1 0x0 DUP1 REVERT JUMPDEST POP PUSH2 0x257 PUSH2 0xB45 JUMP JUMPDEST PUSH1 0x40 MLOAD PUSH2 0x264 SWAP2 SWAP1 PUSH2 0x1B3F JUMP JUMPDEST PUSH1 0x40 MLOAD DUP1 SWAP2 SUB SWAP1 RETURN JUMPDEST CALLVALUE DUP1 ISZERO PUSH2 0x279 JUMPI PUSH1 0x0 DUP1 REVERT JUMPDEST POP PUSH2 0x294 PUSH1 0x4 DUP1 CALLDATASIZE SUB DUP2 ADD SWAP1 PUSH2 0x28F SWAP2 SWAP1 PUSH2 0x1B8B JUMP JUMPDEST PUSH2 0xB8C JUMP JUMPDEST PUSH1 0x40 MLOAD PUSH2 0x2A1 SWAP2 SWAP1 PUSH2 0x1B3F JUMP JUMPDEST PUSH1 0x40 MLOAD DUP1 SWAP2 SUB SWAP1 RETURN JUMPDEST CALLVALUE DUP1 ISZERO PUSH2 0x2B6 JUMPI PUSH1 0x0 DUP1 REVERT JUMPDEST POP PUSH2 0x2D1 PUSH1 0x4 DUP1 CALLDATASIZE SUB DUP2 ADD SWAP1 PUSH2 0x2CC SWAP2 SWAP1 PUSH2 0x1C69 JUMP JUMPDEST PUSH2 0xE01 JUMP JUMPDEST PUSH1 0x40 MLOAD PUSH2 0x2DE SWAP2 SWAP1 PUSH2 0x1B3F JUMP JUMPDEST PUSH1 0x40 MLOAD DUP1 SWAP2 SUB SWAP1 RETURN JUMPDEST CALLVALUE DUP1 ISZERO PUSH2 0x2F3 JUMPI PUSH1 0x0 DUP1 REVERT JUMPDEST POP PUSH2 0x30E PUSH1 0x4 DUP1 CALLDATASIZE SUB DUP2 ADD SWAP1 PUSH2 0x309 SWAP2 SWAP1 PUSH2 0x1C69 JUMP JUMPDEST PUSH2 0xE19 JUMP JUMPDEST PUSH1 0x40 MLOAD PUSH2 0x31C SWAP3 SWAP2 SWAP1 PUSH2 0x1C96 JUMP JUMPDEST PUSH1 0x40 MLOAD DUP1 SWAP2 SUB SWAP1 RETURN JUMPDEST PUSH2 0x33F PUSH1 0x4 DUP1 CALLDATASIZE SUB DUP2 ADD SWAP1 PUSH2 0x33A SWAP2 SWAP1 PUSH2 0x1B8B JUMP JUMPDEST PUSH2 0xE6E JUMP JUMPDEST PUSH1 0x40 MLOAD PUSH2 0x34C SWAP2 SWAP1 PUSH2 0x1B3F JUMP JUMPDEST PUSH1 0x40 MLOAD DUP1 SWAP2 SUB SWAP1 RETURN JUMPDEST CALLVALUE DUP1 ISZERO PUSH2 0x361 JUMPI PUSH1 0x0 DUP1 REVERT JUMPDEST POP PUSH2 0x37C PUSH1 0x4 DUP1 CALLDATASIZE SUB DUP2 ADD SWAP1 PUSH2 0x377 SWAP2 SWAP1 PUSH2 0x1B8B JUMP JUMPDEST PUSH2 0x10A2 JUMP JUMPDEST PUSH1 0x40 MLOAD PUSH2 0x38A SWAP3 SWAP2 SWAP1 PUSH2 0x1C96 JUMP JUMPDEST PUSH1 0x40 MLOAD DUP1 SWAP2 SUB SWAP1 RETURN JUMPDEST CALLVALUE DUP1 ISZERO PUSH2 0x39F JUMPI PUSH1 0x0 DUP1 REVERT JUMPDEST POP PUSH2 0x3BA PUSH1 0x4 DUP1 CALLDATASIZE SUB DUP2 ADD SWAP1 PUSH2 0x3B5 SWAP2 SWAP1 PUSH2 0x1CBF JUMP JUMPDEST PUSH2 0x113A JUMP JUMPDEST PUSH1 0x40 MLOAD PUSH2 0x3C8 SWAP3 SWAP2 SWAP1 PUSH2 0x1C96 JUMP JUMPDEST PUSH1 0x40 MLOAD DUP1 SWAP2 SUB SWAP1 RETURN JUMPDEST CALLVALUE DUP1 ISZERO PUSH2 0x3DD JUMPI PUSH1 0x0 DUP1 REVERT JUMPDEST POP PUSH2 0x3E6 PUSH2 0x11D4 JUMP JUMPDEST PUSH1 0x40 MLOAD PUSH2 0x3F3 SWAP2 SWAP1 PUSH2 0x1B3F JUMP JUMPDEST PUSH1 0x40 MLOAD DUP1 SWAP2 SUB SWAP1 RETURN JUMPDEST CALLVALUE DUP1 ISZERO PUSH2 0x408 JUMPI PUSH1 0x0 DUP1 REVERT JUMPDEST POP PUSH2 0x411 PUSH2 0x1250 JUMP JUMPDEST PUSH1 0x40 MLOAD PUSH2 0x41E SWAP2 SWAP1 PUSH2 0x1D0E JUMP JUMPDEST PUSH1 0x40 MLOAD DUP1 SWAP2 SUB SWAP1 RETURN JUMPDEST CALLVALUE DUP1 ISZERO PUSH2 0x433 JUMPI PUSH1 0x0 DUP1 REVERT JUMPDEST POP PUSH2 0x44E PUSH1 0x4 DUP1 CALLDATASIZE SUB DUP2 ADD SWAP1 PUSH2 0x449 SWAP2 SWAP1 PUSH2 0x1BB8 JUMP JUMPDEST PUSH2 0x1255 JUMP JUMPDEST PUSH1 0x40 MLOAD PUSH2 0x45B SWAP2 SWAP1 PUSH2 0x1B3F JUMP JUMPDEST PUSH1 0x40 MLOAD DUP1 SWAP2 SUB SWAP1 RETURN JUMPDEST CALLVALUE DUP1 ISZERO PUSH2 0x470 JUMPI PUSH1 0x0 DUP1 REVERT JUMPDEST POP PUSH2 0x48B PUSH1 0x4 DUP1 CALLDATASIZE SUB DUP2 ADD SWAP1 PUSH2 0x486 SWAP2 SWAP1 PUSH2 0x1B8B JUMP JUMPDEST PUSH2 0x152E JUMP JUMPDEST PUSH1 0x40 MLOAD PUSH2 0x498 SWAP2 SWAP1 PUSH2 0x1B3F JUMP JUMPDEST PUSH1 0x40 MLOAD DUP1 SWAP2 SUB SWAP1 RETURN JUMPDEST CALLVALUE DUP1 ISZERO PUSH2 0x4AD JUMPI PUSH1 0x0 DUP1 REVERT JUMPDEST POP PUSH2 0x4C8 PUSH1 0x4 DUP1 CALLDATASIZE SUB DUP2 ADD SWAP1 PUSH2 0x4C3 SWAP2 SWAP1 PUSH2 0x1C69 JUMP JUMPDEST PUSH2 0x15DB JUMP JUMPDEST PUSH1 0x40 MLOAD PUSH2 0x4D5 SWAP2 SWAP1 PUSH2 0x1B3F JUMP JUMPDEST PUSH1 0x40 MLOAD DUP1 SWAP2 SUB SWAP1 RETURN JUMPDEST CALLVALUE DUP1 ISZERO PUSH2 0x4EA JUMPI PUSH1 0x0 DUP1 REVERT JUMPDEST POP PUSH2 0x4F3 PUSH2 0x1624 JUMP JUMPDEST PUSH1 0x40 MLOAD PUSH2 0x500 SWAP2 SWAP1 PUSH2 0x1D88 JUMP JUMPDEST PUSH1 0x40 MLOAD DUP1 SWAP2 SUB SWAP1 RETURN JUMPDEST CALLVALUE DUP1 ISZERO PUSH2 0x515 JUMPI PUSH1 0x0 DUP1 REVERT JUMPDEST POP PUSH2 0x51E PUSH2 0x1648 JUMP JUMPDEST PUSH1 0x40 MLOAD PUSH2 0x52B SWAP2 SWAP1 PUSH2 0x1B3F JUMP JUMPDEST PUSH1 0x40 MLOAD DUP1 SWAP2 SUB SWAP1 RETURN JUMPDEST PUSH1 0x3 SLOAD DUP2 JUMP JUMPDEST PUSH1 0x1 SLOAD DUP2 JUMP JUMPDEST PUSH1 0x0 PUSH32 0x0 PUSH20 0xFFFFFFFFFFFFFFFFFFFFFFFFFFFFFFFFFFFFFFFF AND PUSH4 0x23B872DD CALLER ADDRESS DUP6 PUSH1 0x40 MLOAD DUP5 PUSH4 0xFFFFFFFF AND PUSH1 0xE0 SHL DUP2 MSTORE PUSH1 0x4 ADD PUSH2 0x59F SWAP4 SWAP3 SWAP2 SWAP1 PUSH2 0x1DA3 JUMP JUMPDEST PUSH1 0x20 PUSH1 0x40 MLOAD DUP1 DUP4 SUB DUP2 PUSH1 0x0 DUP8 GAS CALL ISZERO DUP1 ISZERO PUSH2 0x5BE JUMPI RETURNDATASIZE PUSH1 0x0 DUP1 RETURNDATACOPY RETURNDATASIZE PUSH1 0x0 REVERT JUMPDEST POP POP POP POP PUSH1 0x40 MLOAD RETURNDATASIZE PUSH1 0x1F NOT PUSH1 0x1F DUP3 ADD AND DUP3 ADD DUP1 PUSH1 0x40 MSTORE POP DUP2 ADD SWAP1 PUSH2 0x5E2 SWAP2 SWAP1 PUSH2 0x1E12 JUMP JUMPDEST POP PUSH1 0x0 CALLVALUE SWAP1 POP PUSH1 0x0 PUSH1 0x1 SLOAD GT DUP1 PUSH2 0x5FB JUMPI POP PUSH1 0x0 PUSH1 0x2 SLOAD GT JUMPDEST ISZERO PUSH2 0x65D JUMPI DUP1 PUSH1 0x2 SLOAD PUSH2 0x60E SWAP2 SWAP1 PUSH2 0x1E6E JUMP JUMPDEST DUP4 PUSH1 0x1 SLOAD PUSH2 0x61C SWAP2 SWAP1 PUSH2 0x1E6E JUMP JUMPDEST EQ PUSH2 0x65C JUMPI PUSH1 0x40 MLOAD PUSH32 0x8C379A000000000000000000000000000000000000000000000000000000000 DUP2 MSTORE PUSH1 0x4 ADD PUSH2 0x653 SWAP1 PUSH2 0x1F0D JUMP JUMPDEST PUSH1 0x40 MLOAD DUP1 SWAP2 SUB SWAP1 REVERT JUMPDEST JUMPDEST PUSH1 0x0 PUSH1 0x3 SLOAD SUB PUSH2 0x682 JUMPI PUSH2 0x67B DUP4 DUP3 PUSH2 0x676 SWAP2 SWAP1 PUSH2 0x1E6E JUMP JUMPDEST PUSH2 0x175F JUMP JUMPDEST SWAP2 POP PUSH2 0x6C3 JUMP JUMPDEST PUSH2 0x6C0 PUSH1 0x1 SLOAD PUSH1 0x3 SLOAD DUP4 PUSH2 0x696 SWAP2 SWAP1 PUSH2 0x1E6E JUMP JUMPDEST PUSH2 0x6A0 SWAP2 SWAP1 PUSH2 0x1F5C JUMP JUMPDEST PUSH1 0x2 SLOAD PUSH1 0x3 SLOAD DUP7 PUSH2 0x6B1 SWAP2 SWAP1 PUSH2 0x1E6E JUMP JUMPDEST PUSH2 0x6BB SWAP2 SWAP1 PUSH2 0x1F5C JUMP JUMPDEST PUSH2 0x17D9 JUMP JUMPDEST SWAP2 POP JUMPDEST PUSH1 0x0 DUP3 GT PUSH2 0x706 JUMPI PUSH1 0x40 MLOAD PUSH32 0x8C379A000000000000000000000000000000000000000000000000000000000 DUP2 MSTORE PUSH1 0x4 ADD PUSH2 0x6FD SWAP1 PUSH2 0x1FD9 JUMP JUMPDEST PUSH1 0x40 MLOAD DUP1 SWAP2 SUB SWAP1 REVERT JUMPDEST PUSH2 0x710 CALLER DUP4 PUSH2 0x17F2 JUMP JUMPDEST PUSH2 0x7B3 SELFBALANCE PUSH32 0x0 PUSH20 0xFFFFFFFFFFFFFFFFFFFFFFFFFFFFFFFFFFFFFFFF AND PUSH4 0x70A08231 ADDRESS PUSH1 0x40 MLOAD DUP3 PUSH4 0xFFFFFFFF AND PUSH1 0xE0 SHL DUP2 MSTORE PUSH1 0x4 ADD PUSH2 0x76D SWAP2 SWAP1 PUSH2 0x1D0E JUMP JUMPDEST PUSH1 0x20 PUSH1 0x40 MLOAD DUP1 DUP4 SUB DUP2 DUP7 GAS STATICCALL ISZERO DUP1 ISZERO PUSH2 0x78A JUMPI RETURNDATASIZE PUSH1 0x0 DUP1 RETURNDATACOPY RETURNDATASIZE PUSH1 0x0 REVERT JUMPDEST POP POP POP POP PUSH1 0x40 MLOAD RETURNDATASIZE PUSH1 0x1F NOT PUSH1 0x1F DUP3 ADD AND DUP3 ADD DUP1 PUSH1 0x40 MSTORE POP DUP2 ADD SWAP1 PUSH2 0x7AE SWAP2 SWAP1 PUSH2 0x200E JUMP JUMPDEST PUSH2 0x1865 JUMP JUMPDEST POP SWAP2 SWAP1 POP JUMP JUMPDEST PUSH1 0x0 DUP1 PUSH1 0x1 SLOAD GT DUP1 ISZERO PUSH2 0x7CE JUMPI POP PUSH1 0x0 PUSH1 0x2 SLOAD GT JUMPDEST DUP1 ISZERO PUSH2 0x7DA JUMPI POP PUSH1 0x0 DUP3 GT JUMPDEST PUSH2 0x819 JUMPI PUSH1 0x40 MLOAD PUSH32 0x8C379A000000000000000000000000000000000000000000000000000000000 DUP2 MSTORE PUSH1 0x4 ADD PUSH2 0x810 SWAP1 PUSH2 0x2087 JUMP JUMPDEST PUSH1 0x40 MLOAD DUP1 SWAP2 SUB SWAP1 REVERT JUMPDEST PUSH1 0x0 PUSH2 0x3E8 PUSH2 0x3E5 DUP5 PUSH2 0x82C SWAP2 SWAP1 PUSH2 0x1E6E JUMP JUMPDEST PUSH2 0x836 SWAP2 SWAP1 PUSH2 0x1F5C JUMP JUMPDEST SWAP1 POP DUP1 PUSH1 0x1 SLOAD PUSH2 0x846 SWAP2 SWAP1 PUSH2 0x20A7 JUMP JUMPDEST DUP2 PUSH1 0x2 SLOAD PUSH2 0x854 SWAP2 SWAP1 PUSH2 0x1E6E JUMP JUMPDEST PUSH2 0x85E SWAP2 SWAP1 PUSH2 0x1F5C JUMP JUMPDEST SWAP2 POP POP SWAP2 SWAP1 POP JUMP JUMPDEST PUSH1 0x2 SLOAD DUP2 JUMP JUMPDEST PUSH1 0x0 DUP4 CALLVALUE EQ PUSH2 0x8B0 JUMPI PUSH1 0x40 MLOAD PUSH32 0x8C379A000000000000000000000000000000000000000000000000000000000 DUP2 MSTORE PUSH1 0x4 ADD PUSH2 0x8A7 SWAP1 PUSH2 0x2127 JUMP JUMPDEST PUSH1 0x40 MLOAD DUP1 SWAP2 SUB SWAP1 REVERT JUMPDEST PUSH1 0x0 PUSH2 0x3E8 PUSH2 0x3E5 DUP7 PUSH2 0x8C3 SWAP2 SWAP1 PUSH2 0x1E6E JUMP JUMPDEST PUSH2 0x8CD SWAP2 SWAP1 PUSH2 0x1F5C JUMP JUMPDEST SWAP1 POP DUP1 PUSH1 0x1 SLOAD PUSH2 0x8DD SWAP2 SWAP1 PUSH2 0x20A7 JUMP JUMPDEST DUP2 PUSH1 0x2 SLOAD PUSH2 0x8EB SWAP2 SWAP1 PUSH2 0x1E6E JUMP JUMPDEST PUSH2 0x8F5 SWAP2 SWAP1 PUSH2 0x1F5C JUMP JUMPDEST SWAP2 POP PUSH1 0x0 DUP3 GT PUSH2 0x93A JUMPI PUSH1 0x40 MLOAD PUSH32 0x8C379A000000000000000000000000000000000000000000000000000000000 DUP2 MSTORE PUSH1 0x4 ADD PUSH2 0x931 SWAP1 PUSH2 0x2193 JUMP JUMPDEST PUSH1 0x40 MLOAD DUP1 SWAP2 SUB SWAP1 REVERT JUMPDEST PUSH2 0x3E8 DUP4 PUSH2 0x3E8 PUSH2 0x94B SWAP2 SWAP1 PUSH2 0x21B3 JUMP JUMPDEST DUP6 PUSH2 0x956 SWAP2 SWAP1 PUSH2 0x1E6E JUMP JUMPDEST PUSH2 0x960 SWAP2 SWAP1 PUSH2 0x1F5C JUMP JUMPDEST DUP3 LT ISZERO PUSH2 0x9A2 JUMPI PUSH1 0x40 MLOAD PUSH32 0x8C379A000000000000000000000000000000000000000000000000000000000 DUP2 MSTORE PUSH1 0x4 ADD PUSH2 0x999 SWAP1 PUSH2 0x2233 JUMP JUMPDEST PUSH1 0x40 MLOAD DUP1 SWAP2 SUB SWAP1 REVERT JUMPDEST PUSH1 0x0 PUSH1 0x1 SLOAD PUSH1 0x3 SLOAD PUSH1 0x1 DUP6 DUP10 PUSH2 0x9B8 SWAP2 SWAP1 PUSH2 0x21B3 JUMP JUMPDEST SWAP1 SHR PUSH2 0x9C4 SWAP2 SWAP1 PUSH2 0x1E6E JUMP JUMPDEST PUSH2 0x9CE SWAP2 SWAP1 PUSH2 0x1F5C JUMP JUMPDEST SWAP1 POP PUSH2 0x9FA PUSH1 0x0 DUP1 SLOAD SWAP1 PUSH2 0x100 EXP SWAP1 DIV PUSH20 0xFFFFFFFFFFFFFFFFFFFFFFFFFFFFFFFFFFFFFFFF AND DUP3 PUSH2 0x17F2 JUMP JUMPDEST PUSH32 0x0 PUSH20 0xFFFFFFFFFFFFFFFFFFFFFFFFFFFFFFFFFFFFFFFF AND PUSH4 0xA9059CBB CALLER DUP6 PUSH1 0x40 MLOAD DUP4 PUSH4 0xFFFFFFFF AND PUSH1 0xE0 SHL DUP2 MSTORE PUSH1 0x4 ADD PUSH2 0xA55 SWAP3 SWAP2 SWAP1 PUSH2 0x2253 JUMP JUMPDEST PUSH1 0x20 PUSH1 0x40 MLOAD DUP1 DUP4 SUB DUP2 PUSH1 0x0 DUP8 GAS CALL ISZERO DUP1 ISZERO PUSH2 0xA74 JUMPI RETURNDATASIZE PUSH1 0x0 DUP1 RETURNDATACOPY RETURNDATASIZE PUSH1 0x0 REVERT JUMPDEST POP POP POP POP PUSH1 0x40 MLOAD RETURNDATASIZE PUSH1 0x1F NOT PUSH1 0x1F DUP3 ADD AND DUP3 ADD DUP1 PUSH1 0x40 MSTORE POP DUP2 ADD SWAP1 PUSH2 0xA98 SWAP2 SWAP1 PUSH2 0x1E12 JUMP JUMPDEST POP PUSH2 0xB3C SELFBALANCE PUSH32 0x0 PUSH20 0xFFFFFFFFFFFFFFFFFFFFFFFFFFFFFFFFFFFFFFFF AND PUSH4 0x70A08231 ADDRESS PUSH1 0x40 MLOAD DUP3 PUSH4 0xFFFFFFFF AND PUSH1 0xE0 SHL DUP2 MSTORE PUSH1 0x4 ADD PUSH2 0xAF6 SWAP2 SWAP1 PUSH2 0x1D0E JUMP JUMPDEST PUSH1 0x20 PUSH1 0x40 MLOAD DUP1 DUP4 SUB DUP2 DUP7 GAS STATICCALL ISZERO DUP1 ISZERO PUSH2 0xB13 JUMPI RETURNDATASIZE PUSH1 0x0 DUP1 RETURNDATACOPY RETURNDATASIZE PUSH1 0x0 REVERT JUMPDEST POP POP POP POP PUSH1 0x40 MLOAD RETURNDATASIZE PUSH1 0x1F NOT PUSH1 0x1F DUP3 ADD AND DUP3 ADD DUP1 PUSH1 0x40 MSTORE POP DUP2 ADD SWAP1 PUSH2 0xB37 SWAP2 SWAP1 PUSH2 0x200E JUMP JUMPDEST PUSH2 0x1865 JUMP JUMPDEST POP POP SWAP4 SWAP3 POP POP POP JUMP JUMPDEST PUSH1 0x0 PUSH1 0x4 PUSH1 0x0 CALLER PUSH20 0xFFFFFFFFFFFFFFFFFFFFFFFFFFFFFFFFFFFFFFFF AND PUSH20 0xFFFFFFFFFFFFFFFFFFFFFFFFFFFFFFFFFFFFFFFF AND DUP2 MSTORE PUSH1 0x20 ADD SWAP1 DUP2 MSTORE PUSH1 0x20 ADD PUSH1 0x0 KECCAK256 SLOAD SWAP1 POP SWAP1 JUMP JUMPDEST PUSH1 0x0 DUP1 PUSH2 0x3E8 PUSH2 0x3E5 DUP5 PUSH2 0xBA0 SWAP2 SWAP1 PUSH2 0x1E6E JUMP JUMPDEST PUSH2 0xBAA SWAP2 SWAP1 PUSH2 0x1F5C JUMP JUMPDEST SWAP1 POP DUP1 PUSH1 0x2 SLOAD PUSH2 0xBBA SWAP2 SWAP1 PUSH2 0x20A7 JUMP JUMPDEST DUP2 PUSH1 0x1 SLOAD PUSH2 0xBC8 SWAP2 SWAP1 PUSH2 0x1E6E JUMP JUMPDEST PUSH2 0xBD2 SWAP2 SWAP1 PUSH2 0x1F5C JUMP JUMPDEST SWAP2 POP PUSH1 0x0 DUP3 GT PUSH2 0xC17 JUMPI PUSH1 0x40 MLOAD PUSH32 0x8C379A000000000000000000000000000000000000000000000000000000000 DUP2 MSTORE PUSH1 0x4 ADD PUSH2 0xC0E SWAP1 PUSH2 0x2193 JUMP JUMPDEST PUSH1 0x40 MLOAD DUP1 SWAP2 SUB SWAP1 REVERT JUMPDEST PUSH1 0x0 PUSH1 0x2 SLOAD PUSH1 0x3 SLOAD PUSH1 0x1 DUP6 DUP8 PUSH2 0xC2D SWAP2 SWAP1 PUSH2 0x21B3 JUMP JUMPDEST SWAP1 SHR PUSH2 0xC39 SWAP2 SWAP1 PUSH2 0x1E6E JUMP JUMPDEST PUSH2 0xC43 SWAP2 SWAP1 PUSH2 0x1F5C JUMP JUMPDEST SWAP1 POP PUSH2 0xC6F PUSH1 0x0 DUP1 SLOAD SWAP1 PUSH2 0x100 EXP SWAP1 DIV PUSH20 0xFFFFFFFFFFFFFFFFFFFFFFFFFFFFFFFFFFFFFFFF AND DUP3 PUSH2 0x17F2 JUMP JUMPDEST PUSH32 0x0 PUSH20 0xFFFFFFFFFFFFFFFFFFFFFFFFFFFFFFFFFFFFFFFF AND PUSH4 0x23B872DD CALLER ADDRESS DUP8 PUSH1 0x40 MLOAD DUP5 PUSH4 0xFFFFFFFF AND PUSH1 0xE0 SHL DUP2 MSTORE PUSH1 0x4 ADD PUSH2 0xCCC SWAP4 SWAP3 SWAP2 SWAP1 PUSH2 0x1DA3 JUMP JUMPDEST PUSH1 0x20 PUSH1 0x40 MLOAD DUP1 DUP4 SUB DUP2 PUSH1 0x0 DUP8 GAS CALL ISZERO DUP1 ISZERO PUSH2 0xCEB JUMPI RETURNDATASIZE PUSH1 0x0 DUP1 RETURNDATACOPY RETURNDATASIZE PUSH1 0x0 REVERT JUMPDEST POP POP POP POP PUSH1 0x40 MLOAD RETURNDATASIZE PUSH1 0x1F NOT PUSH1 0x1F DUP3 ADD AND DUP3 ADD DUP1 PUSH1 0x40 MSTORE POP DUP2 ADD SWAP1 PUSH2 0xD0F SWAP2 SWAP1 PUSH2 0x1E12 JUMP JUMPDEST POP CALLER PUSH20 0xFFFFFFFFFFFFFFFFFFFFFFFFFFFFFFFFFFFFFFFF AND PUSH2 0x8FC DUP5 SWAP1 DUP2 ISZERO MUL SWAP1 PUSH1 0x40 MLOAD PUSH1 0x0 PUSH1 0x40 MLOAD DUP1 DUP4 SUB DUP2 DUP6 DUP9 DUP9 CALL SWAP4 POP POP POP POP ISZERO DUP1 ISZERO PUSH2 0xD56 JUMPI RETURNDATASIZE PUSH1 0x0 DUP1 RETURNDATACOPY RETURNDATASIZE PUSH1 0x0 REVERT JUMPDEST POP PUSH2 0xDFA SELFBALANCE PUSH32 0x0 PUSH20 0xFFFFFFFFFFFFFFFFFFFFFFFFFFFFFFFFFFFFFFFF AND PUSH4 0x70A08231 ADDRESS PUSH1 0x40 MLOAD DUP3 PUSH4 0xFFFFFFFF AND PUSH1 0xE0 SHL DUP2 MSTORE PUSH1 0x4 ADD PUSH2 0xDB4 SWAP2 SWAP1 PUSH2 0x1D0E JUMP JUMPDEST PUSH1 0x20 PUSH1 0x40 MLOAD DUP1 DUP4 SUB DUP2 DUP7 GAS STATICCALL ISZERO DUP1 ISZERO PUSH2 0xDD1 JUMPI RETURNDATASIZE PUSH1 0x0 DUP1 RETURNDATACOPY RETURNDATASIZE PUSH1 0x0 REVERT JUMPDEST POP POP POP POP PUSH1 0x40 MLOAD RETURNDATASIZE PUSH1 0x1F NOT PUSH1 0x1F DUP3 ADD AND DUP3 ADD DUP1 PUSH1 0x40 MSTORE POP DUP2 ADD SWAP1 PUSH2 0xDF5 SWAP2 SWAP1 PUSH2 0x200E JUMP JUMPDEST PUSH2 0x1865 JUMP JUMPDEST POP POP SWAP2 SWAP1 POP JUMP JUMPDEST PUSH1 0x4 PUSH1 0x20 MSTORE DUP1 PUSH1 0x0 MSTORE PUSH1 0x40 PUSH1 0x0 KECCAK256 PUSH1 0x0 SWAP2 POP SWAP1 POP SLOAD DUP2 JUMP JUMPDEST PUSH1 0x0 DUP1 PUSH2 0xE65 DUP4 PUSH1 0x4 PUSH1 0x0 DUP7 PUSH20 0xFFFFFFFFFFFFFFFFFFFFFFFFFFFFFFFFFFFFFFFF AND PUSH20 0xFFFFFFFFFFFFFFFFFFFFFFFFFFFFFFFFFFFFFFFF AND DUP2 MSTORE PUSH1 0x20 ADD SWAP1 DUP2 MSTORE PUSH1 0x20 ADD PUSH1 0x0 KECCAK256 SLOAD PUSH2 0x1877 JUMP JUMPDEST SWAP2 POP SWAP2 POP SWAP2 POP SWAP2 JUMP JUMPDEST PUSH1 0x0 DUP2 CALLVALUE EQ PUSH2 0xEB2 JUMPI PUSH1 0x40 MLOAD PUSH32 0x8C379A000000000000000000000000000000000000000000000000000000000 DUP2 MSTORE PUSH1 0x4 ADD PUSH2 0xEA9 SWAP1 PUSH2 0x2127 JUMP JUMPDEST PUSH1 0x40 MLOAD DUP1 SWAP2 SUB SWAP1 REVERT JUMPDEST PUSH1 0x0 PUSH2 0x3E8 PUSH2 0x3E5 DUP5 PUSH2 0xEC5 SWAP2 SWAP1 PUSH2 0x1E6E JUMP JUMPDEST PUSH2 0xECF SWAP2 SWAP1 PUSH2 0x1F5C JUMP JUMPDEST SWAP1 POP DUP1 PUSH1 0x1 SLOAD PUSH2 0xEDF SWAP2 SWAP1 PUSH2 0x20A7 JUMP JUMPDEST DUP2 PUSH1 0x2 SLOAD PUSH2 0xEED SWAP2 SWAP1 PUSH2 0x1E6E JUMP JUMPDEST PUSH2 0xEF7 SWAP2 SWAP1 PUSH2 0x1F5C JUMP JUMPDEST SWAP2 POP PUSH1 0x0 PUSH1 0x2 PUSH1 0x1 SLOAD PUSH2 0xF0A SWAP2 SWAP1 PUSH2 0x1E6E JUMP JUMPDEST PUSH1 0x3 SLOAD DUP5 DUP7 PUSH2 0xF19 SWAP2 SWAP1 PUSH2 0x21B3 JUMP JUMPDEST PUSH2 0xF23 SWAP2 SWAP1 PUSH2 0x1E6E JUMP JUMPDEST PUSH2 0xF2D SWAP2 SWAP1 PUSH2 0x1F5C JUMP JUMPDEST SWAP1 POP PUSH2 0xF59 PUSH1 0x0 DUP1 SLOAD SWAP1 PUSH2 0x100 EXP SWAP1 DIV PUSH20 0xFFFFFFFFFFFFFFFFFFFFFFFFFFFFFFFFFFFFFFFF AND DUP3 PUSH2 0x17F2 JUMP JUMPDEST PUSH32 0x0 PUSH20 0xFFFFFFFFFFFFFFFFFFFFFFFFFFFFFFFFFFFFFFFF AND PUSH4 0xA9059CBB CALLER DUP6 PUSH1 0x40 MLOAD DUP4 PUSH4 0xFFFFFFFF AND PUSH1 0xE0 SHL DUP2 MSTORE PUSH1 0x4 ADD PUSH2 0xFB4 SWAP3 SWAP2 SWAP1 PUSH2 0x2253 JUMP JUMPDEST PUSH1 0x20 PUSH1 0x40 MLOAD DUP1 DUP4 SUB DUP2 PUSH1 0x0 DUP8 GAS CALL ISZERO DUP1 ISZERO PUSH2 0xFD3 JUMPI RETURNDATASIZE PUSH1 0x0 DUP1 RETURNDATACOPY RETURNDATASIZE PUSH1 0x0 REVERT JUMPDEST POP POP POP POP PUSH1 0x40 MLOAD RETURNDATASIZE PUSH1 0x1F NOT PUSH1 0x1F DUP3 ADD AND DUP3 ADD DUP1 PUSH1 0x40 MSTORE POP DUP2 ADD SWAP1 PUSH2 0xFF7 SWAP2 SWAP1 PUSH2 0x1E12 JUMP JUMPDEST POP PUSH2 0x109B SELFBALANCE PUSH32 0x0 PUSH20 0xFFFFFFFFFFFFFFFFFFFFFFFFFFFFFFFFFFFFFFFF AND PUSH4 0x70A08231 ADDRESS PUSH1 0x40 MLOAD DUP3 PUSH4 0xFFFFFFFF AND PUSH1 0xE0 SHL DUP2 MSTORE PUSH1 0x4 ADD PUSH2 0x1055 SWAP2 SWAP1 PUSH2 0x1D0E JUMP JUMPDEST PUSH1 0x20 PUSH1 0x40 MLOAD DUP1 DUP4 SUB DUP2 DUP7 GAS STATICCALL ISZERO DUP1 ISZERO PUSH2 0x1072 JUMPI RETURNDATASIZE PUSH1 0x0 DUP1 RETURNDATACOPY RETURNDATASIZE PUSH1 0x0 REVERT JUMPDEST POP POP POP POP PUSH1 0x40 MLOAD RETURNDATASIZE PUSH1 0x1F NOT PUSH1 0x1F DUP3 ADD AND DUP3 ADD DUP1 PUSH1 0x40 MSTORE POP DUP2 ADD SWAP1 PUSH2 0x1096 SWAP2 SWAP1 PUSH2 0x200E JUMP JUMPDEST PUSH2 0x1865 JUMP JUMPDEST POP POP SWAP2 SWAP1 POP JUMP JUMPDEST PUSH1 0x0 DUP1 PUSH1 0x4 PUSH1 0x0 CALLER PUSH20 0xFFFFFFFFFFFFFFFFFFFFFFFFFFFFFFFFFFFFFFFF AND PUSH20 0xFFFFFFFFFFFFFFFFFFFFFFFFFFFFFFFFFFFFFFFF AND DUP2 MSTORE PUSH1 0x20 ADD SWAP1 DUP2 MSTORE PUSH1 0x20 ADD PUSH1 0x0 KECCAK256 SLOAD DUP4 GT ISZERO PUSH2 0x1127 JUMPI PUSH1 0x40 MLOAD PUSH32 0x8C379A000000000000000000000000000000000000000000000000000000000 DUP2 MSTORE PUSH1 0x4 ADD PUSH2 0x111E SWAP1 PUSH2 0x22C8 JUMP JUMPDEST PUSH1 0x40 MLOAD DUP1 SWAP2 SUB SWAP1 REVERT JUMPDEST PUSH2 0x1131 CALLER DUP5 PUSH2 0x1877 JUMP JUMPDEST SWAP2 POP SWAP2 POP SWAP2 POP SWAP2 JUMP JUMPDEST PUSH1 0x0 DUP1 PUSH1 0x4 PUSH1 0x0 DUP6 PUSH20 0xFFFFFFFFFFFFFFFFFFFFFFFFFFFFFFFFFFFFFFFF AND PUSH20 0xFFFFFFFFFFFFFFFFFFFFFFFFFFFFFFFFFFFFFFFF AND DUP2 MSTORE PUSH1 0x20 ADD SWAP1 DUP2 MSTORE PUSH1 0x20 ADD PUSH1 0x0 KECCAK256 SLOAD DUP4 GT ISZERO PUSH2 0x11BF JUMPI PUSH1 0x40 MLOAD PUSH32 0x8C379A000000000000000000000000000000000000000000000000000000000 DUP2 MSTORE PUSH1 0x4 ADD PUSH2 0x11B6 SWAP1 PUSH2 0x22C8 JUMP JUMPDEST PUSH1 0x40 MLOAD DUP1 SWAP2 SUB SWAP1 REVERT JUMPDEST PUSH2 0x11C9 DUP5 DUP5 PUSH2 0x1877 JUMP JUMPDEST SWAP2 POP SWAP2 POP SWAP3 POP SWAP3 SWAP1 POP JUMP JUMPDEST PUSH1 0x0 DUP1 PUSH1 0x1 SLOAD GT DUP1 ISZERO PUSH2 0x11E9 JUMPI POP PUSH1 0x0 PUSH1 0x2 SLOAD GT JUMPDEST PUSH2 0x1228 JUMPI PUSH1 0x40 MLOAD PUSH32 0x8C379A000000000000000000000000000000000000000000000000000000000 DUP2 MSTORE PUSH1 0x4 ADD PUSH2 0x121F SWAP1 PUSH2 0x2334 JUMP JUMPDEST PUSH1 0x40 MLOAD DUP1 SWAP2 SUB SWAP1 REVERT JUMPDEST PUSH1 0x1 SLOAD PUSH8 0xDE0B6B3A7640000 PUSH1 0x2 SLOAD PUSH2 0x1241 SWAP2 SWAP1 PUSH2 0x1E6E JUMP JUMPDEST PUSH2 0x124B SWAP2 SWAP1 PUSH2 0x1F5C JUMP JUMPDEST SWAP1 POP SWAP1 JUMP JUMPDEST PUSH1 0x0 DUP2 JUMP JUMPDEST PUSH1 0x0 DUP1 PUSH2 0x3E8 PUSH2 0x3E5 DUP7 PUSH2 0x1269 SWAP2 SWAP1 PUSH2 0x1E6E JUMP JUMPDEST PUSH2 0x1273 SWAP2 SWAP1 PUSH2 0x1F5C JUMP JUMPDEST SWAP1 POP DUP1 PUSH1 0x2 SLOAD PUSH2 0x1283 SWAP2 SWAP1 PUSH2 0x20A7 JUMP JUMPDEST DUP2 PUSH1 0x1 SLOAD PUSH2 0x1291 SWAP2 SWAP1 PUSH2 0x1E6E JUMP JUMPDEST PUSH2 0x129B SWAP2 SWAP1 PUSH2 0x1F5C JUMP JUMPDEST SWAP2 POP PUSH1 0x0 DUP3 GT PUSH2 0x12E0 JUMPI PUSH1 0x40 MLOAD PUSH32 0x8C379A000000000000000000000000000000000000000000000000000000000 DUP2 MSTORE PUSH1 0x4 ADD PUSH2 0x12D7 SWAP1 PUSH2 0x2193 JUMP JUMPDEST PUSH1 0x40 MLOAD DUP1 SWAP2 SUB SWAP1 REVERT JUMPDEST PUSH2 0x3E8 DUP4 PUSH2 0x3E8 PUSH2 0x12F1 SWAP2 SWAP1 PUSH2 0x21B3 JUMP JUMPDEST DUP6 PUSH2 0x12FC SWAP2 SWAP1 PUSH2 0x1E6E JUMP JUMPDEST PUSH2 0x1306 SWAP2 SWAP1 PUSH2 0x1F5C JUMP JUMPDEST DUP3 LT ISZERO PUSH2 0x1348 JUMPI PUSH1 0x40 MLOAD PUSH32 0x8C379A000000000000000000000000000000000000000000000000000000000 DUP2 MSTORE PUSH1 0x4 ADD PUSH2 0x133F SWAP1 PUSH2 0x2233 JUMP JUMPDEST PUSH1 0x40 MLOAD DUP1 SWAP2 SUB SWAP1 REVERT JUMPDEST PUSH2 0x139B PUSH1 0x0 DUP1 SLOAD SWAP1 PUSH2 0x100 EXP SWAP1 DIV PUSH20 0xFFFFFFFFFFFFFFFFFFFFFFFFFFFFFFFFFFFFFFFF AND PUSH1 0x2 SLOAD PUSH1 0x3 SLOAD PUSH1 0x1 DUP7 DUP11 PUSH2 0x1380 SWAP2 SWAP1 PUSH2 0x21B3 JUMP JUMPDEST SWAP1 SHR PUSH2 0x138C SWAP2 SWAP1 PUSH2 0x1E6E JUMP JUMPDEST PUSH2 0x1396 SWAP2 SWAP1 PUSH2 0x1F5C JUMP JUMPDEST PUSH2 0x17F2 JUMP JUMPDEST PUSH32 0x0 PUSH20 0xFFFFFFFFFFFFFFFFFFFFFFFFFFFFFFFFFFFFFFFF AND PUSH4 0x23B872DD CALLER ADDRESS DUP9 PUSH1 0x40 MLOAD DUP5 PUSH4 0xFFFFFFFF AND PUSH1 0xE0 SHL DUP2 MSTORE PUSH1 0x4 ADD PUSH2 0x13F8 SWAP4 SWAP3 SWAP2 SWAP1 PUSH2 0x1DA3 JUMP JUMPDEST PUSH1 0x20 PUSH1 0x40 MLOAD DUP1 DUP4 SUB DUP2 PUSH1 0x0 DUP8 GAS CALL ISZERO DUP1 ISZERO PUSH2 0x1417 JUMPI RETURNDATASIZE PUSH1 0x0 DUP1 RETURNDATACOPY RETURNDATASIZE PUSH1 0x0 REVERT JUMPDEST POP POP POP POP PUSH1 0x40 MLOAD RETURNDATASIZE PUSH1 0x1F NOT PUSH1 0x1F DUP3 ADD AND DUP3 ADD DUP1 PUSH1 0x40 MSTORE POP DUP2 ADD SWAP1 PUSH2 0x143B SWAP2 SWAP1 PUSH2 0x1E12 JUMP JUMPDEST POP CALLER PUSH20 0xFFFFFFFFFFFFFFFFFFFFFFFFFFFFFFFFFFFFFFFF AND PUSH2 0x8FC DUP4 SWAP1 DUP2 ISZERO MUL SWAP1 PUSH1 0x40 MLOAD PUSH1 0x0 PUSH1 0x40 MLOAD DUP1 DUP4 SUB DUP2 DUP6 DUP9 DUP9 CALL SWAP4 POP POP POP POP ISZERO DUP1 ISZERO PUSH2 0x1482 JUMPI RETURNDATASIZE PUSH1 0x0 DUP1 RETURNDATACOPY RETURNDATASIZE PUSH1 0x0 REVERT JUMPDEST POP PUSH2 0x1526 SELFBALANCE PUSH32 0x0 PUSH20 0xFFFFFFFFFFFFFFFFFFFFFFFFFFFFFFFFFFFFFFFF AND PUSH4 0x70A08231 ADDRESS PUSH1 0x40 MLOAD DUP3 PUSH4 0xFFFFFFFF AND PUSH1 0xE0 SHL DUP2 MSTORE PUSH1 0x4 ADD PUSH2 0x14E0 SWAP2 SWAP1 PUSH2 0x1D0E JUMP JUMPDEST PUSH1 0x20 PUSH1 0x40 MLOAD DUP1 DUP4 SUB DUP2 DUP7 GAS STATICCALL ISZERO DUP1 ISZERO PUSH2 0x14FD JUMPI RETURNDATASIZE PUSH1 0x0 DUP1 RETURNDATACOPY RETURNDATASIZE PUSH1 0x0 REVERT JUMPDEST POP POP POP POP PUSH1 0x40 MLOAD RETURNDATASIZE PUSH1 0x1F NOT PUSH1 0x1F DUP3 ADD AND DUP3 ADD DUP1 PUSH1 0x40 MSTORE POP DUP2 ADD SWAP1 PUSH2 0x1521 SWAP2 SWAP1 PUSH2 0x200E JUMP JUMPDEST PUSH2 0x1865 JUMP JUMPDEST POP SWAP4 SWAP3 POP POP POP JUMP JUMPDEST PUSH1 0x0 DUP1 PUSH1 0x1 SLOAD GT DUP1 ISZERO PUSH2 0x1543 JUMPI POP PUSH1 0x0 PUSH1 0x2 SLOAD GT JUMPDEST DUP1 ISZERO PUSH2 0x154F JUMPI POP PUSH1 0x0 DUP3 GT JUMPDEST PUSH2 0x158E JUMPI PUSH1 0x40 MLOAD PUSH32 0x8C379A000000000000000000000000000000000000000000000000000000000 DUP2 MSTORE PUSH1 0x4 ADD PUSH2 0x1585 SWAP1 PUSH2 0x2334 JUMP JUMPDEST PUSH1 0x40 MLOAD DUP1 SWAP2 SUB SWAP1 REVERT JUMPDEST PUSH1 0x0 PUSH2 0x3E8 PUSH2 0x3E5 DUP5 PUSH2 0x15A1 SWAP2 SWAP1 PUSH2 0x1E6E JUMP JUMPDEST PUSH2 0x15AB SWAP2 SWAP1 PUSH2 0x1F5C JUMP JUMPDEST SWAP1 POP DUP1 PUSH1 0x2 SLOAD PUSH2 0x15BB SWAP2 SWAP1 PUSH2 0x20A7 JUMP JUMPDEST DUP2 PUSH1 0x1 SLOAD PUSH2 0x15C9 SWAP2 SWAP1 PUSH2 0x1E6E JUMP JUMPDEST PUSH2 0x15D3 SWAP2 SWAP1 PUSH2 0x1F5C JUMP JUMPDEST SWAP2 POP POP SWAP2 SWAP1 POP JUMP JUMPDEST PUSH1 0x0 PUSH1 0x4 PUSH1 0x0 DUP4 PUSH20 0xFFFFFFFFFFFFFFFFFFFFFFFFFFFFFFFFFFFFFFFF AND PUSH20 0xFFFFFFFFFFFFFFFFFFFFFFFFFFFFFFFFFFFFFFFF AND DUP2 MSTORE PUSH1 0x20 ADD SWAP1 DUP2 MSTORE PUSH1 0x20 ADD PUSH1 0x0 KECCAK256 SLOAD SWAP1 POP SWAP2 SWAP1 POP JUMP JUMPDEST PUSH32 0x0 DUP2 JUMP JUMPDEST PUSH1 0x0 DUP1 PUSH1 0x1 SLOAD GT DUP1 ISZERO PUSH2 0x165D JUMPI POP PUSH1 0x0 PUSH1 0x2 SLOAD GT JUMPDEST PUSH2 0x169C JUMPI PUSH1 0x40 MLOAD PUSH32 0x8C379A000000000000000000000000000000000000000000000000000000000 DUP2 MSTORE PUSH1 0x4 ADD PUSH2 0x1693 SWAP1 PUSH2 0x2087 JUMP JUMPDEST PUSH1 0x40 MLOAD DUP1 SWAP2 SUB SWAP1 REVERT JUMPDEST PUSH1 0x0 PUSH32 0x0 PUSH20 0xFFFFFFFFFFFFFFFFFFFFFFFFFFFFFFFFFFFFFFFF AND PUSH4 0x313CE567 PUSH1 0x40 MLOAD DUP2 PUSH4 0xFFFFFFFF AND PUSH1 0xE0 SHL DUP2 MSTORE PUSH1 0x4 ADD PUSH1 0x20 PUSH1 0x40 MLOAD DUP1 DUP4 SUB DUP2 DUP7 GAS STATICCALL ISZERO DUP1 ISZERO PUSH2 0x1709 JUMPI RETURNDATASIZE PUSH1 0x0 DUP1 RETURNDATACOPY RETURNDATASIZE PUSH1 0x0 REVERT JUMPDEST POP POP POP POP PUSH1 0x40 MLOAD RETURNDATASIZE PUSH1 0x1F NOT PUSH1 0x1F DUP3 ADD AND DUP3 ADD DUP1 PUSH1 0x40 MSTORE POP DUP2 ADD SWAP1 PUSH2 0x172D SWAP2 SWAP1 PUSH2 0x238D JUMP JUMPDEST PUSH1 0xFF AND SWAP1 POP PUSH1 0x2 SLOAD DUP2 PUSH1 0xA PUSH2 0x1742 SWAP2 SWAP1 PUSH2 0x24ED JUMP JUMPDEST PUSH1 0x1 SLOAD PUSH2 0x174F SWAP2 SWAP1 PUSH2 0x1E6E JUMP JUMPDEST PUSH2 0x1759 SWAP2 SWAP1 PUSH2 0x1F5C JUMP JUMPDEST SWAP2 POP POP SWAP1 JUMP JUMPDEST PUSH1 0x0 PUSH1 0x3 DUP3 GT ISZERO PUSH2 0x17C6 JUMPI DUP2 SWAP1 POP PUSH1 0x0 PUSH1 0x1 PUSH1 0x2 DUP5 PUSH2 0x177E SWAP2 SWAP1 PUSH2 0x1F5C JUMP JUMPDEST PUSH2 0x1788 SWAP2 SWAP1 PUSH2 0x20A7 JUMP JUMPDEST SWAP1 POP JUMPDEST DUP2 DUP2 LT ISZERO PUSH2 0x17C0 JUMPI DUP1 SWAP2 POP PUSH1 0x2 DUP2 DUP3 DUP6 PUSH2 0x17A5 SWAP2 SWAP1 PUSH2 0x1F5C JUMP JUMPDEST PUSH2 0x17AF SWAP2 SWAP1 PUSH2 0x20A7 JUMP JUMPDEST PUSH2 0x17B9 SWAP2 SWAP1 PUSH2 0x1F5C JUMP JUMPDEST SWAP1 POP PUSH2 0x178B JUMP JUMPDEST POP PUSH2 0x17D4 JUMP JUMPDEST PUSH1 0x0 DUP3 EQ PUSH2 0x17D3 JUMPI PUSH1 0x1 SWAP1 POP JUMPDEST JUMPDEST SWAP2 SWAP1 POP JUMP JUMPDEST PUSH1 0x0 DUP2 DUP4 LT PUSH2 0x17E8 JUMPI DUP2 PUSH2 0x17EA JUMP JUMPDEST DUP3 JUMPDEST SWAP1 POP SWAP3 SWAP2 POP POP JUMP JUMPDEST DUP1 PUSH1 0x4 PUSH1 0x0 DUP5 PUSH20 0xFFFFFFFFFFFFFFFFFFFFFFFFFFFFFFFFFFFFFFFF AND PUSH20 0xFFFFFFFFFFFFFFFFFFFFFFFFFFFFFFFFFFFFFFFF AND DUP2 MSTORE PUSH1 0x20 ADD SWAP1 DUP2 MSTORE PUSH1 0x20 ADD PUSH1 0x0 KECCAK256 PUSH1 0x0 DUP3 DUP3 SLOAD PUSH2 0x1841 SWAP2 SWAP1 PUSH2 0x20A7 JUMP JUMPDEST SWAP3 POP POP DUP2 SWAP1 SSTORE POP DUP1 PUSH1 0x3 PUSH1 0x0 DUP3 DUP3 SLOAD PUSH2 0x185A SWAP2 SWAP1 PUSH2 0x20A7 JUMP JUMPDEST SWAP3 POP POP DUP2 SWAP1 SSTORE POP POP POP JUMP JUMPDEST DUP2 PUSH1 0x1 DUP2 SWAP1 SSTORE POP DUP1 PUSH1 0x2 DUP2 SWAP1 SSTORE POP POP POP JUMP JUMPDEST PUSH1 0x0 DUP1 PUSH1 0x3 SLOAD PUSH1 0x1 SLOAD DUP5 PUSH2 0x188B SWAP2 SWAP1 PUSH2 0x1E6E JUMP JUMPDEST PUSH2 0x1895 SWAP2 SWAP1 PUSH2 0x1F5C JUMP JUMPDEST SWAP2 POP PUSH1 0x3 SLOAD PUSH1 0x2 SLOAD DUP5 PUSH2 0x18A8 SWAP2 SWAP1 PUSH2 0x1E6E JUMP JUMPDEST PUSH2 0x18B2 SWAP2 SWAP1 PUSH2 0x1F5C JUMP JUMPDEST SWAP1 POP PUSH1 0x0 DUP3 GT DUP1 ISZERO PUSH2 0x18C4 JUMPI POP PUSH1 0x0 DUP2 GT JUMPDEST PUSH2 0x1903 JUMPI PUSH1 0x40 MLOAD PUSH32 0x8C379A000000000000000000000000000000000000000000000000000000000 DUP2 MSTORE PUSH1 0x4 ADD PUSH2 0x18FA SWAP1 PUSH2 0x2584 JUMP JUMPDEST PUSH1 0x40 MLOAD DUP1 SWAP2 SUB SWAP1 REVERT JUMPDEST PUSH2 0x190D DUP5 DUP5 PUSH2 0x1AB3 JUMP JUMPDEST PUSH2 0x19C6 DUP3 SELFBALANCE PUSH2 0x191C SWAP2 SWAP1 PUSH2 0x21B3 JUMP JUMPDEST DUP3 PUSH32 0x0 PUSH20 0xFFFFFFFFFFFFFFFFFFFFFFFFFFFFFFFFFFFFFFFF AND PUSH4 0x70A08231 ADDRESS PUSH1 0x40 MLOAD DUP3 PUSH4 0xFFFFFFFF AND PUSH1 0xE0 SHL DUP2 MSTORE PUSH1 0x4 ADD PUSH2 0x1976 SWAP2 SWAP1 PUSH2 0x1D0E JUMP JUMPDEST PUSH1 0x20 PUSH1 0x40 MLOAD DUP1 DUP4 SUB DUP2 DUP7 GAS STATICCALL ISZERO DUP1 ISZERO PUSH2 0x1993 JUMPI RETURNDATASIZE PUSH1 0x0 DUP1 RETURNDATACOPY RETURNDATASIZE PUSH1 0x0 REVERT JUMPDEST POP POP POP POP PUSH1 0x40 MLOAD RETURNDATASIZE PUSH1 0x1F NOT PUSH1 0x1F DUP3 ADD AND DUP3 ADD DUP1 PUSH1 0x40 MSTORE POP DUP2 ADD SWAP1 PUSH2 0x19B7 SWAP2 SWAP1 PUSH2 0x200E JUMP JUMPDEST PUSH2 0x19C1 SWAP2 SWAP1 PUSH2 0x21B3 JUMP JUMPDEST PUSH2 0x1865 JUMP JUMPDEST DUP4 PUSH20 0xFFFFFFFFFFFFFFFFFFFFFFFFFFFFFFFFFFFFFFFF AND PUSH2 0x8FC DUP4 SWAP1 DUP2 ISZERO MUL SWAP1 PUSH1 0x40 MLOAD PUSH1 0x0 PUSH1 0x40 MLOAD DUP1 DUP4 SUB DUP2 DUP6 DUP9 DUP9 CALL SWAP4 POP POP POP POP ISZERO DUP1 ISZERO PUSH2 0x1A0C JUMPI RETURNDATASIZE PUSH1 0x0 DUP1 RETURNDATACOPY RETURNDATASIZE PUSH1 0x0 REVERT JUMPDEST POP PUSH32 0x0 PUSH20 0xFFFFFFFFFFFFFFFFFFFFFFFFFFFFFFFFFFFFFFFF AND PUSH4 0xA9059CBB DUP6 DUP4 PUSH1 0x40 MLOAD DUP4 PUSH4 0xFFFFFFFF AND PUSH1 0xE0 SHL DUP2 MSTORE PUSH1 0x4 ADD PUSH2 0x1A68 SWAP3 SWAP2 SWAP1 PUSH2 0x2253 JUMP JUMPDEST PUSH1 0x20 PUSH1 0x40 MLOAD DUP1 DUP4 SUB DUP2 PUSH1 0x0 DUP8 GAS CALL ISZERO DUP1 ISZERO PUSH2 0x1A87 JUMPI RETURNDATASIZE PUSH1 0x0 DUP1 RETURNDATACOPY RETURNDATASIZE PUSH1 0x0 REVERT JUMPDEST POP POP POP POP PUSH1 0x40 MLOAD RETURNDATASIZE PUSH1 0x1F NOT PUSH1 0x1F DUP3 ADD AND DUP3 ADD DUP1 PUSH1 0x40 MSTORE POP DUP2 ADD SWAP1 PUSH2 0x1AAB SWAP2 SWAP1 PUSH2 0x1E12 JUMP JUMPDEST POP SWAP3 POP SWAP3 SWAP1 POP JUMP JUMPDEST DUP1 PUSH1 0x4 PUSH1 0x0 DUP5 PUSH20 0xFFFFFFFFFFFFFFFFFFFFFFFFFFFFFFFFFFFFFFFF AND PUSH20 0xFFFFFFFFFFFFFFFFFFFFFFFFFFFFFFFFFFFFFFFF AND DUP2 MSTORE PUSH1 0x20 ADD SWAP1 DUP2 MSTORE PUSH1 0x20 ADD PUSH1 0x0 KECCAK256 PUSH1 0x0 DUP3 DUP3 SLOAD PUSH2 0x1B02 SWAP2 SWAP1 PUSH2 0x21B3 JUMP JUMPDEST SWAP3 POP POP DUP2 SWAP1 SSTORE POP DUP1 PUSH1 0x3 PUSH1 0x0 DUP3 DUP3 SLOAD PUSH2 0x1B1B SWAP2 SWAP1 PUSH2 0x21B3 JUMP JUMPDEST SWAP3 POP POP DUP2 SWAP1 SSTORE POP POP POP JUMP JUMPDEST PUSH1 0x0 DUP2 SWAP1 POP SWAP2 SWAP1 POP JUMP JUMPDEST PUSH2 0x1B39 DUP2 PUSH2 0x1B26 JUMP JUMPDEST DUP3 MSTORE POP POP JUMP JUMPDEST PUSH1 0x0 PUSH1 0x20 DUP3 ADD SWAP1 POP PUSH2 0x1B54 PUSH1 0x0 DUP4 ADD DUP5 PUSH2 0x1B30 JUMP JUMPDEST SWAP3 SWAP2 POP POP JUMP JUMPDEST PUSH1 0x0 DUP1 REVERT JUMPDEST PUSH2 0x1B68 DUP2 PUSH2 0x1B26 JUMP JUMPDEST DUP2 EQ PUSH2 0x1B73 JUMPI PUSH1 0x0 DUP1 REVERT JUMPDEST POP JUMP JUMPDEST PUSH1 0x0 DUP2 CALLDATALOAD SWAP1 POP PUSH2 0x1B85 DUP2 PUSH2 0x1B5F JUMP JUMPDEST SWAP3 SWAP2 POP POP JUMP JUMPDEST PUSH1 0x0 PUSH1 0x20 DUP3 DUP5 SUB SLT ISZERO PUSH2 0x1BA1 JUMPI PUSH2 0x1BA0 PUSH2 0x1B5A JUMP JUMPDEST JUMPDEST PUSH1 0x0 PUSH2 0x1BAF DUP5 DUP3 DUP6 ADD PUSH2 0x1B76 JUMP JUMPDEST SWAP2 POP POP SWAP3 SWAP2 POP POP JUMP JUMPDEST PUSH1 0x0 DUP1 PUSH1 0x0 PUSH1 0x60 DUP5 DUP7 SUB SLT ISZERO PUSH2 0x1BD1 JUMPI PUSH2 0x1BD0 PUSH2 0x1B5A JUMP JUMPDEST JUMPDEST PUSH1 0x0 PUSH2 0x1BDF DUP7 DUP3 DUP8 ADD PUSH2 0x1B76 JUMP JUMPDEST SWAP4 POP POP PUSH1 0x20 PUSH2 0x1BF0 DUP7 DUP3 DUP8 ADD PUSH2 0x1B76 JUMP JUMPDEST SWAP3 POP POP PUSH1 0x40 PUSH2 0x1C01 DUP7 DUP3 DUP8 ADD PUSH2 0x1B76 JUMP JUMPDEST SWAP2 POP POP SWAP3 POP SWAP3 POP SWAP3 JUMP JUMPDEST PUSH1 0x0 PUSH20 0xFFFFFFFFFFFFFFFFFFFFFFFFFFFFFFFFFFFFFFFF DUP3 AND SWAP1 POP SWAP2 SWAP1 POP JUMP JUMPDEST PUSH1 0x0 PUSH2 0x1C36 DUP3 PUSH2 0x1C0B JUMP JUMPDEST SWAP1 POP SWAP2 SWAP1 POP JUMP JUMPDEST PUSH2 0x1C46 DUP2 PUSH2 0x1C2B JUMP JUMPDEST DUP2 EQ PUSH2 0x1C51 JUMPI PUSH1 0x0 DUP1 REVERT JUMPDEST POP JUMP JUMPDEST PUSH1 0x0 DUP2 CALLDATALOAD SWAP1 POP PUSH2 0x1C63 DUP2 PUSH2 0x1C3D JUMP JUMPDEST SWAP3 SWAP2 POP POP JUMP JUMPDEST PUSH1 0x0 PUSH1 0x20 DUP3 DUP5 SUB SLT ISZERO PUSH2 0x1C7F JUMPI PUSH2 0x1C7E PUSH2 0x1B5A JUMP JUMPDEST JUMPDEST PUSH1 0x0 PUSH2 0x1C8D DUP5 DUP3 DUP6 ADD PUSH2 0x1C54 JUMP JUMPDEST SWAP2 POP POP SWAP3 SWAP2 POP POP JUMP JUMPDEST PUSH1 0x0 PUSH1 0x40 DUP3 ADD SWAP1 POP PUSH2 0x1CAB PUSH1 0x0 DUP4 ADD DUP6 PUSH2 0x1B30 JUMP JUMPDEST PUSH2 0x1CB8 PUSH1 0x20 DUP4 ADD DUP5 PUSH2 0x1B30 JUMP JUMPDEST SWAP4 SWAP3 POP POP POP JUMP JUMPDEST PUSH1 0x0 DUP1 PUSH1 0x40 DUP4 DUP6 SUB SLT ISZERO PUSH2 0x1CD6 JUMPI PUSH2 0x1CD5 PUSH2 0x1B5A JUMP JUMPDEST JUMPDEST PUSH1 0x0 PUSH2 0x1CE4 DUP6 DUP3 DUP7 ADD PUSH2 0x1C54 JUMP JUMPDEST SWAP3 POP POP PUSH1 0x20 PUSH2 0x1CF5 DUP6 DUP3 DUP7 ADD PUSH2 0x1B76 JUMP JUMPDEST SWAP2 POP POP SWAP3 POP SWAP3 SWAP1 POP JUMP JUMPDEST PUSH2 0x1D08 DUP2 PUSH2 0x1C2B JUMP JUMPDEST DUP3 MSTORE POP POP JUMP JUMPDEST PUSH1 0x0 PUSH1 0x20 DUP3 ADD SWAP1 POP PUSH2 0x1D23 PUSH1 0x0 DUP4 ADD DUP5 PUSH2 0x1CFF JUMP JUMPDEST SWAP3 SWAP2 POP POP JUMP JUMPDEST PUSH1 0x0 DUP2 SWAP1 POP SWAP2 SWAP1 POP JUMP JUMPDEST PUSH1 0x0 PUSH2 0x1D4E PUSH2 0x1D49 PUSH2 0x1D44 DUP5 PUSH2 0x1C0B JUMP JUMPDEST PUSH2 0x1D29 JUMP JUMPDEST PUSH2 0x1C0B JUMP JUMPDEST SWAP1 POP SWAP2 SWAP1 POP JUMP JUMPDEST PUSH1 0x0 PUSH2 0x1D60 DUP3 PUSH2 0x1D33 JUMP JUMPDEST SWAP1 POP SWAP2 SWAP1 POP JUMP JUMPDEST PUSH1 0x0 PUSH2 0x1D72 DUP3 PUSH2 0x1D55 JUMP JUMPDEST SWAP1 POP SWAP2 SWAP1 POP JUMP JUMPDEST PUSH2 0x1D82 DUP2 PUSH2 0x1D67 JUMP JUMPDEST DUP3 MSTORE POP POP JUMP JUMPDEST PUSH1 0x0 PUSH1 0x20 DUP3 ADD SWAP1 POP PUSH2 0x1D9D PUSH1 0x0 DUP4 ADD DUP5 PUSH2 0x1D79 JUMP JUMPDEST SWAP3 SWAP2 POP POP JUMP JUMPDEST PUSH1 0x0 PUSH1 0x60 DUP3 ADD SWAP1 POP PUSH2 0x1DB8 PUSH1 0x0 DUP4 ADD DUP7 PUSH2 0x1CFF JUMP JUMPDEST PUSH2 0x1DC5 PUSH1 0x20 DUP4 ADD DUP6 PUSH2 0x1CFF JUMP JUMPDEST PUSH2 0x1DD2 PUSH1 0x40 DUP4 ADD DUP5 PUSH2 0x1B30 JUMP JUMPDEST SWAP5 SWAP4 POP POP POP POP JUMP JUMPDEST PUSH1 0x0 DUP2 ISZERO ISZERO SWAP1 POP SWAP2 SWAP1 POP JUMP JUMPDEST PUSH2 0x1DEF DUP2 PUSH2 0x1DDA JUMP JUMPDEST DUP2 EQ PUSH2 0x1DFA JUMPI PUSH1 0x0 DUP1 REVERT JUMPDEST POP JUMP JUMPDEST PUSH1 0x0 DUP2 MLOAD SWAP1 POP PUSH2 0x1E0C DUP2 PUSH2 0x1DE6 JUMP JUMPDEST SWAP3 SWAP2 POP POP JUMP JUMPDEST PUSH1 0x0 PUSH1 0x20 DUP3 DUP5 SUB SLT ISZERO PUSH2 0x1E28 JUMPI PUSH2 0x1E27 PUSH2 0x1B5A JUMP JUMPDEST JUMPDEST PUSH1 0x0 PUSH2 0x1E36 DUP5 DUP3 DUP6 ADD PUSH2 0x1DFD JUMP JUMPDEST SWAP2 POP POP SWAP3 SWAP2 POP POP JUMP JUMPDEST PUSH32 0x4E487B7100000000000000000000000000000000000000000000000000000000 PUSH1 0x0 MSTORE PUSH1 0x11 PUSH1 0x4 MSTORE PUSH1 0x24 PUSH1 0x0 REVERT JUMPDEST PUSH1 0x0 PUSH2 0x1E79 DUP3 PUSH2 0x1B26 JUMP JUMPDEST SWAP2 POP PUSH2 0x1E84 DUP4 PUSH2 0x1B26 JUMP JUMPDEST SWAP3 POP DUP3 DUP3 MUL PUSH2 0x1E92 DUP2 PUSH2 0x1B26 JUMP JUMPDEST SWAP2 POP DUP3 DUP3 DIV DUP5 EQ DUP4 ISZERO OR PUSH2 0x1EA9 JUMPI PUSH2 0x1EA8 PUSH2 0x1E3F JUMP JUMPDEST JUMPDEST POP SWAP3 SWAP2 POP POP JUMP JUMPDEST PUSH1 0x0 DUP3 DUP3 MSTORE PUSH1 0x20 DUP3 ADD SWAP1 POP SWAP3 SWAP2 POP POP JUMP JUMPDEST PUSH32 0x78202F207920213D206478202F20647900000000000000000000000000000000 PUSH1 0x0 DUP3 ADD MSTORE POP JUMP JUMPDEST PUSH1 0x0 PUSH2 0x1EF7 PUSH1 0x10 DUP4 PUSH2 0x1EB0 JUMP JUMPDEST SWAP2 POP PUSH2 0x1F02 DUP3 PUSH2 0x1EC1 JUMP JUMPDEST PUSH1 0x20 DUP3 ADD SWAP1 POP SWAP2 SWAP1 POP JUMP JUMPDEST PUSH1 0x0 PUSH1 0x20 DUP3 ADD SWAP1 POP DUP2 DUP2 SUB PUSH1 0x0 DUP4 ADD MSTORE PUSH2 0x1F26 DUP2 PUSH2 0x1EEA JUMP JUMPDEST SWAP1 POP SWAP2 SWAP1 POP JUMP JUMPDEST PUSH32 0x4E487B7100000000000000000000000000000000000000000000000000000000 PUSH1 0x0 MSTORE PUSH1 0x12 PUSH1 0x4 MSTORE PUSH1 0x24 PUSH1 0x0 REVERT JUMPDEST PUSH1 0x0 PUSH2 0x1F67 DUP3 PUSH2 0x1B26 JUMP JUMPDEST SWAP2 POP PUSH2 0x1F72 DUP4 PUSH2 0x1B26 JUMP JUMPDEST SWAP3 POP DUP3 PUSH2 0x1F82 JUMPI PUSH2 0x1F81 PUSH2 0x1F2D JUMP JUMPDEST JUMPDEST DUP3 DUP3 DIV SWAP1 POP SWAP3 SWAP2 POP POP JUMP JUMPDEST PUSH32 0x736861726573203D203000000000000000000000000000000000000000000000 PUSH1 0x0 DUP3 ADD MSTORE POP JUMP JUMPDEST PUSH1 0x0 PUSH2 0x1FC3 PUSH1 0xA DUP4 PUSH2 0x1EB0 JUMP JUMPDEST SWAP2 POP PUSH2 0x1FCE DUP3 PUSH2 0x1F8D JUMP JUMPDEST PUSH1 0x20 DUP3 ADD SWAP1 POP SWAP2 SWAP1 POP JUMP JUMPDEST PUSH1 0x0 PUSH1 0x20 DUP3 ADD SWAP1 POP DUP2 DUP2 SUB PUSH1 0x0 DUP4 ADD MSTORE PUSH2 0x1FF2 DUP2 PUSH2 0x1FB6 JUMP JUMPDEST SWAP1 POP SWAP2 SWAP1 POP JUMP JUMPDEST PUSH1 0x0 DUP2 MLOAD SWAP1 POP PUSH2 0x2008 DUP2 PUSH2 0x1B5F JUMP JUMPDEST SWAP3 SWAP2 POP POP JUMP JUMPDEST PUSH1 0x0 PUSH1 0x20 DUP3 DUP5 SUB SLT ISZERO PUSH2 0x2024 JUMPI PUSH2 0x2023 PUSH2 0x1B5A JUMP JUMPDEST JUMPDEST PUSH1 0x0 PUSH2 0x2032 DUP5 DUP3 DUP6 ADD PUSH2 0x1FF9 JUMP JUMPDEST SWAP2 POP POP SWAP3 SWAP2 POP POP JUMP JUMPDEST PUSH32 0x496E76616C696420455243323020726573657276657300000000000000000000 PUSH1 0x0 DUP3 ADD MSTORE POP JUMP JUMPDEST PUSH1 0x0 PUSH2 0x2071 PUSH1 0x16 DUP4 PUSH2 0x1EB0 JUMP JUMPDEST SWAP2 POP PUSH2 0x207C DUP3 PUSH2 0x203B JUMP JUMPDEST PUSH1 0x20 DUP3 ADD SWAP1 POP SWAP2 SWAP1 POP JUMP JUMPDEST PUSH1 0x0 PUSH1 0x20 DUP3 ADD SWAP1 POP DUP2 DUP2 SUB PUSH1 0x0 DUP4 ADD MSTORE PUSH2 0x20A0 DUP2 PUSH2 0x2064 JUMP JUMPDEST SWAP1 POP SWAP2 SWAP1 POP JUMP JUMPDEST PUSH1 0x0 PUSH2 0x20B2 DUP3 PUSH2 0x1B26 JUMP JUMPDEST SWAP2 POP PUSH2 0x20BD DUP4 PUSH2 0x1B26 JUMP JUMPDEST SWAP3 POP DUP3 DUP3 ADD SWAP1 POP DUP1 DUP3 GT ISZERO PUSH2 0x20D5 JUMPI PUSH2 0x20D4 PUSH2 0x1E3F JUMP JUMPDEST JUMPDEST SWAP3 SWAP2 POP POP JUMP JUMPDEST PUSH32 0x45544820616D6F756E74206D69736D6174636800000000000000000000000000 PUSH1 0x0 DUP3 ADD MSTORE POP JUMP JUMPDEST PUSH1 0x0 PUSH2 0x2111 PUSH1 0x13 DUP4 PUSH2 0x1EB0 JUMP JUMPDEST SWAP2 POP PUSH2 0x211C DUP3 PUSH2 0x20DB JUMP JUMPDEST PUSH1 0x20 DUP3 ADD SWAP1 POP SWAP2 SWAP1 POP JUMP JUMPDEST PUSH1 0x0 PUSH1 0x20 DUP3 ADD SWAP1 POP DUP2 DUP2 SUB PUSH1 0x0 DUP4 ADD MSTORE PUSH2 0x2140 DUP2 PUSH2 0x2104 JUMP JUMPDEST SWAP1 POP SWAP2 SWAP1 POP JUMP JUMPDEST PUSH32 0x496E73756666696369656E74206F757470757420616D6F756E74000000000000 PUSH1 0x0 DUP3 ADD MSTORE POP JUMP JUMPDEST PUSH1 0x0 PUSH2 0x217D PUSH1 0x1A DUP4 PUSH2 0x1EB0 JUMP JUMPDEST SWAP2 POP PUSH2 0x2188 DUP3 PUSH2 0x2147 JUMP JUMPDEST PUSH1 0x20 DUP3 ADD SWAP1 POP SWAP2 SWAP1 POP JUMP JUMPDEST PUSH1 0x0 PUSH1 0x20 DUP3 ADD SWAP1 POP DUP2 DUP2 SUB PUSH1 0x0 DUP4 ADD MSTORE PUSH2 0x21AC DUP2 PUSH2 0x2170 JUMP JUMPDEST SWAP1 POP SWAP2 SWAP1 POP JUMP JUMPDEST PUSH1 0x0 PUSH2 0x21BE DUP3 PUSH2 0x1B26 JUMP JUMPDEST SWAP2 POP PUSH2 0x21C9 DUP4 PUSH2 0x1B26 JUMP JUMPDEST SWAP3 POP DUP3 DUP3 SUB SWAP1 POP DUP2 DUP2 GT ISZERO PUSH2 0x21E1 JUMPI PUSH2 0x21E0 PUSH2 0x1E3F JUMP JUMPDEST JUMPDEST SWAP3 SWAP2 POP POP JUMP JUMPDEST PUSH32 0x536C69704C6F636B000000000000000000000000000000000000000000000000 PUSH1 0x0 DUP3 ADD MSTORE POP JUMP JUMPDEST PUSH1 0x0 PUSH2 0x221D PUSH1 0x8 DUP4 PUSH2 0x1EB0 JUMP JUMPDEST SWAP2 POP PUSH2 0x2228 DUP3 PUSH2 0x21E7 JUMP JUMPDEST PUSH1 0x20 DUP3 ADD SWAP1 POP SWAP2 SWAP1 POP JUMP JUMPDEST PUSH1 0x0 PUSH1 0x20 DUP3 ADD SWAP1 POP DUP2 DUP2 SUB PUSH1 0x0 DUP4 ADD MSTORE PUSH2 0x224C DUP2 PUSH2 0x2210 JUMP JUMPDEST SWAP1 POP SWAP2 SWAP1 POP JUMP JUMPDEST PUSH1 0x0 PUSH1 0x40 DUP3 ADD SWAP1 POP PUSH2 0x2268 PUSH1 0x0 DUP4 ADD DUP6 PUSH2 0x1CFF JUMP JUMPDEST PUSH2 0x2275 PUSH1 0x20 DUP4 ADD DUP5 PUSH2 0x1B30 JUMP JUMPDEST SWAP4 SWAP3 POP POP POP JUMP JUMPDEST PUSH32 0x496E73756666696369656E742062616C616E6365000000000000000000000000 PUSH1 0x0 DUP3 ADD MSTORE POP JUMP JUMPDEST PUSH1 0x0 PUSH2 0x22B2 PUSH1 0x14 DUP4 PUSH2 0x1EB0 JUMP JUMPDEST SWAP2 POP PUSH2 0x22BD DUP3 PUSH2 0x227C JUMP JUMPDEST PUSH1 0x20 DUP3 ADD SWAP1 POP SWAP2 SWAP1 POP JUMP JUMPDEST PUSH1 0x0 PUSH1 0x20 DUP3 ADD SWAP1 POP DUP2 DUP2 SUB PUSH1 0x0 DUP4 ADD MSTORE PUSH2 0x22E1 DUP2 PUSH2 0x22A5 JUMP JUMPDEST SWAP1 POP SWAP2 SWAP1 POP JUMP JUMPDEST PUSH32 0x496E76616C696420455448207265736572766573000000000000000000000000 PUSH1 0x0 DUP3 ADD MSTORE POP JUMP JUMPDEST PUSH1 0x0 PUSH2 0x231E PUSH1 0x14 DUP4 PUSH2 0x1EB0 JUMP JUMPDEST SWAP2 POP PUSH2 0x2329 DUP3 PUSH2 0x22E8 JUMP JUMPDEST PUSH1 0x20 DUP3 ADD SWAP1 POP SWAP2 SWAP1 POP JUMP JUMPDEST PUSH1 0x0 PUSH1 0x20 DUP3 ADD SWAP1 POP DUP2 DUP2 SUB PUSH1 0x0 DUP4 ADD MSTORE PUSH2 0x234D DUP2 PUSH2 0x2311 JUMP JUMPDEST SWAP1 POP SWAP2 SWAP1 POP JUMP JUMPDEST PUSH1 0x0 PUSH1 0xFF DUP3 AND SWAP1 POP SWAP2 SWAP1 POP JUMP JUMPDEST PUSH2 0x236A DUP2 PUSH2 0x2354 JUMP JUMPDEST DUP2 EQ PUSH2 0x2375 JUMPI PUSH1 0x0 DUP1 REVERT JUMPDEST POP JUMP JUMPDEST PUSH1 0x0 DUP2 MLOAD SWAP1 POP PUSH2 0x2387 DUP2 PUSH2 0x2361 JUMP JUMPDEST SWAP3 SWAP2 POP POP JUMP JUMPDEST PUSH1 0x0 PUSH1 0x20 DUP3 DUP5 SUB SLT ISZERO PUSH2 0x23A3 JUMPI PUSH2 0x23A2 PUSH2 0x1B5A JUMP JUMPDEST JUMPDEST PUSH1 0x0 PUSH2 0x23B1 DUP5 DUP3 DUP6 ADD PUSH2 0x2378 JUMP JUMPDEST SWAP2 POP POP SWAP3 SWAP2 POP POP JUMP JUMPDEST PUSH1 0x0 DUP2 PUSH1 0x1 SHR SWAP1 POP SWAP2 SWAP1 POP JUMP JUMPDEST PUSH1 0x0 DUP1 DUP3 SWAP2 POP DUP4 SWAP1 POP JUMPDEST PUSH1 0x1 DUP6 GT ISZERO PUSH2 0x2411 JUMPI DUP1 DUP7 DIV DUP2 GT ISZERO PUSH2 0x23ED JUMPI PUSH2 0x23EC PUSH2 0x1E3F JUMP JUMPDEST JUMPDEST PUSH1 0x1 DUP6 AND ISZERO PUSH2 0x23FC JUMPI DUP1 DUP3 MUL SWAP2 POP JUMPDEST DUP1 DUP2 MUL SWAP1 POP PUSH2 0x240A DUP6 PUSH2 0x23BA JUMP JUMPDEST SWAP5 POP PUSH2 0x23D1 JUMP JUMPDEST SWAP5 POP SWAP5 SWAP3 POP POP POP JUMP JUMPDEST PUSH1 0x0 DUP3 PUSH2 0x242A JUMPI PUSH1 0x1 SWAP1 POP PUSH2 0x24E6 JUMP JUMPDEST DUP2 PUSH2 0x2438 JUMPI PUSH1 0x0 SWAP1 POP PUSH2 0x24E6 JUMP JUMPDEST DUP2 PUSH1 0x1 DUP2 EQ PUSH2 0x244E JUMPI PUSH1 0x2 DUP2 EQ PUSH2 0x2458 JUMPI PUSH2 0x2487 JUMP JUMPDEST PUSH1 0x1 SWAP2 POP POP PUSH2 0x24E6 JUMP JUMPDEST PUSH1 0xFF DUP5 GT ISZERO PUSH2 0x246A JUMPI PUSH2 0x2469 PUSH2 0x1E3F JUMP JUMPDEST JUMPDEST DUP4 PUSH1 0x2 EXP SWAP2 POP DUP5 DUP3 GT ISZERO PUSH2 0x2481 JUMPI PUSH2 0x2480 PUSH2 0x1E3F JUMP JUMPDEST JUMPDEST POP PUSH2 0x24E6 JUMP JUMPDEST POP PUSH1 0x20 DUP4 LT PUSH2 0x133 DUP4 LT AND PUSH1 0x4E DUP5 LT PUSH1 0xB DUP5 LT AND OR ISZERO PUSH2 0x24BC JUMPI DUP3 DUP3 EXP SWAP1 POP DUP4 DUP2 GT ISZERO PUSH2 0x24B7 JUMPI PUSH2 0x24B6 PUSH2 0x1E3F JUMP JUMPDEST JUMPDEST PUSH2 0x24E6 JUMP JUMPDEST PUSH2 0x24C9 DUP5 DUP5 DUP5 PUSH1 0x1 PUSH2 0x23C7 JUMP JUMPDEST SWAP3 POP SWAP1 POP DUP2 DUP5 DIV DUP2 GT ISZERO PUSH2 0x24E0 JUMPI PUSH2 0x24DF PUSH2 0x1E3F JUMP JUMPDEST JUMPDEST DUP2 DUP2 MUL SWAP1 POP JUMPDEST SWAP4 SWAP3 POP POP POP JUMP JUMPDEST PUSH1 0x0 PUSH2 0x24F8 DUP3 PUSH2 0x1B26 JUMP JUMPDEST SWAP2 POP PUSH2 0x2503 DUP4 PUSH2 0x1B26 JUMP JUMPDEST SWAP3 POP PUSH2 0x2530 PUSH32 0xFFFFFFFFFFFFFFFFFFFFFFFFFFFFFFFFFFFFFFFFFFFFFFFFFFFFFFFFFFFFFFFF DUP5 DUP5 PUSH2 0x241A JUMP JUMPDEST SWAP1 POP SWAP3 SWAP2 POP POP JUMP JUMPDEST PUSH32 0x616D6F756E7430206F7220616D6F756E7431203D203000000000000000000000 PUSH1 0x0 DUP3 ADD MSTORE POP JUMP JUMPDEST PUSH1 0x0 PUSH2 0x256E PUSH1 0x16 DUP4 PUSH2 0x1EB0 JUMP JUMPDEST SWAP2 POP PUSH2 0x2579 DUP3 PUSH2 0x2538 JUMP JUMPDEST PUSH1 0x20 DUP3 ADD SWAP1 POP SWAP2 SWAP1 POP JUMP JUMPDEST PUSH1 0x0 PUSH1 0x20 DUP3 ADD SWAP1 POP DUP2 DUP2 SUB PUSH1 0x0 DUP4 ADD MSTORE PUSH2 0x259D DUP2 PUSH2 0x2561 JUMP JUMPDEST SWAP1 POP SWAP2 SWAP1 POP JUMP INVALID LOG2 PUSH5 0x6970667358 0x22 SLT KECCAK256 PUSH11 0xC14C380B46ADF6DBC81A79 PUSH9 0x1256C2DDEDCBED4A11 LT SWAP15 0x23 0xD4 SWAP4 DUP1 GT 0xAA 0xDF 0xF8 PUSH5 0x736F6C6343 STOP ADDMOD SLT STOP CALLER "
				},
				"gasEstimates": {
					"creation": {
						"codeDepositCost": "1938000",
						"executionCost": "infinite",
						"totalCost": "infinite"
					},
					"external": {
						"ETH_ADDRESS()": "489",
						"addLiquidity(uint256)": "infinite",
						"balanceOf(address)": "2903",
						"getERCPrice()": "infinite",
						"getETHPrice()": "infinite",
						"getInERCPredictOutputETH(uint256)": "infinite",
						"getInETHPredictOutputERC(uint256)": "infinite",
						"my_shars()": "2571",
						"removeAllLiquidity(address)": "infinite",
						"removeLiquidity(address,uint256)": "infinite",
						"removeLiquidity(uint256)": "infinite",
						"reserve0()": "2475",
						"reserve1()": "2541",
						"sharesOf(address)": "2907",
						"swap(uint256)": "infinite",
						"swapTokenForETH(uint256)": "infinite",
						"swapTokenForETH_WithSlipLock(uint256,uint256,uint256)": "infinite",
						"swap_WithSlipLock(uint256,uint256,uint256)": "infinite",
						"token()": "infinite",
						"totalSupply()": "2453"
					},
					"internal": {
						"_burn(address,uint256)": "infinite",
						"_min(uint256,uint256)": "infinite",
						"_mint(address,uint256)": "infinite",
						"_removeLiquidity(address,uint256)": "infinite",
						"_sqrt(uint256)": "infinite",
						"_update(uint256,uint256)": "44241"
					}
				},
				"methodIdentifiers": {
					"ETH_ADDRESS()": "a734f06e",
					"addLiquidity(uint256)": "51c6590a",
					"balanceOf(address)": "70a08231",
					"getERCPrice()": "fcc2ba08",
					"getETHPrice()": "a607a8d9",
					"getInERCPredictOutputETH(uint256)": "dccc5fea",
					"getInETHPredictOutputERC(uint256)": "56c1d7eb",
					"my_shars()": "6cae4f84",
					"removeAllLiquidity(address)": "7a6a5e1b",
					"removeLiquidity(address,uint256)": "a201ccf6",
					"removeLiquidity(uint256)": "9c8f9f23",
					"reserve0()": "443cb4bc",
					"reserve1()": "5a76f25e",
					"sharesOf(address)": "f5eb42dc",
					"swap(uint256)": "94b918de",
					"swapTokenForETH(uint256)": "6fb84b74",
					"swapTokenForETH_WithSlipLock(uint256,uint256,uint256)": "dc2d845b",
					"swap_WithSlipLock(uint256,uint256,uint256)": "62279b65",
					"token()": "fc0c546a",
					"totalSupply()": "18160ddd"
				}
			},
			"storageLayout": {
				"storage": [
					{
						"astId": 1583,
						"contract": "W6/simpleAMM/src/simpleAMMV6.sol:AMM",
						"label": "developer",
						"offset": 0,
						"slot": "0",
						"type": "t_address"
					},
					{
						"astId": 1594,
						"contract": "W6/simpleAMM/src/simpleAMMV6.sol:AMM",
						"label": "reserve0",
						"offset": 0,
						"slot": "1",
						"type": "t_uint256"
					},
					{
						"astId": 1596,
						"contract": "W6/simpleAMM/src/simpleAMMV6.sol:AMM",
						"label": "reserve1",
						"offset": 0,
						"slot": "2",
						"type": "t_uint256"
					},
					{
						"astId": 1598,
						"contract": "W6/simpleAMM/src/simpleAMMV6.sol:AMM",
						"label": "totalSupply",
						"offset": 0,
						"slot": "3",
						"type": "t_uint256"
					},
					{
						"astId": 1602,
						"contract": "W6/simpleAMM/src/simpleAMMV6.sol:AMM",
						"label": "balanceOf",
						"offset": 0,
						"slot": "4",
						"type": "t_mapping(t_address,t_uint256)"
					}
				],
				"types": {
					"t_address": {
						"encoding": "inplace",
						"label": "address",
						"numberOfBytes": "20"
					},
					"t_mapping(t_address,t_uint256)": {
						"encoding": "mapping",
						"key": "t_address",
						"label": "mapping(address => uint256)",
						"numberOfBytes": "32",
						"value": "t_uint256"
					},
					"t_uint256": {
						"encoding": "inplace",
						"label": "uint256",
						"numberOfBytes": "32"
					}
				}
			},
			"userdoc": {
				"kind": "user",
				"methods": {},
				"version": 1
			}
		}
	}
}