{
	"W6/simpleAMM/src/simpleAMMV5.sol": {
		"AMM": {
			"abi": [
				{
					"inputs": [
						{
							"internalType": "address",
							"name": "_token",
							"type": "address"
						}
					],
					"stateMutability": "nonpayable",
					"type": "constructor"
				},
				{
					"inputs": [],
					"name": "ETH_ADDRESS",
					"outputs": [
						{
							"internalType": "address",
							"name": "",
							"type": "address"
						}
					],
					"stateMutability": "view",
					"type": "function"
				},
				{
					"inputs": [
						{
							"internalType": "uint256",
							"name": "_amount1",
							"type": "uint256"
						}
					],
					"name": "addLiquidity",
					"outputs": [
						{
							"internalType": "uint256",
							"name": "shares",
							"type": "uint256"
						}
					],
					"stateMutability": "payable",
					"type": "function"
				},
				{
					"inputs": [
						{
							"internalType": "address",
							"name": "",
							"type": "address"
						}
					],
					"name": "balanceOf",
					"outputs": [
						{
							"internalType": "uint256",
							"name": "",
							"type": "uint256"
						}
					],
					"stateMutability": "view",
					"type": "function"
				},
				{
					"inputs": [
						{
							"internalType": "uint256",
							"name": "amountIn",
							"type": "uint256"
						}
					],
					"name": "calculateSlippage",
					"outputs": [
						{
							"internalType": "uint256",
							"name": "",
							"type": "uint256"
						}
					],
					"stateMutability": "view",
					"type": "function"
				},
				{
					"inputs": [],
					"name": "getERCPrice",
					"outputs": [
						{
							"internalType": "uint256",
							"name": "",
							"type": "uint256"
						}
					],
					"stateMutability": "view",
					"type": "function"
				},
				{
					"inputs": [],
					"name": "getETHPrice",
					"outputs": [
						{
							"internalType": "uint256",
							"name": "",
							"type": "uint256"
						}
					],
					"stateMutability": "view",
					"type": "function"
				},
				{
					"inputs": [
						{
							"internalType": "uint256",
							"name": "_amount",
							"type": "uint256"
						}
					],
					"name": "getPredictOutputERC",
					"outputs": [
						{
							"internalType": "uint256",
							"name": "",
							"type": "uint256"
						}
					],
					"stateMutability": "view",
					"type": "function"
				},
				{
					"inputs": [
						{
							"internalType": "uint256",
							"name": "_amount",
							"type": "uint256"
						}
					],
					"name": "getPredictOutputETH",
					"outputs": [
						{
							"internalType": "uint256",
							"name": "",
							"type": "uint256"
						}
					],
					"stateMutability": "view",
					"type": "function"
				},
				{
					"inputs": [],
					"name": "my_shars",
					"outputs": [
						{
							"internalType": "uint256",
							"name": "",
							"type": "uint256"
						}
					],
					"stateMutability": "view",
					"type": "function"
				},
				{
					"inputs": [
						{
							"internalType": "address",
							"name": "_user",
							"type": "address"
						}
					],
					"name": "removeAllLiquidity",
					"outputs": [
						{
							"internalType": "uint256",
							"name": "amount0",
							"type": "uint256"
						},
						{
							"internalType": "uint256",
							"name": "amount1",
							"type": "uint256"
						}
					],
					"stateMutability": "nonpayable",
					"type": "function"
				},
				{
					"inputs": [
						{
							"internalType": "uint256",
							"name": "_shares",
							"type": "uint256"
						}
					],
					"name": "removeLiquidity",
					"outputs": [
						{
							"internalType": "uint256",
							"name": "amount0",
							"type": "uint256"
						},
						{
							"internalType": "uint256",
							"name": "amount1",
							"type": "uint256"
						}
					],
					"stateMutability": "nonpayable",
					"type": "function"
				},
				{
					"inputs": [
						{
							"internalType": "address",
							"name": "_user",
							"type": "address"
						},
						{
							"internalType": "uint256",
							"name": "_shares",
							"type": "uint256"
						}
					],
					"name": "removeLiquidity",
					"outputs": [
						{
							"internalType": "uint256",
							"name": "amount0",
							"type": "uint256"
						},
						{
							"internalType": "uint256",
							"name": "amount1",
							"type": "uint256"
						}
					],
					"stateMutability": "nonpayable",
					"type": "function"
				},
				{
					"inputs": [],
					"name": "reserve0",
					"outputs": [
						{
							"internalType": "uint256",
							"name": "",
							"type": "uint256"
						}
					],
					"stateMutability": "view",
					"type": "function"
				},
				{
					"inputs": [],
					"name": "reserve1",
					"outputs": [
						{
							"internalType": "uint256",
							"name": "",
							"type": "uint256"
						}
					],
					"stateMutability": "view",
					"type": "function"
				},
				{
					"inputs": [
						{
							"internalType": "address",
							"name": "_user",
							"type": "address"
						}
					],
					"name": "sharesOf",
					"outputs": [
						{
							"internalType": "uint256",
							"name": "",
							"type": "uint256"
						}
					],
					"stateMutability": "view",
					"type": "function"
				},
				{
					"inputs": [
						{
							"internalType": "uint256",
							"name": "_amountIn",
							"type": "uint256"
						}
					],
					"name": "swap",
					"outputs": [
						{
							"internalType": "uint256",
							"name": "amountOut",
							"type": "uint256"
						}
					],
					"stateMutability": "payable",
					"type": "function"
				},
				{
					"inputs": [
						{
							"internalType": "uint256",
							"name": "_amountIn",
							"type": "uint256"
						}
					],
					"name": "swapTokenForETH",
					"outputs": [
						{
							"internalType": "uint256",
							"name": "amountOut",
							"type": "uint256"
						}
					],
					"stateMutability": "nonpayable",
					"type": "function"
				},
				{
					"inputs": [],
					"name": "token",
					"outputs": [
						{
							"internalType": "contract IERC20",
							"name": "",
							"type": "address"
						}
					],
					"stateMutability": "view",
					"type": "function"
				},
				{
					"inputs": [],
					"name": "totalSupply",
					"outputs": [
						{
							"internalType": "uint256",
							"name": "",
							"type": "uint256"
						}
					],
					"stateMutability": "view",
					"type": "function"
				}
			],
			"devdoc": {
				"kind": "dev",
				"methods": {},
				"version": 1
			},
			"evm": {
				"assembly": "    /* \"W6/simpleAMM/src/simpleAMMV5.sol\":645:7929  contract AMM {... */\n  mstore(0x40, 0xa0)\n    /* \"W6/simpleAMM/src/simpleAMMV5.sol\":906:975  constructor(address _token) {... */\n  callvalue\n  dup1\n  iszero\n  tag_1\n  jumpi\n  0x00\n  dup1\n  revert\ntag_1:\n  pop\n  mload(0x40)\n  sub(codesize, bytecodeSize)\n  dup1\n  bytecodeSize\n  dup4\n  codecopy\n  dup2\n  dup2\n  add\n  0x40\n  mstore\n  dup2\n  add\n  swap1\n  tag_2\n  swap2\n  swap1\n  tag_3\n  jump\t// in\ntag_2:\n    /* \"W6/simpleAMM/src/simpleAMMV5.sol\":960:966  _token */\n  dup1\n    /* \"W6/simpleAMM/src/simpleAMMV5.sol\":945:967  token = IERC20(_token) */\n  0xffffffffffffffffffffffffffffffffffffffff\n  and\n  0x80\n  dup2\n  0xffffffffffffffffffffffffffffffffffffffff\n  and\n  dup2\n  mstore\n  pop\n  pop\n    /* \"W6/simpleAMM/src/simpleAMMV5.sol\":906:975  constructor(address _token) {... */\n  pop\n    /* \"W6/simpleAMM/src/simpleAMMV5.sol\":645:7929  contract AMM {... */\n  jump(tag_6)\n    /* \"#utility.yul\":88:205   */\ntag_8:\n    /* \"#utility.yul\":197:198   */\n  0x00\n    /* \"#utility.yul\":194:195   */\n  dup1\n    /* \"#utility.yul\":187:199   */\n  revert\n    /* \"#utility.yul\":334:460   */\ntag_10:\n    /* \"#utility.yul\":371:378   */\n  0x00\n    /* \"#utility.yul\":411:453   */\n  0xffffffffffffffffffffffffffffffffffffffff\n    /* \"#utility.yul\":404:409   */\n  dup3\n    /* \"#utility.yul\":400:454   */\n  and\n    /* \"#utility.yul\":389:454   */\n  swap1\n  pop\n    /* \"#utility.yul\":334:460   */\n  swap2\n  swap1\n  pop\n  jump\t// out\n    /* \"#utility.yul\":466:562   */\ntag_11:\n    /* \"#utility.yul\":503:510   */\n  0x00\n    /* \"#utility.yul\":532:556   */\n  tag_20\n    /* \"#utility.yul\":550:555   */\n  dup3\n    /* \"#utility.yul\":532:556   */\n  tag_10\n  jump\t// in\ntag_20:\n    /* \"#utility.yul\":521:556   */\n  swap1\n  pop\n    /* \"#utility.yul\":466:562   */\n  swap2\n  swap1\n  pop\n  jump\t// out\n    /* \"#utility.yul\":568:690   */\ntag_12:\n    /* \"#utility.yul\":641:665   */\n  tag_22\n    /* \"#utility.yul\":659:664   */\n  dup2\n    /* \"#utility.yul\":641:665   */\n  tag_11\n  jump\t// in\ntag_22:\n    /* \"#utility.yul\":634:639   */\n  dup2\n    /* \"#utility.yul\":631:666   */\n  eq\n    /* \"#utility.yul\":621:684   */\n  tag_23\n  jumpi\n    /* \"#utility.yul\":680:681   */\n  0x00\n    /* \"#utility.yul\":677:678   */\n  dup1\n    /* \"#utility.yul\":670:682   */\n  revert\n    /* \"#utility.yul\":621:684   */\ntag_23:\n    /* \"#utility.yul\":568:690   */\n  pop\n  jump\t// out\n    /* \"#utility.yul\":696:839   */\ntag_13:\n    /* \"#utility.yul\":753:758   */\n  0x00\n    /* \"#utility.yul\":784:790   */\n  dup2\n    /* \"#utility.yul\":778:791   */\n  mload\n    /* \"#utility.yul\":769:791   */\n  swap1\n  pop\n    /* \"#utility.yul\":800:833   */\n  tag_25\n    /* \"#utility.yul\":827:832   */\n  dup2\n    /* \"#utility.yul\":800:833   */\n  tag_12\n  jump\t// in\ntag_25:\n    /* \"#utility.yul\":696:839   */\n  swap3\n  swap2\n  pop\n  pop\n  jump\t// out\n    /* \"#utility.yul\":845:1196   */\ntag_3:\n    /* \"#utility.yul\":915:921   */\n  0x00\n    /* \"#utility.yul\":964:966   */\n  0x20\n    /* \"#utility.yul\":952:961   */\n  dup3\n    /* \"#utility.yul\":943:950   */\n  dup5\n    /* \"#utility.yul\":939:962   */\n  sub\n    /* \"#utility.yul\":935:967   */\n  slt\n    /* \"#utility.yul\":932:1051   */\n  iszero\n  tag_27\n  jumpi\n    /* \"#utility.yul\":970:1049   */\n  tag_28\n  tag_8\n  jump\t// in\ntag_28:\n    /* \"#utility.yul\":932:1051   */\ntag_27:\n    /* \"#utility.yul\":1090:1091   */\n  0x00\n    /* \"#utility.yul\":1115:1179   */\n  tag_29\n    /* \"#utility.yul\":1171:1178   */\n  dup5\n    /* \"#utility.yul\":1162:1168   */\n  dup3\n    /* \"#utility.yul\":1151:1160   */\n  dup6\n    /* \"#utility.yul\":1147:1169   */\n  add\n    /* \"#utility.yul\":1115:1179   */\n  tag_13\n  jump\t// in\ntag_29:\n    /* \"#utility.yul\":1105:1179   */\n  swap2\n  pop\n    /* \"#utility.yul\":1061:1189   */\n  pop\n    /* \"#utility.yul\":845:1196   */\n  swap3\n  swap2\n  pop\n  pop\n  jump\t// out\n    /* \"W6/simpleAMM/src/simpleAMMV5.sol\":645:7929  contract AMM {... */\ntag_6:\n  mload(0x80)\n  codecopy(0x00, dataOffset(sub_0), dataSize(sub_0))\n  0x00\n  assignImmutable(\"0xb86663931131c5934d75630c23dd4e1bbff32671fc4d6ffaa5c4951268e1f0ba\")\n  return(0x00, dataSize(sub_0))\nstop\n\nsub_0: assembly {\n        /* \"W6/simpleAMM/src/simpleAMMV5.sol\":645:7929  contract AMM {... */\n      mstore(0x40, 0x80)\n      jumpi(tag_1, lt(calldatasize, 0x04))\n      shr(0xe0, calldataload(0x00))\n      dup1\n      0x7a6a5e1b\n      gt\n      tag_21\n      jumpi\n      dup1\n      0xa734f06e\n      gt\n      tag_22\n      jumpi\n      dup1\n      0xa734f06e\n      eq\n      tag_16\n      jumpi\n      dup1\n      0xe1e2153e\n      eq\n      tag_17\n      jumpi\n      dup1\n      0xf5eb42dc\n      eq\n      tag_18\n      jumpi\n      dup1\n      0xfc0c546a\n      eq\n      tag_19\n      jumpi\n      dup1\n      0xfcc2ba08\n      eq\n      tag_20\n      jumpi\n      jump(tag_1)\n    tag_22:\n      dup1\n      0x7a6a5e1b\n      eq\n      tag_11\n      jumpi\n      dup1\n      0x94b918de\n      eq\n      tag_12\n      jumpi\n      dup1\n      0x9c8f9f23\n      eq\n      tag_13\n      jumpi\n      dup1\n      0xa201ccf6\n      eq\n      tag_14\n      jumpi\n      dup1\n      0xa607a8d9\n      eq\n      tag_15\n      jumpi\n      jump(tag_1)\n    tag_21:\n      dup1\n      0x5628570c\n      gt\n      tag_23\n      jumpi\n      dup1\n      0x5628570c\n      eq\n      tag_6\n      jumpi\n      dup1\n      0x5a76f25e\n      eq\n      tag_7\n      jumpi\n      dup1\n      0x6cae4f84\n      eq\n      tag_8\n      jumpi\n      dup1\n      0x6fb84b74\n      eq\n      tag_9\n      jumpi\n      dup1\n      0x70a08231\n      eq\n      tag_10\n      jumpi\n      jump(tag_1)\n    tag_23:\n      dup1\n      0x18160ddd\n      eq\n      tag_2\n      jumpi\n      dup1\n      0x3e592b04\n      eq\n      tag_3\n      jumpi\n      dup1\n      0x443cb4bc\n      eq\n      tag_4\n      jumpi\n      dup1\n      0x51c6590a\n      eq\n      tag_5\n      jumpi\n    tag_1:\n      0x00\n      dup1\n      revert\n        /* \"W6/simpleAMM/src/simpleAMMV5.sol\":820:846  uint256 public totalSupply */\n    tag_2:\n      callvalue\n      dup1\n      iszero\n      tag_24\n      jumpi\n      0x00\n      dup1\n      revert\n    tag_24:\n      pop\n      tag_25\n      tag_26\n      jump\t// in\n    tag_25:\n      mload(0x40)\n      tag_27\n      swap2\n      swap1\n      tag_28\n      jump\t// in\n    tag_27:\n      mload(0x40)\n      dup1\n      swap2\n      sub\n      swap1\n      return\n        /* \"W6/simpleAMM/src/simpleAMMV5.sol\":6541:6844  function getPredictOutputETH(uint256 _amount) public view returns (uint256) {... */\n    tag_3:\n      callvalue\n      dup1\n      iszero\n      tag_29\n      jumpi\n      0x00\n      dup1\n      revert\n    tag_29:\n      pop\n      tag_30\n      0x04\n      dup1\n      calldatasize\n      sub\n      dup2\n      add\n      swap1\n      tag_31\n      swap2\n      swap1\n      tag_32\n      jump\t// in\n    tag_31:\n      tag_33\n      jump\t// in\n    tag_30:\n      mload(0x40)\n      tag_34\n      swap2\n      swap1\n      tag_28\n      jump\t// in\n    tag_34:\n      mload(0x40)\n      dup1\n      swap2\n      sub\n      swap1\n      return\n        /* \"W6/simpleAMM/src/simpleAMMV5.sol\":758:781  uint256 public reserve0 */\n    tag_4:\n      callvalue\n      dup1\n      iszero\n      tag_35\n      jumpi\n      0x00\n      dup1\n      revert\n    tag_35:\n      pop\n      tag_36\n      tag_37\n      jump\t// in\n    tag_36:\n      mload(0x40)\n      tag_38\n      swap2\n      swap1\n      tag_28\n      jump\t// in\n    tag_38:\n      mload(0x40)\n      dup1\n      swap2\n      sub\n      swap1\n      return\n        /* \"W6/simpleAMM/src/simpleAMMV5.sol\":2338:4005  function addLiquidity(uint256 _amount1) external payable returns (uint256 shares) {... */\n    tag_5:\n      tag_39\n      0x04\n      dup1\n      calldatasize\n      sub\n      dup2\n      add\n      swap1\n      tag_40\n      swap2\n      swap1\n      tag_32\n      jump\t// in\n    tag_40:\n      tag_41\n      jump\t// in\n    tag_39:\n      mload(0x40)\n      tag_42\n      swap2\n      swap1\n      tag_28\n      jump\t// in\n    tag_42:\n      mload(0x40)\n      dup1\n      swap2\n      sub\n      swap1\n      return\n        /* \"W6/simpleAMM/src/simpleAMMV5.sol\":6850:7918  function calculateSlippage(uint256 amountIn) public view returns (uint256) {... */\n    tag_6:\n      callvalue\n      dup1\n      iszero\n      tag_43\n      jumpi\n      0x00\n      dup1\n      revert\n    tag_43:\n      pop\n      tag_44\n      0x04\n      dup1\n      calldatasize\n      sub\n      dup2\n      add\n      swap1\n      tag_45\n      swap2\n      swap1\n      tag_32\n      jump\t// in\n    tag_45:\n      tag_46\n      jump\t// in\n    tag_44:\n      mload(0x40)\n      tag_47\n      swap2\n      swap1\n      tag_28\n      jump\t// in\n    tag_47:\n      mload(0x40)\n      dup1\n      swap2\n      sub\n      swap1\n      return\n        /* \"W6/simpleAMM/src/simpleAMMV5.sol\":788:811  uint256 public reserve1 */\n    tag_7:\n      callvalue\n      dup1\n      iszero\n      tag_48\n      jumpi\n      0x00\n      dup1\n      revert\n    tag_48:\n      pop\n      tag_49\n      tag_50\n      jump\t// in\n    tag_49:\n      mload(0x40)\n      tag_51\n      swap2\n      swap1\n      tag_28\n      jump\t// in\n    tag_51:\n      mload(0x40)\n      dup1\n      swap2\n      sub\n      swap1\n      return\n        /* \"W6/simpleAMM/src/simpleAMMV5.sol\":5219:5314  function my_shars() public view returns(uint256){... */\n    tag_8:\n      callvalue\n      dup1\n      iszero\n      tag_52\n      jumpi\n      0x00\n      dup1\n      revert\n    tag_52:\n      pop\n      tag_53\n      tag_54\n      jump\t// in\n    tag_53:\n      mload(0x40)\n      tag_55\n      swap2\n      swap1\n      tag_28\n      jump\t// in\n    tag_55:\n      mload(0x40)\n      dup1\n      swap2\n      sub\n      swap1\n      return\n        /* \"W6/simpleAMM/src/simpleAMMV5.sol\":1829:2330  function swapTokenForETH(uint256 _amountIn) public returns (uint256 amountOut) {... */\n    tag_9:\n      callvalue\n      dup1\n      iszero\n      tag_56\n      jumpi\n      0x00\n      dup1\n      revert\n    tag_56:\n      pop\n      tag_57\n      0x04\n      dup1\n      calldatasize\n      sub\n      dup2\n      add\n      swap1\n      tag_58\n      swap2\n      swap1\n      tag_32\n      jump\t// in\n    tag_58:\n      tag_59\n      jump\t// in\n    tag_57:\n      mload(0x40)\n      tag_60\n      swap2\n      swap1\n      tag_28\n      jump\t// in\n    tag_60:\n      mload(0x40)\n      dup1\n      swap2\n      sub\n      swap1\n      return\n        /* \"W6/simpleAMM/src/simpleAMMV5.sol\":853:897  mapping(address => uint256) public balanceOf */\n    tag_10:\n      callvalue\n      dup1\n      iszero\n      tag_61\n      jumpi\n      0x00\n      dup1\n      revert\n    tag_61:\n      pop\n      tag_62\n      0x04\n      dup1\n      calldatasize\n      sub\n      dup2\n      add\n      swap1\n      tag_63\n      swap2\n      swap1\n      tag_64\n      jump\t// in\n    tag_63:\n      tag_65\n      jump\t// in\n    tag_62:\n      mload(0x40)\n      tag_66\n      swap2\n      swap1\n      tag_28\n      jump\t// in\n    tag_66:\n      mload(0x40)\n      dup1\n      swap2\n      sub\n      swap1\n      return\n        /* \"W6/simpleAMM/src/simpleAMMV5.sol\":4013:4174  function removeAllLiquidity(address _user) external returns (uint256 amount0, uint256 amount1) {... */\n    tag_11:\n      callvalue\n      dup1\n      iszero\n      tag_67\n      jumpi\n      0x00\n      dup1\n      revert\n    tag_67:\n      pop\n      tag_68\n      0x04\n      dup1\n      calldatasize\n      sub\n      dup2\n      add\n      swap1\n      tag_69\n      swap2\n      swap1\n      tag_64\n      jump\t// in\n    tag_69:\n      tag_70\n      jump\t// in\n    tag_68:\n      mload(0x40)\n      tag_71\n      swap3\n      swap2\n      swap1\n      tag_72\n      jump\t// in\n    tag_71:\n      mload(0x40)\n      dup1\n      swap2\n      sub\n      swap1\n      return\n        /* \"W6/simpleAMM/src/simpleAMMV5.sol\":1404:1823  function swap(uint256 _amountIn) public payable returns (uint256 amountOut) {... */\n    tag_12:\n      tag_73\n      0x04\n      dup1\n      calldatasize\n      sub\n      dup2\n      add\n      swap1\n      tag_74\n      swap2\n      swap1\n      tag_32\n      jump\t// in\n    tag_74:\n      tag_75\n      jump\t// in\n    tag_73:\n      mload(0x40)\n      tag_76\n      swap2\n      swap1\n      tag_28\n      jump\t// in\n    tag_76:\n      mload(0x40)\n      dup1\n      swap2\n      sub\n      swap1\n      return\n        /* \"W6/simpleAMM/src/simpleAMMV5.sol\":4180:4413  function removeLiquidity(uint256 _shares) external returns (uint256 amount0, uint256 amount1) {... */\n    tag_13:\n      callvalue\n      dup1\n      iszero\n      tag_77\n      jumpi\n      0x00\n      dup1\n      revert\n    tag_77:\n      pop\n      tag_78\n      0x04\n      dup1\n      calldatasize\n      sub\n      dup2\n      add\n      swap1\n      tag_79\n      swap2\n      swap1\n      tag_32\n      jump\t// in\n    tag_79:\n      tag_80\n      jump\t// in\n    tag_78:\n      mload(0x40)\n      tag_81\n      swap3\n      swap2\n      swap1\n      tag_72\n      jump\t// in\n    tag_81:\n      mload(0x40)\n      dup1\n      swap2\n      sub\n      swap1\n      return\n        /* \"W6/simpleAMM/src/simpleAMMV5.sol\":4421:4659  function removeLiquidity(address _user, uint256 _shares) external returns (uint256 amount0, uint256 amount1) {... */\n    tag_14:\n      callvalue\n      dup1\n      iszero\n      tag_82\n      jumpi\n      0x00\n      dup1\n      revert\n    tag_82:\n      pop\n      tag_83\n      0x04\n      dup1\n      calldatasize\n      sub\n      dup2\n      add\n      swap1\n      tag_84\n      swap2\n      swap1\n      tag_85\n      jump\t// in\n    tag_84:\n      tag_86\n      jump\t// in\n    tag_83:\n      mload(0x40)\n      tag_87\n      swap3\n      swap2\n      swap1\n      tag_72\n      jump\t// in\n    tag_87:\n      mload(0x40)\n      dup1\n      swap2\n      sub\n      swap1\n      return\n        /* \"W6/simpleAMM/src/simpleAMMV5.sol\":5854:6035  function getETHPrice() public view returns (uint256) {... */\n    tag_15:\n      callvalue\n      dup1\n      iszero\n      tag_88\n      jumpi\n      0x00\n      dup1\n      revert\n    tag_88:\n      pop\n      tag_89\n      tag_90\n      jump\t// in\n    tag_89:\n      mload(0x40)\n      tag_91\n      swap2\n      swap1\n      tag_28\n      jump\t// in\n    tag_91:\n      mload(0x40)\n      dup1\n      swap2\n      sub\n      swap1\n      return\n        /* \"W6/simpleAMM/src/simpleAMMV5.sol\":701:749  address public constant ETH_ADDRESS = address(0) */\n    tag_16:\n      callvalue\n      dup1\n      iszero\n      tag_92\n      jumpi\n      0x00\n      dup1\n      revert\n    tag_92:\n      pop\n      tag_93\n      tag_94\n      jump\t// in\n    tag_93:\n      mload(0x40)\n      tag_95\n      swap2\n      swap1\n      tag_96\n      jump\t// in\n    tag_95:\n      mload(0x40)\n      dup1\n      swap2\n      sub\n      swap1\n      return\n        /* \"W6/simpleAMM/src/simpleAMMV5.sol\":6230:6535  function getPredictOutputERC(uint256 _amount) public view returns (uint256) {... */\n    tag_17:\n      callvalue\n      dup1\n      iszero\n      tag_97\n      jumpi\n      0x00\n      dup1\n      revert\n    tag_97:\n      pop\n      tag_98\n      0x04\n      dup1\n      calldatasize\n      sub\n      dup2\n      add\n      swap1\n      tag_99\n      swap2\n      swap1\n      tag_32\n      jump\t// in\n    tag_99:\n      tag_100\n      jump\t// in\n    tag_98:\n      mload(0x40)\n      tag_101\n      swap2\n      swap1\n      tag_28\n      jump\t// in\n    tag_101:\n      mload(0x40)\n      dup1\n      swap2\n      sub\n      swap1\n      return\n        /* \"W6/simpleAMM/src/simpleAMMV5.sol\":5320:5423  function sharesOf(address _user) public view returns(uint256){... */\n    tag_18:\n      callvalue\n      dup1\n      iszero\n      tag_102\n      jumpi\n      0x00\n      dup1\n      revert\n    tag_102:\n      pop\n      tag_103\n      0x04\n      dup1\n      calldatasize\n      sub\n      dup2\n      add\n      swap1\n      tag_104\n      swap2\n      swap1\n      tag_64\n      jump\t// in\n    tag_104:\n      tag_105\n      jump\t// in\n    tag_103:\n      mload(0x40)\n      tag_106\n      swap2\n      swap1\n      tag_28\n      jump\t// in\n    tag_106:\n      mload(0x40)\n      dup1\n      swap2\n      sub\n      swap1\n      return\n        /* \"W6/simpleAMM/src/simpleAMMV5.sol\":665:694  IERC20 public immutable token */\n    tag_19:\n      callvalue\n      dup1\n      iszero\n      tag_107\n      jumpi\n      0x00\n      dup1\n      revert\n    tag_107:\n      pop\n      tag_108\n      tag_109\n      jump\t// in\n    tag_108:\n      mload(0x40)\n      tag_110\n      swap2\n      swap1\n      tag_111\n      jump\t// in\n    tag_110:\n      mload(0x40)\n      dup1\n      swap2\n      sub\n      swap1\n      return\n        /* \"W6/simpleAMM/src/simpleAMMV5.sol\":6041:6224  function getERCPrice() public view returns (uint256) {... */\n    tag_20:\n      callvalue\n      dup1\n      iszero\n      tag_112\n      jumpi\n      0x00\n      dup1\n      revert\n    tag_112:\n      pop\n      tag_113\n      tag_114\n      jump\t// in\n    tag_113:\n      mload(0x40)\n      tag_115\n      swap2\n      swap1\n      tag_28\n      jump\t// in\n    tag_115:\n      mload(0x40)\n      dup1\n      swap2\n      sub\n      swap1\n      return\n        /* \"W6/simpleAMM/src/simpleAMMV5.sol\":820:846  uint256 public totalSupply */\n    tag_26:\n      sload(0x02)\n      dup2\n      jump\t// out\n        /* \"W6/simpleAMM/src/simpleAMMV5.sol\":6541:6844  function getPredictOutputETH(uint256 _amount) public view returns (uint256) {... */\n    tag_33:\n        /* \"W6/simpleAMM/src/simpleAMMV5.sol\":6608:6615  uint256 */\n      0x00\n        /* \"W6/simpleAMM/src/simpleAMMV5.sol\":6647:6648  0 */\n      dup1\n        /* \"W6/simpleAMM/src/simpleAMMV5.sol\":6636:6644  reserve0 */\n      sload(0x00)\n        /* \"W6/simpleAMM/src/simpleAMMV5.sol\":6636:6648  reserve0 > 0 */\n      gt\n        /* \"W6/simpleAMM/src/simpleAMMV5.sol\":6636:6664  reserve0 > 0 && reserve1 > 0 */\n      dup1\n      iszero\n      tag_117\n      jumpi\n      pop\n        /* \"W6/simpleAMM/src/simpleAMMV5.sol\":6663:6664  0 */\n      0x00\n        /* \"W6/simpleAMM/src/simpleAMMV5.sol\":6652:6660  reserve1 */\n      sload(0x01)\n        /* \"W6/simpleAMM/src/simpleAMMV5.sol\":6652:6664  reserve1 > 0 */\n      gt\n        /* \"W6/simpleAMM/src/simpleAMMV5.sol\":6636:6664  reserve0 > 0 && reserve1 > 0 */\n    tag_117:\n        /* \"W6/simpleAMM/src/simpleAMMV5.sol\":6636:6677  reserve0 > 0 && reserve1 > 0 && _amount>0 */\n      dup1\n      iszero\n      tag_118\n      jumpi\n      pop\n        /* \"W6/simpleAMM/src/simpleAMMV5.sol\":6676:6677  0 */\n      0x00\n        /* \"W6/simpleAMM/src/simpleAMMV5.sol\":6668:6675  _amount */\n      dup3\n        /* \"W6/simpleAMM/src/simpleAMMV5.sol\":6668:6677  _amount>0 */\n      gt\n        /* \"W6/simpleAMM/src/simpleAMMV5.sol\":6636:6677  reserve0 > 0 && reserve1 > 0 && _amount>0 */\n    tag_118:\n        /* \"W6/simpleAMM/src/simpleAMMV5.sol\":6628:6702  require(reserve0 > 0 && reserve1 > 0 && _amount>0, \"Invalid ETH reserves\") */\n      tag_119\n      jumpi\n      mload(0x40)\n      0x08c379a000000000000000000000000000000000000000000000000000000000\n      dup2\n      mstore\n      0x04\n      add\n      tag_120\n      swap1\n      tag_121\n      jump\t// in\n    tag_120:\n      mload(0x40)\n      dup1\n      swap2\n      sub\n      swap1\n      revert\n    tag_119:\n        /* \"W6/simpleAMM/src/simpleAMMV5.sol\":6713:6736  uint256 amountInWithFee */\n      0x00\n        /* \"W6/simpleAMM/src/simpleAMMV5.sol\":6755:6759  1000 */\n      0x03e8\n        /* \"W6/simpleAMM/src/simpleAMMV5.sol\":6748:6751  997 */\n      0x03e5\n        /* \"W6/simpleAMM/src/simpleAMMV5.sol\":6738:6745  _amount */\n      dup5\n        /* \"W6/simpleAMM/src/simpleAMMV5.sol\":6738:6751  _amount * 997 */\n      tag_122\n      swap2\n      swap1\n      tag_123\n      jump\t// in\n    tag_122:\n        /* \"W6/simpleAMM/src/simpleAMMV5.sol\":6737:6759  (_amount * 997) / 1000 */\n      tag_124\n      swap2\n      swap1\n      tag_125\n      jump\t// in\n    tag_124:\n        /* \"W6/simpleAMM/src/simpleAMMV5.sol\":6713:6759  uint256 amountInWithFee=(_amount * 997) / 1000 */\n      swap1\n      pop\n        /* \"W6/simpleAMM/src/simpleAMMV5.sol\":6820:6835  amountInWithFee */\n      dup1\n        /* \"W6/simpleAMM/src/simpleAMMV5.sol\":6809:6817  reserve1 */\n      sload(0x01)\n        /* \"W6/simpleAMM/src/simpleAMMV5.sol\":6809:6835  reserve1 + amountInWithFee */\n      tag_126\n      swap2\n      swap1\n      tag_127\n      jump\t// in\n    tag_126:\n        /* \"W6/simpleAMM/src/simpleAMMV5.sol\":6789:6804  amountInWithFee */\n      dup2\n        /* \"W6/simpleAMM/src/simpleAMMV5.sol\":6778:6786  reserve0 */\n      sload(0x00)\n        /* \"W6/simpleAMM/src/simpleAMMV5.sol\":6778:6804  reserve0 * amountInWithFee */\n      tag_128\n      swap2\n      swap1\n      tag_123\n      jump\t// in\n    tag_128:\n        /* \"W6/simpleAMM/src/simpleAMMV5.sol\":6777:6836  (reserve0 * amountInWithFee) / (reserve1 + amountInWithFee) */\n      tag_129\n      swap2\n      swap1\n      tag_125\n      jump\t// in\n    tag_129:\n        /* \"W6/simpleAMM/src/simpleAMMV5.sol\":6770:6836  return (reserve0 * amountInWithFee) / (reserve1 + amountInWithFee) */\n      swap2\n      pop\n      pop\n        /* \"W6/simpleAMM/src/simpleAMMV5.sol\":6541:6844  function getPredictOutputETH(uint256 _amount) public view returns (uint256) {... */\n      swap2\n      swap1\n      pop\n      jump\t// out\n        /* \"W6/simpleAMM/src/simpleAMMV5.sol\":758:781  uint256 public reserve0 */\n    tag_37:\n      sload(0x00)\n      dup2\n      jump\t// out\n        /* \"W6/simpleAMM/src/simpleAMMV5.sol\":2338:4005  function addLiquidity(uint256 _amount1) external payable returns (uint256 shares) {... */\n    tag_41:\n        /* \"W6/simpleAMM/src/simpleAMMV5.sol\":2404:2418  uint256 shares */\n      0x00\n        /* \"W6/simpleAMM/src/simpleAMMV5.sol\":2482:2487  token */\n      immutable(\"0xb86663931131c5934d75630c23dd4e1bbff32671fc4d6ffaa5c4951268e1f0ba\")\n        /* \"W6/simpleAMM/src/simpleAMMV5.sol\":2482:2500  token.transferFrom */\n      0xffffffffffffffffffffffffffffffffffffffff\n      and\n      0x23b872dd\n        /* \"W6/simpleAMM/src/simpleAMMV5.sol\":2501:2511  msg.sender */\n      caller\n        /* \"W6/simpleAMM/src/simpleAMMV5.sol\":2521:2525  this */\n      address\n        /* \"W6/simpleAMM/src/simpleAMMV5.sol\":2528:2536  _amount1 */\n      dup6\n        /* \"W6/simpleAMM/src/simpleAMMV5.sol\":2482:2537  token.transferFrom(msg.sender, address(this), _amount1) */\n      mload(0x40)\n      dup5\n      0xffffffff\n      and\n      0xe0\n      shl\n      dup2\n      mstore\n      0x04\n      add\n      tag_131\n      swap4\n      swap3\n      swap2\n      swap1\n      tag_132\n      jump\t// in\n    tag_131:\n      0x20\n      mload(0x40)\n      dup1\n      dup4\n      sub\n      dup2\n      0x00\n      dup8\n      gas\n      call\n      iszero\n      dup1\n      iszero\n      tag_134\n      jumpi\n      returndatasize\n      0x00\n      dup1\n      returndatacopy\n      revert(0x00, returndatasize)\n    tag_134:\n      pop\n      pop\n      pop\n      pop\n      mload(0x40)\n      returndatasize\n      not(0x1f)\n      0x1f\n      dup3\n      add\n      and\n      dup3\n      add\n      dup1\n      0x40\n      mstore\n      pop\n      dup2\n      add\n      swap1\n      tag_135\n      swap2\n      swap1\n      tag_136\n      jump\t// in\n    tag_135:\n      pop\n        /* \"W6/simpleAMM/src/simpleAMMV5.sol\":2550:2566  uint256 _amount0 */\n      0x00\n        /* \"W6/simpleAMM/src/simpleAMMV5.sol\":2569:2578  msg.value */\n      callvalue\n        /* \"W6/simpleAMM/src/simpleAMMV5.sol\":2550:2578  uint256 _amount0 = msg.value */\n      swap1\n      pop\n        /* \"W6/simpleAMM/src/simpleAMMV5.sol\":2606:2607  0 */\n      0x00\n        /* \"W6/simpleAMM/src/simpleAMMV5.sol\":2595:2603  reserve0 */\n      dup1\n      sload\n        /* \"W6/simpleAMM/src/simpleAMMV5.sol\":2595:2607  reserve0 > 0 */\n      gt\n        /* \"W6/simpleAMM/src/simpleAMMV5.sol\":2595:2623  reserve0 > 0 || reserve1 > 0 */\n      dup1\n      tag_137\n      jumpi\n      pop\n        /* \"W6/simpleAMM/src/simpleAMMV5.sol\":2622:2623  0 */\n      0x00\n        /* \"W6/simpleAMM/src/simpleAMMV5.sol\":2611:2619  reserve1 */\n      sload(0x01)\n        /* \"W6/simpleAMM/src/simpleAMMV5.sol\":2611:2623  reserve1 > 0 */\n      gt\n        /* \"W6/simpleAMM/src/simpleAMMV5.sol\":2595:2623  reserve0 > 0 || reserve1 > 0 */\n    tag_137:\n        /* \"W6/simpleAMM/src/simpleAMMV5.sol\":2591:3574  if (reserve0 > 0 || reserve1 > 0) {... */\n      iszero\n      tag_138\n      jumpi\n        /* \"W6/simpleAMM/src/simpleAMMV5.sol\":2678:2686  _amount0 */\n      dup1\n        /* \"W6/simpleAMM/src/simpleAMMV5.sol\":2667:2675  reserve1 */\n      sload(0x01)\n        /* \"W6/simpleAMM/src/simpleAMMV5.sol\":2667:2686  reserve1 * _amount0 */\n      tag_139\n      swap2\n      swap1\n      tag_123\n      jump\t// in\n    tag_139:\n        /* \"W6/simpleAMM/src/simpleAMMV5.sol\":2655:2663  _amount1 */\n      dup4\n        /* \"W6/simpleAMM/src/simpleAMMV5.sol\":2644:2652  reserve0 */\n      sload(0x00)\n        /* \"W6/simpleAMM/src/simpleAMMV5.sol\":2644:2663  reserve0 * _amount1 */\n      tag_140\n      swap2\n      swap1\n      tag_123\n      jump\t// in\n    tag_140:\n        /* \"W6/simpleAMM/src/simpleAMMV5.sol\":2644:2686  reserve0 * _amount1 != reserve1 * _amount0 */\n      eq\n        /* \"W6/simpleAMM/src/simpleAMMV5.sol\":2640:3563  if (reserve0 * _amount1 != reserve1 * _amount0) {... */\n      tag_141\n      jumpi\n        /* \"W6/simpleAMM/src/simpleAMMV5.sol\":2791:2814  uint256 requiredAmount1 */\n      0x00\n        /* \"W6/simpleAMM/src/simpleAMMV5.sol\":2855:2859  1000 */\n      0x03e8\n        /* \"W6/simpleAMM/src/simpleAMMV5.sol\":2851:2854  997 */\n      0x03e5\n        /* \"W6/simpleAMM/src/simpleAMMV5.sol\":2842:2850  reserve0 */\n      sload(0x00)\n        /* \"W6/simpleAMM/src/simpleAMMV5.sol\":2842:2854  reserve0*997 */\n      tag_142\n      swap2\n      swap1\n      tag_123\n      jump\t// in\n    tag_142:\n        /* \"W6/simpleAMM/src/simpleAMMV5.sol\":2842:2859  reserve0*997/1000 */\n      tag_143\n      swap2\n      swap1\n      tag_125\n      jump\t// in\n    tag_143:\n        /* \"W6/simpleAMM/src/simpleAMMV5.sol\":2829:2837  _amount0 */\n      dup3\n        /* \"W6/simpleAMM/src/simpleAMMV5.sol\":2818:2826  reserve1 */\n      sload(0x01)\n        /* \"W6/simpleAMM/src/simpleAMMV5.sol\":2818:2837  reserve1 * _amount0 */\n      tag_144\n      swap2\n      swap1\n      tag_123\n      jump\t// in\n    tag_144:\n        /* \"W6/simpleAMM/src/simpleAMMV5.sol\":2817:2860  (reserve1 * _amount0) / (reserve0*997/1000) */\n      tag_145\n      swap2\n      swap1\n      tag_125\n      jump\t// in\n    tag_145:\n        /* \"W6/simpleAMM/src/simpleAMMV5.sol\":2791:2860  uint256 requiredAmount1 = (reserve1 * _amount0) / (reserve0*997/1000) */\n      swap1\n      pop\n        /* \"W6/simpleAMM/src/simpleAMMV5.sol\":3023:3038  requiredAmount1 */\n      dup1\n        /* \"W6/simpleAMM/src/simpleAMMV5.sol\":3012:3020  _amount1 */\n      dup5\n        /* \"W6/simpleAMM/src/simpleAMMV5.sol\":3012:3038  _amount1 > requiredAmount1 */\n      gt\n        /* \"W6/simpleAMM/src/simpleAMMV5.sol\":3008:3438  if (_amount1 > requiredAmount1) {... */\n      iszero\n      tag_146\n      jumpi\n        /* \"W6/simpleAMM/src/simpleAMMV5.sol\":3063:3084  uint256 excessAmount1 */\n      0x00\n        /* \"W6/simpleAMM/src/simpleAMMV5.sol\":3098:3113  requiredAmount1 */\n      dup2\n        /* \"W6/simpleAMM/src/simpleAMMV5.sol\":3087:3095  _amount1 */\n      dup6\n        /* \"W6/simpleAMM/src/simpleAMMV5.sol\":3087:3113  _amount1 - requiredAmount1 */\n      tag_147\n      swap2\n      swap1\n      tag_148\n      jump\t// in\n    tag_147:\n        /* \"W6/simpleAMM/src/simpleAMMV5.sol\":3063:3113  uint256 excessAmount1 = _amount1 - requiredAmount1 */\n      swap1\n      pop\n        /* \"W6/simpleAMM/src/simpleAMMV5.sol\":3148:3178  swapTokenForETH(excessAmount1) */\n      tag_149\n        /* \"W6/simpleAMM/src/simpleAMMV5.sol\":3164:3177  excessAmount1 */\n      dup2\n        /* \"W6/simpleAMM/src/simpleAMMV5.sol\":3148:3163  swapTokenForETH */\n      tag_59\n        /* \"W6/simpleAMM/src/simpleAMMV5.sol\":3148:3178  swapTokenForETH(excessAmount1) */\n      jump\t// in\n    tag_149:\n        /* \"W6/simpleAMM/src/simpleAMMV5.sol\":3136:3178  _amount0 += swapTokenForETH(excessAmount1) */\n      dup4\n      tag_150\n      swap2\n      swap1\n      tag_127\n      jump\t// in\n    tag_150:\n      swap3\n      pop\n        /* \"W6/simpleAMM/src/simpleAMMV5.sol\":3040:3263  {... */\n      pop\n        /* \"W6/simpleAMM/src/simpleAMMV5.sol\":3008:3438  if (_amount1 > requiredAmount1) {... */\n      jump(tag_151)\n    tag_146:\n        /* \"W6/simpleAMM/src/simpleAMMV5.sol\":3292:3313  uint256 excessAmount0 */\n      0x00\n        /* \"W6/simpleAMM/src/simpleAMMV5.sol\":3356:3364  reserve1 */\n      sload(0x01)\n        /* \"W6/simpleAMM/src/simpleAMMV5.sol\":3345:3353  reserve0 */\n      sload(0x00)\n        /* \"W6/simpleAMM/src/simpleAMMV5.sol\":3327:3342  requiredAmount1 */\n      dup4\n        /* \"W6/simpleAMM/src/simpleAMMV5.sol\":3327:3353  requiredAmount1 * reserve0 */\n      tag_152\n      swap2\n      swap1\n      tag_123\n      jump\t// in\n    tag_152:\n        /* \"W6/simpleAMM/src/simpleAMMV5.sol\":3327:3364  requiredAmount1 * reserve0 / reserve1 */\n      tag_153\n      swap2\n      swap1\n      tag_125\n      jump\t// in\n    tag_153:\n        /* \"W6/simpleAMM/src/simpleAMMV5.sol\":3316:3324  _amount0 */\n      dup4\n        /* \"W6/simpleAMM/src/simpleAMMV5.sol\":3316:3364  _amount0 - requiredAmount1 * reserve0 / reserve1 */\n      tag_154\n      swap2\n      swap1\n      tag_148\n      jump\t// in\n    tag_154:\n        /* \"W6/simpleAMM/src/simpleAMMV5.sol\":3292:3364  uint256 excessAmount0 = _amount0 - requiredAmount1 * reserve0 / reserve1 */\n      swap1\n      pop\n        /* \"W6/simpleAMM/src/simpleAMMV5.sol\":3399:3418  swap(excessAmount0) */\n      tag_155\n        /* \"W6/simpleAMM/src/simpleAMMV5.sol\":3404:3417  excessAmount0 */\n      dup2\n        /* \"W6/simpleAMM/src/simpleAMMV5.sol\":3399:3403  swap */\n      tag_75\n        /* \"W6/simpleAMM/src/simpleAMMV5.sol\":3399:3418  swap(excessAmount0) */\n      jump\t// in\n    tag_155:\n        /* \"W6/simpleAMM/src/simpleAMMV5.sol\":3387:3418  _amount1 += swap(excessAmount0) */\n      dup6\n      tag_156\n      swap2\n      swap1\n      tag_127\n      jump\t// in\n    tag_156:\n      swap5\n      pop\n        /* \"W6/simpleAMM/src/simpleAMMV5.sol\":3269:3438  {... */\n      pop\n        /* \"W6/simpleAMM/src/simpleAMMV5.sol\":3008:3438  if (_amount1 > requiredAmount1) {... */\n    tag_151:\n        /* \"W6/simpleAMM/src/simpleAMMV5.sol\":3532:3547  requiredAmount1 */\n      dup1\n        /* \"W6/simpleAMM/src/simpleAMMV5.sol\":3521:3547  _amount1 = requiredAmount1 */\n      swap4\n      pop\n        /* \"W6/simpleAMM/src/simpleAMMV5.sol\":2688:3563  {... */\n      pop\n        /* \"W6/simpleAMM/src/simpleAMMV5.sol\":2640:3563  if (reserve0 * _amount1 != reserve1 * _amount0) {... */\n    tag_141:\n        /* \"W6/simpleAMM/src/simpleAMMV5.sol\":2591:3574  if (reserve0 > 0 || reserve1 > 0) {... */\n    tag_138:\n        /* \"W6/simpleAMM/src/simpleAMMV5.sol\":3605:3606  0 */\n      0x00\n        /* \"W6/simpleAMM/src/simpleAMMV5.sol\":3590:3601  totalSupply */\n      sload(0x02)\n        /* \"W6/simpleAMM/src/simpleAMMV5.sol\":3590:3606  totalSupply == 0 */\n      sub\n        /* \"W6/simpleAMM/src/simpleAMMV5.sol\":3586:3843  if (totalSupply == 0) {... */\n      tag_157\n      jumpi\n        /* \"W6/simpleAMM/src/simpleAMMV5.sol\":3632:3658  _sqrt(_amount0 * _amount1) */\n      tag_158\n        /* \"W6/simpleAMM/src/simpleAMMV5.sol\":3649:3657  _amount1 */\n      dup4\n        /* \"W6/simpleAMM/src/simpleAMMV5.sol\":3638:3646  _amount0 */\n      dup3\n        /* \"W6/simpleAMM/src/simpleAMMV5.sol\":3638:3657  _amount0 * _amount1 */\n      tag_159\n      swap2\n      swap1\n      tag_123\n      jump\t// in\n    tag_159:\n        /* \"W6/simpleAMM/src/simpleAMMV5.sol\":3632:3637  _sqrt */\n      tag_160\n        /* \"W6/simpleAMM/src/simpleAMMV5.sol\":3632:3658  _sqrt(_amount0 * _amount1) */\n      jump\t// in\n    tag_158:\n        /* \"W6/simpleAMM/src/simpleAMMV5.sol\":3623:3658  shares = _sqrt(_amount0 * _amount1) */\n      swap2\n      pop\n        /* \"W6/simpleAMM/src/simpleAMMV5.sol\":3586:3843  if (totalSupply == 0) {... */\n      jump(tag_161)\n    tag_157:\n        /* \"W6/simpleAMM/src/simpleAMMV5.sol\":3700:3831  Math.min(... */\n      tag_162\n        /* \"W6/simpleAMM/src/simpleAMMV5.sol\":3754:3762  reserve0 */\n      sload(0x00)\n        /* \"W6/simpleAMM/src/simpleAMMV5.sol\":3739:3750  totalSupply */\n      sload(0x02)\n        /* \"W6/simpleAMM/src/simpleAMMV5.sol\":3728:3736  _amount0 */\n      dup4\n        /* \"W6/simpleAMM/src/simpleAMMV5.sol\":3728:3750  _amount0 * totalSupply */\n      tag_163\n      swap2\n      swap1\n      tag_123\n      jump\t// in\n    tag_163:\n        /* \"W6/simpleAMM/src/simpleAMMV5.sol\":3727:3762  (_amount0 * totalSupply) / reserve0 */\n      tag_164\n      swap2\n      swap1\n      tag_125\n      jump\t// in\n    tag_164:\n        /* \"W6/simpleAMM/src/simpleAMMV5.sol\":3808:3816  reserve1 */\n      sload(0x01)\n        /* \"W6/simpleAMM/src/simpleAMMV5.sol\":3793:3804  totalSupply */\n      sload(0x02)\n        /* \"W6/simpleAMM/src/simpleAMMV5.sol\":3782:3790  _amount1 */\n      dup7\n        /* \"W6/simpleAMM/src/simpleAMMV5.sol\":3782:3804  _amount1 * totalSupply */\n      tag_165\n      swap2\n      swap1\n      tag_123\n      jump\t// in\n    tag_165:\n        /* \"W6/simpleAMM/src/simpleAMMV5.sol\":3781:3816  (_amount1 * totalSupply) / reserve1 */\n      tag_166\n      swap2\n      swap1\n      tag_125\n      jump\t// in\n    tag_166:\n        /* \"W6/simpleAMM/src/simpleAMMV5.sol\":3700:3708  Math.min */\n      tag_167\n        /* \"W6/simpleAMM/src/simpleAMMV5.sol\":3700:3831  Math.min(... */\n      jump\t// in\n    tag_162:\n        /* \"W6/simpleAMM/src/simpleAMMV5.sol\":3691:3831  shares = Math.min(... */\n      swap2\n      pop\n        /* \"W6/simpleAMM/src/simpleAMMV5.sol\":3586:3843  if (totalSupply == 0) {... */\n    tag_161:\n        /* \"W6/simpleAMM/src/simpleAMMV5.sol\":3870:3871  0 */\n      0x00\n        /* \"W6/simpleAMM/src/simpleAMMV5.sol\":3861:3867  shares */\n      dup3\n        /* \"W6/simpleAMM/src/simpleAMMV5.sol\":3861:3871  shares > 0 */\n      gt\n        /* \"W6/simpleAMM/src/simpleAMMV5.sol\":3853:3886  require(shares > 0, \"shares = 0\") */\n      tag_168\n      jumpi\n      mload(0x40)\n      0x08c379a000000000000000000000000000000000000000000000000000000000\n      dup2\n      mstore\n      0x04\n      add\n      tag_169\n      swap1\n      tag_170\n      jump\t// in\n    tag_169:\n      mload(0x40)\n      dup1\n      swap2\n      sub\n      swap1\n      revert\n    tag_168:\n        /* \"W6/simpleAMM/src/simpleAMMV5.sol\":3897:3922  _mint(msg.sender, shares) */\n      tag_171\n        /* \"W6/simpleAMM/src/simpleAMMV5.sol\":3903:3913  msg.sender */\n      caller\n        /* \"W6/simpleAMM/src/simpleAMMV5.sol\":3915:3921  shares */\n      dup4\n        /* \"W6/simpleAMM/src/simpleAMMV5.sol\":3897:3902  _mint */\n      tag_172\n        /* \"W6/simpleAMM/src/simpleAMMV5.sol\":3897:3922  _mint(msg.sender, shares) */\n      jump\t// in\n    tag_171:\n        /* \"W6/simpleAMM/src/simpleAMMV5.sol\":3935:3997  _update(address(this).balance, token.balanceOf(address(this))) */\n      tag_173\n        /* \"W6/simpleAMM/src/simpleAMMV5.sol\":3943:3964  address(this).balance */\n      selfbalance\n        /* \"W6/simpleAMM/src/simpleAMMV5.sol\":3966:3971  token */\n      immutable(\"0xb86663931131c5934d75630c23dd4e1bbff32671fc4d6ffaa5c4951268e1f0ba\")\n        /* \"W6/simpleAMM/src/simpleAMMV5.sol\":3966:3981  token.balanceOf */\n      0xffffffffffffffffffffffffffffffffffffffff\n      and\n      0x70a08231\n        /* \"W6/simpleAMM/src/simpleAMMV5.sol\":3990:3994  this */\n      address\n        /* \"W6/simpleAMM/src/simpleAMMV5.sol\":3966:3996  token.balanceOf(address(this)) */\n      mload(0x40)\n      dup3\n      0xffffffff\n      and\n      0xe0\n      shl\n      dup2\n      mstore\n      0x04\n      add\n      tag_174\n      swap2\n      swap1\n      tag_96\n      jump\t// in\n    tag_174:\n      0x20\n      mload(0x40)\n      dup1\n      dup4\n      sub\n      dup2\n      dup7\n      gas\n      staticcall\n      iszero\n      dup1\n      iszero\n      tag_176\n      jumpi\n      returndatasize\n      0x00\n      dup1\n      returndatacopy\n      revert(0x00, returndatasize)\n    tag_176:\n      pop\n      pop\n      pop\n      pop\n      mload(0x40)\n      returndatasize\n      not(0x1f)\n      0x1f\n      dup3\n      add\n      and\n      dup3\n      add\n      dup1\n      0x40\n      mstore\n      pop\n      dup2\n      add\n      swap1\n      tag_177\n      swap2\n      swap1\n      tag_178\n      jump\t// in\n    tag_177:\n        /* \"W6/simpleAMM/src/simpleAMMV5.sol\":3935:3942  _update */\n      tag_179\n        /* \"W6/simpleAMM/src/simpleAMMV5.sol\":3935:3997  _update(address(this).balance, token.balanceOf(address(this))) */\n      jump\t// in\n    tag_173:\n        /* \"W6/simpleAMM/src/simpleAMMV5.sol\":2420:4005  {... */\n      pop\n        /* \"W6/simpleAMM/src/simpleAMMV5.sol\":2338:4005  function addLiquidity(uint256 _amount1) external payable returns (uint256 shares) {... */\n      swap2\n      swap1\n      pop\n      jump\t// out\n        /* \"W6/simpleAMM/src/simpleAMMV5.sol\":6850:7918  function calculateSlippage(uint256 amountIn) public view returns (uint256) {... */\n    tag_46:\n        /* \"W6/simpleAMM/src/simpleAMMV5.sol\":6916:6923  uint256 */\n      0x00\n        /* \"W6/simpleAMM/src/simpleAMMV5.sol\":6955:6956  0 */\n      dup1\n        /* \"W6/simpleAMM/src/simpleAMMV5.sol\":6944:6952  amountIn */\n      dup3\n        /* \"W6/simpleAMM/src/simpleAMMV5.sol\":6944:6956  amountIn > 0 */\n      gt\n        /* \"W6/simpleAMM/src/simpleAMMV5.sol\":6936:6981  require(amountIn > 0, \"Invalid input amount\") */\n      tag_181\n      jumpi\n      mload(0x40)\n      0x08c379a000000000000000000000000000000000000000000000000000000000\n      dup2\n      mstore\n      0x04\n      add\n      tag_182\n      swap1\n      tag_183\n      jump\t// in\n    tag_182:\n      mload(0x40)\n      dup1\n      swap2\n      sub\n      swap1\n      revert\n    tag_181:\n        /* \"W6/simpleAMM/src/simpleAMMV5.sol\":6994:7017  uint256 amountInWithFee */\n      0x00\n        /* \"W6/simpleAMM/src/simpleAMMV5.sol\":7039:7043  1000 */\n      0x03e8\n        /* \"W6/simpleAMM/src/simpleAMMV5.sol\":7032:7035  997 */\n      0x03e5\n        /* \"W6/simpleAMM/src/simpleAMMV5.sol\":7021:7029  amountIn */\n      dup5\n        /* \"W6/simpleAMM/src/simpleAMMV5.sol\":7021:7035  amountIn * 997 */\n      tag_184\n      swap2\n      swap1\n      tag_123\n      jump\t// in\n    tag_184:\n        /* \"W6/simpleAMM/src/simpleAMMV5.sol\":7020:7043  (amountIn * 997) / 1000 */\n      tag_185\n      swap2\n      swap1\n      tag_125\n      jump\t// in\n    tag_185:\n        /* \"W6/simpleAMM/src/simpleAMMV5.sol\":6994:7043  uint256 amountInWithFee = (amountIn * 997) / 1000 */\n      swap1\n      pop\n        /* \"W6/simpleAMM/src/simpleAMMV5.sol\":7054:7071  uint256 amountOut */\n      0x00\n        /* \"W6/simpleAMM/src/simpleAMMV5.sol\":7117:7132  amountInWithFee */\n      dup2\n        /* \"W6/simpleAMM/src/simpleAMMV5.sol\":7106:7114  reserve0 */\n      sload(0x00)\n        /* \"W6/simpleAMM/src/simpleAMMV5.sol\":7106:7132  reserve0 + amountInWithFee */\n      tag_186\n      swap2\n      swap1\n      tag_127\n      jump\t// in\n    tag_186:\n        /* \"W6/simpleAMM/src/simpleAMMV5.sol\":7086:7101  amountInWithFee */\n      dup3\n        /* \"W6/simpleAMM/src/simpleAMMV5.sol\":7075:7083  reserve1 */\n      sload(0x01)\n        /* \"W6/simpleAMM/src/simpleAMMV5.sol\":7075:7101  reserve1 * amountInWithFee */\n      tag_187\n      swap2\n      swap1\n      tag_123\n      jump\t// in\n    tag_187:\n        /* \"W6/simpleAMM/src/simpleAMMV5.sol\":7074:7133  (reserve1 * amountInWithFee) / (reserve0 + amountInWithFee) */\n      tag_188\n      swap2\n      swap1\n      tag_125\n      jump\t// in\n    tag_188:\n        /* \"W6/simpleAMM/src/simpleAMMV5.sol\":7054:7133  uint256 amountOut = (reserve1 * amountInWithFee) / (reserve0 + amountInWithFee) */\n      swap1\n      pop\n        /* \"W6/simpleAMM/src/simpleAMMV5.sol\":7164:7165  0 */\n      0x00\n        /* \"W6/simpleAMM/src/simpleAMMV5.sol\":7152:7161  amountOut */\n      dup2\n        /* \"W6/simpleAMM/src/simpleAMMV5.sol\":7152:7165  amountOut > 0 */\n      gt\n        /* \"W6/simpleAMM/src/simpleAMMV5.sol\":7144:7191  require(amountOut > 0, \"Invalid output amount\") */\n      tag_189\n      jumpi\n      mload(0x40)\n      0x08c379a000000000000000000000000000000000000000000000000000000000\n      dup2\n      mstore\n      0x04\n      add\n      tag_190\n      swap1\n      tag_191\n      jump\t// in\n    tag_190:\n      mload(0x40)\n      dup1\n      swap2\n      sub\n      swap1\n      revert\n    tag_189:\n        /* \"W6/simpleAMM/src/simpleAMMV5.sol\":7257:7280  uint256 noSlippagePrice */\n      0x00\n        /* \"W6/simpleAMM/src/simpleAMMV5.sol\":7283:7296  getERCPrice() */\n      tag_192\n        /* \"W6/simpleAMM/src/simpleAMMV5.sol\":7283:7294  getERCPrice */\n      tag_114\n        /* \"W6/simpleAMM/src/simpleAMMV5.sol\":7283:7296  getERCPrice() */\n      jump\t// in\n    tag_192:\n        /* \"W6/simpleAMM/src/simpleAMMV5.sol\":7257:7296  uint256 noSlippagePrice = getERCPrice() */\n      swap1\n      pop\n        /* \"W6/simpleAMM/src/simpleAMMV5.sol\":7379:7404  uint256 expectedAmountOut */\n      0x00\n        /* \"W6/simpleAMM/src/simpleAMMV5.sol\":7438:7444  10**18 */\n      0x0de0b6b3a7640000\n        /* \"W6/simpleAMM/src/simpleAMMV5.sol\":7419:7434  noSlippagePrice */\n      dup3\n        /* \"W6/simpleAMM/src/simpleAMMV5.sol\":7408:7416  amountIn */\n      dup8\n        /* \"W6/simpleAMM/src/simpleAMMV5.sol\":7408:7434  amountIn * noSlippagePrice */\n      tag_193\n      swap2\n      swap1\n      tag_123\n      jump\t// in\n    tag_193:\n        /* \"W6/simpleAMM/src/simpleAMMV5.sol\":7407:7444  (amountIn * noSlippagePrice) / 10**18 */\n      tag_194\n      swap2\n      swap1\n      tag_125\n      jump\t// in\n    tag_194:\n        /* \"W6/simpleAMM/src/simpleAMMV5.sol\":7379:7444  uint256 expectedAmountOut = (amountIn * noSlippagePrice) / 10**18 */\n      swap1\n      pop\n        /* \"W6/simpleAMM/src/simpleAMMV5.sol\":7503:7519  uint256 slippage */\n      0x00\n        /* \"W6/simpleAMM/src/simpleAMMV5.sol\":7546:7563  expectedAmountOut */\n      dup2\n        /* \"W6/simpleAMM/src/simpleAMMV5.sol\":7534:7543  amountOut */\n      dup5\n        /* \"W6/simpleAMM/src/simpleAMMV5.sol\":7534:7563  amountOut > expectedAmountOut */\n      gt\n        /* \"W6/simpleAMM/src/simpleAMMV5.sol\":7530:7767  if (amountOut > expectedAmountOut) {... */\n      iszero\n      tag_195\n      jumpi\n        /* \"W6/simpleAMM/src/simpleAMMV5.sol\":7634:7651  expectedAmountOut */\n      dup2\n        /* \"W6/simpleAMM/src/simpleAMMV5.sol\":7626:7630  1000 */\n      0x03e8\n        /* \"W6/simpleAMM/src/simpleAMMV5.sol\":7605:7622  expectedAmountOut */\n      dup4\n        /* \"W6/simpleAMM/src/simpleAMMV5.sol\":7593:7602  amountOut */\n      dup7\n        /* \"W6/simpleAMM/src/simpleAMMV5.sol\":7593:7622  amountOut - expectedAmountOut */\n      tag_196\n      swap2\n      swap1\n      tag_148\n      jump\t// in\n    tag_196:\n        /* \"W6/simpleAMM/src/simpleAMMV5.sol\":7592:7630  (amountOut - expectedAmountOut) * 1000 */\n      tag_197\n      swap2\n      swap1\n      tag_123\n      jump\t// in\n    tag_197:\n        /* \"W6/simpleAMM/src/simpleAMMV5.sol\":7591:7651  ((amountOut - expectedAmountOut) * 1000) / expectedAmountOut */\n      tag_198\n      swap2\n      swap1\n      tag_125\n      jump\t// in\n    tag_198:\n        /* \"W6/simpleAMM/src/simpleAMMV5.sol\":7580:7651  slippage = ((amountOut - expectedAmountOut) * 1000) / expectedAmountOut */\n      swap1\n      pop\n        /* \"W6/simpleAMM/src/simpleAMMV5.sol\":7530:7767  if (amountOut > expectedAmountOut) {... */\n      jump(tag_199)\n    tag_195:\n        /* \"W6/simpleAMM/src/simpleAMMV5.sol\":7738:7755  expectedAmountOut */\n      dup2\n        /* \"W6/simpleAMM/src/simpleAMMV5.sol\":7730:7734  1000 */\n      0x03e8\n        /* \"W6/simpleAMM/src/simpleAMMV5.sol\":7717:7726  amountOut */\n      dup6\n        /* \"W6/simpleAMM/src/simpleAMMV5.sol\":7697:7714  expectedAmountOut */\n      dup5\n        /* \"W6/simpleAMM/src/simpleAMMV5.sol\":7697:7726  expectedAmountOut - amountOut */\n      tag_200\n      swap2\n      swap1\n      tag_148\n      jump\t// in\n    tag_200:\n        /* \"W6/simpleAMM/src/simpleAMMV5.sol\":7696:7734  (expectedAmountOut - amountOut) * 1000 */\n      tag_201\n      swap2\n      swap1\n      tag_123\n      jump\t// in\n    tag_201:\n        /* \"W6/simpleAMM/src/simpleAMMV5.sol\":7695:7755  ((expectedAmountOut - amountOut) * 1000) / expectedAmountOut */\n      tag_202\n      swap2\n      swap1\n      tag_125\n      jump\t// in\n    tag_202:\n        /* \"W6/simpleAMM/src/simpleAMMV5.sol\":7684:7755  slippage = ((expectedAmountOut - amountOut) * 1000) / expectedAmountOut */\n      swap1\n      pop\n        /* \"W6/simpleAMM/src/simpleAMMV5.sol\":7530:7767  if (amountOut > expectedAmountOut) {... */\n    tag_199:\n        /* \"W6/simpleAMM/src/simpleAMMV5.sol\":7862:7882  _min(slippage, 1000) */\n      tag_203\n        /* \"W6/simpleAMM/src/simpleAMMV5.sol\":7867:7875  slippage */\n      dup2\n        /* \"W6/simpleAMM/src/simpleAMMV5.sol\":7877:7881  1000 */\n      0x03e8\n        /* \"W6/simpleAMM/src/simpleAMMV5.sol\":7862:7866  _min */\n      tag_204\n        /* \"W6/simpleAMM/src/simpleAMMV5.sol\":7862:7882  _min(slippage, 1000) */\n      jump\t// in\n    tag_203:\n        /* \"W6/simpleAMM/src/simpleAMMV5.sol\":7851:7882  slippage = _min(slippage, 1000) */\n      swap1\n      pop\n        /* \"W6/simpleAMM/src/simpleAMMV5.sol\":7902:7910  slippage */\n      dup1\n        /* \"W6/simpleAMM/src/simpleAMMV5.sol\":7895:7910  return slippage */\n      swap6\n      pop\n      pop\n      pop\n      pop\n      pop\n      pop\n        /* \"W6/simpleAMM/src/simpleAMMV5.sol\":6850:7918  function calculateSlippage(uint256 amountIn) public view returns (uint256) {... */\n      swap2\n      swap1\n      pop\n      jump\t// out\n        /* \"W6/simpleAMM/src/simpleAMMV5.sol\":788:811  uint256 public reserve1 */\n    tag_50:\n      sload(0x01)\n      dup2\n      jump\t// out\n        /* \"W6/simpleAMM/src/simpleAMMV5.sol\":5219:5314  function my_shars() public view returns(uint256){... */\n    tag_54:\n        /* \"W6/simpleAMM/src/simpleAMMV5.sol\":5259:5266  uint256 */\n      0x00\n        /* \"W6/simpleAMM/src/simpleAMMV5.sol\":5285:5294  balanceOf */\n      0x03\n        /* \"W6/simpleAMM/src/simpleAMMV5.sol\":5285:5306  balanceOf[msg.sender] */\n      0x00\n        /* \"W6/simpleAMM/src/simpleAMMV5.sol\":5295:5305  msg.sender */\n      caller\n        /* \"W6/simpleAMM/src/simpleAMMV5.sol\":5285:5306  balanceOf[msg.sender] */\n      0xffffffffffffffffffffffffffffffffffffffff\n      and\n      0xffffffffffffffffffffffffffffffffffffffff\n      and\n      dup2\n      mstore\n      0x20\n      add\n      swap1\n      dup2\n      mstore\n      0x20\n      add\n      0x00\n      keccak256\n      sload\n        /* \"W6/simpleAMM/src/simpleAMMV5.sol\":5278:5306  return balanceOf[msg.sender] */\n      swap1\n      pop\n        /* \"W6/simpleAMM/src/simpleAMMV5.sol\":5219:5314  function my_shars() public view returns(uint256){... */\n      swap1\n      jump\t// out\n        /* \"W6/simpleAMM/src/simpleAMMV5.sol\":1829:2330  function swapTokenForETH(uint256 _amountIn) public returns (uint256 amountOut) {... */\n    tag_59:\n        /* \"W6/simpleAMM/src/simpleAMMV5.sol\":1889:1906  uint256 amountOut */\n      0x00\n        /* \"W6/simpleAMM/src/simpleAMMV5.sol\":1919:1942  uint256 amountInWithFee */\n      dup1\n        /* \"W6/simpleAMM/src/simpleAMMV5.sol\":1965:1969  1000 */\n      0x03e8\n        /* \"W6/simpleAMM/src/simpleAMMV5.sol\":1958:1961  997 */\n      0x03e5\n        /* \"W6/simpleAMM/src/simpleAMMV5.sol\":1946:1955  _amountIn */\n      dup5\n        /* \"W6/simpleAMM/src/simpleAMMV5.sol\":1946:1961  _amountIn * 997 */\n      tag_207\n      swap2\n      swap1\n      tag_123\n      jump\t// in\n    tag_207:\n        /* \"W6/simpleAMM/src/simpleAMMV5.sol\":1945:1969  (_amountIn * 997) / 1000 */\n      tag_208\n      swap2\n      swap1\n      tag_125\n      jump\t// in\n    tag_208:\n        /* \"W6/simpleAMM/src/simpleAMMV5.sol\":1919:1969  uint256 amountInWithFee = (_amountIn * 997) / 1000 */\n      swap1\n      pop\n        /* \"W6/simpleAMM/src/simpleAMMV5.sol\":2037:2052  amountInWithFee */\n      dup1\n        /* \"W6/simpleAMM/src/simpleAMMV5.sol\":2026:2034  reserve1 */\n      sload(0x01)\n        /* \"W6/simpleAMM/src/simpleAMMV5.sol\":2026:2052  reserve1 + amountInWithFee */\n      tag_209\n      swap2\n      swap1\n      tag_127\n      jump\t// in\n    tag_209:\n        /* \"W6/simpleAMM/src/simpleAMMV5.sol\":2006:2021  amountInWithFee */\n      dup2\n        /* \"W6/simpleAMM/src/simpleAMMV5.sol\":1995:2003  reserve0 */\n      sload(0x00)\n        /* \"W6/simpleAMM/src/simpleAMMV5.sol\":1995:2021  reserve0 * amountInWithFee */\n      tag_210\n      swap2\n      swap1\n      tag_123\n      jump\t// in\n    tag_210:\n        /* \"W6/simpleAMM/src/simpleAMMV5.sol\":1994:2053  (reserve0 * amountInWithFee) / (reserve1 + amountInWithFee) */\n      tag_211\n      swap2\n      swap1\n      tag_125\n      jump\t// in\n    tag_211:\n        /* \"W6/simpleAMM/src/simpleAMMV5.sol\":1982:2053  amountOut = (reserve0 * amountInWithFee) / (reserve1 + amountInWithFee) */\n      swap2\n      pop\n        /* \"W6/simpleAMM/src/simpleAMMV5.sol\":2084:2085  0 */\n      0x00\n        /* \"W6/simpleAMM/src/simpleAMMV5.sol\":2072:2081  amountOut */\n      dup3\n        /* \"W6/simpleAMM/src/simpleAMMV5.sol\":2072:2085  amountOut > 0 */\n      gt\n        /* \"W6/simpleAMM/src/simpleAMMV5.sol\":2064:2116  require(amountOut > 0, \"Insufficient output amount\") */\n      tag_212\n      jumpi\n      mload(0x40)\n      0x08c379a000000000000000000000000000000000000000000000000000000000\n      dup2\n      mstore\n      0x04\n      add\n      tag_213\n      swap1\n      tag_214\n      jump\t// in\n    tag_213:\n      mload(0x40)\n      dup1\n      swap2\n      sub\n      swap1\n      revert\n    tag_212:\n        /* \"W6/simpleAMM/src/simpleAMMV5.sol\":2129:2134  token */\n      immutable(\"0xb86663931131c5934d75630c23dd4e1bbff32671fc4d6ffaa5c4951268e1f0ba\")\n        /* \"W6/simpleAMM/src/simpleAMMV5.sol\":2129:2147  token.transferFrom */\n      0xffffffffffffffffffffffffffffffffffffffff\n      and\n      0x23b872dd\n        /* \"W6/simpleAMM/src/simpleAMMV5.sol\":2148:2158  msg.sender */\n      caller\n        /* \"W6/simpleAMM/src/simpleAMMV5.sol\":2168:2172  this */\n      address\n        /* \"W6/simpleAMM/src/simpleAMMV5.sol\":2175:2184  _amountIn */\n      dup7\n        /* \"W6/simpleAMM/src/simpleAMMV5.sol\":2129:2185  token.transferFrom(msg.sender, address(this), _amountIn) */\n      mload(0x40)\n      dup5\n      0xffffffff\n      and\n      0xe0\n      shl\n      dup2\n      mstore\n      0x04\n      add\n      tag_215\n      swap4\n      swap3\n      swap2\n      swap1\n      tag_132\n      jump\t// in\n    tag_215:\n      0x20\n      mload(0x40)\n      dup1\n      dup4\n      sub\n      dup2\n      0x00\n      dup8\n      gas\n      call\n      iszero\n      dup1\n      iszero\n      tag_217\n      jumpi\n      returndatasize\n      0x00\n      dup1\n      returndatacopy\n      revert(0x00, returndatasize)\n    tag_217:\n      pop\n      pop\n      pop\n      pop\n      mload(0x40)\n      returndatasize\n      not(0x1f)\n      0x1f\n      dup3\n      add\n      and\n      dup3\n      add\n      dup1\n      0x40\n      mstore\n      pop\n      dup2\n      add\n      swap1\n      tag_218\n      swap2\n      swap1\n      tag_136\n      jump\t// in\n    tag_218:\n      pop\n        /* \"W6/simpleAMM/src/simpleAMMV5.sol\":2204:2214  msg.sender */\n      caller\n        /* \"W6/simpleAMM/src/simpleAMMV5.sol\":2196:2224  payable(msg.sender).transfer */\n      0xffffffffffffffffffffffffffffffffffffffff\n      and\n        /* \"W6/simpleAMM/src/simpleAMMV5.sol\":2196:2235  payable(msg.sender).transfer(amountOut) */\n      0x08fc\n        /* \"W6/simpleAMM/src/simpleAMMV5.sol\":2225:2234  amountOut */\n      dup4\n        /* \"W6/simpleAMM/src/simpleAMMV5.sol\":2196:2235  payable(msg.sender).transfer(amountOut) */\n      swap1\n      dup2\n      iszero\n      mul\n      swap1\n      mload(0x40)\n      0x00\n      mload(0x40)\n      dup1\n      dup4\n      sub\n      dup2\n      dup6\n      dup9\n      dup9\n      call\n      swap4\n      pop\n      pop\n      pop\n      pop\n      iszero\n      dup1\n      iszero\n      tag_220\n      jumpi\n      returndatasize\n      0x00\n      dup1\n      returndatacopy\n      revert(0x00, returndatasize)\n    tag_220:\n      pop\n        /* \"W6/simpleAMM/src/simpleAMMV5.sol\":2248:2322  _update(address(this).balance - amountOut, token.balanceOf(address(this))) */\n      tag_221\n        /* \"W6/simpleAMM/src/simpleAMMV5.sol\":2280:2289  amountOut */\n      dup3\n        /* \"W6/simpleAMM/src/simpleAMMV5.sol\":2256:2277  address(this).balance */\n      selfbalance\n        /* \"W6/simpleAMM/src/simpleAMMV5.sol\":2256:2289  address(this).balance - amountOut */\n      tag_222\n      swap2\n      swap1\n      tag_148\n      jump\t// in\n    tag_222:\n        /* \"W6/simpleAMM/src/simpleAMMV5.sol\":2291:2296  token */\n      immutable(\"0xb86663931131c5934d75630c23dd4e1bbff32671fc4d6ffaa5c4951268e1f0ba\")\n        /* \"W6/simpleAMM/src/simpleAMMV5.sol\":2291:2306  token.balanceOf */\n      0xffffffffffffffffffffffffffffffffffffffff\n      and\n      0x70a08231\n        /* \"W6/simpleAMM/src/simpleAMMV5.sol\":2315:2319  this */\n      address\n        /* \"W6/simpleAMM/src/simpleAMMV5.sol\":2291:2321  token.balanceOf(address(this)) */\n      mload(0x40)\n      dup3\n      0xffffffff\n      and\n      0xe0\n      shl\n      dup2\n      mstore\n      0x04\n      add\n      tag_223\n      swap2\n      swap1\n      tag_96\n      jump\t// in\n    tag_223:\n      0x20\n      mload(0x40)\n      dup1\n      dup4\n      sub\n      dup2\n      dup7\n      gas\n      staticcall\n      iszero\n      dup1\n      iszero\n      tag_225\n      jumpi\n      returndatasize\n      0x00\n      dup1\n      returndatacopy\n      revert(0x00, returndatasize)\n    tag_225:\n      pop\n      pop\n      pop\n      pop\n      mload(0x40)\n      returndatasize\n      not(0x1f)\n      0x1f\n      dup3\n      add\n      and\n      dup3\n      add\n      dup1\n      0x40\n      mstore\n      pop\n      dup2\n      add\n      swap1\n      tag_226\n      swap2\n      swap1\n      tag_178\n      jump\t// in\n    tag_226:\n        /* \"W6/simpleAMM/src/simpleAMMV5.sol\":2248:2255  _update */\n      tag_179\n        /* \"W6/simpleAMM/src/simpleAMMV5.sol\":2248:2322  _update(address(this).balance - amountOut, token.balanceOf(address(this))) */\n      jump\t// in\n    tag_221:\n        /* \"W6/simpleAMM/src/simpleAMMV5.sol\":1908:2330  {... */\n      pop\n        /* \"W6/simpleAMM/src/simpleAMMV5.sol\":1829:2330  function swapTokenForETH(uint256 _amountIn) public returns (uint256 amountOut) {... */\n      swap2\n      swap1\n      pop\n      jump\t// out\n        /* \"W6/simpleAMM/src/simpleAMMV5.sol\":853:897  mapping(address => uint256) public balanceOf */\n    tag_65:\n      mstore(0x20, 0x03)\n      dup1\n      0x00\n      mstore\n      keccak256(0x00, 0x40)\n      0x00\n      swap2\n      pop\n      swap1\n      pop\n      sload\n      dup2\n      jump\t// out\n        /* \"W6/simpleAMM/src/simpleAMMV5.sol\":4013:4174  function removeAllLiquidity(address _user) external returns (uint256 amount0, uint256 amount1) {... */\n    tag_70:\n        /* \"W6/simpleAMM/src/simpleAMMV5.sol\":4074:4089  uint256 amount0 */\n      0x00\n        /* \"W6/simpleAMM/src/simpleAMMV5.sol\":4091:4106  uint256 amount1 */\n      dup1\n        /* \"W6/simpleAMM/src/simpleAMMV5.sol\":4126:4166  _removeLiquidity(_user,balanceOf[_user]) */\n      tag_228\n        /* \"W6/simpleAMM/src/simpleAMMV5.sol\":4143:4148  _user */\n      dup4\n        /* \"W6/simpleAMM/src/simpleAMMV5.sol\":4149:4158  balanceOf */\n      0x03\n        /* \"W6/simpleAMM/src/simpleAMMV5.sol\":4149:4165  balanceOf[_user] */\n      0x00\n        /* \"W6/simpleAMM/src/simpleAMMV5.sol\":4159:4164  _user */\n      dup7\n        /* \"W6/simpleAMM/src/simpleAMMV5.sol\":4149:4165  balanceOf[_user] */\n      0xffffffffffffffffffffffffffffffffffffffff\n      and\n      0xffffffffffffffffffffffffffffffffffffffff\n      and\n      dup2\n      mstore\n      0x20\n      add\n      swap1\n      dup2\n      mstore\n      0x20\n      add\n      0x00\n      keccak256\n      sload\n        /* \"W6/simpleAMM/src/simpleAMMV5.sol\":4126:4142  _removeLiquidity */\n      tag_229\n        /* \"W6/simpleAMM/src/simpleAMMV5.sol\":4126:4166  _removeLiquidity(_user,balanceOf[_user]) */\n      jump\t// in\n    tag_228:\n        /* \"W6/simpleAMM/src/simpleAMMV5.sol\":4119:4166  return _removeLiquidity(_user,balanceOf[_user]) */\n      swap2\n      pop\n      swap2\n      pop\n        /* \"W6/simpleAMM/src/simpleAMMV5.sol\":4013:4174  function removeAllLiquidity(address _user) external returns (uint256 amount0, uint256 amount1) {... */\n      swap2\n      pop\n      swap2\n      jump\t// out\n        /* \"W6/simpleAMM/src/simpleAMMV5.sol\":1404:1823  function swap(uint256 _amountIn) public payable returns (uint256 amountOut) {... */\n    tag_75:\n        /* \"W6/simpleAMM/src/simpleAMMV5.sol\":1461:1478  uint256 amountOut */\n      0x00\n        /* \"W6/simpleAMM/src/simpleAMMV5.sol\":1512:1521  _amountIn */\n      dup2\n        /* \"W6/simpleAMM/src/simpleAMMV5.sol\":1499:1508  msg.value */\n      callvalue\n        /* \"W6/simpleAMM/src/simpleAMMV5.sol\":1499:1521  msg.value == _amountIn */\n      eq\n        /* \"W6/simpleAMM/src/simpleAMMV5.sol\":1491:1545  require(msg.value == _amountIn, \"ETH amount mismatch\") */\n      tag_231\n      jumpi\n      mload(0x40)\n      0x08c379a000000000000000000000000000000000000000000000000000000000\n      dup2\n      mstore\n      0x04\n      add\n      tag_232\n      swap1\n      tag_233\n      jump\t// in\n    tag_232:\n      mload(0x40)\n      dup1\n      swap2\n      sub\n      swap1\n      revert\n    tag_231:\n        /* \"W6/simpleAMM/src/simpleAMMV5.sol\":1558:1581  uint256 amountInWithFee */\n      0x00\n        /* \"W6/simpleAMM/src/simpleAMMV5.sol\":1604:1608  1000 */\n      0x03e8\n        /* \"W6/simpleAMM/src/simpleAMMV5.sol\":1597:1600  997 */\n      0x03e5\n        /* \"W6/simpleAMM/src/simpleAMMV5.sol\":1585:1594  _amountIn */\n      dup5\n        /* \"W6/simpleAMM/src/simpleAMMV5.sol\":1585:1600  _amountIn * 997 */\n      tag_234\n      swap2\n      swap1\n      tag_123\n      jump\t// in\n    tag_234:\n        /* \"W6/simpleAMM/src/simpleAMMV5.sol\":1584:1608  (_amountIn * 997) / 1000 */\n      tag_235\n      swap2\n      swap1\n      tag_125\n      jump\t// in\n    tag_235:\n        /* \"W6/simpleAMM/src/simpleAMMV5.sol\":1558:1608  uint256 amountInWithFee = (_amountIn * 997) / 1000 */\n      swap1\n      pop\n        /* \"W6/simpleAMM/src/simpleAMMV5.sol\":1674:1689  amountInWithFee */\n      dup1\n        /* \"W6/simpleAMM/src/simpleAMMV5.sol\":1663:1671  reserve0 */\n      sload(0x00)\n        /* \"W6/simpleAMM/src/simpleAMMV5.sol\":1663:1689  reserve0 + amountInWithFee */\n      tag_236\n      swap2\n      swap1\n      tag_127\n      jump\t// in\n    tag_236:\n        /* \"W6/simpleAMM/src/simpleAMMV5.sol\":1643:1658  amountInWithFee */\n      dup2\n        /* \"W6/simpleAMM/src/simpleAMMV5.sol\":1632:1640  reserve1 */\n      sload(0x01)\n        /* \"W6/simpleAMM/src/simpleAMMV5.sol\":1632:1658  reserve1 * amountInWithFee */\n      tag_237\n      swap2\n      swap1\n      tag_123\n      jump\t// in\n    tag_237:\n        /* \"W6/simpleAMM/src/simpleAMMV5.sol\":1631:1690  (reserve1 * amountInWithFee) / (reserve0 + amountInWithFee) */\n      tag_238\n      swap2\n      swap1\n      tag_125\n      jump\t// in\n    tag_238:\n        /* \"W6/simpleAMM/src/simpleAMMV5.sol\":1619:1690  amountOut = (reserve1 * amountInWithFee) / (reserve0 + amountInWithFee) */\n      swap2\n      pop\n        /* \"W6/simpleAMM/src/simpleAMMV5.sol\":1703:1708  token */\n      immutable(\"0xb86663931131c5934d75630c23dd4e1bbff32671fc4d6ffaa5c4951268e1f0ba\")\n        /* \"W6/simpleAMM/src/simpleAMMV5.sol\":1703:1717  token.transfer */\n      0xffffffffffffffffffffffffffffffffffffffff\n      and\n      0xa9059cbb\n        /* \"W6/simpleAMM/src/simpleAMMV5.sol\":1718:1728  msg.sender */\n      caller\n        /* \"W6/simpleAMM/src/simpleAMMV5.sol\":1730:1739  amountOut */\n      dup5\n        /* \"W6/simpleAMM/src/simpleAMMV5.sol\":1703:1740  token.transfer(msg.sender, amountOut) */\n      mload(0x40)\n      dup4\n      0xffffffff\n      and\n      0xe0\n      shl\n      dup2\n      mstore\n      0x04\n      add\n      tag_239\n      swap3\n      swap2\n      swap1\n      tag_240\n      jump\t// in\n    tag_239:\n      0x20\n      mload(0x40)\n      dup1\n      dup4\n      sub\n      dup2\n      0x00\n      dup8\n      gas\n      call\n      iszero\n      dup1\n      iszero\n      tag_242\n      jumpi\n      returndatasize\n      0x00\n      dup1\n      returndatacopy\n      revert(0x00, returndatasize)\n    tag_242:\n      pop\n      pop\n      pop\n      pop\n      mload(0x40)\n      returndatasize\n      not(0x1f)\n      0x1f\n      dup3\n      add\n      and\n      dup3\n      add\n      dup1\n      0x40\n      mstore\n      pop\n      dup2\n      add\n      swap1\n      tag_243\n      swap2\n      swap1\n      tag_136\n      jump\t// in\n    tag_243:\n      pop\n        /* \"W6/simpleAMM/src/simpleAMMV5.sol\":1753:1815  _update(address(this).balance, token.balanceOf(address(this))) */\n      tag_244\n        /* \"W6/simpleAMM/src/simpleAMMV5.sol\":1761:1782  address(this).balance */\n      selfbalance\n        /* \"W6/simpleAMM/src/simpleAMMV5.sol\":1784:1789  token */\n      immutable(\"0xb86663931131c5934d75630c23dd4e1bbff32671fc4d6ffaa5c4951268e1f0ba\")\n        /* \"W6/simpleAMM/src/simpleAMMV5.sol\":1784:1799  token.balanceOf */\n      0xffffffffffffffffffffffffffffffffffffffff\n      and\n      0x70a08231\n        /* \"W6/simpleAMM/src/simpleAMMV5.sol\":1808:1812  this */\n      address\n        /* \"W6/simpleAMM/src/simpleAMMV5.sol\":1784:1814  token.balanceOf(address(this)) */\n      mload(0x40)\n      dup3\n      0xffffffff\n      and\n      0xe0\n      shl\n      dup2\n      mstore\n      0x04\n      add\n      tag_245\n      swap2\n      swap1\n      tag_96\n      jump\t// in\n    tag_245:\n      0x20\n      mload(0x40)\n      dup1\n      dup4\n      sub\n      dup2\n      dup7\n      gas\n      staticcall\n      iszero\n      dup1\n      iszero\n      tag_247\n      jumpi\n      returndatasize\n      0x00\n      dup1\n      returndatacopy\n      revert(0x00, returndatasize)\n    tag_247:\n      pop\n      pop\n      pop\n      pop\n      mload(0x40)\n      returndatasize\n      not(0x1f)\n      0x1f\n      dup3\n      add\n      and\n      dup3\n      add\n      dup1\n      0x40\n      mstore\n      pop\n      dup2\n      add\n      swap1\n      tag_248\n      swap2\n      swap1\n      tag_178\n      jump\t// in\n    tag_248:\n        /* \"W6/simpleAMM/src/simpleAMMV5.sol\":1753:1760  _update */\n      tag_179\n        /* \"W6/simpleAMM/src/simpleAMMV5.sol\":1753:1815  _update(address(this).balance, token.balanceOf(address(this))) */\n      jump\t// in\n    tag_244:\n        /* \"W6/simpleAMM/src/simpleAMMV5.sol\":1480:1823  {... */\n      pop\n        /* \"W6/simpleAMM/src/simpleAMMV5.sol\":1404:1823  function swap(uint256 _amountIn) public payable returns (uint256 amountOut) {... */\n      swap2\n      swap1\n      pop\n      jump\t// out\n        /* \"W6/simpleAMM/src/simpleAMMV5.sol\":4180:4413  function removeLiquidity(uint256 _shares) external returns (uint256 amount0, uint256 amount1) {... */\n    tag_80:\n        /* \"W6/simpleAMM/src/simpleAMMV5.sol\":4240:4255  uint256 amount0 */\n      0x00\n        /* \"W6/simpleAMM/src/simpleAMMV5.sol\":4257:4272  uint256 amount1 */\n      dup1\n        /* \"W6/simpleAMM/src/simpleAMMV5.sol\":4304:4313  balanceOf */\n      0x03\n        /* \"W6/simpleAMM/src/simpleAMMV5.sol\":4304:4325  balanceOf[msg.sender] */\n      0x00\n        /* \"W6/simpleAMM/src/simpleAMMV5.sol\":4314:4324  msg.sender */\n      caller\n        /* \"W6/simpleAMM/src/simpleAMMV5.sol\":4304:4325  balanceOf[msg.sender] */\n      0xffffffffffffffffffffffffffffffffffffffff\n      and\n      0xffffffffffffffffffffffffffffffffffffffff\n      and\n      dup2\n      mstore\n      0x20\n      add\n      swap1\n      dup2\n      mstore\n      0x20\n      add\n      0x00\n      keccak256\n      sload\n        /* \"W6/simpleAMM/src/simpleAMMV5.sol\":4293:4300  _shares */\n      dup4\n        /* \"W6/simpleAMM/src/simpleAMMV5.sol\":4293:4325  _shares <= balanceOf[msg.sender] */\n      gt\n      iszero\n        /* \"W6/simpleAMM/src/simpleAMMV5.sol\":4285:4350  require(_shares <= balanceOf[msg.sender], \"Insufficient balance\") */\n      tag_250\n      jumpi\n      mload(0x40)\n      0x08c379a000000000000000000000000000000000000000000000000000000000\n      dup2\n      mstore\n      0x04\n      add\n      tag_251\n      swap1\n      tag_252\n      jump\t// in\n    tag_251:\n      mload(0x40)\n      dup1\n      swap2\n      sub\n      swap1\n      revert\n    tag_250:\n        /* \"W6/simpleAMM/src/simpleAMMV5.sol\":4368:4405  _removeLiquidity(msg.sender, _shares) */\n      tag_253\n        /* \"W6/simpleAMM/src/simpleAMMV5.sol\":4385:4395  msg.sender */\n      caller\n        /* \"W6/simpleAMM/src/simpleAMMV5.sol\":4397:4404  _shares */\n      dup5\n        /* \"W6/simpleAMM/src/simpleAMMV5.sol\":4368:4384  _removeLiquidity */\n      tag_229\n        /* \"W6/simpleAMM/src/simpleAMMV5.sol\":4368:4405  _removeLiquidity(msg.sender, _shares) */\n      jump\t// in\n    tag_253:\n        /* \"W6/simpleAMM/src/simpleAMMV5.sol\":4361:4405  return _removeLiquidity(msg.sender, _shares) */\n      swap2\n      pop\n      swap2\n      pop\n        /* \"W6/simpleAMM/src/simpleAMMV5.sol\":4180:4413  function removeLiquidity(uint256 _shares) external returns (uint256 amount0, uint256 amount1) {... */\n      swap2\n      pop\n      swap2\n      jump\t// out\n        /* \"W6/simpleAMM/src/simpleAMMV5.sol\":4421:4659  function removeLiquidity(address _user, uint256 _shares) external returns (uint256 amount0, uint256 amount1) {... */\n    tag_86:\n        /* \"W6/simpleAMM/src/simpleAMMV5.sol\":4496:4511  uint256 amount0 */\n      0x00\n        /* \"W6/simpleAMM/src/simpleAMMV5.sol\":4513:4528  uint256 amount1 */\n      dup1\n        /* \"W6/simpleAMM/src/simpleAMMV5.sol\":4560:4569  balanceOf */\n      0x03\n        /* \"W6/simpleAMM/src/simpleAMMV5.sol\":4560:4576  balanceOf[_user] */\n      0x00\n        /* \"W6/simpleAMM/src/simpleAMMV5.sol\":4570:4575  _user */\n      dup6\n        /* \"W6/simpleAMM/src/simpleAMMV5.sol\":4560:4576  balanceOf[_user] */\n      0xffffffffffffffffffffffffffffffffffffffff\n      and\n      0xffffffffffffffffffffffffffffffffffffffff\n      and\n      dup2\n      mstore\n      0x20\n      add\n      swap1\n      dup2\n      mstore\n      0x20\n      add\n      0x00\n      keccak256\n      sload\n        /* \"W6/simpleAMM/src/simpleAMMV5.sol\":4549:4556  _shares */\n      dup4\n        /* \"W6/simpleAMM/src/simpleAMMV5.sol\":4549:4576  _shares <= balanceOf[_user] */\n      gt\n      iszero\n        /* \"W6/simpleAMM/src/simpleAMMV5.sol\":4541:4601  require(_shares <= balanceOf[_user], \"Insufficient balance\") */\n      tag_255\n      jumpi\n      mload(0x40)\n      0x08c379a000000000000000000000000000000000000000000000000000000000\n      dup2\n      mstore\n      0x04\n      add\n      tag_256\n      swap1\n      tag_252\n      jump\t// in\n    tag_256:\n      mload(0x40)\n      dup1\n      swap2\n      sub\n      swap1\n      revert\n    tag_255:\n        /* \"W6/simpleAMM/src/simpleAMMV5.sol\":4619:4651  _removeLiquidity(_user, _shares) */\n      tag_257\n        /* \"W6/simpleAMM/src/simpleAMMV5.sol\":4636:4641  _user */\n      dup5\n        /* \"W6/simpleAMM/src/simpleAMMV5.sol\":4643:4650  _shares */\n      dup5\n        /* \"W6/simpleAMM/src/simpleAMMV5.sol\":4619:4635  _removeLiquidity */\n      tag_229\n        /* \"W6/simpleAMM/src/simpleAMMV5.sol\":4619:4651  _removeLiquidity(_user, _shares) */\n      jump\t// in\n    tag_257:\n        /* \"W6/simpleAMM/src/simpleAMMV5.sol\":4612:4651  return _removeLiquidity(_user, _shares) */\n      swap2\n      pop\n      swap2\n      pop\n        /* \"W6/simpleAMM/src/simpleAMMV5.sol\":4421:4659  function removeLiquidity(address _user, uint256 _shares) external returns (uint256 amount0, uint256 amount1) {... */\n      swap3\n      pop\n      swap3\n      swap1\n      pop\n      jump\t// out\n        /* \"W6/simpleAMM/src/simpleAMMV5.sol\":5854:6035  function getETHPrice() public view returns (uint256) {... */\n    tag_90:\n        /* \"W6/simpleAMM/src/simpleAMMV5.sol\":5898:5905  uint256 */\n      0x00\n        /* \"W6/simpleAMM/src/simpleAMMV5.sol\":5937:5938  0 */\n      dup1\n        /* \"W6/simpleAMM/src/simpleAMMV5.sol\":5926:5934  reserve0 */\n      sload(0x00)\n        /* \"W6/simpleAMM/src/simpleAMMV5.sol\":5926:5938  reserve0 > 0 */\n      gt\n        /* \"W6/simpleAMM/src/simpleAMMV5.sol\":5926:5954  reserve0 > 0 && reserve1 > 0 */\n      dup1\n      iszero\n      tag_259\n      jumpi\n      pop\n        /* \"W6/simpleAMM/src/simpleAMMV5.sol\":5953:5954  0 */\n      0x00\n        /* \"W6/simpleAMM/src/simpleAMMV5.sol\":5942:5950  reserve1 */\n      sload(0x01)\n        /* \"W6/simpleAMM/src/simpleAMMV5.sol\":5942:5954  reserve1 > 0 */\n      gt\n        /* \"W6/simpleAMM/src/simpleAMMV5.sol\":5926:5954  reserve0 > 0 && reserve1 > 0 */\n    tag_259:\n        /* \"W6/simpleAMM/src/simpleAMMV5.sol\":5918:5979  require(reserve0 > 0 && reserve1 > 0, \"Invalid ETH reserves\") */\n      tag_260\n      jumpi\n      mload(0x40)\n      0x08c379a000000000000000000000000000000000000000000000000000000000\n      dup2\n      mstore\n      0x04\n      add\n      tag_261\n      swap1\n      tag_121\n      jump\t// in\n    tag_261:\n      mload(0x40)\n      dup1\n      swap2\n      sub\n      swap1\n      revert\n    tag_260:\n        /* \"W6/simpleAMM/src/simpleAMMV5.sol\":6019:6027  reserve0 */\n      sload(0x00)\n        /* \"W6/simpleAMM/src/simpleAMMV5.sol\":6009:6015  10**18 */\n      0x0de0b6b3a7640000\n        /* \"W6/simpleAMM/src/simpleAMMV5.sol\":5998:6006  reserve1 */\n      sload(0x01)\n        /* \"W6/simpleAMM/src/simpleAMMV5.sol\":5998:6015  reserve1 * 10**18 */\n      tag_262\n      swap2\n      swap1\n      tag_123\n      jump\t// in\n    tag_262:\n        /* \"W6/simpleAMM/src/simpleAMMV5.sol\":5997:6027  (reserve1 * 10**18) / reserve0 */\n      tag_263\n      swap2\n      swap1\n      tag_125\n      jump\t// in\n    tag_263:\n        /* \"W6/simpleAMM/src/simpleAMMV5.sol\":5990:6027  return (reserve1 * 10**18) / reserve0 */\n      swap1\n      pop\n        /* \"W6/simpleAMM/src/simpleAMMV5.sol\":5854:6035  function getETHPrice() public view returns (uint256) {... */\n      swap1\n      jump\t// out\n        /* \"W6/simpleAMM/src/simpleAMMV5.sol\":701:749  address public constant ETH_ADDRESS = address(0) */\n    tag_94:\n        /* \"W6/simpleAMM/src/simpleAMMV5.sol\":747:748  0 */\n      0x00\n        /* \"W6/simpleAMM/src/simpleAMMV5.sol\":701:749  address public constant ETH_ADDRESS = address(0) */\n      dup2\n      jump\t// out\n        /* \"W6/simpleAMM/src/simpleAMMV5.sol\":6230:6535  function getPredictOutputERC(uint256 _amount) public view returns (uint256) {... */\n    tag_100:\n        /* \"W6/simpleAMM/src/simpleAMMV5.sol\":6297:6304  uint256 */\n      0x00\n        /* \"W6/simpleAMM/src/simpleAMMV5.sol\":6336:6337  0 */\n      dup1\n        /* \"W6/simpleAMM/src/simpleAMMV5.sol\":6325:6333  reserve0 */\n      sload(0x00)\n        /* \"W6/simpleAMM/src/simpleAMMV5.sol\":6325:6337  reserve0 > 0 */\n      gt\n        /* \"W6/simpleAMM/src/simpleAMMV5.sol\":6325:6353  reserve0 > 0 && reserve1 > 0 */\n      dup1\n      iszero\n      tag_265\n      jumpi\n      pop\n        /* \"W6/simpleAMM/src/simpleAMMV5.sol\":6352:6353  0 */\n      0x00\n        /* \"W6/simpleAMM/src/simpleAMMV5.sol\":6341:6349  reserve1 */\n      sload(0x01)\n        /* \"W6/simpleAMM/src/simpleAMMV5.sol\":6341:6353  reserve1 > 0 */\n      gt\n        /* \"W6/simpleAMM/src/simpleAMMV5.sol\":6325:6353  reserve0 > 0 && reserve1 > 0 */\n    tag_265:\n        /* \"W6/simpleAMM/src/simpleAMMV5.sol\":6325:6366  reserve0 > 0 && reserve1 > 0 && _amount>0 */\n      dup1\n      iszero\n      tag_266\n      jumpi\n      pop\n        /* \"W6/simpleAMM/src/simpleAMMV5.sol\":6365:6366  0 */\n      0x00\n        /* \"W6/simpleAMM/src/simpleAMMV5.sol\":6357:6364  _amount */\n      dup3\n        /* \"W6/simpleAMM/src/simpleAMMV5.sol\":6357:6366  _amount>0 */\n      gt\n        /* \"W6/simpleAMM/src/simpleAMMV5.sol\":6325:6366  reserve0 > 0 && reserve1 > 0 && _amount>0 */\n    tag_266:\n        /* \"W6/simpleAMM/src/simpleAMMV5.sol\":6317:6393  require(reserve0 > 0 && reserve1 > 0 && _amount>0, \"Invalid ERC20 reserves\") */\n      tag_267\n      jumpi\n      mload(0x40)\n      0x08c379a000000000000000000000000000000000000000000000000000000000\n      dup2\n      mstore\n      0x04\n      add\n      tag_268\n      swap1\n      tag_269\n      jump\t// in\n    tag_268:\n      mload(0x40)\n      dup1\n      swap2\n      sub\n      swap1\n      revert\n    tag_267:\n        /* \"W6/simpleAMM/src/simpleAMMV5.sol\":6404:6427  uint256 amountInWithFee */\n      0x00\n        /* \"W6/simpleAMM/src/simpleAMMV5.sol\":6446:6450  1000 */\n      0x03e8\n        /* \"W6/simpleAMM/src/simpleAMMV5.sol\":6439:6442  997 */\n      0x03e5\n        /* \"W6/simpleAMM/src/simpleAMMV5.sol\":6429:6436  _amount */\n      dup5\n        /* \"W6/simpleAMM/src/simpleAMMV5.sol\":6429:6442  _amount * 997 */\n      tag_270\n      swap2\n      swap1\n      tag_123\n      jump\t// in\n    tag_270:\n        /* \"W6/simpleAMM/src/simpleAMMV5.sol\":6428:6450  (_amount * 997) / 1000 */\n      tag_271\n      swap2\n      swap1\n      tag_125\n      jump\t// in\n    tag_271:\n        /* \"W6/simpleAMM/src/simpleAMMV5.sol\":6404:6450  uint256 amountInWithFee=(_amount * 997) / 1000 */\n      swap1\n      pop\n        /* \"W6/simpleAMM/src/simpleAMMV5.sol\":6511:6526  amountInWithFee */\n      dup1\n        /* \"W6/simpleAMM/src/simpleAMMV5.sol\":6500:6508  reserve0 */\n      sload(0x00)\n        /* \"W6/simpleAMM/src/simpleAMMV5.sol\":6500:6526  reserve0 + amountInWithFee */\n      tag_272\n      swap2\n      swap1\n      tag_127\n      jump\t// in\n    tag_272:\n        /* \"W6/simpleAMM/src/simpleAMMV5.sol\":6480:6495  amountInWithFee */\n      dup2\n        /* \"W6/simpleAMM/src/simpleAMMV5.sol\":6469:6477  reserve1 */\n      sload(0x01)\n        /* \"W6/simpleAMM/src/simpleAMMV5.sol\":6469:6495  reserve1 * amountInWithFee */\n      tag_273\n      swap2\n      swap1\n      tag_123\n      jump\t// in\n    tag_273:\n        /* \"W6/simpleAMM/src/simpleAMMV5.sol\":6468:6527  (reserve1 * amountInWithFee) / (reserve0 + amountInWithFee) */\n      tag_274\n      swap2\n      swap1\n      tag_125\n      jump\t// in\n    tag_274:\n        /* \"W6/simpleAMM/src/simpleAMMV5.sol\":6461:6527  return (reserve1 * amountInWithFee) / (reserve0 + amountInWithFee) */\n      swap2\n      pop\n      pop\n        /* \"W6/simpleAMM/src/simpleAMMV5.sol\":6230:6535  function getPredictOutputERC(uint256 _amount) public view returns (uint256) {... */\n      swap2\n      swap1\n      pop\n      jump\t// out\n        /* \"W6/simpleAMM/src/simpleAMMV5.sol\":5320:5423  function sharesOf(address _user) public view returns(uint256){... */\n    tag_105:\n        /* \"W6/simpleAMM/src/simpleAMMV5.sol\":5373:5380  uint256 */\n      0x00\n        /* \"W6/simpleAMM/src/simpleAMMV5.sol\":5399:5408  balanceOf */\n      0x03\n        /* \"W6/simpleAMM/src/simpleAMMV5.sol\":5399:5415  balanceOf[_user] */\n      0x00\n        /* \"W6/simpleAMM/src/simpleAMMV5.sol\":5409:5414  _user */\n      dup4\n        /* \"W6/simpleAMM/src/simpleAMMV5.sol\":5399:5415  balanceOf[_user] */\n      0xffffffffffffffffffffffffffffffffffffffff\n      and\n      0xffffffffffffffffffffffffffffffffffffffff\n      and\n      dup2\n      mstore\n      0x20\n      add\n      swap1\n      dup2\n      mstore\n      0x20\n      add\n      0x00\n      keccak256\n      sload\n        /* \"W6/simpleAMM/src/simpleAMMV5.sol\":5392:5415  return balanceOf[_user] */\n      swap1\n      pop\n        /* \"W6/simpleAMM/src/simpleAMMV5.sol\":5320:5423  function sharesOf(address _user) public view returns(uint256){... */\n      swap2\n      swap1\n      pop\n      jump\t// out\n        /* \"W6/simpleAMM/src/simpleAMMV5.sol\":665:694  IERC20 public immutable token */\n    tag_109:\n      immutable(\"0xb86663931131c5934d75630c23dd4e1bbff32671fc4d6ffaa5c4951268e1f0ba\")\n      dup2\n      jump\t// out\n        /* \"W6/simpleAMM/src/simpleAMMV5.sol\":6041:6224  function getERCPrice() public view returns (uint256) {... */\n    tag_114:\n        /* \"W6/simpleAMM/src/simpleAMMV5.sol\":6085:6092  uint256 */\n      0x00\n        /* \"W6/simpleAMM/src/simpleAMMV5.sol\":6124:6125  0 */\n      dup1\n        /* \"W6/simpleAMM/src/simpleAMMV5.sol\":6113:6121  reserve0 */\n      sload(0x00)\n        /* \"W6/simpleAMM/src/simpleAMMV5.sol\":6113:6125  reserve0 > 0 */\n      gt\n        /* \"W6/simpleAMM/src/simpleAMMV5.sol\":6113:6141  reserve0 > 0 && reserve1 > 0 */\n      dup1\n      iszero\n      tag_277\n      jumpi\n      pop\n        /* \"W6/simpleAMM/src/simpleAMMV5.sol\":6140:6141  0 */\n      0x00\n        /* \"W6/simpleAMM/src/simpleAMMV5.sol\":6129:6137  reserve1 */\n      sload(0x01)\n        /* \"W6/simpleAMM/src/simpleAMMV5.sol\":6129:6141  reserve1 > 0 */\n      gt\n        /* \"W6/simpleAMM/src/simpleAMMV5.sol\":6113:6141  reserve0 > 0 && reserve1 > 0 */\n    tag_277:\n        /* \"W6/simpleAMM/src/simpleAMMV5.sol\":6105:6168  require(reserve0 > 0 && reserve1 > 0, \"Invalid ERC20 reserves\") */\n      tag_278\n      jumpi\n      mload(0x40)\n      0x08c379a000000000000000000000000000000000000000000000000000000000\n      dup2\n      mstore\n      0x04\n      add\n      tag_279\n      swap1\n      tag_269\n      jump\t// in\n    tag_279:\n      mload(0x40)\n      dup1\n      swap2\n      sub\n      swap1\n      revert\n    tag_278:\n        /* \"W6/simpleAMM/src/simpleAMMV5.sol\":6208:6216  reserve1 */\n      sload(0x01)\n        /* \"W6/simpleAMM/src/simpleAMMV5.sol\":6198:6204  10**18 */\n      0x0de0b6b3a7640000\n        /* \"W6/simpleAMM/src/simpleAMMV5.sol\":6187:6195  reserve0 */\n      sload(0x00)\n        /* \"W6/simpleAMM/src/simpleAMMV5.sol\":6187:6204  reserve0 * 10**18 */\n      tag_280\n      swap2\n      swap1\n      tag_123\n      jump\t// in\n    tag_280:\n        /* \"W6/simpleAMM/src/simpleAMMV5.sol\":6186:6216  (reserve0 * 10**18) / reserve1 */\n      tag_281\n      swap2\n      swap1\n      tag_125\n      jump\t// in\n    tag_281:\n        /* \"W6/simpleAMM/src/simpleAMMV5.sol\":6179:6216  return (reserve0 * 10**18) / reserve1 */\n      swap1\n      pop\n        /* \"W6/simpleAMM/src/simpleAMMV5.sol\":6041:6224  function getERCPrice() public view returns (uint256) {... */\n      swap1\n      jump\t// out\n        /* \"W6/simpleAMM/src/simpleAMMV5.sol\":5431:5735  function _sqrt(uint y) internal pure returns (uint z) {... */\n    tag_160:\n        /* \"W6/simpleAMM/src/simpleAMMV5.sol\":5477:5483  uint z */\n      0x00\n        /* \"W6/simpleAMM/src/simpleAMMV5.sol\":5504:5505  3 */\n      0x03\n        /* \"W6/simpleAMM/src/simpleAMMV5.sol\":5500:5501  y */\n      dup3\n        /* \"W6/simpleAMM/src/simpleAMMV5.sol\":5500:5505  y > 3 */\n      gt\n        /* \"W6/simpleAMM/src/simpleAMMV5.sol\":5496:5728  if (y > 3) {... */\n      iszero\n      tag_283\n      jumpi\n        /* \"W6/simpleAMM/src/simpleAMMV5.sol\":5526:5527  y */\n      dup2\n        /* \"W6/simpleAMM/src/simpleAMMV5.sol\":5522:5527  z = y */\n      swap1\n      pop\n        /* \"W6/simpleAMM/src/simpleAMMV5.sol\":5542:5548  uint x */\n      0x00\n        /* \"W6/simpleAMM/src/simpleAMMV5.sol\":5559:5560  1 */\n      0x01\n        /* \"W6/simpleAMM/src/simpleAMMV5.sol\":5555:5556  2 */\n      0x02\n        /* \"W6/simpleAMM/src/simpleAMMV5.sol\":5551:5552  y */\n      dup5\n        /* \"W6/simpleAMM/src/simpleAMMV5.sol\":5551:5556  y / 2 */\n      tag_284\n      swap2\n      swap1\n      tag_125\n      jump\t// in\n    tag_284:\n        /* \"W6/simpleAMM/src/simpleAMMV5.sol\":5551:5560  y / 2 + 1 */\n      tag_285\n      swap2\n      swap1\n      tag_127\n      jump\t// in\n    tag_285:\n        /* \"W6/simpleAMM/src/simpleAMMV5.sol\":5542:5560  uint x = y / 2 + 1 */\n      swap1\n      pop\n        /* \"W6/simpleAMM/src/simpleAMMV5.sol\":5575:5667  while (x < z) {... */\n    tag_286:\n        /* \"W6/simpleAMM/src/simpleAMMV5.sol\":5586:5587  z */\n      dup2\n        /* \"W6/simpleAMM/src/simpleAMMV5.sol\":5582:5583  x */\n      dup2\n        /* \"W6/simpleAMM/src/simpleAMMV5.sol\":5582:5587  x < z */\n      lt\n        /* \"W6/simpleAMM/src/simpleAMMV5.sol\":5575:5667  while (x < z) {... */\n      iszero\n      tag_287\n      jumpi\n        /* \"W6/simpleAMM/src/simpleAMMV5.sol\":5612:5613  x */\n      dup1\n        /* \"W6/simpleAMM/src/simpleAMMV5.sol\":5608:5613  z = x */\n      swap2\n      pop\n        /* \"W6/simpleAMM/src/simpleAMMV5.sol\":5650:5651  2 */\n      0x02\n        /* \"W6/simpleAMM/src/simpleAMMV5.sol\":5645:5646  x */\n      dup2\n        /* \"W6/simpleAMM/src/simpleAMMV5.sol\":5641:5642  x */\n      dup3\n        /* \"W6/simpleAMM/src/simpleAMMV5.sol\":5637:5638  y */\n      dup6\n        /* \"W6/simpleAMM/src/simpleAMMV5.sol\":5637:5642  y / x */\n      tag_288\n      swap2\n      swap1\n      tag_125\n      jump\t// in\n    tag_288:\n        /* \"W6/simpleAMM/src/simpleAMMV5.sol\":5637:5646  y / x + x */\n      tag_289\n      swap2\n      swap1\n      tag_127\n      jump\t// in\n    tag_289:\n        /* \"W6/simpleAMM/src/simpleAMMV5.sol\":5636:5651  (y / x + x) / 2 */\n      tag_290\n      swap2\n      swap1\n      tag_125\n      jump\t// in\n    tag_290:\n        /* \"W6/simpleAMM/src/simpleAMMV5.sol\":5632:5651  x = (y / x + x) / 2 */\n      swap1\n      pop\n        /* \"W6/simpleAMM/src/simpleAMMV5.sol\":5575:5667  while (x < z) {... */\n      jump(tag_286)\n    tag_287:\n        /* \"W6/simpleAMM/src/simpleAMMV5.sol\":5507:5678  {... */\n      pop\n        /* \"W6/simpleAMM/src/simpleAMMV5.sol\":5496:5728  if (y > 3) {... */\n      jump(tag_291)\n    tag_283:\n        /* \"W6/simpleAMM/src/simpleAMMV5.sol\":5693:5694  0 */\n      0x00\n        /* \"W6/simpleAMM/src/simpleAMMV5.sol\":5688:5689  y */\n      dup3\n        /* \"W6/simpleAMM/src/simpleAMMV5.sol\":5688:5694  y != 0 */\n      eq\n        /* \"W6/simpleAMM/src/simpleAMMV5.sol\":5684:5728  if (y != 0) {... */\n      tag_292\n      jumpi\n        /* \"W6/simpleAMM/src/simpleAMMV5.sol\":5715:5716  1 */\n      0x01\n        /* \"W6/simpleAMM/src/simpleAMMV5.sol\":5711:5716  z = 1 */\n      swap1\n      pop\n        /* \"W6/simpleAMM/src/simpleAMMV5.sol\":5684:5728  if (y != 0) {... */\n    tag_292:\n        /* \"W6/simpleAMM/src/simpleAMMV5.sol\":5496:5728  if (y > 3) {... */\n    tag_291:\n        /* \"W6/simpleAMM/src/simpleAMMV5.sol\":5431:5735  function _sqrt(uint y) internal pure returns (uint z) {... */\n      swap2\n      swap1\n      pop\n      jump\t// out\n        /* \"@openzeppelin/contracts/utils/math/Math.sol\":588:692  function min(uint256 a, uint256 b) internal pure returns (uint256) {... */\n    tag_167:\n        /* \"@openzeppelin/contracts/utils/math/Math.sol\":646:653  uint256 */\n      0x00\n        /* \"@openzeppelin/contracts/utils/math/Math.sol\":676:677  b */\n      dup2\n        /* \"@openzeppelin/contracts/utils/math/Math.sol\":672:673  a */\n      dup4\n        /* \"@openzeppelin/contracts/utils/math/Math.sol\":672:677  a < b */\n      lt\n        /* \"@openzeppelin/contracts/utils/math/Math.sol\":672:685  a < b ? a : b */\n      tag_294\n      jumpi\n        /* \"@openzeppelin/contracts/utils/math/Math.sol\":684:685  b */\n      dup2\n        /* \"@openzeppelin/contracts/utils/math/Math.sol\":672:685  a < b ? a : b */\n      jump(tag_295)\n    tag_294:\n        /* \"@openzeppelin/contracts/utils/math/Math.sol\":680:681  a */\n      dup3\n        /* \"@openzeppelin/contracts/utils/math/Math.sol\":672:685  a < b ? a : b */\n    tag_295:\n        /* \"@openzeppelin/contracts/utils/math/Math.sol\":665:685  return a < b ? a : b */\n      swap1\n      pop\n        /* \"@openzeppelin/contracts/utils/math/Math.sol\":588:692  function min(uint256 a, uint256 b) internal pure returns (uint256) {... */\n      swap3\n      swap2\n      pop\n      pop\n      jump\t// out\n        /* \"W6/simpleAMM/src/simpleAMMV5.sol\":983:1113  function _mint(address _to, uint256 _amount) private {... */\n    tag_172:\n        /* \"W6/simpleAMM/src/simpleAMMV5.sol\":1065:1072  _amount */\n      dup1\n        /* \"W6/simpleAMM/src/simpleAMMV5.sol\":1047:1056  balanceOf */\n      0x03\n        /* \"W6/simpleAMM/src/simpleAMMV5.sol\":1047:1061  balanceOf[_to] */\n      0x00\n        /* \"W6/simpleAMM/src/simpleAMMV5.sol\":1057:1060  _to */\n      dup5\n        /* \"W6/simpleAMM/src/simpleAMMV5.sol\":1047:1061  balanceOf[_to] */\n      0xffffffffffffffffffffffffffffffffffffffff\n      and\n      0xffffffffffffffffffffffffffffffffffffffff\n      and\n      dup2\n      mstore\n      0x20\n      add\n      swap1\n      dup2\n      mstore\n      0x20\n      add\n      0x00\n      keccak256\n      0x00\n        /* \"W6/simpleAMM/src/simpleAMMV5.sol\":1047:1072  balanceOf[_to] += _amount */\n      dup3\n      dup3\n      sload\n      tag_297\n      swap2\n      swap1\n      tag_127\n      jump\t// in\n    tag_297:\n      swap3\n      pop\n      pop\n      dup2\n      swap1\n      sstore\n      pop\n        /* \"W6/simpleAMM/src/simpleAMMV5.sol\":1098:1105  _amount */\n      dup1\n        /* \"W6/simpleAMM/src/simpleAMMV5.sol\":1083:1094  totalSupply */\n      0x02\n      0x00\n        /* \"W6/simpleAMM/src/simpleAMMV5.sol\":1083:1105  totalSupply += _amount */\n      dup3\n      dup3\n      sload\n      tag_298\n      swap2\n      swap1\n      tag_127\n      jump\t// in\n    tag_298:\n      swap3\n      pop\n      pop\n      dup2\n      swap1\n      sstore\n      pop\n        /* \"W6/simpleAMM/src/simpleAMMV5.sol\":983:1113  function _mint(address _to, uint256 _amount) private {... */\n      pop\n      pop\n      jump\t// out\n        /* \"W6/simpleAMM/src/simpleAMMV5.sol\":1263:1396  function _update(uint256 _reserve0, uint256 _reserve1) private {... */\n    tag_179:\n        /* \"W6/simpleAMM/src/simpleAMMV5.sol\":1348:1357  _reserve0 */\n      dup2\n        /* \"W6/simpleAMM/src/simpleAMMV5.sol\":1337:1345  reserve0 */\n      0x00\n        /* \"W6/simpleAMM/src/simpleAMMV5.sol\":1337:1357  reserve0 = _reserve0 */\n      dup2\n      swap1\n      sstore\n      pop\n        /* \"W6/simpleAMM/src/simpleAMMV5.sol\":1379:1388  _reserve1 */\n      dup1\n        /* \"W6/simpleAMM/src/simpleAMMV5.sol\":1368:1376  reserve1 */\n      0x01\n        /* \"W6/simpleAMM/src/simpleAMMV5.sol\":1368:1388  reserve1 = _reserve1 */\n      dup2\n      swap1\n      sstore\n      pop\n        /* \"W6/simpleAMM/src/simpleAMMV5.sol\":1263:1396  function _update(uint256 _reserve0, uint256 _reserve1) private {... */\n      pop\n      pop\n      jump\t// out\n        /* \"W6/simpleAMM/src/simpleAMMV5.sol\":5741:5848  function _min(uint256 x, uint256 y) private pure returns (uint256) {... */\n    tag_204:\n        /* \"W6/simpleAMM/src/simpleAMMV5.sol\":5799:5806  uint256 */\n      0x00\n        /* \"W6/simpleAMM/src/simpleAMMV5.sol\":5831:5832  y */\n      dup2\n        /* \"W6/simpleAMM/src/simpleAMMV5.sol\":5826:5827  x */\n      dup4\n        /* \"W6/simpleAMM/src/simpleAMMV5.sol\":5826:5832  x <= y */\n      gt\n      iszero\n        /* \"W6/simpleAMM/src/simpleAMMV5.sol\":5826:5840  x <= y ? x : y */\n      tag_301\n      jumpi\n        /* \"W6/simpleAMM/src/simpleAMMV5.sol\":5839:5840  y */\n      dup2\n        /* \"W6/simpleAMM/src/simpleAMMV5.sol\":5826:5840  x <= y ? x : y */\n      jump(tag_302)\n    tag_301:\n        /* \"W6/simpleAMM/src/simpleAMMV5.sol\":5835:5836  x */\n      dup3\n        /* \"W6/simpleAMM/src/simpleAMMV5.sol\":5826:5840  x <= y ? x : y */\n    tag_302:\n        /* \"W6/simpleAMM/src/simpleAMMV5.sol\":5819:5840  return x <= y ? x : y */\n      swap1\n      pop\n        /* \"W6/simpleAMM/src/simpleAMMV5.sol\":5741:5848  function _min(uint256 x, uint256 y) private pure returns (uint256) {... */\n      swap3\n      swap2\n      pop\n      pop\n      jump\t// out\n        /* \"W6/simpleAMM/src/simpleAMMV5.sol\":4665:5213  function _removeLiquidity(address _user, uint256 _shares) internal returns (uint256 amount0, uint256 amount1) {... */\n    tag_229:\n        /* \"W6/simpleAMM/src/simpleAMMV5.sol\":4741:4756  uint256 amount0 */\n      0x00\n        /* \"W6/simpleAMM/src/simpleAMMV5.sol\":4758:4773  uint256 amount1 */\n      dup1\n        /* \"W6/simpleAMM/src/simpleAMMV5.sol\":4832:4843  totalSupply */\n      sload(0x02)\n        /* \"W6/simpleAMM/src/simpleAMMV5.sol\":4807:4828  address(this).balance */\n      selfbalance\n        /* \"W6/simpleAMM/src/simpleAMMV5.sol\":4797:4804  _shares */\n      dup5\n        /* \"W6/simpleAMM/src/simpleAMMV5.sol\":4797:4828  _shares * address(this).balance */\n      tag_304\n      swap2\n      swap1\n      tag_123\n      jump\t// in\n    tag_304:\n        /* \"W6/simpleAMM/src/simpleAMMV5.sol\":4796:4843  (_shares * address(this).balance) / totalSupply */\n      tag_305\n      swap2\n      swap1\n      tag_125\n      jump\t// in\n    tag_305:\n        /* \"W6/simpleAMM/src/simpleAMMV5.sol\":4786:4843  amount0 = (_shares * address(this).balance) / totalSupply */\n      swap2\n      pop\n        /* \"W6/simpleAMM/src/simpleAMMV5.sol\":4909:4920  totalSupply */\n      sload(0x02)\n        /* \"W6/simpleAMM/src/simpleAMMV5.sol\":4875:4880  token */\n      immutable(\"0xb86663931131c5934d75630c23dd4e1bbff32671fc4d6ffaa5c4951268e1f0ba\")\n        /* \"W6/simpleAMM/src/simpleAMMV5.sol\":4875:4890  token.balanceOf */\n      0xffffffffffffffffffffffffffffffffffffffff\n      and\n      0x70a08231\n        /* \"W6/simpleAMM/src/simpleAMMV5.sol\":4899:4903  this */\n      address\n        /* \"W6/simpleAMM/src/simpleAMMV5.sol\":4875:4905  token.balanceOf(address(this)) */\n      mload(0x40)\n      dup3\n      0xffffffff\n      and\n      0xe0\n      shl\n      dup2\n      mstore\n      0x04\n      add\n      tag_306\n      swap2\n      swap1\n      tag_96\n      jump\t// in\n    tag_306:\n      0x20\n      mload(0x40)\n      dup1\n      dup4\n      sub\n      dup2\n      dup7\n      gas\n      staticcall\n      iszero\n      dup1\n      iszero\n      tag_308\n      jumpi\n      returndatasize\n      0x00\n      dup1\n      returndatacopy\n      revert(0x00, returndatasize)\n    tag_308:\n      pop\n      pop\n      pop\n      pop\n      mload(0x40)\n      returndatasize\n      not(0x1f)\n      0x1f\n      dup3\n      add\n      and\n      dup3\n      add\n      dup1\n      0x40\n      mstore\n      pop\n      dup2\n      add\n      swap1\n      tag_309\n      swap2\n      swap1\n      tag_178\n      jump\t// in\n    tag_309:\n        /* \"W6/simpleAMM/src/simpleAMMV5.sol\":4865:4872  _shares */\n      dup5\n        /* \"W6/simpleAMM/src/simpleAMMV5.sol\":4865:4905  _shares * token.balanceOf(address(this)) */\n      tag_310\n      swap2\n      swap1\n      tag_123\n      jump\t// in\n    tag_310:\n        /* \"W6/simpleAMM/src/simpleAMMV5.sol\":4864:4920  (_shares * token.balanceOf(address(this))) / totalSupply */\n      tag_311\n      swap2\n      swap1\n      tag_125\n      jump\t// in\n    tag_311:\n        /* \"W6/simpleAMM/src/simpleAMMV5.sol\":4854:4920  amount1 = (_shares * token.balanceOf(address(this))) / totalSupply */\n      swap1\n      pop\n        /* \"W6/simpleAMM/src/simpleAMMV5.sol\":4949:4950  0 */\n      0x00\n        /* \"W6/simpleAMM/src/simpleAMMV5.sol\":4939:4946  amount0 */\n      dup3\n        /* \"W6/simpleAMM/src/simpleAMMV5.sol\":4939:4950  amount0 > 0 */\n      gt\n        /* \"W6/simpleAMM/src/simpleAMMV5.sol\":4939:4965  amount0 > 0 && amount1 > 0 */\n      dup1\n      iszero\n      tag_312\n      jumpi\n      pop\n        /* \"W6/simpleAMM/src/simpleAMMV5.sol\":4964:4965  0 */\n      0x00\n        /* \"W6/simpleAMM/src/simpleAMMV5.sol\":4954:4961  amount1 */\n      dup2\n        /* \"W6/simpleAMM/src/simpleAMMV5.sol\":4954:4965  amount1 > 0 */\n      gt\n        /* \"W6/simpleAMM/src/simpleAMMV5.sol\":4939:4965  amount0 > 0 && amount1 > 0 */\n    tag_312:\n        /* \"W6/simpleAMM/src/simpleAMMV5.sol\":4931:4992  require(amount0 > 0 && amount1 > 0, \"amount0 or amount1 = 0\") */\n      tag_313\n      jumpi\n      mload(0x40)\n      0x08c379a000000000000000000000000000000000000000000000000000000000\n      dup2\n      mstore\n      0x04\n      add\n      tag_314\n      swap1\n      tag_315\n      jump\t// in\n    tag_314:\n      mload(0x40)\n      dup1\n      swap2\n      sub\n      swap1\n      revert\n    tag_313:\n        /* \"W6/simpleAMM/src/simpleAMMV5.sol\":5005:5026  _burn(_user, _shares) */\n      tag_316\n        /* \"W6/simpleAMM/src/simpleAMMV5.sol\":5011:5016  _user */\n      dup5\n        /* \"W6/simpleAMM/src/simpleAMMV5.sol\":5018:5025  _shares */\n      dup5\n        /* \"W6/simpleAMM/src/simpleAMMV5.sol\":5005:5010  _burn */\n      tag_317\n        /* \"W6/simpleAMM/src/simpleAMMV5.sol\":5005:5026  _burn(_user, _shares) */\n      jump\t// in\n    tag_316:\n        /* \"W6/simpleAMM/src/simpleAMMV5.sol\":5037:5119  _update(address(this).balance - amount0, token.balanceOf(address(this)) - amount1) */\n      tag_318\n        /* \"W6/simpleAMM/src/simpleAMMV5.sol\":5069:5076  amount0 */\n      dup3\n        /* \"W6/simpleAMM/src/simpleAMMV5.sol\":5045:5066  address(this).balance */\n      selfbalance\n        /* \"W6/simpleAMM/src/simpleAMMV5.sol\":5045:5076  address(this).balance - amount0 */\n      tag_319\n      swap2\n      swap1\n      tag_148\n      jump\t// in\n    tag_319:\n        /* \"W6/simpleAMM/src/simpleAMMV5.sol\":5111:5118  amount1 */\n      dup3\n        /* \"W6/simpleAMM/src/simpleAMMV5.sol\":5078:5083  token */\n      immutable(\"0xb86663931131c5934d75630c23dd4e1bbff32671fc4d6ffaa5c4951268e1f0ba\")\n        /* \"W6/simpleAMM/src/simpleAMMV5.sol\":5078:5093  token.balanceOf */\n      0xffffffffffffffffffffffffffffffffffffffff\n      and\n      0x70a08231\n        /* \"W6/simpleAMM/src/simpleAMMV5.sol\":5102:5106  this */\n      address\n        /* \"W6/simpleAMM/src/simpleAMMV5.sol\":5078:5108  token.balanceOf(address(this)) */\n      mload(0x40)\n      dup3\n      0xffffffff\n      and\n      0xe0\n      shl\n      dup2\n      mstore\n      0x04\n      add\n      tag_320\n      swap2\n      swap1\n      tag_96\n      jump\t// in\n    tag_320:\n      0x20\n      mload(0x40)\n      dup1\n      dup4\n      sub\n      dup2\n      dup7\n      gas\n      staticcall\n      iszero\n      dup1\n      iszero\n      tag_322\n      jumpi\n      returndatasize\n      0x00\n      dup1\n      returndatacopy\n      revert(0x00, returndatasize)\n    tag_322:\n      pop\n      pop\n      pop\n      pop\n      mload(0x40)\n      returndatasize\n      not(0x1f)\n      0x1f\n      dup3\n      add\n      and\n      dup3\n      add\n      dup1\n      0x40\n      mstore\n      pop\n      dup2\n      add\n      swap1\n      tag_323\n      swap2\n      swap1\n      tag_178\n      jump\t// in\n    tag_323:\n        /* \"W6/simpleAMM/src/simpleAMMV5.sol\":5078:5118  token.balanceOf(address(this)) - amount1 */\n      tag_324\n      swap2\n      swap1\n      tag_148\n      jump\t// in\n    tag_324:\n        /* \"W6/simpleAMM/src/simpleAMMV5.sol\":5037:5044  _update */\n      tag_179\n        /* \"W6/simpleAMM/src/simpleAMMV5.sol\":5037:5119  _update(address(this).balance - amount0, token.balanceOf(address(this)) - amount1) */\n      jump\t// in\n    tag_318:\n        /* \"W6/simpleAMM/src/simpleAMMV5.sol\":5140:5145  _user */\n      dup4\n        /* \"W6/simpleAMM/src/simpleAMMV5.sol\":5132:5155  payable(_user).transfer */\n      0xffffffffffffffffffffffffffffffffffffffff\n      and\n        /* \"W6/simpleAMM/src/simpleAMMV5.sol\":5132:5164  payable(_user).transfer(amount0) */\n      0x08fc\n        /* \"W6/simpleAMM/src/simpleAMMV5.sol\":5156:5163  amount0 */\n      dup4\n        /* \"W6/simpleAMM/src/simpleAMMV5.sol\":5132:5164  payable(_user).transfer(amount0) */\n      swap1\n      dup2\n      iszero\n      mul\n      swap1\n      mload(0x40)\n      0x00\n      mload(0x40)\n      dup1\n      dup4\n      sub\n      dup2\n      dup6\n      dup9\n      dup9\n      call\n      swap4\n      pop\n      pop\n      pop\n      pop\n      iszero\n      dup1\n      iszero\n      tag_326\n      jumpi\n      returndatasize\n      0x00\n      dup1\n      returndatacopy\n      revert(0x00, returndatasize)\n    tag_326:\n      pop\n        /* \"W6/simpleAMM/src/simpleAMMV5.sol\":5175:5180  token */\n      immutable(\"0xb86663931131c5934d75630c23dd4e1bbff32671fc4d6ffaa5c4951268e1f0ba\")\n        /* \"W6/simpleAMM/src/simpleAMMV5.sol\":5175:5189  token.transfer */\n      0xffffffffffffffffffffffffffffffffffffffff\n      and\n      0xa9059cbb\n        /* \"W6/simpleAMM/src/simpleAMMV5.sol\":5190:5195  _user */\n      dup6\n        /* \"W6/simpleAMM/src/simpleAMMV5.sol\":5197:5204  amount1 */\n      dup4\n        /* \"W6/simpleAMM/src/simpleAMMV5.sol\":5175:5205  token.transfer(_user, amount1) */\n      mload(0x40)\n      dup4\n      0xffffffff\n      and\n      0xe0\n      shl\n      dup2\n      mstore\n      0x04\n      add\n      tag_327\n      swap3\n      swap2\n      swap1\n      tag_240\n      jump\t// in\n    tag_327:\n      0x20\n      mload(0x40)\n      dup1\n      dup4\n      sub\n      dup2\n      0x00\n      dup8\n      gas\n      call\n      iszero\n      dup1\n      iszero\n      tag_329\n      jumpi\n      returndatasize\n      0x00\n      dup1\n      returndatacopy\n      revert(0x00, returndatasize)\n    tag_329:\n      pop\n      pop\n      pop\n      pop\n      mload(0x40)\n      returndatasize\n      not(0x1f)\n      0x1f\n      dup3\n      add\n      and\n      dup3\n      add\n      dup1\n      0x40\n      mstore\n      pop\n      dup2\n      add\n      swap1\n      tag_330\n      swap2\n      swap1\n      tag_136\n      jump\t// in\n    tag_330:\n      pop\n        /* \"W6/simpleAMM/src/simpleAMMV5.sol\":4665:5213  function _removeLiquidity(address _user, uint256 _shares) internal returns (uint256 amount0, uint256 amount1) {... */\n      swap3\n      pop\n      swap3\n      swap1\n      pop\n      jump\t// out\n        /* \"W6/simpleAMM/src/simpleAMMV5.sol\":1121:1255  function _burn(address _from, uint256 _amount) private {... */\n    tag_317:\n        /* \"W6/simpleAMM/src/simpleAMMV5.sol\":1207:1214  _amount */\n      dup1\n        /* \"W6/simpleAMM/src/simpleAMMV5.sol\":1187:1196  balanceOf */\n      0x03\n        /* \"W6/simpleAMM/src/simpleAMMV5.sol\":1187:1203  balanceOf[_from] */\n      0x00\n        /* \"W6/simpleAMM/src/simpleAMMV5.sol\":1197:1202  _from */\n      dup5\n        /* \"W6/simpleAMM/src/simpleAMMV5.sol\":1187:1203  balanceOf[_from] */\n      0xffffffffffffffffffffffffffffffffffffffff\n      and\n      0xffffffffffffffffffffffffffffffffffffffff\n      and\n      dup2\n      mstore\n      0x20\n      add\n      swap1\n      dup2\n      mstore\n      0x20\n      add\n      0x00\n      keccak256\n      0x00\n        /* \"W6/simpleAMM/src/simpleAMMV5.sol\":1187:1214  balanceOf[_from] -= _amount */\n      dup3\n      dup3\n      sload\n      tag_332\n      swap2\n      swap1\n      tag_148\n      jump\t// in\n    tag_332:\n      swap3\n      pop\n      pop\n      dup2\n      swap1\n      sstore\n      pop\n        /* \"W6/simpleAMM/src/simpleAMMV5.sol\":1240:1247  _amount */\n      dup1\n        /* \"W6/simpleAMM/src/simpleAMMV5.sol\":1225:1236  totalSupply */\n      0x02\n      0x00\n        /* \"W6/simpleAMM/src/simpleAMMV5.sol\":1225:1247  totalSupply -= _amount */\n      dup3\n      dup3\n      sload\n      tag_333\n      swap2\n      swap1\n      tag_148\n      jump\t// in\n    tag_333:\n      swap3\n      pop\n      pop\n      dup2\n      swap1\n      sstore\n      pop\n        /* \"W6/simpleAMM/src/simpleAMMV5.sol\":1121:1255  function _burn(address _from, uint256 _amount) private {... */\n      pop\n      pop\n      jump\t// out\n        /* \"#utility.yul\":7:84   */\n    tag_334:\n        /* \"#utility.yul\":44:51   */\n      0x00\n        /* \"#utility.yul\":73:78   */\n      dup2\n        /* \"#utility.yul\":62:78   */\n      swap1\n      pop\n        /* \"#utility.yul\":7:84   */\n      swap2\n      swap1\n      pop\n      jump\t// out\n        /* \"#utility.yul\":90:208   */\n    tag_335:\n        /* \"#utility.yul\":177:201   */\n      tag_379\n        /* \"#utility.yul\":195:200   */\n      dup2\n        /* \"#utility.yul\":177:201   */\n      tag_334\n      jump\t// in\n    tag_379:\n        /* \"#utility.yul\":172:175   */\n      dup3\n        /* \"#utility.yul\":165:202   */\n      mstore\n        /* \"#utility.yul\":90:208   */\n      pop\n      pop\n      jump\t// out\n        /* \"#utility.yul\":214:436   */\n    tag_28:\n        /* \"#utility.yul\":307:311   */\n      0x00\n        /* \"#utility.yul\":345:347   */\n      0x20\n        /* \"#utility.yul\":334:343   */\n      dup3\n        /* \"#utility.yul\":330:348   */\n      add\n        /* \"#utility.yul\":322:348   */\n      swap1\n      pop\n        /* \"#utility.yul\":358:429   */\n      tag_381\n        /* \"#utility.yul\":426:427   */\n      0x00\n        /* \"#utility.yul\":415:424   */\n      dup4\n        /* \"#utility.yul\":411:428   */\n      add\n        /* \"#utility.yul\":402:408   */\n      dup5\n        /* \"#utility.yul\":358:429   */\n      tag_335\n      jump\t// in\n    tag_381:\n        /* \"#utility.yul\":214:436   */\n      swap3\n      swap2\n      pop\n      pop\n      jump\t// out\n        /* \"#utility.yul\":523:640   */\n    tag_337:\n        /* \"#utility.yul\":632:633   */\n      0x00\n        /* \"#utility.yul\":629:630   */\n      dup1\n        /* \"#utility.yul\":622:634   */\n      revert\n        /* \"#utility.yul\":769:891   */\n    tag_339:\n        /* \"#utility.yul\":842:866   */\n      tag_386\n        /* \"#utility.yul\":860:865   */\n      dup2\n        /* \"#utility.yul\":842:866   */\n      tag_334\n      jump\t// in\n    tag_386:\n        /* \"#utility.yul\":835:840   */\n      dup2\n        /* \"#utility.yul\":832:867   */\n      eq\n        /* \"#utility.yul\":822:885   */\n      tag_387\n      jumpi\n        /* \"#utility.yul\":881:882   */\n      0x00\n        /* \"#utility.yul\":878:879   */\n      dup1\n        /* \"#utility.yul\":871:883   */\n      revert\n        /* \"#utility.yul\":822:885   */\n    tag_387:\n        /* \"#utility.yul\":769:891   */\n      pop\n      jump\t// out\n        /* \"#utility.yul\":897:1036   */\n    tag_340:\n        /* \"#utility.yul\":943:948   */\n      0x00\n        /* \"#utility.yul\":981:987   */\n      dup2\n        /* \"#utility.yul\":968:988   */\n      calldataload\n        /* \"#utility.yul\":959:988   */\n      swap1\n      pop\n        /* \"#utility.yul\":997:1030   */\n      tag_389\n        /* \"#utility.yul\":1024:1029   */\n      dup2\n        /* \"#utility.yul\":997:1030   */\n      tag_339\n      jump\t// in\n    tag_389:\n        /* \"#utility.yul\":897:1036   */\n      swap3\n      swap2\n      pop\n      pop\n      jump\t// out\n        /* \"#utility.yul\":1042:1371   */\n    tag_32:\n        /* \"#utility.yul\":1101:1107   */\n      0x00\n        /* \"#utility.yul\":1150:1152   */\n      0x20\n        /* \"#utility.yul\":1138:1147   */\n      dup3\n        /* \"#utility.yul\":1129:1136   */\n      dup5\n        /* \"#utility.yul\":1125:1148   */\n      sub\n        /* \"#utility.yul\":1121:1153   */\n      slt\n        /* \"#utility.yul\":1118:1237   */\n      iszero\n      tag_391\n      jumpi\n        /* \"#utility.yul\":1156:1235   */\n      tag_392\n      tag_337\n      jump\t// in\n    tag_392:\n        /* \"#utility.yul\":1118:1237   */\n    tag_391:\n        /* \"#utility.yul\":1276:1277   */\n      0x00\n        /* \"#utility.yul\":1301:1354   */\n      tag_393\n        /* \"#utility.yul\":1346:1353   */\n      dup5\n        /* \"#utility.yul\":1337:1343   */\n      dup3\n        /* \"#utility.yul\":1326:1335   */\n      dup6\n        /* \"#utility.yul\":1322:1344   */\n      add\n        /* \"#utility.yul\":1301:1354   */\n      tag_340\n      jump\t// in\n    tag_393:\n        /* \"#utility.yul\":1291:1354   */\n      swap2\n      pop\n        /* \"#utility.yul\":1247:1364   */\n      pop\n        /* \"#utility.yul\":1042:1371   */\n      swap3\n      swap2\n      pop\n      pop\n      jump\t// out\n        /* \"#utility.yul\":1377:1503   */\n    tag_341:\n        /* \"#utility.yul\":1414:1421   */\n      0x00\n        /* \"#utility.yul\":1454:1496   */\n      0xffffffffffffffffffffffffffffffffffffffff\n        /* \"#utility.yul\":1447:1452   */\n      dup3\n        /* \"#utility.yul\":1443:1497   */\n      and\n        /* \"#utility.yul\":1432:1497   */\n      swap1\n      pop\n        /* \"#utility.yul\":1377:1503   */\n      swap2\n      swap1\n      pop\n      jump\t// out\n        /* \"#utility.yul\":1509:1605   */\n    tag_342:\n        /* \"#utility.yul\":1546:1553   */\n      0x00\n        /* \"#utility.yul\":1575:1599   */\n      tag_396\n        /* \"#utility.yul\":1593:1598   */\n      dup3\n        /* \"#utility.yul\":1575:1599   */\n      tag_341\n      jump\t// in\n    tag_396:\n        /* \"#utility.yul\":1564:1599   */\n      swap1\n      pop\n        /* \"#utility.yul\":1509:1605   */\n      swap2\n      swap1\n      pop\n      jump\t// out\n        /* \"#utility.yul\":1611:1733   */\n    tag_343:\n        /* \"#utility.yul\":1684:1708   */\n      tag_398\n        /* \"#utility.yul\":1702:1707   */\n      dup2\n        /* \"#utility.yul\":1684:1708   */\n      tag_342\n      jump\t// in\n    tag_398:\n        /* \"#utility.yul\":1677:1682   */\n      dup2\n        /* \"#utility.yul\":1674:1709   */\n      eq\n        /* \"#utility.yul\":1664:1727   */\n      tag_399\n      jumpi\n        /* \"#utility.yul\":1723:1724   */\n      0x00\n        /* \"#utility.yul\":1720:1721   */\n      dup1\n        /* \"#utility.yul\":1713:1725   */\n      revert\n        /* \"#utility.yul\":1664:1727   */\n    tag_399:\n        /* \"#utility.yul\":1611:1733   */\n      pop\n      jump\t// out\n        /* \"#utility.yul\":1739:1878   */\n    tag_344:\n        /* \"#utility.yul\":1785:1790   */\n      0x00\n        /* \"#utility.yul\":1823:1829   */\n      dup2\n        /* \"#utility.yul\":1810:1830   */\n      calldataload\n        /* \"#utility.yul\":1801:1830   */\n      swap1\n      pop\n        /* \"#utility.yul\":1839:1872   */\n      tag_401\n        /* \"#utility.yul\":1866:1871   */\n      dup2\n        /* \"#utility.yul\":1839:1872   */\n      tag_343\n      jump\t// in\n    tag_401:\n        /* \"#utility.yul\":1739:1878   */\n      swap3\n      swap2\n      pop\n      pop\n      jump\t// out\n        /* \"#utility.yul\":1884:2213   */\n    tag_64:\n        /* \"#utility.yul\":1943:1949   */\n      0x00\n        /* \"#utility.yul\":1992:1994   */\n      0x20\n        /* \"#utility.yul\":1980:1989   */\n      dup3\n        /* \"#utility.yul\":1971:1978   */\n      dup5\n        /* \"#utility.yul\":1967:1990   */\n      sub\n        /* \"#utility.yul\":1963:1995   */\n      slt\n        /* \"#utility.yul\":1960:2079   */\n      iszero\n      tag_403\n      jumpi\n        /* \"#utility.yul\":1998:2077   */\n      tag_404\n      tag_337\n      jump\t// in\n    tag_404:\n        /* \"#utility.yul\":1960:2079   */\n    tag_403:\n        /* \"#utility.yul\":2118:2119   */\n      0x00\n        /* \"#utility.yul\":2143:2196   */\n      tag_405\n        /* \"#utility.yul\":2188:2195   */\n      dup5\n        /* \"#utility.yul\":2179:2185   */\n      dup3\n        /* \"#utility.yul\":2168:2177   */\n      dup6\n        /* \"#utility.yul\":2164:2186   */\n      add\n        /* \"#utility.yul\":2143:2196   */\n      tag_344\n      jump\t// in\n    tag_405:\n        /* \"#utility.yul\":2133:2196   */\n      swap2\n      pop\n        /* \"#utility.yul\":2089:2206   */\n      pop\n        /* \"#utility.yul\":1884:2213   */\n      swap3\n      swap2\n      pop\n      pop\n      jump\t// out\n        /* \"#utility.yul\":2219:2551   */\n    tag_72:\n        /* \"#utility.yul\":2340:2344   */\n      0x00\n        /* \"#utility.yul\":2378:2380   */\n      0x40\n        /* \"#utility.yul\":2367:2376   */\n      dup3\n        /* \"#utility.yul\":2363:2381   */\n      add\n        /* \"#utility.yul\":2355:2381   */\n      swap1\n      pop\n        /* \"#utility.yul\":2391:2462   */\n      tag_407\n        /* \"#utility.yul\":2459:2460   */\n      0x00\n        /* \"#utility.yul\":2448:2457   */\n      dup4\n        /* \"#utility.yul\":2444:2461   */\n      add\n        /* \"#utility.yul\":2435:2441   */\n      dup6\n        /* \"#utility.yul\":2391:2462   */\n      tag_335\n      jump\t// in\n    tag_407:\n        /* \"#utility.yul\":2472:2544   */\n      tag_408\n        /* \"#utility.yul\":2540:2542   */\n      0x20\n        /* \"#utility.yul\":2529:2538   */\n      dup4\n        /* \"#utility.yul\":2525:2543   */\n      add\n        /* \"#utility.yul\":2516:2522   */\n      dup5\n        /* \"#utility.yul\":2472:2544   */\n      tag_335\n      jump\t// in\n    tag_408:\n        /* \"#utility.yul\":2219:2551   */\n      swap4\n      swap3\n      pop\n      pop\n      pop\n      jump\t// out\n        /* \"#utility.yul\":2557:3031   */\n    tag_85:\n        /* \"#utility.yul\":2625:2631   */\n      0x00\n        /* \"#utility.yul\":2633:2639   */\n      dup1\n        /* \"#utility.yul\":2682:2684   */\n      0x40\n        /* \"#utility.yul\":2670:2679   */\n      dup4\n        /* \"#utility.yul\":2661:2668   */\n      dup6\n        /* \"#utility.yul\":2657:2680   */\n      sub\n        /* \"#utility.yul\":2653:2685   */\n      slt\n        /* \"#utility.yul\":2650:2769   */\n      iszero\n      tag_410\n      jumpi\n        /* \"#utility.yul\":2688:2767   */\n      tag_411\n      tag_337\n      jump\t// in\n    tag_411:\n        /* \"#utility.yul\":2650:2769   */\n    tag_410:\n        /* \"#utility.yul\":2808:2809   */\n      0x00\n        /* \"#utility.yul\":2833:2886   */\n      tag_412\n        /* \"#utility.yul\":2878:2885   */\n      dup6\n        /* \"#utility.yul\":2869:2875   */\n      dup3\n        /* \"#utility.yul\":2858:2867   */\n      dup7\n        /* \"#utility.yul\":2854:2876   */\n      add\n        /* \"#utility.yul\":2833:2886   */\n      tag_344\n      jump\t// in\n    tag_412:\n        /* \"#utility.yul\":2823:2886   */\n      swap3\n      pop\n        /* \"#utility.yul\":2779:2896   */\n      pop\n        /* \"#utility.yul\":2935:2937   */\n      0x20\n        /* \"#utility.yul\":2961:3014   */\n      tag_413\n        /* \"#utility.yul\":3006:3013   */\n      dup6\n        /* \"#utility.yul\":2997:3003   */\n      dup3\n        /* \"#utility.yul\":2986:2995   */\n      dup7\n        /* \"#utility.yul\":2982:3004   */\n      add\n        /* \"#utility.yul\":2961:3014   */\n      tag_340\n      jump\t// in\n    tag_413:\n        /* \"#utility.yul\":2951:3014   */\n      swap2\n      pop\n        /* \"#utility.yul\":2906:3024   */\n      pop\n        /* \"#utility.yul\":2557:3031   */\n      swap3\n      pop\n      swap3\n      swap1\n      pop\n      jump\t// out\n        /* \"#utility.yul\":3037:3155   */\n    tag_345:\n        /* \"#utility.yul\":3124:3148   */\n      tag_415\n        /* \"#utility.yul\":3142:3147   */\n      dup2\n        /* \"#utility.yul\":3124:3148   */\n      tag_342\n      jump\t// in\n    tag_415:\n        /* \"#utility.yul\":3119:3122   */\n      dup3\n        /* \"#utility.yul\":3112:3149   */\n      mstore\n        /* \"#utility.yul\":3037:3155   */\n      pop\n      pop\n      jump\t// out\n        /* \"#utility.yul\":3161:3383   */\n    tag_96:\n        /* \"#utility.yul\":3254:3258   */\n      0x00\n        /* \"#utility.yul\":3292:3294   */\n      0x20\n        /* \"#utility.yul\":3281:3290   */\n      dup3\n        /* \"#utility.yul\":3277:3295   */\n      add\n        /* \"#utility.yul\":3269:3295   */\n      swap1\n      pop\n        /* \"#utility.yul\":3305:3376   */\n      tag_417\n        /* \"#utility.yul\":3373:3374   */\n      0x00\n        /* \"#utility.yul\":3362:3371   */\n      dup4\n        /* \"#utility.yul\":3358:3375   */\n      add\n        /* \"#utility.yul\":3349:3355   */\n      dup5\n        /* \"#utility.yul\":3305:3376   */\n      tag_345\n      jump\t// in\n    tag_417:\n        /* \"#utility.yul\":3161:3383   */\n      swap3\n      swap2\n      pop\n      pop\n      jump\t// out\n        /* \"#utility.yul\":3389:3449   */\n    tag_346:\n        /* \"#utility.yul\":3417:3420   */\n      0x00\n        /* \"#utility.yul\":3438:3443   */\n      dup2\n        /* \"#utility.yul\":3431:3443   */\n      swap1\n      pop\n        /* \"#utility.yul\":3389:3449   */\n      swap2\n      swap1\n      pop\n      jump\t// out\n        /* \"#utility.yul\":3455:3597   */\n    tag_347:\n        /* \"#utility.yul\":3505:3514   */\n      0x00\n        /* \"#utility.yul\":3538:3591   */\n      tag_420\n        /* \"#utility.yul\":3556:3590   */\n      tag_421\n        /* \"#utility.yul\":3565:3589   */\n      tag_422\n        /* \"#utility.yul\":3583:3588   */\n      dup5\n        /* \"#utility.yul\":3565:3589   */\n      tag_341\n      jump\t// in\n    tag_422:\n        /* \"#utility.yul\":3556:3590   */\n      tag_346\n      jump\t// in\n    tag_421:\n        /* \"#utility.yul\":3538:3591   */\n      tag_341\n      jump\t// in\n    tag_420:\n        /* \"#utility.yul\":3525:3591   */\n      swap1\n      pop\n        /* \"#utility.yul\":3455:3597   */\n      swap2\n      swap1\n      pop\n      jump\t// out\n        /* \"#utility.yul\":3603:3729   */\n    tag_348:\n        /* \"#utility.yul\":3653:3662   */\n      0x00\n        /* \"#utility.yul\":3686:3723   */\n      tag_424\n        /* \"#utility.yul\":3717:3722   */\n      dup3\n        /* \"#utility.yul\":3686:3723   */\n      tag_347\n      jump\t// in\n    tag_424:\n        /* \"#utility.yul\":3673:3723   */\n      swap1\n      pop\n        /* \"#utility.yul\":3603:3729   */\n      swap2\n      swap1\n      pop\n      jump\t// out\n        /* \"#utility.yul\":3735:3875   */\n    tag_349:\n        /* \"#utility.yul\":3799:3808   */\n      0x00\n        /* \"#utility.yul\":3832:3869   */\n      tag_426\n        /* \"#utility.yul\":3863:3868   */\n      dup3\n        /* \"#utility.yul\":3832:3869   */\n      tag_348\n      jump\t// in\n    tag_426:\n        /* \"#utility.yul\":3819:3869   */\n      swap1\n      pop\n        /* \"#utility.yul\":3735:3875   */\n      swap2\n      swap1\n      pop\n      jump\t// out\n        /* \"#utility.yul\":3881:4040   */\n    tag_350:\n        /* \"#utility.yul\":3982:4033   */\n      tag_428\n        /* \"#utility.yul\":4027:4032   */\n      dup2\n        /* \"#utility.yul\":3982:4033   */\n      tag_349\n      jump\t// in\n    tag_428:\n        /* \"#utility.yul\":3977:3980   */\n      dup3\n        /* \"#utility.yul\":3970:4034   */\n      mstore\n        /* \"#utility.yul\":3881:4040   */\n      pop\n      pop\n      jump\t// out\n        /* \"#utility.yul\":4046:4296   */\n    tag_111:\n        /* \"#utility.yul\":4153:4157   */\n      0x00\n        /* \"#utility.yul\":4191:4193   */\n      0x20\n        /* \"#utility.yul\":4180:4189   */\n      dup3\n        /* \"#utility.yul\":4176:4194   */\n      add\n        /* \"#utility.yul\":4168:4194   */\n      swap1\n      pop\n        /* \"#utility.yul\":4204:4289   */\n      tag_430\n        /* \"#utility.yul\":4286:4287   */\n      0x00\n        /* \"#utility.yul\":4275:4284   */\n      dup4\n        /* \"#utility.yul\":4271:4288   */\n      add\n        /* \"#utility.yul\":4262:4268   */\n      dup5\n        /* \"#utility.yul\":4204:4289   */\n      tag_350\n      jump\t// in\n    tag_430:\n        /* \"#utility.yul\":4046:4296   */\n      swap3\n      swap2\n      pop\n      pop\n      jump\t// out\n        /* \"#utility.yul\":4302:4471   */\n    tag_351:\n        /* \"#utility.yul\":4386:4397   */\n      0x00\n        /* \"#utility.yul\":4420:4426   */\n      dup3\n        /* \"#utility.yul\":4415:4418   */\n      dup3\n        /* \"#utility.yul\":4408:4427   */\n      mstore\n        /* \"#utility.yul\":4460:4464   */\n      0x20\n        /* \"#utility.yul\":4455:4458   */\n      dup3\n        /* \"#utility.yul\":4451:4465   */\n      add\n        /* \"#utility.yul\":4436:4465   */\n      swap1\n      pop\n        /* \"#utility.yul\":4302:4471   */\n      swap3\n      swap2\n      pop\n      pop\n      jump\t// out\n        /* \"#utility.yul\":4477:4647   */\n    tag_352:\n        /* \"#utility.yul\":4617:4639   */\n      0x496e76616c696420455448207265736572766573000000000000000000000000\n        /* \"#utility.yul\":4613:4614   */\n      0x00\n        /* \"#utility.yul\":4605:4611   */\n      dup3\n        /* \"#utility.yul\":4601:4615   */\n      add\n        /* \"#utility.yul\":4594:4640   */\n      mstore\n        /* \"#utility.yul\":4477:4647   */\n      pop\n      jump\t// out\n        /* \"#utility.yul\":4653:5019   */\n    tag_353:\n        /* \"#utility.yul\":4795:4798   */\n      0x00\n        /* \"#utility.yul\":4816:4883   */\n      tag_434\n        /* \"#utility.yul\":4880:4882   */\n      0x14\n        /* \"#utility.yul\":4875:4878   */\n      dup4\n        /* \"#utility.yul\":4816:4883   */\n      tag_351\n      jump\t// in\n    tag_434:\n        /* \"#utility.yul\":4809:4883   */\n      swap2\n      pop\n        /* \"#utility.yul\":4892:4985   */\n      tag_435\n        /* \"#utility.yul\":4981:4984   */\n      dup3\n        /* \"#utility.yul\":4892:4985   */\n      tag_352\n      jump\t// in\n    tag_435:\n        /* \"#utility.yul\":5010:5012   */\n      0x20\n        /* \"#utility.yul\":5005:5008   */\n      dup3\n        /* \"#utility.yul\":5001:5013   */\n      add\n        /* \"#utility.yul\":4994:5013   */\n      swap1\n      pop\n        /* \"#utility.yul\":4653:5019   */\n      swap2\n      swap1\n      pop\n      jump\t// out\n        /* \"#utility.yul\":5025:5444   */\n    tag_121:\n        /* \"#utility.yul\":5191:5195   */\n      0x00\n        /* \"#utility.yul\":5229:5231   */\n      0x20\n        /* \"#utility.yul\":5218:5227   */\n      dup3\n        /* \"#utility.yul\":5214:5232   */\n      add\n        /* \"#utility.yul\":5206:5232   */\n      swap1\n      pop\n        /* \"#utility.yul\":5278:5287   */\n      dup2\n        /* \"#utility.yul\":5272:5276   */\n      dup2\n        /* \"#utility.yul\":5268:5288   */\n      sub\n        /* \"#utility.yul\":5264:5265   */\n      0x00\n        /* \"#utility.yul\":5253:5262   */\n      dup4\n        /* \"#utility.yul\":5249:5266   */\n      add\n        /* \"#utility.yul\":5242:5289   */\n      mstore\n        /* \"#utility.yul\":5306:5437   */\n      tag_437\n        /* \"#utility.yul\":5432:5436   */\n      dup2\n        /* \"#utility.yul\":5306:5437   */\n      tag_353\n      jump\t// in\n    tag_437:\n        /* \"#utility.yul\":5298:5437   */\n      swap1\n      pop\n        /* \"#utility.yul\":5025:5444   */\n      swap2\n      swap1\n      pop\n      jump\t// out\n        /* \"#utility.yul\":5450:5630   */\n    tag_354:\n        /* \"#utility.yul\":5498:5575   */\n      0x4e487b7100000000000000000000000000000000000000000000000000000000\n        /* \"#utility.yul\":5495:5496   */\n      0x00\n        /* \"#utility.yul\":5488:5576   */\n      mstore\n        /* \"#utility.yul\":5595:5599   */\n      0x11\n        /* \"#utility.yul\":5592:5593   */\n      0x04\n        /* \"#utility.yul\":5585:5600   */\n      mstore\n        /* \"#utility.yul\":5619:5623   */\n      0x24\n        /* \"#utility.yul\":5616:5617   */\n      0x00\n        /* \"#utility.yul\":5609:5624   */\n      revert\n        /* \"#utility.yul\":5636:6046   */\n    tag_123:\n        /* \"#utility.yul\":5676:5683   */\n      0x00\n        /* \"#utility.yul\":5699:5719   */\n      tag_440\n        /* \"#utility.yul\":5717:5718   */\n      dup3\n        /* \"#utility.yul\":5699:5719   */\n      tag_334\n      jump\t// in\n    tag_440:\n        /* \"#utility.yul\":5694:5719   */\n      swap2\n      pop\n        /* \"#utility.yul\":5733:5753   */\n      tag_441\n        /* \"#utility.yul\":5751:5752   */\n      dup4\n        /* \"#utility.yul\":5733:5753   */\n      tag_334\n      jump\t// in\n    tag_441:\n        /* \"#utility.yul\":5728:5753   */\n      swap3\n      pop\n        /* \"#utility.yul\":5788:5789   */\n      dup3\n        /* \"#utility.yul\":5785:5786   */\n      dup3\n        /* \"#utility.yul\":5781:5790   */\n      mul\n        /* \"#utility.yul\":5810:5840   */\n      tag_442\n        /* \"#utility.yul\":5828:5839   */\n      dup2\n        /* \"#utility.yul\":5810:5840   */\n      tag_334\n      jump\t// in\n    tag_442:\n        /* \"#utility.yul\":5799:5840   */\n      swap2\n      pop\n        /* \"#utility.yul\":5989:5990   */\n      dup3\n        /* \"#utility.yul\":5980:5987   */\n      dup3\n        /* \"#utility.yul\":5976:5991   */\n      div\n        /* \"#utility.yul\":5973:5974   */\n      dup5\n        /* \"#utility.yul\":5970:5992   */\n      eq\n        /* \"#utility.yul\":5950:5951   */\n      dup4\n        /* \"#utility.yul\":5943:5952   */\n      iszero\n        /* \"#utility.yul\":5923:6006   */\n      or\n        /* \"#utility.yul\":5900:6039   */\n      tag_443\n      jumpi\n        /* \"#utility.yul\":6019:6037   */\n      tag_444\n      tag_354\n      jump\t// in\n    tag_444:\n        /* \"#utility.yul\":5900:6039   */\n    tag_443:\n        /* \"#utility.yul\":5684:6046   */\n      pop\n        /* \"#utility.yul\":5636:6046   */\n      swap3\n      swap2\n      pop\n      pop\n      jump\t// out\n        /* \"#utility.yul\":6052:6232   */\n    tag_355:\n        /* \"#utility.yul\":6100:6177   */\n      0x4e487b7100000000000000000000000000000000000000000000000000000000\n        /* \"#utility.yul\":6097:6098   */\n      0x00\n        /* \"#utility.yul\":6090:6178   */\n      mstore\n        /* \"#utility.yul\":6197:6201   */\n      0x12\n        /* \"#utility.yul\":6194:6195   */\n      0x04\n        /* \"#utility.yul\":6187:6202   */\n      mstore\n        /* \"#utility.yul\":6221:6225   */\n      0x24\n        /* \"#utility.yul\":6218:6219   */\n      0x00\n        /* \"#utility.yul\":6211:6226   */\n      revert\n        /* \"#utility.yul\":6238:6423   */\n    tag_125:\n        /* \"#utility.yul\":6278:6279   */\n      0x00\n        /* \"#utility.yul\":6295:6315   */\n      tag_447\n        /* \"#utility.yul\":6313:6314   */\n      dup3\n        /* \"#utility.yul\":6295:6315   */\n      tag_334\n      jump\t// in\n    tag_447:\n        /* \"#utility.yul\":6290:6315   */\n      swap2\n      pop\n        /* \"#utility.yul\":6329:6349   */\n      tag_448\n        /* \"#utility.yul\":6347:6348   */\n      dup4\n        /* \"#utility.yul\":6329:6349   */\n      tag_334\n      jump\t// in\n    tag_448:\n        /* \"#utility.yul\":6324:6349   */\n      swap3\n      pop\n        /* \"#utility.yul\":6368:6369   */\n      dup3\n        /* \"#utility.yul\":6358:6393   */\n      tag_449\n      jumpi\n        /* \"#utility.yul\":6373:6391   */\n      tag_450\n      tag_355\n      jump\t// in\n    tag_450:\n        /* \"#utility.yul\":6358:6393   */\n    tag_449:\n        /* \"#utility.yul\":6415:6416   */\n      dup3\n        /* \"#utility.yul\":6412:6413   */\n      dup3\n        /* \"#utility.yul\":6408:6417   */\n      div\n        /* \"#utility.yul\":6403:6417   */\n      swap1\n      pop\n        /* \"#utility.yul\":6238:6423   */\n      swap3\n      swap2\n      pop\n      pop\n      jump\t// out\n        /* \"#utility.yul\":6429:6620   */\n    tag_127:\n        /* \"#utility.yul\":6469:6472   */\n      0x00\n        /* \"#utility.yul\":6488:6508   */\n      tag_452\n        /* \"#utility.yul\":6506:6507   */\n      dup3\n        /* \"#utility.yul\":6488:6508   */\n      tag_334\n      jump\t// in\n    tag_452:\n        /* \"#utility.yul\":6483:6508   */\n      swap2\n      pop\n        /* \"#utility.yul\":6522:6542   */\n      tag_453\n        /* \"#utility.yul\":6540:6541   */\n      dup4\n        /* \"#utility.yul\":6522:6542   */\n      tag_334\n      jump\t// in\n    tag_453:\n        /* \"#utility.yul\":6517:6542   */\n      swap3\n      pop\n        /* \"#utility.yul\":6565:6566   */\n      dup3\n        /* \"#utility.yul\":6562:6563   */\n      dup3\n        /* \"#utility.yul\":6558:6567   */\n      add\n        /* \"#utility.yul\":6551:6567   */\n      swap1\n      pop\n        /* \"#utility.yul\":6586:6589   */\n      dup1\n        /* \"#utility.yul\":6583:6584   */\n      dup3\n        /* \"#utility.yul\":6580:6590   */\n      gt\n        /* \"#utility.yul\":6577:6613   */\n      iszero\n      tag_454\n      jumpi\n        /* \"#utility.yul\":6593:6611   */\n      tag_455\n      tag_354\n      jump\t// in\n    tag_455:\n        /* \"#utility.yul\":6577:6613   */\n    tag_454:\n        /* \"#utility.yul\":6429:6620   */\n      swap3\n      swap2\n      pop\n      pop\n      jump\t// out\n        /* \"#utility.yul\":6626:7068   */\n    tag_132:\n        /* \"#utility.yul\":6775:6779   */\n      0x00\n        /* \"#utility.yul\":6813:6815   */\n      0x60\n        /* \"#utility.yul\":6802:6811   */\n      dup3\n        /* \"#utility.yul\":6798:6816   */\n      add\n        /* \"#utility.yul\":6790:6816   */\n      swap1\n      pop\n        /* \"#utility.yul\":6826:6897   */\n      tag_457\n        /* \"#utility.yul\":6894:6895   */\n      0x00\n        /* \"#utility.yul\":6883:6892   */\n      dup4\n        /* \"#utility.yul\":6879:6896   */\n      add\n        /* \"#utility.yul\":6870:6876   */\n      dup7\n        /* \"#utility.yul\":6826:6897   */\n      tag_345\n      jump\t// in\n    tag_457:\n        /* \"#utility.yul\":6907:6979   */\n      tag_458\n        /* \"#utility.yul\":6975:6977   */\n      0x20\n        /* \"#utility.yul\":6964:6973   */\n      dup4\n        /* \"#utility.yul\":6960:6978   */\n      add\n        /* \"#utility.yul\":6951:6957   */\n      dup6\n        /* \"#utility.yul\":6907:6979   */\n      tag_345\n      jump\t// in\n    tag_458:\n        /* \"#utility.yul\":6989:7061   */\n      tag_459\n        /* \"#utility.yul\":7057:7059   */\n      0x40\n        /* \"#utility.yul\":7046:7055   */\n      dup4\n        /* \"#utility.yul\":7042:7060   */\n      add\n        /* \"#utility.yul\":7033:7039   */\n      dup5\n        /* \"#utility.yul\":6989:7061   */\n      tag_335\n      jump\t// in\n    tag_459:\n        /* \"#utility.yul\":6626:7068   */\n      swap5\n      swap4\n      pop\n      pop\n      pop\n      pop\n      jump\t// out\n        /* \"#utility.yul\":7074:7164   */\n    tag_356:\n        /* \"#utility.yul\":7108:7115   */\n      0x00\n        /* \"#utility.yul\":7151:7156   */\n      dup2\n        /* \"#utility.yul\":7144:7157   */\n      iszero\n        /* \"#utility.yul\":7137:7158   */\n      iszero\n        /* \"#utility.yul\":7126:7158   */\n      swap1\n      pop\n        /* \"#utility.yul\":7074:7164   */\n      swap2\n      swap1\n      pop\n      jump\t// out\n        /* \"#utility.yul\":7170:7286   */\n    tag_357:\n        /* \"#utility.yul\":7240:7261   */\n      tag_462\n        /* \"#utility.yul\":7255:7260   */\n      dup2\n        /* \"#utility.yul\":7240:7261   */\n      tag_356\n      jump\t// in\n    tag_462:\n        /* \"#utility.yul\":7233:7238   */\n      dup2\n        /* \"#utility.yul\":7230:7262   */\n      eq\n        /* \"#utility.yul\":7220:7280   */\n      tag_463\n      jumpi\n        /* \"#utility.yul\":7276:7277   */\n      0x00\n        /* \"#utility.yul\":7273:7274   */\n      dup1\n        /* \"#utility.yul\":7266:7278   */\n      revert\n        /* \"#utility.yul\":7220:7280   */\n    tag_463:\n        /* \"#utility.yul\":7170:7286   */\n      pop\n      jump\t// out\n        /* \"#utility.yul\":7292:7429   */\n    tag_358:\n        /* \"#utility.yul\":7346:7351   */\n      0x00\n        /* \"#utility.yul\":7377:7383   */\n      dup2\n        /* \"#utility.yul\":7371:7384   */\n      mload\n        /* \"#utility.yul\":7362:7384   */\n      swap1\n      pop\n        /* \"#utility.yul\":7393:7423   */\n      tag_465\n        /* \"#utility.yul\":7417:7422   */\n      dup2\n        /* \"#utility.yul\":7393:7423   */\n      tag_357\n      jump\t// in\n    tag_465:\n        /* \"#utility.yul\":7292:7429   */\n      swap3\n      swap2\n      pop\n      pop\n      jump\t// out\n        /* \"#utility.yul\":7435:7780   */\n    tag_136:\n        /* \"#utility.yul\":7502:7508   */\n      0x00\n        /* \"#utility.yul\":7551:7553   */\n      0x20\n        /* \"#utility.yul\":7539:7548   */\n      dup3\n        /* \"#utility.yul\":7530:7537   */\n      dup5\n        /* \"#utility.yul\":7526:7549   */\n      sub\n        /* \"#utility.yul\":7522:7554   */\n      slt\n        /* \"#utility.yul\":7519:7638   */\n      iszero\n      tag_467\n      jumpi\n        /* \"#utility.yul\":7557:7636   */\n      tag_468\n      tag_337\n      jump\t// in\n    tag_468:\n        /* \"#utility.yul\":7519:7638   */\n    tag_467:\n        /* \"#utility.yul\":7677:7678   */\n      0x00\n        /* \"#utility.yul\":7702:7763   */\n      tag_469\n        /* \"#utility.yul\":7755:7762   */\n      dup5\n        /* \"#utility.yul\":7746:7752   */\n      dup3\n        /* \"#utility.yul\":7735:7744   */\n      dup6\n        /* \"#utility.yul\":7731:7753   */\n      add\n        /* \"#utility.yul\":7702:7763   */\n      tag_358\n      jump\t// in\n    tag_469:\n        /* \"#utility.yul\":7692:7763   */\n      swap2\n      pop\n        /* \"#utility.yul\":7648:7773   */\n      pop\n        /* \"#utility.yul\":7435:7780   */\n      swap3\n      swap2\n      pop\n      pop\n      jump\t// out\n        /* \"#utility.yul\":7786:7980   */\n    tag_148:\n        /* \"#utility.yul\":7826:7830   */\n      0x00\n        /* \"#utility.yul\":7846:7866   */\n      tag_471\n        /* \"#utility.yul\":7864:7865   */\n      dup3\n        /* \"#utility.yul\":7846:7866   */\n      tag_334\n      jump\t// in\n    tag_471:\n        /* \"#utility.yul\":7841:7866   */\n      swap2\n      pop\n        /* \"#utility.yul\":7880:7900   */\n      tag_472\n        /* \"#utility.yul\":7898:7899   */\n      dup4\n        /* \"#utility.yul\":7880:7900   */\n      tag_334\n      jump\t// in\n    tag_472:\n        /* \"#utility.yul\":7875:7900   */\n      swap3\n      pop\n        /* \"#utility.yul\":7924:7925   */\n      dup3\n        /* \"#utility.yul\":7921:7922   */\n      dup3\n        /* \"#utility.yul\":7917:7926   */\n      sub\n        /* \"#utility.yul\":7909:7926   */\n      swap1\n      pop\n        /* \"#utility.yul\":7948:7949   */\n      dup2\n        /* \"#utility.yul\":7942:7946   */\n      dup2\n        /* \"#utility.yul\":7939:7950   */\n      gt\n        /* \"#utility.yul\":7936:7973   */\n      iszero\n      tag_473\n      jumpi\n        /* \"#utility.yul\":7953:7971   */\n      tag_474\n      tag_354\n      jump\t// in\n    tag_474:\n        /* \"#utility.yul\":7936:7973   */\n    tag_473:\n        /* \"#utility.yul\":7786:7980   */\n      swap3\n      swap2\n      pop\n      pop\n      jump\t// out\n        /* \"#utility.yul\":7986:8146   */\n    tag_359:\n        /* \"#utility.yul\":8126:8138   */\n      0x736861726573203d203000000000000000000000000000000000000000000000\n        /* \"#utility.yul\":8122:8123   */\n      0x00\n        /* \"#utility.yul\":8114:8120   */\n      dup3\n        /* \"#utility.yul\":8110:8124   */\n      add\n        /* \"#utility.yul\":8103:8139   */\n      mstore\n        /* \"#utility.yul\":7986:8146   */\n      pop\n      jump\t// out\n        /* \"#utility.yul\":8152:8518   */\n    tag_360:\n        /* \"#utility.yul\":8294:8297   */\n      0x00\n        /* \"#utility.yul\":8315:8382   */\n      tag_477\n        /* \"#utility.yul\":8379:8381   */\n      0x0a\n        /* \"#utility.yul\":8374:8377   */\n      dup4\n        /* \"#utility.yul\":8315:8382   */\n      tag_351\n      jump\t// in\n    tag_477:\n        /* \"#utility.yul\":8308:8382   */\n      swap2\n      pop\n        /* \"#utility.yul\":8391:8484   */\n      tag_478\n        /* \"#utility.yul\":8480:8483   */\n      dup3\n        /* \"#utility.yul\":8391:8484   */\n      tag_359\n      jump\t// in\n    tag_478:\n        /* \"#utility.yul\":8509:8511   */\n      0x20\n        /* \"#utility.yul\":8504:8507   */\n      dup3\n        /* \"#utility.yul\":8500:8512   */\n      add\n        /* \"#utility.yul\":8493:8512   */\n      swap1\n      pop\n        /* \"#utility.yul\":8152:8518   */\n      swap2\n      swap1\n      pop\n      jump\t// out\n        /* \"#utility.yul\":8524:8943   */\n    tag_170:\n        /* \"#utility.yul\":8690:8694   */\n      0x00\n        /* \"#utility.yul\":8728:8730   */\n      0x20\n        /* \"#utility.yul\":8717:8726   */\n      dup3\n        /* \"#utility.yul\":8713:8731   */\n      add\n        /* \"#utility.yul\":8705:8731   */\n      swap1\n      pop\n        /* \"#utility.yul\":8777:8786   */\n      dup2\n        /* \"#utility.yul\":8771:8775   */\n      dup2\n        /* \"#utility.yul\":8767:8787   */\n      sub\n        /* \"#utility.yul\":8763:8764   */\n      0x00\n        /* \"#utility.yul\":8752:8761   */\n      dup4\n        /* \"#utility.yul\":8748:8765   */\n      add\n        /* \"#utility.yul\":8741:8788   */\n      mstore\n        /* \"#utility.yul\":8805:8936   */\n      tag_480\n        /* \"#utility.yul\":8931:8935   */\n      dup2\n        /* \"#utility.yul\":8805:8936   */\n      tag_360\n      jump\t// in\n    tag_480:\n        /* \"#utility.yul\":8797:8936   */\n      swap1\n      pop\n        /* \"#utility.yul\":8524:8943   */\n      swap2\n      swap1\n      pop\n      jump\t// out\n        /* \"#utility.yul\":8949:9092   */\n    tag_361:\n        /* \"#utility.yul\":9006:9011   */\n      0x00\n        /* \"#utility.yul\":9037:9043   */\n      dup2\n        /* \"#utility.yul\":9031:9044   */\n      mload\n        /* \"#utility.yul\":9022:9044   */\n      swap1\n      pop\n        /* \"#utility.yul\":9053:9086   */\n      tag_482\n        /* \"#utility.yul\":9080:9085   */\n      dup2\n        /* \"#utility.yul\":9053:9086   */\n      tag_339\n      jump\t// in\n    tag_482:\n        /* \"#utility.yul\":8949:9092   */\n      swap3\n      swap2\n      pop\n      pop\n      jump\t// out\n        /* \"#utility.yul\":9098:9449   */\n    tag_178:\n        /* \"#utility.yul\":9168:9174   */\n      0x00\n        /* \"#utility.yul\":9217:9219   */\n      0x20\n        /* \"#utility.yul\":9205:9214   */\n      dup3\n        /* \"#utility.yul\":9196:9203   */\n      dup5\n        /* \"#utility.yul\":9192:9215   */\n      sub\n        /* \"#utility.yul\":9188:9220   */\n      slt\n        /* \"#utility.yul\":9185:9304   */\n      iszero\n      tag_484\n      jumpi\n        /* \"#utility.yul\":9223:9302   */\n      tag_485\n      tag_337\n      jump\t// in\n    tag_485:\n        /* \"#utility.yul\":9185:9304   */\n    tag_484:\n        /* \"#utility.yul\":9343:9344   */\n      0x00\n        /* \"#utility.yul\":9368:9432   */\n      tag_486\n        /* \"#utility.yul\":9424:9431   */\n      dup5\n        /* \"#utility.yul\":9415:9421   */\n      dup3\n        /* \"#utility.yul\":9404:9413   */\n      dup6\n        /* \"#utility.yul\":9400:9422   */\n      add\n        /* \"#utility.yul\":9368:9432   */\n      tag_361\n      jump\t// in\n    tag_486:\n        /* \"#utility.yul\":9358:9432   */\n      swap2\n      pop\n        /* \"#utility.yul\":9314:9442   */\n      pop\n        /* \"#utility.yul\":9098:9449   */\n      swap3\n      swap2\n      pop\n      pop\n      jump\t// out\n        /* \"#utility.yul\":9455:9625   */\n    tag_362:\n        /* \"#utility.yul\":9595:9617   */\n      0x496e76616c696420696e70757420616d6f756e74000000000000000000000000\n        /* \"#utility.yul\":9591:9592   */\n      0x00\n        /* \"#utility.yul\":9583:9589   */\n      dup3\n        /* \"#utility.yul\":9579:9593   */\n      add\n        /* \"#utility.yul\":9572:9618   */\n      mstore\n        /* \"#utility.yul\":9455:9625   */\n      pop\n      jump\t// out\n        /* \"#utility.yul\":9631:9997   */\n    tag_363:\n        /* \"#utility.yul\":9773:9776   */\n      0x00\n        /* \"#utility.yul\":9794:9861   */\n      tag_489\n        /* \"#utility.yul\":9858:9860   */\n      0x14\n        /* \"#utility.yul\":9853:9856   */\n      dup4\n        /* \"#utility.yul\":9794:9861   */\n      tag_351\n      jump\t// in\n    tag_489:\n        /* \"#utility.yul\":9787:9861   */\n      swap2\n      pop\n        /* \"#utility.yul\":9870:9963   */\n      tag_490\n        /* \"#utility.yul\":9959:9962   */\n      dup3\n        /* \"#utility.yul\":9870:9963   */\n      tag_362\n      jump\t// in\n    tag_490:\n        /* \"#utility.yul\":9988:9990   */\n      0x20\n        /* \"#utility.yul\":9983:9986   */\n      dup3\n        /* \"#utility.yul\":9979:9991   */\n      add\n        /* \"#utility.yul\":9972:9991   */\n      swap1\n      pop\n        /* \"#utility.yul\":9631:9997   */\n      swap2\n      swap1\n      pop\n      jump\t// out\n        /* \"#utility.yul\":10003:10422   */\n    tag_183:\n        /* \"#utility.yul\":10169:10173   */\n      0x00\n        /* \"#utility.yul\":10207:10209   */\n      0x20\n        /* \"#utility.yul\":10196:10205   */\n      dup3\n        /* \"#utility.yul\":10192:10210   */\n      add\n        /* \"#utility.yul\":10184:10210   */\n      swap1\n      pop\n        /* \"#utility.yul\":10256:10265   */\n      dup2\n        /* \"#utility.yul\":10250:10254   */\n      dup2\n        /* \"#utility.yul\":10246:10266   */\n      sub\n        /* \"#utility.yul\":10242:10243   */\n      0x00\n        /* \"#utility.yul\":10231:10240   */\n      dup4\n        /* \"#utility.yul\":10227:10244   */\n      add\n        /* \"#utility.yul\":10220:10267   */\n      mstore\n        /* \"#utility.yul\":10284:10415   */\n      tag_492\n        /* \"#utility.yul\":10410:10414   */\n      dup2\n        /* \"#utility.yul\":10284:10415   */\n      tag_363\n      jump\t// in\n    tag_492:\n        /* \"#utility.yul\":10276:10415   */\n      swap1\n      pop\n        /* \"#utility.yul\":10003:10422   */\n      swap2\n      swap1\n      pop\n      jump\t// out\n        /* \"#utility.yul\":10428:10599   */\n    tag_364:\n        /* \"#utility.yul\":10568:10591   */\n      0x496e76616c6964206f757470757420616d6f756e740000000000000000000000\n        /* \"#utility.yul\":10564:10565   */\n      0x00\n        /* \"#utility.yul\":10556:10562   */\n      dup3\n        /* \"#utility.yul\":10552:10566   */\n      add\n        /* \"#utility.yul\":10545:10592   */\n      mstore\n        /* \"#utility.yul\":10428:10599   */\n      pop\n      jump\t// out\n        /* \"#utility.yul\":10605:10971   */\n    tag_365:\n        /* \"#utility.yul\":10747:10750   */\n      0x00\n        /* \"#utility.yul\":10768:10835   */\n      tag_495\n        /* \"#utility.yul\":10832:10834   */\n      0x15\n        /* \"#utility.yul\":10827:10830   */\n      dup4\n        /* \"#utility.yul\":10768:10835   */\n      tag_351\n      jump\t// in\n    tag_495:\n        /* \"#utility.yul\":10761:10835   */\n      swap2\n      pop\n        /* \"#utility.yul\":10844:10937   */\n      tag_496\n        /* \"#utility.yul\":10933:10936   */\n      dup3\n        /* \"#utility.yul\":10844:10937   */\n      tag_364\n      jump\t// in\n    tag_496:\n        /* \"#utility.yul\":10962:10964   */\n      0x20\n        /* \"#utility.yul\":10957:10960   */\n      dup3\n        /* \"#utility.yul\":10953:10965   */\n      add\n        /* \"#utility.yul\":10946:10965   */\n      swap1\n      pop\n        /* \"#utility.yul\":10605:10971   */\n      swap2\n      swap1\n      pop\n      jump\t// out\n        /* \"#utility.yul\":10977:11396   */\n    tag_191:\n        /* \"#utility.yul\":11143:11147   */\n      0x00\n        /* \"#utility.yul\":11181:11183   */\n      0x20\n        /* \"#utility.yul\":11170:11179   */\n      dup3\n        /* \"#utility.yul\":11166:11184   */\n      add\n        /* \"#utility.yul\":11158:11184   */\n      swap1\n      pop\n        /* \"#utility.yul\":11230:11239   */\n      dup2\n        /* \"#utility.yul\":11224:11228   */\n      dup2\n        /* \"#utility.yul\":11220:11240   */\n      sub\n        /* \"#utility.yul\":11216:11217   */\n      0x00\n        /* \"#utility.yul\":11205:11214   */\n      dup4\n        /* \"#utility.yul\":11201:11218   */\n      add\n        /* \"#utility.yul\":11194:11241   */\n      mstore\n        /* \"#utility.yul\":11258:11389   */\n      tag_498\n        /* \"#utility.yul\":11384:11388   */\n      dup2\n        /* \"#utility.yul\":11258:11389   */\n      tag_365\n      jump\t// in\n    tag_498:\n        /* \"#utility.yul\":11250:11389   */\n      swap1\n      pop\n        /* \"#utility.yul\":10977:11396   */\n      swap2\n      swap1\n      pop\n      jump\t// out\n        /* \"#utility.yul\":11402:11578   */\n    tag_366:\n        /* \"#utility.yul\":11542:11570   */\n      0x496e73756666696369656e74206f757470757420616d6f756e74000000000000\n        /* \"#utility.yul\":11538:11539   */\n      0x00\n        /* \"#utility.yul\":11530:11536   */\n      dup3\n        /* \"#utility.yul\":11526:11540   */\n      add\n        /* \"#utility.yul\":11519:11571   */\n      mstore\n        /* \"#utility.yul\":11402:11578   */\n      pop\n      jump\t// out\n        /* \"#utility.yul\":11584:11950   */\n    tag_367:\n        /* \"#utility.yul\":11726:11729   */\n      0x00\n        /* \"#utility.yul\":11747:11814   */\n      tag_501\n        /* \"#utility.yul\":11811:11813   */\n      0x1a\n        /* \"#utility.yul\":11806:11809   */\n      dup4\n        /* \"#utility.yul\":11747:11814   */\n      tag_351\n      jump\t// in\n    tag_501:\n        /* \"#utility.yul\":11740:11814   */\n      swap2\n      pop\n        /* \"#utility.yul\":11823:11916   */\n      tag_502\n        /* \"#utility.yul\":11912:11915   */\n      dup3\n        /* \"#utility.yul\":11823:11916   */\n      tag_366\n      jump\t// in\n    tag_502:\n        /* \"#utility.yul\":11941:11943   */\n      0x20\n        /* \"#utility.yul\":11936:11939   */\n      dup3\n        /* \"#utility.yul\":11932:11944   */\n      add\n        /* \"#utility.yul\":11925:11944   */\n      swap1\n      pop\n        /* \"#utility.yul\":11584:11950   */\n      swap2\n      swap1\n      pop\n      jump\t// out\n        /* \"#utility.yul\":11956:12375   */\n    tag_214:\n        /* \"#utility.yul\":12122:12126   */\n      0x00\n        /* \"#utility.yul\":12160:12162   */\n      0x20\n        /* \"#utility.yul\":12149:12158   */\n      dup3\n        /* \"#utility.yul\":12145:12163   */\n      add\n        /* \"#utility.yul\":12137:12163   */\n      swap1\n      pop\n        /* \"#utility.yul\":12209:12218   */\n      dup2\n        /* \"#utility.yul\":12203:12207   */\n      dup2\n        /* \"#utility.yul\":12199:12219   */\n      sub\n        /* \"#utility.yul\":12195:12196   */\n      0x00\n        /* \"#utility.yul\":12184:12193   */\n      dup4\n        /* \"#utility.yul\":12180:12197   */\n      add\n        /* \"#utility.yul\":12173:12220   */\n      mstore\n        /* \"#utility.yul\":12237:12368   */\n      tag_504\n        /* \"#utility.yul\":12363:12367   */\n      dup2\n        /* \"#utility.yul\":12237:12368   */\n      tag_367\n      jump\t// in\n    tag_504:\n        /* \"#utility.yul\":12229:12368   */\n      swap1\n      pop\n        /* \"#utility.yul\":11956:12375   */\n      swap2\n      swap1\n      pop\n      jump\t// out\n        /* \"#utility.yul\":12381:12550   */\n    tag_368:\n        /* \"#utility.yul\":12521:12542   */\n      0x45544820616d6f756e74206d69736d6174636800000000000000000000000000\n        /* \"#utility.yul\":12517:12518   */\n      0x00\n        /* \"#utility.yul\":12509:12515   */\n      dup3\n        /* \"#utility.yul\":12505:12519   */\n      add\n        /* \"#utility.yul\":12498:12543   */\n      mstore\n        /* \"#utility.yul\":12381:12550   */\n      pop\n      jump\t// out\n        /* \"#utility.yul\":12556:12922   */\n    tag_369:\n        /* \"#utility.yul\":12698:12701   */\n      0x00\n        /* \"#utility.yul\":12719:12786   */\n      tag_507\n        /* \"#utility.yul\":12783:12785   */\n      0x13\n        /* \"#utility.yul\":12778:12781   */\n      dup4\n        /* \"#utility.yul\":12719:12786   */\n      tag_351\n      jump\t// in\n    tag_507:\n        /* \"#utility.yul\":12712:12786   */\n      swap2\n      pop\n        /* \"#utility.yul\":12795:12888   */\n      tag_508\n        /* \"#utility.yul\":12884:12887   */\n      dup3\n        /* \"#utility.yul\":12795:12888   */\n      tag_368\n      jump\t// in\n    tag_508:\n        /* \"#utility.yul\":12913:12915   */\n      0x20\n        /* \"#utility.yul\":12908:12911   */\n      dup3\n        /* \"#utility.yul\":12904:12916   */\n      add\n        /* \"#utility.yul\":12897:12916   */\n      swap1\n      pop\n        /* \"#utility.yul\":12556:12922   */\n      swap2\n      swap1\n      pop\n      jump\t// out\n        /* \"#utility.yul\":12928:13347   */\n    tag_233:\n        /* \"#utility.yul\":13094:13098   */\n      0x00\n        /* \"#utility.yul\":13132:13134   */\n      0x20\n        /* \"#utility.yul\":13121:13130   */\n      dup3\n        /* \"#utility.yul\":13117:13135   */\n      add\n        /* \"#utility.yul\":13109:13135   */\n      swap1\n      pop\n        /* \"#utility.yul\":13181:13190   */\n      dup2\n        /* \"#utility.yul\":13175:13179   */\n      dup2\n        /* \"#utility.yul\":13171:13191   */\n      sub\n        /* \"#utility.yul\":13167:13168   */\n      0x00\n        /* \"#utility.yul\":13156:13165   */\n      dup4\n        /* \"#utility.yul\":13152:13169   */\n      add\n        /* \"#utility.yul\":13145:13192   */\n      mstore\n        /* \"#utility.yul\":13209:13340   */\n      tag_510\n        /* \"#utility.yul\":13335:13339   */\n      dup2\n        /* \"#utility.yul\":13209:13340   */\n      tag_369\n      jump\t// in\n    tag_510:\n        /* \"#utility.yul\":13201:13340   */\n      swap1\n      pop\n        /* \"#utility.yul\":12928:13347   */\n      swap2\n      swap1\n      pop\n      jump\t// out\n        /* \"#utility.yul\":13353:13685   */\n    tag_240:\n        /* \"#utility.yul\":13474:13478   */\n      0x00\n        /* \"#utility.yul\":13512:13514   */\n      0x40\n        /* \"#utility.yul\":13501:13510   */\n      dup3\n        /* \"#utility.yul\":13497:13515   */\n      add\n        /* \"#utility.yul\":13489:13515   */\n      swap1\n      pop\n        /* \"#utility.yul\":13525:13596   */\n      tag_512\n        /* \"#utility.yul\":13593:13594   */\n      0x00\n        /* \"#utility.yul\":13582:13591   */\n      dup4\n        /* \"#utility.yul\":13578:13595   */\n      add\n        /* \"#utility.yul\":13569:13575   */\n      dup6\n        /* \"#utility.yul\":13525:13596   */\n      tag_345\n      jump\t// in\n    tag_512:\n        /* \"#utility.yul\":13606:13678   */\n      tag_513\n        /* \"#utility.yul\":13674:13676   */\n      0x20\n        /* \"#utility.yul\":13663:13672   */\n      dup4\n        /* \"#utility.yul\":13659:13677   */\n      add\n        /* \"#utility.yul\":13650:13656   */\n      dup5\n        /* \"#utility.yul\":13606:13678   */\n      tag_335\n      jump\t// in\n    tag_513:\n        /* \"#utility.yul\":13353:13685   */\n      swap4\n      swap3\n      pop\n      pop\n      pop\n      jump\t// out\n        /* \"#utility.yul\":13691:13861   */\n    tag_370:\n        /* \"#utility.yul\":13831:13853   */\n      0x496e73756666696369656e742062616c616e6365000000000000000000000000\n        /* \"#utility.yul\":13827:13828   */\n      0x00\n        /* \"#utility.yul\":13819:13825   */\n      dup3\n        /* \"#utility.yul\":13815:13829   */\n      add\n        /* \"#utility.yul\":13808:13854   */\n      mstore\n        /* \"#utility.yul\":13691:13861   */\n      pop\n      jump\t// out\n        /* \"#utility.yul\":13867:14233   */\n    tag_371:\n        /* \"#utility.yul\":14009:14012   */\n      0x00\n        /* \"#utility.yul\":14030:14097   */\n      tag_516\n        /* \"#utility.yul\":14094:14096   */\n      0x14\n        /* \"#utility.yul\":14089:14092   */\n      dup4\n        /* \"#utility.yul\":14030:14097   */\n      tag_351\n      jump\t// in\n    tag_516:\n        /* \"#utility.yul\":14023:14097   */\n      swap2\n      pop\n        /* \"#utility.yul\":14106:14199   */\n      tag_517\n        /* \"#utility.yul\":14195:14198   */\n      dup3\n        /* \"#utility.yul\":14106:14199   */\n      tag_370\n      jump\t// in\n    tag_517:\n        /* \"#utility.yul\":14224:14226   */\n      0x20\n        /* \"#utility.yul\":14219:14222   */\n      dup3\n        /* \"#utility.yul\":14215:14227   */\n      add\n        /* \"#utility.yul\":14208:14227   */\n      swap1\n      pop\n        /* \"#utility.yul\":13867:14233   */\n      swap2\n      swap1\n      pop\n      jump\t// out\n        /* \"#utility.yul\":14239:14658   */\n    tag_252:\n        /* \"#utility.yul\":14405:14409   */\n      0x00\n        /* \"#utility.yul\":14443:14445   */\n      0x20\n        /* \"#utility.yul\":14432:14441   */\n      dup3\n        /* \"#utility.yul\":14428:14446   */\n      add\n        /* \"#utility.yul\":14420:14446   */\n      swap1\n      pop\n        /* \"#utility.yul\":14492:14501   */\n      dup2\n        /* \"#utility.yul\":14486:14490   */\n      dup2\n        /* \"#utility.yul\":14482:14502   */\n      sub\n        /* \"#utility.yul\":14478:14479   */\n      0x00\n        /* \"#utility.yul\":14467:14476   */\n      dup4\n        /* \"#utility.yul\":14463:14480   */\n      add\n        /* \"#utility.yul\":14456:14503   */\n      mstore\n        /* \"#utility.yul\":14520:14651   */\n      tag_519\n        /* \"#utility.yul\":14646:14650   */\n      dup2\n        /* \"#utility.yul\":14520:14651   */\n      tag_371\n      jump\t// in\n    tag_519:\n        /* \"#utility.yul\":14512:14651   */\n      swap1\n      pop\n        /* \"#utility.yul\":14239:14658   */\n      swap2\n      swap1\n      pop\n      jump\t// out\n        /* \"#utility.yul\":14664:14836   */\n    tag_372:\n        /* \"#utility.yul\":14804:14828   */\n      0x496e76616c696420455243323020726573657276657300000000000000000000\n        /* \"#utility.yul\":14800:14801   */\n      0x00\n        /* \"#utility.yul\":14792:14798   */\n      dup3\n        /* \"#utility.yul\":14788:14802   */\n      add\n        /* \"#utility.yul\":14781:14829   */\n      mstore\n        /* \"#utility.yul\":14664:14836   */\n      pop\n      jump\t// out\n        /* \"#utility.yul\":14842:15208   */\n    tag_373:\n        /* \"#utility.yul\":14984:14987   */\n      0x00\n        /* \"#utility.yul\":15005:15072   */\n      tag_522\n        /* \"#utility.yul\":15069:15071   */\n      0x16\n        /* \"#utility.yul\":15064:15067   */\n      dup4\n        /* \"#utility.yul\":15005:15072   */\n      tag_351\n      jump\t// in\n    tag_522:\n        /* \"#utility.yul\":14998:15072   */\n      swap2\n      pop\n        /* \"#utility.yul\":15081:15174   */\n      tag_523\n        /* \"#utility.yul\":15170:15173   */\n      dup3\n        /* \"#utility.yul\":15081:15174   */\n      tag_372\n      jump\t// in\n    tag_523:\n        /* \"#utility.yul\":15199:15201   */\n      0x20\n        /* \"#utility.yul\":15194:15197   */\n      dup3\n        /* \"#utility.yul\":15190:15202   */\n      add\n        /* \"#utility.yul\":15183:15202   */\n      swap1\n      pop\n        /* \"#utility.yul\":14842:15208   */\n      swap2\n      swap1\n      pop\n      jump\t// out\n        /* \"#utility.yul\":15214:15633   */\n    tag_269:\n        /* \"#utility.yul\":15380:15384   */\n      0x00\n        /* \"#utility.yul\":15418:15420   */\n      0x20\n        /* \"#utility.yul\":15407:15416   */\n      dup3\n        /* \"#utility.yul\":15403:15421   */\n      add\n        /* \"#utility.yul\":15395:15421   */\n      swap1\n      pop\n        /* \"#utility.yul\":15467:15476   */\n      dup2\n        /* \"#utility.yul\":15461:15465   */\n      dup2\n        /* \"#utility.yul\":15457:15477   */\n      sub\n        /* \"#utility.yul\":15453:15454   */\n      0x00\n        /* \"#utility.yul\":15442:15451   */\n      dup4\n        /* \"#utility.yul\":15438:15455   */\n      add\n        /* \"#utility.yul\":15431:15478   */\n      mstore\n        /* \"#utility.yul\":15495:15626   */\n      tag_525\n        /* \"#utility.yul\":15621:15625   */\n      dup2\n        /* \"#utility.yul\":15495:15626   */\n      tag_373\n      jump\t// in\n    tag_525:\n        /* \"#utility.yul\":15487:15626   */\n      swap1\n      pop\n        /* \"#utility.yul\":15214:15633   */\n      swap2\n      swap1\n      pop\n      jump\t// out\n        /* \"#utility.yul\":15639:15811   */\n    tag_374:\n        /* \"#utility.yul\":15779:15803   */\n      0x616d6f756e7430206f7220616d6f756e7431203d203000000000000000000000\n        /* \"#utility.yul\":15775:15776   */\n      0x00\n        /* \"#utility.yul\":15767:15773   */\n      dup3\n        /* \"#utility.yul\":15763:15777   */\n      add\n        /* \"#utility.yul\":15756:15804   */\n      mstore\n        /* \"#utility.yul\":15639:15811   */\n      pop\n      jump\t// out\n        /* \"#utility.yul\":15817:16183   */\n    tag_375:\n        /* \"#utility.yul\":15959:15962   */\n      0x00\n        /* \"#utility.yul\":15980:16047   */\n      tag_528\n        /* \"#utility.yul\":16044:16046   */\n      0x16\n        /* \"#utility.yul\":16039:16042   */\n      dup4\n        /* \"#utility.yul\":15980:16047   */\n      tag_351\n      jump\t// in\n    tag_528:\n        /* \"#utility.yul\":15973:16047   */\n      swap2\n      pop\n        /* \"#utility.yul\":16056:16149   */\n      tag_529\n        /* \"#utility.yul\":16145:16148   */\n      dup3\n        /* \"#utility.yul\":16056:16149   */\n      tag_374\n      jump\t// in\n    tag_529:\n        /* \"#utility.yul\":16174:16176   */\n      0x20\n        /* \"#utility.yul\":16169:16172   */\n      dup3\n        /* \"#utility.yul\":16165:16177   */\n      add\n        /* \"#utility.yul\":16158:16177   */\n      swap1\n      pop\n        /* \"#utility.yul\":15817:16183   */\n      swap2\n      swap1\n      pop\n      jump\t// out\n        /* \"#utility.yul\":16189:16608   */\n    tag_315:\n        /* \"#utility.yul\":16355:16359   */\n      0x00\n        /* \"#utility.yul\":16393:16395   */\n      0x20\n        /* \"#utility.yul\":16382:16391   */\n      dup3\n        /* \"#utility.yul\":16378:16396   */\n      add\n        /* \"#utility.yul\":16370:16396   */\n      swap1\n      pop\n        /* \"#utility.yul\":16442:16451   */\n      dup2\n        /* \"#utility.yul\":16436:16440   */\n      dup2\n        /* \"#utility.yul\":16432:16452   */\n      sub\n        /* \"#utility.yul\":16428:16429   */\n      0x00\n        /* \"#utility.yul\":16417:16426   */\n      dup4\n        /* \"#utility.yul\":16413:16430   */\n      add\n        /* \"#utility.yul\":16406:16453   */\n      mstore\n        /* \"#utility.yul\":16470:16601   */\n      tag_531\n        /* \"#utility.yul\":16596:16600   */\n      dup2\n        /* \"#utility.yul\":16470:16601   */\n      tag_375\n      jump\t// in\n    tag_531:\n        /* \"#utility.yul\":16462:16601   */\n      swap1\n      pop\n        /* \"#utility.yul\":16189:16608   */\n      swap2\n      swap1\n      pop\n      jump\t// out\n\n    auxdata: 0xa264697066735822122075646f3c3b2fe52afb8ff206bf49a6aae2ee102422d97abdb07ac79f477c3e1d64736f6c63430008120033\n}\n",
				"bytecode": {
					"linkReferences": {},
					"object": "60a06040523480156200001157600080fd5b5060405162002072380380620020728339818101604052810190620000379190620000dc565b8073ffffffffffffffffffffffffffffffffffffffff1660808173ffffffffffffffffffffffffffffffffffffffff1681525050506200010e565b600080fd5b600073ffffffffffffffffffffffffffffffffffffffff82169050919050565b6000620000a48262000077565b9050919050565b620000b68162000097565b8114620000c257600080fd5b50565b600081519050620000d681620000ab565b92915050565b600060208284031215620000f557620000f462000072565b5b60006200010584828501620000c5565b91505092915050565b608051611f0962000169600039600081816105b60152818161080001528181610af301528181610bea01528181610d8701528181610e2a015281816111780152818161136b0152818161148501526115750152611f096000f3fe6080604052600436106101145760003560e01c80637a6a5e1b116100a0578063a734f06e11610064578063a734f06e146103fe578063e1e2153e14610429578063f5eb42dc14610466578063fc0c546a146104a3578063fcc2ba08146104ce57610114565b80637a6a5e1b146102e957806394b918de146103275780639c8f9f2314610357578063a201ccf614610395578063a607a8d9146103d357610114565b80635628570c116100e75780635628570c146101dc5780635a76f25e146102195780636cae4f84146102445780636fb84b741461026f57806370a08231146102ac57610114565b806318160ddd146101195780633e592b0414610144578063443cb4bc1461018157806351c6590a146101ac575b600080fd5b34801561012557600080fd5b5061012e6104f9565b60405161013b91906116a5565b60405180910390f35b34801561015057600080fd5b5061016b600480360381019061016691906116f1565b6104ff565b60405161017891906116a5565b60405180910390f35b34801561018d57600080fd5b506101966105ac565b6040516101a391906116a5565b60405180910390f35b6101c660048036038101906101c191906116f1565b6105b2565b6040516101d391906116a5565b60405180910390f35b3480156101e857600080fd5b5061020360048036038101906101fe91906116f1565b6108a3565b60405161021091906116a5565b60405180910390f35b34801561022557600080fd5b5061022e610a19565b60405161023b91906116a5565b60405180910390f35b34801561025057600080fd5b50610259610a1f565b60405161026691906116a5565b60405180910390f35b34801561027b57600080fd5b50610296600480360381019061029191906116f1565b610a66565b6040516102a391906116a5565b60405180910390f35b3480156102b857600080fd5b506102d360048036038101906102ce919061177c565b610c8d565b6040516102e091906116a5565b60405180910390f35b3480156102f557600080fd5b50610310600480360381019061030b919061177c565b610ca5565b60405161031e9291906117a9565b60405180910390f35b610341600480360381019061033c91906116f1565b610cfa565b60405161034e91906116a5565b60405180910390f35b34801561036357600080fd5b5061037e600480360381019061037991906116f1565b610ecd565b60405161038c9291906117a9565b60405180910390f35b3480156103a157600080fd5b506103bc60048036038101906103b791906117d2565b610f65565b6040516103ca9291906117a9565b60405180910390f35b3480156103df57600080fd5b506103e8610fff565b6040516103f591906116a5565b60405180910390f35b34801561040a57600080fd5b5061041361107b565b6040516104209190611821565b60405180910390f35b34801561043557600080fd5b50610450600480360381019061044b91906116f1565b611080565b60405161045d91906116a5565b60405180910390f35b34801561047257600080fd5b5061048d6004803603810190610488919061177c565b61112d565b60405161049a91906116a5565b60405180910390f35b3480156104af57600080fd5b506104b8611176565b6040516104c5919061189b565b60405180910390f35b3480156104da57600080fd5b506104e361119a565b6040516104f091906116a5565b60405180910390f35b60025481565b60008060005411801561051457506000600154115b80156105205750600082115b61055f576040517f08c379a000000000000000000000000000000000000000000000000000000000815260040161055690611913565b60405180910390fd5b60006103e86103e5846105729190611962565b61057c91906119d3565b90508060015461058c9190611a04565b8160005461059a9190611962565b6105a491906119d3565b915050919050565b60005481565b60007f000000000000000000000000000000000000000000000000000000000000000073ffffffffffffffffffffffffffffffffffffffff166323b872dd3330856040518463ffffffff1660e01b815260040161061193929190611a38565b6020604051808303816000875af1158015610630573d6000803e3d6000fd5b505050506040513d601f19601f820116820180604052508101906106549190611aa7565b50600034905060008054118061066c57506000600154115b15610747578060015461067f9190611962565b8360005461068d9190611962565b146107465760006103e86103e56000546106a79190611962565b6106b191906119d3565b826001546106bf9190611962565b6106c991906119d3565b9050808411156106ff57600081856106e19190611ad4565b90506106ec81610a66565b836106f79190611a04565b925050610741565b6000600154600054836107129190611962565b61071c91906119d3565b836107279190611ad4565b905061073281610cfa565b8561073d9190611a04565b9450505b809350505b5b60006002540361076c5761076583826107609190611962565b611216565b91506107ad565b6107aa600054600254836107809190611962565b61078a91906119d3565b6001546002548661079b9190611962565b6107a591906119d3565b611290565b91505b600082116107f0576040517f08c379a00000000000000000000000000000000000000000000000000000000081526004016107e790611b54565b60405180910390fd5b6107fa33836112a9565b61089d477f000000000000000000000000000000000000000000000000000000000000000073ffffffffffffffffffffffffffffffffffffffff166370a08231306040518263ffffffff1660e01b81526004016108579190611821565b602060405180830381865afa158015610874573d6000803e3d6000fd5b505050506040513d601f19601f820116820180604052508101906108989190611b89565b61131c565b50919050565b60008082116108e7576040517f08c379a00000000000000000000000000000000000000000000000000000000081526004016108de90611c02565b60405180910390fd5b60006103e86103e5846108fa9190611962565b61090491906119d3565b90506000816000546109169190611a04565b826001546109249190611962565b61092e91906119d3565b905060008111610973576040517f08c379a000000000000000000000000000000000000000000000000000000000815260040161096a90611c6e565b60405180910390fd5b600061097d61119a565b90506000670de0b6b3a764000082876109969190611962565b6109a091906119d3565b90506000818411156109d757816103e883866109bc9190611ad4565b6109c69190611962565b6109d091906119d3565b90506109fe565b816103e885846109e79190611ad4565b6109f19190611962565b6109fb91906119d3565b90505b610a0a816103e861132e565b90508095505050505050919050565b60015481565b6000600360003373ffffffffffffffffffffffffffffffffffffffff1673ffffffffffffffffffffffffffffffffffffffff16815260200190815260200160002054905090565b6000806103e86103e584610a7a9190611962565b610a8491906119d3565b905080600154610a949190611a04565b81600054610aa29190611962565b610aac91906119d3565b915060008211610af1576040517f08c379a0000000000000000000000000000000000000000000000000000000008152600401610ae890611cda565b60405180910390fd5b7f000000000000000000000000000000000000000000000000000000000000000073ffffffffffffffffffffffffffffffffffffffff166323b872dd3330866040518463ffffffff1660e01b8152600401610b4e93929190611a38565b6020604051808303816000875af1158015610b6d573d6000803e3d6000fd5b505050506040513d601f19601f82011682018060405250810190610b919190611aa7565b503373ffffffffffffffffffffffffffffffffffffffff166108fc839081150290604051600060405180830381858888f19350505050158015610bd8573d6000803e3d6000fd5b50610c878247610be89190611ad4565b7f000000000000000000000000000000000000000000000000000000000000000073ffffffffffffffffffffffffffffffffffffffff166370a08231306040518263ffffffff1660e01b8152600401610c419190611821565b602060405180830381865afa158015610c5e573d6000803e3d6000fd5b505050506040513d601f19601f82011682018060405250810190610c829190611b89565b61131c565b50919050565b60036020528060005260406000206000915090505481565b600080610cf183600360008673ffffffffffffffffffffffffffffffffffffffff1673ffffffffffffffffffffffffffffffffffffffff16815260200190815260200160002054611348565b91509150915091565b6000813414610d3e576040517f08c379a0000000000000000000000000000000000000000000000000000000008152600401610d3590611d46565b60405180910390fd5b60006103e86103e584610d519190611962565b610d5b91906119d3565b905080600054610d6b9190611a04565b81600154610d799190611962565b610d8391906119d3565b91507f000000000000000000000000000000000000000000000000000000000000000073ffffffffffffffffffffffffffffffffffffffff1663a9059cbb33846040518363ffffffff1660e01b8152600401610de0929190611d66565b6020604051808303816000875af1158015610dff573d6000803e3d6000fd5b505050506040513d601f19601f82011682018060405250810190610e239190611aa7565b50610ec7477f000000000000000000000000000000000000000000000000000000000000000073ffffffffffffffffffffffffffffffffffffffff166370a08231306040518263ffffffff1660e01b8152600401610e819190611821565b602060405180830381865afa158015610e9e573d6000803e3d6000fd5b505050506040513d601f19601f82011682018060405250810190610ec29190611b89565b61131c565b50919050565b600080600360003373ffffffffffffffffffffffffffffffffffffffff1673ffffffffffffffffffffffffffffffffffffffff16815260200190815260200160002054831115610f52576040517f08c379a0000000000000000000000000000000000000000000000000000000008152600401610f4990611ddb565b60405180910390fd5b610f5c3384611348565b91509150915091565b600080600360008573ffffffffffffffffffffffffffffffffffffffff1673ffffffffffffffffffffffffffffffffffffffff16815260200190815260200160002054831115610fea576040517f08c379a0000000000000000000000000000000000000000000000000000000008152600401610fe190611ddb565b60405180910390fd5b610ff48484611348565b915091509250929050565b60008060005411801561101457506000600154115b611053576040517f08c379a000000000000000000000000000000000000000000000000000000000815260040161104a90611913565b60405180910390fd5b600054670de0b6b3a764000060015461106c9190611962565b61107691906119d3565b905090565b600081565b60008060005411801561109557506000600154115b80156110a15750600082115b6110e0576040517f08c379a00000000000000000000000000000000000000000000000000000000081526004016110d790611e47565b60405180910390fd5b60006103e86103e5846110f39190611962565b6110fd91906119d3565b90508060005461110d9190611a04565b8160015461111b9190611962565b61112591906119d3565b915050919050565b6000600360008373ffffffffffffffffffffffffffffffffffffffff1673ffffffffffffffffffffffffffffffffffffffff168152602001908152602001600020549050919050565b7f000000000000000000000000000000000000000000000000000000000000000081565b6000806000541180156111af57506000600154115b6111ee576040517f08c379a00000000000000000000000000000000000000000000000000000000081526004016111e590611e47565b60405180910390fd5b600154670de0b6b3a76400006000546112079190611962565b61121191906119d3565b905090565b6000600382111561127d578190506000600160028461123591906119d3565b61123f9190611a04565b90505b8181101561127757809150600281828561125c91906119d3565b6112669190611a04565b61127091906119d3565b9050611242565b5061128b565b6000821461128a57600190505b5b919050565b600081831061129f57816112a1565b825b905092915050565b80600360008473ffffffffffffffffffffffffffffffffffffffff1673ffffffffffffffffffffffffffffffffffffffff16815260200190815260200160002060008282546112f89190611a04565b9250508190555080600260008282546113119190611a04565b925050819055505050565b81600081905550806001819055505050565b60008183111561133e5781611340565b825b905092915050565b600080600254478461135a9190611962565b61136491906119d3565b91506002547f000000000000000000000000000000000000000000000000000000000000000073ffffffffffffffffffffffffffffffffffffffff166370a08231306040518263ffffffff1660e01b81526004016113c29190611821565b602060405180830381865afa1580156113df573d6000803e3d6000fd5b505050506040513d601f19601f820116820180604052508101906114039190611b89565b8461140e9190611962565b61141891906119d3565b905060008211801561142a5750600081115b611469576040517f08c379a000000000000000000000000000000000000000000000000000000000815260040161146090611eb3565b60405180910390fd5b6114738484611619565b61152c82476114829190611ad4565b827f000000000000000000000000000000000000000000000000000000000000000073ffffffffffffffffffffffffffffffffffffffff166370a08231306040518263ffffffff1660e01b81526004016114dc9190611821565b602060405180830381865afa1580156114f9573d6000803e3d6000fd5b505050506040513d601f19601f8201168201806040525081019061151d9190611b89565b6115279190611ad4565b61131c565b8373ffffffffffffffffffffffffffffffffffffffff166108fc839081150290604051600060405180830381858888f19350505050158015611572573d6000803e3d6000fd5b507f000000000000000000000000000000000000000000000000000000000000000073ffffffffffffffffffffffffffffffffffffffff1663a9059cbb85836040518363ffffffff1660e01b81526004016115ce929190611d66565b6020604051808303816000875af11580156115ed573d6000803e3d6000fd5b505050506040513d601f19601f820116820180604052508101906116119190611aa7565b509250929050565b80600360008473ffffffffffffffffffffffffffffffffffffffff1673ffffffffffffffffffffffffffffffffffffffff16815260200190815260200160002060008282546116689190611ad4565b9250508190555080600260008282546116819190611ad4565b925050819055505050565b6000819050919050565b61169f8161168c565b82525050565b60006020820190506116ba6000830184611696565b92915050565b600080fd5b6116ce8161168c565b81146116d957600080fd5b50565b6000813590506116eb816116c5565b92915050565b600060208284031215611707576117066116c0565b5b6000611715848285016116dc565b91505092915050565b600073ffffffffffffffffffffffffffffffffffffffff82169050919050565b60006117498261171e565b9050919050565b6117598161173e565b811461176457600080fd5b50565b60008135905061177681611750565b92915050565b600060208284031215611792576117916116c0565b5b60006117a084828501611767565b91505092915050565b60006040820190506117be6000830185611696565b6117cb6020830184611696565b9392505050565b600080604083850312156117e9576117e86116c0565b5b60006117f785828601611767565b9250506020611808858286016116dc565b9150509250929050565b61181b8161173e565b82525050565b60006020820190506118366000830184611812565b92915050565b6000819050919050565b600061186161185c6118578461171e565b61183c565b61171e565b9050919050565b600061187382611846565b9050919050565b600061188582611868565b9050919050565b6118958161187a565b82525050565b60006020820190506118b0600083018461188c565b92915050565b600082825260208201905092915050565b7f496e76616c696420455448207265736572766573000000000000000000000000600082015250565b60006118fd6014836118b6565b9150611908826118c7565b602082019050919050565b6000602082019050818103600083015261192c816118f0565b9050919050565b7f4e487b7100000000000000000000000000000000000000000000000000000000600052601160045260246000fd5b600061196d8261168c565b91506119788361168c565b92508282026119868161168c565b9150828204841483151761199d5761199c611933565b5b5092915050565b7f4e487b7100000000000000000000000000000000000000000000000000000000600052601260045260246000fd5b60006119de8261168c565b91506119e98361168c565b9250826119f9576119f86119a4565b5b828204905092915050565b6000611a0f8261168c565b9150611a1a8361168c565b9250828201905080821115611a3257611a31611933565b5b92915050565b6000606082019050611a4d6000830186611812565b611a5a6020830185611812565b611a676040830184611696565b949350505050565b60008115159050919050565b611a8481611a6f565b8114611a8f57600080fd5b50565b600081519050611aa181611a7b565b92915050565b600060208284031215611abd57611abc6116c0565b5b6000611acb84828501611a92565b91505092915050565b6000611adf8261168c565b9150611aea8361168c565b9250828203905081811115611b0257611b01611933565b5b92915050565b7f736861726573203d203000000000000000000000000000000000000000000000600082015250565b6000611b3e600a836118b6565b9150611b4982611b08565b602082019050919050565b60006020820190508181036000830152611b6d81611b31565b9050919050565b600081519050611b83816116c5565b92915050565b600060208284031215611b9f57611b9e6116c0565b5b6000611bad84828501611b74565b91505092915050565b7f496e76616c696420696e70757420616d6f756e74000000000000000000000000600082015250565b6000611bec6014836118b6565b9150611bf782611bb6565b602082019050919050565b60006020820190508181036000830152611c1b81611bdf565b9050919050565b7f496e76616c6964206f757470757420616d6f756e740000000000000000000000600082015250565b6000611c586015836118b6565b9150611c6382611c22565b602082019050919050565b60006020820190508181036000830152611c8781611c4b565b9050919050565b7f496e73756666696369656e74206f757470757420616d6f756e74000000000000600082015250565b6000611cc4601a836118b6565b9150611ccf82611c8e565b602082019050919050565b60006020820190508181036000830152611cf381611cb7565b9050919050565b7f45544820616d6f756e74206d69736d6174636800000000000000000000000000600082015250565b6000611d306013836118b6565b9150611d3b82611cfa565b602082019050919050565b60006020820190508181036000830152611d5f81611d23565b9050919050565b6000604082019050611d7b6000830185611812565b611d886020830184611696565b9392505050565b7f496e73756666696369656e742062616c616e6365000000000000000000000000600082015250565b6000611dc56014836118b6565b9150611dd082611d8f565b602082019050919050565b60006020820190508181036000830152611df481611db8565b9050919050565b7f496e76616c696420455243323020726573657276657300000000000000000000600082015250565b6000611e316016836118b6565b9150611e3c82611dfb565b602082019050919050565b60006020820190508181036000830152611e6081611e24565b9050919050565b7f616d6f756e7430206f7220616d6f756e7431203d203000000000000000000000600082015250565b6000611e9d6016836118b6565b9150611ea882611e67565b602082019050919050565b60006020820190508181036000830152611ecc81611e90565b905091905056fea264697066735822122075646f3c3b2fe52afb8ff206bf49a6aae2ee102422d97abdb07ac79f477c3e1d64736f6c63430008120033",
					"opcodes": "PUSH1 0xA0 PUSH1 0x40 MSTORE CALLVALUE DUP1 ISZERO PUSH3 0x11 JUMPI PUSH1 0x0 DUP1 REVERT JUMPDEST POP PUSH1 0x40 MLOAD PUSH3 0x2072 CODESIZE SUB DUP1 PUSH3 0x2072 DUP4 CODECOPY DUP2 DUP2 ADD PUSH1 0x40 MSTORE DUP2 ADD SWAP1 PUSH3 0x37 SWAP2 SWAP1 PUSH3 0xDC JUMP JUMPDEST DUP1 PUSH20 0xFFFFFFFFFFFFFFFFFFFFFFFFFFFFFFFFFFFFFFFF AND PUSH1 0x80 DUP2 PUSH20 0xFFFFFFFFFFFFFFFFFFFFFFFFFFFFFFFFFFFFFFFF AND DUP2 MSTORE POP POP POP PUSH3 0x10E JUMP JUMPDEST PUSH1 0x0 DUP1 REVERT JUMPDEST PUSH1 0x0 PUSH20 0xFFFFFFFFFFFFFFFFFFFFFFFFFFFFFFFFFFFFFFFF DUP3 AND SWAP1 POP SWAP2 SWAP1 POP JUMP JUMPDEST PUSH1 0x0 PUSH3 0xA4 DUP3 PUSH3 0x77 JUMP JUMPDEST SWAP1 POP SWAP2 SWAP1 POP JUMP JUMPDEST PUSH3 0xB6 DUP2 PUSH3 0x97 JUMP JUMPDEST DUP2 EQ PUSH3 0xC2 JUMPI PUSH1 0x0 DUP1 REVERT JUMPDEST POP JUMP JUMPDEST PUSH1 0x0 DUP2 MLOAD SWAP1 POP PUSH3 0xD6 DUP2 PUSH3 0xAB JUMP JUMPDEST SWAP3 SWAP2 POP POP JUMP JUMPDEST PUSH1 0x0 PUSH1 0x20 DUP3 DUP5 SUB SLT ISZERO PUSH3 0xF5 JUMPI PUSH3 0xF4 PUSH3 0x72 JUMP JUMPDEST JUMPDEST PUSH1 0x0 PUSH3 0x105 DUP5 DUP3 DUP6 ADD PUSH3 0xC5 JUMP JUMPDEST SWAP2 POP POP SWAP3 SWAP2 POP POP JUMP JUMPDEST PUSH1 0x80 MLOAD PUSH2 0x1F09 PUSH3 0x169 PUSH1 0x0 CODECOPY PUSH1 0x0 DUP2 DUP2 PUSH2 0x5B6 ADD MSTORE DUP2 DUP2 PUSH2 0x800 ADD MSTORE DUP2 DUP2 PUSH2 0xAF3 ADD MSTORE DUP2 DUP2 PUSH2 0xBEA ADD MSTORE DUP2 DUP2 PUSH2 0xD87 ADD MSTORE DUP2 DUP2 PUSH2 0xE2A ADD MSTORE DUP2 DUP2 PUSH2 0x1178 ADD MSTORE DUP2 DUP2 PUSH2 0x136B ADD MSTORE DUP2 DUP2 PUSH2 0x1485 ADD MSTORE PUSH2 0x1575 ADD MSTORE PUSH2 0x1F09 PUSH1 0x0 RETURN INVALID PUSH1 0x80 PUSH1 0x40 MSTORE PUSH1 0x4 CALLDATASIZE LT PUSH2 0x114 JUMPI PUSH1 0x0 CALLDATALOAD PUSH1 0xE0 SHR DUP1 PUSH4 0x7A6A5E1B GT PUSH2 0xA0 JUMPI DUP1 PUSH4 0xA734F06E GT PUSH2 0x64 JUMPI DUP1 PUSH4 0xA734F06E EQ PUSH2 0x3FE JUMPI DUP1 PUSH4 0xE1E2153E EQ PUSH2 0x429 JUMPI DUP1 PUSH4 0xF5EB42DC EQ PUSH2 0x466 JUMPI DUP1 PUSH4 0xFC0C546A EQ PUSH2 0x4A3 JUMPI DUP1 PUSH4 0xFCC2BA08 EQ PUSH2 0x4CE JUMPI PUSH2 0x114 JUMP JUMPDEST DUP1 PUSH4 0x7A6A5E1B EQ PUSH2 0x2E9 JUMPI DUP1 PUSH4 0x94B918DE EQ PUSH2 0x327 JUMPI DUP1 PUSH4 0x9C8F9F23 EQ PUSH2 0x357 JUMPI DUP1 PUSH4 0xA201CCF6 EQ PUSH2 0x395 JUMPI DUP1 PUSH4 0xA607A8D9 EQ PUSH2 0x3D3 JUMPI PUSH2 0x114 JUMP JUMPDEST DUP1 PUSH4 0x5628570C GT PUSH2 0xE7 JUMPI DUP1 PUSH4 0x5628570C EQ PUSH2 0x1DC JUMPI DUP1 PUSH4 0x5A76F25E EQ PUSH2 0x219 JUMPI DUP1 PUSH4 0x6CAE4F84 EQ PUSH2 0x244 JUMPI DUP1 PUSH4 0x6FB84B74 EQ PUSH2 0x26F JUMPI DUP1 PUSH4 0x70A08231 EQ PUSH2 0x2AC JUMPI PUSH2 0x114 JUMP JUMPDEST DUP1 PUSH4 0x18160DDD EQ PUSH2 0x119 JUMPI DUP1 PUSH4 0x3E592B04 EQ PUSH2 0x144 JUMPI DUP1 PUSH4 0x443CB4BC EQ PUSH2 0x181 JUMPI DUP1 PUSH4 0x51C6590A EQ PUSH2 0x1AC JUMPI JUMPDEST PUSH1 0x0 DUP1 REVERT JUMPDEST CALLVALUE DUP1 ISZERO PUSH2 0x125 JUMPI PUSH1 0x0 DUP1 REVERT JUMPDEST POP PUSH2 0x12E PUSH2 0x4F9 JUMP JUMPDEST PUSH1 0x40 MLOAD PUSH2 0x13B SWAP2 SWAP1 PUSH2 0x16A5 JUMP JUMPDEST PUSH1 0x40 MLOAD DUP1 SWAP2 SUB SWAP1 RETURN JUMPDEST CALLVALUE DUP1 ISZERO PUSH2 0x150 JUMPI PUSH1 0x0 DUP1 REVERT JUMPDEST POP PUSH2 0x16B PUSH1 0x4 DUP1 CALLDATASIZE SUB DUP2 ADD SWAP1 PUSH2 0x166 SWAP2 SWAP1 PUSH2 0x16F1 JUMP JUMPDEST PUSH2 0x4FF JUMP JUMPDEST PUSH1 0x40 MLOAD PUSH2 0x178 SWAP2 SWAP1 PUSH2 0x16A5 JUMP JUMPDEST PUSH1 0x40 MLOAD DUP1 SWAP2 SUB SWAP1 RETURN JUMPDEST CALLVALUE DUP1 ISZERO PUSH2 0x18D JUMPI PUSH1 0x0 DUP1 REVERT JUMPDEST POP PUSH2 0x196 PUSH2 0x5AC JUMP JUMPDEST PUSH1 0x40 MLOAD PUSH2 0x1A3 SWAP2 SWAP1 PUSH2 0x16A5 JUMP JUMPDEST PUSH1 0x40 MLOAD DUP1 SWAP2 SUB SWAP1 RETURN JUMPDEST PUSH2 0x1C6 PUSH1 0x4 DUP1 CALLDATASIZE SUB DUP2 ADD SWAP1 PUSH2 0x1C1 SWAP2 SWAP1 PUSH2 0x16F1 JUMP JUMPDEST PUSH2 0x5B2 JUMP JUMPDEST PUSH1 0x40 MLOAD PUSH2 0x1D3 SWAP2 SWAP1 PUSH2 0x16A5 JUMP JUMPDEST PUSH1 0x40 MLOAD DUP1 SWAP2 SUB SWAP1 RETURN JUMPDEST CALLVALUE DUP1 ISZERO PUSH2 0x1E8 JUMPI PUSH1 0x0 DUP1 REVERT JUMPDEST POP PUSH2 0x203 PUSH1 0x4 DUP1 CALLDATASIZE SUB DUP2 ADD SWAP1 PUSH2 0x1FE SWAP2 SWAP1 PUSH2 0x16F1 JUMP JUMPDEST PUSH2 0x8A3 JUMP JUMPDEST PUSH1 0x40 MLOAD PUSH2 0x210 SWAP2 SWAP1 PUSH2 0x16A5 JUMP JUMPDEST PUSH1 0x40 MLOAD DUP1 SWAP2 SUB SWAP1 RETURN JUMPDEST CALLVALUE DUP1 ISZERO PUSH2 0x225 JUMPI PUSH1 0x0 DUP1 REVERT JUMPDEST POP PUSH2 0x22E PUSH2 0xA19 JUMP JUMPDEST PUSH1 0x40 MLOAD PUSH2 0x23B SWAP2 SWAP1 PUSH2 0x16A5 JUMP JUMPDEST PUSH1 0x40 MLOAD DUP1 SWAP2 SUB SWAP1 RETURN JUMPDEST CALLVALUE DUP1 ISZERO PUSH2 0x250 JUMPI PUSH1 0x0 DUP1 REVERT JUMPDEST POP PUSH2 0x259 PUSH2 0xA1F JUMP JUMPDEST PUSH1 0x40 MLOAD PUSH2 0x266 SWAP2 SWAP1 PUSH2 0x16A5 JUMP JUMPDEST PUSH1 0x40 MLOAD DUP1 SWAP2 SUB SWAP1 RETURN JUMPDEST CALLVALUE DUP1 ISZERO PUSH2 0x27B JUMPI PUSH1 0x0 DUP1 REVERT JUMPDEST POP PUSH2 0x296 PUSH1 0x4 DUP1 CALLDATASIZE SUB DUP2 ADD SWAP1 PUSH2 0x291 SWAP2 SWAP1 PUSH2 0x16F1 JUMP JUMPDEST PUSH2 0xA66 JUMP JUMPDEST PUSH1 0x40 MLOAD PUSH2 0x2A3 SWAP2 SWAP1 PUSH2 0x16A5 JUMP JUMPDEST PUSH1 0x40 MLOAD DUP1 SWAP2 SUB SWAP1 RETURN JUMPDEST CALLVALUE DUP1 ISZERO PUSH2 0x2B8 JUMPI PUSH1 0x0 DUP1 REVERT JUMPDEST POP PUSH2 0x2D3 PUSH1 0x4 DUP1 CALLDATASIZE SUB DUP2 ADD SWAP1 PUSH2 0x2CE SWAP2 SWAP1 PUSH2 0x177C JUMP JUMPDEST PUSH2 0xC8D JUMP JUMPDEST PUSH1 0x40 MLOAD PUSH2 0x2E0 SWAP2 SWAP1 PUSH2 0x16A5 JUMP JUMPDEST PUSH1 0x40 MLOAD DUP1 SWAP2 SUB SWAP1 RETURN JUMPDEST CALLVALUE DUP1 ISZERO PUSH2 0x2F5 JUMPI PUSH1 0x0 DUP1 REVERT JUMPDEST POP PUSH2 0x310 PUSH1 0x4 DUP1 CALLDATASIZE SUB DUP2 ADD SWAP1 PUSH2 0x30B SWAP2 SWAP1 PUSH2 0x177C JUMP JUMPDEST PUSH2 0xCA5 JUMP JUMPDEST PUSH1 0x40 MLOAD PUSH2 0x31E SWAP3 SWAP2 SWAP1 PUSH2 0x17A9 JUMP JUMPDEST PUSH1 0x40 MLOAD DUP1 SWAP2 SUB SWAP1 RETURN JUMPDEST PUSH2 0x341 PUSH1 0x4 DUP1 CALLDATASIZE SUB DUP2 ADD SWAP1 PUSH2 0x33C SWAP2 SWAP1 PUSH2 0x16F1 JUMP JUMPDEST PUSH2 0xCFA JUMP JUMPDEST PUSH1 0x40 MLOAD PUSH2 0x34E SWAP2 SWAP1 PUSH2 0x16A5 JUMP JUMPDEST PUSH1 0x40 MLOAD DUP1 SWAP2 SUB SWAP1 RETURN JUMPDEST CALLVALUE DUP1 ISZERO PUSH2 0x363 JUMPI PUSH1 0x0 DUP1 REVERT JUMPDEST POP PUSH2 0x37E PUSH1 0x4 DUP1 CALLDATASIZE SUB DUP2 ADD SWAP1 PUSH2 0x379 SWAP2 SWAP1 PUSH2 0x16F1 JUMP JUMPDEST PUSH2 0xECD JUMP JUMPDEST PUSH1 0x40 MLOAD PUSH2 0x38C SWAP3 SWAP2 SWAP1 PUSH2 0x17A9 JUMP JUMPDEST PUSH1 0x40 MLOAD DUP1 SWAP2 SUB SWAP1 RETURN JUMPDEST CALLVALUE DUP1 ISZERO PUSH2 0x3A1 JUMPI PUSH1 0x0 DUP1 REVERT JUMPDEST POP PUSH2 0x3BC PUSH1 0x4 DUP1 CALLDATASIZE SUB DUP2 ADD SWAP1 PUSH2 0x3B7 SWAP2 SWAP1 PUSH2 0x17D2 JUMP JUMPDEST PUSH2 0xF65 JUMP JUMPDEST PUSH1 0x40 MLOAD PUSH2 0x3CA SWAP3 SWAP2 SWAP1 PUSH2 0x17A9 JUMP JUMPDEST PUSH1 0x40 MLOAD DUP1 SWAP2 SUB SWAP1 RETURN JUMPDEST CALLVALUE DUP1 ISZERO PUSH2 0x3DF JUMPI PUSH1 0x0 DUP1 REVERT JUMPDEST POP PUSH2 0x3E8 PUSH2 0xFFF JUMP JUMPDEST PUSH1 0x40 MLOAD PUSH2 0x3F5 SWAP2 SWAP1 PUSH2 0x16A5 JUMP JUMPDEST PUSH1 0x40 MLOAD DUP1 SWAP2 SUB SWAP1 RETURN JUMPDEST CALLVALUE DUP1 ISZERO PUSH2 0x40A JUMPI PUSH1 0x0 DUP1 REVERT JUMPDEST POP PUSH2 0x413 PUSH2 0x107B JUMP JUMPDEST PUSH1 0x40 MLOAD PUSH2 0x420 SWAP2 SWAP1 PUSH2 0x1821 JUMP JUMPDEST PUSH1 0x40 MLOAD DUP1 SWAP2 SUB SWAP1 RETURN JUMPDEST CALLVALUE DUP1 ISZERO PUSH2 0x435 JUMPI PUSH1 0x0 DUP1 REVERT JUMPDEST POP PUSH2 0x450 PUSH1 0x4 DUP1 CALLDATASIZE SUB DUP2 ADD SWAP1 PUSH2 0x44B SWAP2 SWAP1 PUSH2 0x16F1 JUMP JUMPDEST PUSH2 0x1080 JUMP JUMPDEST PUSH1 0x40 MLOAD PUSH2 0x45D SWAP2 SWAP1 PUSH2 0x16A5 JUMP JUMPDEST PUSH1 0x40 MLOAD DUP1 SWAP2 SUB SWAP1 RETURN JUMPDEST CALLVALUE DUP1 ISZERO PUSH2 0x472 JUMPI PUSH1 0x0 DUP1 REVERT JUMPDEST POP PUSH2 0x48D PUSH1 0x4 DUP1 CALLDATASIZE SUB DUP2 ADD SWAP1 PUSH2 0x488 SWAP2 SWAP1 PUSH2 0x177C JUMP JUMPDEST PUSH2 0x112D JUMP JUMPDEST PUSH1 0x40 MLOAD PUSH2 0x49A SWAP2 SWAP1 PUSH2 0x16A5 JUMP JUMPDEST PUSH1 0x40 MLOAD DUP1 SWAP2 SUB SWAP1 RETURN JUMPDEST CALLVALUE DUP1 ISZERO PUSH2 0x4AF JUMPI PUSH1 0x0 DUP1 REVERT JUMPDEST POP PUSH2 0x4B8 PUSH2 0x1176 JUMP JUMPDEST PUSH1 0x40 MLOAD PUSH2 0x4C5 SWAP2 SWAP1 PUSH2 0x189B JUMP JUMPDEST PUSH1 0x40 MLOAD DUP1 SWAP2 SUB SWAP1 RETURN JUMPDEST CALLVALUE DUP1 ISZERO PUSH2 0x4DA JUMPI PUSH1 0x0 DUP1 REVERT JUMPDEST POP PUSH2 0x4E3 PUSH2 0x119A JUMP JUMPDEST PUSH1 0x40 MLOAD PUSH2 0x4F0 SWAP2 SWAP1 PUSH2 0x16A5 JUMP JUMPDEST PUSH1 0x40 MLOAD DUP1 SWAP2 SUB SWAP1 RETURN JUMPDEST PUSH1 0x2 SLOAD DUP2 JUMP JUMPDEST PUSH1 0x0 DUP1 PUSH1 0x0 SLOAD GT DUP1 ISZERO PUSH2 0x514 JUMPI POP PUSH1 0x0 PUSH1 0x1 SLOAD GT JUMPDEST DUP1 ISZERO PUSH2 0x520 JUMPI POP PUSH1 0x0 DUP3 GT JUMPDEST PUSH2 0x55F JUMPI PUSH1 0x40 MLOAD PUSH32 0x8C379A000000000000000000000000000000000000000000000000000000000 DUP2 MSTORE PUSH1 0x4 ADD PUSH2 0x556 SWAP1 PUSH2 0x1913 JUMP JUMPDEST PUSH1 0x40 MLOAD DUP1 SWAP2 SUB SWAP1 REVERT JUMPDEST PUSH1 0x0 PUSH2 0x3E8 PUSH2 0x3E5 DUP5 PUSH2 0x572 SWAP2 SWAP1 PUSH2 0x1962 JUMP JUMPDEST PUSH2 0x57C SWAP2 SWAP1 PUSH2 0x19D3 JUMP JUMPDEST SWAP1 POP DUP1 PUSH1 0x1 SLOAD PUSH2 0x58C SWAP2 SWAP1 PUSH2 0x1A04 JUMP JUMPDEST DUP2 PUSH1 0x0 SLOAD PUSH2 0x59A SWAP2 SWAP1 PUSH2 0x1962 JUMP JUMPDEST PUSH2 0x5A4 SWAP2 SWAP1 PUSH2 0x19D3 JUMP JUMPDEST SWAP2 POP POP SWAP2 SWAP1 POP JUMP JUMPDEST PUSH1 0x0 SLOAD DUP2 JUMP JUMPDEST PUSH1 0x0 PUSH32 0x0 PUSH20 0xFFFFFFFFFFFFFFFFFFFFFFFFFFFFFFFFFFFFFFFF AND PUSH4 0x23B872DD CALLER ADDRESS DUP6 PUSH1 0x40 MLOAD DUP5 PUSH4 0xFFFFFFFF AND PUSH1 0xE0 SHL DUP2 MSTORE PUSH1 0x4 ADD PUSH2 0x611 SWAP4 SWAP3 SWAP2 SWAP1 PUSH2 0x1A38 JUMP JUMPDEST PUSH1 0x20 PUSH1 0x40 MLOAD DUP1 DUP4 SUB DUP2 PUSH1 0x0 DUP8 GAS CALL ISZERO DUP1 ISZERO PUSH2 0x630 JUMPI RETURNDATASIZE PUSH1 0x0 DUP1 RETURNDATACOPY RETURNDATASIZE PUSH1 0x0 REVERT JUMPDEST POP POP POP POP PUSH1 0x40 MLOAD RETURNDATASIZE PUSH1 0x1F NOT PUSH1 0x1F DUP3 ADD AND DUP3 ADD DUP1 PUSH1 0x40 MSTORE POP DUP2 ADD SWAP1 PUSH2 0x654 SWAP2 SWAP1 PUSH2 0x1AA7 JUMP JUMPDEST POP PUSH1 0x0 CALLVALUE SWAP1 POP PUSH1 0x0 DUP1 SLOAD GT DUP1 PUSH2 0x66C JUMPI POP PUSH1 0x0 PUSH1 0x1 SLOAD GT JUMPDEST ISZERO PUSH2 0x747 JUMPI DUP1 PUSH1 0x1 SLOAD PUSH2 0x67F SWAP2 SWAP1 PUSH2 0x1962 JUMP JUMPDEST DUP4 PUSH1 0x0 SLOAD PUSH2 0x68D SWAP2 SWAP1 PUSH2 0x1962 JUMP JUMPDEST EQ PUSH2 0x746 JUMPI PUSH1 0x0 PUSH2 0x3E8 PUSH2 0x3E5 PUSH1 0x0 SLOAD PUSH2 0x6A7 SWAP2 SWAP1 PUSH2 0x1962 JUMP JUMPDEST PUSH2 0x6B1 SWAP2 SWAP1 PUSH2 0x19D3 JUMP JUMPDEST DUP3 PUSH1 0x1 SLOAD PUSH2 0x6BF SWAP2 SWAP1 PUSH2 0x1962 JUMP JUMPDEST PUSH2 0x6C9 SWAP2 SWAP1 PUSH2 0x19D3 JUMP JUMPDEST SWAP1 POP DUP1 DUP5 GT ISZERO PUSH2 0x6FF JUMPI PUSH1 0x0 DUP2 DUP6 PUSH2 0x6E1 SWAP2 SWAP1 PUSH2 0x1AD4 JUMP JUMPDEST SWAP1 POP PUSH2 0x6EC DUP2 PUSH2 0xA66 JUMP JUMPDEST DUP4 PUSH2 0x6F7 SWAP2 SWAP1 PUSH2 0x1A04 JUMP JUMPDEST SWAP3 POP POP PUSH2 0x741 JUMP JUMPDEST PUSH1 0x0 PUSH1 0x1 SLOAD PUSH1 0x0 SLOAD DUP4 PUSH2 0x712 SWAP2 SWAP1 PUSH2 0x1962 JUMP JUMPDEST PUSH2 0x71C SWAP2 SWAP1 PUSH2 0x19D3 JUMP JUMPDEST DUP4 PUSH2 0x727 SWAP2 SWAP1 PUSH2 0x1AD4 JUMP JUMPDEST SWAP1 POP PUSH2 0x732 DUP2 PUSH2 0xCFA JUMP JUMPDEST DUP6 PUSH2 0x73D SWAP2 SWAP1 PUSH2 0x1A04 JUMP JUMPDEST SWAP5 POP POP JUMPDEST DUP1 SWAP4 POP POP JUMPDEST JUMPDEST PUSH1 0x0 PUSH1 0x2 SLOAD SUB PUSH2 0x76C JUMPI PUSH2 0x765 DUP4 DUP3 PUSH2 0x760 SWAP2 SWAP1 PUSH2 0x1962 JUMP JUMPDEST PUSH2 0x1216 JUMP JUMPDEST SWAP2 POP PUSH2 0x7AD JUMP JUMPDEST PUSH2 0x7AA PUSH1 0x0 SLOAD PUSH1 0x2 SLOAD DUP4 PUSH2 0x780 SWAP2 SWAP1 PUSH2 0x1962 JUMP JUMPDEST PUSH2 0x78A SWAP2 SWAP1 PUSH2 0x19D3 JUMP JUMPDEST PUSH1 0x1 SLOAD PUSH1 0x2 SLOAD DUP7 PUSH2 0x79B SWAP2 SWAP1 PUSH2 0x1962 JUMP JUMPDEST PUSH2 0x7A5 SWAP2 SWAP1 PUSH2 0x19D3 JUMP JUMPDEST PUSH2 0x1290 JUMP JUMPDEST SWAP2 POP JUMPDEST PUSH1 0x0 DUP3 GT PUSH2 0x7F0 JUMPI PUSH1 0x40 MLOAD PUSH32 0x8C379A000000000000000000000000000000000000000000000000000000000 DUP2 MSTORE PUSH1 0x4 ADD PUSH2 0x7E7 SWAP1 PUSH2 0x1B54 JUMP JUMPDEST PUSH1 0x40 MLOAD DUP1 SWAP2 SUB SWAP1 REVERT JUMPDEST PUSH2 0x7FA CALLER DUP4 PUSH2 0x12A9 JUMP JUMPDEST PUSH2 0x89D SELFBALANCE PUSH32 0x0 PUSH20 0xFFFFFFFFFFFFFFFFFFFFFFFFFFFFFFFFFFFFFFFF AND PUSH4 0x70A08231 ADDRESS PUSH1 0x40 MLOAD DUP3 PUSH4 0xFFFFFFFF AND PUSH1 0xE0 SHL DUP2 MSTORE PUSH1 0x4 ADD PUSH2 0x857 SWAP2 SWAP1 PUSH2 0x1821 JUMP JUMPDEST PUSH1 0x20 PUSH1 0x40 MLOAD DUP1 DUP4 SUB DUP2 DUP7 GAS STATICCALL ISZERO DUP1 ISZERO PUSH2 0x874 JUMPI RETURNDATASIZE PUSH1 0x0 DUP1 RETURNDATACOPY RETURNDATASIZE PUSH1 0x0 REVERT JUMPDEST POP POP POP POP PUSH1 0x40 MLOAD RETURNDATASIZE PUSH1 0x1F NOT PUSH1 0x1F DUP3 ADD AND DUP3 ADD DUP1 PUSH1 0x40 MSTORE POP DUP2 ADD SWAP1 PUSH2 0x898 SWAP2 SWAP1 PUSH2 0x1B89 JUMP JUMPDEST PUSH2 0x131C JUMP JUMPDEST POP SWAP2 SWAP1 POP JUMP JUMPDEST PUSH1 0x0 DUP1 DUP3 GT PUSH2 0x8E7 JUMPI PUSH1 0x40 MLOAD PUSH32 0x8C379A000000000000000000000000000000000000000000000000000000000 DUP2 MSTORE PUSH1 0x4 ADD PUSH2 0x8DE SWAP1 PUSH2 0x1C02 JUMP JUMPDEST PUSH1 0x40 MLOAD DUP1 SWAP2 SUB SWAP1 REVERT JUMPDEST PUSH1 0x0 PUSH2 0x3E8 PUSH2 0x3E5 DUP5 PUSH2 0x8FA SWAP2 SWAP1 PUSH2 0x1962 JUMP JUMPDEST PUSH2 0x904 SWAP2 SWAP1 PUSH2 0x19D3 JUMP JUMPDEST SWAP1 POP PUSH1 0x0 DUP2 PUSH1 0x0 SLOAD PUSH2 0x916 SWAP2 SWAP1 PUSH2 0x1A04 JUMP JUMPDEST DUP3 PUSH1 0x1 SLOAD PUSH2 0x924 SWAP2 SWAP1 PUSH2 0x1962 JUMP JUMPDEST PUSH2 0x92E SWAP2 SWAP1 PUSH2 0x19D3 JUMP JUMPDEST SWAP1 POP PUSH1 0x0 DUP2 GT PUSH2 0x973 JUMPI PUSH1 0x40 MLOAD PUSH32 0x8C379A000000000000000000000000000000000000000000000000000000000 DUP2 MSTORE PUSH1 0x4 ADD PUSH2 0x96A SWAP1 PUSH2 0x1C6E JUMP JUMPDEST PUSH1 0x40 MLOAD DUP1 SWAP2 SUB SWAP1 REVERT JUMPDEST PUSH1 0x0 PUSH2 0x97D PUSH2 0x119A JUMP JUMPDEST SWAP1 POP PUSH1 0x0 PUSH8 0xDE0B6B3A7640000 DUP3 DUP8 PUSH2 0x996 SWAP2 SWAP1 PUSH2 0x1962 JUMP JUMPDEST PUSH2 0x9A0 SWAP2 SWAP1 PUSH2 0x19D3 JUMP JUMPDEST SWAP1 POP PUSH1 0x0 DUP2 DUP5 GT ISZERO PUSH2 0x9D7 JUMPI DUP2 PUSH2 0x3E8 DUP4 DUP7 PUSH2 0x9BC SWAP2 SWAP1 PUSH2 0x1AD4 JUMP JUMPDEST PUSH2 0x9C6 SWAP2 SWAP1 PUSH2 0x1962 JUMP JUMPDEST PUSH2 0x9D0 SWAP2 SWAP1 PUSH2 0x19D3 JUMP JUMPDEST SWAP1 POP PUSH2 0x9FE JUMP JUMPDEST DUP2 PUSH2 0x3E8 DUP6 DUP5 PUSH2 0x9E7 SWAP2 SWAP1 PUSH2 0x1AD4 JUMP JUMPDEST PUSH2 0x9F1 SWAP2 SWAP1 PUSH2 0x1962 JUMP JUMPDEST PUSH2 0x9FB SWAP2 SWAP1 PUSH2 0x19D3 JUMP JUMPDEST SWAP1 POP JUMPDEST PUSH2 0xA0A DUP2 PUSH2 0x3E8 PUSH2 0x132E JUMP JUMPDEST SWAP1 POP DUP1 SWAP6 POP POP POP POP POP POP SWAP2 SWAP1 POP JUMP JUMPDEST PUSH1 0x1 SLOAD DUP2 JUMP JUMPDEST PUSH1 0x0 PUSH1 0x3 PUSH1 0x0 CALLER PUSH20 0xFFFFFFFFFFFFFFFFFFFFFFFFFFFFFFFFFFFFFFFF AND PUSH20 0xFFFFFFFFFFFFFFFFFFFFFFFFFFFFFFFFFFFFFFFF AND DUP2 MSTORE PUSH1 0x20 ADD SWAP1 DUP2 MSTORE PUSH1 0x20 ADD PUSH1 0x0 KECCAK256 SLOAD SWAP1 POP SWAP1 JUMP JUMPDEST PUSH1 0x0 DUP1 PUSH2 0x3E8 PUSH2 0x3E5 DUP5 PUSH2 0xA7A SWAP2 SWAP1 PUSH2 0x1962 JUMP JUMPDEST PUSH2 0xA84 SWAP2 SWAP1 PUSH2 0x19D3 JUMP JUMPDEST SWAP1 POP DUP1 PUSH1 0x1 SLOAD PUSH2 0xA94 SWAP2 SWAP1 PUSH2 0x1A04 JUMP JUMPDEST DUP2 PUSH1 0x0 SLOAD PUSH2 0xAA2 SWAP2 SWAP1 PUSH2 0x1962 JUMP JUMPDEST PUSH2 0xAAC SWAP2 SWAP1 PUSH2 0x19D3 JUMP JUMPDEST SWAP2 POP PUSH1 0x0 DUP3 GT PUSH2 0xAF1 JUMPI PUSH1 0x40 MLOAD PUSH32 0x8C379A000000000000000000000000000000000000000000000000000000000 DUP2 MSTORE PUSH1 0x4 ADD PUSH2 0xAE8 SWAP1 PUSH2 0x1CDA JUMP JUMPDEST PUSH1 0x40 MLOAD DUP1 SWAP2 SUB SWAP1 REVERT JUMPDEST PUSH32 0x0 PUSH20 0xFFFFFFFFFFFFFFFFFFFFFFFFFFFFFFFFFFFFFFFF AND PUSH4 0x23B872DD CALLER ADDRESS DUP7 PUSH1 0x40 MLOAD DUP5 PUSH4 0xFFFFFFFF AND PUSH1 0xE0 SHL DUP2 MSTORE PUSH1 0x4 ADD PUSH2 0xB4E SWAP4 SWAP3 SWAP2 SWAP1 PUSH2 0x1A38 JUMP JUMPDEST PUSH1 0x20 PUSH1 0x40 MLOAD DUP1 DUP4 SUB DUP2 PUSH1 0x0 DUP8 GAS CALL ISZERO DUP1 ISZERO PUSH2 0xB6D JUMPI RETURNDATASIZE PUSH1 0x0 DUP1 RETURNDATACOPY RETURNDATASIZE PUSH1 0x0 REVERT JUMPDEST POP POP POP POP PUSH1 0x40 MLOAD RETURNDATASIZE PUSH1 0x1F NOT PUSH1 0x1F DUP3 ADD AND DUP3 ADD DUP1 PUSH1 0x40 MSTORE POP DUP2 ADD SWAP1 PUSH2 0xB91 SWAP2 SWAP1 PUSH2 0x1AA7 JUMP JUMPDEST POP CALLER PUSH20 0xFFFFFFFFFFFFFFFFFFFFFFFFFFFFFFFFFFFFFFFF AND PUSH2 0x8FC DUP4 SWAP1 DUP2 ISZERO MUL SWAP1 PUSH1 0x40 MLOAD PUSH1 0x0 PUSH1 0x40 MLOAD DUP1 DUP4 SUB DUP2 DUP6 DUP9 DUP9 CALL SWAP4 POP POP POP POP ISZERO DUP1 ISZERO PUSH2 0xBD8 JUMPI RETURNDATASIZE PUSH1 0x0 DUP1 RETURNDATACOPY RETURNDATASIZE PUSH1 0x0 REVERT JUMPDEST POP PUSH2 0xC87 DUP3 SELFBALANCE PUSH2 0xBE8 SWAP2 SWAP1 PUSH2 0x1AD4 JUMP JUMPDEST PUSH32 0x0 PUSH20 0xFFFFFFFFFFFFFFFFFFFFFFFFFFFFFFFFFFFFFFFF AND PUSH4 0x70A08231 ADDRESS PUSH1 0x40 MLOAD DUP3 PUSH4 0xFFFFFFFF AND PUSH1 0xE0 SHL DUP2 MSTORE PUSH1 0x4 ADD PUSH2 0xC41 SWAP2 SWAP1 PUSH2 0x1821 JUMP JUMPDEST PUSH1 0x20 PUSH1 0x40 MLOAD DUP1 DUP4 SUB DUP2 DUP7 GAS STATICCALL ISZERO DUP1 ISZERO PUSH2 0xC5E JUMPI RETURNDATASIZE PUSH1 0x0 DUP1 RETURNDATACOPY RETURNDATASIZE PUSH1 0x0 REVERT JUMPDEST POP POP POP POP PUSH1 0x40 MLOAD RETURNDATASIZE PUSH1 0x1F NOT PUSH1 0x1F DUP3 ADD AND DUP3 ADD DUP1 PUSH1 0x40 MSTORE POP DUP2 ADD SWAP1 PUSH2 0xC82 SWAP2 SWAP1 PUSH2 0x1B89 JUMP JUMPDEST PUSH2 0x131C JUMP JUMPDEST POP SWAP2 SWAP1 POP JUMP JUMPDEST PUSH1 0x3 PUSH1 0x20 MSTORE DUP1 PUSH1 0x0 MSTORE PUSH1 0x40 PUSH1 0x0 KECCAK256 PUSH1 0x0 SWAP2 POP SWAP1 POP SLOAD DUP2 JUMP JUMPDEST PUSH1 0x0 DUP1 PUSH2 0xCF1 DUP4 PUSH1 0x3 PUSH1 0x0 DUP7 PUSH20 0xFFFFFFFFFFFFFFFFFFFFFFFFFFFFFFFFFFFFFFFF AND PUSH20 0xFFFFFFFFFFFFFFFFFFFFFFFFFFFFFFFFFFFFFFFF AND DUP2 MSTORE PUSH1 0x20 ADD SWAP1 DUP2 MSTORE PUSH1 0x20 ADD PUSH1 0x0 KECCAK256 SLOAD PUSH2 0x1348 JUMP JUMPDEST SWAP2 POP SWAP2 POP SWAP2 POP SWAP2 JUMP JUMPDEST PUSH1 0x0 DUP2 CALLVALUE EQ PUSH2 0xD3E JUMPI PUSH1 0x40 MLOAD PUSH32 0x8C379A000000000000000000000000000000000000000000000000000000000 DUP2 MSTORE PUSH1 0x4 ADD PUSH2 0xD35 SWAP1 PUSH2 0x1D46 JUMP JUMPDEST PUSH1 0x40 MLOAD DUP1 SWAP2 SUB SWAP1 REVERT JUMPDEST PUSH1 0x0 PUSH2 0x3E8 PUSH2 0x3E5 DUP5 PUSH2 0xD51 SWAP2 SWAP1 PUSH2 0x1962 JUMP JUMPDEST PUSH2 0xD5B SWAP2 SWAP1 PUSH2 0x19D3 JUMP JUMPDEST SWAP1 POP DUP1 PUSH1 0x0 SLOAD PUSH2 0xD6B SWAP2 SWAP1 PUSH2 0x1A04 JUMP JUMPDEST DUP2 PUSH1 0x1 SLOAD PUSH2 0xD79 SWAP2 SWAP1 PUSH2 0x1962 JUMP JUMPDEST PUSH2 0xD83 SWAP2 SWAP1 PUSH2 0x19D3 JUMP JUMPDEST SWAP2 POP PUSH32 0x0 PUSH20 0xFFFFFFFFFFFFFFFFFFFFFFFFFFFFFFFFFFFFFFFF AND PUSH4 0xA9059CBB CALLER DUP5 PUSH1 0x40 MLOAD DUP4 PUSH4 0xFFFFFFFF AND PUSH1 0xE0 SHL DUP2 MSTORE PUSH1 0x4 ADD PUSH2 0xDE0 SWAP3 SWAP2 SWAP1 PUSH2 0x1D66 JUMP JUMPDEST PUSH1 0x20 PUSH1 0x40 MLOAD DUP1 DUP4 SUB DUP2 PUSH1 0x0 DUP8 GAS CALL ISZERO DUP1 ISZERO PUSH2 0xDFF JUMPI RETURNDATASIZE PUSH1 0x0 DUP1 RETURNDATACOPY RETURNDATASIZE PUSH1 0x0 REVERT JUMPDEST POP POP POP POP PUSH1 0x40 MLOAD RETURNDATASIZE PUSH1 0x1F NOT PUSH1 0x1F DUP3 ADD AND DUP3 ADD DUP1 PUSH1 0x40 MSTORE POP DUP2 ADD SWAP1 PUSH2 0xE23 SWAP2 SWAP1 PUSH2 0x1AA7 JUMP JUMPDEST POP PUSH2 0xEC7 SELFBALANCE PUSH32 0x0 PUSH20 0xFFFFFFFFFFFFFFFFFFFFFFFFFFFFFFFFFFFFFFFF AND PUSH4 0x70A08231 ADDRESS PUSH1 0x40 MLOAD DUP3 PUSH4 0xFFFFFFFF AND PUSH1 0xE0 SHL DUP2 MSTORE PUSH1 0x4 ADD PUSH2 0xE81 SWAP2 SWAP1 PUSH2 0x1821 JUMP JUMPDEST PUSH1 0x20 PUSH1 0x40 MLOAD DUP1 DUP4 SUB DUP2 DUP7 GAS STATICCALL ISZERO DUP1 ISZERO PUSH2 0xE9E JUMPI RETURNDATASIZE PUSH1 0x0 DUP1 RETURNDATACOPY RETURNDATASIZE PUSH1 0x0 REVERT JUMPDEST POP POP POP POP PUSH1 0x40 MLOAD RETURNDATASIZE PUSH1 0x1F NOT PUSH1 0x1F DUP3 ADD AND DUP3 ADD DUP1 PUSH1 0x40 MSTORE POP DUP2 ADD SWAP1 PUSH2 0xEC2 SWAP2 SWAP1 PUSH2 0x1B89 JUMP JUMPDEST PUSH2 0x131C JUMP JUMPDEST POP SWAP2 SWAP1 POP JUMP JUMPDEST PUSH1 0x0 DUP1 PUSH1 0x3 PUSH1 0x0 CALLER PUSH20 0xFFFFFFFFFFFFFFFFFFFFFFFFFFFFFFFFFFFFFFFF AND PUSH20 0xFFFFFFFFFFFFFFFFFFFFFFFFFFFFFFFFFFFFFFFF AND DUP2 MSTORE PUSH1 0x20 ADD SWAP1 DUP2 MSTORE PUSH1 0x20 ADD PUSH1 0x0 KECCAK256 SLOAD DUP4 GT ISZERO PUSH2 0xF52 JUMPI PUSH1 0x40 MLOAD PUSH32 0x8C379A000000000000000000000000000000000000000000000000000000000 DUP2 MSTORE PUSH1 0x4 ADD PUSH2 0xF49 SWAP1 PUSH2 0x1DDB JUMP JUMPDEST PUSH1 0x40 MLOAD DUP1 SWAP2 SUB SWAP1 REVERT JUMPDEST PUSH2 0xF5C CALLER DUP5 PUSH2 0x1348 JUMP JUMPDEST SWAP2 POP SWAP2 POP SWAP2 POP SWAP2 JUMP JUMPDEST PUSH1 0x0 DUP1 PUSH1 0x3 PUSH1 0x0 DUP6 PUSH20 0xFFFFFFFFFFFFFFFFFFFFFFFFFFFFFFFFFFFFFFFF AND PUSH20 0xFFFFFFFFFFFFFFFFFFFFFFFFFFFFFFFFFFFFFFFF AND DUP2 MSTORE PUSH1 0x20 ADD SWAP1 DUP2 MSTORE PUSH1 0x20 ADD PUSH1 0x0 KECCAK256 SLOAD DUP4 GT ISZERO PUSH2 0xFEA JUMPI PUSH1 0x40 MLOAD PUSH32 0x8C379A000000000000000000000000000000000000000000000000000000000 DUP2 MSTORE PUSH1 0x4 ADD PUSH2 0xFE1 SWAP1 PUSH2 0x1DDB JUMP JUMPDEST PUSH1 0x40 MLOAD DUP1 SWAP2 SUB SWAP1 REVERT JUMPDEST PUSH2 0xFF4 DUP5 DUP5 PUSH2 0x1348 JUMP JUMPDEST SWAP2 POP SWAP2 POP SWAP3 POP SWAP3 SWAP1 POP JUMP JUMPDEST PUSH1 0x0 DUP1 PUSH1 0x0 SLOAD GT DUP1 ISZERO PUSH2 0x1014 JUMPI POP PUSH1 0x0 PUSH1 0x1 SLOAD GT JUMPDEST PUSH2 0x1053 JUMPI PUSH1 0x40 MLOAD PUSH32 0x8C379A000000000000000000000000000000000000000000000000000000000 DUP2 MSTORE PUSH1 0x4 ADD PUSH2 0x104A SWAP1 PUSH2 0x1913 JUMP JUMPDEST PUSH1 0x40 MLOAD DUP1 SWAP2 SUB SWAP1 REVERT JUMPDEST PUSH1 0x0 SLOAD PUSH8 0xDE0B6B3A7640000 PUSH1 0x1 SLOAD PUSH2 0x106C SWAP2 SWAP1 PUSH2 0x1962 JUMP JUMPDEST PUSH2 0x1076 SWAP2 SWAP1 PUSH2 0x19D3 JUMP JUMPDEST SWAP1 POP SWAP1 JUMP JUMPDEST PUSH1 0x0 DUP2 JUMP JUMPDEST PUSH1 0x0 DUP1 PUSH1 0x0 SLOAD GT DUP1 ISZERO PUSH2 0x1095 JUMPI POP PUSH1 0x0 PUSH1 0x1 SLOAD GT JUMPDEST DUP1 ISZERO PUSH2 0x10A1 JUMPI POP PUSH1 0x0 DUP3 GT JUMPDEST PUSH2 0x10E0 JUMPI PUSH1 0x40 MLOAD PUSH32 0x8C379A000000000000000000000000000000000000000000000000000000000 DUP2 MSTORE PUSH1 0x4 ADD PUSH2 0x10D7 SWAP1 PUSH2 0x1E47 JUMP JUMPDEST PUSH1 0x40 MLOAD DUP1 SWAP2 SUB SWAP1 REVERT JUMPDEST PUSH1 0x0 PUSH2 0x3E8 PUSH2 0x3E5 DUP5 PUSH2 0x10F3 SWAP2 SWAP1 PUSH2 0x1962 JUMP JUMPDEST PUSH2 0x10FD SWAP2 SWAP1 PUSH2 0x19D3 JUMP JUMPDEST SWAP1 POP DUP1 PUSH1 0x0 SLOAD PUSH2 0x110D SWAP2 SWAP1 PUSH2 0x1A04 JUMP JUMPDEST DUP2 PUSH1 0x1 SLOAD PUSH2 0x111B SWAP2 SWAP1 PUSH2 0x1962 JUMP JUMPDEST PUSH2 0x1125 SWAP2 SWAP1 PUSH2 0x19D3 JUMP JUMPDEST SWAP2 POP POP SWAP2 SWAP1 POP JUMP JUMPDEST PUSH1 0x0 PUSH1 0x3 PUSH1 0x0 DUP4 PUSH20 0xFFFFFFFFFFFFFFFFFFFFFFFFFFFFFFFFFFFFFFFF AND PUSH20 0xFFFFFFFFFFFFFFFFFFFFFFFFFFFFFFFFFFFFFFFF AND DUP2 MSTORE PUSH1 0x20 ADD SWAP1 DUP2 MSTORE PUSH1 0x20 ADD PUSH1 0x0 KECCAK256 SLOAD SWAP1 POP SWAP2 SWAP1 POP JUMP JUMPDEST PUSH32 0x0 DUP2 JUMP JUMPDEST PUSH1 0x0 DUP1 PUSH1 0x0 SLOAD GT DUP1 ISZERO PUSH2 0x11AF JUMPI POP PUSH1 0x0 PUSH1 0x1 SLOAD GT JUMPDEST PUSH2 0x11EE JUMPI PUSH1 0x40 MLOAD PUSH32 0x8C379A000000000000000000000000000000000000000000000000000000000 DUP2 MSTORE PUSH1 0x4 ADD PUSH2 0x11E5 SWAP1 PUSH2 0x1E47 JUMP JUMPDEST PUSH1 0x40 MLOAD DUP1 SWAP2 SUB SWAP1 REVERT JUMPDEST PUSH1 0x1 SLOAD PUSH8 0xDE0B6B3A7640000 PUSH1 0x0 SLOAD PUSH2 0x1207 SWAP2 SWAP1 PUSH2 0x1962 JUMP JUMPDEST PUSH2 0x1211 SWAP2 SWAP1 PUSH2 0x19D3 JUMP JUMPDEST SWAP1 POP SWAP1 JUMP JUMPDEST PUSH1 0x0 PUSH1 0x3 DUP3 GT ISZERO PUSH2 0x127D JUMPI DUP2 SWAP1 POP PUSH1 0x0 PUSH1 0x1 PUSH1 0x2 DUP5 PUSH2 0x1235 SWAP2 SWAP1 PUSH2 0x19D3 JUMP JUMPDEST PUSH2 0x123F SWAP2 SWAP1 PUSH2 0x1A04 JUMP JUMPDEST SWAP1 POP JUMPDEST DUP2 DUP2 LT ISZERO PUSH2 0x1277 JUMPI DUP1 SWAP2 POP PUSH1 0x2 DUP2 DUP3 DUP6 PUSH2 0x125C SWAP2 SWAP1 PUSH2 0x19D3 JUMP JUMPDEST PUSH2 0x1266 SWAP2 SWAP1 PUSH2 0x1A04 JUMP JUMPDEST PUSH2 0x1270 SWAP2 SWAP1 PUSH2 0x19D3 JUMP JUMPDEST SWAP1 POP PUSH2 0x1242 JUMP JUMPDEST POP PUSH2 0x128B JUMP JUMPDEST PUSH1 0x0 DUP3 EQ PUSH2 0x128A JUMPI PUSH1 0x1 SWAP1 POP JUMPDEST JUMPDEST SWAP2 SWAP1 POP JUMP JUMPDEST PUSH1 0x0 DUP2 DUP4 LT PUSH2 0x129F JUMPI DUP2 PUSH2 0x12A1 JUMP JUMPDEST DUP3 JUMPDEST SWAP1 POP SWAP3 SWAP2 POP POP JUMP JUMPDEST DUP1 PUSH1 0x3 PUSH1 0x0 DUP5 PUSH20 0xFFFFFFFFFFFFFFFFFFFFFFFFFFFFFFFFFFFFFFFF AND PUSH20 0xFFFFFFFFFFFFFFFFFFFFFFFFFFFFFFFFFFFFFFFF AND DUP2 MSTORE PUSH1 0x20 ADD SWAP1 DUP2 MSTORE PUSH1 0x20 ADD PUSH1 0x0 KECCAK256 PUSH1 0x0 DUP3 DUP3 SLOAD PUSH2 0x12F8 SWAP2 SWAP1 PUSH2 0x1A04 JUMP JUMPDEST SWAP3 POP POP DUP2 SWAP1 SSTORE POP DUP1 PUSH1 0x2 PUSH1 0x0 DUP3 DUP3 SLOAD PUSH2 0x1311 SWAP2 SWAP1 PUSH2 0x1A04 JUMP JUMPDEST SWAP3 POP POP DUP2 SWAP1 SSTORE POP POP POP JUMP JUMPDEST DUP2 PUSH1 0x0 DUP2 SWAP1 SSTORE POP DUP1 PUSH1 0x1 DUP2 SWAP1 SSTORE POP POP POP JUMP JUMPDEST PUSH1 0x0 DUP2 DUP4 GT ISZERO PUSH2 0x133E JUMPI DUP2 PUSH2 0x1340 JUMP JUMPDEST DUP3 JUMPDEST SWAP1 POP SWAP3 SWAP2 POP POP JUMP JUMPDEST PUSH1 0x0 DUP1 PUSH1 0x2 SLOAD SELFBALANCE DUP5 PUSH2 0x135A SWAP2 SWAP1 PUSH2 0x1962 JUMP JUMPDEST PUSH2 0x1364 SWAP2 SWAP1 PUSH2 0x19D3 JUMP JUMPDEST SWAP2 POP PUSH1 0x2 SLOAD PUSH32 0x0 PUSH20 0xFFFFFFFFFFFFFFFFFFFFFFFFFFFFFFFFFFFFFFFF AND PUSH4 0x70A08231 ADDRESS PUSH1 0x40 MLOAD DUP3 PUSH4 0xFFFFFFFF AND PUSH1 0xE0 SHL DUP2 MSTORE PUSH1 0x4 ADD PUSH2 0x13C2 SWAP2 SWAP1 PUSH2 0x1821 JUMP JUMPDEST PUSH1 0x20 PUSH1 0x40 MLOAD DUP1 DUP4 SUB DUP2 DUP7 GAS STATICCALL ISZERO DUP1 ISZERO PUSH2 0x13DF JUMPI RETURNDATASIZE PUSH1 0x0 DUP1 RETURNDATACOPY RETURNDATASIZE PUSH1 0x0 REVERT JUMPDEST POP POP POP POP PUSH1 0x40 MLOAD RETURNDATASIZE PUSH1 0x1F NOT PUSH1 0x1F DUP3 ADD AND DUP3 ADD DUP1 PUSH1 0x40 MSTORE POP DUP2 ADD SWAP1 PUSH2 0x1403 SWAP2 SWAP1 PUSH2 0x1B89 JUMP JUMPDEST DUP5 PUSH2 0x140E SWAP2 SWAP1 PUSH2 0x1962 JUMP JUMPDEST PUSH2 0x1418 SWAP2 SWAP1 PUSH2 0x19D3 JUMP JUMPDEST SWAP1 POP PUSH1 0x0 DUP3 GT DUP1 ISZERO PUSH2 0x142A JUMPI POP PUSH1 0x0 DUP2 GT JUMPDEST PUSH2 0x1469 JUMPI PUSH1 0x40 MLOAD PUSH32 0x8C379A000000000000000000000000000000000000000000000000000000000 DUP2 MSTORE PUSH1 0x4 ADD PUSH2 0x1460 SWAP1 PUSH2 0x1EB3 JUMP JUMPDEST PUSH1 0x40 MLOAD DUP1 SWAP2 SUB SWAP1 REVERT JUMPDEST PUSH2 0x1473 DUP5 DUP5 PUSH2 0x1619 JUMP JUMPDEST PUSH2 0x152C DUP3 SELFBALANCE PUSH2 0x1482 SWAP2 SWAP1 PUSH2 0x1AD4 JUMP JUMPDEST DUP3 PUSH32 0x0 PUSH20 0xFFFFFFFFFFFFFFFFFFFFFFFFFFFFFFFFFFFFFFFF AND PUSH4 0x70A08231 ADDRESS PUSH1 0x40 MLOAD DUP3 PUSH4 0xFFFFFFFF AND PUSH1 0xE0 SHL DUP2 MSTORE PUSH1 0x4 ADD PUSH2 0x14DC SWAP2 SWAP1 PUSH2 0x1821 JUMP JUMPDEST PUSH1 0x20 PUSH1 0x40 MLOAD DUP1 DUP4 SUB DUP2 DUP7 GAS STATICCALL ISZERO DUP1 ISZERO PUSH2 0x14F9 JUMPI RETURNDATASIZE PUSH1 0x0 DUP1 RETURNDATACOPY RETURNDATASIZE PUSH1 0x0 REVERT JUMPDEST POP POP POP POP PUSH1 0x40 MLOAD RETURNDATASIZE PUSH1 0x1F NOT PUSH1 0x1F DUP3 ADD AND DUP3 ADD DUP1 PUSH1 0x40 MSTORE POP DUP2 ADD SWAP1 PUSH2 0x151D SWAP2 SWAP1 PUSH2 0x1B89 JUMP JUMPDEST PUSH2 0x1527 SWAP2 SWAP1 PUSH2 0x1AD4 JUMP JUMPDEST PUSH2 0x131C JUMP JUMPDEST DUP4 PUSH20 0xFFFFFFFFFFFFFFFFFFFFFFFFFFFFFFFFFFFFFFFF AND PUSH2 0x8FC DUP4 SWAP1 DUP2 ISZERO MUL SWAP1 PUSH1 0x40 MLOAD PUSH1 0x0 PUSH1 0x40 MLOAD DUP1 DUP4 SUB DUP2 DUP6 DUP9 DUP9 CALL SWAP4 POP POP POP POP ISZERO DUP1 ISZERO PUSH2 0x1572 JUMPI RETURNDATASIZE PUSH1 0x0 DUP1 RETURNDATACOPY RETURNDATASIZE PUSH1 0x0 REVERT JUMPDEST POP PUSH32 0x0 PUSH20 0xFFFFFFFFFFFFFFFFFFFFFFFFFFFFFFFFFFFFFFFF AND PUSH4 0xA9059CBB DUP6 DUP4 PUSH1 0x40 MLOAD DUP4 PUSH4 0xFFFFFFFF AND PUSH1 0xE0 SHL DUP2 MSTORE PUSH1 0x4 ADD PUSH2 0x15CE SWAP3 SWAP2 SWAP1 PUSH2 0x1D66 JUMP JUMPDEST PUSH1 0x20 PUSH1 0x40 MLOAD DUP1 DUP4 SUB DUP2 PUSH1 0x0 DUP8 GAS CALL ISZERO DUP1 ISZERO PUSH2 0x15ED JUMPI RETURNDATASIZE PUSH1 0x0 DUP1 RETURNDATACOPY RETURNDATASIZE PUSH1 0x0 REVERT JUMPDEST POP POP POP POP PUSH1 0x40 MLOAD RETURNDATASIZE PUSH1 0x1F NOT PUSH1 0x1F DUP3 ADD AND DUP3 ADD DUP1 PUSH1 0x40 MSTORE POP DUP2 ADD SWAP1 PUSH2 0x1611 SWAP2 SWAP1 PUSH2 0x1AA7 JUMP JUMPDEST POP SWAP3 POP SWAP3 SWAP1 POP JUMP JUMPDEST DUP1 PUSH1 0x3 PUSH1 0x0 DUP5 PUSH20 0xFFFFFFFFFFFFFFFFFFFFFFFFFFFFFFFFFFFFFFFF AND PUSH20 0xFFFFFFFFFFFFFFFFFFFFFFFFFFFFFFFFFFFFFFFF AND DUP2 MSTORE PUSH1 0x20 ADD SWAP1 DUP2 MSTORE PUSH1 0x20 ADD PUSH1 0x0 KECCAK256 PUSH1 0x0 DUP3 DUP3 SLOAD PUSH2 0x1668 SWAP2 SWAP1 PUSH2 0x1AD4 JUMP JUMPDEST SWAP3 POP POP DUP2 SWAP1 SSTORE POP DUP1 PUSH1 0x2 PUSH1 0x0 DUP3 DUP3 SLOAD PUSH2 0x1681 SWAP2 SWAP1 PUSH2 0x1AD4 JUMP JUMPDEST SWAP3 POP POP DUP2 SWAP1 SSTORE POP POP POP JUMP JUMPDEST PUSH1 0x0 DUP2 SWAP1 POP SWAP2 SWAP1 POP JUMP JUMPDEST PUSH2 0x169F DUP2 PUSH2 0x168C JUMP JUMPDEST DUP3 MSTORE POP POP JUMP JUMPDEST PUSH1 0x0 PUSH1 0x20 DUP3 ADD SWAP1 POP PUSH2 0x16BA PUSH1 0x0 DUP4 ADD DUP5 PUSH2 0x1696 JUMP JUMPDEST SWAP3 SWAP2 POP POP JUMP JUMPDEST PUSH1 0x0 DUP1 REVERT JUMPDEST PUSH2 0x16CE DUP2 PUSH2 0x168C JUMP JUMPDEST DUP2 EQ PUSH2 0x16D9 JUMPI PUSH1 0x0 DUP1 REVERT JUMPDEST POP JUMP JUMPDEST PUSH1 0x0 DUP2 CALLDATALOAD SWAP1 POP PUSH2 0x16EB DUP2 PUSH2 0x16C5 JUMP JUMPDEST SWAP3 SWAP2 POP POP JUMP JUMPDEST PUSH1 0x0 PUSH1 0x20 DUP3 DUP5 SUB SLT ISZERO PUSH2 0x1707 JUMPI PUSH2 0x1706 PUSH2 0x16C0 JUMP JUMPDEST JUMPDEST PUSH1 0x0 PUSH2 0x1715 DUP5 DUP3 DUP6 ADD PUSH2 0x16DC JUMP JUMPDEST SWAP2 POP POP SWAP3 SWAP2 POP POP JUMP JUMPDEST PUSH1 0x0 PUSH20 0xFFFFFFFFFFFFFFFFFFFFFFFFFFFFFFFFFFFFFFFF DUP3 AND SWAP1 POP SWAP2 SWAP1 POP JUMP JUMPDEST PUSH1 0x0 PUSH2 0x1749 DUP3 PUSH2 0x171E JUMP JUMPDEST SWAP1 POP SWAP2 SWAP1 POP JUMP JUMPDEST PUSH2 0x1759 DUP2 PUSH2 0x173E JUMP JUMPDEST DUP2 EQ PUSH2 0x1764 JUMPI PUSH1 0x0 DUP1 REVERT JUMPDEST POP JUMP JUMPDEST PUSH1 0x0 DUP2 CALLDATALOAD SWAP1 POP PUSH2 0x1776 DUP2 PUSH2 0x1750 JUMP JUMPDEST SWAP3 SWAP2 POP POP JUMP JUMPDEST PUSH1 0x0 PUSH1 0x20 DUP3 DUP5 SUB SLT ISZERO PUSH2 0x1792 JUMPI PUSH2 0x1791 PUSH2 0x16C0 JUMP JUMPDEST JUMPDEST PUSH1 0x0 PUSH2 0x17A0 DUP5 DUP3 DUP6 ADD PUSH2 0x1767 JUMP JUMPDEST SWAP2 POP POP SWAP3 SWAP2 POP POP JUMP JUMPDEST PUSH1 0x0 PUSH1 0x40 DUP3 ADD SWAP1 POP PUSH2 0x17BE PUSH1 0x0 DUP4 ADD DUP6 PUSH2 0x1696 JUMP JUMPDEST PUSH2 0x17CB PUSH1 0x20 DUP4 ADD DUP5 PUSH2 0x1696 JUMP JUMPDEST SWAP4 SWAP3 POP POP POP JUMP JUMPDEST PUSH1 0x0 DUP1 PUSH1 0x40 DUP4 DUP6 SUB SLT ISZERO PUSH2 0x17E9 JUMPI PUSH2 0x17E8 PUSH2 0x16C0 JUMP JUMPDEST JUMPDEST PUSH1 0x0 PUSH2 0x17F7 DUP6 DUP3 DUP7 ADD PUSH2 0x1767 JUMP JUMPDEST SWAP3 POP POP PUSH1 0x20 PUSH2 0x1808 DUP6 DUP3 DUP7 ADD PUSH2 0x16DC JUMP JUMPDEST SWAP2 POP POP SWAP3 POP SWAP3 SWAP1 POP JUMP JUMPDEST PUSH2 0x181B DUP2 PUSH2 0x173E JUMP JUMPDEST DUP3 MSTORE POP POP JUMP JUMPDEST PUSH1 0x0 PUSH1 0x20 DUP3 ADD SWAP1 POP PUSH2 0x1836 PUSH1 0x0 DUP4 ADD DUP5 PUSH2 0x1812 JUMP JUMPDEST SWAP3 SWAP2 POP POP JUMP JUMPDEST PUSH1 0x0 DUP2 SWAP1 POP SWAP2 SWAP1 POP JUMP JUMPDEST PUSH1 0x0 PUSH2 0x1861 PUSH2 0x185C PUSH2 0x1857 DUP5 PUSH2 0x171E JUMP JUMPDEST PUSH2 0x183C JUMP JUMPDEST PUSH2 0x171E JUMP JUMPDEST SWAP1 POP SWAP2 SWAP1 POP JUMP JUMPDEST PUSH1 0x0 PUSH2 0x1873 DUP3 PUSH2 0x1846 JUMP JUMPDEST SWAP1 POP SWAP2 SWAP1 POP JUMP JUMPDEST PUSH1 0x0 PUSH2 0x1885 DUP3 PUSH2 0x1868 JUMP JUMPDEST SWAP1 POP SWAP2 SWAP1 POP JUMP JUMPDEST PUSH2 0x1895 DUP2 PUSH2 0x187A JUMP JUMPDEST DUP3 MSTORE POP POP JUMP JUMPDEST PUSH1 0x0 PUSH1 0x20 DUP3 ADD SWAP1 POP PUSH2 0x18B0 PUSH1 0x0 DUP4 ADD DUP5 PUSH2 0x188C JUMP JUMPDEST SWAP3 SWAP2 POP POP JUMP JUMPDEST PUSH1 0x0 DUP3 DUP3 MSTORE PUSH1 0x20 DUP3 ADD SWAP1 POP SWAP3 SWAP2 POP POP JUMP JUMPDEST PUSH32 0x496E76616C696420455448207265736572766573000000000000000000000000 PUSH1 0x0 DUP3 ADD MSTORE POP JUMP JUMPDEST PUSH1 0x0 PUSH2 0x18FD PUSH1 0x14 DUP4 PUSH2 0x18B6 JUMP JUMPDEST SWAP2 POP PUSH2 0x1908 DUP3 PUSH2 0x18C7 JUMP JUMPDEST PUSH1 0x20 DUP3 ADD SWAP1 POP SWAP2 SWAP1 POP JUMP JUMPDEST PUSH1 0x0 PUSH1 0x20 DUP3 ADD SWAP1 POP DUP2 DUP2 SUB PUSH1 0x0 DUP4 ADD MSTORE PUSH2 0x192C DUP2 PUSH2 0x18F0 JUMP JUMPDEST SWAP1 POP SWAP2 SWAP1 POP JUMP JUMPDEST PUSH32 0x4E487B7100000000000000000000000000000000000000000000000000000000 PUSH1 0x0 MSTORE PUSH1 0x11 PUSH1 0x4 MSTORE PUSH1 0x24 PUSH1 0x0 REVERT JUMPDEST PUSH1 0x0 PUSH2 0x196D DUP3 PUSH2 0x168C JUMP JUMPDEST SWAP2 POP PUSH2 0x1978 DUP4 PUSH2 0x168C JUMP JUMPDEST SWAP3 POP DUP3 DUP3 MUL PUSH2 0x1986 DUP2 PUSH2 0x168C JUMP JUMPDEST SWAP2 POP DUP3 DUP3 DIV DUP5 EQ DUP4 ISZERO OR PUSH2 0x199D JUMPI PUSH2 0x199C PUSH2 0x1933 JUMP JUMPDEST JUMPDEST POP SWAP3 SWAP2 POP POP JUMP JUMPDEST PUSH32 0x4E487B7100000000000000000000000000000000000000000000000000000000 PUSH1 0x0 MSTORE PUSH1 0x12 PUSH1 0x4 MSTORE PUSH1 0x24 PUSH1 0x0 REVERT JUMPDEST PUSH1 0x0 PUSH2 0x19DE DUP3 PUSH2 0x168C JUMP JUMPDEST SWAP2 POP PUSH2 0x19E9 DUP4 PUSH2 0x168C JUMP JUMPDEST SWAP3 POP DUP3 PUSH2 0x19F9 JUMPI PUSH2 0x19F8 PUSH2 0x19A4 JUMP JUMPDEST JUMPDEST DUP3 DUP3 DIV SWAP1 POP SWAP3 SWAP2 POP POP JUMP JUMPDEST PUSH1 0x0 PUSH2 0x1A0F DUP3 PUSH2 0x168C JUMP JUMPDEST SWAP2 POP PUSH2 0x1A1A DUP4 PUSH2 0x168C JUMP JUMPDEST SWAP3 POP DUP3 DUP3 ADD SWAP1 POP DUP1 DUP3 GT ISZERO PUSH2 0x1A32 JUMPI PUSH2 0x1A31 PUSH2 0x1933 JUMP JUMPDEST JUMPDEST SWAP3 SWAP2 POP POP JUMP JUMPDEST PUSH1 0x0 PUSH1 0x60 DUP3 ADD SWAP1 POP PUSH2 0x1A4D PUSH1 0x0 DUP4 ADD DUP7 PUSH2 0x1812 JUMP JUMPDEST PUSH2 0x1A5A PUSH1 0x20 DUP4 ADD DUP6 PUSH2 0x1812 JUMP JUMPDEST PUSH2 0x1A67 PUSH1 0x40 DUP4 ADD DUP5 PUSH2 0x1696 JUMP JUMPDEST SWAP5 SWAP4 POP POP POP POP JUMP JUMPDEST PUSH1 0x0 DUP2 ISZERO ISZERO SWAP1 POP SWAP2 SWAP1 POP JUMP JUMPDEST PUSH2 0x1A84 DUP2 PUSH2 0x1A6F JUMP JUMPDEST DUP2 EQ PUSH2 0x1A8F JUMPI PUSH1 0x0 DUP1 REVERT JUMPDEST POP JUMP JUMPDEST PUSH1 0x0 DUP2 MLOAD SWAP1 POP PUSH2 0x1AA1 DUP2 PUSH2 0x1A7B JUMP JUMPDEST SWAP3 SWAP2 POP POP JUMP JUMPDEST PUSH1 0x0 PUSH1 0x20 DUP3 DUP5 SUB SLT ISZERO PUSH2 0x1ABD JUMPI PUSH2 0x1ABC PUSH2 0x16C0 JUMP JUMPDEST JUMPDEST PUSH1 0x0 PUSH2 0x1ACB DUP5 DUP3 DUP6 ADD PUSH2 0x1A92 JUMP JUMPDEST SWAP2 POP POP SWAP3 SWAP2 POP POP JUMP JUMPDEST PUSH1 0x0 PUSH2 0x1ADF DUP3 PUSH2 0x168C JUMP JUMPDEST SWAP2 POP PUSH2 0x1AEA DUP4 PUSH2 0x168C JUMP JUMPDEST SWAP3 POP DUP3 DUP3 SUB SWAP1 POP DUP2 DUP2 GT ISZERO PUSH2 0x1B02 JUMPI PUSH2 0x1B01 PUSH2 0x1933 JUMP JUMPDEST JUMPDEST SWAP3 SWAP2 POP POP JUMP JUMPDEST PUSH32 0x736861726573203D203000000000000000000000000000000000000000000000 PUSH1 0x0 DUP3 ADD MSTORE POP JUMP JUMPDEST PUSH1 0x0 PUSH2 0x1B3E PUSH1 0xA DUP4 PUSH2 0x18B6 JUMP JUMPDEST SWAP2 POP PUSH2 0x1B49 DUP3 PUSH2 0x1B08 JUMP JUMPDEST PUSH1 0x20 DUP3 ADD SWAP1 POP SWAP2 SWAP1 POP JUMP JUMPDEST PUSH1 0x0 PUSH1 0x20 DUP3 ADD SWAP1 POP DUP2 DUP2 SUB PUSH1 0x0 DUP4 ADD MSTORE PUSH2 0x1B6D DUP2 PUSH2 0x1B31 JUMP JUMPDEST SWAP1 POP SWAP2 SWAP1 POP JUMP JUMPDEST PUSH1 0x0 DUP2 MLOAD SWAP1 POP PUSH2 0x1B83 DUP2 PUSH2 0x16C5 JUMP JUMPDEST SWAP3 SWAP2 POP POP JUMP JUMPDEST PUSH1 0x0 PUSH1 0x20 DUP3 DUP5 SUB SLT ISZERO PUSH2 0x1B9F JUMPI PUSH2 0x1B9E PUSH2 0x16C0 JUMP JUMPDEST JUMPDEST PUSH1 0x0 PUSH2 0x1BAD DUP5 DUP3 DUP6 ADD PUSH2 0x1B74 JUMP JUMPDEST SWAP2 POP POP SWAP3 SWAP2 POP POP JUMP JUMPDEST PUSH32 0x496E76616C696420696E70757420616D6F756E74000000000000000000000000 PUSH1 0x0 DUP3 ADD MSTORE POP JUMP JUMPDEST PUSH1 0x0 PUSH2 0x1BEC PUSH1 0x14 DUP4 PUSH2 0x18B6 JUMP JUMPDEST SWAP2 POP PUSH2 0x1BF7 DUP3 PUSH2 0x1BB6 JUMP JUMPDEST PUSH1 0x20 DUP3 ADD SWAP1 POP SWAP2 SWAP1 POP JUMP JUMPDEST PUSH1 0x0 PUSH1 0x20 DUP3 ADD SWAP1 POP DUP2 DUP2 SUB PUSH1 0x0 DUP4 ADD MSTORE PUSH2 0x1C1B DUP2 PUSH2 0x1BDF JUMP JUMPDEST SWAP1 POP SWAP2 SWAP1 POP JUMP JUMPDEST PUSH32 0x496E76616C6964206F757470757420616D6F756E740000000000000000000000 PUSH1 0x0 DUP3 ADD MSTORE POP JUMP JUMPDEST PUSH1 0x0 PUSH2 0x1C58 PUSH1 0x15 DUP4 PUSH2 0x18B6 JUMP JUMPDEST SWAP2 POP PUSH2 0x1C63 DUP3 PUSH2 0x1C22 JUMP JUMPDEST PUSH1 0x20 DUP3 ADD SWAP1 POP SWAP2 SWAP1 POP JUMP JUMPDEST PUSH1 0x0 PUSH1 0x20 DUP3 ADD SWAP1 POP DUP2 DUP2 SUB PUSH1 0x0 DUP4 ADD MSTORE PUSH2 0x1C87 DUP2 PUSH2 0x1C4B JUMP JUMPDEST SWAP1 POP SWAP2 SWAP1 POP JUMP JUMPDEST PUSH32 0x496E73756666696369656E74206F757470757420616D6F756E74000000000000 PUSH1 0x0 DUP3 ADD MSTORE POP JUMP JUMPDEST PUSH1 0x0 PUSH2 0x1CC4 PUSH1 0x1A DUP4 PUSH2 0x18B6 JUMP JUMPDEST SWAP2 POP PUSH2 0x1CCF DUP3 PUSH2 0x1C8E JUMP JUMPDEST PUSH1 0x20 DUP3 ADD SWAP1 POP SWAP2 SWAP1 POP JUMP JUMPDEST PUSH1 0x0 PUSH1 0x20 DUP3 ADD SWAP1 POP DUP2 DUP2 SUB PUSH1 0x0 DUP4 ADD MSTORE PUSH2 0x1CF3 DUP2 PUSH2 0x1CB7 JUMP JUMPDEST SWAP1 POP SWAP2 SWAP1 POP JUMP JUMPDEST PUSH32 0x45544820616D6F756E74206D69736D6174636800000000000000000000000000 PUSH1 0x0 DUP3 ADD MSTORE POP JUMP JUMPDEST PUSH1 0x0 PUSH2 0x1D30 PUSH1 0x13 DUP4 PUSH2 0x18B6 JUMP JUMPDEST SWAP2 POP PUSH2 0x1D3B DUP3 PUSH2 0x1CFA JUMP JUMPDEST PUSH1 0x20 DUP3 ADD SWAP1 POP SWAP2 SWAP1 POP JUMP JUMPDEST PUSH1 0x0 PUSH1 0x20 DUP3 ADD SWAP1 POP DUP2 DUP2 SUB PUSH1 0x0 DUP4 ADD MSTORE PUSH2 0x1D5F DUP2 PUSH2 0x1D23 JUMP JUMPDEST SWAP1 POP SWAP2 SWAP1 POP JUMP JUMPDEST PUSH1 0x0 PUSH1 0x40 DUP3 ADD SWAP1 POP PUSH2 0x1D7B PUSH1 0x0 DUP4 ADD DUP6 PUSH2 0x1812 JUMP JUMPDEST PUSH2 0x1D88 PUSH1 0x20 DUP4 ADD DUP5 PUSH2 0x1696 JUMP JUMPDEST SWAP4 SWAP3 POP POP POP JUMP JUMPDEST PUSH32 0x496E73756666696369656E742062616C616E6365000000000000000000000000 PUSH1 0x0 DUP3 ADD MSTORE POP JUMP JUMPDEST PUSH1 0x0 PUSH2 0x1DC5 PUSH1 0x14 DUP4 PUSH2 0x18B6 JUMP JUMPDEST SWAP2 POP PUSH2 0x1DD0 DUP3 PUSH2 0x1D8F JUMP JUMPDEST PUSH1 0x20 DUP3 ADD SWAP1 POP SWAP2 SWAP1 POP JUMP JUMPDEST PUSH1 0x0 PUSH1 0x20 DUP3 ADD SWAP1 POP DUP2 DUP2 SUB PUSH1 0x0 DUP4 ADD MSTORE PUSH2 0x1DF4 DUP2 PUSH2 0x1DB8 JUMP JUMPDEST SWAP1 POP SWAP2 SWAP1 POP JUMP JUMPDEST PUSH32 0x496E76616C696420455243323020726573657276657300000000000000000000 PUSH1 0x0 DUP3 ADD MSTORE POP JUMP JUMPDEST PUSH1 0x0 PUSH2 0x1E31 PUSH1 0x16 DUP4 PUSH2 0x18B6 JUMP JUMPDEST SWAP2 POP PUSH2 0x1E3C DUP3 PUSH2 0x1DFB JUMP JUMPDEST PUSH1 0x20 DUP3 ADD SWAP1 POP SWAP2 SWAP1 POP JUMP JUMPDEST PUSH1 0x0 PUSH1 0x20 DUP3 ADD SWAP1 POP DUP2 DUP2 SUB PUSH1 0x0 DUP4 ADD MSTORE PUSH2 0x1E60 DUP2 PUSH2 0x1E24 JUMP JUMPDEST SWAP1 POP SWAP2 SWAP1 POP JUMP JUMPDEST PUSH32 0x616D6F756E7430206F7220616D6F756E7431203D203000000000000000000000 PUSH1 0x0 DUP3 ADD MSTORE POP JUMP JUMPDEST PUSH1 0x0 PUSH2 0x1E9D PUSH1 0x16 DUP4 PUSH2 0x18B6 JUMP JUMPDEST SWAP2 POP PUSH2 0x1EA8 DUP3 PUSH2 0x1E67 JUMP JUMPDEST PUSH1 0x20 DUP3 ADD SWAP1 POP SWAP2 SWAP1 POP JUMP JUMPDEST PUSH1 0x0 PUSH1 0x20 DUP3 ADD SWAP1 POP DUP2 DUP2 SUB PUSH1 0x0 DUP4 ADD MSTORE PUSH2 0x1ECC DUP2 PUSH2 0x1E90 JUMP JUMPDEST SWAP1 POP SWAP2 SWAP1 POP JUMP INVALID LOG2 PUSH5 0x6970667358 0x22 SLT KECCAK256 PUSH22 0x646F3C3B2FE52AFB8FF206BF49A6AAE2EE102422D97A 0xBD 0xB0 PUSH27 0xC79F477C3E1D64736F6C6343000812003300000000000000000000 "
				},
				"gasEstimates": {
					"creation": {
						"codeDepositCost": "1589000",
						"executionCost": "infinite",
						"totalCost": "infinite"
					},
					"external": {
						"ETH_ADDRESS()": "400",
						"addLiquidity(uint256)": "infinite",
						"balanceOf(address)": "2925",
						"calculateSlippage(uint256)": "infinite",
						"getERCPrice()": "infinite",
						"getETHPrice()": "infinite",
						"getPredictOutputERC(uint256)": "infinite",
						"getPredictOutputETH(uint256)": "infinite",
						"my_shars()": "2593",
						"removeAllLiquidity(address)": "infinite",
						"removeLiquidity(address,uint256)": "infinite",
						"removeLiquidity(uint256)": "infinite",
						"reserve0()": "2497",
						"reserve1()": "2474",
						"sharesOf(address)": "2907",
						"swap(uint256)": "infinite",
						"swapTokenForETH(uint256)": "infinite",
						"token()": "infinite",
						"totalSupply()": "2453"
					},
					"internal": {
						"_burn(address,uint256)": "infinite",
						"_min(uint256,uint256)": "67",
						"_mint(address,uint256)": "infinite",
						"_removeLiquidity(address,uint256)": "infinite",
						"_sqrt(uint256)": "infinite",
						"_update(uint256,uint256)": "44241"
					}
				},
				"methodIdentifiers": {
					"ETH_ADDRESS()": "a734f06e",
					"addLiquidity(uint256)": "51c6590a",
					"balanceOf(address)": "70a08231",
					"calculateSlippage(uint256)": "5628570c",
					"getERCPrice()": "fcc2ba08",
					"getETHPrice()": "a607a8d9",
					"getPredictOutputERC(uint256)": "e1e2153e",
					"getPredictOutputETH(uint256)": "3e592b04",
					"my_shars()": "6cae4f84",
					"removeAllLiquidity(address)": "7a6a5e1b",
					"removeLiquidity(address,uint256)": "a201ccf6",
					"removeLiquidity(uint256)": "9c8f9f23",
					"reserve0()": "443cb4bc",
					"reserve1()": "5a76f25e",
					"sharesOf(address)": "f5eb42dc",
					"swap(uint256)": "94b918de",
					"swapTokenForETH(uint256)": "6fb84b74",
					"token()": "fc0c546a",
					"totalSupply()": "18160ddd"
				}
			},
			"storageLayout": {
				"storage": [
					{
						"astId": 1591,
						"contract": "W6/simpleAMM/src/simpleAMMV5.sol:AMM",
						"label": "reserve0",
						"offset": 0,
						"slot": "0",
						"type": "t_uint256"
					},
					{
						"astId": 1593,
						"contract": "W6/simpleAMM/src/simpleAMMV5.sol:AMM",
						"label": "reserve1",
						"offset": 0,
						"slot": "1",
						"type": "t_uint256"
					},
					{
						"astId": 1595,
						"contract": "W6/simpleAMM/src/simpleAMMV5.sol:AMM",
						"label": "totalSupply",
						"offset": 0,
						"slot": "2",
						"type": "t_uint256"
					},
					{
						"astId": 1599,
						"contract": "W6/simpleAMM/src/simpleAMMV5.sol:AMM",
						"label": "balanceOf",
						"offset": 0,
						"slot": "3",
						"type": "t_mapping(t_address,t_uint256)"
					}
				],
				"types": {
					"t_address": {
						"encoding": "inplace",
						"label": "address",
						"numberOfBytes": "20"
					},
					"t_mapping(t_address,t_uint256)": {
						"encoding": "mapping",
						"key": "t_address",
						"label": "mapping(address => uint256)",
						"numberOfBytes": "32",
						"value": "t_uint256"
					},
					"t_uint256": {
						"encoding": "inplace",
						"label": "uint256",
						"numberOfBytes": "32"
					}
				}
			},
			"userdoc": {
				"kind": "user",
				"methods": {},
				"version": 1
			}
		}
	}
}