{
	"W6/simpleAMM/src/simpleAMMV6ERC.sol": {
		"AMM": {
			"abi": [
				{
					"inputs": [
						{
							"internalType": "address",
							"name": "_token0",
							"type": "address"
						},
						{
							"internalType": "address",
							"name": "_token1",
							"type": "address"
						}
					],
					"stateMutability": "nonpayable",
					"type": "constructor"
				},
				{
					"inputs": [
						{
							"internalType": "uint256",
							"name": "_amount0",
							"type": "uint256"
						},
						{
							"internalType": "uint256",
							"name": "_amount1",
							"type": "uint256"
						}
					],
					"name": "addLiquidity",
					"outputs": [
						{
							"internalType": "uint256",
							"name": "shares",
							"type": "uint256"
						}
					],
					"stateMutability": "nonpayable",
					"type": "function"
				},
				{
					"inputs": [
						{
							"internalType": "address",
							"name": "",
							"type": "address"
						}
					],
					"name": "balanceOf",
					"outputs": [
						{
							"internalType": "uint256",
							"name": "",
							"type": "uint256"
						}
					],
					"stateMutability": "view",
					"type": "function"
				},
				{
					"inputs": [
						{
							"internalType": "uint256",
							"name": "_amount",
							"type": "uint256"
						}
					],
					"name": "getInToken0PredictOutputToken1",
					"outputs": [
						{
							"internalType": "uint256",
							"name": "",
							"type": "uint256"
						}
					],
					"stateMutability": "view",
					"type": "function"
				},
				{
					"inputs": [
						{
							"internalType": "uint256",
							"name": "_amount",
							"type": "uint256"
						}
					],
					"name": "getInToken1PredictOutputToken0",
					"outputs": [
						{
							"internalType": "uint256",
							"name": "",
							"type": "uint256"
						}
					],
					"stateMutability": "view",
					"type": "function"
				},
				{
					"inputs": [],
					"name": "getToken0Price",
					"outputs": [
						{
							"internalType": "uint256",
							"name": "",
							"type": "uint256"
						}
					],
					"stateMutability": "view",
					"type": "function"
				},
				{
					"inputs": [],
					"name": "getToken1Price",
					"outputs": [
						{
							"internalType": "uint256",
							"name": "",
							"type": "uint256"
						}
					],
					"stateMutability": "view",
					"type": "function"
				},
				{
					"inputs": [],
					"name": "myShares",
					"outputs": [
						{
							"internalType": "uint256",
							"name": "",
							"type": "uint256"
						}
					],
					"stateMutability": "view",
					"type": "function"
				},
				{
					"inputs": [
						{
							"internalType": "address",
							"name": "_user",
							"type": "address"
						}
					],
					"name": "removeAllLiquidity",
					"outputs": [
						{
							"internalType": "uint256",
							"name": "amount0",
							"type": "uint256"
						},
						{
							"internalType": "uint256",
							"name": "amount1",
							"type": "uint256"
						}
					],
					"stateMutability": "nonpayable",
					"type": "function"
				},
				{
					"inputs": [
						{
							"internalType": "uint256",
							"name": "_shares",
							"type": "uint256"
						}
					],
					"name": "removeLiquidity",
					"outputs": [
						{
							"internalType": "uint256",
							"name": "amount0",
							"type": "uint256"
						},
						{
							"internalType": "uint256",
							"name": "amount1",
							"type": "uint256"
						}
					],
					"stateMutability": "nonpayable",
					"type": "function"
				},
				{
					"inputs": [
						{
							"internalType": "address",
							"name": "_user",
							"type": "address"
						},
						{
							"internalType": "uint256",
							"name": "_shares",
							"type": "uint256"
						}
					],
					"name": "removeLiquidity",
					"outputs": [
						{
							"internalType": "uint256",
							"name": "amount0",
							"type": "uint256"
						},
						{
							"internalType": "uint256",
							"name": "amount1",
							"type": "uint256"
						}
					],
					"stateMutability": "nonpayable",
					"type": "function"
				},
				{
					"inputs": [],
					"name": "reserve0",
					"outputs": [
						{
							"internalType": "uint256",
							"name": "",
							"type": "uint256"
						}
					],
					"stateMutability": "view",
					"type": "function"
				},
				{
					"inputs": [],
					"name": "reserve1",
					"outputs": [
						{
							"internalType": "uint256",
							"name": "",
							"type": "uint256"
						}
					],
					"stateMutability": "view",
					"type": "function"
				},
				{
					"inputs": [
						{
							"internalType": "address",
							"name": "_user",
							"type": "address"
						}
					],
					"name": "sharesOf",
					"outputs": [
						{
							"internalType": "uint256",
							"name": "",
							"type": "uint256"
						}
					],
					"stateMutability": "view",
					"type": "function"
				},
				{
					"inputs": [
						{
							"internalType": "uint256",
							"name": "_amountIn",
							"type": "uint256"
						}
					],
					"name": "swapToken0ForToken1",
					"outputs": [
						{
							"internalType": "uint256",
							"name": "amountOut",
							"type": "uint256"
						}
					],
					"stateMutability": "nonpayable",
					"type": "function"
				},
				{
					"inputs": [
						{
							"internalType": "uint256",
							"name": "_amountIn",
							"type": "uint256"
						},
						{
							"internalType": "uint256",
							"name": "_forwardOutput",
							"type": "uint256"
						},
						{
							"internalType": "uint256",
							"name": "_slipLock",
							"type": "uint256"
						}
					],
					"name": "swapToken0ForToken1_WithSlipLock",
					"outputs": [
						{
							"internalType": "uint256",
							"name": "amountOut",
							"type": "uint256"
						}
					],
					"stateMutability": "nonpayable",
					"type": "function"
				},
				{
					"inputs": [
						{
							"internalType": "uint256",
							"name": "_amountIn",
							"type": "uint256"
						}
					],
					"name": "swapToken1ForToken0",
					"outputs": [
						{
							"internalType": "uint256",
							"name": "amountOut",
							"type": "uint256"
						}
					],
					"stateMutability": "nonpayable",
					"type": "function"
				},
				{
					"inputs": [
						{
							"internalType": "uint256",
							"name": "_amountIn",
							"type": "uint256"
						},
						{
							"internalType": "uint256",
							"name": "_forwardOutput",
							"type": "uint256"
						},
						{
							"internalType": "uint256",
							"name": "_slipLock",
							"type": "uint256"
						}
					],
					"name": "swapToken1ForToken0_WithSlipLock",
					"outputs": [
						{
							"internalType": "uint256",
							"name": "amountOut",
							"type": "uint256"
						}
					],
					"stateMutability": "nonpayable",
					"type": "function"
				},
				{
					"inputs": [],
					"name": "token0",
					"outputs": [
						{
							"internalType": "contract IERC20",
							"name": "",
							"type": "address"
						}
					],
					"stateMutability": "view",
					"type": "function"
				},
				{
					"inputs": [],
					"name": "token1",
					"outputs": [
						{
							"internalType": "contract IERC20",
							"name": "",
							"type": "address"
						}
					],
					"stateMutability": "view",
					"type": "function"
				},
				{
					"inputs": [],
					"name": "totalSupply",
					"outputs": [
						{
							"internalType": "uint256",
							"name": "",
							"type": "uint256"
						}
					],
					"stateMutability": "view",
					"type": "function"
				}
			],
			"devdoc": {
				"kind": "dev",
				"methods": {},
				"version": 1
			},
			"evm": {
				"assembly": "    /* \"W6/simpleAMM/src/simpleAMMV6ERC.sol\":437:7982  contract AMM {... */\n  mstore(0x40, 0xc0)\n    /* \"W6/simpleAMM/src/simpleAMMV6ERC.sol\":707:864  constructor(address _token0, address _token1) {... */\n  callvalue\n  dup1\n  iszero\n  tag_1\n  jumpi\n  0x00\n  dup1\n  revert\ntag_1:\n  pop\n  mload(0x40)\n  sub(codesize, bytecodeSize)\n  dup1\n  bytecodeSize\n  dup4\n  codecopy\n  dup2\n  dup2\n  add\n  0x40\n  mstore\n  dup2\n  add\n  swap1\n  tag_2\n  swap2\n  swap1\n  tag_3\n  jump\t// in\ntag_2:\n    /* \"W6/simpleAMM/src/simpleAMMV6ERC.sol\":776:786  msg.sender */\n  caller\n    /* \"W6/simpleAMM/src/simpleAMMV6ERC.sol\":764:773  developer */\n  0x00\n  dup1\n    /* \"W6/simpleAMM/src/simpleAMMV6ERC.sol\":764:786  developer = msg.sender */\n  0x0100\n  exp\n  dup2\n  sload\n  dup2\n  0xffffffffffffffffffffffffffffffffffffffff\n  mul\n  not\n  and\n  swap1\n  dup4\n  0xffffffffffffffffffffffffffffffffffffffff\n  and\n  mul\n  or\n  swap1\n  sstore\n  pop\n    /* \"W6/simpleAMM/src/simpleAMMV6ERC.sol\":813:820  _token0 */\n  dup2\n    /* \"W6/simpleAMM/src/simpleAMMV6ERC.sol\":797:821  token0 = IERC20(_token0) */\n  0xffffffffffffffffffffffffffffffffffffffff\n  and\n  0x80\n  dup2\n  0xffffffffffffffffffffffffffffffffffffffff\n  and\n  dup2\n  mstore\n  pop\n  pop\n    /* \"W6/simpleAMM/src/simpleAMMV6ERC.sol\":848:855  _token1 */\n  dup1\n    /* \"W6/simpleAMM/src/simpleAMMV6ERC.sol\":832:856  token1 = IERC20(_token1) */\n  0xffffffffffffffffffffffffffffffffffffffff\n  and\n  0xa0\n  dup2\n  0xffffffffffffffffffffffffffffffffffffffff\n  and\n  dup2\n  mstore\n  pop\n  pop\n    /* \"W6/simpleAMM/src/simpleAMMV6ERC.sol\":707:864  constructor(address _token0, address _token1) {... */\n  pop\n  pop\n    /* \"W6/simpleAMM/src/simpleAMMV6ERC.sol\":437:7982  contract AMM {... */\n  jump(tag_6)\n    /* \"#utility.yul\":88:205   */\ntag_8:\n    /* \"#utility.yul\":197:198   */\n  0x00\n    /* \"#utility.yul\":194:195   */\n  dup1\n    /* \"#utility.yul\":187:199   */\n  revert\n    /* \"#utility.yul\":334:460   */\ntag_10:\n    /* \"#utility.yul\":371:378   */\n  0x00\n    /* \"#utility.yul\":411:453   */\n  0xffffffffffffffffffffffffffffffffffffffff\n    /* \"#utility.yul\":404:409   */\n  dup3\n    /* \"#utility.yul\":400:454   */\n  and\n    /* \"#utility.yul\":389:454   */\n  swap1\n  pop\n    /* \"#utility.yul\":334:460   */\n  swap2\n  swap1\n  pop\n  jump\t// out\n    /* \"#utility.yul\":466:562   */\ntag_11:\n    /* \"#utility.yul\":503:510   */\n  0x00\n    /* \"#utility.yul\":532:556   */\n  tag_20\n    /* \"#utility.yul\":550:555   */\n  dup3\n    /* \"#utility.yul\":532:556   */\n  tag_10\n  jump\t// in\ntag_20:\n    /* \"#utility.yul\":521:556   */\n  swap1\n  pop\n    /* \"#utility.yul\":466:562   */\n  swap2\n  swap1\n  pop\n  jump\t// out\n    /* \"#utility.yul\":568:690   */\ntag_12:\n    /* \"#utility.yul\":641:665   */\n  tag_22\n    /* \"#utility.yul\":659:664   */\n  dup2\n    /* \"#utility.yul\":641:665   */\n  tag_11\n  jump\t// in\ntag_22:\n    /* \"#utility.yul\":634:639   */\n  dup2\n    /* \"#utility.yul\":631:666   */\n  eq\n    /* \"#utility.yul\":621:684   */\n  tag_23\n  jumpi\n    /* \"#utility.yul\":680:681   */\n  0x00\n    /* \"#utility.yul\":677:678   */\n  dup1\n    /* \"#utility.yul\":670:682   */\n  revert\n    /* \"#utility.yul\":621:684   */\ntag_23:\n    /* \"#utility.yul\":568:690   */\n  pop\n  jump\t// out\n    /* \"#utility.yul\":696:839   */\ntag_13:\n    /* \"#utility.yul\":753:758   */\n  0x00\n    /* \"#utility.yul\":784:790   */\n  dup2\n    /* \"#utility.yul\":778:791   */\n  mload\n    /* \"#utility.yul\":769:791   */\n  swap1\n  pop\n    /* \"#utility.yul\":800:833   */\n  tag_25\n    /* \"#utility.yul\":827:832   */\n  dup2\n    /* \"#utility.yul\":800:833   */\n  tag_12\n  jump\t// in\ntag_25:\n    /* \"#utility.yul\":696:839   */\n  swap3\n  swap2\n  pop\n  pop\n  jump\t// out\n    /* \"#utility.yul\":845:1352   */\ntag_3:\n    /* \"#utility.yul\":924:930   */\n  0x00\n    /* \"#utility.yul\":932:938   */\n  dup1\n    /* \"#utility.yul\":981:983   */\n  0x40\n    /* \"#utility.yul\":969:978   */\n  dup4\n    /* \"#utility.yul\":960:967   */\n  dup6\n    /* \"#utility.yul\":956:979   */\n  sub\n    /* \"#utility.yul\":952:984   */\n  slt\n    /* \"#utility.yul\":949:1068   */\n  iszero\n  tag_27\n  jumpi\n    /* \"#utility.yul\":987:1066   */\n  tag_28\n  tag_8\n  jump\t// in\ntag_28:\n    /* \"#utility.yul\":949:1068   */\ntag_27:\n    /* \"#utility.yul\":1107:1108   */\n  0x00\n    /* \"#utility.yul\":1132:1196   */\n  tag_29\n    /* \"#utility.yul\":1188:1195   */\n  dup6\n    /* \"#utility.yul\":1179:1185   */\n  dup3\n    /* \"#utility.yul\":1168:1177   */\n  dup7\n    /* \"#utility.yul\":1164:1186   */\n  add\n    /* \"#utility.yul\":1132:1196   */\n  tag_13\n  jump\t// in\ntag_29:\n    /* \"#utility.yul\":1122:1196   */\n  swap3\n  pop\n    /* \"#utility.yul\":1078:1206   */\n  pop\n    /* \"#utility.yul\":1245:1247   */\n  0x20\n    /* \"#utility.yul\":1271:1335   */\n  tag_30\n    /* \"#utility.yul\":1327:1334   */\n  dup6\n    /* \"#utility.yul\":1318:1324   */\n  dup3\n    /* \"#utility.yul\":1307:1316   */\n  dup7\n    /* \"#utility.yul\":1303:1325   */\n  add\n    /* \"#utility.yul\":1271:1335   */\n  tag_13\n  jump\t// in\ntag_30:\n    /* \"#utility.yul\":1261:1335   */\n  swap2\n  pop\n    /* \"#utility.yul\":1216:1345   */\n  pop\n    /* \"#utility.yul\":845:1352   */\n  swap3\n  pop\n  swap3\n  swap1\n  pop\n  jump\t// out\n    /* \"W6/simpleAMM/src/simpleAMMV6ERC.sol\":437:7982  contract AMM {... */\ntag_6:\n  mload(0x80)\n  mload(0xa0)\n  codecopy(0x00, dataOffset(sub_0), dataSize(sub_0))\n  0x00\n  assignImmutable(\"0x4bab0814faad1725fc18a3cfa3a1fcb95c36a46cacb7a7312c3d38e6b447adac\")\n  0x00\n  assignImmutable(\"0xe9ec5ebbfe521ba5a70e4c2b13332e74dda4e055153dc29723307e62e8ed0f2a\")\n  return(0x00, dataSize(sub_0))\nstop\n\nsub_0: assembly {\n        /* \"W6/simpleAMM/src/simpleAMMV6ERC.sol\":437:7982  contract AMM {... */\n      mstore(0x40, 0x80)\n      callvalue\n      dup1\n      iszero\n      tag_1\n      jumpi\n      0x00\n      dup1\n      revert\n    tag_1:\n      pop\n      jumpi(tag_2, lt(calldatasize, 0x04))\n      shr(0xe0, calldataload(0x00))\n      dup1\n      0x7d77f10e\n      gt\n      tag_23\n      jumpi\n      dup1\n      0xa064385a\n      gt\n      tag_24\n      jumpi\n      dup1\n      0xa064385a\n      eq\n      tag_18\n      jumpi\n      dup1\n      0xa201ccf6\n      eq\n      tag_19\n      jumpi\n      dup1\n      0xc4451e3e\n      eq\n      tag_20\n      jumpi\n      dup1\n      0xd21220a7\n      eq\n      tag_21\n      jumpi\n      dup1\n      0xf5eb42dc\n      eq\n      tag_22\n      jumpi\n      jump(tag_2)\n    tag_24:\n      dup1\n      0x7d77f10e\n      eq\n      tag_13\n      jumpi\n      dup1\n      0x86f8df89\n      eq\n      tag_14\n      jumpi\n      dup1\n      0x9c8f9f23\n      eq\n      tag_15\n      jumpi\n      dup1\n      0x9cd441da\n      eq\n      tag_16\n      jumpi\n      dup1\n      0x9e7a4757\n      eq\n      tag_17\n      jumpi\n      jump(tag_2)\n    tag_23:\n      dup1\n      0x4d7ca8ae\n      gt\n      tag_25\n      jumpi\n      dup1\n      0x4d7ca8ae\n      eq\n      tag_8\n      jumpi\n      dup1\n      0x5a76f25e\n      eq\n      tag_9\n      jumpi\n      dup1\n      0x69931ebb\n      eq\n      tag_10\n      jumpi\n      dup1\n      0x70a08231\n      eq\n      tag_11\n      jumpi\n      dup1\n      0x7a6a5e1b\n      eq\n      tag_12\n      jumpi\n      jump(tag_2)\n    tag_25:\n      dup1\n      0x036ff281\n      eq\n      tag_3\n      jumpi\n      dup1\n      0x0dfe1681\n      eq\n      tag_4\n      jumpi\n      dup1\n      0x18160ddd\n      eq\n      tag_5\n      jumpi\n      dup1\n      0x296adcbb\n      eq\n      tag_6\n      jumpi\n      dup1\n      0x443cb4bc\n      eq\n      tag_7\n      jumpi\n    tag_2:\n      0x00\n      dup1\n      revert\n        /* \"W6/simpleAMM/src/simpleAMMV6ERC.sol\":2588:3427  function swapToken1ForToken0_WithSlipLock(... */\n    tag_3:\n      tag_26\n      0x04\n      dup1\n      calldatasize\n      sub\n      dup2\n      add\n      swap1\n      tag_27\n      swap2\n      swap1\n      tag_28\n      jump\t// in\n    tag_27:\n      tag_29\n      jump\t// in\n    tag_26:\n      mload(0x40)\n      tag_30\n      swap2\n      swap1\n      tag_31\n      jump\t// in\n    tag_30:\n      mload(0x40)\n      dup1\n      swap2\n      sub\n      swap1\n      return\n        /* \"W6/simpleAMM/src/simpleAMMV6ERC.sol\":483:513  IERC20 public immutable token0 */\n    tag_4:\n      tag_32\n      tag_33\n      jump\t// in\n    tag_32:\n      mload(0x40)\n      tag_34\n      swap2\n      swap1\n      tag_35\n      jump\t// in\n    tag_34:\n      mload(0x40)\n      dup1\n      swap2\n      sub\n      swap1\n      return\n        /* \"W6/simpleAMM/src/simpleAMMV6ERC.sol\":621:647  uint256 public totalSupply */\n    tag_5:\n      tag_36\n      tag_37\n      jump\t// in\n    tag_36:\n      mload(0x40)\n      tag_38\n      swap2\n      swap1\n      tag_31\n      jump\t// in\n    tag_38:\n      mload(0x40)\n      dup1\n      swap2\n      sub\n      swap1\n      return\n        /* \"W6/simpleAMM/src/simpleAMMV6ERC.sol\":7343:7657  function getInToken0PredictOutputToken1(uint256 _amount) public view returns (uint256) {... */\n    tag_6:\n      tag_39\n      0x04\n      dup1\n      calldatasize\n      sub\n      dup2\n      add\n      swap1\n      tag_40\n      swap2\n      swap1\n      tag_41\n      jump\t// in\n    tag_40:\n      tag_42\n      jump\t// in\n    tag_39:\n      mload(0x40)\n      tag_43\n      swap2\n      swap1\n      tag_31\n      jump\t// in\n    tag_43:\n      mload(0x40)\n      dup1\n      swap2\n      sub\n      swap1\n      return\n        /* \"W6/simpleAMM/src/simpleAMMV6ERC.sol\":559:582  uint256 public reserve0 */\n    tag_7:\n      tag_44\n      tag_45\n      jump\t// in\n    tag_44:\n      mload(0x40)\n      tag_46\n      swap2\n      swap1\n      tag_31\n      jump\t// in\n    tag_46:\n      mload(0x40)\n      dup1\n      swap2\n      sub\n      swap1\n      return\n        /* \"W6/simpleAMM/src/simpleAMMV6ERC.sol\":6819:7074  function getToken0Price() public view returns (uint256) {... */\n    tag_8:\n      tag_47\n      tag_48\n      jump\t// in\n    tag_47:\n      mload(0x40)\n      tag_49\n      swap2\n      swap1\n      tag_31\n      jump\t// in\n    tag_49:\n      mload(0x40)\n      dup1\n      swap2\n      sub\n      swap1\n      return\n        /* \"W6/simpleAMM/src/simpleAMMV6ERC.sol\":589:612  uint256 public reserve1 */\n    tag_9:\n      tag_50\n      tag_51\n      jump\t// in\n    tag_50:\n      mload(0x40)\n      tag_52\n      swap2\n      swap1\n      tag_31\n      jump\t// in\n    tag_52:\n      mload(0x40)\n      dup1\n      swap2\n      sub\n      swap1\n      return\n        /* \"W6/simpleAMM/src/simpleAMMV6ERC.sol\":7665:7979  function getInToken1PredictOutputToken0(uint256 _amount) public view returns (uint256) {... */\n    tag_10:\n      tag_53\n      0x04\n      dup1\n      calldatasize\n      sub\n      dup2\n      add\n      swap1\n      tag_54\n      swap2\n      swap1\n      tag_41\n      jump\t// in\n    tag_54:\n      tag_55\n      jump\t// in\n    tag_53:\n      mload(0x40)\n      tag_56\n      swap2\n      swap1\n      tag_31\n      jump\t// in\n    tag_56:\n      mload(0x40)\n      dup1\n      swap2\n      sub\n      swap1\n      return\n        /* \"W6/simpleAMM/src/simpleAMMV6ERC.sol\":654:698  mapping(address => uint256) public balanceOf */\n    tag_11:\n      tag_57\n      0x04\n      dup1\n      calldatasize\n      sub\n      dup2\n      add\n      swap1\n      tag_58\n      swap2\n      swap1\n      tag_59\n      jump\t// in\n    tag_58:\n      tag_60\n      jump\t// in\n    tag_57:\n      mload(0x40)\n      tag_61\n      swap2\n      swap1\n      tag_31\n      jump\t// in\n    tag_61:\n      mload(0x40)\n      dup1\n      swap2\n      sub\n      swap1\n      return\n        /* \"W6/simpleAMM/src/simpleAMMV6ERC.sol\":5117:5279  function removeAllLiquidity(address _user) external returns (uint256 amount0, uint256 amount1) {... */\n    tag_12:\n      tag_62\n      0x04\n      dup1\n      calldatasize\n      sub\n      dup2\n      add\n      swap1\n      tag_63\n      swap2\n      swap1\n      tag_59\n      jump\t// in\n    tag_63:\n      tag_64\n      jump\t// in\n    tag_62:\n      mload(0x40)\n      tag_65\n      swap3\n      swap2\n      swap1\n      tag_66\n      jump\t// in\n    tag_65:\n      mload(0x40)\n      dup1\n      swap2\n      sub\n      swap1\n      return\n        /* \"W6/simpleAMM/src/simpleAMMV6ERC.sol\":1909:2580  function swapToken0ForToken1(uint256 _amountIn) public returns (uint256 amountOut) { // T1/T0... */\n    tag_13:\n      tag_67\n      0x04\n      dup1\n      calldatasize\n      sub\n      dup2\n      add\n      swap1\n      tag_68\n      swap2\n      swap1\n      tag_41\n      jump\t// in\n    tag_68:\n      tag_69\n      jump\t// in\n    tag_67:\n      mload(0x40)\n      tag_70\n      swap2\n      swap1\n      tag_31\n      jump\t// in\n    tag_70:\n      mload(0x40)\n      dup1\n      swap2\n      sub\n      swap1\n      return\n        /* \"W6/simpleAMM/src/simpleAMMV6ERC.sol\":1293:1901  function swapToken1ForToken0(uint256 _amountIn) public returns (uint256 amountOut) { // T0/T1... */\n    tag_14:\n      tag_71\n      0x04\n      dup1\n      calldatasize\n      sub\n      dup2\n      add\n      swap1\n      tag_72\n      swap2\n      swap1\n      tag_41\n      jump\t// in\n    tag_72:\n      tag_73\n      jump\t// in\n    tag_71:\n      mload(0x40)\n      tag_74\n      swap2\n      swap1\n      tag_31\n      jump\t// in\n    tag_74:\n      mload(0x40)\n      dup1\n      swap2\n      sub\n      swap1\n      return\n        /* \"W6/simpleAMM/src/simpleAMMV6ERC.sol\":5287:5520  function removeLiquidity(uint256 _shares) external returns (uint256 amount0, uint256 amount1) {... */\n    tag_15:\n      tag_75\n      0x04\n      dup1\n      calldatasize\n      sub\n      dup2\n      add\n      swap1\n      tag_76\n      swap2\n      swap1\n      tag_41\n      jump\t// in\n    tag_76:\n      tag_77\n      jump\t// in\n    tag_75:\n      mload(0x40)\n      tag_78\n      swap3\n      swap2\n      swap1\n      tag_66\n      jump\t// in\n    tag_78:\n      mload(0x40)\n      dup1\n      swap2\n      sub\n      swap1\n      return\n        /* \"W6/simpleAMM/src/simpleAMMV6ERC.sol\":4284:5109  function addLiquidity(uint256 _amount0, uint256 _amount1) external returns (uint256 shares) {... */\n    tag_16:\n      tag_79\n      0x04\n      dup1\n      calldatasize\n      sub\n      dup2\n      add\n      swap1\n      tag_80\n      swap2\n      swap1\n      tag_81\n      jump\t// in\n    tag_80:\n      tag_82\n      jump\t// in\n    tag_79:\n      mload(0x40)\n      tag_83\n      swap2\n      swap1\n      tag_31\n      jump\t// in\n    tag_83:\n      mload(0x40)\n      dup1\n      swap2\n      sub\n      swap1\n      return\n        /* \"W6/simpleAMM/src/simpleAMMV6ERC.sol\":6284:6381  function myShares() public view returns (uint256) {... */\n    tag_17:\n      tag_84\n      tag_85\n      jump\t// in\n    tag_84:\n      mload(0x40)\n      tag_86\n      swap2\n      swap1\n      tag_31\n      jump\t// in\n    tag_86:\n      mload(0x40)\n      dup1\n      swap2\n      sub\n      swap1\n      return\n        /* \"W6/simpleAMM/src/simpleAMMV6ERC.sol\":3433:4276  function swapToken0ForToken1_WithSlipLock(... */\n    tag_18:\n      tag_87\n      0x04\n      dup1\n      calldatasize\n      sub\n      dup2\n      add\n      swap1\n      tag_88\n      swap2\n      swap1\n      tag_28\n      jump\t// in\n    tag_88:\n      tag_89\n      jump\t// in\n    tag_87:\n      mload(0x40)\n      tag_90\n      swap2\n      swap1\n      tag_31\n      jump\t// in\n    tag_90:\n      mload(0x40)\n      dup1\n      swap2\n      sub\n      swap1\n      return\n        /* \"W6/simpleAMM/src/simpleAMMV6ERC.sol\":5528:5766  function removeLiquidity(address _user, uint256 _shares) external returns (uint256 amount0, uint256 amount1) {... */\n    tag_19:\n      tag_91\n      0x04\n      dup1\n      calldatasize\n      sub\n      dup2\n      add\n      swap1\n      tag_92\n      swap2\n      swap1\n      tag_93\n      jump\t// in\n    tag_92:\n      tag_94\n      jump\t// in\n    tag_91:\n      mload(0x40)\n      tag_95\n      swap3\n      swap2\n      swap1\n      tag_66\n      jump\t// in\n    tag_95:\n      mload(0x40)\n      dup1\n      swap2\n      sub\n      swap1\n      return\n        /* \"W6/simpleAMM/src/simpleAMMV6ERC.sol\":7080:7335  function getToken1Price() public view returns (uint256) {... */\n    tag_20:\n      tag_96\n      tag_97\n      jump\t// in\n    tag_96:\n      mload(0x40)\n      tag_98\n      swap2\n      swap1\n      tag_31\n      jump\t// in\n    tag_98:\n      mload(0x40)\n      dup1\n      swap2\n      sub\n      swap1\n      return\n        /* \"W6/simpleAMM/src/simpleAMMV6ERC.sol\":520:550  IERC20 public immutable token1 */\n    tag_21:\n      tag_99\n      tag_100\n      jump\t// in\n    tag_99:\n      mload(0x40)\n      tag_101\n      swap2\n      swap1\n      tag_35\n      jump\t// in\n    tag_101:\n      mload(0x40)\n      dup1\n      swap2\n      sub\n      swap1\n      return\n        /* \"W6/simpleAMM/src/simpleAMMV6ERC.sol\":6387:6492  function sharesOf(address _user) public view returns (uint256) {... */\n    tag_22:\n      tag_102\n      0x04\n      dup1\n      calldatasize\n      sub\n      dup2\n      add\n      swap1\n      tag_103\n      swap2\n      swap1\n      tag_59\n      jump\t// in\n    tag_103:\n      tag_104\n      jump\t// in\n    tag_102:\n      mload(0x40)\n      tag_105\n      swap2\n      swap1\n      tag_31\n      jump\t// in\n    tag_105:\n      mload(0x40)\n      dup1\n      swap2\n      sub\n      swap1\n      return\n        /* \"W6/simpleAMM/src/simpleAMMV6ERC.sol\":2588:3427  function swapToken1ForToken0_WithSlipLock(... */\n    tag_29:\n        /* \"W6/simpleAMM/src/simpleAMMV6ERC.sol\":2742:2759  uint256 amountOut */\n      0x00\n        /* \"W6/simpleAMM/src/simpleAMMV6ERC.sol\":2772:2778  token1 */\n      immutable(\"0x4bab0814faad1725fc18a3cfa3a1fcb95c36a46cacb7a7312c3d38e6b447adac\")\n        /* \"W6/simpleAMM/src/simpleAMMV6ERC.sol\":2772:2791  token1.transferFrom */\n      0xffffffffffffffffffffffffffffffffffffffff\n      and\n      0x23b872dd\n        /* \"W6/simpleAMM/src/simpleAMMV6ERC.sol\":2792:2802  msg.sender */\n      caller\n        /* \"W6/simpleAMM/src/simpleAMMV6ERC.sol\":2812:2816  this */\n      address\n        /* \"W6/simpleAMM/src/simpleAMMV6ERC.sol\":2819:2828  _amountIn */\n      dup8\n        /* \"W6/simpleAMM/src/simpleAMMV6ERC.sol\":2772:2829  token1.transferFrom(msg.sender, address(this), _amountIn) */\n      mload(0x40)\n      dup5\n      0xffffffff\n      and\n      0xe0\n      shl\n      dup2\n      mstore\n      0x04\n      add\n      tag_107\n      swap4\n      swap3\n      swap2\n      swap1\n      tag_108\n      jump\t// in\n    tag_107:\n      0x20\n      mload(0x40)\n      dup1\n      dup4\n      sub\n      dup2\n      0x00\n      dup8\n      gas\n      call\n      iszero\n      dup1\n      iszero\n      tag_110\n      jumpi\n      returndatasize\n      0x00\n      dup1\n      returndatacopy\n      revert(0x00, returndatasize)\n    tag_110:\n      pop\n      pop\n      pop\n      pop\n      mload(0x40)\n      returndatasize\n      not(0x1f)\n      0x1f\n      dup3\n      add\n      and\n      dup3\n      add\n      dup1\n      0x40\n      mstore\n      pop\n      dup2\n      add\n      swap1\n      tag_111\n      swap2\n      swap1\n      tag_112\n      jump\t// in\n    tag_111:\n      pop\n        /* \"W6/simpleAMM/src/simpleAMMV6ERC.sol\":2840:2863  uint256 amountInWithFee */\n      0x00\n        /* \"W6/simpleAMM/src/simpleAMMV6ERC.sol\":2886:2890  1000 */\n      0x03e8\n        /* \"W6/simpleAMM/src/simpleAMMV6ERC.sol\":2879:2882  997 */\n      0x03e5\n        /* \"W6/simpleAMM/src/simpleAMMV6ERC.sol\":2867:2876  _amountIn */\n      dup7\n        /* \"W6/simpleAMM/src/simpleAMMV6ERC.sol\":2867:2882  _amountIn * 997 */\n      tag_113\n      swap2\n      swap1\n      tag_114\n      jump\t// in\n    tag_113:\n        /* \"W6/simpleAMM/src/simpleAMMV6ERC.sol\":2866:2890  (_amountIn * 997) / 1000 */\n      tag_115\n      swap2\n      swap1\n      tag_116\n      jump\t// in\n    tag_115:\n        /* \"W6/simpleAMM/src/simpleAMMV6ERC.sol\":2840:2890  uint256 amountInWithFee = (_amountIn * 997) / 1000 */\n      swap1\n      pop\n        /* \"W6/simpleAMM/src/simpleAMMV6ERC.sol\":2956:2971  amountInWithFee */\n      dup1\n        /* \"W6/simpleAMM/src/simpleAMMV6ERC.sol\":2945:2953  reserve0 */\n      sload(0x01)\n        /* \"W6/simpleAMM/src/simpleAMMV6ERC.sol\":2945:2971  reserve0 + amountInWithFee */\n      tag_117\n      swap2\n      swap1\n      tag_118\n      jump\t// in\n    tag_117:\n        /* \"W6/simpleAMM/src/simpleAMMV6ERC.sol\":2925:2940  amountInWithFee */\n      dup2\n        /* \"W6/simpleAMM/src/simpleAMMV6ERC.sol\":2914:2922  reserve1 */\n      sload(0x02)\n        /* \"W6/simpleAMM/src/simpleAMMV6ERC.sol\":2914:2940  reserve1 * amountInWithFee */\n      tag_119\n      swap2\n      swap1\n      tag_114\n      jump\t// in\n    tag_119:\n        /* \"W6/simpleAMM/src/simpleAMMV6ERC.sol\":2913:2972  (reserve1 * amountInWithFee) / (reserve0 + amountInWithFee) */\n      tag_120\n      swap2\n      swap1\n      tag_116\n      jump\t// in\n    tag_120:\n        /* \"W6/simpleAMM/src/simpleAMMV6ERC.sol\":2901:2972  amountOut = (reserve1 * amountInWithFee) / (reserve0 + amountInWithFee) */\n      swap2\n      pop\n        /* \"W6/simpleAMM/src/simpleAMMV6ERC.sol\":3003:3004  0 */\n      0x00\n        /* \"W6/simpleAMM/src/simpleAMMV6ERC.sol\":2991:3000  amountOut */\n      dup3\n        /* \"W6/simpleAMM/src/simpleAMMV6ERC.sol\":2991:3004  amountOut > 0 */\n      gt\n        /* \"W6/simpleAMM/src/simpleAMMV6ERC.sol\":2983:3035  require(amountOut > 0, \"Insufficient output amount\") */\n      tag_121\n      jumpi\n      mload(0x40)\n      0x08c379a000000000000000000000000000000000000000000000000000000000\n      dup2\n      mstore\n      0x04\n      add\n      tag_122\n      swap1\n      tag_123\n      jump\t// in\n    tag_122:\n      mload(0x40)\n      dup1\n      swap2\n      sub\n      swap1\n      revert\n    tag_121:\n        /* \"W6/simpleAMM/src/simpleAMMV6ERC.sol\":3106:3110  1000 */\n      0x03e8\n        /* \"W6/simpleAMM/src/simpleAMMV6ERC.sol\":3093:3102  _slipLock */\n      dup4\n        /* \"W6/simpleAMM/src/simpleAMMV6ERC.sol\":3086:3090  1000 */\n      0x03e8\n        /* \"W6/simpleAMM/src/simpleAMMV6ERC.sol\":3086:3102  1000 - _slipLock */\n      tag_124\n      swap2\n      swap1\n      tag_125\n      jump\t// in\n    tag_124:\n        /* \"W6/simpleAMM/src/simpleAMMV6ERC.sol\":3068:3082  _forwardOutput */\n      dup6\n        /* \"W6/simpleAMM/src/simpleAMMV6ERC.sol\":3068:3103  _forwardOutput * (1000 - _slipLock) */\n      tag_126\n      swap2\n      swap1\n      tag_114\n      jump\t// in\n    tag_126:\n        /* \"W6/simpleAMM/src/simpleAMMV6ERC.sol\":3068:3110  _forwardOutput * (1000 - _slipLock) / 1000 */\n      tag_127\n      swap2\n      swap1\n      tag_116\n      jump\t// in\n    tag_127:\n        /* \"W6/simpleAMM/src/simpleAMMV6ERC.sol\":3054:3063  amountOut */\n      dup3\n        /* \"W6/simpleAMM/src/simpleAMMV6ERC.sol\":3054:3111  amountOut >= (_forwardOutput * (1000 - _slipLock) / 1000) */\n      lt\n      iszero\n        /* \"W6/simpleAMM/src/simpleAMMV6ERC.sol\":3046:3124  require(amountOut >= (_forwardOutput * (1000 - _slipLock) / 1000), \"SlipLock\") */\n      tag_128\n      jumpi\n      mload(0x40)\n      0x08c379a000000000000000000000000000000000000000000000000000000000\n      dup2\n      mstore\n      0x04\n      add\n      tag_129\n      swap1\n      tag_130\n      jump\t// in\n    tag_129:\n      mload(0x40)\n      dup1\n      swap2\n      sub\n      swap1\n      revert\n    tag_128:\n        /* \"W6/simpleAMM/src/simpleAMMV6ERC.sol\":3135:3157  uint256 feeToDeveloper */\n      0x00\n        /* \"W6/simpleAMM/src/simpleAMMV6ERC.sol\":3202:3206  2000 */\n      0x07d0\n        /* \"W6/simpleAMM/src/simpleAMMV6ERC.sol\":3191:3199  reserve0 */\n      sload(0x01)\n        /* \"W6/simpleAMM/src/simpleAMMV6ERC.sol\":3191:3206  reserve0 * 2000 */\n      tag_131\n      swap2\n      swap1\n      tag_114\n      jump\t// in\n    tag_131:\n        /* \"W6/simpleAMM/src/simpleAMMV6ERC.sol\":3176:3187  totalSupply */\n      sload(0x03)\n        /* \"W6/simpleAMM/src/simpleAMMV6ERC.sol\":3172:3173  3 */\n      0x03\n        /* \"W6/simpleAMM/src/simpleAMMV6ERC.sol\":3160:3169  _amountIn */\n      dup9\n        /* \"W6/simpleAMM/src/simpleAMMV6ERC.sol\":3160:3173  _amountIn * 3 */\n      tag_132\n      swap2\n      swap1\n      tag_114\n      jump\t// in\n    tag_132:\n        /* \"W6/simpleAMM/src/simpleAMMV6ERC.sol\":3160:3187  _amountIn * 3 * totalSupply */\n      tag_133\n      swap2\n      swap1\n      tag_114\n      jump\t// in\n    tag_133:\n        /* \"W6/simpleAMM/src/simpleAMMV6ERC.sol\":3160:3207  _amountIn * 3 * totalSupply / (reserve0 * 2000) */\n      tag_134\n      swap2\n      swap1\n      tag_116\n      jump\t// in\n    tag_134:\n        /* \"W6/simpleAMM/src/simpleAMMV6ERC.sol\":3135:3207  uint256 feeToDeveloper = _amountIn * 3 * totalSupply / (reserve0 * 2000) */\n      swap1\n      pop\n        /* \"W6/simpleAMM/src/simpleAMMV6ERC.sol\":3218:3250  _mint(developer, feeToDeveloper) */\n      tag_135\n        /* \"W6/simpleAMM/src/simpleAMMV6ERC.sol\":3224:3233  developer */\n      0x00\n      dup1\n      sload\n      swap1\n      0x0100\n      exp\n      swap1\n      div\n      0xffffffffffffffffffffffffffffffffffffffff\n      and\n        /* \"W6/simpleAMM/src/simpleAMMV6ERC.sol\":3235:3249  feeToDeveloper */\n      dup3\n        /* \"W6/simpleAMM/src/simpleAMMV6ERC.sol\":3218:3223  _mint */\n      tag_136\n        /* \"W6/simpleAMM/src/simpleAMMV6ERC.sol\":3218:3250  _mint(developer, feeToDeveloper) */\n      jump\t// in\n    tag_135:\n        /* \"W6/simpleAMM/src/simpleAMMV6ERC.sol\":3297:3303  token0 */\n      immutable(\"0xe9ec5ebbfe521ba5a70e4c2b13332e74dda4e055153dc29723307e62e8ed0f2a\")\n        /* \"W6/simpleAMM/src/simpleAMMV6ERC.sol\":3297:3312  token0.transfer */\n      0xffffffffffffffffffffffffffffffffffffffff\n      and\n      0xa9059cbb\n        /* \"W6/simpleAMM/src/simpleAMMV6ERC.sol\":3313:3323  msg.sender */\n      caller\n        /* \"W6/simpleAMM/src/simpleAMMV6ERC.sol\":3325:3334  amountOut */\n      dup6\n        /* \"W6/simpleAMM/src/simpleAMMV6ERC.sol\":3297:3335  token0.transfer(msg.sender, amountOut) */\n      mload(0x40)\n      dup4\n      0xffffffff\n      and\n      0xe0\n      shl\n      dup2\n      mstore\n      0x04\n      add\n      tag_137\n      swap3\n      swap2\n      swap1\n      tag_138\n      jump\t// in\n    tag_137:\n      0x20\n      mload(0x40)\n      dup1\n      dup4\n      sub\n      dup2\n      0x00\n      dup8\n      gas\n      call\n      iszero\n      dup1\n      iszero\n      tag_140\n      jumpi\n      returndatasize\n      0x00\n      dup1\n      returndatacopy\n      revert(0x00, returndatasize)\n    tag_140:\n      pop\n      pop\n      pop\n      pop\n      mload(0x40)\n      returndatasize\n      not(0x1f)\n      0x1f\n      dup3\n      add\n      and\n      dup3\n      add\n      dup1\n      0x40\n      mstore\n      pop\n      dup2\n      add\n      swap1\n      tag_141\n      swap2\n      swap1\n      tag_112\n      jump\t// in\n    tag_141:\n      pop\n        /* \"W6/simpleAMM/src/simpleAMMV6ERC.sol\":3346:3419  _update(token0.balanceOf(address(this)), token1.balanceOf(address(this))) */\n      tag_142\n        /* \"W6/simpleAMM/src/simpleAMMV6ERC.sol\":3354:3360  token0 */\n      immutable(\"0xe9ec5ebbfe521ba5a70e4c2b13332e74dda4e055153dc29723307e62e8ed0f2a\")\n        /* \"W6/simpleAMM/src/simpleAMMV6ERC.sol\":3354:3370  token0.balanceOf */\n      0xffffffffffffffffffffffffffffffffffffffff\n      and\n      0x70a08231\n        /* \"W6/simpleAMM/src/simpleAMMV6ERC.sol\":3379:3383  this */\n      address\n        /* \"W6/simpleAMM/src/simpleAMMV6ERC.sol\":3354:3385  token0.balanceOf(address(this)) */\n      mload(0x40)\n      dup3\n      0xffffffff\n      and\n      0xe0\n      shl\n      dup2\n      mstore\n      0x04\n      add\n      tag_143\n      swap2\n      swap1\n      tag_144\n      jump\t// in\n    tag_143:\n      0x20\n      mload(0x40)\n      dup1\n      dup4\n      sub\n      dup2\n      dup7\n      gas\n      staticcall\n      iszero\n      dup1\n      iszero\n      tag_146\n      jumpi\n      returndatasize\n      0x00\n      dup1\n      returndatacopy\n      revert(0x00, returndatasize)\n    tag_146:\n      pop\n      pop\n      pop\n      pop\n      mload(0x40)\n      returndatasize\n      not(0x1f)\n      0x1f\n      dup3\n      add\n      and\n      dup3\n      add\n      dup1\n      0x40\n      mstore\n      pop\n      dup2\n      add\n      swap1\n      tag_147\n      swap2\n      swap1\n      tag_148\n      jump\t// in\n    tag_147:\n        /* \"W6/simpleAMM/src/simpleAMMV6ERC.sol\":3387:3393  token1 */\n      immutable(\"0x4bab0814faad1725fc18a3cfa3a1fcb95c36a46cacb7a7312c3d38e6b447adac\")\n        /* \"W6/simpleAMM/src/simpleAMMV6ERC.sol\":3387:3403  token1.balanceOf */\n      0xffffffffffffffffffffffffffffffffffffffff\n      and\n      0x70a08231\n        /* \"W6/simpleAMM/src/simpleAMMV6ERC.sol\":3412:3416  this */\n      address\n        /* \"W6/simpleAMM/src/simpleAMMV6ERC.sol\":3387:3418  token1.balanceOf(address(this)) */\n      mload(0x40)\n      dup3\n      0xffffffff\n      and\n      0xe0\n      shl\n      dup2\n      mstore\n      0x04\n      add\n      tag_149\n      swap2\n      swap1\n      tag_144\n      jump\t// in\n    tag_149:\n      0x20\n      mload(0x40)\n      dup1\n      dup4\n      sub\n      dup2\n      dup7\n      gas\n      staticcall\n      iszero\n      dup1\n      iszero\n      tag_151\n      jumpi\n      returndatasize\n      0x00\n      dup1\n      returndatacopy\n      revert(0x00, returndatasize)\n    tag_151:\n      pop\n      pop\n      pop\n      pop\n      mload(0x40)\n      returndatasize\n      not(0x1f)\n      0x1f\n      dup3\n      add\n      and\n      dup3\n      add\n      dup1\n      0x40\n      mstore\n      pop\n      dup2\n      add\n      swap1\n      tag_152\n      swap2\n      swap1\n      tag_148\n      jump\t// in\n    tag_152:\n        /* \"W6/simpleAMM/src/simpleAMMV6ERC.sol\":3346:3353  _update */\n      tag_153\n        /* \"W6/simpleAMM/src/simpleAMMV6ERC.sol\":3346:3419  _update(token0.balanceOf(address(this)), token1.balanceOf(address(this))) */\n      jump\t// in\n    tag_142:\n        /* \"W6/simpleAMM/src/simpleAMMV6ERC.sol\":2761:3427  {... */\n      pop\n      pop\n        /* \"W6/simpleAMM/src/simpleAMMV6ERC.sol\":2588:3427  function swapToken1ForToken0_WithSlipLock(... */\n      swap4\n      swap3\n      pop\n      pop\n      pop\n      jump\t// out\n        /* \"W6/simpleAMM/src/simpleAMMV6ERC.sol\":483:513  IERC20 public immutable token0 */\n    tag_33:\n      immutable(\"0xe9ec5ebbfe521ba5a70e4c2b13332e74dda4e055153dc29723307e62e8ed0f2a\")\n      dup2\n      jump\t// out\n        /* \"W6/simpleAMM/src/simpleAMMV6ERC.sol\":621:647  uint256 public totalSupply */\n    tag_37:\n      sload(0x03)\n      dup2\n      jump\t// out\n        /* \"W6/simpleAMM/src/simpleAMMV6ERC.sol\":7343:7657  function getInToken0PredictOutputToken1(uint256 _amount) public view returns (uint256) {... */\n    tag_42:\n        /* \"W6/simpleAMM/src/simpleAMMV6ERC.sol\":7421:7428  uint256 */\n      0x00\n        /* \"W6/simpleAMM/src/simpleAMMV6ERC.sol\":7460:7461  0 */\n      dup1\n        /* \"W6/simpleAMM/src/simpleAMMV6ERC.sol\":7449:7457  reserve0 */\n      sload(0x01)\n        /* \"W6/simpleAMM/src/simpleAMMV6ERC.sol\":7449:7461  reserve0 > 0 */\n      gt\n        /* \"W6/simpleAMM/src/simpleAMMV6ERC.sol\":7449:7477  reserve0 > 0 && reserve1 > 0 */\n      dup1\n      iszero\n      tag_155\n      jumpi\n      pop\n        /* \"W6/simpleAMM/src/simpleAMMV6ERC.sol\":7476:7477  0 */\n      0x00\n        /* \"W6/simpleAMM/src/simpleAMMV6ERC.sol\":7465:7473  reserve1 */\n      sload(0x02)\n        /* \"W6/simpleAMM/src/simpleAMMV6ERC.sol\":7465:7477  reserve1 > 0 */\n      gt\n        /* \"W6/simpleAMM/src/simpleAMMV6ERC.sol\":7449:7477  reserve0 > 0 && reserve1 > 0 */\n    tag_155:\n        /* \"W6/simpleAMM/src/simpleAMMV6ERC.sol\":7449:7492  reserve0 > 0 && reserve1 > 0 && _amount > 0 */\n      dup1\n      iszero\n      tag_156\n      jumpi\n      pop\n        /* \"W6/simpleAMM/src/simpleAMMV6ERC.sol\":7491:7492  0 */\n      0x00\n        /* \"W6/simpleAMM/src/simpleAMMV6ERC.sol\":7481:7488  _amount */\n      dup3\n        /* \"W6/simpleAMM/src/simpleAMMV6ERC.sol\":7481:7492  _amount > 0 */\n      gt\n        /* \"W6/simpleAMM/src/simpleAMMV6ERC.sol\":7449:7492  reserve0 > 0 && reserve1 > 0 && _amount > 0 */\n    tag_156:\n        /* \"W6/simpleAMM/src/simpleAMMV6ERC.sol\":7441:7513  require(reserve0 > 0 && reserve1 > 0 && _amount > 0, \"Invalid reserves\") */\n      tag_157\n      jumpi\n      mload(0x40)\n      0x08c379a000000000000000000000000000000000000000000000000000000000\n      dup2\n      mstore\n      0x04\n      add\n      tag_158\n      swap1\n      tag_159\n      jump\t// in\n    tag_158:\n      mload(0x40)\n      dup1\n      swap2\n      sub\n      swap1\n      revert\n    tag_157:\n        /* \"W6/simpleAMM/src/simpleAMMV6ERC.sol\":7524:7547  uint256 amountInWithFee */\n      0x00\n        /* \"W6/simpleAMM/src/simpleAMMV6ERC.sol\":7568:7572  1000 */\n      0x03e8\n        /* \"W6/simpleAMM/src/simpleAMMV6ERC.sol\":7561:7564  997 */\n      0x03e5\n        /* \"W6/simpleAMM/src/simpleAMMV6ERC.sol\":7551:7558  _amount */\n      dup5\n        /* \"W6/simpleAMM/src/simpleAMMV6ERC.sol\":7551:7564  _amount * 997 */\n      tag_160\n      swap2\n      swap1\n      tag_114\n      jump\t// in\n    tag_160:\n        /* \"W6/simpleAMM/src/simpleAMMV6ERC.sol\":7550:7572  (_amount * 997) / 1000 */\n      tag_161\n      swap2\n      swap1\n      tag_116\n      jump\t// in\n    tag_161:\n        /* \"W6/simpleAMM/src/simpleAMMV6ERC.sol\":7524:7572  uint256 amountInWithFee = (_amount * 997) / 1000 */\n      swap1\n      pop\n        /* \"W6/simpleAMM/src/simpleAMMV6ERC.sol\":7633:7648  amountInWithFee */\n      dup1\n        /* \"W6/simpleAMM/src/simpleAMMV6ERC.sol\":7622:7630  reserve0 */\n      sload(0x01)\n        /* \"W6/simpleAMM/src/simpleAMMV6ERC.sol\":7622:7648  reserve0 + amountInWithFee */\n      tag_162\n      swap2\n      swap1\n      tag_118\n      jump\t// in\n    tag_162:\n        /* \"W6/simpleAMM/src/simpleAMMV6ERC.sol\":7602:7617  amountInWithFee */\n      dup2\n        /* \"W6/simpleAMM/src/simpleAMMV6ERC.sol\":7591:7599  reserve1 */\n      sload(0x02)\n        /* \"W6/simpleAMM/src/simpleAMMV6ERC.sol\":7591:7617  reserve1 * amountInWithFee */\n      tag_163\n      swap2\n      swap1\n      tag_114\n      jump\t// in\n    tag_163:\n        /* \"W6/simpleAMM/src/simpleAMMV6ERC.sol\":7590:7649  (reserve1 * amountInWithFee) / (reserve0 + amountInWithFee) */\n      tag_164\n      swap2\n      swap1\n      tag_116\n      jump\t// in\n    tag_164:\n        /* \"W6/simpleAMM/src/simpleAMMV6ERC.sol\":7583:7649  return (reserve1 * amountInWithFee) / (reserve0 + amountInWithFee) */\n      swap2\n      pop\n      pop\n        /* \"W6/simpleAMM/src/simpleAMMV6ERC.sol\":7343:7657  function getInToken0PredictOutputToken1(uint256 _amount) public view returns (uint256) {... */\n      swap2\n      swap1\n      pop\n      jump\t// out\n        /* \"W6/simpleAMM/src/simpleAMMV6ERC.sol\":559:582  uint256 public reserve0 */\n    tag_45:\n      sload(0x01)\n      dup2\n      jump\t// out\n        /* \"W6/simpleAMM/src/simpleAMMV6ERC.sol\":6819:7074  function getToken0Price() public view returns (uint256) {... */\n    tag_48:\n        /* \"W6/simpleAMM/src/simpleAMMV6ERC.sol\":6866:6873  uint256 */\n      0x00\n        /* \"W6/simpleAMM/src/simpleAMMV6ERC.sol\":6905:6906  0 */\n      dup1\n        /* \"W6/simpleAMM/src/simpleAMMV6ERC.sol\":6894:6902  reserve0 */\n      sload(0x01)\n        /* \"W6/simpleAMM/src/simpleAMMV6ERC.sol\":6894:6906  reserve0 > 0 */\n      gt\n        /* \"W6/simpleAMM/src/simpleAMMV6ERC.sol\":6894:6922  reserve0 > 0 && reserve1 > 0 */\n      dup1\n      iszero\n      tag_166\n      jumpi\n      pop\n        /* \"W6/simpleAMM/src/simpleAMMV6ERC.sol\":6921:6922  0 */\n      0x00\n        /* \"W6/simpleAMM/src/simpleAMMV6ERC.sol\":6910:6918  reserve1 */\n      sload(0x02)\n        /* \"W6/simpleAMM/src/simpleAMMV6ERC.sol\":6910:6922  reserve1 > 0 */\n      gt\n        /* \"W6/simpleAMM/src/simpleAMMV6ERC.sol\":6894:6922  reserve0 > 0 && reserve1 > 0 */\n    tag_166:\n        /* \"W6/simpleAMM/src/simpleAMMV6ERC.sol\":6886:6943  require(reserve0 > 0 && reserve1 > 0, \"Invalid reserves\") */\n      tag_167\n      jumpi\n      mload(0x40)\n      0x08c379a000000000000000000000000000000000000000000000000000000000\n      dup2\n      mstore\n      0x04\n      add\n      tag_168\n      swap1\n      tag_159\n      jump\t// in\n    tag_168:\n      mload(0x40)\n      dup1\n      swap2\n      sub\n      swap1\n      revert\n    tag_167:\n        /* \"W6/simpleAMM/src/simpleAMMV6ERC.sol\":6954:6971  uint256 decimals1 */\n      0x00\n        /* \"W6/simpleAMM/src/simpleAMMV6ERC.sol\":6988:6994  token1 */\n      immutable(\"0x4bab0814faad1725fc18a3cfa3a1fcb95c36a46cacb7a7312c3d38e6b447adac\")\n        /* \"W6/simpleAMM/src/simpleAMMV6ERC.sol\":6974:7005  ERC20(address(token1)).decimals */\n      0xffffffffffffffffffffffffffffffffffffffff\n      and\n      0x313ce567\n        /* \"W6/simpleAMM/src/simpleAMMV6ERC.sol\":6974:7007  ERC20(address(token1)).decimals() */\n      mload(0x40)\n      dup2\n      0xffffffff\n      and\n      0xe0\n      shl\n      dup2\n      mstore\n      0x04\n      add\n      0x20\n      mload(0x40)\n      dup1\n      dup4\n      sub\n      dup2\n      dup7\n      gas\n      staticcall\n      iszero\n      dup1\n      iszero\n      tag_170\n      jumpi\n      returndatasize\n      0x00\n      dup1\n      returndatacopy\n      revert(0x00, returndatasize)\n    tag_170:\n      pop\n      pop\n      pop\n      pop\n      mload(0x40)\n      returndatasize\n      not(0x1f)\n      0x1f\n      dup3\n      add\n      and\n      dup3\n      add\n      dup1\n      0x40\n      mstore\n      pop\n      dup2\n      add\n      swap1\n      tag_171\n      swap2\n      swap1\n      tag_172\n      jump\t// in\n    tag_171:\n        /* \"W6/simpleAMM/src/simpleAMMV6ERC.sol\":6954:7007  uint256 decimals1 = ERC20(address(token1)).decimals() */\n      0xff\n      and\n      swap1\n      pop\n        /* \"W6/simpleAMM/src/simpleAMMV6ERC.sol\":7057:7065  reserve1 */\n      sload(0x02)\n        /* \"W6/simpleAMM/src/simpleAMMV6ERC.sol\":7042:7051  decimals1 */\n      dup2\n        /* \"W6/simpleAMM/src/simpleAMMV6ERC.sol\":7038:7040  10 */\n      0x0a\n        /* \"W6/simpleAMM/src/simpleAMMV6ERC.sol\":7038:7051  10**decimals1 */\n      tag_173\n      swap2\n      swap1\n      tag_174\n      jump\t// in\n    tag_173:\n        /* \"W6/simpleAMM/src/simpleAMMV6ERC.sol\":7026:7034  reserve0 */\n      sload(0x01)\n        /* \"W6/simpleAMM/src/simpleAMMV6ERC.sol\":7026:7052  reserve0 * (10**decimals1) */\n      tag_175\n      swap2\n      swap1\n      tag_114\n      jump\t// in\n    tag_175:\n        /* \"W6/simpleAMM/src/simpleAMMV6ERC.sol\":7025:7066  (reserve0 * (10**decimals1)) / (reserve1) */\n      tag_176\n      swap2\n      swap1\n      tag_116\n      jump\t// in\n    tag_176:\n        /* \"W6/simpleAMM/src/simpleAMMV6ERC.sol\":7018:7066  return (reserve0 * (10**decimals1)) / (reserve1) */\n      swap2\n      pop\n      pop\n        /* \"W6/simpleAMM/src/simpleAMMV6ERC.sol\":6819:7074  function getToken0Price() public view returns (uint256) {... */\n      swap1\n      jump\t// out\n        /* \"W6/simpleAMM/src/simpleAMMV6ERC.sol\":589:612  uint256 public reserve1 */\n    tag_51:\n      sload(0x02)\n      dup2\n      jump\t// out\n        /* \"W6/simpleAMM/src/simpleAMMV6ERC.sol\":7665:7979  function getInToken1PredictOutputToken0(uint256 _amount) public view returns (uint256) {... */\n    tag_55:\n        /* \"W6/simpleAMM/src/simpleAMMV6ERC.sol\":7743:7750  uint256 */\n      0x00\n        /* \"W6/simpleAMM/src/simpleAMMV6ERC.sol\":7782:7783  0 */\n      dup1\n        /* \"W6/simpleAMM/src/simpleAMMV6ERC.sol\":7771:7779  reserve0 */\n      sload(0x01)\n        /* \"W6/simpleAMM/src/simpleAMMV6ERC.sol\":7771:7783  reserve0 > 0 */\n      gt\n        /* \"W6/simpleAMM/src/simpleAMMV6ERC.sol\":7771:7799  reserve0 > 0 && reserve1 > 0 */\n      dup1\n      iszero\n      tag_178\n      jumpi\n      pop\n        /* \"W6/simpleAMM/src/simpleAMMV6ERC.sol\":7798:7799  0 */\n      0x00\n        /* \"W6/simpleAMM/src/simpleAMMV6ERC.sol\":7787:7795  reserve1 */\n      sload(0x02)\n        /* \"W6/simpleAMM/src/simpleAMMV6ERC.sol\":7787:7799  reserve1 > 0 */\n      gt\n        /* \"W6/simpleAMM/src/simpleAMMV6ERC.sol\":7771:7799  reserve0 > 0 && reserve1 > 0 */\n    tag_178:\n        /* \"W6/simpleAMM/src/simpleAMMV6ERC.sol\":7771:7814  reserve0 > 0 && reserve1 > 0 && _amount > 0 */\n      dup1\n      iszero\n      tag_179\n      jumpi\n      pop\n        /* \"W6/simpleAMM/src/simpleAMMV6ERC.sol\":7813:7814  0 */\n      0x00\n        /* \"W6/simpleAMM/src/simpleAMMV6ERC.sol\":7803:7810  _amount */\n      dup3\n        /* \"W6/simpleAMM/src/simpleAMMV6ERC.sol\":7803:7814  _amount > 0 */\n      gt\n        /* \"W6/simpleAMM/src/simpleAMMV6ERC.sol\":7771:7814  reserve0 > 0 && reserve1 > 0 && _amount > 0 */\n    tag_179:\n        /* \"W6/simpleAMM/src/simpleAMMV6ERC.sol\":7763:7835  require(reserve0 > 0 && reserve1 > 0 && _amount > 0, \"Invalid reserves\") */\n      tag_180\n      jumpi\n      mload(0x40)\n      0x08c379a000000000000000000000000000000000000000000000000000000000\n      dup2\n      mstore\n      0x04\n      add\n      tag_181\n      swap1\n      tag_159\n      jump\t// in\n    tag_181:\n      mload(0x40)\n      dup1\n      swap2\n      sub\n      swap1\n      revert\n    tag_180:\n        /* \"W6/simpleAMM/src/simpleAMMV6ERC.sol\":7846:7869  uint256 amountInWithFee */\n      0x00\n        /* \"W6/simpleAMM/src/simpleAMMV6ERC.sol\":7890:7894  1000 */\n      0x03e8\n        /* \"W6/simpleAMM/src/simpleAMMV6ERC.sol\":7883:7886  997 */\n      0x03e5\n        /* \"W6/simpleAMM/src/simpleAMMV6ERC.sol\":7873:7880  _amount */\n      dup5\n        /* \"W6/simpleAMM/src/simpleAMMV6ERC.sol\":7873:7886  _amount * 997 */\n      tag_182\n      swap2\n      swap1\n      tag_114\n      jump\t// in\n    tag_182:\n        /* \"W6/simpleAMM/src/simpleAMMV6ERC.sol\":7872:7894  (_amount * 997) / 1000 */\n      tag_183\n      swap2\n      swap1\n      tag_116\n      jump\t// in\n    tag_183:\n        /* \"W6/simpleAMM/src/simpleAMMV6ERC.sol\":7846:7894  uint256 amountInWithFee = (_amount * 997) / 1000 */\n      swap1\n      pop\n        /* \"W6/simpleAMM/src/simpleAMMV6ERC.sol\":7955:7970  amountInWithFee */\n      dup1\n        /* \"W6/simpleAMM/src/simpleAMMV6ERC.sol\":7944:7952  reserve1 */\n      sload(0x02)\n        /* \"W6/simpleAMM/src/simpleAMMV6ERC.sol\":7944:7970  reserve1 + amountInWithFee */\n      tag_184\n      swap2\n      swap1\n      tag_118\n      jump\t// in\n    tag_184:\n        /* \"W6/simpleAMM/src/simpleAMMV6ERC.sol\":7924:7939  amountInWithFee */\n      dup2\n        /* \"W6/simpleAMM/src/simpleAMMV6ERC.sol\":7913:7921  reserve0 */\n      sload(0x01)\n        /* \"W6/simpleAMM/src/simpleAMMV6ERC.sol\":7913:7939  reserve0 * amountInWithFee */\n      tag_185\n      swap2\n      swap1\n      tag_114\n      jump\t// in\n    tag_185:\n        /* \"W6/simpleAMM/src/simpleAMMV6ERC.sol\":7912:7971  (reserve0 * amountInWithFee) / (reserve1 + amountInWithFee) */\n      tag_186\n      swap2\n      swap1\n      tag_116\n      jump\t// in\n    tag_186:\n        /* \"W6/simpleAMM/src/simpleAMMV6ERC.sol\":7905:7971  return (reserve0 * amountInWithFee) / (reserve1 + amountInWithFee) */\n      swap2\n      pop\n      pop\n        /* \"W6/simpleAMM/src/simpleAMMV6ERC.sol\":7665:7979  function getInToken1PredictOutputToken0(uint256 _amount) public view returns (uint256) {... */\n      swap2\n      swap1\n      pop\n      jump\t// out\n        /* \"W6/simpleAMM/src/simpleAMMV6ERC.sol\":654:698  mapping(address => uint256) public balanceOf */\n    tag_60:\n      mstore(0x20, 0x04)\n      dup1\n      0x00\n      mstore\n      keccak256(0x00, 0x40)\n      0x00\n      swap2\n      pop\n      swap1\n      pop\n      sload\n      dup2\n      jump\t// out\n        /* \"W6/simpleAMM/src/simpleAMMV6ERC.sol\":5117:5279  function removeAllLiquidity(address _user) external returns (uint256 amount0, uint256 amount1) {... */\n    tag_64:\n        /* \"W6/simpleAMM/src/simpleAMMV6ERC.sol\":5178:5193  uint256 amount0 */\n      0x00\n        /* \"W6/simpleAMM/src/simpleAMMV6ERC.sol\":5195:5210  uint256 amount1 */\n      dup1\n        /* \"W6/simpleAMM/src/simpleAMMV6ERC.sol\":5230:5271  _removeLiquidity(_user, balanceOf[_user]) */\n      tag_188\n        /* \"W6/simpleAMM/src/simpleAMMV6ERC.sol\":5247:5252  _user */\n      dup4\n        /* \"W6/simpleAMM/src/simpleAMMV6ERC.sol\":5254:5263  balanceOf */\n      0x04\n        /* \"W6/simpleAMM/src/simpleAMMV6ERC.sol\":5254:5270  balanceOf[_user] */\n      0x00\n        /* \"W6/simpleAMM/src/simpleAMMV6ERC.sol\":5264:5269  _user */\n      dup7\n        /* \"W6/simpleAMM/src/simpleAMMV6ERC.sol\":5254:5270  balanceOf[_user] */\n      0xffffffffffffffffffffffffffffffffffffffff\n      and\n      0xffffffffffffffffffffffffffffffffffffffff\n      and\n      dup2\n      mstore\n      0x20\n      add\n      swap1\n      dup2\n      mstore\n      0x20\n      add\n      0x00\n      keccak256\n      sload\n        /* \"W6/simpleAMM/src/simpleAMMV6ERC.sol\":5230:5246  _removeLiquidity */\n      tag_189\n        /* \"W6/simpleAMM/src/simpleAMMV6ERC.sol\":5230:5271  _removeLiquidity(_user, balanceOf[_user]) */\n      jump\t// in\n    tag_188:\n        /* \"W6/simpleAMM/src/simpleAMMV6ERC.sol\":5223:5271  return _removeLiquidity(_user, balanceOf[_user]) */\n      swap2\n      pop\n      swap2\n      pop\n        /* \"W6/simpleAMM/src/simpleAMMV6ERC.sol\":5117:5279  function removeAllLiquidity(address _user) external returns (uint256 amount0, uint256 amount1) {... */\n      swap2\n      pop\n      swap2\n      jump\t// out\n        /* \"W6/simpleAMM/src/simpleAMMV6ERC.sol\":1909:2580  function swapToken0ForToken1(uint256 _amountIn) public returns (uint256 amountOut) { // T1/T0... */\n    tag_69:\n        /* \"W6/simpleAMM/src/simpleAMMV6ERC.sol\":1973:1990  uint256 amountOut */\n      0x00\n        /* \"W6/simpleAMM/src/simpleAMMV6ERC.sol\":2012:2018  token0 */\n      immutable(\"0xe9ec5ebbfe521ba5a70e4c2b13332e74dda4e055153dc29723307e62e8ed0f2a\")\n        /* \"W6/simpleAMM/src/simpleAMMV6ERC.sol\":2012:2031  token0.transferFrom */\n      0xffffffffffffffffffffffffffffffffffffffff\n      and\n      0x23b872dd\n        /* \"W6/simpleAMM/src/simpleAMMV6ERC.sol\":2032:2042  msg.sender */\n      caller\n        /* \"W6/simpleAMM/src/simpleAMMV6ERC.sol\":2052:2056  this */\n      address\n        /* \"W6/simpleAMM/src/simpleAMMV6ERC.sol\":2059:2068  _amountIn */\n      dup6\n        /* \"W6/simpleAMM/src/simpleAMMV6ERC.sol\":2012:2069  token0.transferFrom(msg.sender, address(this), _amountIn) */\n      mload(0x40)\n      dup5\n      0xffffffff\n      and\n      0xe0\n      shl\n      dup2\n      mstore\n      0x04\n      add\n      tag_191\n      swap4\n      swap3\n      swap2\n      swap1\n      tag_108\n      jump\t// in\n    tag_191:\n      0x20\n      mload(0x40)\n      dup1\n      dup4\n      sub\n      dup2\n      0x00\n      dup8\n      gas\n      call\n      iszero\n      dup1\n      iszero\n      tag_193\n      jumpi\n      returndatasize\n      0x00\n      dup1\n      returndatacopy\n      revert(0x00, returndatasize)\n    tag_193:\n      pop\n      pop\n      pop\n      pop\n      mload(0x40)\n      returndatasize\n      not(0x1f)\n      0x1f\n      dup3\n      add\n      and\n      dup3\n      add\n      dup1\n      0x40\n      mstore\n      pop\n      dup2\n      add\n      swap1\n      tag_194\n      swap2\n      swap1\n      tag_112\n      jump\t// in\n    tag_194:\n      pop\n        /* \"W6/simpleAMM/src/simpleAMMV6ERC.sol\":2080:2103  uint256 amountInWithFee */\n      0x00\n        /* \"W6/simpleAMM/src/simpleAMMV6ERC.sol\":2126:2130  1000 */\n      0x03e8\n        /* \"W6/simpleAMM/src/simpleAMMV6ERC.sol\":2119:2122  997 */\n      0x03e5\n        /* \"W6/simpleAMM/src/simpleAMMV6ERC.sol\":2107:2116  _amountIn */\n      dup5\n        /* \"W6/simpleAMM/src/simpleAMMV6ERC.sol\":2107:2122  _amountIn * 997 */\n      tag_195\n      swap2\n      swap1\n      tag_114\n      jump\t// in\n    tag_195:\n        /* \"W6/simpleAMM/src/simpleAMMV6ERC.sol\":2106:2130  (_amountIn * 997) / 1000 */\n      tag_196\n      swap2\n      swap1\n      tag_116\n      jump\t// in\n    tag_196:\n        /* \"W6/simpleAMM/src/simpleAMMV6ERC.sol\":2080:2130  uint256 amountInWithFee = (_amountIn * 997) / 1000 */\n      swap1\n      pop\n        /* \"W6/simpleAMM/src/simpleAMMV6ERC.sol\":2196:2211  amountInWithFee */\n      dup1\n        /* \"W6/simpleAMM/src/simpleAMMV6ERC.sol\":2185:2193  reserve0 */\n      sload(0x01)\n        /* \"W6/simpleAMM/src/simpleAMMV6ERC.sol\":2185:2211  reserve0 + amountInWithFee */\n      tag_197\n      swap2\n      swap1\n      tag_118\n      jump\t// in\n    tag_197:\n        /* \"W6/simpleAMM/src/simpleAMMV6ERC.sol\":2165:2180  amountInWithFee */\n      dup2\n        /* \"W6/simpleAMM/src/simpleAMMV6ERC.sol\":2154:2162  reserve1 */\n      sload(0x02)\n        /* \"W6/simpleAMM/src/simpleAMMV6ERC.sol\":2154:2180  reserve1 * amountInWithFee */\n      tag_198\n      swap2\n      swap1\n      tag_114\n      jump\t// in\n    tag_198:\n        /* \"W6/simpleAMM/src/simpleAMMV6ERC.sol\":2153:2212  (reserve1 * amountInWithFee) / (reserve0 + amountInWithFee) */\n      tag_199\n      swap2\n      swap1\n      tag_116\n      jump\t// in\n    tag_199:\n        /* \"W6/simpleAMM/src/simpleAMMV6ERC.sol\":2141:2212  amountOut = (reserve1 * amountInWithFee) / (reserve0 + amountInWithFee) */\n      swap2\n      pop\n        /* \"W6/simpleAMM/src/simpleAMMV6ERC.sol\":2243:2244  0 */\n      0x00\n        /* \"W6/simpleAMM/src/simpleAMMV6ERC.sol\":2231:2240  amountOut */\n      dup3\n        /* \"W6/simpleAMM/src/simpleAMMV6ERC.sol\":2231:2244  amountOut > 0 */\n      gt\n        /* \"W6/simpleAMM/src/simpleAMMV6ERC.sol\":2223:2275  require(amountOut > 0, \"Insufficient output amount\") */\n      tag_200\n      jumpi\n      mload(0x40)\n      0x08c379a000000000000000000000000000000000000000000000000000000000\n      dup2\n      mstore\n      0x04\n      add\n      tag_201\n      swap1\n      tag_123\n      jump\t// in\n    tag_201:\n      mload(0x40)\n      dup1\n      swap2\n      sub\n      swap1\n      revert\n    tag_200:\n        /* \"W6/simpleAMM/src/simpleAMMV6ERC.sol\":2286:2308  uint256 feeToDeveloper */\n      0x00\n        /* \"W6/simpleAMM/src/simpleAMMV6ERC.sol\":2353:2357  2000 */\n      0x07d0\n        /* \"W6/simpleAMM/src/simpleAMMV6ERC.sol\":2342:2350  reserve0 */\n      sload(0x01)\n        /* \"W6/simpleAMM/src/simpleAMMV6ERC.sol\":2342:2357  reserve0 * 2000 */\n      tag_202\n      swap2\n      swap1\n      tag_114\n      jump\t// in\n    tag_202:\n        /* \"W6/simpleAMM/src/simpleAMMV6ERC.sol\":2327:2338  totalSupply */\n      sload(0x03)\n        /* \"W6/simpleAMM/src/simpleAMMV6ERC.sol\":2323:2324  3 */\n      0x03\n        /* \"W6/simpleAMM/src/simpleAMMV6ERC.sol\":2311:2320  _amountIn */\n      dup7\n        /* \"W6/simpleAMM/src/simpleAMMV6ERC.sol\":2311:2324  _amountIn * 3 */\n      tag_203\n      swap2\n      swap1\n      tag_114\n      jump\t// in\n    tag_203:\n        /* \"W6/simpleAMM/src/simpleAMMV6ERC.sol\":2311:2338  _amountIn * 3 * totalSupply */\n      tag_204\n      swap2\n      swap1\n      tag_114\n      jump\t// in\n    tag_204:\n        /* \"W6/simpleAMM/src/simpleAMMV6ERC.sol\":2311:2358  _amountIn * 3 * totalSupply / (reserve0 * 2000) */\n      tag_205\n      swap2\n      swap1\n      tag_116\n      jump\t// in\n    tag_205:\n        /* \"W6/simpleAMM/src/simpleAMMV6ERC.sol\":2286:2358  uint256 feeToDeveloper = _amountIn * 3 * totalSupply / (reserve0 * 2000) */\n      swap1\n      pop\n        /* \"W6/simpleAMM/src/simpleAMMV6ERC.sol\":2369:2401  _mint(developer, feeToDeveloper) */\n      tag_206\n        /* \"W6/simpleAMM/src/simpleAMMV6ERC.sol\":2375:2384  developer */\n      0x00\n      dup1\n      sload\n      swap1\n      0x0100\n      exp\n      swap1\n      div\n      0xffffffffffffffffffffffffffffffffffffffff\n      and\n        /* \"W6/simpleAMM/src/simpleAMMV6ERC.sol\":2386:2400  feeToDeveloper */\n      dup3\n        /* \"W6/simpleAMM/src/simpleAMMV6ERC.sol\":2369:2374  _mint */\n      tag_136\n        /* \"W6/simpleAMM/src/simpleAMMV6ERC.sol\":2369:2401  _mint(developer, feeToDeveloper) */\n      jump\t// in\n    tag_206:\n        /* \"W6/simpleAMM/src/simpleAMMV6ERC.sol\":2448:2454  token1 */\n      immutable(\"0x4bab0814faad1725fc18a3cfa3a1fcb95c36a46cacb7a7312c3d38e6b447adac\")\n        /* \"W6/simpleAMM/src/simpleAMMV6ERC.sol\":2448:2463  token1.transfer */\n      0xffffffffffffffffffffffffffffffffffffffff\n      and\n      0xa9059cbb\n        /* \"W6/simpleAMM/src/simpleAMMV6ERC.sol\":2464:2474  msg.sender */\n      caller\n        /* \"W6/simpleAMM/src/simpleAMMV6ERC.sol\":2476:2485  amountOut */\n      dup6\n        /* \"W6/simpleAMM/src/simpleAMMV6ERC.sol\":2448:2486  token1.transfer(msg.sender, amountOut) */\n      mload(0x40)\n      dup4\n      0xffffffff\n      and\n      0xe0\n      shl\n      dup2\n      mstore\n      0x04\n      add\n      tag_207\n      swap3\n      swap2\n      swap1\n      tag_138\n      jump\t// in\n    tag_207:\n      0x20\n      mload(0x40)\n      dup1\n      dup4\n      sub\n      dup2\n      0x00\n      dup8\n      gas\n      call\n      iszero\n      dup1\n      iszero\n      tag_209\n      jumpi\n      returndatasize\n      0x00\n      dup1\n      returndatacopy\n      revert(0x00, returndatasize)\n    tag_209:\n      pop\n      pop\n      pop\n      pop\n      mload(0x40)\n      returndatasize\n      not(0x1f)\n      0x1f\n      dup3\n      add\n      and\n      dup3\n      add\n      dup1\n      0x40\n      mstore\n      pop\n      dup2\n      add\n      swap1\n      tag_210\n      swap2\n      swap1\n      tag_112\n      jump\t// in\n    tag_210:\n      pop\n        /* \"W6/simpleAMM/src/simpleAMMV6ERC.sol\":2499:2572  _update(token0.balanceOf(address(this)), token1.balanceOf(address(this))) */\n      tag_211\n        /* \"W6/simpleAMM/src/simpleAMMV6ERC.sol\":2507:2513  token0 */\n      immutable(\"0xe9ec5ebbfe521ba5a70e4c2b13332e74dda4e055153dc29723307e62e8ed0f2a\")\n        /* \"W6/simpleAMM/src/simpleAMMV6ERC.sol\":2507:2523  token0.balanceOf */\n      0xffffffffffffffffffffffffffffffffffffffff\n      and\n      0x70a08231\n        /* \"W6/simpleAMM/src/simpleAMMV6ERC.sol\":2532:2536  this */\n      address\n        /* \"W6/simpleAMM/src/simpleAMMV6ERC.sol\":2507:2538  token0.balanceOf(address(this)) */\n      mload(0x40)\n      dup3\n      0xffffffff\n      and\n      0xe0\n      shl\n      dup2\n      mstore\n      0x04\n      add\n      tag_212\n      swap2\n      swap1\n      tag_144\n      jump\t// in\n    tag_212:\n      0x20\n      mload(0x40)\n      dup1\n      dup4\n      sub\n      dup2\n      dup7\n      gas\n      staticcall\n      iszero\n      dup1\n      iszero\n      tag_214\n      jumpi\n      returndatasize\n      0x00\n      dup1\n      returndatacopy\n      revert(0x00, returndatasize)\n    tag_214:\n      pop\n      pop\n      pop\n      pop\n      mload(0x40)\n      returndatasize\n      not(0x1f)\n      0x1f\n      dup3\n      add\n      and\n      dup3\n      add\n      dup1\n      0x40\n      mstore\n      pop\n      dup2\n      add\n      swap1\n      tag_215\n      swap2\n      swap1\n      tag_148\n      jump\t// in\n    tag_215:\n        /* \"W6/simpleAMM/src/simpleAMMV6ERC.sol\":2540:2546  token1 */\n      immutable(\"0x4bab0814faad1725fc18a3cfa3a1fcb95c36a46cacb7a7312c3d38e6b447adac\")\n        /* \"W6/simpleAMM/src/simpleAMMV6ERC.sol\":2540:2556  token1.balanceOf */\n      0xffffffffffffffffffffffffffffffffffffffff\n      and\n      0x70a08231\n        /* \"W6/simpleAMM/src/simpleAMMV6ERC.sol\":2565:2569  this */\n      address\n        /* \"W6/simpleAMM/src/simpleAMMV6ERC.sol\":2540:2571  token1.balanceOf(address(this)) */\n      mload(0x40)\n      dup3\n      0xffffffff\n      and\n      0xe0\n      shl\n      dup2\n      mstore\n      0x04\n      add\n      tag_216\n      swap2\n      swap1\n      tag_144\n      jump\t// in\n    tag_216:\n      0x20\n      mload(0x40)\n      dup1\n      dup4\n      sub\n      dup2\n      dup7\n      gas\n      staticcall\n      iszero\n      dup1\n      iszero\n      tag_218\n      jumpi\n      returndatasize\n      0x00\n      dup1\n      returndatacopy\n      revert(0x00, returndatasize)\n    tag_218:\n      pop\n      pop\n      pop\n      pop\n      mload(0x40)\n      returndatasize\n      not(0x1f)\n      0x1f\n      dup3\n      add\n      and\n      dup3\n      add\n      dup1\n      0x40\n      mstore\n      pop\n      dup2\n      add\n      swap1\n      tag_219\n      swap2\n      swap1\n      tag_148\n      jump\t// in\n    tag_219:\n        /* \"W6/simpleAMM/src/simpleAMMV6ERC.sol\":2499:2506  _update */\n      tag_153\n        /* \"W6/simpleAMM/src/simpleAMMV6ERC.sol\":2499:2572  _update(token0.balanceOf(address(this)), token1.balanceOf(address(this))) */\n      jump\t// in\n    tag_211:\n        /* \"W6/simpleAMM/src/simpleAMMV6ERC.sol\":1992:2580  { // T1/T0... */\n      pop\n      pop\n        /* \"W6/simpleAMM/src/simpleAMMV6ERC.sol\":1909:2580  function swapToken0ForToken1(uint256 _amountIn) public returns (uint256 amountOut) { // T1/T0... */\n      swap2\n      swap1\n      pop\n      jump\t// out\n        /* \"W6/simpleAMM/src/simpleAMMV6ERC.sol\":1293:1901  function swapToken1ForToken0(uint256 _amountIn) public returns (uint256 amountOut) { // T0/T1... */\n    tag_73:\n        /* \"W6/simpleAMM/src/simpleAMMV6ERC.sol\":1357:1374  uint256 amountOut */\n      0x00\n        /* \"W6/simpleAMM/src/simpleAMMV6ERC.sol\":1396:1402  token1 */\n      immutable(\"0x4bab0814faad1725fc18a3cfa3a1fcb95c36a46cacb7a7312c3d38e6b447adac\")\n        /* \"W6/simpleAMM/src/simpleAMMV6ERC.sol\":1396:1415  token1.transferFrom */\n      0xffffffffffffffffffffffffffffffffffffffff\n      and\n      0x23b872dd\n        /* \"W6/simpleAMM/src/simpleAMMV6ERC.sol\":1416:1426  msg.sender */\n      caller\n        /* \"W6/simpleAMM/src/simpleAMMV6ERC.sol\":1436:1440  this */\n      address\n        /* \"W6/simpleAMM/src/simpleAMMV6ERC.sol\":1443:1452  _amountIn */\n      dup6\n        /* \"W6/simpleAMM/src/simpleAMMV6ERC.sol\":1396:1453  token1.transferFrom(msg.sender, address(this), _amountIn) */\n      mload(0x40)\n      dup5\n      0xffffffff\n      and\n      0xe0\n      shl\n      dup2\n      mstore\n      0x04\n      add\n      tag_221\n      swap4\n      swap3\n      swap2\n      swap1\n      tag_108\n      jump\t// in\n    tag_221:\n      0x20\n      mload(0x40)\n      dup1\n      dup4\n      sub\n      dup2\n      0x00\n      dup8\n      gas\n      call\n      iszero\n      dup1\n      iszero\n      tag_223\n      jumpi\n      returndatasize\n      0x00\n      dup1\n      returndatacopy\n      revert(0x00, returndatasize)\n    tag_223:\n      pop\n      pop\n      pop\n      pop\n      mload(0x40)\n      returndatasize\n      not(0x1f)\n      0x1f\n      dup3\n      add\n      and\n      dup3\n      add\n      dup1\n      0x40\n      mstore\n      pop\n      dup2\n      add\n      swap1\n      tag_224\n      swap2\n      swap1\n      tag_112\n      jump\t// in\n    tag_224:\n      pop\n        /* \"W6/simpleAMM/src/simpleAMMV6ERC.sol\":1464:1487  uint256 amountInWithFee */\n      0x00\n        /* \"W6/simpleAMM/src/simpleAMMV6ERC.sol\":1510:1514  1000 */\n      0x03e8\n        /* \"W6/simpleAMM/src/simpleAMMV6ERC.sol\":1503:1506  997 */\n      0x03e5\n        /* \"W6/simpleAMM/src/simpleAMMV6ERC.sol\":1491:1500  _amountIn */\n      dup5\n        /* \"W6/simpleAMM/src/simpleAMMV6ERC.sol\":1491:1506  _amountIn * 997 */\n      tag_225\n      swap2\n      swap1\n      tag_114\n      jump\t// in\n    tag_225:\n        /* \"W6/simpleAMM/src/simpleAMMV6ERC.sol\":1490:1514  (_amountIn * 997) / 1000 */\n      tag_226\n      swap2\n      swap1\n      tag_116\n      jump\t// in\n    tag_226:\n        /* \"W6/simpleAMM/src/simpleAMMV6ERC.sol\":1464:1514  uint256 amountInWithFee = (_amountIn * 997) / 1000 */\n      swap1\n      pop\n        /* \"W6/simpleAMM/src/simpleAMMV6ERC.sol\":1580:1595  amountInWithFee */\n      dup1\n        /* \"W6/simpleAMM/src/simpleAMMV6ERC.sol\":1569:1577  reserve0 */\n      sload(0x01)\n        /* \"W6/simpleAMM/src/simpleAMMV6ERC.sol\":1569:1595  reserve0 + amountInWithFee */\n      tag_227\n      swap2\n      swap1\n      tag_118\n      jump\t// in\n    tag_227:\n        /* \"W6/simpleAMM/src/simpleAMMV6ERC.sol\":1549:1564  amountInWithFee */\n      dup2\n        /* \"W6/simpleAMM/src/simpleAMMV6ERC.sol\":1538:1546  reserve1 */\n      sload(0x02)\n        /* \"W6/simpleAMM/src/simpleAMMV6ERC.sol\":1538:1564  reserve1 * amountInWithFee */\n      tag_228\n      swap2\n      swap1\n      tag_114\n      jump\t// in\n    tag_228:\n        /* \"W6/simpleAMM/src/simpleAMMV6ERC.sol\":1537:1596  (reserve1 * amountInWithFee) / (reserve0 + amountInWithFee) */\n      tag_229\n      swap2\n      swap1\n      tag_116\n      jump\t// in\n    tag_229:\n        /* \"W6/simpleAMM/src/simpleAMMV6ERC.sol\":1525:1596  amountOut = (reserve1 * amountInWithFee) / (reserve0 + amountInWithFee) */\n      swap2\n      pop\n        /* \"W6/simpleAMM/src/simpleAMMV6ERC.sol\":1607:1629  uint256 feeToDeveloper */\n      0x00\n        /* \"W6/simpleAMM/src/simpleAMMV6ERC.sol\":1674:1678  2000 */\n      0x07d0\n        /* \"W6/simpleAMM/src/simpleAMMV6ERC.sol\":1663:1671  reserve0 */\n      sload(0x01)\n        /* \"W6/simpleAMM/src/simpleAMMV6ERC.sol\":1663:1678  reserve0 * 2000 */\n      tag_230\n      swap2\n      swap1\n      tag_114\n      jump\t// in\n    tag_230:\n        /* \"W6/simpleAMM/src/simpleAMMV6ERC.sol\":1648:1659  totalSupply */\n      sload(0x03)\n        /* \"W6/simpleAMM/src/simpleAMMV6ERC.sol\":1644:1645  3 */\n      0x03\n        /* \"W6/simpleAMM/src/simpleAMMV6ERC.sol\":1632:1641  _amountIn */\n      dup7\n        /* \"W6/simpleAMM/src/simpleAMMV6ERC.sol\":1632:1645  _amountIn * 3 */\n      tag_231\n      swap2\n      swap1\n      tag_114\n      jump\t// in\n    tag_231:\n        /* \"W6/simpleAMM/src/simpleAMMV6ERC.sol\":1632:1659  _amountIn * 3 * totalSupply */\n      tag_232\n      swap2\n      swap1\n      tag_114\n      jump\t// in\n    tag_232:\n        /* \"W6/simpleAMM/src/simpleAMMV6ERC.sol\":1632:1679  _amountIn * 3 * totalSupply / (reserve0 * 2000) */\n      tag_233\n      swap2\n      swap1\n      tag_116\n      jump\t// in\n    tag_233:\n        /* \"W6/simpleAMM/src/simpleAMMV6ERC.sol\":1607:1679  uint256 feeToDeveloper = _amountIn * 3 * totalSupply / (reserve0 * 2000) */\n      swap1\n      pop\n        /* \"W6/simpleAMM/src/simpleAMMV6ERC.sol\":1690:1722  _mint(developer, feeToDeveloper) */\n      tag_234\n        /* \"W6/simpleAMM/src/simpleAMMV6ERC.sol\":1696:1705  developer */\n      0x00\n      dup1\n      sload\n      swap1\n      0x0100\n      exp\n      swap1\n      div\n      0xffffffffffffffffffffffffffffffffffffffff\n      and\n        /* \"W6/simpleAMM/src/simpleAMMV6ERC.sol\":1707:1721  feeToDeveloper */\n      dup3\n        /* \"W6/simpleAMM/src/simpleAMMV6ERC.sol\":1690:1695  _mint */\n      tag_136\n        /* \"W6/simpleAMM/src/simpleAMMV6ERC.sol\":1690:1722  _mint(developer, feeToDeveloper) */\n      jump\t// in\n    tag_234:\n        /* \"W6/simpleAMM/src/simpleAMMV6ERC.sol\":1769:1775  token0 */\n      immutable(\"0xe9ec5ebbfe521ba5a70e4c2b13332e74dda4e055153dc29723307e62e8ed0f2a\")\n        /* \"W6/simpleAMM/src/simpleAMMV6ERC.sol\":1769:1784  token0.transfer */\n      0xffffffffffffffffffffffffffffffffffffffff\n      and\n      0xa9059cbb\n        /* \"W6/simpleAMM/src/simpleAMMV6ERC.sol\":1785:1795  msg.sender */\n      caller\n        /* \"W6/simpleAMM/src/simpleAMMV6ERC.sol\":1797:1806  amountOut */\n      dup6\n        /* \"W6/simpleAMM/src/simpleAMMV6ERC.sol\":1769:1807  token0.transfer(msg.sender, amountOut) */\n      mload(0x40)\n      dup4\n      0xffffffff\n      and\n      0xe0\n      shl\n      dup2\n      mstore\n      0x04\n      add\n      tag_235\n      swap3\n      swap2\n      swap1\n      tag_138\n      jump\t// in\n    tag_235:\n      0x20\n      mload(0x40)\n      dup1\n      dup4\n      sub\n      dup2\n      0x00\n      dup8\n      gas\n      call\n      iszero\n      dup1\n      iszero\n      tag_237\n      jumpi\n      returndatasize\n      0x00\n      dup1\n      returndatacopy\n      revert(0x00, returndatasize)\n    tag_237:\n      pop\n      pop\n      pop\n      pop\n      mload(0x40)\n      returndatasize\n      not(0x1f)\n      0x1f\n      dup3\n      add\n      and\n      dup3\n      add\n      dup1\n      0x40\n      mstore\n      pop\n      dup2\n      add\n      swap1\n      tag_238\n      swap2\n      swap1\n      tag_112\n      jump\t// in\n    tag_238:\n      pop\n        /* \"W6/simpleAMM/src/simpleAMMV6ERC.sol\":1820:1893  _update(token0.balanceOf(address(this)), token1.balanceOf(address(this))) */\n      tag_239\n        /* \"W6/simpleAMM/src/simpleAMMV6ERC.sol\":1828:1834  token0 */\n      immutable(\"0xe9ec5ebbfe521ba5a70e4c2b13332e74dda4e055153dc29723307e62e8ed0f2a\")\n        /* \"W6/simpleAMM/src/simpleAMMV6ERC.sol\":1828:1844  token0.balanceOf */\n      0xffffffffffffffffffffffffffffffffffffffff\n      and\n      0x70a08231\n        /* \"W6/simpleAMM/src/simpleAMMV6ERC.sol\":1853:1857  this */\n      address\n        /* \"W6/simpleAMM/src/simpleAMMV6ERC.sol\":1828:1859  token0.balanceOf(address(this)) */\n      mload(0x40)\n      dup3\n      0xffffffff\n      and\n      0xe0\n      shl\n      dup2\n      mstore\n      0x04\n      add\n      tag_240\n      swap2\n      swap1\n      tag_144\n      jump\t// in\n    tag_240:\n      0x20\n      mload(0x40)\n      dup1\n      dup4\n      sub\n      dup2\n      dup7\n      gas\n      staticcall\n      iszero\n      dup1\n      iszero\n      tag_242\n      jumpi\n      returndatasize\n      0x00\n      dup1\n      returndatacopy\n      revert(0x00, returndatasize)\n    tag_242:\n      pop\n      pop\n      pop\n      pop\n      mload(0x40)\n      returndatasize\n      not(0x1f)\n      0x1f\n      dup3\n      add\n      and\n      dup3\n      add\n      dup1\n      0x40\n      mstore\n      pop\n      dup2\n      add\n      swap1\n      tag_243\n      swap2\n      swap1\n      tag_148\n      jump\t// in\n    tag_243:\n        /* \"W6/simpleAMM/src/simpleAMMV6ERC.sol\":1861:1867  token1 */\n      immutable(\"0x4bab0814faad1725fc18a3cfa3a1fcb95c36a46cacb7a7312c3d38e6b447adac\")\n        /* \"W6/simpleAMM/src/simpleAMMV6ERC.sol\":1861:1877  token1.balanceOf */\n      0xffffffffffffffffffffffffffffffffffffffff\n      and\n      0x70a08231\n        /* \"W6/simpleAMM/src/simpleAMMV6ERC.sol\":1886:1890  this */\n      address\n        /* \"W6/simpleAMM/src/simpleAMMV6ERC.sol\":1861:1892  token1.balanceOf(address(this)) */\n      mload(0x40)\n      dup3\n      0xffffffff\n      and\n      0xe0\n      shl\n      dup2\n      mstore\n      0x04\n      add\n      tag_244\n      swap2\n      swap1\n      tag_144\n      jump\t// in\n    tag_244:\n      0x20\n      mload(0x40)\n      dup1\n      dup4\n      sub\n      dup2\n      dup7\n      gas\n      staticcall\n      iszero\n      dup1\n      iszero\n      tag_246\n      jumpi\n      returndatasize\n      0x00\n      dup1\n      returndatacopy\n      revert(0x00, returndatasize)\n    tag_246:\n      pop\n      pop\n      pop\n      pop\n      mload(0x40)\n      returndatasize\n      not(0x1f)\n      0x1f\n      dup3\n      add\n      and\n      dup3\n      add\n      dup1\n      0x40\n      mstore\n      pop\n      dup2\n      add\n      swap1\n      tag_247\n      swap2\n      swap1\n      tag_148\n      jump\t// in\n    tag_247:\n        /* \"W6/simpleAMM/src/simpleAMMV6ERC.sol\":1820:1827  _update */\n      tag_153\n        /* \"W6/simpleAMM/src/simpleAMMV6ERC.sol\":1820:1893  _update(token0.balanceOf(address(this)), token1.balanceOf(address(this))) */\n      jump\t// in\n    tag_239:\n        /* \"W6/simpleAMM/src/simpleAMMV6ERC.sol\":1376:1901  { // T0/T1... */\n      pop\n      pop\n        /* \"W6/simpleAMM/src/simpleAMMV6ERC.sol\":1293:1901  function swapToken1ForToken0(uint256 _amountIn) public returns (uint256 amountOut) { // T0/T1... */\n      swap2\n      swap1\n      pop\n      jump\t// out\n        /* \"W6/simpleAMM/src/simpleAMMV6ERC.sol\":5287:5520  function removeLiquidity(uint256 _shares) external returns (uint256 amount0, uint256 amount1) {... */\n    tag_77:\n        /* \"W6/simpleAMM/src/simpleAMMV6ERC.sol\":5347:5362  uint256 amount0 */\n      0x00\n        /* \"W6/simpleAMM/src/simpleAMMV6ERC.sol\":5364:5379  uint256 amount1 */\n      dup1\n        /* \"W6/simpleAMM/src/simpleAMMV6ERC.sol\":5411:5420  balanceOf */\n      0x04\n        /* \"W6/simpleAMM/src/simpleAMMV6ERC.sol\":5411:5432  balanceOf[msg.sender] */\n      0x00\n        /* \"W6/simpleAMM/src/simpleAMMV6ERC.sol\":5421:5431  msg.sender */\n      caller\n        /* \"W6/simpleAMM/src/simpleAMMV6ERC.sol\":5411:5432  balanceOf[msg.sender] */\n      0xffffffffffffffffffffffffffffffffffffffff\n      and\n      0xffffffffffffffffffffffffffffffffffffffff\n      and\n      dup2\n      mstore\n      0x20\n      add\n      swap1\n      dup2\n      mstore\n      0x20\n      add\n      0x00\n      keccak256\n      sload\n        /* \"W6/simpleAMM/src/simpleAMMV6ERC.sol\":5400:5407  _shares */\n      dup4\n        /* \"W6/simpleAMM/src/simpleAMMV6ERC.sol\":5400:5432  _shares <= balanceOf[msg.sender] */\n      gt\n      iszero\n        /* \"W6/simpleAMM/src/simpleAMMV6ERC.sol\":5392:5457  require(_shares <= balanceOf[msg.sender], \"Insufficient balance\") */\n      tag_249\n      jumpi\n      mload(0x40)\n      0x08c379a000000000000000000000000000000000000000000000000000000000\n      dup2\n      mstore\n      0x04\n      add\n      tag_250\n      swap1\n      tag_251\n      jump\t// in\n    tag_250:\n      mload(0x40)\n      dup1\n      swap2\n      sub\n      swap1\n      revert\n    tag_249:\n        /* \"W6/simpleAMM/src/simpleAMMV6ERC.sol\":5475:5512  _removeLiquidity(msg.sender, _shares) */\n      tag_252\n        /* \"W6/simpleAMM/src/simpleAMMV6ERC.sol\":5492:5502  msg.sender */\n      caller\n        /* \"W6/simpleAMM/src/simpleAMMV6ERC.sol\":5504:5511  _shares */\n      dup5\n        /* \"W6/simpleAMM/src/simpleAMMV6ERC.sol\":5475:5491  _removeLiquidity */\n      tag_189\n        /* \"W6/simpleAMM/src/simpleAMMV6ERC.sol\":5475:5512  _removeLiquidity(msg.sender, _shares) */\n      jump\t// in\n    tag_252:\n        /* \"W6/simpleAMM/src/simpleAMMV6ERC.sol\":5468:5512  return _removeLiquidity(msg.sender, _shares) */\n      swap2\n      pop\n      swap2\n      pop\n        /* \"W6/simpleAMM/src/simpleAMMV6ERC.sol\":5287:5520  function removeLiquidity(uint256 _shares) external returns (uint256 amount0, uint256 amount1) {... */\n      swap2\n      pop\n      swap2\n      jump\t// out\n        /* \"W6/simpleAMM/src/simpleAMMV6ERC.sol\":4284:5109  function addLiquidity(uint256 _amount0, uint256 _amount1) external returns (uint256 shares) {... */\n    tag_82:\n        /* \"W6/simpleAMM/src/simpleAMMV6ERC.sol\":4360:4374  uint256 shares */\n      0x00\n        /* \"W6/simpleAMM/src/simpleAMMV6ERC.sol\":4387:4393  token0 */\n      immutable(\"0xe9ec5ebbfe521ba5a70e4c2b13332e74dda4e055153dc29723307e62e8ed0f2a\")\n        /* \"W6/simpleAMM/src/simpleAMMV6ERC.sol\":4387:4406  token0.transferFrom */\n      0xffffffffffffffffffffffffffffffffffffffff\n      and\n      0x23b872dd\n        /* \"W6/simpleAMM/src/simpleAMMV6ERC.sol\":4407:4417  msg.sender */\n      caller\n        /* \"W6/simpleAMM/src/simpleAMMV6ERC.sol\":4427:4431  this */\n      address\n        /* \"W6/simpleAMM/src/simpleAMMV6ERC.sol\":4434:4442  _amount0 */\n      dup7\n        /* \"W6/simpleAMM/src/simpleAMMV6ERC.sol\":4387:4443  token0.transferFrom(msg.sender, address(this), _amount0) */\n      mload(0x40)\n      dup5\n      0xffffffff\n      and\n      0xe0\n      shl\n      dup2\n      mstore\n      0x04\n      add\n      tag_254\n      swap4\n      swap3\n      swap2\n      swap1\n      tag_108\n      jump\t// in\n    tag_254:\n      0x20\n      mload(0x40)\n      dup1\n      dup4\n      sub\n      dup2\n      0x00\n      dup8\n      gas\n      call\n      iszero\n      dup1\n      iszero\n      tag_256\n      jumpi\n      returndatasize\n      0x00\n      dup1\n      returndatacopy\n      revert(0x00, returndatasize)\n    tag_256:\n      pop\n      pop\n      pop\n      pop\n      mload(0x40)\n      returndatasize\n      not(0x1f)\n      0x1f\n      dup3\n      add\n      and\n      dup3\n      add\n      dup1\n      0x40\n      mstore\n      pop\n      dup2\n      add\n      swap1\n      tag_257\n      swap2\n      swap1\n      tag_112\n      jump\t// in\n    tag_257:\n      pop\n        /* \"W6/simpleAMM/src/simpleAMMV6ERC.sol\":4454:4460  token1 */\n      immutable(\"0x4bab0814faad1725fc18a3cfa3a1fcb95c36a46cacb7a7312c3d38e6b447adac\")\n        /* \"W6/simpleAMM/src/simpleAMMV6ERC.sol\":4454:4473  token1.transferFrom */\n      0xffffffffffffffffffffffffffffffffffffffff\n      and\n      0x23b872dd\n        /* \"W6/simpleAMM/src/simpleAMMV6ERC.sol\":4474:4484  msg.sender */\n      caller\n        /* \"W6/simpleAMM/src/simpleAMMV6ERC.sol\":4494:4498  this */\n      address\n        /* \"W6/simpleAMM/src/simpleAMMV6ERC.sol\":4501:4509  _amount1 */\n      dup6\n        /* \"W6/simpleAMM/src/simpleAMMV6ERC.sol\":4454:4510  token1.transferFrom(msg.sender, address(this), _amount1) */\n      mload(0x40)\n      dup5\n      0xffffffff\n      and\n      0xe0\n      shl\n      dup2\n      mstore\n      0x04\n      add\n      tag_258\n      swap4\n      swap3\n      swap2\n      swap1\n      tag_108\n      jump\t// in\n    tag_258:\n      0x20\n      mload(0x40)\n      dup1\n      dup4\n      sub\n      dup2\n      0x00\n      dup8\n      gas\n      call\n      iszero\n      dup1\n      iszero\n      tag_260\n      jumpi\n      returndatasize\n      0x00\n      dup1\n      returndatacopy\n      revert(0x00, returndatasize)\n    tag_260:\n      pop\n      pop\n      pop\n      pop\n      mload(0x40)\n      returndatasize\n      not(0x1f)\n      0x1f\n      dup3\n      add\n      and\n      dup3\n      add\n      dup1\n      0x40\n      mstore\n      pop\n      dup2\n      add\n      swap1\n      tag_261\n      swap2\n      swap1\n      tag_112\n      jump\t// in\n    tag_261:\n      pop\n        /* \"W6/simpleAMM/src/simpleAMMV6ERC.sol\":4538:4539  0 */\n      0x00\n        /* \"W6/simpleAMM/src/simpleAMMV6ERC.sol\":4527:4535  reserve0 */\n      sload(0x01)\n        /* \"W6/simpleAMM/src/simpleAMMV6ERC.sol\":4527:4539  reserve0 > 0 */\n      gt\n        /* \"W6/simpleAMM/src/simpleAMMV6ERC.sol\":4527:4555  reserve0 > 0 || reserve1 > 0 */\n      dup1\n      tag_262\n      jumpi\n      pop\n        /* \"W6/simpleAMM/src/simpleAMMV6ERC.sol\":4554:4555  0 */\n      0x00\n        /* \"W6/simpleAMM/src/simpleAMMV6ERC.sol\":4543:4551  reserve1 */\n      sload(0x02)\n        /* \"W6/simpleAMM/src/simpleAMMV6ERC.sol\":4543:4555  reserve1 > 0 */\n      gt\n        /* \"W6/simpleAMM/src/simpleAMMV6ERC.sol\":4527:4555  reserve0 > 0 || reserve1 > 0 */\n    tag_262:\n        /* \"W6/simpleAMM/src/simpleAMMV6ERC.sol\":4523:4667  if (reserve0 > 0 || reserve1 > 0) {... */\n      iszero\n      tag_263\n      jumpi\n        /* \"W6/simpleAMM/src/simpleAMMV6ERC.sol\":4616:4624  _amount1 */\n      dup2\n        /* \"W6/simpleAMM/src/simpleAMMV6ERC.sol\":4606:4614  reserve0 */\n      sload(0x01)\n        /* \"W6/simpleAMM/src/simpleAMMV6ERC.sol\":4606:4624  reserve0 *_amount1 */\n      tag_264\n      swap2\n      swap1\n      tag_114\n      jump\t// in\n    tag_264:\n        /* \"W6/simpleAMM/src/simpleAMMV6ERC.sol\":4592:4600  reserve1 */\n      sload(0x02)\n        /* \"W6/simpleAMM/src/simpleAMMV6ERC.sol\":4581:4589  _amount0 */\n      dup5\n        /* \"W6/simpleAMM/src/simpleAMMV6ERC.sol\":4581:4600  _amount0 * reserve1 */\n      tag_265\n      swap2\n      swap1\n      tag_114\n      jump\t// in\n    tag_265:\n        /* \"W6/simpleAMM/src/simpleAMMV6ERC.sol\":4580:4625  (_amount0 * reserve1) == (reserve0 *_amount1) */\n      eq\n        /* \"W6/simpleAMM/src/simpleAMMV6ERC.sol\":4572:4655  require((_amount0 * reserve1) == (reserve0 *_amount1)  , \"Invalid liquidity ratio\") */\n      tag_266\n      jumpi\n      mload(0x40)\n      0x08c379a000000000000000000000000000000000000000000000000000000000\n      dup2\n      mstore\n      0x04\n      add\n      tag_267\n      swap1\n      tag_268\n      jump\t// in\n    tag_267:\n      mload(0x40)\n      dup1\n      swap2\n      sub\n      swap1\n      revert\n    tag_266:\n        /* \"W6/simpleAMM/src/simpleAMMV6ERC.sol\":4523:4667  if (reserve0 > 0 || reserve1 > 0) {... */\n    tag_263:\n        /* \"W6/simpleAMM/src/simpleAMMV6ERC.sol\":4698:4699  0 */\n      0x00\n        /* \"W6/simpleAMM/src/simpleAMMV6ERC.sol\":4683:4694  totalSupply */\n      sload(0x03)\n        /* \"W6/simpleAMM/src/simpleAMMV6ERC.sol\":4683:4699  totalSupply == 0 */\n      sub\n        /* \"W6/simpleAMM/src/simpleAMMV6ERC.sol\":4679:4936  if (totalSupply == 0) {... */\n      tag_269\n      jumpi\n        /* \"W6/simpleAMM/src/simpleAMMV6ERC.sol\":4725:4751  _sqrt(_amount0 * _amount1) */\n      tag_270\n        /* \"W6/simpleAMM/src/simpleAMMV6ERC.sol\":4742:4750  _amount1 */\n      dup3\n        /* \"W6/simpleAMM/src/simpleAMMV6ERC.sol\":4731:4739  _amount0 */\n      dup5\n        /* \"W6/simpleAMM/src/simpleAMMV6ERC.sol\":4731:4750  _amount0 * _amount1 */\n      tag_271\n      swap2\n      swap1\n      tag_114\n      jump\t// in\n    tag_271:\n        /* \"W6/simpleAMM/src/simpleAMMV6ERC.sol\":4725:4730  _sqrt */\n      tag_272\n        /* \"W6/simpleAMM/src/simpleAMMV6ERC.sol\":4725:4751  _sqrt(_amount0 * _amount1) */\n      jump\t// in\n    tag_270:\n        /* \"W6/simpleAMM/src/simpleAMMV6ERC.sol\":4716:4751  shares = _sqrt(_amount0 * _amount1) */\n      swap1\n      pop\n        /* \"W6/simpleAMM/src/simpleAMMV6ERC.sol\":4679:4936  if (totalSupply == 0) {... */\n      jump(tag_273)\n    tag_269:\n        /* \"W6/simpleAMM/src/simpleAMMV6ERC.sol\":4793:4924  Math.min(... */\n      tag_274\n        /* \"W6/simpleAMM/src/simpleAMMV6ERC.sol\":4847:4855  reserve0 */\n      sload(0x01)\n        /* \"W6/simpleAMM/src/simpleAMMV6ERC.sol\":4832:4843  totalSupply */\n      sload(0x03)\n        /* \"W6/simpleAMM/src/simpleAMMV6ERC.sol\":4821:4829  _amount0 */\n      dup6\n        /* \"W6/simpleAMM/src/simpleAMMV6ERC.sol\":4821:4843  _amount0 * totalSupply */\n      tag_275\n      swap2\n      swap1\n      tag_114\n      jump\t// in\n    tag_275:\n        /* \"W6/simpleAMM/src/simpleAMMV6ERC.sol\":4820:4855  (_amount0 * totalSupply) / reserve0 */\n      tag_276\n      swap2\n      swap1\n      tag_116\n      jump\t// in\n    tag_276:\n        /* \"W6/simpleAMM/src/simpleAMMV6ERC.sol\":4901:4909  reserve1 */\n      sload(0x02)\n        /* \"W6/simpleAMM/src/simpleAMMV6ERC.sol\":4886:4897  totalSupply */\n      sload(0x03)\n        /* \"W6/simpleAMM/src/simpleAMMV6ERC.sol\":4875:4883  _amount1 */\n      dup6\n        /* \"W6/simpleAMM/src/simpleAMMV6ERC.sol\":4875:4897  _amount1 * totalSupply */\n      tag_277\n      swap2\n      swap1\n      tag_114\n      jump\t// in\n    tag_277:\n        /* \"W6/simpleAMM/src/simpleAMMV6ERC.sol\":4874:4909  (_amount1 * totalSupply) / reserve1 */\n      tag_278\n      swap2\n      swap1\n      tag_116\n      jump\t// in\n    tag_278:\n        /* \"W6/simpleAMM/src/simpleAMMV6ERC.sol\":4793:4801  Math.min */\n      tag_279\n        /* \"W6/simpleAMM/src/simpleAMMV6ERC.sol\":4793:4924  Math.min(... */\n      jump\t// in\n    tag_274:\n        /* \"W6/simpleAMM/src/simpleAMMV6ERC.sol\":4784:4924  shares = Math.min(... */\n      swap1\n      pop\n        /* \"W6/simpleAMM/src/simpleAMMV6ERC.sol\":4679:4936  if (totalSupply == 0) {... */\n    tag_273:\n        /* \"W6/simpleAMM/src/simpleAMMV6ERC.sol\":4963:4964  0 */\n      0x00\n        /* \"W6/simpleAMM/src/simpleAMMV6ERC.sol\":4954:4960  shares */\n      dup2\n        /* \"W6/simpleAMM/src/simpleAMMV6ERC.sol\":4954:4964  shares > 0 */\n      gt\n        /* \"W6/simpleAMM/src/simpleAMMV6ERC.sol\":4946:4979  require(shares > 0, \"shares = 0\") */\n      tag_280\n      jumpi\n      mload(0x40)\n      0x08c379a000000000000000000000000000000000000000000000000000000000\n      dup2\n      mstore\n      0x04\n      add\n      tag_281\n      swap1\n      tag_282\n      jump\t// in\n    tag_281:\n      mload(0x40)\n      dup1\n      swap2\n      sub\n      swap1\n      revert\n    tag_280:\n        /* \"W6/simpleAMM/src/simpleAMMV6ERC.sol\":4990:5015  _mint(msg.sender, shares) */\n      tag_283\n        /* \"W6/simpleAMM/src/simpleAMMV6ERC.sol\":4996:5006  msg.sender */\n      caller\n        /* \"W6/simpleAMM/src/simpleAMMV6ERC.sol\":5008:5014  shares */\n      dup3\n        /* \"W6/simpleAMM/src/simpleAMMV6ERC.sol\":4990:4995  _mint */\n      tag_136\n        /* \"W6/simpleAMM/src/simpleAMMV6ERC.sol\":4990:5015  _mint(msg.sender, shares) */\n      jump\t// in\n    tag_283:\n        /* \"W6/simpleAMM/src/simpleAMMV6ERC.sol\":5028:5101  _update(token0.balanceOf(address(this)), token1.balanceOf(address(this))) */\n      tag_284\n        /* \"W6/simpleAMM/src/simpleAMMV6ERC.sol\":5036:5042  token0 */\n      immutable(\"0xe9ec5ebbfe521ba5a70e4c2b13332e74dda4e055153dc29723307e62e8ed0f2a\")\n        /* \"W6/simpleAMM/src/simpleAMMV6ERC.sol\":5036:5052  token0.balanceOf */\n      0xffffffffffffffffffffffffffffffffffffffff\n      and\n      0x70a08231\n        /* \"W6/simpleAMM/src/simpleAMMV6ERC.sol\":5061:5065  this */\n      address\n        /* \"W6/simpleAMM/src/simpleAMMV6ERC.sol\":5036:5067  token0.balanceOf(address(this)) */\n      mload(0x40)\n      dup3\n      0xffffffff\n      and\n      0xe0\n      shl\n      dup2\n      mstore\n      0x04\n      add\n      tag_285\n      swap2\n      swap1\n      tag_144\n      jump\t// in\n    tag_285:\n      0x20\n      mload(0x40)\n      dup1\n      dup4\n      sub\n      dup2\n      dup7\n      gas\n      staticcall\n      iszero\n      dup1\n      iszero\n      tag_287\n      jumpi\n      returndatasize\n      0x00\n      dup1\n      returndatacopy\n      revert(0x00, returndatasize)\n    tag_287:\n      pop\n      pop\n      pop\n      pop\n      mload(0x40)\n      returndatasize\n      not(0x1f)\n      0x1f\n      dup3\n      add\n      and\n      dup3\n      add\n      dup1\n      0x40\n      mstore\n      pop\n      dup2\n      add\n      swap1\n      tag_288\n      swap2\n      swap1\n      tag_148\n      jump\t// in\n    tag_288:\n        /* \"W6/simpleAMM/src/simpleAMMV6ERC.sol\":5069:5075  token1 */\n      immutable(\"0x4bab0814faad1725fc18a3cfa3a1fcb95c36a46cacb7a7312c3d38e6b447adac\")\n        /* \"W6/simpleAMM/src/simpleAMMV6ERC.sol\":5069:5085  token1.balanceOf */\n      0xffffffffffffffffffffffffffffffffffffffff\n      and\n      0x70a08231\n        /* \"W6/simpleAMM/src/simpleAMMV6ERC.sol\":5094:5098  this */\n      address\n        /* \"W6/simpleAMM/src/simpleAMMV6ERC.sol\":5069:5100  token1.balanceOf(address(this)) */\n      mload(0x40)\n      dup3\n      0xffffffff\n      and\n      0xe0\n      shl\n      dup2\n      mstore\n      0x04\n      add\n      tag_289\n      swap2\n      swap1\n      tag_144\n      jump\t// in\n    tag_289:\n      0x20\n      mload(0x40)\n      dup1\n      dup4\n      sub\n      dup2\n      dup7\n      gas\n      staticcall\n      iszero\n      dup1\n      iszero\n      tag_291\n      jumpi\n      returndatasize\n      0x00\n      dup1\n      returndatacopy\n      revert(0x00, returndatasize)\n    tag_291:\n      pop\n      pop\n      pop\n      pop\n      mload(0x40)\n      returndatasize\n      not(0x1f)\n      0x1f\n      dup3\n      add\n      and\n      dup3\n      add\n      dup1\n      0x40\n      mstore\n      pop\n      dup2\n      add\n      swap1\n      tag_292\n      swap2\n      swap1\n      tag_148\n      jump\t// in\n    tag_292:\n        /* \"W6/simpleAMM/src/simpleAMMV6ERC.sol\":5028:5035  _update */\n      tag_153\n        /* \"W6/simpleAMM/src/simpleAMMV6ERC.sol\":5028:5101  _update(token0.balanceOf(address(this)), token1.balanceOf(address(this))) */\n      jump\t// in\n    tag_284:\n        /* \"W6/simpleAMM/src/simpleAMMV6ERC.sol\":4284:5109  function addLiquidity(uint256 _amount0, uint256 _amount1) external returns (uint256 shares) {... */\n      swap3\n      swap2\n      pop\n      pop\n      jump\t// out\n        /* \"W6/simpleAMM/src/simpleAMMV6ERC.sol\":6284:6381  function myShares() public view returns (uint256) {... */\n    tag_85:\n        /* \"W6/simpleAMM/src/simpleAMMV6ERC.sol\":6325:6332  uint256 */\n      0x00\n        /* \"W6/simpleAMM/src/simpleAMMV6ERC.sol\":6352:6361  balanceOf */\n      0x04\n        /* \"W6/simpleAMM/src/simpleAMMV6ERC.sol\":6352:6373  balanceOf[msg.sender] */\n      0x00\n        /* \"W6/simpleAMM/src/simpleAMMV6ERC.sol\":6362:6372  msg.sender */\n      caller\n        /* \"W6/simpleAMM/src/simpleAMMV6ERC.sol\":6352:6373  balanceOf[msg.sender] */\n      0xffffffffffffffffffffffffffffffffffffffff\n      and\n      0xffffffffffffffffffffffffffffffffffffffff\n      and\n      dup2\n      mstore\n      0x20\n      add\n      swap1\n      dup2\n      mstore\n      0x20\n      add\n      0x00\n      keccak256\n      sload\n        /* \"W6/simpleAMM/src/simpleAMMV6ERC.sol\":6345:6373  return balanceOf[msg.sender] */\n      swap1\n      pop\n        /* \"W6/simpleAMM/src/simpleAMMV6ERC.sol\":6284:6381  function myShares() public view returns (uint256) {... */\n      swap1\n      jump\t// out\n        /* \"W6/simpleAMM/src/simpleAMMV6ERC.sol\":3433:4276  function swapToken0ForToken1_WithSlipLock(... */\n    tag_89:\n        /* \"W6/simpleAMM/src/simpleAMMV6ERC.sol\":3587:3604  uint256 amountOut */\n      0x00\n        /* \"W6/simpleAMM/src/simpleAMMV6ERC.sol\":3617:3623  token0 */\n      immutable(\"0xe9ec5ebbfe521ba5a70e4c2b13332e74dda4e055153dc29723307e62e8ed0f2a\")\n        /* \"W6/simpleAMM/src/simpleAMMV6ERC.sol\":3617:3636  token0.transferFrom */\n      0xffffffffffffffffffffffffffffffffffffffff\n      and\n      0x23b872dd\n        /* \"W6/simpleAMM/src/simpleAMMV6ERC.sol\":3637:3647  msg.sender */\n      caller\n        /* \"W6/simpleAMM/src/simpleAMMV6ERC.sol\":3657:3661  this */\n      address\n        /* \"W6/simpleAMM/src/simpleAMMV6ERC.sol\":3664:3673  _amountIn */\n      dup8\n        /* \"W6/simpleAMM/src/simpleAMMV6ERC.sol\":3617:3674  token0.transferFrom(msg.sender, address(this), _amountIn) */\n      mload(0x40)\n      dup5\n      0xffffffff\n      and\n      0xe0\n      shl\n      dup2\n      mstore\n      0x04\n      add\n      tag_295\n      swap4\n      swap3\n      swap2\n      swap1\n      tag_108\n      jump\t// in\n    tag_295:\n      0x20\n      mload(0x40)\n      dup1\n      dup4\n      sub\n      dup2\n      0x00\n      dup8\n      gas\n      call\n      iszero\n      dup1\n      iszero\n      tag_297\n      jumpi\n      returndatasize\n      0x00\n      dup1\n      returndatacopy\n      revert(0x00, returndatasize)\n    tag_297:\n      pop\n      pop\n      pop\n      pop\n      mload(0x40)\n      returndatasize\n      not(0x1f)\n      0x1f\n      dup3\n      add\n      and\n      dup3\n      add\n      dup1\n      0x40\n      mstore\n      pop\n      dup2\n      add\n      swap1\n      tag_298\n      swap2\n      swap1\n      tag_112\n      jump\t// in\n    tag_298:\n      pop\n        /* \"W6/simpleAMM/src/simpleAMMV6ERC.sol\":3685:3708  uint256 amountInWithFee */\n      0x00\n        /* \"W6/simpleAMM/src/simpleAMMV6ERC.sol\":3731:3735  1000 */\n      0x03e8\n        /* \"W6/simpleAMM/src/simpleAMMV6ERC.sol\":3724:3727  997 */\n      0x03e5\n        /* \"W6/simpleAMM/src/simpleAMMV6ERC.sol\":3712:3721  _amountIn */\n      dup7\n        /* \"W6/simpleAMM/src/simpleAMMV6ERC.sol\":3712:3727  _amountIn * 997 */\n      tag_299\n      swap2\n      swap1\n      tag_114\n      jump\t// in\n    tag_299:\n        /* \"W6/simpleAMM/src/simpleAMMV6ERC.sol\":3711:3735  (_amountIn * 997) / 1000 */\n      tag_300\n      swap2\n      swap1\n      tag_116\n      jump\t// in\n    tag_300:\n        /* \"W6/simpleAMM/src/simpleAMMV6ERC.sol\":3685:3735  uint256 amountInWithFee = (_amountIn * 997) / 1000 */\n      swap1\n      pop\n        /* \"W6/simpleAMM/src/simpleAMMV6ERC.sol\":3803:3818  amountInWithFee */\n      dup1\n        /* \"W6/simpleAMM/src/simpleAMMV6ERC.sol\":3792:3800  reserve0 */\n      sload(0x01)\n        /* \"W6/simpleAMM/src/simpleAMMV6ERC.sol\":3792:3818  reserve0 + amountInWithFee */\n      tag_301\n      swap2\n      swap1\n      tag_118\n      jump\t// in\n    tag_301:\n        /* \"W6/simpleAMM/src/simpleAMMV6ERC.sol\":3772:3787  amountInWithFee */\n      dup2\n        /* \"W6/simpleAMM/src/simpleAMMV6ERC.sol\":3761:3769  reserve1 */\n      sload(0x02)\n        /* \"W6/simpleAMM/src/simpleAMMV6ERC.sol\":3761:3787  reserve1 * amountInWithFee */\n      tag_302\n      swap2\n      swap1\n      tag_114\n      jump\t// in\n    tag_302:\n        /* \"W6/simpleAMM/src/simpleAMMV6ERC.sol\":3760:3819  (reserve1 * amountInWithFee) / (reserve0 + amountInWithFee) */\n      tag_303\n      swap2\n      swap1\n      tag_116\n      jump\t// in\n    tag_303:\n        /* \"W6/simpleAMM/src/simpleAMMV6ERC.sol\":3748:3819  amountOut = (reserve1 * amountInWithFee) / (reserve0 + amountInWithFee) */\n      swap2\n      pop\n        /* \"W6/simpleAMM/src/simpleAMMV6ERC.sol\":3850:3851  0 */\n      0x00\n        /* \"W6/simpleAMM/src/simpleAMMV6ERC.sol\":3838:3847  amountOut */\n      dup3\n        /* \"W6/simpleAMM/src/simpleAMMV6ERC.sol\":3838:3851  amountOut > 0 */\n      gt\n        /* \"W6/simpleAMM/src/simpleAMMV6ERC.sol\":3830:3882  require(amountOut > 0, \"Insufficient output amount\") */\n      tag_304\n      jumpi\n      mload(0x40)\n      0x08c379a000000000000000000000000000000000000000000000000000000000\n      dup2\n      mstore\n      0x04\n      add\n      tag_305\n      swap1\n      tag_123\n      jump\t// in\n    tag_305:\n      mload(0x40)\n      dup1\n      swap2\n      sub\n      swap1\n      revert\n    tag_304:\n        /* \"W6/simpleAMM/src/simpleAMMV6ERC.sol\":3953:3957  1000 */\n      0x03e8\n        /* \"W6/simpleAMM/src/simpleAMMV6ERC.sol\":3940:3949  _slipLock */\n      dup4\n        /* \"W6/simpleAMM/src/simpleAMMV6ERC.sol\":3933:3937  1000 */\n      0x03e8\n        /* \"W6/simpleAMM/src/simpleAMMV6ERC.sol\":3933:3949  1000 - _slipLock */\n      tag_306\n      swap2\n      swap1\n      tag_125\n      jump\t// in\n    tag_306:\n        /* \"W6/simpleAMM/src/simpleAMMV6ERC.sol\":3915:3929  _forwardOutput */\n      dup6\n        /* \"W6/simpleAMM/src/simpleAMMV6ERC.sol\":3915:3950  _forwardOutput * (1000 - _slipLock) */\n      tag_307\n      swap2\n      swap1\n      tag_114\n      jump\t// in\n    tag_307:\n        /* \"W6/simpleAMM/src/simpleAMMV6ERC.sol\":3915:3957  _forwardOutput * (1000 - _slipLock) / 1000 */\n      tag_308\n      swap2\n      swap1\n      tag_116\n      jump\t// in\n    tag_308:\n        /* \"W6/simpleAMM/src/simpleAMMV6ERC.sol\":3901:3910  amountOut */\n      dup3\n        /* \"W6/simpleAMM/src/simpleAMMV6ERC.sol\":3901:3958  amountOut >= (_forwardOutput * (1000 - _slipLock) / 1000) */\n      lt\n      iszero\n        /* \"W6/simpleAMM/src/simpleAMMV6ERC.sol\":3893:3971  require(amountOut >= (_forwardOutput * (1000 - _slipLock) / 1000), \"SlipLock\") */\n      tag_309\n      jumpi\n      mload(0x40)\n      0x08c379a000000000000000000000000000000000000000000000000000000000\n      dup2\n      mstore\n      0x04\n      add\n      tag_310\n      swap1\n      tag_130\n      jump\t// in\n    tag_310:\n      mload(0x40)\n      dup1\n      swap2\n      sub\n      swap1\n      revert\n    tag_309:\n        /* \"W6/simpleAMM/src/simpleAMMV6ERC.sol\":3982:4004  uint256 feeToDeveloper */\n      0x00\n        /* \"W6/simpleAMM/src/simpleAMMV6ERC.sol\":4049:4053  2000 */\n      0x07d0\n        /* \"W6/simpleAMM/src/simpleAMMV6ERC.sol\":4038:4046  reserve0 */\n      sload(0x01)\n        /* \"W6/simpleAMM/src/simpleAMMV6ERC.sol\":4038:4053  reserve0 * 2000 */\n      tag_311\n      swap2\n      swap1\n      tag_114\n      jump\t// in\n    tag_311:\n        /* \"W6/simpleAMM/src/simpleAMMV6ERC.sol\":4023:4034  totalSupply */\n      sload(0x03)\n        /* \"W6/simpleAMM/src/simpleAMMV6ERC.sol\":4019:4020  3 */\n      0x03\n        /* \"W6/simpleAMM/src/simpleAMMV6ERC.sol\":4007:4016  _amountIn */\n      dup9\n        /* \"W6/simpleAMM/src/simpleAMMV6ERC.sol\":4007:4020  _amountIn * 3 */\n      tag_312\n      swap2\n      swap1\n      tag_114\n      jump\t// in\n    tag_312:\n        /* \"W6/simpleAMM/src/simpleAMMV6ERC.sol\":4007:4034  _amountIn * 3 * totalSupply */\n      tag_313\n      swap2\n      swap1\n      tag_114\n      jump\t// in\n    tag_313:\n        /* \"W6/simpleAMM/src/simpleAMMV6ERC.sol\":4007:4054  _amountIn * 3 * totalSupply / (reserve0 * 2000) */\n      tag_314\n      swap2\n      swap1\n      tag_116\n      jump\t// in\n    tag_314:\n        /* \"W6/simpleAMM/src/simpleAMMV6ERC.sol\":3982:4054  uint256 feeToDeveloper = _amountIn * 3 * totalSupply / (reserve0 * 2000) */\n      swap1\n      pop\n        /* \"W6/simpleAMM/src/simpleAMMV6ERC.sol\":4065:4097  _mint(developer, feeToDeveloper) */\n      tag_315\n        /* \"W6/simpleAMM/src/simpleAMMV6ERC.sol\":4071:4080  developer */\n      0x00\n      dup1\n      sload\n      swap1\n      0x0100\n      exp\n      swap1\n      div\n      0xffffffffffffffffffffffffffffffffffffffff\n      and\n        /* \"W6/simpleAMM/src/simpleAMMV6ERC.sol\":4082:4096  feeToDeveloper */\n      dup3\n        /* \"W6/simpleAMM/src/simpleAMMV6ERC.sol\":4065:4070  _mint */\n      tag_136\n        /* \"W6/simpleAMM/src/simpleAMMV6ERC.sol\":4065:4097  _mint(developer, feeToDeveloper) */\n      jump\t// in\n    tag_315:\n        /* \"W6/simpleAMM/src/simpleAMMV6ERC.sol\":4144:4150  token1 */\n      immutable(\"0x4bab0814faad1725fc18a3cfa3a1fcb95c36a46cacb7a7312c3d38e6b447adac\")\n        /* \"W6/simpleAMM/src/simpleAMMV6ERC.sol\":4144:4159  token1.transfer */\n      0xffffffffffffffffffffffffffffffffffffffff\n      and\n      0xa9059cbb\n        /* \"W6/simpleAMM/src/simpleAMMV6ERC.sol\":4160:4170  msg.sender */\n      caller\n        /* \"W6/simpleAMM/src/simpleAMMV6ERC.sol\":4172:4181  amountOut */\n      dup6\n        /* \"W6/simpleAMM/src/simpleAMMV6ERC.sol\":4144:4182  token1.transfer(msg.sender, amountOut) */\n      mload(0x40)\n      dup4\n      0xffffffff\n      and\n      0xe0\n      shl\n      dup2\n      mstore\n      0x04\n      add\n      tag_316\n      swap3\n      swap2\n      swap1\n      tag_138\n      jump\t// in\n    tag_316:\n      0x20\n      mload(0x40)\n      dup1\n      dup4\n      sub\n      dup2\n      0x00\n      dup8\n      gas\n      call\n      iszero\n      dup1\n      iszero\n      tag_318\n      jumpi\n      returndatasize\n      0x00\n      dup1\n      returndatacopy\n      revert(0x00, returndatasize)\n    tag_318:\n      pop\n      pop\n      pop\n      pop\n      mload(0x40)\n      returndatasize\n      not(0x1f)\n      0x1f\n      dup3\n      add\n      and\n      dup3\n      add\n      dup1\n      0x40\n      mstore\n      pop\n      dup2\n      add\n      swap1\n      tag_319\n      swap2\n      swap1\n      tag_112\n      jump\t// in\n    tag_319:\n      pop\n        /* \"W6/simpleAMM/src/simpleAMMV6ERC.sol\":4195:4268  _update(token0.balanceOf(address(this)), token1.balanceOf(address(this))) */\n      tag_320\n        /* \"W6/simpleAMM/src/simpleAMMV6ERC.sol\":4203:4209  token0 */\n      immutable(\"0xe9ec5ebbfe521ba5a70e4c2b13332e74dda4e055153dc29723307e62e8ed0f2a\")\n        /* \"W6/simpleAMM/src/simpleAMMV6ERC.sol\":4203:4219  token0.balanceOf */\n      0xffffffffffffffffffffffffffffffffffffffff\n      and\n      0x70a08231\n        /* \"W6/simpleAMM/src/simpleAMMV6ERC.sol\":4228:4232  this */\n      address\n        /* \"W6/simpleAMM/src/simpleAMMV6ERC.sol\":4203:4234  token0.balanceOf(address(this)) */\n      mload(0x40)\n      dup3\n      0xffffffff\n      and\n      0xe0\n      shl\n      dup2\n      mstore\n      0x04\n      add\n      tag_321\n      swap2\n      swap1\n      tag_144\n      jump\t// in\n    tag_321:\n      0x20\n      mload(0x40)\n      dup1\n      dup4\n      sub\n      dup2\n      dup7\n      gas\n      staticcall\n      iszero\n      dup1\n      iszero\n      tag_323\n      jumpi\n      returndatasize\n      0x00\n      dup1\n      returndatacopy\n      revert(0x00, returndatasize)\n    tag_323:\n      pop\n      pop\n      pop\n      pop\n      mload(0x40)\n      returndatasize\n      not(0x1f)\n      0x1f\n      dup3\n      add\n      and\n      dup3\n      add\n      dup1\n      0x40\n      mstore\n      pop\n      dup2\n      add\n      swap1\n      tag_324\n      swap2\n      swap1\n      tag_148\n      jump\t// in\n    tag_324:\n        /* \"W6/simpleAMM/src/simpleAMMV6ERC.sol\":4236:4242  token1 */\n      immutable(\"0x4bab0814faad1725fc18a3cfa3a1fcb95c36a46cacb7a7312c3d38e6b447adac\")\n        /* \"W6/simpleAMM/src/simpleAMMV6ERC.sol\":4236:4252  token1.balanceOf */\n      0xffffffffffffffffffffffffffffffffffffffff\n      and\n      0x70a08231\n        /* \"W6/simpleAMM/src/simpleAMMV6ERC.sol\":4261:4265  this */\n      address\n        /* \"W6/simpleAMM/src/simpleAMMV6ERC.sol\":4236:4267  token1.balanceOf(address(this)) */\n      mload(0x40)\n      dup3\n      0xffffffff\n      and\n      0xe0\n      shl\n      dup2\n      mstore\n      0x04\n      add\n      tag_325\n      swap2\n      swap1\n      tag_144\n      jump\t// in\n    tag_325:\n      0x20\n      mload(0x40)\n      dup1\n      dup4\n      sub\n      dup2\n      dup7\n      gas\n      staticcall\n      iszero\n      dup1\n      iszero\n      tag_327\n      jumpi\n      returndatasize\n      0x00\n      dup1\n      returndatacopy\n      revert(0x00, returndatasize)\n    tag_327:\n      pop\n      pop\n      pop\n      pop\n      mload(0x40)\n      returndatasize\n      not(0x1f)\n      0x1f\n      dup3\n      add\n      and\n      dup3\n      add\n      dup1\n      0x40\n      mstore\n      pop\n      dup2\n      add\n      swap1\n      tag_328\n      swap2\n      swap1\n      tag_148\n      jump\t// in\n    tag_328:\n        /* \"W6/simpleAMM/src/simpleAMMV6ERC.sol\":4195:4202  _update */\n      tag_153\n        /* \"W6/simpleAMM/src/simpleAMMV6ERC.sol\":4195:4268  _update(token0.balanceOf(address(this)), token1.balanceOf(address(this))) */\n      jump\t// in\n    tag_320:\n        /* \"W6/simpleAMM/src/simpleAMMV6ERC.sol\":3606:4276  {... */\n      pop\n      pop\n        /* \"W6/simpleAMM/src/simpleAMMV6ERC.sol\":3433:4276  function swapToken0ForToken1_WithSlipLock(... */\n      swap4\n      swap3\n      pop\n      pop\n      pop\n      jump\t// out\n        /* \"W6/simpleAMM/src/simpleAMMV6ERC.sol\":5528:5766  function removeLiquidity(address _user, uint256 _shares) external returns (uint256 amount0, uint256 amount1) {... */\n    tag_94:\n        /* \"W6/simpleAMM/src/simpleAMMV6ERC.sol\":5603:5618  uint256 amount0 */\n      0x00\n        /* \"W6/simpleAMM/src/simpleAMMV6ERC.sol\":5620:5635  uint256 amount1 */\n      dup1\n        /* \"W6/simpleAMM/src/simpleAMMV6ERC.sol\":5667:5676  balanceOf */\n      0x04\n        /* \"W6/simpleAMM/src/simpleAMMV6ERC.sol\":5667:5683  balanceOf[_user] */\n      0x00\n        /* \"W6/simpleAMM/src/simpleAMMV6ERC.sol\":5677:5682  _user */\n      dup6\n        /* \"W6/simpleAMM/src/simpleAMMV6ERC.sol\":5667:5683  balanceOf[_user] */\n      0xffffffffffffffffffffffffffffffffffffffff\n      and\n      0xffffffffffffffffffffffffffffffffffffffff\n      and\n      dup2\n      mstore\n      0x20\n      add\n      swap1\n      dup2\n      mstore\n      0x20\n      add\n      0x00\n      keccak256\n      sload\n        /* \"W6/simpleAMM/src/simpleAMMV6ERC.sol\":5656:5663  _shares */\n      dup4\n        /* \"W6/simpleAMM/src/simpleAMMV6ERC.sol\":5656:5683  _shares <= balanceOf[_user] */\n      gt\n      iszero\n        /* \"W6/simpleAMM/src/simpleAMMV6ERC.sol\":5648:5708  require(_shares <= balanceOf[_user], \"Insufficient balance\") */\n      tag_330\n      jumpi\n      mload(0x40)\n      0x08c379a000000000000000000000000000000000000000000000000000000000\n      dup2\n      mstore\n      0x04\n      add\n      tag_331\n      swap1\n      tag_251\n      jump\t// in\n    tag_331:\n      mload(0x40)\n      dup1\n      swap2\n      sub\n      swap1\n      revert\n    tag_330:\n        /* \"W6/simpleAMM/src/simpleAMMV6ERC.sol\":5726:5758  _removeLiquidity(_user, _shares) */\n      tag_332\n        /* \"W6/simpleAMM/src/simpleAMMV6ERC.sol\":5743:5748  _user */\n      dup5\n        /* \"W6/simpleAMM/src/simpleAMMV6ERC.sol\":5750:5757  _shares */\n      dup5\n        /* \"W6/simpleAMM/src/simpleAMMV6ERC.sol\":5726:5742  _removeLiquidity */\n      tag_189\n        /* \"W6/simpleAMM/src/simpleAMMV6ERC.sol\":5726:5758  _removeLiquidity(_user, _shares) */\n      jump\t// in\n    tag_332:\n        /* \"W6/simpleAMM/src/simpleAMMV6ERC.sol\":5719:5758  return _removeLiquidity(_user, _shares) */\n      swap2\n      pop\n      swap2\n      pop\n        /* \"W6/simpleAMM/src/simpleAMMV6ERC.sol\":5528:5766  function removeLiquidity(address _user, uint256 _shares) external returns (uint256 amount0, uint256 amount1) {... */\n      swap3\n      pop\n      swap3\n      swap1\n      pop\n      jump\t// out\n        /* \"W6/simpleAMM/src/simpleAMMV6ERC.sol\":7080:7335  function getToken1Price() public view returns (uint256) {... */\n    tag_97:\n        /* \"W6/simpleAMM/src/simpleAMMV6ERC.sol\":7127:7134  uint256 */\n      0x00\n        /* \"W6/simpleAMM/src/simpleAMMV6ERC.sol\":7166:7167  0 */\n      dup1\n        /* \"W6/simpleAMM/src/simpleAMMV6ERC.sol\":7155:7163  reserve0 */\n      sload(0x01)\n        /* \"W6/simpleAMM/src/simpleAMMV6ERC.sol\":7155:7167  reserve0 > 0 */\n      gt\n        /* \"W6/simpleAMM/src/simpleAMMV6ERC.sol\":7155:7183  reserve0 > 0 && reserve1 > 0 */\n      dup1\n      iszero\n      tag_334\n      jumpi\n      pop\n        /* \"W6/simpleAMM/src/simpleAMMV6ERC.sol\":7182:7183  0 */\n      0x00\n        /* \"W6/simpleAMM/src/simpleAMMV6ERC.sol\":7171:7179  reserve1 */\n      sload(0x02)\n        /* \"W6/simpleAMM/src/simpleAMMV6ERC.sol\":7171:7183  reserve1 > 0 */\n      gt\n        /* \"W6/simpleAMM/src/simpleAMMV6ERC.sol\":7155:7183  reserve0 > 0 && reserve1 > 0 */\n    tag_334:\n        /* \"W6/simpleAMM/src/simpleAMMV6ERC.sol\":7147:7204  require(reserve0 > 0 && reserve1 > 0, \"Invalid reserves\") */\n      tag_335\n      jumpi\n      mload(0x40)\n      0x08c379a000000000000000000000000000000000000000000000000000000000\n      dup2\n      mstore\n      0x04\n      add\n      tag_336\n      swap1\n      tag_159\n      jump\t// in\n    tag_336:\n      mload(0x40)\n      dup1\n      swap2\n      sub\n      swap1\n      revert\n    tag_335:\n        /* \"W6/simpleAMM/src/simpleAMMV6ERC.sol\":7215:7232  uint256 decimals0 */\n      0x00\n        /* \"W6/simpleAMM/src/simpleAMMV6ERC.sol\":7249:7255  token0 */\n      immutable(\"0xe9ec5ebbfe521ba5a70e4c2b13332e74dda4e055153dc29723307e62e8ed0f2a\")\n        /* \"W6/simpleAMM/src/simpleAMMV6ERC.sol\":7235:7266  ERC20(address(token0)).decimals */\n      0xffffffffffffffffffffffffffffffffffffffff\n      and\n      0x313ce567\n        /* \"W6/simpleAMM/src/simpleAMMV6ERC.sol\":7235:7268  ERC20(address(token0)).decimals() */\n      mload(0x40)\n      dup2\n      0xffffffff\n      and\n      0xe0\n      shl\n      dup2\n      mstore\n      0x04\n      add\n      0x20\n      mload(0x40)\n      dup1\n      dup4\n      sub\n      dup2\n      dup7\n      gas\n      staticcall\n      iszero\n      dup1\n      iszero\n      tag_338\n      jumpi\n      returndatasize\n      0x00\n      dup1\n      returndatacopy\n      revert(0x00, returndatasize)\n    tag_338:\n      pop\n      pop\n      pop\n      pop\n      mload(0x40)\n      returndatasize\n      not(0x1f)\n      0x1f\n      dup3\n      add\n      and\n      dup3\n      add\n      dup1\n      0x40\n      mstore\n      pop\n      dup2\n      add\n      swap1\n      tag_339\n      swap2\n      swap1\n      tag_172\n      jump\t// in\n    tag_339:\n        /* \"W6/simpleAMM/src/simpleAMMV6ERC.sol\":7215:7268  uint256 decimals0 = ERC20(address(token0)).decimals() */\n      0xff\n      and\n      swap1\n      pop\n        /* \"W6/simpleAMM/src/simpleAMMV6ERC.sol\":7318:7326  reserve0 */\n      sload(0x01)\n        /* \"W6/simpleAMM/src/simpleAMMV6ERC.sol\":7303:7312  decimals0 */\n      dup2\n        /* \"W6/simpleAMM/src/simpleAMMV6ERC.sol\":7299:7301  10 */\n      0x0a\n        /* \"W6/simpleAMM/src/simpleAMMV6ERC.sol\":7299:7312  10**decimals0 */\n      tag_340\n      swap2\n      swap1\n      tag_174\n      jump\t// in\n    tag_340:\n        /* \"W6/simpleAMM/src/simpleAMMV6ERC.sol\":7287:7295  reserve1 */\n      sload(0x02)\n        /* \"W6/simpleAMM/src/simpleAMMV6ERC.sol\":7287:7313  reserve1 * (10**decimals0) */\n      tag_341\n      swap2\n      swap1\n      tag_114\n      jump\t// in\n    tag_341:\n        /* \"W6/simpleAMM/src/simpleAMMV6ERC.sol\":7286:7327  (reserve1 * (10**decimals0)) / (reserve0) */\n      tag_342\n      swap2\n      swap1\n      tag_116\n      jump\t// in\n    tag_342:\n        /* \"W6/simpleAMM/src/simpleAMMV6ERC.sol\":7279:7327  return (reserve1 * (10**decimals0)) / (reserve0) */\n      swap2\n      pop\n      pop\n        /* \"W6/simpleAMM/src/simpleAMMV6ERC.sol\":7080:7335  function getToken1Price() public view returns (uint256) {... */\n      swap1\n      jump\t// out\n        /* \"W6/simpleAMM/src/simpleAMMV6ERC.sol\":520:550  IERC20 public immutable token1 */\n    tag_100:\n      immutable(\"0x4bab0814faad1725fc18a3cfa3a1fcb95c36a46cacb7a7312c3d38e6b447adac\")\n      dup2\n      jump\t// out\n        /* \"W6/simpleAMM/src/simpleAMMV6ERC.sol\":6387:6492  function sharesOf(address _user) public view returns (uint256) {... */\n    tag_104:\n        /* \"W6/simpleAMM/src/simpleAMMV6ERC.sol\":6441:6448  uint256 */\n      0x00\n        /* \"W6/simpleAMM/src/simpleAMMV6ERC.sol\":6468:6477  balanceOf */\n      0x04\n        /* \"W6/simpleAMM/src/simpleAMMV6ERC.sol\":6468:6484  balanceOf[_user] */\n      0x00\n        /* \"W6/simpleAMM/src/simpleAMMV6ERC.sol\":6478:6483  _user */\n      dup4\n        /* \"W6/simpleAMM/src/simpleAMMV6ERC.sol\":6468:6484  balanceOf[_user] */\n      0xffffffffffffffffffffffffffffffffffffffff\n      and\n      0xffffffffffffffffffffffffffffffffffffffff\n      and\n      dup2\n      mstore\n      0x20\n      add\n      swap1\n      dup2\n      mstore\n      0x20\n      add\n      0x00\n      keccak256\n      sload\n        /* \"W6/simpleAMM/src/simpleAMMV6ERC.sol\":6461:6484  return balanceOf[_user] */\n      swap1\n      pop\n        /* \"W6/simpleAMM/src/simpleAMMV6ERC.sol\":6387:6492  function sharesOf(address _user) public view returns (uint256) {... */\n      swap2\n      swap1\n      pop\n      jump\t// out\n        /* \"W6/simpleAMM/src/simpleAMMV6ERC.sol\":872:1002  function _mint(address _to, uint256 _amount) private {... */\n    tag_136:\n        /* \"W6/simpleAMM/src/simpleAMMV6ERC.sol\":954:961  _amount */\n      dup1\n        /* \"W6/simpleAMM/src/simpleAMMV6ERC.sol\":936:945  balanceOf */\n      0x04\n        /* \"W6/simpleAMM/src/simpleAMMV6ERC.sol\":936:950  balanceOf[_to] */\n      0x00\n        /* \"W6/simpleAMM/src/simpleAMMV6ERC.sol\":946:949  _to */\n      dup5\n        /* \"W6/simpleAMM/src/simpleAMMV6ERC.sol\":936:950  balanceOf[_to] */\n      0xffffffffffffffffffffffffffffffffffffffff\n      and\n      0xffffffffffffffffffffffffffffffffffffffff\n      and\n      dup2\n      mstore\n      0x20\n      add\n      swap1\n      dup2\n      mstore\n      0x20\n      add\n      0x00\n      keccak256\n      0x00\n        /* \"W6/simpleAMM/src/simpleAMMV6ERC.sol\":936:961  balanceOf[_to] += _amount */\n      dup3\n      dup3\n      sload\n      tag_345\n      swap2\n      swap1\n      tag_118\n      jump\t// in\n    tag_345:\n      swap3\n      pop\n      pop\n      dup2\n      swap1\n      sstore\n      pop\n        /* \"W6/simpleAMM/src/simpleAMMV6ERC.sol\":987:994  _amount */\n      dup1\n        /* \"W6/simpleAMM/src/simpleAMMV6ERC.sol\":972:983  totalSupply */\n      0x03\n      0x00\n        /* \"W6/simpleAMM/src/simpleAMMV6ERC.sol\":972:994  totalSupply += _amount */\n      dup3\n      dup3\n      sload\n      tag_346\n      swap2\n      swap1\n      tag_118\n      jump\t// in\n    tag_346:\n      swap3\n      pop\n      pop\n      dup2\n      swap1\n      sstore\n      pop\n        /* \"W6/simpleAMM/src/simpleAMMV6ERC.sol\":872:1002  function _mint(address _to, uint256 _amount) private {... */\n      pop\n      pop\n      jump\t// out\n        /* \"W6/simpleAMM/src/simpleAMMV6ERC.sol\":1152:1285  function _update(uint256 _reserve0, uint256 _reserve1) private {... */\n    tag_153:\n        /* \"W6/simpleAMM/src/simpleAMMV6ERC.sol\":1237:1246  _reserve0 */\n      dup2\n        /* \"W6/simpleAMM/src/simpleAMMV6ERC.sol\":1226:1234  reserve0 */\n      0x01\n        /* \"W6/simpleAMM/src/simpleAMMV6ERC.sol\":1226:1246  reserve0 = _reserve0 */\n      dup2\n      swap1\n      sstore\n      pop\n        /* \"W6/simpleAMM/src/simpleAMMV6ERC.sol\":1268:1277  _reserve1 */\n      dup1\n        /* \"W6/simpleAMM/src/simpleAMMV6ERC.sol\":1257:1265  reserve1 */\n      0x02\n        /* \"W6/simpleAMM/src/simpleAMMV6ERC.sol\":1257:1277  reserve1 = _reserve1 */\n      dup2\n      swap1\n      sstore\n      pop\n        /* \"W6/simpleAMM/src/simpleAMMV6ERC.sol\":1152:1285  function _update(uint256 _reserve0, uint256 _reserve1) private {... */\n      pop\n      pop\n      jump\t// out\n        /* \"W6/simpleAMM/src/simpleAMMV6ERC.sol\":5774:6276  function _removeLiquidity(address _user, uint256 _shares) internal returns (uint256 amount0, uint256 amount1) {... */\n    tag_189:\n        /* \"W6/simpleAMM/src/simpleAMMV6ERC.sol\":5850:5865  uint256 amount0 */\n      0x00\n        /* \"W6/simpleAMM/src/simpleAMMV6ERC.sol\":5867:5882  uint256 amount1 */\n      dup1\n        /* \"W6/simpleAMM/src/simpleAMMV6ERC.sol\":5928:5939  totalSupply */\n      sload(0x03)\n        /* \"W6/simpleAMM/src/simpleAMMV6ERC.sol\":5916:5924  reserve0 */\n      sload(0x01)\n        /* \"W6/simpleAMM/src/simpleAMMV6ERC.sol\":5906:5913  _shares */\n      dup5\n        /* \"W6/simpleAMM/src/simpleAMMV6ERC.sol\":5906:5924  _shares * reserve0 */\n      tag_349\n      swap2\n      swap1\n      tag_114\n      jump\t// in\n    tag_349:\n        /* \"W6/simpleAMM/src/simpleAMMV6ERC.sol\":5905:5939  (_shares * reserve0) / totalSupply */\n      tag_350\n      swap2\n      swap1\n      tag_116\n      jump\t// in\n    tag_350:\n        /* \"W6/simpleAMM/src/simpleAMMV6ERC.sol\":5895:5939  amount0 = (_shares * reserve0) / totalSupply */\n      swap2\n      pop\n        /* \"W6/simpleAMM/src/simpleAMMV6ERC.sol\":5983:5994  totalSupply */\n      sload(0x03)\n        /* \"W6/simpleAMM/src/simpleAMMV6ERC.sol\":5971:5979  reserve1 */\n      sload(0x02)\n        /* \"W6/simpleAMM/src/simpleAMMV6ERC.sol\":5961:5968  _shares */\n      dup5\n        /* \"W6/simpleAMM/src/simpleAMMV6ERC.sol\":5961:5979  _shares * reserve1 */\n      tag_351\n      swap2\n      swap1\n      tag_114\n      jump\t// in\n    tag_351:\n        /* \"W6/simpleAMM/src/simpleAMMV6ERC.sol\":5960:5994  (_shares * reserve1) / totalSupply */\n      tag_352\n      swap2\n      swap1\n      tag_116\n      jump\t// in\n    tag_352:\n        /* \"W6/simpleAMM/src/simpleAMMV6ERC.sol\":5950:5994  amount1 = (_shares * reserve1) / totalSupply */\n      swap1\n      pop\n        /* \"W6/simpleAMM/src/simpleAMMV6ERC.sol\":6023:6024  0 */\n      0x00\n        /* \"W6/simpleAMM/src/simpleAMMV6ERC.sol\":6013:6020  amount0 */\n      dup3\n        /* \"W6/simpleAMM/src/simpleAMMV6ERC.sol\":6013:6024  amount0 > 0 */\n      gt\n        /* \"W6/simpleAMM/src/simpleAMMV6ERC.sol\":6013:6039  amount0 > 0 && amount1 > 0 */\n      dup1\n      iszero\n      tag_353\n      jumpi\n      pop\n        /* \"W6/simpleAMM/src/simpleAMMV6ERC.sol\":6038:6039  0 */\n      0x00\n        /* \"W6/simpleAMM/src/simpleAMMV6ERC.sol\":6028:6035  amount1 */\n      dup2\n        /* \"W6/simpleAMM/src/simpleAMMV6ERC.sol\":6028:6039  amount1 > 0 */\n      gt\n        /* \"W6/simpleAMM/src/simpleAMMV6ERC.sol\":6013:6039  amount0 > 0 && amount1 > 0 */\n    tag_353:\n        /* \"W6/simpleAMM/src/simpleAMMV6ERC.sol\":6005:6066  require(amount0 > 0 && amount1 > 0, \"amount0 or amount1 = 0\") */\n      tag_354\n      jumpi\n      mload(0x40)\n      0x08c379a000000000000000000000000000000000000000000000000000000000\n      dup2\n      mstore\n      0x04\n      add\n      tag_355\n      swap1\n      tag_356\n      jump\t// in\n    tag_355:\n      mload(0x40)\n      dup1\n      swap2\n      sub\n      swap1\n      revert\n    tag_354:\n        /* \"W6/simpleAMM/src/simpleAMMV6ERC.sol\":6079:6100  _burn(_user, _shares) */\n      tag_357\n        /* \"W6/simpleAMM/src/simpleAMMV6ERC.sol\":6085:6090  _user */\n      dup5\n        /* \"W6/simpleAMM/src/simpleAMMV6ERC.sol\":6092:6099  _shares */\n      dup5\n        /* \"W6/simpleAMM/src/simpleAMMV6ERC.sol\":6079:6084  _burn */\n      tag_358\n        /* \"W6/simpleAMM/src/simpleAMMV6ERC.sol\":6079:6100  _burn(_user, _shares) */\n      jump\t// in\n    tag_357:\n        /* \"W6/simpleAMM/src/simpleAMMV6ERC.sol\":6111:6117  token0 */\n      immutable(\"0xe9ec5ebbfe521ba5a70e4c2b13332e74dda4e055153dc29723307e62e8ed0f2a\")\n        /* \"W6/simpleAMM/src/simpleAMMV6ERC.sol\":6111:6126  token0.transfer */\n      0xffffffffffffffffffffffffffffffffffffffff\n      and\n      0xa9059cbb\n        /* \"W6/simpleAMM/src/simpleAMMV6ERC.sol\":6127:6132  _user */\n      dup6\n        /* \"W6/simpleAMM/src/simpleAMMV6ERC.sol\":6134:6141  amount0 */\n      dup5\n        /* \"W6/simpleAMM/src/simpleAMMV6ERC.sol\":6111:6142  token0.transfer(_user, amount0) */\n      mload(0x40)\n      dup4\n      0xffffffff\n      and\n      0xe0\n      shl\n      dup2\n      mstore\n      0x04\n      add\n      tag_359\n      swap3\n      swap2\n      swap1\n      tag_138\n      jump\t// in\n    tag_359:\n      0x20\n      mload(0x40)\n      dup1\n      dup4\n      sub\n      dup2\n      0x00\n      dup8\n      gas\n      call\n      iszero\n      dup1\n      iszero\n      tag_361\n      jumpi\n      returndatasize\n      0x00\n      dup1\n      returndatacopy\n      revert(0x00, returndatasize)\n    tag_361:\n      pop\n      pop\n      pop\n      pop\n      mload(0x40)\n      returndatasize\n      not(0x1f)\n      0x1f\n      dup3\n      add\n      and\n      dup3\n      add\n      dup1\n      0x40\n      mstore\n      pop\n      dup2\n      add\n      swap1\n      tag_362\n      swap2\n      swap1\n      tag_112\n      jump\t// in\n    tag_362:\n      pop\n        /* \"W6/simpleAMM/src/simpleAMMV6ERC.sol\":6153:6159  token1 */\n      immutable(\"0x4bab0814faad1725fc18a3cfa3a1fcb95c36a46cacb7a7312c3d38e6b447adac\")\n        /* \"W6/simpleAMM/src/simpleAMMV6ERC.sol\":6153:6168  token1.transfer */\n      0xffffffffffffffffffffffffffffffffffffffff\n      and\n      0xa9059cbb\n        /* \"W6/simpleAMM/src/simpleAMMV6ERC.sol\":6169:6174  _user */\n      dup6\n        /* \"W6/simpleAMM/src/simpleAMMV6ERC.sol\":6176:6183  amount1 */\n      dup4\n        /* \"W6/simpleAMM/src/simpleAMMV6ERC.sol\":6153:6184  token1.transfer(_user, amount1) */\n      mload(0x40)\n      dup4\n      0xffffffff\n      and\n      0xe0\n      shl\n      dup2\n      mstore\n      0x04\n      add\n      tag_363\n      swap3\n      swap2\n      swap1\n      tag_138\n      jump\t// in\n    tag_363:\n      0x20\n      mload(0x40)\n      dup1\n      dup4\n      sub\n      dup2\n      0x00\n      dup8\n      gas\n      call\n      iszero\n      dup1\n      iszero\n      tag_365\n      jumpi\n      returndatasize\n      0x00\n      dup1\n      returndatacopy\n      revert(0x00, returndatasize)\n    tag_365:\n      pop\n      pop\n      pop\n      pop\n      mload(0x40)\n      returndatasize\n      not(0x1f)\n      0x1f\n      dup3\n      add\n      and\n      dup3\n      add\n      dup1\n      0x40\n      mstore\n      pop\n      dup2\n      add\n      swap1\n      tag_366\n      swap2\n      swap1\n      tag_112\n      jump\t// in\n    tag_366:\n      pop\n        /* \"W6/simpleAMM/src/simpleAMMV6ERC.sol\":6195:6268  _update(token0.balanceOf(address(this)), token1.balanceOf(address(this))) */\n      tag_367\n        /* \"W6/simpleAMM/src/simpleAMMV6ERC.sol\":6203:6209  token0 */\n      immutable(\"0xe9ec5ebbfe521ba5a70e4c2b13332e74dda4e055153dc29723307e62e8ed0f2a\")\n        /* \"W6/simpleAMM/src/simpleAMMV6ERC.sol\":6203:6219  token0.balanceOf */\n      0xffffffffffffffffffffffffffffffffffffffff\n      and\n      0x70a08231\n        /* \"W6/simpleAMM/src/simpleAMMV6ERC.sol\":6228:6232  this */\n      address\n        /* \"W6/simpleAMM/src/simpleAMMV6ERC.sol\":6203:6234  token0.balanceOf(address(this)) */\n      mload(0x40)\n      dup3\n      0xffffffff\n      and\n      0xe0\n      shl\n      dup2\n      mstore\n      0x04\n      add\n      tag_368\n      swap2\n      swap1\n      tag_144\n      jump\t// in\n    tag_368:\n      0x20\n      mload(0x40)\n      dup1\n      dup4\n      sub\n      dup2\n      dup7\n      gas\n      staticcall\n      iszero\n      dup1\n      iszero\n      tag_370\n      jumpi\n      returndatasize\n      0x00\n      dup1\n      returndatacopy\n      revert(0x00, returndatasize)\n    tag_370:\n      pop\n      pop\n      pop\n      pop\n      mload(0x40)\n      returndatasize\n      not(0x1f)\n      0x1f\n      dup3\n      add\n      and\n      dup3\n      add\n      dup1\n      0x40\n      mstore\n      pop\n      dup2\n      add\n      swap1\n      tag_371\n      swap2\n      swap1\n      tag_148\n      jump\t// in\n    tag_371:\n        /* \"W6/simpleAMM/src/simpleAMMV6ERC.sol\":6236:6242  token1 */\n      immutable(\"0x4bab0814faad1725fc18a3cfa3a1fcb95c36a46cacb7a7312c3d38e6b447adac\")\n        /* \"W6/simpleAMM/src/simpleAMMV6ERC.sol\":6236:6252  token1.balanceOf */\n      0xffffffffffffffffffffffffffffffffffffffff\n      and\n      0x70a08231\n        /* \"W6/simpleAMM/src/simpleAMMV6ERC.sol\":6261:6265  this */\n      address\n        /* \"W6/simpleAMM/src/simpleAMMV6ERC.sol\":6236:6267  token1.balanceOf(address(this)) */\n      mload(0x40)\n      dup3\n      0xffffffff\n      and\n      0xe0\n      shl\n      dup2\n      mstore\n      0x04\n      add\n      tag_372\n      swap2\n      swap1\n      tag_144\n      jump\t// in\n    tag_372:\n      0x20\n      mload(0x40)\n      dup1\n      dup4\n      sub\n      dup2\n      dup7\n      gas\n      staticcall\n      iszero\n      dup1\n      iszero\n      tag_374\n      jumpi\n      returndatasize\n      0x00\n      dup1\n      returndatacopy\n      revert(0x00, returndatasize)\n    tag_374:\n      pop\n      pop\n      pop\n      pop\n      mload(0x40)\n      returndatasize\n      not(0x1f)\n      0x1f\n      dup3\n      add\n      and\n      dup3\n      add\n      dup1\n      0x40\n      mstore\n      pop\n      dup2\n      add\n      swap1\n      tag_375\n      swap2\n      swap1\n      tag_148\n      jump\t// in\n    tag_375:\n        /* \"W6/simpleAMM/src/simpleAMMV6ERC.sol\":6195:6202  _update */\n      tag_153\n        /* \"W6/simpleAMM/src/simpleAMMV6ERC.sol\":6195:6268  _update(token0.balanceOf(address(this)), token1.balanceOf(address(this))) */\n      jump\t// in\n    tag_367:\n        /* \"W6/simpleAMM/src/simpleAMMV6ERC.sol\":5774:6276  function _removeLiquidity(address _user, uint256 _shares) internal returns (uint256 amount0, uint256 amount1) {... */\n      swap3\n      pop\n      swap3\n      swap1\n      pop\n      jump\t// out\n        /* \"W6/simpleAMM/src/simpleAMMV6ERC.sol\":6498:6811  function _sqrt(uint256 y) internal pure returns (uint256 z) {... */\n    tag_272:\n        /* \"W6/simpleAMM/src/simpleAMMV6ERC.sol\":6547:6556  uint256 z */\n      0x00\n        /* \"W6/simpleAMM/src/simpleAMMV6ERC.sol\":6577:6578  3 */\n      0x03\n        /* \"W6/simpleAMM/src/simpleAMMV6ERC.sol\":6573:6574  y */\n      dup3\n        /* \"W6/simpleAMM/src/simpleAMMV6ERC.sol\":6573:6578  y > 3 */\n      gt\n        /* \"W6/simpleAMM/src/simpleAMMV6ERC.sol\":6569:6804  if (y > 3) {... */\n      iszero\n      tag_377\n      jumpi\n        /* \"W6/simpleAMM/src/simpleAMMV6ERC.sol\":6599:6600  y */\n      dup2\n        /* \"W6/simpleAMM/src/simpleAMMV6ERC.sol\":6595:6600  z = y */\n      swap1\n      pop\n        /* \"W6/simpleAMM/src/simpleAMMV6ERC.sol\":6615:6624  uint256 x */\n      0x00\n        /* \"W6/simpleAMM/src/simpleAMMV6ERC.sol\":6635:6636  1 */\n      0x01\n        /* \"W6/simpleAMM/src/simpleAMMV6ERC.sol\":6631:6632  2 */\n      0x02\n        /* \"W6/simpleAMM/src/simpleAMMV6ERC.sol\":6627:6628  y */\n      dup5\n        /* \"W6/simpleAMM/src/simpleAMMV6ERC.sol\":6627:6632  y / 2 */\n      tag_378\n      swap2\n      swap1\n      tag_116\n      jump\t// in\n    tag_378:\n        /* \"W6/simpleAMM/src/simpleAMMV6ERC.sol\":6627:6636  y / 2 + 1 */\n      tag_379\n      swap2\n      swap1\n      tag_118\n      jump\t// in\n    tag_379:\n        /* \"W6/simpleAMM/src/simpleAMMV6ERC.sol\":6615:6636  uint256 x = y / 2 + 1 */\n      swap1\n      pop\n        /* \"W6/simpleAMM/src/simpleAMMV6ERC.sol\":6651:6743  while (x < z) {... */\n    tag_380:\n        /* \"W6/simpleAMM/src/simpleAMMV6ERC.sol\":6662:6663  z */\n      dup2\n        /* \"W6/simpleAMM/src/simpleAMMV6ERC.sol\":6658:6659  x */\n      dup2\n        /* \"W6/simpleAMM/src/simpleAMMV6ERC.sol\":6658:6663  x < z */\n      lt\n        /* \"W6/simpleAMM/src/simpleAMMV6ERC.sol\":6651:6743  while (x < z) {... */\n      iszero\n      tag_381\n      jumpi\n        /* \"W6/simpleAMM/src/simpleAMMV6ERC.sol\":6688:6689  x */\n      dup1\n        /* \"W6/simpleAMM/src/simpleAMMV6ERC.sol\":6684:6689  z = x */\n      swap2\n      pop\n        /* \"W6/simpleAMM/src/simpleAMMV6ERC.sol\":6726:6727  2 */\n      0x02\n        /* \"W6/simpleAMM/src/simpleAMMV6ERC.sol\":6721:6722  x */\n      dup2\n        /* \"W6/simpleAMM/src/simpleAMMV6ERC.sol\":6717:6718  x */\n      dup3\n        /* \"W6/simpleAMM/src/simpleAMMV6ERC.sol\":6713:6714  y */\n      dup6\n        /* \"W6/simpleAMM/src/simpleAMMV6ERC.sol\":6713:6718  y / x */\n      tag_382\n      swap2\n      swap1\n      tag_116\n      jump\t// in\n    tag_382:\n        /* \"W6/simpleAMM/src/simpleAMMV6ERC.sol\":6713:6722  y / x + x */\n      tag_383\n      swap2\n      swap1\n      tag_118\n      jump\t// in\n    tag_383:\n        /* \"W6/simpleAMM/src/simpleAMMV6ERC.sol\":6712:6727  (y / x + x) / 2 */\n      tag_384\n      swap2\n      swap1\n      tag_116\n      jump\t// in\n    tag_384:\n        /* \"W6/simpleAMM/src/simpleAMMV6ERC.sol\":6708:6727  x = (y / x + x) / 2 */\n      swap1\n      pop\n        /* \"W6/simpleAMM/src/simpleAMMV6ERC.sol\":6651:6743  while (x < z) {... */\n      jump(tag_380)\n    tag_381:\n        /* \"W6/simpleAMM/src/simpleAMMV6ERC.sol\":6580:6754  {... */\n      pop\n        /* \"W6/simpleAMM/src/simpleAMMV6ERC.sol\":6569:6804  if (y > 3) {... */\n      jump(tag_385)\n    tag_377:\n        /* \"W6/simpleAMM/src/simpleAMMV6ERC.sol\":6769:6770  0 */\n      0x00\n        /* \"W6/simpleAMM/src/simpleAMMV6ERC.sol\":6764:6765  y */\n      dup3\n        /* \"W6/simpleAMM/src/simpleAMMV6ERC.sol\":6764:6770  y != 0 */\n      eq\n        /* \"W6/simpleAMM/src/simpleAMMV6ERC.sol\":6760:6804  if (y != 0) {... */\n      tag_386\n      jumpi\n        /* \"W6/simpleAMM/src/simpleAMMV6ERC.sol\":6791:6792  1 */\n      0x01\n        /* \"W6/simpleAMM/src/simpleAMMV6ERC.sol\":6787:6792  z = 1 */\n      swap1\n      pop\n        /* \"W6/simpleAMM/src/simpleAMMV6ERC.sol\":6760:6804  if (y != 0) {... */\n    tag_386:\n        /* \"W6/simpleAMM/src/simpleAMMV6ERC.sol\":6569:6804  if (y > 3) {... */\n    tag_385:\n        /* \"W6/simpleAMM/src/simpleAMMV6ERC.sol\":6498:6811  function _sqrt(uint256 y) internal pure returns (uint256 z) {... */\n      swap2\n      swap1\n      pop\n      jump\t// out\n        /* \"@openzeppelin/contracts/utils/math/Math.sol\":588:692  function min(uint256 a, uint256 b) internal pure returns (uint256) {... */\n    tag_279:\n        /* \"@openzeppelin/contracts/utils/math/Math.sol\":646:653  uint256 */\n      0x00\n        /* \"@openzeppelin/contracts/utils/math/Math.sol\":676:677  b */\n      dup2\n        /* \"@openzeppelin/contracts/utils/math/Math.sol\":672:673  a */\n      dup4\n        /* \"@openzeppelin/contracts/utils/math/Math.sol\":672:677  a < b */\n      lt\n        /* \"@openzeppelin/contracts/utils/math/Math.sol\":672:685  a < b ? a : b */\n      tag_388\n      jumpi\n        /* \"@openzeppelin/contracts/utils/math/Math.sol\":684:685  b */\n      dup2\n        /* \"@openzeppelin/contracts/utils/math/Math.sol\":672:685  a < b ? a : b */\n      jump(tag_389)\n    tag_388:\n        /* \"@openzeppelin/contracts/utils/math/Math.sol\":680:681  a */\n      dup3\n        /* \"@openzeppelin/contracts/utils/math/Math.sol\":672:685  a < b ? a : b */\n    tag_389:\n        /* \"@openzeppelin/contracts/utils/math/Math.sol\":665:685  return a < b ? a : b */\n      swap1\n      pop\n        /* \"@openzeppelin/contracts/utils/math/Math.sol\":588:692  function min(uint256 a, uint256 b) internal pure returns (uint256) {... */\n      swap3\n      swap2\n      pop\n      pop\n      jump\t// out\n        /* \"W6/simpleAMM/src/simpleAMMV6ERC.sol\":1010:1144  function _burn(address _from, uint256 _amount) private {... */\n    tag_358:\n        /* \"W6/simpleAMM/src/simpleAMMV6ERC.sol\":1096:1103  _amount */\n      dup1\n        /* \"W6/simpleAMM/src/simpleAMMV6ERC.sol\":1076:1085  balanceOf */\n      0x04\n        /* \"W6/simpleAMM/src/simpleAMMV6ERC.sol\":1076:1092  balanceOf[_from] */\n      0x00\n        /* \"W6/simpleAMM/src/simpleAMMV6ERC.sol\":1086:1091  _from */\n      dup5\n        /* \"W6/simpleAMM/src/simpleAMMV6ERC.sol\":1076:1092  balanceOf[_from] */\n      0xffffffffffffffffffffffffffffffffffffffff\n      and\n      0xffffffffffffffffffffffffffffffffffffffff\n      and\n      dup2\n      mstore\n      0x20\n      add\n      swap1\n      dup2\n      mstore\n      0x20\n      add\n      0x00\n      keccak256\n      0x00\n        /* \"W6/simpleAMM/src/simpleAMMV6ERC.sol\":1076:1103  balanceOf[_from] -= _amount */\n      dup3\n      dup3\n      sload\n      tag_391\n      swap2\n      swap1\n      tag_125\n      jump\t// in\n    tag_391:\n      swap3\n      pop\n      pop\n      dup2\n      swap1\n      sstore\n      pop\n        /* \"W6/simpleAMM/src/simpleAMMV6ERC.sol\":1129:1136  _amount */\n      dup1\n        /* \"W6/simpleAMM/src/simpleAMMV6ERC.sol\":1114:1125  totalSupply */\n      0x03\n      0x00\n        /* \"W6/simpleAMM/src/simpleAMMV6ERC.sol\":1114:1136  totalSupply -= _amount */\n      dup3\n      dup3\n      sload\n      tag_392\n      swap2\n      swap1\n      tag_125\n      jump\t// in\n    tag_392:\n      swap3\n      pop\n      pop\n      dup2\n      swap1\n      sstore\n      pop\n        /* \"W6/simpleAMM/src/simpleAMMV6ERC.sol\":1010:1144  function _burn(address _from, uint256 _amount) private {... */\n      pop\n      pop\n      jump\t// out\n        /* \"#utility.yul\":88:205   */\n    tag_394:\n        /* \"#utility.yul\":197:198   */\n      0x00\n        /* \"#utility.yul\":194:195   */\n      dup1\n        /* \"#utility.yul\":187:199   */\n      revert\n        /* \"#utility.yul\":334:411   */\n    tag_396:\n        /* \"#utility.yul\":371:378   */\n      0x00\n        /* \"#utility.yul\":400:405   */\n      dup2\n        /* \"#utility.yul\":389:405   */\n      swap1\n      pop\n        /* \"#utility.yul\":334:411   */\n      swap2\n      swap1\n      pop\n      jump\t// out\n        /* \"#utility.yul\":417:539   */\n    tag_397:\n        /* \"#utility.yul\":490:514   */\n      tag_443\n        /* \"#utility.yul\":508:513   */\n      dup2\n        /* \"#utility.yul\":490:514   */\n      tag_396\n      jump\t// in\n    tag_443:\n        /* \"#utility.yul\":483:488   */\n      dup2\n        /* \"#utility.yul\":480:515   */\n      eq\n        /* \"#utility.yul\":470:533   */\n      tag_444\n      jumpi\n        /* \"#utility.yul\":529:530   */\n      0x00\n        /* \"#utility.yul\":526:527   */\n      dup1\n        /* \"#utility.yul\":519:531   */\n      revert\n        /* \"#utility.yul\":470:533   */\n    tag_444:\n        /* \"#utility.yul\":417:539   */\n      pop\n      jump\t// out\n        /* \"#utility.yul\":545:684   */\n    tag_398:\n        /* \"#utility.yul\":591:596   */\n      0x00\n        /* \"#utility.yul\":629:635   */\n      dup2\n        /* \"#utility.yul\":616:636   */\n      calldataload\n        /* \"#utility.yul\":607:636   */\n      swap1\n      pop\n        /* \"#utility.yul\":645:678   */\n      tag_446\n        /* \"#utility.yul\":672:677   */\n      dup2\n        /* \"#utility.yul\":645:678   */\n      tag_397\n      jump\t// in\n    tag_446:\n        /* \"#utility.yul\":545:684   */\n      swap3\n      swap2\n      pop\n      pop\n      jump\t// out\n        /* \"#utility.yul\":690:1309   */\n    tag_28:\n        /* \"#utility.yul\":767:773   */\n      0x00\n        /* \"#utility.yul\":775:781   */\n      dup1\n        /* \"#utility.yul\":783:789   */\n      0x00\n        /* \"#utility.yul\":832:834   */\n      0x60\n        /* \"#utility.yul\":820:829   */\n      dup5\n        /* \"#utility.yul\":811:818   */\n      dup7\n        /* \"#utility.yul\":807:830   */\n      sub\n        /* \"#utility.yul\":803:835   */\n      slt\n        /* \"#utility.yul\":800:919   */\n      iszero\n      tag_448\n      jumpi\n        /* \"#utility.yul\":838:917   */\n      tag_449\n      tag_394\n      jump\t// in\n    tag_449:\n        /* \"#utility.yul\":800:919   */\n    tag_448:\n        /* \"#utility.yul\":958:959   */\n      0x00\n        /* \"#utility.yul\":983:1036   */\n      tag_450\n        /* \"#utility.yul\":1028:1035   */\n      dup7\n        /* \"#utility.yul\":1019:1025   */\n      dup3\n        /* \"#utility.yul\":1008:1017   */\n      dup8\n        /* \"#utility.yul\":1004:1026   */\n      add\n        /* \"#utility.yul\":983:1036   */\n      tag_398\n      jump\t// in\n    tag_450:\n        /* \"#utility.yul\":973:1036   */\n      swap4\n      pop\n        /* \"#utility.yul\":929:1046   */\n      pop\n        /* \"#utility.yul\":1085:1087   */\n      0x20\n        /* \"#utility.yul\":1111:1164   */\n      tag_451\n        /* \"#utility.yul\":1156:1163   */\n      dup7\n        /* \"#utility.yul\":1147:1153   */\n      dup3\n        /* \"#utility.yul\":1136:1145   */\n      dup8\n        /* \"#utility.yul\":1132:1154   */\n      add\n        /* \"#utility.yul\":1111:1164   */\n      tag_398\n      jump\t// in\n    tag_451:\n        /* \"#utility.yul\":1101:1164   */\n      swap3\n      pop\n        /* \"#utility.yul\":1056:1174   */\n      pop\n        /* \"#utility.yul\":1213:1215   */\n      0x40\n        /* \"#utility.yul\":1239:1292   */\n      tag_452\n        /* \"#utility.yul\":1284:1291   */\n      dup7\n        /* \"#utility.yul\":1275:1281   */\n      dup3\n        /* \"#utility.yul\":1264:1273   */\n      dup8\n        /* \"#utility.yul\":1260:1282   */\n      add\n        /* \"#utility.yul\":1239:1292   */\n      tag_398\n      jump\t// in\n    tag_452:\n        /* \"#utility.yul\":1229:1292   */\n      swap2\n      pop\n        /* \"#utility.yul\":1184:1302   */\n      pop\n        /* \"#utility.yul\":690:1309   */\n      swap3\n      pop\n      swap3\n      pop\n      swap3\n      jump\t// out\n        /* \"#utility.yul\":1315:1433   */\n    tag_399:\n        /* \"#utility.yul\":1402:1426   */\n      tag_454\n        /* \"#utility.yul\":1420:1425   */\n      dup2\n        /* \"#utility.yul\":1402:1426   */\n      tag_396\n      jump\t// in\n    tag_454:\n        /* \"#utility.yul\":1397:1400   */\n      dup3\n        /* \"#utility.yul\":1390:1427   */\n      mstore\n        /* \"#utility.yul\":1315:1433   */\n      pop\n      pop\n      jump\t// out\n        /* \"#utility.yul\":1439:1661   */\n    tag_31:\n        /* \"#utility.yul\":1532:1536   */\n      0x00\n        /* \"#utility.yul\":1570:1572   */\n      0x20\n        /* \"#utility.yul\":1559:1568   */\n      dup3\n        /* \"#utility.yul\":1555:1573   */\n      add\n        /* \"#utility.yul\":1547:1573   */\n      swap1\n      pop\n        /* \"#utility.yul\":1583:1654   */\n      tag_456\n        /* \"#utility.yul\":1651:1652   */\n      0x00\n        /* \"#utility.yul\":1640:1649   */\n      dup4\n        /* \"#utility.yul\":1636:1653   */\n      add\n        /* \"#utility.yul\":1627:1633   */\n      dup5\n        /* \"#utility.yul\":1583:1654   */\n      tag_399\n      jump\t// in\n    tag_456:\n        /* \"#utility.yul\":1439:1661   */\n      swap3\n      swap2\n      pop\n      pop\n      jump\t// out\n        /* \"#utility.yul\":1667:1793   */\n    tag_400:\n        /* \"#utility.yul\":1704:1711   */\n      0x00\n        /* \"#utility.yul\":1744:1786   */\n      0xffffffffffffffffffffffffffffffffffffffff\n        /* \"#utility.yul\":1737:1742   */\n      dup3\n        /* \"#utility.yul\":1733:1787   */\n      and\n        /* \"#utility.yul\":1722:1787   */\n      swap1\n      pop\n        /* \"#utility.yul\":1667:1793   */\n      swap2\n      swap1\n      pop\n      jump\t// out\n        /* \"#utility.yul\":1799:1859   */\n    tag_401:\n        /* \"#utility.yul\":1827:1830   */\n      0x00\n        /* \"#utility.yul\":1848:1853   */\n      dup2\n        /* \"#utility.yul\":1841:1853   */\n      swap1\n      pop\n        /* \"#utility.yul\":1799:1859   */\n      swap2\n      swap1\n      pop\n      jump\t// out\n        /* \"#utility.yul\":1865:2007   */\n    tag_402:\n        /* \"#utility.yul\":1915:1924   */\n      0x00\n        /* \"#utility.yul\":1948:2001   */\n      tag_460\n        /* \"#utility.yul\":1966:2000   */\n      tag_461\n        /* \"#utility.yul\":1975:1999   */\n      tag_462\n        /* \"#utility.yul\":1993:1998   */\n      dup5\n        /* \"#utility.yul\":1975:1999   */\n      tag_400\n      jump\t// in\n    tag_462:\n        /* \"#utility.yul\":1966:2000   */\n      tag_401\n      jump\t// in\n    tag_461:\n        /* \"#utility.yul\":1948:2001   */\n      tag_400\n      jump\t// in\n    tag_460:\n        /* \"#utility.yul\":1935:2001   */\n      swap1\n      pop\n        /* \"#utility.yul\":1865:2007   */\n      swap2\n      swap1\n      pop\n      jump\t// out\n        /* \"#utility.yul\":2013:2139   */\n    tag_403:\n        /* \"#utility.yul\":2063:2072   */\n      0x00\n        /* \"#utility.yul\":2096:2133   */\n      tag_464\n        /* \"#utility.yul\":2127:2132   */\n      dup3\n        /* \"#utility.yul\":2096:2133   */\n      tag_402\n      jump\t// in\n    tag_464:\n        /* \"#utility.yul\":2083:2133   */\n      swap1\n      pop\n        /* \"#utility.yul\":2013:2139   */\n      swap2\n      swap1\n      pop\n      jump\t// out\n        /* \"#utility.yul\":2145:2285   */\n    tag_404:\n        /* \"#utility.yul\":2209:2218   */\n      0x00\n        /* \"#utility.yul\":2242:2279   */\n      tag_466\n        /* \"#utility.yul\":2273:2278   */\n      dup3\n        /* \"#utility.yul\":2242:2279   */\n      tag_403\n      jump\t// in\n    tag_466:\n        /* \"#utility.yul\":2229:2279   */\n      swap1\n      pop\n        /* \"#utility.yul\":2145:2285   */\n      swap2\n      swap1\n      pop\n      jump\t// out\n        /* \"#utility.yul\":2291:2450   */\n    tag_405:\n        /* \"#utility.yul\":2392:2443   */\n      tag_468\n        /* \"#utility.yul\":2437:2442   */\n      dup2\n        /* \"#utility.yul\":2392:2443   */\n      tag_404\n      jump\t// in\n    tag_468:\n        /* \"#utility.yul\":2387:2390   */\n      dup3\n        /* \"#utility.yul\":2380:2444   */\n      mstore\n        /* \"#utility.yul\":2291:2450   */\n      pop\n      pop\n      jump\t// out\n        /* \"#utility.yul\":2456:2706   */\n    tag_35:\n        /* \"#utility.yul\":2563:2567   */\n      0x00\n        /* \"#utility.yul\":2601:2603   */\n      0x20\n        /* \"#utility.yul\":2590:2599   */\n      dup3\n        /* \"#utility.yul\":2586:2604   */\n      add\n        /* \"#utility.yul\":2578:2604   */\n      swap1\n      pop\n        /* \"#utility.yul\":2614:2699   */\n      tag_470\n        /* \"#utility.yul\":2696:2697   */\n      0x00\n        /* \"#utility.yul\":2685:2694   */\n      dup4\n        /* \"#utility.yul\":2681:2698   */\n      add\n        /* \"#utility.yul\":2672:2678   */\n      dup5\n        /* \"#utility.yul\":2614:2699   */\n      tag_405\n      jump\t// in\n    tag_470:\n        /* \"#utility.yul\":2456:2706   */\n      swap3\n      swap2\n      pop\n      pop\n      jump\t// out\n        /* \"#utility.yul\":2712:3041   */\n    tag_41:\n        /* \"#utility.yul\":2771:2777   */\n      0x00\n        /* \"#utility.yul\":2820:2822   */\n      0x20\n        /* \"#utility.yul\":2808:2817   */\n      dup3\n        /* \"#utility.yul\":2799:2806   */\n      dup5\n        /* \"#utility.yul\":2795:2818   */\n      sub\n        /* \"#utility.yul\":2791:2823   */\n      slt\n        /* \"#utility.yul\":2788:2907   */\n      iszero\n      tag_472\n      jumpi\n        /* \"#utility.yul\":2826:2905   */\n      tag_473\n      tag_394\n      jump\t// in\n    tag_473:\n        /* \"#utility.yul\":2788:2907   */\n    tag_472:\n        /* \"#utility.yul\":2946:2947   */\n      0x00\n        /* \"#utility.yul\":2971:3024   */\n      tag_474\n        /* \"#utility.yul\":3016:3023   */\n      dup5\n        /* \"#utility.yul\":3007:3013   */\n      dup3\n        /* \"#utility.yul\":2996:3005   */\n      dup6\n        /* \"#utility.yul\":2992:3014   */\n      add\n        /* \"#utility.yul\":2971:3024   */\n      tag_398\n      jump\t// in\n    tag_474:\n        /* \"#utility.yul\":2961:3024   */\n      swap2\n      pop\n        /* \"#utility.yul\":2917:3034   */\n      pop\n        /* \"#utility.yul\":2712:3041   */\n      swap3\n      swap2\n      pop\n      pop\n      jump\t// out\n        /* \"#utility.yul\":3047:3143   */\n    tag_406:\n        /* \"#utility.yul\":3084:3091   */\n      0x00\n        /* \"#utility.yul\":3113:3137   */\n      tag_476\n        /* \"#utility.yul\":3131:3136   */\n      dup3\n        /* \"#utility.yul\":3113:3137   */\n      tag_400\n      jump\t// in\n    tag_476:\n        /* \"#utility.yul\":3102:3137   */\n      swap1\n      pop\n        /* \"#utility.yul\":3047:3143   */\n      swap2\n      swap1\n      pop\n      jump\t// out\n        /* \"#utility.yul\":3149:3271   */\n    tag_407:\n        /* \"#utility.yul\":3222:3246   */\n      tag_478\n        /* \"#utility.yul\":3240:3245   */\n      dup2\n        /* \"#utility.yul\":3222:3246   */\n      tag_406\n      jump\t// in\n    tag_478:\n        /* \"#utility.yul\":3215:3220   */\n      dup2\n        /* \"#utility.yul\":3212:3247   */\n      eq\n        /* \"#utility.yul\":3202:3265   */\n      tag_479\n      jumpi\n        /* \"#utility.yul\":3261:3262   */\n      0x00\n        /* \"#utility.yul\":3258:3259   */\n      dup1\n        /* \"#utility.yul\":3251:3263   */\n      revert\n        /* \"#utility.yul\":3202:3265   */\n    tag_479:\n        /* \"#utility.yul\":3149:3271   */\n      pop\n      jump\t// out\n        /* \"#utility.yul\":3277:3416   */\n    tag_408:\n        /* \"#utility.yul\":3323:3328   */\n      0x00\n        /* \"#utility.yul\":3361:3367   */\n      dup2\n        /* \"#utility.yul\":3348:3368   */\n      calldataload\n        /* \"#utility.yul\":3339:3368   */\n      swap1\n      pop\n        /* \"#utility.yul\":3377:3410   */\n      tag_481\n        /* \"#utility.yul\":3404:3409   */\n      dup2\n        /* \"#utility.yul\":3377:3410   */\n      tag_407\n      jump\t// in\n    tag_481:\n        /* \"#utility.yul\":3277:3416   */\n      swap3\n      swap2\n      pop\n      pop\n      jump\t// out\n        /* \"#utility.yul\":3422:3751   */\n    tag_59:\n        /* \"#utility.yul\":3481:3487   */\n      0x00\n        /* \"#utility.yul\":3530:3532   */\n      0x20\n        /* \"#utility.yul\":3518:3527   */\n      dup3\n        /* \"#utility.yul\":3509:3516   */\n      dup5\n        /* \"#utility.yul\":3505:3528   */\n      sub\n        /* \"#utility.yul\":3501:3533   */\n      slt\n        /* \"#utility.yul\":3498:3617   */\n      iszero\n      tag_483\n      jumpi\n        /* \"#utility.yul\":3536:3615   */\n      tag_484\n      tag_394\n      jump\t// in\n    tag_484:\n        /* \"#utility.yul\":3498:3617   */\n    tag_483:\n        /* \"#utility.yul\":3656:3657   */\n      0x00\n        /* \"#utility.yul\":3681:3734   */\n      tag_485\n        /* \"#utility.yul\":3726:3733   */\n      dup5\n        /* \"#utility.yul\":3717:3723   */\n      dup3\n        /* \"#utility.yul\":3706:3715   */\n      dup6\n        /* \"#utility.yul\":3702:3724   */\n      add\n        /* \"#utility.yul\":3681:3734   */\n      tag_408\n      jump\t// in\n    tag_485:\n        /* \"#utility.yul\":3671:3734   */\n      swap2\n      pop\n        /* \"#utility.yul\":3627:3744   */\n      pop\n        /* \"#utility.yul\":3422:3751   */\n      swap3\n      swap2\n      pop\n      pop\n      jump\t// out\n        /* \"#utility.yul\":3757:4089   */\n    tag_66:\n        /* \"#utility.yul\":3878:3882   */\n      0x00\n        /* \"#utility.yul\":3916:3918   */\n      0x40\n        /* \"#utility.yul\":3905:3914   */\n      dup3\n        /* \"#utility.yul\":3901:3919   */\n      add\n        /* \"#utility.yul\":3893:3919   */\n      swap1\n      pop\n        /* \"#utility.yul\":3929:4000   */\n      tag_487\n        /* \"#utility.yul\":3997:3998   */\n      0x00\n        /* \"#utility.yul\":3986:3995   */\n      dup4\n        /* \"#utility.yul\":3982:3999   */\n      add\n        /* \"#utility.yul\":3973:3979   */\n      dup6\n        /* \"#utility.yul\":3929:4000   */\n      tag_399\n      jump\t// in\n    tag_487:\n        /* \"#utility.yul\":4010:4082   */\n      tag_488\n        /* \"#utility.yul\":4078:4080   */\n      0x20\n        /* \"#utility.yul\":4067:4076   */\n      dup4\n        /* \"#utility.yul\":4063:4081   */\n      add\n        /* \"#utility.yul\":4054:4060   */\n      dup5\n        /* \"#utility.yul\":4010:4082   */\n      tag_399\n      jump\t// in\n    tag_488:\n        /* \"#utility.yul\":3757:4089   */\n      swap4\n      swap3\n      pop\n      pop\n      pop\n      jump\t// out\n        /* \"#utility.yul\":4095:4569   */\n    tag_81:\n        /* \"#utility.yul\":4163:4169   */\n      0x00\n        /* \"#utility.yul\":4171:4177   */\n      dup1\n        /* \"#utility.yul\":4220:4222   */\n      0x40\n        /* \"#utility.yul\":4208:4217   */\n      dup4\n        /* \"#utility.yul\":4199:4206   */\n      dup6\n        /* \"#utility.yul\":4195:4218   */\n      sub\n        /* \"#utility.yul\":4191:4223   */\n      slt\n        /* \"#utility.yul\":4188:4307   */\n      iszero\n      tag_490\n      jumpi\n        /* \"#utility.yul\":4226:4305   */\n      tag_491\n      tag_394\n      jump\t// in\n    tag_491:\n        /* \"#utility.yul\":4188:4307   */\n    tag_490:\n        /* \"#utility.yul\":4346:4347   */\n      0x00\n        /* \"#utility.yul\":4371:4424   */\n      tag_492\n        /* \"#utility.yul\":4416:4423   */\n      dup6\n        /* \"#utility.yul\":4407:4413   */\n      dup3\n        /* \"#utility.yul\":4396:4405   */\n      dup7\n        /* \"#utility.yul\":4392:4414   */\n      add\n        /* \"#utility.yul\":4371:4424   */\n      tag_398\n      jump\t// in\n    tag_492:\n        /* \"#utility.yul\":4361:4424   */\n      swap3\n      pop\n        /* \"#utility.yul\":4317:4434   */\n      pop\n        /* \"#utility.yul\":4473:4475   */\n      0x20\n        /* \"#utility.yul\":4499:4552   */\n      tag_493\n        /* \"#utility.yul\":4544:4551   */\n      dup6\n        /* \"#utility.yul\":4535:4541   */\n      dup3\n        /* \"#utility.yul\":4524:4533   */\n      dup7\n        /* \"#utility.yul\":4520:4542   */\n      add\n        /* \"#utility.yul\":4499:4552   */\n      tag_398\n      jump\t// in\n    tag_493:\n        /* \"#utility.yul\":4489:4552   */\n      swap2\n      pop\n        /* \"#utility.yul\":4444:4562   */\n      pop\n        /* \"#utility.yul\":4095:4569   */\n      swap3\n      pop\n      swap3\n      swap1\n      pop\n      jump\t// out\n        /* \"#utility.yul\":4575:5049   */\n    tag_93:\n        /* \"#utility.yul\":4643:4649   */\n      0x00\n        /* \"#utility.yul\":4651:4657   */\n      dup1\n        /* \"#utility.yul\":4700:4702   */\n      0x40\n        /* \"#utility.yul\":4688:4697   */\n      dup4\n        /* \"#utility.yul\":4679:4686   */\n      dup6\n        /* \"#utility.yul\":4675:4698   */\n      sub\n        /* \"#utility.yul\":4671:4703   */\n      slt\n        /* \"#utility.yul\":4668:4787   */\n      iszero\n      tag_495\n      jumpi\n        /* \"#utility.yul\":4706:4785   */\n      tag_496\n      tag_394\n      jump\t// in\n    tag_496:\n        /* \"#utility.yul\":4668:4787   */\n    tag_495:\n        /* \"#utility.yul\":4826:4827   */\n      0x00\n        /* \"#utility.yul\":4851:4904   */\n      tag_497\n        /* \"#utility.yul\":4896:4903   */\n      dup6\n        /* \"#utility.yul\":4887:4893   */\n      dup3\n        /* \"#utility.yul\":4876:4885   */\n      dup7\n        /* \"#utility.yul\":4872:4894   */\n      add\n        /* \"#utility.yul\":4851:4904   */\n      tag_408\n      jump\t// in\n    tag_497:\n        /* \"#utility.yul\":4841:4904   */\n      swap3\n      pop\n        /* \"#utility.yul\":4797:4914   */\n      pop\n        /* \"#utility.yul\":4953:4955   */\n      0x20\n        /* \"#utility.yul\":4979:5032   */\n      tag_498\n        /* \"#utility.yul\":5024:5031   */\n      dup6\n        /* \"#utility.yul\":5015:5021   */\n      dup3\n        /* \"#utility.yul\":5004:5013   */\n      dup7\n        /* \"#utility.yul\":5000:5022   */\n      add\n        /* \"#utility.yul\":4979:5032   */\n      tag_398\n      jump\t// in\n    tag_498:\n        /* \"#utility.yul\":4969:5032   */\n      swap2\n      pop\n        /* \"#utility.yul\":4924:5042   */\n      pop\n        /* \"#utility.yul\":4575:5049   */\n      swap3\n      pop\n      swap3\n      swap1\n      pop\n      jump\t// out\n        /* \"#utility.yul\":5055:5173   */\n    tag_409:\n        /* \"#utility.yul\":5142:5166   */\n      tag_500\n        /* \"#utility.yul\":5160:5165   */\n      dup2\n        /* \"#utility.yul\":5142:5166   */\n      tag_406\n      jump\t// in\n    tag_500:\n        /* \"#utility.yul\":5137:5140   */\n      dup3\n        /* \"#utility.yul\":5130:5167   */\n      mstore\n        /* \"#utility.yul\":5055:5173   */\n      pop\n      pop\n      jump\t// out\n        /* \"#utility.yul\":5179:5621   */\n    tag_108:\n        /* \"#utility.yul\":5328:5332   */\n      0x00\n        /* \"#utility.yul\":5366:5368   */\n      0x60\n        /* \"#utility.yul\":5355:5364   */\n      dup3\n        /* \"#utility.yul\":5351:5369   */\n      add\n        /* \"#utility.yul\":5343:5369   */\n      swap1\n      pop\n        /* \"#utility.yul\":5379:5450   */\n      tag_502\n        /* \"#utility.yul\":5447:5448   */\n      0x00\n        /* \"#utility.yul\":5436:5445   */\n      dup4\n        /* \"#utility.yul\":5432:5449   */\n      add\n        /* \"#utility.yul\":5423:5429   */\n      dup7\n        /* \"#utility.yul\":5379:5450   */\n      tag_409\n      jump\t// in\n    tag_502:\n        /* \"#utility.yul\":5460:5532   */\n      tag_503\n        /* \"#utility.yul\":5528:5530   */\n      0x20\n        /* \"#utility.yul\":5517:5526   */\n      dup4\n        /* \"#utility.yul\":5513:5531   */\n      add\n        /* \"#utility.yul\":5504:5510   */\n      dup6\n        /* \"#utility.yul\":5460:5532   */\n      tag_409\n      jump\t// in\n    tag_503:\n        /* \"#utility.yul\":5542:5614   */\n      tag_504\n        /* \"#utility.yul\":5610:5612   */\n      0x40\n        /* \"#utility.yul\":5599:5608   */\n      dup4\n        /* \"#utility.yul\":5595:5613   */\n      add\n        /* \"#utility.yul\":5586:5592   */\n      dup5\n        /* \"#utility.yul\":5542:5614   */\n      tag_399\n      jump\t// in\n    tag_504:\n        /* \"#utility.yul\":5179:5621   */\n      swap5\n      swap4\n      pop\n      pop\n      pop\n      pop\n      jump\t// out\n        /* \"#utility.yul\":5627:5717   */\n    tag_410:\n        /* \"#utility.yul\":5661:5668   */\n      0x00\n        /* \"#utility.yul\":5704:5709   */\n      dup2\n        /* \"#utility.yul\":5697:5710   */\n      iszero\n        /* \"#utility.yul\":5690:5711   */\n      iszero\n        /* \"#utility.yul\":5679:5711   */\n      swap1\n      pop\n        /* \"#utility.yul\":5627:5717   */\n      swap2\n      swap1\n      pop\n      jump\t// out\n        /* \"#utility.yul\":5723:5839   */\n    tag_411:\n        /* \"#utility.yul\":5793:5814   */\n      tag_507\n        /* \"#utility.yul\":5808:5813   */\n      dup2\n        /* \"#utility.yul\":5793:5814   */\n      tag_410\n      jump\t// in\n    tag_507:\n        /* \"#utility.yul\":5786:5791   */\n      dup2\n        /* \"#utility.yul\":5783:5815   */\n      eq\n        /* \"#utility.yul\":5773:5833   */\n      tag_508\n      jumpi\n        /* \"#utility.yul\":5829:5830   */\n      0x00\n        /* \"#utility.yul\":5826:5827   */\n      dup1\n        /* \"#utility.yul\":5819:5831   */\n      revert\n        /* \"#utility.yul\":5773:5833   */\n    tag_508:\n        /* \"#utility.yul\":5723:5839   */\n      pop\n      jump\t// out\n        /* \"#utility.yul\":5845:5982   */\n    tag_412:\n        /* \"#utility.yul\":5899:5904   */\n      0x00\n        /* \"#utility.yul\":5930:5936   */\n      dup2\n        /* \"#utility.yul\":5924:5937   */\n      mload\n        /* \"#utility.yul\":5915:5937   */\n      swap1\n      pop\n        /* \"#utility.yul\":5946:5976   */\n      tag_510\n        /* \"#utility.yul\":5970:5975   */\n      dup2\n        /* \"#utility.yul\":5946:5976   */\n      tag_411\n      jump\t// in\n    tag_510:\n        /* \"#utility.yul\":5845:5982   */\n      swap3\n      swap2\n      pop\n      pop\n      jump\t// out\n        /* \"#utility.yul\":5988:6333   */\n    tag_112:\n        /* \"#utility.yul\":6055:6061   */\n      0x00\n        /* \"#utility.yul\":6104:6106   */\n      0x20\n        /* \"#utility.yul\":6092:6101   */\n      dup3\n        /* \"#utility.yul\":6083:6090   */\n      dup5\n        /* \"#utility.yul\":6079:6102   */\n      sub\n        /* \"#utility.yul\":6075:6107   */\n      slt\n        /* \"#utility.yul\":6072:6191   */\n      iszero\n      tag_512\n      jumpi\n        /* \"#utility.yul\":6110:6189   */\n      tag_513\n      tag_394\n      jump\t// in\n    tag_513:\n        /* \"#utility.yul\":6072:6191   */\n    tag_512:\n        /* \"#utility.yul\":6230:6231   */\n      0x00\n        /* \"#utility.yul\":6255:6316   */\n      tag_514\n        /* \"#utility.yul\":6308:6315   */\n      dup5\n        /* \"#utility.yul\":6299:6305   */\n      dup3\n        /* \"#utility.yul\":6288:6297   */\n      dup6\n        /* \"#utility.yul\":6284:6306   */\n      add\n        /* \"#utility.yul\":6255:6316   */\n      tag_412\n      jump\t// in\n    tag_514:\n        /* \"#utility.yul\":6245:6316   */\n      swap2\n      pop\n        /* \"#utility.yul\":6201:6326   */\n      pop\n        /* \"#utility.yul\":5988:6333   */\n      swap3\n      swap2\n      pop\n      pop\n      jump\t// out\n        /* \"#utility.yul\":6339:6519   */\n    tag_413:\n        /* \"#utility.yul\":6387:6464   */\n      0x4e487b7100000000000000000000000000000000000000000000000000000000\n        /* \"#utility.yul\":6384:6385   */\n      0x00\n        /* \"#utility.yul\":6377:6465   */\n      mstore\n        /* \"#utility.yul\":6484:6488   */\n      0x11\n        /* \"#utility.yul\":6481:6482   */\n      0x04\n        /* \"#utility.yul\":6474:6489   */\n      mstore\n        /* \"#utility.yul\":6508:6512   */\n      0x24\n        /* \"#utility.yul\":6505:6506   */\n      0x00\n        /* \"#utility.yul\":6498:6513   */\n      revert\n        /* \"#utility.yul\":6525:6935   */\n    tag_114:\n        /* \"#utility.yul\":6565:6572   */\n      0x00\n        /* \"#utility.yul\":6588:6608   */\n      tag_517\n        /* \"#utility.yul\":6606:6607   */\n      dup3\n        /* \"#utility.yul\":6588:6608   */\n      tag_396\n      jump\t// in\n    tag_517:\n        /* \"#utility.yul\":6583:6608   */\n      swap2\n      pop\n        /* \"#utility.yul\":6622:6642   */\n      tag_518\n        /* \"#utility.yul\":6640:6641   */\n      dup4\n        /* \"#utility.yul\":6622:6642   */\n      tag_396\n      jump\t// in\n    tag_518:\n        /* \"#utility.yul\":6617:6642   */\n      swap3\n      pop\n        /* \"#utility.yul\":6677:6678   */\n      dup3\n        /* \"#utility.yul\":6674:6675   */\n      dup3\n        /* \"#utility.yul\":6670:6679   */\n      mul\n        /* \"#utility.yul\":6699:6729   */\n      tag_519\n        /* \"#utility.yul\":6717:6728   */\n      dup2\n        /* \"#utility.yul\":6699:6729   */\n      tag_396\n      jump\t// in\n    tag_519:\n        /* \"#utility.yul\":6688:6729   */\n      swap2\n      pop\n        /* \"#utility.yul\":6878:6879   */\n      dup3\n        /* \"#utility.yul\":6869:6876   */\n      dup3\n        /* \"#utility.yul\":6865:6880   */\n      div\n        /* \"#utility.yul\":6862:6863   */\n      dup5\n        /* \"#utility.yul\":6859:6881   */\n      eq\n        /* \"#utility.yul\":6839:6840   */\n      dup4\n        /* \"#utility.yul\":6832:6841   */\n      iszero\n        /* \"#utility.yul\":6812:6895   */\n      or\n        /* \"#utility.yul\":6789:6928   */\n      tag_520\n      jumpi\n        /* \"#utility.yul\":6908:6926   */\n      tag_521\n      tag_413\n      jump\t// in\n    tag_521:\n        /* \"#utility.yul\":6789:6928   */\n    tag_520:\n        /* \"#utility.yul\":6573:6935   */\n      pop\n        /* \"#utility.yul\":6525:6935   */\n      swap3\n      swap2\n      pop\n      pop\n      jump\t// out\n        /* \"#utility.yul\":6941:7121   */\n    tag_414:\n        /* \"#utility.yul\":6989:7066   */\n      0x4e487b7100000000000000000000000000000000000000000000000000000000\n        /* \"#utility.yul\":6986:6987   */\n      0x00\n        /* \"#utility.yul\":6979:7067   */\n      mstore\n        /* \"#utility.yul\":7086:7090   */\n      0x12\n        /* \"#utility.yul\":7083:7084   */\n      0x04\n        /* \"#utility.yul\":7076:7091   */\n      mstore\n        /* \"#utility.yul\":7110:7114   */\n      0x24\n        /* \"#utility.yul\":7107:7108   */\n      0x00\n        /* \"#utility.yul\":7100:7115   */\n      revert\n        /* \"#utility.yul\":7127:7312   */\n    tag_116:\n        /* \"#utility.yul\":7167:7168   */\n      0x00\n        /* \"#utility.yul\":7184:7204   */\n      tag_524\n        /* \"#utility.yul\":7202:7203   */\n      dup3\n        /* \"#utility.yul\":7184:7204   */\n      tag_396\n      jump\t// in\n    tag_524:\n        /* \"#utility.yul\":7179:7204   */\n      swap2\n      pop\n        /* \"#utility.yul\":7218:7238   */\n      tag_525\n        /* \"#utility.yul\":7236:7237   */\n      dup4\n        /* \"#utility.yul\":7218:7238   */\n      tag_396\n      jump\t// in\n    tag_525:\n        /* \"#utility.yul\":7213:7238   */\n      swap3\n      pop\n        /* \"#utility.yul\":7257:7258   */\n      dup3\n        /* \"#utility.yul\":7247:7282   */\n      tag_526\n      jumpi\n        /* \"#utility.yul\":7262:7280   */\n      tag_527\n      tag_414\n      jump\t// in\n    tag_527:\n        /* \"#utility.yul\":7247:7282   */\n    tag_526:\n        /* \"#utility.yul\":7304:7305   */\n      dup3\n        /* \"#utility.yul\":7301:7302   */\n      dup3\n        /* \"#utility.yul\":7297:7306   */\n      div\n        /* \"#utility.yul\":7292:7306   */\n      swap1\n      pop\n        /* \"#utility.yul\":7127:7312   */\n      swap3\n      swap2\n      pop\n      pop\n      jump\t// out\n        /* \"#utility.yul\":7318:7509   */\n    tag_118:\n        /* \"#utility.yul\":7358:7361   */\n      0x00\n        /* \"#utility.yul\":7377:7397   */\n      tag_529\n        /* \"#utility.yul\":7395:7396   */\n      dup3\n        /* \"#utility.yul\":7377:7397   */\n      tag_396\n      jump\t// in\n    tag_529:\n        /* \"#utility.yul\":7372:7397   */\n      swap2\n      pop\n        /* \"#utility.yul\":7411:7431   */\n      tag_530\n        /* \"#utility.yul\":7429:7430   */\n      dup4\n        /* \"#utility.yul\":7411:7431   */\n      tag_396\n      jump\t// in\n    tag_530:\n        /* \"#utility.yul\":7406:7431   */\n      swap3\n      pop\n        /* \"#utility.yul\":7454:7455   */\n      dup3\n        /* \"#utility.yul\":7451:7452   */\n      dup3\n        /* \"#utility.yul\":7447:7456   */\n      add\n        /* \"#utility.yul\":7440:7456   */\n      swap1\n      pop\n        /* \"#utility.yul\":7475:7478   */\n      dup1\n        /* \"#utility.yul\":7472:7473   */\n      dup3\n        /* \"#utility.yul\":7469:7479   */\n      gt\n        /* \"#utility.yul\":7466:7502   */\n      iszero\n      tag_531\n      jumpi\n        /* \"#utility.yul\":7482:7500   */\n      tag_532\n      tag_413\n      jump\t// in\n    tag_532:\n        /* \"#utility.yul\":7466:7502   */\n    tag_531:\n        /* \"#utility.yul\":7318:7509   */\n      swap3\n      swap2\n      pop\n      pop\n      jump\t// out\n        /* \"#utility.yul\":7515:7684   */\n    tag_415:\n        /* \"#utility.yul\":7599:7610   */\n      0x00\n        /* \"#utility.yul\":7633:7639   */\n      dup3\n        /* \"#utility.yul\":7628:7631   */\n      dup3\n        /* \"#utility.yul\":7621:7640   */\n      mstore\n        /* \"#utility.yul\":7673:7677   */\n      0x20\n        /* \"#utility.yul\":7668:7671   */\n      dup3\n        /* \"#utility.yul\":7664:7678   */\n      add\n        /* \"#utility.yul\":7649:7678   */\n      swap1\n      pop\n        /* \"#utility.yul\":7515:7684   */\n      swap3\n      swap2\n      pop\n      pop\n      jump\t// out\n        /* \"#utility.yul\":7690:7866   */\n    tag_416:\n        /* \"#utility.yul\":7830:7858   */\n      0x496e73756666696369656e74206f757470757420616d6f756e74000000000000\n        /* \"#utility.yul\":7826:7827   */\n      0x00\n        /* \"#utility.yul\":7818:7824   */\n      dup3\n        /* \"#utility.yul\":7814:7828   */\n      add\n        /* \"#utility.yul\":7807:7859   */\n      mstore\n        /* \"#utility.yul\":7690:7866   */\n      pop\n      jump\t// out\n        /* \"#utility.yul\":7872:8238   */\n    tag_417:\n        /* \"#utility.yul\":8014:8017   */\n      0x00\n        /* \"#utility.yul\":8035:8102   */\n      tag_536\n        /* \"#utility.yul\":8099:8101   */\n      0x1a\n        /* \"#utility.yul\":8094:8097   */\n      dup4\n        /* \"#utility.yul\":8035:8102   */\n      tag_415\n      jump\t// in\n    tag_536:\n        /* \"#utility.yul\":8028:8102   */\n      swap2\n      pop\n        /* \"#utility.yul\":8111:8204   */\n      tag_537\n        /* \"#utility.yul\":8200:8203   */\n      dup3\n        /* \"#utility.yul\":8111:8204   */\n      tag_416\n      jump\t// in\n    tag_537:\n        /* \"#utility.yul\":8229:8231   */\n      0x20\n        /* \"#utility.yul\":8224:8227   */\n      dup3\n        /* \"#utility.yul\":8220:8232   */\n      add\n        /* \"#utility.yul\":8213:8232   */\n      swap1\n      pop\n        /* \"#utility.yul\":7872:8238   */\n      swap2\n      swap1\n      pop\n      jump\t// out\n        /* \"#utility.yul\":8244:8663   */\n    tag_123:\n        /* \"#utility.yul\":8410:8414   */\n      0x00\n        /* \"#utility.yul\":8448:8450   */\n      0x20\n        /* \"#utility.yul\":8437:8446   */\n      dup3\n        /* \"#utility.yul\":8433:8451   */\n      add\n        /* \"#utility.yul\":8425:8451   */\n      swap1\n      pop\n        /* \"#utility.yul\":8497:8506   */\n      dup2\n        /* \"#utility.yul\":8491:8495   */\n      dup2\n        /* \"#utility.yul\":8487:8507   */\n      sub\n        /* \"#utility.yul\":8483:8484   */\n      0x00\n        /* \"#utility.yul\":8472:8481   */\n      dup4\n        /* \"#utility.yul\":8468:8485   */\n      add\n        /* \"#utility.yul\":8461:8508   */\n      mstore\n        /* \"#utility.yul\":8525:8656   */\n      tag_539\n        /* \"#utility.yul\":8651:8655   */\n      dup2\n        /* \"#utility.yul\":8525:8656   */\n      tag_417\n      jump\t// in\n    tag_539:\n        /* \"#utility.yul\":8517:8656   */\n      swap1\n      pop\n        /* \"#utility.yul\":8244:8663   */\n      swap2\n      swap1\n      pop\n      jump\t// out\n        /* \"#utility.yul\":8669:8863   */\n    tag_125:\n        /* \"#utility.yul\":8709:8713   */\n      0x00\n        /* \"#utility.yul\":8729:8749   */\n      tag_541\n        /* \"#utility.yul\":8747:8748   */\n      dup3\n        /* \"#utility.yul\":8729:8749   */\n      tag_396\n      jump\t// in\n    tag_541:\n        /* \"#utility.yul\":8724:8749   */\n      swap2\n      pop\n        /* \"#utility.yul\":8763:8783   */\n      tag_542\n        /* \"#utility.yul\":8781:8782   */\n      dup4\n        /* \"#utility.yul\":8763:8783   */\n      tag_396\n      jump\t// in\n    tag_542:\n        /* \"#utility.yul\":8758:8783   */\n      swap3\n      pop\n        /* \"#utility.yul\":8807:8808   */\n      dup3\n        /* \"#utility.yul\":8804:8805   */\n      dup3\n        /* \"#utility.yul\":8800:8809   */\n      sub\n        /* \"#utility.yul\":8792:8809   */\n      swap1\n      pop\n        /* \"#utility.yul\":8831:8832   */\n      dup2\n        /* \"#utility.yul\":8825:8829   */\n      dup2\n        /* \"#utility.yul\":8822:8833   */\n      gt\n        /* \"#utility.yul\":8819:8856   */\n      iszero\n      tag_543\n      jumpi\n        /* \"#utility.yul\":8836:8854   */\n      tag_544\n      tag_413\n      jump\t// in\n    tag_544:\n        /* \"#utility.yul\":8819:8856   */\n    tag_543:\n        /* \"#utility.yul\":8669:8863   */\n      swap3\n      swap2\n      pop\n      pop\n      jump\t// out\n        /* \"#utility.yul\":8869:9027   */\n    tag_418:\n        /* \"#utility.yul\":9009:9019   */\n      0x536c69704c6f636b000000000000000000000000000000000000000000000000\n        /* \"#utility.yul\":9005:9006   */\n      0x00\n        /* \"#utility.yul\":8997:9003   */\n      dup3\n        /* \"#utility.yul\":8993:9007   */\n      add\n        /* \"#utility.yul\":8986:9020   */\n      mstore\n        /* \"#utility.yul\":8869:9027   */\n      pop\n      jump\t// out\n        /* \"#utility.yul\":9033:9398   */\n    tag_419:\n        /* \"#utility.yul\":9175:9178   */\n      0x00\n        /* \"#utility.yul\":9196:9262   */\n      tag_547\n        /* \"#utility.yul\":9260:9261   */\n      0x08\n        /* \"#utility.yul\":9255:9258   */\n      dup4\n        /* \"#utility.yul\":9196:9262   */\n      tag_415\n      jump\t// in\n    tag_547:\n        /* \"#utility.yul\":9189:9262   */\n      swap2\n      pop\n        /* \"#utility.yul\":9271:9364   */\n      tag_548\n        /* \"#utility.yul\":9360:9363   */\n      dup3\n        /* \"#utility.yul\":9271:9364   */\n      tag_418\n      jump\t// in\n    tag_548:\n        /* \"#utility.yul\":9389:9391   */\n      0x20\n        /* \"#utility.yul\":9384:9387   */\n      dup3\n        /* \"#utility.yul\":9380:9392   */\n      add\n        /* \"#utility.yul\":9373:9392   */\n      swap1\n      pop\n        /* \"#utility.yul\":9033:9398   */\n      swap2\n      swap1\n      pop\n      jump\t// out\n        /* \"#utility.yul\":9404:9823   */\n    tag_130:\n        /* \"#utility.yul\":9570:9574   */\n      0x00\n        /* \"#utility.yul\":9608:9610   */\n      0x20\n        /* \"#utility.yul\":9597:9606   */\n      dup3\n        /* \"#utility.yul\":9593:9611   */\n      add\n        /* \"#utility.yul\":9585:9611   */\n      swap1\n      pop\n        /* \"#utility.yul\":9657:9666   */\n      dup2\n        /* \"#utility.yul\":9651:9655   */\n      dup2\n        /* \"#utility.yul\":9647:9667   */\n      sub\n        /* \"#utility.yul\":9643:9644   */\n      0x00\n        /* \"#utility.yul\":9632:9641   */\n      dup4\n        /* \"#utility.yul\":9628:9645   */\n      add\n        /* \"#utility.yul\":9621:9668   */\n      mstore\n        /* \"#utility.yul\":9685:9816   */\n      tag_550\n        /* \"#utility.yul\":9811:9815   */\n      dup2\n        /* \"#utility.yul\":9685:9816   */\n      tag_419\n      jump\t// in\n    tag_550:\n        /* \"#utility.yul\":9677:9816   */\n      swap1\n      pop\n        /* \"#utility.yul\":9404:9823   */\n      swap2\n      swap1\n      pop\n      jump\t// out\n        /* \"#utility.yul\":9829:10161   */\n    tag_138:\n        /* \"#utility.yul\":9950:9954   */\n      0x00\n        /* \"#utility.yul\":9988:9990   */\n      0x40\n        /* \"#utility.yul\":9977:9986   */\n      dup3\n        /* \"#utility.yul\":9973:9991   */\n      add\n        /* \"#utility.yul\":9965:9991   */\n      swap1\n      pop\n        /* \"#utility.yul\":10001:10072   */\n      tag_552\n        /* \"#utility.yul\":10069:10070   */\n      0x00\n        /* \"#utility.yul\":10058:10067   */\n      dup4\n        /* \"#utility.yul\":10054:10071   */\n      add\n        /* \"#utility.yul\":10045:10051   */\n      dup6\n        /* \"#utility.yul\":10001:10072   */\n      tag_409\n      jump\t// in\n    tag_552:\n        /* \"#utility.yul\":10082:10154   */\n      tag_553\n        /* \"#utility.yul\":10150:10152   */\n      0x20\n        /* \"#utility.yul\":10139:10148   */\n      dup4\n        /* \"#utility.yul\":10135:10153   */\n      add\n        /* \"#utility.yul\":10126:10132   */\n      dup5\n        /* \"#utility.yul\":10082:10154   */\n      tag_399\n      jump\t// in\n    tag_553:\n        /* \"#utility.yul\":9829:10161   */\n      swap4\n      swap3\n      pop\n      pop\n      pop\n      jump\t// out\n        /* \"#utility.yul\":10167:10389   */\n    tag_144:\n        /* \"#utility.yul\":10260:10264   */\n      0x00\n        /* \"#utility.yul\":10298:10300   */\n      0x20\n        /* \"#utility.yul\":10287:10296   */\n      dup3\n        /* \"#utility.yul\":10283:10301   */\n      add\n        /* \"#utility.yul\":10275:10301   */\n      swap1\n      pop\n        /* \"#utility.yul\":10311:10382   */\n      tag_555\n        /* \"#utility.yul\":10379:10380   */\n      0x00\n        /* \"#utility.yul\":10368:10377   */\n      dup4\n        /* \"#utility.yul\":10364:10381   */\n      add\n        /* \"#utility.yul\":10355:10361   */\n      dup5\n        /* \"#utility.yul\":10311:10382   */\n      tag_409\n      jump\t// in\n    tag_555:\n        /* \"#utility.yul\":10167:10389   */\n      swap3\n      swap2\n      pop\n      pop\n      jump\t// out\n        /* \"#utility.yul\":10395:10538   */\n    tag_420:\n        /* \"#utility.yul\":10452:10457   */\n      0x00\n        /* \"#utility.yul\":10483:10489   */\n      dup2\n        /* \"#utility.yul\":10477:10490   */\n      mload\n        /* \"#utility.yul\":10468:10490   */\n      swap1\n      pop\n        /* \"#utility.yul\":10499:10532   */\n      tag_557\n        /* \"#utility.yul\":10526:10531   */\n      dup2\n        /* \"#utility.yul\":10499:10532   */\n      tag_397\n      jump\t// in\n    tag_557:\n        /* \"#utility.yul\":10395:10538   */\n      swap3\n      swap2\n      pop\n      pop\n      jump\t// out\n        /* \"#utility.yul\":10544:10895   */\n    tag_148:\n        /* \"#utility.yul\":10614:10620   */\n      0x00\n        /* \"#utility.yul\":10663:10665   */\n      0x20\n        /* \"#utility.yul\":10651:10660   */\n      dup3\n        /* \"#utility.yul\":10642:10649   */\n      dup5\n        /* \"#utility.yul\":10638:10661   */\n      sub\n        /* \"#utility.yul\":10634:10666   */\n      slt\n        /* \"#utility.yul\":10631:10750   */\n      iszero\n      tag_559\n      jumpi\n        /* \"#utility.yul\":10669:10748   */\n      tag_560\n      tag_394\n      jump\t// in\n    tag_560:\n        /* \"#utility.yul\":10631:10750   */\n    tag_559:\n        /* \"#utility.yul\":10789:10790   */\n      0x00\n        /* \"#utility.yul\":10814:10878   */\n      tag_561\n        /* \"#utility.yul\":10870:10877   */\n      dup5\n        /* \"#utility.yul\":10861:10867   */\n      dup3\n        /* \"#utility.yul\":10850:10859   */\n      dup6\n        /* \"#utility.yul\":10846:10868   */\n      add\n        /* \"#utility.yul\":10814:10878   */\n      tag_420\n      jump\t// in\n    tag_561:\n        /* \"#utility.yul\":10804:10878   */\n      swap2\n      pop\n        /* \"#utility.yul\":10760:10888   */\n      pop\n        /* \"#utility.yul\":10544:10895   */\n      swap3\n      swap2\n      pop\n      pop\n      jump\t// out\n        /* \"#utility.yul\":10901:11067   */\n    tag_421:\n        /* \"#utility.yul\":11041:11059   */\n      0x496e76616c696420726573657276657300000000000000000000000000000000\n        /* \"#utility.yul\":11037:11038   */\n      0x00\n        /* \"#utility.yul\":11029:11035   */\n      dup3\n        /* \"#utility.yul\":11025:11039   */\n      add\n        /* \"#utility.yul\":11018:11060   */\n      mstore\n        /* \"#utility.yul\":10901:11067   */\n      pop\n      jump\t// out\n        /* \"#utility.yul\":11073:11439   */\n    tag_422:\n        /* \"#utility.yul\":11215:11218   */\n      0x00\n        /* \"#utility.yul\":11236:11303   */\n      tag_564\n        /* \"#utility.yul\":11300:11302   */\n      0x10\n        /* \"#utility.yul\":11295:11298   */\n      dup4\n        /* \"#utility.yul\":11236:11303   */\n      tag_415\n      jump\t// in\n    tag_564:\n        /* \"#utility.yul\":11229:11303   */\n      swap2\n      pop\n        /* \"#utility.yul\":11312:11405   */\n      tag_565\n        /* \"#utility.yul\":11401:11404   */\n      dup3\n        /* \"#utility.yul\":11312:11405   */\n      tag_421\n      jump\t// in\n    tag_565:\n        /* \"#utility.yul\":11430:11432   */\n      0x20\n        /* \"#utility.yul\":11425:11428   */\n      dup3\n        /* \"#utility.yul\":11421:11433   */\n      add\n        /* \"#utility.yul\":11414:11433   */\n      swap1\n      pop\n        /* \"#utility.yul\":11073:11439   */\n      swap2\n      swap1\n      pop\n      jump\t// out\n        /* \"#utility.yul\":11445:11864   */\n    tag_159:\n        /* \"#utility.yul\":11611:11615   */\n      0x00\n        /* \"#utility.yul\":11649:11651   */\n      0x20\n        /* \"#utility.yul\":11638:11647   */\n      dup3\n        /* \"#utility.yul\":11634:11652   */\n      add\n        /* \"#utility.yul\":11626:11652   */\n      swap1\n      pop\n        /* \"#utility.yul\":11698:11707   */\n      dup2\n        /* \"#utility.yul\":11692:11696   */\n      dup2\n        /* \"#utility.yul\":11688:11708   */\n      sub\n        /* \"#utility.yul\":11684:11685   */\n      0x00\n        /* \"#utility.yul\":11673:11682   */\n      dup4\n        /* \"#utility.yul\":11669:11686   */\n      add\n        /* \"#utility.yul\":11662:11709   */\n      mstore\n        /* \"#utility.yul\":11726:11857   */\n      tag_567\n        /* \"#utility.yul\":11852:11856   */\n      dup2\n        /* \"#utility.yul\":11726:11857   */\n      tag_422\n      jump\t// in\n    tag_567:\n        /* \"#utility.yul\":11718:11857   */\n      swap1\n      pop\n        /* \"#utility.yul\":11445:11864   */\n      swap2\n      swap1\n      pop\n      jump\t// out\n        /* \"#utility.yul\":11870:11956   */\n    tag_423:\n        /* \"#utility.yul\":11905:11912   */\n      0x00\n        /* \"#utility.yul\":11945:11949   */\n      0xff\n        /* \"#utility.yul\":11938:11943   */\n      dup3\n        /* \"#utility.yul\":11934:11950   */\n      and\n        /* \"#utility.yul\":11923:11950   */\n      swap1\n      pop\n        /* \"#utility.yul\":11870:11956   */\n      swap2\n      swap1\n      pop\n      jump\t// out\n        /* \"#utility.yul\":11962:12080   */\n    tag_424:\n        /* \"#utility.yul\":12033:12055   */\n      tag_570\n        /* \"#utility.yul\":12049:12054   */\n      dup2\n        /* \"#utility.yul\":12033:12055   */\n      tag_423\n      jump\t// in\n    tag_570:\n        /* \"#utility.yul\":12026:12031   */\n      dup2\n        /* \"#utility.yul\":12023:12056   */\n      eq\n        /* \"#utility.yul\":12013:12074   */\n      tag_571\n      jumpi\n        /* \"#utility.yul\":12070:12071   */\n      0x00\n        /* \"#utility.yul\":12067:12068   */\n      dup1\n        /* \"#utility.yul\":12060:12072   */\n      revert\n        /* \"#utility.yul\":12013:12074   */\n    tag_571:\n        /* \"#utility.yul\":11962:12080   */\n      pop\n      jump\t// out\n        /* \"#utility.yul\":12086:12225   */\n    tag_425:\n        /* \"#utility.yul\":12141:12146   */\n      0x00\n        /* \"#utility.yul\":12172:12178   */\n      dup2\n        /* \"#utility.yul\":12166:12179   */\n      mload\n        /* \"#utility.yul\":12157:12179   */\n      swap1\n      pop\n        /* \"#utility.yul\":12188:12219   */\n      tag_573\n        /* \"#utility.yul\":12213:12218   */\n      dup2\n        /* \"#utility.yul\":12188:12219   */\n      tag_424\n      jump\t// in\n    tag_573:\n        /* \"#utility.yul\":12086:12225   */\n      swap3\n      swap2\n      pop\n      pop\n      jump\t// out\n        /* \"#utility.yul\":12231:12578   */\n    tag_172:\n        /* \"#utility.yul\":12299:12305   */\n      0x00\n        /* \"#utility.yul\":12348:12350   */\n      0x20\n        /* \"#utility.yul\":12336:12345   */\n      dup3\n        /* \"#utility.yul\":12327:12334   */\n      dup5\n        /* \"#utility.yul\":12323:12346   */\n      sub\n        /* \"#utility.yul\":12319:12351   */\n      slt\n        /* \"#utility.yul\":12316:12435   */\n      iszero\n      tag_575\n      jumpi\n        /* \"#utility.yul\":12354:12433   */\n      tag_576\n      tag_394\n      jump\t// in\n    tag_576:\n        /* \"#utility.yul\":12316:12435   */\n    tag_575:\n        /* \"#utility.yul\":12474:12475   */\n      0x00\n        /* \"#utility.yul\":12499:12561   */\n      tag_577\n        /* \"#utility.yul\":12553:12560   */\n      dup5\n        /* \"#utility.yul\":12544:12550   */\n      dup3\n        /* \"#utility.yul\":12533:12542   */\n      dup6\n        /* \"#utility.yul\":12529:12551   */\n      add\n        /* \"#utility.yul\":12499:12561   */\n      tag_425\n      jump\t// in\n    tag_577:\n        /* \"#utility.yul\":12489:12561   */\n      swap2\n      pop\n        /* \"#utility.yul\":12445:12571   */\n      pop\n        /* \"#utility.yul\":12231:12578   */\n      swap3\n      swap2\n      pop\n      pop\n      jump\t// out\n        /* \"#utility.yul\":12584:12686   */\n    tag_426:\n        /* \"#utility.yul\":12626:12634   */\n      0x00\n        /* \"#utility.yul\":12673:12678   */\n      dup2\n        /* \"#utility.yul\":12670:12671   */\n      0x01\n        /* \"#utility.yul\":12666:12679   */\n      shr\n        /* \"#utility.yul\":12645:12679   */\n      swap1\n      pop\n        /* \"#utility.yul\":12584:12686   */\n      swap2\n      swap1\n      pop\n      jump\t// out\n        /* \"#utility.yul\":12692:13540   */\n    tag_427:\n        /* \"#utility.yul\":12753:12758   */\n      0x00\n        /* \"#utility.yul\":12760:12764   */\n      dup1\n        /* \"#utility.yul\":12784:12790   */\n      dup3\n        /* \"#utility.yul\":12775:12790   */\n      swap2\n      pop\n        /* \"#utility.yul\":12808:12813   */\n      dup4\n        /* \"#utility.yul\":12799:12813   */\n      swap1\n      pop\n        /* \"#utility.yul\":12822:13534   */\n    tag_580:\n        /* \"#utility.yul\":12843:12844   */\n      0x01\n        /* \"#utility.yul\":12833:12841   */\n      dup6\n        /* \"#utility.yul\":12830:12845   */\n      gt\n        /* \"#utility.yul\":12822:13534   */\n      iszero\n      tag_582\n      jumpi\n        /* \"#utility.yul\":12938:12942   */\n      dup1\n        /* \"#utility.yul\":12933:12936   */\n      dup7\n        /* \"#utility.yul\":12929:12943   */\n      div\n        /* \"#utility.yul\":12923:12927   */\n      dup2\n        /* \"#utility.yul\":12920:12944   */\n      gt\n        /* \"#utility.yul\":12917:12967   */\n      iszero\n      tag_583\n      jumpi\n        /* \"#utility.yul\":12947:12965   */\n      tag_584\n      tag_413\n      jump\t// in\n    tag_584:\n        /* \"#utility.yul\":12917:12967   */\n    tag_583:\n        /* \"#utility.yul\":12997:12998   */\n      0x01\n        /* \"#utility.yul\":12987:12995   */\n      dup6\n        /* \"#utility.yul\":12983:12999   */\n      and\n        /* \"#utility.yul\":12980:13431   */\n      iszero\n      tag_585\n      jumpi\n        /* \"#utility.yul\":13412:13416   */\n      dup1\n        /* \"#utility.yul\":13405:13410   */\n      dup3\n        /* \"#utility.yul\":13401:13417   */\n      mul\n        /* \"#utility.yul\":13392:13417   */\n      swap2\n      pop\n        /* \"#utility.yul\":12980:13431   */\n    tag_585:\n        /* \"#utility.yul\":13462:13466   */\n      dup1\n        /* \"#utility.yul\":13456:13460   */\n      dup2\n        /* \"#utility.yul\":13452:13467   */\n      mul\n        /* \"#utility.yul\":13444:13467   */\n      swap1\n      pop\n        /* \"#utility.yul\":13492:13524   */\n      tag_586\n        /* \"#utility.yul\":13515:13523   */\n      dup6\n        /* \"#utility.yul\":13492:13524   */\n      tag_426\n      jump\t// in\n    tag_586:\n        /* \"#utility.yul\":13480:13524   */\n      swap5\n      pop\n        /* \"#utility.yul\":12822:13534   */\n      jump(tag_580)\n    tag_582:\n        /* \"#utility.yul\":12692:13540   */\n      swap5\n      pop\n      swap5\n      swap3\n      pop\n      pop\n      pop\n      jump\t// out\n        /* \"#utility.yul\":13546:14619   */\n    tag_428:\n        /* \"#utility.yul\":13600:13605   */\n      0x00\n        /* \"#utility.yul\":13791:13799   */\n      dup3\n        /* \"#utility.yul\":13781:13821   */\n      tag_588\n      jumpi\n        /* \"#utility.yul\":13812:13813   */\n      0x01\n        /* \"#utility.yul\":13803:13813   */\n      swap1\n      pop\n        /* \"#utility.yul\":13814:13819   */\n      jump(tag_587)\n        /* \"#utility.yul\":13781:13821   */\n    tag_588:\n        /* \"#utility.yul\":13840:13844   */\n      dup2\n        /* \"#utility.yul\":13830:13866   */\n      tag_589\n      jumpi\n        /* \"#utility.yul\":13857:13858   */\n      0x00\n        /* \"#utility.yul\":13848:13858   */\n      swap1\n      pop\n        /* \"#utility.yul\":13859:13864   */\n      jump(tag_587)\n        /* \"#utility.yul\":13830:13866   */\n    tag_589:\n        /* \"#utility.yul\":13926:13930   */\n      dup2\n        /* \"#utility.yul\":13974:13975   */\n      0x01\n        /* \"#utility.yul\":13969:13996   */\n      dup2\n      eq\n      tag_591\n      jumpi\n        /* \"#utility.yul\":14010:14011   */\n      0x02\n        /* \"#utility.yul\":14005:14196   */\n      dup2\n      eq\n      tag_592\n      jumpi\n        /* \"#utility.yul\":13919:14196   */\n      jump(tag_590)\n        /* \"#utility.yul\":13969:13996   */\n    tag_591:\n        /* \"#utility.yul\":13987:13988   */\n      0x01\n        /* \"#utility.yul\":13978:13988   */\n      swap2\n      pop\n        /* \"#utility.yul\":13989:13994   */\n      pop\n      jump(tag_587)\n        /* \"#utility.yul\":14005:14196   */\n    tag_592:\n        /* \"#utility.yul\":14050:14053   */\n      0xff\n        /* \"#utility.yul\":14040:14048   */\n      dup5\n        /* \"#utility.yul\":14037:14054   */\n      gt\n        /* \"#utility.yul\":14034:14077   */\n      iszero\n      tag_593\n      jumpi\n        /* \"#utility.yul\":14057:14075   */\n      tag_594\n      tag_413\n      jump\t// in\n    tag_594:\n        /* \"#utility.yul\":14034:14077   */\n    tag_593:\n        /* \"#utility.yul\":14106:14114   */\n      dup4\n        /* \"#utility.yul\":14103:14104   */\n      0x02\n        /* \"#utility.yul\":14099:14115   */\n      exp\n        /* \"#utility.yul\":14090:14115   */\n      swap2\n      pop\n        /* \"#utility.yul\":14141:14144   */\n      dup5\n        /* \"#utility.yul\":14134:14139   */\n      dup3\n        /* \"#utility.yul\":14131:14145   */\n      gt\n        /* \"#utility.yul\":14128:14168   */\n      iszero\n      tag_595\n      jumpi\n        /* \"#utility.yul\":14148:14166   */\n      tag_596\n      tag_413\n      jump\t// in\n    tag_596:\n        /* \"#utility.yul\":14128:14168   */\n    tag_595:\n        /* \"#utility.yul\":14181:14186   */\n      pop\n      jump(tag_587)\n        /* \"#utility.yul\":13919:14196   */\n    tag_590:\n      pop\n        /* \"#utility.yul\":14305:14307   */\n      0x20\n        /* \"#utility.yul\":14295:14303   */\n      dup4\n        /* \"#utility.yul\":14292:14308   */\n      lt\n        /* \"#utility.yul\":14286:14289   */\n      0x0133\n        /* \"#utility.yul\":14280:14284   */\n      dup4\n        /* \"#utility.yul\":14277:14290   */\n      lt\n        /* \"#utility.yul\":14273:14309   */\n      and\n        /* \"#utility.yul\":14255:14257   */\n      0x4e\n        /* \"#utility.yul\":14245:14253   */\n      dup5\n        /* \"#utility.yul\":14242:14258   */\n      lt\n        /* \"#utility.yul\":14237:14239   */\n      0x0b\n        /* \"#utility.yul\":14231:14235   */\n      dup5\n        /* \"#utility.yul\":14228:14240   */\n      lt\n        /* \"#utility.yul\":14224:14259   */\n      and\n        /* \"#utility.yul\":14208:14319   */\n      or\n        /* \"#utility.yul\":14205:14451   */\n      iszero\n      tag_597\n      jumpi\n        /* \"#utility.yul\":14361:14369   */\n      dup3\n        /* \"#utility.yul\":14355:14359   */\n      dup3\n        /* \"#utility.yul\":14351:14370   */\n      exp\n        /* \"#utility.yul\":14342:14370   */\n      swap1\n      pop\n        /* \"#utility.yul\":14396:14399   */\n      dup4\n        /* \"#utility.yul\":14389:14394   */\n      dup2\n        /* \"#utility.yul\":14386:14400   */\n      gt\n        /* \"#utility.yul\":14383:14423   */\n      iszero\n      tag_598\n      jumpi\n        /* \"#utility.yul\":14403:14421   */\n      tag_599\n      tag_413\n      jump\t// in\n    tag_599:\n        /* \"#utility.yul\":14383:14423   */\n    tag_598:\n        /* \"#utility.yul\":14436:14441   */\n      jump(tag_587)\n        /* \"#utility.yul\":14205:14451   */\n    tag_597:\n        /* \"#utility.yul\":14476:14518   */\n      tag_600\n        /* \"#utility.yul\":14514:14517   */\n      dup5\n        /* \"#utility.yul\":14504:14512   */\n      dup5\n        /* \"#utility.yul\":14498:14502   */\n      dup5\n        /* \"#utility.yul\":14495:14496   */\n      0x01\n        /* \"#utility.yul\":14476:14518   */\n      tag_427\n      jump\t// in\n    tag_600:\n        /* \"#utility.yul\":14461:14518   */\n      swap3\n      pop\n      swap1\n      pop\n        /* \"#utility.yul\":14550:14554   */\n      dup2\n        /* \"#utility.yul\":14545:14548   */\n      dup5\n        /* \"#utility.yul\":14541:14555   */\n      div\n        /* \"#utility.yul\":14534:14539   */\n      dup2\n        /* \"#utility.yul\":14531:14556   */\n      gt\n        /* \"#utility.yul\":14528:14579   */\n      iszero\n      tag_601\n      jumpi\n        /* \"#utility.yul\":14559:14577   */\n      tag_602\n      tag_413\n      jump\t// in\n    tag_602:\n        /* \"#utility.yul\":14528:14579   */\n    tag_601:\n        /* \"#utility.yul\":14608:14612   */\n      dup2\n        /* \"#utility.yul\":14601:14606   */\n      dup2\n        /* \"#utility.yul\":14597:14613   */\n      mul\n        /* \"#utility.yul\":14588:14613   */\n      swap1\n      pop\n        /* \"#utility.yul\":13546:14619   */\n    tag_587:\n      swap4\n      swap3\n      pop\n      pop\n      pop\n      jump\t// out\n        /* \"#utility.yul\":14625:14910   */\n    tag_174:\n        /* \"#utility.yul\":14685:14690   */\n      0x00\n        /* \"#utility.yul\":14709:14732   */\n      tag_604\n        /* \"#utility.yul\":14727:14731   */\n      dup3\n        /* \"#utility.yul\":14709:14732   */\n      tag_396\n      jump\t// in\n    tag_604:\n        /* \"#utility.yul\":14701:14732   */\n      swap2\n      pop\n        /* \"#utility.yul\":14753:14780   */\n      tag_605\n        /* \"#utility.yul\":14771:14779   */\n      dup4\n        /* \"#utility.yul\":14753:14780   */\n      tag_396\n      jump\t// in\n    tag_605:\n        /* \"#utility.yul\":14741:14780   */\n      swap3\n      pop\n        /* \"#utility.yul\":14799:14903   */\n      tag_606\n        /* \"#utility.yul\":14836:14902   */\n      0xffffffffffffffffffffffffffffffffffffffffffffffffffffffffffffffff\n        /* \"#utility.yul\":14826:14834   */\n      dup5\n        /* \"#utility.yul\":14820:14824   */\n      dup5\n        /* \"#utility.yul\":14799:14903   */\n      tag_428\n      jump\t// in\n    tag_606:\n        /* \"#utility.yul\":14790:14903   */\n      swap1\n      pop\n        /* \"#utility.yul\":14625:14910   */\n      swap3\n      swap2\n      pop\n      pop\n      jump\t// out\n        /* \"#utility.yul\":14916:15086   */\n    tag_429:\n        /* \"#utility.yul\":15056:15078   */\n      0x496e73756666696369656e742062616c616e6365000000000000000000000000\n        /* \"#utility.yul\":15052:15053   */\n      0x00\n        /* \"#utility.yul\":15044:15050   */\n      dup3\n        /* \"#utility.yul\":15040:15054   */\n      add\n        /* \"#utility.yul\":15033:15079   */\n      mstore\n        /* \"#utility.yul\":14916:15086   */\n      pop\n      jump\t// out\n        /* \"#utility.yul\":15092:15458   */\n    tag_430:\n        /* \"#utility.yul\":15234:15237   */\n      0x00\n        /* \"#utility.yul\":15255:15322   */\n      tag_609\n        /* \"#utility.yul\":15319:15321   */\n      0x14\n        /* \"#utility.yul\":15314:15317   */\n      dup4\n        /* \"#utility.yul\":15255:15322   */\n      tag_415\n      jump\t// in\n    tag_609:\n        /* \"#utility.yul\":15248:15322   */\n      swap2\n      pop\n        /* \"#utility.yul\":15331:15424   */\n      tag_610\n        /* \"#utility.yul\":15420:15423   */\n      dup3\n        /* \"#utility.yul\":15331:15424   */\n      tag_429\n      jump\t// in\n    tag_610:\n        /* \"#utility.yul\":15449:15451   */\n      0x20\n        /* \"#utility.yul\":15444:15447   */\n      dup3\n        /* \"#utility.yul\":15440:15452   */\n      add\n        /* \"#utility.yul\":15433:15452   */\n      swap1\n      pop\n        /* \"#utility.yul\":15092:15458   */\n      swap2\n      swap1\n      pop\n      jump\t// out\n        /* \"#utility.yul\":15464:15883   */\n    tag_251:\n        /* \"#utility.yul\":15630:15634   */\n      0x00\n        /* \"#utility.yul\":15668:15670   */\n      0x20\n        /* \"#utility.yul\":15657:15666   */\n      dup3\n        /* \"#utility.yul\":15653:15671   */\n      add\n        /* \"#utility.yul\":15645:15671   */\n      swap1\n      pop\n        /* \"#utility.yul\":15717:15726   */\n      dup2\n        /* \"#utility.yul\":15711:15715   */\n      dup2\n        /* \"#utility.yul\":15707:15727   */\n      sub\n        /* \"#utility.yul\":15703:15704   */\n      0x00\n        /* \"#utility.yul\":15692:15701   */\n      dup4\n        /* \"#utility.yul\":15688:15705   */\n      add\n        /* \"#utility.yul\":15681:15728   */\n      mstore\n        /* \"#utility.yul\":15745:15876   */\n      tag_612\n        /* \"#utility.yul\":15871:15875   */\n      dup2\n        /* \"#utility.yul\":15745:15876   */\n      tag_430\n      jump\t// in\n    tag_612:\n        /* \"#utility.yul\":15737:15876   */\n      swap1\n      pop\n        /* \"#utility.yul\":15464:15883   */\n      swap2\n      swap1\n      pop\n      jump\t// out\n        /* \"#utility.yul\":15889:16062   */\n    tag_431:\n        /* \"#utility.yul\":16029:16054   */\n      0x496e76616c6964206c697175696469747920726174696f000000000000000000\n        /* \"#utility.yul\":16025:16026   */\n      0x00\n        /* \"#utility.yul\":16017:16023   */\n      dup3\n        /* \"#utility.yul\":16013:16027   */\n      add\n        /* \"#utility.yul\":16006:16055   */\n      mstore\n        /* \"#utility.yul\":15889:16062   */\n      pop\n      jump\t// out\n        /* \"#utility.yul\":16068:16434   */\n    tag_432:\n        /* \"#utility.yul\":16210:16213   */\n      0x00\n        /* \"#utility.yul\":16231:16298   */\n      tag_615\n        /* \"#utility.yul\":16295:16297   */\n      0x17\n        /* \"#utility.yul\":16290:16293   */\n      dup4\n        /* \"#utility.yul\":16231:16298   */\n      tag_415\n      jump\t// in\n    tag_615:\n        /* \"#utility.yul\":16224:16298   */\n      swap2\n      pop\n        /* \"#utility.yul\":16307:16400   */\n      tag_616\n        /* \"#utility.yul\":16396:16399   */\n      dup3\n        /* \"#utility.yul\":16307:16400   */\n      tag_431\n      jump\t// in\n    tag_616:\n        /* \"#utility.yul\":16425:16427   */\n      0x20\n        /* \"#utility.yul\":16420:16423   */\n      dup3\n        /* \"#utility.yul\":16416:16428   */\n      add\n        /* \"#utility.yul\":16409:16428   */\n      swap1\n      pop\n        /* \"#utility.yul\":16068:16434   */\n      swap2\n      swap1\n      pop\n      jump\t// out\n        /* \"#utility.yul\":16440:16859   */\n    tag_268:\n        /* \"#utility.yul\":16606:16610   */\n      0x00\n        /* \"#utility.yul\":16644:16646   */\n      0x20\n        /* \"#utility.yul\":16633:16642   */\n      dup3\n        /* \"#utility.yul\":16629:16647   */\n      add\n        /* \"#utility.yul\":16621:16647   */\n      swap1\n      pop\n        /* \"#utility.yul\":16693:16702   */\n      dup2\n        /* \"#utility.yul\":16687:16691   */\n      dup2\n        /* \"#utility.yul\":16683:16703   */\n      sub\n        /* \"#utility.yul\":16679:16680   */\n      0x00\n        /* \"#utility.yul\":16668:16677   */\n      dup4\n        /* \"#utility.yul\":16664:16681   */\n      add\n        /* \"#utility.yul\":16657:16704   */\n      mstore\n        /* \"#utility.yul\":16721:16852   */\n      tag_618\n        /* \"#utility.yul\":16847:16851   */\n      dup2\n        /* \"#utility.yul\":16721:16852   */\n      tag_432\n      jump\t// in\n    tag_618:\n        /* \"#utility.yul\":16713:16852   */\n      swap1\n      pop\n        /* \"#utility.yul\":16440:16859   */\n      swap2\n      swap1\n      pop\n      jump\t// out\n        /* \"#utility.yul\":16865:17025   */\n    tag_433:\n        /* \"#utility.yul\":17005:17017   */\n      0x736861726573203d203000000000000000000000000000000000000000000000\n        /* \"#utility.yul\":17001:17002   */\n      0x00\n        /* \"#utility.yul\":16993:16999   */\n      dup3\n        /* \"#utility.yul\":16989:17003   */\n      add\n        /* \"#utility.yul\":16982:17018   */\n      mstore\n        /* \"#utility.yul\":16865:17025   */\n      pop\n      jump\t// out\n        /* \"#utility.yul\":17031:17397   */\n    tag_434:\n        /* \"#utility.yul\":17173:17176   */\n      0x00\n        /* \"#utility.yul\":17194:17261   */\n      tag_621\n        /* \"#utility.yul\":17258:17260   */\n      0x0a\n        /* \"#utility.yul\":17253:17256   */\n      dup4\n        /* \"#utility.yul\":17194:17261   */\n      tag_415\n      jump\t// in\n    tag_621:\n        /* \"#utility.yul\":17187:17261   */\n      swap2\n      pop\n        /* \"#utility.yul\":17270:17363   */\n      tag_622\n        /* \"#utility.yul\":17359:17362   */\n      dup3\n        /* \"#utility.yul\":17270:17363   */\n      tag_433\n      jump\t// in\n    tag_622:\n        /* \"#utility.yul\":17388:17390   */\n      0x20\n        /* \"#utility.yul\":17383:17386   */\n      dup3\n        /* \"#utility.yul\":17379:17391   */\n      add\n        /* \"#utility.yul\":17372:17391   */\n      swap1\n      pop\n        /* \"#utility.yul\":17031:17397   */\n      swap2\n      swap1\n      pop\n      jump\t// out\n        /* \"#utility.yul\":17403:17822   */\n    tag_282:\n        /* \"#utility.yul\":17569:17573   */\n      0x00\n        /* \"#utility.yul\":17607:17609   */\n      0x20\n        /* \"#utility.yul\":17596:17605   */\n      dup3\n        /* \"#utility.yul\":17592:17610   */\n      add\n        /* \"#utility.yul\":17584:17610   */\n      swap1\n      pop\n        /* \"#utility.yul\":17656:17665   */\n      dup2\n        /* \"#utility.yul\":17650:17654   */\n      dup2\n        /* \"#utility.yul\":17646:17666   */\n      sub\n        /* \"#utility.yul\":17642:17643   */\n      0x00\n        /* \"#utility.yul\":17631:17640   */\n      dup4\n        /* \"#utility.yul\":17627:17644   */\n      add\n        /* \"#utility.yul\":17620:17667   */\n      mstore\n        /* \"#utility.yul\":17684:17815   */\n      tag_624\n        /* \"#utility.yul\":17810:17814   */\n      dup2\n        /* \"#utility.yul\":17684:17815   */\n      tag_434\n      jump\t// in\n    tag_624:\n        /* \"#utility.yul\":17676:17815   */\n      swap1\n      pop\n        /* \"#utility.yul\":17403:17822   */\n      swap2\n      swap1\n      pop\n      jump\t// out\n        /* \"#utility.yul\":17828:18000   */\n    tag_435:\n        /* \"#utility.yul\":17968:17992   */\n      0x616d6f756e7430206f7220616d6f756e7431203d203000000000000000000000\n        /* \"#utility.yul\":17964:17965   */\n      0x00\n        /* \"#utility.yul\":17956:17962   */\n      dup3\n        /* \"#utility.yul\":17952:17966   */\n      add\n        /* \"#utility.yul\":17945:17993   */\n      mstore\n        /* \"#utility.yul\":17828:18000   */\n      pop\n      jump\t// out\n        /* \"#utility.yul\":18006:18372   */\n    tag_436:\n        /* \"#utility.yul\":18148:18151   */\n      0x00\n        /* \"#utility.yul\":18169:18236   */\n      tag_627\n        /* \"#utility.yul\":18233:18235   */\n      0x16\n        /* \"#utility.yul\":18228:18231   */\n      dup4\n        /* \"#utility.yul\":18169:18236   */\n      tag_415\n      jump\t// in\n    tag_627:\n        /* \"#utility.yul\":18162:18236   */\n      swap2\n      pop\n        /* \"#utility.yul\":18245:18338   */\n      tag_628\n        /* \"#utility.yul\":18334:18337   */\n      dup3\n        /* \"#utility.yul\":18245:18338   */\n      tag_435\n      jump\t// in\n    tag_628:\n        /* \"#utility.yul\":18363:18365   */\n      0x20\n        /* \"#utility.yul\":18358:18361   */\n      dup3\n        /* \"#utility.yul\":18354:18366   */\n      add\n        /* \"#utility.yul\":18347:18366   */\n      swap1\n      pop\n        /* \"#utility.yul\":18006:18372   */\n      swap2\n      swap1\n      pop\n      jump\t// out\n        /* \"#utility.yul\":18378:18797   */\n    tag_356:\n        /* \"#utility.yul\":18544:18548   */\n      0x00\n        /* \"#utility.yul\":18582:18584   */\n      0x20\n        /* \"#utility.yul\":18571:18580   */\n      dup3\n        /* \"#utility.yul\":18567:18585   */\n      add\n        /* \"#utility.yul\":18559:18585   */\n      swap1\n      pop\n        /* \"#utility.yul\":18631:18640   */\n      dup2\n        /* \"#utility.yul\":18625:18629   */\n      dup2\n        /* \"#utility.yul\":18621:18641   */\n      sub\n        /* \"#utility.yul\":18617:18618   */\n      0x00\n        /* \"#utility.yul\":18606:18615   */\n      dup4\n        /* \"#utility.yul\":18602:18619   */\n      add\n        /* \"#utility.yul\":18595:18642   */\n      mstore\n        /* \"#utility.yul\":18659:18790   */\n      tag_630\n        /* \"#utility.yul\":18785:18789   */\n      dup2\n        /* \"#utility.yul\":18659:18790   */\n      tag_436\n      jump\t// in\n    tag_630:\n        /* \"#utility.yul\":18651:18790   */\n      swap1\n      pop\n        /* \"#utility.yul\":18378:18797   */\n      swap2\n      swap1\n      pop\n      jump\t// out\n\n    auxdata: 0xa26469706673582212201f6e60e6ec73bed8892b739eb33bb7073a323da4ac6c590add6ea4f5aa74321264736f6c63430008120033\n}\n",
				"bytecode": {
					"linkReferences": {},
					"object": "60c06040523480156200001157600080fd5b5060405162002daa38038062002daa833981810160405281019062000037919062000151565b336000806101000a81548173ffffffffffffffffffffffffffffffffffffffff021916908373ffffffffffffffffffffffffffffffffffffffff1602179055508173ffffffffffffffffffffffffffffffffffffffff1660808173ffffffffffffffffffffffffffffffffffffffff16815250508073ffffffffffffffffffffffffffffffffffffffff1660a08173ffffffffffffffffffffffffffffffffffffffff1681525050505062000198565b600080fd5b600073ffffffffffffffffffffffffffffffffffffffff82169050919050565b60006200011982620000ec565b9050919050565b6200012b816200010c565b81146200013757600080fd5b50565b6000815190506200014b8162000120565b92915050565b600080604083850312156200016b576200016a620000e7565b5b60006200017b858286016200013a565b92505060206200018e858286016200013a565b9150509250929050565b60805160a051612b366200027460003960008181610468015281816107990152818161097401528181610ce401528181610e2001528181610ec80152818161114e0152818161132f0152818161159501528181611878015281816119b401528181611c0d01528181611e340152611f7001526000818161065d015281816106ff0152818161084101528181610b5701528181610d8601528181611012015281816110b40152818161128e015281816114fb015281816116830152818161191a01528181611b4c01528181611d950152611ed60152612b366000f3fe608060405234801561001057600080fd5b506004361061012c5760003560e01c80637d77f10e116100ad578063a064385a11610071578063a064385a14610397578063a201ccf6146103c7578063c4451e3e146103f8578063d21220a714610416578063f5eb42dc146104345761012c565b80637d77f10e146102b857806386f8df89146102e85780639c8f9f23146103185780639cd441da146103495780639e7a4757146103795761012c565b80634d7ca8ae116100f45780634d7ca8ae146101eb5780635a76f25e1461020957806369931ebb1461022757806370a08231146102575780637a6a5e1b146102875761012c565b8063036ff281146101315780630dfe16811461016157806318160ddd1461017f578063296adcbb1461019d578063443cb4bc146101cd575b600080fd5b61014b60048036038101906101469190612155565b610464565b60405161015891906121b7565b60405180910390f35b61016961083f565b6040516101769190612251565b60405180910390f35b610187610863565b60405161019491906121b7565b60405180910390f35b6101b760048036038101906101b2919061226c565b610869565b6040516101c491906121b7565b60405180910390f35b6101d5610916565b6040516101e291906121b7565b60405180910390f35b6101f361091c565b60405161020091906121b7565b60405180910390f35b610211610a33565b60405161021e91906121b7565b60405180910390f35b610241600480360381019061023c919061226c565b610a39565b60405161024e91906121b7565b60405180910390f35b610271600480360381019061026c91906122d7565b610ae6565b60405161027e91906121b7565b60405180910390f35b6102a1600480360381019061029c91906122d7565b610afe565b6040516102af929190612304565b60405180910390f35b6102d260048036038101906102cd919061226c565b610b53565b6040516102df91906121b7565b60405180910390f35b61030260048036038101906102fd919061226c565b610ec4565b60405161030f91906121b7565b60405180910390f35b610332600480360381019061032d919061226c565b6111f2565b604051610340929190612304565b60405180910390f35b610363600480360381019061035e919061232d565b61128a565b60405161037091906121b7565b60405180910390f35b610381611638565b60405161038e91906121b7565b60405180910390f35b6103b160048036038101906103ac9190612155565b61167f565b6040516103be91906121b7565b60405180910390f35b6103e160048036038101906103dc919061236d565b611a5a565b6040516103ef929190612304565b60405180910390f35b610400611af4565b60405161040d91906121b7565b60405180910390f35b61041e611c0b565b60405161042b9190612251565b60405180910390f35b61044e600480360381019061044991906122d7565b611c2f565b60405161045b91906121b7565b60405180910390f35b60007f000000000000000000000000000000000000000000000000000000000000000073ffffffffffffffffffffffffffffffffffffffff166323b872dd3330876040518463ffffffff1660e01b81526004016104c3939291906123bc565b6020604051808303816000875af11580156104e2573d6000803e3d6000fd5b505050506040513d601f19601f82011682018060405250810190610506919061242b565b5060006103e86103e58661051a9190612487565b61052491906124f8565b9050806001546105349190612529565b816002546105429190612487565b61054c91906124f8565b915060008211610591576040517f08c379a0000000000000000000000000000000000000000000000000000000008152600401610588906125ba565b60405180910390fd5b6103e8836103e86105a291906125da565b856105ad9190612487565b6105b791906124f8565b8210156105f9576040517f08c379a00000000000000000000000000000000000000000000000000000000081526004016105f09061265a565b60405180910390fd5b60006107d060015461060b9190612487565b60035460038861061b9190612487565b6106259190612487565b61062f91906124f8565b905061065b60008054906101000a900473ffffffffffffffffffffffffffffffffffffffff1682611c78565b7f000000000000000000000000000000000000000000000000000000000000000073ffffffffffffffffffffffffffffffffffffffff1663a9059cbb33856040518363ffffffff1660e01b81526004016106b692919061267a565b6020604051808303816000875af11580156106d5573d6000803e3d6000fd5b505050506040513d601f19601f820116820180604052508101906106f9919061242b565b506108367f000000000000000000000000000000000000000000000000000000000000000073ffffffffffffffffffffffffffffffffffffffff166370a08231306040518263ffffffff1660e01b815260040161075691906126a3565b602060405180830381865afa158015610773573d6000803e3d6000fd5b505050506040513d601f19601f8201168201806040525081019061079791906126d3565b7f000000000000000000000000000000000000000000000000000000000000000073ffffffffffffffffffffffffffffffffffffffff166370a08231306040518263ffffffff1660e01b81526004016107f091906126a3565b602060405180830381865afa15801561080d573d6000803e3d6000fd5b505050506040513d601f19601f8201168201806040525081019061083191906126d3565b611ceb565b50509392505050565b7f000000000000000000000000000000000000000000000000000000000000000081565b60035481565b60008060015411801561087e57506000600254115b801561088a5750600082115b6108c9576040517f08c379a00000000000000000000000000000000000000000000000000000000081526004016108c09061274c565b60405180910390fd5b60006103e86103e5846108dc9190612487565b6108e691906124f8565b9050806001546108f69190612529565b816002546109049190612487565b61090e91906124f8565b915050919050565b60015481565b60008060015411801561093157506000600254115b610970576040517f08c379a00000000000000000000000000000000000000000000000000000000081526004016109679061274c565b60405180910390fd5b60007f000000000000000000000000000000000000000000000000000000000000000073ffffffffffffffffffffffffffffffffffffffff1663313ce5676040518163ffffffff1660e01b8152600401602060405180830381865afa1580156109dd573d6000803e3d6000fd5b505050506040513d601f19601f82011682018060405250810190610a0191906127a5565b60ff16905060025481600a610a169190612905565b600154610a239190612487565b610a2d91906124f8565b91505090565b60025481565b600080600154118015610a4e57506000600254115b8015610a5a5750600082115b610a99576040517f08c379a0000000000000000000000000000000000000000000000000000000008152600401610a909061274c565b60405180910390fd5b60006103e86103e584610aac9190612487565b610ab691906124f8565b905080600254610ac69190612529565b81600154610ad49190612487565b610ade91906124f8565b915050919050565b60046020528060005260406000206000915090505481565b600080610b4a83600460008673ffffffffffffffffffffffffffffffffffffffff1673ffffffffffffffffffffffffffffffffffffffff16815260200190815260200160002054611cfd565b91509150915091565b60007f000000000000000000000000000000000000000000000000000000000000000073ffffffffffffffffffffffffffffffffffffffff166323b872dd3330856040518463ffffffff1660e01b8152600401610bb2939291906123bc565b6020604051808303816000875af1158015610bd1573d6000803e3d6000fd5b505050506040513d601f19601f82011682018060405250810190610bf5919061242b565b5060006103e86103e584610c099190612487565b610c1391906124f8565b905080600154610c239190612529565b81600254610c319190612487565b610c3b91906124f8565b915060008211610c80576040517f08c379a0000000000000000000000000000000000000000000000000000000008152600401610c77906125ba565b60405180910390fd5b60006107d0600154610c929190612487565b600354600386610ca29190612487565b610cac9190612487565b610cb691906124f8565b9050610ce260008054906101000a900473ffffffffffffffffffffffffffffffffffffffff1682611c78565b7f000000000000000000000000000000000000000000000000000000000000000073ffffffffffffffffffffffffffffffffffffffff1663a9059cbb33856040518363ffffffff1660e01b8152600401610d3d92919061267a565b6020604051808303816000875af1158015610d5c573d6000803e3d6000fd5b505050506040513d601f19601f82011682018060405250810190610d80919061242b565b50610ebd7f000000000000000000000000000000000000000000000000000000000000000073ffffffffffffffffffffffffffffffffffffffff166370a08231306040518263ffffffff1660e01b8152600401610ddd91906126a3565b602060405180830381865afa158015610dfa573d6000803e3d6000fd5b505050506040513d601f19601f82011682018060405250810190610e1e91906126d3565b7f000000000000000000000000000000000000000000000000000000000000000073ffffffffffffffffffffffffffffffffffffffff166370a08231306040518263ffffffff1660e01b8152600401610e7791906126a3565b602060405180830381865afa158015610e94573d6000803e3d6000fd5b505050506040513d601f19601f82011682018060405250810190610eb891906126d3565b611ceb565b5050919050565b60007f000000000000000000000000000000000000000000000000000000000000000073ffffffffffffffffffffffffffffffffffffffff166323b872dd3330856040518463ffffffff1660e01b8152600401610f23939291906123bc565b6020604051808303816000875af1158015610f42573d6000803e3d6000fd5b505050506040513d601f19601f82011682018060405250810190610f66919061242b565b5060006103e86103e584610f7a9190612487565b610f8491906124f8565b905080600154610f949190612529565b81600254610fa29190612487565b610fac91906124f8565b915060006107d0600154610fc09190612487565b600354600386610fd09190612487565b610fda9190612487565b610fe491906124f8565b905061101060008054906101000a900473ffffffffffffffffffffffffffffffffffffffff1682611c78565b7f000000000000000000000000000000000000000000000000000000000000000073ffffffffffffffffffffffffffffffffffffffff1663a9059cbb33856040518363ffffffff1660e01b815260040161106b92919061267a565b6020604051808303816000875af115801561108a573d6000803e3d6000fd5b505050506040513d601f19601f820116820180604052508101906110ae919061242b565b506111eb7f000000000000000000000000000000000000000000000000000000000000000073ffffffffffffffffffffffffffffffffffffffff166370a08231306040518263ffffffff1660e01b815260040161110b91906126a3565b602060405180830381865afa158015611128573d6000803e3d6000fd5b505050506040513d601f19601f8201168201806040525081019061114c91906126d3565b7f000000000000000000000000000000000000000000000000000000000000000073ffffffffffffffffffffffffffffffffffffffff166370a08231306040518263ffffffff1660e01b81526004016111a591906126a3565b602060405180830381865afa1580156111c2573d6000803e3d6000fd5b505050506040513d601f19601f820116820180604052508101906111e691906126d3565b611ceb565b5050919050565b600080600460003373ffffffffffffffffffffffffffffffffffffffff1673ffffffffffffffffffffffffffffffffffffffff16815260200190815260200160002054831115611277576040517f08c379a000000000000000000000000000000000000000000000000000000000815260040161126e9061299c565b60405180910390fd5b6112813384611cfd565b91509150915091565b60007f000000000000000000000000000000000000000000000000000000000000000073ffffffffffffffffffffffffffffffffffffffff166323b872dd3330866040518463ffffffff1660e01b81526004016112e9939291906123bc565b6020604051808303816000875af1158015611308573d6000803e3d6000fd5b505050506040513d601f19601f8201168201806040525081019061132c919061242b565b507f000000000000000000000000000000000000000000000000000000000000000073ffffffffffffffffffffffffffffffffffffffff166323b872dd3330856040518463ffffffff1660e01b815260040161138a939291906123bc565b6020604051808303816000875af11580156113a9573d6000803e3d6000fd5b505050506040513d601f19601f820116820180604052508101906113cd919061242b565b50600060015411806113e157506000600254115b1561144357816001546113f49190612487565b600254846114029190612487565b14611442576040517f08c379a000000000000000000000000000000000000000000000000000000000815260040161143990612a08565b60405180910390fd5b5b60006003540361146857611461828461145c9190612487565b612014565b90506114a9565b6114a66001546003548561147c9190612487565b61148691906124f8565b600254600354856114979190612487565b6114a191906124f8565b61208e565b90505b600081116114ec576040517f08c379a00000000000000000000000000000000000000000000000000000000081526004016114e390612a74565b60405180910390fd5b6114f63382611c78565b6116327f000000000000000000000000000000000000000000000000000000000000000073ffffffffffffffffffffffffffffffffffffffff166370a08231306040518263ffffffff1660e01b815260040161155291906126a3565b602060405180830381865afa15801561156f573d6000803e3d6000fd5b505050506040513d601f19601f8201168201806040525081019061159391906126d3565b7f000000000000000000000000000000000000000000000000000000000000000073ffffffffffffffffffffffffffffffffffffffff166370a08231306040518263ffffffff1660e01b81526004016115ec91906126a3565b602060405180830381865afa158015611609573d6000803e3d6000fd5b505050506040513d601f19601f8201168201806040525081019061162d91906126d3565b611ceb565b92915050565b6000600460003373ffffffffffffffffffffffffffffffffffffffff1673ffffffffffffffffffffffffffffffffffffffff16815260200190815260200160002054905090565b60007f000000000000000000000000000000000000000000000000000000000000000073ffffffffffffffffffffffffffffffffffffffff166323b872dd3330876040518463ffffffff1660e01b81526004016116de939291906123bc565b6020604051808303816000875af11580156116fd573d6000803e3d6000fd5b505050506040513d601f19601f82011682018060405250810190611721919061242b565b5060006103e86103e5866117359190612487565b61173f91906124f8565b90508060015461174f9190612529565b8160025461175d9190612487565b61176791906124f8565b9150600082116117ac576040517f08c379a00000000000000000000000000000000000000000000000000000000081526004016117a3906125ba565b60405180910390fd5b6103e8836103e86117bd91906125da565b856117c89190612487565b6117d291906124f8565b821015611814576040517f08c379a000000000000000000000000000000000000000000000000000000000815260040161180b9061265a565b60405180910390fd5b60006107d06001546118269190612487565b6003546003886118369190612487565b6118409190612487565b61184a91906124f8565b905061187660008054906101000a900473ffffffffffffffffffffffffffffffffffffffff1682611c78565b7f000000000000000000000000000000000000000000000000000000000000000073ffffffffffffffffffffffffffffffffffffffff1663a9059cbb33856040518363ffffffff1660e01b81526004016118d192919061267a565b6020604051808303816000875af11580156118f0573d6000803e3d6000fd5b505050506040513d601f19601f82011682018060405250810190611914919061242b565b50611a517f000000000000000000000000000000000000000000000000000000000000000073ffffffffffffffffffffffffffffffffffffffff166370a08231306040518263ffffffff1660e01b815260040161197191906126a3565b602060405180830381865afa15801561198e573d6000803e3d6000fd5b505050506040513d601f19601f820116820180604052508101906119b291906126d3565b7f000000000000000000000000000000000000000000000000000000000000000073ffffffffffffffffffffffffffffffffffffffff166370a08231306040518263ffffffff1660e01b8152600401611a0b91906126a3565b602060405180830381865afa158015611a28573d6000803e3d6000fd5b505050506040513d601f19601f82011682018060405250810190611a4c91906126d3565b611ceb565b50509392505050565b600080600460008573ffffffffffffffffffffffffffffffffffffffff1673ffffffffffffffffffffffffffffffffffffffff16815260200190815260200160002054831115611adf576040517f08c379a0000000000000000000000000000000000000000000000000000000008152600401611ad69061299c565b60405180910390fd5b611ae98484611cfd565b915091509250929050565b600080600154118015611b0957506000600254115b611b48576040517f08c379a0000000000000000000000000000000000000000000000000000000008152600401611b3f9061274c565b60405180910390fd5b60007f000000000000000000000000000000000000000000000000000000000000000073ffffffffffffffffffffffffffffffffffffffff1663313ce5676040518163ffffffff1660e01b8152600401602060405180830381865afa158015611bb5573d6000803e3d6000fd5b505050506040513d601f19601f82011682018060405250810190611bd991906127a5565b60ff16905060015481600a611bee9190612905565b600254611bfb9190612487565b611c0591906124f8565b91505090565b7f000000000000000000000000000000000000000000000000000000000000000081565b6000600460008373ffffffffffffffffffffffffffffffffffffffff1673ffffffffffffffffffffffffffffffffffffffff168152602001908152602001600020549050919050565b80600460008473ffffffffffffffffffffffffffffffffffffffff1673ffffffffffffffffffffffffffffffffffffffff1681526020019081526020016000206000828254611cc79190612529565b925050819055508060036000828254611ce09190612529565b925050819055505050565b81600181905550806002819055505050565b60008060035460015484611d119190612487565b611d1b91906124f8565b915060035460025484611d2e9190612487565b611d3891906124f8565b9050600082118015611d4a5750600081115b611d89576040517f08c379a0000000000000000000000000000000000000000000000000000000008152600401611d8090612ae0565b60405180910390fd5b611d9384846120a7565b7f000000000000000000000000000000000000000000000000000000000000000073ffffffffffffffffffffffffffffffffffffffff1663a9059cbb85846040518363ffffffff1660e01b8152600401611dee92919061267a565b6020604051808303816000875af1158015611e0d573d6000803e3d6000fd5b505050506040513d601f19601f82011682018060405250810190611e31919061242b565b507f000000000000000000000000000000000000000000000000000000000000000073ffffffffffffffffffffffffffffffffffffffff1663a9059cbb85836040518363ffffffff1660e01b8152600401611e8d92919061267a565b6020604051808303816000875af1158015611eac573d6000803e3d6000fd5b505050506040513d601f19601f82011682018060405250810190611ed0919061242b565b5061200d7f000000000000000000000000000000000000000000000000000000000000000073ffffffffffffffffffffffffffffffffffffffff166370a08231306040518263ffffffff1660e01b8152600401611f2d91906126a3565b602060405180830381865afa158015611f4a573d6000803e3d6000fd5b505050506040513d601f19601f82011682018060405250810190611f6e91906126d3565b7f000000000000000000000000000000000000000000000000000000000000000073ffffffffffffffffffffffffffffffffffffffff166370a08231306040518263ffffffff1660e01b8152600401611fc791906126a3565b602060405180830381865afa158015611fe4573d6000803e3d6000fd5b505050506040513d601f19601f8201168201806040525081019061200891906126d3565b611ceb565b9250929050565b6000600382111561207b578190506000600160028461203391906124f8565b61203d9190612529565b90505b8181101561207557809150600281828561205a91906124f8565b6120649190612529565b61206e91906124f8565b9050612040565b50612089565b6000821461208857600190505b5b919050565b600081831061209d578161209f565b825b905092915050565b80600460008473ffffffffffffffffffffffffffffffffffffffff1673ffffffffffffffffffffffffffffffffffffffff16815260200190815260200160002060008282546120f691906125da565b92505081905550806003600082825461210f91906125da565b925050819055505050565b600080fd5b6000819050919050565b6121328161211f565b811461213d57600080fd5b50565b60008135905061214f81612129565b92915050565b60008060006060848603121561216e5761216d61211a565b5b600061217c86828701612140565b935050602061218d86828701612140565b925050604061219e86828701612140565b9150509250925092565b6121b18161211f565b82525050565b60006020820190506121cc60008301846121a8565b92915050565b600073ffffffffffffffffffffffffffffffffffffffff82169050919050565b6000819050919050565b600061221761221261220d846121d2565b6121f2565b6121d2565b9050919050565b6000612229826121fc565b9050919050565b600061223b8261221e565b9050919050565b61224b81612230565b82525050565b60006020820190506122666000830184612242565b92915050565b6000602082840312156122825761228161211a565b5b600061229084828501612140565b91505092915050565b60006122a4826121d2565b9050919050565b6122b481612299565b81146122bf57600080fd5b50565b6000813590506122d1816122ab565b92915050565b6000602082840312156122ed576122ec61211a565b5b60006122fb848285016122c2565b91505092915050565b600060408201905061231960008301856121a8565b61232660208301846121a8565b9392505050565b600080604083850312156123445761234361211a565b5b600061235285828601612140565b925050602061236385828601612140565b9150509250929050565b600080604083850312156123845761238361211a565b5b6000612392858286016122c2565b92505060206123a385828601612140565b9150509250929050565b6123b681612299565b82525050565b60006060820190506123d160008301866123ad565b6123de60208301856123ad565b6123eb60408301846121a8565b949350505050565b60008115159050919050565b612408816123f3565b811461241357600080fd5b50565b600081519050612425816123ff565b92915050565b6000602082840312156124415761244061211a565b5b600061244f84828501612416565b91505092915050565b7f4e487b7100000000000000000000000000000000000000000000000000000000600052601160045260246000fd5b60006124928261211f565b915061249d8361211f565b92508282026124ab8161211f565b915082820484148315176124c2576124c1612458565b5b5092915050565b7f4e487b7100000000000000000000000000000000000000000000000000000000600052601260045260246000fd5b60006125038261211f565b915061250e8361211f565b92508261251e5761251d6124c9565b5b828204905092915050565b60006125348261211f565b915061253f8361211f565b925082820190508082111561255757612556612458565b5b92915050565b600082825260208201905092915050565b7f496e73756666696369656e74206f757470757420616d6f756e74000000000000600082015250565b60006125a4601a8361255d565b91506125af8261256e565b602082019050919050565b600060208201905081810360008301526125d381612597565b9050919050565b60006125e58261211f565b91506125f08361211f565b925082820390508181111561260857612607612458565b5b92915050565b7f536c69704c6f636b000000000000000000000000000000000000000000000000600082015250565b600061264460088361255d565b915061264f8261260e565b602082019050919050565b6000602082019050818103600083015261267381612637565b9050919050565b600060408201905061268f60008301856123ad565b61269c60208301846121a8565b9392505050565b60006020820190506126b860008301846123ad565b92915050565b6000815190506126cd81612129565b92915050565b6000602082840312156126e9576126e861211a565b5b60006126f7848285016126be565b91505092915050565b7f496e76616c696420726573657276657300000000000000000000000000000000600082015250565b600061273660108361255d565b915061274182612700565b602082019050919050565b6000602082019050818103600083015261276581612729565b9050919050565b600060ff82169050919050565b6127828161276c565b811461278d57600080fd5b50565b60008151905061279f81612779565b92915050565b6000602082840312156127bb576127ba61211a565b5b60006127c984828501612790565b91505092915050565b60008160011c9050919050565b6000808291508390505b60018511156128295780860481111561280557612804612458565b5b60018516156128145780820291505b8081029050612822856127d2565b94506127e9565b94509492505050565b60008261284257600190506128fe565b8161285057600090506128fe565b816001811461286657600281146128705761289f565b60019150506128fe565b60ff84111561288257612881612458565b5b8360020a91508482111561289957612898612458565b5b506128fe565b5060208310610133831016604e8410600b84101617156128d45782820a9050838111156128cf576128ce612458565b5b6128fe565b6128e184848460016127df565b925090508184048111156128f8576128f7612458565b5b81810290505b9392505050565b60006129108261211f565b915061291b8361211f565b92506129487fffffffffffffffffffffffffffffffffffffffffffffffffffffffffffffffff8484612832565b905092915050565b7f496e73756666696369656e742062616c616e6365000000000000000000000000600082015250565b600061298660148361255d565b915061299182612950565b602082019050919050565b600060208201905081810360008301526129b581612979565b9050919050565b7f496e76616c6964206c697175696469747920726174696f000000000000000000600082015250565b60006129f260178361255d565b91506129fd826129bc565b602082019050919050565b60006020820190508181036000830152612a21816129e5565b9050919050565b7f736861726573203d203000000000000000000000000000000000000000000000600082015250565b6000612a5e600a8361255d565b9150612a6982612a28565b602082019050919050565b60006020820190508181036000830152612a8d81612a51565b9050919050565b7f616d6f756e7430206f7220616d6f756e7431203d203000000000000000000000600082015250565b6000612aca60168361255d565b9150612ad582612a94565b602082019050919050565b60006020820190508181036000830152612af981612abd565b905091905056fea26469706673582212201f6e60e6ec73bed8892b739eb33bb7073a323da4ac6c590add6ea4f5aa74321264736f6c63430008120033",
					"opcodes": "PUSH1 0xC0 PUSH1 0x40 MSTORE CALLVALUE DUP1 ISZERO PUSH3 0x11 JUMPI PUSH1 0x0 DUP1 REVERT JUMPDEST POP PUSH1 0x40 MLOAD PUSH3 0x2DAA CODESIZE SUB DUP1 PUSH3 0x2DAA DUP4 CODECOPY DUP2 DUP2 ADD PUSH1 0x40 MSTORE DUP2 ADD SWAP1 PUSH3 0x37 SWAP2 SWAP1 PUSH3 0x151 JUMP JUMPDEST CALLER PUSH1 0x0 DUP1 PUSH2 0x100 EXP DUP2 SLOAD DUP2 PUSH20 0xFFFFFFFFFFFFFFFFFFFFFFFFFFFFFFFFFFFFFFFF MUL NOT AND SWAP1 DUP4 PUSH20 0xFFFFFFFFFFFFFFFFFFFFFFFFFFFFFFFFFFFFFFFF AND MUL OR SWAP1 SSTORE POP DUP2 PUSH20 0xFFFFFFFFFFFFFFFFFFFFFFFFFFFFFFFFFFFFFFFF AND PUSH1 0x80 DUP2 PUSH20 0xFFFFFFFFFFFFFFFFFFFFFFFFFFFFFFFFFFFFFFFF AND DUP2 MSTORE POP POP DUP1 PUSH20 0xFFFFFFFFFFFFFFFFFFFFFFFFFFFFFFFFFFFFFFFF AND PUSH1 0xA0 DUP2 PUSH20 0xFFFFFFFFFFFFFFFFFFFFFFFFFFFFFFFFFFFFFFFF AND DUP2 MSTORE POP POP POP POP PUSH3 0x198 JUMP JUMPDEST PUSH1 0x0 DUP1 REVERT JUMPDEST PUSH1 0x0 PUSH20 0xFFFFFFFFFFFFFFFFFFFFFFFFFFFFFFFFFFFFFFFF DUP3 AND SWAP1 POP SWAP2 SWAP1 POP JUMP JUMPDEST PUSH1 0x0 PUSH3 0x119 DUP3 PUSH3 0xEC JUMP JUMPDEST SWAP1 POP SWAP2 SWAP1 POP JUMP JUMPDEST PUSH3 0x12B DUP2 PUSH3 0x10C JUMP JUMPDEST DUP2 EQ PUSH3 0x137 JUMPI PUSH1 0x0 DUP1 REVERT JUMPDEST POP JUMP JUMPDEST PUSH1 0x0 DUP2 MLOAD SWAP1 POP PUSH3 0x14B DUP2 PUSH3 0x120 JUMP JUMPDEST SWAP3 SWAP2 POP POP JUMP JUMPDEST PUSH1 0x0 DUP1 PUSH1 0x40 DUP4 DUP6 SUB SLT ISZERO PUSH3 0x16B JUMPI PUSH3 0x16A PUSH3 0xE7 JUMP JUMPDEST JUMPDEST PUSH1 0x0 PUSH3 0x17B DUP6 DUP3 DUP7 ADD PUSH3 0x13A JUMP JUMPDEST SWAP3 POP POP PUSH1 0x20 PUSH3 0x18E DUP6 DUP3 DUP7 ADD PUSH3 0x13A JUMP JUMPDEST SWAP2 POP POP SWAP3 POP SWAP3 SWAP1 POP JUMP JUMPDEST PUSH1 0x80 MLOAD PUSH1 0xA0 MLOAD PUSH2 0x2B36 PUSH3 0x274 PUSH1 0x0 CODECOPY PUSH1 0x0 DUP2 DUP2 PUSH2 0x468 ADD MSTORE DUP2 DUP2 PUSH2 0x799 ADD MSTORE DUP2 DUP2 PUSH2 0x974 ADD MSTORE DUP2 DUP2 PUSH2 0xCE4 ADD MSTORE DUP2 DUP2 PUSH2 0xE20 ADD MSTORE DUP2 DUP2 PUSH2 0xEC8 ADD MSTORE DUP2 DUP2 PUSH2 0x114E ADD MSTORE DUP2 DUP2 PUSH2 0x132F ADD MSTORE DUP2 DUP2 PUSH2 0x1595 ADD MSTORE DUP2 DUP2 PUSH2 0x1878 ADD MSTORE DUP2 DUP2 PUSH2 0x19B4 ADD MSTORE DUP2 DUP2 PUSH2 0x1C0D ADD MSTORE DUP2 DUP2 PUSH2 0x1E34 ADD MSTORE PUSH2 0x1F70 ADD MSTORE PUSH1 0x0 DUP2 DUP2 PUSH2 0x65D ADD MSTORE DUP2 DUP2 PUSH2 0x6FF ADD MSTORE DUP2 DUP2 PUSH2 0x841 ADD MSTORE DUP2 DUP2 PUSH2 0xB57 ADD MSTORE DUP2 DUP2 PUSH2 0xD86 ADD MSTORE DUP2 DUP2 PUSH2 0x1012 ADD MSTORE DUP2 DUP2 PUSH2 0x10B4 ADD MSTORE DUP2 DUP2 PUSH2 0x128E ADD MSTORE DUP2 DUP2 PUSH2 0x14FB ADD MSTORE DUP2 DUP2 PUSH2 0x1683 ADD MSTORE DUP2 DUP2 PUSH2 0x191A ADD MSTORE DUP2 DUP2 PUSH2 0x1B4C ADD MSTORE DUP2 DUP2 PUSH2 0x1D95 ADD MSTORE PUSH2 0x1ED6 ADD MSTORE PUSH2 0x2B36 PUSH1 0x0 RETURN INVALID PUSH1 0x80 PUSH1 0x40 MSTORE CALLVALUE DUP1 ISZERO PUSH2 0x10 JUMPI PUSH1 0x0 DUP1 REVERT JUMPDEST POP PUSH1 0x4 CALLDATASIZE LT PUSH2 0x12C JUMPI PUSH1 0x0 CALLDATALOAD PUSH1 0xE0 SHR DUP1 PUSH4 0x7D77F10E GT PUSH2 0xAD JUMPI DUP1 PUSH4 0xA064385A GT PUSH2 0x71 JUMPI DUP1 PUSH4 0xA064385A EQ PUSH2 0x397 JUMPI DUP1 PUSH4 0xA201CCF6 EQ PUSH2 0x3C7 JUMPI DUP1 PUSH4 0xC4451E3E EQ PUSH2 0x3F8 JUMPI DUP1 PUSH4 0xD21220A7 EQ PUSH2 0x416 JUMPI DUP1 PUSH4 0xF5EB42DC EQ PUSH2 0x434 JUMPI PUSH2 0x12C JUMP JUMPDEST DUP1 PUSH4 0x7D77F10E EQ PUSH2 0x2B8 JUMPI DUP1 PUSH4 0x86F8DF89 EQ PUSH2 0x2E8 JUMPI DUP1 PUSH4 0x9C8F9F23 EQ PUSH2 0x318 JUMPI DUP1 PUSH4 0x9CD441DA EQ PUSH2 0x349 JUMPI DUP1 PUSH4 0x9E7A4757 EQ PUSH2 0x379 JUMPI PUSH2 0x12C JUMP JUMPDEST DUP1 PUSH4 0x4D7CA8AE GT PUSH2 0xF4 JUMPI DUP1 PUSH4 0x4D7CA8AE EQ PUSH2 0x1EB JUMPI DUP1 PUSH4 0x5A76F25E EQ PUSH2 0x209 JUMPI DUP1 PUSH4 0x69931EBB EQ PUSH2 0x227 JUMPI DUP1 PUSH4 0x70A08231 EQ PUSH2 0x257 JUMPI DUP1 PUSH4 0x7A6A5E1B EQ PUSH2 0x287 JUMPI PUSH2 0x12C JUMP JUMPDEST DUP1 PUSH4 0x36FF281 EQ PUSH2 0x131 JUMPI DUP1 PUSH4 0xDFE1681 EQ PUSH2 0x161 JUMPI DUP1 PUSH4 0x18160DDD EQ PUSH2 0x17F JUMPI DUP1 PUSH4 0x296ADCBB EQ PUSH2 0x19D JUMPI DUP1 PUSH4 0x443CB4BC EQ PUSH2 0x1CD JUMPI JUMPDEST PUSH1 0x0 DUP1 REVERT JUMPDEST PUSH2 0x14B PUSH1 0x4 DUP1 CALLDATASIZE SUB DUP2 ADD SWAP1 PUSH2 0x146 SWAP2 SWAP1 PUSH2 0x2155 JUMP JUMPDEST PUSH2 0x464 JUMP JUMPDEST PUSH1 0x40 MLOAD PUSH2 0x158 SWAP2 SWAP1 PUSH2 0x21B7 JUMP JUMPDEST PUSH1 0x40 MLOAD DUP1 SWAP2 SUB SWAP1 RETURN JUMPDEST PUSH2 0x169 PUSH2 0x83F JUMP JUMPDEST PUSH1 0x40 MLOAD PUSH2 0x176 SWAP2 SWAP1 PUSH2 0x2251 JUMP JUMPDEST PUSH1 0x40 MLOAD DUP1 SWAP2 SUB SWAP1 RETURN JUMPDEST PUSH2 0x187 PUSH2 0x863 JUMP JUMPDEST PUSH1 0x40 MLOAD PUSH2 0x194 SWAP2 SWAP1 PUSH2 0x21B7 JUMP JUMPDEST PUSH1 0x40 MLOAD DUP1 SWAP2 SUB SWAP1 RETURN JUMPDEST PUSH2 0x1B7 PUSH1 0x4 DUP1 CALLDATASIZE SUB DUP2 ADD SWAP1 PUSH2 0x1B2 SWAP2 SWAP1 PUSH2 0x226C JUMP JUMPDEST PUSH2 0x869 JUMP JUMPDEST PUSH1 0x40 MLOAD PUSH2 0x1C4 SWAP2 SWAP1 PUSH2 0x21B7 JUMP JUMPDEST PUSH1 0x40 MLOAD DUP1 SWAP2 SUB SWAP1 RETURN JUMPDEST PUSH2 0x1D5 PUSH2 0x916 JUMP JUMPDEST PUSH1 0x40 MLOAD PUSH2 0x1E2 SWAP2 SWAP1 PUSH2 0x21B7 JUMP JUMPDEST PUSH1 0x40 MLOAD DUP1 SWAP2 SUB SWAP1 RETURN JUMPDEST PUSH2 0x1F3 PUSH2 0x91C JUMP JUMPDEST PUSH1 0x40 MLOAD PUSH2 0x200 SWAP2 SWAP1 PUSH2 0x21B7 JUMP JUMPDEST PUSH1 0x40 MLOAD DUP1 SWAP2 SUB SWAP1 RETURN JUMPDEST PUSH2 0x211 PUSH2 0xA33 JUMP JUMPDEST PUSH1 0x40 MLOAD PUSH2 0x21E SWAP2 SWAP1 PUSH2 0x21B7 JUMP JUMPDEST PUSH1 0x40 MLOAD DUP1 SWAP2 SUB SWAP1 RETURN JUMPDEST PUSH2 0x241 PUSH1 0x4 DUP1 CALLDATASIZE SUB DUP2 ADD SWAP1 PUSH2 0x23C SWAP2 SWAP1 PUSH2 0x226C JUMP JUMPDEST PUSH2 0xA39 JUMP JUMPDEST PUSH1 0x40 MLOAD PUSH2 0x24E SWAP2 SWAP1 PUSH2 0x21B7 JUMP JUMPDEST PUSH1 0x40 MLOAD DUP1 SWAP2 SUB SWAP1 RETURN JUMPDEST PUSH2 0x271 PUSH1 0x4 DUP1 CALLDATASIZE SUB DUP2 ADD SWAP1 PUSH2 0x26C SWAP2 SWAP1 PUSH2 0x22D7 JUMP JUMPDEST PUSH2 0xAE6 JUMP JUMPDEST PUSH1 0x40 MLOAD PUSH2 0x27E SWAP2 SWAP1 PUSH2 0x21B7 JUMP JUMPDEST PUSH1 0x40 MLOAD DUP1 SWAP2 SUB SWAP1 RETURN JUMPDEST PUSH2 0x2A1 PUSH1 0x4 DUP1 CALLDATASIZE SUB DUP2 ADD SWAP1 PUSH2 0x29C SWAP2 SWAP1 PUSH2 0x22D7 JUMP JUMPDEST PUSH2 0xAFE JUMP JUMPDEST PUSH1 0x40 MLOAD PUSH2 0x2AF SWAP3 SWAP2 SWAP1 PUSH2 0x2304 JUMP JUMPDEST PUSH1 0x40 MLOAD DUP1 SWAP2 SUB SWAP1 RETURN JUMPDEST PUSH2 0x2D2 PUSH1 0x4 DUP1 CALLDATASIZE SUB DUP2 ADD SWAP1 PUSH2 0x2CD SWAP2 SWAP1 PUSH2 0x226C JUMP JUMPDEST PUSH2 0xB53 JUMP JUMPDEST PUSH1 0x40 MLOAD PUSH2 0x2DF SWAP2 SWAP1 PUSH2 0x21B7 JUMP JUMPDEST PUSH1 0x40 MLOAD DUP1 SWAP2 SUB SWAP1 RETURN JUMPDEST PUSH2 0x302 PUSH1 0x4 DUP1 CALLDATASIZE SUB DUP2 ADD SWAP1 PUSH2 0x2FD SWAP2 SWAP1 PUSH2 0x226C JUMP JUMPDEST PUSH2 0xEC4 JUMP JUMPDEST PUSH1 0x40 MLOAD PUSH2 0x30F SWAP2 SWAP1 PUSH2 0x21B7 JUMP JUMPDEST PUSH1 0x40 MLOAD DUP1 SWAP2 SUB SWAP1 RETURN JUMPDEST PUSH2 0x332 PUSH1 0x4 DUP1 CALLDATASIZE SUB DUP2 ADD SWAP1 PUSH2 0x32D SWAP2 SWAP1 PUSH2 0x226C JUMP JUMPDEST PUSH2 0x11F2 JUMP JUMPDEST PUSH1 0x40 MLOAD PUSH2 0x340 SWAP3 SWAP2 SWAP1 PUSH2 0x2304 JUMP JUMPDEST PUSH1 0x40 MLOAD DUP1 SWAP2 SUB SWAP1 RETURN JUMPDEST PUSH2 0x363 PUSH1 0x4 DUP1 CALLDATASIZE SUB DUP2 ADD SWAP1 PUSH2 0x35E SWAP2 SWAP1 PUSH2 0x232D JUMP JUMPDEST PUSH2 0x128A JUMP JUMPDEST PUSH1 0x40 MLOAD PUSH2 0x370 SWAP2 SWAP1 PUSH2 0x21B7 JUMP JUMPDEST PUSH1 0x40 MLOAD DUP1 SWAP2 SUB SWAP1 RETURN JUMPDEST PUSH2 0x381 PUSH2 0x1638 JUMP JUMPDEST PUSH1 0x40 MLOAD PUSH2 0x38E SWAP2 SWAP1 PUSH2 0x21B7 JUMP JUMPDEST PUSH1 0x40 MLOAD DUP1 SWAP2 SUB SWAP1 RETURN JUMPDEST PUSH2 0x3B1 PUSH1 0x4 DUP1 CALLDATASIZE SUB DUP2 ADD SWAP1 PUSH2 0x3AC SWAP2 SWAP1 PUSH2 0x2155 JUMP JUMPDEST PUSH2 0x167F JUMP JUMPDEST PUSH1 0x40 MLOAD PUSH2 0x3BE SWAP2 SWAP1 PUSH2 0x21B7 JUMP JUMPDEST PUSH1 0x40 MLOAD DUP1 SWAP2 SUB SWAP1 RETURN JUMPDEST PUSH2 0x3E1 PUSH1 0x4 DUP1 CALLDATASIZE SUB DUP2 ADD SWAP1 PUSH2 0x3DC SWAP2 SWAP1 PUSH2 0x236D JUMP JUMPDEST PUSH2 0x1A5A JUMP JUMPDEST PUSH1 0x40 MLOAD PUSH2 0x3EF SWAP3 SWAP2 SWAP1 PUSH2 0x2304 JUMP JUMPDEST PUSH1 0x40 MLOAD DUP1 SWAP2 SUB SWAP1 RETURN JUMPDEST PUSH2 0x400 PUSH2 0x1AF4 JUMP JUMPDEST PUSH1 0x40 MLOAD PUSH2 0x40D SWAP2 SWAP1 PUSH2 0x21B7 JUMP JUMPDEST PUSH1 0x40 MLOAD DUP1 SWAP2 SUB SWAP1 RETURN JUMPDEST PUSH2 0x41E PUSH2 0x1C0B JUMP JUMPDEST PUSH1 0x40 MLOAD PUSH2 0x42B SWAP2 SWAP1 PUSH2 0x2251 JUMP JUMPDEST PUSH1 0x40 MLOAD DUP1 SWAP2 SUB SWAP1 RETURN JUMPDEST PUSH2 0x44E PUSH1 0x4 DUP1 CALLDATASIZE SUB DUP2 ADD SWAP1 PUSH2 0x449 SWAP2 SWAP1 PUSH2 0x22D7 JUMP JUMPDEST PUSH2 0x1C2F JUMP JUMPDEST PUSH1 0x40 MLOAD PUSH2 0x45B SWAP2 SWAP1 PUSH2 0x21B7 JUMP JUMPDEST PUSH1 0x40 MLOAD DUP1 SWAP2 SUB SWAP1 RETURN JUMPDEST PUSH1 0x0 PUSH32 0x0 PUSH20 0xFFFFFFFFFFFFFFFFFFFFFFFFFFFFFFFFFFFFFFFF AND PUSH4 0x23B872DD CALLER ADDRESS DUP8 PUSH1 0x40 MLOAD DUP5 PUSH4 0xFFFFFFFF AND PUSH1 0xE0 SHL DUP2 MSTORE PUSH1 0x4 ADD PUSH2 0x4C3 SWAP4 SWAP3 SWAP2 SWAP1 PUSH2 0x23BC JUMP JUMPDEST PUSH1 0x20 PUSH1 0x40 MLOAD DUP1 DUP4 SUB DUP2 PUSH1 0x0 DUP8 GAS CALL ISZERO DUP1 ISZERO PUSH2 0x4E2 JUMPI RETURNDATASIZE PUSH1 0x0 DUP1 RETURNDATACOPY RETURNDATASIZE PUSH1 0x0 REVERT JUMPDEST POP POP POP POP PUSH1 0x40 MLOAD RETURNDATASIZE PUSH1 0x1F NOT PUSH1 0x1F DUP3 ADD AND DUP3 ADD DUP1 PUSH1 0x40 MSTORE POP DUP2 ADD SWAP1 PUSH2 0x506 SWAP2 SWAP1 PUSH2 0x242B JUMP JUMPDEST POP PUSH1 0x0 PUSH2 0x3E8 PUSH2 0x3E5 DUP7 PUSH2 0x51A SWAP2 SWAP1 PUSH2 0x2487 JUMP JUMPDEST PUSH2 0x524 SWAP2 SWAP1 PUSH2 0x24F8 JUMP JUMPDEST SWAP1 POP DUP1 PUSH1 0x1 SLOAD PUSH2 0x534 SWAP2 SWAP1 PUSH2 0x2529 JUMP JUMPDEST DUP2 PUSH1 0x2 SLOAD PUSH2 0x542 SWAP2 SWAP1 PUSH2 0x2487 JUMP JUMPDEST PUSH2 0x54C SWAP2 SWAP1 PUSH2 0x24F8 JUMP JUMPDEST SWAP2 POP PUSH1 0x0 DUP3 GT PUSH2 0x591 JUMPI PUSH1 0x40 MLOAD PUSH32 0x8C379A000000000000000000000000000000000000000000000000000000000 DUP2 MSTORE PUSH1 0x4 ADD PUSH2 0x588 SWAP1 PUSH2 0x25BA JUMP JUMPDEST PUSH1 0x40 MLOAD DUP1 SWAP2 SUB SWAP1 REVERT JUMPDEST PUSH2 0x3E8 DUP4 PUSH2 0x3E8 PUSH2 0x5A2 SWAP2 SWAP1 PUSH2 0x25DA JUMP JUMPDEST DUP6 PUSH2 0x5AD SWAP2 SWAP1 PUSH2 0x2487 JUMP JUMPDEST PUSH2 0x5B7 SWAP2 SWAP1 PUSH2 0x24F8 JUMP JUMPDEST DUP3 LT ISZERO PUSH2 0x5F9 JUMPI PUSH1 0x40 MLOAD PUSH32 0x8C379A000000000000000000000000000000000000000000000000000000000 DUP2 MSTORE PUSH1 0x4 ADD PUSH2 0x5F0 SWAP1 PUSH2 0x265A JUMP JUMPDEST PUSH1 0x40 MLOAD DUP1 SWAP2 SUB SWAP1 REVERT JUMPDEST PUSH1 0x0 PUSH2 0x7D0 PUSH1 0x1 SLOAD PUSH2 0x60B SWAP2 SWAP1 PUSH2 0x2487 JUMP JUMPDEST PUSH1 0x3 SLOAD PUSH1 0x3 DUP9 PUSH2 0x61B SWAP2 SWAP1 PUSH2 0x2487 JUMP JUMPDEST PUSH2 0x625 SWAP2 SWAP1 PUSH2 0x2487 JUMP JUMPDEST PUSH2 0x62F SWAP2 SWAP1 PUSH2 0x24F8 JUMP JUMPDEST SWAP1 POP PUSH2 0x65B PUSH1 0x0 DUP1 SLOAD SWAP1 PUSH2 0x100 EXP SWAP1 DIV PUSH20 0xFFFFFFFFFFFFFFFFFFFFFFFFFFFFFFFFFFFFFFFF AND DUP3 PUSH2 0x1C78 JUMP JUMPDEST PUSH32 0x0 PUSH20 0xFFFFFFFFFFFFFFFFFFFFFFFFFFFFFFFFFFFFFFFF AND PUSH4 0xA9059CBB CALLER DUP6 PUSH1 0x40 MLOAD DUP4 PUSH4 0xFFFFFFFF AND PUSH1 0xE0 SHL DUP2 MSTORE PUSH1 0x4 ADD PUSH2 0x6B6 SWAP3 SWAP2 SWAP1 PUSH2 0x267A JUMP JUMPDEST PUSH1 0x20 PUSH1 0x40 MLOAD DUP1 DUP4 SUB DUP2 PUSH1 0x0 DUP8 GAS CALL ISZERO DUP1 ISZERO PUSH2 0x6D5 JUMPI RETURNDATASIZE PUSH1 0x0 DUP1 RETURNDATACOPY RETURNDATASIZE PUSH1 0x0 REVERT JUMPDEST POP POP POP POP PUSH1 0x40 MLOAD RETURNDATASIZE PUSH1 0x1F NOT PUSH1 0x1F DUP3 ADD AND DUP3 ADD DUP1 PUSH1 0x40 MSTORE POP DUP2 ADD SWAP1 PUSH2 0x6F9 SWAP2 SWAP1 PUSH2 0x242B JUMP JUMPDEST POP PUSH2 0x836 PUSH32 0x0 PUSH20 0xFFFFFFFFFFFFFFFFFFFFFFFFFFFFFFFFFFFFFFFF AND PUSH4 0x70A08231 ADDRESS PUSH1 0x40 MLOAD DUP3 PUSH4 0xFFFFFFFF AND PUSH1 0xE0 SHL DUP2 MSTORE PUSH1 0x4 ADD PUSH2 0x756 SWAP2 SWAP1 PUSH2 0x26A3 JUMP JUMPDEST PUSH1 0x20 PUSH1 0x40 MLOAD DUP1 DUP4 SUB DUP2 DUP7 GAS STATICCALL ISZERO DUP1 ISZERO PUSH2 0x773 JUMPI RETURNDATASIZE PUSH1 0x0 DUP1 RETURNDATACOPY RETURNDATASIZE PUSH1 0x0 REVERT JUMPDEST POP POP POP POP PUSH1 0x40 MLOAD RETURNDATASIZE PUSH1 0x1F NOT PUSH1 0x1F DUP3 ADD AND DUP3 ADD DUP1 PUSH1 0x40 MSTORE POP DUP2 ADD SWAP1 PUSH2 0x797 SWAP2 SWAP1 PUSH2 0x26D3 JUMP JUMPDEST PUSH32 0x0 PUSH20 0xFFFFFFFFFFFFFFFFFFFFFFFFFFFFFFFFFFFFFFFF AND PUSH4 0x70A08231 ADDRESS PUSH1 0x40 MLOAD DUP3 PUSH4 0xFFFFFFFF AND PUSH1 0xE0 SHL DUP2 MSTORE PUSH1 0x4 ADD PUSH2 0x7F0 SWAP2 SWAP1 PUSH2 0x26A3 JUMP JUMPDEST PUSH1 0x20 PUSH1 0x40 MLOAD DUP1 DUP4 SUB DUP2 DUP7 GAS STATICCALL ISZERO DUP1 ISZERO PUSH2 0x80D JUMPI RETURNDATASIZE PUSH1 0x0 DUP1 RETURNDATACOPY RETURNDATASIZE PUSH1 0x0 REVERT JUMPDEST POP POP POP POP PUSH1 0x40 MLOAD RETURNDATASIZE PUSH1 0x1F NOT PUSH1 0x1F DUP3 ADD AND DUP3 ADD DUP1 PUSH1 0x40 MSTORE POP DUP2 ADD SWAP1 PUSH2 0x831 SWAP2 SWAP1 PUSH2 0x26D3 JUMP JUMPDEST PUSH2 0x1CEB JUMP JUMPDEST POP POP SWAP4 SWAP3 POP POP POP JUMP JUMPDEST PUSH32 0x0 DUP2 JUMP JUMPDEST PUSH1 0x3 SLOAD DUP2 JUMP JUMPDEST PUSH1 0x0 DUP1 PUSH1 0x1 SLOAD GT DUP1 ISZERO PUSH2 0x87E JUMPI POP PUSH1 0x0 PUSH1 0x2 SLOAD GT JUMPDEST DUP1 ISZERO PUSH2 0x88A JUMPI POP PUSH1 0x0 DUP3 GT JUMPDEST PUSH2 0x8C9 JUMPI PUSH1 0x40 MLOAD PUSH32 0x8C379A000000000000000000000000000000000000000000000000000000000 DUP2 MSTORE PUSH1 0x4 ADD PUSH2 0x8C0 SWAP1 PUSH2 0x274C JUMP JUMPDEST PUSH1 0x40 MLOAD DUP1 SWAP2 SUB SWAP1 REVERT JUMPDEST PUSH1 0x0 PUSH2 0x3E8 PUSH2 0x3E5 DUP5 PUSH2 0x8DC SWAP2 SWAP1 PUSH2 0x2487 JUMP JUMPDEST PUSH2 0x8E6 SWAP2 SWAP1 PUSH2 0x24F8 JUMP JUMPDEST SWAP1 POP DUP1 PUSH1 0x1 SLOAD PUSH2 0x8F6 SWAP2 SWAP1 PUSH2 0x2529 JUMP JUMPDEST DUP2 PUSH1 0x2 SLOAD PUSH2 0x904 SWAP2 SWAP1 PUSH2 0x2487 JUMP JUMPDEST PUSH2 0x90E SWAP2 SWAP1 PUSH2 0x24F8 JUMP JUMPDEST SWAP2 POP POP SWAP2 SWAP1 POP JUMP JUMPDEST PUSH1 0x1 SLOAD DUP2 JUMP JUMPDEST PUSH1 0x0 DUP1 PUSH1 0x1 SLOAD GT DUP1 ISZERO PUSH2 0x931 JUMPI POP PUSH1 0x0 PUSH1 0x2 SLOAD GT JUMPDEST PUSH2 0x970 JUMPI PUSH1 0x40 MLOAD PUSH32 0x8C379A000000000000000000000000000000000000000000000000000000000 DUP2 MSTORE PUSH1 0x4 ADD PUSH2 0x967 SWAP1 PUSH2 0x274C JUMP JUMPDEST PUSH1 0x40 MLOAD DUP1 SWAP2 SUB SWAP1 REVERT JUMPDEST PUSH1 0x0 PUSH32 0x0 PUSH20 0xFFFFFFFFFFFFFFFFFFFFFFFFFFFFFFFFFFFFFFFF AND PUSH4 0x313CE567 PUSH1 0x40 MLOAD DUP2 PUSH4 0xFFFFFFFF AND PUSH1 0xE0 SHL DUP2 MSTORE PUSH1 0x4 ADD PUSH1 0x20 PUSH1 0x40 MLOAD DUP1 DUP4 SUB DUP2 DUP7 GAS STATICCALL ISZERO DUP1 ISZERO PUSH2 0x9DD JUMPI RETURNDATASIZE PUSH1 0x0 DUP1 RETURNDATACOPY RETURNDATASIZE PUSH1 0x0 REVERT JUMPDEST POP POP POP POP PUSH1 0x40 MLOAD RETURNDATASIZE PUSH1 0x1F NOT PUSH1 0x1F DUP3 ADD AND DUP3 ADD DUP1 PUSH1 0x40 MSTORE POP DUP2 ADD SWAP1 PUSH2 0xA01 SWAP2 SWAP1 PUSH2 0x27A5 JUMP JUMPDEST PUSH1 0xFF AND SWAP1 POP PUSH1 0x2 SLOAD DUP2 PUSH1 0xA PUSH2 0xA16 SWAP2 SWAP1 PUSH2 0x2905 JUMP JUMPDEST PUSH1 0x1 SLOAD PUSH2 0xA23 SWAP2 SWAP1 PUSH2 0x2487 JUMP JUMPDEST PUSH2 0xA2D SWAP2 SWAP1 PUSH2 0x24F8 JUMP JUMPDEST SWAP2 POP POP SWAP1 JUMP JUMPDEST PUSH1 0x2 SLOAD DUP2 JUMP JUMPDEST PUSH1 0x0 DUP1 PUSH1 0x1 SLOAD GT DUP1 ISZERO PUSH2 0xA4E JUMPI POP PUSH1 0x0 PUSH1 0x2 SLOAD GT JUMPDEST DUP1 ISZERO PUSH2 0xA5A JUMPI POP PUSH1 0x0 DUP3 GT JUMPDEST PUSH2 0xA99 JUMPI PUSH1 0x40 MLOAD PUSH32 0x8C379A000000000000000000000000000000000000000000000000000000000 DUP2 MSTORE PUSH1 0x4 ADD PUSH2 0xA90 SWAP1 PUSH2 0x274C JUMP JUMPDEST PUSH1 0x40 MLOAD DUP1 SWAP2 SUB SWAP1 REVERT JUMPDEST PUSH1 0x0 PUSH2 0x3E8 PUSH2 0x3E5 DUP5 PUSH2 0xAAC SWAP2 SWAP1 PUSH2 0x2487 JUMP JUMPDEST PUSH2 0xAB6 SWAP2 SWAP1 PUSH2 0x24F8 JUMP JUMPDEST SWAP1 POP DUP1 PUSH1 0x2 SLOAD PUSH2 0xAC6 SWAP2 SWAP1 PUSH2 0x2529 JUMP JUMPDEST DUP2 PUSH1 0x1 SLOAD PUSH2 0xAD4 SWAP2 SWAP1 PUSH2 0x2487 JUMP JUMPDEST PUSH2 0xADE SWAP2 SWAP1 PUSH2 0x24F8 JUMP JUMPDEST SWAP2 POP POP SWAP2 SWAP1 POP JUMP JUMPDEST PUSH1 0x4 PUSH1 0x20 MSTORE DUP1 PUSH1 0x0 MSTORE PUSH1 0x40 PUSH1 0x0 KECCAK256 PUSH1 0x0 SWAP2 POP SWAP1 POP SLOAD DUP2 JUMP JUMPDEST PUSH1 0x0 DUP1 PUSH2 0xB4A DUP4 PUSH1 0x4 PUSH1 0x0 DUP7 PUSH20 0xFFFFFFFFFFFFFFFFFFFFFFFFFFFFFFFFFFFFFFFF AND PUSH20 0xFFFFFFFFFFFFFFFFFFFFFFFFFFFFFFFFFFFFFFFF AND DUP2 MSTORE PUSH1 0x20 ADD SWAP1 DUP2 MSTORE PUSH1 0x20 ADD PUSH1 0x0 KECCAK256 SLOAD PUSH2 0x1CFD JUMP JUMPDEST SWAP2 POP SWAP2 POP SWAP2 POP SWAP2 JUMP JUMPDEST PUSH1 0x0 PUSH32 0x0 PUSH20 0xFFFFFFFFFFFFFFFFFFFFFFFFFFFFFFFFFFFFFFFF AND PUSH4 0x23B872DD CALLER ADDRESS DUP6 PUSH1 0x40 MLOAD DUP5 PUSH4 0xFFFFFFFF AND PUSH1 0xE0 SHL DUP2 MSTORE PUSH1 0x4 ADD PUSH2 0xBB2 SWAP4 SWAP3 SWAP2 SWAP1 PUSH2 0x23BC JUMP JUMPDEST PUSH1 0x20 PUSH1 0x40 MLOAD DUP1 DUP4 SUB DUP2 PUSH1 0x0 DUP8 GAS CALL ISZERO DUP1 ISZERO PUSH2 0xBD1 JUMPI RETURNDATASIZE PUSH1 0x0 DUP1 RETURNDATACOPY RETURNDATASIZE PUSH1 0x0 REVERT JUMPDEST POP POP POP POP PUSH1 0x40 MLOAD RETURNDATASIZE PUSH1 0x1F NOT PUSH1 0x1F DUP3 ADD AND DUP3 ADD DUP1 PUSH1 0x40 MSTORE POP DUP2 ADD SWAP1 PUSH2 0xBF5 SWAP2 SWAP1 PUSH2 0x242B JUMP JUMPDEST POP PUSH1 0x0 PUSH2 0x3E8 PUSH2 0x3E5 DUP5 PUSH2 0xC09 SWAP2 SWAP1 PUSH2 0x2487 JUMP JUMPDEST PUSH2 0xC13 SWAP2 SWAP1 PUSH2 0x24F8 JUMP JUMPDEST SWAP1 POP DUP1 PUSH1 0x1 SLOAD PUSH2 0xC23 SWAP2 SWAP1 PUSH2 0x2529 JUMP JUMPDEST DUP2 PUSH1 0x2 SLOAD PUSH2 0xC31 SWAP2 SWAP1 PUSH2 0x2487 JUMP JUMPDEST PUSH2 0xC3B SWAP2 SWAP1 PUSH2 0x24F8 JUMP JUMPDEST SWAP2 POP PUSH1 0x0 DUP3 GT PUSH2 0xC80 JUMPI PUSH1 0x40 MLOAD PUSH32 0x8C379A000000000000000000000000000000000000000000000000000000000 DUP2 MSTORE PUSH1 0x4 ADD PUSH2 0xC77 SWAP1 PUSH2 0x25BA JUMP JUMPDEST PUSH1 0x40 MLOAD DUP1 SWAP2 SUB SWAP1 REVERT JUMPDEST PUSH1 0x0 PUSH2 0x7D0 PUSH1 0x1 SLOAD PUSH2 0xC92 SWAP2 SWAP1 PUSH2 0x2487 JUMP JUMPDEST PUSH1 0x3 SLOAD PUSH1 0x3 DUP7 PUSH2 0xCA2 SWAP2 SWAP1 PUSH2 0x2487 JUMP JUMPDEST PUSH2 0xCAC SWAP2 SWAP1 PUSH2 0x2487 JUMP JUMPDEST PUSH2 0xCB6 SWAP2 SWAP1 PUSH2 0x24F8 JUMP JUMPDEST SWAP1 POP PUSH2 0xCE2 PUSH1 0x0 DUP1 SLOAD SWAP1 PUSH2 0x100 EXP SWAP1 DIV PUSH20 0xFFFFFFFFFFFFFFFFFFFFFFFFFFFFFFFFFFFFFFFF AND DUP3 PUSH2 0x1C78 JUMP JUMPDEST PUSH32 0x0 PUSH20 0xFFFFFFFFFFFFFFFFFFFFFFFFFFFFFFFFFFFFFFFF AND PUSH4 0xA9059CBB CALLER DUP6 PUSH1 0x40 MLOAD DUP4 PUSH4 0xFFFFFFFF AND PUSH1 0xE0 SHL DUP2 MSTORE PUSH1 0x4 ADD PUSH2 0xD3D SWAP3 SWAP2 SWAP1 PUSH2 0x267A JUMP JUMPDEST PUSH1 0x20 PUSH1 0x40 MLOAD DUP1 DUP4 SUB DUP2 PUSH1 0x0 DUP8 GAS CALL ISZERO DUP1 ISZERO PUSH2 0xD5C JUMPI RETURNDATASIZE PUSH1 0x0 DUP1 RETURNDATACOPY RETURNDATASIZE PUSH1 0x0 REVERT JUMPDEST POP POP POP POP PUSH1 0x40 MLOAD RETURNDATASIZE PUSH1 0x1F NOT PUSH1 0x1F DUP3 ADD AND DUP3 ADD DUP1 PUSH1 0x40 MSTORE POP DUP2 ADD SWAP1 PUSH2 0xD80 SWAP2 SWAP1 PUSH2 0x242B JUMP JUMPDEST POP PUSH2 0xEBD PUSH32 0x0 PUSH20 0xFFFFFFFFFFFFFFFFFFFFFFFFFFFFFFFFFFFFFFFF AND PUSH4 0x70A08231 ADDRESS PUSH1 0x40 MLOAD DUP3 PUSH4 0xFFFFFFFF AND PUSH1 0xE0 SHL DUP2 MSTORE PUSH1 0x4 ADD PUSH2 0xDDD SWAP2 SWAP1 PUSH2 0x26A3 JUMP JUMPDEST PUSH1 0x20 PUSH1 0x40 MLOAD DUP1 DUP4 SUB DUP2 DUP7 GAS STATICCALL ISZERO DUP1 ISZERO PUSH2 0xDFA JUMPI RETURNDATASIZE PUSH1 0x0 DUP1 RETURNDATACOPY RETURNDATASIZE PUSH1 0x0 REVERT JUMPDEST POP POP POP POP PUSH1 0x40 MLOAD RETURNDATASIZE PUSH1 0x1F NOT PUSH1 0x1F DUP3 ADD AND DUP3 ADD DUP1 PUSH1 0x40 MSTORE POP DUP2 ADD SWAP1 PUSH2 0xE1E SWAP2 SWAP1 PUSH2 0x26D3 JUMP JUMPDEST PUSH32 0x0 PUSH20 0xFFFFFFFFFFFFFFFFFFFFFFFFFFFFFFFFFFFFFFFF AND PUSH4 0x70A08231 ADDRESS PUSH1 0x40 MLOAD DUP3 PUSH4 0xFFFFFFFF AND PUSH1 0xE0 SHL DUP2 MSTORE PUSH1 0x4 ADD PUSH2 0xE77 SWAP2 SWAP1 PUSH2 0x26A3 JUMP JUMPDEST PUSH1 0x20 PUSH1 0x40 MLOAD DUP1 DUP4 SUB DUP2 DUP7 GAS STATICCALL ISZERO DUP1 ISZERO PUSH2 0xE94 JUMPI RETURNDATASIZE PUSH1 0x0 DUP1 RETURNDATACOPY RETURNDATASIZE PUSH1 0x0 REVERT JUMPDEST POP POP POP POP PUSH1 0x40 MLOAD RETURNDATASIZE PUSH1 0x1F NOT PUSH1 0x1F DUP3 ADD AND DUP3 ADD DUP1 PUSH1 0x40 MSTORE POP DUP2 ADD SWAP1 PUSH2 0xEB8 SWAP2 SWAP1 PUSH2 0x26D3 JUMP JUMPDEST PUSH2 0x1CEB JUMP JUMPDEST POP POP SWAP2 SWAP1 POP JUMP JUMPDEST PUSH1 0x0 PUSH32 0x0 PUSH20 0xFFFFFFFFFFFFFFFFFFFFFFFFFFFFFFFFFFFFFFFF AND PUSH4 0x23B872DD CALLER ADDRESS DUP6 PUSH1 0x40 MLOAD DUP5 PUSH4 0xFFFFFFFF AND PUSH1 0xE0 SHL DUP2 MSTORE PUSH1 0x4 ADD PUSH2 0xF23 SWAP4 SWAP3 SWAP2 SWAP1 PUSH2 0x23BC JUMP JUMPDEST PUSH1 0x20 PUSH1 0x40 MLOAD DUP1 DUP4 SUB DUP2 PUSH1 0x0 DUP8 GAS CALL ISZERO DUP1 ISZERO PUSH2 0xF42 JUMPI RETURNDATASIZE PUSH1 0x0 DUP1 RETURNDATACOPY RETURNDATASIZE PUSH1 0x0 REVERT JUMPDEST POP POP POP POP PUSH1 0x40 MLOAD RETURNDATASIZE PUSH1 0x1F NOT PUSH1 0x1F DUP3 ADD AND DUP3 ADD DUP1 PUSH1 0x40 MSTORE POP DUP2 ADD SWAP1 PUSH2 0xF66 SWAP2 SWAP1 PUSH2 0x242B JUMP JUMPDEST POP PUSH1 0x0 PUSH2 0x3E8 PUSH2 0x3E5 DUP5 PUSH2 0xF7A SWAP2 SWAP1 PUSH2 0x2487 JUMP JUMPDEST PUSH2 0xF84 SWAP2 SWAP1 PUSH2 0x24F8 JUMP JUMPDEST SWAP1 POP DUP1 PUSH1 0x1 SLOAD PUSH2 0xF94 SWAP2 SWAP1 PUSH2 0x2529 JUMP JUMPDEST DUP2 PUSH1 0x2 SLOAD PUSH2 0xFA2 SWAP2 SWAP1 PUSH2 0x2487 JUMP JUMPDEST PUSH2 0xFAC SWAP2 SWAP1 PUSH2 0x24F8 JUMP JUMPDEST SWAP2 POP PUSH1 0x0 PUSH2 0x7D0 PUSH1 0x1 SLOAD PUSH2 0xFC0 SWAP2 SWAP1 PUSH2 0x2487 JUMP JUMPDEST PUSH1 0x3 SLOAD PUSH1 0x3 DUP7 PUSH2 0xFD0 SWAP2 SWAP1 PUSH2 0x2487 JUMP JUMPDEST PUSH2 0xFDA SWAP2 SWAP1 PUSH2 0x2487 JUMP JUMPDEST PUSH2 0xFE4 SWAP2 SWAP1 PUSH2 0x24F8 JUMP JUMPDEST SWAP1 POP PUSH2 0x1010 PUSH1 0x0 DUP1 SLOAD SWAP1 PUSH2 0x100 EXP SWAP1 DIV PUSH20 0xFFFFFFFFFFFFFFFFFFFFFFFFFFFFFFFFFFFFFFFF AND DUP3 PUSH2 0x1C78 JUMP JUMPDEST PUSH32 0x0 PUSH20 0xFFFFFFFFFFFFFFFFFFFFFFFFFFFFFFFFFFFFFFFF AND PUSH4 0xA9059CBB CALLER DUP6 PUSH1 0x40 MLOAD DUP4 PUSH4 0xFFFFFFFF AND PUSH1 0xE0 SHL DUP2 MSTORE PUSH1 0x4 ADD PUSH2 0x106B SWAP3 SWAP2 SWAP1 PUSH2 0x267A JUMP JUMPDEST PUSH1 0x20 PUSH1 0x40 MLOAD DUP1 DUP4 SUB DUP2 PUSH1 0x0 DUP8 GAS CALL ISZERO DUP1 ISZERO PUSH2 0x108A JUMPI RETURNDATASIZE PUSH1 0x0 DUP1 RETURNDATACOPY RETURNDATASIZE PUSH1 0x0 REVERT JUMPDEST POP POP POP POP PUSH1 0x40 MLOAD RETURNDATASIZE PUSH1 0x1F NOT PUSH1 0x1F DUP3 ADD AND DUP3 ADD DUP1 PUSH1 0x40 MSTORE POP DUP2 ADD SWAP1 PUSH2 0x10AE SWAP2 SWAP1 PUSH2 0x242B JUMP JUMPDEST POP PUSH2 0x11EB PUSH32 0x0 PUSH20 0xFFFFFFFFFFFFFFFFFFFFFFFFFFFFFFFFFFFFFFFF AND PUSH4 0x70A08231 ADDRESS PUSH1 0x40 MLOAD DUP3 PUSH4 0xFFFFFFFF AND PUSH1 0xE0 SHL DUP2 MSTORE PUSH1 0x4 ADD PUSH2 0x110B SWAP2 SWAP1 PUSH2 0x26A3 JUMP JUMPDEST PUSH1 0x20 PUSH1 0x40 MLOAD DUP1 DUP4 SUB DUP2 DUP7 GAS STATICCALL ISZERO DUP1 ISZERO PUSH2 0x1128 JUMPI RETURNDATASIZE PUSH1 0x0 DUP1 RETURNDATACOPY RETURNDATASIZE PUSH1 0x0 REVERT JUMPDEST POP POP POP POP PUSH1 0x40 MLOAD RETURNDATASIZE PUSH1 0x1F NOT PUSH1 0x1F DUP3 ADD AND DUP3 ADD DUP1 PUSH1 0x40 MSTORE POP DUP2 ADD SWAP1 PUSH2 0x114C SWAP2 SWAP1 PUSH2 0x26D3 JUMP JUMPDEST PUSH32 0x0 PUSH20 0xFFFFFFFFFFFFFFFFFFFFFFFFFFFFFFFFFFFFFFFF AND PUSH4 0x70A08231 ADDRESS PUSH1 0x40 MLOAD DUP3 PUSH4 0xFFFFFFFF AND PUSH1 0xE0 SHL DUP2 MSTORE PUSH1 0x4 ADD PUSH2 0x11A5 SWAP2 SWAP1 PUSH2 0x26A3 JUMP JUMPDEST PUSH1 0x20 PUSH1 0x40 MLOAD DUP1 DUP4 SUB DUP2 DUP7 GAS STATICCALL ISZERO DUP1 ISZERO PUSH2 0x11C2 JUMPI RETURNDATASIZE PUSH1 0x0 DUP1 RETURNDATACOPY RETURNDATASIZE PUSH1 0x0 REVERT JUMPDEST POP POP POP POP PUSH1 0x40 MLOAD RETURNDATASIZE PUSH1 0x1F NOT PUSH1 0x1F DUP3 ADD AND DUP3 ADD DUP1 PUSH1 0x40 MSTORE POP DUP2 ADD SWAP1 PUSH2 0x11E6 SWAP2 SWAP1 PUSH2 0x26D3 JUMP JUMPDEST PUSH2 0x1CEB JUMP JUMPDEST POP POP SWAP2 SWAP1 POP JUMP JUMPDEST PUSH1 0x0 DUP1 PUSH1 0x4 PUSH1 0x0 CALLER PUSH20 0xFFFFFFFFFFFFFFFFFFFFFFFFFFFFFFFFFFFFFFFF AND PUSH20 0xFFFFFFFFFFFFFFFFFFFFFFFFFFFFFFFFFFFFFFFF AND DUP2 MSTORE PUSH1 0x20 ADD SWAP1 DUP2 MSTORE PUSH1 0x20 ADD PUSH1 0x0 KECCAK256 SLOAD DUP4 GT ISZERO PUSH2 0x1277 JUMPI PUSH1 0x40 MLOAD PUSH32 0x8C379A000000000000000000000000000000000000000000000000000000000 DUP2 MSTORE PUSH1 0x4 ADD PUSH2 0x126E SWAP1 PUSH2 0x299C JUMP JUMPDEST PUSH1 0x40 MLOAD DUP1 SWAP2 SUB SWAP1 REVERT JUMPDEST PUSH2 0x1281 CALLER DUP5 PUSH2 0x1CFD JUMP JUMPDEST SWAP2 POP SWAP2 POP SWAP2 POP SWAP2 JUMP JUMPDEST PUSH1 0x0 PUSH32 0x0 PUSH20 0xFFFFFFFFFFFFFFFFFFFFFFFFFFFFFFFFFFFFFFFF AND PUSH4 0x23B872DD CALLER ADDRESS DUP7 PUSH1 0x40 MLOAD DUP5 PUSH4 0xFFFFFFFF AND PUSH1 0xE0 SHL DUP2 MSTORE PUSH1 0x4 ADD PUSH2 0x12E9 SWAP4 SWAP3 SWAP2 SWAP1 PUSH2 0x23BC JUMP JUMPDEST PUSH1 0x20 PUSH1 0x40 MLOAD DUP1 DUP4 SUB DUP2 PUSH1 0x0 DUP8 GAS CALL ISZERO DUP1 ISZERO PUSH2 0x1308 JUMPI RETURNDATASIZE PUSH1 0x0 DUP1 RETURNDATACOPY RETURNDATASIZE PUSH1 0x0 REVERT JUMPDEST POP POP POP POP PUSH1 0x40 MLOAD RETURNDATASIZE PUSH1 0x1F NOT PUSH1 0x1F DUP3 ADD AND DUP3 ADD DUP1 PUSH1 0x40 MSTORE POP DUP2 ADD SWAP1 PUSH2 0x132C SWAP2 SWAP1 PUSH2 0x242B JUMP JUMPDEST POP PUSH32 0x0 PUSH20 0xFFFFFFFFFFFFFFFFFFFFFFFFFFFFFFFFFFFFFFFF AND PUSH4 0x23B872DD CALLER ADDRESS DUP6 PUSH1 0x40 MLOAD DUP5 PUSH4 0xFFFFFFFF AND PUSH1 0xE0 SHL DUP2 MSTORE PUSH1 0x4 ADD PUSH2 0x138A SWAP4 SWAP3 SWAP2 SWAP1 PUSH2 0x23BC JUMP JUMPDEST PUSH1 0x20 PUSH1 0x40 MLOAD DUP1 DUP4 SUB DUP2 PUSH1 0x0 DUP8 GAS CALL ISZERO DUP1 ISZERO PUSH2 0x13A9 JUMPI RETURNDATASIZE PUSH1 0x0 DUP1 RETURNDATACOPY RETURNDATASIZE PUSH1 0x0 REVERT JUMPDEST POP POP POP POP PUSH1 0x40 MLOAD RETURNDATASIZE PUSH1 0x1F NOT PUSH1 0x1F DUP3 ADD AND DUP3 ADD DUP1 PUSH1 0x40 MSTORE POP DUP2 ADD SWAP1 PUSH2 0x13CD SWAP2 SWAP1 PUSH2 0x242B JUMP JUMPDEST POP PUSH1 0x0 PUSH1 0x1 SLOAD GT DUP1 PUSH2 0x13E1 JUMPI POP PUSH1 0x0 PUSH1 0x2 SLOAD GT JUMPDEST ISZERO PUSH2 0x1443 JUMPI DUP2 PUSH1 0x1 SLOAD PUSH2 0x13F4 SWAP2 SWAP1 PUSH2 0x2487 JUMP JUMPDEST PUSH1 0x2 SLOAD DUP5 PUSH2 0x1402 SWAP2 SWAP1 PUSH2 0x2487 JUMP JUMPDEST EQ PUSH2 0x1442 JUMPI PUSH1 0x40 MLOAD PUSH32 0x8C379A000000000000000000000000000000000000000000000000000000000 DUP2 MSTORE PUSH1 0x4 ADD PUSH2 0x1439 SWAP1 PUSH2 0x2A08 JUMP JUMPDEST PUSH1 0x40 MLOAD DUP1 SWAP2 SUB SWAP1 REVERT JUMPDEST JUMPDEST PUSH1 0x0 PUSH1 0x3 SLOAD SUB PUSH2 0x1468 JUMPI PUSH2 0x1461 DUP3 DUP5 PUSH2 0x145C SWAP2 SWAP1 PUSH2 0x2487 JUMP JUMPDEST PUSH2 0x2014 JUMP JUMPDEST SWAP1 POP PUSH2 0x14A9 JUMP JUMPDEST PUSH2 0x14A6 PUSH1 0x1 SLOAD PUSH1 0x3 SLOAD DUP6 PUSH2 0x147C SWAP2 SWAP1 PUSH2 0x2487 JUMP JUMPDEST PUSH2 0x1486 SWAP2 SWAP1 PUSH2 0x24F8 JUMP JUMPDEST PUSH1 0x2 SLOAD PUSH1 0x3 SLOAD DUP6 PUSH2 0x1497 SWAP2 SWAP1 PUSH2 0x2487 JUMP JUMPDEST PUSH2 0x14A1 SWAP2 SWAP1 PUSH2 0x24F8 JUMP JUMPDEST PUSH2 0x208E JUMP JUMPDEST SWAP1 POP JUMPDEST PUSH1 0x0 DUP2 GT PUSH2 0x14EC JUMPI PUSH1 0x40 MLOAD PUSH32 0x8C379A000000000000000000000000000000000000000000000000000000000 DUP2 MSTORE PUSH1 0x4 ADD PUSH2 0x14E3 SWAP1 PUSH2 0x2A74 JUMP JUMPDEST PUSH1 0x40 MLOAD DUP1 SWAP2 SUB SWAP1 REVERT JUMPDEST PUSH2 0x14F6 CALLER DUP3 PUSH2 0x1C78 JUMP JUMPDEST PUSH2 0x1632 PUSH32 0x0 PUSH20 0xFFFFFFFFFFFFFFFFFFFFFFFFFFFFFFFFFFFFFFFF AND PUSH4 0x70A08231 ADDRESS PUSH1 0x40 MLOAD DUP3 PUSH4 0xFFFFFFFF AND PUSH1 0xE0 SHL DUP2 MSTORE PUSH1 0x4 ADD PUSH2 0x1552 SWAP2 SWAP1 PUSH2 0x26A3 JUMP JUMPDEST PUSH1 0x20 PUSH1 0x40 MLOAD DUP1 DUP4 SUB DUP2 DUP7 GAS STATICCALL ISZERO DUP1 ISZERO PUSH2 0x156F JUMPI RETURNDATASIZE PUSH1 0x0 DUP1 RETURNDATACOPY RETURNDATASIZE PUSH1 0x0 REVERT JUMPDEST POP POP POP POP PUSH1 0x40 MLOAD RETURNDATASIZE PUSH1 0x1F NOT PUSH1 0x1F DUP3 ADD AND DUP3 ADD DUP1 PUSH1 0x40 MSTORE POP DUP2 ADD SWAP1 PUSH2 0x1593 SWAP2 SWAP1 PUSH2 0x26D3 JUMP JUMPDEST PUSH32 0x0 PUSH20 0xFFFFFFFFFFFFFFFFFFFFFFFFFFFFFFFFFFFFFFFF AND PUSH4 0x70A08231 ADDRESS PUSH1 0x40 MLOAD DUP3 PUSH4 0xFFFFFFFF AND PUSH1 0xE0 SHL DUP2 MSTORE PUSH1 0x4 ADD PUSH2 0x15EC SWAP2 SWAP1 PUSH2 0x26A3 JUMP JUMPDEST PUSH1 0x20 PUSH1 0x40 MLOAD DUP1 DUP4 SUB DUP2 DUP7 GAS STATICCALL ISZERO DUP1 ISZERO PUSH2 0x1609 JUMPI RETURNDATASIZE PUSH1 0x0 DUP1 RETURNDATACOPY RETURNDATASIZE PUSH1 0x0 REVERT JUMPDEST POP POP POP POP PUSH1 0x40 MLOAD RETURNDATASIZE PUSH1 0x1F NOT PUSH1 0x1F DUP3 ADD AND DUP3 ADD DUP1 PUSH1 0x40 MSTORE POP DUP2 ADD SWAP1 PUSH2 0x162D SWAP2 SWAP1 PUSH2 0x26D3 JUMP JUMPDEST PUSH2 0x1CEB JUMP JUMPDEST SWAP3 SWAP2 POP POP JUMP JUMPDEST PUSH1 0x0 PUSH1 0x4 PUSH1 0x0 CALLER PUSH20 0xFFFFFFFFFFFFFFFFFFFFFFFFFFFFFFFFFFFFFFFF AND PUSH20 0xFFFFFFFFFFFFFFFFFFFFFFFFFFFFFFFFFFFFFFFF AND DUP2 MSTORE PUSH1 0x20 ADD SWAP1 DUP2 MSTORE PUSH1 0x20 ADD PUSH1 0x0 KECCAK256 SLOAD SWAP1 POP SWAP1 JUMP JUMPDEST PUSH1 0x0 PUSH32 0x0 PUSH20 0xFFFFFFFFFFFFFFFFFFFFFFFFFFFFFFFFFFFFFFFF AND PUSH4 0x23B872DD CALLER ADDRESS DUP8 PUSH1 0x40 MLOAD DUP5 PUSH4 0xFFFFFFFF AND PUSH1 0xE0 SHL DUP2 MSTORE PUSH1 0x4 ADD PUSH2 0x16DE SWAP4 SWAP3 SWAP2 SWAP1 PUSH2 0x23BC JUMP JUMPDEST PUSH1 0x20 PUSH1 0x40 MLOAD DUP1 DUP4 SUB DUP2 PUSH1 0x0 DUP8 GAS CALL ISZERO DUP1 ISZERO PUSH2 0x16FD JUMPI RETURNDATASIZE PUSH1 0x0 DUP1 RETURNDATACOPY RETURNDATASIZE PUSH1 0x0 REVERT JUMPDEST POP POP POP POP PUSH1 0x40 MLOAD RETURNDATASIZE PUSH1 0x1F NOT PUSH1 0x1F DUP3 ADD AND DUP3 ADD DUP1 PUSH1 0x40 MSTORE POP DUP2 ADD SWAP1 PUSH2 0x1721 SWAP2 SWAP1 PUSH2 0x242B JUMP JUMPDEST POP PUSH1 0x0 PUSH2 0x3E8 PUSH2 0x3E5 DUP7 PUSH2 0x1735 SWAP2 SWAP1 PUSH2 0x2487 JUMP JUMPDEST PUSH2 0x173F SWAP2 SWAP1 PUSH2 0x24F8 JUMP JUMPDEST SWAP1 POP DUP1 PUSH1 0x1 SLOAD PUSH2 0x174F SWAP2 SWAP1 PUSH2 0x2529 JUMP JUMPDEST DUP2 PUSH1 0x2 SLOAD PUSH2 0x175D SWAP2 SWAP1 PUSH2 0x2487 JUMP JUMPDEST PUSH2 0x1767 SWAP2 SWAP1 PUSH2 0x24F8 JUMP JUMPDEST SWAP2 POP PUSH1 0x0 DUP3 GT PUSH2 0x17AC JUMPI PUSH1 0x40 MLOAD PUSH32 0x8C379A000000000000000000000000000000000000000000000000000000000 DUP2 MSTORE PUSH1 0x4 ADD PUSH2 0x17A3 SWAP1 PUSH2 0x25BA JUMP JUMPDEST PUSH1 0x40 MLOAD DUP1 SWAP2 SUB SWAP1 REVERT JUMPDEST PUSH2 0x3E8 DUP4 PUSH2 0x3E8 PUSH2 0x17BD SWAP2 SWAP1 PUSH2 0x25DA JUMP JUMPDEST DUP6 PUSH2 0x17C8 SWAP2 SWAP1 PUSH2 0x2487 JUMP JUMPDEST PUSH2 0x17D2 SWAP2 SWAP1 PUSH2 0x24F8 JUMP JUMPDEST DUP3 LT ISZERO PUSH2 0x1814 JUMPI PUSH1 0x40 MLOAD PUSH32 0x8C379A000000000000000000000000000000000000000000000000000000000 DUP2 MSTORE PUSH1 0x4 ADD PUSH2 0x180B SWAP1 PUSH2 0x265A JUMP JUMPDEST PUSH1 0x40 MLOAD DUP1 SWAP2 SUB SWAP1 REVERT JUMPDEST PUSH1 0x0 PUSH2 0x7D0 PUSH1 0x1 SLOAD PUSH2 0x1826 SWAP2 SWAP1 PUSH2 0x2487 JUMP JUMPDEST PUSH1 0x3 SLOAD PUSH1 0x3 DUP9 PUSH2 0x1836 SWAP2 SWAP1 PUSH2 0x2487 JUMP JUMPDEST PUSH2 0x1840 SWAP2 SWAP1 PUSH2 0x2487 JUMP JUMPDEST PUSH2 0x184A SWAP2 SWAP1 PUSH2 0x24F8 JUMP JUMPDEST SWAP1 POP PUSH2 0x1876 PUSH1 0x0 DUP1 SLOAD SWAP1 PUSH2 0x100 EXP SWAP1 DIV PUSH20 0xFFFFFFFFFFFFFFFFFFFFFFFFFFFFFFFFFFFFFFFF AND DUP3 PUSH2 0x1C78 JUMP JUMPDEST PUSH32 0x0 PUSH20 0xFFFFFFFFFFFFFFFFFFFFFFFFFFFFFFFFFFFFFFFF AND PUSH4 0xA9059CBB CALLER DUP6 PUSH1 0x40 MLOAD DUP4 PUSH4 0xFFFFFFFF AND PUSH1 0xE0 SHL DUP2 MSTORE PUSH1 0x4 ADD PUSH2 0x18D1 SWAP3 SWAP2 SWAP1 PUSH2 0x267A JUMP JUMPDEST PUSH1 0x20 PUSH1 0x40 MLOAD DUP1 DUP4 SUB DUP2 PUSH1 0x0 DUP8 GAS CALL ISZERO DUP1 ISZERO PUSH2 0x18F0 JUMPI RETURNDATASIZE PUSH1 0x0 DUP1 RETURNDATACOPY RETURNDATASIZE PUSH1 0x0 REVERT JUMPDEST POP POP POP POP PUSH1 0x40 MLOAD RETURNDATASIZE PUSH1 0x1F NOT PUSH1 0x1F DUP3 ADD AND DUP3 ADD DUP1 PUSH1 0x40 MSTORE POP DUP2 ADD SWAP1 PUSH2 0x1914 SWAP2 SWAP1 PUSH2 0x242B JUMP JUMPDEST POP PUSH2 0x1A51 PUSH32 0x0 PUSH20 0xFFFFFFFFFFFFFFFFFFFFFFFFFFFFFFFFFFFFFFFF AND PUSH4 0x70A08231 ADDRESS PUSH1 0x40 MLOAD DUP3 PUSH4 0xFFFFFFFF AND PUSH1 0xE0 SHL DUP2 MSTORE PUSH1 0x4 ADD PUSH2 0x1971 SWAP2 SWAP1 PUSH2 0x26A3 JUMP JUMPDEST PUSH1 0x20 PUSH1 0x40 MLOAD DUP1 DUP4 SUB DUP2 DUP7 GAS STATICCALL ISZERO DUP1 ISZERO PUSH2 0x198E JUMPI RETURNDATASIZE PUSH1 0x0 DUP1 RETURNDATACOPY RETURNDATASIZE PUSH1 0x0 REVERT JUMPDEST POP POP POP POP PUSH1 0x40 MLOAD RETURNDATASIZE PUSH1 0x1F NOT PUSH1 0x1F DUP3 ADD AND DUP3 ADD DUP1 PUSH1 0x40 MSTORE POP DUP2 ADD SWAP1 PUSH2 0x19B2 SWAP2 SWAP1 PUSH2 0x26D3 JUMP JUMPDEST PUSH32 0x0 PUSH20 0xFFFFFFFFFFFFFFFFFFFFFFFFFFFFFFFFFFFFFFFF AND PUSH4 0x70A08231 ADDRESS PUSH1 0x40 MLOAD DUP3 PUSH4 0xFFFFFFFF AND PUSH1 0xE0 SHL DUP2 MSTORE PUSH1 0x4 ADD PUSH2 0x1A0B SWAP2 SWAP1 PUSH2 0x26A3 JUMP JUMPDEST PUSH1 0x20 PUSH1 0x40 MLOAD DUP1 DUP4 SUB DUP2 DUP7 GAS STATICCALL ISZERO DUP1 ISZERO PUSH2 0x1A28 JUMPI RETURNDATASIZE PUSH1 0x0 DUP1 RETURNDATACOPY RETURNDATASIZE PUSH1 0x0 REVERT JUMPDEST POP POP POP POP PUSH1 0x40 MLOAD RETURNDATASIZE PUSH1 0x1F NOT PUSH1 0x1F DUP3 ADD AND DUP3 ADD DUP1 PUSH1 0x40 MSTORE POP DUP2 ADD SWAP1 PUSH2 0x1A4C SWAP2 SWAP1 PUSH2 0x26D3 JUMP JUMPDEST PUSH2 0x1CEB JUMP JUMPDEST POP POP SWAP4 SWAP3 POP POP POP JUMP JUMPDEST PUSH1 0x0 DUP1 PUSH1 0x4 PUSH1 0x0 DUP6 PUSH20 0xFFFFFFFFFFFFFFFFFFFFFFFFFFFFFFFFFFFFFFFF AND PUSH20 0xFFFFFFFFFFFFFFFFFFFFFFFFFFFFFFFFFFFFFFFF AND DUP2 MSTORE PUSH1 0x20 ADD SWAP1 DUP2 MSTORE PUSH1 0x20 ADD PUSH1 0x0 KECCAK256 SLOAD DUP4 GT ISZERO PUSH2 0x1ADF JUMPI PUSH1 0x40 MLOAD PUSH32 0x8C379A000000000000000000000000000000000000000000000000000000000 DUP2 MSTORE PUSH1 0x4 ADD PUSH2 0x1AD6 SWAP1 PUSH2 0x299C JUMP JUMPDEST PUSH1 0x40 MLOAD DUP1 SWAP2 SUB SWAP1 REVERT JUMPDEST PUSH2 0x1AE9 DUP5 DUP5 PUSH2 0x1CFD JUMP JUMPDEST SWAP2 POP SWAP2 POP SWAP3 POP SWAP3 SWAP1 POP JUMP JUMPDEST PUSH1 0x0 DUP1 PUSH1 0x1 SLOAD GT DUP1 ISZERO PUSH2 0x1B09 JUMPI POP PUSH1 0x0 PUSH1 0x2 SLOAD GT JUMPDEST PUSH2 0x1B48 JUMPI PUSH1 0x40 MLOAD PUSH32 0x8C379A000000000000000000000000000000000000000000000000000000000 DUP2 MSTORE PUSH1 0x4 ADD PUSH2 0x1B3F SWAP1 PUSH2 0x274C JUMP JUMPDEST PUSH1 0x40 MLOAD DUP1 SWAP2 SUB SWAP1 REVERT JUMPDEST PUSH1 0x0 PUSH32 0x0 PUSH20 0xFFFFFFFFFFFFFFFFFFFFFFFFFFFFFFFFFFFFFFFF AND PUSH4 0x313CE567 PUSH1 0x40 MLOAD DUP2 PUSH4 0xFFFFFFFF AND PUSH1 0xE0 SHL DUP2 MSTORE PUSH1 0x4 ADD PUSH1 0x20 PUSH1 0x40 MLOAD DUP1 DUP4 SUB DUP2 DUP7 GAS STATICCALL ISZERO DUP1 ISZERO PUSH2 0x1BB5 JUMPI RETURNDATASIZE PUSH1 0x0 DUP1 RETURNDATACOPY RETURNDATASIZE PUSH1 0x0 REVERT JUMPDEST POP POP POP POP PUSH1 0x40 MLOAD RETURNDATASIZE PUSH1 0x1F NOT PUSH1 0x1F DUP3 ADD AND DUP3 ADD DUP1 PUSH1 0x40 MSTORE POP DUP2 ADD SWAP1 PUSH2 0x1BD9 SWAP2 SWAP1 PUSH2 0x27A5 JUMP JUMPDEST PUSH1 0xFF AND SWAP1 POP PUSH1 0x1 SLOAD DUP2 PUSH1 0xA PUSH2 0x1BEE SWAP2 SWAP1 PUSH2 0x2905 JUMP JUMPDEST PUSH1 0x2 SLOAD PUSH2 0x1BFB SWAP2 SWAP1 PUSH2 0x2487 JUMP JUMPDEST PUSH2 0x1C05 SWAP2 SWAP1 PUSH2 0x24F8 JUMP JUMPDEST SWAP2 POP POP SWAP1 JUMP JUMPDEST PUSH32 0x0 DUP2 JUMP JUMPDEST PUSH1 0x0 PUSH1 0x4 PUSH1 0x0 DUP4 PUSH20 0xFFFFFFFFFFFFFFFFFFFFFFFFFFFFFFFFFFFFFFFF AND PUSH20 0xFFFFFFFFFFFFFFFFFFFFFFFFFFFFFFFFFFFFFFFF AND DUP2 MSTORE PUSH1 0x20 ADD SWAP1 DUP2 MSTORE PUSH1 0x20 ADD PUSH1 0x0 KECCAK256 SLOAD SWAP1 POP SWAP2 SWAP1 POP JUMP JUMPDEST DUP1 PUSH1 0x4 PUSH1 0x0 DUP5 PUSH20 0xFFFFFFFFFFFFFFFFFFFFFFFFFFFFFFFFFFFFFFFF AND PUSH20 0xFFFFFFFFFFFFFFFFFFFFFFFFFFFFFFFFFFFFFFFF AND DUP2 MSTORE PUSH1 0x20 ADD SWAP1 DUP2 MSTORE PUSH1 0x20 ADD PUSH1 0x0 KECCAK256 PUSH1 0x0 DUP3 DUP3 SLOAD PUSH2 0x1CC7 SWAP2 SWAP1 PUSH2 0x2529 JUMP JUMPDEST SWAP3 POP POP DUP2 SWAP1 SSTORE POP DUP1 PUSH1 0x3 PUSH1 0x0 DUP3 DUP3 SLOAD PUSH2 0x1CE0 SWAP2 SWAP1 PUSH2 0x2529 JUMP JUMPDEST SWAP3 POP POP DUP2 SWAP1 SSTORE POP POP POP JUMP JUMPDEST DUP2 PUSH1 0x1 DUP2 SWAP1 SSTORE POP DUP1 PUSH1 0x2 DUP2 SWAP1 SSTORE POP POP POP JUMP JUMPDEST PUSH1 0x0 DUP1 PUSH1 0x3 SLOAD PUSH1 0x1 SLOAD DUP5 PUSH2 0x1D11 SWAP2 SWAP1 PUSH2 0x2487 JUMP JUMPDEST PUSH2 0x1D1B SWAP2 SWAP1 PUSH2 0x24F8 JUMP JUMPDEST SWAP2 POP PUSH1 0x3 SLOAD PUSH1 0x2 SLOAD DUP5 PUSH2 0x1D2E SWAP2 SWAP1 PUSH2 0x2487 JUMP JUMPDEST PUSH2 0x1D38 SWAP2 SWAP1 PUSH2 0x24F8 JUMP JUMPDEST SWAP1 POP PUSH1 0x0 DUP3 GT DUP1 ISZERO PUSH2 0x1D4A JUMPI POP PUSH1 0x0 DUP2 GT JUMPDEST PUSH2 0x1D89 JUMPI PUSH1 0x40 MLOAD PUSH32 0x8C379A000000000000000000000000000000000000000000000000000000000 DUP2 MSTORE PUSH1 0x4 ADD PUSH2 0x1D80 SWAP1 PUSH2 0x2AE0 JUMP JUMPDEST PUSH1 0x40 MLOAD DUP1 SWAP2 SUB SWAP1 REVERT JUMPDEST PUSH2 0x1D93 DUP5 DUP5 PUSH2 0x20A7 JUMP JUMPDEST PUSH32 0x0 PUSH20 0xFFFFFFFFFFFFFFFFFFFFFFFFFFFFFFFFFFFFFFFF AND PUSH4 0xA9059CBB DUP6 DUP5 PUSH1 0x40 MLOAD DUP4 PUSH4 0xFFFFFFFF AND PUSH1 0xE0 SHL DUP2 MSTORE PUSH1 0x4 ADD PUSH2 0x1DEE SWAP3 SWAP2 SWAP1 PUSH2 0x267A JUMP JUMPDEST PUSH1 0x20 PUSH1 0x40 MLOAD DUP1 DUP4 SUB DUP2 PUSH1 0x0 DUP8 GAS CALL ISZERO DUP1 ISZERO PUSH2 0x1E0D JUMPI RETURNDATASIZE PUSH1 0x0 DUP1 RETURNDATACOPY RETURNDATASIZE PUSH1 0x0 REVERT JUMPDEST POP POP POP POP PUSH1 0x40 MLOAD RETURNDATASIZE PUSH1 0x1F NOT PUSH1 0x1F DUP3 ADD AND DUP3 ADD DUP1 PUSH1 0x40 MSTORE POP DUP2 ADD SWAP1 PUSH2 0x1E31 SWAP2 SWAP1 PUSH2 0x242B JUMP JUMPDEST POP PUSH32 0x0 PUSH20 0xFFFFFFFFFFFFFFFFFFFFFFFFFFFFFFFFFFFFFFFF AND PUSH4 0xA9059CBB DUP6 DUP4 PUSH1 0x40 MLOAD DUP4 PUSH4 0xFFFFFFFF AND PUSH1 0xE0 SHL DUP2 MSTORE PUSH1 0x4 ADD PUSH2 0x1E8D SWAP3 SWAP2 SWAP1 PUSH2 0x267A JUMP JUMPDEST PUSH1 0x20 PUSH1 0x40 MLOAD DUP1 DUP4 SUB DUP2 PUSH1 0x0 DUP8 GAS CALL ISZERO DUP1 ISZERO PUSH2 0x1EAC JUMPI RETURNDATASIZE PUSH1 0x0 DUP1 RETURNDATACOPY RETURNDATASIZE PUSH1 0x0 REVERT JUMPDEST POP POP POP POP PUSH1 0x40 MLOAD RETURNDATASIZE PUSH1 0x1F NOT PUSH1 0x1F DUP3 ADD AND DUP3 ADD DUP1 PUSH1 0x40 MSTORE POP DUP2 ADD SWAP1 PUSH2 0x1ED0 SWAP2 SWAP1 PUSH2 0x242B JUMP JUMPDEST POP PUSH2 0x200D PUSH32 0x0 PUSH20 0xFFFFFFFFFFFFFFFFFFFFFFFFFFFFFFFFFFFFFFFF AND PUSH4 0x70A08231 ADDRESS PUSH1 0x40 MLOAD DUP3 PUSH4 0xFFFFFFFF AND PUSH1 0xE0 SHL DUP2 MSTORE PUSH1 0x4 ADD PUSH2 0x1F2D SWAP2 SWAP1 PUSH2 0x26A3 JUMP JUMPDEST PUSH1 0x20 PUSH1 0x40 MLOAD DUP1 DUP4 SUB DUP2 DUP7 GAS STATICCALL ISZERO DUP1 ISZERO PUSH2 0x1F4A JUMPI RETURNDATASIZE PUSH1 0x0 DUP1 RETURNDATACOPY RETURNDATASIZE PUSH1 0x0 REVERT JUMPDEST POP POP POP POP PUSH1 0x40 MLOAD RETURNDATASIZE PUSH1 0x1F NOT PUSH1 0x1F DUP3 ADD AND DUP3 ADD DUP1 PUSH1 0x40 MSTORE POP DUP2 ADD SWAP1 PUSH2 0x1F6E SWAP2 SWAP1 PUSH2 0x26D3 JUMP JUMPDEST PUSH32 0x0 PUSH20 0xFFFFFFFFFFFFFFFFFFFFFFFFFFFFFFFFFFFFFFFF AND PUSH4 0x70A08231 ADDRESS PUSH1 0x40 MLOAD DUP3 PUSH4 0xFFFFFFFF AND PUSH1 0xE0 SHL DUP2 MSTORE PUSH1 0x4 ADD PUSH2 0x1FC7 SWAP2 SWAP1 PUSH2 0x26A3 JUMP JUMPDEST PUSH1 0x20 PUSH1 0x40 MLOAD DUP1 DUP4 SUB DUP2 DUP7 GAS STATICCALL ISZERO DUP1 ISZERO PUSH2 0x1FE4 JUMPI RETURNDATASIZE PUSH1 0x0 DUP1 RETURNDATACOPY RETURNDATASIZE PUSH1 0x0 REVERT JUMPDEST POP POP POP POP PUSH1 0x40 MLOAD RETURNDATASIZE PUSH1 0x1F NOT PUSH1 0x1F DUP3 ADD AND DUP3 ADD DUP1 PUSH1 0x40 MSTORE POP DUP2 ADD SWAP1 PUSH2 0x2008 SWAP2 SWAP1 PUSH2 0x26D3 JUMP JUMPDEST PUSH2 0x1CEB JUMP JUMPDEST SWAP3 POP SWAP3 SWAP1 POP JUMP JUMPDEST PUSH1 0x0 PUSH1 0x3 DUP3 GT ISZERO PUSH2 0x207B JUMPI DUP2 SWAP1 POP PUSH1 0x0 PUSH1 0x1 PUSH1 0x2 DUP5 PUSH2 0x2033 SWAP2 SWAP1 PUSH2 0x24F8 JUMP JUMPDEST PUSH2 0x203D SWAP2 SWAP1 PUSH2 0x2529 JUMP JUMPDEST SWAP1 POP JUMPDEST DUP2 DUP2 LT ISZERO PUSH2 0x2075 JUMPI DUP1 SWAP2 POP PUSH1 0x2 DUP2 DUP3 DUP6 PUSH2 0x205A SWAP2 SWAP1 PUSH2 0x24F8 JUMP JUMPDEST PUSH2 0x2064 SWAP2 SWAP1 PUSH2 0x2529 JUMP JUMPDEST PUSH2 0x206E SWAP2 SWAP1 PUSH2 0x24F8 JUMP JUMPDEST SWAP1 POP PUSH2 0x2040 JUMP JUMPDEST POP PUSH2 0x2089 JUMP JUMPDEST PUSH1 0x0 DUP3 EQ PUSH2 0x2088 JUMPI PUSH1 0x1 SWAP1 POP JUMPDEST JUMPDEST SWAP2 SWAP1 POP JUMP JUMPDEST PUSH1 0x0 DUP2 DUP4 LT PUSH2 0x209D JUMPI DUP2 PUSH2 0x209F JUMP JUMPDEST DUP3 JUMPDEST SWAP1 POP SWAP3 SWAP2 POP POP JUMP JUMPDEST DUP1 PUSH1 0x4 PUSH1 0x0 DUP5 PUSH20 0xFFFFFFFFFFFFFFFFFFFFFFFFFFFFFFFFFFFFFFFF AND PUSH20 0xFFFFFFFFFFFFFFFFFFFFFFFFFFFFFFFFFFFFFFFF AND DUP2 MSTORE PUSH1 0x20 ADD SWAP1 DUP2 MSTORE PUSH1 0x20 ADD PUSH1 0x0 KECCAK256 PUSH1 0x0 DUP3 DUP3 SLOAD PUSH2 0x20F6 SWAP2 SWAP1 PUSH2 0x25DA JUMP JUMPDEST SWAP3 POP POP DUP2 SWAP1 SSTORE POP DUP1 PUSH1 0x3 PUSH1 0x0 DUP3 DUP3 SLOAD PUSH2 0x210F SWAP2 SWAP1 PUSH2 0x25DA JUMP JUMPDEST SWAP3 POP POP DUP2 SWAP1 SSTORE POP POP POP JUMP JUMPDEST PUSH1 0x0 DUP1 REVERT JUMPDEST PUSH1 0x0 DUP2 SWAP1 POP SWAP2 SWAP1 POP JUMP JUMPDEST PUSH2 0x2132 DUP2 PUSH2 0x211F JUMP JUMPDEST DUP2 EQ PUSH2 0x213D JUMPI PUSH1 0x0 DUP1 REVERT JUMPDEST POP JUMP JUMPDEST PUSH1 0x0 DUP2 CALLDATALOAD SWAP1 POP PUSH2 0x214F DUP2 PUSH2 0x2129 JUMP JUMPDEST SWAP3 SWAP2 POP POP JUMP JUMPDEST PUSH1 0x0 DUP1 PUSH1 0x0 PUSH1 0x60 DUP5 DUP7 SUB SLT ISZERO PUSH2 0x216E JUMPI PUSH2 0x216D PUSH2 0x211A JUMP JUMPDEST JUMPDEST PUSH1 0x0 PUSH2 0x217C DUP7 DUP3 DUP8 ADD PUSH2 0x2140 JUMP JUMPDEST SWAP4 POP POP PUSH1 0x20 PUSH2 0x218D DUP7 DUP3 DUP8 ADD PUSH2 0x2140 JUMP JUMPDEST SWAP3 POP POP PUSH1 0x40 PUSH2 0x219E DUP7 DUP3 DUP8 ADD PUSH2 0x2140 JUMP JUMPDEST SWAP2 POP POP SWAP3 POP SWAP3 POP SWAP3 JUMP JUMPDEST PUSH2 0x21B1 DUP2 PUSH2 0x211F JUMP JUMPDEST DUP3 MSTORE POP POP JUMP JUMPDEST PUSH1 0x0 PUSH1 0x20 DUP3 ADD SWAP1 POP PUSH2 0x21CC PUSH1 0x0 DUP4 ADD DUP5 PUSH2 0x21A8 JUMP JUMPDEST SWAP3 SWAP2 POP POP JUMP JUMPDEST PUSH1 0x0 PUSH20 0xFFFFFFFFFFFFFFFFFFFFFFFFFFFFFFFFFFFFFFFF DUP3 AND SWAP1 POP SWAP2 SWAP1 POP JUMP JUMPDEST PUSH1 0x0 DUP2 SWAP1 POP SWAP2 SWAP1 POP JUMP JUMPDEST PUSH1 0x0 PUSH2 0x2217 PUSH2 0x2212 PUSH2 0x220D DUP5 PUSH2 0x21D2 JUMP JUMPDEST PUSH2 0x21F2 JUMP JUMPDEST PUSH2 0x21D2 JUMP JUMPDEST SWAP1 POP SWAP2 SWAP1 POP JUMP JUMPDEST PUSH1 0x0 PUSH2 0x2229 DUP3 PUSH2 0x21FC JUMP JUMPDEST SWAP1 POP SWAP2 SWAP1 POP JUMP JUMPDEST PUSH1 0x0 PUSH2 0x223B DUP3 PUSH2 0x221E JUMP JUMPDEST SWAP1 POP SWAP2 SWAP1 POP JUMP JUMPDEST PUSH2 0x224B DUP2 PUSH2 0x2230 JUMP JUMPDEST DUP3 MSTORE POP POP JUMP JUMPDEST PUSH1 0x0 PUSH1 0x20 DUP3 ADD SWAP1 POP PUSH2 0x2266 PUSH1 0x0 DUP4 ADD DUP5 PUSH2 0x2242 JUMP JUMPDEST SWAP3 SWAP2 POP POP JUMP JUMPDEST PUSH1 0x0 PUSH1 0x20 DUP3 DUP5 SUB SLT ISZERO PUSH2 0x2282 JUMPI PUSH2 0x2281 PUSH2 0x211A JUMP JUMPDEST JUMPDEST PUSH1 0x0 PUSH2 0x2290 DUP5 DUP3 DUP6 ADD PUSH2 0x2140 JUMP JUMPDEST SWAP2 POP POP SWAP3 SWAP2 POP POP JUMP JUMPDEST PUSH1 0x0 PUSH2 0x22A4 DUP3 PUSH2 0x21D2 JUMP JUMPDEST SWAP1 POP SWAP2 SWAP1 POP JUMP JUMPDEST PUSH2 0x22B4 DUP2 PUSH2 0x2299 JUMP JUMPDEST DUP2 EQ PUSH2 0x22BF JUMPI PUSH1 0x0 DUP1 REVERT JUMPDEST POP JUMP JUMPDEST PUSH1 0x0 DUP2 CALLDATALOAD SWAP1 POP PUSH2 0x22D1 DUP2 PUSH2 0x22AB JUMP JUMPDEST SWAP3 SWAP2 POP POP JUMP JUMPDEST PUSH1 0x0 PUSH1 0x20 DUP3 DUP5 SUB SLT ISZERO PUSH2 0x22ED JUMPI PUSH2 0x22EC PUSH2 0x211A JUMP JUMPDEST JUMPDEST PUSH1 0x0 PUSH2 0x22FB DUP5 DUP3 DUP6 ADD PUSH2 0x22C2 JUMP JUMPDEST SWAP2 POP POP SWAP3 SWAP2 POP POP JUMP JUMPDEST PUSH1 0x0 PUSH1 0x40 DUP3 ADD SWAP1 POP PUSH2 0x2319 PUSH1 0x0 DUP4 ADD DUP6 PUSH2 0x21A8 JUMP JUMPDEST PUSH2 0x2326 PUSH1 0x20 DUP4 ADD DUP5 PUSH2 0x21A8 JUMP JUMPDEST SWAP4 SWAP3 POP POP POP JUMP JUMPDEST PUSH1 0x0 DUP1 PUSH1 0x40 DUP4 DUP6 SUB SLT ISZERO PUSH2 0x2344 JUMPI PUSH2 0x2343 PUSH2 0x211A JUMP JUMPDEST JUMPDEST PUSH1 0x0 PUSH2 0x2352 DUP6 DUP3 DUP7 ADD PUSH2 0x2140 JUMP JUMPDEST SWAP3 POP POP PUSH1 0x20 PUSH2 0x2363 DUP6 DUP3 DUP7 ADD PUSH2 0x2140 JUMP JUMPDEST SWAP2 POP POP SWAP3 POP SWAP3 SWAP1 POP JUMP JUMPDEST PUSH1 0x0 DUP1 PUSH1 0x40 DUP4 DUP6 SUB SLT ISZERO PUSH2 0x2384 JUMPI PUSH2 0x2383 PUSH2 0x211A JUMP JUMPDEST JUMPDEST PUSH1 0x0 PUSH2 0x2392 DUP6 DUP3 DUP7 ADD PUSH2 0x22C2 JUMP JUMPDEST SWAP3 POP POP PUSH1 0x20 PUSH2 0x23A3 DUP6 DUP3 DUP7 ADD PUSH2 0x2140 JUMP JUMPDEST SWAP2 POP POP SWAP3 POP SWAP3 SWAP1 POP JUMP JUMPDEST PUSH2 0x23B6 DUP2 PUSH2 0x2299 JUMP JUMPDEST DUP3 MSTORE POP POP JUMP JUMPDEST PUSH1 0x0 PUSH1 0x60 DUP3 ADD SWAP1 POP PUSH2 0x23D1 PUSH1 0x0 DUP4 ADD DUP7 PUSH2 0x23AD JUMP JUMPDEST PUSH2 0x23DE PUSH1 0x20 DUP4 ADD DUP6 PUSH2 0x23AD JUMP JUMPDEST PUSH2 0x23EB PUSH1 0x40 DUP4 ADD DUP5 PUSH2 0x21A8 JUMP JUMPDEST SWAP5 SWAP4 POP POP POP POP JUMP JUMPDEST PUSH1 0x0 DUP2 ISZERO ISZERO SWAP1 POP SWAP2 SWAP1 POP JUMP JUMPDEST PUSH2 0x2408 DUP2 PUSH2 0x23F3 JUMP JUMPDEST DUP2 EQ PUSH2 0x2413 JUMPI PUSH1 0x0 DUP1 REVERT JUMPDEST POP JUMP JUMPDEST PUSH1 0x0 DUP2 MLOAD SWAP1 POP PUSH2 0x2425 DUP2 PUSH2 0x23FF JUMP JUMPDEST SWAP3 SWAP2 POP POP JUMP JUMPDEST PUSH1 0x0 PUSH1 0x20 DUP3 DUP5 SUB SLT ISZERO PUSH2 0x2441 JUMPI PUSH2 0x2440 PUSH2 0x211A JUMP JUMPDEST JUMPDEST PUSH1 0x0 PUSH2 0x244F DUP5 DUP3 DUP6 ADD PUSH2 0x2416 JUMP JUMPDEST SWAP2 POP POP SWAP3 SWAP2 POP POP JUMP JUMPDEST PUSH32 0x4E487B7100000000000000000000000000000000000000000000000000000000 PUSH1 0x0 MSTORE PUSH1 0x11 PUSH1 0x4 MSTORE PUSH1 0x24 PUSH1 0x0 REVERT JUMPDEST PUSH1 0x0 PUSH2 0x2492 DUP3 PUSH2 0x211F JUMP JUMPDEST SWAP2 POP PUSH2 0x249D DUP4 PUSH2 0x211F JUMP JUMPDEST SWAP3 POP DUP3 DUP3 MUL PUSH2 0x24AB DUP2 PUSH2 0x211F JUMP JUMPDEST SWAP2 POP DUP3 DUP3 DIV DUP5 EQ DUP4 ISZERO OR PUSH2 0x24C2 JUMPI PUSH2 0x24C1 PUSH2 0x2458 JUMP JUMPDEST JUMPDEST POP SWAP3 SWAP2 POP POP JUMP JUMPDEST PUSH32 0x4E487B7100000000000000000000000000000000000000000000000000000000 PUSH1 0x0 MSTORE PUSH1 0x12 PUSH1 0x4 MSTORE PUSH1 0x24 PUSH1 0x0 REVERT JUMPDEST PUSH1 0x0 PUSH2 0x2503 DUP3 PUSH2 0x211F JUMP JUMPDEST SWAP2 POP PUSH2 0x250E DUP4 PUSH2 0x211F JUMP JUMPDEST SWAP3 POP DUP3 PUSH2 0x251E JUMPI PUSH2 0x251D PUSH2 0x24C9 JUMP JUMPDEST JUMPDEST DUP3 DUP3 DIV SWAP1 POP SWAP3 SWAP2 POP POP JUMP JUMPDEST PUSH1 0x0 PUSH2 0x2534 DUP3 PUSH2 0x211F JUMP JUMPDEST SWAP2 POP PUSH2 0x253F DUP4 PUSH2 0x211F JUMP JUMPDEST SWAP3 POP DUP3 DUP3 ADD SWAP1 POP DUP1 DUP3 GT ISZERO PUSH2 0x2557 JUMPI PUSH2 0x2556 PUSH2 0x2458 JUMP JUMPDEST JUMPDEST SWAP3 SWAP2 POP POP JUMP JUMPDEST PUSH1 0x0 DUP3 DUP3 MSTORE PUSH1 0x20 DUP3 ADD SWAP1 POP SWAP3 SWAP2 POP POP JUMP JUMPDEST PUSH32 0x496E73756666696369656E74206F757470757420616D6F756E74000000000000 PUSH1 0x0 DUP3 ADD MSTORE POP JUMP JUMPDEST PUSH1 0x0 PUSH2 0x25A4 PUSH1 0x1A DUP4 PUSH2 0x255D JUMP JUMPDEST SWAP2 POP PUSH2 0x25AF DUP3 PUSH2 0x256E JUMP JUMPDEST PUSH1 0x20 DUP3 ADD SWAP1 POP SWAP2 SWAP1 POP JUMP JUMPDEST PUSH1 0x0 PUSH1 0x20 DUP3 ADD SWAP1 POP DUP2 DUP2 SUB PUSH1 0x0 DUP4 ADD MSTORE PUSH2 0x25D3 DUP2 PUSH2 0x2597 JUMP JUMPDEST SWAP1 POP SWAP2 SWAP1 POP JUMP JUMPDEST PUSH1 0x0 PUSH2 0x25E5 DUP3 PUSH2 0x211F JUMP JUMPDEST SWAP2 POP PUSH2 0x25F0 DUP4 PUSH2 0x211F JUMP JUMPDEST SWAP3 POP DUP3 DUP3 SUB SWAP1 POP DUP2 DUP2 GT ISZERO PUSH2 0x2608 JUMPI PUSH2 0x2607 PUSH2 0x2458 JUMP JUMPDEST JUMPDEST SWAP3 SWAP2 POP POP JUMP JUMPDEST PUSH32 0x536C69704C6F636B000000000000000000000000000000000000000000000000 PUSH1 0x0 DUP3 ADD MSTORE POP JUMP JUMPDEST PUSH1 0x0 PUSH2 0x2644 PUSH1 0x8 DUP4 PUSH2 0x255D JUMP JUMPDEST SWAP2 POP PUSH2 0x264F DUP3 PUSH2 0x260E JUMP JUMPDEST PUSH1 0x20 DUP3 ADD SWAP1 POP SWAP2 SWAP1 POP JUMP JUMPDEST PUSH1 0x0 PUSH1 0x20 DUP3 ADD SWAP1 POP DUP2 DUP2 SUB PUSH1 0x0 DUP4 ADD MSTORE PUSH2 0x2673 DUP2 PUSH2 0x2637 JUMP JUMPDEST SWAP1 POP SWAP2 SWAP1 POP JUMP JUMPDEST PUSH1 0x0 PUSH1 0x40 DUP3 ADD SWAP1 POP PUSH2 0x268F PUSH1 0x0 DUP4 ADD DUP6 PUSH2 0x23AD JUMP JUMPDEST PUSH2 0x269C PUSH1 0x20 DUP4 ADD DUP5 PUSH2 0x21A8 JUMP JUMPDEST SWAP4 SWAP3 POP POP POP JUMP JUMPDEST PUSH1 0x0 PUSH1 0x20 DUP3 ADD SWAP1 POP PUSH2 0x26B8 PUSH1 0x0 DUP4 ADD DUP5 PUSH2 0x23AD JUMP JUMPDEST SWAP3 SWAP2 POP POP JUMP JUMPDEST PUSH1 0x0 DUP2 MLOAD SWAP1 POP PUSH2 0x26CD DUP2 PUSH2 0x2129 JUMP JUMPDEST SWAP3 SWAP2 POP POP JUMP JUMPDEST PUSH1 0x0 PUSH1 0x20 DUP3 DUP5 SUB SLT ISZERO PUSH2 0x26E9 JUMPI PUSH2 0x26E8 PUSH2 0x211A JUMP JUMPDEST JUMPDEST PUSH1 0x0 PUSH2 0x26F7 DUP5 DUP3 DUP6 ADD PUSH2 0x26BE JUMP JUMPDEST SWAP2 POP POP SWAP3 SWAP2 POP POP JUMP JUMPDEST PUSH32 0x496E76616C696420726573657276657300000000000000000000000000000000 PUSH1 0x0 DUP3 ADD MSTORE POP JUMP JUMPDEST PUSH1 0x0 PUSH2 0x2736 PUSH1 0x10 DUP4 PUSH2 0x255D JUMP JUMPDEST SWAP2 POP PUSH2 0x2741 DUP3 PUSH2 0x2700 JUMP JUMPDEST PUSH1 0x20 DUP3 ADD SWAP1 POP SWAP2 SWAP1 POP JUMP JUMPDEST PUSH1 0x0 PUSH1 0x20 DUP3 ADD SWAP1 POP DUP2 DUP2 SUB PUSH1 0x0 DUP4 ADD MSTORE PUSH2 0x2765 DUP2 PUSH2 0x2729 JUMP JUMPDEST SWAP1 POP SWAP2 SWAP1 POP JUMP JUMPDEST PUSH1 0x0 PUSH1 0xFF DUP3 AND SWAP1 POP SWAP2 SWAP1 POP JUMP JUMPDEST PUSH2 0x2782 DUP2 PUSH2 0x276C JUMP JUMPDEST DUP2 EQ PUSH2 0x278D JUMPI PUSH1 0x0 DUP1 REVERT JUMPDEST POP JUMP JUMPDEST PUSH1 0x0 DUP2 MLOAD SWAP1 POP PUSH2 0x279F DUP2 PUSH2 0x2779 JUMP JUMPDEST SWAP3 SWAP2 POP POP JUMP JUMPDEST PUSH1 0x0 PUSH1 0x20 DUP3 DUP5 SUB SLT ISZERO PUSH2 0x27BB JUMPI PUSH2 0x27BA PUSH2 0x211A JUMP JUMPDEST JUMPDEST PUSH1 0x0 PUSH2 0x27C9 DUP5 DUP3 DUP6 ADD PUSH2 0x2790 JUMP JUMPDEST SWAP2 POP POP SWAP3 SWAP2 POP POP JUMP JUMPDEST PUSH1 0x0 DUP2 PUSH1 0x1 SHR SWAP1 POP SWAP2 SWAP1 POP JUMP JUMPDEST PUSH1 0x0 DUP1 DUP3 SWAP2 POP DUP4 SWAP1 POP JUMPDEST PUSH1 0x1 DUP6 GT ISZERO PUSH2 0x2829 JUMPI DUP1 DUP7 DIV DUP2 GT ISZERO PUSH2 0x2805 JUMPI PUSH2 0x2804 PUSH2 0x2458 JUMP JUMPDEST JUMPDEST PUSH1 0x1 DUP6 AND ISZERO PUSH2 0x2814 JUMPI DUP1 DUP3 MUL SWAP2 POP JUMPDEST DUP1 DUP2 MUL SWAP1 POP PUSH2 0x2822 DUP6 PUSH2 0x27D2 JUMP JUMPDEST SWAP5 POP PUSH2 0x27E9 JUMP JUMPDEST SWAP5 POP SWAP5 SWAP3 POP POP POP JUMP JUMPDEST PUSH1 0x0 DUP3 PUSH2 0x2842 JUMPI PUSH1 0x1 SWAP1 POP PUSH2 0x28FE JUMP JUMPDEST DUP2 PUSH2 0x2850 JUMPI PUSH1 0x0 SWAP1 POP PUSH2 0x28FE JUMP JUMPDEST DUP2 PUSH1 0x1 DUP2 EQ PUSH2 0x2866 JUMPI PUSH1 0x2 DUP2 EQ PUSH2 0x2870 JUMPI PUSH2 0x289F JUMP JUMPDEST PUSH1 0x1 SWAP2 POP POP PUSH2 0x28FE JUMP JUMPDEST PUSH1 0xFF DUP5 GT ISZERO PUSH2 0x2882 JUMPI PUSH2 0x2881 PUSH2 0x2458 JUMP JUMPDEST JUMPDEST DUP4 PUSH1 0x2 EXP SWAP2 POP DUP5 DUP3 GT ISZERO PUSH2 0x2899 JUMPI PUSH2 0x2898 PUSH2 0x2458 JUMP JUMPDEST JUMPDEST POP PUSH2 0x28FE JUMP JUMPDEST POP PUSH1 0x20 DUP4 LT PUSH2 0x133 DUP4 LT AND PUSH1 0x4E DUP5 LT PUSH1 0xB DUP5 LT AND OR ISZERO PUSH2 0x28D4 JUMPI DUP3 DUP3 EXP SWAP1 POP DUP4 DUP2 GT ISZERO PUSH2 0x28CF JUMPI PUSH2 0x28CE PUSH2 0x2458 JUMP JUMPDEST JUMPDEST PUSH2 0x28FE JUMP JUMPDEST PUSH2 0x28E1 DUP5 DUP5 DUP5 PUSH1 0x1 PUSH2 0x27DF JUMP JUMPDEST SWAP3 POP SWAP1 POP DUP2 DUP5 DIV DUP2 GT ISZERO PUSH2 0x28F8 JUMPI PUSH2 0x28F7 PUSH2 0x2458 JUMP JUMPDEST JUMPDEST DUP2 DUP2 MUL SWAP1 POP JUMPDEST SWAP4 SWAP3 POP POP POP JUMP JUMPDEST PUSH1 0x0 PUSH2 0x2910 DUP3 PUSH2 0x211F JUMP JUMPDEST SWAP2 POP PUSH2 0x291B DUP4 PUSH2 0x211F JUMP JUMPDEST SWAP3 POP PUSH2 0x2948 PUSH32 0xFFFFFFFFFFFFFFFFFFFFFFFFFFFFFFFFFFFFFFFFFFFFFFFFFFFFFFFFFFFFFFFF DUP5 DUP5 PUSH2 0x2832 JUMP JUMPDEST SWAP1 POP SWAP3 SWAP2 POP POP JUMP JUMPDEST PUSH32 0x496E73756666696369656E742062616C616E6365000000000000000000000000 PUSH1 0x0 DUP3 ADD MSTORE POP JUMP JUMPDEST PUSH1 0x0 PUSH2 0x2986 PUSH1 0x14 DUP4 PUSH2 0x255D JUMP JUMPDEST SWAP2 POP PUSH2 0x2991 DUP3 PUSH2 0x2950 JUMP JUMPDEST PUSH1 0x20 DUP3 ADD SWAP1 POP SWAP2 SWAP1 POP JUMP JUMPDEST PUSH1 0x0 PUSH1 0x20 DUP3 ADD SWAP1 POP DUP2 DUP2 SUB PUSH1 0x0 DUP4 ADD MSTORE PUSH2 0x29B5 DUP2 PUSH2 0x2979 JUMP JUMPDEST SWAP1 POP SWAP2 SWAP1 POP JUMP JUMPDEST PUSH32 0x496E76616C6964206C697175696469747920726174696F000000000000000000 PUSH1 0x0 DUP3 ADD MSTORE POP JUMP JUMPDEST PUSH1 0x0 PUSH2 0x29F2 PUSH1 0x17 DUP4 PUSH2 0x255D JUMP JUMPDEST SWAP2 POP PUSH2 0x29FD DUP3 PUSH2 0x29BC JUMP JUMPDEST PUSH1 0x20 DUP3 ADD SWAP1 POP SWAP2 SWAP1 POP JUMP JUMPDEST PUSH1 0x0 PUSH1 0x20 DUP3 ADD SWAP1 POP DUP2 DUP2 SUB PUSH1 0x0 DUP4 ADD MSTORE PUSH2 0x2A21 DUP2 PUSH2 0x29E5 JUMP JUMPDEST SWAP1 POP SWAP2 SWAP1 POP JUMP JUMPDEST PUSH32 0x736861726573203D203000000000000000000000000000000000000000000000 PUSH1 0x0 DUP3 ADD MSTORE POP JUMP JUMPDEST PUSH1 0x0 PUSH2 0x2A5E PUSH1 0xA DUP4 PUSH2 0x255D JUMP JUMPDEST SWAP2 POP PUSH2 0x2A69 DUP3 PUSH2 0x2A28 JUMP JUMPDEST PUSH1 0x20 DUP3 ADD SWAP1 POP SWAP2 SWAP1 POP JUMP JUMPDEST PUSH1 0x0 PUSH1 0x20 DUP3 ADD SWAP1 POP DUP2 DUP2 SUB PUSH1 0x0 DUP4 ADD MSTORE PUSH2 0x2A8D DUP2 PUSH2 0x2A51 JUMP JUMPDEST SWAP1 POP SWAP2 SWAP1 POP JUMP JUMPDEST PUSH32 0x616D6F756E7430206F7220616D6F756E7431203D203000000000000000000000 PUSH1 0x0 DUP3 ADD MSTORE POP JUMP JUMPDEST PUSH1 0x0 PUSH2 0x2ACA PUSH1 0x16 DUP4 PUSH2 0x255D JUMP JUMPDEST SWAP2 POP PUSH2 0x2AD5 DUP3 PUSH2 0x2A94 JUMP JUMPDEST PUSH1 0x20 DUP3 ADD SWAP1 POP SWAP2 SWAP1 POP JUMP JUMPDEST PUSH1 0x0 PUSH1 0x20 DUP3 ADD SWAP1 POP DUP2 DUP2 SUB PUSH1 0x0 DUP4 ADD MSTORE PUSH2 0x2AF9 DUP2 PUSH2 0x2ABD JUMP JUMPDEST SWAP1 POP SWAP2 SWAP1 POP JUMP INVALID LOG2 PUSH5 0x6970667358 0x22 SLT KECCAK256 0x1F PUSH15 0x60E6EC73BED8892B739EB33BB7073A ORIGIN RETURNDATASIZE LOG4 0xAC PUSH13 0x590ADD6EA4F5AA74321264736F PUSH13 0x63430008120033000000000000 "
				},
				"gasEstimates": {
					"creation": {
						"codeDepositCost": "2212400",
						"executionCost": "infinite",
						"totalCost": "infinite"
					},
					"external": {
						"addLiquidity(uint256,uint256)": "infinite",
						"balanceOf(address)": "2903",
						"getInToken0PredictOutputToken1(uint256)": "infinite",
						"getInToken1PredictOutputToken0(uint256)": "infinite",
						"getToken0Price()": "infinite",
						"getToken1Price()": "infinite",
						"myShares()": "2637",
						"removeAllLiquidity(address)": "infinite",
						"removeLiquidity(address,uint256)": "infinite",
						"removeLiquidity(uint256)": "infinite",
						"reserve0()": "2541",
						"reserve1()": "2474",
						"sharesOf(address)": "2951",
						"swapToken0ForToken1(uint256)": "infinite",
						"swapToken0ForToken1_WithSlipLock(uint256,uint256,uint256)": "infinite",
						"swapToken1ForToken0(uint256)": "infinite",
						"swapToken1ForToken0_WithSlipLock(uint256,uint256,uint256)": "infinite",
						"token0()": "infinite",
						"token1()": "infinite",
						"totalSupply()": "2497"
					},
					"internal": {
						"_burn(address,uint256)": "infinite",
						"_mint(address,uint256)": "infinite",
						"_removeLiquidity(address,uint256)": "infinite",
						"_sqrt(uint256)": "infinite",
						"_update(uint256,uint256)": "44241"
					}
				},
				"methodIdentifiers": {
					"addLiquidity(uint256,uint256)": "9cd441da",
					"balanceOf(address)": "70a08231",
					"getInToken0PredictOutputToken1(uint256)": "296adcbb",
					"getInToken1PredictOutputToken0(uint256)": "69931ebb",
					"getToken0Price()": "4d7ca8ae",
					"getToken1Price()": "c4451e3e",
					"myShares()": "9e7a4757",
					"removeAllLiquidity(address)": "7a6a5e1b",
					"removeLiquidity(address,uint256)": "a201ccf6",
					"removeLiquidity(uint256)": "9c8f9f23",
					"reserve0()": "443cb4bc",
					"reserve1()": "5a76f25e",
					"sharesOf(address)": "f5eb42dc",
					"swapToken0ForToken1(uint256)": "7d77f10e",
					"swapToken0ForToken1_WithSlipLock(uint256,uint256,uint256)": "a064385a",
					"swapToken1ForToken0(uint256)": "86f8df89",
					"swapToken1ForToken0_WithSlipLock(uint256,uint256,uint256)": "036ff281",
					"token0()": "0dfe1681",
					"token1()": "d21220a7",
					"totalSupply()": "18160ddd"
				}
			},
			"storageLayout": {
				"storage": [
					{
						"astId": 1583,
						"contract": "W6/simpleAMM/src/simpleAMMV6ERC.sol:AMM",
						"label": "developer",
						"offset": 0,
						"slot": "0",
						"type": "t_address"
					},
					{
						"astId": 1591,
						"contract": "W6/simpleAMM/src/simpleAMMV6ERC.sol:AMM",
						"label": "reserve0",
						"offset": 0,
						"slot": "1",
						"type": "t_uint256"
					},
					{
						"astId": 1593,
						"contract": "W6/simpleAMM/src/simpleAMMV6ERC.sol:AMM",
						"label": "reserve1",
						"offset": 0,
						"slot": "2",
						"type": "t_uint256"
					},
					{
						"astId": 1595,
						"contract": "W6/simpleAMM/src/simpleAMMV6ERC.sol:AMM",
						"label": "totalSupply",
						"offset": 0,
						"slot": "3",
						"type": "t_uint256"
					},
					{
						"astId": 1599,
						"contract": "W6/simpleAMM/src/simpleAMMV6ERC.sol:AMM",
						"label": "balanceOf",
						"offset": 0,
						"slot": "4",
						"type": "t_mapping(t_address,t_uint256)"
					}
				],
				"types": {
					"t_address": {
						"encoding": "inplace",
						"label": "address",
						"numberOfBytes": "20"
					},
					"t_mapping(t_address,t_uint256)": {
						"encoding": "mapping",
						"key": "t_address",
						"label": "mapping(address => uint256)",
						"numberOfBytes": "32",
						"value": "t_uint256"
					},
					"t_uint256": {
						"encoding": "inplace",
						"label": "uint256",
						"numberOfBytes": "32"
					}
				}
			},
			"userdoc": {
				"kind": "user",
				"methods": {},
				"version": 1
			}
		}
	}
}