{
	"W6/simpleAMM/src/simpleAMMV6ERC.sol": {
		"AMM": {
			"abi": [
				{
					"inputs": [
						{
							"internalType": "address",
							"name": "_token0",
							"type": "address"
						},
						{
							"internalType": "address",
							"name": "_token1",
							"type": "address"
						}
					],
					"stateMutability": "nonpayable",
					"type": "constructor"
				},
				{
					"inputs": [
						{
							"internalType": "uint256",
							"name": "_amount0",
							"type": "uint256"
						},
						{
							"internalType": "uint256",
							"name": "_amount1",
							"type": "uint256"
						}
					],
					"name": "addLiquidity",
					"outputs": [
						{
							"internalType": "uint256",
							"name": "shares",
							"type": "uint256"
						}
					],
					"stateMutability": "nonpayable",
					"type": "function"
				},
				{
					"inputs": [
						{
							"internalType": "address",
							"name": "",
							"type": "address"
						}
					],
					"name": "balanceOf",
					"outputs": [
						{
							"internalType": "uint256",
							"name": "",
							"type": "uint256"
						}
					],
					"stateMutability": "view",
					"type": "function"
				},
				{
					"inputs": [],
					"name": "getERCPrice",
					"outputs": [
						{
							"internalType": "uint256",
							"name": "",
							"type": "uint256"
						}
					],
					"stateMutability": "view",
					"type": "function"
				},
				{
					"inputs": [
						{
							"internalType": "uint256",
							"name": "_amount",
							"type": "uint256"
						}
					],
					"name": "getPredictOutputToken0",
					"outputs": [
						{
							"internalType": "uint256",
							"name": "",
							"type": "uint256"
						}
					],
					"stateMutability": "view",
					"type": "function"
				},
				{
					"inputs": [
						{
							"internalType": "uint256",
							"name": "_amount",
							"type": "uint256"
						}
					],
					"name": "getPredictOutputToken1",
					"outputs": [
						{
							"internalType": "uint256",
							"name": "",
							"type": "uint256"
						}
					],
					"stateMutability": "view",
					"type": "function"
				},
				{
					"inputs": [],
					"name": "myShares",
					"outputs": [
						{
							"internalType": "uint256",
							"name": "",
							"type": "uint256"
						}
					],
					"stateMutability": "view",
					"type": "function"
				},
				{
					"inputs": [
						{
							"internalType": "address",
							"name": "_user",
							"type": "address"
						}
					],
					"name": "removeAllLiquidity",
					"outputs": [
						{
							"internalType": "uint256",
							"name": "amount0",
							"type": "uint256"
						},
						{
							"internalType": "uint256",
							"name": "amount1",
							"type": "uint256"
						}
					],
					"stateMutability": "nonpayable",
					"type": "function"
				},
				{
					"inputs": [
						{
							"internalType": "uint256",
							"name": "_shares",
							"type": "uint256"
						}
					],
					"name": "removeLiquidity",
					"outputs": [
						{
							"internalType": "uint256",
							"name": "amount0",
							"type": "uint256"
						},
						{
							"internalType": "uint256",
							"name": "amount1",
							"type": "uint256"
						}
					],
					"stateMutability": "nonpayable",
					"type": "function"
				},
				{
					"inputs": [
						{
							"internalType": "address",
							"name": "_user",
							"type": "address"
						},
						{
							"internalType": "uint256",
							"name": "_shares",
							"type": "uint256"
						}
					],
					"name": "removeLiquidity",
					"outputs": [
						{
							"internalType": "uint256",
							"name": "amount0",
							"type": "uint256"
						},
						{
							"internalType": "uint256",
							"name": "amount1",
							"type": "uint256"
						}
					],
					"stateMutability": "nonpayable",
					"type": "function"
				},
				{
					"inputs": [],
					"name": "reserve0",
					"outputs": [
						{
							"internalType": "uint256",
							"name": "",
							"type": "uint256"
						}
					],
					"stateMutability": "view",
					"type": "function"
				},
				{
					"inputs": [],
					"name": "reserve1",
					"outputs": [
						{
							"internalType": "uint256",
							"name": "",
							"type": "uint256"
						}
					],
					"stateMutability": "view",
					"type": "function"
				},
				{
					"inputs": [
						{
							"internalType": "address",
							"name": "_user",
							"type": "address"
						}
					],
					"name": "sharesOf",
					"outputs": [
						{
							"internalType": "uint256",
							"name": "",
							"type": "uint256"
						}
					],
					"stateMutability": "view",
					"type": "function"
				},
				{
					"inputs": [
						{
							"internalType": "uint256",
							"name": "_amountIn",
							"type": "uint256"
						}
					],
					"name": "swap",
					"outputs": [
						{
							"internalType": "uint256",
							"name": "amountOut",
							"type": "uint256"
						}
					],
					"stateMutability": "nonpayable",
					"type": "function"
				},
				{
					"inputs": [
						{
							"internalType": "uint256",
							"name": "_amountIn",
							"type": "uint256"
						}
					],
					"name": "swapTokenForToken1",
					"outputs": [
						{
							"internalType": "uint256",
							"name": "amountOut",
							"type": "uint256"
						}
					],
					"stateMutability": "nonpayable",
					"type": "function"
				},
				{
					"inputs": [
						{
							"internalType": "uint256",
							"name": "_amountIn",
							"type": "uint256"
						},
						{
							"internalType": "uint256",
							"name": "_forwardOutput",
							"type": "uint256"
						},
						{
							"internalType": "uint256",
							"name": "_slipLock",
							"type": "uint256"
						}
					],
					"name": "swapTokenForToken1_WithSlipLock",
					"outputs": [
						{
							"internalType": "uint256",
							"name": "amountOut",
							"type": "uint256"
						}
					],
					"stateMutability": "nonpayable",
					"type": "function"
				},
				{
					"inputs": [
						{
							"internalType": "uint256",
							"name": "_amountIn",
							"type": "uint256"
						},
						{
							"internalType": "uint256",
							"name": "_forwardOutput",
							"type": "uint256"
						},
						{
							"internalType": "uint256",
							"name": "_slipLock",
							"type": "uint256"
						}
					],
					"name": "swap_WithSlipLock",
					"outputs": [
						{
							"internalType": "uint256",
							"name": "amountOut",
							"type": "uint256"
						}
					],
					"stateMutability": "nonpayable",
					"type": "function"
				},
				{
					"inputs": [],
					"name": "token0",
					"outputs": [
						{
							"internalType": "contract IERC20",
							"name": "",
							"type": "address"
						}
					],
					"stateMutability": "view",
					"type": "function"
				},
				{
					"inputs": [],
					"name": "token1",
					"outputs": [
						{
							"internalType": "contract IERC20",
							"name": "",
							"type": "address"
						}
					],
					"stateMutability": "view",
					"type": "function"
				},
				{
					"inputs": [],
					"name": "totalSupply",
					"outputs": [
						{
							"internalType": "uint256",
							"name": "",
							"type": "uint256"
						}
					],
					"stateMutability": "view",
					"type": "function"
				}
			],
			"devdoc": {
				"kind": "dev",
				"methods": {},
				"version": 1
			},
			"evm": {
				"assembly": "    /* \"W6/simpleAMM/src/simpleAMMV6ERC.sol\":283:7579  contract AMM {... */\n  mstore(0x40, 0xc0)\n    /* \"W6/simpleAMM/src/simpleAMMV6ERC.sol\":553:710  constructor(address _token0, address _token1) {... */\n  callvalue\n  dup1\n  iszero\n  tag_1\n  jumpi\n  0x00\n  dup1\n  revert\ntag_1:\n  pop\n  mload(0x40)\n  sub(codesize, bytecodeSize)\n  dup1\n  bytecodeSize\n  dup4\n  codecopy\n  dup2\n  dup2\n  add\n  0x40\n  mstore\n  dup2\n  add\n  swap1\n  tag_2\n  swap2\n  swap1\n  tag_3\n  jump\t// in\ntag_2:\n    /* \"W6/simpleAMM/src/simpleAMMV6ERC.sol\":622:632  msg.sender */\n  caller\n    /* \"W6/simpleAMM/src/simpleAMMV6ERC.sol\":610:619  developer */\n  0x00\n  dup1\n    /* \"W6/simpleAMM/src/simpleAMMV6ERC.sol\":610:632  developer = msg.sender */\n  0x0100\n  exp\n  dup2\n  sload\n  dup2\n  0xffffffffffffffffffffffffffffffffffffffff\n  mul\n  not\n  and\n  swap1\n  dup4\n  0xffffffffffffffffffffffffffffffffffffffff\n  and\n  mul\n  or\n  swap1\n  sstore\n  pop\n    /* \"W6/simpleAMM/src/simpleAMMV6ERC.sol\":659:666  _token0 */\n  dup2\n    /* \"W6/simpleAMM/src/simpleAMMV6ERC.sol\":643:667  token0 = IERC20(_token0) */\n  0xffffffffffffffffffffffffffffffffffffffff\n  and\n  0x80\n  dup2\n  0xffffffffffffffffffffffffffffffffffffffff\n  and\n  dup2\n  mstore\n  pop\n  pop\n    /* \"W6/simpleAMM/src/simpleAMMV6ERC.sol\":694:701  _token1 */\n  dup1\n    /* \"W6/simpleAMM/src/simpleAMMV6ERC.sol\":678:702  token1 = IERC20(_token1) */\n  0xffffffffffffffffffffffffffffffffffffffff\n  and\n  0xa0\n  dup2\n  0xffffffffffffffffffffffffffffffffffffffff\n  and\n  dup2\n  mstore\n  pop\n  pop\n    /* \"W6/simpleAMM/src/simpleAMMV6ERC.sol\":553:710  constructor(address _token0, address _token1) {... */\n  pop\n  pop\n    /* \"W6/simpleAMM/src/simpleAMMV6ERC.sol\":283:7579  contract AMM {... */\n  jump(tag_6)\n    /* \"#utility.yul\":88:205   */\ntag_8:\n    /* \"#utility.yul\":197:198   */\n  0x00\n    /* \"#utility.yul\":194:195   */\n  dup1\n    /* \"#utility.yul\":187:199   */\n  revert\n    /* \"#utility.yul\":334:460   */\ntag_10:\n    /* \"#utility.yul\":371:378   */\n  0x00\n    /* \"#utility.yul\":411:453   */\n  0xffffffffffffffffffffffffffffffffffffffff\n    /* \"#utility.yul\":404:409   */\n  dup3\n    /* \"#utility.yul\":400:454   */\n  and\n    /* \"#utility.yul\":389:454   */\n  swap1\n  pop\n    /* \"#utility.yul\":334:460   */\n  swap2\n  swap1\n  pop\n  jump\t// out\n    /* \"#utility.yul\":466:562   */\ntag_11:\n    /* \"#utility.yul\":503:510   */\n  0x00\n    /* \"#utility.yul\":532:556   */\n  tag_20\n    /* \"#utility.yul\":550:555   */\n  dup3\n    /* \"#utility.yul\":532:556   */\n  tag_10\n  jump\t// in\ntag_20:\n    /* \"#utility.yul\":521:556   */\n  swap1\n  pop\n    /* \"#utility.yul\":466:562   */\n  swap2\n  swap1\n  pop\n  jump\t// out\n    /* \"#utility.yul\":568:690   */\ntag_12:\n    /* \"#utility.yul\":641:665   */\n  tag_22\n    /* \"#utility.yul\":659:664   */\n  dup2\n    /* \"#utility.yul\":641:665   */\n  tag_11\n  jump\t// in\ntag_22:\n    /* \"#utility.yul\":634:639   */\n  dup2\n    /* \"#utility.yul\":631:666   */\n  eq\n    /* \"#utility.yul\":621:684   */\n  tag_23\n  jumpi\n    /* \"#utility.yul\":680:681   */\n  0x00\n    /* \"#utility.yul\":677:678   */\n  dup1\n    /* \"#utility.yul\":670:682   */\n  revert\n    /* \"#utility.yul\":621:684   */\ntag_23:\n    /* \"#utility.yul\":568:690   */\n  pop\n  jump\t// out\n    /* \"#utility.yul\":696:839   */\ntag_13:\n    /* \"#utility.yul\":753:758   */\n  0x00\n    /* \"#utility.yul\":784:790   */\n  dup2\n    /* \"#utility.yul\":778:791   */\n  mload\n    /* \"#utility.yul\":769:791   */\n  swap1\n  pop\n    /* \"#utility.yul\":800:833   */\n  tag_25\n    /* \"#utility.yul\":827:832   */\n  dup2\n    /* \"#utility.yul\":800:833   */\n  tag_12\n  jump\t// in\ntag_25:\n    /* \"#utility.yul\":696:839   */\n  swap3\n  swap2\n  pop\n  pop\n  jump\t// out\n    /* \"#utility.yul\":845:1352   */\ntag_3:\n    /* \"#utility.yul\":924:930   */\n  0x00\n    /* \"#utility.yul\":932:938   */\n  dup1\n    /* \"#utility.yul\":981:983   */\n  0x40\n    /* \"#utility.yul\":969:978   */\n  dup4\n    /* \"#utility.yul\":960:967   */\n  dup6\n    /* \"#utility.yul\":956:979   */\n  sub\n    /* \"#utility.yul\":952:984   */\n  slt\n    /* \"#utility.yul\":949:1068   */\n  iszero\n  tag_27\n  jumpi\n    /* \"#utility.yul\":987:1066   */\n  tag_28\n  tag_8\n  jump\t// in\ntag_28:\n    /* \"#utility.yul\":949:1068   */\ntag_27:\n    /* \"#utility.yul\":1107:1108   */\n  0x00\n    /* \"#utility.yul\":1132:1196   */\n  tag_29\n    /* \"#utility.yul\":1188:1195   */\n  dup6\n    /* \"#utility.yul\":1179:1185   */\n  dup3\n    /* \"#utility.yul\":1168:1177   */\n  dup7\n    /* \"#utility.yul\":1164:1186   */\n  add\n    /* \"#utility.yul\":1132:1196   */\n  tag_13\n  jump\t// in\ntag_29:\n    /* \"#utility.yul\":1122:1196   */\n  swap3\n  pop\n    /* \"#utility.yul\":1078:1206   */\n  pop\n    /* \"#utility.yul\":1245:1247   */\n  0x20\n    /* \"#utility.yul\":1271:1335   */\n  tag_30\n    /* \"#utility.yul\":1327:1334   */\n  dup6\n    /* \"#utility.yul\":1318:1324   */\n  dup3\n    /* \"#utility.yul\":1307:1316   */\n  dup7\n    /* \"#utility.yul\":1303:1325   */\n  add\n    /* \"#utility.yul\":1271:1335   */\n  tag_13\n  jump\t// in\ntag_30:\n    /* \"#utility.yul\":1261:1335   */\n  swap2\n  pop\n    /* \"#utility.yul\":1216:1345   */\n  pop\n    /* \"#utility.yul\":845:1352   */\n  swap3\n  pop\n  swap3\n  swap1\n  pop\n  jump\t// out\n    /* \"W6/simpleAMM/src/simpleAMMV6ERC.sol\":283:7579  contract AMM {... */\ntag_6:\n  mload(0x80)\n  mload(0xa0)\n  codecopy(0x00, dataOffset(sub_0), dataSize(sub_0))\n  0x00\n  assignImmutable(\"0x4bab0814faad1725fc18a3cfa3a1fcb95c36a46cacb7a7312c3d38e6b447adac\")\n  0x00\n  assignImmutable(\"0xe9ec5ebbfe521ba5a70e4c2b13332e74dda4e055153dc29723307e62e8ed0f2a\")\n  return(0x00, dataSize(sub_0))\nstop\n\nsub_0: assembly {\n        /* \"W6/simpleAMM/src/simpleAMMV6ERC.sol\":283:7579  contract AMM {... */\n      mstore(0x40, 0x80)\n      callvalue\n      dup1\n      iszero\n      tag_1\n      jumpi\n      0x00\n      dup1\n      revert\n    tag_1:\n      pop\n      jumpi(tag_2, lt(calldatasize, 0x04))\n      shr(0xe0, calldataload(0x00))\n      dup1\n      0x94b918de\n      gt\n      tag_22\n      jumpi\n      dup1\n      0xa201ccf6\n      gt\n      tag_23\n      jumpi\n      dup1\n      0xa201ccf6\n      eq\n      tag_17\n      jumpi\n      dup1\n      0xc9f4437e\n      eq\n      tag_18\n      jumpi\n      dup1\n      0xd21220a7\n      eq\n      tag_19\n      jumpi\n      dup1\n      0xf5eb42dc\n      eq\n      tag_20\n      jumpi\n      dup1\n      0xfcc2ba08\n      eq\n      tag_21\n      jumpi\n      jump(tag_2)\n    tag_23:\n      dup1\n      0x94b918de\n      eq\n      tag_12\n      jumpi\n      dup1\n      0x9c1e5375\n      eq\n      tag_13\n      jumpi\n      dup1\n      0x9c8f9f23\n      eq\n      tag_14\n      jumpi\n      dup1\n      0x9cd441da\n      eq\n      tag_15\n      jumpi\n      dup1\n      0x9e7a4757\n      eq\n      tag_16\n      jumpi\n      jump(tag_2)\n    tag_22:\n      dup1\n      0x4d7d1598\n      gt\n      tag_24\n      jumpi\n      dup1\n      0x4d7d1598\n      eq\n      tag_7\n      jumpi\n      dup1\n      0x5a76f25e\n      eq\n      tag_8\n      jumpi\n      dup1\n      0x62279b65\n      eq\n      tag_9\n      jumpi\n      dup1\n      0x70a08231\n      eq\n      tag_10\n      jumpi\n      dup1\n      0x7a6a5e1b\n      eq\n      tag_11\n      jumpi\n      jump(tag_2)\n    tag_24:\n      dup1\n      0x0dfe1681\n      eq\n      tag_3\n      jumpi\n      dup1\n      0x18160ddd\n      eq\n      tag_4\n      jumpi\n      dup1\n      0x443cb4bc\n      eq\n      tag_5\n      jumpi\n      dup1\n      0x46765bdc\n      eq\n      tag_6\n      jumpi\n    tag_2:\n      0x00\n      dup1\n      revert\n        /* \"W6/simpleAMM/src/simpleAMMV6ERC.sol\":329:359  IERC20 public immutable token0 */\n    tag_3:\n      tag_25\n      tag_26\n      jump\t// in\n    tag_25:\n      mload(0x40)\n      tag_27\n      swap2\n      swap1\n      tag_28\n      jump\t// in\n    tag_27:\n      mload(0x40)\n      dup1\n      swap2\n      sub\n      swap1\n      return\n        /* \"W6/simpleAMM/src/simpleAMMV6ERC.sol\":467:493  uint256 public totalSupply */\n    tag_4:\n      tag_29\n      tag_30\n      jump\t// in\n    tag_29:\n      mload(0x40)\n      tag_31\n      swap2\n      swap1\n      tag_32\n      jump\t// in\n    tag_31:\n      mload(0x40)\n      dup1\n      swap2\n      sub\n      swap1\n      return\n        /* \"W6/simpleAMM/src/simpleAMMV6ERC.sol\":405:428  uint256 public reserve0 */\n    tag_5:\n      tag_33\n      tag_34\n      jump\t// in\n    tag_33:\n      mload(0x40)\n      tag_35\n      swap2\n      swap1\n      tag_32\n      jump\t// in\n    tag_35:\n      mload(0x40)\n      dup1\n      swap2\n      sub\n      swap1\n      return\n        /* \"W6/simpleAMM/src/simpleAMMV6ERC.sol\":1731:2392  function swapTokenForToken1(uint256 _amountIn) public returns (uint256 amountOut) {... */\n    tag_6:\n      tag_36\n      0x04\n      dup1\n      calldatasize\n      sub\n      dup2\n      add\n      swap1\n      tag_37\n      swap2\n      swap1\n      tag_38\n      jump\t// in\n    tag_37:\n      tag_39\n      jump\t// in\n    tag_36:\n      mload(0x40)\n      tag_40\n      swap2\n      swap1\n      tag_32\n      jump\t// in\n    tag_40:\n      mload(0x40)\n      dup1\n      swap2\n      sub\n      swap1\n      return\n        /* \"W6/simpleAMM/src/simpleAMMV6ERC.sol\":6956:7262  function getPredictOutputToken1(uint256 _amount) public view returns (uint256) {... */\n    tag_7:\n      tag_41\n      0x04\n      dup1\n      calldatasize\n      sub\n      dup2\n      add\n      swap1\n      tag_42\n      swap2\n      swap1\n      tag_38\n      jump\t// in\n    tag_42:\n      tag_43\n      jump\t// in\n    tag_41:\n      mload(0x40)\n      tag_44\n      swap2\n      swap1\n      tag_32\n      jump\t// in\n    tag_44:\n      mload(0x40)\n      dup1\n      swap2\n      sub\n      swap1\n      return\n        /* \"W6/simpleAMM/src/simpleAMMV6ERC.sol\":435:458  uint256 public reserve1 */\n    tag_8:\n      tag_45\n      tag_46\n      jump\t// in\n    tag_45:\n      mload(0x40)\n      tag_47\n      swap2\n      swap1\n      tag_32\n      jump\t// in\n    tag_47:\n      mload(0x40)\n      dup1\n      swap2\n      sub\n      swap1\n      return\n        /* \"W6/simpleAMM/src/simpleAMMV6ERC.sol\":2400:3224  function swap_WithSlipLock(... */\n    tag_9:\n      tag_48\n      0x04\n      dup1\n      calldatasize\n      sub\n      dup2\n      add\n      swap1\n      tag_49\n      swap2\n      swap1\n      tag_50\n      jump\t// in\n    tag_49:\n      tag_51\n      jump\t// in\n    tag_48:\n      mload(0x40)\n      tag_52\n      swap2\n      swap1\n      tag_32\n      jump\t// in\n    tag_52:\n      mload(0x40)\n      dup1\n      swap2\n      sub\n      swap1\n      return\n        /* \"W6/simpleAMM/src/simpleAMMV6ERC.sol\":500:544  mapping(address => uint256) public balanceOf */\n    tag_10:\n      tag_53\n      0x04\n      dup1\n      calldatasize\n      sub\n      dup2\n      add\n      swap1\n      tag_54\n      swap2\n      swap1\n      tag_55\n      jump\t// in\n    tag_54:\n      tag_56\n      jump\t// in\n    tag_53:\n      mload(0x40)\n      tag_57\n      swap2\n      swap1\n      tag_32\n      jump\t// in\n    tag_57:\n      mload(0x40)\n      dup1\n      swap2\n      sub\n      swap1\n      return\n        /* \"W6/simpleAMM/src/simpleAMMV6ERC.sol\":4910:5072  function removeAllLiquidity(address _user) external returns (uint256 amount0, uint256 amount1) {... */\n    tag_11:\n      tag_58\n      0x04\n      dup1\n      calldatasize\n      sub\n      dup2\n      add\n      swap1\n      tag_59\n      swap2\n      swap1\n      tag_55\n      jump\t// in\n    tag_59:\n      tag_60\n      jump\t// in\n    tag_58:\n      mload(0x40)\n      tag_61\n      swap3\n      swap2\n      swap1\n      tag_62\n      jump\t// in\n    tag_61:\n      mload(0x40)\n      dup1\n      swap2\n      sub\n      swap1\n      return\n        /* \"W6/simpleAMM/src/simpleAMMV6ERC.sol\":1139:1723  function swap(uint256 _amountIn) public returns (uint256 amountOut) {... */\n    tag_12:\n      tag_63\n      0x04\n      dup1\n      calldatasize\n      sub\n      dup2\n      add\n      swap1\n      tag_64\n      swap2\n      swap1\n      tag_38\n      jump\t// in\n    tag_64:\n      tag_65\n      jump\t// in\n    tag_63:\n      mload(0x40)\n      tag_66\n      swap2\n      swap1\n      tag_32\n      jump\t// in\n    tag_66:\n      mload(0x40)\n      dup1\n      swap2\n      sub\n      swap1\n      return\n        /* \"W6/simpleAMM/src/simpleAMMV6ERC.sol\":7270:7576  function getPredictOutputToken0(uint256 _amount) public view returns (uint256) {... */\n    tag_13:\n      tag_67\n      0x04\n      dup1\n      calldatasize\n      sub\n      dup2\n      add\n      swap1\n      tag_68\n      swap2\n      swap1\n      tag_38\n      jump\t// in\n    tag_68:\n      tag_69\n      jump\t// in\n    tag_67:\n      mload(0x40)\n      tag_70\n      swap2\n      swap1\n      tag_32\n      jump\t// in\n    tag_70:\n      mload(0x40)\n      dup1\n      swap2\n      sub\n      swap1\n      return\n        /* \"W6/simpleAMM/src/simpleAMMV6ERC.sol\":5080:5313  function removeLiquidity(uint256 _shares) external returns (uint256 amount0, uint256 amount1) {... */\n    tag_14:\n      tag_71\n      0x04\n      dup1\n      calldatasize\n      sub\n      dup2\n      add\n      swap1\n      tag_72\n      swap2\n      swap1\n      tag_38\n      jump\t// in\n    tag_72:\n      tag_73\n      jump\t// in\n    tag_71:\n      mload(0x40)\n      tag_74\n      swap3\n      swap2\n      swap1\n      tag_62\n      jump\t// in\n    tag_74:\n      mload(0x40)\n      dup1\n      swap2\n      sub\n      swap1\n      return\n        /* \"W6/simpleAMM/src/simpleAMMV6ERC.sol\":4080:4902  function addLiquidity(uint256 _amount0, uint256 _amount1) external returns (uint256 shares) {... */\n    tag_15:\n      tag_75\n      0x04\n      dup1\n      calldatasize\n      sub\n      dup2\n      add\n      swap1\n      tag_76\n      swap2\n      swap1\n      tag_77\n      jump\t// in\n    tag_76:\n      tag_78\n      jump\t// in\n    tag_75:\n      mload(0x40)\n      tag_79\n      swap2\n      swap1\n      tag_32\n      jump\t// in\n    tag_79:\n      mload(0x40)\n      dup1\n      swap2\n      sub\n      swap1\n      return\n        /* \"W6/simpleAMM/src/simpleAMMV6ERC.sol\":6079:6176  function myShares() public view returns (uint256) {... */\n    tag_16:\n      tag_80\n      tag_81\n      jump\t// in\n    tag_80:\n      mload(0x40)\n      tag_82\n      swap2\n      swap1\n      tag_32\n      jump\t// in\n    tag_82:\n      mload(0x40)\n      dup1\n      swap2\n      sub\n      swap1\n      return\n        /* \"W6/simpleAMM/src/simpleAMMV6ERC.sol\":5321:5559  function removeLiquidity(address _user, uint256 _shares) external returns (uint256 amount0, uint256 amount1) {... */\n    tag_17:\n      tag_83\n      0x04\n      dup1\n      calldatasize\n      sub\n      dup2\n      add\n      swap1\n      tag_84\n      swap2\n      swap1\n      tag_85\n      jump\t// in\n    tag_84:\n      tag_86\n      jump\t// in\n    tag_83:\n      mload(0x40)\n      tag_87\n      swap3\n      swap2\n      swap1\n      tag_62\n      jump\t// in\n    tag_87:\n      mload(0x40)\n      dup1\n      swap2\n      sub\n      swap1\n      return\n        /* \"W6/simpleAMM/src/simpleAMMV6ERC.sol\":3230:4072  function swapTokenForToken1_WithSlipLock(... */\n    tag_18:\n      tag_88\n      0x04\n      dup1\n      calldatasize\n      sub\n      dup2\n      add\n      swap1\n      tag_89\n      swap2\n      swap1\n      tag_50\n      jump\t// in\n    tag_89:\n      tag_90\n      jump\t// in\n    tag_88:\n      mload(0x40)\n      tag_91\n      swap2\n      swap1\n      tag_32\n      jump\t// in\n    tag_91:\n      mload(0x40)\n      dup1\n      swap2\n      sub\n      swap1\n      return\n        /* \"W6/simpleAMM/src/simpleAMMV6ERC.sol\":366:396  IERC20 public immutable token1 */\n    tag_19:\n      tag_92\n      tag_93\n      jump\t// in\n    tag_92:\n      mload(0x40)\n      tag_94\n      swap2\n      swap1\n      tag_28\n      jump\t// in\n    tag_94:\n      mload(0x40)\n      dup1\n      swap2\n      sub\n      swap1\n      return\n        /* \"W6/simpleAMM/src/simpleAMMV6ERC.sol\":6182:6287  function sharesOf(address _user) public view returns (uint256) {... */\n    tag_20:\n      tag_95\n      0x04\n      dup1\n      calldatasize\n      sub\n      dup2\n      add\n      swap1\n      tag_96\n      swap2\n      swap1\n      tag_55\n      jump\t// in\n    tag_96:\n      tag_97\n      jump\t// in\n    tag_95:\n      mload(0x40)\n      tag_98\n      swap2\n      swap1\n      tag_32\n      jump\t// in\n    tag_98:\n      mload(0x40)\n      dup1\n      swap2\n      sub\n      swap1\n      return\n        /* \"W6/simpleAMM/src/simpleAMMV6ERC.sol\":6614:6948  function getERCPrice() public view returns (uint256) {... */\n    tag_21:\n      tag_99\n      tag_100\n      jump\t// in\n    tag_99:\n      mload(0x40)\n      tag_101\n      swap2\n      swap1\n      tag_32\n      jump\t// in\n    tag_101:\n      mload(0x40)\n      dup1\n      swap2\n      sub\n      swap1\n      return\n        /* \"W6/simpleAMM/src/simpleAMMV6ERC.sol\":329:359  IERC20 public immutable token0 */\n    tag_26:\n      immutable(\"0xe9ec5ebbfe521ba5a70e4c2b13332e74dda4e055153dc29723307e62e8ed0f2a\")\n      dup2\n      jump\t// out\n        /* \"W6/simpleAMM/src/simpleAMMV6ERC.sol\":467:493  uint256 public totalSupply */\n    tag_30:\n      sload(0x03)\n      dup2\n      jump\t// out\n        /* \"W6/simpleAMM/src/simpleAMMV6ERC.sol\":405:428  uint256 public reserve0 */\n    tag_34:\n      sload(0x01)\n      dup2\n      jump\t// out\n        /* \"W6/simpleAMM/src/simpleAMMV6ERC.sol\":1731:2392  function swapTokenForToken1(uint256 _amountIn) public returns (uint256 amountOut) {... */\n    tag_39:\n        /* \"W6/simpleAMM/src/simpleAMMV6ERC.sol\":1794:1811  uint256 amountOut */\n      0x00\n        /* \"W6/simpleAMM/src/simpleAMMV6ERC.sol\":1824:1830  token0 */\n      immutable(\"0xe9ec5ebbfe521ba5a70e4c2b13332e74dda4e055153dc29723307e62e8ed0f2a\")\n        /* \"W6/simpleAMM/src/simpleAMMV6ERC.sol\":1824:1843  token0.transferFrom */\n      0xffffffffffffffffffffffffffffffffffffffff\n      and\n      0x23b872dd\n        /* \"W6/simpleAMM/src/simpleAMMV6ERC.sol\":1844:1854  msg.sender */\n      caller\n        /* \"W6/simpleAMM/src/simpleAMMV6ERC.sol\":1864:1868  this */\n      address\n        /* \"W6/simpleAMM/src/simpleAMMV6ERC.sol\":1871:1880  _amountIn */\n      dup6\n        /* \"W6/simpleAMM/src/simpleAMMV6ERC.sol\":1824:1881  token0.transferFrom(msg.sender, address(this), _amountIn) */\n      mload(0x40)\n      dup5\n      0xffffffff\n      and\n      0xe0\n      shl\n      dup2\n      mstore\n      0x04\n      add\n      tag_103\n      swap4\n      swap3\n      swap2\n      swap1\n      tag_104\n      jump\t// in\n    tag_103:\n      0x20\n      mload(0x40)\n      dup1\n      dup4\n      sub\n      dup2\n      0x00\n      dup8\n      gas\n      call\n      iszero\n      dup1\n      iszero\n      tag_106\n      jumpi\n      returndatasize\n      0x00\n      dup1\n      returndatacopy\n      revert(0x00, returndatasize)\n    tag_106:\n      pop\n      pop\n      pop\n      pop\n      mload(0x40)\n      returndatasize\n      not(0x1f)\n      0x1f\n      dup3\n      add\n      and\n      dup3\n      add\n      dup1\n      0x40\n      mstore\n      pop\n      dup2\n      add\n      swap1\n      tag_107\n      swap2\n      swap1\n      tag_108\n      jump\t// in\n    tag_107:\n      pop\n        /* \"W6/simpleAMM/src/simpleAMMV6ERC.sol\":1892:1915  uint256 amountInWithFee */\n      0x00\n        /* \"W6/simpleAMM/src/simpleAMMV6ERC.sol\":1938:1942  1000 */\n      0x03e8\n        /* \"W6/simpleAMM/src/simpleAMMV6ERC.sol\":1931:1934  997 */\n      0x03e5\n        /* \"W6/simpleAMM/src/simpleAMMV6ERC.sol\":1919:1928  _amountIn */\n      dup5\n        /* \"W6/simpleAMM/src/simpleAMMV6ERC.sol\":1919:1934  _amountIn * 997 */\n      tag_109\n      swap2\n      swap1\n      tag_110\n      jump\t// in\n    tag_109:\n        /* \"W6/simpleAMM/src/simpleAMMV6ERC.sol\":1918:1942  (_amountIn * 997) / 1000 */\n      tag_111\n      swap2\n      swap1\n      tag_112\n      jump\t// in\n    tag_111:\n        /* \"W6/simpleAMM/src/simpleAMMV6ERC.sol\":1892:1942  uint256 amountInWithFee = (_amountIn * 997) / 1000 */\n      swap1\n      pop\n        /* \"W6/simpleAMM/src/simpleAMMV6ERC.sol\":2008:2023  amountInWithFee */\n      dup1\n        /* \"W6/simpleAMM/src/simpleAMMV6ERC.sol\":1997:2005  reserve0 */\n      sload(0x01)\n        /* \"W6/simpleAMM/src/simpleAMMV6ERC.sol\":1997:2023  reserve0 + amountInWithFee */\n      tag_113\n      swap2\n      swap1\n      tag_114\n      jump\t// in\n    tag_113:\n        /* \"W6/simpleAMM/src/simpleAMMV6ERC.sol\":1977:1992  amountInWithFee */\n      dup2\n        /* \"W6/simpleAMM/src/simpleAMMV6ERC.sol\":1966:1974  reserve1 */\n      sload(0x02)\n        /* \"W6/simpleAMM/src/simpleAMMV6ERC.sol\":1966:1992  reserve1 * amountInWithFee */\n      tag_115\n      swap2\n      swap1\n      tag_110\n      jump\t// in\n    tag_115:\n        /* \"W6/simpleAMM/src/simpleAMMV6ERC.sol\":1965:2024  (reserve1 * amountInWithFee) / (reserve0 + amountInWithFee) */\n      tag_116\n      swap2\n      swap1\n      tag_112\n      jump\t// in\n    tag_116:\n        /* \"W6/simpleAMM/src/simpleAMMV6ERC.sol\":1953:2024  amountOut = (reserve1 * amountInWithFee) / (reserve0 + amountInWithFee) */\n      swap2\n      pop\n        /* \"W6/simpleAMM/src/simpleAMMV6ERC.sol\":2055:2056  0 */\n      0x00\n        /* \"W6/simpleAMM/src/simpleAMMV6ERC.sol\":2043:2052  amountOut */\n      dup3\n        /* \"W6/simpleAMM/src/simpleAMMV6ERC.sol\":2043:2056  amountOut > 0 */\n      gt\n        /* \"W6/simpleAMM/src/simpleAMMV6ERC.sol\":2035:2087  require(amountOut > 0, \"Insufficient output amount\") */\n      tag_117\n      jumpi\n      mload(0x40)\n      0x08c379a000000000000000000000000000000000000000000000000000000000\n      dup2\n      mstore\n      0x04\n      add\n      tag_118\n      swap1\n      tag_119\n      jump\t// in\n    tag_118:\n      mload(0x40)\n      dup1\n      swap2\n      sub\n      swap1\n      revert\n    tag_117:\n        /* \"W6/simpleAMM/src/simpleAMMV6ERC.sol\":2098:2120  uint256 feeToDeveloper */\n      0x00\n        /* \"W6/simpleAMM/src/simpleAMMV6ERC.sol\":2165:2169  2000 */\n      0x07d0\n        /* \"W6/simpleAMM/src/simpleAMMV6ERC.sol\":2154:2162  reserve0 */\n      sload(0x01)\n        /* \"W6/simpleAMM/src/simpleAMMV6ERC.sol\":2154:2169  reserve0 * 2000 */\n      tag_120\n      swap2\n      swap1\n      tag_110\n      jump\t// in\n    tag_120:\n        /* \"W6/simpleAMM/src/simpleAMMV6ERC.sol\":2139:2150  totalSupply */\n      sload(0x03)\n        /* \"W6/simpleAMM/src/simpleAMMV6ERC.sol\":2135:2136  3 */\n      0x03\n        /* \"W6/simpleAMM/src/simpleAMMV6ERC.sol\":2123:2132  _amountIn */\n      dup7\n        /* \"W6/simpleAMM/src/simpleAMMV6ERC.sol\":2123:2136  _amountIn * 3 */\n      tag_121\n      swap2\n      swap1\n      tag_110\n      jump\t// in\n    tag_121:\n        /* \"W6/simpleAMM/src/simpleAMMV6ERC.sol\":2123:2150  _amountIn * 3 * totalSupply */\n      tag_122\n      swap2\n      swap1\n      tag_110\n      jump\t// in\n    tag_122:\n        /* \"W6/simpleAMM/src/simpleAMMV6ERC.sol\":2123:2170  _amountIn * 3 * totalSupply / (reserve0 * 2000) */\n      tag_123\n      swap2\n      swap1\n      tag_112\n      jump\t// in\n    tag_123:\n        /* \"W6/simpleAMM/src/simpleAMMV6ERC.sol\":2098:2170  uint256 feeToDeveloper = _amountIn * 3 * totalSupply / (reserve0 * 2000) */\n      swap1\n      pop\n        /* \"W6/simpleAMM/src/simpleAMMV6ERC.sol\":2181:2213  _mint(developer, feeToDeveloper) */\n      tag_124\n        /* \"W6/simpleAMM/src/simpleAMMV6ERC.sol\":2187:2196  developer */\n      0x00\n      dup1\n      sload\n      swap1\n      0x0100\n      exp\n      swap1\n      div\n      0xffffffffffffffffffffffffffffffffffffffff\n      and\n        /* \"W6/simpleAMM/src/simpleAMMV6ERC.sol\":2198:2212  feeToDeveloper */\n      dup3\n        /* \"W6/simpleAMM/src/simpleAMMV6ERC.sol\":2181:2186  _mint */\n      tag_125\n        /* \"W6/simpleAMM/src/simpleAMMV6ERC.sol\":2181:2213  _mint(developer, feeToDeveloper) */\n      jump\t// in\n    tag_124:\n        /* \"W6/simpleAMM/src/simpleAMMV6ERC.sol\":2260:2266  token1 */\n      immutable(\"0x4bab0814faad1725fc18a3cfa3a1fcb95c36a46cacb7a7312c3d38e6b447adac\")\n        /* \"W6/simpleAMM/src/simpleAMMV6ERC.sol\":2260:2275  token1.transfer */\n      0xffffffffffffffffffffffffffffffffffffffff\n      and\n      0xa9059cbb\n        /* \"W6/simpleAMM/src/simpleAMMV6ERC.sol\":2276:2286  msg.sender */\n      caller\n        /* \"W6/simpleAMM/src/simpleAMMV6ERC.sol\":2288:2297  amountOut */\n      dup6\n        /* \"W6/simpleAMM/src/simpleAMMV6ERC.sol\":2260:2298  token1.transfer(msg.sender, amountOut) */\n      mload(0x40)\n      dup4\n      0xffffffff\n      and\n      0xe0\n      shl\n      dup2\n      mstore\n      0x04\n      add\n      tag_126\n      swap3\n      swap2\n      swap1\n      tag_127\n      jump\t// in\n    tag_126:\n      0x20\n      mload(0x40)\n      dup1\n      dup4\n      sub\n      dup2\n      0x00\n      dup8\n      gas\n      call\n      iszero\n      dup1\n      iszero\n      tag_129\n      jumpi\n      returndatasize\n      0x00\n      dup1\n      returndatacopy\n      revert(0x00, returndatasize)\n    tag_129:\n      pop\n      pop\n      pop\n      pop\n      mload(0x40)\n      returndatasize\n      not(0x1f)\n      0x1f\n      dup3\n      add\n      and\n      dup3\n      add\n      dup1\n      0x40\n      mstore\n      pop\n      dup2\n      add\n      swap1\n      tag_130\n      swap2\n      swap1\n      tag_108\n      jump\t// in\n    tag_130:\n      pop\n        /* \"W6/simpleAMM/src/simpleAMMV6ERC.sol\":2311:2384  _update(token0.balanceOf(address(this)), token1.balanceOf(address(this))) */\n      tag_131\n        /* \"W6/simpleAMM/src/simpleAMMV6ERC.sol\":2319:2325  token0 */\n      immutable(\"0xe9ec5ebbfe521ba5a70e4c2b13332e74dda4e055153dc29723307e62e8ed0f2a\")\n        /* \"W6/simpleAMM/src/simpleAMMV6ERC.sol\":2319:2335  token0.balanceOf */\n      0xffffffffffffffffffffffffffffffffffffffff\n      and\n      0x70a08231\n        /* \"W6/simpleAMM/src/simpleAMMV6ERC.sol\":2344:2348  this */\n      address\n        /* \"W6/simpleAMM/src/simpleAMMV6ERC.sol\":2319:2350  token0.balanceOf(address(this)) */\n      mload(0x40)\n      dup3\n      0xffffffff\n      and\n      0xe0\n      shl\n      dup2\n      mstore\n      0x04\n      add\n      tag_132\n      swap2\n      swap1\n      tag_133\n      jump\t// in\n    tag_132:\n      0x20\n      mload(0x40)\n      dup1\n      dup4\n      sub\n      dup2\n      dup7\n      gas\n      staticcall\n      iszero\n      dup1\n      iszero\n      tag_135\n      jumpi\n      returndatasize\n      0x00\n      dup1\n      returndatacopy\n      revert(0x00, returndatasize)\n    tag_135:\n      pop\n      pop\n      pop\n      pop\n      mload(0x40)\n      returndatasize\n      not(0x1f)\n      0x1f\n      dup3\n      add\n      and\n      dup3\n      add\n      dup1\n      0x40\n      mstore\n      pop\n      dup2\n      add\n      swap1\n      tag_136\n      swap2\n      swap1\n      tag_137\n      jump\t// in\n    tag_136:\n        /* \"W6/simpleAMM/src/simpleAMMV6ERC.sol\":2352:2358  token1 */\n      immutable(\"0x4bab0814faad1725fc18a3cfa3a1fcb95c36a46cacb7a7312c3d38e6b447adac\")\n        /* \"W6/simpleAMM/src/simpleAMMV6ERC.sol\":2352:2368  token1.balanceOf */\n      0xffffffffffffffffffffffffffffffffffffffff\n      and\n      0x70a08231\n        /* \"W6/simpleAMM/src/simpleAMMV6ERC.sol\":2377:2381  this */\n      address\n        /* \"W6/simpleAMM/src/simpleAMMV6ERC.sol\":2352:2383  token1.balanceOf(address(this)) */\n      mload(0x40)\n      dup3\n      0xffffffff\n      and\n      0xe0\n      shl\n      dup2\n      mstore\n      0x04\n      add\n      tag_138\n      swap2\n      swap1\n      tag_133\n      jump\t// in\n    tag_138:\n      0x20\n      mload(0x40)\n      dup1\n      dup4\n      sub\n      dup2\n      dup7\n      gas\n      staticcall\n      iszero\n      dup1\n      iszero\n      tag_140\n      jumpi\n      returndatasize\n      0x00\n      dup1\n      returndatacopy\n      revert(0x00, returndatasize)\n    tag_140:\n      pop\n      pop\n      pop\n      pop\n      mload(0x40)\n      returndatasize\n      not(0x1f)\n      0x1f\n      dup3\n      add\n      and\n      dup3\n      add\n      dup1\n      0x40\n      mstore\n      pop\n      dup2\n      add\n      swap1\n      tag_141\n      swap2\n      swap1\n      tag_137\n      jump\t// in\n    tag_141:\n        /* \"W6/simpleAMM/src/simpleAMMV6ERC.sol\":2311:2318  _update */\n      tag_142\n        /* \"W6/simpleAMM/src/simpleAMMV6ERC.sol\":2311:2384  _update(token0.balanceOf(address(this)), token1.balanceOf(address(this))) */\n      jump\t// in\n    tag_131:\n        /* \"W6/simpleAMM/src/simpleAMMV6ERC.sol\":1813:2392  {... */\n      pop\n      pop\n        /* \"W6/simpleAMM/src/simpleAMMV6ERC.sol\":1731:2392  function swapTokenForToken1(uint256 _amountIn) public returns (uint256 amountOut) {... */\n      swap2\n      swap1\n      pop\n      jump\t// out\n        /* \"W6/simpleAMM/src/simpleAMMV6ERC.sol\":6956:7262  function getPredictOutputToken1(uint256 _amount) public view returns (uint256) {... */\n    tag_43:\n        /* \"W6/simpleAMM/src/simpleAMMV6ERC.sol\":7026:7033  uint256 */\n      0x00\n        /* \"W6/simpleAMM/src/simpleAMMV6ERC.sol\":7065:7066  0 */\n      dup1\n        /* \"W6/simpleAMM/src/simpleAMMV6ERC.sol\":7054:7062  reserve0 */\n      sload(0x01)\n        /* \"W6/simpleAMM/src/simpleAMMV6ERC.sol\":7054:7066  reserve0 > 0 */\n      gt\n        /* \"W6/simpleAMM/src/simpleAMMV6ERC.sol\":7054:7082  reserve0 > 0 && reserve1 > 0 */\n      dup1\n      iszero\n      tag_144\n      jumpi\n      pop\n        /* \"W6/simpleAMM/src/simpleAMMV6ERC.sol\":7081:7082  0 */\n      0x00\n        /* \"W6/simpleAMM/src/simpleAMMV6ERC.sol\":7070:7078  reserve1 */\n      sload(0x02)\n        /* \"W6/simpleAMM/src/simpleAMMV6ERC.sol\":7070:7082  reserve1 > 0 */\n      gt\n        /* \"W6/simpleAMM/src/simpleAMMV6ERC.sol\":7054:7082  reserve0 > 0 && reserve1 > 0 */\n    tag_144:\n        /* \"W6/simpleAMM/src/simpleAMMV6ERC.sol\":7054:7097  reserve0 > 0 && reserve1 > 0 && _amount > 0 */\n      dup1\n      iszero\n      tag_145\n      jumpi\n      pop\n        /* \"W6/simpleAMM/src/simpleAMMV6ERC.sol\":7096:7097  0 */\n      0x00\n        /* \"W6/simpleAMM/src/simpleAMMV6ERC.sol\":7086:7093  _amount */\n      dup3\n        /* \"W6/simpleAMM/src/simpleAMMV6ERC.sol\":7086:7097  _amount > 0 */\n      gt\n        /* \"W6/simpleAMM/src/simpleAMMV6ERC.sol\":7054:7097  reserve0 > 0 && reserve1 > 0 && _amount > 0 */\n    tag_145:\n        /* \"W6/simpleAMM/src/simpleAMMV6ERC.sol\":7046:7118  require(reserve0 > 0 && reserve1 > 0 && _amount > 0, \"Invalid reserves\") */\n      tag_146\n      jumpi\n      mload(0x40)\n      0x08c379a000000000000000000000000000000000000000000000000000000000\n      dup2\n      mstore\n      0x04\n      add\n      tag_147\n      swap1\n      tag_148\n      jump\t// in\n    tag_147:\n      mload(0x40)\n      dup1\n      swap2\n      sub\n      swap1\n      revert\n    tag_146:\n        /* \"W6/simpleAMM/src/simpleAMMV6ERC.sol\":7129:7152  uint256 amountInWithFee */\n      0x00\n        /* \"W6/simpleAMM/src/simpleAMMV6ERC.sol\":7173:7177  1000 */\n      0x03e8\n        /* \"W6/simpleAMM/src/simpleAMMV6ERC.sol\":7166:7169  997 */\n      0x03e5\n        /* \"W6/simpleAMM/src/simpleAMMV6ERC.sol\":7156:7163  _amount */\n      dup5\n        /* \"W6/simpleAMM/src/simpleAMMV6ERC.sol\":7156:7169  _amount * 997 */\n      tag_149\n      swap2\n      swap1\n      tag_110\n      jump\t// in\n    tag_149:\n        /* \"W6/simpleAMM/src/simpleAMMV6ERC.sol\":7155:7177  (_amount * 997) / 1000 */\n      tag_150\n      swap2\n      swap1\n      tag_112\n      jump\t// in\n    tag_150:\n        /* \"W6/simpleAMM/src/simpleAMMV6ERC.sol\":7129:7177  uint256 amountInWithFee = (_amount * 997) / 1000 */\n      swap1\n      pop\n        /* \"W6/simpleAMM/src/simpleAMMV6ERC.sol\":7238:7253  amountInWithFee */\n      dup1\n        /* \"W6/simpleAMM/src/simpleAMMV6ERC.sol\":7227:7235  reserve0 */\n      sload(0x01)\n        /* \"W6/simpleAMM/src/simpleAMMV6ERC.sol\":7227:7253  reserve0 + amountInWithFee */\n      tag_151\n      swap2\n      swap1\n      tag_114\n      jump\t// in\n    tag_151:\n        /* \"W6/simpleAMM/src/simpleAMMV6ERC.sol\":7207:7222  amountInWithFee */\n      dup2\n        /* \"W6/simpleAMM/src/simpleAMMV6ERC.sol\":7196:7204  reserve1 */\n      sload(0x02)\n        /* \"W6/simpleAMM/src/simpleAMMV6ERC.sol\":7196:7222  reserve1 * amountInWithFee */\n      tag_152\n      swap2\n      swap1\n      tag_110\n      jump\t// in\n    tag_152:\n        /* \"W6/simpleAMM/src/simpleAMMV6ERC.sol\":7195:7254  (reserve1 * amountInWithFee) / (reserve0 + amountInWithFee) */\n      tag_153\n      swap2\n      swap1\n      tag_112\n      jump\t// in\n    tag_153:\n        /* \"W6/simpleAMM/src/simpleAMMV6ERC.sol\":7188:7254  return (reserve1 * amountInWithFee) / (reserve0 + amountInWithFee) */\n      swap2\n      pop\n      pop\n        /* \"W6/simpleAMM/src/simpleAMMV6ERC.sol\":6956:7262  function getPredictOutputToken1(uint256 _amount) public view returns (uint256) {... */\n      swap2\n      swap1\n      pop\n      jump\t// out\n        /* \"W6/simpleAMM/src/simpleAMMV6ERC.sol\":435:458  uint256 public reserve1 */\n    tag_46:\n      sload(0x02)\n      dup2\n      jump\t// out\n        /* \"W6/simpleAMM/src/simpleAMMV6ERC.sol\":2400:3224  function swap_WithSlipLock(... */\n    tag_51:\n        /* \"W6/simpleAMM/src/simpleAMMV6ERC.sol\":2539:2556  uint256 amountOut */\n      0x00\n        /* \"W6/simpleAMM/src/simpleAMMV6ERC.sol\":2569:2575  token1 */\n      immutable(\"0x4bab0814faad1725fc18a3cfa3a1fcb95c36a46cacb7a7312c3d38e6b447adac\")\n        /* \"W6/simpleAMM/src/simpleAMMV6ERC.sol\":2569:2588  token1.transferFrom */\n      0xffffffffffffffffffffffffffffffffffffffff\n      and\n      0x23b872dd\n        /* \"W6/simpleAMM/src/simpleAMMV6ERC.sol\":2589:2599  msg.sender */\n      caller\n        /* \"W6/simpleAMM/src/simpleAMMV6ERC.sol\":2609:2613  this */\n      address\n        /* \"W6/simpleAMM/src/simpleAMMV6ERC.sol\":2616:2625  _amountIn */\n      dup8\n        /* \"W6/simpleAMM/src/simpleAMMV6ERC.sol\":2569:2626  token1.transferFrom(msg.sender, address(this), _amountIn) */\n      mload(0x40)\n      dup5\n      0xffffffff\n      and\n      0xe0\n      shl\n      dup2\n      mstore\n      0x04\n      add\n      tag_155\n      swap4\n      swap3\n      swap2\n      swap1\n      tag_104\n      jump\t// in\n    tag_155:\n      0x20\n      mload(0x40)\n      dup1\n      dup4\n      sub\n      dup2\n      0x00\n      dup8\n      gas\n      call\n      iszero\n      dup1\n      iszero\n      tag_157\n      jumpi\n      returndatasize\n      0x00\n      dup1\n      returndatacopy\n      revert(0x00, returndatasize)\n    tag_157:\n      pop\n      pop\n      pop\n      pop\n      mload(0x40)\n      returndatasize\n      not(0x1f)\n      0x1f\n      dup3\n      add\n      and\n      dup3\n      add\n      dup1\n      0x40\n      mstore\n      pop\n      dup2\n      add\n      swap1\n      tag_158\n      swap2\n      swap1\n      tag_108\n      jump\t// in\n    tag_158:\n      pop\n        /* \"W6/simpleAMM/src/simpleAMMV6ERC.sol\":2637:2660  uint256 amountInWithFee */\n      0x00\n        /* \"W6/simpleAMM/src/simpleAMMV6ERC.sol\":2683:2687  1000 */\n      0x03e8\n        /* \"W6/simpleAMM/src/simpleAMMV6ERC.sol\":2676:2679  997 */\n      0x03e5\n        /* \"W6/simpleAMM/src/simpleAMMV6ERC.sol\":2664:2673  _amountIn */\n      dup7\n        /* \"W6/simpleAMM/src/simpleAMMV6ERC.sol\":2664:2679  _amountIn * 997 */\n      tag_159\n      swap2\n      swap1\n      tag_110\n      jump\t// in\n    tag_159:\n        /* \"W6/simpleAMM/src/simpleAMMV6ERC.sol\":2663:2687  (_amountIn * 997) / 1000 */\n      tag_160\n      swap2\n      swap1\n      tag_112\n      jump\t// in\n    tag_160:\n        /* \"W6/simpleAMM/src/simpleAMMV6ERC.sol\":2637:2687  uint256 amountInWithFee = (_amountIn * 997) / 1000 */\n      swap1\n      pop\n        /* \"W6/simpleAMM/src/simpleAMMV6ERC.sol\":2753:2768  amountInWithFee */\n      dup1\n        /* \"W6/simpleAMM/src/simpleAMMV6ERC.sol\":2742:2750  reserve0 */\n      sload(0x01)\n        /* \"W6/simpleAMM/src/simpleAMMV6ERC.sol\":2742:2768  reserve0 + amountInWithFee */\n      tag_161\n      swap2\n      swap1\n      tag_114\n      jump\t// in\n    tag_161:\n        /* \"W6/simpleAMM/src/simpleAMMV6ERC.sol\":2722:2737  amountInWithFee */\n      dup2\n        /* \"W6/simpleAMM/src/simpleAMMV6ERC.sol\":2711:2719  reserve1 */\n      sload(0x02)\n        /* \"W6/simpleAMM/src/simpleAMMV6ERC.sol\":2711:2737  reserve1 * amountInWithFee */\n      tag_162\n      swap2\n      swap1\n      tag_110\n      jump\t// in\n    tag_162:\n        /* \"W6/simpleAMM/src/simpleAMMV6ERC.sol\":2710:2769  (reserve1 * amountInWithFee) / (reserve0 + amountInWithFee) */\n      tag_163\n      swap2\n      swap1\n      tag_112\n      jump\t// in\n    tag_163:\n        /* \"W6/simpleAMM/src/simpleAMMV6ERC.sol\":2698:2769  amountOut = (reserve1 * amountInWithFee) / (reserve0 + amountInWithFee) */\n      swap2\n      pop\n        /* \"W6/simpleAMM/src/simpleAMMV6ERC.sol\":2800:2801  0 */\n      0x00\n        /* \"W6/simpleAMM/src/simpleAMMV6ERC.sol\":2788:2797  amountOut */\n      dup3\n        /* \"W6/simpleAMM/src/simpleAMMV6ERC.sol\":2788:2801  amountOut > 0 */\n      gt\n        /* \"W6/simpleAMM/src/simpleAMMV6ERC.sol\":2780:2832  require(amountOut > 0, \"Insufficient output amount\") */\n      tag_164\n      jumpi\n      mload(0x40)\n      0x08c379a000000000000000000000000000000000000000000000000000000000\n      dup2\n      mstore\n      0x04\n      add\n      tag_165\n      swap1\n      tag_119\n      jump\t// in\n    tag_165:\n      mload(0x40)\n      dup1\n      swap2\n      sub\n      swap1\n      revert\n    tag_164:\n        /* \"W6/simpleAMM/src/simpleAMMV6ERC.sol\":2903:2907  1000 */\n      0x03e8\n        /* \"W6/simpleAMM/src/simpleAMMV6ERC.sol\":2890:2899  _slipLock */\n      dup4\n        /* \"W6/simpleAMM/src/simpleAMMV6ERC.sol\":2883:2887  1000 */\n      0x03e8\n        /* \"W6/simpleAMM/src/simpleAMMV6ERC.sol\":2883:2899  1000 - _slipLock */\n      tag_166\n      swap2\n      swap1\n      tag_167\n      jump\t// in\n    tag_166:\n        /* \"W6/simpleAMM/src/simpleAMMV6ERC.sol\":2865:2879  _forwardOutput */\n      dup6\n        /* \"W6/simpleAMM/src/simpleAMMV6ERC.sol\":2865:2900  _forwardOutput * (1000 - _slipLock) */\n      tag_168\n      swap2\n      swap1\n      tag_110\n      jump\t// in\n    tag_168:\n        /* \"W6/simpleAMM/src/simpleAMMV6ERC.sol\":2865:2907  _forwardOutput * (1000 - _slipLock) / 1000 */\n      tag_169\n      swap2\n      swap1\n      tag_112\n      jump\t// in\n    tag_169:\n        /* \"W6/simpleAMM/src/simpleAMMV6ERC.sol\":2851:2860  amountOut */\n      dup3\n        /* \"W6/simpleAMM/src/simpleAMMV6ERC.sol\":2851:2908  amountOut >= (_forwardOutput * (1000 - _slipLock) / 1000) */\n      lt\n      iszero\n        /* \"W6/simpleAMM/src/simpleAMMV6ERC.sol\":2843:2921  require(amountOut >= (_forwardOutput * (1000 - _slipLock) / 1000), \"SlipLock\") */\n      tag_170\n      jumpi\n      mload(0x40)\n      0x08c379a000000000000000000000000000000000000000000000000000000000\n      dup2\n      mstore\n      0x04\n      add\n      tag_171\n      swap1\n      tag_172\n      jump\t// in\n    tag_171:\n      mload(0x40)\n      dup1\n      swap2\n      sub\n      swap1\n      revert\n    tag_170:\n        /* \"W6/simpleAMM/src/simpleAMMV6ERC.sol\":2932:2954  uint256 feeToDeveloper */\n      0x00\n        /* \"W6/simpleAMM/src/simpleAMMV6ERC.sol\":2999:3003  2000 */\n      0x07d0\n        /* \"W6/simpleAMM/src/simpleAMMV6ERC.sol\":2988:2996  reserve0 */\n      sload(0x01)\n        /* \"W6/simpleAMM/src/simpleAMMV6ERC.sol\":2988:3003  reserve0 * 2000 */\n      tag_173\n      swap2\n      swap1\n      tag_110\n      jump\t// in\n    tag_173:\n        /* \"W6/simpleAMM/src/simpleAMMV6ERC.sol\":2973:2984  totalSupply */\n      sload(0x03)\n        /* \"W6/simpleAMM/src/simpleAMMV6ERC.sol\":2969:2970  3 */\n      0x03\n        /* \"W6/simpleAMM/src/simpleAMMV6ERC.sol\":2957:2966  _amountIn */\n      dup9\n        /* \"W6/simpleAMM/src/simpleAMMV6ERC.sol\":2957:2970  _amountIn * 3 */\n      tag_174\n      swap2\n      swap1\n      tag_110\n      jump\t// in\n    tag_174:\n        /* \"W6/simpleAMM/src/simpleAMMV6ERC.sol\":2957:2984  _amountIn * 3 * totalSupply */\n      tag_175\n      swap2\n      swap1\n      tag_110\n      jump\t// in\n    tag_175:\n        /* \"W6/simpleAMM/src/simpleAMMV6ERC.sol\":2957:3004  _amountIn * 3 * totalSupply / (reserve0 * 2000) */\n      tag_176\n      swap2\n      swap1\n      tag_112\n      jump\t// in\n    tag_176:\n        /* \"W6/simpleAMM/src/simpleAMMV6ERC.sol\":2932:3004  uint256 feeToDeveloper = _amountIn * 3 * totalSupply / (reserve0 * 2000) */\n      swap1\n      pop\n        /* \"W6/simpleAMM/src/simpleAMMV6ERC.sol\":3015:3047  _mint(developer, feeToDeveloper) */\n      tag_177\n        /* \"W6/simpleAMM/src/simpleAMMV6ERC.sol\":3021:3030  developer */\n      0x00\n      dup1\n      sload\n      swap1\n      0x0100\n      exp\n      swap1\n      div\n      0xffffffffffffffffffffffffffffffffffffffff\n      and\n        /* \"W6/simpleAMM/src/simpleAMMV6ERC.sol\":3032:3046  feeToDeveloper */\n      dup3\n        /* \"W6/simpleAMM/src/simpleAMMV6ERC.sol\":3015:3020  _mint */\n      tag_125\n        /* \"W6/simpleAMM/src/simpleAMMV6ERC.sol\":3015:3047  _mint(developer, feeToDeveloper) */\n      jump\t// in\n    tag_177:\n        /* \"W6/simpleAMM/src/simpleAMMV6ERC.sol\":3094:3100  token0 */\n      immutable(\"0xe9ec5ebbfe521ba5a70e4c2b13332e74dda4e055153dc29723307e62e8ed0f2a\")\n        /* \"W6/simpleAMM/src/simpleAMMV6ERC.sol\":3094:3109  token0.transfer */\n      0xffffffffffffffffffffffffffffffffffffffff\n      and\n      0xa9059cbb\n        /* \"W6/simpleAMM/src/simpleAMMV6ERC.sol\":3110:3120  msg.sender */\n      caller\n        /* \"W6/simpleAMM/src/simpleAMMV6ERC.sol\":3122:3131  amountOut */\n      dup6\n        /* \"W6/simpleAMM/src/simpleAMMV6ERC.sol\":3094:3132  token0.transfer(msg.sender, amountOut) */\n      mload(0x40)\n      dup4\n      0xffffffff\n      and\n      0xe0\n      shl\n      dup2\n      mstore\n      0x04\n      add\n      tag_178\n      swap3\n      swap2\n      swap1\n      tag_127\n      jump\t// in\n    tag_178:\n      0x20\n      mload(0x40)\n      dup1\n      dup4\n      sub\n      dup2\n      0x00\n      dup8\n      gas\n      call\n      iszero\n      dup1\n      iszero\n      tag_180\n      jumpi\n      returndatasize\n      0x00\n      dup1\n      returndatacopy\n      revert(0x00, returndatasize)\n    tag_180:\n      pop\n      pop\n      pop\n      pop\n      mload(0x40)\n      returndatasize\n      not(0x1f)\n      0x1f\n      dup3\n      add\n      and\n      dup3\n      add\n      dup1\n      0x40\n      mstore\n      pop\n      dup2\n      add\n      swap1\n      tag_181\n      swap2\n      swap1\n      tag_108\n      jump\t// in\n    tag_181:\n      pop\n        /* \"W6/simpleAMM/src/simpleAMMV6ERC.sol\":3143:3216  _update(token0.balanceOf(address(this)), token1.balanceOf(address(this))) */\n      tag_182\n        /* \"W6/simpleAMM/src/simpleAMMV6ERC.sol\":3151:3157  token0 */\n      immutable(\"0xe9ec5ebbfe521ba5a70e4c2b13332e74dda4e055153dc29723307e62e8ed0f2a\")\n        /* \"W6/simpleAMM/src/simpleAMMV6ERC.sol\":3151:3167  token0.balanceOf */\n      0xffffffffffffffffffffffffffffffffffffffff\n      and\n      0x70a08231\n        /* \"W6/simpleAMM/src/simpleAMMV6ERC.sol\":3176:3180  this */\n      address\n        /* \"W6/simpleAMM/src/simpleAMMV6ERC.sol\":3151:3182  token0.balanceOf(address(this)) */\n      mload(0x40)\n      dup3\n      0xffffffff\n      and\n      0xe0\n      shl\n      dup2\n      mstore\n      0x04\n      add\n      tag_183\n      swap2\n      swap1\n      tag_133\n      jump\t// in\n    tag_183:\n      0x20\n      mload(0x40)\n      dup1\n      dup4\n      sub\n      dup2\n      dup7\n      gas\n      staticcall\n      iszero\n      dup1\n      iszero\n      tag_185\n      jumpi\n      returndatasize\n      0x00\n      dup1\n      returndatacopy\n      revert(0x00, returndatasize)\n    tag_185:\n      pop\n      pop\n      pop\n      pop\n      mload(0x40)\n      returndatasize\n      not(0x1f)\n      0x1f\n      dup3\n      add\n      and\n      dup3\n      add\n      dup1\n      0x40\n      mstore\n      pop\n      dup2\n      add\n      swap1\n      tag_186\n      swap2\n      swap1\n      tag_137\n      jump\t// in\n    tag_186:\n        /* \"W6/simpleAMM/src/simpleAMMV6ERC.sol\":3184:3190  token1 */\n      immutable(\"0x4bab0814faad1725fc18a3cfa3a1fcb95c36a46cacb7a7312c3d38e6b447adac\")\n        /* \"W6/simpleAMM/src/simpleAMMV6ERC.sol\":3184:3200  token1.balanceOf */\n      0xffffffffffffffffffffffffffffffffffffffff\n      and\n      0x70a08231\n        /* \"W6/simpleAMM/src/simpleAMMV6ERC.sol\":3209:3213  this */\n      address\n        /* \"W6/simpleAMM/src/simpleAMMV6ERC.sol\":3184:3215  token1.balanceOf(address(this)) */\n      mload(0x40)\n      dup3\n      0xffffffff\n      and\n      0xe0\n      shl\n      dup2\n      mstore\n      0x04\n      add\n      tag_187\n      swap2\n      swap1\n      tag_133\n      jump\t// in\n    tag_187:\n      0x20\n      mload(0x40)\n      dup1\n      dup4\n      sub\n      dup2\n      dup7\n      gas\n      staticcall\n      iszero\n      dup1\n      iszero\n      tag_189\n      jumpi\n      returndatasize\n      0x00\n      dup1\n      returndatacopy\n      revert(0x00, returndatasize)\n    tag_189:\n      pop\n      pop\n      pop\n      pop\n      mload(0x40)\n      returndatasize\n      not(0x1f)\n      0x1f\n      dup3\n      add\n      and\n      dup3\n      add\n      dup1\n      0x40\n      mstore\n      pop\n      dup2\n      add\n      swap1\n      tag_190\n      swap2\n      swap1\n      tag_137\n      jump\t// in\n    tag_190:\n        /* \"W6/simpleAMM/src/simpleAMMV6ERC.sol\":3143:3150  _update */\n      tag_142\n        /* \"W6/simpleAMM/src/simpleAMMV6ERC.sol\":3143:3216  _update(token0.balanceOf(address(this)), token1.balanceOf(address(this))) */\n      jump\t// in\n    tag_182:\n        /* \"W6/simpleAMM/src/simpleAMMV6ERC.sol\":2558:3224  {... */\n      pop\n      pop\n        /* \"W6/simpleAMM/src/simpleAMMV6ERC.sol\":2400:3224  function swap_WithSlipLock(... */\n      swap4\n      swap3\n      pop\n      pop\n      pop\n      jump\t// out\n        /* \"W6/simpleAMM/src/simpleAMMV6ERC.sol\":500:544  mapping(address => uint256) public balanceOf */\n    tag_56:\n      mstore(0x20, 0x04)\n      dup1\n      0x00\n      mstore\n      keccak256(0x00, 0x40)\n      0x00\n      swap2\n      pop\n      swap1\n      pop\n      sload\n      dup2\n      jump\t// out\n        /* \"W6/simpleAMM/src/simpleAMMV6ERC.sol\":4910:5072  function removeAllLiquidity(address _user) external returns (uint256 amount0, uint256 amount1) {... */\n    tag_60:\n        /* \"W6/simpleAMM/src/simpleAMMV6ERC.sol\":4971:4986  uint256 amount0 */\n      0x00\n        /* \"W6/simpleAMM/src/simpleAMMV6ERC.sol\":4988:5003  uint256 amount1 */\n      dup1\n        /* \"W6/simpleAMM/src/simpleAMMV6ERC.sol\":5023:5064  _removeLiquidity(_user, balanceOf[_user]) */\n      tag_192\n        /* \"W6/simpleAMM/src/simpleAMMV6ERC.sol\":5040:5045  _user */\n      dup4\n        /* \"W6/simpleAMM/src/simpleAMMV6ERC.sol\":5047:5056  balanceOf */\n      0x04\n        /* \"W6/simpleAMM/src/simpleAMMV6ERC.sol\":5047:5063  balanceOf[_user] */\n      0x00\n        /* \"W6/simpleAMM/src/simpleAMMV6ERC.sol\":5057:5062  _user */\n      dup7\n        /* \"W6/simpleAMM/src/simpleAMMV6ERC.sol\":5047:5063  balanceOf[_user] */\n      0xffffffffffffffffffffffffffffffffffffffff\n      and\n      0xffffffffffffffffffffffffffffffffffffffff\n      and\n      dup2\n      mstore\n      0x20\n      add\n      swap1\n      dup2\n      mstore\n      0x20\n      add\n      0x00\n      keccak256\n      sload\n        /* \"W6/simpleAMM/src/simpleAMMV6ERC.sol\":5023:5039  _removeLiquidity */\n      tag_193\n        /* \"W6/simpleAMM/src/simpleAMMV6ERC.sol\":5023:5064  _removeLiquidity(_user, balanceOf[_user]) */\n      jump\t// in\n    tag_192:\n        /* \"W6/simpleAMM/src/simpleAMMV6ERC.sol\":5016:5064  return _removeLiquidity(_user, balanceOf[_user]) */\n      swap2\n      pop\n      swap2\n      pop\n        /* \"W6/simpleAMM/src/simpleAMMV6ERC.sol\":4910:5072  function removeAllLiquidity(address _user) external returns (uint256 amount0, uint256 amount1) {... */\n      swap2\n      pop\n      swap2\n      jump\t// out\n        /* \"W6/simpleAMM/src/simpleAMMV6ERC.sol\":1139:1723  function swap(uint256 _amountIn) public returns (uint256 amountOut) {... */\n    tag_65:\n        /* \"W6/simpleAMM/src/simpleAMMV6ERC.sol\":1188:1205  uint256 amountOut */\n      0x00\n        /* \"W6/simpleAMM/src/simpleAMMV6ERC.sol\":1218:1224  token1 */\n      immutable(\"0x4bab0814faad1725fc18a3cfa3a1fcb95c36a46cacb7a7312c3d38e6b447adac\")\n        /* \"W6/simpleAMM/src/simpleAMMV6ERC.sol\":1218:1237  token1.transferFrom */\n      0xffffffffffffffffffffffffffffffffffffffff\n      and\n      0x23b872dd\n        /* \"W6/simpleAMM/src/simpleAMMV6ERC.sol\":1238:1248  msg.sender */\n      caller\n        /* \"W6/simpleAMM/src/simpleAMMV6ERC.sol\":1258:1262  this */\n      address\n        /* \"W6/simpleAMM/src/simpleAMMV6ERC.sol\":1265:1274  _amountIn */\n      dup6\n        /* \"W6/simpleAMM/src/simpleAMMV6ERC.sol\":1218:1275  token1.transferFrom(msg.sender, address(this), _amountIn) */\n      mload(0x40)\n      dup5\n      0xffffffff\n      and\n      0xe0\n      shl\n      dup2\n      mstore\n      0x04\n      add\n      tag_195\n      swap4\n      swap3\n      swap2\n      swap1\n      tag_104\n      jump\t// in\n    tag_195:\n      0x20\n      mload(0x40)\n      dup1\n      dup4\n      sub\n      dup2\n      0x00\n      dup8\n      gas\n      call\n      iszero\n      dup1\n      iszero\n      tag_197\n      jumpi\n      returndatasize\n      0x00\n      dup1\n      returndatacopy\n      revert(0x00, returndatasize)\n    tag_197:\n      pop\n      pop\n      pop\n      pop\n      mload(0x40)\n      returndatasize\n      not(0x1f)\n      0x1f\n      dup3\n      add\n      and\n      dup3\n      add\n      dup1\n      0x40\n      mstore\n      pop\n      dup2\n      add\n      swap1\n      tag_198\n      swap2\n      swap1\n      tag_108\n      jump\t// in\n    tag_198:\n      pop\n        /* \"W6/simpleAMM/src/simpleAMMV6ERC.sol\":1286:1309  uint256 amountInWithFee */\n      0x00\n        /* \"W6/simpleAMM/src/simpleAMMV6ERC.sol\":1332:1336  1000 */\n      0x03e8\n        /* \"W6/simpleAMM/src/simpleAMMV6ERC.sol\":1325:1328  997 */\n      0x03e5\n        /* \"W6/simpleAMM/src/simpleAMMV6ERC.sol\":1313:1322  _amountIn */\n      dup5\n        /* \"W6/simpleAMM/src/simpleAMMV6ERC.sol\":1313:1328  _amountIn * 997 */\n      tag_199\n      swap2\n      swap1\n      tag_110\n      jump\t// in\n    tag_199:\n        /* \"W6/simpleAMM/src/simpleAMMV6ERC.sol\":1312:1336  (_amountIn * 997) / 1000 */\n      tag_200\n      swap2\n      swap1\n      tag_112\n      jump\t// in\n    tag_200:\n        /* \"W6/simpleAMM/src/simpleAMMV6ERC.sol\":1286:1336  uint256 amountInWithFee = (_amountIn * 997) / 1000 */\n      swap1\n      pop\n        /* \"W6/simpleAMM/src/simpleAMMV6ERC.sol\":1402:1417  amountInWithFee */\n      dup1\n        /* \"W6/simpleAMM/src/simpleAMMV6ERC.sol\":1391:1399  reserve0 */\n      sload(0x01)\n        /* \"W6/simpleAMM/src/simpleAMMV6ERC.sol\":1391:1417  reserve0 + amountInWithFee */\n      tag_201\n      swap2\n      swap1\n      tag_114\n      jump\t// in\n    tag_201:\n        /* \"W6/simpleAMM/src/simpleAMMV6ERC.sol\":1371:1386  amountInWithFee */\n      dup2\n        /* \"W6/simpleAMM/src/simpleAMMV6ERC.sol\":1360:1368  reserve1 */\n      sload(0x02)\n        /* \"W6/simpleAMM/src/simpleAMMV6ERC.sol\":1360:1386  reserve1 * amountInWithFee */\n      tag_202\n      swap2\n      swap1\n      tag_110\n      jump\t// in\n    tag_202:\n        /* \"W6/simpleAMM/src/simpleAMMV6ERC.sol\":1359:1418  (reserve1 * amountInWithFee) / (reserve0 + amountInWithFee) */\n      tag_203\n      swap2\n      swap1\n      tag_112\n      jump\t// in\n    tag_203:\n        /* \"W6/simpleAMM/src/simpleAMMV6ERC.sol\":1347:1418  amountOut = (reserve1 * amountInWithFee) / (reserve0 + amountInWithFee) */\n      swap2\n      pop\n        /* \"W6/simpleAMM/src/simpleAMMV6ERC.sol\":1429:1451  uint256 feeToDeveloper */\n      0x00\n        /* \"W6/simpleAMM/src/simpleAMMV6ERC.sol\":1496:1500  2000 */\n      0x07d0\n        /* \"W6/simpleAMM/src/simpleAMMV6ERC.sol\":1485:1493  reserve0 */\n      sload(0x01)\n        /* \"W6/simpleAMM/src/simpleAMMV6ERC.sol\":1485:1500  reserve0 * 2000 */\n      tag_204\n      swap2\n      swap1\n      tag_110\n      jump\t// in\n    tag_204:\n        /* \"W6/simpleAMM/src/simpleAMMV6ERC.sol\":1470:1481  totalSupply */\n      sload(0x03)\n        /* \"W6/simpleAMM/src/simpleAMMV6ERC.sol\":1466:1467  3 */\n      0x03\n        /* \"W6/simpleAMM/src/simpleAMMV6ERC.sol\":1454:1463  _amountIn */\n      dup7\n        /* \"W6/simpleAMM/src/simpleAMMV6ERC.sol\":1454:1467  _amountIn * 3 */\n      tag_205\n      swap2\n      swap1\n      tag_110\n      jump\t// in\n    tag_205:\n        /* \"W6/simpleAMM/src/simpleAMMV6ERC.sol\":1454:1481  _amountIn * 3 * totalSupply */\n      tag_206\n      swap2\n      swap1\n      tag_110\n      jump\t// in\n    tag_206:\n        /* \"W6/simpleAMM/src/simpleAMMV6ERC.sol\":1454:1501  _amountIn * 3 * totalSupply / (reserve0 * 2000) */\n      tag_207\n      swap2\n      swap1\n      tag_112\n      jump\t// in\n    tag_207:\n        /* \"W6/simpleAMM/src/simpleAMMV6ERC.sol\":1429:1501  uint256 feeToDeveloper = _amountIn * 3 * totalSupply / (reserve0 * 2000) */\n      swap1\n      pop\n        /* \"W6/simpleAMM/src/simpleAMMV6ERC.sol\":1512:1544  _mint(developer, feeToDeveloper) */\n      tag_208\n        /* \"W6/simpleAMM/src/simpleAMMV6ERC.sol\":1518:1527  developer */\n      0x00\n      dup1\n      sload\n      swap1\n      0x0100\n      exp\n      swap1\n      div\n      0xffffffffffffffffffffffffffffffffffffffff\n      and\n        /* \"W6/simpleAMM/src/simpleAMMV6ERC.sol\":1529:1543  feeToDeveloper */\n      dup3\n        /* \"W6/simpleAMM/src/simpleAMMV6ERC.sol\":1512:1517  _mint */\n      tag_125\n        /* \"W6/simpleAMM/src/simpleAMMV6ERC.sol\":1512:1544  _mint(developer, feeToDeveloper) */\n      jump\t// in\n    tag_208:\n        /* \"W6/simpleAMM/src/simpleAMMV6ERC.sol\":1591:1597  token0 */\n      immutable(\"0xe9ec5ebbfe521ba5a70e4c2b13332e74dda4e055153dc29723307e62e8ed0f2a\")\n        /* \"W6/simpleAMM/src/simpleAMMV6ERC.sol\":1591:1606  token0.transfer */\n      0xffffffffffffffffffffffffffffffffffffffff\n      and\n      0xa9059cbb\n        /* \"W6/simpleAMM/src/simpleAMMV6ERC.sol\":1607:1617  msg.sender */\n      caller\n        /* \"W6/simpleAMM/src/simpleAMMV6ERC.sol\":1619:1628  amountOut */\n      dup6\n        /* \"W6/simpleAMM/src/simpleAMMV6ERC.sol\":1591:1629  token0.transfer(msg.sender, amountOut) */\n      mload(0x40)\n      dup4\n      0xffffffff\n      and\n      0xe0\n      shl\n      dup2\n      mstore\n      0x04\n      add\n      tag_209\n      swap3\n      swap2\n      swap1\n      tag_127\n      jump\t// in\n    tag_209:\n      0x20\n      mload(0x40)\n      dup1\n      dup4\n      sub\n      dup2\n      0x00\n      dup8\n      gas\n      call\n      iszero\n      dup1\n      iszero\n      tag_211\n      jumpi\n      returndatasize\n      0x00\n      dup1\n      returndatacopy\n      revert(0x00, returndatasize)\n    tag_211:\n      pop\n      pop\n      pop\n      pop\n      mload(0x40)\n      returndatasize\n      not(0x1f)\n      0x1f\n      dup3\n      add\n      and\n      dup3\n      add\n      dup1\n      0x40\n      mstore\n      pop\n      dup2\n      add\n      swap1\n      tag_212\n      swap2\n      swap1\n      tag_108\n      jump\t// in\n    tag_212:\n      pop\n        /* \"W6/simpleAMM/src/simpleAMMV6ERC.sol\":1642:1715  _update(token0.balanceOf(address(this)), token1.balanceOf(address(this))) */\n      tag_213\n        /* \"W6/simpleAMM/src/simpleAMMV6ERC.sol\":1650:1656  token0 */\n      immutable(\"0xe9ec5ebbfe521ba5a70e4c2b13332e74dda4e055153dc29723307e62e8ed0f2a\")\n        /* \"W6/simpleAMM/src/simpleAMMV6ERC.sol\":1650:1666  token0.balanceOf */\n      0xffffffffffffffffffffffffffffffffffffffff\n      and\n      0x70a08231\n        /* \"W6/simpleAMM/src/simpleAMMV6ERC.sol\":1675:1679  this */\n      address\n        /* \"W6/simpleAMM/src/simpleAMMV6ERC.sol\":1650:1681  token0.balanceOf(address(this)) */\n      mload(0x40)\n      dup3\n      0xffffffff\n      and\n      0xe0\n      shl\n      dup2\n      mstore\n      0x04\n      add\n      tag_214\n      swap2\n      swap1\n      tag_133\n      jump\t// in\n    tag_214:\n      0x20\n      mload(0x40)\n      dup1\n      dup4\n      sub\n      dup2\n      dup7\n      gas\n      staticcall\n      iszero\n      dup1\n      iszero\n      tag_216\n      jumpi\n      returndatasize\n      0x00\n      dup1\n      returndatacopy\n      revert(0x00, returndatasize)\n    tag_216:\n      pop\n      pop\n      pop\n      pop\n      mload(0x40)\n      returndatasize\n      not(0x1f)\n      0x1f\n      dup3\n      add\n      and\n      dup3\n      add\n      dup1\n      0x40\n      mstore\n      pop\n      dup2\n      add\n      swap1\n      tag_217\n      swap2\n      swap1\n      tag_137\n      jump\t// in\n    tag_217:\n        /* \"W6/simpleAMM/src/simpleAMMV6ERC.sol\":1683:1689  token1 */\n      immutable(\"0x4bab0814faad1725fc18a3cfa3a1fcb95c36a46cacb7a7312c3d38e6b447adac\")\n        /* \"W6/simpleAMM/src/simpleAMMV6ERC.sol\":1683:1699  token1.balanceOf */\n      0xffffffffffffffffffffffffffffffffffffffff\n      and\n      0x70a08231\n        /* \"W6/simpleAMM/src/simpleAMMV6ERC.sol\":1708:1712  this */\n      address\n        /* \"W6/simpleAMM/src/simpleAMMV6ERC.sol\":1683:1714  token1.balanceOf(address(this)) */\n      mload(0x40)\n      dup3\n      0xffffffff\n      and\n      0xe0\n      shl\n      dup2\n      mstore\n      0x04\n      add\n      tag_218\n      swap2\n      swap1\n      tag_133\n      jump\t// in\n    tag_218:\n      0x20\n      mload(0x40)\n      dup1\n      dup4\n      sub\n      dup2\n      dup7\n      gas\n      staticcall\n      iszero\n      dup1\n      iszero\n      tag_220\n      jumpi\n      returndatasize\n      0x00\n      dup1\n      returndatacopy\n      revert(0x00, returndatasize)\n    tag_220:\n      pop\n      pop\n      pop\n      pop\n      mload(0x40)\n      returndatasize\n      not(0x1f)\n      0x1f\n      dup3\n      add\n      and\n      dup3\n      add\n      dup1\n      0x40\n      mstore\n      pop\n      dup2\n      add\n      swap1\n      tag_221\n      swap2\n      swap1\n      tag_137\n      jump\t// in\n    tag_221:\n        /* \"W6/simpleAMM/src/simpleAMMV6ERC.sol\":1642:1649  _update */\n      tag_142\n        /* \"W6/simpleAMM/src/simpleAMMV6ERC.sol\":1642:1715  _update(token0.balanceOf(address(this)), token1.balanceOf(address(this))) */\n      jump\t// in\n    tag_213:\n        /* \"W6/simpleAMM/src/simpleAMMV6ERC.sol\":1207:1723  {... */\n      pop\n      pop\n        /* \"W6/simpleAMM/src/simpleAMMV6ERC.sol\":1139:1723  function swap(uint256 _amountIn) public returns (uint256 amountOut) {... */\n      swap2\n      swap1\n      pop\n      jump\t// out\n        /* \"W6/simpleAMM/src/simpleAMMV6ERC.sol\":7270:7576  function getPredictOutputToken0(uint256 _amount) public view returns (uint256) {... */\n    tag_69:\n        /* \"W6/simpleAMM/src/simpleAMMV6ERC.sol\":7340:7347  uint256 */\n      0x00\n        /* \"W6/simpleAMM/src/simpleAMMV6ERC.sol\":7379:7380  0 */\n      dup1\n        /* \"W6/simpleAMM/src/simpleAMMV6ERC.sol\":7368:7376  reserve0 */\n      sload(0x01)\n        /* \"W6/simpleAMM/src/simpleAMMV6ERC.sol\":7368:7380  reserve0 > 0 */\n      gt\n        /* \"W6/simpleAMM/src/simpleAMMV6ERC.sol\":7368:7396  reserve0 > 0 && reserve1 > 0 */\n      dup1\n      iszero\n      tag_223\n      jumpi\n      pop\n        /* \"W6/simpleAMM/src/simpleAMMV6ERC.sol\":7395:7396  0 */\n      0x00\n        /* \"W6/simpleAMM/src/simpleAMMV6ERC.sol\":7384:7392  reserve1 */\n      sload(0x02)\n        /* \"W6/simpleAMM/src/simpleAMMV6ERC.sol\":7384:7396  reserve1 > 0 */\n      gt\n        /* \"W6/simpleAMM/src/simpleAMMV6ERC.sol\":7368:7396  reserve0 > 0 && reserve1 > 0 */\n    tag_223:\n        /* \"W6/simpleAMM/src/simpleAMMV6ERC.sol\":7368:7411  reserve0 > 0 && reserve1 > 0 && _amount > 0 */\n      dup1\n      iszero\n      tag_224\n      jumpi\n      pop\n        /* \"W6/simpleAMM/src/simpleAMMV6ERC.sol\":7410:7411  0 */\n      0x00\n        /* \"W6/simpleAMM/src/simpleAMMV6ERC.sol\":7400:7407  _amount */\n      dup3\n        /* \"W6/simpleAMM/src/simpleAMMV6ERC.sol\":7400:7411  _amount > 0 */\n      gt\n        /* \"W6/simpleAMM/src/simpleAMMV6ERC.sol\":7368:7411  reserve0 > 0 && reserve1 > 0 && _amount > 0 */\n    tag_224:\n        /* \"W6/simpleAMM/src/simpleAMMV6ERC.sol\":7360:7432  require(reserve0 > 0 && reserve1 > 0 && _amount > 0, \"Invalid reserves\") */\n      tag_225\n      jumpi\n      mload(0x40)\n      0x08c379a000000000000000000000000000000000000000000000000000000000\n      dup2\n      mstore\n      0x04\n      add\n      tag_226\n      swap1\n      tag_148\n      jump\t// in\n    tag_226:\n      mload(0x40)\n      dup1\n      swap2\n      sub\n      swap1\n      revert\n    tag_225:\n        /* \"W6/simpleAMM/src/simpleAMMV6ERC.sol\":7443:7466  uint256 amountInWithFee */\n      0x00\n        /* \"W6/simpleAMM/src/simpleAMMV6ERC.sol\":7487:7491  1000 */\n      0x03e8\n        /* \"W6/simpleAMM/src/simpleAMMV6ERC.sol\":7480:7483  997 */\n      0x03e5\n        /* \"W6/simpleAMM/src/simpleAMMV6ERC.sol\":7470:7477  _amount */\n      dup5\n        /* \"W6/simpleAMM/src/simpleAMMV6ERC.sol\":7470:7483  _amount * 997 */\n      tag_227\n      swap2\n      swap1\n      tag_110\n      jump\t// in\n    tag_227:\n        /* \"W6/simpleAMM/src/simpleAMMV6ERC.sol\":7469:7491  (_amount * 997) / 1000 */\n      tag_228\n      swap2\n      swap1\n      tag_112\n      jump\t// in\n    tag_228:\n        /* \"W6/simpleAMM/src/simpleAMMV6ERC.sol\":7443:7491  uint256 amountInWithFee = (_amount * 997) / 1000 */\n      swap1\n      pop\n        /* \"W6/simpleAMM/src/simpleAMMV6ERC.sol\":7552:7567  amountInWithFee */\n      dup1\n        /* \"W6/simpleAMM/src/simpleAMMV6ERC.sol\":7541:7549  reserve1 */\n      sload(0x02)\n        /* \"W6/simpleAMM/src/simpleAMMV6ERC.sol\":7541:7567  reserve1 + amountInWithFee */\n      tag_229\n      swap2\n      swap1\n      tag_114\n      jump\t// in\n    tag_229:\n        /* \"W6/simpleAMM/src/simpleAMMV6ERC.sol\":7521:7536  amountInWithFee */\n      dup2\n        /* \"W6/simpleAMM/src/simpleAMMV6ERC.sol\":7510:7518  reserve0 */\n      sload(0x01)\n        /* \"W6/simpleAMM/src/simpleAMMV6ERC.sol\":7510:7536  reserve0 * amountInWithFee */\n      tag_230\n      swap2\n      swap1\n      tag_110\n      jump\t// in\n    tag_230:\n        /* \"W6/simpleAMM/src/simpleAMMV6ERC.sol\":7509:7568  (reserve0 * amountInWithFee) / (reserve1 + amountInWithFee) */\n      tag_231\n      swap2\n      swap1\n      tag_112\n      jump\t// in\n    tag_231:\n        /* \"W6/simpleAMM/src/simpleAMMV6ERC.sol\":7502:7568  return (reserve0 * amountInWithFee) / (reserve1 + amountInWithFee) */\n      swap2\n      pop\n      pop\n        /* \"W6/simpleAMM/src/simpleAMMV6ERC.sol\":7270:7576  function getPredictOutputToken0(uint256 _amount) public view returns (uint256) {... */\n      swap2\n      swap1\n      pop\n      jump\t// out\n        /* \"W6/simpleAMM/src/simpleAMMV6ERC.sol\":5080:5313  function removeLiquidity(uint256 _shares) external returns (uint256 amount0, uint256 amount1) {... */\n    tag_73:\n        /* \"W6/simpleAMM/src/simpleAMMV6ERC.sol\":5140:5155  uint256 amount0 */\n      0x00\n        /* \"W6/simpleAMM/src/simpleAMMV6ERC.sol\":5157:5172  uint256 amount1 */\n      dup1\n        /* \"W6/simpleAMM/src/simpleAMMV6ERC.sol\":5204:5213  balanceOf */\n      0x04\n        /* \"W6/simpleAMM/src/simpleAMMV6ERC.sol\":5204:5225  balanceOf[msg.sender] */\n      0x00\n        /* \"W6/simpleAMM/src/simpleAMMV6ERC.sol\":5214:5224  msg.sender */\n      caller\n        /* \"W6/simpleAMM/src/simpleAMMV6ERC.sol\":5204:5225  balanceOf[msg.sender] */\n      0xffffffffffffffffffffffffffffffffffffffff\n      and\n      0xffffffffffffffffffffffffffffffffffffffff\n      and\n      dup2\n      mstore\n      0x20\n      add\n      swap1\n      dup2\n      mstore\n      0x20\n      add\n      0x00\n      keccak256\n      sload\n        /* \"W6/simpleAMM/src/simpleAMMV6ERC.sol\":5193:5200  _shares */\n      dup4\n        /* \"W6/simpleAMM/src/simpleAMMV6ERC.sol\":5193:5225  _shares <= balanceOf[msg.sender] */\n      gt\n      iszero\n        /* \"W6/simpleAMM/src/simpleAMMV6ERC.sol\":5185:5250  require(_shares <= balanceOf[msg.sender], \"Insufficient balance\") */\n      tag_233\n      jumpi\n      mload(0x40)\n      0x08c379a000000000000000000000000000000000000000000000000000000000\n      dup2\n      mstore\n      0x04\n      add\n      tag_234\n      swap1\n      tag_235\n      jump\t// in\n    tag_234:\n      mload(0x40)\n      dup1\n      swap2\n      sub\n      swap1\n      revert\n    tag_233:\n        /* \"W6/simpleAMM/src/simpleAMMV6ERC.sol\":5268:5305  _removeLiquidity(msg.sender, _shares) */\n      tag_236\n        /* \"W6/simpleAMM/src/simpleAMMV6ERC.sol\":5285:5295  msg.sender */\n      caller\n        /* \"W6/simpleAMM/src/simpleAMMV6ERC.sol\":5297:5304  _shares */\n      dup5\n        /* \"W6/simpleAMM/src/simpleAMMV6ERC.sol\":5268:5284  _removeLiquidity */\n      tag_193\n        /* \"W6/simpleAMM/src/simpleAMMV6ERC.sol\":5268:5305  _removeLiquidity(msg.sender, _shares) */\n      jump\t// in\n    tag_236:\n        /* \"W6/simpleAMM/src/simpleAMMV6ERC.sol\":5261:5305  return _removeLiquidity(msg.sender, _shares) */\n      swap2\n      pop\n      swap2\n      pop\n        /* \"W6/simpleAMM/src/simpleAMMV6ERC.sol\":5080:5313  function removeLiquidity(uint256 _shares) external returns (uint256 amount0, uint256 amount1) {... */\n      swap2\n      pop\n      swap2\n      jump\t// out\n        /* \"W6/simpleAMM/src/simpleAMMV6ERC.sol\":4080:4902  function addLiquidity(uint256 _amount0, uint256 _amount1) external returns (uint256 shares) {... */\n    tag_78:\n        /* \"W6/simpleAMM/src/simpleAMMV6ERC.sol\":4156:4170  uint256 shares */\n      0x00\n        /* \"W6/simpleAMM/src/simpleAMMV6ERC.sol\":4183:4189  token0 */\n      immutable(\"0xe9ec5ebbfe521ba5a70e4c2b13332e74dda4e055153dc29723307e62e8ed0f2a\")\n        /* \"W6/simpleAMM/src/simpleAMMV6ERC.sol\":4183:4202  token0.transferFrom */\n      0xffffffffffffffffffffffffffffffffffffffff\n      and\n      0x23b872dd\n        /* \"W6/simpleAMM/src/simpleAMMV6ERC.sol\":4203:4213  msg.sender */\n      caller\n        /* \"W6/simpleAMM/src/simpleAMMV6ERC.sol\":4223:4227  this */\n      address\n        /* \"W6/simpleAMM/src/simpleAMMV6ERC.sol\":4230:4238  _amount0 */\n      dup7\n        /* \"W6/simpleAMM/src/simpleAMMV6ERC.sol\":4183:4239  token0.transferFrom(msg.sender, address(this), _amount0) */\n      mload(0x40)\n      dup5\n      0xffffffff\n      and\n      0xe0\n      shl\n      dup2\n      mstore\n      0x04\n      add\n      tag_238\n      swap4\n      swap3\n      swap2\n      swap1\n      tag_104\n      jump\t// in\n    tag_238:\n      0x20\n      mload(0x40)\n      dup1\n      dup4\n      sub\n      dup2\n      0x00\n      dup8\n      gas\n      call\n      iszero\n      dup1\n      iszero\n      tag_240\n      jumpi\n      returndatasize\n      0x00\n      dup1\n      returndatacopy\n      revert(0x00, returndatasize)\n    tag_240:\n      pop\n      pop\n      pop\n      pop\n      mload(0x40)\n      returndatasize\n      not(0x1f)\n      0x1f\n      dup3\n      add\n      and\n      dup3\n      add\n      dup1\n      0x40\n      mstore\n      pop\n      dup2\n      add\n      swap1\n      tag_241\n      swap2\n      swap1\n      tag_108\n      jump\t// in\n    tag_241:\n      pop\n        /* \"W6/simpleAMM/src/simpleAMMV6ERC.sol\":4250:4256  token1 */\n      immutable(\"0x4bab0814faad1725fc18a3cfa3a1fcb95c36a46cacb7a7312c3d38e6b447adac\")\n        /* \"W6/simpleAMM/src/simpleAMMV6ERC.sol\":4250:4269  token1.transferFrom */\n      0xffffffffffffffffffffffffffffffffffffffff\n      and\n      0x23b872dd\n        /* \"W6/simpleAMM/src/simpleAMMV6ERC.sol\":4270:4280  msg.sender */\n      caller\n        /* \"W6/simpleAMM/src/simpleAMMV6ERC.sol\":4290:4294  this */\n      address\n        /* \"W6/simpleAMM/src/simpleAMMV6ERC.sol\":4297:4305  _amount1 */\n      dup6\n        /* \"W6/simpleAMM/src/simpleAMMV6ERC.sol\":4250:4306  token1.transferFrom(msg.sender, address(this), _amount1) */\n      mload(0x40)\n      dup5\n      0xffffffff\n      and\n      0xe0\n      shl\n      dup2\n      mstore\n      0x04\n      add\n      tag_242\n      swap4\n      swap3\n      swap2\n      swap1\n      tag_104\n      jump\t// in\n    tag_242:\n      0x20\n      mload(0x40)\n      dup1\n      dup4\n      sub\n      dup2\n      0x00\n      dup8\n      gas\n      call\n      iszero\n      dup1\n      iszero\n      tag_244\n      jumpi\n      returndatasize\n      0x00\n      dup1\n      returndatacopy\n      revert(0x00, returndatasize)\n    tag_244:\n      pop\n      pop\n      pop\n      pop\n      mload(0x40)\n      returndatasize\n      not(0x1f)\n      0x1f\n      dup3\n      add\n      and\n      dup3\n      add\n      dup1\n      0x40\n      mstore\n      pop\n      dup2\n      add\n      swap1\n      tag_245\n      swap2\n      swap1\n      tag_108\n      jump\t// in\n    tag_245:\n      pop\n        /* \"W6/simpleAMM/src/simpleAMMV6ERC.sol\":4334:4335  0 */\n      0x00\n        /* \"W6/simpleAMM/src/simpleAMMV6ERC.sol\":4323:4331  reserve0 */\n      sload(0x01)\n        /* \"W6/simpleAMM/src/simpleAMMV6ERC.sol\":4323:4335  reserve0 > 0 */\n      gt\n        /* \"W6/simpleAMM/src/simpleAMMV6ERC.sol\":4323:4351  reserve0 > 0 || reserve1 > 0 */\n      dup1\n      tag_246\n      jumpi\n      pop\n        /* \"W6/simpleAMM/src/simpleAMMV6ERC.sol\":4350:4351  0 */\n      0x00\n        /* \"W6/simpleAMM/src/simpleAMMV6ERC.sol\":4339:4347  reserve1 */\n      sload(0x02)\n        /* \"W6/simpleAMM/src/simpleAMMV6ERC.sol\":4339:4351  reserve1 > 0 */\n      gt\n        /* \"W6/simpleAMM/src/simpleAMMV6ERC.sol\":4323:4351  reserve0 > 0 || reserve1 > 0 */\n    tag_246:\n        /* \"W6/simpleAMM/src/simpleAMMV6ERC.sol\":4319:4460  if (reserve0 > 0 || reserve1 > 0) {... */\n      iszero\n      tag_247\n      jumpi\n        /* \"W6/simpleAMM/src/simpleAMMV6ERC.sol\":4412:4420  _amount1 */\n      dup2\n        /* \"W6/simpleAMM/src/simpleAMMV6ERC.sol\":4400:4408  reserve0 */\n      sload(0x01)\n        /* \"W6/simpleAMM/src/simpleAMMV6ERC.sol\":4388:4396  reserve1 */\n      sload(0x02)\n        /* \"W6/simpleAMM/src/simpleAMMV6ERC.sol\":4377:4385  _amount0 */\n      dup6\n        /* \"W6/simpleAMM/src/simpleAMMV6ERC.sol\":4377:4396  _amount0 * reserve1 */\n      tag_248\n      swap2\n      swap1\n      tag_110\n      jump\t// in\n    tag_248:\n        /* \"W6/simpleAMM/src/simpleAMMV6ERC.sol\":4376:4408  (_amount0 * reserve1) / reserve0 */\n      tag_249\n      swap2\n      swap1\n      tag_112\n      jump\t// in\n    tag_249:\n        /* \"W6/simpleAMM/src/simpleAMMV6ERC.sol\":4376:4420  (_amount0 * reserve1) / reserve0 == _amount1 */\n      eq\n        /* \"W6/simpleAMM/src/simpleAMMV6ERC.sol\":4368:4448  require((_amount0 * reserve1) / reserve0 == _amount1, \"Invalid liquidity ratio\") */\n      tag_250\n      jumpi\n      mload(0x40)\n      0x08c379a000000000000000000000000000000000000000000000000000000000\n      dup2\n      mstore\n      0x04\n      add\n      tag_251\n      swap1\n      tag_252\n      jump\t// in\n    tag_251:\n      mload(0x40)\n      dup1\n      swap2\n      sub\n      swap1\n      revert\n    tag_250:\n        /* \"W6/simpleAMM/src/simpleAMMV6ERC.sol\":4319:4460  if (reserve0 > 0 || reserve1 > 0) {... */\n    tag_247:\n        /* \"W6/simpleAMM/src/simpleAMMV6ERC.sol\":4491:4492  0 */\n      0x00\n        /* \"W6/simpleAMM/src/simpleAMMV6ERC.sol\":4476:4487  totalSupply */\n      sload(0x03)\n        /* \"W6/simpleAMM/src/simpleAMMV6ERC.sol\":4476:4492  totalSupply == 0 */\n      sub\n        /* \"W6/simpleAMM/src/simpleAMMV6ERC.sol\":4472:4729  if (totalSupply == 0) {... */\n      tag_253\n      jumpi\n        /* \"W6/simpleAMM/src/simpleAMMV6ERC.sol\":4518:4544  _sqrt(_amount0 * _amount1) */\n      tag_254\n        /* \"W6/simpleAMM/src/simpleAMMV6ERC.sol\":4535:4543  _amount1 */\n      dup3\n        /* \"W6/simpleAMM/src/simpleAMMV6ERC.sol\":4524:4532  _amount0 */\n      dup5\n        /* \"W6/simpleAMM/src/simpleAMMV6ERC.sol\":4524:4543  _amount0 * _amount1 */\n      tag_255\n      swap2\n      swap1\n      tag_110\n      jump\t// in\n    tag_255:\n        /* \"W6/simpleAMM/src/simpleAMMV6ERC.sol\":4518:4523  _sqrt */\n      tag_256\n        /* \"W6/simpleAMM/src/simpleAMMV6ERC.sol\":4518:4544  _sqrt(_amount0 * _amount1) */\n      jump\t// in\n    tag_254:\n        /* \"W6/simpleAMM/src/simpleAMMV6ERC.sol\":4509:4544  shares = _sqrt(_amount0 * _amount1) */\n      swap1\n      pop\n        /* \"W6/simpleAMM/src/simpleAMMV6ERC.sol\":4472:4729  if (totalSupply == 0) {... */\n      jump(tag_257)\n    tag_253:\n        /* \"W6/simpleAMM/src/simpleAMMV6ERC.sol\":4586:4717  Math.min(... */\n      tag_258\n        /* \"W6/simpleAMM/src/simpleAMMV6ERC.sol\":4640:4648  reserve0 */\n      sload(0x01)\n        /* \"W6/simpleAMM/src/simpleAMMV6ERC.sol\":4625:4636  totalSupply */\n      sload(0x03)\n        /* \"W6/simpleAMM/src/simpleAMMV6ERC.sol\":4614:4622  _amount0 */\n      dup6\n        /* \"W6/simpleAMM/src/simpleAMMV6ERC.sol\":4614:4636  _amount0 * totalSupply */\n      tag_259\n      swap2\n      swap1\n      tag_110\n      jump\t// in\n    tag_259:\n        /* \"W6/simpleAMM/src/simpleAMMV6ERC.sol\":4613:4648  (_amount0 * totalSupply) / reserve0 */\n      tag_260\n      swap2\n      swap1\n      tag_112\n      jump\t// in\n    tag_260:\n        /* \"W6/simpleAMM/src/simpleAMMV6ERC.sol\":4694:4702  reserve1 */\n      sload(0x02)\n        /* \"W6/simpleAMM/src/simpleAMMV6ERC.sol\":4679:4690  totalSupply */\n      sload(0x03)\n        /* \"W6/simpleAMM/src/simpleAMMV6ERC.sol\":4668:4676  _amount1 */\n      dup6\n        /* \"W6/simpleAMM/src/simpleAMMV6ERC.sol\":4668:4690  _amount1 * totalSupply */\n      tag_261\n      swap2\n      swap1\n      tag_110\n      jump\t// in\n    tag_261:\n        /* \"W6/simpleAMM/src/simpleAMMV6ERC.sol\":4667:4702  (_amount1 * totalSupply) / reserve1 */\n      tag_262\n      swap2\n      swap1\n      tag_112\n      jump\t// in\n    tag_262:\n        /* \"W6/simpleAMM/src/simpleAMMV6ERC.sol\":4586:4594  Math.min */\n      tag_263\n        /* \"W6/simpleAMM/src/simpleAMMV6ERC.sol\":4586:4717  Math.min(... */\n      jump\t// in\n    tag_258:\n        /* \"W6/simpleAMM/src/simpleAMMV6ERC.sol\":4577:4717  shares = Math.min(... */\n      swap1\n      pop\n        /* \"W6/simpleAMM/src/simpleAMMV6ERC.sol\":4472:4729  if (totalSupply == 0) {... */\n    tag_257:\n        /* \"W6/simpleAMM/src/simpleAMMV6ERC.sol\":4756:4757  0 */\n      0x00\n        /* \"W6/simpleAMM/src/simpleAMMV6ERC.sol\":4747:4753  shares */\n      dup2\n        /* \"W6/simpleAMM/src/simpleAMMV6ERC.sol\":4747:4757  shares > 0 */\n      gt\n        /* \"W6/simpleAMM/src/simpleAMMV6ERC.sol\":4739:4772  require(shares > 0, \"shares = 0\") */\n      tag_264\n      jumpi\n      mload(0x40)\n      0x08c379a000000000000000000000000000000000000000000000000000000000\n      dup2\n      mstore\n      0x04\n      add\n      tag_265\n      swap1\n      tag_266\n      jump\t// in\n    tag_265:\n      mload(0x40)\n      dup1\n      swap2\n      sub\n      swap1\n      revert\n    tag_264:\n        /* \"W6/simpleAMM/src/simpleAMMV6ERC.sol\":4783:4808  _mint(msg.sender, shares) */\n      tag_267\n        /* \"W6/simpleAMM/src/simpleAMMV6ERC.sol\":4789:4799  msg.sender */\n      caller\n        /* \"W6/simpleAMM/src/simpleAMMV6ERC.sol\":4801:4807  shares */\n      dup3\n        /* \"W6/simpleAMM/src/simpleAMMV6ERC.sol\":4783:4788  _mint */\n      tag_125\n        /* \"W6/simpleAMM/src/simpleAMMV6ERC.sol\":4783:4808  _mint(msg.sender, shares) */\n      jump\t// in\n    tag_267:\n        /* \"W6/simpleAMM/src/simpleAMMV6ERC.sol\":4821:4894  _update(token0.balanceOf(address(this)), token1.balanceOf(address(this))) */\n      tag_268\n        /* \"W6/simpleAMM/src/simpleAMMV6ERC.sol\":4829:4835  token0 */\n      immutable(\"0xe9ec5ebbfe521ba5a70e4c2b13332e74dda4e055153dc29723307e62e8ed0f2a\")\n        /* \"W6/simpleAMM/src/simpleAMMV6ERC.sol\":4829:4845  token0.balanceOf */\n      0xffffffffffffffffffffffffffffffffffffffff\n      and\n      0x70a08231\n        /* \"W6/simpleAMM/src/simpleAMMV6ERC.sol\":4854:4858  this */\n      address\n        /* \"W6/simpleAMM/src/simpleAMMV6ERC.sol\":4829:4860  token0.balanceOf(address(this)) */\n      mload(0x40)\n      dup3\n      0xffffffff\n      and\n      0xe0\n      shl\n      dup2\n      mstore\n      0x04\n      add\n      tag_269\n      swap2\n      swap1\n      tag_133\n      jump\t// in\n    tag_269:\n      0x20\n      mload(0x40)\n      dup1\n      dup4\n      sub\n      dup2\n      dup7\n      gas\n      staticcall\n      iszero\n      dup1\n      iszero\n      tag_271\n      jumpi\n      returndatasize\n      0x00\n      dup1\n      returndatacopy\n      revert(0x00, returndatasize)\n    tag_271:\n      pop\n      pop\n      pop\n      pop\n      mload(0x40)\n      returndatasize\n      not(0x1f)\n      0x1f\n      dup3\n      add\n      and\n      dup3\n      add\n      dup1\n      0x40\n      mstore\n      pop\n      dup2\n      add\n      swap1\n      tag_272\n      swap2\n      swap1\n      tag_137\n      jump\t// in\n    tag_272:\n        /* \"W6/simpleAMM/src/simpleAMMV6ERC.sol\":4862:4868  token1 */\n      immutable(\"0x4bab0814faad1725fc18a3cfa3a1fcb95c36a46cacb7a7312c3d38e6b447adac\")\n        /* \"W6/simpleAMM/src/simpleAMMV6ERC.sol\":4862:4878  token1.balanceOf */\n      0xffffffffffffffffffffffffffffffffffffffff\n      and\n      0x70a08231\n        /* \"W6/simpleAMM/src/simpleAMMV6ERC.sol\":4887:4891  this */\n      address\n        /* \"W6/simpleAMM/src/simpleAMMV6ERC.sol\":4862:4893  token1.balanceOf(address(this)) */\n      mload(0x40)\n      dup3\n      0xffffffff\n      and\n      0xe0\n      shl\n      dup2\n      mstore\n      0x04\n      add\n      tag_273\n      swap2\n      swap1\n      tag_133\n      jump\t// in\n    tag_273:\n      0x20\n      mload(0x40)\n      dup1\n      dup4\n      sub\n      dup2\n      dup7\n      gas\n      staticcall\n      iszero\n      dup1\n      iszero\n      tag_275\n      jumpi\n      returndatasize\n      0x00\n      dup1\n      returndatacopy\n      revert(0x00, returndatasize)\n    tag_275:\n      pop\n      pop\n      pop\n      pop\n      mload(0x40)\n      returndatasize\n      not(0x1f)\n      0x1f\n      dup3\n      add\n      and\n      dup3\n      add\n      dup1\n      0x40\n      mstore\n      pop\n      dup2\n      add\n      swap1\n      tag_276\n      swap2\n      swap1\n      tag_137\n      jump\t// in\n    tag_276:\n        /* \"W6/simpleAMM/src/simpleAMMV6ERC.sol\":4821:4828  _update */\n      tag_142\n        /* \"W6/simpleAMM/src/simpleAMMV6ERC.sol\":4821:4894  _update(token0.balanceOf(address(this)), token1.balanceOf(address(this))) */\n      jump\t// in\n    tag_268:\n        /* \"W6/simpleAMM/src/simpleAMMV6ERC.sol\":4080:4902  function addLiquidity(uint256 _amount0, uint256 _amount1) external returns (uint256 shares) {... */\n      swap3\n      swap2\n      pop\n      pop\n      jump\t// out\n        /* \"W6/simpleAMM/src/simpleAMMV6ERC.sol\":6079:6176  function myShares() public view returns (uint256) {... */\n    tag_81:\n        /* \"W6/simpleAMM/src/simpleAMMV6ERC.sol\":6120:6127  uint256 */\n      0x00\n        /* \"W6/simpleAMM/src/simpleAMMV6ERC.sol\":6147:6156  balanceOf */\n      0x04\n        /* \"W6/simpleAMM/src/simpleAMMV6ERC.sol\":6147:6168  balanceOf[msg.sender] */\n      0x00\n        /* \"W6/simpleAMM/src/simpleAMMV6ERC.sol\":6157:6167  msg.sender */\n      caller\n        /* \"W6/simpleAMM/src/simpleAMMV6ERC.sol\":6147:6168  balanceOf[msg.sender] */\n      0xffffffffffffffffffffffffffffffffffffffff\n      and\n      0xffffffffffffffffffffffffffffffffffffffff\n      and\n      dup2\n      mstore\n      0x20\n      add\n      swap1\n      dup2\n      mstore\n      0x20\n      add\n      0x00\n      keccak256\n      sload\n        /* \"W6/simpleAMM/src/simpleAMMV6ERC.sol\":6140:6168  return balanceOf[msg.sender] */\n      swap1\n      pop\n        /* \"W6/simpleAMM/src/simpleAMMV6ERC.sol\":6079:6176  function myShares() public view returns (uint256) {... */\n      swap1\n      jump\t// out\n        /* \"W6/simpleAMM/src/simpleAMMV6ERC.sol\":5321:5559  function removeLiquidity(address _user, uint256 _shares) external returns (uint256 amount0, uint256 amount1) {... */\n    tag_86:\n        /* \"W6/simpleAMM/src/simpleAMMV6ERC.sol\":5396:5411  uint256 amount0 */\n      0x00\n        /* \"W6/simpleAMM/src/simpleAMMV6ERC.sol\":5413:5428  uint256 amount1 */\n      dup1\n        /* \"W6/simpleAMM/src/simpleAMMV6ERC.sol\":5460:5469  balanceOf */\n      0x04\n        /* \"W6/simpleAMM/src/simpleAMMV6ERC.sol\":5460:5476  balanceOf[_user] */\n      0x00\n        /* \"W6/simpleAMM/src/simpleAMMV6ERC.sol\":5470:5475  _user */\n      dup6\n        /* \"W6/simpleAMM/src/simpleAMMV6ERC.sol\":5460:5476  balanceOf[_user] */\n      0xffffffffffffffffffffffffffffffffffffffff\n      and\n      0xffffffffffffffffffffffffffffffffffffffff\n      and\n      dup2\n      mstore\n      0x20\n      add\n      swap1\n      dup2\n      mstore\n      0x20\n      add\n      0x00\n      keccak256\n      sload\n        /* \"W6/simpleAMM/src/simpleAMMV6ERC.sol\":5449:5456  _shares */\n      dup4\n        /* \"W6/simpleAMM/src/simpleAMMV6ERC.sol\":5449:5476  _shares <= balanceOf[_user] */\n      gt\n      iszero\n        /* \"W6/simpleAMM/src/simpleAMMV6ERC.sol\":5441:5501  require(_shares <= balanceOf[_user], \"Insufficient balance\") */\n      tag_279\n      jumpi\n      mload(0x40)\n      0x08c379a000000000000000000000000000000000000000000000000000000000\n      dup2\n      mstore\n      0x04\n      add\n      tag_280\n      swap1\n      tag_235\n      jump\t// in\n    tag_280:\n      mload(0x40)\n      dup1\n      swap2\n      sub\n      swap1\n      revert\n    tag_279:\n        /* \"W6/simpleAMM/src/simpleAMMV6ERC.sol\":5519:5551  _removeLiquidity(_user, _shares) */\n      tag_281\n        /* \"W6/simpleAMM/src/simpleAMMV6ERC.sol\":5536:5541  _user */\n      dup5\n        /* \"W6/simpleAMM/src/simpleAMMV6ERC.sol\":5543:5550  _shares */\n      dup5\n        /* \"W6/simpleAMM/src/simpleAMMV6ERC.sol\":5519:5535  _removeLiquidity */\n      tag_193\n        /* \"W6/simpleAMM/src/simpleAMMV6ERC.sol\":5519:5551  _removeLiquidity(_user, _shares) */\n      jump\t// in\n    tag_281:\n        /* \"W6/simpleAMM/src/simpleAMMV6ERC.sol\":5512:5551  return _removeLiquidity(_user, _shares) */\n      swap2\n      pop\n      swap2\n      pop\n        /* \"W6/simpleAMM/src/simpleAMMV6ERC.sol\":5321:5559  function removeLiquidity(address _user, uint256 _shares) external returns (uint256 amount0, uint256 amount1) {... */\n      swap3\n      pop\n      swap3\n      swap1\n      pop\n      jump\t// out\n        /* \"W6/simpleAMM/src/simpleAMMV6ERC.sol\":3230:4072  function swapTokenForToken1_WithSlipLock(... */\n    tag_90:\n        /* \"W6/simpleAMM/src/simpleAMMV6ERC.sol\":3383:3400  uint256 amountOut */\n      0x00\n        /* \"W6/simpleAMM/src/simpleAMMV6ERC.sol\":3413:3419  token0 */\n      immutable(\"0xe9ec5ebbfe521ba5a70e4c2b13332e74dda4e055153dc29723307e62e8ed0f2a\")\n        /* \"W6/simpleAMM/src/simpleAMMV6ERC.sol\":3413:3432  token0.transferFrom */\n      0xffffffffffffffffffffffffffffffffffffffff\n      and\n      0x23b872dd\n        /* \"W6/simpleAMM/src/simpleAMMV6ERC.sol\":3433:3443  msg.sender */\n      caller\n        /* \"W6/simpleAMM/src/simpleAMMV6ERC.sol\":3453:3457  this */\n      address\n        /* \"W6/simpleAMM/src/simpleAMMV6ERC.sol\":3460:3469  _amountIn */\n      dup8\n        /* \"W6/simpleAMM/src/simpleAMMV6ERC.sol\":3413:3470  token0.transferFrom(msg.sender, address(this), _amountIn) */\n      mload(0x40)\n      dup5\n      0xffffffff\n      and\n      0xe0\n      shl\n      dup2\n      mstore\n      0x04\n      add\n      tag_283\n      swap4\n      swap3\n      swap2\n      swap1\n      tag_104\n      jump\t// in\n    tag_283:\n      0x20\n      mload(0x40)\n      dup1\n      dup4\n      sub\n      dup2\n      0x00\n      dup8\n      gas\n      call\n      iszero\n      dup1\n      iszero\n      tag_285\n      jumpi\n      returndatasize\n      0x00\n      dup1\n      returndatacopy\n      revert(0x00, returndatasize)\n    tag_285:\n      pop\n      pop\n      pop\n      pop\n      mload(0x40)\n      returndatasize\n      not(0x1f)\n      0x1f\n      dup3\n      add\n      and\n      dup3\n      add\n      dup1\n      0x40\n      mstore\n      pop\n      dup2\n      add\n      swap1\n      tag_286\n      swap2\n      swap1\n      tag_108\n      jump\t// in\n    tag_286:\n      pop\n        /* \"W6/simpleAMM/src/simpleAMMV6ERC.sol\":3481:3504  uint256 amountInWithFee */\n      0x00\n        /* \"W6/simpleAMM/src/simpleAMMV6ERC.sol\":3527:3531  1000 */\n      0x03e8\n        /* \"W6/simpleAMM/src/simpleAMMV6ERC.sol\":3520:3523  997 */\n      0x03e5\n        /* \"W6/simpleAMM/src/simpleAMMV6ERC.sol\":3508:3517  _amountIn */\n      dup7\n        /* \"W6/simpleAMM/src/simpleAMMV6ERC.sol\":3508:3523  _amountIn * 997 */\n      tag_287\n      swap2\n      swap1\n      tag_110\n      jump\t// in\n    tag_287:\n        /* \"W6/simpleAMM/src/simpleAMMV6ERC.sol\":3507:3531  (_amountIn * 997) / 1000 */\n      tag_288\n      swap2\n      swap1\n      tag_112\n      jump\t// in\n    tag_288:\n        /* \"W6/simpleAMM/src/simpleAMMV6ERC.sol\":3481:3531  uint256 amountInWithFee = (_amountIn * 997) / 1000 */\n      swap1\n      pop\n        /* \"W6/simpleAMM/src/simpleAMMV6ERC.sol\":3599:3614  amountInWithFee */\n      dup1\n        /* \"W6/simpleAMM/src/simpleAMMV6ERC.sol\":3588:3596  reserve0 */\n      sload(0x01)\n        /* \"W6/simpleAMM/src/simpleAMMV6ERC.sol\":3588:3614  reserve0 + amountInWithFee */\n      tag_289\n      swap2\n      swap1\n      tag_114\n      jump\t// in\n    tag_289:\n        /* \"W6/simpleAMM/src/simpleAMMV6ERC.sol\":3568:3583  amountInWithFee */\n      dup2\n        /* \"W6/simpleAMM/src/simpleAMMV6ERC.sol\":3557:3565  reserve1 */\n      sload(0x02)\n        /* \"W6/simpleAMM/src/simpleAMMV6ERC.sol\":3557:3583  reserve1 * amountInWithFee */\n      tag_290\n      swap2\n      swap1\n      tag_110\n      jump\t// in\n    tag_290:\n        /* \"W6/simpleAMM/src/simpleAMMV6ERC.sol\":3556:3615  (reserve1 * amountInWithFee) / (reserve0 + amountInWithFee) */\n      tag_291\n      swap2\n      swap1\n      tag_112\n      jump\t// in\n    tag_291:\n        /* \"W6/simpleAMM/src/simpleAMMV6ERC.sol\":3544:3615  amountOut = (reserve1 * amountInWithFee) / (reserve0 + amountInWithFee) */\n      swap2\n      pop\n        /* \"W6/simpleAMM/src/simpleAMMV6ERC.sol\":3646:3647  0 */\n      0x00\n        /* \"W6/simpleAMM/src/simpleAMMV6ERC.sol\":3634:3643  amountOut */\n      dup3\n        /* \"W6/simpleAMM/src/simpleAMMV6ERC.sol\":3634:3647  amountOut > 0 */\n      gt\n        /* \"W6/simpleAMM/src/simpleAMMV6ERC.sol\":3626:3678  require(amountOut > 0, \"Insufficient output amount\") */\n      tag_292\n      jumpi\n      mload(0x40)\n      0x08c379a000000000000000000000000000000000000000000000000000000000\n      dup2\n      mstore\n      0x04\n      add\n      tag_293\n      swap1\n      tag_119\n      jump\t// in\n    tag_293:\n      mload(0x40)\n      dup1\n      swap2\n      sub\n      swap1\n      revert\n    tag_292:\n        /* \"W6/simpleAMM/src/simpleAMMV6ERC.sol\":3749:3753  1000 */\n      0x03e8\n        /* \"W6/simpleAMM/src/simpleAMMV6ERC.sol\":3736:3745  _slipLock */\n      dup4\n        /* \"W6/simpleAMM/src/simpleAMMV6ERC.sol\":3729:3733  1000 */\n      0x03e8\n        /* \"W6/simpleAMM/src/simpleAMMV6ERC.sol\":3729:3745  1000 - _slipLock */\n      tag_294\n      swap2\n      swap1\n      tag_167\n      jump\t// in\n    tag_294:\n        /* \"W6/simpleAMM/src/simpleAMMV6ERC.sol\":3711:3725  _forwardOutput */\n      dup6\n        /* \"W6/simpleAMM/src/simpleAMMV6ERC.sol\":3711:3746  _forwardOutput * (1000 - _slipLock) */\n      tag_295\n      swap2\n      swap1\n      tag_110\n      jump\t// in\n    tag_295:\n        /* \"W6/simpleAMM/src/simpleAMMV6ERC.sol\":3711:3753  _forwardOutput * (1000 - _slipLock) / 1000 */\n      tag_296\n      swap2\n      swap1\n      tag_112\n      jump\t// in\n    tag_296:\n        /* \"W6/simpleAMM/src/simpleAMMV6ERC.sol\":3697:3706  amountOut */\n      dup3\n        /* \"W6/simpleAMM/src/simpleAMMV6ERC.sol\":3697:3754  amountOut >= (_forwardOutput * (1000 - _slipLock) / 1000) */\n      lt\n      iszero\n        /* \"W6/simpleAMM/src/simpleAMMV6ERC.sol\":3689:3767  require(amountOut >= (_forwardOutput * (1000 - _slipLock) / 1000), \"SlipLock\") */\n      tag_297\n      jumpi\n      mload(0x40)\n      0x08c379a000000000000000000000000000000000000000000000000000000000\n      dup2\n      mstore\n      0x04\n      add\n      tag_298\n      swap1\n      tag_172\n      jump\t// in\n    tag_298:\n      mload(0x40)\n      dup1\n      swap2\n      sub\n      swap1\n      revert\n    tag_297:\n        /* \"W6/simpleAMM/src/simpleAMMV6ERC.sol\":3778:3800  uint256 feeToDeveloper */\n      0x00\n        /* \"W6/simpleAMM/src/simpleAMMV6ERC.sol\":3845:3849  2000 */\n      0x07d0\n        /* \"W6/simpleAMM/src/simpleAMMV6ERC.sol\":3834:3842  reserve0 */\n      sload(0x01)\n        /* \"W6/simpleAMM/src/simpleAMMV6ERC.sol\":3834:3849  reserve0 * 2000 */\n      tag_299\n      swap2\n      swap1\n      tag_110\n      jump\t// in\n    tag_299:\n        /* \"W6/simpleAMM/src/simpleAMMV6ERC.sol\":3819:3830  totalSupply */\n      sload(0x03)\n        /* \"W6/simpleAMM/src/simpleAMMV6ERC.sol\":3815:3816  3 */\n      0x03\n        /* \"W6/simpleAMM/src/simpleAMMV6ERC.sol\":3803:3812  _amountIn */\n      dup9\n        /* \"W6/simpleAMM/src/simpleAMMV6ERC.sol\":3803:3816  _amountIn * 3 */\n      tag_300\n      swap2\n      swap1\n      tag_110\n      jump\t// in\n    tag_300:\n        /* \"W6/simpleAMM/src/simpleAMMV6ERC.sol\":3803:3830  _amountIn * 3 * totalSupply */\n      tag_301\n      swap2\n      swap1\n      tag_110\n      jump\t// in\n    tag_301:\n        /* \"W6/simpleAMM/src/simpleAMMV6ERC.sol\":3803:3850  _amountIn * 3 * totalSupply / (reserve0 * 2000) */\n      tag_302\n      swap2\n      swap1\n      tag_112\n      jump\t// in\n    tag_302:\n        /* \"W6/simpleAMM/src/simpleAMMV6ERC.sol\":3778:3850  uint256 feeToDeveloper = _amountIn * 3 * totalSupply / (reserve0 * 2000) */\n      swap1\n      pop\n        /* \"W6/simpleAMM/src/simpleAMMV6ERC.sol\":3861:3893  _mint(developer, feeToDeveloper) */\n      tag_303\n        /* \"W6/simpleAMM/src/simpleAMMV6ERC.sol\":3867:3876  developer */\n      0x00\n      dup1\n      sload\n      swap1\n      0x0100\n      exp\n      swap1\n      div\n      0xffffffffffffffffffffffffffffffffffffffff\n      and\n        /* \"W6/simpleAMM/src/simpleAMMV6ERC.sol\":3878:3892  feeToDeveloper */\n      dup3\n        /* \"W6/simpleAMM/src/simpleAMMV6ERC.sol\":3861:3866  _mint */\n      tag_125\n        /* \"W6/simpleAMM/src/simpleAMMV6ERC.sol\":3861:3893  _mint(developer, feeToDeveloper) */\n      jump\t// in\n    tag_303:\n        /* \"W6/simpleAMM/src/simpleAMMV6ERC.sol\":3940:3946  token1 */\n      immutable(\"0x4bab0814faad1725fc18a3cfa3a1fcb95c36a46cacb7a7312c3d38e6b447adac\")\n        /* \"W6/simpleAMM/src/simpleAMMV6ERC.sol\":3940:3955  token1.transfer */\n      0xffffffffffffffffffffffffffffffffffffffff\n      and\n      0xa9059cbb\n        /* \"W6/simpleAMM/src/simpleAMMV6ERC.sol\":3956:3966  msg.sender */\n      caller\n        /* \"W6/simpleAMM/src/simpleAMMV6ERC.sol\":3968:3977  amountOut */\n      dup6\n        /* \"W6/simpleAMM/src/simpleAMMV6ERC.sol\":3940:3978  token1.transfer(msg.sender, amountOut) */\n      mload(0x40)\n      dup4\n      0xffffffff\n      and\n      0xe0\n      shl\n      dup2\n      mstore\n      0x04\n      add\n      tag_304\n      swap3\n      swap2\n      swap1\n      tag_127\n      jump\t// in\n    tag_304:\n      0x20\n      mload(0x40)\n      dup1\n      dup4\n      sub\n      dup2\n      0x00\n      dup8\n      gas\n      call\n      iszero\n      dup1\n      iszero\n      tag_306\n      jumpi\n      returndatasize\n      0x00\n      dup1\n      returndatacopy\n      revert(0x00, returndatasize)\n    tag_306:\n      pop\n      pop\n      pop\n      pop\n      mload(0x40)\n      returndatasize\n      not(0x1f)\n      0x1f\n      dup3\n      add\n      and\n      dup3\n      add\n      dup1\n      0x40\n      mstore\n      pop\n      dup2\n      add\n      swap1\n      tag_307\n      swap2\n      swap1\n      tag_108\n      jump\t// in\n    tag_307:\n      pop\n        /* \"W6/simpleAMM/src/simpleAMMV6ERC.sol\":3991:4064  _update(token0.balanceOf(address(this)), token1.balanceOf(address(this))) */\n      tag_308\n        /* \"W6/simpleAMM/src/simpleAMMV6ERC.sol\":3999:4005  token0 */\n      immutable(\"0xe9ec5ebbfe521ba5a70e4c2b13332e74dda4e055153dc29723307e62e8ed0f2a\")\n        /* \"W6/simpleAMM/src/simpleAMMV6ERC.sol\":3999:4015  token0.balanceOf */\n      0xffffffffffffffffffffffffffffffffffffffff\n      and\n      0x70a08231\n        /* \"W6/simpleAMM/src/simpleAMMV6ERC.sol\":4024:4028  this */\n      address\n        /* \"W6/simpleAMM/src/simpleAMMV6ERC.sol\":3999:4030  token0.balanceOf(address(this)) */\n      mload(0x40)\n      dup3\n      0xffffffff\n      and\n      0xe0\n      shl\n      dup2\n      mstore\n      0x04\n      add\n      tag_309\n      swap2\n      swap1\n      tag_133\n      jump\t// in\n    tag_309:\n      0x20\n      mload(0x40)\n      dup1\n      dup4\n      sub\n      dup2\n      dup7\n      gas\n      staticcall\n      iszero\n      dup1\n      iszero\n      tag_311\n      jumpi\n      returndatasize\n      0x00\n      dup1\n      returndatacopy\n      revert(0x00, returndatasize)\n    tag_311:\n      pop\n      pop\n      pop\n      pop\n      mload(0x40)\n      returndatasize\n      not(0x1f)\n      0x1f\n      dup3\n      add\n      and\n      dup3\n      add\n      dup1\n      0x40\n      mstore\n      pop\n      dup2\n      add\n      swap1\n      tag_312\n      swap2\n      swap1\n      tag_137\n      jump\t// in\n    tag_312:\n        /* \"W6/simpleAMM/src/simpleAMMV6ERC.sol\":4032:4038  token1 */\n      immutable(\"0x4bab0814faad1725fc18a3cfa3a1fcb95c36a46cacb7a7312c3d38e6b447adac\")\n        /* \"W6/simpleAMM/src/simpleAMMV6ERC.sol\":4032:4048  token1.balanceOf */\n      0xffffffffffffffffffffffffffffffffffffffff\n      and\n      0x70a08231\n        /* \"W6/simpleAMM/src/simpleAMMV6ERC.sol\":4057:4061  this */\n      address\n        /* \"W6/simpleAMM/src/simpleAMMV6ERC.sol\":4032:4063  token1.balanceOf(address(this)) */\n      mload(0x40)\n      dup3\n      0xffffffff\n      and\n      0xe0\n      shl\n      dup2\n      mstore\n      0x04\n      add\n      tag_313\n      swap2\n      swap1\n      tag_133\n      jump\t// in\n    tag_313:\n      0x20\n      mload(0x40)\n      dup1\n      dup4\n      sub\n      dup2\n      dup7\n      gas\n      staticcall\n      iszero\n      dup1\n      iszero\n      tag_315\n      jumpi\n      returndatasize\n      0x00\n      dup1\n      returndatacopy\n      revert(0x00, returndatasize)\n    tag_315:\n      pop\n      pop\n      pop\n      pop\n      mload(0x40)\n      returndatasize\n      not(0x1f)\n      0x1f\n      dup3\n      add\n      and\n      dup3\n      add\n      dup1\n      0x40\n      mstore\n      pop\n      dup2\n      add\n      swap1\n      tag_316\n      swap2\n      swap1\n      tag_137\n      jump\t// in\n    tag_316:\n        /* \"W6/simpleAMM/src/simpleAMMV6ERC.sol\":3991:3998  _update */\n      tag_142\n        /* \"W6/simpleAMM/src/simpleAMMV6ERC.sol\":3991:4064  _update(token0.balanceOf(address(this)), token1.balanceOf(address(this))) */\n      jump\t// in\n    tag_308:\n        /* \"W6/simpleAMM/src/simpleAMMV6ERC.sol\":3402:4072  {... */\n      pop\n      pop\n        /* \"W6/simpleAMM/src/simpleAMMV6ERC.sol\":3230:4072  function swapTokenForToken1_WithSlipLock(... */\n      swap4\n      swap3\n      pop\n      pop\n      pop\n      jump\t// out\n        /* \"W6/simpleAMM/src/simpleAMMV6ERC.sol\":366:396  IERC20 public immutable token1 */\n    tag_93:\n      immutable(\"0x4bab0814faad1725fc18a3cfa3a1fcb95c36a46cacb7a7312c3d38e6b447adac\")\n      dup2\n      jump\t// out\n        /* \"W6/simpleAMM/src/simpleAMMV6ERC.sol\":6182:6287  function sharesOf(address _user) public view returns (uint256) {... */\n    tag_97:\n        /* \"W6/simpleAMM/src/simpleAMMV6ERC.sol\":6236:6243  uint256 */\n      0x00\n        /* \"W6/simpleAMM/src/simpleAMMV6ERC.sol\":6263:6272  balanceOf */\n      0x04\n        /* \"W6/simpleAMM/src/simpleAMMV6ERC.sol\":6263:6279  balanceOf[_user] */\n      0x00\n        /* \"W6/simpleAMM/src/simpleAMMV6ERC.sol\":6273:6278  _user */\n      dup4\n        /* \"W6/simpleAMM/src/simpleAMMV6ERC.sol\":6263:6279  balanceOf[_user] */\n      0xffffffffffffffffffffffffffffffffffffffff\n      and\n      0xffffffffffffffffffffffffffffffffffffffff\n      and\n      dup2\n      mstore\n      0x20\n      add\n      swap1\n      dup2\n      mstore\n      0x20\n      add\n      0x00\n      keccak256\n      sload\n        /* \"W6/simpleAMM/src/simpleAMMV6ERC.sol\":6256:6279  return balanceOf[_user] */\n      swap1\n      pop\n        /* \"W6/simpleAMM/src/simpleAMMV6ERC.sol\":6182:6287  function sharesOf(address _user) public view returns (uint256) {... */\n      swap2\n      swap1\n      pop\n      jump\t// out\n        /* \"W6/simpleAMM/src/simpleAMMV6ERC.sol\":6614:6948  function getERCPrice() public view returns (uint256) {... */\n    tag_100:\n        /* \"W6/simpleAMM/src/simpleAMMV6ERC.sol\":6658:6665  uint256 */\n      0x00\n        /* \"W6/simpleAMM/src/simpleAMMV6ERC.sol\":6697:6698  0 */\n      dup1\n        /* \"W6/simpleAMM/src/simpleAMMV6ERC.sol\":6686:6694  reserve0 */\n      sload(0x01)\n        /* \"W6/simpleAMM/src/simpleAMMV6ERC.sol\":6686:6698  reserve0 > 0 */\n      gt\n        /* \"W6/simpleAMM/src/simpleAMMV6ERC.sol\":6686:6714  reserve0 > 0 && reserve1 > 0 */\n      dup1\n      iszero\n      tag_319\n      jumpi\n      pop\n        /* \"W6/simpleAMM/src/simpleAMMV6ERC.sol\":6713:6714  0 */\n      0x00\n        /* \"W6/simpleAMM/src/simpleAMMV6ERC.sol\":6702:6710  reserve1 */\n      sload(0x02)\n        /* \"W6/simpleAMM/src/simpleAMMV6ERC.sol\":6702:6714  reserve1 > 0 */\n      gt\n        /* \"W6/simpleAMM/src/simpleAMMV6ERC.sol\":6686:6714  reserve0 > 0 && reserve1 > 0 */\n    tag_319:\n        /* \"W6/simpleAMM/src/simpleAMMV6ERC.sol\":6678:6735  require(reserve0 > 0 && reserve1 > 0, \"Invalid reserves\") */\n      tag_320\n      jumpi\n      mload(0x40)\n      0x08c379a000000000000000000000000000000000000000000000000000000000\n      dup2\n      mstore\n      0x04\n      add\n      tag_321\n      swap1\n      tag_148\n      jump\t// in\n    tag_321:\n      mload(0x40)\n      dup1\n      swap2\n      sub\n      swap1\n      revert\n    tag_320:\n        /* \"W6/simpleAMM/src/simpleAMMV6ERC.sol\":6746:6763  uint256 decimals0 */\n      0x00\n        /* \"W6/simpleAMM/src/simpleAMMV6ERC.sol\":6780:6786  token0 */\n      immutable(\"0xe9ec5ebbfe521ba5a70e4c2b13332e74dda4e055153dc29723307e62e8ed0f2a\")\n        /* \"W6/simpleAMM/src/simpleAMMV6ERC.sol\":6766:6797  ERC20(address(token0)).decimals */\n      0xffffffffffffffffffffffffffffffffffffffff\n      and\n      0x313ce567\n        /* \"W6/simpleAMM/src/simpleAMMV6ERC.sol\":6766:6799  ERC20(address(token0)).decimals() */\n      mload(0x40)\n      dup2\n      0xffffffff\n      and\n      0xe0\n      shl\n      dup2\n      mstore\n      0x04\n      add\n      0x20\n      mload(0x40)\n      dup1\n      dup4\n      sub\n      dup2\n      dup7\n      gas\n      staticcall\n      iszero\n      dup1\n      iszero\n      tag_323\n      jumpi\n      returndatasize\n      0x00\n      dup1\n      returndatacopy\n      revert(0x00, returndatasize)\n    tag_323:\n      pop\n      pop\n      pop\n      pop\n      mload(0x40)\n      returndatasize\n      not(0x1f)\n      0x1f\n      dup3\n      add\n      and\n      dup3\n      add\n      dup1\n      0x40\n      mstore\n      pop\n      dup2\n      add\n      swap1\n      tag_324\n      swap2\n      swap1\n      tag_325\n      jump\t// in\n    tag_324:\n        /* \"W6/simpleAMM/src/simpleAMMV6ERC.sol\":6746:6799  uint256 decimals0 = ERC20(address(token0)).decimals() */\n      0xff\n      and\n      swap1\n      pop\n        /* \"W6/simpleAMM/src/simpleAMMV6ERC.sol\":6810:6827  uint256 decimals1 */\n      0x00\n        /* \"W6/simpleAMM/src/simpleAMMV6ERC.sol\":6844:6850  token1 */\n      immutable(\"0x4bab0814faad1725fc18a3cfa3a1fcb95c36a46cacb7a7312c3d38e6b447adac\")\n        /* \"W6/simpleAMM/src/simpleAMMV6ERC.sol\":6830:6861  ERC20(address(token1)).decimals */\n      0xffffffffffffffffffffffffffffffffffffffff\n      and\n      0x313ce567\n        /* \"W6/simpleAMM/src/simpleAMMV6ERC.sol\":6830:6863  ERC20(address(token1)).decimals() */\n      mload(0x40)\n      dup2\n      0xffffffff\n      and\n      0xe0\n      shl\n      dup2\n      mstore\n      0x04\n      add\n      0x20\n      mload(0x40)\n      dup1\n      dup4\n      sub\n      dup2\n      dup7\n      gas\n      staticcall\n      iszero\n      dup1\n      iszero\n      tag_327\n      jumpi\n      returndatasize\n      0x00\n      dup1\n      returndatacopy\n      revert(0x00, returndatasize)\n    tag_327:\n      pop\n      pop\n      pop\n      pop\n      mload(0x40)\n      returndatasize\n      not(0x1f)\n      0x1f\n      dup3\n      add\n      and\n      dup3\n      add\n      dup1\n      0x40\n      mstore\n      pop\n      dup2\n      add\n      swap1\n      tag_328\n      swap2\n      swap1\n      tag_325\n      jump\t// in\n    tag_328:\n        /* \"W6/simpleAMM/src/simpleAMMV6ERC.sol\":6810:6863  uint256 decimals1 = ERC20(address(token1)).decimals() */\n      0xff\n      and\n      swap1\n      pop\n        /* \"W6/simpleAMM/src/simpleAMMV6ERC.sol\":6929:6938  decimals0 */\n      dup2\n        /* \"W6/simpleAMM/src/simpleAMMV6ERC.sol\":6925:6927  10 */\n      0x0a\n        /* \"W6/simpleAMM/src/simpleAMMV6ERC.sol\":6925:6938  10**decimals0 */\n      tag_329\n      swap2\n      swap1\n      tag_330\n      jump\t// in\n    tag_329:\n        /* \"W6/simpleAMM/src/simpleAMMV6ERC.sol\":6913:6921  reserve1 */\n      sload(0x02)\n        /* \"W6/simpleAMM/src/simpleAMMV6ERC.sol\":6913:6939  reserve1 * (10**decimals0) */\n      tag_331\n      swap2\n      swap1\n      tag_110\n      jump\t// in\n    tag_331:\n        /* \"W6/simpleAMM/src/simpleAMMV6ERC.sol\":6898:6907  decimals1 */\n      dup2\n        /* \"W6/simpleAMM/src/simpleAMMV6ERC.sol\":6894:6896  10 */\n      0x0a\n        /* \"W6/simpleAMM/src/simpleAMMV6ERC.sol\":6894:6907  10**decimals1 */\n      tag_332\n      swap2\n      swap1\n      tag_330\n      jump\t// in\n    tag_332:\n        /* \"W6/simpleAMM/src/simpleAMMV6ERC.sol\":6882:6890  reserve0 */\n      sload(0x01)\n        /* \"W6/simpleAMM/src/simpleAMMV6ERC.sol\":6882:6908  reserve0 * (10**decimals1) */\n      tag_333\n      swap2\n      swap1\n      tag_110\n      jump\t// in\n    tag_333:\n        /* \"W6/simpleAMM/src/simpleAMMV6ERC.sol\":6881:6940  (reserve0 * (10**decimals1)) / (reserve1 * (10**decimals0)) */\n      tag_334\n      swap2\n      swap1\n      tag_112\n      jump\t// in\n    tag_334:\n        /* \"W6/simpleAMM/src/simpleAMMV6ERC.sol\":6874:6940  return (reserve0 * (10**decimals1)) / (reserve1 * (10**decimals0)) */\n      swap3\n      pop\n      pop\n      pop\n        /* \"W6/simpleAMM/src/simpleAMMV6ERC.sol\":6614:6948  function getERCPrice() public view returns (uint256) {... */\n      swap1\n      jump\t// out\n        /* \"W6/simpleAMM/src/simpleAMMV6ERC.sol\":718:848  function _mint(address _to, uint256 _amount) private {... */\n    tag_125:\n        /* \"W6/simpleAMM/src/simpleAMMV6ERC.sol\":800:807  _amount */\n      dup1\n        /* \"W6/simpleAMM/src/simpleAMMV6ERC.sol\":782:791  balanceOf */\n      0x04\n        /* \"W6/simpleAMM/src/simpleAMMV6ERC.sol\":782:796  balanceOf[_to] */\n      0x00\n        /* \"W6/simpleAMM/src/simpleAMMV6ERC.sol\":792:795  _to */\n      dup5\n        /* \"W6/simpleAMM/src/simpleAMMV6ERC.sol\":782:796  balanceOf[_to] */\n      0xffffffffffffffffffffffffffffffffffffffff\n      and\n      0xffffffffffffffffffffffffffffffffffffffff\n      and\n      dup2\n      mstore\n      0x20\n      add\n      swap1\n      dup2\n      mstore\n      0x20\n      add\n      0x00\n      keccak256\n      0x00\n        /* \"W6/simpleAMM/src/simpleAMMV6ERC.sol\":782:807  balanceOf[_to] += _amount */\n      dup3\n      dup3\n      sload\n      tag_336\n      swap2\n      swap1\n      tag_114\n      jump\t// in\n    tag_336:\n      swap3\n      pop\n      pop\n      dup2\n      swap1\n      sstore\n      pop\n        /* \"W6/simpleAMM/src/simpleAMMV6ERC.sol\":833:840  _amount */\n      dup1\n        /* \"W6/simpleAMM/src/simpleAMMV6ERC.sol\":818:829  totalSupply */\n      0x03\n      0x00\n        /* \"W6/simpleAMM/src/simpleAMMV6ERC.sol\":818:840  totalSupply += _amount */\n      dup3\n      dup3\n      sload\n      tag_337\n      swap2\n      swap1\n      tag_114\n      jump\t// in\n    tag_337:\n      swap3\n      pop\n      pop\n      dup2\n      swap1\n      sstore\n      pop\n        /* \"W6/simpleAMM/src/simpleAMMV6ERC.sol\":718:848  function _mint(address _to, uint256 _amount) private {... */\n      pop\n      pop\n      jump\t// out\n        /* \"W6/simpleAMM/src/simpleAMMV6ERC.sol\":998:1131  function _update(uint256 _reserve0, uint256 _reserve1) private {... */\n    tag_142:\n        /* \"W6/simpleAMM/src/simpleAMMV6ERC.sol\":1083:1092  _reserve0 */\n      dup2\n        /* \"W6/simpleAMM/src/simpleAMMV6ERC.sol\":1072:1080  reserve0 */\n      0x01\n        /* \"W6/simpleAMM/src/simpleAMMV6ERC.sol\":1072:1092  reserve0 = _reserve0 */\n      dup2\n      swap1\n      sstore\n      pop\n        /* \"W6/simpleAMM/src/simpleAMMV6ERC.sol\":1114:1123  _reserve1 */\n      dup1\n        /* \"W6/simpleAMM/src/simpleAMMV6ERC.sol\":1103:1111  reserve1 */\n      0x02\n        /* \"W6/simpleAMM/src/simpleAMMV6ERC.sol\":1103:1123  reserve1 = _reserve1 */\n      dup2\n      swap1\n      sstore\n      pop\n        /* \"W6/simpleAMM/src/simpleAMMV6ERC.sol\":998:1131  function _update(uint256 _reserve0, uint256 _reserve1) private {... */\n      pop\n      pop\n      jump\t// out\n        /* \"W6/simpleAMM/src/simpleAMMV6ERC.sol\":5567:6071  function _removeLiquidity(address _user, uint256 _shares) internal returns (uint256 amount0, uint256 amount1) {... */\n    tag_193:\n        /* \"W6/simpleAMM/src/simpleAMMV6ERC.sol\":5643:5658  uint256 amount0 */\n      0x00\n        /* \"W6/simpleAMM/src/simpleAMMV6ERC.sol\":5660:5675  uint256 amount1 */\n      dup1\n        /* \"W6/simpleAMM/src/simpleAMMV6ERC.sol\":5721:5732  totalSupply */\n      sload(0x03)\n        /* \"W6/simpleAMM/src/simpleAMMV6ERC.sol\":5709:5717  reserve0 */\n      sload(0x01)\n        /* \"W6/simpleAMM/src/simpleAMMV6ERC.sol\":5699:5706  _shares */\n      dup5\n        /* \"W6/simpleAMM/src/simpleAMMV6ERC.sol\":5699:5717  _shares * reserve0 */\n      tag_340\n      swap2\n      swap1\n      tag_110\n      jump\t// in\n    tag_340:\n        /* \"W6/simpleAMM/src/simpleAMMV6ERC.sol\":5698:5732  (_shares * reserve0) / totalSupply */\n      tag_341\n      swap2\n      swap1\n      tag_112\n      jump\t// in\n    tag_341:\n        /* \"W6/simpleAMM/src/simpleAMMV6ERC.sol\":5688:5732  amount0 = (_shares * reserve0) / totalSupply */\n      swap2\n      pop\n        /* \"W6/simpleAMM/src/simpleAMMV6ERC.sol\":5776:5787  totalSupply */\n      sload(0x03)\n        /* \"W6/simpleAMM/src/simpleAMMV6ERC.sol\":5764:5772  reserve1 */\n      sload(0x02)\n        /* \"W6/simpleAMM/src/simpleAMMV6ERC.sol\":5754:5761  _shares */\n      dup5\n        /* \"W6/simpleAMM/src/simpleAMMV6ERC.sol\":5754:5772  _shares * reserve1 */\n      tag_342\n      swap2\n      swap1\n      tag_110\n      jump\t// in\n    tag_342:\n        /* \"W6/simpleAMM/src/simpleAMMV6ERC.sol\":5753:5787  (_shares * reserve1) / totalSupply */\n      tag_343\n      swap2\n      swap1\n      tag_112\n      jump\t// in\n    tag_343:\n        /* \"W6/simpleAMM/src/simpleAMMV6ERC.sol\":5743:5787  amount1 = (_shares * reserve1) / totalSupply */\n      swap1\n      pop\n        /* \"W6/simpleAMM/src/simpleAMMV6ERC.sol\":5816:5817  0 */\n      0x00\n        /* \"W6/simpleAMM/src/simpleAMMV6ERC.sol\":5806:5813  amount0 */\n      dup3\n        /* \"W6/simpleAMM/src/simpleAMMV6ERC.sol\":5806:5817  amount0 > 0 */\n      gt\n        /* \"W6/simpleAMM/src/simpleAMMV6ERC.sol\":5806:5832  amount0 > 0 && amount1 > 0 */\n      dup1\n      iszero\n      tag_344\n      jumpi\n      pop\n        /* \"W6/simpleAMM/src/simpleAMMV6ERC.sol\":5831:5832  0 */\n      0x00\n        /* \"W6/simpleAMM/src/simpleAMMV6ERC.sol\":5821:5828  amount1 */\n      dup2\n        /* \"W6/simpleAMM/src/simpleAMMV6ERC.sol\":5821:5832  amount1 > 0 */\n      gt\n        /* \"W6/simpleAMM/src/simpleAMMV6ERC.sol\":5806:5832  amount0 > 0 && amount1 > 0 */\n    tag_344:\n        /* \"W6/simpleAMM/src/simpleAMMV6ERC.sol\":5798:5859  require(amount0 > 0 && amount1 > 0, \"amount0 or amount1 = 0\") */\n      tag_345\n      jumpi\n      mload(0x40)\n      0x08c379a000000000000000000000000000000000000000000000000000000000\n      dup2\n      mstore\n      0x04\n      add\n      tag_346\n      swap1\n      tag_347\n      jump\t// in\n    tag_346:\n      mload(0x40)\n      dup1\n      swap2\n      sub\n      swap1\n      revert\n    tag_345:\n        /* \"W6/simpleAMM/src/simpleAMMV6ERC.sol\":5872:5893  _burn(_user, _shares) */\n      tag_348\n        /* \"W6/simpleAMM/src/simpleAMMV6ERC.sol\":5878:5883  _user */\n      dup5\n        /* \"W6/simpleAMM/src/simpleAMMV6ERC.sol\":5885:5892  _shares */\n      dup5\n        /* \"W6/simpleAMM/src/simpleAMMV6ERC.sol\":5872:5877  _burn */\n      tag_349\n        /* \"W6/simpleAMM/src/simpleAMMV6ERC.sol\":5872:5893  _burn(_user, _shares) */\n      jump\t// in\n    tag_348:\n        /* \"W6/simpleAMM/src/simpleAMMV6ERC.sol\":5904:5977  _update(token0.balanceOf(address(this)), token1.balanceOf(address(this))) */\n      tag_350\n        /* \"W6/simpleAMM/src/simpleAMMV6ERC.sol\":5912:5918  token0 */\n      immutable(\"0xe9ec5ebbfe521ba5a70e4c2b13332e74dda4e055153dc29723307e62e8ed0f2a\")\n        /* \"W6/simpleAMM/src/simpleAMMV6ERC.sol\":5912:5928  token0.balanceOf */\n      0xffffffffffffffffffffffffffffffffffffffff\n      and\n      0x70a08231\n        /* \"W6/simpleAMM/src/simpleAMMV6ERC.sol\":5937:5941  this */\n      address\n        /* \"W6/simpleAMM/src/simpleAMMV6ERC.sol\":5912:5943  token0.balanceOf(address(this)) */\n      mload(0x40)\n      dup3\n      0xffffffff\n      and\n      0xe0\n      shl\n      dup2\n      mstore\n      0x04\n      add\n      tag_351\n      swap2\n      swap1\n      tag_133\n      jump\t// in\n    tag_351:\n      0x20\n      mload(0x40)\n      dup1\n      dup4\n      sub\n      dup2\n      dup7\n      gas\n      staticcall\n      iszero\n      dup1\n      iszero\n      tag_353\n      jumpi\n      returndatasize\n      0x00\n      dup1\n      returndatacopy\n      revert(0x00, returndatasize)\n    tag_353:\n      pop\n      pop\n      pop\n      pop\n      mload(0x40)\n      returndatasize\n      not(0x1f)\n      0x1f\n      dup3\n      add\n      and\n      dup3\n      add\n      dup1\n      0x40\n      mstore\n      pop\n      dup2\n      add\n      swap1\n      tag_354\n      swap2\n      swap1\n      tag_137\n      jump\t// in\n    tag_354:\n        /* \"W6/simpleAMM/src/simpleAMMV6ERC.sol\":5945:5951  token1 */\n      immutable(\"0x4bab0814faad1725fc18a3cfa3a1fcb95c36a46cacb7a7312c3d38e6b447adac\")\n        /* \"W6/simpleAMM/src/simpleAMMV6ERC.sol\":5945:5961  token1.balanceOf */\n      0xffffffffffffffffffffffffffffffffffffffff\n      and\n      0x70a08231\n        /* \"W6/simpleAMM/src/simpleAMMV6ERC.sol\":5970:5974  this */\n      address\n        /* \"W6/simpleAMM/src/simpleAMMV6ERC.sol\":5945:5976  token1.balanceOf(address(this)) */\n      mload(0x40)\n      dup3\n      0xffffffff\n      and\n      0xe0\n      shl\n      dup2\n      mstore\n      0x04\n      add\n      tag_355\n      swap2\n      swap1\n      tag_133\n      jump\t// in\n    tag_355:\n      0x20\n      mload(0x40)\n      dup1\n      dup4\n      sub\n      dup2\n      dup7\n      gas\n      staticcall\n      iszero\n      dup1\n      iszero\n      tag_357\n      jumpi\n      returndatasize\n      0x00\n      dup1\n      returndatacopy\n      revert(0x00, returndatasize)\n    tag_357:\n      pop\n      pop\n      pop\n      pop\n      mload(0x40)\n      returndatasize\n      not(0x1f)\n      0x1f\n      dup3\n      add\n      and\n      dup3\n      add\n      dup1\n      0x40\n      mstore\n      pop\n      dup2\n      add\n      swap1\n      tag_358\n      swap2\n      swap1\n      tag_137\n      jump\t// in\n    tag_358:\n        /* \"W6/simpleAMM/src/simpleAMMV6ERC.sol\":5904:5911  _update */\n      tag_142\n        /* \"W6/simpleAMM/src/simpleAMMV6ERC.sol\":5904:5977  _update(token0.balanceOf(address(this)), token1.balanceOf(address(this))) */\n      jump\t// in\n    tag_350:\n        /* \"W6/simpleAMM/src/simpleAMMV6ERC.sol\":5990:5996  token0 */\n      immutable(\"0xe9ec5ebbfe521ba5a70e4c2b13332e74dda4e055153dc29723307e62e8ed0f2a\")\n        /* \"W6/simpleAMM/src/simpleAMMV6ERC.sol\":5990:6005  token0.transfer */\n      0xffffffffffffffffffffffffffffffffffffffff\n      and\n      0xa9059cbb\n        /* \"W6/simpleAMM/src/simpleAMMV6ERC.sol\":6006:6011  _user */\n      dup6\n        /* \"W6/simpleAMM/src/simpleAMMV6ERC.sol\":6013:6020  amount0 */\n      dup5\n        /* \"W6/simpleAMM/src/simpleAMMV6ERC.sol\":5990:6021  token0.transfer(_user, amount0) */\n      mload(0x40)\n      dup4\n      0xffffffff\n      and\n      0xe0\n      shl\n      dup2\n      mstore\n      0x04\n      add\n      tag_359\n      swap3\n      swap2\n      swap1\n      tag_127\n      jump\t// in\n    tag_359:\n      0x20\n      mload(0x40)\n      dup1\n      dup4\n      sub\n      dup2\n      0x00\n      dup8\n      gas\n      call\n      iszero\n      dup1\n      iszero\n      tag_361\n      jumpi\n      returndatasize\n      0x00\n      dup1\n      returndatacopy\n      revert(0x00, returndatasize)\n    tag_361:\n      pop\n      pop\n      pop\n      pop\n      mload(0x40)\n      returndatasize\n      not(0x1f)\n      0x1f\n      dup3\n      add\n      and\n      dup3\n      add\n      dup1\n      0x40\n      mstore\n      pop\n      dup2\n      add\n      swap1\n      tag_362\n      swap2\n      swap1\n      tag_108\n      jump\t// in\n    tag_362:\n      pop\n        /* \"W6/simpleAMM/src/simpleAMMV6ERC.sol\":6032:6038  token1 */\n      immutable(\"0x4bab0814faad1725fc18a3cfa3a1fcb95c36a46cacb7a7312c3d38e6b447adac\")\n        /* \"W6/simpleAMM/src/simpleAMMV6ERC.sol\":6032:6047  token1.transfer */\n      0xffffffffffffffffffffffffffffffffffffffff\n      and\n      0xa9059cbb\n        /* \"W6/simpleAMM/src/simpleAMMV6ERC.sol\":6048:6053  _user */\n      dup6\n        /* \"W6/simpleAMM/src/simpleAMMV6ERC.sol\":6055:6062  amount1 */\n      dup4\n        /* \"W6/simpleAMM/src/simpleAMMV6ERC.sol\":6032:6063  token1.transfer(_user, amount1) */\n      mload(0x40)\n      dup4\n      0xffffffff\n      and\n      0xe0\n      shl\n      dup2\n      mstore\n      0x04\n      add\n      tag_363\n      swap3\n      swap2\n      swap1\n      tag_127\n      jump\t// in\n    tag_363:\n      0x20\n      mload(0x40)\n      dup1\n      dup4\n      sub\n      dup2\n      0x00\n      dup8\n      gas\n      call\n      iszero\n      dup1\n      iszero\n      tag_365\n      jumpi\n      returndatasize\n      0x00\n      dup1\n      returndatacopy\n      revert(0x00, returndatasize)\n    tag_365:\n      pop\n      pop\n      pop\n      pop\n      mload(0x40)\n      returndatasize\n      not(0x1f)\n      0x1f\n      dup3\n      add\n      and\n      dup3\n      add\n      dup1\n      0x40\n      mstore\n      pop\n      dup2\n      add\n      swap1\n      tag_366\n      swap2\n      swap1\n      tag_108\n      jump\t// in\n    tag_366:\n      pop\n        /* \"W6/simpleAMM/src/simpleAMMV6ERC.sol\":5567:6071  function _removeLiquidity(address _user, uint256 _shares) internal returns (uint256 amount0, uint256 amount1) {... */\n      swap3\n      pop\n      swap3\n      swap1\n      pop\n      jump\t// out\n        /* \"W6/simpleAMM/src/simpleAMMV6ERC.sol\":6293:6606  function _sqrt(uint256 y) internal pure returns (uint256 z) {... */\n    tag_256:\n        /* \"W6/simpleAMM/src/simpleAMMV6ERC.sol\":6342:6351  uint256 z */\n      0x00\n        /* \"W6/simpleAMM/src/simpleAMMV6ERC.sol\":6372:6373  3 */\n      0x03\n        /* \"W6/simpleAMM/src/simpleAMMV6ERC.sol\":6368:6369  y */\n      dup3\n        /* \"W6/simpleAMM/src/simpleAMMV6ERC.sol\":6368:6373  y > 3 */\n      gt\n        /* \"W6/simpleAMM/src/simpleAMMV6ERC.sol\":6364:6599  if (y > 3) {... */\n      iszero\n      tag_368\n      jumpi\n        /* \"W6/simpleAMM/src/simpleAMMV6ERC.sol\":6394:6395  y */\n      dup2\n        /* \"W6/simpleAMM/src/simpleAMMV6ERC.sol\":6390:6395  z = y */\n      swap1\n      pop\n        /* \"W6/simpleAMM/src/simpleAMMV6ERC.sol\":6410:6419  uint256 x */\n      0x00\n        /* \"W6/simpleAMM/src/simpleAMMV6ERC.sol\":6430:6431  1 */\n      0x01\n        /* \"W6/simpleAMM/src/simpleAMMV6ERC.sol\":6426:6427  2 */\n      0x02\n        /* \"W6/simpleAMM/src/simpleAMMV6ERC.sol\":6422:6423  y */\n      dup5\n        /* \"W6/simpleAMM/src/simpleAMMV6ERC.sol\":6422:6427  y / 2 */\n      tag_369\n      swap2\n      swap1\n      tag_112\n      jump\t// in\n    tag_369:\n        /* \"W6/simpleAMM/src/simpleAMMV6ERC.sol\":6422:6431  y / 2 + 1 */\n      tag_370\n      swap2\n      swap1\n      tag_114\n      jump\t// in\n    tag_370:\n        /* \"W6/simpleAMM/src/simpleAMMV6ERC.sol\":6410:6431  uint256 x = y / 2 + 1 */\n      swap1\n      pop\n        /* \"W6/simpleAMM/src/simpleAMMV6ERC.sol\":6446:6538  while (x < z) {... */\n    tag_371:\n        /* \"W6/simpleAMM/src/simpleAMMV6ERC.sol\":6457:6458  z */\n      dup2\n        /* \"W6/simpleAMM/src/simpleAMMV6ERC.sol\":6453:6454  x */\n      dup2\n        /* \"W6/simpleAMM/src/simpleAMMV6ERC.sol\":6453:6458  x < z */\n      lt\n        /* \"W6/simpleAMM/src/simpleAMMV6ERC.sol\":6446:6538  while (x < z) {... */\n      iszero\n      tag_372\n      jumpi\n        /* \"W6/simpleAMM/src/simpleAMMV6ERC.sol\":6483:6484  x */\n      dup1\n        /* \"W6/simpleAMM/src/simpleAMMV6ERC.sol\":6479:6484  z = x */\n      swap2\n      pop\n        /* \"W6/simpleAMM/src/simpleAMMV6ERC.sol\":6521:6522  2 */\n      0x02\n        /* \"W6/simpleAMM/src/simpleAMMV6ERC.sol\":6516:6517  x */\n      dup2\n        /* \"W6/simpleAMM/src/simpleAMMV6ERC.sol\":6512:6513  x */\n      dup3\n        /* \"W6/simpleAMM/src/simpleAMMV6ERC.sol\":6508:6509  y */\n      dup6\n        /* \"W6/simpleAMM/src/simpleAMMV6ERC.sol\":6508:6513  y / x */\n      tag_373\n      swap2\n      swap1\n      tag_112\n      jump\t// in\n    tag_373:\n        /* \"W6/simpleAMM/src/simpleAMMV6ERC.sol\":6508:6517  y / x + x */\n      tag_374\n      swap2\n      swap1\n      tag_114\n      jump\t// in\n    tag_374:\n        /* \"W6/simpleAMM/src/simpleAMMV6ERC.sol\":6507:6522  (y / x + x) / 2 */\n      tag_375\n      swap2\n      swap1\n      tag_112\n      jump\t// in\n    tag_375:\n        /* \"W6/simpleAMM/src/simpleAMMV6ERC.sol\":6503:6522  x = (y / x + x) / 2 */\n      swap1\n      pop\n        /* \"W6/simpleAMM/src/simpleAMMV6ERC.sol\":6446:6538  while (x < z) {... */\n      jump(tag_371)\n    tag_372:\n        /* \"W6/simpleAMM/src/simpleAMMV6ERC.sol\":6375:6549  {... */\n      pop\n        /* \"W6/simpleAMM/src/simpleAMMV6ERC.sol\":6364:6599  if (y > 3) {... */\n      jump(tag_376)\n    tag_368:\n        /* \"W6/simpleAMM/src/simpleAMMV6ERC.sol\":6564:6565  0 */\n      0x00\n        /* \"W6/simpleAMM/src/simpleAMMV6ERC.sol\":6559:6560  y */\n      dup3\n        /* \"W6/simpleAMM/src/simpleAMMV6ERC.sol\":6559:6565  y != 0 */\n      eq\n        /* \"W6/simpleAMM/src/simpleAMMV6ERC.sol\":6555:6599  if (y != 0) {... */\n      tag_377\n      jumpi\n        /* \"W6/simpleAMM/src/simpleAMMV6ERC.sol\":6586:6587  1 */\n      0x01\n        /* \"W6/simpleAMM/src/simpleAMMV6ERC.sol\":6582:6587  z = 1 */\n      swap1\n      pop\n        /* \"W6/simpleAMM/src/simpleAMMV6ERC.sol\":6555:6599  if (y != 0) {... */\n    tag_377:\n        /* \"W6/simpleAMM/src/simpleAMMV6ERC.sol\":6364:6599  if (y > 3) {... */\n    tag_376:\n        /* \"W6/simpleAMM/src/simpleAMMV6ERC.sol\":6293:6606  function _sqrt(uint256 y) internal pure returns (uint256 z) {... */\n      swap2\n      swap1\n      pop\n      jump\t// out\n        /* \"@openzeppelin/contracts/utils/math/Math.sol\":588:692  function min(uint256 a, uint256 b) internal pure returns (uint256) {... */\n    tag_263:\n        /* \"@openzeppelin/contracts/utils/math/Math.sol\":646:653  uint256 */\n      0x00\n        /* \"@openzeppelin/contracts/utils/math/Math.sol\":676:677  b */\n      dup2\n        /* \"@openzeppelin/contracts/utils/math/Math.sol\":672:673  a */\n      dup4\n        /* \"@openzeppelin/contracts/utils/math/Math.sol\":672:677  a < b */\n      lt\n        /* \"@openzeppelin/contracts/utils/math/Math.sol\":672:685  a < b ? a : b */\n      tag_379\n      jumpi\n        /* \"@openzeppelin/contracts/utils/math/Math.sol\":684:685  b */\n      dup2\n        /* \"@openzeppelin/contracts/utils/math/Math.sol\":672:685  a < b ? a : b */\n      jump(tag_380)\n    tag_379:\n        /* \"@openzeppelin/contracts/utils/math/Math.sol\":680:681  a */\n      dup3\n        /* \"@openzeppelin/contracts/utils/math/Math.sol\":672:685  a < b ? a : b */\n    tag_380:\n        /* \"@openzeppelin/contracts/utils/math/Math.sol\":665:685  return a < b ? a : b */\n      swap1\n      pop\n        /* \"@openzeppelin/contracts/utils/math/Math.sol\":588:692  function min(uint256 a, uint256 b) internal pure returns (uint256) {... */\n      swap3\n      swap2\n      pop\n      pop\n      jump\t// out\n        /* \"W6/simpleAMM/src/simpleAMMV6ERC.sol\":856:990  function _burn(address _from, uint256 _amount) private {... */\n    tag_349:\n        /* \"W6/simpleAMM/src/simpleAMMV6ERC.sol\":942:949  _amount */\n      dup1\n        /* \"W6/simpleAMM/src/simpleAMMV6ERC.sol\":922:931  balanceOf */\n      0x04\n        /* \"W6/simpleAMM/src/simpleAMMV6ERC.sol\":922:938  balanceOf[_from] */\n      0x00\n        /* \"W6/simpleAMM/src/simpleAMMV6ERC.sol\":932:937  _from */\n      dup5\n        /* \"W6/simpleAMM/src/simpleAMMV6ERC.sol\":922:938  balanceOf[_from] */\n      0xffffffffffffffffffffffffffffffffffffffff\n      and\n      0xffffffffffffffffffffffffffffffffffffffff\n      and\n      dup2\n      mstore\n      0x20\n      add\n      swap1\n      dup2\n      mstore\n      0x20\n      add\n      0x00\n      keccak256\n      0x00\n        /* \"W6/simpleAMM/src/simpleAMMV6ERC.sol\":922:949  balanceOf[_from] -= _amount */\n      dup3\n      dup3\n      sload\n      tag_382\n      swap2\n      swap1\n      tag_167\n      jump\t// in\n    tag_382:\n      swap3\n      pop\n      pop\n      dup2\n      swap1\n      sstore\n      pop\n        /* \"W6/simpleAMM/src/simpleAMMV6ERC.sol\":975:982  _amount */\n      dup1\n        /* \"W6/simpleAMM/src/simpleAMMV6ERC.sol\":960:971  totalSupply */\n      0x03\n      0x00\n        /* \"W6/simpleAMM/src/simpleAMMV6ERC.sol\":960:982  totalSupply -= _amount */\n      dup3\n      dup3\n      sload\n      tag_383\n      swap2\n      swap1\n      tag_167\n      jump\t// in\n    tag_383:\n      swap3\n      pop\n      pop\n      dup2\n      swap1\n      sstore\n      pop\n        /* \"W6/simpleAMM/src/simpleAMMV6ERC.sol\":856:990  function _burn(address _from, uint256 _amount) private {... */\n      pop\n      pop\n      jump\t// out\n        /* \"#utility.yul\":7:133   */\n    tag_384:\n        /* \"#utility.yul\":44:51   */\n      0x00\n        /* \"#utility.yul\":84:126   */\n      0xffffffffffffffffffffffffffffffffffffffff\n        /* \"#utility.yul\":77:82   */\n      dup3\n        /* \"#utility.yul\":73:127   */\n      and\n        /* \"#utility.yul\":62:127   */\n      swap1\n      pop\n        /* \"#utility.yul\":7:133   */\n      swap2\n      swap1\n      pop\n      jump\t// out\n        /* \"#utility.yul\":139:199   */\n    tag_385:\n        /* \"#utility.yul\":167:170   */\n      0x00\n        /* \"#utility.yul\":188:193   */\n      dup2\n        /* \"#utility.yul\":181:193   */\n      swap1\n      pop\n        /* \"#utility.yul\":139:199   */\n      swap2\n      swap1\n      pop\n      jump\t// out\n        /* \"#utility.yul\":205:347   */\n    tag_386:\n        /* \"#utility.yul\":255:264   */\n      0x00\n        /* \"#utility.yul\":288:341   */\n      tag_432\n        /* \"#utility.yul\":306:340   */\n      tag_433\n        /* \"#utility.yul\":315:339   */\n      tag_434\n        /* \"#utility.yul\":333:338   */\n      dup5\n        /* \"#utility.yul\":315:339   */\n      tag_384\n      jump\t// in\n    tag_434:\n        /* \"#utility.yul\":306:340   */\n      tag_385\n      jump\t// in\n    tag_433:\n        /* \"#utility.yul\":288:341   */\n      tag_384\n      jump\t// in\n    tag_432:\n        /* \"#utility.yul\":275:341   */\n      swap1\n      pop\n        /* \"#utility.yul\":205:347   */\n      swap2\n      swap1\n      pop\n      jump\t// out\n        /* \"#utility.yul\":353:479   */\n    tag_387:\n        /* \"#utility.yul\":403:412   */\n      0x00\n        /* \"#utility.yul\":436:473   */\n      tag_436\n        /* \"#utility.yul\":467:472   */\n      dup3\n        /* \"#utility.yul\":436:473   */\n      tag_386\n      jump\t// in\n    tag_436:\n        /* \"#utility.yul\":423:473   */\n      swap1\n      pop\n        /* \"#utility.yul\":353:479   */\n      swap2\n      swap1\n      pop\n      jump\t// out\n        /* \"#utility.yul\":485:625   */\n    tag_388:\n        /* \"#utility.yul\":549:558   */\n      0x00\n        /* \"#utility.yul\":582:619   */\n      tag_438\n        /* \"#utility.yul\":613:618   */\n      dup3\n        /* \"#utility.yul\":582:619   */\n      tag_387\n      jump\t// in\n    tag_438:\n        /* \"#utility.yul\":569:619   */\n      swap1\n      pop\n        /* \"#utility.yul\":485:625   */\n      swap2\n      swap1\n      pop\n      jump\t// out\n        /* \"#utility.yul\":631:790   */\n    tag_389:\n        /* \"#utility.yul\":732:783   */\n      tag_440\n        /* \"#utility.yul\":777:782   */\n      dup2\n        /* \"#utility.yul\":732:783   */\n      tag_388\n      jump\t// in\n    tag_440:\n        /* \"#utility.yul\":727:730   */\n      dup3\n        /* \"#utility.yul\":720:784   */\n      mstore\n        /* \"#utility.yul\":631:790   */\n      pop\n      pop\n      jump\t// out\n        /* \"#utility.yul\":796:1046   */\n    tag_28:\n        /* \"#utility.yul\":903:907   */\n      0x00\n        /* \"#utility.yul\":941:943   */\n      0x20\n        /* \"#utility.yul\":930:939   */\n      dup3\n        /* \"#utility.yul\":926:944   */\n      add\n        /* \"#utility.yul\":918:944   */\n      swap1\n      pop\n        /* \"#utility.yul\":954:1039   */\n      tag_442\n        /* \"#utility.yul\":1036:1037   */\n      0x00\n        /* \"#utility.yul\":1025:1034   */\n      dup4\n        /* \"#utility.yul\":1021:1038   */\n      add\n        /* \"#utility.yul\":1012:1018   */\n      dup5\n        /* \"#utility.yul\":954:1039   */\n      tag_389\n      jump\t// in\n    tag_442:\n        /* \"#utility.yul\":796:1046   */\n      swap3\n      swap2\n      pop\n      pop\n      jump\t// out\n        /* \"#utility.yul\":1052:1129   */\n    tag_390:\n        /* \"#utility.yul\":1089:1096   */\n      0x00\n        /* \"#utility.yul\":1118:1123   */\n      dup2\n        /* \"#utility.yul\":1107:1123   */\n      swap1\n      pop\n        /* \"#utility.yul\":1052:1129   */\n      swap2\n      swap1\n      pop\n      jump\t// out\n        /* \"#utility.yul\":1135:1253   */\n    tag_391:\n        /* \"#utility.yul\":1222:1246   */\n      tag_445\n        /* \"#utility.yul\":1240:1245   */\n      dup2\n        /* \"#utility.yul\":1222:1246   */\n      tag_390\n      jump\t// in\n    tag_445:\n        /* \"#utility.yul\":1217:1220   */\n      dup3\n        /* \"#utility.yul\":1210:1247   */\n      mstore\n        /* \"#utility.yul\":1135:1253   */\n      pop\n      pop\n      jump\t// out\n        /* \"#utility.yul\":1259:1481   */\n    tag_32:\n        /* \"#utility.yul\":1352:1356   */\n      0x00\n        /* \"#utility.yul\":1390:1392   */\n      0x20\n        /* \"#utility.yul\":1379:1388   */\n      dup3\n        /* \"#utility.yul\":1375:1393   */\n      add\n        /* \"#utility.yul\":1367:1393   */\n      swap1\n      pop\n        /* \"#utility.yul\":1403:1474   */\n      tag_447\n        /* \"#utility.yul\":1471:1472   */\n      0x00\n        /* \"#utility.yul\":1460:1469   */\n      dup4\n        /* \"#utility.yul\":1456:1473   */\n      add\n        /* \"#utility.yul\":1447:1453   */\n      dup5\n        /* \"#utility.yul\":1403:1474   */\n      tag_391\n      jump\t// in\n    tag_447:\n        /* \"#utility.yul\":1259:1481   */\n      swap3\n      swap2\n      pop\n      pop\n      jump\t// out\n        /* \"#utility.yul\":1568:1685   */\n    tag_393:\n        /* \"#utility.yul\":1677:1678   */\n      0x00\n        /* \"#utility.yul\":1674:1675   */\n      dup1\n        /* \"#utility.yul\":1667:1679   */\n      revert\n        /* \"#utility.yul\":1814:1936   */\n    tag_395:\n        /* \"#utility.yul\":1887:1911   */\n      tag_452\n        /* \"#utility.yul\":1905:1910   */\n      dup2\n        /* \"#utility.yul\":1887:1911   */\n      tag_390\n      jump\t// in\n    tag_452:\n        /* \"#utility.yul\":1880:1885   */\n      dup2\n        /* \"#utility.yul\":1877:1912   */\n      eq\n        /* \"#utility.yul\":1867:1930   */\n      tag_453\n      jumpi\n        /* \"#utility.yul\":1926:1927   */\n      0x00\n        /* \"#utility.yul\":1923:1924   */\n      dup1\n        /* \"#utility.yul\":1916:1928   */\n      revert\n        /* \"#utility.yul\":1867:1930   */\n    tag_453:\n        /* \"#utility.yul\":1814:1936   */\n      pop\n      jump\t// out\n        /* \"#utility.yul\":1942:2081   */\n    tag_396:\n        /* \"#utility.yul\":1988:1993   */\n      0x00\n        /* \"#utility.yul\":2026:2032   */\n      dup2\n        /* \"#utility.yul\":2013:2033   */\n      calldataload\n        /* \"#utility.yul\":2004:2033   */\n      swap1\n      pop\n        /* \"#utility.yul\":2042:2075   */\n      tag_455\n        /* \"#utility.yul\":2069:2074   */\n      dup2\n        /* \"#utility.yul\":2042:2075   */\n      tag_395\n      jump\t// in\n    tag_455:\n        /* \"#utility.yul\":1942:2081   */\n      swap3\n      swap2\n      pop\n      pop\n      jump\t// out\n        /* \"#utility.yul\":2087:2416   */\n    tag_38:\n        /* \"#utility.yul\":2146:2152   */\n      0x00\n        /* \"#utility.yul\":2195:2197   */\n      0x20\n        /* \"#utility.yul\":2183:2192   */\n      dup3\n        /* \"#utility.yul\":2174:2181   */\n      dup5\n        /* \"#utility.yul\":2170:2193   */\n      sub\n        /* \"#utility.yul\":2166:2198   */\n      slt\n        /* \"#utility.yul\":2163:2282   */\n      iszero\n      tag_457\n      jumpi\n        /* \"#utility.yul\":2201:2280   */\n      tag_458\n      tag_393\n      jump\t// in\n    tag_458:\n        /* \"#utility.yul\":2163:2282   */\n    tag_457:\n        /* \"#utility.yul\":2321:2322   */\n      0x00\n        /* \"#utility.yul\":2346:2399   */\n      tag_459\n        /* \"#utility.yul\":2391:2398   */\n      dup5\n        /* \"#utility.yul\":2382:2388   */\n      dup3\n        /* \"#utility.yul\":2371:2380   */\n      dup6\n        /* \"#utility.yul\":2367:2389   */\n      add\n        /* \"#utility.yul\":2346:2399   */\n      tag_396\n      jump\t// in\n    tag_459:\n        /* \"#utility.yul\":2336:2399   */\n      swap2\n      pop\n        /* \"#utility.yul\":2292:2409   */\n      pop\n        /* \"#utility.yul\":2087:2416   */\n      swap3\n      swap2\n      pop\n      pop\n      jump\t// out\n        /* \"#utility.yul\":2422:3041   */\n    tag_50:\n        /* \"#utility.yul\":2499:2505   */\n      0x00\n        /* \"#utility.yul\":2507:2513   */\n      dup1\n        /* \"#utility.yul\":2515:2521   */\n      0x00\n        /* \"#utility.yul\":2564:2566   */\n      0x60\n        /* \"#utility.yul\":2552:2561   */\n      dup5\n        /* \"#utility.yul\":2543:2550   */\n      dup7\n        /* \"#utility.yul\":2539:2562   */\n      sub\n        /* \"#utility.yul\":2535:2567   */\n      slt\n        /* \"#utility.yul\":2532:2651   */\n      iszero\n      tag_461\n      jumpi\n        /* \"#utility.yul\":2570:2649   */\n      tag_462\n      tag_393\n      jump\t// in\n    tag_462:\n        /* \"#utility.yul\":2532:2651   */\n    tag_461:\n        /* \"#utility.yul\":2690:2691   */\n      0x00\n        /* \"#utility.yul\":2715:2768   */\n      tag_463\n        /* \"#utility.yul\":2760:2767   */\n      dup7\n        /* \"#utility.yul\":2751:2757   */\n      dup3\n        /* \"#utility.yul\":2740:2749   */\n      dup8\n        /* \"#utility.yul\":2736:2758   */\n      add\n        /* \"#utility.yul\":2715:2768   */\n      tag_396\n      jump\t// in\n    tag_463:\n        /* \"#utility.yul\":2705:2768   */\n      swap4\n      pop\n        /* \"#utility.yul\":2661:2778   */\n      pop\n        /* \"#utility.yul\":2817:2819   */\n      0x20\n        /* \"#utility.yul\":2843:2896   */\n      tag_464\n        /* \"#utility.yul\":2888:2895   */\n      dup7\n        /* \"#utility.yul\":2879:2885   */\n      dup3\n        /* \"#utility.yul\":2868:2877   */\n      dup8\n        /* \"#utility.yul\":2864:2886   */\n      add\n        /* \"#utility.yul\":2843:2896   */\n      tag_396\n      jump\t// in\n    tag_464:\n        /* \"#utility.yul\":2833:2896   */\n      swap3\n      pop\n        /* \"#utility.yul\":2788:2906   */\n      pop\n        /* \"#utility.yul\":2945:2947   */\n      0x40\n        /* \"#utility.yul\":2971:3024   */\n      tag_465\n        /* \"#utility.yul\":3016:3023   */\n      dup7\n        /* \"#utility.yul\":3007:3013   */\n      dup3\n        /* \"#utility.yul\":2996:3005   */\n      dup8\n        /* \"#utility.yul\":2992:3014   */\n      add\n        /* \"#utility.yul\":2971:3024   */\n      tag_396\n      jump\t// in\n    tag_465:\n        /* \"#utility.yul\":2961:3024   */\n      swap2\n      pop\n        /* \"#utility.yul\":2916:3034   */\n      pop\n        /* \"#utility.yul\":2422:3041   */\n      swap3\n      pop\n      swap3\n      pop\n      swap3\n      jump\t// out\n        /* \"#utility.yul\":3047:3143   */\n    tag_397:\n        /* \"#utility.yul\":3084:3091   */\n      0x00\n        /* \"#utility.yul\":3113:3137   */\n      tag_467\n        /* \"#utility.yul\":3131:3136   */\n      dup3\n        /* \"#utility.yul\":3113:3137   */\n      tag_384\n      jump\t// in\n    tag_467:\n        /* \"#utility.yul\":3102:3137   */\n      swap1\n      pop\n        /* \"#utility.yul\":3047:3143   */\n      swap2\n      swap1\n      pop\n      jump\t// out\n        /* \"#utility.yul\":3149:3271   */\n    tag_398:\n        /* \"#utility.yul\":3222:3246   */\n      tag_469\n        /* \"#utility.yul\":3240:3245   */\n      dup2\n        /* \"#utility.yul\":3222:3246   */\n      tag_397\n      jump\t// in\n    tag_469:\n        /* \"#utility.yul\":3215:3220   */\n      dup2\n        /* \"#utility.yul\":3212:3247   */\n      eq\n        /* \"#utility.yul\":3202:3265   */\n      tag_470\n      jumpi\n        /* \"#utility.yul\":3261:3262   */\n      0x00\n        /* \"#utility.yul\":3258:3259   */\n      dup1\n        /* \"#utility.yul\":3251:3263   */\n      revert\n        /* \"#utility.yul\":3202:3265   */\n    tag_470:\n        /* \"#utility.yul\":3149:3271   */\n      pop\n      jump\t// out\n        /* \"#utility.yul\":3277:3416   */\n    tag_399:\n        /* \"#utility.yul\":3323:3328   */\n      0x00\n        /* \"#utility.yul\":3361:3367   */\n      dup2\n        /* \"#utility.yul\":3348:3368   */\n      calldataload\n        /* \"#utility.yul\":3339:3368   */\n      swap1\n      pop\n        /* \"#utility.yul\":3377:3410   */\n      tag_472\n        /* \"#utility.yul\":3404:3409   */\n      dup2\n        /* \"#utility.yul\":3377:3410   */\n      tag_398\n      jump\t// in\n    tag_472:\n        /* \"#utility.yul\":3277:3416   */\n      swap3\n      swap2\n      pop\n      pop\n      jump\t// out\n        /* \"#utility.yul\":3422:3751   */\n    tag_55:\n        /* \"#utility.yul\":3481:3487   */\n      0x00\n        /* \"#utility.yul\":3530:3532   */\n      0x20\n        /* \"#utility.yul\":3518:3527   */\n      dup3\n        /* \"#utility.yul\":3509:3516   */\n      dup5\n        /* \"#utility.yul\":3505:3528   */\n      sub\n        /* \"#utility.yul\":3501:3533   */\n      slt\n        /* \"#utility.yul\":3498:3617   */\n      iszero\n      tag_474\n      jumpi\n        /* \"#utility.yul\":3536:3615   */\n      tag_475\n      tag_393\n      jump\t// in\n    tag_475:\n        /* \"#utility.yul\":3498:3617   */\n    tag_474:\n        /* \"#utility.yul\":3656:3657   */\n      0x00\n        /* \"#utility.yul\":3681:3734   */\n      tag_476\n        /* \"#utility.yul\":3726:3733   */\n      dup5\n        /* \"#utility.yul\":3717:3723   */\n      dup3\n        /* \"#utility.yul\":3706:3715   */\n      dup6\n        /* \"#utility.yul\":3702:3724   */\n      add\n        /* \"#utility.yul\":3681:3734   */\n      tag_399\n      jump\t// in\n    tag_476:\n        /* \"#utility.yul\":3671:3734   */\n      swap2\n      pop\n        /* \"#utility.yul\":3627:3744   */\n      pop\n        /* \"#utility.yul\":3422:3751   */\n      swap3\n      swap2\n      pop\n      pop\n      jump\t// out\n        /* \"#utility.yul\":3757:4089   */\n    tag_62:\n        /* \"#utility.yul\":3878:3882   */\n      0x00\n        /* \"#utility.yul\":3916:3918   */\n      0x40\n        /* \"#utility.yul\":3905:3914   */\n      dup3\n        /* \"#utility.yul\":3901:3919   */\n      add\n        /* \"#utility.yul\":3893:3919   */\n      swap1\n      pop\n        /* \"#utility.yul\":3929:4000   */\n      tag_478\n        /* \"#utility.yul\":3997:3998   */\n      0x00\n        /* \"#utility.yul\":3986:3995   */\n      dup4\n        /* \"#utility.yul\":3982:3999   */\n      add\n        /* \"#utility.yul\":3973:3979   */\n      dup6\n        /* \"#utility.yul\":3929:4000   */\n      tag_391\n      jump\t// in\n    tag_478:\n        /* \"#utility.yul\":4010:4082   */\n      tag_479\n        /* \"#utility.yul\":4078:4080   */\n      0x20\n        /* \"#utility.yul\":4067:4076   */\n      dup4\n        /* \"#utility.yul\":4063:4081   */\n      add\n        /* \"#utility.yul\":4054:4060   */\n      dup5\n        /* \"#utility.yul\":4010:4082   */\n      tag_391\n      jump\t// in\n    tag_479:\n        /* \"#utility.yul\":3757:4089   */\n      swap4\n      swap3\n      pop\n      pop\n      pop\n      jump\t// out\n        /* \"#utility.yul\":4095:4569   */\n    tag_77:\n        /* \"#utility.yul\":4163:4169   */\n      0x00\n        /* \"#utility.yul\":4171:4177   */\n      dup1\n        /* \"#utility.yul\":4220:4222   */\n      0x40\n        /* \"#utility.yul\":4208:4217   */\n      dup4\n        /* \"#utility.yul\":4199:4206   */\n      dup6\n        /* \"#utility.yul\":4195:4218   */\n      sub\n        /* \"#utility.yul\":4191:4223   */\n      slt\n        /* \"#utility.yul\":4188:4307   */\n      iszero\n      tag_481\n      jumpi\n        /* \"#utility.yul\":4226:4305   */\n      tag_482\n      tag_393\n      jump\t// in\n    tag_482:\n        /* \"#utility.yul\":4188:4307   */\n    tag_481:\n        /* \"#utility.yul\":4346:4347   */\n      0x00\n        /* \"#utility.yul\":4371:4424   */\n      tag_483\n        /* \"#utility.yul\":4416:4423   */\n      dup6\n        /* \"#utility.yul\":4407:4413   */\n      dup3\n        /* \"#utility.yul\":4396:4405   */\n      dup7\n        /* \"#utility.yul\":4392:4414   */\n      add\n        /* \"#utility.yul\":4371:4424   */\n      tag_396\n      jump\t// in\n    tag_483:\n        /* \"#utility.yul\":4361:4424   */\n      swap3\n      pop\n        /* \"#utility.yul\":4317:4434   */\n      pop\n        /* \"#utility.yul\":4473:4475   */\n      0x20\n        /* \"#utility.yul\":4499:4552   */\n      tag_484\n        /* \"#utility.yul\":4544:4551   */\n      dup6\n        /* \"#utility.yul\":4535:4541   */\n      dup3\n        /* \"#utility.yul\":4524:4533   */\n      dup7\n        /* \"#utility.yul\":4520:4542   */\n      add\n        /* \"#utility.yul\":4499:4552   */\n      tag_396\n      jump\t// in\n    tag_484:\n        /* \"#utility.yul\":4489:4552   */\n      swap2\n      pop\n        /* \"#utility.yul\":4444:4562   */\n      pop\n        /* \"#utility.yul\":4095:4569   */\n      swap3\n      pop\n      swap3\n      swap1\n      pop\n      jump\t// out\n        /* \"#utility.yul\":4575:5049   */\n    tag_85:\n        /* \"#utility.yul\":4643:4649   */\n      0x00\n        /* \"#utility.yul\":4651:4657   */\n      dup1\n        /* \"#utility.yul\":4700:4702   */\n      0x40\n        /* \"#utility.yul\":4688:4697   */\n      dup4\n        /* \"#utility.yul\":4679:4686   */\n      dup6\n        /* \"#utility.yul\":4675:4698   */\n      sub\n        /* \"#utility.yul\":4671:4703   */\n      slt\n        /* \"#utility.yul\":4668:4787   */\n      iszero\n      tag_486\n      jumpi\n        /* \"#utility.yul\":4706:4785   */\n      tag_487\n      tag_393\n      jump\t// in\n    tag_487:\n        /* \"#utility.yul\":4668:4787   */\n    tag_486:\n        /* \"#utility.yul\":4826:4827   */\n      0x00\n        /* \"#utility.yul\":4851:4904   */\n      tag_488\n        /* \"#utility.yul\":4896:4903   */\n      dup6\n        /* \"#utility.yul\":4887:4893   */\n      dup3\n        /* \"#utility.yul\":4876:4885   */\n      dup7\n        /* \"#utility.yul\":4872:4894   */\n      add\n        /* \"#utility.yul\":4851:4904   */\n      tag_399\n      jump\t// in\n    tag_488:\n        /* \"#utility.yul\":4841:4904   */\n      swap3\n      pop\n        /* \"#utility.yul\":4797:4914   */\n      pop\n        /* \"#utility.yul\":4953:4955   */\n      0x20\n        /* \"#utility.yul\":4979:5032   */\n      tag_489\n        /* \"#utility.yul\":5024:5031   */\n      dup6\n        /* \"#utility.yul\":5015:5021   */\n      dup3\n        /* \"#utility.yul\":5004:5013   */\n      dup7\n        /* \"#utility.yul\":5000:5022   */\n      add\n        /* \"#utility.yul\":4979:5032   */\n      tag_396\n      jump\t// in\n    tag_489:\n        /* \"#utility.yul\":4969:5032   */\n      swap2\n      pop\n        /* \"#utility.yul\":4924:5042   */\n      pop\n        /* \"#utility.yul\":4575:5049   */\n      swap3\n      pop\n      swap3\n      swap1\n      pop\n      jump\t// out\n        /* \"#utility.yul\":5055:5173   */\n    tag_400:\n        /* \"#utility.yul\":5142:5166   */\n      tag_491\n        /* \"#utility.yul\":5160:5165   */\n      dup2\n        /* \"#utility.yul\":5142:5166   */\n      tag_397\n      jump\t// in\n    tag_491:\n        /* \"#utility.yul\":5137:5140   */\n      dup3\n        /* \"#utility.yul\":5130:5167   */\n      mstore\n        /* \"#utility.yul\":5055:5173   */\n      pop\n      pop\n      jump\t// out\n        /* \"#utility.yul\":5179:5621   */\n    tag_104:\n        /* \"#utility.yul\":5328:5332   */\n      0x00\n        /* \"#utility.yul\":5366:5368   */\n      0x60\n        /* \"#utility.yul\":5355:5364   */\n      dup3\n        /* \"#utility.yul\":5351:5369   */\n      add\n        /* \"#utility.yul\":5343:5369   */\n      swap1\n      pop\n        /* \"#utility.yul\":5379:5450   */\n      tag_493\n        /* \"#utility.yul\":5447:5448   */\n      0x00\n        /* \"#utility.yul\":5436:5445   */\n      dup4\n        /* \"#utility.yul\":5432:5449   */\n      add\n        /* \"#utility.yul\":5423:5429   */\n      dup7\n        /* \"#utility.yul\":5379:5450   */\n      tag_400\n      jump\t// in\n    tag_493:\n        /* \"#utility.yul\":5460:5532   */\n      tag_494\n        /* \"#utility.yul\":5528:5530   */\n      0x20\n        /* \"#utility.yul\":5517:5526   */\n      dup4\n        /* \"#utility.yul\":5513:5531   */\n      add\n        /* \"#utility.yul\":5504:5510   */\n      dup6\n        /* \"#utility.yul\":5460:5532   */\n      tag_400\n      jump\t// in\n    tag_494:\n        /* \"#utility.yul\":5542:5614   */\n      tag_495\n        /* \"#utility.yul\":5610:5612   */\n      0x40\n        /* \"#utility.yul\":5599:5608   */\n      dup4\n        /* \"#utility.yul\":5595:5613   */\n      add\n        /* \"#utility.yul\":5586:5592   */\n      dup5\n        /* \"#utility.yul\":5542:5614   */\n      tag_391\n      jump\t// in\n    tag_495:\n        /* \"#utility.yul\":5179:5621   */\n      swap5\n      swap4\n      pop\n      pop\n      pop\n      pop\n      jump\t// out\n        /* \"#utility.yul\":5627:5717   */\n    tag_401:\n        /* \"#utility.yul\":5661:5668   */\n      0x00\n        /* \"#utility.yul\":5704:5709   */\n      dup2\n        /* \"#utility.yul\":5697:5710   */\n      iszero\n        /* \"#utility.yul\":5690:5711   */\n      iszero\n        /* \"#utility.yul\":5679:5711   */\n      swap1\n      pop\n        /* \"#utility.yul\":5627:5717   */\n      swap2\n      swap1\n      pop\n      jump\t// out\n        /* \"#utility.yul\":5723:5839   */\n    tag_402:\n        /* \"#utility.yul\":5793:5814   */\n      tag_498\n        /* \"#utility.yul\":5808:5813   */\n      dup2\n        /* \"#utility.yul\":5793:5814   */\n      tag_401\n      jump\t// in\n    tag_498:\n        /* \"#utility.yul\":5786:5791   */\n      dup2\n        /* \"#utility.yul\":5783:5815   */\n      eq\n        /* \"#utility.yul\":5773:5833   */\n      tag_499\n      jumpi\n        /* \"#utility.yul\":5829:5830   */\n      0x00\n        /* \"#utility.yul\":5826:5827   */\n      dup1\n        /* \"#utility.yul\":5819:5831   */\n      revert\n        /* \"#utility.yul\":5773:5833   */\n    tag_499:\n        /* \"#utility.yul\":5723:5839   */\n      pop\n      jump\t// out\n        /* \"#utility.yul\":5845:5982   */\n    tag_403:\n        /* \"#utility.yul\":5899:5904   */\n      0x00\n        /* \"#utility.yul\":5930:5936   */\n      dup2\n        /* \"#utility.yul\":5924:5937   */\n      mload\n        /* \"#utility.yul\":5915:5937   */\n      swap1\n      pop\n        /* \"#utility.yul\":5946:5976   */\n      tag_501\n        /* \"#utility.yul\":5970:5975   */\n      dup2\n        /* \"#utility.yul\":5946:5976   */\n      tag_402\n      jump\t// in\n    tag_501:\n        /* \"#utility.yul\":5845:5982   */\n      swap3\n      swap2\n      pop\n      pop\n      jump\t// out\n        /* \"#utility.yul\":5988:6333   */\n    tag_108:\n        /* \"#utility.yul\":6055:6061   */\n      0x00\n        /* \"#utility.yul\":6104:6106   */\n      0x20\n        /* \"#utility.yul\":6092:6101   */\n      dup3\n        /* \"#utility.yul\":6083:6090   */\n      dup5\n        /* \"#utility.yul\":6079:6102   */\n      sub\n        /* \"#utility.yul\":6075:6107   */\n      slt\n        /* \"#utility.yul\":6072:6191   */\n      iszero\n      tag_503\n      jumpi\n        /* \"#utility.yul\":6110:6189   */\n      tag_504\n      tag_393\n      jump\t// in\n    tag_504:\n        /* \"#utility.yul\":6072:6191   */\n    tag_503:\n        /* \"#utility.yul\":6230:6231   */\n      0x00\n        /* \"#utility.yul\":6255:6316   */\n      tag_505\n        /* \"#utility.yul\":6308:6315   */\n      dup5\n        /* \"#utility.yul\":6299:6305   */\n      dup3\n        /* \"#utility.yul\":6288:6297   */\n      dup6\n        /* \"#utility.yul\":6284:6306   */\n      add\n        /* \"#utility.yul\":6255:6316   */\n      tag_403\n      jump\t// in\n    tag_505:\n        /* \"#utility.yul\":6245:6316   */\n      swap2\n      pop\n        /* \"#utility.yul\":6201:6326   */\n      pop\n        /* \"#utility.yul\":5988:6333   */\n      swap3\n      swap2\n      pop\n      pop\n      jump\t// out\n        /* \"#utility.yul\":6339:6519   */\n    tag_404:\n        /* \"#utility.yul\":6387:6464   */\n      0x4e487b7100000000000000000000000000000000000000000000000000000000\n        /* \"#utility.yul\":6384:6385   */\n      0x00\n        /* \"#utility.yul\":6377:6465   */\n      mstore\n        /* \"#utility.yul\":6484:6488   */\n      0x11\n        /* \"#utility.yul\":6481:6482   */\n      0x04\n        /* \"#utility.yul\":6474:6489   */\n      mstore\n        /* \"#utility.yul\":6508:6512   */\n      0x24\n        /* \"#utility.yul\":6505:6506   */\n      0x00\n        /* \"#utility.yul\":6498:6513   */\n      revert\n        /* \"#utility.yul\":6525:6935   */\n    tag_110:\n        /* \"#utility.yul\":6565:6572   */\n      0x00\n        /* \"#utility.yul\":6588:6608   */\n      tag_508\n        /* \"#utility.yul\":6606:6607   */\n      dup3\n        /* \"#utility.yul\":6588:6608   */\n      tag_390\n      jump\t// in\n    tag_508:\n        /* \"#utility.yul\":6583:6608   */\n      swap2\n      pop\n        /* \"#utility.yul\":6622:6642   */\n      tag_509\n        /* \"#utility.yul\":6640:6641   */\n      dup4\n        /* \"#utility.yul\":6622:6642   */\n      tag_390\n      jump\t// in\n    tag_509:\n        /* \"#utility.yul\":6617:6642   */\n      swap3\n      pop\n        /* \"#utility.yul\":6677:6678   */\n      dup3\n        /* \"#utility.yul\":6674:6675   */\n      dup3\n        /* \"#utility.yul\":6670:6679   */\n      mul\n        /* \"#utility.yul\":6699:6729   */\n      tag_510\n        /* \"#utility.yul\":6717:6728   */\n      dup2\n        /* \"#utility.yul\":6699:6729   */\n      tag_390\n      jump\t// in\n    tag_510:\n        /* \"#utility.yul\":6688:6729   */\n      swap2\n      pop\n        /* \"#utility.yul\":6878:6879   */\n      dup3\n        /* \"#utility.yul\":6869:6876   */\n      dup3\n        /* \"#utility.yul\":6865:6880   */\n      div\n        /* \"#utility.yul\":6862:6863   */\n      dup5\n        /* \"#utility.yul\":6859:6881   */\n      eq\n        /* \"#utility.yul\":6839:6840   */\n      dup4\n        /* \"#utility.yul\":6832:6841   */\n      iszero\n        /* \"#utility.yul\":6812:6895   */\n      or\n        /* \"#utility.yul\":6789:6928   */\n      tag_511\n      jumpi\n        /* \"#utility.yul\":6908:6926   */\n      tag_512\n      tag_404\n      jump\t// in\n    tag_512:\n        /* \"#utility.yul\":6789:6928   */\n    tag_511:\n        /* \"#utility.yul\":6573:6935   */\n      pop\n        /* \"#utility.yul\":6525:6935   */\n      swap3\n      swap2\n      pop\n      pop\n      jump\t// out\n        /* \"#utility.yul\":6941:7121   */\n    tag_405:\n        /* \"#utility.yul\":6989:7066   */\n      0x4e487b7100000000000000000000000000000000000000000000000000000000\n        /* \"#utility.yul\":6986:6987   */\n      0x00\n        /* \"#utility.yul\":6979:7067   */\n      mstore\n        /* \"#utility.yul\":7086:7090   */\n      0x12\n        /* \"#utility.yul\":7083:7084   */\n      0x04\n        /* \"#utility.yul\":7076:7091   */\n      mstore\n        /* \"#utility.yul\":7110:7114   */\n      0x24\n        /* \"#utility.yul\":7107:7108   */\n      0x00\n        /* \"#utility.yul\":7100:7115   */\n      revert\n        /* \"#utility.yul\":7127:7312   */\n    tag_112:\n        /* \"#utility.yul\":7167:7168   */\n      0x00\n        /* \"#utility.yul\":7184:7204   */\n      tag_515\n        /* \"#utility.yul\":7202:7203   */\n      dup3\n        /* \"#utility.yul\":7184:7204   */\n      tag_390\n      jump\t// in\n    tag_515:\n        /* \"#utility.yul\":7179:7204   */\n      swap2\n      pop\n        /* \"#utility.yul\":7218:7238   */\n      tag_516\n        /* \"#utility.yul\":7236:7237   */\n      dup4\n        /* \"#utility.yul\":7218:7238   */\n      tag_390\n      jump\t// in\n    tag_516:\n        /* \"#utility.yul\":7213:7238   */\n      swap3\n      pop\n        /* \"#utility.yul\":7257:7258   */\n      dup3\n        /* \"#utility.yul\":7247:7282   */\n      tag_517\n      jumpi\n        /* \"#utility.yul\":7262:7280   */\n      tag_518\n      tag_405\n      jump\t// in\n    tag_518:\n        /* \"#utility.yul\":7247:7282   */\n    tag_517:\n        /* \"#utility.yul\":7304:7305   */\n      dup3\n        /* \"#utility.yul\":7301:7302   */\n      dup3\n        /* \"#utility.yul\":7297:7306   */\n      div\n        /* \"#utility.yul\":7292:7306   */\n      swap1\n      pop\n        /* \"#utility.yul\":7127:7312   */\n      swap3\n      swap2\n      pop\n      pop\n      jump\t// out\n        /* \"#utility.yul\":7318:7509   */\n    tag_114:\n        /* \"#utility.yul\":7358:7361   */\n      0x00\n        /* \"#utility.yul\":7377:7397   */\n      tag_520\n        /* \"#utility.yul\":7395:7396   */\n      dup3\n        /* \"#utility.yul\":7377:7397   */\n      tag_390\n      jump\t// in\n    tag_520:\n        /* \"#utility.yul\":7372:7397   */\n      swap2\n      pop\n        /* \"#utility.yul\":7411:7431   */\n      tag_521\n        /* \"#utility.yul\":7429:7430   */\n      dup4\n        /* \"#utility.yul\":7411:7431   */\n      tag_390\n      jump\t// in\n    tag_521:\n        /* \"#utility.yul\":7406:7431   */\n      swap3\n      pop\n        /* \"#utility.yul\":7454:7455   */\n      dup3\n        /* \"#utility.yul\":7451:7452   */\n      dup3\n        /* \"#utility.yul\":7447:7456   */\n      add\n        /* \"#utility.yul\":7440:7456   */\n      swap1\n      pop\n        /* \"#utility.yul\":7475:7478   */\n      dup1\n        /* \"#utility.yul\":7472:7473   */\n      dup3\n        /* \"#utility.yul\":7469:7479   */\n      gt\n        /* \"#utility.yul\":7466:7502   */\n      iszero\n      tag_522\n      jumpi\n        /* \"#utility.yul\":7482:7500   */\n      tag_523\n      tag_404\n      jump\t// in\n    tag_523:\n        /* \"#utility.yul\":7466:7502   */\n    tag_522:\n        /* \"#utility.yul\":7318:7509   */\n      swap3\n      swap2\n      pop\n      pop\n      jump\t// out\n        /* \"#utility.yul\":7515:7684   */\n    tag_406:\n        /* \"#utility.yul\":7599:7610   */\n      0x00\n        /* \"#utility.yul\":7633:7639   */\n      dup3\n        /* \"#utility.yul\":7628:7631   */\n      dup3\n        /* \"#utility.yul\":7621:7640   */\n      mstore\n        /* \"#utility.yul\":7673:7677   */\n      0x20\n        /* \"#utility.yul\":7668:7671   */\n      dup3\n        /* \"#utility.yul\":7664:7678   */\n      add\n        /* \"#utility.yul\":7649:7678   */\n      swap1\n      pop\n        /* \"#utility.yul\":7515:7684   */\n      swap3\n      swap2\n      pop\n      pop\n      jump\t// out\n        /* \"#utility.yul\":7690:7866   */\n    tag_407:\n        /* \"#utility.yul\":7830:7858   */\n      0x496e73756666696369656e74206f757470757420616d6f756e74000000000000\n        /* \"#utility.yul\":7826:7827   */\n      0x00\n        /* \"#utility.yul\":7818:7824   */\n      dup3\n        /* \"#utility.yul\":7814:7828   */\n      add\n        /* \"#utility.yul\":7807:7859   */\n      mstore\n        /* \"#utility.yul\":7690:7866   */\n      pop\n      jump\t// out\n        /* \"#utility.yul\":7872:8238   */\n    tag_408:\n        /* \"#utility.yul\":8014:8017   */\n      0x00\n        /* \"#utility.yul\":8035:8102   */\n      tag_527\n        /* \"#utility.yul\":8099:8101   */\n      0x1a\n        /* \"#utility.yul\":8094:8097   */\n      dup4\n        /* \"#utility.yul\":8035:8102   */\n      tag_406\n      jump\t// in\n    tag_527:\n        /* \"#utility.yul\":8028:8102   */\n      swap2\n      pop\n        /* \"#utility.yul\":8111:8204   */\n      tag_528\n        /* \"#utility.yul\":8200:8203   */\n      dup3\n        /* \"#utility.yul\":8111:8204   */\n      tag_407\n      jump\t// in\n    tag_528:\n        /* \"#utility.yul\":8229:8231   */\n      0x20\n        /* \"#utility.yul\":8224:8227   */\n      dup3\n        /* \"#utility.yul\":8220:8232   */\n      add\n        /* \"#utility.yul\":8213:8232   */\n      swap1\n      pop\n        /* \"#utility.yul\":7872:8238   */\n      swap2\n      swap1\n      pop\n      jump\t// out\n        /* \"#utility.yul\":8244:8663   */\n    tag_119:\n        /* \"#utility.yul\":8410:8414   */\n      0x00\n        /* \"#utility.yul\":8448:8450   */\n      0x20\n        /* \"#utility.yul\":8437:8446   */\n      dup3\n        /* \"#utility.yul\":8433:8451   */\n      add\n        /* \"#utility.yul\":8425:8451   */\n      swap1\n      pop\n        /* \"#utility.yul\":8497:8506   */\n      dup2\n        /* \"#utility.yul\":8491:8495   */\n      dup2\n        /* \"#utility.yul\":8487:8507   */\n      sub\n        /* \"#utility.yul\":8483:8484   */\n      0x00\n        /* \"#utility.yul\":8472:8481   */\n      dup4\n        /* \"#utility.yul\":8468:8485   */\n      add\n        /* \"#utility.yul\":8461:8508   */\n      mstore\n        /* \"#utility.yul\":8525:8656   */\n      tag_530\n        /* \"#utility.yul\":8651:8655   */\n      dup2\n        /* \"#utility.yul\":8525:8656   */\n      tag_408\n      jump\t// in\n    tag_530:\n        /* \"#utility.yul\":8517:8656   */\n      swap1\n      pop\n        /* \"#utility.yul\":8244:8663   */\n      swap2\n      swap1\n      pop\n      jump\t// out\n        /* \"#utility.yul\":8669:9001   */\n    tag_127:\n        /* \"#utility.yul\":8790:8794   */\n      0x00\n        /* \"#utility.yul\":8828:8830   */\n      0x40\n        /* \"#utility.yul\":8817:8826   */\n      dup3\n        /* \"#utility.yul\":8813:8831   */\n      add\n        /* \"#utility.yul\":8805:8831   */\n      swap1\n      pop\n        /* \"#utility.yul\":8841:8912   */\n      tag_532\n        /* \"#utility.yul\":8909:8910   */\n      0x00\n        /* \"#utility.yul\":8898:8907   */\n      dup4\n        /* \"#utility.yul\":8894:8911   */\n      add\n        /* \"#utility.yul\":8885:8891   */\n      dup6\n        /* \"#utility.yul\":8841:8912   */\n      tag_400\n      jump\t// in\n    tag_532:\n        /* \"#utility.yul\":8922:8994   */\n      tag_533\n        /* \"#utility.yul\":8990:8992   */\n      0x20\n        /* \"#utility.yul\":8979:8988   */\n      dup4\n        /* \"#utility.yul\":8975:8993   */\n      add\n        /* \"#utility.yul\":8966:8972   */\n      dup5\n        /* \"#utility.yul\":8922:8994   */\n      tag_391\n      jump\t// in\n    tag_533:\n        /* \"#utility.yul\":8669:9001   */\n      swap4\n      swap3\n      pop\n      pop\n      pop\n      jump\t// out\n        /* \"#utility.yul\":9007:9229   */\n    tag_133:\n        /* \"#utility.yul\":9100:9104   */\n      0x00\n        /* \"#utility.yul\":9138:9140   */\n      0x20\n        /* \"#utility.yul\":9127:9136   */\n      dup3\n        /* \"#utility.yul\":9123:9141   */\n      add\n        /* \"#utility.yul\":9115:9141   */\n      swap1\n      pop\n        /* \"#utility.yul\":9151:9222   */\n      tag_535\n        /* \"#utility.yul\":9219:9220   */\n      0x00\n        /* \"#utility.yul\":9208:9217   */\n      dup4\n        /* \"#utility.yul\":9204:9221   */\n      add\n        /* \"#utility.yul\":9195:9201   */\n      dup5\n        /* \"#utility.yul\":9151:9222   */\n      tag_400\n      jump\t// in\n    tag_535:\n        /* \"#utility.yul\":9007:9229   */\n      swap3\n      swap2\n      pop\n      pop\n      jump\t// out\n        /* \"#utility.yul\":9235:9378   */\n    tag_409:\n        /* \"#utility.yul\":9292:9297   */\n      0x00\n        /* \"#utility.yul\":9323:9329   */\n      dup2\n        /* \"#utility.yul\":9317:9330   */\n      mload\n        /* \"#utility.yul\":9308:9330   */\n      swap1\n      pop\n        /* \"#utility.yul\":9339:9372   */\n      tag_537\n        /* \"#utility.yul\":9366:9371   */\n      dup2\n        /* \"#utility.yul\":9339:9372   */\n      tag_395\n      jump\t// in\n    tag_537:\n        /* \"#utility.yul\":9235:9378   */\n      swap3\n      swap2\n      pop\n      pop\n      jump\t// out\n        /* \"#utility.yul\":9384:9735   */\n    tag_137:\n        /* \"#utility.yul\":9454:9460   */\n      0x00\n        /* \"#utility.yul\":9503:9505   */\n      0x20\n        /* \"#utility.yul\":9491:9500   */\n      dup3\n        /* \"#utility.yul\":9482:9489   */\n      dup5\n        /* \"#utility.yul\":9478:9501   */\n      sub\n        /* \"#utility.yul\":9474:9506   */\n      slt\n        /* \"#utility.yul\":9471:9590   */\n      iszero\n      tag_539\n      jumpi\n        /* \"#utility.yul\":9509:9588   */\n      tag_540\n      tag_393\n      jump\t// in\n    tag_540:\n        /* \"#utility.yul\":9471:9590   */\n    tag_539:\n        /* \"#utility.yul\":9629:9630   */\n      0x00\n        /* \"#utility.yul\":9654:9718   */\n      tag_541\n        /* \"#utility.yul\":9710:9717   */\n      dup5\n        /* \"#utility.yul\":9701:9707   */\n      dup3\n        /* \"#utility.yul\":9690:9699   */\n      dup6\n        /* \"#utility.yul\":9686:9708   */\n      add\n        /* \"#utility.yul\":9654:9718   */\n      tag_409\n      jump\t// in\n    tag_541:\n        /* \"#utility.yul\":9644:9718   */\n      swap2\n      pop\n        /* \"#utility.yul\":9600:9728   */\n      pop\n        /* \"#utility.yul\":9384:9735   */\n      swap3\n      swap2\n      pop\n      pop\n      jump\t// out\n        /* \"#utility.yul\":9741:9907   */\n    tag_410:\n        /* \"#utility.yul\":9881:9899   */\n      0x496e76616c696420726573657276657300000000000000000000000000000000\n        /* \"#utility.yul\":9877:9878   */\n      0x00\n        /* \"#utility.yul\":9869:9875   */\n      dup3\n        /* \"#utility.yul\":9865:9879   */\n      add\n        /* \"#utility.yul\":9858:9900   */\n      mstore\n        /* \"#utility.yul\":9741:9907   */\n      pop\n      jump\t// out\n        /* \"#utility.yul\":9913:10279   */\n    tag_411:\n        /* \"#utility.yul\":10055:10058   */\n      0x00\n        /* \"#utility.yul\":10076:10143   */\n      tag_544\n        /* \"#utility.yul\":10140:10142   */\n      0x10\n        /* \"#utility.yul\":10135:10138   */\n      dup4\n        /* \"#utility.yul\":10076:10143   */\n      tag_406\n      jump\t// in\n    tag_544:\n        /* \"#utility.yul\":10069:10143   */\n      swap2\n      pop\n        /* \"#utility.yul\":10152:10245   */\n      tag_545\n        /* \"#utility.yul\":10241:10244   */\n      dup3\n        /* \"#utility.yul\":10152:10245   */\n      tag_410\n      jump\t// in\n    tag_545:\n        /* \"#utility.yul\":10270:10272   */\n      0x20\n        /* \"#utility.yul\":10265:10268   */\n      dup3\n        /* \"#utility.yul\":10261:10273   */\n      add\n        /* \"#utility.yul\":10254:10273   */\n      swap1\n      pop\n        /* \"#utility.yul\":9913:10279   */\n      swap2\n      swap1\n      pop\n      jump\t// out\n        /* \"#utility.yul\":10285:10704   */\n    tag_148:\n        /* \"#utility.yul\":10451:10455   */\n      0x00\n        /* \"#utility.yul\":10489:10491   */\n      0x20\n        /* \"#utility.yul\":10478:10487   */\n      dup3\n        /* \"#utility.yul\":10474:10492   */\n      add\n        /* \"#utility.yul\":10466:10492   */\n      swap1\n      pop\n        /* \"#utility.yul\":10538:10547   */\n      dup2\n        /* \"#utility.yul\":10532:10536   */\n      dup2\n        /* \"#utility.yul\":10528:10548   */\n      sub\n        /* \"#utility.yul\":10524:10525   */\n      0x00\n        /* \"#utility.yul\":10513:10522   */\n      dup4\n        /* \"#utility.yul\":10509:10526   */\n      add\n        /* \"#utility.yul\":10502:10549   */\n      mstore\n        /* \"#utility.yul\":10566:10697   */\n      tag_547\n        /* \"#utility.yul\":10692:10696   */\n      dup2\n        /* \"#utility.yul\":10566:10697   */\n      tag_411\n      jump\t// in\n    tag_547:\n        /* \"#utility.yul\":10558:10697   */\n      swap1\n      pop\n        /* \"#utility.yul\":10285:10704   */\n      swap2\n      swap1\n      pop\n      jump\t// out\n        /* \"#utility.yul\":10710:10904   */\n    tag_167:\n        /* \"#utility.yul\":10750:10754   */\n      0x00\n        /* \"#utility.yul\":10770:10790   */\n      tag_549\n        /* \"#utility.yul\":10788:10789   */\n      dup3\n        /* \"#utility.yul\":10770:10790   */\n      tag_390\n      jump\t// in\n    tag_549:\n        /* \"#utility.yul\":10765:10790   */\n      swap2\n      pop\n        /* \"#utility.yul\":10804:10824   */\n      tag_550\n        /* \"#utility.yul\":10822:10823   */\n      dup4\n        /* \"#utility.yul\":10804:10824   */\n      tag_390\n      jump\t// in\n    tag_550:\n        /* \"#utility.yul\":10799:10824   */\n      swap3\n      pop\n        /* \"#utility.yul\":10848:10849   */\n      dup3\n        /* \"#utility.yul\":10845:10846   */\n      dup3\n        /* \"#utility.yul\":10841:10850   */\n      sub\n        /* \"#utility.yul\":10833:10850   */\n      swap1\n      pop\n        /* \"#utility.yul\":10872:10873   */\n      dup2\n        /* \"#utility.yul\":10866:10870   */\n      dup2\n        /* \"#utility.yul\":10863:10874   */\n      gt\n        /* \"#utility.yul\":10860:10897   */\n      iszero\n      tag_551\n      jumpi\n        /* \"#utility.yul\":10877:10895   */\n      tag_552\n      tag_404\n      jump\t// in\n    tag_552:\n        /* \"#utility.yul\":10860:10897   */\n    tag_551:\n        /* \"#utility.yul\":10710:10904   */\n      swap3\n      swap2\n      pop\n      pop\n      jump\t// out\n        /* \"#utility.yul\":10910:11068   */\n    tag_412:\n        /* \"#utility.yul\":11050:11060   */\n      0x536c69704c6f636b000000000000000000000000000000000000000000000000\n        /* \"#utility.yul\":11046:11047   */\n      0x00\n        /* \"#utility.yul\":11038:11044   */\n      dup3\n        /* \"#utility.yul\":11034:11048   */\n      add\n        /* \"#utility.yul\":11027:11061   */\n      mstore\n        /* \"#utility.yul\":10910:11068   */\n      pop\n      jump\t// out\n        /* \"#utility.yul\":11074:11439   */\n    tag_413:\n        /* \"#utility.yul\":11216:11219   */\n      0x00\n        /* \"#utility.yul\":11237:11303   */\n      tag_555\n        /* \"#utility.yul\":11301:11302   */\n      0x08\n        /* \"#utility.yul\":11296:11299   */\n      dup4\n        /* \"#utility.yul\":11237:11303   */\n      tag_406\n      jump\t// in\n    tag_555:\n        /* \"#utility.yul\":11230:11303   */\n      swap2\n      pop\n        /* \"#utility.yul\":11312:11405   */\n      tag_556\n        /* \"#utility.yul\":11401:11404   */\n      dup3\n        /* \"#utility.yul\":11312:11405   */\n      tag_412\n      jump\t// in\n    tag_556:\n        /* \"#utility.yul\":11430:11432   */\n      0x20\n        /* \"#utility.yul\":11425:11428   */\n      dup3\n        /* \"#utility.yul\":11421:11433   */\n      add\n        /* \"#utility.yul\":11414:11433   */\n      swap1\n      pop\n        /* \"#utility.yul\":11074:11439   */\n      swap2\n      swap1\n      pop\n      jump\t// out\n        /* \"#utility.yul\":11445:11864   */\n    tag_172:\n        /* \"#utility.yul\":11611:11615   */\n      0x00\n        /* \"#utility.yul\":11649:11651   */\n      0x20\n        /* \"#utility.yul\":11638:11647   */\n      dup3\n        /* \"#utility.yul\":11634:11652   */\n      add\n        /* \"#utility.yul\":11626:11652   */\n      swap1\n      pop\n        /* \"#utility.yul\":11698:11707   */\n      dup2\n        /* \"#utility.yul\":11692:11696   */\n      dup2\n        /* \"#utility.yul\":11688:11708   */\n      sub\n        /* \"#utility.yul\":11684:11685   */\n      0x00\n        /* \"#utility.yul\":11673:11682   */\n      dup4\n        /* \"#utility.yul\":11669:11686   */\n      add\n        /* \"#utility.yul\":11662:11709   */\n      mstore\n        /* \"#utility.yul\":11726:11857   */\n      tag_558\n        /* \"#utility.yul\":11852:11856   */\n      dup2\n        /* \"#utility.yul\":11726:11857   */\n      tag_413\n      jump\t// in\n    tag_558:\n        /* \"#utility.yul\":11718:11857   */\n      swap1\n      pop\n        /* \"#utility.yul\":11445:11864   */\n      swap2\n      swap1\n      pop\n      jump\t// out\n        /* \"#utility.yul\":11870:12040   */\n    tag_414:\n        /* \"#utility.yul\":12010:12032   */\n      0x496e73756666696369656e742062616c616e6365000000000000000000000000\n        /* \"#utility.yul\":12006:12007   */\n      0x00\n        /* \"#utility.yul\":11998:12004   */\n      dup3\n        /* \"#utility.yul\":11994:12008   */\n      add\n        /* \"#utility.yul\":11987:12033   */\n      mstore\n        /* \"#utility.yul\":11870:12040   */\n      pop\n      jump\t// out\n        /* \"#utility.yul\":12046:12412   */\n    tag_415:\n        /* \"#utility.yul\":12188:12191   */\n      0x00\n        /* \"#utility.yul\":12209:12276   */\n      tag_561\n        /* \"#utility.yul\":12273:12275   */\n      0x14\n        /* \"#utility.yul\":12268:12271   */\n      dup4\n        /* \"#utility.yul\":12209:12276   */\n      tag_406\n      jump\t// in\n    tag_561:\n        /* \"#utility.yul\":12202:12276   */\n      swap2\n      pop\n        /* \"#utility.yul\":12285:12378   */\n      tag_562\n        /* \"#utility.yul\":12374:12377   */\n      dup3\n        /* \"#utility.yul\":12285:12378   */\n      tag_414\n      jump\t// in\n    tag_562:\n        /* \"#utility.yul\":12403:12405   */\n      0x20\n        /* \"#utility.yul\":12398:12401   */\n      dup3\n        /* \"#utility.yul\":12394:12406   */\n      add\n        /* \"#utility.yul\":12387:12406   */\n      swap1\n      pop\n        /* \"#utility.yul\":12046:12412   */\n      swap2\n      swap1\n      pop\n      jump\t// out\n        /* \"#utility.yul\":12418:12837   */\n    tag_235:\n        /* \"#utility.yul\":12584:12588   */\n      0x00\n        /* \"#utility.yul\":12622:12624   */\n      0x20\n        /* \"#utility.yul\":12611:12620   */\n      dup3\n        /* \"#utility.yul\":12607:12625   */\n      add\n        /* \"#utility.yul\":12599:12625   */\n      swap1\n      pop\n        /* \"#utility.yul\":12671:12680   */\n      dup2\n        /* \"#utility.yul\":12665:12669   */\n      dup2\n        /* \"#utility.yul\":12661:12681   */\n      sub\n        /* \"#utility.yul\":12657:12658   */\n      0x00\n        /* \"#utility.yul\":12646:12655   */\n      dup4\n        /* \"#utility.yul\":12642:12659   */\n      add\n        /* \"#utility.yul\":12635:12682   */\n      mstore\n        /* \"#utility.yul\":12699:12830   */\n      tag_564\n        /* \"#utility.yul\":12825:12829   */\n      dup2\n        /* \"#utility.yul\":12699:12830   */\n      tag_415\n      jump\t// in\n    tag_564:\n        /* \"#utility.yul\":12691:12830   */\n      swap1\n      pop\n        /* \"#utility.yul\":12418:12837   */\n      swap2\n      swap1\n      pop\n      jump\t// out\n        /* \"#utility.yul\":12843:13016   */\n    tag_416:\n        /* \"#utility.yul\":12983:13008   */\n      0x496e76616c6964206c697175696469747920726174696f000000000000000000\n        /* \"#utility.yul\":12979:12980   */\n      0x00\n        /* \"#utility.yul\":12971:12977   */\n      dup3\n        /* \"#utility.yul\":12967:12981   */\n      add\n        /* \"#utility.yul\":12960:13009   */\n      mstore\n        /* \"#utility.yul\":12843:13016   */\n      pop\n      jump\t// out\n        /* \"#utility.yul\":13022:13388   */\n    tag_417:\n        /* \"#utility.yul\":13164:13167   */\n      0x00\n        /* \"#utility.yul\":13185:13252   */\n      tag_567\n        /* \"#utility.yul\":13249:13251   */\n      0x17\n        /* \"#utility.yul\":13244:13247   */\n      dup4\n        /* \"#utility.yul\":13185:13252   */\n      tag_406\n      jump\t// in\n    tag_567:\n        /* \"#utility.yul\":13178:13252   */\n      swap2\n      pop\n        /* \"#utility.yul\":13261:13354   */\n      tag_568\n        /* \"#utility.yul\":13350:13353   */\n      dup3\n        /* \"#utility.yul\":13261:13354   */\n      tag_416\n      jump\t// in\n    tag_568:\n        /* \"#utility.yul\":13379:13381   */\n      0x20\n        /* \"#utility.yul\":13374:13377   */\n      dup3\n        /* \"#utility.yul\":13370:13382   */\n      add\n        /* \"#utility.yul\":13363:13382   */\n      swap1\n      pop\n        /* \"#utility.yul\":13022:13388   */\n      swap2\n      swap1\n      pop\n      jump\t// out\n        /* \"#utility.yul\":13394:13813   */\n    tag_252:\n        /* \"#utility.yul\":13560:13564   */\n      0x00\n        /* \"#utility.yul\":13598:13600   */\n      0x20\n        /* \"#utility.yul\":13587:13596   */\n      dup3\n        /* \"#utility.yul\":13583:13601   */\n      add\n        /* \"#utility.yul\":13575:13601   */\n      swap1\n      pop\n        /* \"#utility.yul\":13647:13656   */\n      dup2\n        /* \"#utility.yul\":13641:13645   */\n      dup2\n        /* \"#utility.yul\":13637:13657   */\n      sub\n        /* \"#utility.yul\":13633:13634   */\n      0x00\n        /* \"#utility.yul\":13622:13631   */\n      dup4\n        /* \"#utility.yul\":13618:13635   */\n      add\n        /* \"#utility.yul\":13611:13658   */\n      mstore\n        /* \"#utility.yul\":13675:13806   */\n      tag_570\n        /* \"#utility.yul\":13801:13805   */\n      dup2\n        /* \"#utility.yul\":13675:13806   */\n      tag_417\n      jump\t// in\n    tag_570:\n        /* \"#utility.yul\":13667:13806   */\n      swap1\n      pop\n        /* \"#utility.yul\":13394:13813   */\n      swap2\n      swap1\n      pop\n      jump\t// out\n        /* \"#utility.yul\":13819:13979   */\n    tag_418:\n        /* \"#utility.yul\":13959:13971   */\n      0x736861726573203d203000000000000000000000000000000000000000000000\n        /* \"#utility.yul\":13955:13956   */\n      0x00\n        /* \"#utility.yul\":13947:13953   */\n      dup3\n        /* \"#utility.yul\":13943:13957   */\n      add\n        /* \"#utility.yul\":13936:13972   */\n      mstore\n        /* \"#utility.yul\":13819:13979   */\n      pop\n      jump\t// out\n        /* \"#utility.yul\":13985:14351   */\n    tag_419:\n        /* \"#utility.yul\":14127:14130   */\n      0x00\n        /* \"#utility.yul\":14148:14215   */\n      tag_573\n        /* \"#utility.yul\":14212:14214   */\n      0x0a\n        /* \"#utility.yul\":14207:14210   */\n      dup4\n        /* \"#utility.yul\":14148:14215   */\n      tag_406\n      jump\t// in\n    tag_573:\n        /* \"#utility.yul\":14141:14215   */\n      swap2\n      pop\n        /* \"#utility.yul\":14224:14317   */\n      tag_574\n        /* \"#utility.yul\":14313:14316   */\n      dup3\n        /* \"#utility.yul\":14224:14317   */\n      tag_418\n      jump\t// in\n    tag_574:\n        /* \"#utility.yul\":14342:14344   */\n      0x20\n        /* \"#utility.yul\":14337:14340   */\n      dup3\n        /* \"#utility.yul\":14333:14345   */\n      add\n        /* \"#utility.yul\":14326:14345   */\n      swap1\n      pop\n        /* \"#utility.yul\":13985:14351   */\n      swap2\n      swap1\n      pop\n      jump\t// out\n        /* \"#utility.yul\":14357:14776   */\n    tag_266:\n        /* \"#utility.yul\":14523:14527   */\n      0x00\n        /* \"#utility.yul\":14561:14563   */\n      0x20\n        /* \"#utility.yul\":14550:14559   */\n      dup3\n        /* \"#utility.yul\":14546:14564   */\n      add\n        /* \"#utility.yul\":14538:14564   */\n      swap1\n      pop\n        /* \"#utility.yul\":14610:14619   */\n      dup2\n        /* \"#utility.yul\":14604:14608   */\n      dup2\n        /* \"#utility.yul\":14600:14620   */\n      sub\n        /* \"#utility.yul\":14596:14597   */\n      0x00\n        /* \"#utility.yul\":14585:14594   */\n      dup4\n        /* \"#utility.yul\":14581:14598   */\n      add\n        /* \"#utility.yul\":14574:14621   */\n      mstore\n        /* \"#utility.yul\":14638:14769   */\n      tag_576\n        /* \"#utility.yul\":14764:14768   */\n      dup2\n        /* \"#utility.yul\":14638:14769   */\n      tag_419\n      jump\t// in\n    tag_576:\n        /* \"#utility.yul\":14630:14769   */\n      swap1\n      pop\n        /* \"#utility.yul\":14357:14776   */\n      swap2\n      swap1\n      pop\n      jump\t// out\n        /* \"#utility.yul\":14782:14868   */\n    tag_420:\n        /* \"#utility.yul\":14817:14824   */\n      0x00\n        /* \"#utility.yul\":14857:14861   */\n      0xff\n        /* \"#utility.yul\":14850:14855   */\n      dup3\n        /* \"#utility.yul\":14846:14862   */\n      and\n        /* \"#utility.yul\":14835:14862   */\n      swap1\n      pop\n        /* \"#utility.yul\":14782:14868   */\n      swap2\n      swap1\n      pop\n      jump\t// out\n        /* \"#utility.yul\":14874:14992   */\n    tag_421:\n        /* \"#utility.yul\":14945:14967   */\n      tag_579\n        /* \"#utility.yul\":14961:14966   */\n      dup2\n        /* \"#utility.yul\":14945:14967   */\n      tag_420\n      jump\t// in\n    tag_579:\n        /* \"#utility.yul\":14938:14943   */\n      dup2\n        /* \"#utility.yul\":14935:14968   */\n      eq\n        /* \"#utility.yul\":14925:14986   */\n      tag_580\n      jumpi\n        /* \"#utility.yul\":14982:14983   */\n      0x00\n        /* \"#utility.yul\":14979:14980   */\n      dup1\n        /* \"#utility.yul\":14972:14984   */\n      revert\n        /* \"#utility.yul\":14925:14986   */\n    tag_580:\n        /* \"#utility.yul\":14874:14992   */\n      pop\n      jump\t// out\n        /* \"#utility.yul\":14998:15137   */\n    tag_422:\n        /* \"#utility.yul\":15053:15058   */\n      0x00\n        /* \"#utility.yul\":15084:15090   */\n      dup2\n        /* \"#utility.yul\":15078:15091   */\n      mload\n        /* \"#utility.yul\":15069:15091   */\n      swap1\n      pop\n        /* \"#utility.yul\":15100:15131   */\n      tag_582\n        /* \"#utility.yul\":15125:15130   */\n      dup2\n        /* \"#utility.yul\":15100:15131   */\n      tag_421\n      jump\t// in\n    tag_582:\n        /* \"#utility.yul\":14998:15137   */\n      swap3\n      swap2\n      pop\n      pop\n      jump\t// out\n        /* \"#utility.yul\":15143:15490   */\n    tag_325:\n        /* \"#utility.yul\":15211:15217   */\n      0x00\n        /* \"#utility.yul\":15260:15262   */\n      0x20\n        /* \"#utility.yul\":15248:15257   */\n      dup3\n        /* \"#utility.yul\":15239:15246   */\n      dup5\n        /* \"#utility.yul\":15235:15258   */\n      sub\n        /* \"#utility.yul\":15231:15263   */\n      slt\n        /* \"#utility.yul\":15228:15347   */\n      iszero\n      tag_584\n      jumpi\n        /* \"#utility.yul\":15266:15345   */\n      tag_585\n      tag_393\n      jump\t// in\n    tag_585:\n        /* \"#utility.yul\":15228:15347   */\n    tag_584:\n        /* \"#utility.yul\":15386:15387   */\n      0x00\n        /* \"#utility.yul\":15411:15473   */\n      tag_586\n        /* \"#utility.yul\":15465:15472   */\n      dup5\n        /* \"#utility.yul\":15456:15462   */\n      dup3\n        /* \"#utility.yul\":15445:15454   */\n      dup6\n        /* \"#utility.yul\":15441:15463   */\n      add\n        /* \"#utility.yul\":15411:15473   */\n      tag_422\n      jump\t// in\n    tag_586:\n        /* \"#utility.yul\":15401:15473   */\n      swap2\n      pop\n        /* \"#utility.yul\":15357:15483   */\n      pop\n        /* \"#utility.yul\":15143:15490   */\n      swap3\n      swap2\n      pop\n      pop\n      jump\t// out\n        /* \"#utility.yul\":15496:15598   */\n    tag_423:\n        /* \"#utility.yul\":15538:15546   */\n      0x00\n        /* \"#utility.yul\":15585:15590   */\n      dup2\n        /* \"#utility.yul\":15582:15583   */\n      0x01\n        /* \"#utility.yul\":15578:15591   */\n      shr\n        /* \"#utility.yul\":15557:15591   */\n      swap1\n      pop\n        /* \"#utility.yul\":15496:15598   */\n      swap2\n      swap1\n      pop\n      jump\t// out\n        /* \"#utility.yul\":15604:16452   */\n    tag_424:\n        /* \"#utility.yul\":15665:15670   */\n      0x00\n        /* \"#utility.yul\":15672:15676   */\n      dup1\n        /* \"#utility.yul\":15696:15702   */\n      dup3\n        /* \"#utility.yul\":15687:15702   */\n      swap2\n      pop\n        /* \"#utility.yul\":15720:15725   */\n      dup4\n        /* \"#utility.yul\":15711:15725   */\n      swap1\n      pop\n        /* \"#utility.yul\":15734:16446   */\n    tag_589:\n        /* \"#utility.yul\":15755:15756   */\n      0x01\n        /* \"#utility.yul\":15745:15753   */\n      dup6\n        /* \"#utility.yul\":15742:15757   */\n      gt\n        /* \"#utility.yul\":15734:16446   */\n      iszero\n      tag_591\n      jumpi\n        /* \"#utility.yul\":15850:15854   */\n      dup1\n        /* \"#utility.yul\":15845:15848   */\n      dup7\n        /* \"#utility.yul\":15841:15855   */\n      div\n        /* \"#utility.yul\":15835:15839   */\n      dup2\n        /* \"#utility.yul\":15832:15856   */\n      gt\n        /* \"#utility.yul\":15829:15879   */\n      iszero\n      tag_592\n      jumpi\n        /* \"#utility.yul\":15859:15877   */\n      tag_593\n      tag_404\n      jump\t// in\n    tag_593:\n        /* \"#utility.yul\":15829:15879   */\n    tag_592:\n        /* \"#utility.yul\":15909:15910   */\n      0x01\n        /* \"#utility.yul\":15899:15907   */\n      dup6\n        /* \"#utility.yul\":15895:15911   */\n      and\n        /* \"#utility.yul\":15892:16343   */\n      iszero\n      tag_594\n      jumpi\n        /* \"#utility.yul\":16324:16328   */\n      dup1\n        /* \"#utility.yul\":16317:16322   */\n      dup3\n        /* \"#utility.yul\":16313:16329   */\n      mul\n        /* \"#utility.yul\":16304:16329   */\n      swap2\n      pop\n        /* \"#utility.yul\":15892:16343   */\n    tag_594:\n        /* \"#utility.yul\":16374:16378   */\n      dup1\n        /* \"#utility.yul\":16368:16372   */\n      dup2\n        /* \"#utility.yul\":16364:16379   */\n      mul\n        /* \"#utility.yul\":16356:16379   */\n      swap1\n      pop\n        /* \"#utility.yul\":16404:16436   */\n      tag_595\n        /* \"#utility.yul\":16427:16435   */\n      dup6\n        /* \"#utility.yul\":16404:16436   */\n      tag_423\n      jump\t// in\n    tag_595:\n        /* \"#utility.yul\":16392:16436   */\n      swap5\n      pop\n        /* \"#utility.yul\":15734:16446   */\n      jump(tag_589)\n    tag_591:\n        /* \"#utility.yul\":15604:16452   */\n      swap5\n      pop\n      swap5\n      swap3\n      pop\n      pop\n      pop\n      jump\t// out\n        /* \"#utility.yul\":16458:17531   */\n    tag_425:\n        /* \"#utility.yul\":16512:16517   */\n      0x00\n        /* \"#utility.yul\":16703:16711   */\n      dup3\n        /* \"#utility.yul\":16693:16733   */\n      tag_597\n      jumpi\n        /* \"#utility.yul\":16724:16725   */\n      0x01\n        /* \"#utility.yul\":16715:16725   */\n      swap1\n      pop\n        /* \"#utility.yul\":16726:16731   */\n      jump(tag_596)\n        /* \"#utility.yul\":16693:16733   */\n    tag_597:\n        /* \"#utility.yul\":16752:16756   */\n      dup2\n        /* \"#utility.yul\":16742:16778   */\n      tag_598\n      jumpi\n        /* \"#utility.yul\":16769:16770   */\n      0x00\n        /* \"#utility.yul\":16760:16770   */\n      swap1\n      pop\n        /* \"#utility.yul\":16771:16776   */\n      jump(tag_596)\n        /* \"#utility.yul\":16742:16778   */\n    tag_598:\n        /* \"#utility.yul\":16838:16842   */\n      dup2\n        /* \"#utility.yul\":16886:16887   */\n      0x01\n        /* \"#utility.yul\":16881:16908   */\n      dup2\n      eq\n      tag_600\n      jumpi\n        /* \"#utility.yul\":16922:16923   */\n      0x02\n        /* \"#utility.yul\":16917:17108   */\n      dup2\n      eq\n      tag_601\n      jumpi\n        /* \"#utility.yul\":16831:17108   */\n      jump(tag_599)\n        /* \"#utility.yul\":16881:16908   */\n    tag_600:\n        /* \"#utility.yul\":16899:16900   */\n      0x01\n        /* \"#utility.yul\":16890:16900   */\n      swap2\n      pop\n        /* \"#utility.yul\":16901:16906   */\n      pop\n      jump(tag_596)\n        /* \"#utility.yul\":16917:17108   */\n    tag_601:\n        /* \"#utility.yul\":16962:16965   */\n      0xff\n        /* \"#utility.yul\":16952:16960   */\n      dup5\n        /* \"#utility.yul\":16949:16966   */\n      gt\n        /* \"#utility.yul\":16946:16989   */\n      iszero\n      tag_602\n      jumpi\n        /* \"#utility.yul\":16969:16987   */\n      tag_603\n      tag_404\n      jump\t// in\n    tag_603:\n        /* \"#utility.yul\":16946:16989   */\n    tag_602:\n        /* \"#utility.yul\":17018:17026   */\n      dup4\n        /* \"#utility.yul\":17015:17016   */\n      0x02\n        /* \"#utility.yul\":17011:17027   */\n      exp\n        /* \"#utility.yul\":17002:17027   */\n      swap2\n      pop\n        /* \"#utility.yul\":17053:17056   */\n      dup5\n        /* \"#utility.yul\":17046:17051   */\n      dup3\n        /* \"#utility.yul\":17043:17057   */\n      gt\n        /* \"#utility.yul\":17040:17080   */\n      iszero\n      tag_604\n      jumpi\n        /* \"#utility.yul\":17060:17078   */\n      tag_605\n      tag_404\n      jump\t// in\n    tag_605:\n        /* \"#utility.yul\":17040:17080   */\n    tag_604:\n        /* \"#utility.yul\":17093:17098   */\n      pop\n      jump(tag_596)\n        /* \"#utility.yul\":16831:17108   */\n    tag_599:\n      pop\n        /* \"#utility.yul\":17217:17219   */\n      0x20\n        /* \"#utility.yul\":17207:17215   */\n      dup4\n        /* \"#utility.yul\":17204:17220   */\n      lt\n        /* \"#utility.yul\":17198:17201   */\n      0x0133\n        /* \"#utility.yul\":17192:17196   */\n      dup4\n        /* \"#utility.yul\":17189:17202   */\n      lt\n        /* \"#utility.yul\":17185:17221   */\n      and\n        /* \"#utility.yul\":17167:17169   */\n      0x4e\n        /* \"#utility.yul\":17157:17165   */\n      dup5\n        /* \"#utility.yul\":17154:17170   */\n      lt\n        /* \"#utility.yul\":17149:17151   */\n      0x0b\n        /* \"#utility.yul\":17143:17147   */\n      dup5\n        /* \"#utility.yul\":17140:17152   */\n      lt\n        /* \"#utility.yul\":17136:17171   */\n      and\n        /* \"#utility.yul\":17120:17231   */\n      or\n        /* \"#utility.yul\":17117:17363   */\n      iszero\n      tag_606\n      jumpi\n        /* \"#utility.yul\":17273:17281   */\n      dup3\n        /* \"#utility.yul\":17267:17271   */\n      dup3\n        /* \"#utility.yul\":17263:17282   */\n      exp\n        /* \"#utility.yul\":17254:17282   */\n      swap1\n      pop\n        /* \"#utility.yul\":17308:17311   */\n      dup4\n        /* \"#utility.yul\":17301:17306   */\n      dup2\n        /* \"#utility.yul\":17298:17312   */\n      gt\n        /* \"#utility.yul\":17295:17335   */\n      iszero\n      tag_607\n      jumpi\n        /* \"#utility.yul\":17315:17333   */\n      tag_608\n      tag_404\n      jump\t// in\n    tag_608:\n        /* \"#utility.yul\":17295:17335   */\n    tag_607:\n        /* \"#utility.yul\":17348:17353   */\n      jump(tag_596)\n        /* \"#utility.yul\":17117:17363   */\n    tag_606:\n        /* \"#utility.yul\":17388:17430   */\n      tag_609\n        /* \"#utility.yul\":17426:17429   */\n      dup5\n        /* \"#utility.yul\":17416:17424   */\n      dup5\n        /* \"#utility.yul\":17410:17414   */\n      dup5\n        /* \"#utility.yul\":17407:17408   */\n      0x01\n        /* \"#utility.yul\":17388:17430   */\n      tag_424\n      jump\t// in\n    tag_609:\n        /* \"#utility.yul\":17373:17430   */\n      swap3\n      pop\n      swap1\n      pop\n        /* \"#utility.yul\":17462:17466   */\n      dup2\n        /* \"#utility.yul\":17457:17460   */\n      dup5\n        /* \"#utility.yul\":17453:17467   */\n      div\n        /* \"#utility.yul\":17446:17451   */\n      dup2\n        /* \"#utility.yul\":17443:17468   */\n      gt\n        /* \"#utility.yul\":17440:17491   */\n      iszero\n      tag_610\n      jumpi\n        /* \"#utility.yul\":17471:17489   */\n      tag_611\n      tag_404\n      jump\t// in\n    tag_611:\n        /* \"#utility.yul\":17440:17491   */\n    tag_610:\n        /* \"#utility.yul\":17520:17524   */\n      dup2\n        /* \"#utility.yul\":17513:17518   */\n      dup2\n        /* \"#utility.yul\":17509:17525   */\n      mul\n        /* \"#utility.yul\":17500:17525   */\n      swap1\n      pop\n        /* \"#utility.yul\":16458:17531   */\n    tag_596:\n      swap4\n      swap3\n      pop\n      pop\n      pop\n      jump\t// out\n        /* \"#utility.yul\":17537:17822   */\n    tag_330:\n        /* \"#utility.yul\":17597:17602   */\n      0x00\n        /* \"#utility.yul\":17621:17644   */\n      tag_613\n        /* \"#utility.yul\":17639:17643   */\n      dup3\n        /* \"#utility.yul\":17621:17644   */\n      tag_390\n      jump\t// in\n    tag_613:\n        /* \"#utility.yul\":17613:17644   */\n      swap2\n      pop\n        /* \"#utility.yul\":17665:17692   */\n      tag_614\n        /* \"#utility.yul\":17683:17691   */\n      dup4\n        /* \"#utility.yul\":17665:17692   */\n      tag_390\n      jump\t// in\n    tag_614:\n        /* \"#utility.yul\":17653:17692   */\n      swap3\n      pop\n        /* \"#utility.yul\":17711:17815   */\n      tag_615\n        /* \"#utility.yul\":17748:17814   */\n      0xffffffffffffffffffffffffffffffffffffffffffffffffffffffffffffffff\n        /* \"#utility.yul\":17738:17746   */\n      dup5\n        /* \"#utility.yul\":17732:17736   */\n      dup5\n        /* \"#utility.yul\":17711:17815   */\n      tag_425\n      jump\t// in\n    tag_615:\n        /* \"#utility.yul\":17702:17815   */\n      swap1\n      pop\n        /* \"#utility.yul\":17537:17822   */\n      swap3\n      swap2\n      pop\n      pop\n      jump\t// out\n        /* \"#utility.yul\":17828:18000   */\n    tag_426:\n        /* \"#utility.yul\":17968:17992   */\n      0x616d6f756e7430206f7220616d6f756e7431203d203000000000000000000000\n        /* \"#utility.yul\":17964:17965   */\n      0x00\n        /* \"#utility.yul\":17956:17962   */\n      dup3\n        /* \"#utility.yul\":17952:17966   */\n      add\n        /* \"#utility.yul\":17945:17993   */\n      mstore\n        /* \"#utility.yul\":17828:18000   */\n      pop\n      jump\t// out\n        /* \"#utility.yul\":18006:18372   */\n    tag_427:\n        /* \"#utility.yul\":18148:18151   */\n      0x00\n        /* \"#utility.yul\":18169:18236   */\n      tag_618\n        /* \"#utility.yul\":18233:18235   */\n      0x16\n        /* \"#utility.yul\":18228:18231   */\n      dup4\n        /* \"#utility.yul\":18169:18236   */\n      tag_406\n      jump\t// in\n    tag_618:\n        /* \"#utility.yul\":18162:18236   */\n      swap2\n      pop\n        /* \"#utility.yul\":18245:18338   */\n      tag_619\n        /* \"#utility.yul\":18334:18337   */\n      dup3\n        /* \"#utility.yul\":18245:18338   */\n      tag_426\n      jump\t// in\n    tag_619:\n        /* \"#utility.yul\":18363:18365   */\n      0x20\n        /* \"#utility.yul\":18358:18361   */\n      dup3\n        /* \"#utility.yul\":18354:18366   */\n      add\n        /* \"#utility.yul\":18347:18366   */\n      swap1\n      pop\n        /* \"#utility.yul\":18006:18372   */\n      swap2\n      swap1\n      pop\n      jump\t// out\n        /* \"#utility.yul\":18378:18797   */\n    tag_347:\n        /* \"#utility.yul\":18544:18548   */\n      0x00\n        /* \"#utility.yul\":18582:18584   */\n      0x20\n        /* \"#utility.yul\":18571:18580   */\n      dup3\n        /* \"#utility.yul\":18567:18585   */\n      add\n        /* \"#utility.yul\":18559:18585   */\n      swap1\n      pop\n        /* \"#utility.yul\":18631:18640   */\n      dup2\n        /* \"#utility.yul\":18625:18629   */\n      dup2\n        /* \"#utility.yul\":18621:18641   */\n      sub\n        /* \"#utility.yul\":18617:18618   */\n      0x00\n        /* \"#utility.yul\":18606:18615   */\n      dup4\n        /* \"#utility.yul\":18602:18619   */\n      add\n        /* \"#utility.yul\":18595:18642   */\n      mstore\n        /* \"#utility.yul\":18659:18790   */\n      tag_621\n        /* \"#utility.yul\":18785:18789   */\n      dup2\n        /* \"#utility.yul\":18659:18790   */\n      tag_427\n      jump\t// in\n    tag_621:\n        /* \"#utility.yul\":18651:18790   */\n      swap1\n      pop\n        /* \"#utility.yul\":18378:18797   */\n      swap2\n      swap1\n      pop\n      jump\t// out\n\n    auxdata: 0xa2646970667358221220601235d6ce7d1875b069b3b46acee9450468d2f1aed68ee5dbe1551fdd09d31764736f6c63430008120033\n}\n",
				"bytecode": {
					"linkReferences": {},
					"object": "60c06040523480156200001157600080fd5b5060405162002d1838038062002d18833981810160405281019062000037919062000151565b336000806101000a81548173ffffffffffffffffffffffffffffffffffffffff021916908373ffffffffffffffffffffffffffffffffffffffff1602179055508173ffffffffffffffffffffffffffffffffffffffff1660808173ffffffffffffffffffffffffffffffffffffffff16815250508073ffffffffffffffffffffffffffffffffffffffff1660a08173ffffffffffffffffffffffffffffffffffffffff1681525050505062000198565b600080fd5b600073ffffffffffffffffffffffffffffffffffffffff82169050919050565b60006200011982620000ec565b9050919050565b6200012b816200010c565b81146200013757600080fd5b50565b6000815190506200014b8162000120565b92915050565b600080604083850312156200016b576200016a620000e7565b5b60006200017b858286016200013a565b92505060206200018e858286016200013a565b9150509250929050565b60805160a051612aa462000274600039600081816105fc015281816107380152818161089301528181610bc401528181610cdb01528181610f61015281816111ef01528181611455015281816117d20152818161190e015281816119b601528181611b0f01528181611da00152611ede01526000818161043d0152818161046f0152818161069e01528181610a8801528181610b2a01528181610e2501528181610ec70152818161114e015281816113bb015281816115dd0152818161187401528181611a7901528181611d060152611e3f0152612aa46000f3fe608060405234801561001057600080fd5b50600436106101215760003560e01c806394b918de116100ad578063a201ccf611610071578063a201ccf61461036e578063c9f4437e1461039f578063d21220a7146103cf578063f5eb42dc146103ed578063fcc2ba081461041d57610121565b806394b918de1461028f5780639c1e5375146102bf5780639c8f9f23146102ef5780639cd441da146103205780639e7a47571461035057610121565b80634d7d1598116100f45780634d7d1598146101b05780635a76f25e146101e057806362279b65146101fe57806370a082311461022e5780637a6a5e1b1461025e57610121565b80630dfe16811461012657806318160ddd14610144578063443cb4bc1461016257806346765bdc14610180575b600080fd5b61012e61043b565b60405161013b9190612107565b60405180910390f35b61014c61045f565b604051610159919061213b565b60405180910390f35b61016a610465565b604051610177919061213b565b60405180910390f35b61019a60048036038101906101959190612187565b61046b565b6040516101a7919061213b565b60405180910390f35b6101ca60048036038101906101c59190612187565b6107dc565b6040516101d7919061213b565b60405180910390f35b6101e8610889565b6040516101f5919061213b565b60405180910390f35b610218600480360381019061021391906121b4565b61088f565b604051610225919061213b565b60405180910390f35b61024860048036038101906102439190612245565b610c6a565b604051610255919061213b565b60405180910390f35b61027860048036038101906102739190612245565b610c82565b604051610286929190612272565b60405180910390f35b6102a960048036038101906102a49190612187565b610cd7565b6040516102b6919061213b565b60405180910390f35b6102d960048036038101906102d49190612187565b611005565b6040516102e6919061213b565b60405180910390f35b61030960048036038101906103049190612187565b6110b2565b604051610317929190612272565b60405180910390f35b61033a6004803603810190610335919061229b565b61114a565b604051610347919061213b565b60405180910390f35b6103586114f8565b604051610365919061213b565b60405180910390f35b610388600480360381019061038391906122db565b61153f565b604051610396929190612272565b60405180910390f35b6103b960048036038101906103b491906121b4565b6115d9565b6040516103c6919061213b565b60405180910390f35b6103d76119b4565b6040516103e49190612107565b60405180910390f35b61040760048036038101906104029190612245565b6119d8565b604051610414919061213b565b60405180910390f35b610425611a21565b604051610432919061213b565b60405180910390f35b7f000000000000000000000000000000000000000000000000000000000000000081565b60035481565b60015481565b60007f000000000000000000000000000000000000000000000000000000000000000073ffffffffffffffffffffffffffffffffffffffff166323b872dd3330856040518463ffffffff1660e01b81526004016104ca9392919061232a565b6020604051808303816000875af11580156104e9573d6000803e3d6000fd5b505050506040513d601f19601f8201168201806040525081019061050d9190612399565b5060006103e86103e58461052191906123f5565b61052b9190612466565b90508060015461053b9190612497565b8160025461054991906123f5565b6105539190612466565b915060008211610598576040517f08c379a000000000000000000000000000000000000000000000000000000000815260040161058f90612528565b60405180910390fd5b60006107d06001546105aa91906123f5565b6003546003866105ba91906123f5565b6105c491906123f5565b6105ce9190612466565b90506105fa60008054906101000a900473ffffffffffffffffffffffffffffffffffffffff1682611be6565b7f000000000000000000000000000000000000000000000000000000000000000073ffffffffffffffffffffffffffffffffffffffff1663a9059cbb33856040518363ffffffff1660e01b8152600401610655929190612548565b6020604051808303816000875af1158015610674573d6000803e3d6000fd5b505050506040513d601f19601f820116820180604052508101906106989190612399565b506107d57f000000000000000000000000000000000000000000000000000000000000000073ffffffffffffffffffffffffffffffffffffffff166370a08231306040518263ffffffff1660e01b81526004016106f59190612571565b602060405180830381865afa158015610712573d6000803e3d6000fd5b505050506040513d601f19601f8201168201806040525081019061073691906125a1565b7f000000000000000000000000000000000000000000000000000000000000000073ffffffffffffffffffffffffffffffffffffffff166370a08231306040518263ffffffff1660e01b815260040161078f9190612571565b602060405180830381865afa1580156107ac573d6000803e3d6000fd5b505050506040513d601f19601f820116820180604052508101906107d091906125a1565b611c59565b5050919050565b6000806001541180156107f157506000600254115b80156107fd5750600082115b61083c576040517f08c379a00000000000000000000000000000000000000000000000000000000081526004016108339061261a565b60405180910390fd5b60006103e86103e58461084f91906123f5565b6108599190612466565b9050806001546108699190612497565b8160025461087791906123f5565b6108819190612466565b915050919050565b60025481565b60007f000000000000000000000000000000000000000000000000000000000000000073ffffffffffffffffffffffffffffffffffffffff166323b872dd3330876040518463ffffffff1660e01b81526004016108ee9392919061232a565b6020604051808303816000875af115801561090d573d6000803e3d6000fd5b505050506040513d601f19601f820116820180604052508101906109319190612399565b5060006103e86103e58661094591906123f5565b61094f9190612466565b90508060015461095f9190612497565b8160025461096d91906123f5565b6109779190612466565b9150600082116109bc576040517f08c379a00000000000000000000000000000000000000000000000000000000081526004016109b390612528565b60405180910390fd5b6103e8836103e86109cd919061263a565b856109d891906123f5565b6109e29190612466565b821015610a24576040517f08c379a0000000000000000000000000000000000000000000000000000000008152600401610a1b906126ba565b60405180910390fd5b60006107d0600154610a3691906123f5565b600354600388610a4691906123f5565b610a5091906123f5565b610a5a9190612466565b9050610a8660008054906101000a900473ffffffffffffffffffffffffffffffffffffffff1682611be6565b7f000000000000000000000000000000000000000000000000000000000000000073ffffffffffffffffffffffffffffffffffffffff1663a9059cbb33856040518363ffffffff1660e01b8152600401610ae1929190612548565b6020604051808303816000875af1158015610b00573d6000803e3d6000fd5b505050506040513d601f19601f82011682018060405250810190610b249190612399565b50610c617f000000000000000000000000000000000000000000000000000000000000000073ffffffffffffffffffffffffffffffffffffffff166370a08231306040518263ffffffff1660e01b8152600401610b819190612571565b602060405180830381865afa158015610b9e573d6000803e3d6000fd5b505050506040513d601f19601f82011682018060405250810190610bc291906125a1565b7f000000000000000000000000000000000000000000000000000000000000000073ffffffffffffffffffffffffffffffffffffffff166370a08231306040518263ffffffff1660e01b8152600401610c1b9190612571565b602060405180830381865afa158015610c38573d6000803e3d6000fd5b505050506040513d601f19601f82011682018060405250810190610c5c91906125a1565b611c59565b50509392505050565b60046020528060005260406000206000915090505481565b600080610cce83600460008673ffffffffffffffffffffffffffffffffffffffff1673ffffffffffffffffffffffffffffffffffffffff16815260200190815260200160002054611c6b565b91509150915091565b60007f000000000000000000000000000000000000000000000000000000000000000073ffffffffffffffffffffffffffffffffffffffff166323b872dd3330856040518463ffffffff1660e01b8152600401610d369392919061232a565b6020604051808303816000875af1158015610d55573d6000803e3d6000fd5b505050506040513d601f19601f82011682018060405250810190610d799190612399565b5060006103e86103e584610d8d91906123f5565b610d979190612466565b905080600154610da79190612497565b81600254610db591906123f5565b610dbf9190612466565b915060006107d0600154610dd391906123f5565b600354600386610de391906123f5565b610ded91906123f5565b610df79190612466565b9050610e2360008054906101000a900473ffffffffffffffffffffffffffffffffffffffff1682611be6565b7f000000000000000000000000000000000000000000000000000000000000000073ffffffffffffffffffffffffffffffffffffffff1663a9059cbb33856040518363ffffffff1660e01b8152600401610e7e929190612548565b6020604051808303816000875af1158015610e9d573d6000803e3d6000fd5b505050506040513d601f19601f82011682018060405250810190610ec19190612399565b50610ffe7f000000000000000000000000000000000000000000000000000000000000000073ffffffffffffffffffffffffffffffffffffffff166370a08231306040518263ffffffff1660e01b8152600401610f1e9190612571565b602060405180830381865afa158015610f3b573d6000803e3d6000fd5b505050506040513d601f19601f82011682018060405250810190610f5f91906125a1565b7f000000000000000000000000000000000000000000000000000000000000000073ffffffffffffffffffffffffffffffffffffffff166370a08231306040518263ffffffff1660e01b8152600401610fb89190612571565b602060405180830381865afa158015610fd5573d6000803e3d6000fd5b505050506040513d601f19601f82011682018060405250810190610ff991906125a1565b611c59565b5050919050565b60008060015411801561101a57506000600254115b80156110265750600082115b611065576040517f08c379a000000000000000000000000000000000000000000000000000000000815260040161105c9061261a565b60405180910390fd5b60006103e86103e58461107891906123f5565b6110829190612466565b9050806002546110929190612497565b816001546110a091906123f5565b6110aa9190612466565b915050919050565b600080600460003373ffffffffffffffffffffffffffffffffffffffff1673ffffffffffffffffffffffffffffffffffffffff16815260200190815260200160002054831115611137576040517f08c379a000000000000000000000000000000000000000000000000000000000815260040161112e90612726565b60405180910390fd5b6111413384611c6b565b91509150915091565b60007f000000000000000000000000000000000000000000000000000000000000000073ffffffffffffffffffffffffffffffffffffffff166323b872dd3330866040518463ffffffff1660e01b81526004016111a99392919061232a565b6020604051808303816000875af11580156111c8573d6000803e3d6000fd5b505050506040513d601f19601f820116820180604052508101906111ec9190612399565b507f000000000000000000000000000000000000000000000000000000000000000073ffffffffffffffffffffffffffffffffffffffff166323b872dd3330856040518463ffffffff1660e01b815260040161124a9392919061232a565b6020604051808303816000875af1158015611269573d6000803e3d6000fd5b505050506040513d601f19601f8201168201806040525081019061128d9190612399565b50600060015411806112a157506000600254115b156113035781600154600254856112b891906123f5565b6112c29190612466565b14611302576040517f08c379a00000000000000000000000000000000000000000000000000000000081526004016112f990612792565b60405180910390fd5b5b60006003540361132857611321828461131c91906123f5565b611f82565b9050611369565b6113666001546003548561133c91906123f5565b6113469190612466565b6002546003548561135791906123f5565b6113619190612466565b611ffc565b90505b600081116113ac576040517f08c379a00000000000000000000000000000000000000000000000000000000081526004016113a3906127fe565b60405180910390fd5b6113b63382611be6565b6114f27f000000000000000000000000000000000000000000000000000000000000000073ffffffffffffffffffffffffffffffffffffffff166370a08231306040518263ffffffff1660e01b81526004016114129190612571565b602060405180830381865afa15801561142f573d6000803e3d6000fd5b505050506040513d601f19601f8201168201806040525081019061145391906125a1565b7f000000000000000000000000000000000000000000000000000000000000000073ffffffffffffffffffffffffffffffffffffffff166370a08231306040518263ffffffff1660e01b81526004016114ac9190612571565b602060405180830381865afa1580156114c9573d6000803e3d6000fd5b505050506040513d601f19601f820116820180604052508101906114ed91906125a1565b611c59565b92915050565b6000600460003373ffffffffffffffffffffffffffffffffffffffff1673ffffffffffffffffffffffffffffffffffffffff16815260200190815260200160002054905090565b600080600460008573ffffffffffffffffffffffffffffffffffffffff1673ffffffffffffffffffffffffffffffffffffffff168152602001908152602001600020548311156115c4576040517f08c379a00000000000000000000000000000000000000000000000000000000081526004016115bb90612726565b60405180910390fd5b6115ce8484611c6b565b915091509250929050565b60007f000000000000000000000000000000000000000000000000000000000000000073ffffffffffffffffffffffffffffffffffffffff166323b872dd3330876040518463ffffffff1660e01b81526004016116389392919061232a565b6020604051808303816000875af1158015611657573d6000803e3d6000fd5b505050506040513d601f19601f8201168201806040525081019061167b9190612399565b5060006103e86103e58661168f91906123f5565b6116999190612466565b9050806001546116a99190612497565b816002546116b791906123f5565b6116c19190612466565b915060008211611706576040517f08c379a00000000000000000000000000000000000000000000000000000000081526004016116fd90612528565b60405180910390fd5b6103e8836103e8611717919061263a565b8561172291906123f5565b61172c9190612466565b82101561176e576040517f08c379a0000000000000000000000000000000000000000000000000000000008152600401611765906126ba565b60405180910390fd5b60006107d060015461178091906123f5565b60035460038861179091906123f5565b61179a91906123f5565b6117a49190612466565b90506117d060008054906101000a900473ffffffffffffffffffffffffffffffffffffffff1682611be6565b7f000000000000000000000000000000000000000000000000000000000000000073ffffffffffffffffffffffffffffffffffffffff1663a9059cbb33856040518363ffffffff1660e01b815260040161182b929190612548565b6020604051808303816000875af115801561184a573d6000803e3d6000fd5b505050506040513d601f19601f8201168201806040525081019061186e9190612399565b506119ab7f000000000000000000000000000000000000000000000000000000000000000073ffffffffffffffffffffffffffffffffffffffff166370a08231306040518263ffffffff1660e01b81526004016118cb9190612571565b602060405180830381865afa1580156118e8573d6000803e3d6000fd5b505050506040513d601f19601f8201168201806040525081019061190c91906125a1565b7f000000000000000000000000000000000000000000000000000000000000000073ffffffffffffffffffffffffffffffffffffffff166370a08231306040518263ffffffff1660e01b81526004016119659190612571565b602060405180830381865afa158015611982573d6000803e3d6000fd5b505050506040513d601f19601f820116820180604052508101906119a691906125a1565b611c59565b50509392505050565b7f000000000000000000000000000000000000000000000000000000000000000081565b6000600460008373ffffffffffffffffffffffffffffffffffffffff1673ffffffffffffffffffffffffffffffffffffffff168152602001908152602001600020549050919050565b600080600154118015611a3657506000600254115b611a75576040517f08c379a0000000000000000000000000000000000000000000000000000000008152600401611a6c9061261a565b60405180910390fd5b60007f000000000000000000000000000000000000000000000000000000000000000073ffffffffffffffffffffffffffffffffffffffff1663313ce5676040518163ffffffff1660e01b8152600401602060405180830381865afa158015611ae2573d6000803e3d6000fd5b505050506040513d601f19601f82011682018060405250810190611b069190612857565b60ff16905060007f000000000000000000000000000000000000000000000000000000000000000073ffffffffffffffffffffffffffffffffffffffff1663313ce5676040518163ffffffff1660e01b8152600401602060405180830381865afa158015611b78573d6000803e3d6000fd5b505050506040513d601f19601f82011682018060405250810190611b9c9190612857565b60ff16905081600a611bae91906129b7565b600254611bbb91906123f5565b81600a611bc891906129b7565b600154611bd591906123f5565b611bdf9190612466565b9250505090565b80600460008473ffffffffffffffffffffffffffffffffffffffff1673ffffffffffffffffffffffffffffffffffffffff1681526020019081526020016000206000828254611c359190612497565b925050819055508060036000828254611c4e9190612497565b925050819055505050565b81600181905550806002819055505050565b60008060035460015484611c7f91906123f5565b611c899190612466565b915060035460025484611c9c91906123f5565b611ca69190612466565b9050600082118015611cb85750600081115b611cf7576040517f08c379a0000000000000000000000000000000000000000000000000000000008152600401611cee90612a4e565b60405180910390fd5b611d018484612015565b611e3d7f000000000000000000000000000000000000000000000000000000000000000073ffffffffffffffffffffffffffffffffffffffff166370a08231306040518263ffffffff1660e01b8152600401611d5d9190612571565b602060405180830381865afa158015611d7a573d6000803e3d6000fd5b505050506040513d601f19601f82011682018060405250810190611d9e91906125a1565b7f000000000000000000000000000000000000000000000000000000000000000073ffffffffffffffffffffffffffffffffffffffff166370a08231306040518263ffffffff1660e01b8152600401611df79190612571565b602060405180830381865afa158015611e14573d6000803e3d6000fd5b505050506040513d601f19601f82011682018060405250810190611e3891906125a1565b611c59565b7f000000000000000000000000000000000000000000000000000000000000000073ffffffffffffffffffffffffffffffffffffffff1663a9059cbb85846040518363ffffffff1660e01b8152600401611e98929190612548565b6020604051808303816000875af1158015611eb7573d6000803e3d6000fd5b505050506040513d601f19601f82011682018060405250810190611edb9190612399565b507f000000000000000000000000000000000000000000000000000000000000000073ffffffffffffffffffffffffffffffffffffffff1663a9059cbb85836040518363ffffffff1660e01b8152600401611f37929190612548565b6020604051808303816000875af1158015611f56573d6000803e3d6000fd5b505050506040513d601f19601f82011682018060405250810190611f7a9190612399565b509250929050565b60006003821115611fe95781905060006001600284611fa19190612466565b611fab9190612497565b90505b81811015611fe3578091506002818285611fc89190612466565b611fd29190612497565b611fdc9190612466565b9050611fae565b50611ff7565b60008214611ff657600190505b5b919050565b600081831061200b578161200d565b825b905092915050565b80600460008473ffffffffffffffffffffffffffffffffffffffff1673ffffffffffffffffffffffffffffffffffffffff1681526020019081526020016000206000828254612064919061263a565b92505081905550806003600082825461207d919061263a565b925050819055505050565b600073ffffffffffffffffffffffffffffffffffffffff82169050919050565b6000819050919050565b60006120cd6120c86120c384612088565b6120a8565b612088565b9050919050565b60006120df826120b2565b9050919050565b60006120f1826120d4565b9050919050565b612101816120e6565b82525050565b600060208201905061211c60008301846120f8565b92915050565b6000819050919050565b61213581612122565b82525050565b6000602082019050612150600083018461212c565b92915050565b600080fd5b61216481612122565b811461216f57600080fd5b50565b6000813590506121818161215b565b92915050565b60006020828403121561219d5761219c612156565b5b60006121ab84828501612172565b91505092915050565b6000806000606084860312156121cd576121cc612156565b5b60006121db86828701612172565b93505060206121ec86828701612172565b92505060406121fd86828701612172565b9150509250925092565b600061221282612088565b9050919050565b61222281612207565b811461222d57600080fd5b50565b60008135905061223f81612219565b92915050565b60006020828403121561225b5761225a612156565b5b600061226984828501612230565b91505092915050565b6000604082019050612287600083018561212c565b612294602083018461212c565b9392505050565b600080604083850312156122b2576122b1612156565b5b60006122c085828601612172565b92505060206122d185828601612172565b9150509250929050565b600080604083850312156122f2576122f1612156565b5b600061230085828601612230565b925050602061231185828601612172565b9150509250929050565b61232481612207565b82525050565b600060608201905061233f600083018661231b565b61234c602083018561231b565b612359604083018461212c565b949350505050565b60008115159050919050565b61237681612361565b811461238157600080fd5b50565b6000815190506123938161236d565b92915050565b6000602082840312156123af576123ae612156565b5b60006123bd84828501612384565b91505092915050565b7f4e487b7100000000000000000000000000000000000000000000000000000000600052601160045260246000fd5b600061240082612122565b915061240b83612122565b925082820261241981612122565b915082820484148315176124305761242f6123c6565b5b5092915050565b7f4e487b7100000000000000000000000000000000000000000000000000000000600052601260045260246000fd5b600061247182612122565b915061247c83612122565b92508261248c5761248b612437565b5b828204905092915050565b60006124a282612122565b91506124ad83612122565b92508282019050808211156124c5576124c46123c6565b5b92915050565b600082825260208201905092915050565b7f496e73756666696369656e74206f757470757420616d6f756e74000000000000600082015250565b6000612512601a836124cb565b915061251d826124dc565b602082019050919050565b6000602082019050818103600083015261254181612505565b9050919050565b600060408201905061255d600083018561231b565b61256a602083018461212c565b9392505050565b6000602082019050612586600083018461231b565b92915050565b60008151905061259b8161215b565b92915050565b6000602082840312156125b7576125b6612156565b5b60006125c58482850161258c565b91505092915050565b7f496e76616c696420726573657276657300000000000000000000000000000000600082015250565b60006126046010836124cb565b915061260f826125ce565b602082019050919050565b60006020820190508181036000830152612633816125f7565b9050919050565b600061264582612122565b915061265083612122565b9250828203905081811115612668576126676123c6565b5b92915050565b7f536c69704c6f636b000000000000000000000000000000000000000000000000600082015250565b60006126a46008836124cb565b91506126af8261266e565b602082019050919050565b600060208201905081810360008301526126d381612697565b9050919050565b7f496e73756666696369656e742062616c616e6365000000000000000000000000600082015250565b60006127106014836124cb565b915061271b826126da565b602082019050919050565b6000602082019050818103600083015261273f81612703565b9050919050565b7f496e76616c6964206c697175696469747920726174696f000000000000000000600082015250565b600061277c6017836124cb565b915061278782612746565b602082019050919050565b600060208201905081810360008301526127ab8161276f565b9050919050565b7f736861726573203d203000000000000000000000000000000000000000000000600082015250565b60006127e8600a836124cb565b91506127f3826127b2565b602082019050919050565b60006020820190508181036000830152612817816127db565b9050919050565b600060ff82169050919050565b6128348161281e565b811461283f57600080fd5b50565b6000815190506128518161282b565b92915050565b60006020828403121561286d5761286c612156565b5b600061287b84828501612842565b91505092915050565b60008160011c9050919050565b6000808291508390505b60018511156128db578086048111156128b7576128b66123c6565b5b60018516156128c65780820291505b80810290506128d485612884565b945061289b565b94509492505050565b6000826128f457600190506129b0565b8161290257600090506129b0565b8160018114612918576002811461292257612951565b60019150506129b0565b60ff841115612934576129336123c6565b5b8360020a91508482111561294b5761294a6123c6565b5b506129b0565b5060208310610133831016604e8410600b84101617156129865782820a905083811115612981576129806123c6565b5b6129b0565b6129938484846001612891565b925090508184048111156129aa576129a96123c6565b5b81810290505b9392505050565b60006129c282612122565b91506129cd83612122565b92506129fa7fffffffffffffffffffffffffffffffffffffffffffffffffffffffffffffffff84846128e4565b905092915050565b7f616d6f756e7430206f7220616d6f756e7431203d203000000000000000000000600082015250565b6000612a386016836124cb565b9150612a4382612a02565b602082019050919050565b60006020820190508181036000830152612a6781612a2b565b905091905056fea2646970667358221220601235d6ce7d1875b069b3b46acee9450468d2f1aed68ee5dbe1551fdd09d31764736f6c63430008120033",
					"opcodes": "PUSH1 0xC0 PUSH1 0x40 MSTORE CALLVALUE DUP1 ISZERO PUSH3 0x11 JUMPI PUSH1 0x0 DUP1 REVERT JUMPDEST POP PUSH1 0x40 MLOAD PUSH3 0x2D18 CODESIZE SUB DUP1 PUSH3 0x2D18 DUP4 CODECOPY DUP2 DUP2 ADD PUSH1 0x40 MSTORE DUP2 ADD SWAP1 PUSH3 0x37 SWAP2 SWAP1 PUSH3 0x151 JUMP JUMPDEST CALLER PUSH1 0x0 DUP1 PUSH2 0x100 EXP DUP2 SLOAD DUP2 PUSH20 0xFFFFFFFFFFFFFFFFFFFFFFFFFFFFFFFFFFFFFFFF MUL NOT AND SWAP1 DUP4 PUSH20 0xFFFFFFFFFFFFFFFFFFFFFFFFFFFFFFFFFFFFFFFF AND MUL OR SWAP1 SSTORE POP DUP2 PUSH20 0xFFFFFFFFFFFFFFFFFFFFFFFFFFFFFFFFFFFFFFFF AND PUSH1 0x80 DUP2 PUSH20 0xFFFFFFFFFFFFFFFFFFFFFFFFFFFFFFFFFFFFFFFF AND DUP2 MSTORE POP POP DUP1 PUSH20 0xFFFFFFFFFFFFFFFFFFFFFFFFFFFFFFFFFFFFFFFF AND PUSH1 0xA0 DUP2 PUSH20 0xFFFFFFFFFFFFFFFFFFFFFFFFFFFFFFFFFFFFFFFF AND DUP2 MSTORE POP POP POP POP PUSH3 0x198 JUMP JUMPDEST PUSH1 0x0 DUP1 REVERT JUMPDEST PUSH1 0x0 PUSH20 0xFFFFFFFFFFFFFFFFFFFFFFFFFFFFFFFFFFFFFFFF DUP3 AND SWAP1 POP SWAP2 SWAP1 POP JUMP JUMPDEST PUSH1 0x0 PUSH3 0x119 DUP3 PUSH3 0xEC JUMP JUMPDEST SWAP1 POP SWAP2 SWAP1 POP JUMP JUMPDEST PUSH3 0x12B DUP2 PUSH3 0x10C JUMP JUMPDEST DUP2 EQ PUSH3 0x137 JUMPI PUSH1 0x0 DUP1 REVERT JUMPDEST POP JUMP JUMPDEST PUSH1 0x0 DUP2 MLOAD SWAP1 POP PUSH3 0x14B DUP2 PUSH3 0x120 JUMP JUMPDEST SWAP3 SWAP2 POP POP JUMP JUMPDEST PUSH1 0x0 DUP1 PUSH1 0x40 DUP4 DUP6 SUB SLT ISZERO PUSH3 0x16B JUMPI PUSH3 0x16A PUSH3 0xE7 JUMP JUMPDEST JUMPDEST PUSH1 0x0 PUSH3 0x17B DUP6 DUP3 DUP7 ADD PUSH3 0x13A JUMP JUMPDEST SWAP3 POP POP PUSH1 0x20 PUSH3 0x18E DUP6 DUP3 DUP7 ADD PUSH3 0x13A JUMP JUMPDEST SWAP2 POP POP SWAP3 POP SWAP3 SWAP1 POP JUMP JUMPDEST PUSH1 0x80 MLOAD PUSH1 0xA0 MLOAD PUSH2 0x2AA4 PUSH3 0x274 PUSH1 0x0 CODECOPY PUSH1 0x0 DUP2 DUP2 PUSH2 0x5FC ADD MSTORE DUP2 DUP2 PUSH2 0x738 ADD MSTORE DUP2 DUP2 PUSH2 0x893 ADD MSTORE DUP2 DUP2 PUSH2 0xBC4 ADD MSTORE DUP2 DUP2 PUSH2 0xCDB ADD MSTORE DUP2 DUP2 PUSH2 0xF61 ADD MSTORE DUP2 DUP2 PUSH2 0x11EF ADD MSTORE DUP2 DUP2 PUSH2 0x1455 ADD MSTORE DUP2 DUP2 PUSH2 0x17D2 ADD MSTORE DUP2 DUP2 PUSH2 0x190E ADD MSTORE DUP2 DUP2 PUSH2 0x19B6 ADD MSTORE DUP2 DUP2 PUSH2 0x1B0F ADD MSTORE DUP2 DUP2 PUSH2 0x1DA0 ADD MSTORE PUSH2 0x1EDE ADD MSTORE PUSH1 0x0 DUP2 DUP2 PUSH2 0x43D ADD MSTORE DUP2 DUP2 PUSH2 0x46F ADD MSTORE DUP2 DUP2 PUSH2 0x69E ADD MSTORE DUP2 DUP2 PUSH2 0xA88 ADD MSTORE DUP2 DUP2 PUSH2 0xB2A ADD MSTORE DUP2 DUP2 PUSH2 0xE25 ADD MSTORE DUP2 DUP2 PUSH2 0xEC7 ADD MSTORE DUP2 DUP2 PUSH2 0x114E ADD MSTORE DUP2 DUP2 PUSH2 0x13BB ADD MSTORE DUP2 DUP2 PUSH2 0x15DD ADD MSTORE DUP2 DUP2 PUSH2 0x1874 ADD MSTORE DUP2 DUP2 PUSH2 0x1A79 ADD MSTORE DUP2 DUP2 PUSH2 0x1D06 ADD MSTORE PUSH2 0x1E3F ADD MSTORE PUSH2 0x2AA4 PUSH1 0x0 RETURN INVALID PUSH1 0x80 PUSH1 0x40 MSTORE CALLVALUE DUP1 ISZERO PUSH2 0x10 JUMPI PUSH1 0x0 DUP1 REVERT JUMPDEST POP PUSH1 0x4 CALLDATASIZE LT PUSH2 0x121 JUMPI PUSH1 0x0 CALLDATALOAD PUSH1 0xE0 SHR DUP1 PUSH4 0x94B918DE GT PUSH2 0xAD JUMPI DUP1 PUSH4 0xA201CCF6 GT PUSH2 0x71 JUMPI DUP1 PUSH4 0xA201CCF6 EQ PUSH2 0x36E JUMPI DUP1 PUSH4 0xC9F4437E EQ PUSH2 0x39F JUMPI DUP1 PUSH4 0xD21220A7 EQ PUSH2 0x3CF JUMPI DUP1 PUSH4 0xF5EB42DC EQ PUSH2 0x3ED JUMPI DUP1 PUSH4 0xFCC2BA08 EQ PUSH2 0x41D JUMPI PUSH2 0x121 JUMP JUMPDEST DUP1 PUSH4 0x94B918DE EQ PUSH2 0x28F JUMPI DUP1 PUSH4 0x9C1E5375 EQ PUSH2 0x2BF JUMPI DUP1 PUSH4 0x9C8F9F23 EQ PUSH2 0x2EF JUMPI DUP1 PUSH4 0x9CD441DA EQ PUSH2 0x320 JUMPI DUP1 PUSH4 0x9E7A4757 EQ PUSH2 0x350 JUMPI PUSH2 0x121 JUMP JUMPDEST DUP1 PUSH4 0x4D7D1598 GT PUSH2 0xF4 JUMPI DUP1 PUSH4 0x4D7D1598 EQ PUSH2 0x1B0 JUMPI DUP1 PUSH4 0x5A76F25E EQ PUSH2 0x1E0 JUMPI DUP1 PUSH4 0x62279B65 EQ PUSH2 0x1FE JUMPI DUP1 PUSH4 0x70A08231 EQ PUSH2 0x22E JUMPI DUP1 PUSH4 0x7A6A5E1B EQ PUSH2 0x25E JUMPI PUSH2 0x121 JUMP JUMPDEST DUP1 PUSH4 0xDFE1681 EQ PUSH2 0x126 JUMPI DUP1 PUSH4 0x18160DDD EQ PUSH2 0x144 JUMPI DUP1 PUSH4 0x443CB4BC EQ PUSH2 0x162 JUMPI DUP1 PUSH4 0x46765BDC EQ PUSH2 0x180 JUMPI JUMPDEST PUSH1 0x0 DUP1 REVERT JUMPDEST PUSH2 0x12E PUSH2 0x43B JUMP JUMPDEST PUSH1 0x40 MLOAD PUSH2 0x13B SWAP2 SWAP1 PUSH2 0x2107 JUMP JUMPDEST PUSH1 0x40 MLOAD DUP1 SWAP2 SUB SWAP1 RETURN JUMPDEST PUSH2 0x14C PUSH2 0x45F JUMP JUMPDEST PUSH1 0x40 MLOAD PUSH2 0x159 SWAP2 SWAP1 PUSH2 0x213B JUMP JUMPDEST PUSH1 0x40 MLOAD DUP1 SWAP2 SUB SWAP1 RETURN JUMPDEST PUSH2 0x16A PUSH2 0x465 JUMP JUMPDEST PUSH1 0x40 MLOAD PUSH2 0x177 SWAP2 SWAP1 PUSH2 0x213B JUMP JUMPDEST PUSH1 0x40 MLOAD DUP1 SWAP2 SUB SWAP1 RETURN JUMPDEST PUSH2 0x19A PUSH1 0x4 DUP1 CALLDATASIZE SUB DUP2 ADD SWAP1 PUSH2 0x195 SWAP2 SWAP1 PUSH2 0x2187 JUMP JUMPDEST PUSH2 0x46B JUMP JUMPDEST PUSH1 0x40 MLOAD PUSH2 0x1A7 SWAP2 SWAP1 PUSH2 0x213B JUMP JUMPDEST PUSH1 0x40 MLOAD DUP1 SWAP2 SUB SWAP1 RETURN JUMPDEST PUSH2 0x1CA PUSH1 0x4 DUP1 CALLDATASIZE SUB DUP2 ADD SWAP1 PUSH2 0x1C5 SWAP2 SWAP1 PUSH2 0x2187 JUMP JUMPDEST PUSH2 0x7DC JUMP JUMPDEST PUSH1 0x40 MLOAD PUSH2 0x1D7 SWAP2 SWAP1 PUSH2 0x213B JUMP JUMPDEST PUSH1 0x40 MLOAD DUP1 SWAP2 SUB SWAP1 RETURN JUMPDEST PUSH2 0x1E8 PUSH2 0x889 JUMP JUMPDEST PUSH1 0x40 MLOAD PUSH2 0x1F5 SWAP2 SWAP1 PUSH2 0x213B JUMP JUMPDEST PUSH1 0x40 MLOAD DUP1 SWAP2 SUB SWAP1 RETURN JUMPDEST PUSH2 0x218 PUSH1 0x4 DUP1 CALLDATASIZE SUB DUP2 ADD SWAP1 PUSH2 0x213 SWAP2 SWAP1 PUSH2 0x21B4 JUMP JUMPDEST PUSH2 0x88F JUMP JUMPDEST PUSH1 0x40 MLOAD PUSH2 0x225 SWAP2 SWAP1 PUSH2 0x213B JUMP JUMPDEST PUSH1 0x40 MLOAD DUP1 SWAP2 SUB SWAP1 RETURN JUMPDEST PUSH2 0x248 PUSH1 0x4 DUP1 CALLDATASIZE SUB DUP2 ADD SWAP1 PUSH2 0x243 SWAP2 SWAP1 PUSH2 0x2245 JUMP JUMPDEST PUSH2 0xC6A JUMP JUMPDEST PUSH1 0x40 MLOAD PUSH2 0x255 SWAP2 SWAP1 PUSH2 0x213B JUMP JUMPDEST PUSH1 0x40 MLOAD DUP1 SWAP2 SUB SWAP1 RETURN JUMPDEST PUSH2 0x278 PUSH1 0x4 DUP1 CALLDATASIZE SUB DUP2 ADD SWAP1 PUSH2 0x273 SWAP2 SWAP1 PUSH2 0x2245 JUMP JUMPDEST PUSH2 0xC82 JUMP JUMPDEST PUSH1 0x40 MLOAD PUSH2 0x286 SWAP3 SWAP2 SWAP1 PUSH2 0x2272 JUMP JUMPDEST PUSH1 0x40 MLOAD DUP1 SWAP2 SUB SWAP1 RETURN JUMPDEST PUSH2 0x2A9 PUSH1 0x4 DUP1 CALLDATASIZE SUB DUP2 ADD SWAP1 PUSH2 0x2A4 SWAP2 SWAP1 PUSH2 0x2187 JUMP JUMPDEST PUSH2 0xCD7 JUMP JUMPDEST PUSH1 0x40 MLOAD PUSH2 0x2B6 SWAP2 SWAP1 PUSH2 0x213B JUMP JUMPDEST PUSH1 0x40 MLOAD DUP1 SWAP2 SUB SWAP1 RETURN JUMPDEST PUSH2 0x2D9 PUSH1 0x4 DUP1 CALLDATASIZE SUB DUP2 ADD SWAP1 PUSH2 0x2D4 SWAP2 SWAP1 PUSH2 0x2187 JUMP JUMPDEST PUSH2 0x1005 JUMP JUMPDEST PUSH1 0x40 MLOAD PUSH2 0x2E6 SWAP2 SWAP1 PUSH2 0x213B JUMP JUMPDEST PUSH1 0x40 MLOAD DUP1 SWAP2 SUB SWAP1 RETURN JUMPDEST PUSH2 0x309 PUSH1 0x4 DUP1 CALLDATASIZE SUB DUP2 ADD SWAP1 PUSH2 0x304 SWAP2 SWAP1 PUSH2 0x2187 JUMP JUMPDEST PUSH2 0x10B2 JUMP JUMPDEST PUSH1 0x40 MLOAD PUSH2 0x317 SWAP3 SWAP2 SWAP1 PUSH2 0x2272 JUMP JUMPDEST PUSH1 0x40 MLOAD DUP1 SWAP2 SUB SWAP1 RETURN JUMPDEST PUSH2 0x33A PUSH1 0x4 DUP1 CALLDATASIZE SUB DUP2 ADD SWAP1 PUSH2 0x335 SWAP2 SWAP1 PUSH2 0x229B JUMP JUMPDEST PUSH2 0x114A JUMP JUMPDEST PUSH1 0x40 MLOAD PUSH2 0x347 SWAP2 SWAP1 PUSH2 0x213B JUMP JUMPDEST PUSH1 0x40 MLOAD DUP1 SWAP2 SUB SWAP1 RETURN JUMPDEST PUSH2 0x358 PUSH2 0x14F8 JUMP JUMPDEST PUSH1 0x40 MLOAD PUSH2 0x365 SWAP2 SWAP1 PUSH2 0x213B JUMP JUMPDEST PUSH1 0x40 MLOAD DUP1 SWAP2 SUB SWAP1 RETURN JUMPDEST PUSH2 0x388 PUSH1 0x4 DUP1 CALLDATASIZE SUB DUP2 ADD SWAP1 PUSH2 0x383 SWAP2 SWAP1 PUSH2 0x22DB JUMP JUMPDEST PUSH2 0x153F JUMP JUMPDEST PUSH1 0x40 MLOAD PUSH2 0x396 SWAP3 SWAP2 SWAP1 PUSH2 0x2272 JUMP JUMPDEST PUSH1 0x40 MLOAD DUP1 SWAP2 SUB SWAP1 RETURN JUMPDEST PUSH2 0x3B9 PUSH1 0x4 DUP1 CALLDATASIZE SUB DUP2 ADD SWAP1 PUSH2 0x3B4 SWAP2 SWAP1 PUSH2 0x21B4 JUMP JUMPDEST PUSH2 0x15D9 JUMP JUMPDEST PUSH1 0x40 MLOAD PUSH2 0x3C6 SWAP2 SWAP1 PUSH2 0x213B JUMP JUMPDEST PUSH1 0x40 MLOAD DUP1 SWAP2 SUB SWAP1 RETURN JUMPDEST PUSH2 0x3D7 PUSH2 0x19B4 JUMP JUMPDEST PUSH1 0x40 MLOAD PUSH2 0x3E4 SWAP2 SWAP1 PUSH2 0x2107 JUMP JUMPDEST PUSH1 0x40 MLOAD DUP1 SWAP2 SUB SWAP1 RETURN JUMPDEST PUSH2 0x407 PUSH1 0x4 DUP1 CALLDATASIZE SUB DUP2 ADD SWAP1 PUSH2 0x402 SWAP2 SWAP1 PUSH2 0x2245 JUMP JUMPDEST PUSH2 0x19D8 JUMP JUMPDEST PUSH1 0x40 MLOAD PUSH2 0x414 SWAP2 SWAP1 PUSH2 0x213B JUMP JUMPDEST PUSH1 0x40 MLOAD DUP1 SWAP2 SUB SWAP1 RETURN JUMPDEST PUSH2 0x425 PUSH2 0x1A21 JUMP JUMPDEST PUSH1 0x40 MLOAD PUSH2 0x432 SWAP2 SWAP1 PUSH2 0x213B JUMP JUMPDEST PUSH1 0x40 MLOAD DUP1 SWAP2 SUB SWAP1 RETURN JUMPDEST PUSH32 0x0 DUP2 JUMP JUMPDEST PUSH1 0x3 SLOAD DUP2 JUMP JUMPDEST PUSH1 0x1 SLOAD DUP2 JUMP JUMPDEST PUSH1 0x0 PUSH32 0x0 PUSH20 0xFFFFFFFFFFFFFFFFFFFFFFFFFFFFFFFFFFFFFFFF AND PUSH4 0x23B872DD CALLER ADDRESS DUP6 PUSH1 0x40 MLOAD DUP5 PUSH4 0xFFFFFFFF AND PUSH1 0xE0 SHL DUP2 MSTORE PUSH1 0x4 ADD PUSH2 0x4CA SWAP4 SWAP3 SWAP2 SWAP1 PUSH2 0x232A JUMP JUMPDEST PUSH1 0x20 PUSH1 0x40 MLOAD DUP1 DUP4 SUB DUP2 PUSH1 0x0 DUP8 GAS CALL ISZERO DUP1 ISZERO PUSH2 0x4E9 JUMPI RETURNDATASIZE PUSH1 0x0 DUP1 RETURNDATACOPY RETURNDATASIZE PUSH1 0x0 REVERT JUMPDEST POP POP POP POP PUSH1 0x40 MLOAD RETURNDATASIZE PUSH1 0x1F NOT PUSH1 0x1F DUP3 ADD AND DUP3 ADD DUP1 PUSH1 0x40 MSTORE POP DUP2 ADD SWAP1 PUSH2 0x50D SWAP2 SWAP1 PUSH2 0x2399 JUMP JUMPDEST POP PUSH1 0x0 PUSH2 0x3E8 PUSH2 0x3E5 DUP5 PUSH2 0x521 SWAP2 SWAP1 PUSH2 0x23F5 JUMP JUMPDEST PUSH2 0x52B SWAP2 SWAP1 PUSH2 0x2466 JUMP JUMPDEST SWAP1 POP DUP1 PUSH1 0x1 SLOAD PUSH2 0x53B SWAP2 SWAP1 PUSH2 0x2497 JUMP JUMPDEST DUP2 PUSH1 0x2 SLOAD PUSH2 0x549 SWAP2 SWAP1 PUSH2 0x23F5 JUMP JUMPDEST PUSH2 0x553 SWAP2 SWAP1 PUSH2 0x2466 JUMP JUMPDEST SWAP2 POP PUSH1 0x0 DUP3 GT PUSH2 0x598 JUMPI PUSH1 0x40 MLOAD PUSH32 0x8C379A000000000000000000000000000000000000000000000000000000000 DUP2 MSTORE PUSH1 0x4 ADD PUSH2 0x58F SWAP1 PUSH2 0x2528 JUMP JUMPDEST PUSH1 0x40 MLOAD DUP1 SWAP2 SUB SWAP1 REVERT JUMPDEST PUSH1 0x0 PUSH2 0x7D0 PUSH1 0x1 SLOAD PUSH2 0x5AA SWAP2 SWAP1 PUSH2 0x23F5 JUMP JUMPDEST PUSH1 0x3 SLOAD PUSH1 0x3 DUP7 PUSH2 0x5BA SWAP2 SWAP1 PUSH2 0x23F5 JUMP JUMPDEST PUSH2 0x5C4 SWAP2 SWAP1 PUSH2 0x23F5 JUMP JUMPDEST PUSH2 0x5CE SWAP2 SWAP1 PUSH2 0x2466 JUMP JUMPDEST SWAP1 POP PUSH2 0x5FA PUSH1 0x0 DUP1 SLOAD SWAP1 PUSH2 0x100 EXP SWAP1 DIV PUSH20 0xFFFFFFFFFFFFFFFFFFFFFFFFFFFFFFFFFFFFFFFF AND DUP3 PUSH2 0x1BE6 JUMP JUMPDEST PUSH32 0x0 PUSH20 0xFFFFFFFFFFFFFFFFFFFFFFFFFFFFFFFFFFFFFFFF AND PUSH4 0xA9059CBB CALLER DUP6 PUSH1 0x40 MLOAD DUP4 PUSH4 0xFFFFFFFF AND PUSH1 0xE0 SHL DUP2 MSTORE PUSH1 0x4 ADD PUSH2 0x655 SWAP3 SWAP2 SWAP1 PUSH2 0x2548 JUMP JUMPDEST PUSH1 0x20 PUSH1 0x40 MLOAD DUP1 DUP4 SUB DUP2 PUSH1 0x0 DUP8 GAS CALL ISZERO DUP1 ISZERO PUSH2 0x674 JUMPI RETURNDATASIZE PUSH1 0x0 DUP1 RETURNDATACOPY RETURNDATASIZE PUSH1 0x0 REVERT JUMPDEST POP POP POP POP PUSH1 0x40 MLOAD RETURNDATASIZE PUSH1 0x1F NOT PUSH1 0x1F DUP3 ADD AND DUP3 ADD DUP1 PUSH1 0x40 MSTORE POP DUP2 ADD SWAP1 PUSH2 0x698 SWAP2 SWAP1 PUSH2 0x2399 JUMP JUMPDEST POP PUSH2 0x7D5 PUSH32 0x0 PUSH20 0xFFFFFFFFFFFFFFFFFFFFFFFFFFFFFFFFFFFFFFFF AND PUSH4 0x70A08231 ADDRESS PUSH1 0x40 MLOAD DUP3 PUSH4 0xFFFFFFFF AND PUSH1 0xE0 SHL DUP2 MSTORE PUSH1 0x4 ADD PUSH2 0x6F5 SWAP2 SWAP1 PUSH2 0x2571 JUMP JUMPDEST PUSH1 0x20 PUSH1 0x40 MLOAD DUP1 DUP4 SUB DUP2 DUP7 GAS STATICCALL ISZERO DUP1 ISZERO PUSH2 0x712 JUMPI RETURNDATASIZE PUSH1 0x0 DUP1 RETURNDATACOPY RETURNDATASIZE PUSH1 0x0 REVERT JUMPDEST POP POP POP POP PUSH1 0x40 MLOAD RETURNDATASIZE PUSH1 0x1F NOT PUSH1 0x1F DUP3 ADD AND DUP3 ADD DUP1 PUSH1 0x40 MSTORE POP DUP2 ADD SWAP1 PUSH2 0x736 SWAP2 SWAP1 PUSH2 0x25A1 JUMP JUMPDEST PUSH32 0x0 PUSH20 0xFFFFFFFFFFFFFFFFFFFFFFFFFFFFFFFFFFFFFFFF AND PUSH4 0x70A08231 ADDRESS PUSH1 0x40 MLOAD DUP3 PUSH4 0xFFFFFFFF AND PUSH1 0xE0 SHL DUP2 MSTORE PUSH1 0x4 ADD PUSH2 0x78F SWAP2 SWAP1 PUSH2 0x2571 JUMP JUMPDEST PUSH1 0x20 PUSH1 0x40 MLOAD DUP1 DUP4 SUB DUP2 DUP7 GAS STATICCALL ISZERO DUP1 ISZERO PUSH2 0x7AC JUMPI RETURNDATASIZE PUSH1 0x0 DUP1 RETURNDATACOPY RETURNDATASIZE PUSH1 0x0 REVERT JUMPDEST POP POP POP POP PUSH1 0x40 MLOAD RETURNDATASIZE PUSH1 0x1F NOT PUSH1 0x1F DUP3 ADD AND DUP3 ADD DUP1 PUSH1 0x40 MSTORE POP DUP2 ADD SWAP1 PUSH2 0x7D0 SWAP2 SWAP1 PUSH2 0x25A1 JUMP JUMPDEST PUSH2 0x1C59 JUMP JUMPDEST POP POP SWAP2 SWAP1 POP JUMP JUMPDEST PUSH1 0x0 DUP1 PUSH1 0x1 SLOAD GT DUP1 ISZERO PUSH2 0x7F1 JUMPI POP PUSH1 0x0 PUSH1 0x2 SLOAD GT JUMPDEST DUP1 ISZERO PUSH2 0x7FD JUMPI POP PUSH1 0x0 DUP3 GT JUMPDEST PUSH2 0x83C JUMPI PUSH1 0x40 MLOAD PUSH32 0x8C379A000000000000000000000000000000000000000000000000000000000 DUP2 MSTORE PUSH1 0x4 ADD PUSH2 0x833 SWAP1 PUSH2 0x261A JUMP JUMPDEST PUSH1 0x40 MLOAD DUP1 SWAP2 SUB SWAP1 REVERT JUMPDEST PUSH1 0x0 PUSH2 0x3E8 PUSH2 0x3E5 DUP5 PUSH2 0x84F SWAP2 SWAP1 PUSH2 0x23F5 JUMP JUMPDEST PUSH2 0x859 SWAP2 SWAP1 PUSH2 0x2466 JUMP JUMPDEST SWAP1 POP DUP1 PUSH1 0x1 SLOAD PUSH2 0x869 SWAP2 SWAP1 PUSH2 0x2497 JUMP JUMPDEST DUP2 PUSH1 0x2 SLOAD PUSH2 0x877 SWAP2 SWAP1 PUSH2 0x23F5 JUMP JUMPDEST PUSH2 0x881 SWAP2 SWAP1 PUSH2 0x2466 JUMP JUMPDEST SWAP2 POP POP SWAP2 SWAP1 POP JUMP JUMPDEST PUSH1 0x2 SLOAD DUP2 JUMP JUMPDEST PUSH1 0x0 PUSH32 0x0 PUSH20 0xFFFFFFFFFFFFFFFFFFFFFFFFFFFFFFFFFFFFFFFF AND PUSH4 0x23B872DD CALLER ADDRESS DUP8 PUSH1 0x40 MLOAD DUP5 PUSH4 0xFFFFFFFF AND PUSH1 0xE0 SHL DUP2 MSTORE PUSH1 0x4 ADD PUSH2 0x8EE SWAP4 SWAP3 SWAP2 SWAP1 PUSH2 0x232A JUMP JUMPDEST PUSH1 0x20 PUSH1 0x40 MLOAD DUP1 DUP4 SUB DUP2 PUSH1 0x0 DUP8 GAS CALL ISZERO DUP1 ISZERO PUSH2 0x90D JUMPI RETURNDATASIZE PUSH1 0x0 DUP1 RETURNDATACOPY RETURNDATASIZE PUSH1 0x0 REVERT JUMPDEST POP POP POP POP PUSH1 0x40 MLOAD RETURNDATASIZE PUSH1 0x1F NOT PUSH1 0x1F DUP3 ADD AND DUP3 ADD DUP1 PUSH1 0x40 MSTORE POP DUP2 ADD SWAP1 PUSH2 0x931 SWAP2 SWAP1 PUSH2 0x2399 JUMP JUMPDEST POP PUSH1 0x0 PUSH2 0x3E8 PUSH2 0x3E5 DUP7 PUSH2 0x945 SWAP2 SWAP1 PUSH2 0x23F5 JUMP JUMPDEST PUSH2 0x94F SWAP2 SWAP1 PUSH2 0x2466 JUMP JUMPDEST SWAP1 POP DUP1 PUSH1 0x1 SLOAD PUSH2 0x95F SWAP2 SWAP1 PUSH2 0x2497 JUMP JUMPDEST DUP2 PUSH1 0x2 SLOAD PUSH2 0x96D SWAP2 SWAP1 PUSH2 0x23F5 JUMP JUMPDEST PUSH2 0x977 SWAP2 SWAP1 PUSH2 0x2466 JUMP JUMPDEST SWAP2 POP PUSH1 0x0 DUP3 GT PUSH2 0x9BC JUMPI PUSH1 0x40 MLOAD PUSH32 0x8C379A000000000000000000000000000000000000000000000000000000000 DUP2 MSTORE PUSH1 0x4 ADD PUSH2 0x9B3 SWAP1 PUSH2 0x2528 JUMP JUMPDEST PUSH1 0x40 MLOAD DUP1 SWAP2 SUB SWAP1 REVERT JUMPDEST PUSH2 0x3E8 DUP4 PUSH2 0x3E8 PUSH2 0x9CD SWAP2 SWAP1 PUSH2 0x263A JUMP JUMPDEST DUP6 PUSH2 0x9D8 SWAP2 SWAP1 PUSH2 0x23F5 JUMP JUMPDEST PUSH2 0x9E2 SWAP2 SWAP1 PUSH2 0x2466 JUMP JUMPDEST DUP3 LT ISZERO PUSH2 0xA24 JUMPI PUSH1 0x40 MLOAD PUSH32 0x8C379A000000000000000000000000000000000000000000000000000000000 DUP2 MSTORE PUSH1 0x4 ADD PUSH2 0xA1B SWAP1 PUSH2 0x26BA JUMP JUMPDEST PUSH1 0x40 MLOAD DUP1 SWAP2 SUB SWAP1 REVERT JUMPDEST PUSH1 0x0 PUSH2 0x7D0 PUSH1 0x1 SLOAD PUSH2 0xA36 SWAP2 SWAP1 PUSH2 0x23F5 JUMP JUMPDEST PUSH1 0x3 SLOAD PUSH1 0x3 DUP9 PUSH2 0xA46 SWAP2 SWAP1 PUSH2 0x23F5 JUMP JUMPDEST PUSH2 0xA50 SWAP2 SWAP1 PUSH2 0x23F5 JUMP JUMPDEST PUSH2 0xA5A SWAP2 SWAP1 PUSH2 0x2466 JUMP JUMPDEST SWAP1 POP PUSH2 0xA86 PUSH1 0x0 DUP1 SLOAD SWAP1 PUSH2 0x100 EXP SWAP1 DIV PUSH20 0xFFFFFFFFFFFFFFFFFFFFFFFFFFFFFFFFFFFFFFFF AND DUP3 PUSH2 0x1BE6 JUMP JUMPDEST PUSH32 0x0 PUSH20 0xFFFFFFFFFFFFFFFFFFFFFFFFFFFFFFFFFFFFFFFF AND PUSH4 0xA9059CBB CALLER DUP6 PUSH1 0x40 MLOAD DUP4 PUSH4 0xFFFFFFFF AND PUSH1 0xE0 SHL DUP2 MSTORE PUSH1 0x4 ADD PUSH2 0xAE1 SWAP3 SWAP2 SWAP1 PUSH2 0x2548 JUMP JUMPDEST PUSH1 0x20 PUSH1 0x40 MLOAD DUP1 DUP4 SUB DUP2 PUSH1 0x0 DUP8 GAS CALL ISZERO DUP1 ISZERO PUSH2 0xB00 JUMPI RETURNDATASIZE PUSH1 0x0 DUP1 RETURNDATACOPY RETURNDATASIZE PUSH1 0x0 REVERT JUMPDEST POP POP POP POP PUSH1 0x40 MLOAD RETURNDATASIZE PUSH1 0x1F NOT PUSH1 0x1F DUP3 ADD AND DUP3 ADD DUP1 PUSH1 0x40 MSTORE POP DUP2 ADD SWAP1 PUSH2 0xB24 SWAP2 SWAP1 PUSH2 0x2399 JUMP JUMPDEST POP PUSH2 0xC61 PUSH32 0x0 PUSH20 0xFFFFFFFFFFFFFFFFFFFFFFFFFFFFFFFFFFFFFFFF AND PUSH4 0x70A08231 ADDRESS PUSH1 0x40 MLOAD DUP3 PUSH4 0xFFFFFFFF AND PUSH1 0xE0 SHL DUP2 MSTORE PUSH1 0x4 ADD PUSH2 0xB81 SWAP2 SWAP1 PUSH2 0x2571 JUMP JUMPDEST PUSH1 0x20 PUSH1 0x40 MLOAD DUP1 DUP4 SUB DUP2 DUP7 GAS STATICCALL ISZERO DUP1 ISZERO PUSH2 0xB9E JUMPI RETURNDATASIZE PUSH1 0x0 DUP1 RETURNDATACOPY RETURNDATASIZE PUSH1 0x0 REVERT JUMPDEST POP POP POP POP PUSH1 0x40 MLOAD RETURNDATASIZE PUSH1 0x1F NOT PUSH1 0x1F DUP3 ADD AND DUP3 ADD DUP1 PUSH1 0x40 MSTORE POP DUP2 ADD SWAP1 PUSH2 0xBC2 SWAP2 SWAP1 PUSH2 0x25A1 JUMP JUMPDEST PUSH32 0x0 PUSH20 0xFFFFFFFFFFFFFFFFFFFFFFFFFFFFFFFFFFFFFFFF AND PUSH4 0x70A08231 ADDRESS PUSH1 0x40 MLOAD DUP3 PUSH4 0xFFFFFFFF AND PUSH1 0xE0 SHL DUP2 MSTORE PUSH1 0x4 ADD PUSH2 0xC1B SWAP2 SWAP1 PUSH2 0x2571 JUMP JUMPDEST PUSH1 0x20 PUSH1 0x40 MLOAD DUP1 DUP4 SUB DUP2 DUP7 GAS STATICCALL ISZERO DUP1 ISZERO PUSH2 0xC38 JUMPI RETURNDATASIZE PUSH1 0x0 DUP1 RETURNDATACOPY RETURNDATASIZE PUSH1 0x0 REVERT JUMPDEST POP POP POP POP PUSH1 0x40 MLOAD RETURNDATASIZE PUSH1 0x1F NOT PUSH1 0x1F DUP3 ADD AND DUP3 ADD DUP1 PUSH1 0x40 MSTORE POP DUP2 ADD SWAP1 PUSH2 0xC5C SWAP2 SWAP1 PUSH2 0x25A1 JUMP JUMPDEST PUSH2 0x1C59 JUMP JUMPDEST POP POP SWAP4 SWAP3 POP POP POP JUMP JUMPDEST PUSH1 0x4 PUSH1 0x20 MSTORE DUP1 PUSH1 0x0 MSTORE PUSH1 0x40 PUSH1 0x0 KECCAK256 PUSH1 0x0 SWAP2 POP SWAP1 POP SLOAD DUP2 JUMP JUMPDEST PUSH1 0x0 DUP1 PUSH2 0xCCE DUP4 PUSH1 0x4 PUSH1 0x0 DUP7 PUSH20 0xFFFFFFFFFFFFFFFFFFFFFFFFFFFFFFFFFFFFFFFF AND PUSH20 0xFFFFFFFFFFFFFFFFFFFFFFFFFFFFFFFFFFFFFFFF AND DUP2 MSTORE PUSH1 0x20 ADD SWAP1 DUP2 MSTORE PUSH1 0x20 ADD PUSH1 0x0 KECCAK256 SLOAD PUSH2 0x1C6B JUMP JUMPDEST SWAP2 POP SWAP2 POP SWAP2 POP SWAP2 JUMP JUMPDEST PUSH1 0x0 PUSH32 0x0 PUSH20 0xFFFFFFFFFFFFFFFFFFFFFFFFFFFFFFFFFFFFFFFF AND PUSH4 0x23B872DD CALLER ADDRESS DUP6 PUSH1 0x40 MLOAD DUP5 PUSH4 0xFFFFFFFF AND PUSH1 0xE0 SHL DUP2 MSTORE PUSH1 0x4 ADD PUSH2 0xD36 SWAP4 SWAP3 SWAP2 SWAP1 PUSH2 0x232A JUMP JUMPDEST PUSH1 0x20 PUSH1 0x40 MLOAD DUP1 DUP4 SUB DUP2 PUSH1 0x0 DUP8 GAS CALL ISZERO DUP1 ISZERO PUSH2 0xD55 JUMPI RETURNDATASIZE PUSH1 0x0 DUP1 RETURNDATACOPY RETURNDATASIZE PUSH1 0x0 REVERT JUMPDEST POP POP POP POP PUSH1 0x40 MLOAD RETURNDATASIZE PUSH1 0x1F NOT PUSH1 0x1F DUP3 ADD AND DUP3 ADD DUP1 PUSH1 0x40 MSTORE POP DUP2 ADD SWAP1 PUSH2 0xD79 SWAP2 SWAP1 PUSH2 0x2399 JUMP JUMPDEST POP PUSH1 0x0 PUSH2 0x3E8 PUSH2 0x3E5 DUP5 PUSH2 0xD8D SWAP2 SWAP1 PUSH2 0x23F5 JUMP JUMPDEST PUSH2 0xD97 SWAP2 SWAP1 PUSH2 0x2466 JUMP JUMPDEST SWAP1 POP DUP1 PUSH1 0x1 SLOAD PUSH2 0xDA7 SWAP2 SWAP1 PUSH2 0x2497 JUMP JUMPDEST DUP2 PUSH1 0x2 SLOAD PUSH2 0xDB5 SWAP2 SWAP1 PUSH2 0x23F5 JUMP JUMPDEST PUSH2 0xDBF SWAP2 SWAP1 PUSH2 0x2466 JUMP JUMPDEST SWAP2 POP PUSH1 0x0 PUSH2 0x7D0 PUSH1 0x1 SLOAD PUSH2 0xDD3 SWAP2 SWAP1 PUSH2 0x23F5 JUMP JUMPDEST PUSH1 0x3 SLOAD PUSH1 0x3 DUP7 PUSH2 0xDE3 SWAP2 SWAP1 PUSH2 0x23F5 JUMP JUMPDEST PUSH2 0xDED SWAP2 SWAP1 PUSH2 0x23F5 JUMP JUMPDEST PUSH2 0xDF7 SWAP2 SWAP1 PUSH2 0x2466 JUMP JUMPDEST SWAP1 POP PUSH2 0xE23 PUSH1 0x0 DUP1 SLOAD SWAP1 PUSH2 0x100 EXP SWAP1 DIV PUSH20 0xFFFFFFFFFFFFFFFFFFFFFFFFFFFFFFFFFFFFFFFF AND DUP3 PUSH2 0x1BE6 JUMP JUMPDEST PUSH32 0x0 PUSH20 0xFFFFFFFFFFFFFFFFFFFFFFFFFFFFFFFFFFFFFFFF AND PUSH4 0xA9059CBB CALLER DUP6 PUSH1 0x40 MLOAD DUP4 PUSH4 0xFFFFFFFF AND PUSH1 0xE0 SHL DUP2 MSTORE PUSH1 0x4 ADD PUSH2 0xE7E SWAP3 SWAP2 SWAP1 PUSH2 0x2548 JUMP JUMPDEST PUSH1 0x20 PUSH1 0x40 MLOAD DUP1 DUP4 SUB DUP2 PUSH1 0x0 DUP8 GAS CALL ISZERO DUP1 ISZERO PUSH2 0xE9D JUMPI RETURNDATASIZE PUSH1 0x0 DUP1 RETURNDATACOPY RETURNDATASIZE PUSH1 0x0 REVERT JUMPDEST POP POP POP POP PUSH1 0x40 MLOAD RETURNDATASIZE PUSH1 0x1F NOT PUSH1 0x1F DUP3 ADD AND DUP3 ADD DUP1 PUSH1 0x40 MSTORE POP DUP2 ADD SWAP1 PUSH2 0xEC1 SWAP2 SWAP1 PUSH2 0x2399 JUMP JUMPDEST POP PUSH2 0xFFE PUSH32 0x0 PUSH20 0xFFFFFFFFFFFFFFFFFFFFFFFFFFFFFFFFFFFFFFFF AND PUSH4 0x70A08231 ADDRESS PUSH1 0x40 MLOAD DUP3 PUSH4 0xFFFFFFFF AND PUSH1 0xE0 SHL DUP2 MSTORE PUSH1 0x4 ADD PUSH2 0xF1E SWAP2 SWAP1 PUSH2 0x2571 JUMP JUMPDEST PUSH1 0x20 PUSH1 0x40 MLOAD DUP1 DUP4 SUB DUP2 DUP7 GAS STATICCALL ISZERO DUP1 ISZERO PUSH2 0xF3B JUMPI RETURNDATASIZE PUSH1 0x0 DUP1 RETURNDATACOPY RETURNDATASIZE PUSH1 0x0 REVERT JUMPDEST POP POP POP POP PUSH1 0x40 MLOAD RETURNDATASIZE PUSH1 0x1F NOT PUSH1 0x1F DUP3 ADD AND DUP3 ADD DUP1 PUSH1 0x40 MSTORE POP DUP2 ADD SWAP1 PUSH2 0xF5F SWAP2 SWAP1 PUSH2 0x25A1 JUMP JUMPDEST PUSH32 0x0 PUSH20 0xFFFFFFFFFFFFFFFFFFFFFFFFFFFFFFFFFFFFFFFF AND PUSH4 0x70A08231 ADDRESS PUSH1 0x40 MLOAD DUP3 PUSH4 0xFFFFFFFF AND PUSH1 0xE0 SHL DUP2 MSTORE PUSH1 0x4 ADD PUSH2 0xFB8 SWAP2 SWAP1 PUSH2 0x2571 JUMP JUMPDEST PUSH1 0x20 PUSH1 0x40 MLOAD DUP1 DUP4 SUB DUP2 DUP7 GAS STATICCALL ISZERO DUP1 ISZERO PUSH2 0xFD5 JUMPI RETURNDATASIZE PUSH1 0x0 DUP1 RETURNDATACOPY RETURNDATASIZE PUSH1 0x0 REVERT JUMPDEST POP POP POP POP PUSH1 0x40 MLOAD RETURNDATASIZE PUSH1 0x1F NOT PUSH1 0x1F DUP3 ADD AND DUP3 ADD DUP1 PUSH1 0x40 MSTORE POP DUP2 ADD SWAP1 PUSH2 0xFF9 SWAP2 SWAP1 PUSH2 0x25A1 JUMP JUMPDEST PUSH2 0x1C59 JUMP JUMPDEST POP POP SWAP2 SWAP1 POP JUMP JUMPDEST PUSH1 0x0 DUP1 PUSH1 0x1 SLOAD GT DUP1 ISZERO PUSH2 0x101A JUMPI POP PUSH1 0x0 PUSH1 0x2 SLOAD GT JUMPDEST DUP1 ISZERO PUSH2 0x1026 JUMPI POP PUSH1 0x0 DUP3 GT JUMPDEST PUSH2 0x1065 JUMPI PUSH1 0x40 MLOAD PUSH32 0x8C379A000000000000000000000000000000000000000000000000000000000 DUP2 MSTORE PUSH1 0x4 ADD PUSH2 0x105C SWAP1 PUSH2 0x261A JUMP JUMPDEST PUSH1 0x40 MLOAD DUP1 SWAP2 SUB SWAP1 REVERT JUMPDEST PUSH1 0x0 PUSH2 0x3E8 PUSH2 0x3E5 DUP5 PUSH2 0x1078 SWAP2 SWAP1 PUSH2 0x23F5 JUMP JUMPDEST PUSH2 0x1082 SWAP2 SWAP1 PUSH2 0x2466 JUMP JUMPDEST SWAP1 POP DUP1 PUSH1 0x2 SLOAD PUSH2 0x1092 SWAP2 SWAP1 PUSH2 0x2497 JUMP JUMPDEST DUP2 PUSH1 0x1 SLOAD PUSH2 0x10A0 SWAP2 SWAP1 PUSH2 0x23F5 JUMP JUMPDEST PUSH2 0x10AA SWAP2 SWAP1 PUSH2 0x2466 JUMP JUMPDEST SWAP2 POP POP SWAP2 SWAP1 POP JUMP JUMPDEST PUSH1 0x0 DUP1 PUSH1 0x4 PUSH1 0x0 CALLER PUSH20 0xFFFFFFFFFFFFFFFFFFFFFFFFFFFFFFFFFFFFFFFF AND PUSH20 0xFFFFFFFFFFFFFFFFFFFFFFFFFFFFFFFFFFFFFFFF AND DUP2 MSTORE PUSH1 0x20 ADD SWAP1 DUP2 MSTORE PUSH1 0x20 ADD PUSH1 0x0 KECCAK256 SLOAD DUP4 GT ISZERO PUSH2 0x1137 JUMPI PUSH1 0x40 MLOAD PUSH32 0x8C379A000000000000000000000000000000000000000000000000000000000 DUP2 MSTORE PUSH1 0x4 ADD PUSH2 0x112E SWAP1 PUSH2 0x2726 JUMP JUMPDEST PUSH1 0x40 MLOAD DUP1 SWAP2 SUB SWAP1 REVERT JUMPDEST PUSH2 0x1141 CALLER DUP5 PUSH2 0x1C6B JUMP JUMPDEST SWAP2 POP SWAP2 POP SWAP2 POP SWAP2 JUMP JUMPDEST PUSH1 0x0 PUSH32 0x0 PUSH20 0xFFFFFFFFFFFFFFFFFFFFFFFFFFFFFFFFFFFFFFFF AND PUSH4 0x23B872DD CALLER ADDRESS DUP7 PUSH1 0x40 MLOAD DUP5 PUSH4 0xFFFFFFFF AND PUSH1 0xE0 SHL DUP2 MSTORE PUSH1 0x4 ADD PUSH2 0x11A9 SWAP4 SWAP3 SWAP2 SWAP1 PUSH2 0x232A JUMP JUMPDEST PUSH1 0x20 PUSH1 0x40 MLOAD DUP1 DUP4 SUB DUP2 PUSH1 0x0 DUP8 GAS CALL ISZERO DUP1 ISZERO PUSH2 0x11C8 JUMPI RETURNDATASIZE PUSH1 0x0 DUP1 RETURNDATACOPY RETURNDATASIZE PUSH1 0x0 REVERT JUMPDEST POP POP POP POP PUSH1 0x40 MLOAD RETURNDATASIZE PUSH1 0x1F NOT PUSH1 0x1F DUP3 ADD AND DUP3 ADD DUP1 PUSH1 0x40 MSTORE POP DUP2 ADD SWAP1 PUSH2 0x11EC SWAP2 SWAP1 PUSH2 0x2399 JUMP JUMPDEST POP PUSH32 0x0 PUSH20 0xFFFFFFFFFFFFFFFFFFFFFFFFFFFFFFFFFFFFFFFF AND PUSH4 0x23B872DD CALLER ADDRESS DUP6 PUSH1 0x40 MLOAD DUP5 PUSH4 0xFFFFFFFF AND PUSH1 0xE0 SHL DUP2 MSTORE PUSH1 0x4 ADD PUSH2 0x124A SWAP4 SWAP3 SWAP2 SWAP1 PUSH2 0x232A JUMP JUMPDEST PUSH1 0x20 PUSH1 0x40 MLOAD DUP1 DUP4 SUB DUP2 PUSH1 0x0 DUP8 GAS CALL ISZERO DUP1 ISZERO PUSH2 0x1269 JUMPI RETURNDATASIZE PUSH1 0x0 DUP1 RETURNDATACOPY RETURNDATASIZE PUSH1 0x0 REVERT JUMPDEST POP POP POP POP PUSH1 0x40 MLOAD RETURNDATASIZE PUSH1 0x1F NOT PUSH1 0x1F DUP3 ADD AND DUP3 ADD DUP1 PUSH1 0x40 MSTORE POP DUP2 ADD SWAP1 PUSH2 0x128D SWAP2 SWAP1 PUSH2 0x2399 JUMP JUMPDEST POP PUSH1 0x0 PUSH1 0x1 SLOAD GT DUP1 PUSH2 0x12A1 JUMPI POP PUSH1 0x0 PUSH1 0x2 SLOAD GT JUMPDEST ISZERO PUSH2 0x1303 JUMPI DUP2 PUSH1 0x1 SLOAD PUSH1 0x2 SLOAD DUP6 PUSH2 0x12B8 SWAP2 SWAP1 PUSH2 0x23F5 JUMP JUMPDEST PUSH2 0x12C2 SWAP2 SWAP1 PUSH2 0x2466 JUMP JUMPDEST EQ PUSH2 0x1302 JUMPI PUSH1 0x40 MLOAD PUSH32 0x8C379A000000000000000000000000000000000000000000000000000000000 DUP2 MSTORE PUSH1 0x4 ADD PUSH2 0x12F9 SWAP1 PUSH2 0x2792 JUMP JUMPDEST PUSH1 0x40 MLOAD DUP1 SWAP2 SUB SWAP1 REVERT JUMPDEST JUMPDEST PUSH1 0x0 PUSH1 0x3 SLOAD SUB PUSH2 0x1328 JUMPI PUSH2 0x1321 DUP3 DUP5 PUSH2 0x131C SWAP2 SWAP1 PUSH2 0x23F5 JUMP JUMPDEST PUSH2 0x1F82 JUMP JUMPDEST SWAP1 POP PUSH2 0x1369 JUMP JUMPDEST PUSH2 0x1366 PUSH1 0x1 SLOAD PUSH1 0x3 SLOAD DUP6 PUSH2 0x133C SWAP2 SWAP1 PUSH2 0x23F5 JUMP JUMPDEST PUSH2 0x1346 SWAP2 SWAP1 PUSH2 0x2466 JUMP JUMPDEST PUSH1 0x2 SLOAD PUSH1 0x3 SLOAD DUP6 PUSH2 0x1357 SWAP2 SWAP1 PUSH2 0x23F5 JUMP JUMPDEST PUSH2 0x1361 SWAP2 SWAP1 PUSH2 0x2466 JUMP JUMPDEST PUSH2 0x1FFC JUMP JUMPDEST SWAP1 POP JUMPDEST PUSH1 0x0 DUP2 GT PUSH2 0x13AC JUMPI PUSH1 0x40 MLOAD PUSH32 0x8C379A000000000000000000000000000000000000000000000000000000000 DUP2 MSTORE PUSH1 0x4 ADD PUSH2 0x13A3 SWAP1 PUSH2 0x27FE JUMP JUMPDEST PUSH1 0x40 MLOAD DUP1 SWAP2 SUB SWAP1 REVERT JUMPDEST PUSH2 0x13B6 CALLER DUP3 PUSH2 0x1BE6 JUMP JUMPDEST PUSH2 0x14F2 PUSH32 0x0 PUSH20 0xFFFFFFFFFFFFFFFFFFFFFFFFFFFFFFFFFFFFFFFF AND PUSH4 0x70A08231 ADDRESS PUSH1 0x40 MLOAD DUP3 PUSH4 0xFFFFFFFF AND PUSH1 0xE0 SHL DUP2 MSTORE PUSH1 0x4 ADD PUSH2 0x1412 SWAP2 SWAP1 PUSH2 0x2571 JUMP JUMPDEST PUSH1 0x20 PUSH1 0x40 MLOAD DUP1 DUP4 SUB DUP2 DUP7 GAS STATICCALL ISZERO DUP1 ISZERO PUSH2 0x142F JUMPI RETURNDATASIZE PUSH1 0x0 DUP1 RETURNDATACOPY RETURNDATASIZE PUSH1 0x0 REVERT JUMPDEST POP POP POP POP PUSH1 0x40 MLOAD RETURNDATASIZE PUSH1 0x1F NOT PUSH1 0x1F DUP3 ADD AND DUP3 ADD DUP1 PUSH1 0x40 MSTORE POP DUP2 ADD SWAP1 PUSH2 0x1453 SWAP2 SWAP1 PUSH2 0x25A1 JUMP JUMPDEST PUSH32 0x0 PUSH20 0xFFFFFFFFFFFFFFFFFFFFFFFFFFFFFFFFFFFFFFFF AND PUSH4 0x70A08231 ADDRESS PUSH1 0x40 MLOAD DUP3 PUSH4 0xFFFFFFFF AND PUSH1 0xE0 SHL DUP2 MSTORE PUSH1 0x4 ADD PUSH2 0x14AC SWAP2 SWAP1 PUSH2 0x2571 JUMP JUMPDEST PUSH1 0x20 PUSH1 0x40 MLOAD DUP1 DUP4 SUB DUP2 DUP7 GAS STATICCALL ISZERO DUP1 ISZERO PUSH2 0x14C9 JUMPI RETURNDATASIZE PUSH1 0x0 DUP1 RETURNDATACOPY RETURNDATASIZE PUSH1 0x0 REVERT JUMPDEST POP POP POP POP PUSH1 0x40 MLOAD RETURNDATASIZE PUSH1 0x1F NOT PUSH1 0x1F DUP3 ADD AND DUP3 ADD DUP1 PUSH1 0x40 MSTORE POP DUP2 ADD SWAP1 PUSH2 0x14ED SWAP2 SWAP1 PUSH2 0x25A1 JUMP JUMPDEST PUSH2 0x1C59 JUMP JUMPDEST SWAP3 SWAP2 POP POP JUMP JUMPDEST PUSH1 0x0 PUSH1 0x4 PUSH1 0x0 CALLER PUSH20 0xFFFFFFFFFFFFFFFFFFFFFFFFFFFFFFFFFFFFFFFF AND PUSH20 0xFFFFFFFFFFFFFFFFFFFFFFFFFFFFFFFFFFFFFFFF AND DUP2 MSTORE PUSH1 0x20 ADD SWAP1 DUP2 MSTORE PUSH1 0x20 ADD PUSH1 0x0 KECCAK256 SLOAD SWAP1 POP SWAP1 JUMP JUMPDEST PUSH1 0x0 DUP1 PUSH1 0x4 PUSH1 0x0 DUP6 PUSH20 0xFFFFFFFFFFFFFFFFFFFFFFFFFFFFFFFFFFFFFFFF AND PUSH20 0xFFFFFFFFFFFFFFFFFFFFFFFFFFFFFFFFFFFFFFFF AND DUP2 MSTORE PUSH1 0x20 ADD SWAP1 DUP2 MSTORE PUSH1 0x20 ADD PUSH1 0x0 KECCAK256 SLOAD DUP4 GT ISZERO PUSH2 0x15C4 JUMPI PUSH1 0x40 MLOAD PUSH32 0x8C379A000000000000000000000000000000000000000000000000000000000 DUP2 MSTORE PUSH1 0x4 ADD PUSH2 0x15BB SWAP1 PUSH2 0x2726 JUMP JUMPDEST PUSH1 0x40 MLOAD DUP1 SWAP2 SUB SWAP1 REVERT JUMPDEST PUSH2 0x15CE DUP5 DUP5 PUSH2 0x1C6B JUMP JUMPDEST SWAP2 POP SWAP2 POP SWAP3 POP SWAP3 SWAP1 POP JUMP JUMPDEST PUSH1 0x0 PUSH32 0x0 PUSH20 0xFFFFFFFFFFFFFFFFFFFFFFFFFFFFFFFFFFFFFFFF AND PUSH4 0x23B872DD CALLER ADDRESS DUP8 PUSH1 0x40 MLOAD DUP5 PUSH4 0xFFFFFFFF AND PUSH1 0xE0 SHL DUP2 MSTORE PUSH1 0x4 ADD PUSH2 0x1638 SWAP4 SWAP3 SWAP2 SWAP1 PUSH2 0x232A JUMP JUMPDEST PUSH1 0x20 PUSH1 0x40 MLOAD DUP1 DUP4 SUB DUP2 PUSH1 0x0 DUP8 GAS CALL ISZERO DUP1 ISZERO PUSH2 0x1657 JUMPI RETURNDATASIZE PUSH1 0x0 DUP1 RETURNDATACOPY RETURNDATASIZE PUSH1 0x0 REVERT JUMPDEST POP POP POP POP PUSH1 0x40 MLOAD RETURNDATASIZE PUSH1 0x1F NOT PUSH1 0x1F DUP3 ADD AND DUP3 ADD DUP1 PUSH1 0x40 MSTORE POP DUP2 ADD SWAP1 PUSH2 0x167B SWAP2 SWAP1 PUSH2 0x2399 JUMP JUMPDEST POP PUSH1 0x0 PUSH2 0x3E8 PUSH2 0x3E5 DUP7 PUSH2 0x168F SWAP2 SWAP1 PUSH2 0x23F5 JUMP JUMPDEST PUSH2 0x1699 SWAP2 SWAP1 PUSH2 0x2466 JUMP JUMPDEST SWAP1 POP DUP1 PUSH1 0x1 SLOAD PUSH2 0x16A9 SWAP2 SWAP1 PUSH2 0x2497 JUMP JUMPDEST DUP2 PUSH1 0x2 SLOAD PUSH2 0x16B7 SWAP2 SWAP1 PUSH2 0x23F5 JUMP JUMPDEST PUSH2 0x16C1 SWAP2 SWAP1 PUSH2 0x2466 JUMP JUMPDEST SWAP2 POP PUSH1 0x0 DUP3 GT PUSH2 0x1706 JUMPI PUSH1 0x40 MLOAD PUSH32 0x8C379A000000000000000000000000000000000000000000000000000000000 DUP2 MSTORE PUSH1 0x4 ADD PUSH2 0x16FD SWAP1 PUSH2 0x2528 JUMP JUMPDEST PUSH1 0x40 MLOAD DUP1 SWAP2 SUB SWAP1 REVERT JUMPDEST PUSH2 0x3E8 DUP4 PUSH2 0x3E8 PUSH2 0x1717 SWAP2 SWAP1 PUSH2 0x263A JUMP JUMPDEST DUP6 PUSH2 0x1722 SWAP2 SWAP1 PUSH2 0x23F5 JUMP JUMPDEST PUSH2 0x172C SWAP2 SWAP1 PUSH2 0x2466 JUMP JUMPDEST DUP3 LT ISZERO PUSH2 0x176E JUMPI PUSH1 0x40 MLOAD PUSH32 0x8C379A000000000000000000000000000000000000000000000000000000000 DUP2 MSTORE PUSH1 0x4 ADD PUSH2 0x1765 SWAP1 PUSH2 0x26BA JUMP JUMPDEST PUSH1 0x40 MLOAD DUP1 SWAP2 SUB SWAP1 REVERT JUMPDEST PUSH1 0x0 PUSH2 0x7D0 PUSH1 0x1 SLOAD PUSH2 0x1780 SWAP2 SWAP1 PUSH2 0x23F5 JUMP JUMPDEST PUSH1 0x3 SLOAD PUSH1 0x3 DUP9 PUSH2 0x1790 SWAP2 SWAP1 PUSH2 0x23F5 JUMP JUMPDEST PUSH2 0x179A SWAP2 SWAP1 PUSH2 0x23F5 JUMP JUMPDEST PUSH2 0x17A4 SWAP2 SWAP1 PUSH2 0x2466 JUMP JUMPDEST SWAP1 POP PUSH2 0x17D0 PUSH1 0x0 DUP1 SLOAD SWAP1 PUSH2 0x100 EXP SWAP1 DIV PUSH20 0xFFFFFFFFFFFFFFFFFFFFFFFFFFFFFFFFFFFFFFFF AND DUP3 PUSH2 0x1BE6 JUMP JUMPDEST PUSH32 0x0 PUSH20 0xFFFFFFFFFFFFFFFFFFFFFFFFFFFFFFFFFFFFFFFF AND PUSH4 0xA9059CBB CALLER DUP6 PUSH1 0x40 MLOAD DUP4 PUSH4 0xFFFFFFFF AND PUSH1 0xE0 SHL DUP2 MSTORE PUSH1 0x4 ADD PUSH2 0x182B SWAP3 SWAP2 SWAP1 PUSH2 0x2548 JUMP JUMPDEST PUSH1 0x20 PUSH1 0x40 MLOAD DUP1 DUP4 SUB DUP2 PUSH1 0x0 DUP8 GAS CALL ISZERO DUP1 ISZERO PUSH2 0x184A JUMPI RETURNDATASIZE PUSH1 0x0 DUP1 RETURNDATACOPY RETURNDATASIZE PUSH1 0x0 REVERT JUMPDEST POP POP POP POP PUSH1 0x40 MLOAD RETURNDATASIZE PUSH1 0x1F NOT PUSH1 0x1F DUP3 ADD AND DUP3 ADD DUP1 PUSH1 0x40 MSTORE POP DUP2 ADD SWAP1 PUSH2 0x186E SWAP2 SWAP1 PUSH2 0x2399 JUMP JUMPDEST POP PUSH2 0x19AB PUSH32 0x0 PUSH20 0xFFFFFFFFFFFFFFFFFFFFFFFFFFFFFFFFFFFFFFFF AND PUSH4 0x70A08231 ADDRESS PUSH1 0x40 MLOAD DUP3 PUSH4 0xFFFFFFFF AND PUSH1 0xE0 SHL DUP2 MSTORE PUSH1 0x4 ADD PUSH2 0x18CB SWAP2 SWAP1 PUSH2 0x2571 JUMP JUMPDEST PUSH1 0x20 PUSH1 0x40 MLOAD DUP1 DUP4 SUB DUP2 DUP7 GAS STATICCALL ISZERO DUP1 ISZERO PUSH2 0x18E8 JUMPI RETURNDATASIZE PUSH1 0x0 DUP1 RETURNDATACOPY RETURNDATASIZE PUSH1 0x0 REVERT JUMPDEST POP POP POP POP PUSH1 0x40 MLOAD RETURNDATASIZE PUSH1 0x1F NOT PUSH1 0x1F DUP3 ADD AND DUP3 ADD DUP1 PUSH1 0x40 MSTORE POP DUP2 ADD SWAP1 PUSH2 0x190C SWAP2 SWAP1 PUSH2 0x25A1 JUMP JUMPDEST PUSH32 0x0 PUSH20 0xFFFFFFFFFFFFFFFFFFFFFFFFFFFFFFFFFFFFFFFF AND PUSH4 0x70A08231 ADDRESS PUSH1 0x40 MLOAD DUP3 PUSH4 0xFFFFFFFF AND PUSH1 0xE0 SHL DUP2 MSTORE PUSH1 0x4 ADD PUSH2 0x1965 SWAP2 SWAP1 PUSH2 0x2571 JUMP JUMPDEST PUSH1 0x20 PUSH1 0x40 MLOAD DUP1 DUP4 SUB DUP2 DUP7 GAS STATICCALL ISZERO DUP1 ISZERO PUSH2 0x1982 JUMPI RETURNDATASIZE PUSH1 0x0 DUP1 RETURNDATACOPY RETURNDATASIZE PUSH1 0x0 REVERT JUMPDEST POP POP POP POP PUSH1 0x40 MLOAD RETURNDATASIZE PUSH1 0x1F NOT PUSH1 0x1F DUP3 ADD AND DUP3 ADD DUP1 PUSH1 0x40 MSTORE POP DUP2 ADD SWAP1 PUSH2 0x19A6 SWAP2 SWAP1 PUSH2 0x25A1 JUMP JUMPDEST PUSH2 0x1C59 JUMP JUMPDEST POP POP SWAP4 SWAP3 POP POP POP JUMP JUMPDEST PUSH32 0x0 DUP2 JUMP JUMPDEST PUSH1 0x0 PUSH1 0x4 PUSH1 0x0 DUP4 PUSH20 0xFFFFFFFFFFFFFFFFFFFFFFFFFFFFFFFFFFFFFFFF AND PUSH20 0xFFFFFFFFFFFFFFFFFFFFFFFFFFFFFFFFFFFFFFFF AND DUP2 MSTORE PUSH1 0x20 ADD SWAP1 DUP2 MSTORE PUSH1 0x20 ADD PUSH1 0x0 KECCAK256 SLOAD SWAP1 POP SWAP2 SWAP1 POP JUMP JUMPDEST PUSH1 0x0 DUP1 PUSH1 0x1 SLOAD GT DUP1 ISZERO PUSH2 0x1A36 JUMPI POP PUSH1 0x0 PUSH1 0x2 SLOAD GT JUMPDEST PUSH2 0x1A75 JUMPI PUSH1 0x40 MLOAD PUSH32 0x8C379A000000000000000000000000000000000000000000000000000000000 DUP2 MSTORE PUSH1 0x4 ADD PUSH2 0x1A6C SWAP1 PUSH2 0x261A JUMP JUMPDEST PUSH1 0x40 MLOAD DUP1 SWAP2 SUB SWAP1 REVERT JUMPDEST PUSH1 0x0 PUSH32 0x0 PUSH20 0xFFFFFFFFFFFFFFFFFFFFFFFFFFFFFFFFFFFFFFFF AND PUSH4 0x313CE567 PUSH1 0x40 MLOAD DUP2 PUSH4 0xFFFFFFFF AND PUSH1 0xE0 SHL DUP2 MSTORE PUSH1 0x4 ADD PUSH1 0x20 PUSH1 0x40 MLOAD DUP1 DUP4 SUB DUP2 DUP7 GAS STATICCALL ISZERO DUP1 ISZERO PUSH2 0x1AE2 JUMPI RETURNDATASIZE PUSH1 0x0 DUP1 RETURNDATACOPY RETURNDATASIZE PUSH1 0x0 REVERT JUMPDEST POP POP POP POP PUSH1 0x40 MLOAD RETURNDATASIZE PUSH1 0x1F NOT PUSH1 0x1F DUP3 ADD AND DUP3 ADD DUP1 PUSH1 0x40 MSTORE POP DUP2 ADD SWAP1 PUSH2 0x1B06 SWAP2 SWAP1 PUSH2 0x2857 JUMP JUMPDEST PUSH1 0xFF AND SWAP1 POP PUSH1 0x0 PUSH32 0x0 PUSH20 0xFFFFFFFFFFFFFFFFFFFFFFFFFFFFFFFFFFFFFFFF AND PUSH4 0x313CE567 PUSH1 0x40 MLOAD DUP2 PUSH4 0xFFFFFFFF AND PUSH1 0xE0 SHL DUP2 MSTORE PUSH1 0x4 ADD PUSH1 0x20 PUSH1 0x40 MLOAD DUP1 DUP4 SUB DUP2 DUP7 GAS STATICCALL ISZERO DUP1 ISZERO PUSH2 0x1B78 JUMPI RETURNDATASIZE PUSH1 0x0 DUP1 RETURNDATACOPY RETURNDATASIZE PUSH1 0x0 REVERT JUMPDEST POP POP POP POP PUSH1 0x40 MLOAD RETURNDATASIZE PUSH1 0x1F NOT PUSH1 0x1F DUP3 ADD AND DUP3 ADD DUP1 PUSH1 0x40 MSTORE POP DUP2 ADD SWAP1 PUSH2 0x1B9C SWAP2 SWAP1 PUSH2 0x2857 JUMP JUMPDEST PUSH1 0xFF AND SWAP1 POP DUP2 PUSH1 0xA PUSH2 0x1BAE SWAP2 SWAP1 PUSH2 0x29B7 JUMP JUMPDEST PUSH1 0x2 SLOAD PUSH2 0x1BBB SWAP2 SWAP1 PUSH2 0x23F5 JUMP JUMPDEST DUP2 PUSH1 0xA PUSH2 0x1BC8 SWAP2 SWAP1 PUSH2 0x29B7 JUMP JUMPDEST PUSH1 0x1 SLOAD PUSH2 0x1BD5 SWAP2 SWAP1 PUSH2 0x23F5 JUMP JUMPDEST PUSH2 0x1BDF SWAP2 SWAP1 PUSH2 0x2466 JUMP JUMPDEST SWAP3 POP POP POP SWAP1 JUMP JUMPDEST DUP1 PUSH1 0x4 PUSH1 0x0 DUP5 PUSH20 0xFFFFFFFFFFFFFFFFFFFFFFFFFFFFFFFFFFFFFFFF AND PUSH20 0xFFFFFFFFFFFFFFFFFFFFFFFFFFFFFFFFFFFFFFFF AND DUP2 MSTORE PUSH1 0x20 ADD SWAP1 DUP2 MSTORE PUSH1 0x20 ADD PUSH1 0x0 KECCAK256 PUSH1 0x0 DUP3 DUP3 SLOAD PUSH2 0x1C35 SWAP2 SWAP1 PUSH2 0x2497 JUMP JUMPDEST SWAP3 POP POP DUP2 SWAP1 SSTORE POP DUP1 PUSH1 0x3 PUSH1 0x0 DUP3 DUP3 SLOAD PUSH2 0x1C4E SWAP2 SWAP1 PUSH2 0x2497 JUMP JUMPDEST SWAP3 POP POP DUP2 SWAP1 SSTORE POP POP POP JUMP JUMPDEST DUP2 PUSH1 0x1 DUP2 SWAP1 SSTORE POP DUP1 PUSH1 0x2 DUP2 SWAP1 SSTORE POP POP POP JUMP JUMPDEST PUSH1 0x0 DUP1 PUSH1 0x3 SLOAD PUSH1 0x1 SLOAD DUP5 PUSH2 0x1C7F SWAP2 SWAP1 PUSH2 0x23F5 JUMP JUMPDEST PUSH2 0x1C89 SWAP2 SWAP1 PUSH2 0x2466 JUMP JUMPDEST SWAP2 POP PUSH1 0x3 SLOAD PUSH1 0x2 SLOAD DUP5 PUSH2 0x1C9C SWAP2 SWAP1 PUSH2 0x23F5 JUMP JUMPDEST PUSH2 0x1CA6 SWAP2 SWAP1 PUSH2 0x2466 JUMP JUMPDEST SWAP1 POP PUSH1 0x0 DUP3 GT DUP1 ISZERO PUSH2 0x1CB8 JUMPI POP PUSH1 0x0 DUP2 GT JUMPDEST PUSH2 0x1CF7 JUMPI PUSH1 0x40 MLOAD PUSH32 0x8C379A000000000000000000000000000000000000000000000000000000000 DUP2 MSTORE PUSH1 0x4 ADD PUSH2 0x1CEE SWAP1 PUSH2 0x2A4E JUMP JUMPDEST PUSH1 0x40 MLOAD DUP1 SWAP2 SUB SWAP1 REVERT JUMPDEST PUSH2 0x1D01 DUP5 DUP5 PUSH2 0x2015 JUMP JUMPDEST PUSH2 0x1E3D PUSH32 0x0 PUSH20 0xFFFFFFFFFFFFFFFFFFFFFFFFFFFFFFFFFFFFFFFF AND PUSH4 0x70A08231 ADDRESS PUSH1 0x40 MLOAD DUP3 PUSH4 0xFFFFFFFF AND PUSH1 0xE0 SHL DUP2 MSTORE PUSH1 0x4 ADD PUSH2 0x1D5D SWAP2 SWAP1 PUSH2 0x2571 JUMP JUMPDEST PUSH1 0x20 PUSH1 0x40 MLOAD DUP1 DUP4 SUB DUP2 DUP7 GAS STATICCALL ISZERO DUP1 ISZERO PUSH2 0x1D7A JUMPI RETURNDATASIZE PUSH1 0x0 DUP1 RETURNDATACOPY RETURNDATASIZE PUSH1 0x0 REVERT JUMPDEST POP POP POP POP PUSH1 0x40 MLOAD RETURNDATASIZE PUSH1 0x1F NOT PUSH1 0x1F DUP3 ADD AND DUP3 ADD DUP1 PUSH1 0x40 MSTORE POP DUP2 ADD SWAP1 PUSH2 0x1D9E SWAP2 SWAP1 PUSH2 0x25A1 JUMP JUMPDEST PUSH32 0x0 PUSH20 0xFFFFFFFFFFFFFFFFFFFFFFFFFFFFFFFFFFFFFFFF AND PUSH4 0x70A08231 ADDRESS PUSH1 0x40 MLOAD DUP3 PUSH4 0xFFFFFFFF AND PUSH1 0xE0 SHL DUP2 MSTORE PUSH1 0x4 ADD PUSH2 0x1DF7 SWAP2 SWAP1 PUSH2 0x2571 JUMP JUMPDEST PUSH1 0x20 PUSH1 0x40 MLOAD DUP1 DUP4 SUB DUP2 DUP7 GAS STATICCALL ISZERO DUP1 ISZERO PUSH2 0x1E14 JUMPI RETURNDATASIZE PUSH1 0x0 DUP1 RETURNDATACOPY RETURNDATASIZE PUSH1 0x0 REVERT JUMPDEST POP POP POP POP PUSH1 0x40 MLOAD RETURNDATASIZE PUSH1 0x1F NOT PUSH1 0x1F DUP3 ADD AND DUP3 ADD DUP1 PUSH1 0x40 MSTORE POP DUP2 ADD SWAP1 PUSH2 0x1E38 SWAP2 SWAP1 PUSH2 0x25A1 JUMP JUMPDEST PUSH2 0x1C59 JUMP JUMPDEST PUSH32 0x0 PUSH20 0xFFFFFFFFFFFFFFFFFFFFFFFFFFFFFFFFFFFFFFFF AND PUSH4 0xA9059CBB DUP6 DUP5 PUSH1 0x40 MLOAD DUP4 PUSH4 0xFFFFFFFF AND PUSH1 0xE0 SHL DUP2 MSTORE PUSH1 0x4 ADD PUSH2 0x1E98 SWAP3 SWAP2 SWAP1 PUSH2 0x2548 JUMP JUMPDEST PUSH1 0x20 PUSH1 0x40 MLOAD DUP1 DUP4 SUB DUP2 PUSH1 0x0 DUP8 GAS CALL ISZERO DUP1 ISZERO PUSH2 0x1EB7 JUMPI RETURNDATASIZE PUSH1 0x0 DUP1 RETURNDATACOPY RETURNDATASIZE PUSH1 0x0 REVERT JUMPDEST POP POP POP POP PUSH1 0x40 MLOAD RETURNDATASIZE PUSH1 0x1F NOT PUSH1 0x1F DUP3 ADD AND DUP3 ADD DUP1 PUSH1 0x40 MSTORE POP DUP2 ADD SWAP1 PUSH2 0x1EDB SWAP2 SWAP1 PUSH2 0x2399 JUMP JUMPDEST POP PUSH32 0x0 PUSH20 0xFFFFFFFFFFFFFFFFFFFFFFFFFFFFFFFFFFFFFFFF AND PUSH4 0xA9059CBB DUP6 DUP4 PUSH1 0x40 MLOAD DUP4 PUSH4 0xFFFFFFFF AND PUSH1 0xE0 SHL DUP2 MSTORE PUSH1 0x4 ADD PUSH2 0x1F37 SWAP3 SWAP2 SWAP1 PUSH2 0x2548 JUMP JUMPDEST PUSH1 0x20 PUSH1 0x40 MLOAD DUP1 DUP4 SUB DUP2 PUSH1 0x0 DUP8 GAS CALL ISZERO DUP1 ISZERO PUSH2 0x1F56 JUMPI RETURNDATASIZE PUSH1 0x0 DUP1 RETURNDATACOPY RETURNDATASIZE PUSH1 0x0 REVERT JUMPDEST POP POP POP POP PUSH1 0x40 MLOAD RETURNDATASIZE PUSH1 0x1F NOT PUSH1 0x1F DUP3 ADD AND DUP3 ADD DUP1 PUSH1 0x40 MSTORE POP DUP2 ADD SWAP1 PUSH2 0x1F7A SWAP2 SWAP1 PUSH2 0x2399 JUMP JUMPDEST POP SWAP3 POP SWAP3 SWAP1 POP JUMP JUMPDEST PUSH1 0x0 PUSH1 0x3 DUP3 GT ISZERO PUSH2 0x1FE9 JUMPI DUP2 SWAP1 POP PUSH1 0x0 PUSH1 0x1 PUSH1 0x2 DUP5 PUSH2 0x1FA1 SWAP2 SWAP1 PUSH2 0x2466 JUMP JUMPDEST PUSH2 0x1FAB SWAP2 SWAP1 PUSH2 0x2497 JUMP JUMPDEST SWAP1 POP JUMPDEST DUP2 DUP2 LT ISZERO PUSH2 0x1FE3 JUMPI DUP1 SWAP2 POP PUSH1 0x2 DUP2 DUP3 DUP6 PUSH2 0x1FC8 SWAP2 SWAP1 PUSH2 0x2466 JUMP JUMPDEST PUSH2 0x1FD2 SWAP2 SWAP1 PUSH2 0x2497 JUMP JUMPDEST PUSH2 0x1FDC SWAP2 SWAP1 PUSH2 0x2466 JUMP JUMPDEST SWAP1 POP PUSH2 0x1FAE JUMP JUMPDEST POP PUSH2 0x1FF7 JUMP JUMPDEST PUSH1 0x0 DUP3 EQ PUSH2 0x1FF6 JUMPI PUSH1 0x1 SWAP1 POP JUMPDEST JUMPDEST SWAP2 SWAP1 POP JUMP JUMPDEST PUSH1 0x0 DUP2 DUP4 LT PUSH2 0x200B JUMPI DUP2 PUSH2 0x200D JUMP JUMPDEST DUP3 JUMPDEST SWAP1 POP SWAP3 SWAP2 POP POP JUMP JUMPDEST DUP1 PUSH1 0x4 PUSH1 0x0 DUP5 PUSH20 0xFFFFFFFFFFFFFFFFFFFFFFFFFFFFFFFFFFFFFFFF AND PUSH20 0xFFFFFFFFFFFFFFFFFFFFFFFFFFFFFFFFFFFFFFFF AND DUP2 MSTORE PUSH1 0x20 ADD SWAP1 DUP2 MSTORE PUSH1 0x20 ADD PUSH1 0x0 KECCAK256 PUSH1 0x0 DUP3 DUP3 SLOAD PUSH2 0x2064 SWAP2 SWAP1 PUSH2 0x263A JUMP JUMPDEST SWAP3 POP POP DUP2 SWAP1 SSTORE POP DUP1 PUSH1 0x3 PUSH1 0x0 DUP3 DUP3 SLOAD PUSH2 0x207D SWAP2 SWAP1 PUSH2 0x263A JUMP JUMPDEST SWAP3 POP POP DUP2 SWAP1 SSTORE POP POP POP JUMP JUMPDEST PUSH1 0x0 PUSH20 0xFFFFFFFFFFFFFFFFFFFFFFFFFFFFFFFFFFFFFFFF DUP3 AND SWAP1 POP SWAP2 SWAP1 POP JUMP JUMPDEST PUSH1 0x0 DUP2 SWAP1 POP SWAP2 SWAP1 POP JUMP JUMPDEST PUSH1 0x0 PUSH2 0x20CD PUSH2 0x20C8 PUSH2 0x20C3 DUP5 PUSH2 0x2088 JUMP JUMPDEST PUSH2 0x20A8 JUMP JUMPDEST PUSH2 0x2088 JUMP JUMPDEST SWAP1 POP SWAP2 SWAP1 POP JUMP JUMPDEST PUSH1 0x0 PUSH2 0x20DF DUP3 PUSH2 0x20B2 JUMP JUMPDEST SWAP1 POP SWAP2 SWAP1 POP JUMP JUMPDEST PUSH1 0x0 PUSH2 0x20F1 DUP3 PUSH2 0x20D4 JUMP JUMPDEST SWAP1 POP SWAP2 SWAP1 POP JUMP JUMPDEST PUSH2 0x2101 DUP2 PUSH2 0x20E6 JUMP JUMPDEST DUP3 MSTORE POP POP JUMP JUMPDEST PUSH1 0x0 PUSH1 0x20 DUP3 ADD SWAP1 POP PUSH2 0x211C PUSH1 0x0 DUP4 ADD DUP5 PUSH2 0x20F8 JUMP JUMPDEST SWAP3 SWAP2 POP POP JUMP JUMPDEST PUSH1 0x0 DUP2 SWAP1 POP SWAP2 SWAP1 POP JUMP JUMPDEST PUSH2 0x2135 DUP2 PUSH2 0x2122 JUMP JUMPDEST DUP3 MSTORE POP POP JUMP JUMPDEST PUSH1 0x0 PUSH1 0x20 DUP3 ADD SWAP1 POP PUSH2 0x2150 PUSH1 0x0 DUP4 ADD DUP5 PUSH2 0x212C JUMP JUMPDEST SWAP3 SWAP2 POP POP JUMP JUMPDEST PUSH1 0x0 DUP1 REVERT JUMPDEST PUSH2 0x2164 DUP2 PUSH2 0x2122 JUMP JUMPDEST DUP2 EQ PUSH2 0x216F JUMPI PUSH1 0x0 DUP1 REVERT JUMPDEST POP JUMP JUMPDEST PUSH1 0x0 DUP2 CALLDATALOAD SWAP1 POP PUSH2 0x2181 DUP2 PUSH2 0x215B JUMP JUMPDEST SWAP3 SWAP2 POP POP JUMP JUMPDEST PUSH1 0x0 PUSH1 0x20 DUP3 DUP5 SUB SLT ISZERO PUSH2 0x219D JUMPI PUSH2 0x219C PUSH2 0x2156 JUMP JUMPDEST JUMPDEST PUSH1 0x0 PUSH2 0x21AB DUP5 DUP3 DUP6 ADD PUSH2 0x2172 JUMP JUMPDEST SWAP2 POP POP SWAP3 SWAP2 POP POP JUMP JUMPDEST PUSH1 0x0 DUP1 PUSH1 0x0 PUSH1 0x60 DUP5 DUP7 SUB SLT ISZERO PUSH2 0x21CD JUMPI PUSH2 0x21CC PUSH2 0x2156 JUMP JUMPDEST JUMPDEST PUSH1 0x0 PUSH2 0x21DB DUP7 DUP3 DUP8 ADD PUSH2 0x2172 JUMP JUMPDEST SWAP4 POP POP PUSH1 0x20 PUSH2 0x21EC DUP7 DUP3 DUP8 ADD PUSH2 0x2172 JUMP JUMPDEST SWAP3 POP POP PUSH1 0x40 PUSH2 0x21FD DUP7 DUP3 DUP8 ADD PUSH2 0x2172 JUMP JUMPDEST SWAP2 POP POP SWAP3 POP SWAP3 POP SWAP3 JUMP JUMPDEST PUSH1 0x0 PUSH2 0x2212 DUP3 PUSH2 0x2088 JUMP JUMPDEST SWAP1 POP SWAP2 SWAP1 POP JUMP JUMPDEST PUSH2 0x2222 DUP2 PUSH2 0x2207 JUMP JUMPDEST DUP2 EQ PUSH2 0x222D JUMPI PUSH1 0x0 DUP1 REVERT JUMPDEST POP JUMP JUMPDEST PUSH1 0x0 DUP2 CALLDATALOAD SWAP1 POP PUSH2 0x223F DUP2 PUSH2 0x2219 JUMP JUMPDEST SWAP3 SWAP2 POP POP JUMP JUMPDEST PUSH1 0x0 PUSH1 0x20 DUP3 DUP5 SUB SLT ISZERO PUSH2 0x225B JUMPI PUSH2 0x225A PUSH2 0x2156 JUMP JUMPDEST JUMPDEST PUSH1 0x0 PUSH2 0x2269 DUP5 DUP3 DUP6 ADD PUSH2 0x2230 JUMP JUMPDEST SWAP2 POP POP SWAP3 SWAP2 POP POP JUMP JUMPDEST PUSH1 0x0 PUSH1 0x40 DUP3 ADD SWAP1 POP PUSH2 0x2287 PUSH1 0x0 DUP4 ADD DUP6 PUSH2 0x212C JUMP JUMPDEST PUSH2 0x2294 PUSH1 0x20 DUP4 ADD DUP5 PUSH2 0x212C JUMP JUMPDEST SWAP4 SWAP3 POP POP POP JUMP JUMPDEST PUSH1 0x0 DUP1 PUSH1 0x40 DUP4 DUP6 SUB SLT ISZERO PUSH2 0x22B2 JUMPI PUSH2 0x22B1 PUSH2 0x2156 JUMP JUMPDEST JUMPDEST PUSH1 0x0 PUSH2 0x22C0 DUP6 DUP3 DUP7 ADD PUSH2 0x2172 JUMP JUMPDEST SWAP3 POP POP PUSH1 0x20 PUSH2 0x22D1 DUP6 DUP3 DUP7 ADD PUSH2 0x2172 JUMP JUMPDEST SWAP2 POP POP SWAP3 POP SWAP3 SWAP1 POP JUMP JUMPDEST PUSH1 0x0 DUP1 PUSH1 0x40 DUP4 DUP6 SUB SLT ISZERO PUSH2 0x22F2 JUMPI PUSH2 0x22F1 PUSH2 0x2156 JUMP JUMPDEST JUMPDEST PUSH1 0x0 PUSH2 0x2300 DUP6 DUP3 DUP7 ADD PUSH2 0x2230 JUMP JUMPDEST SWAP3 POP POP PUSH1 0x20 PUSH2 0x2311 DUP6 DUP3 DUP7 ADD PUSH2 0x2172 JUMP JUMPDEST SWAP2 POP POP SWAP3 POP SWAP3 SWAP1 POP JUMP JUMPDEST PUSH2 0x2324 DUP2 PUSH2 0x2207 JUMP JUMPDEST DUP3 MSTORE POP POP JUMP JUMPDEST PUSH1 0x0 PUSH1 0x60 DUP3 ADD SWAP1 POP PUSH2 0x233F PUSH1 0x0 DUP4 ADD DUP7 PUSH2 0x231B JUMP JUMPDEST PUSH2 0x234C PUSH1 0x20 DUP4 ADD DUP6 PUSH2 0x231B JUMP JUMPDEST PUSH2 0x2359 PUSH1 0x40 DUP4 ADD DUP5 PUSH2 0x212C JUMP JUMPDEST SWAP5 SWAP4 POP POP POP POP JUMP JUMPDEST PUSH1 0x0 DUP2 ISZERO ISZERO SWAP1 POP SWAP2 SWAP1 POP JUMP JUMPDEST PUSH2 0x2376 DUP2 PUSH2 0x2361 JUMP JUMPDEST DUP2 EQ PUSH2 0x2381 JUMPI PUSH1 0x0 DUP1 REVERT JUMPDEST POP JUMP JUMPDEST PUSH1 0x0 DUP2 MLOAD SWAP1 POP PUSH2 0x2393 DUP2 PUSH2 0x236D JUMP JUMPDEST SWAP3 SWAP2 POP POP JUMP JUMPDEST PUSH1 0x0 PUSH1 0x20 DUP3 DUP5 SUB SLT ISZERO PUSH2 0x23AF JUMPI PUSH2 0x23AE PUSH2 0x2156 JUMP JUMPDEST JUMPDEST PUSH1 0x0 PUSH2 0x23BD DUP5 DUP3 DUP6 ADD PUSH2 0x2384 JUMP JUMPDEST SWAP2 POP POP SWAP3 SWAP2 POP POP JUMP JUMPDEST PUSH32 0x4E487B7100000000000000000000000000000000000000000000000000000000 PUSH1 0x0 MSTORE PUSH1 0x11 PUSH1 0x4 MSTORE PUSH1 0x24 PUSH1 0x0 REVERT JUMPDEST PUSH1 0x0 PUSH2 0x2400 DUP3 PUSH2 0x2122 JUMP JUMPDEST SWAP2 POP PUSH2 0x240B DUP4 PUSH2 0x2122 JUMP JUMPDEST SWAP3 POP DUP3 DUP3 MUL PUSH2 0x2419 DUP2 PUSH2 0x2122 JUMP JUMPDEST SWAP2 POP DUP3 DUP3 DIV DUP5 EQ DUP4 ISZERO OR PUSH2 0x2430 JUMPI PUSH2 0x242F PUSH2 0x23C6 JUMP JUMPDEST JUMPDEST POP SWAP3 SWAP2 POP POP JUMP JUMPDEST PUSH32 0x4E487B7100000000000000000000000000000000000000000000000000000000 PUSH1 0x0 MSTORE PUSH1 0x12 PUSH1 0x4 MSTORE PUSH1 0x24 PUSH1 0x0 REVERT JUMPDEST PUSH1 0x0 PUSH2 0x2471 DUP3 PUSH2 0x2122 JUMP JUMPDEST SWAP2 POP PUSH2 0x247C DUP4 PUSH2 0x2122 JUMP JUMPDEST SWAP3 POP DUP3 PUSH2 0x248C JUMPI PUSH2 0x248B PUSH2 0x2437 JUMP JUMPDEST JUMPDEST DUP3 DUP3 DIV SWAP1 POP SWAP3 SWAP2 POP POP JUMP JUMPDEST PUSH1 0x0 PUSH2 0x24A2 DUP3 PUSH2 0x2122 JUMP JUMPDEST SWAP2 POP PUSH2 0x24AD DUP4 PUSH2 0x2122 JUMP JUMPDEST SWAP3 POP DUP3 DUP3 ADD SWAP1 POP DUP1 DUP3 GT ISZERO PUSH2 0x24C5 JUMPI PUSH2 0x24C4 PUSH2 0x23C6 JUMP JUMPDEST JUMPDEST SWAP3 SWAP2 POP POP JUMP JUMPDEST PUSH1 0x0 DUP3 DUP3 MSTORE PUSH1 0x20 DUP3 ADD SWAP1 POP SWAP3 SWAP2 POP POP JUMP JUMPDEST PUSH32 0x496E73756666696369656E74206F757470757420616D6F756E74000000000000 PUSH1 0x0 DUP3 ADD MSTORE POP JUMP JUMPDEST PUSH1 0x0 PUSH2 0x2512 PUSH1 0x1A DUP4 PUSH2 0x24CB JUMP JUMPDEST SWAP2 POP PUSH2 0x251D DUP3 PUSH2 0x24DC JUMP JUMPDEST PUSH1 0x20 DUP3 ADD SWAP1 POP SWAP2 SWAP1 POP JUMP JUMPDEST PUSH1 0x0 PUSH1 0x20 DUP3 ADD SWAP1 POP DUP2 DUP2 SUB PUSH1 0x0 DUP4 ADD MSTORE PUSH2 0x2541 DUP2 PUSH2 0x2505 JUMP JUMPDEST SWAP1 POP SWAP2 SWAP1 POP JUMP JUMPDEST PUSH1 0x0 PUSH1 0x40 DUP3 ADD SWAP1 POP PUSH2 0x255D PUSH1 0x0 DUP4 ADD DUP6 PUSH2 0x231B JUMP JUMPDEST PUSH2 0x256A PUSH1 0x20 DUP4 ADD DUP5 PUSH2 0x212C JUMP JUMPDEST SWAP4 SWAP3 POP POP POP JUMP JUMPDEST PUSH1 0x0 PUSH1 0x20 DUP3 ADD SWAP1 POP PUSH2 0x2586 PUSH1 0x0 DUP4 ADD DUP5 PUSH2 0x231B JUMP JUMPDEST SWAP3 SWAP2 POP POP JUMP JUMPDEST PUSH1 0x0 DUP2 MLOAD SWAP1 POP PUSH2 0x259B DUP2 PUSH2 0x215B JUMP JUMPDEST SWAP3 SWAP2 POP POP JUMP JUMPDEST PUSH1 0x0 PUSH1 0x20 DUP3 DUP5 SUB SLT ISZERO PUSH2 0x25B7 JUMPI PUSH2 0x25B6 PUSH2 0x2156 JUMP JUMPDEST JUMPDEST PUSH1 0x0 PUSH2 0x25C5 DUP5 DUP3 DUP6 ADD PUSH2 0x258C JUMP JUMPDEST SWAP2 POP POP SWAP3 SWAP2 POP POP JUMP JUMPDEST PUSH32 0x496E76616C696420726573657276657300000000000000000000000000000000 PUSH1 0x0 DUP3 ADD MSTORE POP JUMP JUMPDEST PUSH1 0x0 PUSH2 0x2604 PUSH1 0x10 DUP4 PUSH2 0x24CB JUMP JUMPDEST SWAP2 POP PUSH2 0x260F DUP3 PUSH2 0x25CE JUMP JUMPDEST PUSH1 0x20 DUP3 ADD SWAP1 POP SWAP2 SWAP1 POP JUMP JUMPDEST PUSH1 0x0 PUSH1 0x20 DUP3 ADD SWAP1 POP DUP2 DUP2 SUB PUSH1 0x0 DUP4 ADD MSTORE PUSH2 0x2633 DUP2 PUSH2 0x25F7 JUMP JUMPDEST SWAP1 POP SWAP2 SWAP1 POP JUMP JUMPDEST PUSH1 0x0 PUSH2 0x2645 DUP3 PUSH2 0x2122 JUMP JUMPDEST SWAP2 POP PUSH2 0x2650 DUP4 PUSH2 0x2122 JUMP JUMPDEST SWAP3 POP DUP3 DUP3 SUB SWAP1 POP DUP2 DUP2 GT ISZERO PUSH2 0x2668 JUMPI PUSH2 0x2667 PUSH2 0x23C6 JUMP JUMPDEST JUMPDEST SWAP3 SWAP2 POP POP JUMP JUMPDEST PUSH32 0x536C69704C6F636B000000000000000000000000000000000000000000000000 PUSH1 0x0 DUP3 ADD MSTORE POP JUMP JUMPDEST PUSH1 0x0 PUSH2 0x26A4 PUSH1 0x8 DUP4 PUSH2 0x24CB JUMP JUMPDEST SWAP2 POP PUSH2 0x26AF DUP3 PUSH2 0x266E JUMP JUMPDEST PUSH1 0x20 DUP3 ADD SWAP1 POP SWAP2 SWAP1 POP JUMP JUMPDEST PUSH1 0x0 PUSH1 0x20 DUP3 ADD SWAP1 POP DUP2 DUP2 SUB PUSH1 0x0 DUP4 ADD MSTORE PUSH2 0x26D3 DUP2 PUSH2 0x2697 JUMP JUMPDEST SWAP1 POP SWAP2 SWAP1 POP JUMP JUMPDEST PUSH32 0x496E73756666696369656E742062616C616E6365000000000000000000000000 PUSH1 0x0 DUP3 ADD MSTORE POP JUMP JUMPDEST PUSH1 0x0 PUSH2 0x2710 PUSH1 0x14 DUP4 PUSH2 0x24CB JUMP JUMPDEST SWAP2 POP PUSH2 0x271B DUP3 PUSH2 0x26DA JUMP JUMPDEST PUSH1 0x20 DUP3 ADD SWAP1 POP SWAP2 SWAP1 POP JUMP JUMPDEST PUSH1 0x0 PUSH1 0x20 DUP3 ADD SWAP1 POP DUP2 DUP2 SUB PUSH1 0x0 DUP4 ADD MSTORE PUSH2 0x273F DUP2 PUSH2 0x2703 JUMP JUMPDEST SWAP1 POP SWAP2 SWAP1 POP JUMP JUMPDEST PUSH32 0x496E76616C6964206C697175696469747920726174696F000000000000000000 PUSH1 0x0 DUP3 ADD MSTORE POP JUMP JUMPDEST PUSH1 0x0 PUSH2 0x277C PUSH1 0x17 DUP4 PUSH2 0x24CB JUMP JUMPDEST SWAP2 POP PUSH2 0x2787 DUP3 PUSH2 0x2746 JUMP JUMPDEST PUSH1 0x20 DUP3 ADD SWAP1 POP SWAP2 SWAP1 POP JUMP JUMPDEST PUSH1 0x0 PUSH1 0x20 DUP3 ADD SWAP1 POP DUP2 DUP2 SUB PUSH1 0x0 DUP4 ADD MSTORE PUSH2 0x27AB DUP2 PUSH2 0x276F JUMP JUMPDEST SWAP1 POP SWAP2 SWAP1 POP JUMP JUMPDEST PUSH32 0x736861726573203D203000000000000000000000000000000000000000000000 PUSH1 0x0 DUP3 ADD MSTORE POP JUMP JUMPDEST PUSH1 0x0 PUSH2 0x27E8 PUSH1 0xA DUP4 PUSH2 0x24CB JUMP JUMPDEST SWAP2 POP PUSH2 0x27F3 DUP3 PUSH2 0x27B2 JUMP JUMPDEST PUSH1 0x20 DUP3 ADD SWAP1 POP SWAP2 SWAP1 POP JUMP JUMPDEST PUSH1 0x0 PUSH1 0x20 DUP3 ADD SWAP1 POP DUP2 DUP2 SUB PUSH1 0x0 DUP4 ADD MSTORE PUSH2 0x2817 DUP2 PUSH2 0x27DB JUMP JUMPDEST SWAP1 POP SWAP2 SWAP1 POP JUMP JUMPDEST PUSH1 0x0 PUSH1 0xFF DUP3 AND SWAP1 POP SWAP2 SWAP1 POP JUMP JUMPDEST PUSH2 0x2834 DUP2 PUSH2 0x281E JUMP JUMPDEST DUP2 EQ PUSH2 0x283F JUMPI PUSH1 0x0 DUP1 REVERT JUMPDEST POP JUMP JUMPDEST PUSH1 0x0 DUP2 MLOAD SWAP1 POP PUSH2 0x2851 DUP2 PUSH2 0x282B JUMP JUMPDEST SWAP3 SWAP2 POP POP JUMP JUMPDEST PUSH1 0x0 PUSH1 0x20 DUP3 DUP5 SUB SLT ISZERO PUSH2 0x286D JUMPI PUSH2 0x286C PUSH2 0x2156 JUMP JUMPDEST JUMPDEST PUSH1 0x0 PUSH2 0x287B DUP5 DUP3 DUP6 ADD PUSH2 0x2842 JUMP JUMPDEST SWAP2 POP POP SWAP3 SWAP2 POP POP JUMP JUMPDEST PUSH1 0x0 DUP2 PUSH1 0x1 SHR SWAP1 POP SWAP2 SWAP1 POP JUMP JUMPDEST PUSH1 0x0 DUP1 DUP3 SWAP2 POP DUP4 SWAP1 POP JUMPDEST PUSH1 0x1 DUP6 GT ISZERO PUSH2 0x28DB JUMPI DUP1 DUP7 DIV DUP2 GT ISZERO PUSH2 0x28B7 JUMPI PUSH2 0x28B6 PUSH2 0x23C6 JUMP JUMPDEST JUMPDEST PUSH1 0x1 DUP6 AND ISZERO PUSH2 0x28C6 JUMPI DUP1 DUP3 MUL SWAP2 POP JUMPDEST DUP1 DUP2 MUL SWAP1 POP PUSH2 0x28D4 DUP6 PUSH2 0x2884 JUMP JUMPDEST SWAP5 POP PUSH2 0x289B JUMP JUMPDEST SWAP5 POP SWAP5 SWAP3 POP POP POP JUMP JUMPDEST PUSH1 0x0 DUP3 PUSH2 0x28F4 JUMPI PUSH1 0x1 SWAP1 POP PUSH2 0x29B0 JUMP JUMPDEST DUP2 PUSH2 0x2902 JUMPI PUSH1 0x0 SWAP1 POP PUSH2 0x29B0 JUMP JUMPDEST DUP2 PUSH1 0x1 DUP2 EQ PUSH2 0x2918 JUMPI PUSH1 0x2 DUP2 EQ PUSH2 0x2922 JUMPI PUSH2 0x2951 JUMP JUMPDEST PUSH1 0x1 SWAP2 POP POP PUSH2 0x29B0 JUMP JUMPDEST PUSH1 0xFF DUP5 GT ISZERO PUSH2 0x2934 JUMPI PUSH2 0x2933 PUSH2 0x23C6 JUMP JUMPDEST JUMPDEST DUP4 PUSH1 0x2 EXP SWAP2 POP DUP5 DUP3 GT ISZERO PUSH2 0x294B JUMPI PUSH2 0x294A PUSH2 0x23C6 JUMP JUMPDEST JUMPDEST POP PUSH2 0x29B0 JUMP JUMPDEST POP PUSH1 0x20 DUP4 LT PUSH2 0x133 DUP4 LT AND PUSH1 0x4E DUP5 LT PUSH1 0xB DUP5 LT AND OR ISZERO PUSH2 0x2986 JUMPI DUP3 DUP3 EXP SWAP1 POP DUP4 DUP2 GT ISZERO PUSH2 0x2981 JUMPI PUSH2 0x2980 PUSH2 0x23C6 JUMP JUMPDEST JUMPDEST PUSH2 0x29B0 JUMP JUMPDEST PUSH2 0x2993 DUP5 DUP5 DUP5 PUSH1 0x1 PUSH2 0x2891 JUMP JUMPDEST SWAP3 POP SWAP1 POP DUP2 DUP5 DIV DUP2 GT ISZERO PUSH2 0x29AA JUMPI PUSH2 0x29A9 PUSH2 0x23C6 JUMP JUMPDEST JUMPDEST DUP2 DUP2 MUL SWAP1 POP JUMPDEST SWAP4 SWAP3 POP POP POP JUMP JUMPDEST PUSH1 0x0 PUSH2 0x29C2 DUP3 PUSH2 0x2122 JUMP JUMPDEST SWAP2 POP PUSH2 0x29CD DUP4 PUSH2 0x2122 JUMP JUMPDEST SWAP3 POP PUSH2 0x29FA PUSH32 0xFFFFFFFFFFFFFFFFFFFFFFFFFFFFFFFFFFFFFFFFFFFFFFFFFFFFFFFFFFFFFFFF DUP5 DUP5 PUSH2 0x28E4 JUMP JUMPDEST SWAP1 POP SWAP3 SWAP2 POP POP JUMP JUMPDEST PUSH32 0x616D6F756E7430206F7220616D6F756E7431203D203000000000000000000000 PUSH1 0x0 DUP3 ADD MSTORE POP JUMP JUMPDEST PUSH1 0x0 PUSH2 0x2A38 PUSH1 0x16 DUP4 PUSH2 0x24CB JUMP JUMPDEST SWAP2 POP PUSH2 0x2A43 DUP3 PUSH2 0x2A02 JUMP JUMPDEST PUSH1 0x20 DUP3 ADD SWAP1 POP SWAP2 SWAP1 POP JUMP JUMPDEST PUSH1 0x0 PUSH1 0x20 DUP3 ADD SWAP1 POP DUP2 DUP2 SUB PUSH1 0x0 DUP4 ADD MSTORE PUSH2 0x2A67 DUP2 PUSH2 0x2A2B JUMP JUMPDEST SWAP1 POP SWAP2 SWAP1 POP JUMP INVALID LOG2 PUSH5 0x6970667358 0x22 SLT KECCAK256 PUSH1 0x12 CALLDATALOAD 0xD6 0xCE PUSH30 0x1875B069B3B46ACEE9450468D2F1AED68EE5DBE1551FDD09D31764736F6C PUSH4 0x43000812 STOP CALLER "
				},
				"gasEstimates": {
					"creation": {
						"codeDepositCost": "2183200",
						"executionCost": "infinite",
						"totalCost": "infinite"
					},
					"external": {
						"addLiquidity(uint256,uint256)": "infinite",
						"balanceOf(address)": "2903",
						"getERCPrice()": "infinite",
						"getPredictOutputToken0(uint256)": "infinite",
						"getPredictOutputToken1(uint256)": "infinite",
						"myShares()": "2637",
						"removeAllLiquidity(address)": "infinite",
						"removeLiquidity(address,uint256)": "infinite",
						"removeLiquidity(uint256)": "infinite",
						"reserve0()": "2497",
						"reserve1()": "2474",
						"sharesOf(address)": "2929",
						"swap(uint256)": "infinite",
						"swapTokenForToken1(uint256)": "infinite",
						"swapTokenForToken1_WithSlipLock(uint256,uint256,uint256)": "infinite",
						"swap_WithSlipLock(uint256,uint256,uint256)": "infinite",
						"token0()": "infinite",
						"token1()": "infinite",
						"totalSupply()": "2475"
					},
					"internal": {
						"_burn(address,uint256)": "infinite",
						"_mint(address,uint256)": "infinite",
						"_removeLiquidity(address,uint256)": "infinite",
						"_sqrt(uint256)": "infinite",
						"_update(uint256,uint256)": "44241"
					}
				},
				"methodIdentifiers": {
					"addLiquidity(uint256,uint256)": "9cd441da",
					"balanceOf(address)": "70a08231",
					"getERCPrice()": "fcc2ba08",
					"getPredictOutputToken0(uint256)": "9c1e5375",
					"getPredictOutputToken1(uint256)": "4d7d1598",
					"myShares()": "9e7a4757",
					"removeAllLiquidity(address)": "7a6a5e1b",
					"removeLiquidity(address,uint256)": "a201ccf6",
					"removeLiquidity(uint256)": "9c8f9f23",
					"reserve0()": "443cb4bc",
					"reserve1()": "5a76f25e",
					"sharesOf(address)": "f5eb42dc",
					"swap(uint256)": "94b918de",
					"swapTokenForToken1(uint256)": "46765bdc",
					"swapTokenForToken1_WithSlipLock(uint256,uint256,uint256)": "c9f4437e",
					"swap_WithSlipLock(uint256,uint256,uint256)": "62279b65",
					"token0()": "0dfe1681",
					"token1()": "d21220a7",
					"totalSupply()": "18160ddd"
				}
			},
			"storageLayout": {
				"storage": [
					{
						"astId": 1583,
						"contract": "W6/simpleAMM/src/simpleAMMV6ERC.sol:AMM",
						"label": "developer",
						"offset": 0,
						"slot": "0",
						"type": "t_address"
					},
					{
						"astId": 1591,
						"contract": "W6/simpleAMM/src/simpleAMMV6ERC.sol:AMM",
						"label": "reserve0",
						"offset": 0,
						"slot": "1",
						"type": "t_uint256"
					},
					{
						"astId": 1593,
						"contract": "W6/simpleAMM/src/simpleAMMV6ERC.sol:AMM",
						"label": "reserve1",
						"offset": 0,
						"slot": "2",
						"type": "t_uint256"
					},
					{
						"astId": 1595,
						"contract": "W6/simpleAMM/src/simpleAMMV6ERC.sol:AMM",
						"label": "totalSupply",
						"offset": 0,
						"slot": "3",
						"type": "t_uint256"
					},
					{
						"astId": 1599,
						"contract": "W6/simpleAMM/src/simpleAMMV6ERC.sol:AMM",
						"label": "balanceOf",
						"offset": 0,
						"slot": "4",
						"type": "t_mapping(t_address,t_uint256)"
					}
				],
				"types": {
					"t_address": {
						"encoding": "inplace",
						"label": "address",
						"numberOfBytes": "20"
					},
					"t_mapping(t_address,t_uint256)": {
						"encoding": "mapping",
						"key": "t_address",
						"label": "mapping(address => uint256)",
						"numberOfBytes": "32",
						"value": "t_uint256"
					},
					"t_uint256": {
						"encoding": "inplace",
						"label": "uint256",
						"numberOfBytes": "32"
					}
				}
			},
			"userdoc": {
				"kind": "user",
				"methods": {},
				"version": 1
			}
		}
	}
}