{
	"W1/orderbook.sol": {
		"OrderBook_tGD_ETH": {
			"abi": [
				{
					"inputs": [],
					"stateMutability": "nonpayable",
					"type": "constructor"
				},
				{
					"inputs": [
						{
							"internalType": "uint256",
							"name": "amount",
							"type": "uint256"
						},
						{
							"internalType": "uint256",
							"name": "price",
							"type": "uint256"
						}
					],
					"name": "buyOrder",
					"outputs": [],
					"stateMutability": "payable",
					"type": "function"
				},
				{
					"inputs": [],
					"name": "getBuyPrice",
					"outputs": [
						{
							"internalType": "uint256",
							"name": "",
							"type": "uint256"
						}
					],
					"stateMutability": "view",
					"type": "function"
				},
				{
					"inputs": [],
					"name": "getSellPrice",
					"outputs": [
						{
							"internalType": "uint256",
							"name": "",
							"type": "uint256"
						}
					],
					"stateMutability": "view",
					"type": "function"
				},
				{
					"inputs": [
						{
							"internalType": "uint256",
							"name": "amount",
							"type": "uint256"
						},
						{
							"internalType": "uint256",
							"name": "price",
							"type": "uint256"
						}
					],
					"name": "sellOrder",
					"outputs": [],
					"stateMutability": "nonpayable",
					"type": "function"
				}
			],
			"devdoc": {
				"kind": "dev",
				"methods": {},
				"version": 1
			},
			"evm": {
				"assembly": "    /* \"W1/orderbook.sol\":141:3612  contract OrderBook_tGD_ETH {   // sell tGD get ETH buy tGD pay ETH... */\n  mstore(0x40, 0x80)\n    /* \"W1/orderbook.sol\":332:374  0xd9145CCE52D386f254917e481eB44e9943F39138 */\n  0xd9145cce52d386f254917e481eb44e9943f39138\n    /* \"W1/orderbook.sol\":312:375  IERC20 tGD = IERC20(0xd9145CCE52D386f254917e481eB44e9943F39138) */\n  0x02\n  exp(0x0100, 0x00)\n  dup2\n  sload\n  dup2\n  0xffffffffffffffffffffffffffffffffffffffff\n  mul\n  not\n  and\n  swap1\n  dup4\n  0xffffffffffffffffffffffffffffffffffffffff\n  and\n  mul\n  or\n  swap1\n  sstore\n  pop\n    /* \"W1/orderbook.sol\":382:473  constructor() {... */\n  callvalue\n  dup1\n  iszero\n  tag_1\n  jumpi\n  0x00\n  dup1\n  revert\ntag_1:\n  pop\n    /* \"W1/orderbook.sol\":417:430  new MinHeap() */\n  mload(0x40)\n  tag_4\n  swap1\n  tag_5\n  jump\t// in\ntag_4:\n  mload(0x40)\n  dup1\n  swap2\n  sub\n  swap1\n  0x00\n  create\n  dup1\n  iszero\n  dup1\n  iszero\n  tag_6\n  jumpi\n  returndatasize\n  0x00\n  dup1\n  returndatacopy\n  revert(0x00, returndatasize)\ntag_6:\n  pop\n    /* \"W1/orderbook.sol\":407:414  buyHeap */\n  0x00\n  dup1\n    /* \"W1/orderbook.sol\":407:430  buyHeap = new MinHeap() */\n  0x0100\n  exp\n  dup2\n  sload\n  dup2\n  0xffffffffffffffffffffffffffffffffffffffff\n  mul\n  not\n  and\n  swap1\n  dup4\n  0xffffffffffffffffffffffffffffffffffffffff\n  and\n  mul\n  or\n  swap1\n  sstore\n  pop\n    /* \"W1/orderbook.sol\":452:465  new MaxHeap() */\n  mload(0x40)\n  tag_7\n  swap1\n  tag_8\n  jump\t// in\ntag_7:\n  mload(0x40)\n  dup1\n  swap2\n  sub\n  swap1\n  0x00\n  create\n  dup1\n  iszero\n  dup1\n  iszero\n  tag_9\n  jumpi\n  returndatasize\n  0x00\n  dup1\n  returndatacopy\n  revert(0x00, returndatasize)\ntag_9:\n  pop\n    /* \"W1/orderbook.sol\":441:449  sellHeap */\n  0x01\n  0x00\n    /* \"W1/orderbook.sol\":441:465  sellHeap = new MaxHeap() */\n  0x0100\n  exp\n  dup2\n  sload\n  dup2\n  0xffffffffffffffffffffffffffffffffffffffff\n  mul\n  not\n  and\n  swap1\n  dup4\n  0xffffffffffffffffffffffffffffffffffffffff\n  and\n  mul\n  or\n  swap1\n  sstore\n  pop\n    /* \"W1/orderbook.sol\":141:3612  contract OrderBook_tGD_ETH {   // sell tGD get ETH buy tGD pay ETH... */\n  jump(tag_10)\ntag_5:\n  dataSize(sub_1)\n  dup1\n  dataOffset(sub_1)\n  dup4\n  codecopy\n  add\n  swap1\n  jump\t// out\ntag_8:\n  dataSize(sub_2)\n  dup1\n  dataOffset(sub_2)\n  dup4\n  codecopy\n  add\n  swap1\n  jump\t// out\ntag_10:\n  dataSize(sub_0)\n  dup1\n  dataOffset(sub_0)\n  0x00\n  codecopy\n  0x00\n  return\nstop\n\nsub_0: assembly {\n        /* \"W1/orderbook.sol\":141:3612  contract OrderBook_tGD_ETH {   // sell tGD get ETH buy tGD pay ETH... */\n      mstore(0x40, 0x80)\n      jumpi(tag_1, lt(calldatasize, 0x04))\n      shr(0xe0, calldataload(0x00))\n      dup1\n      0x018a25e8\n      eq\n      tag_2\n      jumpi\n      dup1\n      0x142ee8d8\n      eq\n      tag_3\n      jumpi\n      dup1\n      0x43d32e9c\n      eq\n      tag_4\n      jumpi\n      dup1\n      0xcd61a95a\n      eq\n      tag_5\n      jumpi\n    tag_1:\n      0x00\n      dup1\n      revert\n        /* \"W1/orderbook.sol\":585:683  function getBuyPrice() public view returns (uint256) {... */\n    tag_2:\n      callvalue\n      dup1\n      iszero\n      tag_6\n      jumpi\n      0x00\n      dup1\n      revert\n    tag_6:\n      pop\n      tag_7\n      tag_8\n      jump\t// in\n    tag_7:\n      mload(0x40)\n      tag_9\n      swap2\n      swap1\n      tag_10\n      jump\t// in\n    tag_9:\n      mload(0x40)\n      dup1\n      swap2\n      sub\n      swap1\n      return\n        /* \"W1/orderbook.sol\":689:1873  function buyOrder(uint256 amount, uint256 price) public payable{... */\n    tag_3:\n      tag_11\n      0x04\n      dup1\n      calldatasize\n      sub\n      dup2\n      add\n      swap1\n      tag_12\n      swap2\n      swap1\n      tag_13\n      jump\t// in\n    tag_12:\n      tag_14\n      jump\t// in\n    tag_11:\n      stop\n        /* \"W1/orderbook.sol\":479:579  function getSellPrice() public view returns (uint256) {... */\n    tag_4:\n      callvalue\n      dup1\n      iszero\n      tag_15\n      jumpi\n      0x00\n      dup1\n      revert\n    tag_15:\n      pop\n      tag_16\n      tag_17\n      jump\t// in\n    tag_16:\n      mload(0x40)\n      tag_18\n      swap2\n      swap1\n      tag_10\n      jump\t// in\n    tag_18:\n      mload(0x40)\n      dup1\n      swap2\n      sub\n      swap1\n      return\n        /* \"W1/orderbook.sol\":2701:3603  function sellOrder(uint256 amount, uint256 price) public {... */\n    tag_5:\n      callvalue\n      dup1\n      iszero\n      tag_19\n      jumpi\n      0x00\n      dup1\n      revert\n    tag_19:\n      pop\n      tag_20\n      0x04\n      dup1\n      calldatasize\n      sub\n      dup2\n      add\n      swap1\n      tag_21\n      swap2\n      swap1\n      tag_13\n      jump\t// in\n    tag_21:\n      tag_22\n      jump\t// in\n    tag_20:\n      stop\n        /* \"W1/orderbook.sol\":585:683  function getBuyPrice() public view returns (uint256) {... */\n    tag_8:\n        /* \"W1/orderbook.sol\":629:636  uint256 */\n      0x00\n        /* \"W1/orderbook.sol\":656:663  buyHeap */\n      dup1\n      0x00\n      swap1\n      sload\n      swap1\n      0x0100\n      exp\n      swap1\n      div\n      0xffffffffffffffffffffffffffffffffffffffff\n      and\n        /* \"W1/orderbook.sol\":656:667  buyHeap.top */\n      0xffffffffffffffffffffffffffffffffffffffff\n      and\n      0xfe6dcdba\n        /* \"W1/orderbook.sol\":656:669  buyHeap.top() */\n      mload(0x40)\n      dup2\n      0xffffffff\n      and\n      0xe0\n      shl\n      dup2\n      mstore\n      0x04\n      add\n      0x80\n      mload(0x40)\n      dup1\n      dup4\n      sub\n      dup2\n      dup7\n      gas\n      staticcall\n      iszero\n      dup1\n      iszero\n      tag_25\n      jumpi\n      returndatasize\n      0x00\n      dup1\n      returndatacopy\n      revert(0x00, returndatasize)\n    tag_25:\n      pop\n      pop\n      pop\n      pop\n      mload(0x40)\n      returndatasize\n      not(0x1f)\n      0x1f\n      dup3\n      add\n      and\n      dup3\n      add\n      dup1\n      0x40\n      mstore\n      pop\n      dup2\n      add\n      swap1\n      tag_26\n      swap2\n      swap1\n      tag_27\n      jump\t// in\n    tag_26:\n        /* \"W1/orderbook.sol\":656:675  buyHeap.top().price */\n      0x40\n      add\n      mload\n        /* \"W1/orderbook.sol\":649:675  return buyHeap.top().price */\n      swap1\n      pop\n        /* \"W1/orderbook.sol\":585:683  function getBuyPrice() public view returns (uint256) {... */\n      swap1\n      jump\t// out\n        /* \"W1/orderbook.sol\":689:1873  function buyOrder(uint256 amount, uint256 price) public payable{... */\n    tag_14:\n        /* \"W1/orderbook.sol\":802:807  price */\n      dup1\n        /* \"W1/orderbook.sol\":792:798  10**18 */\n      0x0de0b6b3a7640000\n        /* \"W1/orderbook.sol\":784:790  amount */\n      dup4\n        /* \"W1/orderbook.sol\":784:799  amount*(10**18) */\n      tag_29\n      swap2\n      swap1\n      tag_30\n      jump\t// in\n    tag_29:\n        /* \"W1/orderbook.sol\":784:807  amount*(10**18) * price */\n      tag_31\n      swap2\n      swap1\n      tag_30\n      jump\t// in\n    tag_31:\n        /* \"W1/orderbook.sol\":771:780  msg.value */\n      callvalue\n        /* \"W1/orderbook.sol\":771:807  msg.value == amount*(10**18) * price */\n      eq\n        /* \"W1/orderbook.sol\":763:808  require(msg.value == amount*(10**18) * price) */\n      tag_32\n      jumpi\n      0x00\n      dup1\n      revert\n    tag_32:\n        /* \"W1/orderbook.sol\":847:852  price */\n      dup1\n        /* \"W1/orderbook.sol\":824:831  buyHeap */\n      0x00\n      dup1\n      sload\n      swap1\n      0x0100\n      exp\n      swap1\n      div\n      0xffffffffffffffffffffffffffffffffffffffff\n      and\n        /* \"W1/orderbook.sol\":824:835  buyHeap.top */\n      0xffffffffffffffffffffffffffffffffffffffff\n      and\n      0xfe6dcdba\n        /* \"W1/orderbook.sol\":824:837  buyHeap.top() */\n      mload(0x40)\n      dup2\n      0xffffffff\n      and\n      0xe0\n      shl\n      dup2\n      mstore\n      0x04\n      add\n      0x80\n      mload(0x40)\n      dup1\n      dup4\n      sub\n      dup2\n      dup7\n      gas\n      staticcall\n      iszero\n      dup1\n      iszero\n      tag_34\n      jumpi\n      returndatasize\n      0x00\n      dup1\n      returndatacopy\n      revert(0x00, returndatasize)\n    tag_34:\n      pop\n      pop\n      pop\n      pop\n      mload(0x40)\n      returndatasize\n      not(0x1f)\n      0x1f\n      dup3\n      add\n      and\n      dup3\n      add\n      dup1\n      0x40\n      mstore\n      pop\n      dup2\n      add\n      swap1\n      tag_35\n      swap2\n      swap1\n      tag_27\n      jump\t// in\n    tag_35:\n        /* \"W1/orderbook.sol\":824:843  buyHeap.top().price */\n      0x40\n      add\n      mload\n        /* \"W1/orderbook.sol\":824:852  buyHeap.top().price >= price */\n      lt\n        /* \"W1/orderbook.sol\":821:952  if(buyHeap.top().price >= price) {... */\n      tag_36\n      jumpi\n        /* \"W1/orderbook.sol\":869:876  buyHeap */\n      0x00\n      dup1\n      sload\n      swap1\n      0x0100\n      exp\n      swap1\n      div\n      0xffffffffffffffffffffffffffffffffffffffff\n      and\n        /* \"W1/orderbook.sol\":869:881  buyHeap.push */\n      0xffffffffffffffffffffffffffffffffffffffff\n      and\n      0x7829c469\n        /* \"W1/orderbook.sol\":882:939  MinHeap.Order(msg.sender, amount, price, block.timestamp) */\n      mload(0x40)\n      dup1\n      0x80\n      add\n      0x40\n      mstore\n      dup1\n        /* \"W1/orderbook.sol\":896:906  msg.sender */\n      caller\n        /* \"W1/orderbook.sol\":882:939  MinHeap.Order(msg.sender, amount, price, block.timestamp) */\n      0xffffffffffffffffffffffffffffffffffffffff\n      and\n      dup2\n      mstore\n      0x20\n      add\n        /* \"W1/orderbook.sol\":908:914  amount */\n      dup6\n        /* \"W1/orderbook.sol\":882:939  MinHeap.Order(msg.sender, amount, price, block.timestamp) */\n      dup2\n      mstore\n      0x20\n      add\n        /* \"W1/orderbook.sol\":916:921  price */\n      dup5\n        /* \"W1/orderbook.sol\":882:939  MinHeap.Order(msg.sender, amount, price, block.timestamp) */\n      dup2\n      mstore\n      0x20\n      add\n        /* \"W1/orderbook.sol\":923:938  block.timestamp */\n      timestamp\n        /* \"W1/orderbook.sol\":882:939  MinHeap.Order(msg.sender, amount, price, block.timestamp) */\n      dup2\n      mstore\n      pop\n        /* \"W1/orderbook.sol\":869:940  buyHeap.push(MinHeap.Order(msg.sender, amount, price, block.timestamp)) */\n      mload(0x40)\n      dup3\n      0xffffffff\n      and\n      0xe0\n      shl\n      dup2\n      mstore\n      0x04\n      add\n      tag_37\n      swap2\n      swap1\n      tag_38\n      jump\t// in\n    tag_37:\n      0x00\n      mload(0x40)\n      dup1\n      dup4\n      sub\n      dup2\n      0x00\n      dup8\n      dup1\n      extcodesize\n      iszero\n      dup1\n      iszero\n      tag_39\n      jumpi\n      0x00\n      dup1\n      revert\n    tag_39:\n      pop\n      gas\n      call\n      iszero\n      dup1\n      iszero\n      tag_41\n      jumpi\n      returndatasize\n      0x00\n      dup1\n      returndatacopy\n      revert(0x00, returndatasize)\n    tag_41:\n      pop\n      pop\n      pop\n      pop\n        /* \"W1/orderbook.sol\":821:952  if(buyHeap.top().price >= price) {... */\n    tag_36:\n        /* \"W1/orderbook.sol\":987:992  price */\n      dup1\n        /* \"W1/orderbook.sol\":965:973  sellHeap */\n      0x01\n      0x00\n      swap1\n      sload\n      swap1\n      0x0100\n      exp\n      swap1\n      div\n      0xffffffffffffffffffffffffffffffffffffffff\n      and\n        /* \"W1/orderbook.sol\":965:977  sellHeap.top */\n      0xffffffffffffffffffffffffffffffffffffffff\n      and\n      0xfe6dcdba\n        /* \"W1/orderbook.sol\":965:979  sellHeap.top() */\n      mload(0x40)\n      dup2\n      0xffffffff\n      and\n      0xe0\n      shl\n      dup2\n      mstore\n      0x04\n      add\n      0x80\n      mload(0x40)\n      dup1\n      dup4\n      sub\n      dup2\n      dup7\n      gas\n      staticcall\n      iszero\n      dup1\n      iszero\n      tag_43\n      jumpi\n      returndatasize\n      0x00\n      dup1\n      returndatacopy\n      revert(0x00, returndatasize)\n    tag_43:\n      pop\n      pop\n      pop\n      pop\n      mload(0x40)\n      returndatasize\n      not(0x1f)\n      0x1f\n      dup3\n      add\n      and\n      dup3\n      add\n      dup1\n      0x40\n      mstore\n      pop\n      dup2\n      add\n      swap1\n      tag_44\n      swap2\n      swap1\n      tag_45\n      jump\t// in\n    tag_44:\n        /* \"W1/orderbook.sol\":965:985  sellHeap.top().price */\n      0x40\n      add\n      mload\n        /* \"W1/orderbook.sol\":965:992  sellHeap.top().price<=price */\n      gt\n        /* \"W1/orderbook.sol\":962:1866  if(sellHeap.top().price<=price )... */\n      tag_46\n      jumpi\n        /* \"W1/orderbook.sol\":1067:1072  price */\n      dup1\n        /* \"W1/orderbook.sol\":1043:1051  sellHeap */\n      0x01\n      0x00\n      swap1\n      sload\n      swap1\n      0x0100\n      exp\n      swap1\n      div\n      0xffffffffffffffffffffffffffffffffffffffff\n      and\n        /* \"W1/orderbook.sol\":1043:1055  sellHeap.top */\n      0xffffffffffffffffffffffffffffffffffffffff\n      and\n      0xfe6dcdba\n        /* \"W1/orderbook.sol\":1043:1057  sellHeap.top() */\n      mload(0x40)\n      dup2\n      0xffffffff\n      and\n      0xe0\n      shl\n      dup2\n      mstore\n      0x04\n      add\n      0x80\n      mload(0x40)\n      dup1\n      dup4\n      sub\n      dup2\n      dup7\n      gas\n      staticcall\n      iszero\n      dup1\n      iszero\n      tag_48\n      jumpi\n      returndatasize\n      0x00\n      dup1\n      returndatacopy\n      revert(0x00, returndatasize)\n    tag_48:\n      pop\n      pop\n      pop\n      pop\n      mload(0x40)\n      returndatasize\n      not(0x1f)\n      0x1f\n      dup3\n      add\n      and\n      dup3\n      add\n      dup1\n      0x40\n      mstore\n      pop\n      dup2\n      add\n      swap1\n      tag_49\n      swap2\n      swap1\n      tag_45\n      jump\t// in\n    tag_49:\n        /* \"W1/orderbook.sol\":1043:1063  sellHeap.top().price */\n      0x40\n      add\n      mload\n        /* \"W1/orderbook.sol\":1043:1072  sellHeap.top().price == price */\n      sub\n        /* \"W1/orderbook.sol\":1040:1718  if(sellHeap.top().price == price) {... */\n      tag_50\n      jumpi\n        /* \"W1/orderbook.sol\":1093:1703  while(sellHeap.top().price == price) {... */\n    tag_51:\n        /* \"W1/orderbook.sol\":1123:1128  price */\n      dup1\n        /* \"W1/orderbook.sol\":1099:1107  sellHeap */\n      0x01\n      0x00\n      swap1\n      sload\n      swap1\n      0x0100\n      exp\n      swap1\n      div\n      0xffffffffffffffffffffffffffffffffffffffff\n      and\n        /* \"W1/orderbook.sol\":1099:1111  sellHeap.top */\n      0xffffffffffffffffffffffffffffffffffffffff\n      and\n      0xfe6dcdba\n        /* \"W1/orderbook.sol\":1099:1113  sellHeap.top() */\n      mload(0x40)\n      dup2\n      0xffffffff\n      and\n      0xe0\n      shl\n      dup2\n      mstore\n      0x04\n      add\n      0x80\n      mload(0x40)\n      dup1\n      dup4\n      sub\n      dup2\n      dup7\n      gas\n      staticcall\n      iszero\n      dup1\n      iszero\n      tag_54\n      jumpi\n      returndatasize\n      0x00\n      dup1\n      returndatacopy\n      revert(0x00, returndatasize)\n    tag_54:\n      pop\n      pop\n      pop\n      pop\n      mload(0x40)\n      returndatasize\n      not(0x1f)\n      0x1f\n      dup3\n      add\n      and\n      dup3\n      add\n      dup1\n      0x40\n      mstore\n      pop\n      dup2\n      add\n      swap1\n      tag_55\n      swap2\n      swap1\n      tag_45\n      jump\t// in\n    tag_55:\n        /* \"W1/orderbook.sol\":1099:1119  sellHeap.top().price */\n      0x40\n      add\n      mload\n        /* \"W1/orderbook.sol\":1099:1128  sellHeap.top().price == price */\n      sub\n        /* \"W1/orderbook.sol\":1093:1703  while(sellHeap.top().price == price) {... */\n      tag_52\n      jumpi\n        /* \"W1/orderbook.sol\":1180:1186  amount */\n      dup2\n        /* \"W1/orderbook.sol\":1156:1164  sellHeap */\n      0x01\n      0x00\n      swap1\n      sload\n      swap1\n      0x0100\n      exp\n      swap1\n      div\n      0xffffffffffffffffffffffffffffffffffffffff\n      and\n        /* \"W1/orderbook.sol\":1156:1168  sellHeap.top */\n      0xffffffffffffffffffffffffffffffffffffffff\n      and\n      0xfe6dcdba\n        /* \"W1/orderbook.sol\":1156:1170  sellHeap.top() */\n      mload(0x40)\n      dup2\n      0xffffffff\n      and\n      0xe0\n      shl\n      dup2\n      mstore\n      0x04\n      add\n      0x80\n      mload(0x40)\n      dup1\n      dup4\n      sub\n      dup2\n      dup7\n      gas\n      staticcall\n      iszero\n      dup1\n      iszero\n      tag_57\n      jumpi\n      returndatasize\n      0x00\n      dup1\n      returndatacopy\n      revert(0x00, returndatasize)\n    tag_57:\n      pop\n      pop\n      pop\n      pop\n      mload(0x40)\n      returndatasize\n      not(0x1f)\n      0x1f\n      dup3\n      add\n      and\n      dup3\n      add\n      dup1\n      0x40\n      mstore\n      pop\n      dup2\n      add\n      swap1\n      tag_58\n      swap2\n      swap1\n      tag_45\n      jump\t// in\n    tag_58:\n        /* \"W1/orderbook.sol\":1156:1177  sellHeap.top().amount */\n      0x20\n      add\n      mload\n        /* \"W1/orderbook.sol\":1156:1186  sellHeap.top().amount > amount */\n      gt\n        /* \"W1/orderbook.sol\":1153:1684  if(sellHeap.top().amount > amount) {... */\n      iszero\n      tag_59\n      jumpi\n        /* \"W1/orderbook.sol\":1215:1218  tGD */\n      0x02\n      0x00\n      swap1\n      sload\n      swap1\n      0x0100\n      exp\n      swap1\n      div\n      0xffffffffffffffffffffffffffffffffffffffff\n      and\n        /* \"W1/orderbook.sol\":1215:1231  tGD.transferFrom */\n      0xffffffffffffffffffffffffffffffffffffffff\n      and\n      0x23b872dd\n        /* \"W1/orderbook.sol\":1240:1244  this */\n      address\n        /* \"W1/orderbook.sol\":1247:1257  msg.sender */\n      caller\n        /* \"W1/orderbook.sol\":1259:1265  amount */\n      dup6\n        /* \"W1/orderbook.sol\":1215:1266  tGD.transferFrom(address(this), msg.sender, amount) */\n      mload(0x40)\n      dup5\n      0xffffffff\n      and\n      0xe0\n      shl\n      dup2\n      mstore\n      0x04\n      add\n      tag_60\n      swap4\n      swap3\n      swap2\n      swap1\n      tag_61\n      jump\t// in\n    tag_60:\n      0x20\n      mload(0x40)\n      dup1\n      dup4\n      sub\n      dup2\n      0x00\n      dup8\n      gas\n      call\n      iszero\n      dup1\n      iszero\n      tag_63\n      jumpi\n      returndatasize\n      0x00\n      dup1\n      returndatacopy\n      revert(0x00, returndatasize)\n    tag_63:\n      pop\n      pop\n      pop\n      pop\n      mload(0x40)\n      returndatasize\n      not(0x1f)\n      0x1f\n      dup3\n      add\n      and\n      dup3\n      add\n      dup1\n      0x40\n      mstore\n      pop\n      dup2\n      add\n      swap1\n      tag_64\n      swap2\n      swap1\n      tag_65\n      jump\t// in\n    tag_64:\n      pop\n        /* \"W1/orderbook.sol\":1293:1317  address payable receiver */\n      0x00\n        /* \"W1/orderbook.sol\":1328:1336  sellHeap */\n      0x01\n      0x00\n      swap1\n      sload\n      swap1\n      0x0100\n      exp\n      swap1\n      div\n      0xffffffffffffffffffffffffffffffffffffffff\n      and\n        /* \"W1/orderbook.sol\":1328:1340  sellHeap.top */\n      0xffffffffffffffffffffffffffffffffffffffff\n      and\n      0xfe6dcdba\n        /* \"W1/orderbook.sol\":1328:1342  sellHeap.top() */\n      mload(0x40)\n      dup2\n      0xffffffff\n      and\n      0xe0\n      shl\n      dup2\n      mstore\n      0x04\n      add\n      0x80\n      mload(0x40)\n      dup1\n      dup4\n      sub\n      dup2\n      dup7\n      gas\n      staticcall\n      iszero\n      dup1\n      iszero\n      tag_67\n      jumpi\n      returndatasize\n      0x00\n      dup1\n      returndatacopy\n      revert(0x00, returndatasize)\n    tag_67:\n      pop\n      pop\n      pop\n      pop\n      mload(0x40)\n      returndatasize\n      not(0x1f)\n      0x1f\n      dup3\n      add\n      and\n      dup3\n      add\n      dup1\n      0x40\n      mstore\n      pop\n      dup2\n      add\n      swap1\n      tag_68\n      swap2\n      swap1\n      tag_45\n      jump\t// in\n    tag_68:\n        /* \"W1/orderbook.sol\":1328:1349  sellHeap.top().trader */\n      0x00\n      add\n      mload\n        /* \"W1/orderbook.sol\":1293:1350  address payable receiver = payable(sellHeap.top().trader) */\n      swap1\n      pop\n        /* \"W1/orderbook.sol\":1377:1385  receiver */\n      dup1\n        /* \"W1/orderbook.sol\":1377:1394  receiver.transfer */\n      0xffffffffffffffffffffffffffffffffffffffff\n      and\n        /* \"W1/orderbook.sol\":1377:1402  receiver.transfer(amount) */\n      0x08fc\n        /* \"W1/orderbook.sol\":1395:1401  amount */\n      dup5\n        /* \"W1/orderbook.sol\":1377:1402  receiver.transfer(amount) */\n      swap1\n      dup2\n      iszero\n      mul\n      swap1\n      mload(0x40)\n      0x00\n      mload(0x40)\n      dup1\n      dup4\n      sub\n      dup2\n      dup6\n      dup9\n      dup9\n      call\n      swap4\n      pop\n      pop\n      pop\n      pop\n      iszero\n      dup1\n      iszero\n      tag_70\n      jumpi\n      returndatasize\n      0x00\n      dup1\n      returndatacopy\n      revert(0x00, returndatasize)\n    tag_70:\n      pop\n        /* \"W1/orderbook.sol\":1456:1462  amount */\n      dup3\n        /* \"W1/orderbook.sol\":1431:1439  sellHeap */\n      0x01\n      0x00\n      swap1\n      sload\n      swap1\n      0x0100\n      exp\n      swap1\n      div\n      0xffffffffffffffffffffffffffffffffffffffff\n      and\n        /* \"W1/orderbook.sol\":1431:1443  sellHeap.top */\n      0xffffffffffffffffffffffffffffffffffffffff\n      and\n      0xfe6dcdba\n        /* \"W1/orderbook.sol\":1431:1445  sellHeap.top() */\n      mload(0x40)\n      dup2\n      0xffffffff\n      and\n      0xe0\n      shl\n      dup2\n      mstore\n      0x04\n      add\n      0x80\n      mload(0x40)\n      dup1\n      dup4\n      sub\n      dup2\n      dup7\n      gas\n      staticcall\n      iszero\n      dup1\n      iszero\n      tag_72\n      jumpi\n      returndatasize\n      0x00\n      dup1\n      returndatacopy\n      revert(0x00, returndatasize)\n    tag_72:\n      pop\n      pop\n      pop\n      pop\n      mload(0x40)\n      returndatasize\n      not(0x1f)\n      0x1f\n      dup3\n      add\n      and\n      dup3\n      add\n      dup1\n      0x40\n      mstore\n      pop\n      dup2\n      add\n      swap1\n      tag_73\n      swap2\n      swap1\n      tag_45\n      jump\t// in\n    tag_73:\n        /* \"W1/orderbook.sol\":1431:1452  sellHeap.top().amount */\n      0x20\n      add\n        /* \"W1/orderbook.sol\":1431:1462  sellHeap.top().amount -= amount */\n      dup2\n      dup2\n      mload\n      tag_74\n      swap2\n      swap1\n      tag_75\n      jump\t// in\n    tag_74:\n      swap2\n      pop\n      dup2\n      dup2\n      mstore\n      pop\n      pop\n        /* \"W1/orderbook.sol\":1498:1499  0 */\n      0x00\n        /* \"W1/orderbook.sol\":1489:1499  amount = 0 */\n      swap3\n      pop\n        /* \"W1/orderbook.sol\":1526:1531  break */\n      pop\n      jump(tag_52)\n        /* \"W1/orderbook.sol\":1153:1684  if(sellHeap.top().amount > amount) {... */\n    tag_59:\n        /* \"W1/orderbook.sol\":1598:1606  sellHeap */\n      0x01\n      0x00\n      swap1\n      sload\n      swap1\n      0x0100\n      exp\n      swap1\n      div\n      0xffffffffffffffffffffffffffffffffffffffff\n      and\n        /* \"W1/orderbook.sol\":1598:1610  sellHeap.top */\n      0xffffffffffffffffffffffffffffffffffffffff\n      and\n      0xfe6dcdba\n        /* \"W1/orderbook.sol\":1598:1612  sellHeap.top() */\n      mload(0x40)\n      dup2\n      0xffffffff\n      and\n      0xe0\n      shl\n      dup2\n      mstore\n      0x04\n      add\n      0x80\n      mload(0x40)\n      dup1\n      dup4\n      sub\n      dup2\n      dup7\n      gas\n      staticcall\n      iszero\n      dup1\n      iszero\n      tag_78\n      jumpi\n      returndatasize\n      0x00\n      dup1\n      returndatacopy\n      revert(0x00, returndatasize)\n    tag_78:\n      pop\n      pop\n      pop\n      pop\n      mload(0x40)\n      returndatasize\n      not(0x1f)\n      0x1f\n      dup3\n      add\n      and\n      dup3\n      add\n      dup1\n      0x40\n      mstore\n      pop\n      dup2\n      add\n      swap1\n      tag_79\n      swap2\n      swap1\n      tag_45\n      jump\t// in\n    tag_79:\n        /* \"W1/orderbook.sol\":1598:1619  sellHeap.top().amount */\n      0x20\n      add\n      mload\n        /* \"W1/orderbook.sol\":1588:1619  amount -= sellHeap.top().amount */\n      dup3\n      tag_80\n      swap2\n      swap1\n      tag_75\n      jump\t// in\n    tag_80:\n      swap2\n      pop\n        /* \"W1/orderbook.sol\":1646:1654  sellHeap */\n      0x01\n      0x00\n      swap1\n      sload\n      swap1\n      0x0100\n      exp\n      swap1\n      div\n      0xffffffffffffffffffffffffffffffffffffffff\n      and\n        /* \"W1/orderbook.sol\":1646:1658  sellHeap.pop */\n      0xffffffffffffffffffffffffffffffffffffffff\n      and\n      0xa4ece52c\n        /* \"W1/orderbook.sol\":1646:1660  sellHeap.pop() */\n      mload(0x40)\n      dup2\n      0xffffffff\n      and\n      0xe0\n      shl\n      dup2\n      mstore\n      0x04\n      add\n      0x00\n      mload(0x40)\n      dup1\n      dup4\n      sub\n      dup2\n      0x00\n      dup8\n      dup1\n      extcodesize\n      iszero\n      dup1\n      iszero\n      tag_81\n      jumpi\n      0x00\n      dup1\n      revert\n    tag_81:\n      pop\n      gas\n      call\n      iszero\n      dup1\n      iszero\n      tag_83\n      jumpi\n      returndatasize\n      0x00\n      dup1\n      returndatacopy\n      revert(0x00, returndatasize)\n    tag_83:\n      pop\n      pop\n      pop\n      pop\n        /* \"W1/orderbook.sol\":1093:1703  while(sellHeap.top().price == price) {... */\n      jump(tag_51)\n    tag_52:\n        /* \"W1/orderbook.sol\":1040:1718  if(sellHeap.top().price == price) {... */\n    tag_50:\n        /* \"W1/orderbook.sol\":1744:1745  0 */\n      0x00\n        /* \"W1/orderbook.sol\":1735:1741  amount */\n      dup3\n        /* \"W1/orderbook.sol\":1735:1745  amount > 0 */\n      gt\n        /* \"W1/orderbook.sol\":1732:1853  if(amount > 0) {... */\n      iszero\n      tag_84\n      jumpi\n        /* \"W1/orderbook.sol\":1766:1773  buyHeap */\n      0x00\n      dup1\n      sload\n      swap1\n      0x0100\n      exp\n      swap1\n      div\n      0xffffffffffffffffffffffffffffffffffffffff\n      and\n        /* \"W1/orderbook.sol\":1766:1778  buyHeap.push */\n      0xffffffffffffffffffffffffffffffffffffffff\n      and\n      0x7829c469\n        /* \"W1/orderbook.sol\":1779:1836  MinHeap.Order(msg.sender, amount, price, block.timestamp) */\n      mload(0x40)\n      dup1\n      0x80\n      add\n      0x40\n      mstore\n      dup1\n        /* \"W1/orderbook.sol\":1793:1803  msg.sender */\n      caller\n        /* \"W1/orderbook.sol\":1779:1836  MinHeap.Order(msg.sender, amount, price, block.timestamp) */\n      0xffffffffffffffffffffffffffffffffffffffff\n      and\n      dup2\n      mstore\n      0x20\n      add\n        /* \"W1/orderbook.sol\":1805:1811  amount */\n      dup6\n        /* \"W1/orderbook.sol\":1779:1836  MinHeap.Order(msg.sender, amount, price, block.timestamp) */\n      dup2\n      mstore\n      0x20\n      add\n        /* \"W1/orderbook.sol\":1813:1818  price */\n      dup5\n        /* \"W1/orderbook.sol\":1779:1836  MinHeap.Order(msg.sender, amount, price, block.timestamp) */\n      dup2\n      mstore\n      0x20\n      add\n        /* \"W1/orderbook.sol\":1820:1835  block.timestamp */\n      timestamp\n        /* \"W1/orderbook.sol\":1779:1836  MinHeap.Order(msg.sender, amount, price, block.timestamp) */\n      dup2\n      mstore\n      pop\n        /* \"W1/orderbook.sol\":1766:1837  buyHeap.push(MinHeap.Order(msg.sender, amount, price, block.timestamp)) */\n      mload(0x40)\n      dup3\n      0xffffffff\n      and\n      0xe0\n      shl\n      dup2\n      mstore\n      0x04\n      add\n      tag_85\n      swap2\n      swap1\n      tag_38\n      jump\t// in\n    tag_85:\n      0x00\n      mload(0x40)\n      dup1\n      dup4\n      sub\n      dup2\n      0x00\n      dup8\n      dup1\n      extcodesize\n      iszero\n      dup1\n      iszero\n      tag_86\n      jumpi\n      0x00\n      dup1\n      revert\n    tag_86:\n      pop\n      gas\n      call\n      iszero\n      dup1\n      iszero\n      tag_88\n      jumpi\n      returndatasize\n      0x00\n      dup1\n      returndatacopy\n      revert(0x00, returndatasize)\n    tag_88:\n      pop\n      pop\n      pop\n      pop\n        /* \"W1/orderbook.sol\":1732:1853  if(amount > 0) {... */\n    tag_84:\n        /* \"W1/orderbook.sol\":962:1866  if(sellHeap.top().price<=price )... */\n    tag_46:\n        /* \"W1/orderbook.sol\":689:1873  function buyOrder(uint256 amount, uint256 price) public payable{... */\n      pop\n      pop\n      jump\t// out\n        /* \"W1/orderbook.sol\":479:579  function getSellPrice() public view returns (uint256) {... */\n    tag_17:\n        /* \"W1/orderbook.sol\":524:531  uint256 */\n      0x00\n        /* \"W1/orderbook.sol\":551:559  sellHeap */\n      0x01\n      0x00\n      swap1\n      sload\n      swap1\n      0x0100\n      exp\n      swap1\n      div\n      0xffffffffffffffffffffffffffffffffffffffff\n      and\n        /* \"W1/orderbook.sol\":551:563  sellHeap.top */\n      0xffffffffffffffffffffffffffffffffffffffff\n      and\n      0xfe6dcdba\n        /* \"W1/orderbook.sol\":551:565  sellHeap.top() */\n      mload(0x40)\n      dup2\n      0xffffffff\n      and\n      0xe0\n      shl\n      dup2\n      mstore\n      0x04\n      add\n      0x80\n      mload(0x40)\n      dup1\n      dup4\n      sub\n      dup2\n      dup7\n      gas\n      staticcall\n      iszero\n      dup1\n      iszero\n      tag_91\n      jumpi\n      returndatasize\n      0x00\n      dup1\n      returndatacopy\n      revert(0x00, returndatasize)\n    tag_91:\n      pop\n      pop\n      pop\n      pop\n      mload(0x40)\n      returndatasize\n      not(0x1f)\n      0x1f\n      dup3\n      add\n      and\n      dup3\n      add\n      dup1\n      0x40\n      mstore\n      pop\n      dup2\n      add\n      swap1\n      tag_92\n      swap2\n      swap1\n      tag_45\n      jump\t// in\n    tag_92:\n        /* \"W1/orderbook.sol\":551:571  sellHeap.top().price */\n      0x40\n      add\n      mload\n        /* \"W1/orderbook.sol\":544:571  return sellHeap.top().price */\n      swap1\n      pop\n        /* \"W1/orderbook.sol\":479:579  function getSellPrice() public view returns (uint256) {... */\n      swap1\n      jump\t// out\n        /* \"W1/orderbook.sol\":2701:3603  function sellOrder(uint256 amount, uint256 price) public {... */\n    tag_22:\n        /* \"W1/orderbook.sol\":2798:2803  price */\n      dup1\n        /* \"W1/orderbook.sol\":2774:2782  sellHeap */\n      0x01\n      0x00\n      swap1\n      sload\n      swap1\n      0x0100\n      exp\n      swap1\n      div\n      0xffffffffffffffffffffffffffffffffffffffff\n      and\n        /* \"W1/orderbook.sol\":2774:2786  sellHeap.top */\n      0xffffffffffffffffffffffffffffffffffffffff\n      and\n      0xfe6dcdba\n        /* \"W1/orderbook.sol\":2774:2788  sellHeap.top() */\n      mload(0x40)\n      dup2\n      0xffffffff\n      and\n      0xe0\n      shl\n      dup2\n      mstore\n      0x04\n      add\n      0x80\n      mload(0x40)\n      dup1\n      dup4\n      sub\n      dup2\n      dup7\n      gas\n      staticcall\n      iszero\n      dup1\n      iszero\n      tag_95\n      jumpi\n      returndatasize\n      0x00\n      dup1\n      returndatacopy\n      revert(0x00, returndatasize)\n    tag_95:\n      pop\n      pop\n      pop\n      pop\n      mload(0x40)\n      returndatasize\n      not(0x1f)\n      0x1f\n      dup3\n      add\n      and\n      dup3\n      add\n      dup1\n      0x40\n      mstore\n      pop\n      dup2\n      add\n      swap1\n      tag_96\n      swap2\n      swap1\n      tag_45\n      jump\t// in\n    tag_96:\n        /* \"W1/orderbook.sol\":2774:2794  sellHeap.top().price */\n      0x40\n      add\n      mload\n        /* \"W1/orderbook.sol\":2774:2803  sellHeap.top().price <= price */\n      gt\n        /* \"W1/orderbook.sol\":2771:2904  if(sellHeap.top().price <= price) {... */\n      tag_97\n      jumpi\n        /* \"W1/orderbook.sol\":2820:2828  sellHeap */\n      0x01\n      0x00\n      swap1\n      sload\n      swap1\n      0x0100\n      exp\n      swap1\n      div\n      0xffffffffffffffffffffffffffffffffffffffff\n      and\n        /* \"W1/orderbook.sol\":2820:2833  sellHeap.push */\n      0xffffffffffffffffffffffffffffffffffffffff\n      and\n      0x7829c469\n        /* \"W1/orderbook.sol\":2834:2891  MaxHeap.Order(msg.sender, amount, price, block.timestamp) */\n      mload(0x40)\n      dup1\n      0x80\n      add\n      0x40\n      mstore\n      dup1\n        /* \"W1/orderbook.sol\":2848:2858  msg.sender */\n      caller\n        /* \"W1/orderbook.sol\":2834:2891  MaxHeap.Order(msg.sender, amount, price, block.timestamp) */\n      0xffffffffffffffffffffffffffffffffffffffff\n      and\n      dup2\n      mstore\n      0x20\n      add\n        /* \"W1/orderbook.sol\":2860:2866  amount */\n      dup6\n        /* \"W1/orderbook.sol\":2834:2891  MaxHeap.Order(msg.sender, amount, price, block.timestamp) */\n      dup2\n      mstore\n      0x20\n      add\n        /* \"W1/orderbook.sol\":2868:2873  price */\n      dup5\n        /* \"W1/orderbook.sol\":2834:2891  MaxHeap.Order(msg.sender, amount, price, block.timestamp) */\n      dup2\n      mstore\n      0x20\n      add\n        /* \"W1/orderbook.sol\":2875:2890  block.timestamp */\n      timestamp\n        /* \"W1/orderbook.sol\":2834:2891  MaxHeap.Order(msg.sender, amount, price, block.timestamp) */\n      dup2\n      mstore\n      pop\n        /* \"W1/orderbook.sol\":2820:2892  sellHeap.push(MaxHeap.Order(msg.sender, amount, price, block.timestamp)) */\n      mload(0x40)\n      dup3\n      0xffffffff\n      and\n      0xe0\n      shl\n      dup2\n      mstore\n      0x04\n      add\n      tag_98\n      swap2\n      swap1\n      tag_99\n      jump\t// in\n    tag_98:\n      0x00\n      mload(0x40)\n      dup1\n      dup4\n      sub\n      dup2\n      0x00\n      dup8\n      dup1\n      extcodesize\n      iszero\n      dup1\n      iszero\n      tag_100\n      jumpi\n      0x00\n      dup1\n      revert\n    tag_100:\n      pop\n      gas\n      call\n      iszero\n      dup1\n      iszero\n      tag_102\n      jumpi\n      returndatasize\n      0x00\n      dup1\n      returndatacopy\n      revert(0x00, returndatasize)\n    tag_102:\n      pop\n      pop\n      pop\n      pop\n        /* \"W1/orderbook.sol\":2771:2904  if(sellHeap.top().price <= price) {... */\n    tag_97:\n        /* \"W1/orderbook.sol\":2938:2943  price */\n      dup1\n        /* \"W1/orderbook.sol\":2917:2924  buyHeap */\n      0x00\n      dup1\n      sload\n      swap1\n      0x0100\n      exp\n      swap1\n      div\n      0xffffffffffffffffffffffffffffffffffffffff\n      and\n        /* \"W1/orderbook.sol\":2917:2928  buyHeap.top */\n      0xffffffffffffffffffffffffffffffffffffffff\n      and\n      0xfe6dcdba\n        /* \"W1/orderbook.sol\":2917:2930  buyHeap.top() */\n      mload(0x40)\n      dup2\n      0xffffffff\n      and\n      0xe0\n      shl\n      dup2\n      mstore\n      0x04\n      add\n      0x80\n      mload(0x40)\n      dup1\n      dup4\n      sub\n      dup2\n      dup7\n      gas\n      staticcall\n      iszero\n      dup1\n      iszero\n      tag_104\n      jumpi\n      returndatasize\n      0x00\n      dup1\n      returndatacopy\n      revert(0x00, returndatasize)\n    tag_104:\n      pop\n      pop\n      pop\n      pop\n      mload(0x40)\n      returndatasize\n      not(0x1f)\n      0x1f\n      dup3\n      add\n      and\n      dup3\n      add\n      dup1\n      0x40\n      mstore\n      pop\n      dup2\n      add\n      swap1\n      tag_105\n      swap2\n      swap1\n      tag_27\n      jump\t// in\n    tag_105:\n        /* \"W1/orderbook.sol\":2917:2936  buyHeap.top().price */\n      0x40\n      add\n      mload\n        /* \"W1/orderbook.sol\":2917:2943  buyHeap.top().price>=price */\n      lt\n        /* \"W1/orderbook.sol\":2914:3596  if(buyHeap.top().price>=price )... */\n      tag_106\n      jumpi\n        /* \"W1/orderbook.sol\":3017:3022  price */\n      dup1\n        /* \"W1/orderbook.sol\":2994:3001  buyHeap */\n      0x00\n      dup1\n      sload\n      swap1\n      0x0100\n      exp\n      swap1\n      div\n      0xffffffffffffffffffffffffffffffffffffffff\n      and\n        /* \"W1/orderbook.sol\":2994:3005  buyHeap.top */\n      0xffffffffffffffffffffffffffffffffffffffff\n      and\n      0xfe6dcdba\n        /* \"W1/orderbook.sol\":2994:3007  buyHeap.top() */\n      mload(0x40)\n      dup2\n      0xffffffff\n      and\n      0xe0\n      shl\n      dup2\n      mstore\n      0x04\n      add\n      0x80\n      mload(0x40)\n      dup1\n      dup4\n      sub\n      dup2\n      dup7\n      gas\n      staticcall\n      iszero\n      dup1\n      iszero\n      tag_108\n      jumpi\n      returndatasize\n      0x00\n      dup1\n      returndatacopy\n      revert(0x00, returndatasize)\n    tag_108:\n      pop\n      pop\n      pop\n      pop\n      mload(0x40)\n      returndatasize\n      not(0x1f)\n      0x1f\n      dup3\n      add\n      and\n      dup3\n      add\n      dup1\n      0x40\n      mstore\n      pop\n      dup2\n      add\n      swap1\n      tag_109\n      swap2\n      swap1\n      tag_27\n      jump\t// in\n    tag_109:\n        /* \"W1/orderbook.sol\":2994:3013  buyHeap.top().price */\n      0x40\n      add\n      mload\n        /* \"W1/orderbook.sol\":2994:3022  buyHeap.top().price == price */\n      sub\n        /* \"W1/orderbook.sol\":2991:3447  if(buyHeap.top().price == price) {... */\n      tag_110\n      jumpi\n        /* \"W1/orderbook.sol\":3043:3432  while(buyHeap.top().price == price) {... */\n    tag_111:\n        /* \"W1/orderbook.sol\":3072:3077  price */\n      dup1\n        /* \"W1/orderbook.sol\":3049:3056  buyHeap */\n      0x00\n      dup1\n      sload\n      swap1\n      0x0100\n      exp\n      swap1\n      div\n      0xffffffffffffffffffffffffffffffffffffffff\n      and\n        /* \"W1/orderbook.sol\":3049:3060  buyHeap.top */\n      0xffffffffffffffffffffffffffffffffffffffff\n      and\n      0xfe6dcdba\n        /* \"W1/orderbook.sol\":3049:3062  buyHeap.top() */\n      mload(0x40)\n      dup2\n      0xffffffff\n      and\n      0xe0\n      shl\n      dup2\n      mstore\n      0x04\n      add\n      0x80\n      mload(0x40)\n      dup1\n      dup4\n      sub\n      dup2\n      dup7\n      gas\n      staticcall\n      iszero\n      dup1\n      iszero\n      tag_114\n      jumpi\n      returndatasize\n      0x00\n      dup1\n      returndatacopy\n      revert(0x00, returndatasize)\n    tag_114:\n      pop\n      pop\n      pop\n      pop\n      mload(0x40)\n      returndatasize\n      not(0x1f)\n      0x1f\n      dup3\n      add\n      and\n      dup3\n      add\n      dup1\n      0x40\n      mstore\n      pop\n      dup2\n      add\n      swap1\n      tag_115\n      swap2\n      swap1\n      tag_27\n      jump\t// in\n    tag_115:\n        /* \"W1/orderbook.sol\":3049:3068  buyHeap.top().price */\n      0x40\n      add\n      mload\n        /* \"W1/orderbook.sol\":3049:3077  buyHeap.top().price == price */\n      sub\n        /* \"W1/orderbook.sol\":3043:3432  while(buyHeap.top().price == price) {... */\n      tag_112\n      jumpi\n        /* \"W1/orderbook.sol\":3128:3134  amount */\n      dup2\n        /* \"W1/orderbook.sol\":3105:3112  buyHeap */\n      0x00\n      dup1\n      sload\n      swap1\n      0x0100\n      exp\n      swap1\n      div\n      0xffffffffffffffffffffffffffffffffffffffff\n      and\n        /* \"W1/orderbook.sol\":3105:3116  buyHeap.top */\n      0xffffffffffffffffffffffffffffffffffffffff\n      and\n      0xfe6dcdba\n        /* \"W1/orderbook.sol\":3105:3118  buyHeap.top() */\n      mload(0x40)\n      dup2\n      0xffffffff\n      and\n      0xe0\n      shl\n      dup2\n      mstore\n      0x04\n      add\n      0x80\n      mload(0x40)\n      dup1\n      dup4\n      sub\n      dup2\n      dup7\n      gas\n      staticcall\n      iszero\n      dup1\n      iszero\n      tag_117\n      jumpi\n      returndatasize\n      0x00\n      dup1\n      returndatacopy\n      revert(0x00, returndatasize)\n    tag_117:\n      pop\n      pop\n      pop\n      pop\n      mload(0x40)\n      returndatasize\n      not(0x1f)\n      0x1f\n      dup3\n      add\n      and\n      dup3\n      add\n      dup1\n      0x40\n      mstore\n      pop\n      dup2\n      add\n      swap1\n      tag_118\n      swap2\n      swap1\n      tag_27\n      jump\t// in\n    tag_118:\n        /* \"W1/orderbook.sol\":3105:3125  buyHeap.top().amount */\n      0x20\n      add\n      mload\n        /* \"W1/orderbook.sol\":3105:3134  buyHeap.top().amount > amount */\n      gt\n        /* \"W1/orderbook.sol\":3102:3413  if(buyHeap.top().amount > amount) {... */\n      iszero\n      tag_119\n      jumpi\n        /* \"W1/orderbook.sol\":3187:3193  amount */\n      dup2\n        /* \"W1/orderbook.sol\":3163:3170  buyHeap */\n      0x00\n      dup1\n      sload\n      swap1\n      0x0100\n      exp\n      swap1\n      div\n      0xffffffffffffffffffffffffffffffffffffffff\n      and\n        /* \"W1/orderbook.sol\":3163:3174  buyHeap.top */\n      0xffffffffffffffffffffffffffffffffffffffff\n      and\n      0xfe6dcdba\n        /* \"W1/orderbook.sol\":3163:3176  buyHeap.top() */\n      mload(0x40)\n      dup2\n      0xffffffff\n      and\n      0xe0\n      shl\n      dup2\n      mstore\n      0x04\n      add\n      0x80\n      mload(0x40)\n      dup1\n      dup4\n      sub\n      dup2\n      dup7\n      gas\n      staticcall\n      iszero\n      dup1\n      iszero\n      tag_121\n      jumpi\n      returndatasize\n      0x00\n      dup1\n      returndatacopy\n      revert(0x00, returndatasize)\n    tag_121:\n      pop\n      pop\n      pop\n      pop\n      mload(0x40)\n      returndatasize\n      not(0x1f)\n      0x1f\n      dup3\n      add\n      and\n      dup3\n      add\n      dup1\n      0x40\n      mstore\n      pop\n      dup2\n      add\n      swap1\n      tag_122\n      swap2\n      swap1\n      tag_27\n      jump\t// in\n    tag_122:\n        /* \"W1/orderbook.sol\":3163:3183  buyHeap.top().amount */\n      0x20\n      add\n        /* \"W1/orderbook.sol\":3163:3193  buyHeap.top().amount -= amount */\n      dup2\n      dup2\n      mload\n      tag_123\n      swap2\n      swap1\n      tag_75\n      jump\t// in\n    tag_123:\n      swap2\n      pop\n      dup2\n      dup2\n      mstore\n      pop\n      pop\n        /* \"W1/orderbook.sol\":3229:3230  0 */\n      0x00\n        /* \"W1/orderbook.sol\":3220:3230  amount = 0 */\n      swap2\n      pop\n        /* \"W1/orderbook.sol\":3257:3262  break */\n      jump(tag_112)\n        /* \"W1/orderbook.sol\":3102:3413  if(buyHeap.top().amount > amount) {... */\n    tag_119:\n        /* \"W1/orderbook.sol\":3329:3336  buyHeap */\n      0x00\n      dup1\n      sload\n      swap1\n      0x0100\n      exp\n      swap1\n      div\n      0xffffffffffffffffffffffffffffffffffffffff\n      and\n        /* \"W1/orderbook.sol\":3329:3340  buyHeap.top */\n      0xffffffffffffffffffffffffffffffffffffffff\n      and\n      0xfe6dcdba\n        /* \"W1/orderbook.sol\":3329:3342  buyHeap.top() */\n      mload(0x40)\n      dup2\n      0xffffffff\n      and\n      0xe0\n      shl\n      dup2\n      mstore\n      0x04\n      add\n      0x80\n      mload(0x40)\n      dup1\n      dup4\n      sub\n      dup2\n      dup7\n      gas\n      staticcall\n      iszero\n      dup1\n      iszero\n      tag_126\n      jumpi\n      returndatasize\n      0x00\n      dup1\n      returndatacopy\n      revert(0x00, returndatasize)\n    tag_126:\n      pop\n      pop\n      pop\n      pop\n      mload(0x40)\n      returndatasize\n      not(0x1f)\n      0x1f\n      dup3\n      add\n      and\n      dup3\n      add\n      dup1\n      0x40\n      mstore\n      pop\n      dup2\n      add\n      swap1\n      tag_127\n      swap2\n      swap1\n      tag_27\n      jump\t// in\n    tag_127:\n        /* \"W1/orderbook.sol\":3329:3349  buyHeap.top().amount */\n      0x20\n      add\n      mload\n        /* \"W1/orderbook.sol\":3319:3349  amount -= buyHeap.top().amount */\n      dup3\n      tag_128\n      swap2\n      swap1\n      tag_75\n      jump\t// in\n    tag_128:\n      swap2\n      pop\n        /* \"W1/orderbook.sol\":3376:3383  buyHeap */\n      0x00\n      dup1\n      sload\n      swap1\n      0x0100\n      exp\n      swap1\n      div\n      0xffffffffffffffffffffffffffffffffffffffff\n      and\n        /* \"W1/orderbook.sol\":3376:3387  buyHeap.pop */\n      0xffffffffffffffffffffffffffffffffffffffff\n      and\n      0xa4ece52c\n        /* \"W1/orderbook.sol\":3376:3389  buyHeap.pop() */\n      mload(0x40)\n      dup2\n      0xffffffff\n      and\n      0xe0\n      shl\n      dup2\n      mstore\n      0x04\n      add\n      0x00\n      mload(0x40)\n      dup1\n      dup4\n      sub\n      dup2\n      0x00\n      dup8\n      dup1\n      extcodesize\n      iszero\n      dup1\n      iszero\n      tag_129\n      jumpi\n      0x00\n      dup1\n      revert\n    tag_129:\n      pop\n      gas\n      call\n      iszero\n      dup1\n      iszero\n      tag_131\n      jumpi\n      returndatasize\n      0x00\n      dup1\n      returndatacopy\n      revert(0x00, returndatasize)\n    tag_131:\n      pop\n      pop\n      pop\n      pop\n        /* \"W1/orderbook.sol\":3043:3432  while(buyHeap.top().price == price) {... */\n      jump(tag_111)\n    tag_112:\n        /* \"W1/orderbook.sol\":2991:3447  if(buyHeap.top().price == price) {... */\n    tag_110:\n        /* \"W1/orderbook.sol\":3473:3474  0 */\n      0x00\n        /* \"W1/orderbook.sol\":3464:3470  amount */\n      dup3\n        /* \"W1/orderbook.sol\":3464:3474  amount > 0 */\n      gt\n        /* \"W1/orderbook.sol\":3461:3583  if(amount > 0) {... */\n      iszero\n      tag_132\n      jumpi\n        /* \"W1/orderbook.sol\":3495:3503  sellHeap */\n      0x01\n      0x00\n      swap1\n      sload\n      swap1\n      0x0100\n      exp\n      swap1\n      div\n      0xffffffffffffffffffffffffffffffffffffffff\n      and\n        /* \"W1/orderbook.sol\":3495:3508  sellHeap.push */\n      0xffffffffffffffffffffffffffffffffffffffff\n      and\n      0x7829c469\n        /* \"W1/orderbook.sol\":3509:3566  MaxHeap.Order(msg.sender, amount, price, block.timestamp) */\n      mload(0x40)\n      dup1\n      0x80\n      add\n      0x40\n      mstore\n      dup1\n        /* \"W1/orderbook.sol\":3523:3533  msg.sender */\n      caller\n        /* \"W1/orderbook.sol\":3509:3566  MaxHeap.Order(msg.sender, amount, price, block.timestamp) */\n      0xffffffffffffffffffffffffffffffffffffffff\n      and\n      dup2\n      mstore\n      0x20\n      add\n        /* \"W1/orderbook.sol\":3535:3541  amount */\n      dup6\n        /* \"W1/orderbook.sol\":3509:3566  MaxHeap.Order(msg.sender, amount, price, block.timestamp) */\n      dup2\n      mstore\n      0x20\n      add\n        /* \"W1/orderbook.sol\":3543:3548  price */\n      dup5\n        /* \"W1/orderbook.sol\":3509:3566  MaxHeap.Order(msg.sender, amount, price, block.timestamp) */\n      dup2\n      mstore\n      0x20\n      add\n        /* \"W1/orderbook.sol\":3550:3565  block.timestamp */\n      timestamp\n        /* \"W1/orderbook.sol\":3509:3566  MaxHeap.Order(msg.sender, amount, price, block.timestamp) */\n      dup2\n      mstore\n      pop\n        /* \"W1/orderbook.sol\":3495:3567  sellHeap.push(MaxHeap.Order(msg.sender, amount, price, block.timestamp)) */\n      mload(0x40)\n      dup3\n      0xffffffff\n      and\n      0xe0\n      shl\n      dup2\n      mstore\n      0x04\n      add\n      tag_133\n      swap2\n      swap1\n      tag_99\n      jump\t// in\n    tag_133:\n      0x00\n      mload(0x40)\n      dup1\n      dup4\n      sub\n      dup2\n      0x00\n      dup8\n      dup1\n      extcodesize\n      iszero\n      dup1\n      iszero\n      tag_134\n      jumpi\n      0x00\n      dup1\n      revert\n    tag_134:\n      pop\n      gas\n      call\n      iszero\n      dup1\n      iszero\n      tag_136\n      jumpi\n      returndatasize\n      0x00\n      dup1\n      returndatacopy\n      revert(0x00, returndatasize)\n    tag_136:\n      pop\n      pop\n      pop\n      pop\n        /* \"W1/orderbook.sol\":3461:3583  if(amount > 0) {... */\n    tag_132:\n        /* \"W1/orderbook.sol\":2914:3596  if(buyHeap.top().price>=price )... */\n    tag_106:\n        /* \"W1/orderbook.sol\":2701:3603  function sellOrder(uint256 amount, uint256 price) public {... */\n      pop\n      pop\n      jump\t// out\n        /* \"#utility.yul\":7:84   */\n    tag_137:\n        /* \"#utility.yul\":44:51   */\n      0x00\n        /* \"#utility.yul\":73:78   */\n      dup2\n        /* \"#utility.yul\":62:78   */\n      swap1\n      pop\n        /* \"#utility.yul\":7:84   */\n      swap2\n      swap1\n      pop\n      jump\t// out\n        /* \"#utility.yul\":90:208   */\n    tag_138:\n        /* \"#utility.yul\":177:201   */\n      tag_169\n        /* \"#utility.yul\":195:200   */\n      dup2\n        /* \"#utility.yul\":177:201   */\n      tag_137\n      jump\t// in\n    tag_169:\n        /* \"#utility.yul\":172:175   */\n      dup3\n        /* \"#utility.yul\":165:202   */\n      mstore\n        /* \"#utility.yul\":90:208   */\n      pop\n      pop\n      jump\t// out\n        /* \"#utility.yul\":214:436   */\n    tag_10:\n        /* \"#utility.yul\":307:311   */\n      0x00\n        /* \"#utility.yul\":345:347   */\n      0x20\n        /* \"#utility.yul\":334:343   */\n      dup3\n        /* \"#utility.yul\":330:348   */\n      add\n        /* \"#utility.yul\":322:348   */\n      swap1\n      pop\n        /* \"#utility.yul\":358:429   */\n      tag_171\n        /* \"#utility.yul\":426:427   */\n      0x00\n        /* \"#utility.yul\":415:424   */\n      dup4\n        /* \"#utility.yul\":411:428   */\n      add\n        /* \"#utility.yul\":402:408   */\n      dup5\n        /* \"#utility.yul\":358:429   */\n      tag_138\n      jump\t// in\n    tag_171:\n        /* \"#utility.yul\":214:436   */\n      swap3\n      swap2\n      pop\n      pop\n      jump\t// out\n        /* \"#utility.yul\":442:517   */\n    tag_139:\n        /* \"#utility.yul\":475:481   */\n      0x00\n        /* \"#utility.yul\":508:510   */\n      0x40\n        /* \"#utility.yul\":502:511   */\n      mload\n        /* \"#utility.yul\":492:511   */\n      swap1\n      pop\n        /* \"#utility.yul\":442:517   */\n      swap1\n      jump\t// out\n        /* \"#utility.yul\":523:640   */\n    tag_140:\n        /* \"#utility.yul\":632:633   */\n      0x00\n        /* \"#utility.yul\":629:630   */\n      dup1\n        /* \"#utility.yul\":622:634   */\n      revert\n        /* \"#utility.yul\":769:891   */\n    tag_142:\n        /* \"#utility.yul\":842:866   */\n      tag_176\n        /* \"#utility.yul\":860:865   */\n      dup2\n        /* \"#utility.yul\":842:866   */\n      tag_137\n      jump\t// in\n    tag_176:\n        /* \"#utility.yul\":835:840   */\n      dup2\n        /* \"#utility.yul\":832:867   */\n      eq\n        /* \"#utility.yul\":822:885   */\n      tag_177\n      jumpi\n        /* \"#utility.yul\":881:882   */\n      0x00\n        /* \"#utility.yul\":878:879   */\n      dup1\n        /* \"#utility.yul\":871:883   */\n      revert\n        /* \"#utility.yul\":822:885   */\n    tag_177:\n        /* \"#utility.yul\":769:891   */\n      pop\n      jump\t// out\n        /* \"#utility.yul\":897:1036   */\n    tag_143:\n        /* \"#utility.yul\":943:948   */\n      0x00\n        /* \"#utility.yul\":981:987   */\n      dup2\n        /* \"#utility.yul\":968:988   */\n      calldataload\n        /* \"#utility.yul\":959:988   */\n      swap1\n      pop\n        /* \"#utility.yul\":997:1030   */\n      tag_179\n        /* \"#utility.yul\":1024:1029   */\n      dup2\n        /* \"#utility.yul\":997:1030   */\n      tag_142\n      jump\t// in\n    tag_179:\n        /* \"#utility.yul\":897:1036   */\n      swap3\n      swap2\n      pop\n      pop\n      jump\t// out\n        /* \"#utility.yul\":1042:1516   */\n    tag_13:\n        /* \"#utility.yul\":1110:1116   */\n      0x00\n        /* \"#utility.yul\":1118:1124   */\n      dup1\n        /* \"#utility.yul\":1167:1169   */\n      0x40\n        /* \"#utility.yul\":1155:1164   */\n      dup4\n        /* \"#utility.yul\":1146:1153   */\n      dup6\n        /* \"#utility.yul\":1142:1165   */\n      sub\n        /* \"#utility.yul\":1138:1170   */\n      slt\n        /* \"#utility.yul\":1135:1254   */\n      iszero\n      tag_181\n      jumpi\n        /* \"#utility.yul\":1173:1252   */\n      tag_182\n      tag_140\n      jump\t// in\n    tag_182:\n        /* \"#utility.yul\":1135:1254   */\n    tag_181:\n        /* \"#utility.yul\":1293:1294   */\n      0x00\n        /* \"#utility.yul\":1318:1371   */\n      tag_183\n        /* \"#utility.yul\":1363:1370   */\n      dup6\n        /* \"#utility.yul\":1354:1360   */\n      dup3\n        /* \"#utility.yul\":1343:1352   */\n      dup7\n        /* \"#utility.yul\":1339:1361   */\n      add\n        /* \"#utility.yul\":1318:1371   */\n      tag_143\n      jump\t// in\n    tag_183:\n        /* \"#utility.yul\":1308:1371   */\n      swap3\n      pop\n        /* \"#utility.yul\":1264:1381   */\n      pop\n        /* \"#utility.yul\":1420:1422   */\n      0x20\n        /* \"#utility.yul\":1446:1499   */\n      tag_184\n        /* \"#utility.yul\":1491:1498   */\n      dup6\n        /* \"#utility.yul\":1482:1488   */\n      dup3\n        /* \"#utility.yul\":1471:1480   */\n      dup7\n        /* \"#utility.yul\":1467:1489   */\n      add\n        /* \"#utility.yul\":1446:1499   */\n      tag_143\n      jump\t// in\n    tag_184:\n        /* \"#utility.yul\":1436:1499   */\n      swap2\n      pop\n        /* \"#utility.yul\":1391:1509   */\n      pop\n        /* \"#utility.yul\":1042:1516   */\n      swap3\n      pop\n      swap3\n      swap1\n      pop\n      jump\t// out\n        /* \"#utility.yul\":1522:1639   */\n    tag_144:\n        /* \"#utility.yul\":1631:1632   */\n      0x00\n        /* \"#utility.yul\":1628:1629   */\n      dup1\n        /* \"#utility.yul\":1621:1633   */\n      revert\n        /* \"#utility.yul\":1645:1747   */\n    tag_145:\n        /* \"#utility.yul\":1686:1692   */\n      0x00\n        /* \"#utility.yul\":1737:1739   */\n      0x1f\n        /* \"#utility.yul\":1733:1740   */\n      not\n        /* \"#utility.yul\":1728:1730   */\n      0x1f\n        /* \"#utility.yul\":1721:1726   */\n      dup4\n        /* \"#utility.yul\":1717:1731   */\n      add\n        /* \"#utility.yul\":1713:1741   */\n      and\n        /* \"#utility.yul\":1703:1741   */\n      swap1\n      pop\n        /* \"#utility.yul\":1645:1747   */\n      swap2\n      swap1\n      pop\n      jump\t// out\n        /* \"#utility.yul\":1753:1933   */\n    tag_146:\n        /* \"#utility.yul\":1801:1878   */\n      0x4e487b7100000000000000000000000000000000000000000000000000000000\n        /* \"#utility.yul\":1798:1799   */\n      0x00\n        /* \"#utility.yul\":1791:1879   */\n      mstore\n        /* \"#utility.yul\":1898:1902   */\n      0x41\n        /* \"#utility.yul\":1895:1896   */\n      0x04\n        /* \"#utility.yul\":1888:1903   */\n      mstore\n        /* \"#utility.yul\":1922:1926   */\n      0x24\n        /* \"#utility.yul\":1919:1920   */\n      0x00\n        /* \"#utility.yul\":1912:1927   */\n      revert\n        /* \"#utility.yul\":1939:2220   */\n    tag_147:\n        /* \"#utility.yul\":2022:2049   */\n      tag_189\n        /* \"#utility.yul\":2044:2048   */\n      dup3\n        /* \"#utility.yul\":2022:2049   */\n      tag_145\n      jump\t// in\n    tag_189:\n        /* \"#utility.yul\":2014:2020   */\n      dup2\n        /* \"#utility.yul\":2010:2050   */\n      add\n        /* \"#utility.yul\":2152:2158   */\n      dup2\n        /* \"#utility.yul\":2140:2150   */\n      dup2\n        /* \"#utility.yul\":2137:2159   */\n      lt\n        /* \"#utility.yul\":2116:2134   */\n      0xffffffffffffffff\n        /* \"#utility.yul\":2104:2114   */\n      dup3\n        /* \"#utility.yul\":2101:2135   */\n      gt\n        /* \"#utility.yul\":2098:2160   */\n      or\n        /* \"#utility.yul\":2095:2183   */\n      iszero\n      tag_190\n      jumpi\n        /* \"#utility.yul\":2163:2181   */\n      tag_191\n      tag_146\n      jump\t// in\n    tag_191:\n        /* \"#utility.yul\":2095:2183   */\n    tag_190:\n        /* \"#utility.yul\":2203:2213   */\n      dup1\n        /* \"#utility.yul\":2199:2201   */\n      0x40\n        /* \"#utility.yul\":2192:2214   */\n      mstore\n        /* \"#utility.yul\":1982:2220   */\n      pop\n        /* \"#utility.yul\":1939:2220   */\n      pop\n      pop\n      jump\t// out\n        /* \"#utility.yul\":2226:2355   */\n    tag_148:\n        /* \"#utility.yul\":2260:2266   */\n      0x00\n        /* \"#utility.yul\":2287:2307   */\n      tag_193\n      tag_139\n      jump\t// in\n    tag_193:\n        /* \"#utility.yul\":2277:2307   */\n      swap1\n      pop\n        /* \"#utility.yul\":2316:2349   */\n      tag_194\n        /* \"#utility.yul\":2344:2348   */\n      dup3\n        /* \"#utility.yul\":2336:2342   */\n      dup3\n        /* \"#utility.yul\":2316:2349   */\n      tag_147\n      jump\t// in\n    tag_194:\n        /* \"#utility.yul\":2226:2355   */\n      swap2\n      swap1\n      pop\n      jump\t// out\n        /* \"#utility.yul\":2484:2610   */\n    tag_150:\n        /* \"#utility.yul\":2521:2528   */\n      0x00\n        /* \"#utility.yul\":2561:2603   */\n      0xffffffffffffffffffffffffffffffffffffffff\n        /* \"#utility.yul\":2554:2559   */\n      dup3\n        /* \"#utility.yul\":2550:2604   */\n      and\n        /* \"#utility.yul\":2539:2604   */\n      swap1\n      pop\n        /* \"#utility.yul\":2484:2610   */\n      swap2\n      swap1\n      pop\n      jump\t// out\n        /* \"#utility.yul\":2616:2712   */\n    tag_151:\n        /* \"#utility.yul\":2653:2660   */\n      0x00\n        /* \"#utility.yul\":2682:2706   */\n      tag_198\n        /* \"#utility.yul\":2700:2705   */\n      dup3\n        /* \"#utility.yul\":2682:2706   */\n      tag_150\n      jump\t// in\n    tag_198:\n        /* \"#utility.yul\":2671:2706   */\n      swap1\n      pop\n        /* \"#utility.yul\":2616:2712   */\n      swap2\n      swap1\n      pop\n      jump\t// out\n        /* \"#utility.yul\":2718:2840   */\n    tag_152:\n        /* \"#utility.yul\":2791:2815   */\n      tag_200\n        /* \"#utility.yul\":2809:2814   */\n      dup2\n        /* \"#utility.yul\":2791:2815   */\n      tag_151\n      jump\t// in\n    tag_200:\n        /* \"#utility.yul\":2784:2789   */\n      dup2\n        /* \"#utility.yul\":2781:2816   */\n      eq\n        /* \"#utility.yul\":2771:2834   */\n      tag_201\n      jumpi\n        /* \"#utility.yul\":2830:2831   */\n      0x00\n        /* \"#utility.yul\":2827:2828   */\n      dup1\n        /* \"#utility.yul\":2820:2832   */\n      revert\n        /* \"#utility.yul\":2771:2834   */\n    tag_201:\n        /* \"#utility.yul\":2718:2840   */\n      pop\n      jump\t// out\n        /* \"#utility.yul\":2846:2989   */\n    tag_153:\n        /* \"#utility.yul\":2903:2908   */\n      0x00\n        /* \"#utility.yul\":2934:2940   */\n      dup2\n        /* \"#utility.yul\":2928:2941   */\n      mload\n        /* \"#utility.yul\":2919:2941   */\n      swap1\n      pop\n        /* \"#utility.yul\":2950:2983   */\n      tag_203\n        /* \"#utility.yul\":2977:2982   */\n      dup2\n        /* \"#utility.yul\":2950:2983   */\n      tag_152\n      jump\t// in\n    tag_203:\n        /* \"#utility.yul\":2846:2989   */\n      swap3\n      swap2\n      pop\n      pop\n      jump\t// out\n        /* \"#utility.yul\":2995:3138   */\n    tag_154:\n        /* \"#utility.yul\":3052:3057   */\n      0x00\n        /* \"#utility.yul\":3083:3089   */\n      dup2\n        /* \"#utility.yul\":3077:3090   */\n      mload\n        /* \"#utility.yul\":3068:3090   */\n      swap1\n      pop\n        /* \"#utility.yul\":3099:3132   */\n      tag_205\n        /* \"#utility.yul\":3126:3131   */\n      dup2\n        /* \"#utility.yul\":3099:3132   */\n      tag_142\n      jump\t// in\n    tag_205:\n        /* \"#utility.yul\":2995:3138   */\n      swap3\n      swap2\n      pop\n      pop\n      jump\t// out\n        /* \"#utility.yul\":3172:4129   */\n    tag_155:\n        /* \"#utility.yul\":3253:3258   */\n      0x00\n        /* \"#utility.yul\":3297:3301   */\n      0x80\n        /* \"#utility.yul\":3285:3294   */\n      dup3\n        /* \"#utility.yul\":3280:3283   */\n      dup5\n        /* \"#utility.yul\":3276:3295   */\n      sub\n        /* \"#utility.yul\":3272:3302   */\n      slt\n        /* \"#utility.yul\":3269:3386   */\n      iszero\n      tag_207\n      jumpi\n        /* \"#utility.yul\":3305:3384   */\n      tag_208\n      tag_144\n      jump\t// in\n    tag_208:\n        /* \"#utility.yul\":3269:3386   */\n    tag_207:\n        /* \"#utility.yul\":3404:3425   */\n      tag_209\n        /* \"#utility.yul\":3420:3424   */\n      0x80\n        /* \"#utility.yul\":3404:3425   */\n      tag_148\n      jump\t// in\n    tag_209:\n        /* \"#utility.yul\":3395:3425   */\n      swap1\n      pop\n        /* \"#utility.yul\":3486:3487   */\n      0x00\n        /* \"#utility.yul\":3526:3586   */\n      tag_210\n        /* \"#utility.yul\":3582:3585   */\n      dup5\n        /* \"#utility.yul\":3573:3579   */\n      dup3\n        /* \"#utility.yul\":3562:3571   */\n      dup6\n        /* \"#utility.yul\":3558:3580   */\n      add\n        /* \"#utility.yul\":3526:3586   */\n      tag_153\n      jump\t// in\n    tag_210:\n        /* \"#utility.yul\":3519:3523   */\n      0x00\n        /* \"#utility.yul\":3512:3517   */\n      dup4\n        /* \"#utility.yul\":3508:3524   */\n      add\n        /* \"#utility.yul\":3501:3587   */\n      mstore\n        /* \"#utility.yul\":3435:3598   */\n      pop\n        /* \"#utility.yul\":3659:3661   */\n      0x20\n        /* \"#utility.yul\":3700:3760   */\n      tag_211\n        /* \"#utility.yul\":3756:3759   */\n      dup5\n        /* \"#utility.yul\":3747:3753   */\n      dup3\n        /* \"#utility.yul\":3736:3745   */\n      dup6\n        /* \"#utility.yul\":3732:3754   */\n      add\n        /* \"#utility.yul\":3700:3760   */\n      tag_154\n      jump\t// in\n    tag_211:\n        /* \"#utility.yul\":3693:3697   */\n      0x20\n        /* \"#utility.yul\":3686:3691   */\n      dup4\n        /* \"#utility.yul\":3682:3698   */\n      add\n        /* \"#utility.yul\":3675:3761   */\n      mstore\n        /* \"#utility.yul\":3608:3772   */\n      pop\n        /* \"#utility.yul\":3832:3834   */\n      0x40\n        /* \"#utility.yul\":3873:3933   */\n      tag_212\n        /* \"#utility.yul\":3929:3932   */\n      dup5\n        /* \"#utility.yul\":3920:3926   */\n      dup3\n        /* \"#utility.yul\":3909:3918   */\n      dup6\n        /* \"#utility.yul\":3905:3927   */\n      add\n        /* \"#utility.yul\":3873:3933   */\n      tag_154\n      jump\t// in\n    tag_212:\n        /* \"#utility.yul\":3866:3870   */\n      0x40\n        /* \"#utility.yul\":3859:3864   */\n      dup4\n        /* \"#utility.yul\":3855:3871   */\n      add\n        /* \"#utility.yul\":3848:3934   */\n      mstore\n        /* \"#utility.yul\":3782:3945   */\n      pop\n        /* \"#utility.yul\":4009:4011   */\n      0x60\n        /* \"#utility.yul\":4050:4110   */\n      tag_213\n        /* \"#utility.yul\":4106:4109   */\n      dup5\n        /* \"#utility.yul\":4097:4103   */\n      dup3\n        /* \"#utility.yul\":4086:4095   */\n      dup6\n        /* \"#utility.yul\":4082:4104   */\n      add\n        /* \"#utility.yul\":4050:4110   */\n      tag_154\n      jump\t// in\n    tag_213:\n        /* \"#utility.yul\":4043:4047   */\n      0x60\n        /* \"#utility.yul\":4036:4041   */\n      dup4\n        /* \"#utility.yul\":4032:4048   */\n      add\n        /* \"#utility.yul\":4025:4111   */\n      mstore\n        /* \"#utility.yul\":3955:4122   */\n      pop\n        /* \"#utility.yul\":3172:4129   */\n      swap3\n      swap2\n      pop\n      pop\n      jump\t// out\n        /* \"#utility.yul\":4135:4529   */\n    tag_27:\n        /* \"#utility.yul\":4226:4232   */\n      0x00\n        /* \"#utility.yul\":4275:4278   */\n      0x80\n        /* \"#utility.yul\":4263:4272   */\n      dup3\n        /* \"#utility.yul\":4254:4261   */\n      dup5\n        /* \"#utility.yul\":4250:4273   */\n      sub\n        /* \"#utility.yul\":4246:4279   */\n      slt\n        /* \"#utility.yul\":4243:4363   */\n      iszero\n      tag_215\n      jumpi\n        /* \"#utility.yul\":4282:4361   */\n      tag_216\n      tag_140\n      jump\t// in\n    tag_216:\n        /* \"#utility.yul\":4243:4363   */\n    tag_215:\n        /* \"#utility.yul\":4402:4403   */\n      0x00\n        /* \"#utility.yul\":4427:4512   */\n      tag_217\n        /* \"#utility.yul\":4504:4511   */\n      dup5\n        /* \"#utility.yul\":4495:4501   */\n      dup3\n        /* \"#utility.yul\":4484:4493   */\n      dup6\n        /* \"#utility.yul\":4480:4502   */\n      add\n        /* \"#utility.yul\":4427:4512   */\n      tag_155\n      jump\t// in\n    tag_217:\n        /* \"#utility.yul\":4417:4512   */\n      swap2\n      pop\n        /* \"#utility.yul\":4373:4522   */\n      pop\n        /* \"#utility.yul\":4135:4529   */\n      swap3\n      swap2\n      pop\n      pop\n      jump\t// out\n        /* \"#utility.yul\":4535:4715   */\n    tag_156:\n        /* \"#utility.yul\":4583:4660   */\n      0x4e487b7100000000000000000000000000000000000000000000000000000000\n        /* \"#utility.yul\":4580:4581   */\n      0x00\n        /* \"#utility.yul\":4573:4661   */\n      mstore\n        /* \"#utility.yul\":4680:4684   */\n      0x11\n        /* \"#utility.yul\":4677:4678   */\n      0x04\n        /* \"#utility.yul\":4670:4685   */\n      mstore\n        /* \"#utility.yul\":4704:4708   */\n      0x24\n        /* \"#utility.yul\":4701:4702   */\n      0x00\n        /* \"#utility.yul\":4694:4709   */\n      revert\n        /* \"#utility.yul\":4721:5131   */\n    tag_30:\n        /* \"#utility.yul\":4761:4768   */\n      0x00\n        /* \"#utility.yul\":4784:4804   */\n      tag_220\n        /* \"#utility.yul\":4802:4803   */\n      dup3\n        /* \"#utility.yul\":4784:4804   */\n      tag_137\n      jump\t// in\n    tag_220:\n        /* \"#utility.yul\":4779:4804   */\n      swap2\n      pop\n        /* \"#utility.yul\":4818:4838   */\n      tag_221\n        /* \"#utility.yul\":4836:4837   */\n      dup4\n        /* \"#utility.yul\":4818:4838   */\n      tag_137\n      jump\t// in\n    tag_221:\n        /* \"#utility.yul\":4813:4838   */\n      swap3\n      pop\n        /* \"#utility.yul\":4873:4874   */\n      dup3\n        /* \"#utility.yul\":4870:4871   */\n      dup3\n        /* \"#utility.yul\":4866:4875   */\n      mul\n        /* \"#utility.yul\":4895:4925   */\n      tag_222\n        /* \"#utility.yul\":4913:4924   */\n      dup2\n        /* \"#utility.yul\":4895:4925   */\n      tag_137\n      jump\t// in\n    tag_222:\n        /* \"#utility.yul\":4884:4925   */\n      swap2\n      pop\n        /* \"#utility.yul\":5074:5075   */\n      dup3\n        /* \"#utility.yul\":5065:5072   */\n      dup3\n        /* \"#utility.yul\":5061:5076   */\n      div\n        /* \"#utility.yul\":5058:5059   */\n      dup5\n        /* \"#utility.yul\":5055:5077   */\n      eq\n        /* \"#utility.yul\":5035:5036   */\n      dup4\n        /* \"#utility.yul\":5028:5037   */\n      iszero\n        /* \"#utility.yul\":5008:5091   */\n      or\n        /* \"#utility.yul\":4985:5124   */\n      tag_223\n      jumpi\n        /* \"#utility.yul\":5104:5122   */\n      tag_224\n      tag_156\n      jump\t// in\n    tag_224:\n        /* \"#utility.yul\":4985:5124   */\n    tag_223:\n        /* \"#utility.yul\":4769:5131   */\n      pop\n        /* \"#utility.yul\":4721:5131   */\n      swap3\n      swap2\n      pop\n      pop\n      jump\t// out\n        /* \"#utility.yul\":5137:5245   */\n    tag_157:\n        /* \"#utility.yul\":5214:5238   */\n      tag_226\n        /* \"#utility.yul\":5232:5237   */\n      dup2\n        /* \"#utility.yul\":5214:5238   */\n      tag_151\n      jump\t// in\n    tag_226:\n        /* \"#utility.yul\":5209:5212   */\n      dup3\n        /* \"#utility.yul\":5202:5239   */\n      mstore\n        /* \"#utility.yul\":5137:5245   */\n      pop\n      pop\n      jump\t// out\n        /* \"#utility.yul\":5251:5359   */\n    tag_158:\n        /* \"#utility.yul\":5328:5352   */\n      tag_228\n        /* \"#utility.yul\":5346:5351   */\n      dup2\n        /* \"#utility.yul\":5328:5352   */\n      tag_137\n      jump\t// in\n    tag_228:\n        /* \"#utility.yul\":5323:5326   */\n      dup3\n        /* \"#utility.yul\":5316:5353   */\n      mstore\n        /* \"#utility.yul\":5251:5359   */\n      pop\n      pop\n      jump\t// out\n        /* \"#utility.yul\":5417:6274   */\n    tag_159:\n        /* \"#utility.yul\":5556:5560   */\n      0x80\n        /* \"#utility.yul\":5551:5554   */\n      dup3\n        /* \"#utility.yul\":5547:5561   */\n      add\n        /* \"#utility.yul\":5645:5649   */\n      0x00\n        /* \"#utility.yul\":5638:5643   */\n      dup3\n        /* \"#utility.yul\":5634:5650   */\n      add\n        /* \"#utility.yul\":5628:5651   */\n      mload\n        /* \"#utility.yul\":5664:5727   */\n      tag_230\n        /* \"#utility.yul\":5721:5725   */\n      0x00\n        /* \"#utility.yul\":5716:5719   */\n      dup6\n        /* \"#utility.yul\":5712:5726   */\n      add\n        /* \"#utility.yul\":5698:5710   */\n      dup3\n        /* \"#utility.yul\":5664:5727   */\n      tag_157\n      jump\t// in\n    tag_230:\n        /* \"#utility.yul\":5571:5737   */\n      pop\n        /* \"#utility.yul\":5821:5825   */\n      0x20\n        /* \"#utility.yul\":5814:5819   */\n      dup3\n        /* \"#utility.yul\":5810:5826   */\n      add\n        /* \"#utility.yul\":5804:5827   */\n      mload\n        /* \"#utility.yul\":5840:5903   */\n      tag_231\n        /* \"#utility.yul\":5897:5901   */\n      0x20\n        /* \"#utility.yul\":5892:5895   */\n      dup6\n        /* \"#utility.yul\":5888:5902   */\n      add\n        /* \"#utility.yul\":5874:5886   */\n      dup3\n        /* \"#utility.yul\":5840:5903   */\n      tag_158\n      jump\t// in\n    tag_231:\n        /* \"#utility.yul\":5747:5913   */\n      pop\n        /* \"#utility.yul\":5996:6000   */\n      0x40\n        /* \"#utility.yul\":5989:5994   */\n      dup3\n        /* \"#utility.yul\":5985:6001   */\n      add\n        /* \"#utility.yul\":5979:6002   */\n      mload\n        /* \"#utility.yul\":6015:6078   */\n      tag_232\n        /* \"#utility.yul\":6072:6076   */\n      0x40\n        /* \"#utility.yul\":6067:6070   */\n      dup6\n        /* \"#utility.yul\":6063:6077   */\n      add\n        /* \"#utility.yul\":6049:6061   */\n      dup3\n        /* \"#utility.yul\":6015:6078   */\n      tag_158\n      jump\t// in\n    tag_232:\n        /* \"#utility.yul\":5923:6088   */\n      pop\n        /* \"#utility.yul\":6175:6179   */\n      0x60\n        /* \"#utility.yul\":6168:6173   */\n      dup3\n        /* \"#utility.yul\":6164:6180   */\n      add\n        /* \"#utility.yul\":6158:6181   */\n      mload\n        /* \"#utility.yul\":6194:6257   */\n      tag_233\n        /* \"#utility.yul\":6251:6255   */\n      0x60\n        /* \"#utility.yul\":6246:6249   */\n      dup6\n        /* \"#utility.yul\":6242:6256   */\n      add\n        /* \"#utility.yul\":6228:6240   */\n      dup3\n        /* \"#utility.yul\":6194:6257   */\n      tag_158\n      jump\t// in\n    tag_233:\n        /* \"#utility.yul\":6098:6267   */\n      pop\n        /* \"#utility.yul\":5525:6274   */\n      pop\n        /* \"#utility.yul\":5417:6274   */\n      pop\n      pop\n      jump\t// out\n        /* \"#utility.yul\":6280:6587   */\n    tag_38:\n        /* \"#utility.yul\":6415:6419   */\n      0x00\n        /* \"#utility.yul\":6453:6456   */\n      0x80\n        /* \"#utility.yul\":6442:6451   */\n      dup3\n        /* \"#utility.yul\":6438:6457   */\n      add\n        /* \"#utility.yul\":6430:6457   */\n      swap1\n      pop\n        /* \"#utility.yul\":6467:6580   */\n      tag_235\n        /* \"#utility.yul\":6577:6578   */\n      0x00\n        /* \"#utility.yul\":6566:6575   */\n      dup4\n        /* \"#utility.yul\":6562:6579   */\n      add\n        /* \"#utility.yul\":6553:6559   */\n      dup5\n        /* \"#utility.yul\":6467:6580   */\n      tag_159\n      jump\t// in\n    tag_235:\n        /* \"#utility.yul\":6280:6587   */\n      swap3\n      swap2\n      pop\n      pop\n      jump\t// out\n        /* \"#utility.yul\":6621:7579   */\n    tag_160:\n        /* \"#utility.yul\":6703:6708   */\n      0x00\n        /* \"#utility.yul\":6747:6751   */\n      0x80\n        /* \"#utility.yul\":6735:6744   */\n      dup3\n        /* \"#utility.yul\":6730:6733   */\n      dup5\n        /* \"#utility.yul\":6726:6745   */\n      sub\n        /* \"#utility.yul\":6722:6752   */\n      slt\n        /* \"#utility.yul\":6719:6836   */\n      iszero\n      tag_237\n      jumpi\n        /* \"#utility.yul\":6755:6834   */\n      tag_238\n      tag_144\n      jump\t// in\n    tag_238:\n        /* \"#utility.yul\":6719:6836   */\n    tag_237:\n        /* \"#utility.yul\":6854:6875   */\n      tag_239\n        /* \"#utility.yul\":6870:6874   */\n      0x80\n        /* \"#utility.yul\":6854:6875   */\n      tag_148\n      jump\t// in\n    tag_239:\n        /* \"#utility.yul\":6845:6875   */\n      swap1\n      pop\n        /* \"#utility.yul\":6936:6937   */\n      0x00\n        /* \"#utility.yul\":6976:7036   */\n      tag_240\n        /* \"#utility.yul\":7032:7035   */\n      dup5\n        /* \"#utility.yul\":7023:7029   */\n      dup3\n        /* \"#utility.yul\":7012:7021   */\n      dup6\n        /* \"#utility.yul\":7008:7030   */\n      add\n        /* \"#utility.yul\":6976:7036   */\n      tag_153\n      jump\t// in\n    tag_240:\n        /* \"#utility.yul\":6969:6973   */\n      0x00\n        /* \"#utility.yul\":6962:6967   */\n      dup4\n        /* \"#utility.yul\":6958:6974   */\n      add\n        /* \"#utility.yul\":6951:7037   */\n      mstore\n        /* \"#utility.yul\":6885:7048   */\n      pop\n        /* \"#utility.yul\":7109:7111   */\n      0x20\n        /* \"#utility.yul\":7150:7210   */\n      tag_241\n        /* \"#utility.yul\":7206:7209   */\n      dup5\n        /* \"#utility.yul\":7197:7203   */\n      dup3\n        /* \"#utility.yul\":7186:7195   */\n      dup6\n        /* \"#utility.yul\":7182:7204   */\n      add\n        /* \"#utility.yul\":7150:7210   */\n      tag_154\n      jump\t// in\n    tag_241:\n        /* \"#utility.yul\":7143:7147   */\n      0x20\n        /* \"#utility.yul\":7136:7141   */\n      dup4\n        /* \"#utility.yul\":7132:7148   */\n      add\n        /* \"#utility.yul\":7125:7211   */\n      mstore\n        /* \"#utility.yul\":7058:7222   */\n      pop\n        /* \"#utility.yul\":7282:7284   */\n      0x40\n        /* \"#utility.yul\":7323:7383   */\n      tag_242\n        /* \"#utility.yul\":7379:7382   */\n      dup5\n        /* \"#utility.yul\":7370:7376   */\n      dup3\n        /* \"#utility.yul\":7359:7368   */\n      dup6\n        /* \"#utility.yul\":7355:7377   */\n      add\n        /* \"#utility.yul\":7323:7383   */\n      tag_154\n      jump\t// in\n    tag_242:\n        /* \"#utility.yul\":7316:7320   */\n      0x40\n        /* \"#utility.yul\":7309:7314   */\n      dup4\n        /* \"#utility.yul\":7305:7321   */\n      add\n        /* \"#utility.yul\":7298:7384   */\n      mstore\n        /* \"#utility.yul\":7232:7395   */\n      pop\n        /* \"#utility.yul\":7459:7461   */\n      0x60\n        /* \"#utility.yul\":7500:7560   */\n      tag_243\n        /* \"#utility.yul\":7556:7559   */\n      dup5\n        /* \"#utility.yul\":7547:7553   */\n      dup3\n        /* \"#utility.yul\":7536:7545   */\n      dup6\n        /* \"#utility.yul\":7532:7554   */\n      add\n        /* \"#utility.yul\":7500:7560   */\n      tag_154\n      jump\t// in\n    tag_243:\n        /* \"#utility.yul\":7493:7497   */\n      0x60\n        /* \"#utility.yul\":7486:7491   */\n      dup4\n        /* \"#utility.yul\":7482:7498   */\n      add\n        /* \"#utility.yul\":7475:7561   */\n      mstore\n        /* \"#utility.yul\":7405:7572   */\n      pop\n        /* \"#utility.yul\":6621:7579   */\n      swap3\n      swap2\n      pop\n      pop\n      jump\t// out\n        /* \"#utility.yul\":7585:7981   */\n    tag_45:\n        /* \"#utility.yul\":7677:7683   */\n      0x00\n        /* \"#utility.yul\":7726:7729   */\n      0x80\n        /* \"#utility.yul\":7714:7723   */\n      dup3\n        /* \"#utility.yul\":7705:7712   */\n      dup5\n        /* \"#utility.yul\":7701:7724   */\n      sub\n        /* \"#utility.yul\":7697:7730   */\n      slt\n        /* \"#utility.yul\":7694:7814   */\n      iszero\n      tag_245\n      jumpi\n        /* \"#utility.yul\":7733:7812   */\n      tag_246\n      tag_140\n      jump\t// in\n    tag_246:\n        /* \"#utility.yul\":7694:7814   */\n    tag_245:\n        /* \"#utility.yul\":7853:7854   */\n      0x00\n        /* \"#utility.yul\":7878:7964   */\n      tag_247\n        /* \"#utility.yul\":7956:7963   */\n      dup5\n        /* \"#utility.yul\":7947:7953   */\n      dup3\n        /* \"#utility.yul\":7936:7945   */\n      dup6\n        /* \"#utility.yul\":7932:7954   */\n      add\n        /* \"#utility.yul\":7878:7964   */\n      tag_160\n      jump\t// in\n    tag_247:\n        /* \"#utility.yul\":7868:7964   */\n      swap2\n      pop\n        /* \"#utility.yul\":7824:7974   */\n      pop\n        /* \"#utility.yul\":7585:7981   */\n      swap3\n      swap2\n      pop\n      pop\n      jump\t// out\n        /* \"#utility.yul\":7987:8105   */\n    tag_161:\n        /* \"#utility.yul\":8074:8098   */\n      tag_249\n        /* \"#utility.yul\":8092:8097   */\n      dup2\n        /* \"#utility.yul\":8074:8098   */\n      tag_151\n      jump\t// in\n    tag_249:\n        /* \"#utility.yul\":8069:8072   */\n      dup3\n        /* \"#utility.yul\":8062:8099   */\n      mstore\n        /* \"#utility.yul\":7987:8105   */\n      pop\n      pop\n      jump\t// out\n        /* \"#utility.yul\":8111:8553   */\n    tag_61:\n        /* \"#utility.yul\":8260:8264   */\n      0x00\n        /* \"#utility.yul\":8298:8300   */\n      0x60\n        /* \"#utility.yul\":8287:8296   */\n      dup3\n        /* \"#utility.yul\":8283:8301   */\n      add\n        /* \"#utility.yul\":8275:8301   */\n      swap1\n      pop\n        /* \"#utility.yul\":8311:8382   */\n      tag_251\n        /* \"#utility.yul\":8379:8380   */\n      0x00\n        /* \"#utility.yul\":8368:8377   */\n      dup4\n        /* \"#utility.yul\":8364:8381   */\n      add\n        /* \"#utility.yul\":8355:8361   */\n      dup7\n        /* \"#utility.yul\":8311:8382   */\n      tag_161\n      jump\t// in\n    tag_251:\n        /* \"#utility.yul\":8392:8464   */\n      tag_252\n        /* \"#utility.yul\":8460:8462   */\n      0x20\n        /* \"#utility.yul\":8449:8458   */\n      dup4\n        /* \"#utility.yul\":8445:8463   */\n      add\n        /* \"#utility.yul\":8436:8442   */\n      dup6\n        /* \"#utility.yul\":8392:8464   */\n      tag_161\n      jump\t// in\n    tag_252:\n        /* \"#utility.yul\":8474:8546   */\n      tag_253\n        /* \"#utility.yul\":8542:8544   */\n      0x40\n        /* \"#utility.yul\":8531:8540   */\n      dup4\n        /* \"#utility.yul\":8527:8545   */\n      add\n        /* \"#utility.yul\":8518:8524   */\n      dup5\n        /* \"#utility.yul\":8474:8546   */\n      tag_138\n      jump\t// in\n    tag_253:\n        /* \"#utility.yul\":8111:8553   */\n      swap5\n      swap4\n      pop\n      pop\n      pop\n      pop\n      jump\t// out\n        /* \"#utility.yul\":8559:8649   */\n    tag_162:\n        /* \"#utility.yul\":8593:8600   */\n      0x00\n        /* \"#utility.yul\":8636:8641   */\n      dup2\n        /* \"#utility.yul\":8629:8642   */\n      iszero\n        /* \"#utility.yul\":8622:8643   */\n      iszero\n        /* \"#utility.yul\":8611:8643   */\n      swap1\n      pop\n        /* \"#utility.yul\":8559:8649   */\n      swap2\n      swap1\n      pop\n      jump\t// out\n        /* \"#utility.yul\":8655:8771   */\n    tag_163:\n        /* \"#utility.yul\":8725:8746   */\n      tag_256\n        /* \"#utility.yul\":8740:8745   */\n      dup2\n        /* \"#utility.yul\":8725:8746   */\n      tag_162\n      jump\t// in\n    tag_256:\n        /* \"#utility.yul\":8718:8723   */\n      dup2\n        /* \"#utility.yul\":8715:8747   */\n      eq\n        /* \"#utility.yul\":8705:8765   */\n      tag_257\n      jumpi\n        /* \"#utility.yul\":8761:8762   */\n      0x00\n        /* \"#utility.yul\":8758:8759   */\n      dup1\n        /* \"#utility.yul\":8751:8763   */\n      revert\n        /* \"#utility.yul\":8705:8765   */\n    tag_257:\n        /* \"#utility.yul\":8655:8771   */\n      pop\n      jump\t// out\n        /* \"#utility.yul\":8777:8914   */\n    tag_164:\n        /* \"#utility.yul\":8831:8836   */\n      0x00\n        /* \"#utility.yul\":8862:8868   */\n      dup2\n        /* \"#utility.yul\":8856:8869   */\n      mload\n        /* \"#utility.yul\":8847:8869   */\n      swap1\n      pop\n        /* \"#utility.yul\":8878:8908   */\n      tag_259\n        /* \"#utility.yul\":8902:8907   */\n      dup2\n        /* \"#utility.yul\":8878:8908   */\n      tag_163\n      jump\t// in\n    tag_259:\n        /* \"#utility.yul\":8777:8914   */\n      swap3\n      swap2\n      pop\n      pop\n      jump\t// out\n        /* \"#utility.yul\":8920:9265   */\n    tag_65:\n        /* \"#utility.yul\":8987:8993   */\n      0x00\n        /* \"#utility.yul\":9036:9038   */\n      0x20\n        /* \"#utility.yul\":9024:9033   */\n      dup3\n        /* \"#utility.yul\":9015:9022   */\n      dup5\n        /* \"#utility.yul\":9011:9034   */\n      sub\n        /* \"#utility.yul\":9007:9039   */\n      slt\n        /* \"#utility.yul\":9004:9123   */\n      iszero\n      tag_261\n      jumpi\n        /* \"#utility.yul\":9042:9121   */\n      tag_262\n      tag_140\n      jump\t// in\n    tag_262:\n        /* \"#utility.yul\":9004:9123   */\n    tag_261:\n        /* \"#utility.yul\":9162:9163   */\n      0x00\n        /* \"#utility.yul\":9187:9248   */\n      tag_263\n        /* \"#utility.yul\":9240:9247   */\n      dup5\n        /* \"#utility.yul\":9231:9237   */\n      dup3\n        /* \"#utility.yul\":9220:9229   */\n      dup6\n        /* \"#utility.yul\":9216:9238   */\n      add\n        /* \"#utility.yul\":9187:9248   */\n      tag_164\n      jump\t// in\n    tag_263:\n        /* \"#utility.yul\":9177:9248   */\n      swap2\n      pop\n        /* \"#utility.yul\":9133:9258   */\n      pop\n        /* \"#utility.yul\":8920:9265   */\n      swap3\n      swap2\n      pop\n      pop\n      jump\t// out\n        /* \"#utility.yul\":9271:9465   */\n    tag_75:\n        /* \"#utility.yul\":9311:9315   */\n      0x00\n        /* \"#utility.yul\":9331:9351   */\n      tag_265\n        /* \"#utility.yul\":9349:9350   */\n      dup3\n        /* \"#utility.yul\":9331:9351   */\n      tag_137\n      jump\t// in\n    tag_265:\n        /* \"#utility.yul\":9326:9351   */\n      swap2\n      pop\n        /* \"#utility.yul\":9365:9385   */\n      tag_266\n        /* \"#utility.yul\":9383:9384   */\n      dup4\n        /* \"#utility.yul\":9365:9385   */\n      tag_137\n      jump\t// in\n    tag_266:\n        /* \"#utility.yul\":9360:9385   */\n      swap3\n      pop\n        /* \"#utility.yul\":9409:9410   */\n      dup3\n        /* \"#utility.yul\":9406:9407   */\n      dup3\n        /* \"#utility.yul\":9402:9411   */\n      sub\n        /* \"#utility.yul\":9394:9411   */\n      swap1\n      pop\n        /* \"#utility.yul\":9433:9434   */\n      dup2\n        /* \"#utility.yul\":9427:9431   */\n      dup2\n        /* \"#utility.yul\":9424:9435   */\n      gt\n        /* \"#utility.yul\":9421:9458   */\n      iszero\n      tag_267\n      jumpi\n        /* \"#utility.yul\":9438:9456   */\n      tag_268\n      tag_156\n      jump\t// in\n    tag_268:\n        /* \"#utility.yul\":9421:9458   */\n    tag_267:\n        /* \"#utility.yul\":9271:9465   */\n      swap3\n      swap2\n      pop\n      pop\n      jump\t// out\n        /* \"#utility.yul\":9523:10382   */\n    tag_165:\n        /* \"#utility.yul\":9664:9668   */\n      0x80\n        /* \"#utility.yul\":9659:9662   */\n      dup3\n        /* \"#utility.yul\":9655:9669   */\n      add\n        /* \"#utility.yul\":9753:9757   */\n      0x00\n        /* \"#utility.yul\":9746:9751   */\n      dup3\n        /* \"#utility.yul\":9742:9758   */\n      add\n        /* \"#utility.yul\":9736:9759   */\n      mload\n        /* \"#utility.yul\":9772:9835   */\n      tag_270\n        /* \"#utility.yul\":9829:9833   */\n      0x00\n        /* \"#utility.yul\":9824:9827   */\n      dup6\n        /* \"#utility.yul\":9820:9834   */\n      add\n        /* \"#utility.yul\":9806:9818   */\n      dup3\n        /* \"#utility.yul\":9772:9835   */\n      tag_157\n      jump\t// in\n    tag_270:\n        /* \"#utility.yul\":9679:9845   */\n      pop\n        /* \"#utility.yul\":9929:9933   */\n      0x20\n        /* \"#utility.yul\":9922:9927   */\n      dup3\n        /* \"#utility.yul\":9918:9934   */\n      add\n        /* \"#utility.yul\":9912:9935   */\n      mload\n        /* \"#utility.yul\":9948:10011   */\n      tag_271\n        /* \"#utility.yul\":10005:10009   */\n      0x20\n        /* \"#utility.yul\":10000:10003   */\n      dup6\n        /* \"#utility.yul\":9996:10010   */\n      add\n        /* \"#utility.yul\":9982:9994   */\n      dup3\n        /* \"#utility.yul\":9948:10011   */\n      tag_158\n      jump\t// in\n    tag_271:\n        /* \"#utility.yul\":9855:10021   */\n      pop\n        /* \"#utility.yul\":10104:10108   */\n      0x40\n        /* \"#utility.yul\":10097:10102   */\n      dup3\n        /* \"#utility.yul\":10093:10109   */\n      add\n        /* \"#utility.yul\":10087:10110   */\n      mload\n        /* \"#utility.yul\":10123:10186   */\n      tag_272\n        /* \"#utility.yul\":10180:10184   */\n      0x40\n        /* \"#utility.yul\":10175:10178   */\n      dup6\n        /* \"#utility.yul\":10171:10185   */\n      add\n        /* \"#utility.yul\":10157:10169   */\n      dup3\n        /* \"#utility.yul\":10123:10186   */\n      tag_158\n      jump\t// in\n    tag_272:\n        /* \"#utility.yul\":10031:10196   */\n      pop\n        /* \"#utility.yul\":10283:10287   */\n      0x60\n        /* \"#utility.yul\":10276:10281   */\n      dup3\n        /* \"#utility.yul\":10272:10288   */\n      add\n        /* \"#utility.yul\":10266:10289   */\n      mload\n        /* \"#utility.yul\":10302:10365   */\n      tag_273\n        /* \"#utility.yul\":10359:10363   */\n      0x60\n        /* \"#utility.yul\":10354:10357   */\n      dup6\n        /* \"#utility.yul\":10350:10364   */\n      add\n        /* \"#utility.yul\":10336:10348   */\n      dup3\n        /* \"#utility.yul\":10302:10365   */\n      tag_158\n      jump\t// in\n    tag_273:\n        /* \"#utility.yul\":10206:10375   */\n      pop\n        /* \"#utility.yul\":9633:10382   */\n      pop\n        /* \"#utility.yul\":9523:10382   */\n      pop\n      pop\n      jump\t// out\n        /* \"#utility.yul\":10388:10699   */\n    tag_99:\n        /* \"#utility.yul\":10525:10529   */\n      0x00\n        /* \"#utility.yul\":10563:10566   */\n      0x80\n        /* \"#utility.yul\":10552:10561   */\n      dup3\n        /* \"#utility.yul\":10548:10567   */\n      add\n        /* \"#utility.yul\":10540:10567   */\n      swap1\n      pop\n        /* \"#utility.yul\":10577:10692   */\n      tag_275\n        /* \"#utility.yul\":10689:10690   */\n      0x00\n        /* \"#utility.yul\":10678:10687   */\n      dup4\n        /* \"#utility.yul\":10674:10691   */\n      add\n        /* \"#utility.yul\":10665:10671   */\n      dup5\n        /* \"#utility.yul\":10577:10692   */\n      tag_165\n      jump\t// in\n    tag_275:\n        /* \"#utility.yul\":10388:10699   */\n      swap3\n      swap2\n      pop\n      pop\n      jump\t// out\n\n    auxdata: 0xa264697066735822122037ca6b76a628b43fe654061517794aafa88f5c8789ae2d44abaaeaa14379594764736f6c63430008130033\n}\n\nsub_1: assembly {\n        /* \"W1/heap.sol\":63:2806  contract MinHeap {... */\n      mstore(0x40, 0x80)\n        /* \"W1/heap.sol\":247:512  constructor() {... */\n      callvalue\n      dup1\n      iszero\n      tag_1\n      jumpi\n      0x00\n      dup1\n      revert\n    tag_1:\n      pop\n        /* \"W1/heap.sol\":272:276  heap */\n      0x00\n        /* \"W1/heap.sol\":282:503  Order(address(0), 0xffffffffffffffffffffffffffffffffffffffffffffffffffffffffffffffff, 0xffffffffffffffffffffffffffffffffffffffffffffffffffffffffffffffff, 0xffffffffffffffffffffffffffffffffffffffffffffffffffffffffffffffff) */\n      mload(0x40)\n      dup1\n      0x80\n      add\n      0x40\n      mstore\n      dup1\n        /* \"W1/heap.sol\":296:297  0 */\n      0x00\n        /* \"W1/heap.sol\":282:503  Order(address(0), 0xffffffffffffffffffffffffffffffffffffffffffffffffffffffffffffffff, 0xffffffffffffffffffffffffffffffffffffffffffffffffffffffffffffffff, 0xffffffffffffffffffffffffffffffffffffffffffffffffffffffffffffffff) */\n      0xffffffffffffffffffffffffffffffffffffffff\n      and\n      dup2\n      mstore\n      0x20\n      add\n        /* \"W1/heap.sol\":300:366  0xffffffffffffffffffffffffffffffffffffffffffffffffffffffffffffffff */\n      0xffffffffffffffffffffffffffffffffffffffffffffffffffffffffffffffff\n        /* \"W1/heap.sol\":282:503  Order(address(0), 0xffffffffffffffffffffffffffffffffffffffffffffffffffffffffffffffff, 0xffffffffffffffffffffffffffffffffffffffffffffffffffffffffffffffff, 0xffffffffffffffffffffffffffffffffffffffffffffffffffffffffffffffff) */\n      dup2\n      mstore\n      0x20\n      add\n        /* \"W1/heap.sol\":368:434  0xffffffffffffffffffffffffffffffffffffffffffffffffffffffffffffffff */\n      0xffffffffffffffffffffffffffffffffffffffffffffffffffffffffffffffff\n        /* \"W1/heap.sol\":282:503  Order(address(0), 0xffffffffffffffffffffffffffffffffffffffffffffffffffffffffffffffff, 0xffffffffffffffffffffffffffffffffffffffffffffffffffffffffffffffff, 0xffffffffffffffffffffffffffffffffffffffffffffffffffffffffffffffff) */\n      dup2\n      mstore\n      0x20\n      add\n        /* \"W1/heap.sol\":436:502  0xffffffffffffffffffffffffffffffffffffffffffffffffffffffffffffffff */\n      0xffffffffffffffffffffffffffffffffffffffffffffffffffffffffffffffff\n        /* \"W1/heap.sol\":282:503  Order(address(0), 0xffffffffffffffffffffffffffffffffffffffffffffffffffffffffffffffff, 0xffffffffffffffffffffffffffffffffffffffffffffffffffffffffffffffff, 0xffffffffffffffffffffffffffffffffffffffffffffffffffffffffffffffff) */\n      dup2\n      mstore\n      pop\n        /* \"W1/heap.sol\":272:504  heap.push(Order(address(0), 0xffffffffffffffffffffffffffffffffffffffffffffffffffffffffffffffff, 0xffffffffffffffffffffffffffffffffffffffffffffffffffffffffffffffff, 0xffffffffffffffffffffffffffffffffffffffffffffffffffffffffffffffff)) */\n      swap1\n      dup1\n      0x01\n      dup2\n      sload\n      add\n      dup1\n      dup3\n      sstore\n      dup1\n      swap2\n      pop\n      pop\n      0x01\n      swap1\n      sub\n      swap1\n      0x00\n      mstore\n      keccak256(0x00, 0x20)\n      swap1\n      0x04\n      mul\n      add\n      0x00\n      swap1\n      swap2\n      swap1\n      swap2\n      swap1\n      swap2\n      pop\n      0x00\n      dup3\n      add\n      mload\n      dup2\n      0x00\n      add\n      exp(0x0100, 0x00)\n      dup2\n      sload\n      dup2\n      0xffffffffffffffffffffffffffffffffffffffff\n      mul\n      not\n      and\n      swap1\n      dup4\n      0xffffffffffffffffffffffffffffffffffffffff\n      and\n      mul\n      or\n      swap1\n      sstore\n      pop\n      0x20\n      dup3\n      add\n      mload\n      dup2\n      0x01\n      add\n      sstore\n      0x40\n      dup3\n      add\n      mload\n      dup2\n      0x02\n      add\n      sstore\n      0x60\n      dup3\n      add\n      mload\n      dup2\n      0x03\n      add\n      sstore\n      pop\n      pop\n        /* \"W1/heap.sol\":63:2806  contract MinHeap {... */\n      dataSize(sub_0)\n      dup1\n      dataOffset(sub_0)\n      0x00\n      codecopy\n      0x00\n      return\n    stop\n\n    sub_0: assembly {\n            /* \"W1/heap.sol\":63:2806  contract MinHeap {... */\n          mstore(0x40, 0x80)\n          callvalue\n          dup1\n          iszero\n          tag_1\n          jumpi\n          0x00\n          dup1\n          revert\n        tag_1:\n          pop\n          jumpi(tag_2, lt(calldatasize, 0x04))\n          shr(0xe0, calldataload(0x00))\n          dup1\n          0x7829c469\n          eq\n          tag_3\n          jumpi\n          dup1\n          0xa4ece52c\n          eq\n          tag_4\n          jumpi\n          dup1\n          0xfe6dcdba\n          eq\n          tag_5\n          jumpi\n        tag_2:\n          0x00\n          dup1\n          revert\n            /* \"W1/heap.sol\":524:854  function push (Order memory o) public {... */\n        tag_3:\n          tag_6\n          0x04\n          dup1\n          calldatasize\n          sub\n          dup2\n          add\n          swap1\n          tag_7\n          swap2\n          swap1\n          tag_8\n          jump\t// in\n        tag_7:\n          tag_9\n          jump\t// in\n        tag_6:\n          stop\n            /* \"W1/heap.sol\":862:1068  function pop() public {... */\n        tag_4:\n          tag_10\n          tag_11\n          jump\t// in\n        tag_10:\n          stop\n            /* \"W1/heap.sol\":1074:1209  function top() public view returns (Order memory) {... */\n        tag_5:\n          tag_12\n          tag_13\n          jump\t// in\n        tag_12:\n          mload(0x40)\n          tag_14\n          swap2\n          swap1\n          tag_15\n          jump\t// in\n        tag_14:\n          mload(0x40)\n          dup1\n          swap2\n          sub\n          swap1\n          return\n            /* \"W1/heap.sol\":524:854  function push (Order memory o) public {... */\n        tag_9:\n            /* \"W1/heap.sol\":573:577  heap */\n          0x00\n            /* \"W1/heap.sol\":583:584  o */\n          dup2\n            /* \"W1/heap.sol\":573:585  heap.push(o) */\n          swap1\n          dup1\n          0x01\n          dup2\n          sload\n          add\n          dup1\n          dup3\n          sstore\n          dup1\n          swap2\n          pop\n          pop\n          0x01\n          swap1\n          sub\n          swap1\n          0x00\n          mstore\n          keccak256(0x00, 0x20)\n          swap1\n          0x04\n          mul\n          add\n          0x00\n          swap1\n          swap2\n          swap1\n          swap2\n          swap1\n          swap2\n          pop\n          0x00\n          dup3\n          add\n          mload\n          dup2\n          0x00\n          add\n          exp(0x0100, 0x00)\n          dup2\n          sload\n          dup2\n          0xffffffffffffffffffffffffffffffffffffffff\n          mul\n          not\n          and\n          swap1\n          dup4\n          0xffffffffffffffffffffffffffffffffffffffff\n          and\n          mul\n          or\n          swap1\n          sstore\n          pop\n          0x20\n          dup3\n          add\n          mload\n          dup2\n          0x01\n          add\n          sstore\n          0x40\n          dup3\n          add\n          mload\n          dup2\n          0x02\n          add\n          sstore\n          0x60\n          dup3\n          add\n          mload\n          dup2\n          0x03\n          add\n          sstore\n          pop\n          pop\n            /* \"W1/heap.sol\":596:605  uint256 i */\n          0x00\n            /* \"W1/heap.sol\":622:623  1 */\n          0x01\n            /* \"W1/heap.sol\":608:612  heap */\n          0x00\n            /* \"W1/heap.sol\":608:619  heap.length */\n          dup1\n          sload\n          swap1\n          pop\n            /* \"W1/heap.sol\":608:623  heap.length - 1 */\n          tag_18\n          swap2\n          swap1\n          tag_19\n          jump\t// in\n        tag_18:\n            /* \"W1/heap.sol\":596:623  uint256 i = heap.length - 1 */\n          swap1\n          pop\n            /* \"W1/heap.sol\":634:847  while (i > 0) {... */\n        tag_20:\n            /* \"W1/heap.sol\":645:646  0 */\n          0x00\n            /* \"W1/heap.sol\":641:642  i */\n          dup2\n            /* \"W1/heap.sol\":641:646  i > 0 */\n          gt\n            /* \"W1/heap.sol\":634:847  while (i > 0) {... */\n          iszero\n          tag_21\n          jumpi\n            /* \"W1/heap.sol\":663:672  uint256 p */\n          0x00\n            /* \"W1/heap.sol\":685:686  2 */\n          0x02\n            /* \"W1/heap.sol\":680:681  1 */\n          0x01\n            /* \"W1/heap.sol\":676:677  i */\n          dup4\n            /* \"W1/heap.sol\":676:681  i - 1 */\n          tag_22\n          swap2\n          swap1\n          tag_19\n          jump\t// in\n        tag_22:\n            /* \"W1/heap.sol\":675:686  (i - 1) / 2 */\n          tag_23\n          swap2\n          swap1\n          tag_24\n          jump\t// in\n        tag_23:\n            /* \"W1/heap.sol\":663:686  uint256 p = (i - 1) / 2 */\n          swap1\n          pop\n            /* \"W1/heap.sol\":705:718  _conpare(i,p) */\n          tag_25\n            /* \"W1/heap.sol\":714:715  i */\n          dup3\n            /* \"W1/heap.sol\":716:717  p */\n          dup3\n            /* \"W1/heap.sol\":705:713  _conpare */\n          tag_26\n            /* \"W1/heap.sol\":705:718  _conpare(i,p) */\n          jump\t// in\n        tag_25:\n            /* \"W1/heap.sol\":701:836  if (_conpare(i,p)) {... */\n          iszero\n          tag_27\n          jumpi\n            /* \"W1/heap.sol\":739:750  _swap(p, i) */\n          tag_28\n            /* \"W1/heap.sol\":745:746  p */\n          dup2\n            /* \"W1/heap.sol\":748:749  i */\n          dup4\n            /* \"W1/heap.sol\":739:744  _swap */\n          tag_29\n            /* \"W1/heap.sol\":739:750  _swap(p, i) */\n          jump\t// in\n        tag_28:\n            /* \"W1/heap.sol\":773:774  p */\n          dup1\n            /* \"W1/heap.sol\":769:774  i = p */\n          swap2\n          pop\n            /* \"W1/heap.sol\":701:836  if (_conpare(i,p)) {... */\n          jump(tag_30)\n        tag_27:\n            /* \"W1/heap.sol\":815:820  break */\n          pop\n          jump(tag_21)\n            /* \"W1/heap.sol\":701:836  if (_conpare(i,p)) {... */\n        tag_30:\n            /* \"W1/heap.sol\":648:847  {... */\n          pop\n            /* \"W1/heap.sol\":634:847  while (i > 0) {... */\n          jump(tag_20)\n        tag_21:\n            /* \"W1/heap.sol\":562:854  {... */\n          pop\n            /* \"W1/heap.sol\":524:854  function push (Order memory o) public {... */\n          pop\n          jump\t// out\n            /* \"W1/heap.sol\":862:1068  function pop() public {... */\n        tag_11:\n            /* \"W1/heap.sol\":917:918  0 */\n          0x00\n            /* \"W1/heap.sol\":903:907  heap */\n          dup1\n            /* \"W1/heap.sol\":903:914  heap.length */\n          dup1\n          sload\n          swap1\n          pop\n            /* \"W1/heap.sol\":903:918  heap.length > 0 */\n          gt\n            /* \"W1/heap.sol\":895:936  require(heap.length > 0, \"heap is empty\") */\n          tag_32\n          jumpi\n          mload(0x40)\n          0x08c379a000000000000000000000000000000000000000000000000000000000\n          dup2\n          mstore\n          0x04\n          add\n          tag_33\n          swap1\n          tag_34\n          jump\t// in\n        tag_33:\n          mload(0x40)\n          dup1\n          swap2\n          sub\n          swap1\n          revert\n        tag_32:\n            /* \"W1/heap.sol\":957:961  heap */\n          0x00\n            /* \"W1/heap.sol\":976:977  1 */\n          0x01\n            /* \"W1/heap.sol\":962:966  heap */\n          0x00\n            /* \"W1/heap.sol\":962:973  heap.length */\n          dup1\n          sload\n          swap1\n          pop\n            /* \"W1/heap.sol\":962:977  heap.length - 1 */\n          tag_35\n          swap2\n          swap1\n          tag_19\n          jump\t// in\n        tag_35:\n            /* \"W1/heap.sol\":957:978  heap[heap.length - 1] */\n          dup2\n          sload\n          dup2\n          lt\n          tag_36\n          jumpi\n          tag_37\n          tag_38\n          jump\t// in\n        tag_37:\n        tag_36:\n          swap1\n          0x00\n          mstore\n          keccak256(0x00, 0x20)\n          swap1\n          0x04\n          mul\n          add\n            /* \"W1/heap.sol\":947:951  heap */\n          0x00\n            /* \"W1/heap.sol\":952:953  0 */\n          dup1\n            /* \"W1/heap.sol\":947:954  heap[0] */\n          dup2\n          sload\n          dup2\n          lt\n          tag_40\n          jumpi\n          tag_41\n          tag_38\n          jump\t// in\n        tag_41:\n        tag_40:\n          swap1\n          0x00\n          mstore\n          keccak256(0x00, 0x20)\n          swap1\n          0x04\n          mul\n          add\n            /* \"W1/heap.sol\":947:978  heap[0] = heap[heap.length - 1] */\n          0x00\n          dup3\n          add\n          0x00\n          swap1\n          sload\n          swap1\n          0x0100\n          exp\n          swap1\n          div\n          0xffffffffffffffffffffffffffffffffffffffff\n          and\n          dup2\n          0x00\n          add\n          exp(0x0100, 0x00)\n          dup2\n          sload\n          dup2\n          0xffffffffffffffffffffffffffffffffffffffff\n          mul\n          not\n          and\n          swap1\n          dup4\n          0xffffffffffffffffffffffffffffffffffffffff\n          and\n          mul\n          or\n          swap1\n          sstore\n          pop\n          0x01\n          dup3\n          add\n          sload\n          dup2\n          0x01\n          add\n          sstore\n          0x02\n          dup3\n          add\n          sload\n          dup2\n          0x02\n          add\n          sstore\n          0x03\n          dup3\n          add\n          sload\n          dup2\n          0x03\n          add\n          sstore\n          swap1\n          pop\n          pop\n            /* \"W1/heap.sol\":996:1000  heap */\n          0x00\n            /* \"W1/heap.sol\":1015:1016  1 */\n          0x01\n            /* \"W1/heap.sol\":1001:1005  heap */\n          0x00\n            /* \"W1/heap.sol\":1001:1012  heap.length */\n          dup1\n          sload\n          swap1\n          pop\n            /* \"W1/heap.sol\":1001:1016  heap.length - 1 */\n          tag_43\n          swap2\n          swap1\n          tag_19\n          jump\t// in\n        tag_43:\n            /* \"W1/heap.sol\":996:1017  heap[heap.length - 1] */\n          dup2\n          sload\n          dup2\n          lt\n          tag_44\n          jumpi\n          tag_45\n          tag_38\n          jump\t// in\n        tag_45:\n        tag_44:\n          swap1\n          0x00\n          mstore\n          keccak256(0x00, 0x20)\n          swap1\n          0x04\n          mul\n          add\n          0x00\n            /* \"W1/heap.sol\":989:1017  delete heap[heap.length - 1] */\n          dup1\n          dup3\n          add\n          exp(0x0100, 0x00)\n          dup2\n          sload\n          swap1\n          0xffffffffffffffffffffffffffffffffffffffff\n          mul\n          not\n          and\n          swap1\n          sstore\n          0x01\n          dup3\n          add\n          0x00\n          swap1\n          sstore\n          0x02\n          dup3\n          add\n          0x00\n          swap1\n          sstore\n          0x03\n          dup3\n          add\n          0x00\n          swap1\n          sstore\n          pop\n          pop\n            /* \"W1/heap.sol\":1028:1032  heap */\n          0x00\n            /* \"W1/heap.sol\":1028:1038  heap.pop() */\n          dup1\n          sload\n          dup1\n          tag_47\n          jumpi\n          tag_48\n          tag_49\n          jump\t// in\n        tag_48:\n        tag_47:\n          0x01\n          swap1\n          sub\n          dup2\n          dup2\n          swap1\n          0x00\n          mstore\n          keccak256(0x00, 0x20)\n          swap1\n          0x04\n          mul\n          add\n          0x00\n          dup1\n          dup3\n          add\n          exp(0x0100, 0x00)\n          dup2\n          sload\n          swap1\n          0xffffffffffffffffffffffffffffffffffffffff\n          mul\n          not\n          and\n          swap1\n          sstore\n          0x01\n          dup3\n          add\n          0x00\n          swap1\n          sstore\n          0x02\n          dup3\n          add\n          0x00\n          swap1\n          sstore\n          0x03\n          dup3\n          add\n          0x00\n          swap1\n          sstore\n          pop\n          pop\n          swap1\n          sstore\n            /* \"W1/heap.sol\":1049:1060  _heapify(0) */\n          tag_51\n            /* \"W1/heap.sol\":1058:1059  0 */\n          0x00\n            /* \"W1/heap.sol\":1049:1057  _heapify */\n          tag_52\n            /* \"W1/heap.sol\":1049:1060  _heapify(0) */\n          jump\t// in\n        tag_51:\n            /* \"W1/heap.sol\":862:1068  function pop() public {... */\n          jump\t// out\n            /* \"W1/heap.sol\":1074:1209  function top() public view returns (Order memory) {... */\n        tag_13:\n            /* \"W1/heap.sol\":1110:1122  Order memory */\n          tag_53\n          tag_54\n          jump\t// in\n        tag_53:\n            /* \"W1/heap.sol\":1157:1158  0 */\n          0x00\n            /* \"W1/heap.sol\":1143:1147  heap */\n          dup1\n            /* \"W1/heap.sol\":1143:1154  heap.length */\n          dup1\n          sload\n          swap1\n          pop\n            /* \"W1/heap.sol\":1143:1158  heap.length > 0 */\n          gt\n            /* \"W1/heap.sol\":1135:1176  require(heap.length > 0, \"heap is empty\") */\n          tag_56\n          jumpi\n          mload(0x40)\n          0x08c379a000000000000000000000000000000000000000000000000000000000\n          dup2\n          mstore\n          0x04\n          add\n          tag_57\n          swap1\n          tag_34\n          jump\t// in\n        tag_57:\n          mload(0x40)\n          dup1\n          swap2\n          sub\n          swap1\n          revert\n        tag_56:\n            /* \"W1/heap.sol\":1194:1198  heap */\n          0x00\n            /* \"W1/heap.sol\":1199:1200  0 */\n          dup1\n            /* \"W1/heap.sol\":1194:1201  heap[0] */\n          dup2\n          sload\n          dup2\n          lt\n          tag_58\n          jumpi\n          tag_59\n          tag_38\n          jump\t// in\n        tag_59:\n        tag_58:\n          swap1\n          0x00\n          mstore\n          keccak256(0x00, 0x20)\n          swap1\n          0x04\n          mul\n          add\n            /* \"W1/heap.sol\":1187:1201  return heap[0] */\n          mload(0x40)\n          dup1\n          0x80\n          add\n          0x40\n          mstore\n          swap1\n          dup2\n          0x00\n          dup3\n          add\n          0x00\n          swap1\n          sload\n          swap1\n          0x0100\n          exp\n          swap1\n          div\n          0xffffffffffffffffffffffffffffffffffffffff\n          and\n          0xffffffffffffffffffffffffffffffffffffffff\n          and\n          0xffffffffffffffffffffffffffffffffffffffff\n          and\n          dup2\n          mstore\n          0x20\n          add\n          0x01\n          dup3\n          add\n          sload\n          dup2\n          mstore\n          0x20\n          add\n          0x02\n          dup3\n          add\n          sload\n          dup2\n          mstore\n          0x20\n          add\n          0x03\n          dup3\n          add\n          sload\n          dup2\n          mstore\n          pop\n          pop\n          swap1\n          pop\n            /* \"W1/heap.sol\":1074:1209  function top() public view returns (Order memory) {... */\n          swap1\n          jump\t// out\n            /* \"W1/heap.sol\":2138:2652  function _conpare(uint256 i,uint256 j) private view returns (bool) {... */\n        tag_26:\n            /* \"W1/heap.sol\":2199:2203  bool */\n          0x00\n            /* \"W1/heap.sol\":2246:2250  heap */\n          dup1\n            /* \"W1/heap.sol\":2251:2252  j */\n          dup3\n            /* \"W1/heap.sol\":2246:2253  heap[j] */\n          dup2\n          sload\n          dup2\n          lt\n          tag_62\n          jumpi\n          tag_63\n          tag_38\n          jump\t// in\n        tag_63:\n        tag_62:\n          swap1\n          0x00\n          mstore\n          keccak256(0x00, 0x20)\n          swap1\n          0x04\n          mul\n          add\n            /* \"W1/heap.sol\":2246:2259  heap[j].price */\n          0x02\n          add\n          sload\n            /* \"W1/heap.sol\":2229:2233  heap */\n          0x00\n            /* \"W1/heap.sol\":2234:2235  i */\n          dup5\n            /* \"W1/heap.sol\":2229:2236  heap[i] */\n          dup2\n          sload\n          dup2\n          lt\n          tag_65\n          jumpi\n          tag_66\n          tag_38\n          jump\t// in\n        tag_66:\n        tag_65:\n          swap1\n          0x00\n          mstore\n          keccak256(0x00, 0x20)\n          swap1\n          0x04\n          mul\n          add\n            /* \"W1/heap.sol\":2229:2242  heap[i].price */\n          0x02\n          add\n          sload\n            /* \"W1/heap.sol\":2229:2259  heap[i].price == heap[j].price */\n          sub\n            /* \"W1/heap.sol\":2226:2598  if(heap[i].price == heap[j].price) {... */\n          tag_68\n          jumpi\n            /* \"W1/heap.sol\":2300:2304  heap */\n          0x00\n            /* \"W1/heap.sol\":2305:2306  j */\n          dup3\n            /* \"W1/heap.sol\":2300:2307  heap[j] */\n          dup2\n          sload\n          dup2\n          lt\n          tag_69\n          jumpi\n          tag_70\n          tag_38\n          jump\t// in\n        tag_70:\n        tag_69:\n          swap1\n          0x00\n          mstore\n          keccak256(0x00, 0x20)\n          swap1\n          0x04\n          mul\n          add\n            /* \"W1/heap.sol\":2300:2317  heap[j].timestamp */\n          0x03\n          add\n          sload\n            /* \"W1/heap.sol\":2279:2283  heap */\n          0x00\n            /* \"W1/heap.sol\":2284:2285  i */\n          dup5\n            /* \"W1/heap.sol\":2279:2286  heap[i] */\n          dup2\n          sload\n          dup2\n          lt\n          tag_72\n          jumpi\n          tag_73\n          tag_38\n          jump\t// in\n        tag_73:\n        tag_72:\n          swap1\n          0x00\n          mstore\n          keccak256(0x00, 0x20)\n          swap1\n          0x04\n          mul\n          add\n            /* \"W1/heap.sol\":2279:2296  heap[i].timestamp */\n          0x03\n          add\n          sload\n            /* \"W1/heap.sol\":2279:2317  heap[i].timestamp == heap[j].timestamp */\n          sub\n            /* \"W1/heap.sol\":2276:2528  if(heap[i].timestamp == heap[j].timestamp) {... */\n          tag_75\n          jumpi\n            /* \"W1/heap.sol\":2359:2363  heap */\n          0x00\n            /* \"W1/heap.sol\":2364:2365  j */\n          dup3\n            /* \"W1/heap.sol\":2359:2366  heap[j] */\n          dup2\n          sload\n          dup2\n          lt\n          tag_76\n          jumpi\n          tag_77\n          tag_38\n          jump\t// in\n        tag_77:\n        tag_76:\n          swap1\n          0x00\n          mstore\n          keccak256(0x00, 0x20)\n          swap1\n          0x04\n          mul\n          add\n            /* \"W1/heap.sol\":2359:2373  heap[j].amount */\n          0x01\n          add\n          sload\n            /* \"W1/heap.sol\":2341:2345  heap */\n          0x00\n            /* \"W1/heap.sol\":2346:2347  i */\n          dup5\n            /* \"W1/heap.sol\":2341:2348  heap[i] */\n          dup2\n          sload\n          dup2\n          lt\n          tag_79\n          jumpi\n          tag_80\n          tag_38\n          jump\t// in\n        tag_80:\n        tag_79:\n          swap1\n          0x00\n          mstore\n          keccak256(0x00, 0x20)\n          swap1\n          0x04\n          mul\n          add\n            /* \"W1/heap.sol\":2341:2355  heap[i].amount */\n          0x01\n          add\n          sload\n            /* \"W1/heap.sol\":2341:2373  heap[i].amount == heap[j].amount */\n          sub\n            /* \"W1/heap.sol\":2338:2456  if(heap[i].amount == heap[j].amount) {... */\n          tag_82\n          jumpi\n            /* \"W1/heap.sol\":2422:2426  heap */\n          0x00\n            /* \"W1/heap.sol\":2427:2428  j */\n          dup3\n            /* \"W1/heap.sol\":2422:2429  heap[j] */\n          dup2\n          sload\n          dup2\n          lt\n          tag_83\n          jumpi\n          tag_84\n          tag_38\n          jump\t// in\n        tag_84:\n        tag_83:\n          swap1\n          0x00\n          mstore\n          keccak256(0x00, 0x20)\n          swap1\n          0x04\n          mul\n          add\n            /* \"W1/heap.sol\":2422:2436  heap[j].trader */\n          0x00\n          add\n          0x00\n          swap1\n          sload\n          swap1\n          0x0100\n          exp\n          swap1\n          div\n          0xffffffffffffffffffffffffffffffffffffffff\n          and\n            /* \"W1/heap.sol\":2405:2436  heap[i].trader < heap[j].trader */\n          0xffffffffffffffffffffffffffffffffffffffff\n          and\n            /* \"W1/heap.sol\":2405:2409  heap */\n          0x00\n            /* \"W1/heap.sol\":2410:2411  i */\n          dup5\n            /* \"W1/heap.sol\":2405:2412  heap[i] */\n          dup2\n          sload\n          dup2\n          lt\n          tag_86\n          jumpi\n          tag_87\n          tag_38\n          jump\t// in\n        tag_87:\n        tag_86:\n          swap1\n          0x00\n          mstore\n          keccak256(0x00, 0x20)\n          swap1\n          0x04\n          mul\n          add\n            /* \"W1/heap.sol\":2405:2419  heap[i].trader */\n          0x00\n          add\n          0x00\n          swap1\n          sload\n          swap1\n          0x0100\n          exp\n          swap1\n          div\n          0xffffffffffffffffffffffffffffffffffffffff\n          and\n            /* \"W1/heap.sol\":2405:2436  heap[i].trader < heap[j].trader */\n          0xffffffffffffffffffffffffffffffffffffffff\n          and\n          lt\n            /* \"W1/heap.sol\":2398:2436  return heap[i].trader < heap[j].trader */\n          swap1\n          pop\n          jump(tag_61)\n            /* \"W1/heap.sol\":2338:2456  if(heap[i].amount == heap[j].amount) {... */\n        tag_82:\n            /* \"W1/heap.sol\":2498:2502  heap */\n          0x00\n            /* \"W1/heap.sol\":2503:2504  j */\n          dup3\n            /* \"W1/heap.sol\":2498:2505  heap[j] */\n          dup2\n          sload\n          dup2\n          lt\n          tag_89\n          jumpi\n          tag_90\n          tag_38\n          jump\t// in\n        tag_90:\n        tag_89:\n          swap1\n          0x00\n          mstore\n          keccak256(0x00, 0x20)\n          swap1\n          0x04\n          mul\n          add\n            /* \"W1/heap.sol\":2498:2512  heap[j].amount */\n          0x01\n          add\n          sload\n            /* \"W1/heap.sol\":2481:2485  heap */\n          0x00\n            /* \"W1/heap.sol\":2486:2487  i */\n          dup5\n            /* \"W1/heap.sol\":2481:2488  heap[i] */\n          dup2\n          sload\n          dup2\n          lt\n          tag_92\n          jumpi\n          tag_93\n          tag_38\n          jump\t// in\n        tag_93:\n        tag_92:\n          swap1\n          0x00\n          mstore\n          keccak256(0x00, 0x20)\n          swap1\n          0x04\n          mul\n          add\n            /* \"W1/heap.sol\":2481:2495  heap[i].amount */\n          0x01\n          add\n          sload\n            /* \"W1/heap.sol\":2481:2512  heap[i].amount < heap[j].amount */\n          lt\n            /* \"W1/heap.sol\":2474:2512  return heap[i].amount < heap[j].amount */\n          swap1\n          pop\n          jump(tag_61)\n            /* \"W1/heap.sol\":2276:2528  if(heap[i].timestamp == heap[j].timestamp) {... */\n        tag_75:\n            /* \"W1/heap.sol\":2569:2573  heap */\n          0x00\n            /* \"W1/heap.sol\":2574:2575  j */\n          dup3\n            /* \"W1/heap.sol\":2569:2576  heap[j] */\n          dup2\n          sload\n          dup2\n          lt\n          tag_95\n          jumpi\n          tag_96\n          tag_38\n          jump\t// in\n        tag_96:\n        tag_95:\n          swap1\n          0x00\n          mstore\n          keccak256(0x00, 0x20)\n          swap1\n          0x04\n          mul\n          add\n            /* \"W1/heap.sol\":2569:2586  heap[j].timestamp */\n          0x03\n          add\n          sload\n            /* \"W1/heap.sol\":2549:2553  heap */\n          0x00\n            /* \"W1/heap.sol\":2554:2555  i */\n          dup5\n            /* \"W1/heap.sol\":2549:2556  heap[i] */\n          dup2\n          sload\n          dup2\n          lt\n          tag_98\n          jumpi\n          tag_99\n          tag_38\n          jump\t// in\n        tag_99:\n        tag_98:\n          swap1\n          0x00\n          mstore\n          keccak256(0x00, 0x20)\n          swap1\n          0x04\n          mul\n          add\n            /* \"W1/heap.sol\":2549:2566  heap[i].timestamp */\n          0x03\n          add\n          sload\n            /* \"W1/heap.sol\":2549:2586  heap[i].timestamp < heap[j].timestamp */\n          lt\n            /* \"W1/heap.sol\":2542:2586  return heap[i].timestamp < heap[j].timestamp */\n          swap1\n          pop\n          jump(tag_61)\n            /* \"W1/heap.sol\":2226:2598  if(heap[i].price == heap[j].price) {... */\n        tag_68:\n            /* \"W1/heap.sol\":2631:2635  heap */\n          0x00\n            /* \"W1/heap.sol\":2636:2637  j */\n          dup3\n            /* \"W1/heap.sol\":2631:2638  heap[j] */\n          dup2\n          sload\n          dup2\n          lt\n          tag_101\n          jumpi\n          tag_102\n          tag_38\n          jump\t// in\n        tag_102:\n        tag_101:\n          swap1\n          0x00\n          mstore\n          keccak256(0x00, 0x20)\n          swap1\n          0x04\n          mul\n          add\n            /* \"W1/heap.sol\":2631:2644  heap[j].price */\n          0x02\n          add\n          sload\n            /* \"W1/heap.sol\":2615:2619  heap */\n          0x00\n            /* \"W1/heap.sol\":2620:2621  i */\n          dup5\n            /* \"W1/heap.sol\":2615:2622  heap[i] */\n          dup2\n          sload\n          dup2\n          lt\n          tag_104\n          jumpi\n          tag_105\n          tag_38\n          jump\t// in\n        tag_105:\n        tag_104:\n          swap1\n          0x00\n          mstore\n          keccak256(0x00, 0x20)\n          swap1\n          0x04\n          mul\n          add\n            /* \"W1/heap.sol\":2615:2628  heap[i].price */\n          0x02\n          add\n          sload\n            /* \"W1/heap.sol\":2615:2644  heap[i].price < heap[j].price */\n          lt\n            /* \"W1/heap.sol\":2608:2644  return heap[i].price < heap[j].price */\n          swap1\n          pop\n            /* \"W1/heap.sol\":2138:2652  function _conpare(uint256 i,uint256 j) private view returns (bool) {... */\n        tag_61:\n          swap3\n          swap2\n          pop\n          pop\n          jump\t// out\n            /* \"W1/heap.sol\":2660:2803  function _swap(uint256 a, uint256 b) private  {... */\n        tag_29:\n            /* \"W1/heap.sol\":2717:2733  Order memory tmp */\n          0x00\n            /* \"W1/heap.sol\":2736:2740  heap */\n          dup1\n            /* \"W1/heap.sol\":2741:2742  a */\n          dup4\n            /* \"W1/heap.sol\":2736:2743  heap[a] */\n          dup2\n          sload\n          dup2\n          lt\n          tag_108\n          jumpi\n          tag_109\n          tag_38\n          jump\t// in\n        tag_109:\n        tag_108:\n          swap1\n          0x00\n          mstore\n          keccak256(0x00, 0x20)\n          swap1\n          0x04\n          mul\n          add\n            /* \"W1/heap.sol\":2717:2743  Order memory tmp = heap[a] */\n          mload(0x40)\n          dup1\n          0x80\n          add\n          0x40\n          mstore\n          swap1\n          dup2\n          0x00\n          dup3\n          add\n          0x00\n          swap1\n          sload\n          swap1\n          0x0100\n          exp\n          swap1\n          div\n          0xffffffffffffffffffffffffffffffffffffffff\n          and\n          0xffffffffffffffffffffffffffffffffffffffff\n          and\n          0xffffffffffffffffffffffffffffffffffffffff\n          and\n          dup2\n          mstore\n          0x20\n          add\n          0x01\n          dup3\n          add\n          sload\n          dup2\n          mstore\n          0x20\n          add\n          0x02\n          dup3\n          add\n          sload\n          dup2\n          mstore\n          0x20\n          add\n          0x03\n          dup3\n          add\n          sload\n          dup2\n          mstore\n          pop\n          pop\n          swap1\n          pop\n            /* \"W1/heap.sol\":2764:2768  heap */\n          0x00\n            /* \"W1/heap.sol\":2769:2770  b */\n          dup3\n            /* \"W1/heap.sol\":2764:2771  heap[b] */\n          dup2\n          sload\n          dup2\n          lt\n          tag_111\n          jumpi\n          tag_112\n          tag_38\n          jump\t// in\n        tag_112:\n        tag_111:\n          swap1\n          0x00\n          mstore\n          keccak256(0x00, 0x20)\n          swap1\n          0x04\n          mul\n          add\n            /* \"W1/heap.sol\":2754:2758  heap */\n          0x00\n            /* \"W1/heap.sol\":2759:2760  a */\n          dup5\n            /* \"W1/heap.sol\":2754:2761  heap[a] */\n          dup2\n          sload\n          dup2\n          lt\n          tag_114\n          jumpi\n          tag_115\n          tag_38\n          jump\t// in\n        tag_115:\n        tag_114:\n          swap1\n          0x00\n          mstore\n          keccak256(0x00, 0x20)\n          swap1\n          0x04\n          mul\n          add\n            /* \"W1/heap.sol\":2754:2771  heap[a] = heap[b] */\n          0x00\n          dup3\n          add\n          0x00\n          swap1\n          sload\n          swap1\n          0x0100\n          exp\n          swap1\n          div\n          0xffffffffffffffffffffffffffffffffffffffff\n          and\n          dup2\n          0x00\n          add\n          exp(0x0100, 0x00)\n          dup2\n          sload\n          dup2\n          0xffffffffffffffffffffffffffffffffffffffff\n          mul\n          not\n          and\n          swap1\n          dup4\n          0xffffffffffffffffffffffffffffffffffffffff\n          and\n          mul\n          or\n          swap1\n          sstore\n          pop\n          0x01\n          dup3\n          add\n          sload\n          dup2\n          0x01\n          add\n          sstore\n          0x02\n          dup3\n          add\n          sload\n          dup2\n          0x02\n          add\n          sstore\n          0x03\n          dup3\n          add\n          sload\n          dup2\n          0x03\n          add\n          sstore\n          swap1\n          pop\n          pop\n            /* \"W1/heap.sol\":2792:2795  tmp */\n          dup1\n            /* \"W1/heap.sol\":2782:2786  heap */\n          0x00\n            /* \"W1/heap.sol\":2787:2788  b */\n          dup4\n            /* \"W1/heap.sol\":2782:2789  heap[b] */\n          dup2\n          sload\n          dup2\n          lt\n          tag_117\n          jumpi\n          tag_118\n          tag_38\n          jump\t// in\n        tag_118:\n        tag_117:\n          swap1\n          0x00\n          mstore\n          keccak256(0x00, 0x20)\n          swap1\n          0x04\n          mul\n          add\n            /* \"W1/heap.sol\":2782:2795  heap[b] = tmp */\n          0x00\n          dup3\n          add\n          mload\n          dup2\n          0x00\n          add\n          exp(0x0100, 0x00)\n          dup2\n          sload\n          dup2\n          0xffffffffffffffffffffffffffffffffffffffff\n          mul\n          not\n          and\n          swap1\n          dup4\n          0xffffffffffffffffffffffffffffffffffffffff\n          and\n          mul\n          or\n          swap1\n          sstore\n          pop\n          0x20\n          dup3\n          add\n          mload\n          dup2\n          0x01\n          add\n          sstore\n          0x40\n          dup3\n          add\n          mload\n          dup2\n          0x02\n          add\n          sstore\n          0x60\n          dup3\n          add\n          mload\n          dup2\n          0x03\n          add\n          sstore\n          swap1\n          pop\n          pop\n            /* \"W1/heap.sol\":2706:2803  {... */\n          pop\n            /* \"W1/heap.sol\":2660:2803  function _swap(uint256 a, uint256 b) private  {... */\n          pop\n          pop\n          jump\t// out\n            /* \"W1/heap.sol\":1215:1658  function _heapify(uint256 _i) private {... */\n        tag_52:\n            /* \"W1/heap.sol\":1264:1273  uint256 l */\n          0x00\n            /* \"W1/heap.sol\":1285:1286  1 */\n          0x01\n            /* \"W1/heap.sol\":1280:1282  _i */\n          dup3\n            /* \"W1/heap.sol\":1276:1277  2 */\n          0x02\n            /* \"W1/heap.sol\":1276:1282  2 * _i */\n          tag_121\n          swap2\n          swap1\n          tag_122\n          jump\t// in\n        tag_121:\n            /* \"W1/heap.sol\":1276:1286  2 * _i + 1 */\n          tag_123\n          swap2\n          swap1\n          tag_124\n          jump\t// in\n        tag_123:\n            /* \"W1/heap.sol\":1264:1286  uint256 l = 2 * _i + 1 */\n          swap1\n          pop\n            /* \"W1/heap.sol\":1297:1306  uint256 r */\n          0x00\n            /* \"W1/heap.sol\":1318:1319  2 */\n          0x02\n            /* \"W1/heap.sol\":1313:1315  _i */\n          dup4\n            /* \"W1/heap.sol\":1309:1310  2 */\n          0x02\n            /* \"W1/heap.sol\":1309:1315  2 * _i */\n          tag_125\n          swap2\n          swap1\n          tag_122\n          jump\t// in\n        tag_125:\n            /* \"W1/heap.sol\":1309:1319  2 * _i + 2 */\n          tag_126\n          swap2\n          swap1\n          tag_124\n          jump\t// in\n        tag_126:\n            /* \"W1/heap.sol\":1297:1319  uint256 r = 2 * _i + 2 */\n          swap1\n          pop\n            /* \"W1/heap.sol\":1330:1346  uint256 smallest */\n          0x00\n            /* \"W1/heap.sol\":1349:1351  _i */\n          dup4\n            /* \"W1/heap.sol\":1330:1351  uint256 smallest = _i */\n          swap1\n          pop\n            /* \"W1/heap.sol\":1370:1374  heap */\n          0x00\n            /* \"W1/heap.sol\":1370:1381  heap.length */\n          dup1\n          sload\n          swap1\n          pop\n            /* \"W1/heap.sol\":1366:1367  l */\n          dup4\n            /* \"W1/heap.sol\":1366:1381  l < heap.length */\n          lt\n            /* \"W1/heap.sol\":1366:1406  l < heap.length && _conpare(l ,smallest) */\n          dup1\n          iszero\n          tag_127\n          jumpi\n          pop\n            /* \"W1/heap.sol\":1385:1406  _conpare(l ,smallest) */\n          tag_128\n            /* \"W1/heap.sol\":1394:1395  l */\n          dup4\n            /* \"W1/heap.sol\":1397:1405  smallest */\n          dup3\n            /* \"W1/heap.sol\":1385:1393  _conpare */\n          tag_26\n            /* \"W1/heap.sol\":1385:1406  _conpare(l ,smallest) */\n          jump\t// in\n        tag_128:\n            /* \"W1/heap.sol\":1366:1406  l < heap.length && _conpare(l ,smallest) */\n        tag_127:\n            /* \"W1/heap.sol\":1362:1447  if (l < heap.length && _conpare(l ,smallest)) {... */\n          iszero\n          tag_129\n          jumpi\n            /* \"W1/heap.sol\":1434:1435  l */\n          dup3\n            /* \"W1/heap.sol\":1423:1435  smallest = l */\n          swap1\n          pop\n            /* \"W1/heap.sol\":1362:1447  if (l < heap.length && _conpare(l ,smallest)) {... */\n        tag_129:\n            /* \"W1/heap.sol\":1465:1469  heap */\n          0x00\n            /* \"W1/heap.sol\":1465:1476  heap.length */\n          dup1\n          sload\n          swap1\n          pop\n            /* \"W1/heap.sol\":1461:1462  r */\n          dup3\n            /* \"W1/heap.sol\":1461:1476  r < heap.length */\n          lt\n            /* \"W1/heap.sol\":1461:1501  r < heap.length && _conpare(r ,smallest) */\n          dup1\n          iszero\n          tag_130\n          jumpi\n          pop\n            /* \"W1/heap.sol\":1480:1501  _conpare(r ,smallest) */\n          tag_131\n            /* \"W1/heap.sol\":1489:1490  r */\n          dup3\n            /* \"W1/heap.sol\":1492:1500  smallest */\n          dup3\n            /* \"W1/heap.sol\":1480:1488  _conpare */\n          tag_26\n            /* \"W1/heap.sol\":1480:1501  _conpare(r ,smallest) */\n          jump\t// in\n        tag_131:\n            /* \"W1/heap.sol\":1461:1501  r < heap.length && _conpare(r ,smallest) */\n        tag_130:\n            /* \"W1/heap.sol\":1457:1542  if (r < heap.length && _conpare(r ,smallest)) {... */\n          iszero\n          tag_132\n          jumpi\n            /* \"W1/heap.sol\":1529:1530  r */\n          dup2\n            /* \"W1/heap.sol\":1518:1530  smallest = r */\n          swap1\n          pop\n            /* \"W1/heap.sol\":1457:1542  if (r < heap.length && _conpare(r ,smallest)) {... */\n        tag_132:\n            /* \"W1/heap.sol\":1568:1570  _i */\n          dup4\n            /* \"W1/heap.sol\":1556:1564  smallest */\n          dup2\n            /* \"W1/heap.sol\":1556:1570  smallest != _i */\n          eq\n            /* \"W1/heap.sol\":1552:1651  if (smallest != _i) {... */\n          tag_133\n          jumpi\n            /* \"W1/heap.sol\":1587:1606  _swap(_i, smallest) */\n          tag_134\n            /* \"W1/heap.sol\":1593:1595  _i */\n          dup5\n            /* \"W1/heap.sol\":1597:1605  smallest */\n          dup3\n            /* \"W1/heap.sol\":1587:1592  _swap */\n          tag_29\n            /* \"W1/heap.sol\":1587:1606  _swap(_i, smallest) */\n          jump\t// in\n        tag_134:\n            /* \"W1/heap.sol\":1621:1639  _heapify(smallest) */\n          tag_135\n            /* \"W1/heap.sol\":1630:1638  smallest */\n          dup2\n            /* \"W1/heap.sol\":1621:1629  _heapify */\n          tag_52\n            /* \"W1/heap.sol\":1621:1639  _heapify(smallest) */\n          jump\t// in\n        tag_135:\n            /* \"W1/heap.sol\":1552:1651  if (smallest != _i) {... */\n        tag_133:\n            /* \"W1/heap.sol\":1253:1658  {... */\n          pop\n          pop\n          pop\n            /* \"W1/heap.sol\":1215:1658  function _heapify(uint256 _i) private {... */\n          pop\n          jump\t// out\n        tag_54:\n          mload(0x40)\n          dup1\n          0x80\n          add\n          0x40\n          mstore\n          dup1\n          and(0xffffffffffffffffffffffffffffffffffffffff, 0x00)\n          dup2\n          mstore\n          0x20\n          add\n          0x00\n          dup2\n          mstore\n          0x20\n          add\n          0x00\n          dup2\n          mstore\n          0x20\n          add\n          0x00\n          dup2\n          mstore\n          pop\n          swap1\n          jump\t// out\n            /* \"#utility.yul\":7:82   */\n        tag_136:\n            /* \"#utility.yul\":40:46   */\n          0x00\n            /* \"#utility.yul\":73:75   */\n          0x40\n            /* \"#utility.yul\":67:76   */\n          mload\n            /* \"#utility.yul\":57:76   */\n          swap1\n          pop\n            /* \"#utility.yul\":7:82   */\n          swap1\n          jump\t// out\n            /* \"#utility.yul\":88:205   */\n        tag_137:\n            /* \"#utility.yul\":197:198   */\n          0x00\n            /* \"#utility.yul\":194:195   */\n          dup1\n            /* \"#utility.yul\":187:199   */\n          revert\n            /* \"#utility.yul\":334:451   */\n        tag_139:\n            /* \"#utility.yul\":443:444   */\n          0x00\n            /* \"#utility.yul\":440:441   */\n          dup1\n            /* \"#utility.yul\":433:445   */\n          revert\n            /* \"#utility.yul\":457:559   */\n        tag_140:\n            /* \"#utility.yul\":498:504   */\n          0x00\n            /* \"#utility.yul\":549:551   */\n          0x1f\n            /* \"#utility.yul\":545:552   */\n          not\n            /* \"#utility.yul\":540:542   */\n          0x1f\n            /* \"#utility.yul\":533:538   */\n          dup4\n            /* \"#utility.yul\":529:543   */\n          add\n            /* \"#utility.yul\":525:553   */\n          and\n            /* \"#utility.yul\":515:553   */\n          swap1\n          pop\n            /* \"#utility.yul\":457:559   */\n          swap2\n          swap1\n          pop\n          jump\t// out\n            /* \"#utility.yul\":565:745   */\n        tag_141:\n            /* \"#utility.yul\":613:690   */\n          0x4e487b7100000000000000000000000000000000000000000000000000000000\n            /* \"#utility.yul\":610:611   */\n          0x00\n            /* \"#utility.yul\":603:691   */\n          mstore\n            /* \"#utility.yul\":710:714   */\n          0x41\n            /* \"#utility.yul\":707:708   */\n          0x04\n            /* \"#utility.yul\":700:715   */\n          mstore\n            /* \"#utility.yul\":734:738   */\n          0x24\n            /* \"#utility.yul\":731:732   */\n          0x00\n            /* \"#utility.yul\":724:739   */\n          revert\n            /* \"#utility.yul\":751:1032   */\n        tag_142:\n            /* \"#utility.yul\":834:861   */\n          tag_169\n            /* \"#utility.yul\":856:860   */\n          dup3\n            /* \"#utility.yul\":834:861   */\n          tag_140\n          jump\t// in\n        tag_169:\n            /* \"#utility.yul\":826:832   */\n          dup2\n            /* \"#utility.yul\":822:862   */\n          add\n            /* \"#utility.yul\":964:970   */\n          dup2\n            /* \"#utility.yul\":952:962   */\n          dup2\n            /* \"#utility.yul\":949:971   */\n          lt\n            /* \"#utility.yul\":928:946   */\n          0xffffffffffffffff\n            /* \"#utility.yul\":916:926   */\n          dup3\n            /* \"#utility.yul\":913:947   */\n          gt\n            /* \"#utility.yul\":910:972   */\n          or\n            /* \"#utility.yul\":907:995   */\n          iszero\n          tag_170\n          jumpi\n            /* \"#utility.yul\":975:993   */\n          tag_171\n          tag_141\n          jump\t// in\n        tag_171:\n            /* \"#utility.yul\":907:995   */\n        tag_170:\n            /* \"#utility.yul\":1015:1025   */\n          dup1\n            /* \"#utility.yul\":1011:1013   */\n          0x40\n            /* \"#utility.yul\":1004:1026   */\n          mstore\n            /* \"#utility.yul\":794:1032   */\n          pop\n            /* \"#utility.yul\":751:1032   */\n          pop\n          pop\n          jump\t// out\n            /* \"#utility.yul\":1038:1167   */\n        tag_143:\n            /* \"#utility.yul\":1072:1078   */\n          0x00\n            /* \"#utility.yul\":1099:1119   */\n          tag_173\n          tag_136\n          jump\t// in\n        tag_173:\n            /* \"#utility.yul\":1089:1119   */\n          swap1\n          pop\n            /* \"#utility.yul\":1128:1161   */\n          tag_174\n            /* \"#utility.yul\":1156:1160   */\n          dup3\n            /* \"#utility.yul\":1148:1154   */\n          dup3\n            /* \"#utility.yul\":1128:1161   */\n          tag_142\n          jump\t// in\n        tag_174:\n            /* \"#utility.yul\":1038:1167   */\n          swap2\n          swap1\n          pop\n          jump\t// out\n            /* \"#utility.yul\":1296:1422   */\n        tag_145:\n            /* \"#utility.yul\":1333:1340   */\n          0x00\n            /* \"#utility.yul\":1373:1415   */\n          0xffffffffffffffffffffffffffffffffffffffff\n            /* \"#utility.yul\":1366:1371   */\n          dup3\n            /* \"#utility.yul\":1362:1416   */\n          and\n            /* \"#utility.yul\":1351:1416   */\n          swap1\n          pop\n            /* \"#utility.yul\":1296:1422   */\n          swap2\n          swap1\n          pop\n          jump\t// out\n            /* \"#utility.yul\":1428:1524   */\n        tag_146:\n            /* \"#utility.yul\":1465:1472   */\n          0x00\n            /* \"#utility.yul\":1494:1518   */\n          tag_178\n            /* \"#utility.yul\":1512:1517   */\n          dup3\n            /* \"#utility.yul\":1494:1518   */\n          tag_145\n          jump\t// in\n        tag_178:\n            /* \"#utility.yul\":1483:1518   */\n          swap1\n          pop\n            /* \"#utility.yul\":1428:1524   */\n          swap2\n          swap1\n          pop\n          jump\t// out\n            /* \"#utility.yul\":1530:1652   */\n        tag_147:\n            /* \"#utility.yul\":1603:1627   */\n          tag_180\n            /* \"#utility.yul\":1621:1626   */\n          dup2\n            /* \"#utility.yul\":1603:1627   */\n          tag_146\n          jump\t// in\n        tag_180:\n            /* \"#utility.yul\":1596:1601   */\n          dup2\n            /* \"#utility.yul\":1593:1628   */\n          eq\n            /* \"#utility.yul\":1583:1646   */\n          tag_181\n          jumpi\n            /* \"#utility.yul\":1642:1643   */\n          0x00\n            /* \"#utility.yul\":1639:1640   */\n          dup1\n            /* \"#utility.yul\":1632:1644   */\n          revert\n            /* \"#utility.yul\":1583:1646   */\n        tag_181:\n            /* \"#utility.yul\":1530:1652   */\n          pop\n          jump\t// out\n            /* \"#utility.yul\":1658:1797   */\n        tag_148:\n            /* \"#utility.yul\":1704:1709   */\n          0x00\n            /* \"#utility.yul\":1742:1748   */\n          dup2\n            /* \"#utility.yul\":1729:1749   */\n          calldataload\n            /* \"#utility.yul\":1720:1749   */\n          swap1\n          pop\n            /* \"#utility.yul\":1758:1791   */\n          tag_183\n            /* \"#utility.yul\":1785:1790   */\n          dup2\n            /* \"#utility.yul\":1758:1791   */\n          tag_147\n          jump\t// in\n        tag_183:\n            /* \"#utility.yul\":1658:1797   */\n          swap3\n          swap2\n          pop\n          pop\n          jump\t// out\n            /* \"#utility.yul\":1803:1880   */\n        tag_149:\n            /* \"#utility.yul\":1840:1847   */\n          0x00\n            /* \"#utility.yul\":1869:1874   */\n          dup2\n            /* \"#utility.yul\":1858:1874   */\n          swap1\n          pop\n            /* \"#utility.yul\":1803:1880   */\n          swap2\n          swap1\n          pop\n          jump\t// out\n            /* \"#utility.yul\":1886:2008   */\n        tag_150:\n            /* \"#utility.yul\":1959:1983   */\n          tag_186\n            /* \"#utility.yul\":1977:1982   */\n          dup2\n            /* \"#utility.yul\":1959:1983   */\n          tag_149\n          jump\t// in\n        tag_186:\n            /* \"#utility.yul\":1952:1957   */\n          dup2\n            /* \"#utility.yul\":1949:1984   */\n          eq\n            /* \"#utility.yul\":1939:2002   */\n          tag_187\n          jumpi\n            /* \"#utility.yul\":1998:1999   */\n          0x00\n            /* \"#utility.yul\":1995:1996   */\n          dup1\n            /* \"#utility.yul\":1988:2000   */\n          revert\n            /* \"#utility.yul\":1939:2002   */\n        tag_187:\n            /* \"#utility.yul\":1886:2008   */\n          pop\n          jump\t// out\n            /* \"#utility.yul\":2014:2153   */\n        tag_151:\n            /* \"#utility.yul\":2060:2065   */\n          0x00\n            /* \"#utility.yul\":2098:2104   */\n          dup2\n            /* \"#utility.yul\":2085:2105   */\n          calldataload\n            /* \"#utility.yul\":2076:2105   */\n          swap1\n          pop\n            /* \"#utility.yul\":2114:2147   */\n          tag_189\n            /* \"#utility.yul\":2141:2146   */\n          dup2\n            /* \"#utility.yul\":2114:2147   */\n          tag_150\n          jump\t// in\n        tag_189:\n            /* \"#utility.yul\":2014:2153   */\n          swap3\n          swap2\n          pop\n          pop\n          jump\t// out\n            /* \"#utility.yul\":2187:3089   */\n        tag_152:\n            /* \"#utility.yul\":2257:2262   */\n          0x00\n            /* \"#utility.yul\":2301:2305   */\n          0x80\n            /* \"#utility.yul\":2289:2298   */\n          dup3\n            /* \"#utility.yul\":2284:2287   */\n          dup5\n            /* \"#utility.yul\":2280:2299   */\n          sub\n            /* \"#utility.yul\":2276:2306   */\n          slt\n            /* \"#utility.yul\":2273:2390   */\n          iszero\n          tag_191\n          jumpi\n            /* \"#utility.yul\":2309:2388   */\n          tag_192\n          tag_139\n          jump\t// in\n        tag_192:\n            /* \"#utility.yul\":2273:2390   */\n        tag_191:\n            /* \"#utility.yul\":2408:2429   */\n          tag_193\n            /* \"#utility.yul\":2424:2428   */\n          0x80\n            /* \"#utility.yul\":2408:2429   */\n          tag_143\n          jump\t// in\n        tag_193:\n            /* \"#utility.yul\":2399:2429   */\n          swap1\n          pop\n            /* \"#utility.yul\":2490:2491   */\n          0x00\n            /* \"#utility.yul\":2530:2579   */\n          tag_194\n            /* \"#utility.yul\":2575:2578   */\n          dup5\n            /* \"#utility.yul\":2566:2572   */\n          dup3\n            /* \"#utility.yul\":2555:2564   */\n          dup6\n            /* \"#utility.yul\":2551:2573   */\n          add\n            /* \"#utility.yul\":2530:2579   */\n          tag_148\n          jump\t// in\n        tag_194:\n            /* \"#utility.yul\":2523:2527   */\n          0x00\n            /* \"#utility.yul\":2516:2521   */\n          dup4\n            /* \"#utility.yul\":2512:2528   */\n          add\n            /* \"#utility.yul\":2505:2580   */\n          mstore\n            /* \"#utility.yul\":2439:2591   */\n          pop\n            /* \"#utility.yul\":2652:2654   */\n          0x20\n            /* \"#utility.yul\":2693:2742   */\n          tag_195\n            /* \"#utility.yul\":2738:2741   */\n          dup5\n            /* \"#utility.yul\":2729:2735   */\n          dup3\n            /* \"#utility.yul\":2718:2727   */\n          dup6\n            /* \"#utility.yul\":2714:2736   */\n          add\n            /* \"#utility.yul\":2693:2742   */\n          tag_151\n          jump\t// in\n        tag_195:\n            /* \"#utility.yul\":2686:2690   */\n          0x20\n            /* \"#utility.yul\":2679:2684   */\n          dup4\n            /* \"#utility.yul\":2675:2691   */\n          add\n            /* \"#utility.yul\":2668:2743   */\n          mstore\n            /* \"#utility.yul\":2601:2754   */\n          pop\n            /* \"#utility.yul\":2814:2816   */\n          0x40\n            /* \"#utility.yul\":2855:2904   */\n          tag_196\n            /* \"#utility.yul\":2900:2903   */\n          dup5\n            /* \"#utility.yul\":2891:2897   */\n          dup3\n            /* \"#utility.yul\":2880:2889   */\n          dup6\n            /* \"#utility.yul\":2876:2898   */\n          add\n            /* \"#utility.yul\":2855:2904   */\n          tag_151\n          jump\t// in\n        tag_196:\n            /* \"#utility.yul\":2848:2852   */\n          0x40\n            /* \"#utility.yul\":2841:2846   */\n          dup4\n            /* \"#utility.yul\":2837:2853   */\n          add\n            /* \"#utility.yul\":2830:2905   */\n          mstore\n            /* \"#utility.yul\":2764:2916   */\n          pop\n            /* \"#utility.yul\":2980:2982   */\n          0x60\n            /* \"#utility.yul\":3021:3070   */\n          tag_197\n            /* \"#utility.yul\":3066:3069   */\n          dup5\n            /* \"#utility.yul\":3057:3063   */\n          dup3\n            /* \"#utility.yul\":3046:3055   */\n          dup6\n            /* \"#utility.yul\":3042:3064   */\n          add\n            /* \"#utility.yul\":3021:3070   */\n          tag_151\n          jump\t// in\n        tag_197:\n            /* \"#utility.yul\":3014:3018   */\n          0x60\n            /* \"#utility.yul\":3007:3012   */\n          dup4\n            /* \"#utility.yul\":3003:3019   */\n          add\n            /* \"#utility.yul\":2996:3071   */\n          mstore\n            /* \"#utility.yul\":2926:3082   */\n          pop\n            /* \"#utility.yul\":2187:3089   */\n          swap3\n          swap2\n          pop\n          pop\n          jump\t// out\n            /* \"#utility.yul\":3095:3467   */\n        tag_8:\n            /* \"#utility.yul\":3175:3181   */\n          0x00\n            /* \"#utility.yul\":3224:3227   */\n          0x80\n            /* \"#utility.yul\":3212:3221   */\n          dup3\n            /* \"#utility.yul\":3203:3210   */\n          dup5\n            /* \"#utility.yul\":3199:3222   */\n          sub\n            /* \"#utility.yul\":3195:3228   */\n          slt\n            /* \"#utility.yul\":3192:3312   */\n          iszero\n          tag_199\n          jumpi\n            /* \"#utility.yul\":3231:3310   */\n          tag_200\n          tag_137\n          jump\t// in\n        tag_200:\n            /* \"#utility.yul\":3192:3312   */\n        tag_199:\n            /* \"#utility.yul\":3351:3352   */\n          0x00\n            /* \"#utility.yul\":3376:3450   */\n          tag_201\n            /* \"#utility.yul\":3442:3449   */\n          dup5\n            /* \"#utility.yul\":3433:3439   */\n          dup3\n            /* \"#utility.yul\":3422:3431   */\n          dup6\n            /* \"#utility.yul\":3418:3440   */\n          add\n            /* \"#utility.yul\":3376:3450   */\n          tag_152\n          jump\t// in\n        tag_201:\n            /* \"#utility.yul\":3366:3450   */\n          swap2\n          pop\n            /* \"#utility.yul\":3322:3460   */\n          pop\n            /* \"#utility.yul\":3095:3467   */\n          swap3\n          swap2\n          pop\n          pop\n          jump\t// out\n            /* \"#utility.yul\":3473:3581   */\n        tag_153:\n            /* \"#utility.yul\":3550:3574   */\n          tag_203\n            /* \"#utility.yul\":3568:3573   */\n          dup2\n            /* \"#utility.yul\":3550:3574   */\n          tag_146\n          jump\t// in\n        tag_203:\n            /* \"#utility.yul\":3545:3548   */\n          dup3\n            /* \"#utility.yul\":3538:3575   */\n          mstore\n            /* \"#utility.yul\":3473:3581   */\n          pop\n          pop\n          jump\t// out\n            /* \"#utility.yul\":3587:3695   */\n        tag_154:\n            /* \"#utility.yul\":3664:3688   */\n          tag_205\n            /* \"#utility.yul\":3682:3687   */\n          dup2\n            /* \"#utility.yul\":3664:3688   */\n          tag_149\n          jump\t// in\n        tag_205:\n            /* \"#utility.yul\":3659:3662   */\n          dup3\n            /* \"#utility.yul\":3652:3689   */\n          mstore\n            /* \"#utility.yul\":3587:3695   */\n          pop\n          pop\n          jump\t// out\n            /* \"#utility.yul\":3753:4610   */\n        tag_155:\n            /* \"#utility.yul\":3892:3896   */\n          0x80\n            /* \"#utility.yul\":3887:3890   */\n          dup3\n            /* \"#utility.yul\":3883:3897   */\n          add\n            /* \"#utility.yul\":3981:3985   */\n          0x00\n            /* \"#utility.yul\":3974:3979   */\n          dup3\n            /* \"#utility.yul\":3970:3986   */\n          add\n            /* \"#utility.yul\":3964:3987   */\n          mload\n            /* \"#utility.yul\":4000:4063   */\n          tag_207\n            /* \"#utility.yul\":4057:4061   */\n          0x00\n            /* \"#utility.yul\":4052:4055   */\n          dup6\n            /* \"#utility.yul\":4048:4062   */\n          add\n            /* \"#utility.yul\":4034:4046   */\n          dup3\n            /* \"#utility.yul\":4000:4063   */\n          tag_153\n          jump\t// in\n        tag_207:\n            /* \"#utility.yul\":3907:4073   */\n          pop\n            /* \"#utility.yul\":4157:4161   */\n          0x20\n            /* \"#utility.yul\":4150:4155   */\n          dup3\n            /* \"#utility.yul\":4146:4162   */\n          add\n            /* \"#utility.yul\":4140:4163   */\n          mload\n            /* \"#utility.yul\":4176:4239   */\n          tag_208\n            /* \"#utility.yul\":4233:4237   */\n          0x20\n            /* \"#utility.yul\":4228:4231   */\n          dup6\n            /* \"#utility.yul\":4224:4238   */\n          add\n            /* \"#utility.yul\":4210:4222   */\n          dup3\n            /* \"#utility.yul\":4176:4239   */\n          tag_154\n          jump\t// in\n        tag_208:\n            /* \"#utility.yul\":4083:4249   */\n          pop\n            /* \"#utility.yul\":4332:4336   */\n          0x40\n            /* \"#utility.yul\":4325:4330   */\n          dup3\n            /* \"#utility.yul\":4321:4337   */\n          add\n            /* \"#utility.yul\":4315:4338   */\n          mload\n            /* \"#utility.yul\":4351:4414   */\n          tag_209\n            /* \"#utility.yul\":4408:4412   */\n          0x40\n            /* \"#utility.yul\":4403:4406   */\n          dup6\n            /* \"#utility.yul\":4399:4413   */\n          add\n            /* \"#utility.yul\":4385:4397   */\n          dup3\n            /* \"#utility.yul\":4351:4414   */\n          tag_154\n          jump\t// in\n        tag_209:\n            /* \"#utility.yul\":4259:4424   */\n          pop\n            /* \"#utility.yul\":4511:4515   */\n          0x60\n            /* \"#utility.yul\":4504:4509   */\n          dup3\n            /* \"#utility.yul\":4500:4516   */\n          add\n            /* \"#utility.yul\":4494:4517   */\n          mload\n            /* \"#utility.yul\":4530:4593   */\n          tag_210\n            /* \"#utility.yul\":4587:4591   */\n          0x60\n            /* \"#utility.yul\":4582:4585   */\n          dup6\n            /* \"#utility.yul\":4578:4592   */\n          add\n            /* \"#utility.yul\":4564:4576   */\n          dup3\n            /* \"#utility.yul\":4530:4593   */\n          tag_154\n          jump\t// in\n        tag_210:\n            /* \"#utility.yul\":4434:4603   */\n          pop\n            /* \"#utility.yul\":3861:4610   */\n          pop\n            /* \"#utility.yul\":3753:4610   */\n          pop\n          pop\n          jump\t// out\n            /* \"#utility.yul\":4616:4923   */\n        tag_15:\n            /* \"#utility.yul\":4751:4755   */\n          0x00\n            /* \"#utility.yul\":4789:4792   */\n          0x80\n            /* \"#utility.yul\":4778:4787   */\n          dup3\n            /* \"#utility.yul\":4774:4793   */\n          add\n            /* \"#utility.yul\":4766:4793   */\n          swap1\n          pop\n            /* \"#utility.yul\":4803:4916   */\n          tag_212\n            /* \"#utility.yul\":4913:4914   */\n          0x00\n            /* \"#utility.yul\":4902:4911   */\n          dup4\n            /* \"#utility.yul\":4898:4915   */\n          add\n            /* \"#utility.yul\":4889:4895   */\n          dup5\n            /* \"#utility.yul\":4803:4916   */\n          tag_155\n          jump\t// in\n        tag_212:\n            /* \"#utility.yul\":4616:4923   */\n          swap3\n          swap2\n          pop\n          pop\n          jump\t// out\n            /* \"#utility.yul\":4929:5109   */\n        tag_156:\n            /* \"#utility.yul\":4977:5054   */\n          0x4e487b7100000000000000000000000000000000000000000000000000000000\n            /* \"#utility.yul\":4974:4975   */\n          0x00\n            /* \"#utility.yul\":4967:5055   */\n          mstore\n            /* \"#utility.yul\":5074:5078   */\n          0x11\n            /* \"#utility.yul\":5071:5072   */\n          0x04\n            /* \"#utility.yul\":5064:5079   */\n          mstore\n            /* \"#utility.yul\":5098:5102   */\n          0x24\n            /* \"#utility.yul\":5095:5096   */\n          0x00\n            /* \"#utility.yul\":5088:5103   */\n          revert\n            /* \"#utility.yul\":5115:5309   */\n        tag_19:\n            /* \"#utility.yul\":5155:5159   */\n          0x00\n            /* \"#utility.yul\":5175:5195   */\n          tag_215\n            /* \"#utility.yul\":5193:5194   */\n          dup3\n            /* \"#utility.yul\":5175:5195   */\n          tag_149\n          jump\t// in\n        tag_215:\n            /* \"#utility.yul\":5170:5195   */\n          swap2\n          pop\n            /* \"#utility.yul\":5209:5229   */\n          tag_216\n            /* \"#utility.yul\":5227:5228   */\n          dup4\n            /* \"#utility.yul\":5209:5229   */\n          tag_149\n          jump\t// in\n        tag_216:\n            /* \"#utility.yul\":5204:5229   */\n          swap3\n          pop\n            /* \"#utility.yul\":5253:5254   */\n          dup3\n            /* \"#utility.yul\":5250:5251   */\n          dup3\n            /* \"#utility.yul\":5246:5255   */\n          sub\n            /* \"#utility.yul\":5238:5255   */\n          swap1\n          pop\n            /* \"#utility.yul\":5277:5278   */\n          dup2\n            /* \"#utility.yul\":5271:5275   */\n          dup2\n            /* \"#utility.yul\":5268:5279   */\n          gt\n            /* \"#utility.yul\":5265:5302   */\n          iszero\n          tag_217\n          jumpi\n            /* \"#utility.yul\":5282:5300   */\n          tag_218\n          tag_156\n          jump\t// in\n        tag_218:\n            /* \"#utility.yul\":5265:5302   */\n        tag_217:\n            /* \"#utility.yul\":5115:5309   */\n          swap3\n          swap2\n          pop\n          pop\n          jump\t// out\n            /* \"#utility.yul\":5315:5495   */\n        tag_157:\n            /* \"#utility.yul\":5363:5440   */\n          0x4e487b7100000000000000000000000000000000000000000000000000000000\n            /* \"#utility.yul\":5360:5361   */\n          0x00\n            /* \"#utility.yul\":5353:5441   */\n          mstore\n            /* \"#utility.yul\":5460:5464   */\n          0x12\n            /* \"#utility.yul\":5457:5458   */\n          0x04\n            /* \"#utility.yul\":5450:5465   */\n          mstore\n            /* \"#utility.yul\":5484:5488   */\n          0x24\n            /* \"#utility.yul\":5481:5482   */\n          0x00\n            /* \"#utility.yul\":5474:5489   */\n          revert\n            /* \"#utility.yul\":5501:5686   */\n        tag_24:\n            /* \"#utility.yul\":5541:5542   */\n          0x00\n            /* \"#utility.yul\":5558:5578   */\n          tag_221\n            /* \"#utility.yul\":5576:5577   */\n          dup3\n            /* \"#utility.yul\":5558:5578   */\n          tag_149\n          jump\t// in\n        tag_221:\n            /* \"#utility.yul\":5553:5578   */\n          swap2\n          pop\n            /* \"#utility.yul\":5592:5612   */\n          tag_222\n            /* \"#utility.yul\":5610:5611   */\n          dup4\n            /* \"#utility.yul\":5592:5612   */\n          tag_149\n          jump\t// in\n        tag_222:\n            /* \"#utility.yul\":5587:5612   */\n          swap3\n          pop\n            /* \"#utility.yul\":5631:5632   */\n          dup3\n            /* \"#utility.yul\":5621:5656   */\n          tag_223\n          jumpi\n            /* \"#utility.yul\":5636:5654   */\n          tag_224\n          tag_157\n          jump\t// in\n        tag_224:\n            /* \"#utility.yul\":5621:5656   */\n        tag_223:\n            /* \"#utility.yul\":5678:5679   */\n          dup3\n            /* \"#utility.yul\":5675:5676   */\n          dup3\n            /* \"#utility.yul\":5671:5680   */\n          div\n            /* \"#utility.yul\":5666:5680   */\n          swap1\n          pop\n            /* \"#utility.yul\":5501:5686   */\n          swap3\n          swap2\n          pop\n          pop\n          jump\t// out\n            /* \"#utility.yul\":5692:5861   */\n        tag_158:\n            /* \"#utility.yul\":5776:5787   */\n          0x00\n            /* \"#utility.yul\":5810:5816   */\n          dup3\n            /* \"#utility.yul\":5805:5808   */\n          dup3\n            /* \"#utility.yul\":5798:5817   */\n          mstore\n            /* \"#utility.yul\":5850:5854   */\n          0x20\n            /* \"#utility.yul\":5845:5848   */\n          dup3\n            /* \"#utility.yul\":5841:5855   */\n          add\n            /* \"#utility.yul\":5826:5855   */\n          swap1\n          pop\n            /* \"#utility.yul\":5692:5861   */\n          swap3\n          swap2\n          pop\n          pop\n          jump\t// out\n            /* \"#utility.yul\":5867:6030   */\n        tag_159:\n            /* \"#utility.yul\":6007:6022   */\n          0x6865617020697320656d70747900000000000000000000000000000000000000\n            /* \"#utility.yul\":6003:6004   */\n          0x00\n            /* \"#utility.yul\":5995:6001   */\n          dup3\n            /* \"#utility.yul\":5991:6005   */\n          add\n            /* \"#utility.yul\":5984:6023   */\n          mstore\n            /* \"#utility.yul\":5867:6030   */\n          pop\n          jump\t// out\n            /* \"#utility.yul\":6036:6402   */\n        tag_160:\n            /* \"#utility.yul\":6178:6181   */\n          0x00\n            /* \"#utility.yul\":6199:6266   */\n          tag_228\n            /* \"#utility.yul\":6263:6265   */\n          0x0d\n            /* \"#utility.yul\":6258:6261   */\n          dup4\n            /* \"#utility.yul\":6199:6266   */\n          tag_158\n          jump\t// in\n        tag_228:\n            /* \"#utility.yul\":6192:6266   */\n          swap2\n          pop\n            /* \"#utility.yul\":6275:6368   */\n          tag_229\n            /* \"#utility.yul\":6364:6367   */\n          dup3\n            /* \"#utility.yul\":6275:6368   */\n          tag_159\n          jump\t// in\n        tag_229:\n            /* \"#utility.yul\":6393:6395   */\n          0x20\n            /* \"#utility.yul\":6388:6391   */\n          dup3\n            /* \"#utility.yul\":6384:6396   */\n          add\n            /* \"#utility.yul\":6377:6396   */\n          swap1\n          pop\n            /* \"#utility.yul\":6036:6402   */\n          swap2\n          swap1\n          pop\n          jump\t// out\n            /* \"#utility.yul\":6408:6827   */\n        tag_34:\n            /* \"#utility.yul\":6574:6578   */\n          0x00\n            /* \"#utility.yul\":6612:6614   */\n          0x20\n            /* \"#utility.yul\":6601:6610   */\n          dup3\n            /* \"#utility.yul\":6597:6615   */\n          add\n            /* \"#utility.yul\":6589:6615   */\n          swap1\n          pop\n            /* \"#utility.yul\":6661:6670   */\n          dup2\n            /* \"#utility.yul\":6655:6659   */\n          dup2\n            /* \"#utility.yul\":6651:6671   */\n          sub\n            /* \"#utility.yul\":6647:6648   */\n          0x00\n            /* \"#utility.yul\":6636:6645   */\n          dup4\n            /* \"#utility.yul\":6632:6649   */\n          add\n            /* \"#utility.yul\":6625:6672   */\n          mstore\n            /* \"#utility.yul\":6689:6820   */\n          tag_231\n            /* \"#utility.yul\":6815:6819   */\n          dup2\n            /* \"#utility.yul\":6689:6820   */\n          tag_160\n          jump\t// in\n        tag_231:\n            /* \"#utility.yul\":6681:6820   */\n          swap1\n          pop\n            /* \"#utility.yul\":6408:6827   */\n          swap2\n          swap1\n          pop\n          jump\t// out\n            /* \"#utility.yul\":6833:7013   */\n        tag_38:\n            /* \"#utility.yul\":6881:6958   */\n          0x4e487b7100000000000000000000000000000000000000000000000000000000\n            /* \"#utility.yul\":6878:6879   */\n          0x00\n            /* \"#utility.yul\":6871:6959   */\n          mstore\n            /* \"#utility.yul\":6978:6982   */\n          0x32\n            /* \"#utility.yul\":6975:6976   */\n          0x04\n            /* \"#utility.yul\":6968:6983   */\n          mstore\n            /* \"#utility.yul\":7002:7006   */\n          0x24\n            /* \"#utility.yul\":6999:7000   */\n          0x00\n            /* \"#utility.yul\":6992:7007   */\n          revert\n            /* \"#utility.yul\":7019:7199   */\n        tag_49:\n            /* \"#utility.yul\":7067:7144   */\n          0x4e487b7100000000000000000000000000000000000000000000000000000000\n            /* \"#utility.yul\":7064:7065   */\n          0x00\n            /* \"#utility.yul\":7057:7145   */\n          mstore\n            /* \"#utility.yul\":7164:7168   */\n          0x31\n            /* \"#utility.yul\":7161:7162   */\n          0x04\n            /* \"#utility.yul\":7154:7169   */\n          mstore\n            /* \"#utility.yul\":7188:7192   */\n          0x24\n            /* \"#utility.yul\":7185:7186   */\n          0x00\n            /* \"#utility.yul\":7178:7193   */\n          revert\n            /* \"#utility.yul\":7205:7615   */\n        tag_122:\n            /* \"#utility.yul\":7245:7252   */\n          0x00\n            /* \"#utility.yul\":7268:7288   */\n          tag_235\n            /* \"#utility.yul\":7286:7287   */\n          dup3\n            /* \"#utility.yul\":7268:7288   */\n          tag_149\n          jump\t// in\n        tag_235:\n            /* \"#utility.yul\":7263:7288   */\n          swap2\n          pop\n            /* \"#utility.yul\":7302:7322   */\n          tag_236\n            /* \"#utility.yul\":7320:7321   */\n          dup4\n            /* \"#utility.yul\":7302:7322   */\n          tag_149\n          jump\t// in\n        tag_236:\n            /* \"#utility.yul\":7297:7322   */\n          swap3\n          pop\n            /* \"#utility.yul\":7357:7358   */\n          dup3\n            /* \"#utility.yul\":7354:7355   */\n          dup3\n            /* \"#utility.yul\":7350:7359   */\n          mul\n            /* \"#utility.yul\":7379:7409   */\n          tag_237\n            /* \"#utility.yul\":7397:7408   */\n          dup2\n            /* \"#utility.yul\":7379:7409   */\n          tag_149\n          jump\t// in\n        tag_237:\n            /* \"#utility.yul\":7368:7409   */\n          swap2\n          pop\n            /* \"#utility.yul\":7558:7559   */\n          dup3\n            /* \"#utility.yul\":7549:7556   */\n          dup3\n            /* \"#utility.yul\":7545:7560   */\n          div\n            /* \"#utility.yul\":7542:7543   */\n          dup5\n            /* \"#utility.yul\":7539:7561   */\n          eq\n            /* \"#utility.yul\":7519:7520   */\n          dup4\n            /* \"#utility.yul\":7512:7521   */\n          iszero\n            /* \"#utility.yul\":7492:7575   */\n          or\n            /* \"#utility.yul\":7469:7608   */\n          tag_238\n          jumpi\n            /* \"#utility.yul\":7588:7606   */\n          tag_239\n          tag_156\n          jump\t// in\n        tag_239:\n            /* \"#utility.yul\":7469:7608   */\n        tag_238:\n            /* \"#utility.yul\":7253:7615   */\n          pop\n            /* \"#utility.yul\":7205:7615   */\n          swap3\n          swap2\n          pop\n          pop\n          jump\t// out\n            /* \"#utility.yul\":7621:7812   */\n        tag_124:\n            /* \"#utility.yul\":7661:7664   */\n          0x00\n            /* \"#utility.yul\":7680:7700   */\n          tag_241\n            /* \"#utility.yul\":7698:7699   */\n          dup3\n            /* \"#utility.yul\":7680:7700   */\n          tag_149\n          jump\t// in\n        tag_241:\n            /* \"#utility.yul\":7675:7700   */\n          swap2\n          pop\n            /* \"#utility.yul\":7714:7734   */\n          tag_242\n            /* \"#utility.yul\":7732:7733   */\n          dup4\n            /* \"#utility.yul\":7714:7734   */\n          tag_149\n          jump\t// in\n        tag_242:\n            /* \"#utility.yul\":7709:7734   */\n          swap3\n          pop\n            /* \"#utility.yul\":7757:7758   */\n          dup3\n            /* \"#utility.yul\":7754:7755   */\n          dup3\n            /* \"#utility.yul\":7750:7759   */\n          add\n            /* \"#utility.yul\":7743:7759   */\n          swap1\n          pop\n            /* \"#utility.yul\":7778:7781   */\n          dup1\n            /* \"#utility.yul\":7775:7776   */\n          dup3\n            /* \"#utility.yul\":7772:7782   */\n          gt\n            /* \"#utility.yul\":7769:7805   */\n          iszero\n          tag_243\n          jumpi\n            /* \"#utility.yul\":7785:7803   */\n          tag_244\n          tag_156\n          jump\t// in\n        tag_244:\n            /* \"#utility.yul\":7769:7805   */\n        tag_243:\n            /* \"#utility.yul\":7621:7812   */\n          swap3\n          swap2\n          pop\n          pop\n          jump\t// out\n\n        auxdata: 0xa26469706673582212201451d1d491ea10c9e11ccb6e81a2907d1a1f35287dafe7160544a6255360930964736f6c63430008130033\n    }\n}\n\nsub_2: assembly {\n        /* \"W1/heap.sol\":2810:5472  contract MaxHeap{... */\n      mstore(0x40, 0x80)\n        /* \"W1/heap.sol\":2989:3189  constructor() {... */\n      callvalue\n      dup1\n      iszero\n      tag_1\n      jumpi\n      0x00\n      dup1\n      revert\n    tag_1:\n      pop\n        /* \"W1/heap.sol\":3014:3018  heap */\n      0x00\n        /* \"W1/heap.sol\":3024:3180  Order(address(0), 0xffffffffffffffffffffffffffffffffffffffffffffffffffffffffffffffff, 1, 0xffffffffffffffffffffffffffffffffffffffffffffffffffffffffffffffff) */\n      mload(0x40)\n      dup1\n      0x80\n      add\n      0x40\n      mstore\n      dup1\n        /* \"W1/heap.sol\":3038:3039  0 */\n      0x00\n        /* \"W1/heap.sol\":3024:3180  Order(address(0), 0xffffffffffffffffffffffffffffffffffffffffffffffffffffffffffffffff, 1, 0xffffffffffffffffffffffffffffffffffffffffffffffffffffffffffffffff) */\n      0xffffffffffffffffffffffffffffffffffffffff\n      and\n      dup2\n      mstore\n      0x20\n      add\n        /* \"W1/heap.sol\":3042:3108  0xffffffffffffffffffffffffffffffffffffffffffffffffffffffffffffffff */\n      0xffffffffffffffffffffffffffffffffffffffffffffffffffffffffffffffff\n        /* \"W1/heap.sol\":3024:3180  Order(address(0), 0xffffffffffffffffffffffffffffffffffffffffffffffffffffffffffffffff, 1, 0xffffffffffffffffffffffffffffffffffffffffffffffffffffffffffffffff) */\n      dup2\n      mstore\n      0x20\n      add\n        /* \"W1/heap.sol\":3110:3111  1 */\n      0x01\n        /* \"W1/heap.sol\":3024:3180  Order(address(0), 0xffffffffffffffffffffffffffffffffffffffffffffffffffffffffffffffff, 1, 0xffffffffffffffffffffffffffffffffffffffffffffffffffffffffffffffff) */\n      dup2\n      mstore\n      0x20\n      add\n        /* \"W1/heap.sol\":3113:3179  0xffffffffffffffffffffffffffffffffffffffffffffffffffffffffffffffff */\n      0xffffffffffffffffffffffffffffffffffffffffffffffffffffffffffffffff\n        /* \"W1/heap.sol\":3024:3180  Order(address(0), 0xffffffffffffffffffffffffffffffffffffffffffffffffffffffffffffffff, 1, 0xffffffffffffffffffffffffffffffffffffffffffffffffffffffffffffffff) */\n      dup2\n      mstore\n      pop\n        /* \"W1/heap.sol\":3014:3181  heap.push(Order(address(0), 0xffffffffffffffffffffffffffffffffffffffffffffffffffffffffffffffff, 1, 0xffffffffffffffffffffffffffffffffffffffffffffffffffffffffffffffff)) */\n      swap1\n      dup1\n      0x01\n      dup2\n      sload\n      add\n      dup1\n      dup3\n      sstore\n      dup1\n      swap2\n      pop\n      pop\n      0x01\n      swap1\n      sub\n      swap1\n      0x00\n      mstore\n      keccak256(0x00, 0x20)\n      swap1\n      0x04\n      mul\n      add\n      0x00\n      swap1\n      swap2\n      swap1\n      swap2\n      swap1\n      swap2\n      pop\n      0x00\n      dup3\n      add\n      mload\n      dup2\n      0x00\n      add\n      exp(0x0100, 0x00)\n      dup2\n      sload\n      dup2\n      0xffffffffffffffffffffffffffffffffffffffff\n      mul\n      not\n      and\n      swap1\n      dup4\n      0xffffffffffffffffffffffffffffffffffffffff\n      and\n      mul\n      or\n      swap1\n      sstore\n      pop\n      0x20\n      dup3\n      add\n      mload\n      dup2\n      0x01\n      add\n      sstore\n      0x40\n      dup3\n      add\n      mload\n      dup2\n      0x02\n      add\n      sstore\n      0x60\n      dup3\n      add\n      mload\n      dup2\n      0x03\n      add\n      sstore\n      pop\n      pop\n        /* \"W1/heap.sol\":2810:5472  contract MaxHeap{... */\n      dataSize(sub_0)\n      dup1\n      dataOffset(sub_0)\n      0x00\n      codecopy\n      0x00\n      return\n    stop\n\n    sub_0: assembly {\n            /* \"W1/heap.sol\":2810:5472  contract MaxHeap{... */\n          mstore(0x40, 0x80)\n          callvalue\n          dup1\n          iszero\n          tag_1\n          jumpi\n          0x00\n          dup1\n          revert\n        tag_1:\n          pop\n          jumpi(tag_2, lt(calldatasize, 0x04))\n          shr(0xe0, calldataload(0x00))\n          dup1\n          0x7829c469\n          eq\n          tag_3\n          jumpi\n          dup1\n          0xa4ece52c\n          eq\n          tag_4\n          jumpi\n          dup1\n          0xfe6dcdba\n          eq\n          tag_5\n          jumpi\n        tag_2:\n          0x00\n          dup1\n          revert\n            /* \"W1/heap.sol\":3195:3525  function push (Order memory o) public {... */\n        tag_3:\n          tag_6\n          0x04\n          dup1\n          calldatasize\n          sub\n          dup2\n          add\n          swap1\n          tag_7\n          swap2\n          swap1\n          tag_8\n          jump\t// in\n        tag_7:\n          tag_9\n          jump\t// in\n        tag_6:\n          stop\n            /* \"W1/heap.sol\":3531:3737  function pop() public {... */\n        tag_4:\n          tag_10\n          tag_11\n          jump\t// in\n        tag_10:\n          stop\n            /* \"W1/heap.sol\":3743:3878  function top() public view returns (Order memory) {... */\n        tag_5:\n          tag_12\n          tag_13\n          jump\t// in\n        tag_12:\n          mload(0x40)\n          tag_14\n          swap2\n          swap1\n          tag_15\n          jump\t// in\n        tag_14:\n          mload(0x40)\n          dup1\n          swap2\n          sub\n          swap1\n          return\n            /* \"W1/heap.sol\":3195:3525  function push (Order memory o) public {... */\n        tag_9:\n            /* \"W1/heap.sol\":3244:3248  heap */\n          0x00\n            /* \"W1/heap.sol\":3254:3255  o */\n          dup2\n            /* \"W1/heap.sol\":3244:3256  heap.push(o) */\n          swap1\n          dup1\n          0x01\n          dup2\n          sload\n          add\n          dup1\n          dup3\n          sstore\n          dup1\n          swap2\n          pop\n          pop\n          0x01\n          swap1\n          sub\n          swap1\n          0x00\n          mstore\n          keccak256(0x00, 0x20)\n          swap1\n          0x04\n          mul\n          add\n          0x00\n          swap1\n          swap2\n          swap1\n          swap2\n          swap1\n          swap2\n          pop\n          0x00\n          dup3\n          add\n          mload\n          dup2\n          0x00\n          add\n          exp(0x0100, 0x00)\n          dup2\n          sload\n          dup2\n          0xffffffffffffffffffffffffffffffffffffffff\n          mul\n          not\n          and\n          swap1\n          dup4\n          0xffffffffffffffffffffffffffffffffffffffff\n          and\n          mul\n          or\n          swap1\n          sstore\n          pop\n          0x20\n          dup3\n          add\n          mload\n          dup2\n          0x01\n          add\n          sstore\n          0x40\n          dup3\n          add\n          mload\n          dup2\n          0x02\n          add\n          sstore\n          0x60\n          dup3\n          add\n          mload\n          dup2\n          0x03\n          add\n          sstore\n          pop\n          pop\n            /* \"W1/heap.sol\":3267:3276  uint256 i */\n          0x00\n            /* \"W1/heap.sol\":3293:3294  1 */\n          0x01\n            /* \"W1/heap.sol\":3279:3283  heap */\n          0x00\n            /* \"W1/heap.sol\":3279:3290  heap.length */\n          dup1\n          sload\n          swap1\n          pop\n            /* \"W1/heap.sol\":3279:3294  heap.length - 1 */\n          tag_18\n          swap2\n          swap1\n          tag_19\n          jump\t// in\n        tag_18:\n            /* \"W1/heap.sol\":3267:3294  uint256 i = heap.length - 1 */\n          swap1\n          pop\n            /* \"W1/heap.sol\":3305:3518  while (i > 0) {... */\n        tag_20:\n            /* \"W1/heap.sol\":3316:3317  0 */\n          0x00\n            /* \"W1/heap.sol\":3312:3313  i */\n          dup2\n            /* \"W1/heap.sol\":3312:3317  i > 0 */\n          gt\n            /* \"W1/heap.sol\":3305:3518  while (i > 0) {... */\n          iszero\n          tag_21\n          jumpi\n            /* \"W1/heap.sol\":3334:3343  uint256 p */\n          0x00\n            /* \"W1/heap.sol\":3356:3357  2 */\n          0x02\n            /* \"W1/heap.sol\":3351:3352  1 */\n          0x01\n            /* \"W1/heap.sol\":3347:3348  i */\n          dup4\n            /* \"W1/heap.sol\":3347:3352  i - 1 */\n          tag_22\n          swap2\n          swap1\n          tag_19\n          jump\t// in\n        tag_22:\n            /* \"W1/heap.sol\":3346:3357  (i - 1) / 2 */\n          tag_23\n          swap2\n          swap1\n          tag_24\n          jump\t// in\n        tag_23:\n            /* \"W1/heap.sol\":3334:3357  uint256 p = (i - 1) / 2 */\n          swap1\n          pop\n            /* \"W1/heap.sol\":3376:3389  _conpare(i,p) */\n          tag_25\n            /* \"W1/heap.sol\":3385:3386  i */\n          dup3\n            /* \"W1/heap.sol\":3387:3388  p */\n          dup3\n            /* \"W1/heap.sol\":3376:3384  _conpare */\n          tag_26\n            /* \"W1/heap.sol\":3376:3389  _conpare(i,p) */\n          jump\t// in\n        tag_25:\n            /* \"W1/heap.sol\":3372:3507  if (_conpare(i,p)) {... */\n          iszero\n          tag_27\n          jumpi\n            /* \"W1/heap.sol\":3410:3421  _swap(p, i) */\n          tag_28\n            /* \"W1/heap.sol\":3416:3417  p */\n          dup2\n            /* \"W1/heap.sol\":3419:3420  i */\n          dup4\n            /* \"W1/heap.sol\":3410:3415  _swap */\n          tag_29\n            /* \"W1/heap.sol\":3410:3421  _swap(p, i) */\n          jump\t// in\n        tag_28:\n            /* \"W1/heap.sol\":3444:3445  p */\n          dup1\n            /* \"W1/heap.sol\":3440:3445  i = p */\n          swap2\n          pop\n            /* \"W1/heap.sol\":3372:3507  if (_conpare(i,p)) {... */\n          jump(tag_30)\n        tag_27:\n            /* \"W1/heap.sol\":3486:3491  break */\n          pop\n          jump(tag_21)\n            /* \"W1/heap.sol\":3372:3507  if (_conpare(i,p)) {... */\n        tag_30:\n            /* \"W1/heap.sol\":3319:3518  {... */\n          pop\n            /* \"W1/heap.sol\":3305:3518  while (i > 0) {... */\n          jump(tag_20)\n        tag_21:\n            /* \"W1/heap.sol\":3233:3525  {... */\n          pop\n            /* \"W1/heap.sol\":3195:3525  function push (Order memory o) public {... */\n          pop\n          jump\t// out\n            /* \"W1/heap.sol\":3531:3737  function pop() public {... */\n        tag_11:\n            /* \"W1/heap.sol\":3586:3587  0 */\n          0x00\n            /* \"W1/heap.sol\":3572:3576  heap */\n          dup1\n            /* \"W1/heap.sol\":3572:3583  heap.length */\n          dup1\n          sload\n          swap1\n          pop\n            /* \"W1/heap.sol\":3572:3587  heap.length > 0 */\n          gt\n            /* \"W1/heap.sol\":3564:3605  require(heap.length > 0, \"heap is empty\") */\n          tag_32\n          jumpi\n          mload(0x40)\n          0x08c379a000000000000000000000000000000000000000000000000000000000\n          dup2\n          mstore\n          0x04\n          add\n          tag_33\n          swap1\n          tag_34\n          jump\t// in\n        tag_33:\n          mload(0x40)\n          dup1\n          swap2\n          sub\n          swap1\n          revert\n        tag_32:\n            /* \"W1/heap.sol\":3626:3630  heap */\n          0x00\n            /* \"W1/heap.sol\":3645:3646  1 */\n          0x01\n            /* \"W1/heap.sol\":3631:3635  heap */\n          0x00\n            /* \"W1/heap.sol\":3631:3642  heap.length */\n          dup1\n          sload\n          swap1\n          pop\n            /* \"W1/heap.sol\":3631:3646  heap.length - 1 */\n          tag_35\n          swap2\n          swap1\n          tag_19\n          jump\t// in\n        tag_35:\n            /* \"W1/heap.sol\":3626:3647  heap[heap.length - 1] */\n          dup2\n          sload\n          dup2\n          lt\n          tag_36\n          jumpi\n          tag_37\n          tag_38\n          jump\t// in\n        tag_37:\n        tag_36:\n          swap1\n          0x00\n          mstore\n          keccak256(0x00, 0x20)\n          swap1\n          0x04\n          mul\n          add\n            /* \"W1/heap.sol\":3616:3620  heap */\n          0x00\n            /* \"W1/heap.sol\":3621:3622  0 */\n          dup1\n            /* \"W1/heap.sol\":3616:3623  heap[0] */\n          dup2\n          sload\n          dup2\n          lt\n          tag_40\n          jumpi\n          tag_41\n          tag_38\n          jump\t// in\n        tag_41:\n        tag_40:\n          swap1\n          0x00\n          mstore\n          keccak256(0x00, 0x20)\n          swap1\n          0x04\n          mul\n          add\n            /* \"W1/heap.sol\":3616:3647  heap[0] = heap[heap.length - 1] */\n          0x00\n          dup3\n          add\n          0x00\n          swap1\n          sload\n          swap1\n          0x0100\n          exp\n          swap1\n          div\n          0xffffffffffffffffffffffffffffffffffffffff\n          and\n          dup2\n          0x00\n          add\n          exp(0x0100, 0x00)\n          dup2\n          sload\n          dup2\n          0xffffffffffffffffffffffffffffffffffffffff\n          mul\n          not\n          and\n          swap1\n          dup4\n          0xffffffffffffffffffffffffffffffffffffffff\n          and\n          mul\n          or\n          swap1\n          sstore\n          pop\n          0x01\n          dup3\n          add\n          sload\n          dup2\n          0x01\n          add\n          sstore\n          0x02\n          dup3\n          add\n          sload\n          dup2\n          0x02\n          add\n          sstore\n          0x03\n          dup3\n          add\n          sload\n          dup2\n          0x03\n          add\n          sstore\n          swap1\n          pop\n          pop\n            /* \"W1/heap.sol\":3665:3669  heap */\n          0x00\n            /* \"W1/heap.sol\":3684:3685  1 */\n          0x01\n            /* \"W1/heap.sol\":3670:3674  heap */\n          0x00\n            /* \"W1/heap.sol\":3670:3681  heap.length */\n          dup1\n          sload\n          swap1\n          pop\n            /* \"W1/heap.sol\":3670:3685  heap.length - 1 */\n          tag_43\n          swap2\n          swap1\n          tag_19\n          jump\t// in\n        tag_43:\n            /* \"W1/heap.sol\":3665:3686  heap[heap.length - 1] */\n          dup2\n          sload\n          dup2\n          lt\n          tag_44\n          jumpi\n          tag_45\n          tag_38\n          jump\t// in\n        tag_45:\n        tag_44:\n          swap1\n          0x00\n          mstore\n          keccak256(0x00, 0x20)\n          swap1\n          0x04\n          mul\n          add\n          0x00\n            /* \"W1/heap.sol\":3658:3686  delete heap[heap.length - 1] */\n          dup1\n          dup3\n          add\n          exp(0x0100, 0x00)\n          dup2\n          sload\n          swap1\n          0xffffffffffffffffffffffffffffffffffffffff\n          mul\n          not\n          and\n          swap1\n          sstore\n          0x01\n          dup3\n          add\n          0x00\n          swap1\n          sstore\n          0x02\n          dup3\n          add\n          0x00\n          swap1\n          sstore\n          0x03\n          dup3\n          add\n          0x00\n          swap1\n          sstore\n          pop\n          pop\n            /* \"W1/heap.sol\":3697:3701  heap */\n          0x00\n            /* \"W1/heap.sol\":3697:3707  heap.pop() */\n          dup1\n          sload\n          dup1\n          tag_47\n          jumpi\n          tag_48\n          tag_49\n          jump\t// in\n        tag_48:\n        tag_47:\n          0x01\n          swap1\n          sub\n          dup2\n          dup2\n          swap1\n          0x00\n          mstore\n          keccak256(0x00, 0x20)\n          swap1\n          0x04\n          mul\n          add\n          0x00\n          dup1\n          dup3\n          add\n          exp(0x0100, 0x00)\n          dup2\n          sload\n          swap1\n          0xffffffffffffffffffffffffffffffffffffffff\n          mul\n          not\n          and\n          swap1\n          sstore\n          0x01\n          dup3\n          add\n          0x00\n          swap1\n          sstore\n          0x02\n          dup3\n          add\n          0x00\n          swap1\n          sstore\n          0x03\n          dup3\n          add\n          0x00\n          swap1\n          sstore\n          pop\n          pop\n          swap1\n          sstore\n            /* \"W1/heap.sol\":3718:3729  _heapify(0) */\n          tag_51\n            /* \"W1/heap.sol\":3727:3728  0 */\n          0x00\n            /* \"W1/heap.sol\":3718:3726  _heapify */\n          tag_52\n            /* \"W1/heap.sol\":3718:3729  _heapify(0) */\n          jump\t// in\n        tag_51:\n            /* \"W1/heap.sol\":3531:3737  function pop() public {... */\n          jump\t// out\n            /* \"W1/heap.sol\":3743:3878  function top() public view returns (Order memory) {... */\n        tag_13:\n            /* \"W1/heap.sol\":3779:3791  Order memory */\n          tag_53\n          tag_54\n          jump\t// in\n        tag_53:\n            /* \"W1/heap.sol\":3826:3827  0 */\n          0x00\n            /* \"W1/heap.sol\":3812:3816  heap */\n          dup1\n            /* \"W1/heap.sol\":3812:3823  heap.length */\n          dup1\n          sload\n          swap1\n          pop\n            /* \"W1/heap.sol\":3812:3827  heap.length > 0 */\n          gt\n            /* \"W1/heap.sol\":3804:3845  require(heap.length > 0, \"heap is empty\") */\n          tag_56\n          jumpi\n          mload(0x40)\n          0x08c379a000000000000000000000000000000000000000000000000000000000\n          dup2\n          mstore\n          0x04\n          add\n          tag_57\n          swap1\n          tag_34\n          jump\t// in\n        tag_57:\n          mload(0x40)\n          dup1\n          swap2\n          sub\n          swap1\n          revert\n        tag_56:\n            /* \"W1/heap.sol\":3863:3867  heap */\n          0x00\n            /* \"W1/heap.sol\":3868:3869  0 */\n          dup1\n            /* \"W1/heap.sol\":3863:3870  heap[0] */\n          dup2\n          sload\n          dup2\n          lt\n          tag_58\n          jumpi\n          tag_59\n          tag_38\n          jump\t// in\n        tag_59:\n        tag_58:\n          swap1\n          0x00\n          mstore\n          keccak256(0x00, 0x20)\n          swap1\n          0x04\n          mul\n          add\n            /* \"W1/heap.sol\":3856:3870  return heap[0] */\n          mload(0x40)\n          dup1\n          0x80\n          add\n          0x40\n          mstore\n          swap1\n          dup2\n          0x00\n          dup3\n          add\n          0x00\n          swap1\n          sload\n          swap1\n          0x0100\n          exp\n          swap1\n          div\n          0xffffffffffffffffffffffffffffffffffffffff\n          and\n          0xffffffffffffffffffffffffffffffffffffffff\n          and\n          0xffffffffffffffffffffffffffffffffffffffff\n          and\n          dup2\n          mstore\n          0x20\n          add\n          0x01\n          dup3\n          add\n          sload\n          dup2\n          mstore\n          0x20\n          add\n          0x02\n          dup3\n          add\n          sload\n          dup2\n          mstore\n          0x20\n          add\n          0x03\n          dup3\n          add\n          sload\n          dup2\n          mstore\n          pop\n          pop\n          swap1\n          pop\n            /* \"W1/heap.sol\":3743:3878  function top() public view returns (Order memory) {... */\n          swap1\n          jump\t// out\n            /* \"W1/heap.sol\":4800:5314  function _conpare(uint256 i,uint256 j) private view returns (bool) {... */\n        tag_26:\n            /* \"W1/heap.sol\":4861:4865  bool */\n          0x00\n            /* \"W1/heap.sol\":4908:4912  heap */\n          dup1\n            /* \"W1/heap.sol\":4913:4914  j */\n          dup3\n            /* \"W1/heap.sol\":4908:4915  heap[j] */\n          dup2\n          sload\n          dup2\n          lt\n          tag_62\n          jumpi\n          tag_63\n          tag_38\n          jump\t// in\n        tag_63:\n        tag_62:\n          swap1\n          0x00\n          mstore\n          keccak256(0x00, 0x20)\n          swap1\n          0x04\n          mul\n          add\n            /* \"W1/heap.sol\":4908:4921  heap[j].price */\n          0x02\n          add\n          sload\n            /* \"W1/heap.sol\":4891:4895  heap */\n          0x00\n            /* \"W1/heap.sol\":4896:4897  i */\n          dup5\n            /* \"W1/heap.sol\":4891:4898  heap[i] */\n          dup2\n          sload\n          dup2\n          lt\n          tag_65\n          jumpi\n          tag_66\n          tag_38\n          jump\t// in\n        tag_66:\n        tag_65:\n          swap1\n          0x00\n          mstore\n          keccak256(0x00, 0x20)\n          swap1\n          0x04\n          mul\n          add\n            /* \"W1/heap.sol\":4891:4904  heap[i].price */\n          0x02\n          add\n          sload\n            /* \"W1/heap.sol\":4891:4921  heap[i].price == heap[j].price */\n          sub\n            /* \"W1/heap.sol\":4888:5260  if(heap[i].price == heap[j].price) {... */\n          tag_68\n          jumpi\n            /* \"W1/heap.sol\":4962:4966  heap */\n          0x00\n            /* \"W1/heap.sol\":4967:4968  j */\n          dup3\n            /* \"W1/heap.sol\":4962:4969  heap[j] */\n          dup2\n          sload\n          dup2\n          lt\n          tag_69\n          jumpi\n          tag_70\n          tag_38\n          jump\t// in\n        tag_70:\n        tag_69:\n          swap1\n          0x00\n          mstore\n          keccak256(0x00, 0x20)\n          swap1\n          0x04\n          mul\n          add\n            /* \"W1/heap.sol\":4962:4979  heap[j].timestamp */\n          0x03\n          add\n          sload\n            /* \"W1/heap.sol\":4941:4945  heap */\n          0x00\n            /* \"W1/heap.sol\":4946:4947  i */\n          dup5\n            /* \"W1/heap.sol\":4941:4948  heap[i] */\n          dup2\n          sload\n          dup2\n          lt\n          tag_72\n          jumpi\n          tag_73\n          tag_38\n          jump\t// in\n        tag_73:\n        tag_72:\n          swap1\n          0x00\n          mstore\n          keccak256(0x00, 0x20)\n          swap1\n          0x04\n          mul\n          add\n            /* \"W1/heap.sol\":4941:4958  heap[i].timestamp */\n          0x03\n          add\n          sload\n            /* \"W1/heap.sol\":4941:4979  heap[i].timestamp == heap[j].timestamp */\n          sub\n            /* \"W1/heap.sol\":4938:5190  if(heap[i].timestamp == heap[j].timestamp) {... */\n          tag_75\n          jumpi\n            /* \"W1/heap.sol\":5021:5025  heap */\n          0x00\n            /* \"W1/heap.sol\":5026:5027  j */\n          dup3\n            /* \"W1/heap.sol\":5021:5028  heap[j] */\n          dup2\n          sload\n          dup2\n          lt\n          tag_76\n          jumpi\n          tag_77\n          tag_38\n          jump\t// in\n        tag_77:\n        tag_76:\n          swap1\n          0x00\n          mstore\n          keccak256(0x00, 0x20)\n          swap1\n          0x04\n          mul\n          add\n            /* \"W1/heap.sol\":5021:5035  heap[j].amount */\n          0x01\n          add\n          sload\n            /* \"W1/heap.sol\":5003:5007  heap */\n          0x00\n            /* \"W1/heap.sol\":5008:5009  i */\n          dup5\n            /* \"W1/heap.sol\":5003:5010  heap[i] */\n          dup2\n          sload\n          dup2\n          lt\n          tag_79\n          jumpi\n          tag_80\n          tag_38\n          jump\t// in\n        tag_80:\n        tag_79:\n          swap1\n          0x00\n          mstore\n          keccak256(0x00, 0x20)\n          swap1\n          0x04\n          mul\n          add\n            /* \"W1/heap.sol\":5003:5017  heap[i].amount */\n          0x01\n          add\n          sload\n            /* \"W1/heap.sol\":5003:5035  heap[i].amount == heap[j].amount */\n          sub\n            /* \"W1/heap.sol\":5000:5118  if(heap[i].amount == heap[j].amount) {... */\n          tag_82\n          jumpi\n            /* \"W1/heap.sol\":5084:5088  heap */\n          0x00\n            /* \"W1/heap.sol\":5089:5090  j */\n          dup3\n            /* \"W1/heap.sol\":5084:5091  heap[j] */\n          dup2\n          sload\n          dup2\n          lt\n          tag_83\n          jumpi\n          tag_84\n          tag_38\n          jump\t// in\n        tag_84:\n        tag_83:\n          swap1\n          0x00\n          mstore\n          keccak256(0x00, 0x20)\n          swap1\n          0x04\n          mul\n          add\n            /* \"W1/heap.sol\":5084:5098  heap[j].trader */\n          0x00\n          add\n          0x00\n          swap1\n          sload\n          swap1\n          0x0100\n          exp\n          swap1\n          div\n          0xffffffffffffffffffffffffffffffffffffffff\n          and\n            /* \"W1/heap.sol\":5067:5098  heap[i].trader < heap[j].trader */\n          0xffffffffffffffffffffffffffffffffffffffff\n          and\n            /* \"W1/heap.sol\":5067:5071  heap */\n          0x00\n            /* \"W1/heap.sol\":5072:5073  i */\n          dup5\n            /* \"W1/heap.sol\":5067:5074  heap[i] */\n          dup2\n          sload\n          dup2\n          lt\n          tag_86\n          jumpi\n          tag_87\n          tag_38\n          jump\t// in\n        tag_87:\n        tag_86:\n          swap1\n          0x00\n          mstore\n          keccak256(0x00, 0x20)\n          swap1\n          0x04\n          mul\n          add\n            /* \"W1/heap.sol\":5067:5081  heap[i].trader */\n          0x00\n          add\n          0x00\n          swap1\n          sload\n          swap1\n          0x0100\n          exp\n          swap1\n          div\n          0xffffffffffffffffffffffffffffffffffffffff\n          and\n            /* \"W1/heap.sol\":5067:5098  heap[i].trader < heap[j].trader */\n          0xffffffffffffffffffffffffffffffffffffffff\n          and\n          lt\n            /* \"W1/heap.sol\":5060:5098  return heap[i].trader < heap[j].trader */\n          swap1\n          pop\n          jump(tag_61)\n            /* \"W1/heap.sol\":5000:5118  if(heap[i].amount == heap[j].amount) {... */\n        tag_82:\n            /* \"W1/heap.sol\":5160:5164  heap */\n          0x00\n            /* \"W1/heap.sol\":5165:5166  j */\n          dup3\n            /* \"W1/heap.sol\":5160:5167  heap[j] */\n          dup2\n          sload\n          dup2\n          lt\n          tag_89\n          jumpi\n          tag_90\n          tag_38\n          jump\t// in\n        tag_90:\n        tag_89:\n          swap1\n          0x00\n          mstore\n          keccak256(0x00, 0x20)\n          swap1\n          0x04\n          mul\n          add\n            /* \"W1/heap.sol\":5160:5174  heap[j].amount */\n          0x01\n          add\n          sload\n            /* \"W1/heap.sol\":5143:5147  heap */\n          0x00\n            /* \"W1/heap.sol\":5148:5149  i */\n          dup5\n            /* \"W1/heap.sol\":5143:5150  heap[i] */\n          dup2\n          sload\n          dup2\n          lt\n          tag_92\n          jumpi\n          tag_93\n          tag_38\n          jump\t// in\n        tag_93:\n        tag_92:\n          swap1\n          0x00\n          mstore\n          keccak256(0x00, 0x20)\n          swap1\n          0x04\n          mul\n          add\n            /* \"W1/heap.sol\":5143:5157  heap[i].amount */\n          0x01\n          add\n          sload\n            /* \"W1/heap.sol\":5143:5174  heap[i].amount < heap[j].amount */\n          lt\n            /* \"W1/heap.sol\":5136:5174  return heap[i].amount < heap[j].amount */\n          swap1\n          pop\n          jump(tag_61)\n            /* \"W1/heap.sol\":4938:5190  if(heap[i].timestamp == heap[j].timestamp) {... */\n        tag_75:\n            /* \"W1/heap.sol\":5231:5235  heap */\n          0x00\n            /* \"W1/heap.sol\":5236:5237  j */\n          dup3\n            /* \"W1/heap.sol\":5231:5238  heap[j] */\n          dup2\n          sload\n          dup2\n          lt\n          tag_95\n          jumpi\n          tag_96\n          tag_38\n          jump\t// in\n        tag_96:\n        tag_95:\n          swap1\n          0x00\n          mstore\n          keccak256(0x00, 0x20)\n          swap1\n          0x04\n          mul\n          add\n            /* \"W1/heap.sol\":5231:5248  heap[j].timestamp */\n          0x03\n          add\n          sload\n            /* \"W1/heap.sol\":5211:5215  heap */\n          0x00\n            /* \"W1/heap.sol\":5216:5217  i */\n          dup5\n            /* \"W1/heap.sol\":5211:5218  heap[i] */\n          dup2\n          sload\n          dup2\n          lt\n          tag_98\n          jumpi\n          tag_99\n          tag_38\n          jump\t// in\n        tag_99:\n        tag_98:\n          swap1\n          0x00\n          mstore\n          keccak256(0x00, 0x20)\n          swap1\n          0x04\n          mul\n          add\n            /* \"W1/heap.sol\":5211:5228  heap[i].timestamp */\n          0x03\n          add\n          sload\n            /* \"W1/heap.sol\":5211:5248  heap[i].timestamp < heap[j].timestamp */\n          lt\n            /* \"W1/heap.sol\":5204:5248  return heap[i].timestamp < heap[j].timestamp */\n          swap1\n          pop\n          jump(tag_61)\n            /* \"W1/heap.sol\":4888:5260  if(heap[i].price == heap[j].price) {... */\n        tag_68:\n            /* \"W1/heap.sol\":5293:5297  heap */\n          0x00\n            /* \"W1/heap.sol\":5298:5299  j */\n          dup3\n            /* \"W1/heap.sol\":5293:5300  heap[j] */\n          dup2\n          sload\n          dup2\n          lt\n          tag_101\n          jumpi\n          tag_102\n          tag_38\n          jump\t// in\n        tag_102:\n        tag_101:\n          swap1\n          0x00\n          mstore\n          keccak256(0x00, 0x20)\n          swap1\n          0x04\n          mul\n          add\n            /* \"W1/heap.sol\":5293:5306  heap[j].price */\n          0x02\n          add\n          sload\n            /* \"W1/heap.sol\":5277:5281  heap */\n          0x00\n            /* \"W1/heap.sol\":5282:5283  i */\n          dup5\n            /* \"W1/heap.sol\":5277:5284  heap[i] */\n          dup2\n          sload\n          dup2\n          lt\n          tag_104\n          jumpi\n          tag_105\n          tag_38\n          jump\t// in\n        tag_105:\n        tag_104:\n          swap1\n          0x00\n          mstore\n          keccak256(0x00, 0x20)\n          swap1\n          0x04\n          mul\n          add\n            /* \"W1/heap.sol\":5277:5290  heap[i].price */\n          0x02\n          add\n          sload\n            /* \"W1/heap.sol\":5277:5306  heap[i].price > heap[j].price */\n          gt\n            /* \"W1/heap.sol\":5270:5306  return heap[i].price > heap[j].price */\n          swap1\n          pop\n            /* \"W1/heap.sol\":4800:5314  function _conpare(uint256 i,uint256 j) private view returns (bool) {... */\n        tag_61:\n          swap3\n          swap2\n          pop\n          pop\n          jump\t// out\n            /* \"W1/heap.sol\":5320:5463  function _swap(uint256 a, uint256 b) private  {... */\n        tag_29:\n            /* \"W1/heap.sol\":5377:5393  Order memory tmp */\n          0x00\n            /* \"W1/heap.sol\":5396:5400  heap */\n          dup1\n            /* \"W1/heap.sol\":5401:5402  a */\n          dup4\n            /* \"W1/heap.sol\":5396:5403  heap[a] */\n          dup2\n          sload\n          dup2\n          lt\n          tag_108\n          jumpi\n          tag_109\n          tag_38\n          jump\t// in\n        tag_109:\n        tag_108:\n          swap1\n          0x00\n          mstore\n          keccak256(0x00, 0x20)\n          swap1\n          0x04\n          mul\n          add\n            /* \"W1/heap.sol\":5377:5403  Order memory tmp = heap[a] */\n          mload(0x40)\n          dup1\n          0x80\n          add\n          0x40\n          mstore\n          swap1\n          dup2\n          0x00\n          dup3\n          add\n          0x00\n          swap1\n          sload\n          swap1\n          0x0100\n          exp\n          swap1\n          div\n          0xffffffffffffffffffffffffffffffffffffffff\n          and\n          0xffffffffffffffffffffffffffffffffffffffff\n          and\n          0xffffffffffffffffffffffffffffffffffffffff\n          and\n          dup2\n          mstore\n          0x20\n          add\n          0x01\n          dup3\n          add\n          sload\n          dup2\n          mstore\n          0x20\n          add\n          0x02\n          dup3\n          add\n          sload\n          dup2\n          mstore\n          0x20\n          add\n          0x03\n          dup3\n          add\n          sload\n          dup2\n          mstore\n          pop\n          pop\n          swap1\n          pop\n            /* \"W1/heap.sol\":5424:5428  heap */\n          0x00\n            /* \"W1/heap.sol\":5429:5430  b */\n          dup3\n            /* \"W1/heap.sol\":5424:5431  heap[b] */\n          dup2\n          sload\n          dup2\n          lt\n          tag_111\n          jumpi\n          tag_112\n          tag_38\n          jump\t// in\n        tag_112:\n        tag_111:\n          swap1\n          0x00\n          mstore\n          keccak256(0x00, 0x20)\n          swap1\n          0x04\n          mul\n          add\n            /* \"W1/heap.sol\":5414:5418  heap */\n          0x00\n            /* \"W1/heap.sol\":5419:5420  a */\n          dup5\n            /* \"W1/heap.sol\":5414:5421  heap[a] */\n          dup2\n          sload\n          dup2\n          lt\n          tag_114\n          jumpi\n          tag_115\n          tag_38\n          jump\t// in\n        tag_115:\n        tag_114:\n          swap1\n          0x00\n          mstore\n          keccak256(0x00, 0x20)\n          swap1\n          0x04\n          mul\n          add\n            /* \"W1/heap.sol\":5414:5431  heap[a] = heap[b] */\n          0x00\n          dup3\n          add\n          0x00\n          swap1\n          sload\n          swap1\n          0x0100\n          exp\n          swap1\n          div\n          0xffffffffffffffffffffffffffffffffffffffff\n          and\n          dup2\n          0x00\n          add\n          exp(0x0100, 0x00)\n          dup2\n          sload\n          dup2\n          0xffffffffffffffffffffffffffffffffffffffff\n          mul\n          not\n          and\n          swap1\n          dup4\n          0xffffffffffffffffffffffffffffffffffffffff\n          and\n          mul\n          or\n          swap1\n          sstore\n          pop\n          0x01\n          dup3\n          add\n          sload\n          dup2\n          0x01\n          add\n          sstore\n          0x02\n          dup3\n          add\n          sload\n          dup2\n          0x02\n          add\n          sstore\n          0x03\n          dup3\n          add\n          sload\n          dup2\n          0x03\n          add\n          sstore\n          swap1\n          pop\n          pop\n            /* \"W1/heap.sol\":5452:5455  tmp */\n          dup1\n            /* \"W1/heap.sol\":5442:5446  heap */\n          0x00\n            /* \"W1/heap.sol\":5447:5448  b */\n          dup4\n            /* \"W1/heap.sol\":5442:5449  heap[b] */\n          dup2\n          sload\n          dup2\n          lt\n          tag_117\n          jumpi\n          tag_118\n          tag_38\n          jump\t// in\n        tag_118:\n        tag_117:\n          swap1\n          0x00\n          mstore\n          keccak256(0x00, 0x20)\n          swap1\n          0x04\n          mul\n          add\n            /* \"W1/heap.sol\":5442:5455  heap[b] = tmp */\n          0x00\n          dup3\n          add\n          mload\n          dup2\n          0x00\n          add\n          exp(0x0100, 0x00)\n          dup2\n          sload\n          dup2\n          0xffffffffffffffffffffffffffffffffffffffff\n          mul\n          not\n          and\n          swap1\n          dup4\n          0xffffffffffffffffffffffffffffffffffffffff\n          and\n          mul\n          or\n          swap1\n          sstore\n          pop\n          0x20\n          dup3\n          add\n          mload\n          dup2\n          0x01\n          add\n          sstore\n          0x40\n          dup3\n          add\n          mload\n          dup2\n          0x02\n          add\n          sstore\n          0x60\n          dup3\n          add\n          mload\n          dup2\n          0x03\n          add\n          sstore\n          swap1\n          pop\n          pop\n            /* \"W1/heap.sol\":5366:5463  {... */\n          pop\n            /* \"W1/heap.sol\":5320:5463  function _swap(uint256 a, uint256 b) private  {... */\n          pop\n          pop\n          jump\t// out\n            /* \"W1/heap.sol\":3884:4319  function _heapify(uint256 _i) private {... */\n        tag_52:\n            /* \"W1/heap.sol\":3933:3942  uint256 l */\n          0x00\n            /* \"W1/heap.sol\":3954:3955  1 */\n          0x01\n            /* \"W1/heap.sol\":3949:3951  _i */\n          dup3\n            /* \"W1/heap.sol\":3945:3946  2 */\n          0x02\n            /* \"W1/heap.sol\":3945:3951  2 * _i */\n          tag_121\n          swap2\n          swap1\n          tag_122\n          jump\t// in\n        tag_121:\n            /* \"W1/heap.sol\":3945:3955  2 * _i + 1 */\n          tag_123\n          swap2\n          swap1\n          tag_124\n          jump\t// in\n        tag_123:\n            /* \"W1/heap.sol\":3933:3955  uint256 l = 2 * _i + 1 */\n          swap1\n          pop\n            /* \"W1/heap.sol\":3966:3975  uint256 r */\n          0x00\n            /* \"W1/heap.sol\":3987:3988  2 */\n          0x02\n            /* \"W1/heap.sol\":3982:3984  _i */\n          dup4\n            /* \"W1/heap.sol\":3978:3979  2 */\n          0x02\n            /* \"W1/heap.sol\":3978:3984  2 * _i */\n          tag_125\n          swap2\n          swap1\n          tag_122\n          jump\t// in\n        tag_125:\n            /* \"W1/heap.sol\":3978:3988  2 * _i + 2 */\n          tag_126\n          swap2\n          swap1\n          tag_124\n          jump\t// in\n        tag_126:\n            /* \"W1/heap.sol\":3966:3988  uint256 r = 2 * _i + 2 */\n          swap1\n          pop\n            /* \"W1/heap.sol\":3999:4014  uint256 largest */\n          0x00\n            /* \"W1/heap.sol\":4017:4019  _i */\n          dup4\n            /* \"W1/heap.sol\":3999:4019  uint256 largest = _i */\n          swap1\n          pop\n            /* \"W1/heap.sol\":4038:4042  heap */\n          0x00\n            /* \"W1/heap.sol\":4038:4049  heap.length */\n          dup1\n          sload\n          swap1\n          pop\n            /* \"W1/heap.sol\":4034:4035  l */\n          dup4\n            /* \"W1/heap.sol\":4034:4049  l < heap.length */\n          lt\n            /* \"W1/heap.sol\":4034:4073  l < heap.length && _conpare(l ,largest) */\n          dup1\n          iszero\n          tag_127\n          jumpi\n          pop\n            /* \"W1/heap.sol\":4053:4073  _conpare(l ,largest) */\n          tag_128\n            /* \"W1/heap.sol\":4062:4063  l */\n          dup4\n            /* \"W1/heap.sol\":4065:4072  largest */\n          dup3\n            /* \"W1/heap.sol\":4053:4061  _conpare */\n          tag_26\n            /* \"W1/heap.sol\":4053:4073  _conpare(l ,largest) */\n          jump\t// in\n        tag_128:\n            /* \"W1/heap.sol\":4034:4073  l < heap.length && _conpare(l ,largest) */\n        tag_127:\n            /* \"W1/heap.sol\":4030:4113  if (l < heap.length && _conpare(l ,largest)) {... */\n          iszero\n          tag_129\n          jumpi\n            /* \"W1/heap.sol\":4100:4101  l */\n          dup3\n            /* \"W1/heap.sol\":4090:4101  largest = l */\n          swap1\n          pop\n            /* \"W1/heap.sol\":4030:4113  if (l < heap.length && _conpare(l ,largest)) {... */\n        tag_129:\n            /* \"W1/heap.sol\":4131:4135  heap */\n          0x00\n            /* \"W1/heap.sol\":4131:4142  heap.length */\n          dup1\n          sload\n          swap1\n          pop\n            /* \"W1/heap.sol\":4127:4128  r */\n          dup3\n            /* \"W1/heap.sol\":4127:4142  r < heap.length */\n          lt\n            /* \"W1/heap.sol\":4127:4166  r < heap.length && _conpare(r ,largest) */\n          dup1\n          iszero\n          tag_130\n          jumpi\n          pop\n            /* \"W1/heap.sol\":4146:4166  _conpare(r ,largest) */\n          tag_131\n            /* \"W1/heap.sol\":4155:4156  r */\n          dup3\n            /* \"W1/heap.sol\":4158:4165  largest */\n          dup3\n            /* \"W1/heap.sol\":4146:4154  _conpare */\n          tag_26\n            /* \"W1/heap.sol\":4146:4166  _conpare(r ,largest) */\n          jump\t// in\n        tag_131:\n            /* \"W1/heap.sol\":4127:4166  r < heap.length && _conpare(r ,largest) */\n        tag_130:\n            /* \"W1/heap.sol\":4123:4206  if (r < heap.length && _conpare(r ,largest)) {... */\n          iszero\n          tag_132\n          jumpi\n            /* \"W1/heap.sol\":4193:4194  r */\n          dup2\n            /* \"W1/heap.sol\":4183:4194  largest = r */\n          swap1\n          pop\n            /* \"W1/heap.sol\":4123:4206  if (r < heap.length && _conpare(r ,largest)) {... */\n        tag_132:\n            /* \"W1/heap.sol\":4231:4233  _i */\n          dup4\n            /* \"W1/heap.sol\":4220:4227  largest */\n          dup2\n            /* \"W1/heap.sol\":4220:4233  largest != _i */\n          eq\n            /* \"W1/heap.sol\":4216:4312  if (largest != _i) {... */\n          tag_133\n          jumpi\n            /* \"W1/heap.sol\":4250:4268  _swap(_i, largest) */\n          tag_134\n            /* \"W1/heap.sol\":4256:4258  _i */\n          dup5\n            /* \"W1/heap.sol\":4260:4267  largest */\n          dup3\n            /* \"W1/heap.sol\":4250:4255  _swap */\n          tag_29\n            /* \"W1/heap.sol\":4250:4268  _swap(_i, largest) */\n          jump\t// in\n        tag_134:\n            /* \"W1/heap.sol\":4283:4300  _heapify(largest) */\n          tag_135\n            /* \"W1/heap.sol\":4292:4299  largest */\n          dup2\n            /* \"W1/heap.sol\":4283:4291  _heapify */\n          tag_52\n            /* \"W1/heap.sol\":4283:4300  _heapify(largest) */\n          jump\t// in\n        tag_135:\n            /* \"W1/heap.sol\":4216:4312  if (largest != _i) {... */\n        tag_133:\n            /* \"W1/heap.sol\":3922:4319  {... */\n          pop\n          pop\n          pop\n            /* \"W1/heap.sol\":3884:4319  function _heapify(uint256 _i) private {... */\n          pop\n          jump\t// out\n        tag_54:\n          mload(0x40)\n          dup1\n          0x80\n          add\n          0x40\n          mstore\n          dup1\n          and(0xffffffffffffffffffffffffffffffffffffffff, 0x00)\n          dup2\n          mstore\n          0x20\n          add\n          0x00\n          dup2\n          mstore\n          0x20\n          add\n          0x00\n          dup2\n          mstore\n          0x20\n          add\n          0x00\n          dup2\n          mstore\n          pop\n          swap1\n          jump\t// out\n            /* \"#utility.yul\":7:82   */\n        tag_136:\n            /* \"#utility.yul\":40:46   */\n          0x00\n            /* \"#utility.yul\":73:75   */\n          0x40\n            /* \"#utility.yul\":67:76   */\n          mload\n            /* \"#utility.yul\":57:76   */\n          swap1\n          pop\n            /* \"#utility.yul\":7:82   */\n          swap1\n          jump\t// out\n            /* \"#utility.yul\":88:205   */\n        tag_137:\n            /* \"#utility.yul\":197:198   */\n          0x00\n            /* \"#utility.yul\":194:195   */\n          dup1\n            /* \"#utility.yul\":187:199   */\n          revert\n            /* \"#utility.yul\":334:451   */\n        tag_139:\n            /* \"#utility.yul\":443:444   */\n          0x00\n            /* \"#utility.yul\":440:441   */\n          dup1\n            /* \"#utility.yul\":433:445   */\n          revert\n            /* \"#utility.yul\":457:559   */\n        tag_140:\n            /* \"#utility.yul\":498:504   */\n          0x00\n            /* \"#utility.yul\":549:551   */\n          0x1f\n            /* \"#utility.yul\":545:552   */\n          not\n            /* \"#utility.yul\":540:542   */\n          0x1f\n            /* \"#utility.yul\":533:538   */\n          dup4\n            /* \"#utility.yul\":529:543   */\n          add\n            /* \"#utility.yul\":525:553   */\n          and\n            /* \"#utility.yul\":515:553   */\n          swap1\n          pop\n            /* \"#utility.yul\":457:559   */\n          swap2\n          swap1\n          pop\n          jump\t// out\n            /* \"#utility.yul\":565:745   */\n        tag_141:\n            /* \"#utility.yul\":613:690   */\n          0x4e487b7100000000000000000000000000000000000000000000000000000000\n            /* \"#utility.yul\":610:611   */\n          0x00\n            /* \"#utility.yul\":603:691   */\n          mstore\n            /* \"#utility.yul\":710:714   */\n          0x41\n            /* \"#utility.yul\":707:708   */\n          0x04\n            /* \"#utility.yul\":700:715   */\n          mstore\n            /* \"#utility.yul\":734:738   */\n          0x24\n            /* \"#utility.yul\":731:732   */\n          0x00\n            /* \"#utility.yul\":724:739   */\n          revert\n            /* \"#utility.yul\":751:1032   */\n        tag_142:\n            /* \"#utility.yul\":834:861   */\n          tag_169\n            /* \"#utility.yul\":856:860   */\n          dup3\n            /* \"#utility.yul\":834:861   */\n          tag_140\n          jump\t// in\n        tag_169:\n            /* \"#utility.yul\":826:832   */\n          dup2\n            /* \"#utility.yul\":822:862   */\n          add\n            /* \"#utility.yul\":964:970   */\n          dup2\n            /* \"#utility.yul\":952:962   */\n          dup2\n            /* \"#utility.yul\":949:971   */\n          lt\n            /* \"#utility.yul\":928:946   */\n          0xffffffffffffffff\n            /* \"#utility.yul\":916:926   */\n          dup3\n            /* \"#utility.yul\":913:947   */\n          gt\n            /* \"#utility.yul\":910:972   */\n          or\n            /* \"#utility.yul\":907:995   */\n          iszero\n          tag_170\n          jumpi\n            /* \"#utility.yul\":975:993   */\n          tag_171\n          tag_141\n          jump\t// in\n        tag_171:\n            /* \"#utility.yul\":907:995   */\n        tag_170:\n            /* \"#utility.yul\":1015:1025   */\n          dup1\n            /* \"#utility.yul\":1011:1013   */\n          0x40\n            /* \"#utility.yul\":1004:1026   */\n          mstore\n            /* \"#utility.yul\":794:1032   */\n          pop\n            /* \"#utility.yul\":751:1032   */\n          pop\n          pop\n          jump\t// out\n            /* \"#utility.yul\":1038:1167   */\n        tag_143:\n            /* \"#utility.yul\":1072:1078   */\n          0x00\n            /* \"#utility.yul\":1099:1119   */\n          tag_173\n          tag_136\n          jump\t// in\n        tag_173:\n            /* \"#utility.yul\":1089:1119   */\n          swap1\n          pop\n            /* \"#utility.yul\":1128:1161   */\n          tag_174\n            /* \"#utility.yul\":1156:1160   */\n          dup3\n            /* \"#utility.yul\":1148:1154   */\n          dup3\n            /* \"#utility.yul\":1128:1161   */\n          tag_142\n          jump\t// in\n        tag_174:\n            /* \"#utility.yul\":1038:1167   */\n          swap2\n          swap1\n          pop\n          jump\t// out\n            /* \"#utility.yul\":1296:1422   */\n        tag_145:\n            /* \"#utility.yul\":1333:1340   */\n          0x00\n            /* \"#utility.yul\":1373:1415   */\n          0xffffffffffffffffffffffffffffffffffffffff\n            /* \"#utility.yul\":1366:1371   */\n          dup3\n            /* \"#utility.yul\":1362:1416   */\n          and\n            /* \"#utility.yul\":1351:1416   */\n          swap1\n          pop\n            /* \"#utility.yul\":1296:1422   */\n          swap2\n          swap1\n          pop\n          jump\t// out\n            /* \"#utility.yul\":1428:1524   */\n        tag_146:\n            /* \"#utility.yul\":1465:1472   */\n          0x00\n            /* \"#utility.yul\":1494:1518   */\n          tag_178\n            /* \"#utility.yul\":1512:1517   */\n          dup3\n            /* \"#utility.yul\":1494:1518   */\n          tag_145\n          jump\t// in\n        tag_178:\n            /* \"#utility.yul\":1483:1518   */\n          swap1\n          pop\n            /* \"#utility.yul\":1428:1524   */\n          swap2\n          swap1\n          pop\n          jump\t// out\n            /* \"#utility.yul\":1530:1652   */\n        tag_147:\n            /* \"#utility.yul\":1603:1627   */\n          tag_180\n            /* \"#utility.yul\":1621:1626   */\n          dup2\n            /* \"#utility.yul\":1603:1627   */\n          tag_146\n          jump\t// in\n        tag_180:\n            /* \"#utility.yul\":1596:1601   */\n          dup2\n            /* \"#utility.yul\":1593:1628   */\n          eq\n            /* \"#utility.yul\":1583:1646   */\n          tag_181\n          jumpi\n            /* \"#utility.yul\":1642:1643   */\n          0x00\n            /* \"#utility.yul\":1639:1640   */\n          dup1\n            /* \"#utility.yul\":1632:1644   */\n          revert\n            /* \"#utility.yul\":1583:1646   */\n        tag_181:\n            /* \"#utility.yul\":1530:1652   */\n          pop\n          jump\t// out\n            /* \"#utility.yul\":1658:1797   */\n        tag_148:\n            /* \"#utility.yul\":1704:1709   */\n          0x00\n            /* \"#utility.yul\":1742:1748   */\n          dup2\n            /* \"#utility.yul\":1729:1749   */\n          calldataload\n            /* \"#utility.yul\":1720:1749   */\n          swap1\n          pop\n            /* \"#utility.yul\":1758:1791   */\n          tag_183\n            /* \"#utility.yul\":1785:1790   */\n          dup2\n            /* \"#utility.yul\":1758:1791   */\n          tag_147\n          jump\t// in\n        tag_183:\n            /* \"#utility.yul\":1658:1797   */\n          swap3\n          swap2\n          pop\n          pop\n          jump\t// out\n            /* \"#utility.yul\":1803:1880   */\n        tag_149:\n            /* \"#utility.yul\":1840:1847   */\n          0x00\n            /* \"#utility.yul\":1869:1874   */\n          dup2\n            /* \"#utility.yul\":1858:1874   */\n          swap1\n          pop\n            /* \"#utility.yul\":1803:1880   */\n          swap2\n          swap1\n          pop\n          jump\t// out\n            /* \"#utility.yul\":1886:2008   */\n        tag_150:\n            /* \"#utility.yul\":1959:1983   */\n          tag_186\n            /* \"#utility.yul\":1977:1982   */\n          dup2\n            /* \"#utility.yul\":1959:1983   */\n          tag_149\n          jump\t// in\n        tag_186:\n            /* \"#utility.yul\":1952:1957   */\n          dup2\n            /* \"#utility.yul\":1949:1984   */\n          eq\n            /* \"#utility.yul\":1939:2002   */\n          tag_187\n          jumpi\n            /* \"#utility.yul\":1998:1999   */\n          0x00\n            /* \"#utility.yul\":1995:1996   */\n          dup1\n            /* \"#utility.yul\":1988:2000   */\n          revert\n            /* \"#utility.yul\":1939:2002   */\n        tag_187:\n            /* \"#utility.yul\":1886:2008   */\n          pop\n          jump\t// out\n            /* \"#utility.yul\":2014:2153   */\n        tag_151:\n            /* \"#utility.yul\":2060:2065   */\n          0x00\n            /* \"#utility.yul\":2098:2104   */\n          dup2\n            /* \"#utility.yul\":2085:2105   */\n          calldataload\n            /* \"#utility.yul\":2076:2105   */\n          swap1\n          pop\n            /* \"#utility.yul\":2114:2147   */\n          tag_189\n            /* \"#utility.yul\":2141:2146   */\n          dup2\n            /* \"#utility.yul\":2114:2147   */\n          tag_150\n          jump\t// in\n        tag_189:\n            /* \"#utility.yul\":2014:2153   */\n          swap3\n          swap2\n          pop\n          pop\n          jump\t// out\n            /* \"#utility.yul\":2187:3090   */\n        tag_152:\n            /* \"#utility.yul\":2258:2263   */\n          0x00\n            /* \"#utility.yul\":2302:2306   */\n          0x80\n            /* \"#utility.yul\":2290:2299   */\n          dup3\n            /* \"#utility.yul\":2285:2288   */\n          dup5\n            /* \"#utility.yul\":2281:2300   */\n          sub\n            /* \"#utility.yul\":2277:2307   */\n          slt\n            /* \"#utility.yul\":2274:2391   */\n          iszero\n          tag_191\n          jumpi\n            /* \"#utility.yul\":2310:2389   */\n          tag_192\n          tag_139\n          jump\t// in\n        tag_192:\n            /* \"#utility.yul\":2274:2391   */\n        tag_191:\n            /* \"#utility.yul\":2409:2430   */\n          tag_193\n            /* \"#utility.yul\":2425:2429   */\n          0x80\n            /* \"#utility.yul\":2409:2430   */\n          tag_143\n          jump\t// in\n        tag_193:\n            /* \"#utility.yul\":2400:2430   */\n          swap1\n          pop\n            /* \"#utility.yul\":2491:2492   */\n          0x00\n            /* \"#utility.yul\":2531:2580   */\n          tag_194\n            /* \"#utility.yul\":2576:2579   */\n          dup5\n            /* \"#utility.yul\":2567:2573   */\n          dup3\n            /* \"#utility.yul\":2556:2565   */\n          dup6\n            /* \"#utility.yul\":2552:2574   */\n          add\n            /* \"#utility.yul\":2531:2580   */\n          tag_148\n          jump\t// in\n        tag_194:\n            /* \"#utility.yul\":2524:2528   */\n          0x00\n            /* \"#utility.yul\":2517:2522   */\n          dup4\n            /* \"#utility.yul\":2513:2529   */\n          add\n            /* \"#utility.yul\":2506:2581   */\n          mstore\n            /* \"#utility.yul\":2440:2592   */\n          pop\n            /* \"#utility.yul\":2653:2655   */\n          0x20\n            /* \"#utility.yul\":2694:2743   */\n          tag_195\n            /* \"#utility.yul\":2739:2742   */\n          dup5\n            /* \"#utility.yul\":2730:2736   */\n          dup3\n            /* \"#utility.yul\":2719:2728   */\n          dup6\n            /* \"#utility.yul\":2715:2737   */\n          add\n            /* \"#utility.yul\":2694:2743   */\n          tag_151\n          jump\t// in\n        tag_195:\n            /* \"#utility.yul\":2687:2691   */\n          0x20\n            /* \"#utility.yul\":2680:2685   */\n          dup4\n            /* \"#utility.yul\":2676:2692   */\n          add\n            /* \"#utility.yul\":2669:2744   */\n          mstore\n            /* \"#utility.yul\":2602:2755   */\n          pop\n            /* \"#utility.yul\":2815:2817   */\n          0x40\n            /* \"#utility.yul\":2856:2905   */\n          tag_196\n            /* \"#utility.yul\":2901:2904   */\n          dup5\n            /* \"#utility.yul\":2892:2898   */\n          dup3\n            /* \"#utility.yul\":2881:2890   */\n          dup6\n            /* \"#utility.yul\":2877:2899   */\n          add\n            /* \"#utility.yul\":2856:2905   */\n          tag_151\n          jump\t// in\n        tag_196:\n            /* \"#utility.yul\":2849:2853   */\n          0x40\n            /* \"#utility.yul\":2842:2847   */\n          dup4\n            /* \"#utility.yul\":2838:2854   */\n          add\n            /* \"#utility.yul\":2831:2906   */\n          mstore\n            /* \"#utility.yul\":2765:2917   */\n          pop\n            /* \"#utility.yul\":2981:2983   */\n          0x60\n            /* \"#utility.yul\":3022:3071   */\n          tag_197\n            /* \"#utility.yul\":3067:3070   */\n          dup5\n            /* \"#utility.yul\":3058:3064   */\n          dup3\n            /* \"#utility.yul\":3047:3056   */\n          dup6\n            /* \"#utility.yul\":3043:3065   */\n          add\n            /* \"#utility.yul\":3022:3071   */\n          tag_151\n          jump\t// in\n        tag_197:\n            /* \"#utility.yul\":3015:3019   */\n          0x60\n            /* \"#utility.yul\":3008:3013   */\n          dup4\n            /* \"#utility.yul\":3004:3020   */\n          add\n            /* \"#utility.yul\":2997:3072   */\n          mstore\n            /* \"#utility.yul\":2927:3083   */\n          pop\n            /* \"#utility.yul\":2187:3090   */\n          swap3\n          swap2\n          pop\n          pop\n          jump\t// out\n            /* \"#utility.yul\":3096:3470   */\n        tag_8:\n            /* \"#utility.yul\":3177:3183   */\n          0x00\n            /* \"#utility.yul\":3226:3229   */\n          0x80\n            /* \"#utility.yul\":3214:3223   */\n          dup3\n            /* \"#utility.yul\":3205:3212   */\n          dup5\n            /* \"#utility.yul\":3201:3224   */\n          sub\n            /* \"#utility.yul\":3197:3230   */\n          slt\n            /* \"#utility.yul\":3194:3314   */\n          iszero\n          tag_199\n          jumpi\n            /* \"#utility.yul\":3233:3312   */\n          tag_200\n          tag_137\n          jump\t// in\n        tag_200:\n            /* \"#utility.yul\":3194:3314   */\n        tag_199:\n            /* \"#utility.yul\":3353:3354   */\n          0x00\n            /* \"#utility.yul\":3378:3453   */\n          tag_201\n            /* \"#utility.yul\":3445:3452   */\n          dup5\n            /* \"#utility.yul\":3436:3442   */\n          dup3\n            /* \"#utility.yul\":3425:3434   */\n          dup6\n            /* \"#utility.yul\":3421:3443   */\n          add\n            /* \"#utility.yul\":3378:3453   */\n          tag_152\n          jump\t// in\n        tag_201:\n            /* \"#utility.yul\":3368:3453   */\n          swap2\n          pop\n            /* \"#utility.yul\":3324:3463   */\n          pop\n            /* \"#utility.yul\":3096:3470   */\n          swap3\n          swap2\n          pop\n          pop\n          jump\t// out\n            /* \"#utility.yul\":3476:3584   */\n        tag_153:\n            /* \"#utility.yul\":3553:3577   */\n          tag_203\n            /* \"#utility.yul\":3571:3576   */\n          dup2\n            /* \"#utility.yul\":3553:3577   */\n          tag_146\n          jump\t// in\n        tag_203:\n            /* \"#utility.yul\":3548:3551   */\n          dup3\n            /* \"#utility.yul\":3541:3578   */\n          mstore\n            /* \"#utility.yul\":3476:3584   */\n          pop\n          pop\n          jump\t// out\n            /* \"#utility.yul\":3590:3698   */\n        tag_154:\n            /* \"#utility.yul\":3667:3691   */\n          tag_205\n            /* \"#utility.yul\":3685:3690   */\n          dup2\n            /* \"#utility.yul\":3667:3691   */\n          tag_149\n          jump\t// in\n        tag_205:\n            /* \"#utility.yul\":3662:3665   */\n          dup3\n            /* \"#utility.yul\":3655:3692   */\n          mstore\n            /* \"#utility.yul\":3590:3698   */\n          pop\n          pop\n          jump\t// out\n            /* \"#utility.yul\":3756:4615   */\n        tag_155:\n            /* \"#utility.yul\":3897:3901   */\n          0x80\n            /* \"#utility.yul\":3892:3895   */\n          dup3\n            /* \"#utility.yul\":3888:3902   */\n          add\n            /* \"#utility.yul\":3986:3990   */\n          0x00\n            /* \"#utility.yul\":3979:3984   */\n          dup3\n            /* \"#utility.yul\":3975:3991   */\n          add\n            /* \"#utility.yul\":3969:3992   */\n          mload\n            /* \"#utility.yul\":4005:4068   */\n          tag_207\n            /* \"#utility.yul\":4062:4066   */\n          0x00\n            /* \"#utility.yul\":4057:4060   */\n          dup6\n            /* \"#utility.yul\":4053:4067   */\n          add\n            /* \"#utility.yul\":4039:4051   */\n          dup3\n            /* \"#utility.yul\":4005:4068   */\n          tag_153\n          jump\t// in\n        tag_207:\n            /* \"#utility.yul\":3912:4078   */\n          pop\n            /* \"#utility.yul\":4162:4166   */\n          0x20\n            /* \"#utility.yul\":4155:4160   */\n          dup3\n            /* \"#utility.yul\":4151:4167   */\n          add\n            /* \"#utility.yul\":4145:4168   */\n          mload\n            /* \"#utility.yul\":4181:4244   */\n          tag_208\n            /* \"#utility.yul\":4238:4242   */\n          0x20\n            /* \"#utility.yul\":4233:4236   */\n          dup6\n            /* \"#utility.yul\":4229:4243   */\n          add\n            /* \"#utility.yul\":4215:4227   */\n          dup3\n            /* \"#utility.yul\":4181:4244   */\n          tag_154\n          jump\t// in\n        tag_208:\n            /* \"#utility.yul\":4088:4254   */\n          pop\n            /* \"#utility.yul\":4337:4341   */\n          0x40\n            /* \"#utility.yul\":4330:4335   */\n          dup3\n            /* \"#utility.yul\":4326:4342   */\n          add\n            /* \"#utility.yul\":4320:4343   */\n          mload\n            /* \"#utility.yul\":4356:4419   */\n          tag_209\n            /* \"#utility.yul\":4413:4417   */\n          0x40\n            /* \"#utility.yul\":4408:4411   */\n          dup6\n            /* \"#utility.yul\":4404:4418   */\n          add\n            /* \"#utility.yul\":4390:4402   */\n          dup3\n            /* \"#utility.yul\":4356:4419   */\n          tag_154\n          jump\t// in\n        tag_209:\n            /* \"#utility.yul\":4264:4429   */\n          pop\n            /* \"#utility.yul\":4516:4520   */\n          0x60\n            /* \"#utility.yul\":4509:4514   */\n          dup3\n            /* \"#utility.yul\":4505:4521   */\n          add\n            /* \"#utility.yul\":4499:4522   */\n          mload\n            /* \"#utility.yul\":4535:4598   */\n          tag_210\n            /* \"#utility.yul\":4592:4596   */\n          0x60\n            /* \"#utility.yul\":4587:4590   */\n          dup6\n            /* \"#utility.yul\":4583:4597   */\n          add\n            /* \"#utility.yul\":4569:4581   */\n          dup3\n            /* \"#utility.yul\":4535:4598   */\n          tag_154\n          jump\t// in\n        tag_210:\n            /* \"#utility.yul\":4439:4608   */\n          pop\n            /* \"#utility.yul\":3866:4615   */\n          pop\n            /* \"#utility.yul\":3756:4615   */\n          pop\n          pop\n          jump\t// out\n            /* \"#utility.yul\":4621:4932   */\n        tag_15:\n            /* \"#utility.yul\":4758:4762   */\n          0x00\n            /* \"#utility.yul\":4796:4799   */\n          0x80\n            /* \"#utility.yul\":4785:4794   */\n          dup3\n            /* \"#utility.yul\":4781:4800   */\n          add\n            /* \"#utility.yul\":4773:4800   */\n          swap1\n          pop\n            /* \"#utility.yul\":4810:4925   */\n          tag_212\n            /* \"#utility.yul\":4922:4923   */\n          0x00\n            /* \"#utility.yul\":4911:4920   */\n          dup4\n            /* \"#utility.yul\":4907:4924   */\n          add\n            /* \"#utility.yul\":4898:4904   */\n          dup5\n            /* \"#utility.yul\":4810:4925   */\n          tag_155\n          jump\t// in\n        tag_212:\n            /* \"#utility.yul\":4621:4932   */\n          swap3\n          swap2\n          pop\n          pop\n          jump\t// out\n            /* \"#utility.yul\":4938:5118   */\n        tag_156:\n            /* \"#utility.yul\":4986:5063   */\n          0x4e487b7100000000000000000000000000000000000000000000000000000000\n            /* \"#utility.yul\":4983:4984   */\n          0x00\n            /* \"#utility.yul\":4976:5064   */\n          mstore\n            /* \"#utility.yul\":5083:5087   */\n          0x11\n            /* \"#utility.yul\":5080:5081   */\n          0x04\n            /* \"#utility.yul\":5073:5088   */\n          mstore\n            /* \"#utility.yul\":5107:5111   */\n          0x24\n            /* \"#utility.yul\":5104:5105   */\n          0x00\n            /* \"#utility.yul\":5097:5112   */\n          revert\n            /* \"#utility.yul\":5124:5318   */\n        tag_19:\n            /* \"#utility.yul\":5164:5168   */\n          0x00\n            /* \"#utility.yul\":5184:5204   */\n          tag_215\n            /* \"#utility.yul\":5202:5203   */\n          dup3\n            /* \"#utility.yul\":5184:5204   */\n          tag_149\n          jump\t// in\n        tag_215:\n            /* \"#utility.yul\":5179:5204   */\n          swap2\n          pop\n            /* \"#utility.yul\":5218:5238   */\n          tag_216\n            /* \"#utility.yul\":5236:5237   */\n          dup4\n            /* \"#utility.yul\":5218:5238   */\n          tag_149\n          jump\t// in\n        tag_216:\n            /* \"#utility.yul\":5213:5238   */\n          swap3\n          pop\n            /* \"#utility.yul\":5262:5263   */\n          dup3\n            /* \"#utility.yul\":5259:5260   */\n          dup3\n            /* \"#utility.yul\":5255:5264   */\n          sub\n            /* \"#utility.yul\":5247:5264   */\n          swap1\n          pop\n            /* \"#utility.yul\":5286:5287   */\n          dup2\n            /* \"#utility.yul\":5280:5284   */\n          dup2\n            /* \"#utility.yul\":5277:5288   */\n          gt\n            /* \"#utility.yul\":5274:5311   */\n          iszero\n          tag_217\n          jumpi\n            /* \"#utility.yul\":5291:5309   */\n          tag_218\n          tag_156\n          jump\t// in\n        tag_218:\n            /* \"#utility.yul\":5274:5311   */\n        tag_217:\n            /* \"#utility.yul\":5124:5318   */\n          swap3\n          swap2\n          pop\n          pop\n          jump\t// out\n            /* \"#utility.yul\":5324:5504   */\n        tag_157:\n            /* \"#utility.yul\":5372:5449   */\n          0x4e487b7100000000000000000000000000000000000000000000000000000000\n            /* \"#utility.yul\":5369:5370   */\n          0x00\n            /* \"#utility.yul\":5362:5450   */\n          mstore\n            /* \"#utility.yul\":5469:5473   */\n          0x12\n            /* \"#utility.yul\":5466:5467   */\n          0x04\n            /* \"#utility.yul\":5459:5474   */\n          mstore\n            /* \"#utility.yul\":5493:5497   */\n          0x24\n            /* \"#utility.yul\":5490:5491   */\n          0x00\n            /* \"#utility.yul\":5483:5498   */\n          revert\n            /* \"#utility.yul\":5510:5695   */\n        tag_24:\n            /* \"#utility.yul\":5550:5551   */\n          0x00\n            /* \"#utility.yul\":5567:5587   */\n          tag_221\n            /* \"#utility.yul\":5585:5586   */\n          dup3\n            /* \"#utility.yul\":5567:5587   */\n          tag_149\n          jump\t// in\n        tag_221:\n            /* \"#utility.yul\":5562:5587   */\n          swap2\n          pop\n            /* \"#utility.yul\":5601:5621   */\n          tag_222\n            /* \"#utility.yul\":5619:5620   */\n          dup4\n            /* \"#utility.yul\":5601:5621   */\n          tag_149\n          jump\t// in\n        tag_222:\n            /* \"#utility.yul\":5596:5621   */\n          swap3\n          pop\n            /* \"#utility.yul\":5640:5641   */\n          dup3\n            /* \"#utility.yul\":5630:5665   */\n          tag_223\n          jumpi\n            /* \"#utility.yul\":5645:5663   */\n          tag_224\n          tag_157\n          jump\t// in\n        tag_224:\n            /* \"#utility.yul\":5630:5665   */\n        tag_223:\n            /* \"#utility.yul\":5687:5688   */\n          dup3\n            /* \"#utility.yul\":5684:5685   */\n          dup3\n            /* \"#utility.yul\":5680:5689   */\n          div\n            /* \"#utility.yul\":5675:5689   */\n          swap1\n          pop\n            /* \"#utility.yul\":5510:5695   */\n          swap3\n          swap2\n          pop\n          pop\n          jump\t// out\n            /* \"#utility.yul\":5701:5870   */\n        tag_158:\n            /* \"#utility.yul\":5785:5796   */\n          0x00\n            /* \"#utility.yul\":5819:5825   */\n          dup3\n            /* \"#utility.yul\":5814:5817   */\n          dup3\n            /* \"#utility.yul\":5807:5826   */\n          mstore\n            /* \"#utility.yul\":5859:5863   */\n          0x20\n            /* \"#utility.yul\":5854:5857   */\n          dup3\n            /* \"#utility.yul\":5850:5864   */\n          add\n            /* \"#utility.yul\":5835:5864   */\n          swap1\n          pop\n            /* \"#utility.yul\":5701:5870   */\n          swap3\n          swap2\n          pop\n          pop\n          jump\t// out\n            /* \"#utility.yul\":5876:6039   */\n        tag_159:\n            /* \"#utility.yul\":6016:6031   */\n          0x6865617020697320656d70747900000000000000000000000000000000000000\n            /* \"#utility.yul\":6012:6013   */\n          0x00\n            /* \"#utility.yul\":6004:6010   */\n          dup3\n            /* \"#utility.yul\":6000:6014   */\n          add\n            /* \"#utility.yul\":5993:6032   */\n          mstore\n            /* \"#utility.yul\":5876:6039   */\n          pop\n          jump\t// out\n            /* \"#utility.yul\":6045:6411   */\n        tag_160:\n            /* \"#utility.yul\":6187:6190   */\n          0x00\n            /* \"#utility.yul\":6208:6275   */\n          tag_228\n            /* \"#utility.yul\":6272:6274   */\n          0x0d\n            /* \"#utility.yul\":6267:6270   */\n          dup4\n            /* \"#utility.yul\":6208:6275   */\n          tag_158\n          jump\t// in\n        tag_228:\n            /* \"#utility.yul\":6201:6275   */\n          swap2\n          pop\n            /* \"#utility.yul\":6284:6377   */\n          tag_229\n            /* \"#utility.yul\":6373:6376   */\n          dup3\n            /* \"#utility.yul\":6284:6377   */\n          tag_159\n          jump\t// in\n        tag_229:\n            /* \"#utility.yul\":6402:6404   */\n          0x20\n            /* \"#utility.yul\":6397:6400   */\n          dup3\n            /* \"#utility.yul\":6393:6405   */\n          add\n            /* \"#utility.yul\":6386:6405   */\n          swap1\n          pop\n            /* \"#utility.yul\":6045:6411   */\n          swap2\n          swap1\n          pop\n          jump\t// out\n            /* \"#utility.yul\":6417:6836   */\n        tag_34:\n            /* \"#utility.yul\":6583:6587   */\n          0x00\n            /* \"#utility.yul\":6621:6623   */\n          0x20\n            /* \"#utility.yul\":6610:6619   */\n          dup3\n            /* \"#utility.yul\":6606:6624   */\n          add\n            /* \"#utility.yul\":6598:6624   */\n          swap1\n          pop\n            /* \"#utility.yul\":6670:6679   */\n          dup2\n            /* \"#utility.yul\":6664:6668   */\n          dup2\n            /* \"#utility.yul\":6660:6680   */\n          sub\n            /* \"#utility.yul\":6656:6657   */\n          0x00\n            /* \"#utility.yul\":6645:6654   */\n          dup4\n            /* \"#utility.yul\":6641:6658   */\n          add\n            /* \"#utility.yul\":6634:6681   */\n          mstore\n            /* \"#utility.yul\":6698:6829   */\n          tag_231\n            /* \"#utility.yul\":6824:6828   */\n          dup2\n            /* \"#utility.yul\":6698:6829   */\n          tag_160\n          jump\t// in\n        tag_231:\n            /* \"#utility.yul\":6690:6829   */\n          swap1\n          pop\n            /* \"#utility.yul\":6417:6836   */\n          swap2\n          swap1\n          pop\n          jump\t// out\n            /* \"#utility.yul\":6842:7022   */\n        tag_38:\n            /* \"#utility.yul\":6890:6967   */\n          0x4e487b7100000000000000000000000000000000000000000000000000000000\n            /* \"#utility.yul\":6887:6888   */\n          0x00\n            /* \"#utility.yul\":6880:6968   */\n          mstore\n            /* \"#utility.yul\":6987:6991   */\n          0x32\n            /* \"#utility.yul\":6984:6985   */\n          0x04\n            /* \"#utility.yul\":6977:6992   */\n          mstore\n            /* \"#utility.yul\":7011:7015   */\n          0x24\n            /* \"#utility.yul\":7008:7009   */\n          0x00\n            /* \"#utility.yul\":7001:7016   */\n          revert\n            /* \"#utility.yul\":7028:7208   */\n        tag_49:\n            /* \"#utility.yul\":7076:7153   */\n          0x4e487b7100000000000000000000000000000000000000000000000000000000\n            /* \"#utility.yul\":7073:7074   */\n          0x00\n            /* \"#utility.yul\":7066:7154   */\n          mstore\n            /* \"#utility.yul\":7173:7177   */\n          0x31\n            /* \"#utility.yul\":7170:7171   */\n          0x04\n            /* \"#utility.yul\":7163:7178   */\n          mstore\n            /* \"#utility.yul\":7197:7201   */\n          0x24\n            /* \"#utility.yul\":7194:7195   */\n          0x00\n            /* \"#utility.yul\":7187:7202   */\n          revert\n            /* \"#utility.yul\":7214:7624   */\n        tag_122:\n            /* \"#utility.yul\":7254:7261   */\n          0x00\n            /* \"#utility.yul\":7277:7297   */\n          tag_235\n            /* \"#utility.yul\":7295:7296   */\n          dup3\n            /* \"#utility.yul\":7277:7297   */\n          tag_149\n          jump\t// in\n        tag_235:\n            /* \"#utility.yul\":7272:7297   */\n          swap2\n          pop\n            /* \"#utility.yul\":7311:7331   */\n          tag_236\n            /* \"#utility.yul\":7329:7330   */\n          dup4\n            /* \"#utility.yul\":7311:7331   */\n          tag_149\n          jump\t// in\n        tag_236:\n            /* \"#utility.yul\":7306:7331   */\n          swap3\n          pop\n            /* \"#utility.yul\":7366:7367   */\n          dup3\n            /* \"#utility.yul\":7363:7364   */\n          dup3\n            /* \"#utility.yul\":7359:7368   */\n          mul\n            /* \"#utility.yul\":7388:7418   */\n          tag_237\n            /* \"#utility.yul\":7406:7417   */\n          dup2\n            /* \"#utility.yul\":7388:7418   */\n          tag_149\n          jump\t// in\n        tag_237:\n            /* \"#utility.yul\":7377:7418   */\n          swap2\n          pop\n            /* \"#utility.yul\":7567:7568   */\n          dup3\n            /* \"#utility.yul\":7558:7565   */\n          dup3\n            /* \"#utility.yul\":7554:7569   */\n          div\n            /* \"#utility.yul\":7551:7552   */\n          dup5\n            /* \"#utility.yul\":7548:7570   */\n          eq\n            /* \"#utility.yul\":7528:7529   */\n          dup4\n            /* \"#utility.yul\":7521:7530   */\n          iszero\n            /* \"#utility.yul\":7501:7584   */\n          or\n            /* \"#utility.yul\":7478:7617   */\n          tag_238\n          jumpi\n            /* \"#utility.yul\":7597:7615   */\n          tag_239\n          tag_156\n          jump\t// in\n        tag_239:\n            /* \"#utility.yul\":7478:7617   */\n        tag_238:\n            /* \"#utility.yul\":7262:7624   */\n          pop\n            /* \"#utility.yul\":7214:7624   */\n          swap3\n          swap2\n          pop\n          pop\n          jump\t// out\n            /* \"#utility.yul\":7630:7821   */\n        tag_124:\n            /* \"#utility.yul\":7670:7673   */\n          0x00\n            /* \"#utility.yul\":7689:7709   */\n          tag_241\n            /* \"#utility.yul\":7707:7708   */\n          dup3\n            /* \"#utility.yul\":7689:7709   */\n          tag_149\n          jump\t// in\n        tag_241:\n            /* \"#utility.yul\":7684:7709   */\n          swap2\n          pop\n            /* \"#utility.yul\":7723:7743   */\n          tag_242\n            /* \"#utility.yul\":7741:7742   */\n          dup4\n            /* \"#utility.yul\":7723:7743   */\n          tag_149\n          jump\t// in\n        tag_242:\n            /* \"#utility.yul\":7718:7743   */\n          swap3\n          pop\n            /* \"#utility.yul\":7766:7767   */\n          dup3\n            /* \"#utility.yul\":7763:7764   */\n          dup3\n            /* \"#utility.yul\":7759:7768   */\n          add\n            /* \"#utility.yul\":7752:7768   */\n          swap1\n          pop\n            /* \"#utility.yul\":7787:7790   */\n          dup1\n            /* \"#utility.yul\":7784:7785   */\n          dup3\n            /* \"#utility.yul\":7781:7791   */\n          gt\n            /* \"#utility.yul\":7778:7814   */\n          iszero\n          tag_243\n          jumpi\n            /* \"#utility.yul\":7794:7812   */\n          tag_244\n          tag_156\n          jump\t// in\n        tag_244:\n            /* \"#utility.yul\":7778:7814   */\n        tag_243:\n            /* \"#utility.yul\":7630:7821   */\n          swap3\n          swap2\n          pop\n          pop\n          jump\t// out\n\n        auxdata: 0xa2646970667358221220488b105e9caea08287b7afddd23ecdd8d0aac1eae078021cfa62bb8bd2ba38f364736f6c63430008130033\n    }\n}\n",
				"bytecode": {
					"linkReferences": {},
					"object": "608060405273d9145cce52d386f254917e481eb44e9943f39138600260006101000a81548173ffffffffffffffffffffffffffffffffffffffff021916908373ffffffffffffffffffffffffffffffffffffffff16021790555034801561006557600080fd5b506040516100729061013c565b604051809103906000f08015801561008e573d6000803e3d6000fd5b506000806101000a81548173ffffffffffffffffffffffffffffffffffffffff021916908373ffffffffffffffffffffffffffffffffffffffff1602179055506040516100da9061014a565b604051809103906000f0801580156100f6573d6000803e3d6000fd5b50600160006101000a81548173ffffffffffffffffffffffffffffffffffffffff021916908373ffffffffffffffffffffffffffffffffffffffff160217905550610158565b611020806200178f83390190565b61100180620027af83390190565b61162780620001686000396000f3fe60806040526004361061003f5760003560e01c8063018a25e814610044578063142ee8d81461006f57806343d32e9c1461008b578063cd61a95a146100b6575b600080fd5b34801561005057600080fd5b506100596100df565b60405161006691906110bf565b60405180910390f35b61008960048036038101906100849190611115565b61017a565b005b34801561009757600080fd5b506100a061099d565b6040516100ad91906110bf565b60405180910390f35b3480156100c257600080fd5b506100dd60048036038101906100d89190611115565b610a39565b005b60008060009054906101000a900473ffffffffffffffffffffffffffffffffffffffff1673ffffffffffffffffffffffffffffffffffffffff1663fe6dcdba6040518163ffffffff1660e01b8152600401608060405180830381865afa15801561014d573d6000803e3d6000fd5b505050506040513d601f19601f8201168201806040525081019061017191906112d1565b60400151905090565b80670de0b6b3a76400008361018f919061132d565b610199919061132d565b34146101a457600080fd5b8060008054906101000a900473ffffffffffffffffffffffffffffffffffffffff1673ffffffffffffffffffffffffffffffffffffffff1663fe6dcdba6040518163ffffffff1660e01b8152600401608060405180830381865afa158015610210573d6000803e3d6000fd5b505050506040513d601f19601f8201168201806040525081019061023491906112d1565b60400151106102ff5760008054906101000a900473ffffffffffffffffffffffffffffffffffffffff1673ffffffffffffffffffffffffffffffffffffffff16637829c46960405180608001604052803373ffffffffffffffffffffffffffffffffffffffff168152602001858152602001848152602001428152506040518263ffffffff1660e01b81526004016102cc91906113e2565b600060405180830381600087803b1580156102e657600080fd5b505af11580156102fa573d6000803e3d6000fd5b505050505b80600160009054906101000a900473ffffffffffffffffffffffffffffffffffffffff1673ffffffffffffffffffffffffffffffffffffffff1663fe6dcdba6040518163ffffffff1660e01b8152600401608060405180830381865afa15801561036d573d6000803e3d6000fd5b505050506040513d601f19601f820116820180604052508101906103919190611475565b60400151116109995780600160009054906101000a900473ffffffffffffffffffffffffffffffffffffffff1673ffffffffffffffffffffffffffffffffffffffff1663fe6dcdba6040518163ffffffff1660e01b8152600401608060405180830381865afa158015610408573d6000803e3d6000fd5b505050506040513d601f19601f8201168201806040525081019061042c9190611475565b60400151036108cd575b80600160009054906101000a900473ffffffffffffffffffffffffffffffffffffffff1673ffffffffffffffffffffffffffffffffffffffff1663fe6dcdba6040518163ffffffff1660e01b8152600401608060405180830381865afa1580156104a4573d6000803e3d6000fd5b505050506040513d601f19601f820116820180604052508101906104c89190611475565b60400151036108cc5781600160009054906101000a900473ffffffffffffffffffffffffffffffffffffffff1673ffffffffffffffffffffffffffffffffffffffff1663fe6dcdba6040518163ffffffff1660e01b8152600401608060405180830381865afa15801561053f573d6000803e3d6000fd5b505050506040513d601f19601f820116820180604052508101906105639190611475565b6020015111156107a357600260009054906101000a900473ffffffffffffffffffffffffffffffffffffffff1673ffffffffffffffffffffffffffffffffffffffff166323b872dd3033856040518463ffffffff1660e01b81526004016105cc939291906114b1565b6020604051808303816000875af11580156105eb573d6000803e3d6000fd5b505050506040513d601f19601f8201168201806040525081019061060f9190611520565b506000600160009054906101000a900473ffffffffffffffffffffffffffffffffffffffff1673ffffffffffffffffffffffffffffffffffffffff1663fe6dcdba6040518163ffffffff1660e01b8152600401608060405180830381865afa15801561067f573d6000803e3d6000fd5b505050506040513d601f19601f820116820180604052508101906106a39190611475565b6000015190508073ffffffffffffffffffffffffffffffffffffffff166108fc849081150290604051600060405180830381858888f193505050501580156106ef573d6000803e3d6000fd5b5082600160009054906101000a900473ffffffffffffffffffffffffffffffffffffffff1673ffffffffffffffffffffffffffffffffffffffff1663fe6dcdba6040518163ffffffff1660e01b8152600401608060405180830381865afa15801561075e573d6000803e3d6000fd5b505050506040513d601f19601f820116820180604052508101906107829190611475565b602001818151610792919061154d565b9150818152505060009250506108cc565b600160009054906101000a900473ffffffffffffffffffffffffffffffffffffffff1673ffffffffffffffffffffffffffffffffffffffff1663fe6dcdba6040518163ffffffff1660e01b8152600401608060405180830381865afa158015610810573d6000803e3d6000fd5b505050506040513d601f19601f820116820180604052508101906108349190611475565b6020015182610843919061154d565b9150600160009054906101000a900473ffffffffffffffffffffffffffffffffffffffff1673ffffffffffffffffffffffffffffffffffffffff1663a4ece52c6040518163ffffffff1660e01b8152600401600060405180830381600087803b1580156108af57600080fd5b505af11580156108c3573d6000803e3d6000fd5b50505050610436565b5b60008211156109985760008054906101000a900473ffffffffffffffffffffffffffffffffffffffff1673ffffffffffffffffffffffffffffffffffffffff16637829c46960405180608001604052803373ffffffffffffffffffffffffffffffffffffffff168152602001858152602001848152602001428152506040518263ffffffff1660e01b815260040161096591906113e2565b600060405180830381600087803b15801561097f57600080fd5b505af1158015610993573d6000803e3d6000fd5b505050505b5b5050565b6000600160009054906101000a900473ffffffffffffffffffffffffffffffffffffffff1673ffffffffffffffffffffffffffffffffffffffff1663fe6dcdba6040518163ffffffff1660e01b8152600401608060405180830381865afa158015610a0c573d6000803e3d6000fd5b505050506040513d601f19601f82011682018060405250810190610a309190611475565b60400151905090565b80600160009054906101000a900473ffffffffffffffffffffffffffffffffffffffff1673ffffffffffffffffffffffffffffffffffffffff1663fe6dcdba6040518163ffffffff1660e01b8152600401608060405180830381865afa158015610aa7573d6000803e3d6000fd5b505050506040513d601f19601f82011682018060405250810190610acb9190611475565b6040015111610b9857600160009054906101000a900473ffffffffffffffffffffffffffffffffffffffff1673ffffffffffffffffffffffffffffffffffffffff16637829c46960405180608001604052803373ffffffffffffffffffffffffffffffffffffffff168152602001858152602001848152602001428152506040518263ffffffff1660e01b8152600401610b6591906115d6565b600060405180830381600087803b158015610b7f57600080fd5b505af1158015610b93573d6000803e3d6000fd5b505050505b8060008054906101000a900473ffffffffffffffffffffffffffffffffffffffff1673ffffffffffffffffffffffffffffffffffffffff1663fe6dcdba6040518163ffffffff1660e01b8152600401608060405180830381865afa158015610c04573d6000803e3d6000fd5b505050506040513d601f19601f82011682018060405250810190610c2891906112d1565b60400151106110a2578060008054906101000a900473ffffffffffffffffffffffffffffffffffffffff1673ffffffffffffffffffffffffffffffffffffffff1663fe6dcdba6040518163ffffffff1660e01b8152600401608060405180830381865afa158015610c9d573d6000803e3d6000fd5b505050506040513d601f19601f82011682018060405250810190610cc191906112d1565b6040015103610fd4575b8060008054906101000a900473ffffffffffffffffffffffffffffffffffffffff1673ffffffffffffffffffffffffffffffffffffffff1663fe6dcdba6040518163ffffffff1660e01b8152600401608060405180830381865afa158015610d37573d6000803e3d6000fd5b505050506040513d601f19601f82011682018060405250810190610d5b91906112d1565b6040015103610fd3578160008054906101000a900473ffffffffffffffffffffffffffffffffffffffff1673ffffffffffffffffffffffffffffffffffffffff1663fe6dcdba6040518163ffffffff1660e01b8152600401608060405180830381865afa158015610dd0573d6000803e3d6000fd5b505050506040513d601f19601f82011682018060405250810190610df491906112d1565b602001511115610eae578160008054906101000a900473ffffffffffffffffffffffffffffffffffffffff1673ffffffffffffffffffffffffffffffffffffffff1663fe6dcdba6040518163ffffffff1660e01b8152600401608060405180830381865afa158015610e6a573d6000803e3d6000fd5b505050506040513d601f19601f82011682018060405250810190610e8e91906112d1565b602001818151610e9e919061154d565b9150818152505060009150610fd3565b60008054906101000a900473ffffffffffffffffffffffffffffffffffffffff1673ffffffffffffffffffffffffffffffffffffffff1663fe6dcdba6040518163ffffffff1660e01b8152600401608060405180830381865afa158015610f19573d6000803e3d6000fd5b505050506040513d601f19601f82011682018060405250810190610f3d91906112d1565b6020015182610f4c919061154d565b915060008054906101000a900473ffffffffffffffffffffffffffffffffffffffff1673ffffffffffffffffffffffffffffffffffffffff1663a4ece52c6040518163ffffffff1660e01b8152600401600060405180830381600087803b158015610fb657600080fd5b505af1158015610fca573d6000803e3d6000fd5b50505050610ccb565b5b60008211156110a157600160009054906101000a900473ffffffffffffffffffffffffffffffffffffffff1673ffffffffffffffffffffffffffffffffffffffff16637829c46960405180608001604052803373ffffffffffffffffffffffffffffffffffffffff168152602001858152602001848152602001428152506040518263ffffffff1660e01b815260040161106e91906115d6565b600060405180830381600087803b15801561108857600080fd5b505af115801561109c573d6000803e3d6000fd5b505050505b5b5050565b6000819050919050565b6110b9816110a6565b82525050565b60006020820190506110d460008301846110b0565b92915050565b6000604051905090565b600080fd5b6110f2816110a6565b81146110fd57600080fd5b50565b60008135905061110f816110e9565b92915050565b6000806040838503121561112c5761112b6110e4565b5b600061113a85828601611100565b925050602061114b85828601611100565b9150509250929050565b600080fd5b6000601f19601f8301169050919050565b7f4e487b7100000000000000000000000000000000000000000000000000000000600052604160045260246000fd5b6111a38261115a565b810181811067ffffffffffffffff821117156111c2576111c161116b565b5b80604052505050565b60006111d56110da565b90506111e1828261119a565b919050565b600073ffffffffffffffffffffffffffffffffffffffff82169050919050565b6000611211826111e6565b9050919050565b61122181611206565b811461122c57600080fd5b50565b60008151905061123e81611218565b92915050565b600081519050611253816110e9565b92915050565b60006080828403121561126f5761126e611155565b5b61127960806111cb565b905060006112898482850161122f565b600083015250602061129d84828501611244565b60208301525060406112b184828501611244565b60408301525060606112c584828501611244565b60608301525092915050565b6000608082840312156112e7576112e66110e4565b5b60006112f584828501611259565b91505092915050565b7f4e487b7100000000000000000000000000000000000000000000000000000000600052601160045260246000fd5b6000611338826110a6565b9150611343836110a6565b9250828202611351816110a6565b91508282048414831517611368576113676112fe565b5b5092915050565b61137881611206565b82525050565b611387816110a6565b82525050565b6080820160008201516113a3600085018261136f565b5060208201516113b6602085018261137e565b5060408201516113c9604085018261137e565b5060608201516113dc606085018261137e565b50505050565b60006080820190506113f7600083018461138d565b92915050565b60006080828403121561141357611412611155565b5b61141d60806111cb565b9050600061142d8482850161122f565b600083015250602061144184828501611244565b602083015250604061145584828501611244565b604083015250606061146984828501611244565b60608301525092915050565b60006080828403121561148b5761148a6110e4565b5b6000611499848285016113fd565b91505092915050565b6114ab81611206565b82525050565b60006060820190506114c660008301866114a2565b6114d360208301856114a2565b6114e060408301846110b0565b949350505050565b60008115159050919050565b6114fd816114e8565b811461150857600080fd5b50565b60008151905061151a816114f4565b92915050565b600060208284031215611536576115356110e4565b5b60006115448482850161150b565b91505092915050565b6000611558826110a6565b9150611563836110a6565b925082820390508181111561157b5761157a6112fe565b5b92915050565b608082016000820151611597600085018261136f565b5060208201516115aa602085018261137e565b5060408201516115bd604085018261137e565b5060608201516115d0606085018261137e565b50505050565b60006080820190506115eb6000830184611581565b9291505056fea264697066735822122037ca6b76a628b43fe654061517794aafa88f5c8789ae2d44abaaeaa14379594764736f6c63430008130033608060405234801561001057600080fd5b5060006040518060800160405280600073ffffffffffffffffffffffffffffffffffffffff1681526020017fffffffffffffffffffffffffffffffffffffffffffffffffffffffffffffffff81526020017fffffffffffffffffffffffffffffffffffffffffffffffffffffffffffffffff81526020017fffffffffffffffffffffffffffffffffffffffffffffffffffffffffffffffff815250908060018154018082558091505060019003906000526020600020906004020160009091909190915060008201518160000160006101000a81548173ffffffffffffffffffffffffffffffffffffffff021916908373ffffffffffffffffffffffffffffffffffffffff1602179055506020820151816001015560408201518160020155606082015181600301555050610ed68061014a6000396000f3fe608060405234801561001057600080fd5b50600436106100415760003560e01c80637829c46914610046578063a4ece52c14610062578063fe6dcdba1461006c575b600080fd5b610060600480360381019061005b9190610bd1565b61008a565b005b61006a61018b565b005b61007461039a565b6040516100819190610c71565b60405180910390f35b600081908060018154018082558091505060019003906000526020600020906004020160009091909190915060008201518160000160006101000a81548173ffffffffffffffffffffffffffffffffffffffff021916908373ffffffffffffffffffffffffffffffffffffffff1602179055506020820151816001015560408201518160020155606082015181600301555050600060016000805490506101319190610cbb565b90505b6000811115610187576000600260018361014e9190610cbb565b6101589190610d1e565b9050610164828261048f565b1561017b576101738183610741565b809150610181565b50610187565b50610134565b5050565b60008080549050116101d2576040517f08c379a00000000000000000000000000000000000000000000000000000000081526004016101c990610dac565b60405180910390fd5b600060016000805490506101e69190610cbb565b815481106101f7576101f6610dcc565b5b90600052602060002090600402016000808154811061021957610218610dcc565b5b90600052602060002090600402016000820160009054906101000a900473ffffffffffffffffffffffffffffffffffffffff168160000160006101000a81548173ffffffffffffffffffffffffffffffffffffffff021916908373ffffffffffffffffffffffffffffffffffffffff160217905550600182015481600101556002820154816002015560038201548160030155905050600060016000805490506102c39190610cbb565b815481106102d4576102d3610dcc565b5b9060005260206000209060040201600080820160006101000a81549073ffffffffffffffffffffffffffffffffffffffff02191690556001820160009055600282016000905560038201600090555050600080548061033657610335610dfb565b5b6001900381819060005260206000209060040201600080820160006101000a81549073ffffffffffffffffffffffffffffffffffffffff0219169055600182016000905560028201600090556003820160009055505090556103986000610941565b565b6103a26109e7565b60008080549050116103e9576040517f08c379a00000000000000000000000000000000000000000000000000000000081526004016103e090610dac565b60405180910390fd5b600080815481106103fd576103fc610dcc565b5b90600052602060002090600402016040518060800160405290816000820160009054906101000a900473ffffffffffffffffffffffffffffffffffffffff1673ffffffffffffffffffffffffffffffffffffffff1673ffffffffffffffffffffffffffffffffffffffff1681526020016001820154815260200160028201548152602001600382015481525050905090565b60008082815481106104a4576104a3610dcc565b5b906000526020600020906004020160020154600084815481106104ca576104c9610dcc565b5b906000526020600020906004020160020154036106eb57600082815481106104f5576104f4610dcc565b5b9060005260206000209060040201600301546000848154811061051b5761051a610dcc565b5b90600052602060002090600402016003015403610697576000828154811061054657610545610dcc565b5b9060005260206000209060040201600101546000848154811061056c5761056b610dcc565b5b90600052602060002090600402016001015403610643576000828154811061059757610596610dcc565b5b906000526020600020906004020160000160009054906101000a900473ffffffffffffffffffffffffffffffffffffffff1673ffffffffffffffffffffffffffffffffffffffff16600084815481106105f3576105f2610dcc565b5b906000526020600020906004020160000160009054906101000a900473ffffffffffffffffffffffffffffffffffffffff1673ffffffffffffffffffffffffffffffffffffffff1610905061073b565b6000828154811061065757610656610dcc565b5b9060005260206000209060040201600101546000848154811061067d5761067c610dcc565b5b90600052602060002090600402016001015410905061073b565b600082815481106106ab576106aa610dcc565b5b906000526020600020906004020160030154600084815481106106d1576106d0610dcc565b5b90600052602060002090600402016003015410905061073b565b600082815481106106ff576106fe610dcc565b5b9060005260206000209060040201600201546000848154811061072557610724610dcc565b5b9060005260206000209060040201600201541090505b92915050565b600080838154811061075657610755610dcc565b5b90600052602060002090600402016040518060800160405290816000820160009054906101000a900473ffffffffffffffffffffffffffffffffffffffff1673ffffffffffffffffffffffffffffffffffffffff1673ffffffffffffffffffffffffffffffffffffffff16815260200160018201548152602001600282015481526020016003820154815250509050600082815481106107f9576107f8610dcc565b5b90600052602060002090600402016000848154811061081b5761081a610dcc565b5b90600052602060002090600402016000820160009054906101000a900473ffffffffffffffffffffffffffffffffffffffff168160000160006101000a81548173ffffffffffffffffffffffffffffffffffffffff021916908373ffffffffffffffffffffffffffffffffffffffff16021790555060018201548160010155600282015481600201556003820154816003015590505080600083815481106108c6576108c5610dcc565b5b906000526020600020906004020160008201518160000160006101000a81548173ffffffffffffffffffffffffffffffffffffffff021916908373ffffffffffffffffffffffffffffffffffffffff160217905550602082015181600101556040820151816002015560608201518160030155905050505050565b600060018260026109529190610e2a565b61095c9190610e6c565b90506000600283600261096f9190610e2a565b6109799190610e6c565b905060008390506000805490508310801561099a5750610999838261048f565b5b156109a3578290505b600080549050821080156109bd57506109bc828261048f565b5b156109c6578190505b8381146109e1576109d78482610741565b6109e081610941565b5b50505050565b6040518060800160405280600073ffffffffffffffffffffffffffffffffffffffff1681526020016000815260200160008152602001600081525090565b6000604051905090565b600080fd5b600080fd5b6000601f19601f8301169050919050565b7f4e487b7100000000000000000000000000000000000000000000000000000000600052604160045260246000fd5b610a8282610a39565b810181811067ffffffffffffffff82111715610aa157610aa0610a4a565b5b80604052505050565b6000610ab4610a25565b9050610ac08282610a79565b919050565b600073ffffffffffffffffffffffffffffffffffffffff82169050919050565b6000610af082610ac5565b9050919050565b610b0081610ae5565b8114610b0b57600080fd5b50565b600081359050610b1d81610af7565b92915050565b6000819050919050565b610b3681610b23565b8114610b4157600080fd5b50565b600081359050610b5381610b2d565b92915050565b600060808284031215610b6f57610b6e610a34565b5b610b796080610aaa565b90506000610b8984828501610b0e565b6000830152506020610b9d84828501610b44565b6020830152506040610bb184828501610b44565b6040830152506060610bc584828501610b44565b60608301525092915050565b600060808284031215610be757610be6610a2f565b5b6000610bf584828501610b59565b91505092915050565b610c0781610ae5565b82525050565b610c1681610b23565b82525050565b608082016000820151610c326000850182610bfe565b506020820151610c456020850182610c0d565b506040820151610c586040850182610c0d565b506060820151610c6b6060850182610c0d565b50505050565b6000608082019050610c866000830184610c1c565b92915050565b7f4e487b7100000000000000000000000000000000000000000000000000000000600052601160045260246000fd5b6000610cc682610b23565b9150610cd183610b23565b9250828203905081811115610ce957610ce8610c8c565b5b92915050565b7f4e487b7100000000000000000000000000000000000000000000000000000000600052601260045260246000fd5b6000610d2982610b23565b9150610d3483610b23565b925082610d4457610d43610cef565b5b828204905092915050565b600082825260208201905092915050565b7f6865617020697320656d70747900000000000000000000000000000000000000600082015250565b6000610d96600d83610d4f565b9150610da182610d60565b602082019050919050565b60006020820190508181036000830152610dc581610d89565b9050919050565b7f4e487b7100000000000000000000000000000000000000000000000000000000600052603260045260246000fd5b7f4e487b7100000000000000000000000000000000000000000000000000000000600052603160045260246000fd5b6000610e3582610b23565b9150610e4083610b23565b9250828202610e4e81610b23565b91508282048414831517610e6557610e64610c8c565b5b5092915050565b6000610e7782610b23565b9150610e8283610b23565b9250828201905080821115610e9a57610e99610c8c565b5b9291505056fea26469706673582212201451d1d491ea10c9e11ccb6e81a2907d1a1f35287dafe7160544a6255360930964736f6c63430008130033608060405234801561001057600080fd5b5060006040518060800160405280600073ffffffffffffffffffffffffffffffffffffffff1681526020017fffffffffffffffffffffffffffffffffffffffffffffffffffffffffffffffff8152602001600181526020017fffffffffffffffffffffffffffffffffffffffffffffffffffffffffffffffff815250908060018154018082558091505060019003906000526020600020906004020160009091909190915060008201518160000160006101000a81548173ffffffffffffffffffffffffffffffffffffffff021916908373ffffffffffffffffffffffffffffffffffffffff1602179055506020820151816001015560408201518160020155606082015181600301555050610ed68061012b6000396000f3fe608060405234801561001057600080fd5b50600436106100415760003560e01c80637829c46914610046578063a4ece52c14610062578063fe6dcdba1461006c575b600080fd5b610060600480360381019061005b9190610bd1565b61008a565b005b61006a61018b565b005b61007461039a565b6040516100819190610c71565b60405180910390f35b600081908060018154018082558091505060019003906000526020600020906004020160009091909190915060008201518160000160006101000a81548173ffffffffffffffffffffffffffffffffffffffff021916908373ffffffffffffffffffffffffffffffffffffffff1602179055506020820151816001015560408201518160020155606082015181600301555050600060016000805490506101319190610cbb565b90505b6000811115610187576000600260018361014e9190610cbb565b6101589190610d1e565b9050610164828261048f565b1561017b576101738183610741565b809150610181565b50610187565b50610134565b5050565b60008080549050116101d2576040517f08c379a00000000000000000000000000000000000000000000000000000000081526004016101c990610dac565b60405180910390fd5b600060016000805490506101e69190610cbb565b815481106101f7576101f6610dcc565b5b90600052602060002090600402016000808154811061021957610218610dcc565b5b90600052602060002090600402016000820160009054906101000a900473ffffffffffffffffffffffffffffffffffffffff168160000160006101000a81548173ffffffffffffffffffffffffffffffffffffffff021916908373ffffffffffffffffffffffffffffffffffffffff160217905550600182015481600101556002820154816002015560038201548160030155905050600060016000805490506102c39190610cbb565b815481106102d4576102d3610dcc565b5b9060005260206000209060040201600080820160006101000a81549073ffffffffffffffffffffffffffffffffffffffff02191690556001820160009055600282016000905560038201600090555050600080548061033657610335610dfb565b5b6001900381819060005260206000209060040201600080820160006101000a81549073ffffffffffffffffffffffffffffffffffffffff0219169055600182016000905560028201600090556003820160009055505090556103986000610941565b565b6103a26109e7565b60008080549050116103e9576040517f08c379a00000000000000000000000000000000000000000000000000000000081526004016103e090610dac565b60405180910390fd5b600080815481106103fd576103fc610dcc565b5b90600052602060002090600402016040518060800160405290816000820160009054906101000a900473ffffffffffffffffffffffffffffffffffffffff1673ffffffffffffffffffffffffffffffffffffffff1673ffffffffffffffffffffffffffffffffffffffff1681526020016001820154815260200160028201548152602001600382015481525050905090565b60008082815481106104a4576104a3610dcc565b5b906000526020600020906004020160020154600084815481106104ca576104c9610dcc565b5b906000526020600020906004020160020154036106eb57600082815481106104f5576104f4610dcc565b5b9060005260206000209060040201600301546000848154811061051b5761051a610dcc565b5b90600052602060002090600402016003015403610697576000828154811061054657610545610dcc565b5b9060005260206000209060040201600101546000848154811061056c5761056b610dcc565b5b90600052602060002090600402016001015403610643576000828154811061059757610596610dcc565b5b906000526020600020906004020160000160009054906101000a900473ffffffffffffffffffffffffffffffffffffffff1673ffffffffffffffffffffffffffffffffffffffff16600084815481106105f3576105f2610dcc565b5b906000526020600020906004020160000160009054906101000a900473ffffffffffffffffffffffffffffffffffffffff1673ffffffffffffffffffffffffffffffffffffffff1610905061073b565b6000828154811061065757610656610dcc565b5b9060005260206000209060040201600101546000848154811061067d5761067c610dcc565b5b90600052602060002090600402016001015410905061073b565b600082815481106106ab576106aa610dcc565b5b906000526020600020906004020160030154600084815481106106d1576106d0610dcc565b5b90600052602060002090600402016003015410905061073b565b600082815481106106ff576106fe610dcc565b5b9060005260206000209060040201600201546000848154811061072557610724610dcc565b5b9060005260206000209060040201600201541190505b92915050565b600080838154811061075657610755610dcc565b5b90600052602060002090600402016040518060800160405290816000820160009054906101000a900473ffffffffffffffffffffffffffffffffffffffff1673ffffffffffffffffffffffffffffffffffffffff1673ffffffffffffffffffffffffffffffffffffffff16815260200160018201548152602001600282015481526020016003820154815250509050600082815481106107f9576107f8610dcc565b5b90600052602060002090600402016000848154811061081b5761081a610dcc565b5b90600052602060002090600402016000820160009054906101000a900473ffffffffffffffffffffffffffffffffffffffff168160000160006101000a81548173ffffffffffffffffffffffffffffffffffffffff021916908373ffffffffffffffffffffffffffffffffffffffff16021790555060018201548160010155600282015481600201556003820154816003015590505080600083815481106108c6576108c5610dcc565b5b906000526020600020906004020160008201518160000160006101000a81548173ffffffffffffffffffffffffffffffffffffffff021916908373ffffffffffffffffffffffffffffffffffffffff160217905550602082015181600101556040820151816002015560608201518160030155905050505050565b600060018260026109529190610e2a565b61095c9190610e6c565b90506000600283600261096f9190610e2a565b6109799190610e6c565b905060008390506000805490508310801561099a5750610999838261048f565b5b156109a3578290505b600080549050821080156109bd57506109bc828261048f565b5b156109c6578190505b8381146109e1576109d78482610741565b6109e081610941565b5b50505050565b6040518060800160405280600073ffffffffffffffffffffffffffffffffffffffff1681526020016000815260200160008152602001600081525090565b6000604051905090565b600080fd5b600080fd5b6000601f19601f8301169050919050565b7f4e487b7100000000000000000000000000000000000000000000000000000000600052604160045260246000fd5b610a8282610a39565b810181811067ffffffffffffffff82111715610aa157610aa0610a4a565b5b80604052505050565b6000610ab4610a25565b9050610ac08282610a79565b919050565b600073ffffffffffffffffffffffffffffffffffffffff82169050919050565b6000610af082610ac5565b9050919050565b610b0081610ae5565b8114610b0b57600080fd5b50565b600081359050610b1d81610af7565b92915050565b6000819050919050565b610b3681610b23565b8114610b4157600080fd5b50565b600081359050610b5381610b2d565b92915050565b600060808284031215610b6f57610b6e610a34565b5b610b796080610aaa565b90506000610b8984828501610b0e565b6000830152506020610b9d84828501610b44565b6020830152506040610bb184828501610b44565b6040830152506060610bc584828501610b44565b60608301525092915050565b600060808284031215610be757610be6610a2f565b5b6000610bf584828501610b59565b91505092915050565b610c0781610ae5565b82525050565b610c1681610b23565b82525050565b608082016000820151610c326000850182610bfe565b506020820151610c456020850182610c0d565b506040820151610c586040850182610c0d565b506060820151610c6b6060850182610c0d565b50505050565b6000608082019050610c866000830184610c1c565b92915050565b7f4e487b7100000000000000000000000000000000000000000000000000000000600052601160045260246000fd5b6000610cc682610b23565b9150610cd183610b23565b9250828203905081811115610ce957610ce8610c8c565b5b92915050565b7f4e487b7100000000000000000000000000000000000000000000000000000000600052601260045260246000fd5b6000610d2982610b23565b9150610d3483610b23565b925082610d4457610d43610cef565b5b828204905092915050565b600082825260208201905092915050565b7f6865617020697320656d70747900000000000000000000000000000000000000600082015250565b6000610d96600d83610d4f565b9150610da182610d60565b602082019050919050565b60006020820190508181036000830152610dc581610d89565b9050919050565b7f4e487b7100000000000000000000000000000000000000000000000000000000600052603260045260246000fd5b7f4e487b7100000000000000000000000000000000000000000000000000000000600052603160045260246000fd5b6000610e3582610b23565b9150610e4083610b23565b9250828202610e4e81610b23565b91508282048414831517610e6557610e64610c8c565b5b5092915050565b6000610e7782610b23565b9150610e8283610b23565b9250828201905080821115610e9a57610e99610c8c565b5b9291505056fea2646970667358221220488b105e9caea08287b7afddd23ecdd8d0aac1eae078021cfa62bb8bd2ba38f364736f6c63430008130033",
					"opcodes": "PUSH1 0x80 PUSH1 0x40 MSTORE PUSH20 0xD9145CCE52D386F254917E481EB44E9943F39138 PUSH1 0x2 PUSH1 0x0 PUSH2 0x100 EXP DUP2 SLOAD DUP2 PUSH20 0xFFFFFFFFFFFFFFFFFFFFFFFFFFFFFFFFFFFFFFFF MUL NOT AND SWAP1 DUP4 PUSH20 0xFFFFFFFFFFFFFFFFFFFFFFFFFFFFFFFFFFFFFFFF AND MUL OR SWAP1 SSTORE POP CALLVALUE DUP1 ISZERO PUSH2 0x65 JUMPI PUSH1 0x0 DUP1 REVERT JUMPDEST POP PUSH1 0x40 MLOAD PUSH2 0x72 SWAP1 PUSH2 0x13C JUMP JUMPDEST PUSH1 0x40 MLOAD DUP1 SWAP2 SUB SWAP1 PUSH1 0x0 CREATE DUP1 ISZERO DUP1 ISZERO PUSH2 0x8E JUMPI RETURNDATASIZE PUSH1 0x0 DUP1 RETURNDATACOPY RETURNDATASIZE PUSH1 0x0 REVERT JUMPDEST POP PUSH1 0x0 DUP1 PUSH2 0x100 EXP DUP2 SLOAD DUP2 PUSH20 0xFFFFFFFFFFFFFFFFFFFFFFFFFFFFFFFFFFFFFFFF MUL NOT AND SWAP1 DUP4 PUSH20 0xFFFFFFFFFFFFFFFFFFFFFFFFFFFFFFFFFFFFFFFF AND MUL OR SWAP1 SSTORE POP PUSH1 0x40 MLOAD PUSH2 0xDA SWAP1 PUSH2 0x14A JUMP JUMPDEST PUSH1 0x40 MLOAD DUP1 SWAP2 SUB SWAP1 PUSH1 0x0 CREATE DUP1 ISZERO DUP1 ISZERO PUSH2 0xF6 JUMPI RETURNDATASIZE PUSH1 0x0 DUP1 RETURNDATACOPY RETURNDATASIZE PUSH1 0x0 REVERT JUMPDEST POP PUSH1 0x1 PUSH1 0x0 PUSH2 0x100 EXP DUP2 SLOAD DUP2 PUSH20 0xFFFFFFFFFFFFFFFFFFFFFFFFFFFFFFFFFFFFFFFF MUL NOT AND SWAP1 DUP4 PUSH20 0xFFFFFFFFFFFFFFFFFFFFFFFFFFFFFFFFFFFFFFFF AND MUL OR SWAP1 SSTORE POP PUSH2 0x158 JUMP JUMPDEST PUSH2 0x1020 DUP1 PUSH3 0x178F DUP4 CODECOPY ADD SWAP1 JUMP JUMPDEST PUSH2 0x1001 DUP1 PUSH3 0x27AF DUP4 CODECOPY ADD SWAP1 JUMP JUMPDEST PUSH2 0x1627 DUP1 PUSH3 0x168 PUSH1 0x0 CODECOPY PUSH1 0x0 RETURN INVALID PUSH1 0x80 PUSH1 0x40 MSTORE PUSH1 0x4 CALLDATASIZE LT PUSH2 0x3F JUMPI PUSH1 0x0 CALLDATALOAD PUSH1 0xE0 SHR DUP1 PUSH4 0x18A25E8 EQ PUSH2 0x44 JUMPI DUP1 PUSH4 0x142EE8D8 EQ PUSH2 0x6F JUMPI DUP1 PUSH4 0x43D32E9C EQ PUSH2 0x8B JUMPI DUP1 PUSH4 0xCD61A95A EQ PUSH2 0xB6 JUMPI JUMPDEST PUSH1 0x0 DUP1 REVERT JUMPDEST CALLVALUE DUP1 ISZERO PUSH2 0x50 JUMPI PUSH1 0x0 DUP1 REVERT JUMPDEST POP PUSH2 0x59 PUSH2 0xDF JUMP JUMPDEST PUSH1 0x40 MLOAD PUSH2 0x66 SWAP2 SWAP1 PUSH2 0x10BF JUMP JUMPDEST PUSH1 0x40 MLOAD DUP1 SWAP2 SUB SWAP1 RETURN JUMPDEST PUSH2 0x89 PUSH1 0x4 DUP1 CALLDATASIZE SUB DUP2 ADD SWAP1 PUSH2 0x84 SWAP2 SWAP1 PUSH2 0x1115 JUMP JUMPDEST PUSH2 0x17A JUMP JUMPDEST STOP JUMPDEST CALLVALUE DUP1 ISZERO PUSH2 0x97 JUMPI PUSH1 0x0 DUP1 REVERT JUMPDEST POP PUSH2 0xA0 PUSH2 0x99D JUMP JUMPDEST PUSH1 0x40 MLOAD PUSH2 0xAD SWAP2 SWAP1 PUSH2 0x10BF JUMP JUMPDEST PUSH1 0x40 MLOAD DUP1 SWAP2 SUB SWAP1 RETURN JUMPDEST CALLVALUE DUP1 ISZERO PUSH2 0xC2 JUMPI PUSH1 0x0 DUP1 REVERT JUMPDEST POP PUSH2 0xDD PUSH1 0x4 DUP1 CALLDATASIZE SUB DUP2 ADD SWAP1 PUSH2 0xD8 SWAP2 SWAP1 PUSH2 0x1115 JUMP JUMPDEST PUSH2 0xA39 JUMP JUMPDEST STOP JUMPDEST PUSH1 0x0 DUP1 PUSH1 0x0 SWAP1 SLOAD SWAP1 PUSH2 0x100 EXP SWAP1 DIV PUSH20 0xFFFFFFFFFFFFFFFFFFFFFFFFFFFFFFFFFFFFFFFF AND PUSH20 0xFFFFFFFFFFFFFFFFFFFFFFFFFFFFFFFFFFFFFFFF AND PUSH4 0xFE6DCDBA PUSH1 0x40 MLOAD DUP2 PUSH4 0xFFFFFFFF AND PUSH1 0xE0 SHL DUP2 MSTORE PUSH1 0x4 ADD PUSH1 0x80 PUSH1 0x40 MLOAD DUP1 DUP4 SUB DUP2 DUP7 GAS STATICCALL ISZERO DUP1 ISZERO PUSH2 0x14D JUMPI RETURNDATASIZE PUSH1 0x0 DUP1 RETURNDATACOPY RETURNDATASIZE PUSH1 0x0 REVERT JUMPDEST POP POP POP POP PUSH1 0x40 MLOAD RETURNDATASIZE PUSH1 0x1F NOT PUSH1 0x1F DUP3 ADD AND DUP3 ADD DUP1 PUSH1 0x40 MSTORE POP DUP2 ADD SWAP1 PUSH2 0x171 SWAP2 SWAP1 PUSH2 0x12D1 JUMP JUMPDEST PUSH1 0x40 ADD MLOAD SWAP1 POP SWAP1 JUMP JUMPDEST DUP1 PUSH8 0xDE0B6B3A7640000 DUP4 PUSH2 0x18F SWAP2 SWAP1 PUSH2 0x132D JUMP JUMPDEST PUSH2 0x199 SWAP2 SWAP1 PUSH2 0x132D JUMP JUMPDEST CALLVALUE EQ PUSH2 0x1A4 JUMPI PUSH1 0x0 DUP1 REVERT JUMPDEST DUP1 PUSH1 0x0 DUP1 SLOAD SWAP1 PUSH2 0x100 EXP SWAP1 DIV PUSH20 0xFFFFFFFFFFFFFFFFFFFFFFFFFFFFFFFFFFFFFFFF AND PUSH20 0xFFFFFFFFFFFFFFFFFFFFFFFFFFFFFFFFFFFFFFFF AND PUSH4 0xFE6DCDBA PUSH1 0x40 MLOAD DUP2 PUSH4 0xFFFFFFFF AND PUSH1 0xE0 SHL DUP2 MSTORE PUSH1 0x4 ADD PUSH1 0x80 PUSH1 0x40 MLOAD DUP1 DUP4 SUB DUP2 DUP7 GAS STATICCALL ISZERO DUP1 ISZERO PUSH2 0x210 JUMPI RETURNDATASIZE PUSH1 0x0 DUP1 RETURNDATACOPY RETURNDATASIZE PUSH1 0x0 REVERT JUMPDEST POP POP POP POP PUSH1 0x40 MLOAD RETURNDATASIZE PUSH1 0x1F NOT PUSH1 0x1F DUP3 ADD AND DUP3 ADD DUP1 PUSH1 0x40 MSTORE POP DUP2 ADD SWAP1 PUSH2 0x234 SWAP2 SWAP1 PUSH2 0x12D1 JUMP JUMPDEST PUSH1 0x40 ADD MLOAD LT PUSH2 0x2FF JUMPI PUSH1 0x0 DUP1 SLOAD SWAP1 PUSH2 0x100 EXP SWAP1 DIV PUSH20 0xFFFFFFFFFFFFFFFFFFFFFFFFFFFFFFFFFFFFFFFF AND PUSH20 0xFFFFFFFFFFFFFFFFFFFFFFFFFFFFFFFFFFFFFFFF AND PUSH4 0x7829C469 PUSH1 0x40 MLOAD DUP1 PUSH1 0x80 ADD PUSH1 0x40 MSTORE DUP1 CALLER PUSH20 0xFFFFFFFFFFFFFFFFFFFFFFFFFFFFFFFFFFFFFFFF AND DUP2 MSTORE PUSH1 0x20 ADD DUP6 DUP2 MSTORE PUSH1 0x20 ADD DUP5 DUP2 MSTORE PUSH1 0x20 ADD TIMESTAMP DUP2 MSTORE POP PUSH1 0x40 MLOAD DUP3 PUSH4 0xFFFFFFFF AND PUSH1 0xE0 SHL DUP2 MSTORE PUSH1 0x4 ADD PUSH2 0x2CC SWAP2 SWAP1 PUSH2 0x13E2 JUMP JUMPDEST PUSH1 0x0 PUSH1 0x40 MLOAD DUP1 DUP4 SUB DUP2 PUSH1 0x0 DUP8 DUP1 EXTCODESIZE ISZERO DUP1 ISZERO PUSH2 0x2E6 JUMPI PUSH1 0x0 DUP1 REVERT JUMPDEST POP GAS CALL ISZERO DUP1 ISZERO PUSH2 0x2FA JUMPI RETURNDATASIZE PUSH1 0x0 DUP1 RETURNDATACOPY RETURNDATASIZE PUSH1 0x0 REVERT JUMPDEST POP POP POP POP JUMPDEST DUP1 PUSH1 0x1 PUSH1 0x0 SWAP1 SLOAD SWAP1 PUSH2 0x100 EXP SWAP1 DIV PUSH20 0xFFFFFFFFFFFFFFFFFFFFFFFFFFFFFFFFFFFFFFFF AND PUSH20 0xFFFFFFFFFFFFFFFFFFFFFFFFFFFFFFFFFFFFFFFF AND PUSH4 0xFE6DCDBA PUSH1 0x40 MLOAD DUP2 PUSH4 0xFFFFFFFF AND PUSH1 0xE0 SHL DUP2 MSTORE PUSH1 0x4 ADD PUSH1 0x80 PUSH1 0x40 MLOAD DUP1 DUP4 SUB DUP2 DUP7 GAS STATICCALL ISZERO DUP1 ISZERO PUSH2 0x36D JUMPI RETURNDATASIZE PUSH1 0x0 DUP1 RETURNDATACOPY RETURNDATASIZE PUSH1 0x0 REVERT JUMPDEST POP POP POP POP PUSH1 0x40 MLOAD RETURNDATASIZE PUSH1 0x1F NOT PUSH1 0x1F DUP3 ADD AND DUP3 ADD DUP1 PUSH1 0x40 MSTORE POP DUP2 ADD SWAP1 PUSH2 0x391 SWAP2 SWAP1 PUSH2 0x1475 JUMP JUMPDEST PUSH1 0x40 ADD MLOAD GT PUSH2 0x999 JUMPI DUP1 PUSH1 0x1 PUSH1 0x0 SWAP1 SLOAD SWAP1 PUSH2 0x100 EXP SWAP1 DIV PUSH20 0xFFFFFFFFFFFFFFFFFFFFFFFFFFFFFFFFFFFFFFFF AND PUSH20 0xFFFFFFFFFFFFFFFFFFFFFFFFFFFFFFFFFFFFFFFF AND PUSH4 0xFE6DCDBA PUSH1 0x40 MLOAD DUP2 PUSH4 0xFFFFFFFF AND PUSH1 0xE0 SHL DUP2 MSTORE PUSH1 0x4 ADD PUSH1 0x80 PUSH1 0x40 MLOAD DUP1 DUP4 SUB DUP2 DUP7 GAS STATICCALL ISZERO DUP1 ISZERO PUSH2 0x408 JUMPI RETURNDATASIZE PUSH1 0x0 DUP1 RETURNDATACOPY RETURNDATASIZE PUSH1 0x0 REVERT JUMPDEST POP POP POP POP PUSH1 0x40 MLOAD RETURNDATASIZE PUSH1 0x1F NOT PUSH1 0x1F DUP3 ADD AND DUP3 ADD DUP1 PUSH1 0x40 MSTORE POP DUP2 ADD SWAP1 PUSH2 0x42C SWAP2 SWAP1 PUSH2 0x1475 JUMP JUMPDEST PUSH1 0x40 ADD MLOAD SUB PUSH2 0x8CD JUMPI JUMPDEST DUP1 PUSH1 0x1 PUSH1 0x0 SWAP1 SLOAD SWAP1 PUSH2 0x100 EXP SWAP1 DIV PUSH20 0xFFFFFFFFFFFFFFFFFFFFFFFFFFFFFFFFFFFFFFFF AND PUSH20 0xFFFFFFFFFFFFFFFFFFFFFFFFFFFFFFFFFFFFFFFF AND PUSH4 0xFE6DCDBA PUSH1 0x40 MLOAD DUP2 PUSH4 0xFFFFFFFF AND PUSH1 0xE0 SHL DUP2 MSTORE PUSH1 0x4 ADD PUSH1 0x80 PUSH1 0x40 MLOAD DUP1 DUP4 SUB DUP2 DUP7 GAS STATICCALL ISZERO DUP1 ISZERO PUSH2 0x4A4 JUMPI RETURNDATASIZE PUSH1 0x0 DUP1 RETURNDATACOPY RETURNDATASIZE PUSH1 0x0 REVERT JUMPDEST POP POP POP POP PUSH1 0x40 MLOAD RETURNDATASIZE PUSH1 0x1F NOT PUSH1 0x1F DUP3 ADD AND DUP3 ADD DUP1 PUSH1 0x40 MSTORE POP DUP2 ADD SWAP1 PUSH2 0x4C8 SWAP2 SWAP1 PUSH2 0x1475 JUMP JUMPDEST PUSH1 0x40 ADD MLOAD SUB PUSH2 0x8CC JUMPI DUP2 PUSH1 0x1 PUSH1 0x0 SWAP1 SLOAD SWAP1 PUSH2 0x100 EXP SWAP1 DIV PUSH20 0xFFFFFFFFFFFFFFFFFFFFFFFFFFFFFFFFFFFFFFFF AND PUSH20 0xFFFFFFFFFFFFFFFFFFFFFFFFFFFFFFFFFFFFFFFF AND PUSH4 0xFE6DCDBA PUSH1 0x40 MLOAD DUP2 PUSH4 0xFFFFFFFF AND PUSH1 0xE0 SHL DUP2 MSTORE PUSH1 0x4 ADD PUSH1 0x80 PUSH1 0x40 MLOAD DUP1 DUP4 SUB DUP2 DUP7 GAS STATICCALL ISZERO DUP1 ISZERO PUSH2 0x53F JUMPI RETURNDATASIZE PUSH1 0x0 DUP1 RETURNDATACOPY RETURNDATASIZE PUSH1 0x0 REVERT JUMPDEST POP POP POP POP PUSH1 0x40 MLOAD RETURNDATASIZE PUSH1 0x1F NOT PUSH1 0x1F DUP3 ADD AND DUP3 ADD DUP1 PUSH1 0x40 MSTORE POP DUP2 ADD SWAP1 PUSH2 0x563 SWAP2 SWAP1 PUSH2 0x1475 JUMP JUMPDEST PUSH1 0x20 ADD MLOAD GT ISZERO PUSH2 0x7A3 JUMPI PUSH1 0x2 PUSH1 0x0 SWAP1 SLOAD SWAP1 PUSH2 0x100 EXP SWAP1 DIV PUSH20 0xFFFFFFFFFFFFFFFFFFFFFFFFFFFFFFFFFFFFFFFF AND PUSH20 0xFFFFFFFFFFFFFFFFFFFFFFFFFFFFFFFFFFFFFFFF AND PUSH4 0x23B872DD ADDRESS CALLER DUP6 PUSH1 0x40 MLOAD DUP5 PUSH4 0xFFFFFFFF AND PUSH1 0xE0 SHL DUP2 MSTORE PUSH1 0x4 ADD PUSH2 0x5CC SWAP4 SWAP3 SWAP2 SWAP1 PUSH2 0x14B1 JUMP JUMPDEST PUSH1 0x20 PUSH1 0x40 MLOAD DUP1 DUP4 SUB DUP2 PUSH1 0x0 DUP8 GAS CALL ISZERO DUP1 ISZERO PUSH2 0x5EB JUMPI RETURNDATASIZE PUSH1 0x0 DUP1 RETURNDATACOPY RETURNDATASIZE PUSH1 0x0 REVERT JUMPDEST POP POP POP POP PUSH1 0x40 MLOAD RETURNDATASIZE PUSH1 0x1F NOT PUSH1 0x1F DUP3 ADD AND DUP3 ADD DUP1 PUSH1 0x40 MSTORE POP DUP2 ADD SWAP1 PUSH2 0x60F SWAP2 SWAP1 PUSH2 0x1520 JUMP JUMPDEST POP PUSH1 0x0 PUSH1 0x1 PUSH1 0x0 SWAP1 SLOAD SWAP1 PUSH2 0x100 EXP SWAP1 DIV PUSH20 0xFFFFFFFFFFFFFFFFFFFFFFFFFFFFFFFFFFFFFFFF AND PUSH20 0xFFFFFFFFFFFFFFFFFFFFFFFFFFFFFFFFFFFFFFFF AND PUSH4 0xFE6DCDBA PUSH1 0x40 MLOAD DUP2 PUSH4 0xFFFFFFFF AND PUSH1 0xE0 SHL DUP2 MSTORE PUSH1 0x4 ADD PUSH1 0x80 PUSH1 0x40 MLOAD DUP1 DUP4 SUB DUP2 DUP7 GAS STATICCALL ISZERO DUP1 ISZERO PUSH2 0x67F JUMPI RETURNDATASIZE PUSH1 0x0 DUP1 RETURNDATACOPY RETURNDATASIZE PUSH1 0x0 REVERT JUMPDEST POP POP POP POP PUSH1 0x40 MLOAD RETURNDATASIZE PUSH1 0x1F NOT PUSH1 0x1F DUP3 ADD AND DUP3 ADD DUP1 PUSH1 0x40 MSTORE POP DUP2 ADD SWAP1 PUSH2 0x6A3 SWAP2 SWAP1 PUSH2 0x1475 JUMP JUMPDEST PUSH1 0x0 ADD MLOAD SWAP1 POP DUP1 PUSH20 0xFFFFFFFFFFFFFFFFFFFFFFFFFFFFFFFFFFFFFFFF AND PUSH2 0x8FC DUP5 SWAP1 DUP2 ISZERO MUL SWAP1 PUSH1 0x40 MLOAD PUSH1 0x0 PUSH1 0x40 MLOAD DUP1 DUP4 SUB DUP2 DUP6 DUP9 DUP9 CALL SWAP4 POP POP POP POP ISZERO DUP1 ISZERO PUSH2 0x6EF JUMPI RETURNDATASIZE PUSH1 0x0 DUP1 RETURNDATACOPY RETURNDATASIZE PUSH1 0x0 REVERT JUMPDEST POP DUP3 PUSH1 0x1 PUSH1 0x0 SWAP1 SLOAD SWAP1 PUSH2 0x100 EXP SWAP1 DIV PUSH20 0xFFFFFFFFFFFFFFFFFFFFFFFFFFFFFFFFFFFFFFFF AND PUSH20 0xFFFFFFFFFFFFFFFFFFFFFFFFFFFFFFFFFFFFFFFF AND PUSH4 0xFE6DCDBA PUSH1 0x40 MLOAD DUP2 PUSH4 0xFFFFFFFF AND PUSH1 0xE0 SHL DUP2 MSTORE PUSH1 0x4 ADD PUSH1 0x80 PUSH1 0x40 MLOAD DUP1 DUP4 SUB DUP2 DUP7 GAS STATICCALL ISZERO DUP1 ISZERO PUSH2 0x75E JUMPI RETURNDATASIZE PUSH1 0x0 DUP1 RETURNDATACOPY RETURNDATASIZE PUSH1 0x0 REVERT JUMPDEST POP POP POP POP PUSH1 0x40 MLOAD RETURNDATASIZE PUSH1 0x1F NOT PUSH1 0x1F DUP3 ADD AND DUP3 ADD DUP1 PUSH1 0x40 MSTORE POP DUP2 ADD SWAP1 PUSH2 0x782 SWAP2 SWAP1 PUSH2 0x1475 JUMP JUMPDEST PUSH1 0x20 ADD DUP2 DUP2 MLOAD PUSH2 0x792 SWAP2 SWAP1 PUSH2 0x154D JUMP JUMPDEST SWAP2 POP DUP2 DUP2 MSTORE POP POP PUSH1 0x0 SWAP3 POP POP PUSH2 0x8CC JUMP JUMPDEST PUSH1 0x1 PUSH1 0x0 SWAP1 SLOAD SWAP1 PUSH2 0x100 EXP SWAP1 DIV PUSH20 0xFFFFFFFFFFFFFFFFFFFFFFFFFFFFFFFFFFFFFFFF AND PUSH20 0xFFFFFFFFFFFFFFFFFFFFFFFFFFFFFFFFFFFFFFFF AND PUSH4 0xFE6DCDBA PUSH1 0x40 MLOAD DUP2 PUSH4 0xFFFFFFFF AND PUSH1 0xE0 SHL DUP2 MSTORE PUSH1 0x4 ADD PUSH1 0x80 PUSH1 0x40 MLOAD DUP1 DUP4 SUB DUP2 DUP7 GAS STATICCALL ISZERO DUP1 ISZERO PUSH2 0x810 JUMPI RETURNDATASIZE PUSH1 0x0 DUP1 RETURNDATACOPY RETURNDATASIZE PUSH1 0x0 REVERT JUMPDEST POP POP POP POP PUSH1 0x40 MLOAD RETURNDATASIZE PUSH1 0x1F NOT PUSH1 0x1F DUP3 ADD AND DUP3 ADD DUP1 PUSH1 0x40 MSTORE POP DUP2 ADD SWAP1 PUSH2 0x834 SWAP2 SWAP1 PUSH2 0x1475 JUMP JUMPDEST PUSH1 0x20 ADD MLOAD DUP3 PUSH2 0x843 SWAP2 SWAP1 PUSH2 0x154D JUMP JUMPDEST SWAP2 POP PUSH1 0x1 PUSH1 0x0 SWAP1 SLOAD SWAP1 PUSH2 0x100 EXP SWAP1 DIV PUSH20 0xFFFFFFFFFFFFFFFFFFFFFFFFFFFFFFFFFFFFFFFF AND PUSH20 0xFFFFFFFFFFFFFFFFFFFFFFFFFFFFFFFFFFFFFFFF AND PUSH4 0xA4ECE52C PUSH1 0x40 MLOAD DUP2 PUSH4 0xFFFFFFFF AND PUSH1 0xE0 SHL DUP2 MSTORE PUSH1 0x4 ADD PUSH1 0x0 PUSH1 0x40 MLOAD DUP1 DUP4 SUB DUP2 PUSH1 0x0 DUP8 DUP1 EXTCODESIZE ISZERO DUP1 ISZERO PUSH2 0x8AF JUMPI PUSH1 0x0 DUP1 REVERT JUMPDEST POP GAS CALL ISZERO DUP1 ISZERO PUSH2 0x8C3 JUMPI RETURNDATASIZE PUSH1 0x0 DUP1 RETURNDATACOPY RETURNDATASIZE PUSH1 0x0 REVERT JUMPDEST POP POP POP POP PUSH2 0x436 JUMP JUMPDEST JUMPDEST PUSH1 0x0 DUP3 GT ISZERO PUSH2 0x998 JUMPI PUSH1 0x0 DUP1 SLOAD SWAP1 PUSH2 0x100 EXP SWAP1 DIV PUSH20 0xFFFFFFFFFFFFFFFFFFFFFFFFFFFFFFFFFFFFFFFF AND PUSH20 0xFFFFFFFFFFFFFFFFFFFFFFFFFFFFFFFFFFFFFFFF AND PUSH4 0x7829C469 PUSH1 0x40 MLOAD DUP1 PUSH1 0x80 ADD PUSH1 0x40 MSTORE DUP1 CALLER PUSH20 0xFFFFFFFFFFFFFFFFFFFFFFFFFFFFFFFFFFFFFFFF AND DUP2 MSTORE PUSH1 0x20 ADD DUP6 DUP2 MSTORE PUSH1 0x20 ADD DUP5 DUP2 MSTORE PUSH1 0x20 ADD TIMESTAMP DUP2 MSTORE POP PUSH1 0x40 MLOAD DUP3 PUSH4 0xFFFFFFFF AND PUSH1 0xE0 SHL DUP2 MSTORE PUSH1 0x4 ADD PUSH2 0x965 SWAP2 SWAP1 PUSH2 0x13E2 JUMP JUMPDEST PUSH1 0x0 PUSH1 0x40 MLOAD DUP1 DUP4 SUB DUP2 PUSH1 0x0 DUP8 DUP1 EXTCODESIZE ISZERO DUP1 ISZERO PUSH2 0x97F JUMPI PUSH1 0x0 DUP1 REVERT JUMPDEST POP GAS CALL ISZERO DUP1 ISZERO PUSH2 0x993 JUMPI RETURNDATASIZE PUSH1 0x0 DUP1 RETURNDATACOPY RETURNDATASIZE PUSH1 0x0 REVERT JUMPDEST POP POP POP POP JUMPDEST JUMPDEST POP POP JUMP JUMPDEST PUSH1 0x0 PUSH1 0x1 PUSH1 0x0 SWAP1 SLOAD SWAP1 PUSH2 0x100 EXP SWAP1 DIV PUSH20 0xFFFFFFFFFFFFFFFFFFFFFFFFFFFFFFFFFFFFFFFF AND PUSH20 0xFFFFFFFFFFFFFFFFFFFFFFFFFFFFFFFFFFFFFFFF AND PUSH4 0xFE6DCDBA PUSH1 0x40 MLOAD DUP2 PUSH4 0xFFFFFFFF AND PUSH1 0xE0 SHL DUP2 MSTORE PUSH1 0x4 ADD PUSH1 0x80 PUSH1 0x40 MLOAD DUP1 DUP4 SUB DUP2 DUP7 GAS STATICCALL ISZERO DUP1 ISZERO PUSH2 0xA0C JUMPI RETURNDATASIZE PUSH1 0x0 DUP1 RETURNDATACOPY RETURNDATASIZE PUSH1 0x0 REVERT JUMPDEST POP POP POP POP PUSH1 0x40 MLOAD RETURNDATASIZE PUSH1 0x1F NOT PUSH1 0x1F DUP3 ADD AND DUP3 ADD DUP1 PUSH1 0x40 MSTORE POP DUP2 ADD SWAP1 PUSH2 0xA30 SWAP2 SWAP1 PUSH2 0x1475 JUMP JUMPDEST PUSH1 0x40 ADD MLOAD SWAP1 POP SWAP1 JUMP JUMPDEST DUP1 PUSH1 0x1 PUSH1 0x0 SWAP1 SLOAD SWAP1 PUSH2 0x100 EXP SWAP1 DIV PUSH20 0xFFFFFFFFFFFFFFFFFFFFFFFFFFFFFFFFFFFFFFFF AND PUSH20 0xFFFFFFFFFFFFFFFFFFFFFFFFFFFFFFFFFFFFFFFF AND PUSH4 0xFE6DCDBA PUSH1 0x40 MLOAD DUP2 PUSH4 0xFFFFFFFF AND PUSH1 0xE0 SHL DUP2 MSTORE PUSH1 0x4 ADD PUSH1 0x80 PUSH1 0x40 MLOAD DUP1 DUP4 SUB DUP2 DUP7 GAS STATICCALL ISZERO DUP1 ISZERO PUSH2 0xAA7 JUMPI RETURNDATASIZE PUSH1 0x0 DUP1 RETURNDATACOPY RETURNDATASIZE PUSH1 0x0 REVERT JUMPDEST POP POP POP POP PUSH1 0x40 MLOAD RETURNDATASIZE PUSH1 0x1F NOT PUSH1 0x1F DUP3 ADD AND DUP3 ADD DUP1 PUSH1 0x40 MSTORE POP DUP2 ADD SWAP1 PUSH2 0xACB SWAP2 SWAP1 PUSH2 0x1475 JUMP JUMPDEST PUSH1 0x40 ADD MLOAD GT PUSH2 0xB98 JUMPI PUSH1 0x1 PUSH1 0x0 SWAP1 SLOAD SWAP1 PUSH2 0x100 EXP SWAP1 DIV PUSH20 0xFFFFFFFFFFFFFFFFFFFFFFFFFFFFFFFFFFFFFFFF AND PUSH20 0xFFFFFFFFFFFFFFFFFFFFFFFFFFFFFFFFFFFFFFFF AND PUSH4 0x7829C469 PUSH1 0x40 MLOAD DUP1 PUSH1 0x80 ADD PUSH1 0x40 MSTORE DUP1 CALLER PUSH20 0xFFFFFFFFFFFFFFFFFFFFFFFFFFFFFFFFFFFFFFFF AND DUP2 MSTORE PUSH1 0x20 ADD DUP6 DUP2 MSTORE PUSH1 0x20 ADD DUP5 DUP2 MSTORE PUSH1 0x20 ADD TIMESTAMP DUP2 MSTORE POP PUSH1 0x40 MLOAD DUP3 PUSH4 0xFFFFFFFF AND PUSH1 0xE0 SHL DUP2 MSTORE PUSH1 0x4 ADD PUSH2 0xB65 SWAP2 SWAP1 PUSH2 0x15D6 JUMP JUMPDEST PUSH1 0x0 PUSH1 0x40 MLOAD DUP1 DUP4 SUB DUP2 PUSH1 0x0 DUP8 DUP1 EXTCODESIZE ISZERO DUP1 ISZERO PUSH2 0xB7F JUMPI PUSH1 0x0 DUP1 REVERT JUMPDEST POP GAS CALL ISZERO DUP1 ISZERO PUSH2 0xB93 JUMPI RETURNDATASIZE PUSH1 0x0 DUP1 RETURNDATACOPY RETURNDATASIZE PUSH1 0x0 REVERT JUMPDEST POP POP POP POP JUMPDEST DUP1 PUSH1 0x0 DUP1 SLOAD SWAP1 PUSH2 0x100 EXP SWAP1 DIV PUSH20 0xFFFFFFFFFFFFFFFFFFFFFFFFFFFFFFFFFFFFFFFF AND PUSH20 0xFFFFFFFFFFFFFFFFFFFFFFFFFFFFFFFFFFFFFFFF AND PUSH4 0xFE6DCDBA PUSH1 0x40 MLOAD DUP2 PUSH4 0xFFFFFFFF AND PUSH1 0xE0 SHL DUP2 MSTORE PUSH1 0x4 ADD PUSH1 0x80 PUSH1 0x40 MLOAD DUP1 DUP4 SUB DUP2 DUP7 GAS STATICCALL ISZERO DUP1 ISZERO PUSH2 0xC04 JUMPI RETURNDATASIZE PUSH1 0x0 DUP1 RETURNDATACOPY RETURNDATASIZE PUSH1 0x0 REVERT JUMPDEST POP POP POP POP PUSH1 0x40 MLOAD RETURNDATASIZE PUSH1 0x1F NOT PUSH1 0x1F DUP3 ADD AND DUP3 ADD DUP1 PUSH1 0x40 MSTORE POP DUP2 ADD SWAP1 PUSH2 0xC28 SWAP2 SWAP1 PUSH2 0x12D1 JUMP JUMPDEST PUSH1 0x40 ADD MLOAD LT PUSH2 0x10A2 JUMPI DUP1 PUSH1 0x0 DUP1 SLOAD SWAP1 PUSH2 0x100 EXP SWAP1 DIV PUSH20 0xFFFFFFFFFFFFFFFFFFFFFFFFFFFFFFFFFFFFFFFF AND PUSH20 0xFFFFFFFFFFFFFFFFFFFFFFFFFFFFFFFFFFFFFFFF AND PUSH4 0xFE6DCDBA PUSH1 0x40 MLOAD DUP2 PUSH4 0xFFFFFFFF AND PUSH1 0xE0 SHL DUP2 MSTORE PUSH1 0x4 ADD PUSH1 0x80 PUSH1 0x40 MLOAD DUP1 DUP4 SUB DUP2 DUP7 GAS STATICCALL ISZERO DUP1 ISZERO PUSH2 0xC9D JUMPI RETURNDATASIZE PUSH1 0x0 DUP1 RETURNDATACOPY RETURNDATASIZE PUSH1 0x0 REVERT JUMPDEST POP POP POP POP PUSH1 0x40 MLOAD RETURNDATASIZE PUSH1 0x1F NOT PUSH1 0x1F DUP3 ADD AND DUP3 ADD DUP1 PUSH1 0x40 MSTORE POP DUP2 ADD SWAP1 PUSH2 0xCC1 SWAP2 SWAP1 PUSH2 0x12D1 JUMP JUMPDEST PUSH1 0x40 ADD MLOAD SUB PUSH2 0xFD4 JUMPI JUMPDEST DUP1 PUSH1 0x0 DUP1 SLOAD SWAP1 PUSH2 0x100 EXP SWAP1 DIV PUSH20 0xFFFFFFFFFFFFFFFFFFFFFFFFFFFFFFFFFFFFFFFF AND PUSH20 0xFFFFFFFFFFFFFFFFFFFFFFFFFFFFFFFFFFFFFFFF AND PUSH4 0xFE6DCDBA PUSH1 0x40 MLOAD DUP2 PUSH4 0xFFFFFFFF AND PUSH1 0xE0 SHL DUP2 MSTORE PUSH1 0x4 ADD PUSH1 0x80 PUSH1 0x40 MLOAD DUP1 DUP4 SUB DUP2 DUP7 GAS STATICCALL ISZERO DUP1 ISZERO PUSH2 0xD37 JUMPI RETURNDATASIZE PUSH1 0x0 DUP1 RETURNDATACOPY RETURNDATASIZE PUSH1 0x0 REVERT JUMPDEST POP POP POP POP PUSH1 0x40 MLOAD RETURNDATASIZE PUSH1 0x1F NOT PUSH1 0x1F DUP3 ADD AND DUP3 ADD DUP1 PUSH1 0x40 MSTORE POP DUP2 ADD SWAP1 PUSH2 0xD5B SWAP2 SWAP1 PUSH2 0x12D1 JUMP JUMPDEST PUSH1 0x40 ADD MLOAD SUB PUSH2 0xFD3 JUMPI DUP2 PUSH1 0x0 DUP1 SLOAD SWAP1 PUSH2 0x100 EXP SWAP1 DIV PUSH20 0xFFFFFFFFFFFFFFFFFFFFFFFFFFFFFFFFFFFFFFFF AND PUSH20 0xFFFFFFFFFFFFFFFFFFFFFFFFFFFFFFFFFFFFFFFF AND PUSH4 0xFE6DCDBA PUSH1 0x40 MLOAD DUP2 PUSH4 0xFFFFFFFF AND PUSH1 0xE0 SHL DUP2 MSTORE PUSH1 0x4 ADD PUSH1 0x80 PUSH1 0x40 MLOAD DUP1 DUP4 SUB DUP2 DUP7 GAS STATICCALL ISZERO DUP1 ISZERO PUSH2 0xDD0 JUMPI RETURNDATASIZE PUSH1 0x0 DUP1 RETURNDATACOPY RETURNDATASIZE PUSH1 0x0 REVERT JUMPDEST POP POP POP POP PUSH1 0x40 MLOAD RETURNDATASIZE PUSH1 0x1F NOT PUSH1 0x1F DUP3 ADD AND DUP3 ADD DUP1 PUSH1 0x40 MSTORE POP DUP2 ADD SWAP1 PUSH2 0xDF4 SWAP2 SWAP1 PUSH2 0x12D1 JUMP JUMPDEST PUSH1 0x20 ADD MLOAD GT ISZERO PUSH2 0xEAE JUMPI DUP2 PUSH1 0x0 DUP1 SLOAD SWAP1 PUSH2 0x100 EXP SWAP1 DIV PUSH20 0xFFFFFFFFFFFFFFFFFFFFFFFFFFFFFFFFFFFFFFFF AND PUSH20 0xFFFFFFFFFFFFFFFFFFFFFFFFFFFFFFFFFFFFFFFF AND PUSH4 0xFE6DCDBA PUSH1 0x40 MLOAD DUP2 PUSH4 0xFFFFFFFF AND PUSH1 0xE0 SHL DUP2 MSTORE PUSH1 0x4 ADD PUSH1 0x80 PUSH1 0x40 MLOAD DUP1 DUP4 SUB DUP2 DUP7 GAS STATICCALL ISZERO DUP1 ISZERO PUSH2 0xE6A JUMPI RETURNDATASIZE PUSH1 0x0 DUP1 RETURNDATACOPY RETURNDATASIZE PUSH1 0x0 REVERT JUMPDEST POP POP POP POP PUSH1 0x40 MLOAD RETURNDATASIZE PUSH1 0x1F NOT PUSH1 0x1F DUP3 ADD AND DUP3 ADD DUP1 PUSH1 0x40 MSTORE POP DUP2 ADD SWAP1 PUSH2 0xE8E SWAP2 SWAP1 PUSH2 0x12D1 JUMP JUMPDEST PUSH1 0x20 ADD DUP2 DUP2 MLOAD PUSH2 0xE9E SWAP2 SWAP1 PUSH2 0x154D JUMP JUMPDEST SWAP2 POP DUP2 DUP2 MSTORE POP POP PUSH1 0x0 SWAP2 POP PUSH2 0xFD3 JUMP JUMPDEST PUSH1 0x0 DUP1 SLOAD SWAP1 PUSH2 0x100 EXP SWAP1 DIV PUSH20 0xFFFFFFFFFFFFFFFFFFFFFFFFFFFFFFFFFFFFFFFF AND PUSH20 0xFFFFFFFFFFFFFFFFFFFFFFFFFFFFFFFFFFFFFFFF AND PUSH4 0xFE6DCDBA PUSH1 0x40 MLOAD DUP2 PUSH4 0xFFFFFFFF AND PUSH1 0xE0 SHL DUP2 MSTORE PUSH1 0x4 ADD PUSH1 0x80 PUSH1 0x40 MLOAD DUP1 DUP4 SUB DUP2 DUP7 GAS STATICCALL ISZERO DUP1 ISZERO PUSH2 0xF19 JUMPI RETURNDATASIZE PUSH1 0x0 DUP1 RETURNDATACOPY RETURNDATASIZE PUSH1 0x0 REVERT JUMPDEST POP POP POP POP PUSH1 0x40 MLOAD RETURNDATASIZE PUSH1 0x1F NOT PUSH1 0x1F DUP3 ADD AND DUP3 ADD DUP1 PUSH1 0x40 MSTORE POP DUP2 ADD SWAP1 PUSH2 0xF3D SWAP2 SWAP1 PUSH2 0x12D1 JUMP JUMPDEST PUSH1 0x20 ADD MLOAD DUP3 PUSH2 0xF4C SWAP2 SWAP1 PUSH2 0x154D JUMP JUMPDEST SWAP2 POP PUSH1 0x0 DUP1 SLOAD SWAP1 PUSH2 0x100 EXP SWAP1 DIV PUSH20 0xFFFFFFFFFFFFFFFFFFFFFFFFFFFFFFFFFFFFFFFF AND PUSH20 0xFFFFFFFFFFFFFFFFFFFFFFFFFFFFFFFFFFFFFFFF AND PUSH4 0xA4ECE52C PUSH1 0x40 MLOAD DUP2 PUSH4 0xFFFFFFFF AND PUSH1 0xE0 SHL DUP2 MSTORE PUSH1 0x4 ADD PUSH1 0x0 PUSH1 0x40 MLOAD DUP1 DUP4 SUB DUP2 PUSH1 0x0 DUP8 DUP1 EXTCODESIZE ISZERO DUP1 ISZERO PUSH2 0xFB6 JUMPI PUSH1 0x0 DUP1 REVERT JUMPDEST POP GAS CALL ISZERO DUP1 ISZERO PUSH2 0xFCA JUMPI RETURNDATASIZE PUSH1 0x0 DUP1 RETURNDATACOPY RETURNDATASIZE PUSH1 0x0 REVERT JUMPDEST POP POP POP POP PUSH2 0xCCB JUMP JUMPDEST JUMPDEST PUSH1 0x0 DUP3 GT ISZERO PUSH2 0x10A1 JUMPI PUSH1 0x1 PUSH1 0x0 SWAP1 SLOAD SWAP1 PUSH2 0x100 EXP SWAP1 DIV PUSH20 0xFFFFFFFFFFFFFFFFFFFFFFFFFFFFFFFFFFFFFFFF AND PUSH20 0xFFFFFFFFFFFFFFFFFFFFFFFFFFFFFFFFFFFFFFFF AND PUSH4 0x7829C469 PUSH1 0x40 MLOAD DUP1 PUSH1 0x80 ADD PUSH1 0x40 MSTORE DUP1 CALLER PUSH20 0xFFFFFFFFFFFFFFFFFFFFFFFFFFFFFFFFFFFFFFFF AND DUP2 MSTORE PUSH1 0x20 ADD DUP6 DUP2 MSTORE PUSH1 0x20 ADD DUP5 DUP2 MSTORE PUSH1 0x20 ADD TIMESTAMP DUP2 MSTORE POP PUSH1 0x40 MLOAD DUP3 PUSH4 0xFFFFFFFF AND PUSH1 0xE0 SHL DUP2 MSTORE PUSH1 0x4 ADD PUSH2 0x106E SWAP2 SWAP1 PUSH2 0x15D6 JUMP JUMPDEST PUSH1 0x0 PUSH1 0x40 MLOAD DUP1 DUP4 SUB DUP2 PUSH1 0x0 DUP8 DUP1 EXTCODESIZE ISZERO DUP1 ISZERO PUSH2 0x1088 JUMPI PUSH1 0x0 DUP1 REVERT JUMPDEST POP GAS CALL ISZERO DUP1 ISZERO PUSH2 0x109C JUMPI RETURNDATASIZE PUSH1 0x0 DUP1 RETURNDATACOPY RETURNDATASIZE PUSH1 0x0 REVERT JUMPDEST POP POP POP POP JUMPDEST JUMPDEST POP POP JUMP JUMPDEST PUSH1 0x0 DUP2 SWAP1 POP SWAP2 SWAP1 POP JUMP JUMPDEST PUSH2 0x10B9 DUP2 PUSH2 0x10A6 JUMP JUMPDEST DUP3 MSTORE POP POP JUMP JUMPDEST PUSH1 0x0 PUSH1 0x20 DUP3 ADD SWAP1 POP PUSH2 0x10D4 PUSH1 0x0 DUP4 ADD DUP5 PUSH2 0x10B0 JUMP JUMPDEST SWAP3 SWAP2 POP POP JUMP JUMPDEST PUSH1 0x0 PUSH1 0x40 MLOAD SWAP1 POP SWAP1 JUMP JUMPDEST PUSH1 0x0 DUP1 REVERT JUMPDEST PUSH2 0x10F2 DUP2 PUSH2 0x10A6 JUMP JUMPDEST DUP2 EQ PUSH2 0x10FD JUMPI PUSH1 0x0 DUP1 REVERT JUMPDEST POP JUMP JUMPDEST PUSH1 0x0 DUP2 CALLDATALOAD SWAP1 POP PUSH2 0x110F DUP2 PUSH2 0x10E9 JUMP JUMPDEST SWAP3 SWAP2 POP POP JUMP JUMPDEST PUSH1 0x0 DUP1 PUSH1 0x40 DUP4 DUP6 SUB SLT ISZERO PUSH2 0x112C JUMPI PUSH2 0x112B PUSH2 0x10E4 JUMP JUMPDEST JUMPDEST PUSH1 0x0 PUSH2 0x113A DUP6 DUP3 DUP7 ADD PUSH2 0x1100 JUMP JUMPDEST SWAP3 POP POP PUSH1 0x20 PUSH2 0x114B DUP6 DUP3 DUP7 ADD PUSH2 0x1100 JUMP JUMPDEST SWAP2 POP POP SWAP3 POP SWAP3 SWAP1 POP JUMP JUMPDEST PUSH1 0x0 DUP1 REVERT JUMPDEST PUSH1 0x0 PUSH1 0x1F NOT PUSH1 0x1F DUP4 ADD AND SWAP1 POP SWAP2 SWAP1 POP JUMP JUMPDEST PUSH32 0x4E487B7100000000000000000000000000000000000000000000000000000000 PUSH1 0x0 MSTORE PUSH1 0x41 PUSH1 0x4 MSTORE PUSH1 0x24 PUSH1 0x0 REVERT JUMPDEST PUSH2 0x11A3 DUP3 PUSH2 0x115A JUMP JUMPDEST DUP2 ADD DUP2 DUP2 LT PUSH8 0xFFFFFFFFFFFFFFFF DUP3 GT OR ISZERO PUSH2 0x11C2 JUMPI PUSH2 0x11C1 PUSH2 0x116B JUMP JUMPDEST JUMPDEST DUP1 PUSH1 0x40 MSTORE POP POP POP JUMP JUMPDEST PUSH1 0x0 PUSH2 0x11D5 PUSH2 0x10DA JUMP JUMPDEST SWAP1 POP PUSH2 0x11E1 DUP3 DUP3 PUSH2 0x119A JUMP JUMPDEST SWAP2 SWAP1 POP JUMP JUMPDEST PUSH1 0x0 PUSH20 0xFFFFFFFFFFFFFFFFFFFFFFFFFFFFFFFFFFFFFFFF DUP3 AND SWAP1 POP SWAP2 SWAP1 POP JUMP JUMPDEST PUSH1 0x0 PUSH2 0x1211 DUP3 PUSH2 0x11E6 JUMP JUMPDEST SWAP1 POP SWAP2 SWAP1 POP JUMP JUMPDEST PUSH2 0x1221 DUP2 PUSH2 0x1206 JUMP JUMPDEST DUP2 EQ PUSH2 0x122C JUMPI PUSH1 0x0 DUP1 REVERT JUMPDEST POP JUMP JUMPDEST PUSH1 0x0 DUP2 MLOAD SWAP1 POP PUSH2 0x123E DUP2 PUSH2 0x1218 JUMP JUMPDEST SWAP3 SWAP2 POP POP JUMP JUMPDEST PUSH1 0x0 DUP2 MLOAD SWAP1 POP PUSH2 0x1253 DUP2 PUSH2 0x10E9 JUMP JUMPDEST SWAP3 SWAP2 POP POP JUMP JUMPDEST PUSH1 0x0 PUSH1 0x80 DUP3 DUP5 SUB SLT ISZERO PUSH2 0x126F JUMPI PUSH2 0x126E PUSH2 0x1155 JUMP JUMPDEST JUMPDEST PUSH2 0x1279 PUSH1 0x80 PUSH2 0x11CB JUMP JUMPDEST SWAP1 POP PUSH1 0x0 PUSH2 0x1289 DUP5 DUP3 DUP6 ADD PUSH2 0x122F JUMP JUMPDEST PUSH1 0x0 DUP4 ADD MSTORE POP PUSH1 0x20 PUSH2 0x129D DUP5 DUP3 DUP6 ADD PUSH2 0x1244 JUMP JUMPDEST PUSH1 0x20 DUP4 ADD MSTORE POP PUSH1 0x40 PUSH2 0x12B1 DUP5 DUP3 DUP6 ADD PUSH2 0x1244 JUMP JUMPDEST PUSH1 0x40 DUP4 ADD MSTORE POP PUSH1 0x60 PUSH2 0x12C5 DUP5 DUP3 DUP6 ADD PUSH2 0x1244 JUMP JUMPDEST PUSH1 0x60 DUP4 ADD MSTORE POP SWAP3 SWAP2 POP POP JUMP JUMPDEST PUSH1 0x0 PUSH1 0x80 DUP3 DUP5 SUB SLT ISZERO PUSH2 0x12E7 JUMPI PUSH2 0x12E6 PUSH2 0x10E4 JUMP JUMPDEST JUMPDEST PUSH1 0x0 PUSH2 0x12F5 DUP5 DUP3 DUP6 ADD PUSH2 0x1259 JUMP JUMPDEST SWAP2 POP POP SWAP3 SWAP2 POP POP JUMP JUMPDEST PUSH32 0x4E487B7100000000000000000000000000000000000000000000000000000000 PUSH1 0x0 MSTORE PUSH1 0x11 PUSH1 0x4 MSTORE PUSH1 0x24 PUSH1 0x0 REVERT JUMPDEST PUSH1 0x0 PUSH2 0x1338 DUP3 PUSH2 0x10A6 JUMP JUMPDEST SWAP2 POP PUSH2 0x1343 DUP4 PUSH2 0x10A6 JUMP JUMPDEST SWAP3 POP DUP3 DUP3 MUL PUSH2 0x1351 DUP2 PUSH2 0x10A6 JUMP JUMPDEST SWAP2 POP DUP3 DUP3 DIV DUP5 EQ DUP4 ISZERO OR PUSH2 0x1368 JUMPI PUSH2 0x1367 PUSH2 0x12FE JUMP JUMPDEST JUMPDEST POP SWAP3 SWAP2 POP POP JUMP JUMPDEST PUSH2 0x1378 DUP2 PUSH2 0x1206 JUMP JUMPDEST DUP3 MSTORE POP POP JUMP JUMPDEST PUSH2 0x1387 DUP2 PUSH2 0x10A6 JUMP JUMPDEST DUP3 MSTORE POP POP JUMP JUMPDEST PUSH1 0x80 DUP3 ADD PUSH1 0x0 DUP3 ADD MLOAD PUSH2 0x13A3 PUSH1 0x0 DUP6 ADD DUP3 PUSH2 0x136F JUMP JUMPDEST POP PUSH1 0x20 DUP3 ADD MLOAD PUSH2 0x13B6 PUSH1 0x20 DUP6 ADD DUP3 PUSH2 0x137E JUMP JUMPDEST POP PUSH1 0x40 DUP3 ADD MLOAD PUSH2 0x13C9 PUSH1 0x40 DUP6 ADD DUP3 PUSH2 0x137E JUMP JUMPDEST POP PUSH1 0x60 DUP3 ADD MLOAD PUSH2 0x13DC PUSH1 0x60 DUP6 ADD DUP3 PUSH2 0x137E JUMP JUMPDEST POP POP POP POP JUMP JUMPDEST PUSH1 0x0 PUSH1 0x80 DUP3 ADD SWAP1 POP PUSH2 0x13F7 PUSH1 0x0 DUP4 ADD DUP5 PUSH2 0x138D JUMP JUMPDEST SWAP3 SWAP2 POP POP JUMP JUMPDEST PUSH1 0x0 PUSH1 0x80 DUP3 DUP5 SUB SLT ISZERO PUSH2 0x1413 JUMPI PUSH2 0x1412 PUSH2 0x1155 JUMP JUMPDEST JUMPDEST PUSH2 0x141D PUSH1 0x80 PUSH2 0x11CB JUMP JUMPDEST SWAP1 POP PUSH1 0x0 PUSH2 0x142D DUP5 DUP3 DUP6 ADD PUSH2 0x122F JUMP JUMPDEST PUSH1 0x0 DUP4 ADD MSTORE POP PUSH1 0x20 PUSH2 0x1441 DUP5 DUP3 DUP6 ADD PUSH2 0x1244 JUMP JUMPDEST PUSH1 0x20 DUP4 ADD MSTORE POP PUSH1 0x40 PUSH2 0x1455 DUP5 DUP3 DUP6 ADD PUSH2 0x1244 JUMP JUMPDEST PUSH1 0x40 DUP4 ADD MSTORE POP PUSH1 0x60 PUSH2 0x1469 DUP5 DUP3 DUP6 ADD PUSH2 0x1244 JUMP JUMPDEST PUSH1 0x60 DUP4 ADD MSTORE POP SWAP3 SWAP2 POP POP JUMP JUMPDEST PUSH1 0x0 PUSH1 0x80 DUP3 DUP5 SUB SLT ISZERO PUSH2 0x148B JUMPI PUSH2 0x148A PUSH2 0x10E4 JUMP JUMPDEST JUMPDEST PUSH1 0x0 PUSH2 0x1499 DUP5 DUP3 DUP6 ADD PUSH2 0x13FD JUMP JUMPDEST SWAP2 POP POP SWAP3 SWAP2 POP POP JUMP JUMPDEST PUSH2 0x14AB DUP2 PUSH2 0x1206 JUMP JUMPDEST DUP3 MSTORE POP POP JUMP JUMPDEST PUSH1 0x0 PUSH1 0x60 DUP3 ADD SWAP1 POP PUSH2 0x14C6 PUSH1 0x0 DUP4 ADD DUP7 PUSH2 0x14A2 JUMP JUMPDEST PUSH2 0x14D3 PUSH1 0x20 DUP4 ADD DUP6 PUSH2 0x14A2 JUMP JUMPDEST PUSH2 0x14E0 PUSH1 0x40 DUP4 ADD DUP5 PUSH2 0x10B0 JUMP JUMPDEST SWAP5 SWAP4 POP POP POP POP JUMP JUMPDEST PUSH1 0x0 DUP2 ISZERO ISZERO SWAP1 POP SWAP2 SWAP1 POP JUMP JUMPDEST PUSH2 0x14FD DUP2 PUSH2 0x14E8 JUMP JUMPDEST DUP2 EQ PUSH2 0x1508 JUMPI PUSH1 0x0 DUP1 REVERT JUMPDEST POP JUMP JUMPDEST PUSH1 0x0 DUP2 MLOAD SWAP1 POP PUSH2 0x151A DUP2 PUSH2 0x14F4 JUMP JUMPDEST SWAP3 SWAP2 POP POP JUMP JUMPDEST PUSH1 0x0 PUSH1 0x20 DUP3 DUP5 SUB SLT ISZERO PUSH2 0x1536 JUMPI PUSH2 0x1535 PUSH2 0x10E4 JUMP JUMPDEST JUMPDEST PUSH1 0x0 PUSH2 0x1544 DUP5 DUP3 DUP6 ADD PUSH2 0x150B JUMP JUMPDEST SWAP2 POP POP SWAP3 SWAP2 POP POP JUMP JUMPDEST PUSH1 0x0 PUSH2 0x1558 DUP3 PUSH2 0x10A6 JUMP JUMPDEST SWAP2 POP PUSH2 0x1563 DUP4 PUSH2 0x10A6 JUMP JUMPDEST SWAP3 POP DUP3 DUP3 SUB SWAP1 POP DUP2 DUP2 GT ISZERO PUSH2 0x157B JUMPI PUSH2 0x157A PUSH2 0x12FE JUMP JUMPDEST JUMPDEST SWAP3 SWAP2 POP POP JUMP JUMPDEST PUSH1 0x80 DUP3 ADD PUSH1 0x0 DUP3 ADD MLOAD PUSH2 0x1597 PUSH1 0x0 DUP6 ADD DUP3 PUSH2 0x136F JUMP JUMPDEST POP PUSH1 0x20 DUP3 ADD MLOAD PUSH2 0x15AA PUSH1 0x20 DUP6 ADD DUP3 PUSH2 0x137E JUMP JUMPDEST POP PUSH1 0x40 DUP3 ADD MLOAD PUSH2 0x15BD PUSH1 0x40 DUP6 ADD DUP3 PUSH2 0x137E JUMP JUMPDEST POP PUSH1 0x60 DUP3 ADD MLOAD PUSH2 0x15D0 PUSH1 0x60 DUP6 ADD DUP3 PUSH2 0x137E JUMP JUMPDEST POP POP POP POP JUMP JUMPDEST PUSH1 0x0 PUSH1 0x80 DUP3 ADD SWAP1 POP PUSH2 0x15EB PUSH1 0x0 DUP4 ADD DUP5 PUSH2 0x1581 JUMP JUMPDEST SWAP3 SWAP2 POP POP JUMP INVALID LOG2 PUSH5 0x6970667358 0x22 SLT KECCAK256 CALLDATACOPY 0xCA PUSH12 0x76A628B43FE654061517794A 0xAF 0xA8 DUP16 0x5C DUP8 DUP10 0xAE 0x2D PREVRANDAO 0xAB 0xAA 0xEA LOG1 NUMBER PUSH26 0x594764736F6C6343000813003360806040523480156100105760 STOP DUP1 REVERT JUMPDEST POP PUSH1 0x0 PUSH1 0x40 MLOAD DUP1 PUSH1 0x80 ADD PUSH1 0x40 MSTORE DUP1 PUSH1 0x0 PUSH20 0xFFFFFFFFFFFFFFFFFFFFFFFFFFFFFFFFFFFFFFFF AND DUP2 MSTORE PUSH1 0x20 ADD PUSH32 0xFFFFFFFFFFFFFFFFFFFFFFFFFFFFFFFFFFFFFFFFFFFFFFFFFFFFFFFFFFFFFFFF DUP2 MSTORE PUSH1 0x20 ADD PUSH32 0xFFFFFFFFFFFFFFFFFFFFFFFFFFFFFFFFFFFFFFFFFFFFFFFFFFFFFFFFFFFFFFFF DUP2 MSTORE PUSH1 0x20 ADD PUSH32 0xFFFFFFFFFFFFFFFFFFFFFFFFFFFFFFFFFFFFFFFFFFFFFFFFFFFFFFFFFFFFFFFF DUP2 MSTORE POP SWAP1 DUP1 PUSH1 0x1 DUP2 SLOAD ADD DUP1 DUP3 SSTORE DUP1 SWAP2 POP POP PUSH1 0x1 SWAP1 SUB SWAP1 PUSH1 0x0 MSTORE PUSH1 0x20 PUSH1 0x0 KECCAK256 SWAP1 PUSH1 0x4 MUL ADD PUSH1 0x0 SWAP1 SWAP2 SWAP1 SWAP2 SWAP1 SWAP2 POP PUSH1 0x0 DUP3 ADD MLOAD DUP2 PUSH1 0x0 ADD PUSH1 0x0 PUSH2 0x100 EXP DUP2 SLOAD DUP2 PUSH20 0xFFFFFFFFFFFFFFFFFFFFFFFFFFFFFFFFFFFFFFFF MUL NOT AND SWAP1 DUP4 PUSH20 0xFFFFFFFFFFFFFFFFFFFFFFFFFFFFFFFFFFFFFFFF AND MUL OR SWAP1 SSTORE POP PUSH1 0x20 DUP3 ADD MLOAD DUP2 PUSH1 0x1 ADD SSTORE PUSH1 0x40 DUP3 ADD MLOAD DUP2 PUSH1 0x2 ADD SSTORE PUSH1 0x60 DUP3 ADD MLOAD DUP2 PUSH1 0x3 ADD SSTORE POP POP PUSH2 0xED6 DUP1 PUSH2 0x14A PUSH1 0x0 CODECOPY PUSH1 0x0 RETURN INVALID PUSH1 0x80 PUSH1 0x40 MSTORE CALLVALUE DUP1 ISZERO PUSH2 0x10 JUMPI PUSH1 0x0 DUP1 REVERT JUMPDEST POP PUSH1 0x4 CALLDATASIZE LT PUSH2 0x41 JUMPI PUSH1 0x0 CALLDATALOAD PUSH1 0xE0 SHR DUP1 PUSH4 0x7829C469 EQ PUSH2 0x46 JUMPI DUP1 PUSH4 0xA4ECE52C EQ PUSH2 0x62 JUMPI DUP1 PUSH4 0xFE6DCDBA EQ PUSH2 0x6C JUMPI JUMPDEST PUSH1 0x0 DUP1 REVERT JUMPDEST PUSH2 0x60 PUSH1 0x4 DUP1 CALLDATASIZE SUB DUP2 ADD SWAP1 PUSH2 0x5B SWAP2 SWAP1 PUSH2 0xBD1 JUMP JUMPDEST PUSH2 0x8A JUMP JUMPDEST STOP JUMPDEST PUSH2 0x6A PUSH2 0x18B JUMP JUMPDEST STOP JUMPDEST PUSH2 0x74 PUSH2 0x39A JUMP JUMPDEST PUSH1 0x40 MLOAD PUSH2 0x81 SWAP2 SWAP1 PUSH2 0xC71 JUMP JUMPDEST PUSH1 0x40 MLOAD DUP1 SWAP2 SUB SWAP1 RETURN JUMPDEST PUSH1 0x0 DUP2 SWAP1 DUP1 PUSH1 0x1 DUP2 SLOAD ADD DUP1 DUP3 SSTORE DUP1 SWAP2 POP POP PUSH1 0x1 SWAP1 SUB SWAP1 PUSH1 0x0 MSTORE PUSH1 0x20 PUSH1 0x0 KECCAK256 SWAP1 PUSH1 0x4 MUL ADD PUSH1 0x0 SWAP1 SWAP2 SWAP1 SWAP2 SWAP1 SWAP2 POP PUSH1 0x0 DUP3 ADD MLOAD DUP2 PUSH1 0x0 ADD PUSH1 0x0 PUSH2 0x100 EXP DUP2 SLOAD DUP2 PUSH20 0xFFFFFFFFFFFFFFFFFFFFFFFFFFFFFFFFFFFFFFFF MUL NOT AND SWAP1 DUP4 PUSH20 0xFFFFFFFFFFFFFFFFFFFFFFFFFFFFFFFFFFFFFFFF AND MUL OR SWAP1 SSTORE POP PUSH1 0x20 DUP3 ADD MLOAD DUP2 PUSH1 0x1 ADD SSTORE PUSH1 0x40 DUP3 ADD MLOAD DUP2 PUSH1 0x2 ADD SSTORE PUSH1 0x60 DUP3 ADD MLOAD DUP2 PUSH1 0x3 ADD SSTORE POP POP PUSH1 0x0 PUSH1 0x1 PUSH1 0x0 DUP1 SLOAD SWAP1 POP PUSH2 0x131 SWAP2 SWAP1 PUSH2 0xCBB JUMP JUMPDEST SWAP1 POP JUMPDEST PUSH1 0x0 DUP2 GT ISZERO PUSH2 0x187 JUMPI PUSH1 0x0 PUSH1 0x2 PUSH1 0x1 DUP4 PUSH2 0x14E SWAP2 SWAP1 PUSH2 0xCBB JUMP JUMPDEST PUSH2 0x158 SWAP2 SWAP1 PUSH2 0xD1E JUMP JUMPDEST SWAP1 POP PUSH2 0x164 DUP3 DUP3 PUSH2 0x48F JUMP JUMPDEST ISZERO PUSH2 0x17B JUMPI PUSH2 0x173 DUP2 DUP4 PUSH2 0x741 JUMP JUMPDEST DUP1 SWAP2 POP PUSH2 0x181 JUMP JUMPDEST POP PUSH2 0x187 JUMP JUMPDEST POP PUSH2 0x134 JUMP JUMPDEST POP POP JUMP JUMPDEST PUSH1 0x0 DUP1 DUP1 SLOAD SWAP1 POP GT PUSH2 0x1D2 JUMPI PUSH1 0x40 MLOAD PUSH32 0x8C379A000000000000000000000000000000000000000000000000000000000 DUP2 MSTORE PUSH1 0x4 ADD PUSH2 0x1C9 SWAP1 PUSH2 0xDAC JUMP JUMPDEST PUSH1 0x40 MLOAD DUP1 SWAP2 SUB SWAP1 REVERT JUMPDEST PUSH1 0x0 PUSH1 0x1 PUSH1 0x0 DUP1 SLOAD SWAP1 POP PUSH2 0x1E6 SWAP2 SWAP1 PUSH2 0xCBB JUMP JUMPDEST DUP2 SLOAD DUP2 LT PUSH2 0x1F7 JUMPI PUSH2 0x1F6 PUSH2 0xDCC JUMP JUMPDEST JUMPDEST SWAP1 PUSH1 0x0 MSTORE PUSH1 0x20 PUSH1 0x0 KECCAK256 SWAP1 PUSH1 0x4 MUL ADD PUSH1 0x0 DUP1 DUP2 SLOAD DUP2 LT PUSH2 0x219 JUMPI PUSH2 0x218 PUSH2 0xDCC JUMP JUMPDEST JUMPDEST SWAP1 PUSH1 0x0 MSTORE PUSH1 0x20 PUSH1 0x0 KECCAK256 SWAP1 PUSH1 0x4 MUL ADD PUSH1 0x0 DUP3 ADD PUSH1 0x0 SWAP1 SLOAD SWAP1 PUSH2 0x100 EXP SWAP1 DIV PUSH20 0xFFFFFFFFFFFFFFFFFFFFFFFFFFFFFFFFFFFFFFFF AND DUP2 PUSH1 0x0 ADD PUSH1 0x0 PUSH2 0x100 EXP DUP2 SLOAD DUP2 PUSH20 0xFFFFFFFFFFFFFFFFFFFFFFFFFFFFFFFFFFFFFFFF MUL NOT AND SWAP1 DUP4 PUSH20 0xFFFFFFFFFFFFFFFFFFFFFFFFFFFFFFFFFFFFFFFF AND MUL OR SWAP1 SSTORE POP PUSH1 0x1 DUP3 ADD SLOAD DUP2 PUSH1 0x1 ADD SSTORE PUSH1 0x2 DUP3 ADD SLOAD DUP2 PUSH1 0x2 ADD SSTORE PUSH1 0x3 DUP3 ADD SLOAD DUP2 PUSH1 0x3 ADD SSTORE SWAP1 POP POP PUSH1 0x0 PUSH1 0x1 PUSH1 0x0 DUP1 SLOAD SWAP1 POP PUSH2 0x2C3 SWAP2 SWAP1 PUSH2 0xCBB JUMP JUMPDEST DUP2 SLOAD DUP2 LT PUSH2 0x2D4 JUMPI PUSH2 0x2D3 PUSH2 0xDCC JUMP JUMPDEST JUMPDEST SWAP1 PUSH1 0x0 MSTORE PUSH1 0x20 PUSH1 0x0 KECCAK256 SWAP1 PUSH1 0x4 MUL ADD PUSH1 0x0 DUP1 DUP3 ADD PUSH1 0x0 PUSH2 0x100 EXP DUP2 SLOAD SWAP1 PUSH20 0xFFFFFFFFFFFFFFFFFFFFFFFFFFFFFFFFFFFFFFFF MUL NOT AND SWAP1 SSTORE PUSH1 0x1 DUP3 ADD PUSH1 0x0 SWAP1 SSTORE PUSH1 0x2 DUP3 ADD PUSH1 0x0 SWAP1 SSTORE PUSH1 0x3 DUP3 ADD PUSH1 0x0 SWAP1 SSTORE POP POP PUSH1 0x0 DUP1 SLOAD DUP1 PUSH2 0x336 JUMPI PUSH2 0x335 PUSH2 0xDFB JUMP JUMPDEST JUMPDEST PUSH1 0x1 SWAP1 SUB DUP2 DUP2 SWAP1 PUSH1 0x0 MSTORE PUSH1 0x20 PUSH1 0x0 KECCAK256 SWAP1 PUSH1 0x4 MUL ADD PUSH1 0x0 DUP1 DUP3 ADD PUSH1 0x0 PUSH2 0x100 EXP DUP2 SLOAD SWAP1 PUSH20 0xFFFFFFFFFFFFFFFFFFFFFFFFFFFFFFFFFFFFFFFF MUL NOT AND SWAP1 SSTORE PUSH1 0x1 DUP3 ADD PUSH1 0x0 SWAP1 SSTORE PUSH1 0x2 DUP3 ADD PUSH1 0x0 SWAP1 SSTORE PUSH1 0x3 DUP3 ADD PUSH1 0x0 SWAP1 SSTORE POP POP SWAP1 SSTORE PUSH2 0x398 PUSH1 0x0 PUSH2 0x941 JUMP JUMPDEST JUMP JUMPDEST PUSH2 0x3A2 PUSH2 0x9E7 JUMP JUMPDEST PUSH1 0x0 DUP1 DUP1 SLOAD SWAP1 POP GT PUSH2 0x3E9 JUMPI PUSH1 0x40 MLOAD PUSH32 0x8C379A000000000000000000000000000000000000000000000000000000000 DUP2 MSTORE PUSH1 0x4 ADD PUSH2 0x3E0 SWAP1 PUSH2 0xDAC JUMP JUMPDEST PUSH1 0x40 MLOAD DUP1 SWAP2 SUB SWAP1 REVERT JUMPDEST PUSH1 0x0 DUP1 DUP2 SLOAD DUP2 LT PUSH2 0x3FD JUMPI PUSH2 0x3FC PUSH2 0xDCC JUMP JUMPDEST JUMPDEST SWAP1 PUSH1 0x0 MSTORE PUSH1 0x20 PUSH1 0x0 KECCAK256 SWAP1 PUSH1 0x4 MUL ADD PUSH1 0x40 MLOAD DUP1 PUSH1 0x80 ADD PUSH1 0x40 MSTORE SWAP1 DUP2 PUSH1 0x0 DUP3 ADD PUSH1 0x0 SWAP1 SLOAD SWAP1 PUSH2 0x100 EXP SWAP1 DIV PUSH20 0xFFFFFFFFFFFFFFFFFFFFFFFFFFFFFFFFFFFFFFFF AND PUSH20 0xFFFFFFFFFFFFFFFFFFFFFFFFFFFFFFFFFFFFFFFF AND PUSH20 0xFFFFFFFFFFFFFFFFFFFFFFFFFFFFFFFFFFFFFFFF AND DUP2 MSTORE PUSH1 0x20 ADD PUSH1 0x1 DUP3 ADD SLOAD DUP2 MSTORE PUSH1 0x20 ADD PUSH1 0x2 DUP3 ADD SLOAD DUP2 MSTORE PUSH1 0x20 ADD PUSH1 0x3 DUP3 ADD SLOAD DUP2 MSTORE POP POP SWAP1 POP SWAP1 JUMP JUMPDEST PUSH1 0x0 DUP1 DUP3 DUP2 SLOAD DUP2 LT PUSH2 0x4A4 JUMPI PUSH2 0x4A3 PUSH2 0xDCC JUMP JUMPDEST JUMPDEST SWAP1 PUSH1 0x0 MSTORE PUSH1 0x20 PUSH1 0x0 KECCAK256 SWAP1 PUSH1 0x4 MUL ADD PUSH1 0x2 ADD SLOAD PUSH1 0x0 DUP5 DUP2 SLOAD DUP2 LT PUSH2 0x4CA JUMPI PUSH2 0x4C9 PUSH2 0xDCC JUMP JUMPDEST JUMPDEST SWAP1 PUSH1 0x0 MSTORE PUSH1 0x20 PUSH1 0x0 KECCAK256 SWAP1 PUSH1 0x4 MUL ADD PUSH1 0x2 ADD SLOAD SUB PUSH2 0x6EB JUMPI PUSH1 0x0 DUP3 DUP2 SLOAD DUP2 LT PUSH2 0x4F5 JUMPI PUSH2 0x4F4 PUSH2 0xDCC JUMP JUMPDEST JUMPDEST SWAP1 PUSH1 0x0 MSTORE PUSH1 0x20 PUSH1 0x0 KECCAK256 SWAP1 PUSH1 0x4 MUL ADD PUSH1 0x3 ADD SLOAD PUSH1 0x0 DUP5 DUP2 SLOAD DUP2 LT PUSH2 0x51B JUMPI PUSH2 0x51A PUSH2 0xDCC JUMP JUMPDEST JUMPDEST SWAP1 PUSH1 0x0 MSTORE PUSH1 0x20 PUSH1 0x0 KECCAK256 SWAP1 PUSH1 0x4 MUL ADD PUSH1 0x3 ADD SLOAD SUB PUSH2 0x697 JUMPI PUSH1 0x0 DUP3 DUP2 SLOAD DUP2 LT PUSH2 0x546 JUMPI PUSH2 0x545 PUSH2 0xDCC JUMP JUMPDEST JUMPDEST SWAP1 PUSH1 0x0 MSTORE PUSH1 0x20 PUSH1 0x0 KECCAK256 SWAP1 PUSH1 0x4 MUL ADD PUSH1 0x1 ADD SLOAD PUSH1 0x0 DUP5 DUP2 SLOAD DUP2 LT PUSH2 0x56C JUMPI PUSH2 0x56B PUSH2 0xDCC JUMP JUMPDEST JUMPDEST SWAP1 PUSH1 0x0 MSTORE PUSH1 0x20 PUSH1 0x0 KECCAK256 SWAP1 PUSH1 0x4 MUL ADD PUSH1 0x1 ADD SLOAD SUB PUSH2 0x643 JUMPI PUSH1 0x0 DUP3 DUP2 SLOAD DUP2 LT PUSH2 0x597 JUMPI PUSH2 0x596 PUSH2 0xDCC JUMP JUMPDEST JUMPDEST SWAP1 PUSH1 0x0 MSTORE PUSH1 0x20 PUSH1 0x0 KECCAK256 SWAP1 PUSH1 0x4 MUL ADD PUSH1 0x0 ADD PUSH1 0x0 SWAP1 SLOAD SWAP1 PUSH2 0x100 EXP SWAP1 DIV PUSH20 0xFFFFFFFFFFFFFFFFFFFFFFFFFFFFFFFFFFFFFFFF AND PUSH20 0xFFFFFFFFFFFFFFFFFFFFFFFFFFFFFFFFFFFFFFFF AND PUSH1 0x0 DUP5 DUP2 SLOAD DUP2 LT PUSH2 0x5F3 JUMPI PUSH2 0x5F2 PUSH2 0xDCC JUMP JUMPDEST JUMPDEST SWAP1 PUSH1 0x0 MSTORE PUSH1 0x20 PUSH1 0x0 KECCAK256 SWAP1 PUSH1 0x4 MUL ADD PUSH1 0x0 ADD PUSH1 0x0 SWAP1 SLOAD SWAP1 PUSH2 0x100 EXP SWAP1 DIV PUSH20 0xFFFFFFFFFFFFFFFFFFFFFFFFFFFFFFFFFFFFFFFF AND PUSH20 0xFFFFFFFFFFFFFFFFFFFFFFFFFFFFFFFFFFFFFFFF AND LT SWAP1 POP PUSH2 0x73B JUMP JUMPDEST PUSH1 0x0 DUP3 DUP2 SLOAD DUP2 LT PUSH2 0x657 JUMPI PUSH2 0x656 PUSH2 0xDCC JUMP JUMPDEST JUMPDEST SWAP1 PUSH1 0x0 MSTORE PUSH1 0x20 PUSH1 0x0 KECCAK256 SWAP1 PUSH1 0x4 MUL ADD PUSH1 0x1 ADD SLOAD PUSH1 0x0 DUP5 DUP2 SLOAD DUP2 LT PUSH2 0x67D JUMPI PUSH2 0x67C PUSH2 0xDCC JUMP JUMPDEST JUMPDEST SWAP1 PUSH1 0x0 MSTORE PUSH1 0x20 PUSH1 0x0 KECCAK256 SWAP1 PUSH1 0x4 MUL ADD PUSH1 0x1 ADD SLOAD LT SWAP1 POP PUSH2 0x73B JUMP JUMPDEST PUSH1 0x0 DUP3 DUP2 SLOAD DUP2 LT PUSH2 0x6AB JUMPI PUSH2 0x6AA PUSH2 0xDCC JUMP JUMPDEST JUMPDEST SWAP1 PUSH1 0x0 MSTORE PUSH1 0x20 PUSH1 0x0 KECCAK256 SWAP1 PUSH1 0x4 MUL ADD PUSH1 0x3 ADD SLOAD PUSH1 0x0 DUP5 DUP2 SLOAD DUP2 LT PUSH2 0x6D1 JUMPI PUSH2 0x6D0 PUSH2 0xDCC JUMP JUMPDEST JUMPDEST SWAP1 PUSH1 0x0 MSTORE PUSH1 0x20 PUSH1 0x0 KECCAK256 SWAP1 PUSH1 0x4 MUL ADD PUSH1 0x3 ADD SLOAD LT SWAP1 POP PUSH2 0x73B JUMP JUMPDEST PUSH1 0x0 DUP3 DUP2 SLOAD DUP2 LT PUSH2 0x6FF JUMPI PUSH2 0x6FE PUSH2 0xDCC JUMP JUMPDEST JUMPDEST SWAP1 PUSH1 0x0 MSTORE PUSH1 0x20 PUSH1 0x0 KECCAK256 SWAP1 PUSH1 0x4 MUL ADD PUSH1 0x2 ADD SLOAD PUSH1 0x0 DUP5 DUP2 SLOAD DUP2 LT PUSH2 0x725 JUMPI PUSH2 0x724 PUSH2 0xDCC JUMP JUMPDEST JUMPDEST SWAP1 PUSH1 0x0 MSTORE PUSH1 0x20 PUSH1 0x0 KECCAK256 SWAP1 PUSH1 0x4 MUL ADD PUSH1 0x2 ADD SLOAD LT SWAP1 POP JUMPDEST SWAP3 SWAP2 POP POP JUMP JUMPDEST PUSH1 0x0 DUP1 DUP4 DUP2 SLOAD DUP2 LT PUSH2 0x756 JUMPI PUSH2 0x755 PUSH2 0xDCC JUMP JUMPDEST JUMPDEST SWAP1 PUSH1 0x0 MSTORE PUSH1 0x20 PUSH1 0x0 KECCAK256 SWAP1 PUSH1 0x4 MUL ADD PUSH1 0x40 MLOAD DUP1 PUSH1 0x80 ADD PUSH1 0x40 MSTORE SWAP1 DUP2 PUSH1 0x0 DUP3 ADD PUSH1 0x0 SWAP1 SLOAD SWAP1 PUSH2 0x100 EXP SWAP1 DIV PUSH20 0xFFFFFFFFFFFFFFFFFFFFFFFFFFFFFFFFFFFFFFFF AND PUSH20 0xFFFFFFFFFFFFFFFFFFFFFFFFFFFFFFFFFFFFFFFF AND PUSH20 0xFFFFFFFFFFFFFFFFFFFFFFFFFFFFFFFFFFFFFFFF AND DUP2 MSTORE PUSH1 0x20 ADD PUSH1 0x1 DUP3 ADD SLOAD DUP2 MSTORE PUSH1 0x20 ADD PUSH1 0x2 DUP3 ADD SLOAD DUP2 MSTORE PUSH1 0x20 ADD PUSH1 0x3 DUP3 ADD SLOAD DUP2 MSTORE POP POP SWAP1 POP PUSH1 0x0 DUP3 DUP2 SLOAD DUP2 LT PUSH2 0x7F9 JUMPI PUSH2 0x7F8 PUSH2 0xDCC JUMP JUMPDEST JUMPDEST SWAP1 PUSH1 0x0 MSTORE PUSH1 0x20 PUSH1 0x0 KECCAK256 SWAP1 PUSH1 0x4 MUL ADD PUSH1 0x0 DUP5 DUP2 SLOAD DUP2 LT PUSH2 0x81B JUMPI PUSH2 0x81A PUSH2 0xDCC JUMP JUMPDEST JUMPDEST SWAP1 PUSH1 0x0 MSTORE PUSH1 0x20 PUSH1 0x0 KECCAK256 SWAP1 PUSH1 0x4 MUL ADD PUSH1 0x0 DUP3 ADD PUSH1 0x0 SWAP1 SLOAD SWAP1 PUSH2 0x100 EXP SWAP1 DIV PUSH20 0xFFFFFFFFFFFFFFFFFFFFFFFFFFFFFFFFFFFFFFFF AND DUP2 PUSH1 0x0 ADD PUSH1 0x0 PUSH2 0x100 EXP DUP2 SLOAD DUP2 PUSH20 0xFFFFFFFFFFFFFFFFFFFFFFFFFFFFFFFFFFFFFFFF MUL NOT AND SWAP1 DUP4 PUSH20 0xFFFFFFFFFFFFFFFFFFFFFFFFFFFFFFFFFFFFFFFF AND MUL OR SWAP1 SSTORE POP PUSH1 0x1 DUP3 ADD SLOAD DUP2 PUSH1 0x1 ADD SSTORE PUSH1 0x2 DUP3 ADD SLOAD DUP2 PUSH1 0x2 ADD SSTORE PUSH1 0x3 DUP3 ADD SLOAD DUP2 PUSH1 0x3 ADD SSTORE SWAP1 POP POP DUP1 PUSH1 0x0 DUP4 DUP2 SLOAD DUP2 LT PUSH2 0x8C6 JUMPI PUSH2 0x8C5 PUSH2 0xDCC JUMP JUMPDEST JUMPDEST SWAP1 PUSH1 0x0 MSTORE PUSH1 0x20 PUSH1 0x0 KECCAK256 SWAP1 PUSH1 0x4 MUL ADD PUSH1 0x0 DUP3 ADD MLOAD DUP2 PUSH1 0x0 ADD PUSH1 0x0 PUSH2 0x100 EXP DUP2 SLOAD DUP2 PUSH20 0xFFFFFFFFFFFFFFFFFFFFFFFFFFFFFFFFFFFFFFFF MUL NOT AND SWAP1 DUP4 PUSH20 0xFFFFFFFFFFFFFFFFFFFFFFFFFFFFFFFFFFFFFFFF AND MUL OR SWAP1 SSTORE POP PUSH1 0x20 DUP3 ADD MLOAD DUP2 PUSH1 0x1 ADD SSTORE PUSH1 0x40 DUP3 ADD MLOAD DUP2 PUSH1 0x2 ADD SSTORE PUSH1 0x60 DUP3 ADD MLOAD DUP2 PUSH1 0x3 ADD SSTORE SWAP1 POP POP POP POP POP JUMP JUMPDEST PUSH1 0x0 PUSH1 0x1 DUP3 PUSH1 0x2 PUSH2 0x952 SWAP2 SWAP1 PUSH2 0xE2A JUMP JUMPDEST PUSH2 0x95C SWAP2 SWAP1 PUSH2 0xE6C JUMP JUMPDEST SWAP1 POP PUSH1 0x0 PUSH1 0x2 DUP4 PUSH1 0x2 PUSH2 0x96F SWAP2 SWAP1 PUSH2 0xE2A JUMP JUMPDEST PUSH2 0x979 SWAP2 SWAP1 PUSH2 0xE6C JUMP JUMPDEST SWAP1 POP PUSH1 0x0 DUP4 SWAP1 POP PUSH1 0x0 DUP1 SLOAD SWAP1 POP DUP4 LT DUP1 ISZERO PUSH2 0x99A JUMPI POP PUSH2 0x999 DUP4 DUP3 PUSH2 0x48F JUMP JUMPDEST JUMPDEST ISZERO PUSH2 0x9A3 JUMPI DUP3 SWAP1 POP JUMPDEST PUSH1 0x0 DUP1 SLOAD SWAP1 POP DUP3 LT DUP1 ISZERO PUSH2 0x9BD JUMPI POP PUSH2 0x9BC DUP3 DUP3 PUSH2 0x48F JUMP JUMPDEST JUMPDEST ISZERO PUSH2 0x9C6 JUMPI DUP2 SWAP1 POP JUMPDEST DUP4 DUP2 EQ PUSH2 0x9E1 JUMPI PUSH2 0x9D7 DUP5 DUP3 PUSH2 0x741 JUMP JUMPDEST PUSH2 0x9E0 DUP2 PUSH2 0x941 JUMP JUMPDEST JUMPDEST POP POP POP POP JUMP JUMPDEST PUSH1 0x40 MLOAD DUP1 PUSH1 0x80 ADD PUSH1 0x40 MSTORE DUP1 PUSH1 0x0 PUSH20 0xFFFFFFFFFFFFFFFFFFFFFFFFFFFFFFFFFFFFFFFF AND DUP2 MSTORE PUSH1 0x20 ADD PUSH1 0x0 DUP2 MSTORE PUSH1 0x20 ADD PUSH1 0x0 DUP2 MSTORE PUSH1 0x20 ADD PUSH1 0x0 DUP2 MSTORE POP SWAP1 JUMP JUMPDEST PUSH1 0x0 PUSH1 0x40 MLOAD SWAP1 POP SWAP1 JUMP JUMPDEST PUSH1 0x0 DUP1 REVERT JUMPDEST PUSH1 0x0 DUP1 REVERT JUMPDEST PUSH1 0x0 PUSH1 0x1F NOT PUSH1 0x1F DUP4 ADD AND SWAP1 POP SWAP2 SWAP1 POP JUMP JUMPDEST PUSH32 0x4E487B7100000000000000000000000000000000000000000000000000000000 PUSH1 0x0 MSTORE PUSH1 0x41 PUSH1 0x4 MSTORE PUSH1 0x24 PUSH1 0x0 REVERT JUMPDEST PUSH2 0xA82 DUP3 PUSH2 0xA39 JUMP JUMPDEST DUP2 ADD DUP2 DUP2 LT PUSH8 0xFFFFFFFFFFFFFFFF DUP3 GT OR ISZERO PUSH2 0xAA1 JUMPI PUSH2 0xAA0 PUSH2 0xA4A JUMP JUMPDEST JUMPDEST DUP1 PUSH1 0x40 MSTORE POP POP POP JUMP JUMPDEST PUSH1 0x0 PUSH2 0xAB4 PUSH2 0xA25 JUMP JUMPDEST SWAP1 POP PUSH2 0xAC0 DUP3 DUP3 PUSH2 0xA79 JUMP JUMPDEST SWAP2 SWAP1 POP JUMP JUMPDEST PUSH1 0x0 PUSH20 0xFFFFFFFFFFFFFFFFFFFFFFFFFFFFFFFFFFFFFFFF DUP3 AND SWAP1 POP SWAP2 SWAP1 POP JUMP JUMPDEST PUSH1 0x0 PUSH2 0xAF0 DUP3 PUSH2 0xAC5 JUMP JUMPDEST SWAP1 POP SWAP2 SWAP1 POP JUMP JUMPDEST PUSH2 0xB00 DUP2 PUSH2 0xAE5 JUMP JUMPDEST DUP2 EQ PUSH2 0xB0B JUMPI PUSH1 0x0 DUP1 REVERT JUMPDEST POP JUMP JUMPDEST PUSH1 0x0 DUP2 CALLDATALOAD SWAP1 POP PUSH2 0xB1D DUP2 PUSH2 0xAF7 JUMP JUMPDEST SWAP3 SWAP2 POP POP JUMP JUMPDEST PUSH1 0x0 DUP2 SWAP1 POP SWAP2 SWAP1 POP JUMP JUMPDEST PUSH2 0xB36 DUP2 PUSH2 0xB23 JUMP JUMPDEST DUP2 EQ PUSH2 0xB41 JUMPI PUSH1 0x0 DUP1 REVERT JUMPDEST POP JUMP JUMPDEST PUSH1 0x0 DUP2 CALLDATALOAD SWAP1 POP PUSH2 0xB53 DUP2 PUSH2 0xB2D JUMP JUMPDEST SWAP3 SWAP2 POP POP JUMP JUMPDEST PUSH1 0x0 PUSH1 0x80 DUP3 DUP5 SUB SLT ISZERO PUSH2 0xB6F JUMPI PUSH2 0xB6E PUSH2 0xA34 JUMP JUMPDEST JUMPDEST PUSH2 0xB79 PUSH1 0x80 PUSH2 0xAAA JUMP JUMPDEST SWAP1 POP PUSH1 0x0 PUSH2 0xB89 DUP5 DUP3 DUP6 ADD PUSH2 0xB0E JUMP JUMPDEST PUSH1 0x0 DUP4 ADD MSTORE POP PUSH1 0x20 PUSH2 0xB9D DUP5 DUP3 DUP6 ADD PUSH2 0xB44 JUMP JUMPDEST PUSH1 0x20 DUP4 ADD MSTORE POP PUSH1 0x40 PUSH2 0xBB1 DUP5 DUP3 DUP6 ADD PUSH2 0xB44 JUMP JUMPDEST PUSH1 0x40 DUP4 ADD MSTORE POP PUSH1 0x60 PUSH2 0xBC5 DUP5 DUP3 DUP6 ADD PUSH2 0xB44 JUMP JUMPDEST PUSH1 0x60 DUP4 ADD MSTORE POP SWAP3 SWAP2 POP POP JUMP JUMPDEST PUSH1 0x0 PUSH1 0x80 DUP3 DUP5 SUB SLT ISZERO PUSH2 0xBE7 JUMPI PUSH2 0xBE6 PUSH2 0xA2F JUMP JUMPDEST JUMPDEST PUSH1 0x0 PUSH2 0xBF5 DUP5 DUP3 DUP6 ADD PUSH2 0xB59 JUMP JUMPDEST SWAP2 POP POP SWAP3 SWAP2 POP POP JUMP JUMPDEST PUSH2 0xC07 DUP2 PUSH2 0xAE5 JUMP JUMPDEST DUP3 MSTORE POP POP JUMP JUMPDEST PUSH2 0xC16 DUP2 PUSH2 0xB23 JUMP JUMPDEST DUP3 MSTORE POP POP JUMP JUMPDEST PUSH1 0x80 DUP3 ADD PUSH1 0x0 DUP3 ADD MLOAD PUSH2 0xC32 PUSH1 0x0 DUP6 ADD DUP3 PUSH2 0xBFE JUMP JUMPDEST POP PUSH1 0x20 DUP3 ADD MLOAD PUSH2 0xC45 PUSH1 0x20 DUP6 ADD DUP3 PUSH2 0xC0D JUMP JUMPDEST POP PUSH1 0x40 DUP3 ADD MLOAD PUSH2 0xC58 PUSH1 0x40 DUP6 ADD DUP3 PUSH2 0xC0D JUMP JUMPDEST POP PUSH1 0x60 DUP3 ADD MLOAD PUSH2 0xC6B PUSH1 0x60 DUP6 ADD DUP3 PUSH2 0xC0D JUMP JUMPDEST POP POP POP POP JUMP JUMPDEST PUSH1 0x0 PUSH1 0x80 DUP3 ADD SWAP1 POP PUSH2 0xC86 PUSH1 0x0 DUP4 ADD DUP5 PUSH2 0xC1C JUMP JUMPDEST SWAP3 SWAP2 POP POP JUMP JUMPDEST PUSH32 0x4E487B7100000000000000000000000000000000000000000000000000000000 PUSH1 0x0 MSTORE PUSH1 0x11 PUSH1 0x4 MSTORE PUSH1 0x24 PUSH1 0x0 REVERT JUMPDEST PUSH1 0x0 PUSH2 0xCC6 DUP3 PUSH2 0xB23 JUMP JUMPDEST SWAP2 POP PUSH2 0xCD1 DUP4 PUSH2 0xB23 JUMP JUMPDEST SWAP3 POP DUP3 DUP3 SUB SWAP1 POP DUP2 DUP2 GT ISZERO PUSH2 0xCE9 JUMPI PUSH2 0xCE8 PUSH2 0xC8C JUMP JUMPDEST JUMPDEST SWAP3 SWAP2 POP POP JUMP JUMPDEST PUSH32 0x4E487B7100000000000000000000000000000000000000000000000000000000 PUSH1 0x0 MSTORE PUSH1 0x12 PUSH1 0x4 MSTORE PUSH1 0x24 PUSH1 0x0 REVERT JUMPDEST PUSH1 0x0 PUSH2 0xD29 DUP3 PUSH2 0xB23 JUMP JUMPDEST SWAP2 POP PUSH2 0xD34 DUP4 PUSH2 0xB23 JUMP JUMPDEST SWAP3 POP DUP3 PUSH2 0xD44 JUMPI PUSH2 0xD43 PUSH2 0xCEF JUMP JUMPDEST JUMPDEST DUP3 DUP3 DIV SWAP1 POP SWAP3 SWAP2 POP POP JUMP JUMPDEST PUSH1 0x0 DUP3 DUP3 MSTORE PUSH1 0x20 DUP3 ADD SWAP1 POP SWAP3 SWAP2 POP POP JUMP JUMPDEST PUSH32 0x6865617020697320656D70747900000000000000000000000000000000000000 PUSH1 0x0 DUP3 ADD MSTORE POP JUMP JUMPDEST PUSH1 0x0 PUSH2 0xD96 PUSH1 0xD DUP4 PUSH2 0xD4F JUMP JUMPDEST SWAP2 POP PUSH2 0xDA1 DUP3 PUSH2 0xD60 JUMP JUMPDEST PUSH1 0x20 DUP3 ADD SWAP1 POP SWAP2 SWAP1 POP JUMP JUMPDEST PUSH1 0x0 PUSH1 0x20 DUP3 ADD SWAP1 POP DUP2 DUP2 SUB PUSH1 0x0 DUP4 ADD MSTORE PUSH2 0xDC5 DUP2 PUSH2 0xD89 JUMP JUMPDEST SWAP1 POP SWAP2 SWAP1 POP JUMP JUMPDEST PUSH32 0x4E487B7100000000000000000000000000000000000000000000000000000000 PUSH1 0x0 MSTORE PUSH1 0x32 PUSH1 0x4 MSTORE PUSH1 0x24 PUSH1 0x0 REVERT JUMPDEST PUSH32 0x4E487B7100000000000000000000000000000000000000000000000000000000 PUSH1 0x0 MSTORE PUSH1 0x31 PUSH1 0x4 MSTORE PUSH1 0x24 PUSH1 0x0 REVERT JUMPDEST PUSH1 0x0 PUSH2 0xE35 DUP3 PUSH2 0xB23 JUMP JUMPDEST SWAP2 POP PUSH2 0xE40 DUP4 PUSH2 0xB23 JUMP JUMPDEST SWAP3 POP DUP3 DUP3 MUL PUSH2 0xE4E DUP2 PUSH2 0xB23 JUMP JUMPDEST SWAP2 POP DUP3 DUP3 DIV DUP5 EQ DUP4 ISZERO OR PUSH2 0xE65 JUMPI PUSH2 0xE64 PUSH2 0xC8C JUMP JUMPDEST JUMPDEST POP SWAP3 SWAP2 POP POP JUMP JUMPDEST PUSH1 0x0 PUSH2 0xE77 DUP3 PUSH2 0xB23 JUMP JUMPDEST SWAP2 POP PUSH2 0xE82 DUP4 PUSH2 0xB23 JUMP JUMPDEST SWAP3 POP DUP3 DUP3 ADD SWAP1 POP DUP1 DUP3 GT ISZERO PUSH2 0xE9A JUMPI PUSH2 0xE99 PUSH2 0xC8C JUMP JUMPDEST JUMPDEST SWAP3 SWAP2 POP POP JUMP INVALID LOG2 PUSH5 0x6970667358 0x22 SLT KECCAK256 EQ MLOAD 0xD1 0xD4 SWAP2 0xEA LT 0xC9 0xE1 SHR 0xCB PUSH15 0x81A2907D1A1F35287DAFE7160544A6 0x25 MSTORE8 PUSH1 0x93 MULMOD PUSH5 0x736F6C6343 STOP ADDMOD SGT STOP CALLER PUSH1 0x80 PUSH1 0x40 MSTORE CALLVALUE DUP1 ISZERO PUSH2 0x10 JUMPI PUSH1 0x0 DUP1 REVERT JUMPDEST POP PUSH1 0x0 PUSH1 0x40 MLOAD DUP1 PUSH1 0x80 ADD PUSH1 0x40 MSTORE DUP1 PUSH1 0x0 PUSH20 0xFFFFFFFFFFFFFFFFFFFFFFFFFFFFFFFFFFFFFFFF AND DUP2 MSTORE PUSH1 0x20 ADD PUSH32 0xFFFFFFFFFFFFFFFFFFFFFFFFFFFFFFFFFFFFFFFFFFFFFFFFFFFFFFFFFFFFFFFF DUP2 MSTORE PUSH1 0x20 ADD PUSH1 0x1 DUP2 MSTORE PUSH1 0x20 ADD PUSH32 0xFFFFFFFFFFFFFFFFFFFFFFFFFFFFFFFFFFFFFFFFFFFFFFFFFFFFFFFFFFFFFFFF DUP2 MSTORE POP SWAP1 DUP1 PUSH1 0x1 DUP2 SLOAD ADD DUP1 DUP3 SSTORE DUP1 SWAP2 POP POP PUSH1 0x1 SWAP1 SUB SWAP1 PUSH1 0x0 MSTORE PUSH1 0x20 PUSH1 0x0 KECCAK256 SWAP1 PUSH1 0x4 MUL ADD PUSH1 0x0 SWAP1 SWAP2 SWAP1 SWAP2 SWAP1 SWAP2 POP PUSH1 0x0 DUP3 ADD MLOAD DUP2 PUSH1 0x0 ADD PUSH1 0x0 PUSH2 0x100 EXP DUP2 SLOAD DUP2 PUSH20 0xFFFFFFFFFFFFFFFFFFFFFFFFFFFFFFFFFFFFFFFF MUL NOT AND SWAP1 DUP4 PUSH20 0xFFFFFFFFFFFFFFFFFFFFFFFFFFFFFFFFFFFFFFFF AND MUL OR SWAP1 SSTORE POP PUSH1 0x20 DUP3 ADD MLOAD DUP2 PUSH1 0x1 ADD SSTORE PUSH1 0x40 DUP3 ADD MLOAD DUP2 PUSH1 0x2 ADD SSTORE PUSH1 0x60 DUP3 ADD MLOAD DUP2 PUSH1 0x3 ADD SSTORE POP POP PUSH2 0xED6 DUP1 PUSH2 0x12B PUSH1 0x0 CODECOPY PUSH1 0x0 RETURN INVALID PUSH1 0x80 PUSH1 0x40 MSTORE CALLVALUE DUP1 ISZERO PUSH2 0x10 JUMPI PUSH1 0x0 DUP1 REVERT JUMPDEST POP PUSH1 0x4 CALLDATASIZE LT PUSH2 0x41 JUMPI PUSH1 0x0 CALLDATALOAD PUSH1 0xE0 SHR DUP1 PUSH4 0x7829C469 EQ PUSH2 0x46 JUMPI DUP1 PUSH4 0xA4ECE52C EQ PUSH2 0x62 JUMPI DUP1 PUSH4 0xFE6DCDBA EQ PUSH2 0x6C JUMPI JUMPDEST PUSH1 0x0 DUP1 REVERT JUMPDEST PUSH2 0x60 PUSH1 0x4 DUP1 CALLDATASIZE SUB DUP2 ADD SWAP1 PUSH2 0x5B SWAP2 SWAP1 PUSH2 0xBD1 JUMP JUMPDEST PUSH2 0x8A JUMP JUMPDEST STOP JUMPDEST PUSH2 0x6A PUSH2 0x18B JUMP JUMPDEST STOP JUMPDEST PUSH2 0x74 PUSH2 0x39A JUMP JUMPDEST PUSH1 0x40 MLOAD PUSH2 0x81 SWAP2 SWAP1 PUSH2 0xC71 JUMP JUMPDEST PUSH1 0x40 MLOAD DUP1 SWAP2 SUB SWAP1 RETURN JUMPDEST PUSH1 0x0 DUP2 SWAP1 DUP1 PUSH1 0x1 DUP2 SLOAD ADD DUP1 DUP3 SSTORE DUP1 SWAP2 POP POP PUSH1 0x1 SWAP1 SUB SWAP1 PUSH1 0x0 MSTORE PUSH1 0x20 PUSH1 0x0 KECCAK256 SWAP1 PUSH1 0x4 MUL ADD PUSH1 0x0 SWAP1 SWAP2 SWAP1 SWAP2 SWAP1 SWAP2 POP PUSH1 0x0 DUP3 ADD MLOAD DUP2 PUSH1 0x0 ADD PUSH1 0x0 PUSH2 0x100 EXP DUP2 SLOAD DUP2 PUSH20 0xFFFFFFFFFFFFFFFFFFFFFFFFFFFFFFFFFFFFFFFF MUL NOT AND SWAP1 DUP4 PUSH20 0xFFFFFFFFFFFFFFFFFFFFFFFFFFFFFFFFFFFFFFFF AND MUL OR SWAP1 SSTORE POP PUSH1 0x20 DUP3 ADD MLOAD DUP2 PUSH1 0x1 ADD SSTORE PUSH1 0x40 DUP3 ADD MLOAD DUP2 PUSH1 0x2 ADD SSTORE PUSH1 0x60 DUP3 ADD MLOAD DUP2 PUSH1 0x3 ADD SSTORE POP POP PUSH1 0x0 PUSH1 0x1 PUSH1 0x0 DUP1 SLOAD SWAP1 POP PUSH2 0x131 SWAP2 SWAP1 PUSH2 0xCBB JUMP JUMPDEST SWAP1 POP JUMPDEST PUSH1 0x0 DUP2 GT ISZERO PUSH2 0x187 JUMPI PUSH1 0x0 PUSH1 0x2 PUSH1 0x1 DUP4 PUSH2 0x14E SWAP2 SWAP1 PUSH2 0xCBB JUMP JUMPDEST PUSH2 0x158 SWAP2 SWAP1 PUSH2 0xD1E JUMP JUMPDEST SWAP1 POP PUSH2 0x164 DUP3 DUP3 PUSH2 0x48F JUMP JUMPDEST ISZERO PUSH2 0x17B JUMPI PUSH2 0x173 DUP2 DUP4 PUSH2 0x741 JUMP JUMPDEST DUP1 SWAP2 POP PUSH2 0x181 JUMP JUMPDEST POP PUSH2 0x187 JUMP JUMPDEST POP PUSH2 0x134 JUMP JUMPDEST POP POP JUMP JUMPDEST PUSH1 0x0 DUP1 DUP1 SLOAD SWAP1 POP GT PUSH2 0x1D2 JUMPI PUSH1 0x40 MLOAD PUSH32 0x8C379A000000000000000000000000000000000000000000000000000000000 DUP2 MSTORE PUSH1 0x4 ADD PUSH2 0x1C9 SWAP1 PUSH2 0xDAC JUMP JUMPDEST PUSH1 0x40 MLOAD DUP1 SWAP2 SUB SWAP1 REVERT JUMPDEST PUSH1 0x0 PUSH1 0x1 PUSH1 0x0 DUP1 SLOAD SWAP1 POP PUSH2 0x1E6 SWAP2 SWAP1 PUSH2 0xCBB JUMP JUMPDEST DUP2 SLOAD DUP2 LT PUSH2 0x1F7 JUMPI PUSH2 0x1F6 PUSH2 0xDCC JUMP JUMPDEST JUMPDEST SWAP1 PUSH1 0x0 MSTORE PUSH1 0x20 PUSH1 0x0 KECCAK256 SWAP1 PUSH1 0x4 MUL ADD PUSH1 0x0 DUP1 DUP2 SLOAD DUP2 LT PUSH2 0x219 JUMPI PUSH2 0x218 PUSH2 0xDCC JUMP JUMPDEST JUMPDEST SWAP1 PUSH1 0x0 MSTORE PUSH1 0x20 PUSH1 0x0 KECCAK256 SWAP1 PUSH1 0x4 MUL ADD PUSH1 0x0 DUP3 ADD PUSH1 0x0 SWAP1 SLOAD SWAP1 PUSH2 0x100 EXP SWAP1 DIV PUSH20 0xFFFFFFFFFFFFFFFFFFFFFFFFFFFFFFFFFFFFFFFF AND DUP2 PUSH1 0x0 ADD PUSH1 0x0 PUSH2 0x100 EXP DUP2 SLOAD DUP2 PUSH20 0xFFFFFFFFFFFFFFFFFFFFFFFFFFFFFFFFFFFFFFFF MUL NOT AND SWAP1 DUP4 PUSH20 0xFFFFFFFFFFFFFFFFFFFFFFFFFFFFFFFFFFFFFFFF AND MUL OR SWAP1 SSTORE POP PUSH1 0x1 DUP3 ADD SLOAD DUP2 PUSH1 0x1 ADD SSTORE PUSH1 0x2 DUP3 ADD SLOAD DUP2 PUSH1 0x2 ADD SSTORE PUSH1 0x3 DUP3 ADD SLOAD DUP2 PUSH1 0x3 ADD SSTORE SWAP1 POP POP PUSH1 0x0 PUSH1 0x1 PUSH1 0x0 DUP1 SLOAD SWAP1 POP PUSH2 0x2C3 SWAP2 SWAP1 PUSH2 0xCBB JUMP JUMPDEST DUP2 SLOAD DUP2 LT PUSH2 0x2D4 JUMPI PUSH2 0x2D3 PUSH2 0xDCC JUMP JUMPDEST JUMPDEST SWAP1 PUSH1 0x0 MSTORE PUSH1 0x20 PUSH1 0x0 KECCAK256 SWAP1 PUSH1 0x4 MUL ADD PUSH1 0x0 DUP1 DUP3 ADD PUSH1 0x0 PUSH2 0x100 EXP DUP2 SLOAD SWAP1 PUSH20 0xFFFFFFFFFFFFFFFFFFFFFFFFFFFFFFFFFFFFFFFF MUL NOT AND SWAP1 SSTORE PUSH1 0x1 DUP3 ADD PUSH1 0x0 SWAP1 SSTORE PUSH1 0x2 DUP3 ADD PUSH1 0x0 SWAP1 SSTORE PUSH1 0x3 DUP3 ADD PUSH1 0x0 SWAP1 SSTORE POP POP PUSH1 0x0 DUP1 SLOAD DUP1 PUSH2 0x336 JUMPI PUSH2 0x335 PUSH2 0xDFB JUMP JUMPDEST JUMPDEST PUSH1 0x1 SWAP1 SUB DUP2 DUP2 SWAP1 PUSH1 0x0 MSTORE PUSH1 0x20 PUSH1 0x0 KECCAK256 SWAP1 PUSH1 0x4 MUL ADD PUSH1 0x0 DUP1 DUP3 ADD PUSH1 0x0 PUSH2 0x100 EXP DUP2 SLOAD SWAP1 PUSH20 0xFFFFFFFFFFFFFFFFFFFFFFFFFFFFFFFFFFFFFFFF MUL NOT AND SWAP1 SSTORE PUSH1 0x1 DUP3 ADD PUSH1 0x0 SWAP1 SSTORE PUSH1 0x2 DUP3 ADD PUSH1 0x0 SWAP1 SSTORE PUSH1 0x3 DUP3 ADD PUSH1 0x0 SWAP1 SSTORE POP POP SWAP1 SSTORE PUSH2 0x398 PUSH1 0x0 PUSH2 0x941 JUMP JUMPDEST JUMP JUMPDEST PUSH2 0x3A2 PUSH2 0x9E7 JUMP JUMPDEST PUSH1 0x0 DUP1 DUP1 SLOAD SWAP1 POP GT PUSH2 0x3E9 JUMPI PUSH1 0x40 MLOAD PUSH32 0x8C379A000000000000000000000000000000000000000000000000000000000 DUP2 MSTORE PUSH1 0x4 ADD PUSH2 0x3E0 SWAP1 PUSH2 0xDAC JUMP JUMPDEST PUSH1 0x40 MLOAD DUP1 SWAP2 SUB SWAP1 REVERT JUMPDEST PUSH1 0x0 DUP1 DUP2 SLOAD DUP2 LT PUSH2 0x3FD JUMPI PUSH2 0x3FC PUSH2 0xDCC JUMP JUMPDEST JUMPDEST SWAP1 PUSH1 0x0 MSTORE PUSH1 0x20 PUSH1 0x0 KECCAK256 SWAP1 PUSH1 0x4 MUL ADD PUSH1 0x40 MLOAD DUP1 PUSH1 0x80 ADD PUSH1 0x40 MSTORE SWAP1 DUP2 PUSH1 0x0 DUP3 ADD PUSH1 0x0 SWAP1 SLOAD SWAP1 PUSH2 0x100 EXP SWAP1 DIV PUSH20 0xFFFFFFFFFFFFFFFFFFFFFFFFFFFFFFFFFFFFFFFF AND PUSH20 0xFFFFFFFFFFFFFFFFFFFFFFFFFFFFFFFFFFFFFFFF AND PUSH20 0xFFFFFFFFFFFFFFFFFFFFFFFFFFFFFFFFFFFFFFFF AND DUP2 MSTORE PUSH1 0x20 ADD PUSH1 0x1 DUP3 ADD SLOAD DUP2 MSTORE PUSH1 0x20 ADD PUSH1 0x2 DUP3 ADD SLOAD DUP2 MSTORE PUSH1 0x20 ADD PUSH1 0x3 DUP3 ADD SLOAD DUP2 MSTORE POP POP SWAP1 POP SWAP1 JUMP JUMPDEST PUSH1 0x0 DUP1 DUP3 DUP2 SLOAD DUP2 LT PUSH2 0x4A4 JUMPI PUSH2 0x4A3 PUSH2 0xDCC JUMP JUMPDEST JUMPDEST SWAP1 PUSH1 0x0 MSTORE PUSH1 0x20 PUSH1 0x0 KECCAK256 SWAP1 PUSH1 0x4 MUL ADD PUSH1 0x2 ADD SLOAD PUSH1 0x0 DUP5 DUP2 SLOAD DUP2 LT PUSH2 0x4CA JUMPI PUSH2 0x4C9 PUSH2 0xDCC JUMP JUMPDEST JUMPDEST SWAP1 PUSH1 0x0 MSTORE PUSH1 0x20 PUSH1 0x0 KECCAK256 SWAP1 PUSH1 0x4 MUL ADD PUSH1 0x2 ADD SLOAD SUB PUSH2 0x6EB JUMPI PUSH1 0x0 DUP3 DUP2 SLOAD DUP2 LT PUSH2 0x4F5 JUMPI PUSH2 0x4F4 PUSH2 0xDCC JUMP JUMPDEST JUMPDEST SWAP1 PUSH1 0x0 MSTORE PUSH1 0x20 PUSH1 0x0 KECCAK256 SWAP1 PUSH1 0x4 MUL ADD PUSH1 0x3 ADD SLOAD PUSH1 0x0 DUP5 DUP2 SLOAD DUP2 LT PUSH2 0x51B JUMPI PUSH2 0x51A PUSH2 0xDCC JUMP JUMPDEST JUMPDEST SWAP1 PUSH1 0x0 MSTORE PUSH1 0x20 PUSH1 0x0 KECCAK256 SWAP1 PUSH1 0x4 MUL ADD PUSH1 0x3 ADD SLOAD SUB PUSH2 0x697 JUMPI PUSH1 0x0 DUP3 DUP2 SLOAD DUP2 LT PUSH2 0x546 JUMPI PUSH2 0x545 PUSH2 0xDCC JUMP JUMPDEST JUMPDEST SWAP1 PUSH1 0x0 MSTORE PUSH1 0x20 PUSH1 0x0 KECCAK256 SWAP1 PUSH1 0x4 MUL ADD PUSH1 0x1 ADD SLOAD PUSH1 0x0 DUP5 DUP2 SLOAD DUP2 LT PUSH2 0x56C JUMPI PUSH2 0x56B PUSH2 0xDCC JUMP JUMPDEST JUMPDEST SWAP1 PUSH1 0x0 MSTORE PUSH1 0x20 PUSH1 0x0 KECCAK256 SWAP1 PUSH1 0x4 MUL ADD PUSH1 0x1 ADD SLOAD SUB PUSH2 0x643 JUMPI PUSH1 0x0 DUP3 DUP2 SLOAD DUP2 LT PUSH2 0x597 JUMPI PUSH2 0x596 PUSH2 0xDCC JUMP JUMPDEST JUMPDEST SWAP1 PUSH1 0x0 MSTORE PUSH1 0x20 PUSH1 0x0 KECCAK256 SWAP1 PUSH1 0x4 MUL ADD PUSH1 0x0 ADD PUSH1 0x0 SWAP1 SLOAD SWAP1 PUSH2 0x100 EXP SWAP1 DIV PUSH20 0xFFFFFFFFFFFFFFFFFFFFFFFFFFFFFFFFFFFFFFFF AND PUSH20 0xFFFFFFFFFFFFFFFFFFFFFFFFFFFFFFFFFFFFFFFF AND PUSH1 0x0 DUP5 DUP2 SLOAD DUP2 LT PUSH2 0x5F3 JUMPI PUSH2 0x5F2 PUSH2 0xDCC JUMP JUMPDEST JUMPDEST SWAP1 PUSH1 0x0 MSTORE PUSH1 0x20 PUSH1 0x0 KECCAK256 SWAP1 PUSH1 0x4 MUL ADD PUSH1 0x0 ADD PUSH1 0x0 SWAP1 SLOAD SWAP1 PUSH2 0x100 EXP SWAP1 DIV PUSH20 0xFFFFFFFFFFFFFFFFFFFFFFFFFFFFFFFFFFFFFFFF AND PUSH20 0xFFFFFFFFFFFFFFFFFFFFFFFFFFFFFFFFFFFFFFFF AND LT SWAP1 POP PUSH2 0x73B JUMP JUMPDEST PUSH1 0x0 DUP3 DUP2 SLOAD DUP2 LT PUSH2 0x657 JUMPI PUSH2 0x656 PUSH2 0xDCC JUMP JUMPDEST JUMPDEST SWAP1 PUSH1 0x0 MSTORE PUSH1 0x20 PUSH1 0x0 KECCAK256 SWAP1 PUSH1 0x4 MUL ADD PUSH1 0x1 ADD SLOAD PUSH1 0x0 DUP5 DUP2 SLOAD DUP2 LT PUSH2 0x67D JUMPI PUSH2 0x67C PUSH2 0xDCC JUMP JUMPDEST JUMPDEST SWAP1 PUSH1 0x0 MSTORE PUSH1 0x20 PUSH1 0x0 KECCAK256 SWAP1 PUSH1 0x4 MUL ADD PUSH1 0x1 ADD SLOAD LT SWAP1 POP PUSH2 0x73B JUMP JUMPDEST PUSH1 0x0 DUP3 DUP2 SLOAD DUP2 LT PUSH2 0x6AB JUMPI PUSH2 0x6AA PUSH2 0xDCC JUMP JUMPDEST JUMPDEST SWAP1 PUSH1 0x0 MSTORE PUSH1 0x20 PUSH1 0x0 KECCAK256 SWAP1 PUSH1 0x4 MUL ADD PUSH1 0x3 ADD SLOAD PUSH1 0x0 DUP5 DUP2 SLOAD DUP2 LT PUSH2 0x6D1 JUMPI PUSH2 0x6D0 PUSH2 0xDCC JUMP JUMPDEST JUMPDEST SWAP1 PUSH1 0x0 MSTORE PUSH1 0x20 PUSH1 0x0 KECCAK256 SWAP1 PUSH1 0x4 MUL ADD PUSH1 0x3 ADD SLOAD LT SWAP1 POP PUSH2 0x73B JUMP JUMPDEST PUSH1 0x0 DUP3 DUP2 SLOAD DUP2 LT PUSH2 0x6FF JUMPI PUSH2 0x6FE PUSH2 0xDCC JUMP JUMPDEST JUMPDEST SWAP1 PUSH1 0x0 MSTORE PUSH1 0x20 PUSH1 0x0 KECCAK256 SWAP1 PUSH1 0x4 MUL ADD PUSH1 0x2 ADD SLOAD PUSH1 0x0 DUP5 DUP2 SLOAD DUP2 LT PUSH2 0x725 JUMPI PUSH2 0x724 PUSH2 0xDCC JUMP JUMPDEST JUMPDEST SWAP1 PUSH1 0x0 MSTORE PUSH1 0x20 PUSH1 0x0 KECCAK256 SWAP1 PUSH1 0x4 MUL ADD PUSH1 0x2 ADD SLOAD GT SWAP1 POP JUMPDEST SWAP3 SWAP2 POP POP JUMP JUMPDEST PUSH1 0x0 DUP1 DUP4 DUP2 SLOAD DUP2 LT PUSH2 0x756 JUMPI PUSH2 0x755 PUSH2 0xDCC JUMP JUMPDEST JUMPDEST SWAP1 PUSH1 0x0 MSTORE PUSH1 0x20 PUSH1 0x0 KECCAK256 SWAP1 PUSH1 0x4 MUL ADD PUSH1 0x40 MLOAD DUP1 PUSH1 0x80 ADD PUSH1 0x40 MSTORE SWAP1 DUP2 PUSH1 0x0 DUP3 ADD PUSH1 0x0 SWAP1 SLOAD SWAP1 PUSH2 0x100 EXP SWAP1 DIV PUSH20 0xFFFFFFFFFFFFFFFFFFFFFFFFFFFFFFFFFFFFFFFF AND PUSH20 0xFFFFFFFFFFFFFFFFFFFFFFFFFFFFFFFFFFFFFFFF AND PUSH20 0xFFFFFFFFFFFFFFFFFFFFFFFFFFFFFFFFFFFFFFFF AND DUP2 MSTORE PUSH1 0x20 ADD PUSH1 0x1 DUP3 ADD SLOAD DUP2 MSTORE PUSH1 0x20 ADD PUSH1 0x2 DUP3 ADD SLOAD DUP2 MSTORE PUSH1 0x20 ADD PUSH1 0x3 DUP3 ADD SLOAD DUP2 MSTORE POP POP SWAP1 POP PUSH1 0x0 DUP3 DUP2 SLOAD DUP2 LT PUSH2 0x7F9 JUMPI PUSH2 0x7F8 PUSH2 0xDCC JUMP JUMPDEST JUMPDEST SWAP1 PUSH1 0x0 MSTORE PUSH1 0x20 PUSH1 0x0 KECCAK256 SWAP1 PUSH1 0x4 MUL ADD PUSH1 0x0 DUP5 DUP2 SLOAD DUP2 LT PUSH2 0x81B JUMPI PUSH2 0x81A PUSH2 0xDCC JUMP JUMPDEST JUMPDEST SWAP1 PUSH1 0x0 MSTORE PUSH1 0x20 PUSH1 0x0 KECCAK256 SWAP1 PUSH1 0x4 MUL ADD PUSH1 0x0 DUP3 ADD PUSH1 0x0 SWAP1 SLOAD SWAP1 PUSH2 0x100 EXP SWAP1 DIV PUSH20 0xFFFFFFFFFFFFFFFFFFFFFFFFFFFFFFFFFFFFFFFF AND DUP2 PUSH1 0x0 ADD PUSH1 0x0 PUSH2 0x100 EXP DUP2 SLOAD DUP2 PUSH20 0xFFFFFFFFFFFFFFFFFFFFFFFFFFFFFFFFFFFFFFFF MUL NOT AND SWAP1 DUP4 PUSH20 0xFFFFFFFFFFFFFFFFFFFFFFFFFFFFFFFFFFFFFFFF AND MUL OR SWAP1 SSTORE POP PUSH1 0x1 DUP3 ADD SLOAD DUP2 PUSH1 0x1 ADD SSTORE PUSH1 0x2 DUP3 ADD SLOAD DUP2 PUSH1 0x2 ADD SSTORE PUSH1 0x3 DUP3 ADD SLOAD DUP2 PUSH1 0x3 ADD SSTORE SWAP1 POP POP DUP1 PUSH1 0x0 DUP4 DUP2 SLOAD DUP2 LT PUSH2 0x8C6 JUMPI PUSH2 0x8C5 PUSH2 0xDCC JUMP JUMPDEST JUMPDEST SWAP1 PUSH1 0x0 MSTORE PUSH1 0x20 PUSH1 0x0 KECCAK256 SWAP1 PUSH1 0x4 MUL ADD PUSH1 0x0 DUP3 ADD MLOAD DUP2 PUSH1 0x0 ADD PUSH1 0x0 PUSH2 0x100 EXP DUP2 SLOAD DUP2 PUSH20 0xFFFFFFFFFFFFFFFFFFFFFFFFFFFFFFFFFFFFFFFF MUL NOT AND SWAP1 DUP4 PUSH20 0xFFFFFFFFFFFFFFFFFFFFFFFFFFFFFFFFFFFFFFFF AND MUL OR SWAP1 SSTORE POP PUSH1 0x20 DUP3 ADD MLOAD DUP2 PUSH1 0x1 ADD SSTORE PUSH1 0x40 DUP3 ADD MLOAD DUP2 PUSH1 0x2 ADD SSTORE PUSH1 0x60 DUP3 ADD MLOAD DUP2 PUSH1 0x3 ADD SSTORE SWAP1 POP POP POP POP POP JUMP JUMPDEST PUSH1 0x0 PUSH1 0x1 DUP3 PUSH1 0x2 PUSH2 0x952 SWAP2 SWAP1 PUSH2 0xE2A JUMP JUMPDEST PUSH2 0x95C SWAP2 SWAP1 PUSH2 0xE6C JUMP JUMPDEST SWAP1 POP PUSH1 0x0 PUSH1 0x2 DUP4 PUSH1 0x2 PUSH2 0x96F SWAP2 SWAP1 PUSH2 0xE2A JUMP JUMPDEST PUSH2 0x979 SWAP2 SWAP1 PUSH2 0xE6C JUMP JUMPDEST SWAP1 POP PUSH1 0x0 DUP4 SWAP1 POP PUSH1 0x0 DUP1 SLOAD SWAP1 POP DUP4 LT DUP1 ISZERO PUSH2 0x99A JUMPI POP PUSH2 0x999 DUP4 DUP3 PUSH2 0x48F JUMP JUMPDEST JUMPDEST ISZERO PUSH2 0x9A3 JUMPI DUP3 SWAP1 POP JUMPDEST PUSH1 0x0 DUP1 SLOAD SWAP1 POP DUP3 LT DUP1 ISZERO PUSH2 0x9BD JUMPI POP PUSH2 0x9BC DUP3 DUP3 PUSH2 0x48F JUMP JUMPDEST JUMPDEST ISZERO PUSH2 0x9C6 JUMPI DUP2 SWAP1 POP JUMPDEST DUP4 DUP2 EQ PUSH2 0x9E1 JUMPI PUSH2 0x9D7 DUP5 DUP3 PUSH2 0x741 JUMP JUMPDEST PUSH2 0x9E0 DUP2 PUSH2 0x941 JUMP JUMPDEST JUMPDEST POP POP POP POP JUMP JUMPDEST PUSH1 0x40 MLOAD DUP1 PUSH1 0x80 ADD PUSH1 0x40 MSTORE DUP1 PUSH1 0x0 PUSH20 0xFFFFFFFFFFFFFFFFFFFFFFFFFFFFFFFFFFFFFFFF AND DUP2 MSTORE PUSH1 0x20 ADD PUSH1 0x0 DUP2 MSTORE PUSH1 0x20 ADD PUSH1 0x0 DUP2 MSTORE PUSH1 0x20 ADD PUSH1 0x0 DUP2 MSTORE POP SWAP1 JUMP JUMPDEST PUSH1 0x0 PUSH1 0x40 MLOAD SWAP1 POP SWAP1 JUMP JUMPDEST PUSH1 0x0 DUP1 REVERT JUMPDEST PUSH1 0x0 DUP1 REVERT JUMPDEST PUSH1 0x0 PUSH1 0x1F NOT PUSH1 0x1F DUP4 ADD AND SWAP1 POP SWAP2 SWAP1 POP JUMP JUMPDEST PUSH32 0x4E487B7100000000000000000000000000000000000000000000000000000000 PUSH1 0x0 MSTORE PUSH1 0x41 PUSH1 0x4 MSTORE PUSH1 0x24 PUSH1 0x0 REVERT JUMPDEST PUSH2 0xA82 DUP3 PUSH2 0xA39 JUMP JUMPDEST DUP2 ADD DUP2 DUP2 LT PUSH8 0xFFFFFFFFFFFFFFFF DUP3 GT OR ISZERO PUSH2 0xAA1 JUMPI PUSH2 0xAA0 PUSH2 0xA4A JUMP JUMPDEST JUMPDEST DUP1 PUSH1 0x40 MSTORE POP POP POP JUMP JUMPDEST PUSH1 0x0 PUSH2 0xAB4 PUSH2 0xA25 JUMP JUMPDEST SWAP1 POP PUSH2 0xAC0 DUP3 DUP3 PUSH2 0xA79 JUMP JUMPDEST SWAP2 SWAP1 POP JUMP JUMPDEST PUSH1 0x0 PUSH20 0xFFFFFFFFFFFFFFFFFFFFFFFFFFFFFFFFFFFFFFFF DUP3 AND SWAP1 POP SWAP2 SWAP1 POP JUMP JUMPDEST PUSH1 0x0 PUSH2 0xAF0 DUP3 PUSH2 0xAC5 JUMP JUMPDEST SWAP1 POP SWAP2 SWAP1 POP JUMP JUMPDEST PUSH2 0xB00 DUP2 PUSH2 0xAE5 JUMP JUMPDEST DUP2 EQ PUSH2 0xB0B JUMPI PUSH1 0x0 DUP1 REVERT JUMPDEST POP JUMP JUMPDEST PUSH1 0x0 DUP2 CALLDATALOAD SWAP1 POP PUSH2 0xB1D DUP2 PUSH2 0xAF7 JUMP JUMPDEST SWAP3 SWAP2 POP POP JUMP JUMPDEST PUSH1 0x0 DUP2 SWAP1 POP SWAP2 SWAP1 POP JUMP JUMPDEST PUSH2 0xB36 DUP2 PUSH2 0xB23 JUMP JUMPDEST DUP2 EQ PUSH2 0xB41 JUMPI PUSH1 0x0 DUP1 REVERT JUMPDEST POP JUMP JUMPDEST PUSH1 0x0 DUP2 CALLDATALOAD SWAP1 POP PUSH2 0xB53 DUP2 PUSH2 0xB2D JUMP JUMPDEST SWAP3 SWAP2 POP POP JUMP JUMPDEST PUSH1 0x0 PUSH1 0x80 DUP3 DUP5 SUB SLT ISZERO PUSH2 0xB6F JUMPI PUSH2 0xB6E PUSH2 0xA34 JUMP JUMPDEST JUMPDEST PUSH2 0xB79 PUSH1 0x80 PUSH2 0xAAA JUMP JUMPDEST SWAP1 POP PUSH1 0x0 PUSH2 0xB89 DUP5 DUP3 DUP6 ADD PUSH2 0xB0E JUMP JUMPDEST PUSH1 0x0 DUP4 ADD MSTORE POP PUSH1 0x20 PUSH2 0xB9D DUP5 DUP3 DUP6 ADD PUSH2 0xB44 JUMP JUMPDEST PUSH1 0x20 DUP4 ADD MSTORE POP PUSH1 0x40 PUSH2 0xBB1 DUP5 DUP3 DUP6 ADD PUSH2 0xB44 JUMP JUMPDEST PUSH1 0x40 DUP4 ADD MSTORE POP PUSH1 0x60 PUSH2 0xBC5 DUP5 DUP3 DUP6 ADD PUSH2 0xB44 JUMP JUMPDEST PUSH1 0x60 DUP4 ADD MSTORE POP SWAP3 SWAP2 POP POP JUMP JUMPDEST PUSH1 0x0 PUSH1 0x80 DUP3 DUP5 SUB SLT ISZERO PUSH2 0xBE7 JUMPI PUSH2 0xBE6 PUSH2 0xA2F JUMP JUMPDEST JUMPDEST PUSH1 0x0 PUSH2 0xBF5 DUP5 DUP3 DUP6 ADD PUSH2 0xB59 JUMP JUMPDEST SWAP2 POP POP SWAP3 SWAP2 POP POP JUMP JUMPDEST PUSH2 0xC07 DUP2 PUSH2 0xAE5 JUMP JUMPDEST DUP3 MSTORE POP POP JUMP JUMPDEST PUSH2 0xC16 DUP2 PUSH2 0xB23 JUMP JUMPDEST DUP3 MSTORE POP POP JUMP JUMPDEST PUSH1 0x80 DUP3 ADD PUSH1 0x0 DUP3 ADD MLOAD PUSH2 0xC32 PUSH1 0x0 DUP6 ADD DUP3 PUSH2 0xBFE JUMP JUMPDEST POP PUSH1 0x20 DUP3 ADD MLOAD PUSH2 0xC45 PUSH1 0x20 DUP6 ADD DUP3 PUSH2 0xC0D JUMP JUMPDEST POP PUSH1 0x40 DUP3 ADD MLOAD PUSH2 0xC58 PUSH1 0x40 DUP6 ADD DUP3 PUSH2 0xC0D JUMP JUMPDEST POP PUSH1 0x60 DUP3 ADD MLOAD PUSH2 0xC6B PUSH1 0x60 DUP6 ADD DUP3 PUSH2 0xC0D JUMP JUMPDEST POP POP POP POP JUMP JUMPDEST PUSH1 0x0 PUSH1 0x80 DUP3 ADD SWAP1 POP PUSH2 0xC86 PUSH1 0x0 DUP4 ADD DUP5 PUSH2 0xC1C JUMP JUMPDEST SWAP3 SWAP2 POP POP JUMP JUMPDEST PUSH32 0x4E487B7100000000000000000000000000000000000000000000000000000000 PUSH1 0x0 MSTORE PUSH1 0x11 PUSH1 0x4 MSTORE PUSH1 0x24 PUSH1 0x0 REVERT JUMPDEST PUSH1 0x0 PUSH2 0xCC6 DUP3 PUSH2 0xB23 JUMP JUMPDEST SWAP2 POP PUSH2 0xCD1 DUP4 PUSH2 0xB23 JUMP JUMPDEST SWAP3 POP DUP3 DUP3 SUB SWAP1 POP DUP2 DUP2 GT ISZERO PUSH2 0xCE9 JUMPI PUSH2 0xCE8 PUSH2 0xC8C JUMP JUMPDEST JUMPDEST SWAP3 SWAP2 POP POP JUMP JUMPDEST PUSH32 0x4E487B7100000000000000000000000000000000000000000000000000000000 PUSH1 0x0 MSTORE PUSH1 0x12 PUSH1 0x4 MSTORE PUSH1 0x24 PUSH1 0x0 REVERT JUMPDEST PUSH1 0x0 PUSH2 0xD29 DUP3 PUSH2 0xB23 JUMP JUMPDEST SWAP2 POP PUSH2 0xD34 DUP4 PUSH2 0xB23 JUMP JUMPDEST SWAP3 POP DUP3 PUSH2 0xD44 JUMPI PUSH2 0xD43 PUSH2 0xCEF JUMP JUMPDEST JUMPDEST DUP3 DUP3 DIV SWAP1 POP SWAP3 SWAP2 POP POP JUMP JUMPDEST PUSH1 0x0 DUP3 DUP3 MSTORE PUSH1 0x20 DUP3 ADD SWAP1 POP SWAP3 SWAP2 POP POP JUMP JUMPDEST PUSH32 0x6865617020697320656D70747900000000000000000000000000000000000000 PUSH1 0x0 DUP3 ADD MSTORE POP JUMP JUMPDEST PUSH1 0x0 PUSH2 0xD96 PUSH1 0xD DUP4 PUSH2 0xD4F JUMP JUMPDEST SWAP2 POP PUSH2 0xDA1 DUP3 PUSH2 0xD60 JUMP JUMPDEST PUSH1 0x20 DUP3 ADD SWAP1 POP SWAP2 SWAP1 POP JUMP JUMPDEST PUSH1 0x0 PUSH1 0x20 DUP3 ADD SWAP1 POP DUP2 DUP2 SUB PUSH1 0x0 DUP4 ADD MSTORE PUSH2 0xDC5 DUP2 PUSH2 0xD89 JUMP JUMPDEST SWAP1 POP SWAP2 SWAP1 POP JUMP JUMPDEST PUSH32 0x4E487B7100000000000000000000000000000000000000000000000000000000 PUSH1 0x0 MSTORE PUSH1 0x32 PUSH1 0x4 MSTORE PUSH1 0x24 PUSH1 0x0 REVERT JUMPDEST PUSH32 0x4E487B7100000000000000000000000000000000000000000000000000000000 PUSH1 0x0 MSTORE PUSH1 0x31 PUSH1 0x4 MSTORE PUSH1 0x24 PUSH1 0x0 REVERT JUMPDEST PUSH1 0x0 PUSH2 0xE35 DUP3 PUSH2 0xB23 JUMP JUMPDEST SWAP2 POP PUSH2 0xE40 DUP4 PUSH2 0xB23 JUMP JUMPDEST SWAP3 POP DUP3 DUP3 MUL PUSH2 0xE4E DUP2 PUSH2 0xB23 JUMP JUMPDEST SWAP2 POP DUP3 DUP3 DIV DUP5 EQ DUP4 ISZERO OR PUSH2 0xE65 JUMPI PUSH2 0xE64 PUSH2 0xC8C JUMP JUMPDEST JUMPDEST POP SWAP3 SWAP2 POP POP JUMP JUMPDEST PUSH1 0x0 PUSH2 0xE77 DUP3 PUSH2 0xB23 JUMP JUMPDEST SWAP2 POP PUSH2 0xE82 DUP4 PUSH2 0xB23 JUMP JUMPDEST SWAP3 POP DUP3 DUP3 ADD SWAP1 POP DUP1 DUP3 GT ISZERO PUSH2 0xE9A JUMPI PUSH2 0xE99 PUSH2 0xC8C JUMP JUMPDEST JUMPDEST SWAP3 SWAP2 POP POP JUMP INVALID LOG2 PUSH5 0x6970667358 0x22 SLT KECCAK256 BASEFEE DUP12 LT 0x5E SWAP13 0xAE LOG0 DUP3 DUP8 0xB7 0xAF 0xDD 0xD2 RETURNDATACOPY 0xCD 0xD8 0xD0 0xAA 0xC1 0xEA 0xE0 PUSH25 0x21CFA62BB8BD2BA38F364736F6C6343000813003300000000 "
				},
				"gasEstimates": {
					"creation": {
						"codeDepositCost": "1134200",
						"executionCost": "infinite",
						"totalCost": "infinite"
					},
					"external": {
						"buyOrder(uint256,uint256)": "infinite",
						"getBuyPrice()": "infinite",
						"getSellPrice()": "infinite",
						"sellOrder(uint256,uint256)": "infinite"
					}
				},
				"methodIdentifiers": {
					"buyOrder(uint256,uint256)": "142ee8d8",
					"getBuyPrice()": "018a25e8",
					"getSellPrice()": "43d32e9c",
					"sellOrder(uint256,uint256)": "cd61a95a"
				}
			},
			"storageLayout": {
				"storage": [
					{
						"astId": 734,
						"contract": "W1/orderbook.sol:OrderBook_tGD_ETH",
						"label": "buyHeap",
						"offset": 0,
						"slot": "0",
						"type": "t_contract(MinHeap)403"
					},
					{
						"astId": 737,
						"contract": "W1/orderbook.sol:OrderBook_tGD_ETH",
						"label": "sellHeap",
						"offset": 0,
						"slot": "1",
						"type": "t_contract(MaxHeap)727"
					},
					{
						"astId": 743,
						"contract": "W1/orderbook.sol:OrderBook_tGD_ETH",
						"label": "tGD",
						"offset": 0,
						"slot": "2",
						"type": "t_contract(IERC20)77"
					}
				],
				"types": {
					"t_contract(IERC20)77": {
						"encoding": "inplace",
						"label": "contract IERC20",
						"numberOfBytes": "20"
					},
					"t_contract(MaxHeap)727": {
						"encoding": "inplace",
						"label": "contract MaxHeap",
						"numberOfBytes": "20"
					},
					"t_contract(MinHeap)403": {
						"encoding": "inplace",
						"label": "contract MinHeap",
						"numberOfBytes": "20"
					}
				}
			},
			"userdoc": {
				"kind": "user",
				"methods": {},
				"version": 1
			}
		}
	}
}