{
	"W1/heap.sol": {
		"MinHeap": {
			"abi": [
				{
					"inputs": [],
					"stateMutability": "nonpayable",
					"type": "constructor"
				},
				{
					"inputs": [],
					"name": "pop",
					"outputs": [],
					"stateMutability": "nonpayable",
					"type": "function"
				},
				{
					"inputs": [
						{
							"components": [
								{
									"internalType": "address",
									"name": "trader",
									"type": "address"
								},
								{
									"internalType": "uint256",
									"name": "amount",
									"type": "uint256"
								},
								{
									"internalType": "uint256",
									"name": "price",
									"type": "uint256"
								},
								{
									"internalType": "uint256",
									"name": "timestamp",
									"type": "uint256"
								}
							],
							"internalType": "struct MinHeap.Order",
							"name": "o",
							"type": "tuple"
						}
					],
					"name": "push",
					"outputs": [],
					"stateMutability": "nonpayable",
					"type": "function"
				},
				{
					"inputs": [],
					"name": "top",
					"outputs": [
						{
							"components": [
								{
									"internalType": "address",
									"name": "trader",
									"type": "address"
								},
								{
									"internalType": "uint256",
									"name": "amount",
									"type": "uint256"
								},
								{
									"internalType": "uint256",
									"name": "price",
									"type": "uint256"
								},
								{
									"internalType": "uint256",
									"name": "timestamp",
									"type": "uint256"
								}
							],
							"internalType": "struct MinHeap.Order",
							"name": "",
							"type": "tuple"
						}
					],
					"stateMutability": "view",
					"type": "function"
				}
			],
			"devdoc": {
				"kind": "dev",
				"methods": {},
				"version": 1
			},
			"evm": {
				"assembly": "    /* \"W1/heap.sol\":63:2806  contract MinHeap {... */\n  mstore(0x40, 0x80)\n    /* \"W1/heap.sol\":247:512  constructor() {... */\n  callvalue\n  dup1\n  iszero\n  tag_1\n  jumpi\n  0x00\n  dup1\n  revert\ntag_1:\n  pop\n    /* \"W1/heap.sol\":272:276  heap */\n  0x00\n    /* \"W1/heap.sol\":282:503  Order(address(0), 0xffffffffffffffffffffffffffffffffffffffffffffffffffffffffffffffff, 0xffffffffffffffffffffffffffffffffffffffffffffffffffffffffffffffff, 0xffffffffffffffffffffffffffffffffffffffffffffffffffffffffffffffff) */\n  mload(0x40)\n  dup1\n  0x80\n  add\n  0x40\n  mstore\n  dup1\n    /* \"W1/heap.sol\":296:297  0 */\n  0x00\n    /* \"W1/heap.sol\":282:503  Order(address(0), 0xffffffffffffffffffffffffffffffffffffffffffffffffffffffffffffffff, 0xffffffffffffffffffffffffffffffffffffffffffffffffffffffffffffffff, 0xffffffffffffffffffffffffffffffffffffffffffffffffffffffffffffffff) */\n  0xffffffffffffffffffffffffffffffffffffffff\n  and\n  dup2\n  mstore\n  0x20\n  add\n    /* \"W1/heap.sol\":300:366  0xffffffffffffffffffffffffffffffffffffffffffffffffffffffffffffffff */\n  0xffffffffffffffffffffffffffffffffffffffffffffffffffffffffffffffff\n    /* \"W1/heap.sol\":282:503  Order(address(0), 0xffffffffffffffffffffffffffffffffffffffffffffffffffffffffffffffff, 0xffffffffffffffffffffffffffffffffffffffffffffffffffffffffffffffff, 0xffffffffffffffffffffffffffffffffffffffffffffffffffffffffffffffff) */\n  dup2\n  mstore\n  0x20\n  add\n    /* \"W1/heap.sol\":368:434  0xffffffffffffffffffffffffffffffffffffffffffffffffffffffffffffffff */\n  0xffffffffffffffffffffffffffffffffffffffffffffffffffffffffffffffff\n    /* \"W1/heap.sol\":282:503  Order(address(0), 0xffffffffffffffffffffffffffffffffffffffffffffffffffffffffffffffff, 0xffffffffffffffffffffffffffffffffffffffffffffffffffffffffffffffff, 0xffffffffffffffffffffffffffffffffffffffffffffffffffffffffffffffff) */\n  dup2\n  mstore\n  0x20\n  add\n    /* \"W1/heap.sol\":436:502  0xffffffffffffffffffffffffffffffffffffffffffffffffffffffffffffffff */\n  0xffffffffffffffffffffffffffffffffffffffffffffffffffffffffffffffff\n    /* \"W1/heap.sol\":282:503  Order(address(0), 0xffffffffffffffffffffffffffffffffffffffffffffffffffffffffffffffff, 0xffffffffffffffffffffffffffffffffffffffffffffffffffffffffffffffff, 0xffffffffffffffffffffffffffffffffffffffffffffffffffffffffffffffff) */\n  dup2\n  mstore\n  pop\n    /* \"W1/heap.sol\":272:504  heap.push(Order(address(0), 0xffffffffffffffffffffffffffffffffffffffffffffffffffffffffffffffff, 0xffffffffffffffffffffffffffffffffffffffffffffffffffffffffffffffff, 0xffffffffffffffffffffffffffffffffffffffffffffffffffffffffffffffff)) */\n  swap1\n  dup1\n  0x01\n  dup2\n  sload\n  add\n  dup1\n  dup3\n  sstore\n  dup1\n  swap2\n  pop\n  pop\n  0x01\n  swap1\n  sub\n  swap1\n  0x00\n  mstore\n  keccak256(0x00, 0x20)\n  swap1\n  0x04\n  mul\n  add\n  0x00\n  swap1\n  swap2\n  swap1\n  swap2\n  swap1\n  swap2\n  pop\n  0x00\n  dup3\n  add\n  mload\n  dup2\n  0x00\n  add\n  exp(0x0100, 0x00)\n  dup2\n  sload\n  dup2\n  0xffffffffffffffffffffffffffffffffffffffff\n  mul\n  not\n  and\n  swap1\n  dup4\n  0xffffffffffffffffffffffffffffffffffffffff\n  and\n  mul\n  or\n  swap1\n  sstore\n  pop\n  0x20\n  dup3\n  add\n  mload\n  dup2\n  0x01\n  add\n  sstore\n  0x40\n  dup3\n  add\n  mload\n  dup2\n  0x02\n  add\n  sstore\n  0x60\n  dup3\n  add\n  mload\n  dup2\n  0x03\n  add\n  sstore\n  pop\n  pop\n    /* \"W1/heap.sol\":63:2806  contract MinHeap {... */\n  dataSize(sub_0)\n  dup1\n  dataOffset(sub_0)\n  0x00\n  codecopy\n  0x00\n  return\nstop\n\nsub_0: assembly {\n        /* \"W1/heap.sol\":63:2806  contract MinHeap {... */\n      mstore(0x40, 0x80)\n      callvalue\n      dup1\n      iszero\n      tag_1\n      jumpi\n      0x00\n      dup1\n      revert\n    tag_1:\n      pop\n      jumpi(tag_2, lt(calldatasize, 0x04))\n      shr(0xe0, calldataload(0x00))\n      dup1\n      0x7829c469\n      eq\n      tag_3\n      jumpi\n      dup1\n      0xa4ece52c\n      eq\n      tag_4\n      jumpi\n      dup1\n      0xfe6dcdba\n      eq\n      tag_5\n      jumpi\n    tag_2:\n      0x00\n      dup1\n      revert\n        /* \"W1/heap.sol\":524:854  function push (Order memory o) public {... */\n    tag_3:\n      tag_6\n      0x04\n      dup1\n      calldatasize\n      sub\n      dup2\n      add\n      swap1\n      tag_7\n      swap2\n      swap1\n      tag_8\n      jump\t// in\n    tag_7:\n      tag_9\n      jump\t// in\n    tag_6:\n      stop\n        /* \"W1/heap.sol\":862:1068  function pop() public {... */\n    tag_4:\n      tag_10\n      tag_11\n      jump\t// in\n    tag_10:\n      stop\n        /* \"W1/heap.sol\":1074:1209  function top() public view returns (Order memory) {... */\n    tag_5:\n      tag_12\n      tag_13\n      jump\t// in\n    tag_12:\n      mload(0x40)\n      tag_14\n      swap2\n      swap1\n      tag_15\n      jump\t// in\n    tag_14:\n      mload(0x40)\n      dup1\n      swap2\n      sub\n      swap1\n      return\n        /* \"W1/heap.sol\":524:854  function push (Order memory o) public {... */\n    tag_9:\n        /* \"W1/heap.sol\":573:577  heap */\n      0x00\n        /* \"W1/heap.sol\":583:584  o */\n      dup2\n        /* \"W1/heap.sol\":573:585  heap.push(o) */\n      swap1\n      dup1\n      0x01\n      dup2\n      sload\n      add\n      dup1\n      dup3\n      sstore\n      dup1\n      swap2\n      pop\n      pop\n      0x01\n      swap1\n      sub\n      swap1\n      0x00\n      mstore\n      keccak256(0x00, 0x20)\n      swap1\n      0x04\n      mul\n      add\n      0x00\n      swap1\n      swap2\n      swap1\n      swap2\n      swap1\n      swap2\n      pop\n      0x00\n      dup3\n      add\n      mload\n      dup2\n      0x00\n      add\n      exp(0x0100, 0x00)\n      dup2\n      sload\n      dup2\n      0xffffffffffffffffffffffffffffffffffffffff\n      mul\n      not\n      and\n      swap1\n      dup4\n      0xffffffffffffffffffffffffffffffffffffffff\n      and\n      mul\n      or\n      swap1\n      sstore\n      pop\n      0x20\n      dup3\n      add\n      mload\n      dup2\n      0x01\n      add\n      sstore\n      0x40\n      dup3\n      add\n      mload\n      dup2\n      0x02\n      add\n      sstore\n      0x60\n      dup3\n      add\n      mload\n      dup2\n      0x03\n      add\n      sstore\n      pop\n      pop\n        /* \"W1/heap.sol\":596:605  uint256 i */\n      0x00\n        /* \"W1/heap.sol\":622:623  1 */\n      0x01\n        /* \"W1/heap.sol\":608:612  heap */\n      0x00\n        /* \"W1/heap.sol\":608:619  heap.length */\n      dup1\n      sload\n      swap1\n      pop\n        /* \"W1/heap.sol\":608:623  heap.length - 1 */\n      tag_18\n      swap2\n      swap1\n      tag_19\n      jump\t// in\n    tag_18:\n        /* \"W1/heap.sol\":596:623  uint256 i = heap.length - 1 */\n      swap1\n      pop\n        /* \"W1/heap.sol\":634:847  while (i > 0) {... */\n    tag_20:\n        /* \"W1/heap.sol\":645:646  0 */\n      0x00\n        /* \"W1/heap.sol\":641:642  i */\n      dup2\n        /* \"W1/heap.sol\":641:646  i > 0 */\n      gt\n        /* \"W1/heap.sol\":634:847  while (i > 0) {... */\n      iszero\n      tag_21\n      jumpi\n        /* \"W1/heap.sol\":663:672  uint256 p */\n      0x00\n        /* \"W1/heap.sol\":685:686  2 */\n      0x02\n        /* \"W1/heap.sol\":680:681  1 */\n      0x01\n        /* \"W1/heap.sol\":676:677  i */\n      dup4\n        /* \"W1/heap.sol\":676:681  i - 1 */\n      tag_22\n      swap2\n      swap1\n      tag_19\n      jump\t// in\n    tag_22:\n        /* \"W1/heap.sol\":675:686  (i - 1) / 2 */\n      tag_23\n      swap2\n      swap1\n      tag_24\n      jump\t// in\n    tag_23:\n        /* \"W1/heap.sol\":663:686  uint256 p = (i - 1) / 2 */\n      swap1\n      pop\n        /* \"W1/heap.sol\":705:718  _conpare(i,p) */\n      tag_25\n        /* \"W1/heap.sol\":714:715  i */\n      dup3\n        /* \"W1/heap.sol\":716:717  p */\n      dup3\n        /* \"W1/heap.sol\":705:713  _conpare */\n      tag_26\n        /* \"W1/heap.sol\":705:718  _conpare(i,p) */\n      jump\t// in\n    tag_25:\n        /* \"W1/heap.sol\":701:836  if (_conpare(i,p)) {... */\n      iszero\n      tag_27\n      jumpi\n        /* \"W1/heap.sol\":739:750  _swap(p, i) */\n      tag_28\n        /* \"W1/heap.sol\":745:746  p */\n      dup2\n        /* \"W1/heap.sol\":748:749  i */\n      dup4\n        /* \"W1/heap.sol\":739:744  _swap */\n      tag_29\n        /* \"W1/heap.sol\":739:750  _swap(p, i) */\n      jump\t// in\n    tag_28:\n        /* \"W1/heap.sol\":773:774  p */\n      dup1\n        /* \"W1/heap.sol\":769:774  i = p */\n      swap2\n      pop\n        /* \"W1/heap.sol\":701:836  if (_conpare(i,p)) {... */\n      jump(tag_30)\n    tag_27:\n        /* \"W1/heap.sol\":815:820  break */\n      pop\n      jump(tag_21)\n        /* \"W1/heap.sol\":701:836  if (_conpare(i,p)) {... */\n    tag_30:\n        /* \"W1/heap.sol\":648:847  {... */\n      pop\n        /* \"W1/heap.sol\":634:847  while (i > 0) {... */\n      jump(tag_20)\n    tag_21:\n        /* \"W1/heap.sol\":562:854  {... */\n      pop\n        /* \"W1/heap.sol\":524:854  function push (Order memory o) public {... */\n      pop\n      jump\t// out\n        /* \"W1/heap.sol\":862:1068  function pop() public {... */\n    tag_11:\n        /* \"W1/heap.sol\":917:918  0 */\n      0x00\n        /* \"W1/heap.sol\":903:907  heap */\n      dup1\n        /* \"W1/heap.sol\":903:914  heap.length */\n      dup1\n      sload\n      swap1\n      pop\n        /* \"W1/heap.sol\":903:918  heap.length > 0 */\n      gt\n        /* \"W1/heap.sol\":895:936  require(heap.length > 0, \"heap is empty\") */\n      tag_32\n      jumpi\n      mload(0x40)\n      0x08c379a000000000000000000000000000000000000000000000000000000000\n      dup2\n      mstore\n      0x04\n      add\n      tag_33\n      swap1\n      tag_34\n      jump\t// in\n    tag_33:\n      mload(0x40)\n      dup1\n      swap2\n      sub\n      swap1\n      revert\n    tag_32:\n        /* \"W1/heap.sol\":957:961  heap */\n      0x00\n        /* \"W1/heap.sol\":976:977  1 */\n      0x01\n        /* \"W1/heap.sol\":962:966  heap */\n      0x00\n        /* \"W1/heap.sol\":962:973  heap.length */\n      dup1\n      sload\n      swap1\n      pop\n        /* \"W1/heap.sol\":962:977  heap.length - 1 */\n      tag_35\n      swap2\n      swap1\n      tag_19\n      jump\t// in\n    tag_35:\n        /* \"W1/heap.sol\":957:978  heap[heap.length - 1] */\n      dup2\n      sload\n      dup2\n      lt\n      tag_36\n      jumpi\n      tag_37\n      tag_38\n      jump\t// in\n    tag_37:\n    tag_36:\n      swap1\n      0x00\n      mstore\n      keccak256(0x00, 0x20)\n      swap1\n      0x04\n      mul\n      add\n        /* \"W1/heap.sol\":947:951  heap */\n      0x00\n        /* \"W1/heap.sol\":952:953  0 */\n      dup1\n        /* \"W1/heap.sol\":947:954  heap[0] */\n      dup2\n      sload\n      dup2\n      lt\n      tag_40\n      jumpi\n      tag_41\n      tag_38\n      jump\t// in\n    tag_41:\n    tag_40:\n      swap1\n      0x00\n      mstore\n      keccak256(0x00, 0x20)\n      swap1\n      0x04\n      mul\n      add\n        /* \"W1/heap.sol\":947:978  heap[0] = heap[heap.length - 1] */\n      0x00\n      dup3\n      add\n      0x00\n      swap1\n      sload\n      swap1\n      0x0100\n      exp\n      swap1\n      div\n      0xffffffffffffffffffffffffffffffffffffffff\n      and\n      dup2\n      0x00\n      add\n      exp(0x0100, 0x00)\n      dup2\n      sload\n      dup2\n      0xffffffffffffffffffffffffffffffffffffffff\n      mul\n      not\n      and\n      swap1\n      dup4\n      0xffffffffffffffffffffffffffffffffffffffff\n      and\n      mul\n      or\n      swap1\n      sstore\n      pop\n      0x01\n      dup3\n      add\n      sload\n      dup2\n      0x01\n      add\n      sstore\n      0x02\n      dup3\n      add\n      sload\n      dup2\n      0x02\n      add\n      sstore\n      0x03\n      dup3\n      add\n      sload\n      dup2\n      0x03\n      add\n      sstore\n      swap1\n      pop\n      pop\n        /* \"W1/heap.sol\":996:1000  heap */\n      0x00\n        /* \"W1/heap.sol\":1015:1016  1 */\n      0x01\n        /* \"W1/heap.sol\":1001:1005  heap */\n      0x00\n        /* \"W1/heap.sol\":1001:1012  heap.length */\n      dup1\n      sload\n      swap1\n      pop\n        /* \"W1/heap.sol\":1001:1016  heap.length - 1 */\n      tag_43\n      swap2\n      swap1\n      tag_19\n      jump\t// in\n    tag_43:\n        /* \"W1/heap.sol\":996:1017  heap[heap.length - 1] */\n      dup2\n      sload\n      dup2\n      lt\n      tag_44\n      jumpi\n      tag_45\n      tag_38\n      jump\t// in\n    tag_45:\n    tag_44:\n      swap1\n      0x00\n      mstore\n      keccak256(0x00, 0x20)\n      swap1\n      0x04\n      mul\n      add\n      0x00\n        /* \"W1/heap.sol\":989:1017  delete heap[heap.length - 1] */\n      dup1\n      dup3\n      add\n      exp(0x0100, 0x00)\n      dup2\n      sload\n      swap1\n      0xffffffffffffffffffffffffffffffffffffffff\n      mul\n      not\n      and\n      swap1\n      sstore\n      0x01\n      dup3\n      add\n      0x00\n      swap1\n      sstore\n      0x02\n      dup3\n      add\n      0x00\n      swap1\n      sstore\n      0x03\n      dup3\n      add\n      0x00\n      swap1\n      sstore\n      pop\n      pop\n        /* \"W1/heap.sol\":1028:1032  heap */\n      0x00\n        /* \"W1/heap.sol\":1028:1038  heap.pop() */\n      dup1\n      sload\n      dup1\n      tag_47\n      jumpi\n      tag_48\n      tag_49\n      jump\t// in\n    tag_48:\n    tag_47:\n      0x01\n      swap1\n      sub\n      dup2\n      dup2\n      swap1\n      0x00\n      mstore\n      keccak256(0x00, 0x20)\n      swap1\n      0x04\n      mul\n      add\n      0x00\n      dup1\n      dup3\n      add\n      exp(0x0100, 0x00)\n      dup2\n      sload\n      swap1\n      0xffffffffffffffffffffffffffffffffffffffff\n      mul\n      not\n      and\n      swap1\n      sstore\n      0x01\n      dup3\n      add\n      0x00\n      swap1\n      sstore\n      0x02\n      dup3\n      add\n      0x00\n      swap1\n      sstore\n      0x03\n      dup3\n      add\n      0x00\n      swap1\n      sstore\n      pop\n      pop\n      swap1\n      sstore\n        /* \"W1/heap.sol\":1049:1060  _heapify(0) */\n      tag_51\n        /* \"W1/heap.sol\":1058:1059  0 */\n      0x00\n        /* \"W1/heap.sol\":1049:1057  _heapify */\n      tag_52\n        /* \"W1/heap.sol\":1049:1060  _heapify(0) */\n      jump\t// in\n    tag_51:\n        /* \"W1/heap.sol\":862:1068  function pop() public {... */\n      jump\t// out\n        /* \"W1/heap.sol\":1074:1209  function top() public view returns (Order memory) {... */\n    tag_13:\n        /* \"W1/heap.sol\":1110:1122  Order memory */\n      tag_53\n      tag_54\n      jump\t// in\n    tag_53:\n        /* \"W1/heap.sol\":1157:1158  0 */\n      0x00\n        /* \"W1/heap.sol\":1143:1147  heap */\n      dup1\n        /* \"W1/heap.sol\":1143:1154  heap.length */\n      dup1\n      sload\n      swap1\n      pop\n        /* \"W1/heap.sol\":1143:1158  heap.length > 0 */\n      gt\n        /* \"W1/heap.sol\":1135:1176  require(heap.length > 0, \"heap is empty\") */\n      tag_56\n      jumpi\n      mload(0x40)\n      0x08c379a000000000000000000000000000000000000000000000000000000000\n      dup2\n      mstore\n      0x04\n      add\n      tag_57\n      swap1\n      tag_34\n      jump\t// in\n    tag_57:\n      mload(0x40)\n      dup1\n      swap2\n      sub\n      swap1\n      revert\n    tag_56:\n        /* \"W1/heap.sol\":1194:1198  heap */\n      0x00\n        /* \"W1/heap.sol\":1199:1200  0 */\n      dup1\n        /* \"W1/heap.sol\":1194:1201  heap[0] */\n      dup2\n      sload\n      dup2\n      lt\n      tag_58\n      jumpi\n      tag_59\n      tag_38\n      jump\t// in\n    tag_59:\n    tag_58:\n      swap1\n      0x00\n      mstore\n      keccak256(0x00, 0x20)\n      swap1\n      0x04\n      mul\n      add\n        /* \"W1/heap.sol\":1187:1201  return heap[0] */\n      mload(0x40)\n      dup1\n      0x80\n      add\n      0x40\n      mstore\n      swap1\n      dup2\n      0x00\n      dup3\n      add\n      0x00\n      swap1\n      sload\n      swap1\n      0x0100\n      exp\n      swap1\n      div\n      0xffffffffffffffffffffffffffffffffffffffff\n      and\n      0xffffffffffffffffffffffffffffffffffffffff\n      and\n      0xffffffffffffffffffffffffffffffffffffffff\n      and\n      dup2\n      mstore\n      0x20\n      add\n      0x01\n      dup3\n      add\n      sload\n      dup2\n      mstore\n      0x20\n      add\n      0x02\n      dup3\n      add\n      sload\n      dup2\n      mstore\n      0x20\n      add\n      0x03\n      dup3\n      add\n      sload\n      dup2\n      mstore\n      pop\n      pop\n      swap1\n      pop\n        /* \"W1/heap.sol\":1074:1209  function top() public view returns (Order memory) {... */\n      swap1\n      jump\t// out\n        /* \"W1/heap.sol\":2138:2652  function _conpare(uint256 i,uint256 j) private view returns (bool) {... */\n    tag_26:\n        /* \"W1/heap.sol\":2199:2203  bool */\n      0x00\n        /* \"W1/heap.sol\":2246:2250  heap */\n      dup1\n        /* \"W1/heap.sol\":2251:2252  j */\n      dup3\n        /* \"W1/heap.sol\":2246:2253  heap[j] */\n      dup2\n      sload\n      dup2\n      lt\n      tag_62\n      jumpi\n      tag_63\n      tag_38\n      jump\t// in\n    tag_63:\n    tag_62:\n      swap1\n      0x00\n      mstore\n      keccak256(0x00, 0x20)\n      swap1\n      0x04\n      mul\n      add\n        /* \"W1/heap.sol\":2246:2259  heap[j].price */\n      0x02\n      add\n      sload\n        /* \"W1/heap.sol\":2229:2233  heap */\n      0x00\n        /* \"W1/heap.sol\":2234:2235  i */\n      dup5\n        /* \"W1/heap.sol\":2229:2236  heap[i] */\n      dup2\n      sload\n      dup2\n      lt\n      tag_65\n      jumpi\n      tag_66\n      tag_38\n      jump\t// in\n    tag_66:\n    tag_65:\n      swap1\n      0x00\n      mstore\n      keccak256(0x00, 0x20)\n      swap1\n      0x04\n      mul\n      add\n        /* \"W1/heap.sol\":2229:2242  heap[i].price */\n      0x02\n      add\n      sload\n        /* \"W1/heap.sol\":2229:2259  heap[i].price == heap[j].price */\n      sub\n        /* \"W1/heap.sol\":2226:2598  if(heap[i].price == heap[j].price) {... */\n      tag_68\n      jumpi\n        /* \"W1/heap.sol\":2300:2304  heap */\n      0x00\n        /* \"W1/heap.sol\":2305:2306  j */\n      dup3\n        /* \"W1/heap.sol\":2300:2307  heap[j] */\n      dup2\n      sload\n      dup2\n      lt\n      tag_69\n      jumpi\n      tag_70\n      tag_38\n      jump\t// in\n    tag_70:\n    tag_69:\n      swap1\n      0x00\n      mstore\n      keccak256(0x00, 0x20)\n      swap1\n      0x04\n      mul\n      add\n        /* \"W1/heap.sol\":2300:2317  heap[j].timestamp */\n      0x03\n      add\n      sload\n        /* \"W1/heap.sol\":2279:2283  heap */\n      0x00\n        /* \"W1/heap.sol\":2284:2285  i */\n      dup5\n        /* \"W1/heap.sol\":2279:2286  heap[i] */\n      dup2\n      sload\n      dup2\n      lt\n      tag_72\n      jumpi\n      tag_73\n      tag_38\n      jump\t// in\n    tag_73:\n    tag_72:\n      swap1\n      0x00\n      mstore\n      keccak256(0x00, 0x20)\n      swap1\n      0x04\n      mul\n      add\n        /* \"W1/heap.sol\":2279:2296  heap[i].timestamp */\n      0x03\n      add\n      sload\n        /* \"W1/heap.sol\":2279:2317  heap[i].timestamp == heap[j].timestamp */\n      sub\n        /* \"W1/heap.sol\":2276:2528  if(heap[i].timestamp == heap[j].timestamp) {... */\n      tag_75\n      jumpi\n        /* \"W1/heap.sol\":2359:2363  heap */\n      0x00\n        /* \"W1/heap.sol\":2364:2365  j */\n      dup3\n        /* \"W1/heap.sol\":2359:2366  heap[j] */\n      dup2\n      sload\n      dup2\n      lt\n      tag_76\n      jumpi\n      tag_77\n      tag_38\n      jump\t// in\n    tag_77:\n    tag_76:\n      swap1\n      0x00\n      mstore\n      keccak256(0x00, 0x20)\n      swap1\n      0x04\n      mul\n      add\n        /* \"W1/heap.sol\":2359:2373  heap[j].amount */\n      0x01\n      add\n      sload\n        /* \"W1/heap.sol\":2341:2345  heap */\n      0x00\n        /* \"W1/heap.sol\":2346:2347  i */\n      dup5\n        /* \"W1/heap.sol\":2341:2348  heap[i] */\n      dup2\n      sload\n      dup2\n      lt\n      tag_79\n      jumpi\n      tag_80\n      tag_38\n      jump\t// in\n    tag_80:\n    tag_79:\n      swap1\n      0x00\n      mstore\n      keccak256(0x00, 0x20)\n      swap1\n      0x04\n      mul\n      add\n        /* \"W1/heap.sol\":2341:2355  heap[i].amount */\n      0x01\n      add\n      sload\n        /* \"W1/heap.sol\":2341:2373  heap[i].amount == heap[j].amount */\n      sub\n        /* \"W1/heap.sol\":2338:2456  if(heap[i].amount == heap[j].amount) {... */\n      tag_82\n      jumpi\n        /* \"W1/heap.sol\":2422:2426  heap */\n      0x00\n        /* \"W1/heap.sol\":2427:2428  j */\n      dup3\n        /* \"W1/heap.sol\":2422:2429  heap[j] */\n      dup2\n      sload\n      dup2\n      lt\n      tag_83\n      jumpi\n      tag_84\n      tag_38\n      jump\t// in\n    tag_84:\n    tag_83:\n      swap1\n      0x00\n      mstore\n      keccak256(0x00, 0x20)\n      swap1\n      0x04\n      mul\n      add\n        /* \"W1/heap.sol\":2422:2436  heap[j].trader */\n      0x00\n      add\n      0x00\n      swap1\n      sload\n      swap1\n      0x0100\n      exp\n      swap1\n      div\n      0xffffffffffffffffffffffffffffffffffffffff\n      and\n        /* \"W1/heap.sol\":2405:2436  heap[i].trader < heap[j].trader */\n      0xffffffffffffffffffffffffffffffffffffffff\n      and\n        /* \"W1/heap.sol\":2405:2409  heap */\n      0x00\n        /* \"W1/heap.sol\":2410:2411  i */\n      dup5\n        /* \"W1/heap.sol\":2405:2412  heap[i] */\n      dup2\n      sload\n      dup2\n      lt\n      tag_86\n      jumpi\n      tag_87\n      tag_38\n      jump\t// in\n    tag_87:\n    tag_86:\n      swap1\n      0x00\n      mstore\n      keccak256(0x00, 0x20)\n      swap1\n      0x04\n      mul\n      add\n        /* \"W1/heap.sol\":2405:2419  heap[i].trader */\n      0x00\n      add\n      0x00\n      swap1\n      sload\n      swap1\n      0x0100\n      exp\n      swap1\n      div\n      0xffffffffffffffffffffffffffffffffffffffff\n      and\n        /* \"W1/heap.sol\":2405:2436  heap[i].trader < heap[j].trader */\n      0xffffffffffffffffffffffffffffffffffffffff\n      and\n      lt\n        /* \"W1/heap.sol\":2398:2436  return heap[i].trader < heap[j].trader */\n      swap1\n      pop\n      jump(tag_61)\n        /* \"W1/heap.sol\":2338:2456  if(heap[i].amount == heap[j].amount) {... */\n    tag_82:\n        /* \"W1/heap.sol\":2498:2502  heap */\n      0x00\n        /* \"W1/heap.sol\":2503:2504  j */\n      dup3\n        /* \"W1/heap.sol\":2498:2505  heap[j] */\n      dup2\n      sload\n      dup2\n      lt\n      tag_89\n      jumpi\n      tag_90\n      tag_38\n      jump\t// in\n    tag_90:\n    tag_89:\n      swap1\n      0x00\n      mstore\n      keccak256(0x00, 0x20)\n      swap1\n      0x04\n      mul\n      add\n        /* \"W1/heap.sol\":2498:2512  heap[j].amount */\n      0x01\n      add\n      sload\n        /* \"W1/heap.sol\":2481:2485  heap */\n      0x00\n        /* \"W1/heap.sol\":2486:2487  i */\n      dup5\n        /* \"W1/heap.sol\":2481:2488  heap[i] */\n      dup2\n      sload\n      dup2\n      lt\n      tag_92\n      jumpi\n      tag_93\n      tag_38\n      jump\t// in\n    tag_93:\n    tag_92:\n      swap1\n      0x00\n      mstore\n      keccak256(0x00, 0x20)\n      swap1\n      0x04\n      mul\n      add\n        /* \"W1/heap.sol\":2481:2495  heap[i].amount */\n      0x01\n      add\n      sload\n        /* \"W1/heap.sol\":2481:2512  heap[i].amount < heap[j].amount */\n      lt\n        /* \"W1/heap.sol\":2474:2512  return heap[i].amount < heap[j].amount */\n      swap1\n      pop\n      jump(tag_61)\n        /* \"W1/heap.sol\":2276:2528  if(heap[i].timestamp == heap[j].timestamp) {... */\n    tag_75:\n        /* \"W1/heap.sol\":2569:2573  heap */\n      0x00\n        /* \"W1/heap.sol\":2574:2575  j */\n      dup3\n        /* \"W1/heap.sol\":2569:2576  heap[j] */\n      dup2\n      sload\n      dup2\n      lt\n      tag_95\n      jumpi\n      tag_96\n      tag_38\n      jump\t// in\n    tag_96:\n    tag_95:\n      swap1\n      0x00\n      mstore\n      keccak256(0x00, 0x20)\n      swap1\n      0x04\n      mul\n      add\n        /* \"W1/heap.sol\":2569:2586  heap[j].timestamp */\n      0x03\n      add\n      sload\n        /* \"W1/heap.sol\":2549:2553  heap */\n      0x00\n        /* \"W1/heap.sol\":2554:2555  i */\n      dup5\n        /* \"W1/heap.sol\":2549:2556  heap[i] */\n      dup2\n      sload\n      dup2\n      lt\n      tag_98\n      jumpi\n      tag_99\n      tag_38\n      jump\t// in\n    tag_99:\n    tag_98:\n      swap1\n      0x00\n      mstore\n      keccak256(0x00, 0x20)\n      swap1\n      0x04\n      mul\n      add\n        /* \"W1/heap.sol\":2549:2566  heap[i].timestamp */\n      0x03\n      add\n      sload\n        /* \"W1/heap.sol\":2549:2586  heap[i].timestamp < heap[j].timestamp */\n      lt\n        /* \"W1/heap.sol\":2542:2586  return heap[i].timestamp < heap[j].timestamp */\n      swap1\n      pop\n      jump(tag_61)\n        /* \"W1/heap.sol\":2226:2598  if(heap[i].price == heap[j].price) {... */\n    tag_68:\n        /* \"W1/heap.sol\":2631:2635  heap */\n      0x00\n        /* \"W1/heap.sol\":2636:2637  j */\n      dup3\n        /* \"W1/heap.sol\":2631:2638  heap[j] */\n      dup2\n      sload\n      dup2\n      lt\n      tag_101\n      jumpi\n      tag_102\n      tag_38\n      jump\t// in\n    tag_102:\n    tag_101:\n      swap1\n      0x00\n      mstore\n      keccak256(0x00, 0x20)\n      swap1\n      0x04\n      mul\n      add\n        /* \"W1/heap.sol\":2631:2644  heap[j].price */\n      0x02\n      add\n      sload\n        /* \"W1/heap.sol\":2615:2619  heap */\n      0x00\n        /* \"W1/heap.sol\":2620:2621  i */\n      dup5\n        /* \"W1/heap.sol\":2615:2622  heap[i] */\n      dup2\n      sload\n      dup2\n      lt\n      tag_104\n      jumpi\n      tag_105\n      tag_38\n      jump\t// in\n    tag_105:\n    tag_104:\n      swap1\n      0x00\n      mstore\n      keccak256(0x00, 0x20)\n      swap1\n      0x04\n      mul\n      add\n        /* \"W1/heap.sol\":2615:2628  heap[i].price */\n      0x02\n      add\n      sload\n        /* \"W1/heap.sol\":2615:2644  heap[i].price < heap[j].price */\n      lt\n        /* \"W1/heap.sol\":2608:2644  return heap[i].price < heap[j].price */\n      swap1\n      pop\n        /* \"W1/heap.sol\":2138:2652  function _conpare(uint256 i,uint256 j) private view returns (bool) {... */\n    tag_61:\n      swap3\n      swap2\n      pop\n      pop\n      jump\t// out\n        /* \"W1/heap.sol\":2660:2803  function _swap(uint256 a, uint256 b) private  {... */\n    tag_29:\n        /* \"W1/heap.sol\":2717:2733  Order memory tmp */\n      0x00\n        /* \"W1/heap.sol\":2736:2740  heap */\n      dup1\n        /* \"W1/heap.sol\":2741:2742  a */\n      dup4\n        /* \"W1/heap.sol\":2736:2743  heap[a] */\n      dup2\n      sload\n      dup2\n      lt\n      tag_108\n      jumpi\n      tag_109\n      tag_38\n      jump\t// in\n    tag_109:\n    tag_108:\n      swap1\n      0x00\n      mstore\n      keccak256(0x00, 0x20)\n      swap1\n      0x04\n      mul\n      add\n        /* \"W1/heap.sol\":2717:2743  Order memory tmp = heap[a] */\n      mload(0x40)\n      dup1\n      0x80\n      add\n      0x40\n      mstore\n      swap1\n      dup2\n      0x00\n      dup3\n      add\n      0x00\n      swap1\n      sload\n      swap1\n      0x0100\n      exp\n      swap1\n      div\n      0xffffffffffffffffffffffffffffffffffffffff\n      and\n      0xffffffffffffffffffffffffffffffffffffffff\n      and\n      0xffffffffffffffffffffffffffffffffffffffff\n      and\n      dup2\n      mstore\n      0x20\n      add\n      0x01\n      dup3\n      add\n      sload\n      dup2\n      mstore\n      0x20\n      add\n      0x02\n      dup3\n      add\n      sload\n      dup2\n      mstore\n      0x20\n      add\n      0x03\n      dup3\n      add\n      sload\n      dup2\n      mstore\n      pop\n      pop\n      swap1\n      pop\n        /* \"W1/heap.sol\":2764:2768  heap */\n      0x00\n        /* \"W1/heap.sol\":2769:2770  b */\n      dup3\n        /* \"W1/heap.sol\":2764:2771  heap[b] */\n      dup2\n      sload\n      dup2\n      lt\n      tag_111\n      jumpi\n      tag_112\n      tag_38\n      jump\t// in\n    tag_112:\n    tag_111:\n      swap1\n      0x00\n      mstore\n      keccak256(0x00, 0x20)\n      swap1\n      0x04\n      mul\n      add\n        /* \"W1/heap.sol\":2754:2758  heap */\n      0x00\n        /* \"W1/heap.sol\":2759:2760  a */\n      dup5\n        /* \"W1/heap.sol\":2754:2761  heap[a] */\n      dup2\n      sload\n      dup2\n      lt\n      tag_114\n      jumpi\n      tag_115\n      tag_38\n      jump\t// in\n    tag_115:\n    tag_114:\n      swap1\n      0x00\n      mstore\n      keccak256(0x00, 0x20)\n      swap1\n      0x04\n      mul\n      add\n        /* \"W1/heap.sol\":2754:2771  heap[a] = heap[b] */\n      0x00\n      dup3\n      add\n      0x00\n      swap1\n      sload\n      swap1\n      0x0100\n      exp\n      swap1\n      div\n      0xffffffffffffffffffffffffffffffffffffffff\n      and\n      dup2\n      0x00\n      add\n      exp(0x0100, 0x00)\n      dup2\n      sload\n      dup2\n      0xffffffffffffffffffffffffffffffffffffffff\n      mul\n      not\n      and\n      swap1\n      dup4\n      0xffffffffffffffffffffffffffffffffffffffff\n      and\n      mul\n      or\n      swap1\n      sstore\n      pop\n      0x01\n      dup3\n      add\n      sload\n      dup2\n      0x01\n      add\n      sstore\n      0x02\n      dup3\n      add\n      sload\n      dup2\n      0x02\n      add\n      sstore\n      0x03\n      dup3\n      add\n      sload\n      dup2\n      0x03\n      add\n      sstore\n      swap1\n      pop\n      pop\n        /* \"W1/heap.sol\":2792:2795  tmp */\n      dup1\n        /* \"W1/heap.sol\":2782:2786  heap */\n      0x00\n        /* \"W1/heap.sol\":2787:2788  b */\n      dup4\n        /* \"W1/heap.sol\":2782:2789  heap[b] */\n      dup2\n      sload\n      dup2\n      lt\n      tag_117\n      jumpi\n      tag_118\n      tag_38\n      jump\t// in\n    tag_118:\n    tag_117:\n      swap1\n      0x00\n      mstore\n      keccak256(0x00, 0x20)\n      swap1\n      0x04\n      mul\n      add\n        /* \"W1/heap.sol\":2782:2795  heap[b] = tmp */\n      0x00\n      dup3\n      add\n      mload\n      dup2\n      0x00\n      add\n      exp(0x0100, 0x00)\n      dup2\n      sload\n      dup2\n      0xffffffffffffffffffffffffffffffffffffffff\n      mul\n      not\n      and\n      swap1\n      dup4\n      0xffffffffffffffffffffffffffffffffffffffff\n      and\n      mul\n      or\n      swap1\n      sstore\n      pop\n      0x20\n      dup3\n      add\n      mload\n      dup2\n      0x01\n      add\n      sstore\n      0x40\n      dup3\n      add\n      mload\n      dup2\n      0x02\n      add\n      sstore\n      0x60\n      dup3\n      add\n      mload\n      dup2\n      0x03\n      add\n      sstore\n      swap1\n      pop\n      pop\n        /* \"W1/heap.sol\":2706:2803  {... */\n      pop\n        /* \"W1/heap.sol\":2660:2803  function _swap(uint256 a, uint256 b) private  {... */\n      pop\n      pop\n      jump\t// out\n        /* \"W1/heap.sol\":1215:1658  function _heapify(uint256 _i) private {... */\n    tag_52:\n        /* \"W1/heap.sol\":1264:1273  uint256 l */\n      0x00\n        /* \"W1/heap.sol\":1285:1286  1 */\n      0x01\n        /* \"W1/heap.sol\":1280:1282  _i */\n      dup3\n        /* \"W1/heap.sol\":1276:1277  2 */\n      0x02\n        /* \"W1/heap.sol\":1276:1282  2 * _i */\n      tag_121\n      swap2\n      swap1\n      tag_122\n      jump\t// in\n    tag_121:\n        /* \"W1/heap.sol\":1276:1286  2 * _i + 1 */\n      tag_123\n      swap2\n      swap1\n      tag_124\n      jump\t// in\n    tag_123:\n        /* \"W1/heap.sol\":1264:1286  uint256 l = 2 * _i + 1 */\n      swap1\n      pop\n        /* \"W1/heap.sol\":1297:1306  uint256 r */\n      0x00\n        /* \"W1/heap.sol\":1318:1319  2 */\n      0x02\n        /* \"W1/heap.sol\":1313:1315  _i */\n      dup4\n        /* \"W1/heap.sol\":1309:1310  2 */\n      0x02\n        /* \"W1/heap.sol\":1309:1315  2 * _i */\n      tag_125\n      swap2\n      swap1\n      tag_122\n      jump\t// in\n    tag_125:\n        /* \"W1/heap.sol\":1309:1319  2 * _i + 2 */\n      tag_126\n      swap2\n      swap1\n      tag_124\n      jump\t// in\n    tag_126:\n        /* \"W1/heap.sol\":1297:1319  uint256 r = 2 * _i + 2 */\n      swap1\n      pop\n        /* \"W1/heap.sol\":1330:1346  uint256 smallest */\n      0x00\n        /* \"W1/heap.sol\":1349:1351  _i */\n      dup4\n        /* \"W1/heap.sol\":1330:1351  uint256 smallest = _i */\n      swap1\n      pop\n        /* \"W1/heap.sol\":1370:1374  heap */\n      0x00\n        /* \"W1/heap.sol\":1370:1381  heap.length */\n      dup1\n      sload\n      swap1\n      pop\n        /* \"W1/heap.sol\":1366:1367  l */\n      dup4\n        /* \"W1/heap.sol\":1366:1381  l < heap.length */\n      lt\n        /* \"W1/heap.sol\":1366:1406  l < heap.length && _conpare(l ,smallest) */\n      dup1\n      iszero\n      tag_127\n      jumpi\n      pop\n        /* \"W1/heap.sol\":1385:1406  _conpare(l ,smallest) */\n      tag_128\n        /* \"W1/heap.sol\":1394:1395  l */\n      dup4\n        /* \"W1/heap.sol\":1397:1405  smallest */\n      dup3\n        /* \"W1/heap.sol\":1385:1393  _conpare */\n      tag_26\n        /* \"W1/heap.sol\":1385:1406  _conpare(l ,smallest) */\n      jump\t// in\n    tag_128:\n        /* \"W1/heap.sol\":1366:1406  l < heap.length && _conpare(l ,smallest) */\n    tag_127:\n        /* \"W1/heap.sol\":1362:1447  if (l < heap.length && _conpare(l ,smallest)) {... */\n      iszero\n      tag_129\n      jumpi\n        /* \"W1/heap.sol\":1434:1435  l */\n      dup3\n        /* \"W1/heap.sol\":1423:1435  smallest = l */\n      swap1\n      pop\n        /* \"W1/heap.sol\":1362:1447  if (l < heap.length && _conpare(l ,smallest)) {... */\n    tag_129:\n        /* \"W1/heap.sol\":1465:1469  heap */\n      0x00\n        /* \"W1/heap.sol\":1465:1476  heap.length */\n      dup1\n      sload\n      swap1\n      pop\n        /* \"W1/heap.sol\":1461:1462  r */\n      dup3\n        /* \"W1/heap.sol\":1461:1476  r < heap.length */\n      lt\n        /* \"W1/heap.sol\":1461:1501  r < heap.length && _conpare(r ,smallest) */\n      dup1\n      iszero\n      tag_130\n      jumpi\n      pop\n        /* \"W1/heap.sol\":1480:1501  _conpare(r ,smallest) */\n      tag_131\n        /* \"W1/heap.sol\":1489:1490  r */\n      dup3\n        /* \"W1/heap.sol\":1492:1500  smallest */\n      dup3\n        /* \"W1/heap.sol\":1480:1488  _conpare */\n      tag_26\n        /* \"W1/heap.sol\":1480:1501  _conpare(r ,smallest) */\n      jump\t// in\n    tag_131:\n        /* \"W1/heap.sol\":1461:1501  r < heap.length && _conpare(r ,smallest) */\n    tag_130:\n        /* \"W1/heap.sol\":1457:1542  if (r < heap.length && _conpare(r ,smallest)) {... */\n      iszero\n      tag_132\n      jumpi\n        /* \"W1/heap.sol\":1529:1530  r */\n      dup2\n        /* \"W1/heap.sol\":1518:1530  smallest = r */\n      swap1\n      pop\n        /* \"W1/heap.sol\":1457:1542  if (r < heap.length && _conpare(r ,smallest)) {... */\n    tag_132:\n        /* \"W1/heap.sol\":1568:1570  _i */\n      dup4\n        /* \"W1/heap.sol\":1556:1564  smallest */\n      dup2\n        /* \"W1/heap.sol\":1556:1570  smallest != _i */\n      eq\n        /* \"W1/heap.sol\":1552:1651  if (smallest != _i) {... */\n      tag_133\n      jumpi\n        /* \"W1/heap.sol\":1587:1606  _swap(_i, smallest) */\n      tag_134\n        /* \"W1/heap.sol\":1593:1595  _i */\n      dup5\n        /* \"W1/heap.sol\":1597:1605  smallest */\n      dup3\n        /* \"W1/heap.sol\":1587:1592  _swap */\n      tag_29\n        /* \"W1/heap.sol\":1587:1606  _swap(_i, smallest) */\n      jump\t// in\n    tag_134:\n        /* \"W1/heap.sol\":1621:1639  _heapify(smallest) */\n      tag_135\n        /* \"W1/heap.sol\":1630:1638  smallest */\n      dup2\n        /* \"W1/heap.sol\":1621:1629  _heapify */\n      tag_52\n        /* \"W1/heap.sol\":1621:1639  _heapify(smallest) */\n      jump\t// in\n    tag_135:\n        /* \"W1/heap.sol\":1552:1651  if (smallest != _i) {... */\n    tag_133:\n        /* \"W1/heap.sol\":1253:1658  {... */\n      pop\n      pop\n      pop\n        /* \"W1/heap.sol\":1215:1658  function _heapify(uint256 _i) private {... */\n      pop\n      jump\t// out\n    tag_54:\n      mload(0x40)\n      dup1\n      0x80\n      add\n      0x40\n      mstore\n      dup1\n      and(0xffffffffffffffffffffffffffffffffffffffff, 0x00)\n      dup2\n      mstore\n      0x20\n      add\n      0x00\n      dup2\n      mstore\n      0x20\n      add\n      0x00\n      dup2\n      mstore\n      0x20\n      add\n      0x00\n      dup2\n      mstore\n      pop\n      swap1\n      jump\t// out\n        /* \"#utility.yul\":7:82   */\n    tag_136:\n        /* \"#utility.yul\":40:46   */\n      0x00\n        /* \"#utility.yul\":73:75   */\n      0x40\n        /* \"#utility.yul\":67:76   */\n      mload\n        /* \"#utility.yul\":57:76   */\n      swap1\n      pop\n        /* \"#utility.yul\":7:82   */\n      swap1\n      jump\t// out\n        /* \"#utility.yul\":88:205   */\n    tag_137:\n        /* \"#utility.yul\":197:198   */\n      0x00\n        /* \"#utility.yul\":194:195   */\n      dup1\n        /* \"#utility.yul\":187:199   */\n      revert\n        /* \"#utility.yul\":334:451   */\n    tag_139:\n        /* \"#utility.yul\":443:444   */\n      0x00\n        /* \"#utility.yul\":440:441   */\n      dup1\n        /* \"#utility.yul\":433:445   */\n      revert\n        /* \"#utility.yul\":457:559   */\n    tag_140:\n        /* \"#utility.yul\":498:504   */\n      0x00\n        /* \"#utility.yul\":549:551   */\n      0x1f\n        /* \"#utility.yul\":545:552   */\n      not\n        /* \"#utility.yul\":540:542   */\n      0x1f\n        /* \"#utility.yul\":533:538   */\n      dup4\n        /* \"#utility.yul\":529:543   */\n      add\n        /* \"#utility.yul\":525:553   */\n      and\n        /* \"#utility.yul\":515:553   */\n      swap1\n      pop\n        /* \"#utility.yul\":457:559   */\n      swap2\n      swap1\n      pop\n      jump\t// out\n        /* \"#utility.yul\":565:745   */\n    tag_141:\n        /* \"#utility.yul\":613:690   */\n      0x4e487b7100000000000000000000000000000000000000000000000000000000\n        /* \"#utility.yul\":610:611   */\n      0x00\n        /* \"#utility.yul\":603:691   */\n      mstore\n        /* \"#utility.yul\":710:714   */\n      0x41\n        /* \"#utility.yul\":707:708   */\n      0x04\n        /* \"#utility.yul\":700:715   */\n      mstore\n        /* \"#utility.yul\":734:738   */\n      0x24\n        /* \"#utility.yul\":731:732   */\n      0x00\n        /* \"#utility.yul\":724:739   */\n      revert\n        /* \"#utility.yul\":751:1032   */\n    tag_142:\n        /* \"#utility.yul\":834:861   */\n      tag_169\n        /* \"#utility.yul\":856:860   */\n      dup3\n        /* \"#utility.yul\":834:861   */\n      tag_140\n      jump\t// in\n    tag_169:\n        /* \"#utility.yul\":826:832   */\n      dup2\n        /* \"#utility.yul\":822:862   */\n      add\n        /* \"#utility.yul\":964:970   */\n      dup2\n        /* \"#utility.yul\":952:962   */\n      dup2\n        /* \"#utility.yul\":949:971   */\n      lt\n        /* \"#utility.yul\":928:946   */\n      0xffffffffffffffff\n        /* \"#utility.yul\":916:926   */\n      dup3\n        /* \"#utility.yul\":913:947   */\n      gt\n        /* \"#utility.yul\":910:972   */\n      or\n        /* \"#utility.yul\":907:995   */\n      iszero\n      tag_170\n      jumpi\n        /* \"#utility.yul\":975:993   */\n      tag_171\n      tag_141\n      jump\t// in\n    tag_171:\n        /* \"#utility.yul\":907:995   */\n    tag_170:\n        /* \"#utility.yul\":1015:1025   */\n      dup1\n        /* \"#utility.yul\":1011:1013   */\n      0x40\n        /* \"#utility.yul\":1004:1026   */\n      mstore\n        /* \"#utility.yul\":794:1032   */\n      pop\n        /* \"#utility.yul\":751:1032   */\n      pop\n      pop\n      jump\t// out\n        /* \"#utility.yul\":1038:1167   */\n    tag_143:\n        /* \"#utility.yul\":1072:1078   */\n      0x00\n        /* \"#utility.yul\":1099:1119   */\n      tag_173\n      tag_136\n      jump\t// in\n    tag_173:\n        /* \"#utility.yul\":1089:1119   */\n      swap1\n      pop\n        /* \"#utility.yul\":1128:1161   */\n      tag_174\n        /* \"#utility.yul\":1156:1160   */\n      dup3\n        /* \"#utility.yul\":1148:1154   */\n      dup3\n        /* \"#utility.yul\":1128:1161   */\n      tag_142\n      jump\t// in\n    tag_174:\n        /* \"#utility.yul\":1038:1167   */\n      swap2\n      swap1\n      pop\n      jump\t// out\n        /* \"#utility.yul\":1296:1422   */\n    tag_145:\n        /* \"#utility.yul\":1333:1340   */\n      0x00\n        /* \"#utility.yul\":1373:1415   */\n      0xffffffffffffffffffffffffffffffffffffffff\n        /* \"#utility.yul\":1366:1371   */\n      dup3\n        /* \"#utility.yul\":1362:1416   */\n      and\n        /* \"#utility.yul\":1351:1416   */\n      swap1\n      pop\n        /* \"#utility.yul\":1296:1422   */\n      swap2\n      swap1\n      pop\n      jump\t// out\n        /* \"#utility.yul\":1428:1524   */\n    tag_146:\n        /* \"#utility.yul\":1465:1472   */\n      0x00\n        /* \"#utility.yul\":1494:1518   */\n      tag_178\n        /* \"#utility.yul\":1512:1517   */\n      dup3\n        /* \"#utility.yul\":1494:1518   */\n      tag_145\n      jump\t// in\n    tag_178:\n        /* \"#utility.yul\":1483:1518   */\n      swap1\n      pop\n        /* \"#utility.yul\":1428:1524   */\n      swap2\n      swap1\n      pop\n      jump\t// out\n        /* \"#utility.yul\":1530:1652   */\n    tag_147:\n        /* \"#utility.yul\":1603:1627   */\n      tag_180\n        /* \"#utility.yul\":1621:1626   */\n      dup2\n        /* \"#utility.yul\":1603:1627   */\n      tag_146\n      jump\t// in\n    tag_180:\n        /* \"#utility.yul\":1596:1601   */\n      dup2\n        /* \"#utility.yul\":1593:1628   */\n      eq\n        /* \"#utility.yul\":1583:1646   */\n      tag_181\n      jumpi\n        /* \"#utility.yul\":1642:1643   */\n      0x00\n        /* \"#utility.yul\":1639:1640   */\n      dup1\n        /* \"#utility.yul\":1632:1644   */\n      revert\n        /* \"#utility.yul\":1583:1646   */\n    tag_181:\n        /* \"#utility.yul\":1530:1652   */\n      pop\n      jump\t// out\n        /* \"#utility.yul\":1658:1797   */\n    tag_148:\n        /* \"#utility.yul\":1704:1709   */\n      0x00\n        /* \"#utility.yul\":1742:1748   */\n      dup2\n        /* \"#utility.yul\":1729:1749   */\n      calldataload\n        /* \"#utility.yul\":1720:1749   */\n      swap1\n      pop\n        /* \"#utility.yul\":1758:1791   */\n      tag_183\n        /* \"#utility.yul\":1785:1790   */\n      dup2\n        /* \"#utility.yul\":1758:1791   */\n      tag_147\n      jump\t// in\n    tag_183:\n        /* \"#utility.yul\":1658:1797   */\n      swap3\n      swap2\n      pop\n      pop\n      jump\t// out\n        /* \"#utility.yul\":1803:1880   */\n    tag_149:\n        /* \"#utility.yul\":1840:1847   */\n      0x00\n        /* \"#utility.yul\":1869:1874   */\n      dup2\n        /* \"#utility.yul\":1858:1874   */\n      swap1\n      pop\n        /* \"#utility.yul\":1803:1880   */\n      swap2\n      swap1\n      pop\n      jump\t// out\n        /* \"#utility.yul\":1886:2008   */\n    tag_150:\n        /* \"#utility.yul\":1959:1983   */\n      tag_186\n        /* \"#utility.yul\":1977:1982   */\n      dup2\n        /* \"#utility.yul\":1959:1983   */\n      tag_149\n      jump\t// in\n    tag_186:\n        /* \"#utility.yul\":1952:1957   */\n      dup2\n        /* \"#utility.yul\":1949:1984   */\n      eq\n        /* \"#utility.yul\":1939:2002   */\n      tag_187\n      jumpi\n        /* \"#utility.yul\":1998:1999   */\n      0x00\n        /* \"#utility.yul\":1995:1996   */\n      dup1\n        /* \"#utility.yul\":1988:2000   */\n      revert\n        /* \"#utility.yul\":1939:2002   */\n    tag_187:\n        /* \"#utility.yul\":1886:2008   */\n      pop\n      jump\t// out\n        /* \"#utility.yul\":2014:2153   */\n    tag_151:\n        /* \"#utility.yul\":2060:2065   */\n      0x00\n        /* \"#utility.yul\":2098:2104   */\n      dup2\n        /* \"#utility.yul\":2085:2105   */\n      calldataload\n        /* \"#utility.yul\":2076:2105   */\n      swap1\n      pop\n        /* \"#utility.yul\":2114:2147   */\n      tag_189\n        /* \"#utility.yul\":2141:2146   */\n      dup2\n        /* \"#utility.yul\":2114:2147   */\n      tag_150\n      jump\t// in\n    tag_189:\n        /* \"#utility.yul\":2014:2153   */\n      swap3\n      swap2\n      pop\n      pop\n      jump\t// out\n        /* \"#utility.yul\":2187:3089   */\n    tag_152:\n        /* \"#utility.yul\":2257:2262   */\n      0x00\n        /* \"#utility.yul\":2301:2305   */\n      0x80\n        /* \"#utility.yul\":2289:2298   */\n      dup3\n        /* \"#utility.yul\":2284:2287   */\n      dup5\n        /* \"#utility.yul\":2280:2299   */\n      sub\n        /* \"#utility.yul\":2276:2306   */\n      slt\n        /* \"#utility.yul\":2273:2390   */\n      iszero\n      tag_191\n      jumpi\n        /* \"#utility.yul\":2309:2388   */\n      tag_192\n      tag_139\n      jump\t// in\n    tag_192:\n        /* \"#utility.yul\":2273:2390   */\n    tag_191:\n        /* \"#utility.yul\":2408:2429   */\n      tag_193\n        /* \"#utility.yul\":2424:2428   */\n      0x80\n        /* \"#utility.yul\":2408:2429   */\n      tag_143\n      jump\t// in\n    tag_193:\n        /* \"#utility.yul\":2399:2429   */\n      swap1\n      pop\n        /* \"#utility.yul\":2490:2491   */\n      0x00\n        /* \"#utility.yul\":2530:2579   */\n      tag_194\n        /* \"#utility.yul\":2575:2578   */\n      dup5\n        /* \"#utility.yul\":2566:2572   */\n      dup3\n        /* \"#utility.yul\":2555:2564   */\n      dup6\n        /* \"#utility.yul\":2551:2573   */\n      add\n        /* \"#utility.yul\":2530:2579   */\n      tag_148\n      jump\t// in\n    tag_194:\n        /* \"#utility.yul\":2523:2527   */\n      0x00\n        /* \"#utility.yul\":2516:2521   */\n      dup4\n        /* \"#utility.yul\":2512:2528   */\n      add\n        /* \"#utility.yul\":2505:2580   */\n      mstore\n        /* \"#utility.yul\":2439:2591   */\n      pop\n        /* \"#utility.yul\":2652:2654   */\n      0x20\n        /* \"#utility.yul\":2693:2742   */\n      tag_195\n        /* \"#utility.yul\":2738:2741   */\n      dup5\n        /* \"#utility.yul\":2729:2735   */\n      dup3\n        /* \"#utility.yul\":2718:2727   */\n      dup6\n        /* \"#utility.yul\":2714:2736   */\n      add\n        /* \"#utility.yul\":2693:2742   */\n      tag_151\n      jump\t// in\n    tag_195:\n        /* \"#utility.yul\":2686:2690   */\n      0x20\n        /* \"#utility.yul\":2679:2684   */\n      dup4\n        /* \"#utility.yul\":2675:2691   */\n      add\n        /* \"#utility.yul\":2668:2743   */\n      mstore\n        /* \"#utility.yul\":2601:2754   */\n      pop\n        /* \"#utility.yul\":2814:2816   */\n      0x40\n        /* \"#utility.yul\":2855:2904   */\n      tag_196\n        /* \"#utility.yul\":2900:2903   */\n      dup5\n        /* \"#utility.yul\":2891:2897   */\n      dup3\n        /* \"#utility.yul\":2880:2889   */\n      dup6\n        /* \"#utility.yul\":2876:2898   */\n      add\n        /* \"#utility.yul\":2855:2904   */\n      tag_151\n      jump\t// in\n    tag_196:\n        /* \"#utility.yul\":2848:2852   */\n      0x40\n        /* \"#utility.yul\":2841:2846   */\n      dup4\n        /* \"#utility.yul\":2837:2853   */\n      add\n        /* \"#utility.yul\":2830:2905   */\n      mstore\n        /* \"#utility.yul\":2764:2916   */\n      pop\n        /* \"#utility.yul\":2980:2982   */\n      0x60\n        /* \"#utility.yul\":3021:3070   */\n      tag_197\n        /* \"#utility.yul\":3066:3069   */\n      dup5\n        /* \"#utility.yul\":3057:3063   */\n      dup3\n        /* \"#utility.yul\":3046:3055   */\n      dup6\n        /* \"#utility.yul\":3042:3064   */\n      add\n        /* \"#utility.yul\":3021:3070   */\n      tag_151\n      jump\t// in\n    tag_197:\n        /* \"#utility.yul\":3014:3018   */\n      0x60\n        /* \"#utility.yul\":3007:3012   */\n      dup4\n        /* \"#utility.yul\":3003:3019   */\n      add\n        /* \"#utility.yul\":2996:3071   */\n      mstore\n        /* \"#utility.yul\":2926:3082   */\n      pop\n        /* \"#utility.yul\":2187:3089   */\n      swap3\n      swap2\n      pop\n      pop\n      jump\t// out\n        /* \"#utility.yul\":3095:3467   */\n    tag_8:\n        /* \"#utility.yul\":3175:3181   */\n      0x00\n        /* \"#utility.yul\":3224:3227   */\n      0x80\n        /* \"#utility.yul\":3212:3221   */\n      dup3\n        /* \"#utility.yul\":3203:3210   */\n      dup5\n        /* \"#utility.yul\":3199:3222   */\n      sub\n        /* \"#utility.yul\":3195:3228   */\n      slt\n        /* \"#utility.yul\":3192:3312   */\n      iszero\n      tag_199\n      jumpi\n        /* \"#utility.yul\":3231:3310   */\n      tag_200\n      tag_137\n      jump\t// in\n    tag_200:\n        /* \"#utility.yul\":3192:3312   */\n    tag_199:\n        /* \"#utility.yul\":3351:3352   */\n      0x00\n        /* \"#utility.yul\":3376:3450   */\n      tag_201\n        /* \"#utility.yul\":3442:3449   */\n      dup5\n        /* \"#utility.yul\":3433:3439   */\n      dup3\n        /* \"#utility.yul\":3422:3431   */\n      dup6\n        /* \"#utility.yul\":3418:3440   */\n      add\n        /* \"#utility.yul\":3376:3450   */\n      tag_152\n      jump\t// in\n    tag_201:\n        /* \"#utility.yul\":3366:3450   */\n      swap2\n      pop\n        /* \"#utility.yul\":3322:3460   */\n      pop\n        /* \"#utility.yul\":3095:3467   */\n      swap3\n      swap2\n      pop\n      pop\n      jump\t// out\n        /* \"#utility.yul\":3473:3581   */\n    tag_153:\n        /* \"#utility.yul\":3550:3574   */\n      tag_203\n        /* \"#utility.yul\":3568:3573   */\n      dup2\n        /* \"#utility.yul\":3550:3574   */\n      tag_146\n      jump\t// in\n    tag_203:\n        /* \"#utility.yul\":3545:3548   */\n      dup3\n        /* \"#utility.yul\":3538:3575   */\n      mstore\n        /* \"#utility.yul\":3473:3581   */\n      pop\n      pop\n      jump\t// out\n        /* \"#utility.yul\":3587:3695   */\n    tag_154:\n        /* \"#utility.yul\":3664:3688   */\n      tag_205\n        /* \"#utility.yul\":3682:3687   */\n      dup2\n        /* \"#utility.yul\":3664:3688   */\n      tag_149\n      jump\t// in\n    tag_205:\n        /* \"#utility.yul\":3659:3662   */\n      dup3\n        /* \"#utility.yul\":3652:3689   */\n      mstore\n        /* \"#utility.yul\":3587:3695   */\n      pop\n      pop\n      jump\t// out\n        /* \"#utility.yul\":3753:4610   */\n    tag_155:\n        /* \"#utility.yul\":3892:3896   */\n      0x80\n        /* \"#utility.yul\":3887:3890   */\n      dup3\n        /* \"#utility.yul\":3883:3897   */\n      add\n        /* \"#utility.yul\":3981:3985   */\n      0x00\n        /* \"#utility.yul\":3974:3979   */\n      dup3\n        /* \"#utility.yul\":3970:3986   */\n      add\n        /* \"#utility.yul\":3964:3987   */\n      mload\n        /* \"#utility.yul\":4000:4063   */\n      tag_207\n        /* \"#utility.yul\":4057:4061   */\n      0x00\n        /* \"#utility.yul\":4052:4055   */\n      dup6\n        /* \"#utility.yul\":4048:4062   */\n      add\n        /* \"#utility.yul\":4034:4046   */\n      dup3\n        /* \"#utility.yul\":4000:4063   */\n      tag_153\n      jump\t// in\n    tag_207:\n        /* \"#utility.yul\":3907:4073   */\n      pop\n        /* \"#utility.yul\":4157:4161   */\n      0x20\n        /* \"#utility.yul\":4150:4155   */\n      dup3\n        /* \"#utility.yul\":4146:4162   */\n      add\n        /* \"#utility.yul\":4140:4163   */\n      mload\n        /* \"#utility.yul\":4176:4239   */\n      tag_208\n        /* \"#utility.yul\":4233:4237   */\n      0x20\n        /* \"#utility.yul\":4228:4231   */\n      dup6\n        /* \"#utility.yul\":4224:4238   */\n      add\n        /* \"#utility.yul\":4210:4222   */\n      dup3\n        /* \"#utility.yul\":4176:4239   */\n      tag_154\n      jump\t// in\n    tag_208:\n        /* \"#utility.yul\":4083:4249   */\n      pop\n        /* \"#utility.yul\":4332:4336   */\n      0x40\n        /* \"#utility.yul\":4325:4330   */\n      dup3\n        /* \"#utility.yul\":4321:4337   */\n      add\n        /* \"#utility.yul\":4315:4338   */\n      mload\n        /* \"#utility.yul\":4351:4414   */\n      tag_209\n        /* \"#utility.yul\":4408:4412   */\n      0x40\n        /* \"#utility.yul\":4403:4406   */\n      dup6\n        /* \"#utility.yul\":4399:4413   */\n      add\n        /* \"#utility.yul\":4385:4397   */\n      dup3\n        /* \"#utility.yul\":4351:4414   */\n      tag_154\n      jump\t// in\n    tag_209:\n        /* \"#utility.yul\":4259:4424   */\n      pop\n        /* \"#utility.yul\":4511:4515   */\n      0x60\n        /* \"#utility.yul\":4504:4509   */\n      dup3\n        /* \"#utility.yul\":4500:4516   */\n      add\n        /* \"#utility.yul\":4494:4517   */\n      mload\n        /* \"#utility.yul\":4530:4593   */\n      tag_210\n        /* \"#utility.yul\":4587:4591   */\n      0x60\n        /* \"#utility.yul\":4582:4585   */\n      dup6\n        /* \"#utility.yul\":4578:4592   */\n      add\n        /* \"#utility.yul\":4564:4576   */\n      dup3\n        /* \"#utility.yul\":4530:4593   */\n      tag_154\n      jump\t// in\n    tag_210:\n        /* \"#utility.yul\":4434:4603   */\n      pop\n        /* \"#utility.yul\":3861:4610   */\n      pop\n        /* \"#utility.yul\":3753:4610   */\n      pop\n      pop\n      jump\t// out\n        /* \"#utility.yul\":4616:4923   */\n    tag_15:\n        /* \"#utility.yul\":4751:4755   */\n      0x00\n        /* \"#utility.yul\":4789:4792   */\n      0x80\n        /* \"#utility.yul\":4778:4787   */\n      dup3\n        /* \"#utility.yul\":4774:4793   */\n      add\n        /* \"#utility.yul\":4766:4793   */\n      swap1\n      pop\n        /* \"#utility.yul\":4803:4916   */\n      tag_212\n        /* \"#utility.yul\":4913:4914   */\n      0x00\n        /* \"#utility.yul\":4902:4911   */\n      dup4\n        /* \"#utility.yul\":4898:4915   */\n      add\n        /* \"#utility.yul\":4889:4895   */\n      dup5\n        /* \"#utility.yul\":4803:4916   */\n      tag_155\n      jump\t// in\n    tag_212:\n        /* \"#utility.yul\":4616:4923   */\n      swap3\n      swap2\n      pop\n      pop\n      jump\t// out\n        /* \"#utility.yul\":4929:5109   */\n    tag_156:\n        /* \"#utility.yul\":4977:5054   */\n      0x4e487b7100000000000000000000000000000000000000000000000000000000\n        /* \"#utility.yul\":4974:4975   */\n      0x00\n        /* \"#utility.yul\":4967:5055   */\n      mstore\n        /* \"#utility.yul\":5074:5078   */\n      0x11\n        /* \"#utility.yul\":5071:5072   */\n      0x04\n        /* \"#utility.yul\":5064:5079   */\n      mstore\n        /* \"#utility.yul\":5098:5102   */\n      0x24\n        /* \"#utility.yul\":5095:5096   */\n      0x00\n        /* \"#utility.yul\":5088:5103   */\n      revert\n        /* \"#utility.yul\":5115:5309   */\n    tag_19:\n        /* \"#utility.yul\":5155:5159   */\n      0x00\n        /* \"#utility.yul\":5175:5195   */\n      tag_215\n        /* \"#utility.yul\":5193:5194   */\n      dup3\n        /* \"#utility.yul\":5175:5195   */\n      tag_149\n      jump\t// in\n    tag_215:\n        /* \"#utility.yul\":5170:5195   */\n      swap2\n      pop\n        /* \"#utility.yul\":5209:5229   */\n      tag_216\n        /* \"#utility.yul\":5227:5228   */\n      dup4\n        /* \"#utility.yul\":5209:5229   */\n      tag_149\n      jump\t// in\n    tag_216:\n        /* \"#utility.yul\":5204:5229   */\n      swap3\n      pop\n        /* \"#utility.yul\":5253:5254   */\n      dup3\n        /* \"#utility.yul\":5250:5251   */\n      dup3\n        /* \"#utility.yul\":5246:5255   */\n      sub\n        /* \"#utility.yul\":5238:5255   */\n      swap1\n      pop\n        /* \"#utility.yul\":5277:5278   */\n      dup2\n        /* \"#utility.yul\":5271:5275   */\n      dup2\n        /* \"#utility.yul\":5268:5279   */\n      gt\n        /* \"#utility.yul\":5265:5302   */\n      iszero\n      tag_217\n      jumpi\n        /* \"#utility.yul\":5282:5300   */\n      tag_218\n      tag_156\n      jump\t// in\n    tag_218:\n        /* \"#utility.yul\":5265:5302   */\n    tag_217:\n        /* \"#utility.yul\":5115:5309   */\n      swap3\n      swap2\n      pop\n      pop\n      jump\t// out\n        /* \"#utility.yul\":5315:5495   */\n    tag_157:\n        /* \"#utility.yul\":5363:5440   */\n      0x4e487b7100000000000000000000000000000000000000000000000000000000\n        /* \"#utility.yul\":5360:5361   */\n      0x00\n        /* \"#utility.yul\":5353:5441   */\n      mstore\n        /* \"#utility.yul\":5460:5464   */\n      0x12\n        /* \"#utility.yul\":5457:5458   */\n      0x04\n        /* \"#utility.yul\":5450:5465   */\n      mstore\n        /* \"#utility.yul\":5484:5488   */\n      0x24\n        /* \"#utility.yul\":5481:5482   */\n      0x00\n        /* \"#utility.yul\":5474:5489   */\n      revert\n        /* \"#utility.yul\":5501:5686   */\n    tag_24:\n        /* \"#utility.yul\":5541:5542   */\n      0x00\n        /* \"#utility.yul\":5558:5578   */\n      tag_221\n        /* \"#utility.yul\":5576:5577   */\n      dup3\n        /* \"#utility.yul\":5558:5578   */\n      tag_149\n      jump\t// in\n    tag_221:\n        /* \"#utility.yul\":5553:5578   */\n      swap2\n      pop\n        /* \"#utility.yul\":5592:5612   */\n      tag_222\n        /* \"#utility.yul\":5610:5611   */\n      dup4\n        /* \"#utility.yul\":5592:5612   */\n      tag_149\n      jump\t// in\n    tag_222:\n        /* \"#utility.yul\":5587:5612   */\n      swap3\n      pop\n        /* \"#utility.yul\":5631:5632   */\n      dup3\n        /* \"#utility.yul\":5621:5656   */\n      tag_223\n      jumpi\n        /* \"#utility.yul\":5636:5654   */\n      tag_224\n      tag_157\n      jump\t// in\n    tag_224:\n        /* \"#utility.yul\":5621:5656   */\n    tag_223:\n        /* \"#utility.yul\":5678:5679   */\n      dup3\n        /* \"#utility.yul\":5675:5676   */\n      dup3\n        /* \"#utility.yul\":5671:5680   */\n      div\n        /* \"#utility.yul\":5666:5680   */\n      swap1\n      pop\n        /* \"#utility.yul\":5501:5686   */\n      swap3\n      swap2\n      pop\n      pop\n      jump\t// out\n        /* \"#utility.yul\":5692:5861   */\n    tag_158:\n        /* \"#utility.yul\":5776:5787   */\n      0x00\n        /* \"#utility.yul\":5810:5816   */\n      dup3\n        /* \"#utility.yul\":5805:5808   */\n      dup3\n        /* \"#utility.yul\":5798:5817   */\n      mstore\n        /* \"#utility.yul\":5850:5854   */\n      0x20\n        /* \"#utility.yul\":5845:5848   */\n      dup3\n        /* \"#utility.yul\":5841:5855   */\n      add\n        /* \"#utility.yul\":5826:5855   */\n      swap1\n      pop\n        /* \"#utility.yul\":5692:5861   */\n      swap3\n      swap2\n      pop\n      pop\n      jump\t// out\n        /* \"#utility.yul\":5867:6030   */\n    tag_159:\n        /* \"#utility.yul\":6007:6022   */\n      0x6865617020697320656d70747900000000000000000000000000000000000000\n        /* \"#utility.yul\":6003:6004   */\n      0x00\n        /* \"#utility.yul\":5995:6001   */\n      dup3\n        /* \"#utility.yul\":5991:6005   */\n      add\n        /* \"#utility.yul\":5984:6023   */\n      mstore\n        /* \"#utility.yul\":5867:6030   */\n      pop\n      jump\t// out\n        /* \"#utility.yul\":6036:6402   */\n    tag_160:\n        /* \"#utility.yul\":6178:6181   */\n      0x00\n        /* \"#utility.yul\":6199:6266   */\n      tag_228\n        /* \"#utility.yul\":6263:6265   */\n      0x0d\n        /* \"#utility.yul\":6258:6261   */\n      dup4\n        /* \"#utility.yul\":6199:6266   */\n      tag_158\n      jump\t// in\n    tag_228:\n        /* \"#utility.yul\":6192:6266   */\n      swap2\n      pop\n        /* \"#utility.yul\":6275:6368   */\n      tag_229\n        /* \"#utility.yul\":6364:6367   */\n      dup3\n        /* \"#utility.yul\":6275:6368   */\n      tag_159\n      jump\t// in\n    tag_229:\n        /* \"#utility.yul\":6393:6395   */\n      0x20\n        /* \"#utility.yul\":6388:6391   */\n      dup3\n        /* \"#utility.yul\":6384:6396   */\n      add\n        /* \"#utility.yul\":6377:6396   */\n      swap1\n      pop\n        /* \"#utility.yul\":6036:6402   */\n      swap2\n      swap1\n      pop\n      jump\t// out\n        /* \"#utility.yul\":6408:6827   */\n    tag_34:\n        /* \"#utility.yul\":6574:6578   */\n      0x00\n        /* \"#utility.yul\":6612:6614   */\n      0x20\n        /* \"#utility.yul\":6601:6610   */\n      dup3\n        /* \"#utility.yul\":6597:6615   */\n      add\n        /* \"#utility.yul\":6589:6615   */\n      swap1\n      pop\n        /* \"#utility.yul\":6661:6670   */\n      dup2\n        /* \"#utility.yul\":6655:6659   */\n      dup2\n        /* \"#utility.yul\":6651:6671   */\n      sub\n        /* \"#utility.yul\":6647:6648   */\n      0x00\n        /* \"#utility.yul\":6636:6645   */\n      dup4\n        /* \"#utility.yul\":6632:6649   */\n      add\n        /* \"#utility.yul\":6625:6672   */\n      mstore\n        /* \"#utility.yul\":6689:6820   */\n      tag_231\n        /* \"#utility.yul\":6815:6819   */\n      dup2\n        /* \"#utility.yul\":6689:6820   */\n      tag_160\n      jump\t// in\n    tag_231:\n        /* \"#utility.yul\":6681:6820   */\n      swap1\n      pop\n        /* \"#utility.yul\":6408:6827   */\n      swap2\n      swap1\n      pop\n      jump\t// out\n        /* \"#utility.yul\":6833:7013   */\n    tag_38:\n        /* \"#utility.yul\":6881:6958   */\n      0x4e487b7100000000000000000000000000000000000000000000000000000000\n        /* \"#utility.yul\":6878:6879   */\n      0x00\n        /* \"#utility.yul\":6871:6959   */\n      mstore\n        /* \"#utility.yul\":6978:6982   */\n      0x32\n        /* \"#utility.yul\":6975:6976   */\n      0x04\n        /* \"#utility.yul\":6968:6983   */\n      mstore\n        /* \"#utility.yul\":7002:7006   */\n      0x24\n        /* \"#utility.yul\":6999:7000   */\n      0x00\n        /* \"#utility.yul\":6992:7007   */\n      revert\n        /* \"#utility.yul\":7019:7199   */\n    tag_49:\n        /* \"#utility.yul\":7067:7144   */\n      0x4e487b7100000000000000000000000000000000000000000000000000000000\n        /* \"#utility.yul\":7064:7065   */\n      0x00\n        /* \"#utility.yul\":7057:7145   */\n      mstore\n        /* \"#utility.yul\":7164:7168   */\n      0x31\n        /* \"#utility.yul\":7161:7162   */\n      0x04\n        /* \"#utility.yul\":7154:7169   */\n      mstore\n        /* \"#utility.yul\":7188:7192   */\n      0x24\n        /* \"#utility.yul\":7185:7186   */\n      0x00\n        /* \"#utility.yul\":7178:7193   */\n      revert\n        /* \"#utility.yul\":7205:7615   */\n    tag_122:\n        /* \"#utility.yul\":7245:7252   */\n      0x00\n        /* \"#utility.yul\":7268:7288   */\n      tag_235\n        /* \"#utility.yul\":7286:7287   */\n      dup3\n        /* \"#utility.yul\":7268:7288   */\n      tag_149\n      jump\t// in\n    tag_235:\n        /* \"#utility.yul\":7263:7288   */\n      swap2\n      pop\n        /* \"#utility.yul\":7302:7322   */\n      tag_236\n        /* \"#utility.yul\":7320:7321   */\n      dup4\n        /* \"#utility.yul\":7302:7322   */\n      tag_149\n      jump\t// in\n    tag_236:\n        /* \"#utility.yul\":7297:7322   */\n      swap3\n      pop\n        /* \"#utility.yul\":7357:7358   */\n      dup3\n        /* \"#utility.yul\":7354:7355   */\n      dup3\n        /* \"#utility.yul\":7350:7359   */\n      mul\n        /* \"#utility.yul\":7379:7409   */\n      tag_237\n        /* \"#utility.yul\":7397:7408   */\n      dup2\n        /* \"#utility.yul\":7379:7409   */\n      tag_149\n      jump\t// in\n    tag_237:\n        /* \"#utility.yul\":7368:7409   */\n      swap2\n      pop\n        /* \"#utility.yul\":7558:7559   */\n      dup3\n        /* \"#utility.yul\":7549:7556   */\n      dup3\n        /* \"#utility.yul\":7545:7560   */\n      div\n        /* \"#utility.yul\":7542:7543   */\n      dup5\n        /* \"#utility.yul\":7539:7561   */\n      eq\n        /* \"#utility.yul\":7519:7520   */\n      dup4\n        /* \"#utility.yul\":7512:7521   */\n      iszero\n        /* \"#utility.yul\":7492:7575   */\n      or\n        /* \"#utility.yul\":7469:7608   */\n      tag_238\n      jumpi\n        /* \"#utility.yul\":7588:7606   */\n      tag_239\n      tag_156\n      jump\t// in\n    tag_239:\n        /* \"#utility.yul\":7469:7608   */\n    tag_238:\n        /* \"#utility.yul\":7253:7615   */\n      pop\n        /* \"#utility.yul\":7205:7615   */\n      swap3\n      swap2\n      pop\n      pop\n      jump\t// out\n        /* \"#utility.yul\":7621:7812   */\n    tag_124:\n        /* \"#utility.yul\":7661:7664   */\n      0x00\n        /* \"#utility.yul\":7680:7700   */\n      tag_241\n        /* \"#utility.yul\":7698:7699   */\n      dup3\n        /* \"#utility.yul\":7680:7700   */\n      tag_149\n      jump\t// in\n    tag_241:\n        /* \"#utility.yul\":7675:7700   */\n      swap2\n      pop\n        /* \"#utility.yul\":7714:7734   */\n      tag_242\n        /* \"#utility.yul\":7732:7733   */\n      dup4\n        /* \"#utility.yul\":7714:7734   */\n      tag_149\n      jump\t// in\n    tag_242:\n        /* \"#utility.yul\":7709:7734   */\n      swap3\n      pop\n        /* \"#utility.yul\":7757:7758   */\n      dup3\n        /* \"#utility.yul\":7754:7755   */\n      dup3\n        /* \"#utility.yul\":7750:7759   */\n      add\n        /* \"#utility.yul\":7743:7759   */\n      swap1\n      pop\n        /* \"#utility.yul\":7778:7781   */\n      dup1\n        /* \"#utility.yul\":7775:7776   */\n      dup3\n        /* \"#utility.yul\":7772:7782   */\n      gt\n        /* \"#utility.yul\":7769:7805   */\n      iszero\n      tag_243\n      jumpi\n        /* \"#utility.yul\":7785:7803   */\n      tag_244\n      tag_156\n      jump\t// in\n    tag_244:\n        /* \"#utility.yul\":7769:7805   */\n    tag_243:\n        /* \"#utility.yul\":7621:7812   */\n      swap3\n      swap2\n      pop\n      pop\n      jump\t// out\n\n    auxdata: 0xa26469706673582212201451d1d491ea10c9e11ccb6e81a2907d1a1f35287dafe7160544a6255360930964736f6c63430008130033\n}\n",
				"bytecode": {
					"linkReferences": {},
					"object": "608060405234801561001057600080fd5b5060006040518060800160405280600073ffffffffffffffffffffffffffffffffffffffff1681526020017fffffffffffffffffffffffffffffffffffffffffffffffffffffffffffffffff81526020017fffffffffffffffffffffffffffffffffffffffffffffffffffffffffffffffff81526020017fffffffffffffffffffffffffffffffffffffffffffffffffffffffffffffffff815250908060018154018082558091505060019003906000526020600020906004020160009091909190915060008201518160000160006101000a81548173ffffffffffffffffffffffffffffffffffffffff021916908373ffffffffffffffffffffffffffffffffffffffff1602179055506020820151816001015560408201518160020155606082015181600301555050610ed68061014a6000396000f3fe608060405234801561001057600080fd5b50600436106100415760003560e01c80637829c46914610046578063a4ece52c14610062578063fe6dcdba1461006c575b600080fd5b610060600480360381019061005b9190610bd1565b61008a565b005b61006a61018b565b005b61007461039a565b6040516100819190610c71565b60405180910390f35b600081908060018154018082558091505060019003906000526020600020906004020160009091909190915060008201518160000160006101000a81548173ffffffffffffffffffffffffffffffffffffffff021916908373ffffffffffffffffffffffffffffffffffffffff1602179055506020820151816001015560408201518160020155606082015181600301555050600060016000805490506101319190610cbb565b90505b6000811115610187576000600260018361014e9190610cbb565b6101589190610d1e565b9050610164828261048f565b1561017b576101738183610741565b809150610181565b50610187565b50610134565b5050565b60008080549050116101d2576040517f08c379a00000000000000000000000000000000000000000000000000000000081526004016101c990610dac565b60405180910390fd5b600060016000805490506101e69190610cbb565b815481106101f7576101f6610dcc565b5b90600052602060002090600402016000808154811061021957610218610dcc565b5b90600052602060002090600402016000820160009054906101000a900473ffffffffffffffffffffffffffffffffffffffff168160000160006101000a81548173ffffffffffffffffffffffffffffffffffffffff021916908373ffffffffffffffffffffffffffffffffffffffff160217905550600182015481600101556002820154816002015560038201548160030155905050600060016000805490506102c39190610cbb565b815481106102d4576102d3610dcc565b5b9060005260206000209060040201600080820160006101000a81549073ffffffffffffffffffffffffffffffffffffffff02191690556001820160009055600282016000905560038201600090555050600080548061033657610335610dfb565b5b6001900381819060005260206000209060040201600080820160006101000a81549073ffffffffffffffffffffffffffffffffffffffff0219169055600182016000905560028201600090556003820160009055505090556103986000610941565b565b6103a26109e7565b60008080549050116103e9576040517f08c379a00000000000000000000000000000000000000000000000000000000081526004016103e090610dac565b60405180910390fd5b600080815481106103fd576103fc610dcc565b5b90600052602060002090600402016040518060800160405290816000820160009054906101000a900473ffffffffffffffffffffffffffffffffffffffff1673ffffffffffffffffffffffffffffffffffffffff1673ffffffffffffffffffffffffffffffffffffffff1681526020016001820154815260200160028201548152602001600382015481525050905090565b60008082815481106104a4576104a3610dcc565b5b906000526020600020906004020160020154600084815481106104ca576104c9610dcc565b5b906000526020600020906004020160020154036106eb57600082815481106104f5576104f4610dcc565b5b9060005260206000209060040201600301546000848154811061051b5761051a610dcc565b5b90600052602060002090600402016003015403610697576000828154811061054657610545610dcc565b5b9060005260206000209060040201600101546000848154811061056c5761056b610dcc565b5b90600052602060002090600402016001015403610643576000828154811061059757610596610dcc565b5b906000526020600020906004020160000160009054906101000a900473ffffffffffffffffffffffffffffffffffffffff1673ffffffffffffffffffffffffffffffffffffffff16600084815481106105f3576105f2610dcc565b5b906000526020600020906004020160000160009054906101000a900473ffffffffffffffffffffffffffffffffffffffff1673ffffffffffffffffffffffffffffffffffffffff1610905061073b565b6000828154811061065757610656610dcc565b5b9060005260206000209060040201600101546000848154811061067d5761067c610dcc565b5b90600052602060002090600402016001015410905061073b565b600082815481106106ab576106aa610dcc565b5b906000526020600020906004020160030154600084815481106106d1576106d0610dcc565b5b90600052602060002090600402016003015410905061073b565b600082815481106106ff576106fe610dcc565b5b9060005260206000209060040201600201546000848154811061072557610724610dcc565b5b9060005260206000209060040201600201541090505b92915050565b600080838154811061075657610755610dcc565b5b90600052602060002090600402016040518060800160405290816000820160009054906101000a900473ffffffffffffffffffffffffffffffffffffffff1673ffffffffffffffffffffffffffffffffffffffff1673ffffffffffffffffffffffffffffffffffffffff16815260200160018201548152602001600282015481526020016003820154815250509050600082815481106107f9576107f8610dcc565b5b90600052602060002090600402016000848154811061081b5761081a610dcc565b5b90600052602060002090600402016000820160009054906101000a900473ffffffffffffffffffffffffffffffffffffffff168160000160006101000a81548173ffffffffffffffffffffffffffffffffffffffff021916908373ffffffffffffffffffffffffffffffffffffffff16021790555060018201548160010155600282015481600201556003820154816003015590505080600083815481106108c6576108c5610dcc565b5b906000526020600020906004020160008201518160000160006101000a81548173ffffffffffffffffffffffffffffffffffffffff021916908373ffffffffffffffffffffffffffffffffffffffff160217905550602082015181600101556040820151816002015560608201518160030155905050505050565b600060018260026109529190610e2a565b61095c9190610e6c565b90506000600283600261096f9190610e2a565b6109799190610e6c565b905060008390506000805490508310801561099a5750610999838261048f565b5b156109a3578290505b600080549050821080156109bd57506109bc828261048f565b5b156109c6578190505b8381146109e1576109d78482610741565b6109e081610941565b5b50505050565b6040518060800160405280600073ffffffffffffffffffffffffffffffffffffffff1681526020016000815260200160008152602001600081525090565b6000604051905090565b600080fd5b600080fd5b6000601f19601f8301169050919050565b7f4e487b7100000000000000000000000000000000000000000000000000000000600052604160045260246000fd5b610a8282610a39565b810181811067ffffffffffffffff82111715610aa157610aa0610a4a565b5b80604052505050565b6000610ab4610a25565b9050610ac08282610a79565b919050565b600073ffffffffffffffffffffffffffffffffffffffff82169050919050565b6000610af082610ac5565b9050919050565b610b0081610ae5565b8114610b0b57600080fd5b50565b600081359050610b1d81610af7565b92915050565b6000819050919050565b610b3681610b23565b8114610b4157600080fd5b50565b600081359050610b5381610b2d565b92915050565b600060808284031215610b6f57610b6e610a34565b5b610b796080610aaa565b90506000610b8984828501610b0e565b6000830152506020610b9d84828501610b44565b6020830152506040610bb184828501610b44565b6040830152506060610bc584828501610b44565b60608301525092915050565b600060808284031215610be757610be6610a2f565b5b6000610bf584828501610b59565b91505092915050565b610c0781610ae5565b82525050565b610c1681610b23565b82525050565b608082016000820151610c326000850182610bfe565b506020820151610c456020850182610c0d565b506040820151610c586040850182610c0d565b506060820151610c6b6060850182610c0d565b50505050565b6000608082019050610c866000830184610c1c565b92915050565b7f4e487b7100000000000000000000000000000000000000000000000000000000600052601160045260246000fd5b6000610cc682610b23565b9150610cd183610b23565b9250828203905081811115610ce957610ce8610c8c565b5b92915050565b7f4e487b7100000000000000000000000000000000000000000000000000000000600052601260045260246000fd5b6000610d2982610b23565b9150610d3483610b23565b925082610d4457610d43610cef565b5b828204905092915050565b600082825260208201905092915050565b7f6865617020697320656d70747900000000000000000000000000000000000000600082015250565b6000610d96600d83610d4f565b9150610da182610d60565b602082019050919050565b60006020820190508181036000830152610dc581610d89565b9050919050565b7f4e487b7100000000000000000000000000000000000000000000000000000000600052603260045260246000fd5b7f4e487b7100000000000000000000000000000000000000000000000000000000600052603160045260246000fd5b6000610e3582610b23565b9150610e4083610b23565b9250828202610e4e81610b23565b91508282048414831517610e6557610e64610c8c565b5b5092915050565b6000610e7782610b23565b9150610e8283610b23565b9250828201905080821115610e9a57610e99610c8c565b5b9291505056fea26469706673582212201451d1d491ea10c9e11ccb6e81a2907d1a1f35287dafe7160544a6255360930964736f6c63430008130033",
					"opcodes": "PUSH1 0x80 PUSH1 0x40 MSTORE CALLVALUE DUP1 ISZERO PUSH2 0x10 JUMPI PUSH1 0x0 DUP1 REVERT JUMPDEST POP PUSH1 0x0 PUSH1 0x40 MLOAD DUP1 PUSH1 0x80 ADD PUSH1 0x40 MSTORE DUP1 PUSH1 0x0 PUSH20 0xFFFFFFFFFFFFFFFFFFFFFFFFFFFFFFFFFFFFFFFF AND DUP2 MSTORE PUSH1 0x20 ADD PUSH32 0xFFFFFFFFFFFFFFFFFFFFFFFFFFFFFFFFFFFFFFFFFFFFFFFFFFFFFFFFFFFFFFFF DUP2 MSTORE PUSH1 0x20 ADD PUSH32 0xFFFFFFFFFFFFFFFFFFFFFFFFFFFFFFFFFFFFFFFFFFFFFFFFFFFFFFFFFFFFFFFF DUP2 MSTORE PUSH1 0x20 ADD PUSH32 0xFFFFFFFFFFFFFFFFFFFFFFFFFFFFFFFFFFFFFFFFFFFFFFFFFFFFFFFFFFFFFFFF DUP2 MSTORE POP SWAP1 DUP1 PUSH1 0x1 DUP2 SLOAD ADD DUP1 DUP3 SSTORE DUP1 SWAP2 POP POP PUSH1 0x1 SWAP1 SUB SWAP1 PUSH1 0x0 MSTORE PUSH1 0x20 PUSH1 0x0 KECCAK256 SWAP1 PUSH1 0x4 MUL ADD PUSH1 0x0 SWAP1 SWAP2 SWAP1 SWAP2 SWAP1 SWAP2 POP PUSH1 0x0 DUP3 ADD MLOAD DUP2 PUSH1 0x0 ADD PUSH1 0x0 PUSH2 0x100 EXP DUP2 SLOAD DUP2 PUSH20 0xFFFFFFFFFFFFFFFFFFFFFFFFFFFFFFFFFFFFFFFF MUL NOT AND SWAP1 DUP4 PUSH20 0xFFFFFFFFFFFFFFFFFFFFFFFFFFFFFFFFFFFFFFFF AND MUL OR SWAP1 SSTORE POP PUSH1 0x20 DUP3 ADD MLOAD DUP2 PUSH1 0x1 ADD SSTORE PUSH1 0x40 DUP3 ADD MLOAD DUP2 PUSH1 0x2 ADD SSTORE PUSH1 0x60 DUP3 ADD MLOAD DUP2 PUSH1 0x3 ADD SSTORE POP POP PUSH2 0xED6 DUP1 PUSH2 0x14A PUSH1 0x0 CODECOPY PUSH1 0x0 RETURN INVALID PUSH1 0x80 PUSH1 0x40 MSTORE CALLVALUE DUP1 ISZERO PUSH2 0x10 JUMPI PUSH1 0x0 DUP1 REVERT JUMPDEST POP PUSH1 0x4 CALLDATASIZE LT PUSH2 0x41 JUMPI PUSH1 0x0 CALLDATALOAD PUSH1 0xE0 SHR DUP1 PUSH4 0x7829C469 EQ PUSH2 0x46 JUMPI DUP1 PUSH4 0xA4ECE52C EQ PUSH2 0x62 JUMPI DUP1 PUSH4 0xFE6DCDBA EQ PUSH2 0x6C JUMPI JUMPDEST PUSH1 0x0 DUP1 REVERT JUMPDEST PUSH2 0x60 PUSH1 0x4 DUP1 CALLDATASIZE SUB DUP2 ADD SWAP1 PUSH2 0x5B SWAP2 SWAP1 PUSH2 0xBD1 JUMP JUMPDEST PUSH2 0x8A JUMP JUMPDEST STOP JUMPDEST PUSH2 0x6A PUSH2 0x18B JUMP JUMPDEST STOP JUMPDEST PUSH2 0x74 PUSH2 0x39A JUMP JUMPDEST PUSH1 0x40 MLOAD PUSH2 0x81 SWAP2 SWAP1 PUSH2 0xC71 JUMP JUMPDEST PUSH1 0x40 MLOAD DUP1 SWAP2 SUB SWAP1 RETURN JUMPDEST PUSH1 0x0 DUP2 SWAP1 DUP1 PUSH1 0x1 DUP2 SLOAD ADD DUP1 DUP3 SSTORE DUP1 SWAP2 POP POP PUSH1 0x1 SWAP1 SUB SWAP1 PUSH1 0x0 MSTORE PUSH1 0x20 PUSH1 0x0 KECCAK256 SWAP1 PUSH1 0x4 MUL ADD PUSH1 0x0 SWAP1 SWAP2 SWAP1 SWAP2 SWAP1 SWAP2 POP PUSH1 0x0 DUP3 ADD MLOAD DUP2 PUSH1 0x0 ADD PUSH1 0x0 PUSH2 0x100 EXP DUP2 SLOAD DUP2 PUSH20 0xFFFFFFFFFFFFFFFFFFFFFFFFFFFFFFFFFFFFFFFF MUL NOT AND SWAP1 DUP4 PUSH20 0xFFFFFFFFFFFFFFFFFFFFFFFFFFFFFFFFFFFFFFFF AND MUL OR SWAP1 SSTORE POP PUSH1 0x20 DUP3 ADD MLOAD DUP2 PUSH1 0x1 ADD SSTORE PUSH1 0x40 DUP3 ADD MLOAD DUP2 PUSH1 0x2 ADD SSTORE PUSH1 0x60 DUP3 ADD MLOAD DUP2 PUSH1 0x3 ADD SSTORE POP POP PUSH1 0x0 PUSH1 0x1 PUSH1 0x0 DUP1 SLOAD SWAP1 POP PUSH2 0x131 SWAP2 SWAP1 PUSH2 0xCBB JUMP JUMPDEST SWAP1 POP JUMPDEST PUSH1 0x0 DUP2 GT ISZERO PUSH2 0x187 JUMPI PUSH1 0x0 PUSH1 0x2 PUSH1 0x1 DUP4 PUSH2 0x14E SWAP2 SWAP1 PUSH2 0xCBB JUMP JUMPDEST PUSH2 0x158 SWAP2 SWAP1 PUSH2 0xD1E JUMP JUMPDEST SWAP1 POP PUSH2 0x164 DUP3 DUP3 PUSH2 0x48F JUMP JUMPDEST ISZERO PUSH2 0x17B JUMPI PUSH2 0x173 DUP2 DUP4 PUSH2 0x741 JUMP JUMPDEST DUP1 SWAP2 POP PUSH2 0x181 JUMP JUMPDEST POP PUSH2 0x187 JUMP JUMPDEST POP PUSH2 0x134 JUMP JUMPDEST POP POP JUMP JUMPDEST PUSH1 0x0 DUP1 DUP1 SLOAD SWAP1 POP GT PUSH2 0x1D2 JUMPI PUSH1 0x40 MLOAD PUSH32 0x8C379A000000000000000000000000000000000000000000000000000000000 DUP2 MSTORE PUSH1 0x4 ADD PUSH2 0x1C9 SWAP1 PUSH2 0xDAC JUMP JUMPDEST PUSH1 0x40 MLOAD DUP1 SWAP2 SUB SWAP1 REVERT JUMPDEST PUSH1 0x0 PUSH1 0x1 PUSH1 0x0 DUP1 SLOAD SWAP1 POP PUSH2 0x1E6 SWAP2 SWAP1 PUSH2 0xCBB JUMP JUMPDEST DUP2 SLOAD DUP2 LT PUSH2 0x1F7 JUMPI PUSH2 0x1F6 PUSH2 0xDCC JUMP JUMPDEST JUMPDEST SWAP1 PUSH1 0x0 MSTORE PUSH1 0x20 PUSH1 0x0 KECCAK256 SWAP1 PUSH1 0x4 MUL ADD PUSH1 0x0 DUP1 DUP2 SLOAD DUP2 LT PUSH2 0x219 JUMPI PUSH2 0x218 PUSH2 0xDCC JUMP JUMPDEST JUMPDEST SWAP1 PUSH1 0x0 MSTORE PUSH1 0x20 PUSH1 0x0 KECCAK256 SWAP1 PUSH1 0x4 MUL ADD PUSH1 0x0 DUP3 ADD PUSH1 0x0 SWAP1 SLOAD SWAP1 PUSH2 0x100 EXP SWAP1 DIV PUSH20 0xFFFFFFFFFFFFFFFFFFFFFFFFFFFFFFFFFFFFFFFF AND DUP2 PUSH1 0x0 ADD PUSH1 0x0 PUSH2 0x100 EXP DUP2 SLOAD DUP2 PUSH20 0xFFFFFFFFFFFFFFFFFFFFFFFFFFFFFFFFFFFFFFFF MUL NOT AND SWAP1 DUP4 PUSH20 0xFFFFFFFFFFFFFFFFFFFFFFFFFFFFFFFFFFFFFFFF AND MUL OR SWAP1 SSTORE POP PUSH1 0x1 DUP3 ADD SLOAD DUP2 PUSH1 0x1 ADD SSTORE PUSH1 0x2 DUP3 ADD SLOAD DUP2 PUSH1 0x2 ADD SSTORE PUSH1 0x3 DUP3 ADD SLOAD DUP2 PUSH1 0x3 ADD SSTORE SWAP1 POP POP PUSH1 0x0 PUSH1 0x1 PUSH1 0x0 DUP1 SLOAD SWAP1 POP PUSH2 0x2C3 SWAP2 SWAP1 PUSH2 0xCBB JUMP JUMPDEST DUP2 SLOAD DUP2 LT PUSH2 0x2D4 JUMPI PUSH2 0x2D3 PUSH2 0xDCC JUMP JUMPDEST JUMPDEST SWAP1 PUSH1 0x0 MSTORE PUSH1 0x20 PUSH1 0x0 KECCAK256 SWAP1 PUSH1 0x4 MUL ADD PUSH1 0x0 DUP1 DUP3 ADD PUSH1 0x0 PUSH2 0x100 EXP DUP2 SLOAD SWAP1 PUSH20 0xFFFFFFFFFFFFFFFFFFFFFFFFFFFFFFFFFFFFFFFF MUL NOT AND SWAP1 SSTORE PUSH1 0x1 DUP3 ADD PUSH1 0x0 SWAP1 SSTORE PUSH1 0x2 DUP3 ADD PUSH1 0x0 SWAP1 SSTORE PUSH1 0x3 DUP3 ADD PUSH1 0x0 SWAP1 SSTORE POP POP PUSH1 0x0 DUP1 SLOAD DUP1 PUSH2 0x336 JUMPI PUSH2 0x335 PUSH2 0xDFB JUMP JUMPDEST JUMPDEST PUSH1 0x1 SWAP1 SUB DUP2 DUP2 SWAP1 PUSH1 0x0 MSTORE PUSH1 0x20 PUSH1 0x0 KECCAK256 SWAP1 PUSH1 0x4 MUL ADD PUSH1 0x0 DUP1 DUP3 ADD PUSH1 0x0 PUSH2 0x100 EXP DUP2 SLOAD SWAP1 PUSH20 0xFFFFFFFFFFFFFFFFFFFFFFFFFFFFFFFFFFFFFFFF MUL NOT AND SWAP1 SSTORE PUSH1 0x1 DUP3 ADD PUSH1 0x0 SWAP1 SSTORE PUSH1 0x2 DUP3 ADD PUSH1 0x0 SWAP1 SSTORE PUSH1 0x3 DUP3 ADD PUSH1 0x0 SWAP1 SSTORE POP POP SWAP1 SSTORE PUSH2 0x398 PUSH1 0x0 PUSH2 0x941 JUMP JUMPDEST JUMP JUMPDEST PUSH2 0x3A2 PUSH2 0x9E7 JUMP JUMPDEST PUSH1 0x0 DUP1 DUP1 SLOAD SWAP1 POP GT PUSH2 0x3E9 JUMPI PUSH1 0x40 MLOAD PUSH32 0x8C379A000000000000000000000000000000000000000000000000000000000 DUP2 MSTORE PUSH1 0x4 ADD PUSH2 0x3E0 SWAP1 PUSH2 0xDAC JUMP JUMPDEST PUSH1 0x40 MLOAD DUP1 SWAP2 SUB SWAP1 REVERT JUMPDEST PUSH1 0x0 DUP1 DUP2 SLOAD DUP2 LT PUSH2 0x3FD JUMPI PUSH2 0x3FC PUSH2 0xDCC JUMP JUMPDEST JUMPDEST SWAP1 PUSH1 0x0 MSTORE PUSH1 0x20 PUSH1 0x0 KECCAK256 SWAP1 PUSH1 0x4 MUL ADD PUSH1 0x40 MLOAD DUP1 PUSH1 0x80 ADD PUSH1 0x40 MSTORE SWAP1 DUP2 PUSH1 0x0 DUP3 ADD PUSH1 0x0 SWAP1 SLOAD SWAP1 PUSH2 0x100 EXP SWAP1 DIV PUSH20 0xFFFFFFFFFFFFFFFFFFFFFFFFFFFFFFFFFFFFFFFF AND PUSH20 0xFFFFFFFFFFFFFFFFFFFFFFFFFFFFFFFFFFFFFFFF AND PUSH20 0xFFFFFFFFFFFFFFFFFFFFFFFFFFFFFFFFFFFFFFFF AND DUP2 MSTORE PUSH1 0x20 ADD PUSH1 0x1 DUP3 ADD SLOAD DUP2 MSTORE PUSH1 0x20 ADD PUSH1 0x2 DUP3 ADD SLOAD DUP2 MSTORE PUSH1 0x20 ADD PUSH1 0x3 DUP3 ADD SLOAD DUP2 MSTORE POP POP SWAP1 POP SWAP1 JUMP JUMPDEST PUSH1 0x0 DUP1 DUP3 DUP2 SLOAD DUP2 LT PUSH2 0x4A4 JUMPI PUSH2 0x4A3 PUSH2 0xDCC JUMP JUMPDEST JUMPDEST SWAP1 PUSH1 0x0 MSTORE PUSH1 0x20 PUSH1 0x0 KECCAK256 SWAP1 PUSH1 0x4 MUL ADD PUSH1 0x2 ADD SLOAD PUSH1 0x0 DUP5 DUP2 SLOAD DUP2 LT PUSH2 0x4CA JUMPI PUSH2 0x4C9 PUSH2 0xDCC JUMP JUMPDEST JUMPDEST SWAP1 PUSH1 0x0 MSTORE PUSH1 0x20 PUSH1 0x0 KECCAK256 SWAP1 PUSH1 0x4 MUL ADD PUSH1 0x2 ADD SLOAD SUB PUSH2 0x6EB JUMPI PUSH1 0x0 DUP3 DUP2 SLOAD DUP2 LT PUSH2 0x4F5 JUMPI PUSH2 0x4F4 PUSH2 0xDCC JUMP JUMPDEST JUMPDEST SWAP1 PUSH1 0x0 MSTORE PUSH1 0x20 PUSH1 0x0 KECCAK256 SWAP1 PUSH1 0x4 MUL ADD PUSH1 0x3 ADD SLOAD PUSH1 0x0 DUP5 DUP2 SLOAD DUP2 LT PUSH2 0x51B JUMPI PUSH2 0x51A PUSH2 0xDCC JUMP JUMPDEST JUMPDEST SWAP1 PUSH1 0x0 MSTORE PUSH1 0x20 PUSH1 0x0 KECCAK256 SWAP1 PUSH1 0x4 MUL ADD PUSH1 0x3 ADD SLOAD SUB PUSH2 0x697 JUMPI PUSH1 0x0 DUP3 DUP2 SLOAD DUP2 LT PUSH2 0x546 JUMPI PUSH2 0x545 PUSH2 0xDCC JUMP JUMPDEST JUMPDEST SWAP1 PUSH1 0x0 MSTORE PUSH1 0x20 PUSH1 0x0 KECCAK256 SWAP1 PUSH1 0x4 MUL ADD PUSH1 0x1 ADD SLOAD PUSH1 0x0 DUP5 DUP2 SLOAD DUP2 LT PUSH2 0x56C JUMPI PUSH2 0x56B PUSH2 0xDCC JUMP JUMPDEST JUMPDEST SWAP1 PUSH1 0x0 MSTORE PUSH1 0x20 PUSH1 0x0 KECCAK256 SWAP1 PUSH1 0x4 MUL ADD PUSH1 0x1 ADD SLOAD SUB PUSH2 0x643 JUMPI PUSH1 0x0 DUP3 DUP2 SLOAD DUP2 LT PUSH2 0x597 JUMPI PUSH2 0x596 PUSH2 0xDCC JUMP JUMPDEST JUMPDEST SWAP1 PUSH1 0x0 MSTORE PUSH1 0x20 PUSH1 0x0 KECCAK256 SWAP1 PUSH1 0x4 MUL ADD PUSH1 0x0 ADD PUSH1 0x0 SWAP1 SLOAD SWAP1 PUSH2 0x100 EXP SWAP1 DIV PUSH20 0xFFFFFFFFFFFFFFFFFFFFFFFFFFFFFFFFFFFFFFFF AND PUSH20 0xFFFFFFFFFFFFFFFFFFFFFFFFFFFFFFFFFFFFFFFF AND PUSH1 0x0 DUP5 DUP2 SLOAD DUP2 LT PUSH2 0x5F3 JUMPI PUSH2 0x5F2 PUSH2 0xDCC JUMP JUMPDEST JUMPDEST SWAP1 PUSH1 0x0 MSTORE PUSH1 0x20 PUSH1 0x0 KECCAK256 SWAP1 PUSH1 0x4 MUL ADD PUSH1 0x0 ADD PUSH1 0x0 SWAP1 SLOAD SWAP1 PUSH2 0x100 EXP SWAP1 DIV PUSH20 0xFFFFFFFFFFFFFFFFFFFFFFFFFFFFFFFFFFFFFFFF AND PUSH20 0xFFFFFFFFFFFFFFFFFFFFFFFFFFFFFFFFFFFFFFFF AND LT SWAP1 POP PUSH2 0x73B JUMP JUMPDEST PUSH1 0x0 DUP3 DUP2 SLOAD DUP2 LT PUSH2 0x657 JUMPI PUSH2 0x656 PUSH2 0xDCC JUMP JUMPDEST JUMPDEST SWAP1 PUSH1 0x0 MSTORE PUSH1 0x20 PUSH1 0x0 KECCAK256 SWAP1 PUSH1 0x4 MUL ADD PUSH1 0x1 ADD SLOAD PUSH1 0x0 DUP5 DUP2 SLOAD DUP2 LT PUSH2 0x67D JUMPI PUSH2 0x67C PUSH2 0xDCC JUMP JUMPDEST JUMPDEST SWAP1 PUSH1 0x0 MSTORE PUSH1 0x20 PUSH1 0x0 KECCAK256 SWAP1 PUSH1 0x4 MUL ADD PUSH1 0x1 ADD SLOAD LT SWAP1 POP PUSH2 0x73B JUMP JUMPDEST PUSH1 0x0 DUP3 DUP2 SLOAD DUP2 LT PUSH2 0x6AB JUMPI PUSH2 0x6AA PUSH2 0xDCC JUMP JUMPDEST JUMPDEST SWAP1 PUSH1 0x0 MSTORE PUSH1 0x20 PUSH1 0x0 KECCAK256 SWAP1 PUSH1 0x4 MUL ADD PUSH1 0x3 ADD SLOAD PUSH1 0x0 DUP5 DUP2 SLOAD DUP2 LT PUSH2 0x6D1 JUMPI PUSH2 0x6D0 PUSH2 0xDCC JUMP JUMPDEST JUMPDEST SWAP1 PUSH1 0x0 MSTORE PUSH1 0x20 PUSH1 0x0 KECCAK256 SWAP1 PUSH1 0x4 MUL ADD PUSH1 0x3 ADD SLOAD LT SWAP1 POP PUSH2 0x73B JUMP JUMPDEST PUSH1 0x0 DUP3 DUP2 SLOAD DUP2 LT PUSH2 0x6FF JUMPI PUSH2 0x6FE PUSH2 0xDCC JUMP JUMPDEST JUMPDEST SWAP1 PUSH1 0x0 MSTORE PUSH1 0x20 PUSH1 0x0 KECCAK256 SWAP1 PUSH1 0x4 MUL ADD PUSH1 0x2 ADD SLOAD PUSH1 0x0 DUP5 DUP2 SLOAD DUP2 LT PUSH2 0x725 JUMPI PUSH2 0x724 PUSH2 0xDCC JUMP JUMPDEST JUMPDEST SWAP1 PUSH1 0x0 MSTORE PUSH1 0x20 PUSH1 0x0 KECCAK256 SWAP1 PUSH1 0x4 MUL ADD PUSH1 0x2 ADD SLOAD LT SWAP1 POP JUMPDEST SWAP3 SWAP2 POP POP JUMP JUMPDEST PUSH1 0x0 DUP1 DUP4 DUP2 SLOAD DUP2 LT PUSH2 0x756 JUMPI PUSH2 0x755 PUSH2 0xDCC JUMP JUMPDEST JUMPDEST SWAP1 PUSH1 0x0 MSTORE PUSH1 0x20 PUSH1 0x0 KECCAK256 SWAP1 PUSH1 0x4 MUL ADD PUSH1 0x40 MLOAD DUP1 PUSH1 0x80 ADD PUSH1 0x40 MSTORE SWAP1 DUP2 PUSH1 0x0 DUP3 ADD PUSH1 0x0 SWAP1 SLOAD SWAP1 PUSH2 0x100 EXP SWAP1 DIV PUSH20 0xFFFFFFFFFFFFFFFFFFFFFFFFFFFFFFFFFFFFFFFF AND PUSH20 0xFFFFFFFFFFFFFFFFFFFFFFFFFFFFFFFFFFFFFFFF AND PUSH20 0xFFFFFFFFFFFFFFFFFFFFFFFFFFFFFFFFFFFFFFFF AND DUP2 MSTORE PUSH1 0x20 ADD PUSH1 0x1 DUP3 ADD SLOAD DUP2 MSTORE PUSH1 0x20 ADD PUSH1 0x2 DUP3 ADD SLOAD DUP2 MSTORE PUSH1 0x20 ADD PUSH1 0x3 DUP3 ADD SLOAD DUP2 MSTORE POP POP SWAP1 POP PUSH1 0x0 DUP3 DUP2 SLOAD DUP2 LT PUSH2 0x7F9 JUMPI PUSH2 0x7F8 PUSH2 0xDCC JUMP JUMPDEST JUMPDEST SWAP1 PUSH1 0x0 MSTORE PUSH1 0x20 PUSH1 0x0 KECCAK256 SWAP1 PUSH1 0x4 MUL ADD PUSH1 0x0 DUP5 DUP2 SLOAD DUP2 LT PUSH2 0x81B JUMPI PUSH2 0x81A PUSH2 0xDCC JUMP JUMPDEST JUMPDEST SWAP1 PUSH1 0x0 MSTORE PUSH1 0x20 PUSH1 0x0 KECCAK256 SWAP1 PUSH1 0x4 MUL ADD PUSH1 0x0 DUP3 ADD PUSH1 0x0 SWAP1 SLOAD SWAP1 PUSH2 0x100 EXP SWAP1 DIV PUSH20 0xFFFFFFFFFFFFFFFFFFFFFFFFFFFFFFFFFFFFFFFF AND DUP2 PUSH1 0x0 ADD PUSH1 0x0 PUSH2 0x100 EXP DUP2 SLOAD DUP2 PUSH20 0xFFFFFFFFFFFFFFFFFFFFFFFFFFFFFFFFFFFFFFFF MUL NOT AND SWAP1 DUP4 PUSH20 0xFFFFFFFFFFFFFFFFFFFFFFFFFFFFFFFFFFFFFFFF AND MUL OR SWAP1 SSTORE POP PUSH1 0x1 DUP3 ADD SLOAD DUP2 PUSH1 0x1 ADD SSTORE PUSH1 0x2 DUP3 ADD SLOAD DUP2 PUSH1 0x2 ADD SSTORE PUSH1 0x3 DUP3 ADD SLOAD DUP2 PUSH1 0x3 ADD SSTORE SWAP1 POP POP DUP1 PUSH1 0x0 DUP4 DUP2 SLOAD DUP2 LT PUSH2 0x8C6 JUMPI PUSH2 0x8C5 PUSH2 0xDCC JUMP JUMPDEST JUMPDEST SWAP1 PUSH1 0x0 MSTORE PUSH1 0x20 PUSH1 0x0 KECCAK256 SWAP1 PUSH1 0x4 MUL ADD PUSH1 0x0 DUP3 ADD MLOAD DUP2 PUSH1 0x0 ADD PUSH1 0x0 PUSH2 0x100 EXP DUP2 SLOAD DUP2 PUSH20 0xFFFFFFFFFFFFFFFFFFFFFFFFFFFFFFFFFFFFFFFF MUL NOT AND SWAP1 DUP4 PUSH20 0xFFFFFFFFFFFFFFFFFFFFFFFFFFFFFFFFFFFFFFFF AND MUL OR SWAP1 SSTORE POP PUSH1 0x20 DUP3 ADD MLOAD DUP2 PUSH1 0x1 ADD SSTORE PUSH1 0x40 DUP3 ADD MLOAD DUP2 PUSH1 0x2 ADD SSTORE PUSH1 0x60 DUP3 ADD MLOAD DUP2 PUSH1 0x3 ADD SSTORE SWAP1 POP POP POP POP POP JUMP JUMPDEST PUSH1 0x0 PUSH1 0x1 DUP3 PUSH1 0x2 PUSH2 0x952 SWAP2 SWAP1 PUSH2 0xE2A JUMP JUMPDEST PUSH2 0x95C SWAP2 SWAP1 PUSH2 0xE6C JUMP JUMPDEST SWAP1 POP PUSH1 0x0 PUSH1 0x2 DUP4 PUSH1 0x2 PUSH2 0x96F SWAP2 SWAP1 PUSH2 0xE2A JUMP JUMPDEST PUSH2 0x979 SWAP2 SWAP1 PUSH2 0xE6C JUMP JUMPDEST SWAP1 POP PUSH1 0x0 DUP4 SWAP1 POP PUSH1 0x0 DUP1 SLOAD SWAP1 POP DUP4 LT DUP1 ISZERO PUSH2 0x99A JUMPI POP PUSH2 0x999 DUP4 DUP3 PUSH2 0x48F JUMP JUMPDEST JUMPDEST ISZERO PUSH2 0x9A3 JUMPI DUP3 SWAP1 POP JUMPDEST PUSH1 0x0 DUP1 SLOAD SWAP1 POP DUP3 LT DUP1 ISZERO PUSH2 0x9BD JUMPI POP PUSH2 0x9BC DUP3 DUP3 PUSH2 0x48F JUMP JUMPDEST JUMPDEST ISZERO PUSH2 0x9C6 JUMPI DUP2 SWAP1 POP JUMPDEST DUP4 DUP2 EQ PUSH2 0x9E1 JUMPI PUSH2 0x9D7 DUP5 DUP3 PUSH2 0x741 JUMP JUMPDEST PUSH2 0x9E0 DUP2 PUSH2 0x941 JUMP JUMPDEST JUMPDEST POP POP POP POP JUMP JUMPDEST PUSH1 0x40 MLOAD DUP1 PUSH1 0x80 ADD PUSH1 0x40 MSTORE DUP1 PUSH1 0x0 PUSH20 0xFFFFFFFFFFFFFFFFFFFFFFFFFFFFFFFFFFFFFFFF AND DUP2 MSTORE PUSH1 0x20 ADD PUSH1 0x0 DUP2 MSTORE PUSH1 0x20 ADD PUSH1 0x0 DUP2 MSTORE PUSH1 0x20 ADD PUSH1 0x0 DUP2 MSTORE POP SWAP1 JUMP JUMPDEST PUSH1 0x0 PUSH1 0x40 MLOAD SWAP1 POP SWAP1 JUMP JUMPDEST PUSH1 0x0 DUP1 REVERT JUMPDEST PUSH1 0x0 DUP1 REVERT JUMPDEST PUSH1 0x0 PUSH1 0x1F NOT PUSH1 0x1F DUP4 ADD AND SWAP1 POP SWAP2 SWAP1 POP JUMP JUMPDEST PUSH32 0x4E487B7100000000000000000000000000000000000000000000000000000000 PUSH1 0x0 MSTORE PUSH1 0x41 PUSH1 0x4 MSTORE PUSH1 0x24 PUSH1 0x0 REVERT JUMPDEST PUSH2 0xA82 DUP3 PUSH2 0xA39 JUMP JUMPDEST DUP2 ADD DUP2 DUP2 LT PUSH8 0xFFFFFFFFFFFFFFFF DUP3 GT OR ISZERO PUSH2 0xAA1 JUMPI PUSH2 0xAA0 PUSH2 0xA4A JUMP JUMPDEST JUMPDEST DUP1 PUSH1 0x40 MSTORE POP POP POP JUMP JUMPDEST PUSH1 0x0 PUSH2 0xAB4 PUSH2 0xA25 JUMP JUMPDEST SWAP1 POP PUSH2 0xAC0 DUP3 DUP3 PUSH2 0xA79 JUMP JUMPDEST SWAP2 SWAP1 POP JUMP JUMPDEST PUSH1 0x0 PUSH20 0xFFFFFFFFFFFFFFFFFFFFFFFFFFFFFFFFFFFFFFFF DUP3 AND SWAP1 POP SWAP2 SWAP1 POP JUMP JUMPDEST PUSH1 0x0 PUSH2 0xAF0 DUP3 PUSH2 0xAC5 JUMP JUMPDEST SWAP1 POP SWAP2 SWAP1 POP JUMP JUMPDEST PUSH2 0xB00 DUP2 PUSH2 0xAE5 JUMP JUMPDEST DUP2 EQ PUSH2 0xB0B JUMPI PUSH1 0x0 DUP1 REVERT JUMPDEST POP JUMP JUMPDEST PUSH1 0x0 DUP2 CALLDATALOAD SWAP1 POP PUSH2 0xB1D DUP2 PUSH2 0xAF7 JUMP JUMPDEST SWAP3 SWAP2 POP POP JUMP JUMPDEST PUSH1 0x0 DUP2 SWAP1 POP SWAP2 SWAP1 POP JUMP JUMPDEST PUSH2 0xB36 DUP2 PUSH2 0xB23 JUMP JUMPDEST DUP2 EQ PUSH2 0xB41 JUMPI PUSH1 0x0 DUP1 REVERT JUMPDEST POP JUMP JUMPDEST PUSH1 0x0 DUP2 CALLDATALOAD SWAP1 POP PUSH2 0xB53 DUP2 PUSH2 0xB2D JUMP JUMPDEST SWAP3 SWAP2 POP POP JUMP JUMPDEST PUSH1 0x0 PUSH1 0x80 DUP3 DUP5 SUB SLT ISZERO PUSH2 0xB6F JUMPI PUSH2 0xB6E PUSH2 0xA34 JUMP JUMPDEST JUMPDEST PUSH2 0xB79 PUSH1 0x80 PUSH2 0xAAA JUMP JUMPDEST SWAP1 POP PUSH1 0x0 PUSH2 0xB89 DUP5 DUP3 DUP6 ADD PUSH2 0xB0E JUMP JUMPDEST PUSH1 0x0 DUP4 ADD MSTORE POP PUSH1 0x20 PUSH2 0xB9D DUP5 DUP3 DUP6 ADD PUSH2 0xB44 JUMP JUMPDEST PUSH1 0x20 DUP4 ADD MSTORE POP PUSH1 0x40 PUSH2 0xBB1 DUP5 DUP3 DUP6 ADD PUSH2 0xB44 JUMP JUMPDEST PUSH1 0x40 DUP4 ADD MSTORE POP PUSH1 0x60 PUSH2 0xBC5 DUP5 DUP3 DUP6 ADD PUSH2 0xB44 JUMP JUMPDEST PUSH1 0x60 DUP4 ADD MSTORE POP SWAP3 SWAP2 POP POP JUMP JUMPDEST PUSH1 0x0 PUSH1 0x80 DUP3 DUP5 SUB SLT ISZERO PUSH2 0xBE7 JUMPI PUSH2 0xBE6 PUSH2 0xA2F JUMP JUMPDEST JUMPDEST PUSH1 0x0 PUSH2 0xBF5 DUP5 DUP3 DUP6 ADD PUSH2 0xB59 JUMP JUMPDEST SWAP2 POP POP SWAP3 SWAP2 POP POP JUMP JUMPDEST PUSH2 0xC07 DUP2 PUSH2 0xAE5 JUMP JUMPDEST DUP3 MSTORE POP POP JUMP JUMPDEST PUSH2 0xC16 DUP2 PUSH2 0xB23 JUMP JUMPDEST DUP3 MSTORE POP POP JUMP JUMPDEST PUSH1 0x80 DUP3 ADD PUSH1 0x0 DUP3 ADD MLOAD PUSH2 0xC32 PUSH1 0x0 DUP6 ADD DUP3 PUSH2 0xBFE JUMP JUMPDEST POP PUSH1 0x20 DUP3 ADD MLOAD PUSH2 0xC45 PUSH1 0x20 DUP6 ADD DUP3 PUSH2 0xC0D JUMP JUMPDEST POP PUSH1 0x40 DUP3 ADD MLOAD PUSH2 0xC58 PUSH1 0x40 DUP6 ADD DUP3 PUSH2 0xC0D JUMP JUMPDEST POP PUSH1 0x60 DUP3 ADD MLOAD PUSH2 0xC6B PUSH1 0x60 DUP6 ADD DUP3 PUSH2 0xC0D JUMP JUMPDEST POP POP POP POP JUMP JUMPDEST PUSH1 0x0 PUSH1 0x80 DUP3 ADD SWAP1 POP PUSH2 0xC86 PUSH1 0x0 DUP4 ADD DUP5 PUSH2 0xC1C JUMP JUMPDEST SWAP3 SWAP2 POP POP JUMP JUMPDEST PUSH32 0x4E487B7100000000000000000000000000000000000000000000000000000000 PUSH1 0x0 MSTORE PUSH1 0x11 PUSH1 0x4 MSTORE PUSH1 0x24 PUSH1 0x0 REVERT JUMPDEST PUSH1 0x0 PUSH2 0xCC6 DUP3 PUSH2 0xB23 JUMP JUMPDEST SWAP2 POP PUSH2 0xCD1 DUP4 PUSH2 0xB23 JUMP JUMPDEST SWAP3 POP DUP3 DUP3 SUB SWAP1 POP DUP2 DUP2 GT ISZERO PUSH2 0xCE9 JUMPI PUSH2 0xCE8 PUSH2 0xC8C JUMP JUMPDEST JUMPDEST SWAP3 SWAP2 POP POP JUMP JUMPDEST PUSH32 0x4E487B7100000000000000000000000000000000000000000000000000000000 PUSH1 0x0 MSTORE PUSH1 0x12 PUSH1 0x4 MSTORE PUSH1 0x24 PUSH1 0x0 REVERT JUMPDEST PUSH1 0x0 PUSH2 0xD29 DUP3 PUSH2 0xB23 JUMP JUMPDEST SWAP2 POP PUSH2 0xD34 DUP4 PUSH2 0xB23 JUMP JUMPDEST SWAP3 POP DUP3 PUSH2 0xD44 JUMPI PUSH2 0xD43 PUSH2 0xCEF JUMP JUMPDEST JUMPDEST DUP3 DUP3 DIV SWAP1 POP SWAP3 SWAP2 POP POP JUMP JUMPDEST PUSH1 0x0 DUP3 DUP3 MSTORE PUSH1 0x20 DUP3 ADD SWAP1 POP SWAP3 SWAP2 POP POP JUMP JUMPDEST PUSH32 0x6865617020697320656D70747900000000000000000000000000000000000000 PUSH1 0x0 DUP3 ADD MSTORE POP JUMP JUMPDEST PUSH1 0x0 PUSH2 0xD96 PUSH1 0xD DUP4 PUSH2 0xD4F JUMP JUMPDEST SWAP2 POP PUSH2 0xDA1 DUP3 PUSH2 0xD60 JUMP JUMPDEST PUSH1 0x20 DUP3 ADD SWAP1 POP SWAP2 SWAP1 POP JUMP JUMPDEST PUSH1 0x0 PUSH1 0x20 DUP3 ADD SWAP1 POP DUP2 DUP2 SUB PUSH1 0x0 DUP4 ADD MSTORE PUSH2 0xDC5 DUP2 PUSH2 0xD89 JUMP JUMPDEST SWAP1 POP SWAP2 SWAP1 POP JUMP JUMPDEST PUSH32 0x4E487B7100000000000000000000000000000000000000000000000000000000 PUSH1 0x0 MSTORE PUSH1 0x32 PUSH1 0x4 MSTORE PUSH1 0x24 PUSH1 0x0 REVERT JUMPDEST PUSH32 0x4E487B7100000000000000000000000000000000000000000000000000000000 PUSH1 0x0 MSTORE PUSH1 0x31 PUSH1 0x4 MSTORE PUSH1 0x24 PUSH1 0x0 REVERT JUMPDEST PUSH1 0x0 PUSH2 0xE35 DUP3 PUSH2 0xB23 JUMP JUMPDEST SWAP2 POP PUSH2 0xE40 DUP4 PUSH2 0xB23 JUMP JUMPDEST SWAP3 POP DUP3 DUP3 MUL PUSH2 0xE4E DUP2 PUSH2 0xB23 JUMP JUMPDEST SWAP2 POP DUP3 DUP3 DIV DUP5 EQ DUP4 ISZERO OR PUSH2 0xE65 JUMPI PUSH2 0xE64 PUSH2 0xC8C JUMP JUMPDEST JUMPDEST POP SWAP3 SWAP2 POP POP JUMP JUMPDEST PUSH1 0x0 PUSH2 0xE77 DUP3 PUSH2 0xB23 JUMP JUMPDEST SWAP2 POP PUSH2 0xE82 DUP4 PUSH2 0xB23 JUMP JUMPDEST SWAP3 POP DUP3 DUP3 ADD SWAP1 POP DUP1 DUP3 GT ISZERO PUSH2 0xE9A JUMPI PUSH2 0xE99 PUSH2 0xC8C JUMP JUMPDEST JUMPDEST SWAP3 SWAP2 POP POP JUMP INVALID LOG2 PUSH5 0x6970667358 0x22 SLT KECCAK256 EQ MLOAD 0xD1 0xD4 SWAP2 0xEA LT 0xC9 0xE1 SHR 0xCB PUSH15 0x81A2907D1A1F35287DAFE7160544A6 0x25 MSTORE8 PUSH1 0x93 MULMOD PUSH5 0x736F6C6343 STOP ADDMOD SGT STOP CALLER "
				},
				"gasEstimates": {
					"creation": {
						"codeDepositCost": "759600",
						"executionCost": "115858",
						"totalCost": "875458"
					},
					"external": {
						"pop()": "infinite",
						"push((address,uint256,uint256,uint256))": "infinite",
						"top()": "infinite"
					},
					"internal": {
						"_conpare(uint256,uint256)": "34577",
						"_heapify(uint256)": "infinite",
						"_swap(uint256,uint256)": "infinite"
					}
				},
				"methodIdentifiers": {
					"pop()": "a4ece52c",
					"push((address,uint256,uint256,uint256))": "7829c469",
					"top()": "fe6dcdba"
				}
			},
			"storageLayout": {
				"storage": [
					{
						"astId": 92,
						"contract": "W1/heap.sol:MinHeap",
						"label": "heap",
						"offset": 0,
						"slot": "0",
						"type": "t_array(t_struct(Order)88_storage)dyn_storage"
					}
				],
				"types": {
					"t_address": {
						"encoding": "inplace",
						"label": "address",
						"numberOfBytes": "20"
					},
					"t_array(t_struct(Order)88_storage)dyn_storage": {
						"base": "t_struct(Order)88_storage",
						"encoding": "dynamic_array",
						"label": "struct MinHeap.Order[]",
						"numberOfBytes": "32"
					},
					"t_struct(Order)88_storage": {
						"encoding": "inplace",
						"label": "struct MinHeap.Order",
						"members": [
							{
								"astId": 81,
								"contract": "W1/heap.sol:MinHeap",
								"label": "trader",
								"offset": 0,
								"slot": "0",
								"type": "t_address"
							},
							{
								"astId": 83,
								"contract": "W1/heap.sol:MinHeap",
								"label": "amount",
								"offset": 0,
								"slot": "1",
								"type": "t_uint256"
							},
							{
								"astId": 85,
								"contract": "W1/heap.sol:MinHeap",
								"label": "price",
								"offset": 0,
								"slot": "2",
								"type": "t_uint256"
							},
							{
								"astId": 87,
								"contract": "W1/heap.sol:MinHeap",
								"label": "timestamp",
								"offset": 0,
								"slot": "3",
								"type": "t_uint256"
							}
						],
						"numberOfBytes": "128"
					},
					"t_uint256": {
						"encoding": "inplace",
						"label": "uint256",
						"numberOfBytes": "32"
					}
				}
			},
			"userdoc": {
				"kind": "user",
				"methods": {},
				"version": 1
			}
		}
	}
}