{
	"W1/heap.sol": {
		"MaxHeap": {
			"abi": [
				{
					"inputs": [],
					"stateMutability": "nonpayable",
					"type": "constructor"
				},
				{
					"inputs": [],
					"name": "pop",
					"outputs": [],
					"stateMutability": "nonpayable",
					"type": "function"
				},
				{
					"inputs": [
						{
							"components": [
								{
									"internalType": "address",
									"name": "trader",
									"type": "address"
								},
								{
									"internalType": "uint256",
									"name": "amount",
									"type": "uint256"
								},
								{
									"internalType": "uint256",
									"name": "price",
									"type": "uint256"
								},
								{
									"internalType": "uint256",
									"name": "timestamp",
									"type": "uint256"
								}
							],
							"internalType": "struct MaxHeap.Order",
							"name": "o",
							"type": "tuple"
						}
					],
					"name": "push",
					"outputs": [],
					"stateMutability": "nonpayable",
					"type": "function"
				},
				{
					"inputs": [],
					"name": "top",
					"outputs": [
						{
							"components": [
								{
									"internalType": "address",
									"name": "trader",
									"type": "address"
								},
								{
									"internalType": "uint256",
									"name": "amount",
									"type": "uint256"
								},
								{
									"internalType": "uint256",
									"name": "price",
									"type": "uint256"
								},
								{
									"internalType": "uint256",
									"name": "timestamp",
									"type": "uint256"
								}
							],
							"internalType": "struct MaxHeap.Order",
							"name": "",
							"type": "tuple"
						}
					],
					"stateMutability": "view",
					"type": "function"
				}
			],
			"devdoc": {
				"kind": "dev",
				"methods": {},
				"version": 1
			},
			"evm": {
				"assembly": "    /* \"W1/heap.sol\":2810:5472  contract MaxHeap{... */\n  mstore(0x40, 0x80)\n    /* \"W1/heap.sol\":2989:3189  constructor() {... */\n  callvalue\n  dup1\n  iszero\n  tag_1\n  jumpi\n  0x00\n  dup1\n  revert\ntag_1:\n  pop\n    /* \"W1/heap.sol\":3014:3018  heap */\n  0x00\n    /* \"W1/heap.sol\":3024:3180  Order(address(0), 0xffffffffffffffffffffffffffffffffffffffffffffffffffffffffffffffff, 1, 0xffffffffffffffffffffffffffffffffffffffffffffffffffffffffffffffff) */\n  mload(0x40)\n  dup1\n  0x80\n  add\n  0x40\n  mstore\n  dup1\n    /* \"W1/heap.sol\":3038:3039  0 */\n  0x00\n    /* \"W1/heap.sol\":3024:3180  Order(address(0), 0xffffffffffffffffffffffffffffffffffffffffffffffffffffffffffffffff, 1, 0xffffffffffffffffffffffffffffffffffffffffffffffffffffffffffffffff) */\n  0xffffffffffffffffffffffffffffffffffffffff\n  and\n  dup2\n  mstore\n  0x20\n  add\n    /* \"W1/heap.sol\":3042:3108  0xffffffffffffffffffffffffffffffffffffffffffffffffffffffffffffffff */\n  0xffffffffffffffffffffffffffffffffffffffffffffffffffffffffffffffff\n    /* \"W1/heap.sol\":3024:3180  Order(address(0), 0xffffffffffffffffffffffffffffffffffffffffffffffffffffffffffffffff, 1, 0xffffffffffffffffffffffffffffffffffffffffffffffffffffffffffffffff) */\n  dup2\n  mstore\n  0x20\n  add\n    /* \"W1/heap.sol\":3110:3111  1 */\n  0x01\n    /* \"W1/heap.sol\":3024:3180  Order(address(0), 0xffffffffffffffffffffffffffffffffffffffffffffffffffffffffffffffff, 1, 0xffffffffffffffffffffffffffffffffffffffffffffffffffffffffffffffff) */\n  dup2\n  mstore\n  0x20\n  add\n    /* \"W1/heap.sol\":3113:3179  0xffffffffffffffffffffffffffffffffffffffffffffffffffffffffffffffff */\n  0xffffffffffffffffffffffffffffffffffffffffffffffffffffffffffffffff\n    /* \"W1/heap.sol\":3024:3180  Order(address(0), 0xffffffffffffffffffffffffffffffffffffffffffffffffffffffffffffffff, 1, 0xffffffffffffffffffffffffffffffffffffffffffffffffffffffffffffffff) */\n  dup2\n  mstore\n  pop\n    /* \"W1/heap.sol\":3014:3181  heap.push(Order(address(0), 0xffffffffffffffffffffffffffffffffffffffffffffffffffffffffffffffff, 1, 0xffffffffffffffffffffffffffffffffffffffffffffffffffffffffffffffff)) */\n  swap1\n  dup1\n  0x01\n  dup2\n  sload\n  add\n  dup1\n  dup3\n  sstore\n  dup1\n  swap2\n  pop\n  pop\n  0x01\n  swap1\n  sub\n  swap1\n  0x00\n  mstore\n  keccak256(0x00, 0x20)\n  swap1\n  0x04\n  mul\n  add\n  0x00\n  swap1\n  swap2\n  swap1\n  swap2\n  swap1\n  swap2\n  pop\n  0x00\n  dup3\n  add\n  mload\n  dup2\n  0x00\n  add\n  exp(0x0100, 0x00)\n  dup2\n  sload\n  dup2\n  0xffffffffffffffffffffffffffffffffffffffff\n  mul\n  not\n  and\n  swap1\n  dup4\n  0xffffffffffffffffffffffffffffffffffffffff\n  and\n  mul\n  or\n  swap1\n  sstore\n  pop\n  0x20\n  dup3\n  add\n  mload\n  dup2\n  0x01\n  add\n  sstore\n  0x40\n  dup3\n  add\n  mload\n  dup2\n  0x02\n  add\n  sstore\n  0x60\n  dup3\n  add\n  mload\n  dup2\n  0x03\n  add\n  sstore\n  pop\n  pop\n    /* \"W1/heap.sol\":2810:5472  contract MaxHeap{... */\n  dataSize(sub_0)\n  dup1\n  dataOffset(sub_0)\n  0x00\n  codecopy\n  0x00\n  return\nstop\n\nsub_0: assembly {\n        /* \"W1/heap.sol\":2810:5472  contract MaxHeap{... */\n      mstore(0x40, 0x80)\n      callvalue\n      dup1\n      iszero\n      tag_1\n      jumpi\n      0x00\n      dup1\n      revert\n    tag_1:\n      pop\n      jumpi(tag_2, lt(calldatasize, 0x04))\n      shr(0xe0, calldataload(0x00))\n      dup1\n      0x7829c469\n      eq\n      tag_3\n      jumpi\n      dup1\n      0xa4ece52c\n      eq\n      tag_4\n      jumpi\n      dup1\n      0xfe6dcdba\n      eq\n      tag_5\n      jumpi\n    tag_2:\n      0x00\n      dup1\n      revert\n        /* \"W1/heap.sol\":3195:3525  function push (Order memory o) public {... */\n    tag_3:\n      tag_6\n      0x04\n      dup1\n      calldatasize\n      sub\n      dup2\n      add\n      swap1\n      tag_7\n      swap2\n      swap1\n      tag_8\n      jump\t// in\n    tag_7:\n      tag_9\n      jump\t// in\n    tag_6:\n      stop\n        /* \"W1/heap.sol\":3531:3737  function pop() public {... */\n    tag_4:\n      tag_10\n      tag_11\n      jump\t// in\n    tag_10:\n      stop\n        /* \"W1/heap.sol\":3743:3878  function top() public view returns (Order memory) {... */\n    tag_5:\n      tag_12\n      tag_13\n      jump\t// in\n    tag_12:\n      mload(0x40)\n      tag_14\n      swap2\n      swap1\n      tag_15\n      jump\t// in\n    tag_14:\n      mload(0x40)\n      dup1\n      swap2\n      sub\n      swap1\n      return\n        /* \"W1/heap.sol\":3195:3525  function push (Order memory o) public {... */\n    tag_9:\n        /* \"W1/heap.sol\":3244:3248  heap */\n      0x00\n        /* \"W1/heap.sol\":3254:3255  o */\n      dup2\n        /* \"W1/heap.sol\":3244:3256  heap.push(o) */\n      swap1\n      dup1\n      0x01\n      dup2\n      sload\n      add\n      dup1\n      dup3\n      sstore\n      dup1\n      swap2\n      pop\n      pop\n      0x01\n      swap1\n      sub\n      swap1\n      0x00\n      mstore\n      keccak256(0x00, 0x20)\n      swap1\n      0x04\n      mul\n      add\n      0x00\n      swap1\n      swap2\n      swap1\n      swap2\n      swap1\n      swap2\n      pop\n      0x00\n      dup3\n      add\n      mload\n      dup2\n      0x00\n      add\n      exp(0x0100, 0x00)\n      dup2\n      sload\n      dup2\n      0xffffffffffffffffffffffffffffffffffffffff\n      mul\n      not\n      and\n      swap1\n      dup4\n      0xffffffffffffffffffffffffffffffffffffffff\n      and\n      mul\n      or\n      swap1\n      sstore\n      pop\n      0x20\n      dup3\n      add\n      mload\n      dup2\n      0x01\n      add\n      sstore\n      0x40\n      dup3\n      add\n      mload\n      dup2\n      0x02\n      add\n      sstore\n      0x60\n      dup3\n      add\n      mload\n      dup2\n      0x03\n      add\n      sstore\n      pop\n      pop\n        /* \"W1/heap.sol\":3267:3276  uint256 i */\n      0x00\n        /* \"W1/heap.sol\":3293:3294  1 */\n      0x01\n        /* \"W1/heap.sol\":3279:3283  heap */\n      0x00\n        /* \"W1/heap.sol\":3279:3290  heap.length */\n      dup1\n      sload\n      swap1\n      pop\n        /* \"W1/heap.sol\":3279:3294  heap.length - 1 */\n      tag_18\n      swap2\n      swap1\n      tag_19\n      jump\t// in\n    tag_18:\n        /* \"W1/heap.sol\":3267:3294  uint256 i = heap.length - 1 */\n      swap1\n      pop\n        /* \"W1/heap.sol\":3305:3518  while (i > 0) {... */\n    tag_20:\n        /* \"W1/heap.sol\":3316:3317  0 */\n      0x00\n        /* \"W1/heap.sol\":3312:3313  i */\n      dup2\n        /* \"W1/heap.sol\":3312:3317  i > 0 */\n      gt\n        /* \"W1/heap.sol\":3305:3518  while (i > 0) {... */\n      iszero\n      tag_21\n      jumpi\n        /* \"W1/heap.sol\":3334:3343  uint256 p */\n      0x00\n        /* \"W1/heap.sol\":3356:3357  2 */\n      0x02\n        /* \"W1/heap.sol\":3351:3352  1 */\n      0x01\n        /* \"W1/heap.sol\":3347:3348  i */\n      dup4\n        /* \"W1/heap.sol\":3347:3352  i - 1 */\n      tag_22\n      swap2\n      swap1\n      tag_19\n      jump\t// in\n    tag_22:\n        /* \"W1/heap.sol\":3346:3357  (i - 1) / 2 */\n      tag_23\n      swap2\n      swap1\n      tag_24\n      jump\t// in\n    tag_23:\n        /* \"W1/heap.sol\":3334:3357  uint256 p = (i - 1) / 2 */\n      swap1\n      pop\n        /* \"W1/heap.sol\":3376:3389  _conpare(i,p) */\n      tag_25\n        /* \"W1/heap.sol\":3385:3386  i */\n      dup3\n        /* \"W1/heap.sol\":3387:3388  p */\n      dup3\n        /* \"W1/heap.sol\":3376:3384  _conpare */\n      tag_26\n        /* \"W1/heap.sol\":3376:3389  _conpare(i,p) */\n      jump\t// in\n    tag_25:\n        /* \"W1/heap.sol\":3372:3507  if (_conpare(i,p)) {... */\n      iszero\n      tag_27\n      jumpi\n        /* \"W1/heap.sol\":3410:3421  _swap(p, i) */\n      tag_28\n        /* \"W1/heap.sol\":3416:3417  p */\n      dup2\n        /* \"W1/heap.sol\":3419:3420  i */\n      dup4\n        /* \"W1/heap.sol\":3410:3415  _swap */\n      tag_29\n        /* \"W1/heap.sol\":3410:3421  _swap(p, i) */\n      jump\t// in\n    tag_28:\n        /* \"W1/heap.sol\":3444:3445  p */\n      dup1\n        /* \"W1/heap.sol\":3440:3445  i = p */\n      swap2\n      pop\n        /* \"W1/heap.sol\":3372:3507  if (_conpare(i,p)) {... */\n      jump(tag_30)\n    tag_27:\n        /* \"W1/heap.sol\":3486:3491  break */\n      pop\n      jump(tag_21)\n        /* \"W1/heap.sol\":3372:3507  if (_conpare(i,p)) {... */\n    tag_30:\n        /* \"W1/heap.sol\":3319:3518  {... */\n      pop\n        /* \"W1/heap.sol\":3305:3518  while (i > 0) {... */\n      jump(tag_20)\n    tag_21:\n        /* \"W1/heap.sol\":3233:3525  {... */\n      pop\n        /* \"W1/heap.sol\":3195:3525  function push (Order memory o) public {... */\n      pop\n      jump\t// out\n        /* \"W1/heap.sol\":3531:3737  function pop() public {... */\n    tag_11:\n        /* \"W1/heap.sol\":3586:3587  0 */\n      0x00\n        /* \"W1/heap.sol\":3572:3576  heap */\n      dup1\n        /* \"W1/heap.sol\":3572:3583  heap.length */\n      dup1\n      sload\n      swap1\n      pop\n        /* \"W1/heap.sol\":3572:3587  heap.length > 0 */\n      gt\n        /* \"W1/heap.sol\":3564:3605  require(heap.length > 0, \"heap is empty\") */\n      tag_32\n      jumpi\n      mload(0x40)\n      0x08c379a000000000000000000000000000000000000000000000000000000000\n      dup2\n      mstore\n      0x04\n      add\n      tag_33\n      swap1\n      tag_34\n      jump\t// in\n    tag_33:\n      mload(0x40)\n      dup1\n      swap2\n      sub\n      swap1\n      revert\n    tag_32:\n        /* \"W1/heap.sol\":3626:3630  heap */\n      0x00\n        /* \"W1/heap.sol\":3645:3646  1 */\n      0x01\n        /* \"W1/heap.sol\":3631:3635  heap */\n      0x00\n        /* \"W1/heap.sol\":3631:3642  heap.length */\n      dup1\n      sload\n      swap1\n      pop\n        /* \"W1/heap.sol\":3631:3646  heap.length - 1 */\n      tag_35\n      swap2\n      swap1\n      tag_19\n      jump\t// in\n    tag_35:\n        /* \"W1/heap.sol\":3626:3647  heap[heap.length - 1] */\n      dup2\n      sload\n      dup2\n      lt\n      tag_36\n      jumpi\n      tag_37\n      tag_38\n      jump\t// in\n    tag_37:\n    tag_36:\n      swap1\n      0x00\n      mstore\n      keccak256(0x00, 0x20)\n      swap1\n      0x04\n      mul\n      add\n        /* \"W1/heap.sol\":3616:3620  heap */\n      0x00\n        /* \"W1/heap.sol\":3621:3622  0 */\n      dup1\n        /* \"W1/heap.sol\":3616:3623  heap[0] */\n      dup2\n      sload\n      dup2\n      lt\n      tag_40\n      jumpi\n      tag_41\n      tag_38\n      jump\t// in\n    tag_41:\n    tag_40:\n      swap1\n      0x00\n      mstore\n      keccak256(0x00, 0x20)\n      swap1\n      0x04\n      mul\n      add\n        /* \"W1/heap.sol\":3616:3647  heap[0] = heap[heap.length - 1] */\n      0x00\n      dup3\n      add\n      0x00\n      swap1\n      sload\n      swap1\n      0x0100\n      exp\n      swap1\n      div\n      0xffffffffffffffffffffffffffffffffffffffff\n      and\n      dup2\n      0x00\n      add\n      exp(0x0100, 0x00)\n      dup2\n      sload\n      dup2\n      0xffffffffffffffffffffffffffffffffffffffff\n      mul\n      not\n      and\n      swap1\n      dup4\n      0xffffffffffffffffffffffffffffffffffffffff\n      and\n      mul\n      or\n      swap1\n      sstore\n      pop\n      0x01\n      dup3\n      add\n      sload\n      dup2\n      0x01\n      add\n      sstore\n      0x02\n      dup3\n      add\n      sload\n      dup2\n      0x02\n      add\n      sstore\n      0x03\n      dup3\n      add\n      sload\n      dup2\n      0x03\n      add\n      sstore\n      swap1\n      pop\n      pop\n        /* \"W1/heap.sol\":3665:3669  heap */\n      0x00\n        /* \"W1/heap.sol\":3684:3685  1 */\n      0x01\n        /* \"W1/heap.sol\":3670:3674  heap */\n      0x00\n        /* \"W1/heap.sol\":3670:3681  heap.length */\n      dup1\n      sload\n      swap1\n      pop\n        /* \"W1/heap.sol\":3670:3685  heap.length - 1 */\n      tag_43\n      swap2\n      swap1\n      tag_19\n      jump\t// in\n    tag_43:\n        /* \"W1/heap.sol\":3665:3686  heap[heap.length - 1] */\n      dup2\n      sload\n      dup2\n      lt\n      tag_44\n      jumpi\n      tag_45\n      tag_38\n      jump\t// in\n    tag_45:\n    tag_44:\n      swap1\n      0x00\n      mstore\n      keccak256(0x00, 0x20)\n      swap1\n      0x04\n      mul\n      add\n      0x00\n        /* \"W1/heap.sol\":3658:3686  delete heap[heap.length - 1] */\n      dup1\n      dup3\n      add\n      exp(0x0100, 0x00)\n      dup2\n      sload\n      swap1\n      0xffffffffffffffffffffffffffffffffffffffff\n      mul\n      not\n      and\n      swap1\n      sstore\n      0x01\n      dup3\n      add\n      0x00\n      swap1\n      sstore\n      0x02\n      dup3\n      add\n      0x00\n      swap1\n      sstore\n      0x03\n      dup3\n      add\n      0x00\n      swap1\n      sstore\n      pop\n      pop\n        /* \"W1/heap.sol\":3697:3701  heap */\n      0x00\n        /* \"W1/heap.sol\":3697:3707  heap.pop() */\n      dup1\n      sload\n      dup1\n      tag_47\n      jumpi\n      tag_48\n      tag_49\n      jump\t// in\n    tag_48:\n    tag_47:\n      0x01\n      swap1\n      sub\n      dup2\n      dup2\n      swap1\n      0x00\n      mstore\n      keccak256(0x00, 0x20)\n      swap1\n      0x04\n      mul\n      add\n      0x00\n      dup1\n      dup3\n      add\n      exp(0x0100, 0x00)\n      dup2\n      sload\n      swap1\n      0xffffffffffffffffffffffffffffffffffffffff\n      mul\n      not\n      and\n      swap1\n      sstore\n      0x01\n      dup3\n      add\n      0x00\n      swap1\n      sstore\n      0x02\n      dup3\n      add\n      0x00\n      swap1\n      sstore\n      0x03\n      dup3\n      add\n      0x00\n      swap1\n      sstore\n      pop\n      pop\n      swap1\n      sstore\n        /* \"W1/heap.sol\":3718:3729  _heapify(0) */\n      tag_51\n        /* \"W1/heap.sol\":3727:3728  0 */\n      0x00\n        /* \"W1/heap.sol\":3718:3726  _heapify */\n      tag_52\n        /* \"W1/heap.sol\":3718:3729  _heapify(0) */\n      jump\t// in\n    tag_51:\n        /* \"W1/heap.sol\":3531:3737  function pop() public {... */\n      jump\t// out\n        /* \"W1/heap.sol\":3743:3878  function top() public view returns (Order memory) {... */\n    tag_13:\n        /* \"W1/heap.sol\":3779:3791  Order memory */\n      tag_53\n      tag_54\n      jump\t// in\n    tag_53:\n        /* \"W1/heap.sol\":3826:3827  0 */\n      0x00\n        /* \"W1/heap.sol\":3812:3816  heap */\n      dup1\n        /* \"W1/heap.sol\":3812:3823  heap.length */\n      dup1\n      sload\n      swap1\n      pop\n        /* \"W1/heap.sol\":3812:3827  heap.length > 0 */\n      gt\n        /* \"W1/heap.sol\":3804:3845  require(heap.length > 0, \"heap is empty\") */\n      tag_56\n      jumpi\n      mload(0x40)\n      0x08c379a000000000000000000000000000000000000000000000000000000000\n      dup2\n      mstore\n      0x04\n      add\n      tag_57\n      swap1\n      tag_34\n      jump\t// in\n    tag_57:\n      mload(0x40)\n      dup1\n      swap2\n      sub\n      swap1\n      revert\n    tag_56:\n        /* \"W1/heap.sol\":3863:3867  heap */\n      0x00\n        /* \"W1/heap.sol\":3868:3869  0 */\n      dup1\n        /* \"W1/heap.sol\":3863:3870  heap[0] */\n      dup2\n      sload\n      dup2\n      lt\n      tag_58\n      jumpi\n      tag_59\n      tag_38\n      jump\t// in\n    tag_59:\n    tag_58:\n      swap1\n      0x00\n      mstore\n      keccak256(0x00, 0x20)\n      swap1\n      0x04\n      mul\n      add\n        /* \"W1/heap.sol\":3856:3870  return heap[0] */\n      mload(0x40)\n      dup1\n      0x80\n      add\n      0x40\n      mstore\n      swap1\n      dup2\n      0x00\n      dup3\n      add\n      0x00\n      swap1\n      sload\n      swap1\n      0x0100\n      exp\n      swap1\n      div\n      0xffffffffffffffffffffffffffffffffffffffff\n      and\n      0xffffffffffffffffffffffffffffffffffffffff\n      and\n      0xffffffffffffffffffffffffffffffffffffffff\n      and\n      dup2\n      mstore\n      0x20\n      add\n      0x01\n      dup3\n      add\n      sload\n      dup2\n      mstore\n      0x20\n      add\n      0x02\n      dup3\n      add\n      sload\n      dup2\n      mstore\n      0x20\n      add\n      0x03\n      dup3\n      add\n      sload\n      dup2\n      mstore\n      pop\n      pop\n      swap1\n      pop\n        /* \"W1/heap.sol\":3743:3878  function top() public view returns (Order memory) {... */\n      swap1\n      jump\t// out\n        /* \"W1/heap.sol\":4800:5314  function _conpare(uint256 i,uint256 j) private view returns (bool) {... */\n    tag_26:\n        /* \"W1/heap.sol\":4861:4865  bool */\n      0x00\n        /* \"W1/heap.sol\":4908:4912  heap */\n      dup1\n        /* \"W1/heap.sol\":4913:4914  j */\n      dup3\n        /* \"W1/heap.sol\":4908:4915  heap[j] */\n      dup2\n      sload\n      dup2\n      lt\n      tag_62\n      jumpi\n      tag_63\n      tag_38\n      jump\t// in\n    tag_63:\n    tag_62:\n      swap1\n      0x00\n      mstore\n      keccak256(0x00, 0x20)\n      swap1\n      0x04\n      mul\n      add\n        /* \"W1/heap.sol\":4908:4921  heap[j].price */\n      0x02\n      add\n      sload\n        /* \"W1/heap.sol\":4891:4895  heap */\n      0x00\n        /* \"W1/heap.sol\":4896:4897  i */\n      dup5\n        /* \"W1/heap.sol\":4891:4898  heap[i] */\n      dup2\n      sload\n      dup2\n      lt\n      tag_65\n      jumpi\n      tag_66\n      tag_38\n      jump\t// in\n    tag_66:\n    tag_65:\n      swap1\n      0x00\n      mstore\n      keccak256(0x00, 0x20)\n      swap1\n      0x04\n      mul\n      add\n        /* \"W1/heap.sol\":4891:4904  heap[i].price */\n      0x02\n      add\n      sload\n        /* \"W1/heap.sol\":4891:4921  heap[i].price == heap[j].price */\n      sub\n        /* \"W1/heap.sol\":4888:5260  if(heap[i].price == heap[j].price) {... */\n      tag_68\n      jumpi\n        /* \"W1/heap.sol\":4962:4966  heap */\n      0x00\n        /* \"W1/heap.sol\":4967:4968  j */\n      dup3\n        /* \"W1/heap.sol\":4962:4969  heap[j] */\n      dup2\n      sload\n      dup2\n      lt\n      tag_69\n      jumpi\n      tag_70\n      tag_38\n      jump\t// in\n    tag_70:\n    tag_69:\n      swap1\n      0x00\n      mstore\n      keccak256(0x00, 0x20)\n      swap1\n      0x04\n      mul\n      add\n        /* \"W1/heap.sol\":4962:4979  heap[j].timestamp */\n      0x03\n      add\n      sload\n        /* \"W1/heap.sol\":4941:4945  heap */\n      0x00\n        /* \"W1/heap.sol\":4946:4947  i */\n      dup5\n        /* \"W1/heap.sol\":4941:4948  heap[i] */\n      dup2\n      sload\n      dup2\n      lt\n      tag_72\n      jumpi\n      tag_73\n      tag_38\n      jump\t// in\n    tag_73:\n    tag_72:\n      swap1\n      0x00\n      mstore\n      keccak256(0x00, 0x20)\n      swap1\n      0x04\n      mul\n      add\n        /* \"W1/heap.sol\":4941:4958  heap[i].timestamp */\n      0x03\n      add\n      sload\n        /* \"W1/heap.sol\":4941:4979  heap[i].timestamp == heap[j].timestamp */\n      sub\n        /* \"W1/heap.sol\":4938:5190  if(heap[i].timestamp == heap[j].timestamp) {... */\n      tag_75\n      jumpi\n        /* \"W1/heap.sol\":5021:5025  heap */\n      0x00\n        /* \"W1/heap.sol\":5026:5027  j */\n      dup3\n        /* \"W1/heap.sol\":5021:5028  heap[j] */\n      dup2\n      sload\n      dup2\n      lt\n      tag_76\n      jumpi\n      tag_77\n      tag_38\n      jump\t// in\n    tag_77:\n    tag_76:\n      swap1\n      0x00\n      mstore\n      keccak256(0x00, 0x20)\n      swap1\n      0x04\n      mul\n      add\n        /* \"W1/heap.sol\":5021:5035  heap[j].amount */\n      0x01\n      add\n      sload\n        /* \"W1/heap.sol\":5003:5007  heap */\n      0x00\n        /* \"W1/heap.sol\":5008:5009  i */\n      dup5\n        /* \"W1/heap.sol\":5003:5010  heap[i] */\n      dup2\n      sload\n      dup2\n      lt\n      tag_79\n      jumpi\n      tag_80\n      tag_38\n      jump\t// in\n    tag_80:\n    tag_79:\n      swap1\n      0x00\n      mstore\n      keccak256(0x00, 0x20)\n      swap1\n      0x04\n      mul\n      add\n        /* \"W1/heap.sol\":5003:5017  heap[i].amount */\n      0x01\n      add\n      sload\n        /* \"W1/heap.sol\":5003:5035  heap[i].amount == heap[j].amount */\n      sub\n        /* \"W1/heap.sol\":5000:5118  if(heap[i].amount == heap[j].amount) {... */\n      tag_82\n      jumpi\n        /* \"W1/heap.sol\":5084:5088  heap */\n      0x00\n        /* \"W1/heap.sol\":5089:5090  j */\n      dup3\n        /* \"W1/heap.sol\":5084:5091  heap[j] */\n      dup2\n      sload\n      dup2\n      lt\n      tag_83\n      jumpi\n      tag_84\n      tag_38\n      jump\t// in\n    tag_84:\n    tag_83:\n      swap1\n      0x00\n      mstore\n      keccak256(0x00, 0x20)\n      swap1\n      0x04\n      mul\n      add\n        /* \"W1/heap.sol\":5084:5098  heap[j].trader */\n      0x00\n      add\n      0x00\n      swap1\n      sload\n      swap1\n      0x0100\n      exp\n      swap1\n      div\n      0xffffffffffffffffffffffffffffffffffffffff\n      and\n        /* \"W1/heap.sol\":5067:5098  heap[i].trader < heap[j].trader */\n      0xffffffffffffffffffffffffffffffffffffffff\n      and\n        /* \"W1/heap.sol\":5067:5071  heap */\n      0x00\n        /* \"W1/heap.sol\":5072:5073  i */\n      dup5\n        /* \"W1/heap.sol\":5067:5074  heap[i] */\n      dup2\n      sload\n      dup2\n      lt\n      tag_86\n      jumpi\n      tag_87\n      tag_38\n      jump\t// in\n    tag_87:\n    tag_86:\n      swap1\n      0x00\n      mstore\n      keccak256(0x00, 0x20)\n      swap1\n      0x04\n      mul\n      add\n        /* \"W1/heap.sol\":5067:5081  heap[i].trader */\n      0x00\n      add\n      0x00\n      swap1\n      sload\n      swap1\n      0x0100\n      exp\n      swap1\n      div\n      0xffffffffffffffffffffffffffffffffffffffff\n      and\n        /* \"W1/heap.sol\":5067:5098  heap[i].trader < heap[j].trader */\n      0xffffffffffffffffffffffffffffffffffffffff\n      and\n      lt\n        /* \"W1/heap.sol\":5060:5098  return heap[i].trader < heap[j].trader */\n      swap1\n      pop\n      jump(tag_61)\n        /* \"W1/heap.sol\":5000:5118  if(heap[i].amount == heap[j].amount) {... */\n    tag_82:\n        /* \"W1/heap.sol\":5160:5164  heap */\n      0x00\n        /* \"W1/heap.sol\":5165:5166  j */\n      dup3\n        /* \"W1/heap.sol\":5160:5167  heap[j] */\n      dup2\n      sload\n      dup2\n      lt\n      tag_89\n      jumpi\n      tag_90\n      tag_38\n      jump\t// in\n    tag_90:\n    tag_89:\n      swap1\n      0x00\n      mstore\n      keccak256(0x00, 0x20)\n      swap1\n      0x04\n      mul\n      add\n        /* \"W1/heap.sol\":5160:5174  heap[j].amount */\n      0x01\n      add\n      sload\n        /* \"W1/heap.sol\":5143:5147  heap */\n      0x00\n        /* \"W1/heap.sol\":5148:5149  i */\n      dup5\n        /* \"W1/heap.sol\":5143:5150  heap[i] */\n      dup2\n      sload\n      dup2\n      lt\n      tag_92\n      jumpi\n      tag_93\n      tag_38\n      jump\t// in\n    tag_93:\n    tag_92:\n      swap1\n      0x00\n      mstore\n      keccak256(0x00, 0x20)\n      swap1\n      0x04\n      mul\n      add\n        /* \"W1/heap.sol\":5143:5157  heap[i].amount */\n      0x01\n      add\n      sload\n        /* \"W1/heap.sol\":5143:5174  heap[i].amount < heap[j].amount */\n      lt\n        /* \"W1/heap.sol\":5136:5174  return heap[i].amount < heap[j].amount */\n      swap1\n      pop\n      jump(tag_61)\n        /* \"W1/heap.sol\":4938:5190  if(heap[i].timestamp == heap[j].timestamp) {... */\n    tag_75:\n        /* \"W1/heap.sol\":5231:5235  heap */\n      0x00\n        /* \"W1/heap.sol\":5236:5237  j */\n      dup3\n        /* \"W1/heap.sol\":5231:5238  heap[j] */\n      dup2\n      sload\n      dup2\n      lt\n      tag_95\n      jumpi\n      tag_96\n      tag_38\n      jump\t// in\n    tag_96:\n    tag_95:\n      swap1\n      0x00\n      mstore\n      keccak256(0x00, 0x20)\n      swap1\n      0x04\n      mul\n      add\n        /* \"W1/heap.sol\":5231:5248  heap[j].timestamp */\n      0x03\n      add\n      sload\n        /* \"W1/heap.sol\":5211:5215  heap */\n      0x00\n        /* \"W1/heap.sol\":5216:5217  i */\n      dup5\n        /* \"W1/heap.sol\":5211:5218  heap[i] */\n      dup2\n      sload\n      dup2\n      lt\n      tag_98\n      jumpi\n      tag_99\n      tag_38\n      jump\t// in\n    tag_99:\n    tag_98:\n      swap1\n      0x00\n      mstore\n      keccak256(0x00, 0x20)\n      swap1\n      0x04\n      mul\n      add\n        /* \"W1/heap.sol\":5211:5228  heap[i].timestamp */\n      0x03\n      add\n      sload\n        /* \"W1/heap.sol\":5211:5248  heap[i].timestamp < heap[j].timestamp */\n      lt\n        /* \"W1/heap.sol\":5204:5248  return heap[i].timestamp < heap[j].timestamp */\n      swap1\n      pop\n      jump(tag_61)\n        /* \"W1/heap.sol\":4888:5260  if(heap[i].price == heap[j].price) {... */\n    tag_68:\n        /* \"W1/heap.sol\":5293:5297  heap */\n      0x00\n        /* \"W1/heap.sol\":5298:5299  j */\n      dup3\n        /* \"W1/heap.sol\":5293:5300  heap[j] */\n      dup2\n      sload\n      dup2\n      lt\n      tag_101\n      jumpi\n      tag_102\n      tag_38\n      jump\t// in\n    tag_102:\n    tag_101:\n      swap1\n      0x00\n      mstore\n      keccak256(0x00, 0x20)\n      swap1\n      0x04\n      mul\n      add\n        /* \"W1/heap.sol\":5293:5306  heap[j].price */\n      0x02\n      add\n      sload\n        /* \"W1/heap.sol\":5277:5281  heap */\n      0x00\n        /* \"W1/heap.sol\":5282:5283  i */\n      dup5\n        /* \"W1/heap.sol\":5277:5284  heap[i] */\n      dup2\n      sload\n      dup2\n      lt\n      tag_104\n      jumpi\n      tag_105\n      tag_38\n      jump\t// in\n    tag_105:\n    tag_104:\n      swap1\n      0x00\n      mstore\n      keccak256(0x00, 0x20)\n      swap1\n      0x04\n      mul\n      add\n        /* \"W1/heap.sol\":5277:5290  heap[i].price */\n      0x02\n      add\n      sload\n        /* \"W1/heap.sol\":5277:5306  heap[i].price > heap[j].price */\n      gt\n        /* \"W1/heap.sol\":5270:5306  return heap[i].price > heap[j].price */\n      swap1\n      pop\n        /* \"W1/heap.sol\":4800:5314  function _conpare(uint256 i,uint256 j) private view returns (bool) {... */\n    tag_61:\n      swap3\n      swap2\n      pop\n      pop\n      jump\t// out\n        /* \"W1/heap.sol\":5320:5463  function _swap(uint256 a, uint256 b) private  {... */\n    tag_29:\n        /* \"W1/heap.sol\":5377:5393  Order memory tmp */\n      0x00\n        /* \"W1/heap.sol\":5396:5400  heap */\n      dup1\n        /* \"W1/heap.sol\":5401:5402  a */\n      dup4\n        /* \"W1/heap.sol\":5396:5403  heap[a] */\n      dup2\n      sload\n      dup2\n      lt\n      tag_108\n      jumpi\n      tag_109\n      tag_38\n      jump\t// in\n    tag_109:\n    tag_108:\n      swap1\n      0x00\n      mstore\n      keccak256(0x00, 0x20)\n      swap1\n      0x04\n      mul\n      add\n        /* \"W1/heap.sol\":5377:5403  Order memory tmp = heap[a] */\n      mload(0x40)\n      dup1\n      0x80\n      add\n      0x40\n      mstore\n      swap1\n      dup2\n      0x00\n      dup3\n      add\n      0x00\n      swap1\n      sload\n      swap1\n      0x0100\n      exp\n      swap1\n      div\n      0xffffffffffffffffffffffffffffffffffffffff\n      and\n      0xffffffffffffffffffffffffffffffffffffffff\n      and\n      0xffffffffffffffffffffffffffffffffffffffff\n      and\n      dup2\n      mstore\n      0x20\n      add\n      0x01\n      dup3\n      add\n      sload\n      dup2\n      mstore\n      0x20\n      add\n      0x02\n      dup3\n      add\n      sload\n      dup2\n      mstore\n      0x20\n      add\n      0x03\n      dup3\n      add\n      sload\n      dup2\n      mstore\n      pop\n      pop\n      swap1\n      pop\n        /* \"W1/heap.sol\":5424:5428  heap */\n      0x00\n        /* \"W1/heap.sol\":5429:5430  b */\n      dup3\n        /* \"W1/heap.sol\":5424:5431  heap[b] */\n      dup2\n      sload\n      dup2\n      lt\n      tag_111\n      jumpi\n      tag_112\n      tag_38\n      jump\t// in\n    tag_112:\n    tag_111:\n      swap1\n      0x00\n      mstore\n      keccak256(0x00, 0x20)\n      swap1\n      0x04\n      mul\n      add\n        /* \"W1/heap.sol\":5414:5418  heap */\n      0x00\n        /* \"W1/heap.sol\":5419:5420  a */\n      dup5\n        /* \"W1/heap.sol\":5414:5421  heap[a] */\n      dup2\n      sload\n      dup2\n      lt\n      tag_114\n      jumpi\n      tag_115\n      tag_38\n      jump\t// in\n    tag_115:\n    tag_114:\n      swap1\n      0x00\n      mstore\n      keccak256(0x00, 0x20)\n      swap1\n      0x04\n      mul\n      add\n        /* \"W1/heap.sol\":5414:5431  heap[a] = heap[b] */\n      0x00\n      dup3\n      add\n      0x00\n      swap1\n      sload\n      swap1\n      0x0100\n      exp\n      swap1\n      div\n      0xffffffffffffffffffffffffffffffffffffffff\n      and\n      dup2\n      0x00\n      add\n      exp(0x0100, 0x00)\n      dup2\n      sload\n      dup2\n      0xffffffffffffffffffffffffffffffffffffffff\n      mul\n      not\n      and\n      swap1\n      dup4\n      0xffffffffffffffffffffffffffffffffffffffff\n      and\n      mul\n      or\n      swap1\n      sstore\n      pop\n      0x01\n      dup3\n      add\n      sload\n      dup2\n      0x01\n      add\n      sstore\n      0x02\n      dup3\n      add\n      sload\n      dup2\n      0x02\n      add\n      sstore\n      0x03\n      dup3\n      add\n      sload\n      dup2\n      0x03\n      add\n      sstore\n      swap1\n      pop\n      pop\n        /* \"W1/heap.sol\":5452:5455  tmp */\n      dup1\n        /* \"W1/heap.sol\":5442:5446  heap */\n      0x00\n        /* \"W1/heap.sol\":5447:5448  b */\n      dup4\n        /* \"W1/heap.sol\":5442:5449  heap[b] */\n      dup2\n      sload\n      dup2\n      lt\n      tag_117\n      jumpi\n      tag_118\n      tag_38\n      jump\t// in\n    tag_118:\n    tag_117:\n      swap1\n      0x00\n      mstore\n      keccak256(0x00, 0x20)\n      swap1\n      0x04\n      mul\n      add\n        /* \"W1/heap.sol\":5442:5455  heap[b] = tmp */\n      0x00\n      dup3\n      add\n      mload\n      dup2\n      0x00\n      add\n      exp(0x0100, 0x00)\n      dup2\n      sload\n      dup2\n      0xffffffffffffffffffffffffffffffffffffffff\n      mul\n      not\n      and\n      swap1\n      dup4\n      0xffffffffffffffffffffffffffffffffffffffff\n      and\n      mul\n      or\n      swap1\n      sstore\n      pop\n      0x20\n      dup3\n      add\n      mload\n      dup2\n      0x01\n      add\n      sstore\n      0x40\n      dup3\n      add\n      mload\n      dup2\n      0x02\n      add\n      sstore\n      0x60\n      dup3\n      add\n      mload\n      dup2\n      0x03\n      add\n      sstore\n      swap1\n      pop\n      pop\n        /* \"W1/heap.sol\":5366:5463  {... */\n      pop\n        /* \"W1/heap.sol\":5320:5463  function _swap(uint256 a, uint256 b) private  {... */\n      pop\n      pop\n      jump\t// out\n        /* \"W1/heap.sol\":3884:4319  function _heapify(uint256 _i) private {... */\n    tag_52:\n        /* \"W1/heap.sol\":3933:3942  uint256 l */\n      0x00\n        /* \"W1/heap.sol\":3954:3955  1 */\n      0x01\n        /* \"W1/heap.sol\":3949:3951  _i */\n      dup3\n        /* \"W1/heap.sol\":3945:3946  2 */\n      0x02\n        /* \"W1/heap.sol\":3945:3951  2 * _i */\n      tag_121\n      swap2\n      swap1\n      tag_122\n      jump\t// in\n    tag_121:\n        /* \"W1/heap.sol\":3945:3955  2 * _i + 1 */\n      tag_123\n      swap2\n      swap1\n      tag_124\n      jump\t// in\n    tag_123:\n        /* \"W1/heap.sol\":3933:3955  uint256 l = 2 * _i + 1 */\n      swap1\n      pop\n        /* \"W1/heap.sol\":3966:3975  uint256 r */\n      0x00\n        /* \"W1/heap.sol\":3987:3988  2 */\n      0x02\n        /* \"W1/heap.sol\":3982:3984  _i */\n      dup4\n        /* \"W1/heap.sol\":3978:3979  2 */\n      0x02\n        /* \"W1/heap.sol\":3978:3984  2 * _i */\n      tag_125\n      swap2\n      swap1\n      tag_122\n      jump\t// in\n    tag_125:\n        /* \"W1/heap.sol\":3978:3988  2 * _i + 2 */\n      tag_126\n      swap2\n      swap1\n      tag_124\n      jump\t// in\n    tag_126:\n        /* \"W1/heap.sol\":3966:3988  uint256 r = 2 * _i + 2 */\n      swap1\n      pop\n        /* \"W1/heap.sol\":3999:4014  uint256 largest */\n      0x00\n        /* \"W1/heap.sol\":4017:4019  _i */\n      dup4\n        /* \"W1/heap.sol\":3999:4019  uint256 largest = _i */\n      swap1\n      pop\n        /* \"W1/heap.sol\":4038:4042  heap */\n      0x00\n        /* \"W1/heap.sol\":4038:4049  heap.length */\n      dup1\n      sload\n      swap1\n      pop\n        /* \"W1/heap.sol\":4034:4035  l */\n      dup4\n        /* \"W1/heap.sol\":4034:4049  l < heap.length */\n      lt\n        /* \"W1/heap.sol\":4034:4073  l < heap.length && _conpare(l ,largest) */\n      dup1\n      iszero\n      tag_127\n      jumpi\n      pop\n        /* \"W1/heap.sol\":4053:4073  _conpare(l ,largest) */\n      tag_128\n        /* \"W1/heap.sol\":4062:4063  l */\n      dup4\n        /* \"W1/heap.sol\":4065:4072  largest */\n      dup3\n        /* \"W1/heap.sol\":4053:4061  _conpare */\n      tag_26\n        /* \"W1/heap.sol\":4053:4073  _conpare(l ,largest) */\n      jump\t// in\n    tag_128:\n        /* \"W1/heap.sol\":4034:4073  l < heap.length && _conpare(l ,largest) */\n    tag_127:\n        /* \"W1/heap.sol\":4030:4113  if (l < heap.length && _conpare(l ,largest)) {... */\n      iszero\n      tag_129\n      jumpi\n        /* \"W1/heap.sol\":4100:4101  l */\n      dup3\n        /* \"W1/heap.sol\":4090:4101  largest = l */\n      swap1\n      pop\n        /* \"W1/heap.sol\":4030:4113  if (l < heap.length && _conpare(l ,largest)) {... */\n    tag_129:\n        /* \"W1/heap.sol\":4131:4135  heap */\n      0x00\n        /* \"W1/heap.sol\":4131:4142  heap.length */\n      dup1\n      sload\n      swap1\n      pop\n        /* \"W1/heap.sol\":4127:4128  r */\n      dup3\n        /* \"W1/heap.sol\":4127:4142  r < heap.length */\n      lt\n        /* \"W1/heap.sol\":4127:4166  r < heap.length && _conpare(r ,largest) */\n      dup1\n      iszero\n      tag_130\n      jumpi\n      pop\n        /* \"W1/heap.sol\":4146:4166  _conpare(r ,largest) */\n      tag_131\n        /* \"W1/heap.sol\":4155:4156  r */\n      dup3\n        /* \"W1/heap.sol\":4158:4165  largest */\n      dup3\n        /* \"W1/heap.sol\":4146:4154  _conpare */\n      tag_26\n        /* \"W1/heap.sol\":4146:4166  _conpare(r ,largest) */\n      jump\t// in\n    tag_131:\n        /* \"W1/heap.sol\":4127:4166  r < heap.length && _conpare(r ,largest) */\n    tag_130:\n        /* \"W1/heap.sol\":4123:4206  if (r < heap.length && _conpare(r ,largest)) {... */\n      iszero\n      tag_132\n      jumpi\n        /* \"W1/heap.sol\":4193:4194  r */\n      dup2\n        /* \"W1/heap.sol\":4183:4194  largest = r */\n      swap1\n      pop\n        /* \"W1/heap.sol\":4123:4206  if (r < heap.length && _conpare(r ,largest)) {... */\n    tag_132:\n        /* \"W1/heap.sol\":4231:4233  _i */\n      dup4\n        /* \"W1/heap.sol\":4220:4227  largest */\n      dup2\n        /* \"W1/heap.sol\":4220:4233  largest != _i */\n      eq\n        /* \"W1/heap.sol\":4216:4312  if (largest != _i) {... */\n      tag_133\n      jumpi\n        /* \"W1/heap.sol\":4250:4268  _swap(_i, largest) */\n      tag_134\n        /* \"W1/heap.sol\":4256:4258  _i */\n      dup5\n        /* \"W1/heap.sol\":4260:4267  largest */\n      dup3\n        /* \"W1/heap.sol\":4250:4255  _swap */\n      tag_29\n        /* \"W1/heap.sol\":4250:4268  _swap(_i, largest) */\n      jump\t// in\n    tag_134:\n        /* \"W1/heap.sol\":4283:4300  _heapify(largest) */\n      tag_135\n        /* \"W1/heap.sol\":4292:4299  largest */\n      dup2\n        /* \"W1/heap.sol\":4283:4291  _heapify */\n      tag_52\n        /* \"W1/heap.sol\":4283:4300  _heapify(largest) */\n      jump\t// in\n    tag_135:\n        /* \"W1/heap.sol\":4216:4312  if (largest != _i) {... */\n    tag_133:\n        /* \"W1/heap.sol\":3922:4319  {... */\n      pop\n      pop\n      pop\n        /* \"W1/heap.sol\":3884:4319  function _heapify(uint256 _i) private {... */\n      pop\n      jump\t// out\n    tag_54:\n      mload(0x40)\n      dup1\n      0x80\n      add\n      0x40\n      mstore\n      dup1\n      and(0xffffffffffffffffffffffffffffffffffffffff, 0x00)\n      dup2\n      mstore\n      0x20\n      add\n      0x00\n      dup2\n      mstore\n      0x20\n      add\n      0x00\n      dup2\n      mstore\n      0x20\n      add\n      0x00\n      dup2\n      mstore\n      pop\n      swap1\n      jump\t// out\n        /* \"#utility.yul\":7:82   */\n    tag_136:\n        /* \"#utility.yul\":40:46   */\n      0x00\n        /* \"#utility.yul\":73:75   */\n      0x40\n        /* \"#utility.yul\":67:76   */\n      mload\n        /* \"#utility.yul\":57:76   */\n      swap1\n      pop\n        /* \"#utility.yul\":7:82   */\n      swap1\n      jump\t// out\n        /* \"#utility.yul\":88:205   */\n    tag_137:\n        /* \"#utility.yul\":197:198   */\n      0x00\n        /* \"#utility.yul\":194:195   */\n      dup1\n        /* \"#utility.yul\":187:199   */\n      revert\n        /* \"#utility.yul\":334:451   */\n    tag_139:\n        /* \"#utility.yul\":443:444   */\n      0x00\n        /* \"#utility.yul\":440:441   */\n      dup1\n        /* \"#utility.yul\":433:445   */\n      revert\n        /* \"#utility.yul\":457:559   */\n    tag_140:\n        /* \"#utility.yul\":498:504   */\n      0x00\n        /* \"#utility.yul\":549:551   */\n      0x1f\n        /* \"#utility.yul\":545:552   */\n      not\n        /* \"#utility.yul\":540:542   */\n      0x1f\n        /* \"#utility.yul\":533:538   */\n      dup4\n        /* \"#utility.yul\":529:543   */\n      add\n        /* \"#utility.yul\":525:553   */\n      and\n        /* \"#utility.yul\":515:553   */\n      swap1\n      pop\n        /* \"#utility.yul\":457:559   */\n      swap2\n      swap1\n      pop\n      jump\t// out\n        /* \"#utility.yul\":565:745   */\n    tag_141:\n        /* \"#utility.yul\":613:690   */\n      0x4e487b7100000000000000000000000000000000000000000000000000000000\n        /* \"#utility.yul\":610:611   */\n      0x00\n        /* \"#utility.yul\":603:691   */\n      mstore\n        /* \"#utility.yul\":710:714   */\n      0x41\n        /* \"#utility.yul\":707:708   */\n      0x04\n        /* \"#utility.yul\":700:715   */\n      mstore\n        /* \"#utility.yul\":734:738   */\n      0x24\n        /* \"#utility.yul\":731:732   */\n      0x00\n        /* \"#utility.yul\":724:739   */\n      revert\n        /* \"#utility.yul\":751:1032   */\n    tag_142:\n        /* \"#utility.yul\":834:861   */\n      tag_169\n        /* \"#utility.yul\":856:860   */\n      dup3\n        /* \"#utility.yul\":834:861   */\n      tag_140\n      jump\t// in\n    tag_169:\n        /* \"#utility.yul\":826:832   */\n      dup2\n        /* \"#utility.yul\":822:862   */\n      add\n        /* \"#utility.yul\":964:970   */\n      dup2\n        /* \"#utility.yul\":952:962   */\n      dup2\n        /* \"#utility.yul\":949:971   */\n      lt\n        /* \"#utility.yul\":928:946   */\n      0xffffffffffffffff\n        /* \"#utility.yul\":916:926   */\n      dup3\n        /* \"#utility.yul\":913:947   */\n      gt\n        /* \"#utility.yul\":910:972   */\n      or\n        /* \"#utility.yul\":907:995   */\n      iszero\n      tag_170\n      jumpi\n        /* \"#utility.yul\":975:993   */\n      tag_171\n      tag_141\n      jump\t// in\n    tag_171:\n        /* \"#utility.yul\":907:995   */\n    tag_170:\n        /* \"#utility.yul\":1015:1025   */\n      dup1\n        /* \"#utility.yul\":1011:1013   */\n      0x40\n        /* \"#utility.yul\":1004:1026   */\n      mstore\n        /* \"#utility.yul\":794:1032   */\n      pop\n        /* \"#utility.yul\":751:1032   */\n      pop\n      pop\n      jump\t// out\n        /* \"#utility.yul\":1038:1167   */\n    tag_143:\n        /* \"#utility.yul\":1072:1078   */\n      0x00\n        /* \"#utility.yul\":1099:1119   */\n      tag_173\n      tag_136\n      jump\t// in\n    tag_173:\n        /* \"#utility.yul\":1089:1119   */\n      swap1\n      pop\n        /* \"#utility.yul\":1128:1161   */\n      tag_174\n        /* \"#utility.yul\":1156:1160   */\n      dup3\n        /* \"#utility.yul\":1148:1154   */\n      dup3\n        /* \"#utility.yul\":1128:1161   */\n      tag_142\n      jump\t// in\n    tag_174:\n        /* \"#utility.yul\":1038:1167   */\n      swap2\n      swap1\n      pop\n      jump\t// out\n        /* \"#utility.yul\":1296:1422   */\n    tag_145:\n        /* \"#utility.yul\":1333:1340   */\n      0x00\n        /* \"#utility.yul\":1373:1415   */\n      0xffffffffffffffffffffffffffffffffffffffff\n        /* \"#utility.yul\":1366:1371   */\n      dup3\n        /* \"#utility.yul\":1362:1416   */\n      and\n        /* \"#utility.yul\":1351:1416   */\n      swap1\n      pop\n        /* \"#utility.yul\":1296:1422   */\n      swap2\n      swap1\n      pop\n      jump\t// out\n        /* \"#utility.yul\":1428:1524   */\n    tag_146:\n        /* \"#utility.yul\":1465:1472   */\n      0x00\n        /* \"#utility.yul\":1494:1518   */\n      tag_178\n        /* \"#utility.yul\":1512:1517   */\n      dup3\n        /* \"#utility.yul\":1494:1518   */\n      tag_145\n      jump\t// in\n    tag_178:\n        /* \"#utility.yul\":1483:1518   */\n      swap1\n      pop\n        /* \"#utility.yul\":1428:1524   */\n      swap2\n      swap1\n      pop\n      jump\t// out\n        /* \"#utility.yul\":1530:1652   */\n    tag_147:\n        /* \"#utility.yul\":1603:1627   */\n      tag_180\n        /* \"#utility.yul\":1621:1626   */\n      dup2\n        /* \"#utility.yul\":1603:1627   */\n      tag_146\n      jump\t// in\n    tag_180:\n        /* \"#utility.yul\":1596:1601   */\n      dup2\n        /* \"#utility.yul\":1593:1628   */\n      eq\n        /* \"#utility.yul\":1583:1646   */\n      tag_181\n      jumpi\n        /* \"#utility.yul\":1642:1643   */\n      0x00\n        /* \"#utility.yul\":1639:1640   */\n      dup1\n        /* \"#utility.yul\":1632:1644   */\n      revert\n        /* \"#utility.yul\":1583:1646   */\n    tag_181:\n        /* \"#utility.yul\":1530:1652   */\n      pop\n      jump\t// out\n        /* \"#utility.yul\":1658:1797   */\n    tag_148:\n        /* \"#utility.yul\":1704:1709   */\n      0x00\n        /* \"#utility.yul\":1742:1748   */\n      dup2\n        /* \"#utility.yul\":1729:1749   */\n      calldataload\n        /* \"#utility.yul\":1720:1749   */\n      swap1\n      pop\n        /* \"#utility.yul\":1758:1791   */\n      tag_183\n        /* \"#utility.yul\":1785:1790   */\n      dup2\n        /* \"#utility.yul\":1758:1791   */\n      tag_147\n      jump\t// in\n    tag_183:\n        /* \"#utility.yul\":1658:1797   */\n      swap3\n      swap2\n      pop\n      pop\n      jump\t// out\n        /* \"#utility.yul\":1803:1880   */\n    tag_149:\n        /* \"#utility.yul\":1840:1847   */\n      0x00\n        /* \"#utility.yul\":1869:1874   */\n      dup2\n        /* \"#utility.yul\":1858:1874   */\n      swap1\n      pop\n        /* \"#utility.yul\":1803:1880   */\n      swap2\n      swap1\n      pop\n      jump\t// out\n        /* \"#utility.yul\":1886:2008   */\n    tag_150:\n        /* \"#utility.yul\":1959:1983   */\n      tag_186\n        /* \"#utility.yul\":1977:1982   */\n      dup2\n        /* \"#utility.yul\":1959:1983   */\n      tag_149\n      jump\t// in\n    tag_186:\n        /* \"#utility.yul\":1952:1957   */\n      dup2\n        /* \"#utility.yul\":1949:1984   */\n      eq\n        /* \"#utility.yul\":1939:2002   */\n      tag_187\n      jumpi\n        /* \"#utility.yul\":1998:1999   */\n      0x00\n        /* \"#utility.yul\":1995:1996   */\n      dup1\n        /* \"#utility.yul\":1988:2000   */\n      revert\n        /* \"#utility.yul\":1939:2002   */\n    tag_187:\n        /* \"#utility.yul\":1886:2008   */\n      pop\n      jump\t// out\n        /* \"#utility.yul\":2014:2153   */\n    tag_151:\n        /* \"#utility.yul\":2060:2065   */\n      0x00\n        /* \"#utility.yul\":2098:2104   */\n      dup2\n        /* \"#utility.yul\":2085:2105   */\n      calldataload\n        /* \"#utility.yul\":2076:2105   */\n      swap1\n      pop\n        /* \"#utility.yul\":2114:2147   */\n      tag_189\n        /* \"#utility.yul\":2141:2146   */\n      dup2\n        /* \"#utility.yul\":2114:2147   */\n      tag_150\n      jump\t// in\n    tag_189:\n        /* \"#utility.yul\":2014:2153   */\n      swap3\n      swap2\n      pop\n      pop\n      jump\t// out\n        /* \"#utility.yul\":2187:3090   */\n    tag_152:\n        /* \"#utility.yul\":2258:2263   */\n      0x00\n        /* \"#utility.yul\":2302:2306   */\n      0x80\n        /* \"#utility.yul\":2290:2299   */\n      dup3\n        /* \"#utility.yul\":2285:2288   */\n      dup5\n        /* \"#utility.yul\":2281:2300   */\n      sub\n        /* \"#utility.yul\":2277:2307   */\n      slt\n        /* \"#utility.yul\":2274:2391   */\n      iszero\n      tag_191\n      jumpi\n        /* \"#utility.yul\":2310:2389   */\n      tag_192\n      tag_139\n      jump\t// in\n    tag_192:\n        /* \"#utility.yul\":2274:2391   */\n    tag_191:\n        /* \"#utility.yul\":2409:2430   */\n      tag_193\n        /* \"#utility.yul\":2425:2429   */\n      0x80\n        /* \"#utility.yul\":2409:2430   */\n      tag_143\n      jump\t// in\n    tag_193:\n        /* \"#utility.yul\":2400:2430   */\n      swap1\n      pop\n        /* \"#utility.yul\":2491:2492   */\n      0x00\n        /* \"#utility.yul\":2531:2580   */\n      tag_194\n        /* \"#utility.yul\":2576:2579   */\n      dup5\n        /* \"#utility.yul\":2567:2573   */\n      dup3\n        /* \"#utility.yul\":2556:2565   */\n      dup6\n        /* \"#utility.yul\":2552:2574   */\n      add\n        /* \"#utility.yul\":2531:2580   */\n      tag_148\n      jump\t// in\n    tag_194:\n        /* \"#utility.yul\":2524:2528   */\n      0x00\n        /* \"#utility.yul\":2517:2522   */\n      dup4\n        /* \"#utility.yul\":2513:2529   */\n      add\n        /* \"#utility.yul\":2506:2581   */\n      mstore\n        /* \"#utility.yul\":2440:2592   */\n      pop\n        /* \"#utility.yul\":2653:2655   */\n      0x20\n        /* \"#utility.yul\":2694:2743   */\n      tag_195\n        /* \"#utility.yul\":2739:2742   */\n      dup5\n        /* \"#utility.yul\":2730:2736   */\n      dup3\n        /* \"#utility.yul\":2719:2728   */\n      dup6\n        /* \"#utility.yul\":2715:2737   */\n      add\n        /* \"#utility.yul\":2694:2743   */\n      tag_151\n      jump\t// in\n    tag_195:\n        /* \"#utility.yul\":2687:2691   */\n      0x20\n        /* \"#utility.yul\":2680:2685   */\n      dup4\n        /* \"#utility.yul\":2676:2692   */\n      add\n        /* \"#utility.yul\":2669:2744   */\n      mstore\n        /* \"#utility.yul\":2602:2755   */\n      pop\n        /* \"#utility.yul\":2815:2817   */\n      0x40\n        /* \"#utility.yul\":2856:2905   */\n      tag_196\n        /* \"#utility.yul\":2901:2904   */\n      dup5\n        /* \"#utility.yul\":2892:2898   */\n      dup3\n        /* \"#utility.yul\":2881:2890   */\n      dup6\n        /* \"#utility.yul\":2877:2899   */\n      add\n        /* \"#utility.yul\":2856:2905   */\n      tag_151\n      jump\t// in\n    tag_196:\n        /* \"#utility.yul\":2849:2853   */\n      0x40\n        /* \"#utility.yul\":2842:2847   */\n      dup4\n        /* \"#utility.yul\":2838:2854   */\n      add\n        /* \"#utility.yul\":2831:2906   */\n      mstore\n        /* \"#utility.yul\":2765:2917   */\n      pop\n        /* \"#utility.yul\":2981:2983   */\n      0x60\n        /* \"#utility.yul\":3022:3071   */\n      tag_197\n        /* \"#utility.yul\":3067:3070   */\n      dup5\n        /* \"#utility.yul\":3058:3064   */\n      dup3\n        /* \"#utility.yul\":3047:3056   */\n      dup6\n        /* \"#utility.yul\":3043:3065   */\n      add\n        /* \"#utility.yul\":3022:3071   */\n      tag_151\n      jump\t// in\n    tag_197:\n        /* \"#utility.yul\":3015:3019   */\n      0x60\n        /* \"#utility.yul\":3008:3013   */\n      dup4\n        /* \"#utility.yul\":3004:3020   */\n      add\n        /* \"#utility.yul\":2997:3072   */\n      mstore\n        /* \"#utility.yul\":2927:3083   */\n      pop\n        /* \"#utility.yul\":2187:3090   */\n      swap3\n      swap2\n      pop\n      pop\n      jump\t// out\n        /* \"#utility.yul\":3096:3470   */\n    tag_8:\n        /* \"#utility.yul\":3177:3183   */\n      0x00\n        /* \"#utility.yul\":3226:3229   */\n      0x80\n        /* \"#utility.yul\":3214:3223   */\n      dup3\n        /* \"#utility.yul\":3205:3212   */\n      dup5\n        /* \"#utility.yul\":3201:3224   */\n      sub\n        /* \"#utility.yul\":3197:3230   */\n      slt\n        /* \"#utility.yul\":3194:3314   */\n      iszero\n      tag_199\n      jumpi\n        /* \"#utility.yul\":3233:3312   */\n      tag_200\n      tag_137\n      jump\t// in\n    tag_200:\n        /* \"#utility.yul\":3194:3314   */\n    tag_199:\n        /* \"#utility.yul\":3353:3354   */\n      0x00\n        /* \"#utility.yul\":3378:3453   */\n      tag_201\n        /* \"#utility.yul\":3445:3452   */\n      dup5\n        /* \"#utility.yul\":3436:3442   */\n      dup3\n        /* \"#utility.yul\":3425:3434   */\n      dup6\n        /* \"#utility.yul\":3421:3443   */\n      add\n        /* \"#utility.yul\":3378:3453   */\n      tag_152\n      jump\t// in\n    tag_201:\n        /* \"#utility.yul\":3368:3453   */\n      swap2\n      pop\n        /* \"#utility.yul\":3324:3463   */\n      pop\n        /* \"#utility.yul\":3096:3470   */\n      swap3\n      swap2\n      pop\n      pop\n      jump\t// out\n        /* \"#utility.yul\":3476:3584   */\n    tag_153:\n        /* \"#utility.yul\":3553:3577   */\n      tag_203\n        /* \"#utility.yul\":3571:3576   */\n      dup2\n        /* \"#utility.yul\":3553:3577   */\n      tag_146\n      jump\t// in\n    tag_203:\n        /* \"#utility.yul\":3548:3551   */\n      dup3\n        /* \"#utility.yul\":3541:3578   */\n      mstore\n        /* \"#utility.yul\":3476:3584   */\n      pop\n      pop\n      jump\t// out\n        /* \"#utility.yul\":3590:3698   */\n    tag_154:\n        /* \"#utility.yul\":3667:3691   */\n      tag_205\n        /* \"#utility.yul\":3685:3690   */\n      dup2\n        /* \"#utility.yul\":3667:3691   */\n      tag_149\n      jump\t// in\n    tag_205:\n        /* \"#utility.yul\":3662:3665   */\n      dup3\n        /* \"#utility.yul\":3655:3692   */\n      mstore\n        /* \"#utility.yul\":3590:3698   */\n      pop\n      pop\n      jump\t// out\n        /* \"#utility.yul\":3756:4615   */\n    tag_155:\n        /* \"#utility.yul\":3897:3901   */\n      0x80\n        /* \"#utility.yul\":3892:3895   */\n      dup3\n        /* \"#utility.yul\":3888:3902   */\n      add\n        /* \"#utility.yul\":3986:3990   */\n      0x00\n        /* \"#utility.yul\":3979:3984   */\n      dup3\n        /* \"#utility.yul\":3975:3991   */\n      add\n        /* \"#utility.yul\":3969:3992   */\n      mload\n        /* \"#utility.yul\":4005:4068   */\n      tag_207\n        /* \"#utility.yul\":4062:4066   */\n      0x00\n        /* \"#utility.yul\":4057:4060   */\n      dup6\n        /* \"#utility.yul\":4053:4067   */\n      add\n        /* \"#utility.yul\":4039:4051   */\n      dup3\n        /* \"#utility.yul\":4005:4068   */\n      tag_153\n      jump\t// in\n    tag_207:\n        /* \"#utility.yul\":3912:4078   */\n      pop\n        /* \"#utility.yul\":4162:4166   */\n      0x20\n        /* \"#utility.yul\":4155:4160   */\n      dup3\n        /* \"#utility.yul\":4151:4167   */\n      add\n        /* \"#utility.yul\":4145:4168   */\n      mload\n        /* \"#utility.yul\":4181:4244   */\n      tag_208\n        /* \"#utility.yul\":4238:4242   */\n      0x20\n        /* \"#utility.yul\":4233:4236   */\n      dup6\n        /* \"#utility.yul\":4229:4243   */\n      add\n        /* \"#utility.yul\":4215:4227   */\n      dup3\n        /* \"#utility.yul\":4181:4244   */\n      tag_154\n      jump\t// in\n    tag_208:\n        /* \"#utility.yul\":4088:4254   */\n      pop\n        /* \"#utility.yul\":4337:4341   */\n      0x40\n        /* \"#utility.yul\":4330:4335   */\n      dup3\n        /* \"#utility.yul\":4326:4342   */\n      add\n        /* \"#utility.yul\":4320:4343   */\n      mload\n        /* \"#utility.yul\":4356:4419   */\n      tag_209\n        /* \"#utility.yul\":4413:4417   */\n      0x40\n        /* \"#utility.yul\":4408:4411   */\n      dup6\n        /* \"#utility.yul\":4404:4418   */\n      add\n        /* \"#utility.yul\":4390:4402   */\n      dup3\n        /* \"#utility.yul\":4356:4419   */\n      tag_154\n      jump\t// in\n    tag_209:\n        /* \"#utility.yul\":4264:4429   */\n      pop\n        /* \"#utility.yul\":4516:4520   */\n      0x60\n        /* \"#utility.yul\":4509:4514   */\n      dup3\n        /* \"#utility.yul\":4505:4521   */\n      add\n        /* \"#utility.yul\":4499:4522   */\n      mload\n        /* \"#utility.yul\":4535:4598   */\n      tag_210\n        /* \"#utility.yul\":4592:4596   */\n      0x60\n        /* \"#utility.yul\":4587:4590   */\n      dup6\n        /* \"#utility.yul\":4583:4597   */\n      add\n        /* \"#utility.yul\":4569:4581   */\n      dup3\n        /* \"#utility.yul\":4535:4598   */\n      tag_154\n      jump\t// in\n    tag_210:\n        /* \"#utility.yul\":4439:4608   */\n      pop\n        /* \"#utility.yul\":3866:4615   */\n      pop\n        /* \"#utility.yul\":3756:4615   */\n      pop\n      pop\n      jump\t// out\n        /* \"#utility.yul\":4621:4932   */\n    tag_15:\n        /* \"#utility.yul\":4758:4762   */\n      0x00\n        /* \"#utility.yul\":4796:4799   */\n      0x80\n        /* \"#utility.yul\":4785:4794   */\n      dup3\n        /* \"#utility.yul\":4781:4800   */\n      add\n        /* \"#utility.yul\":4773:4800   */\n      swap1\n      pop\n        /* \"#utility.yul\":4810:4925   */\n      tag_212\n        /* \"#utility.yul\":4922:4923   */\n      0x00\n        /* \"#utility.yul\":4911:4920   */\n      dup4\n        /* \"#utility.yul\":4907:4924   */\n      add\n        /* \"#utility.yul\":4898:4904   */\n      dup5\n        /* \"#utility.yul\":4810:4925   */\n      tag_155\n      jump\t// in\n    tag_212:\n        /* \"#utility.yul\":4621:4932   */\n      swap3\n      swap2\n      pop\n      pop\n      jump\t// out\n        /* \"#utility.yul\":4938:5118   */\n    tag_156:\n        /* \"#utility.yul\":4986:5063   */\n      0x4e487b7100000000000000000000000000000000000000000000000000000000\n        /* \"#utility.yul\":4983:4984   */\n      0x00\n        /* \"#utility.yul\":4976:5064   */\n      mstore\n        /* \"#utility.yul\":5083:5087   */\n      0x11\n        /* \"#utility.yul\":5080:5081   */\n      0x04\n        /* \"#utility.yul\":5073:5088   */\n      mstore\n        /* \"#utility.yul\":5107:5111   */\n      0x24\n        /* \"#utility.yul\":5104:5105   */\n      0x00\n        /* \"#utility.yul\":5097:5112   */\n      revert\n        /* \"#utility.yul\":5124:5318   */\n    tag_19:\n        /* \"#utility.yul\":5164:5168   */\n      0x00\n        /* \"#utility.yul\":5184:5204   */\n      tag_215\n        /* \"#utility.yul\":5202:5203   */\n      dup3\n        /* \"#utility.yul\":5184:5204   */\n      tag_149\n      jump\t// in\n    tag_215:\n        /* \"#utility.yul\":5179:5204   */\n      swap2\n      pop\n        /* \"#utility.yul\":5218:5238   */\n      tag_216\n        /* \"#utility.yul\":5236:5237   */\n      dup4\n        /* \"#utility.yul\":5218:5238   */\n      tag_149\n      jump\t// in\n    tag_216:\n        /* \"#utility.yul\":5213:5238   */\n      swap3\n      pop\n        /* \"#utility.yul\":5262:5263   */\n      dup3\n        /* \"#utility.yul\":5259:5260   */\n      dup3\n        /* \"#utility.yul\":5255:5264   */\n      sub\n        /* \"#utility.yul\":5247:5264   */\n      swap1\n      pop\n        /* \"#utility.yul\":5286:5287   */\n      dup2\n        /* \"#utility.yul\":5280:5284   */\n      dup2\n        /* \"#utility.yul\":5277:5288   */\n      gt\n        /* \"#utility.yul\":5274:5311   */\n      iszero\n      tag_217\n      jumpi\n        /* \"#utility.yul\":5291:5309   */\n      tag_218\n      tag_156\n      jump\t// in\n    tag_218:\n        /* \"#utility.yul\":5274:5311   */\n    tag_217:\n        /* \"#utility.yul\":5124:5318   */\n      swap3\n      swap2\n      pop\n      pop\n      jump\t// out\n        /* \"#utility.yul\":5324:5504   */\n    tag_157:\n        /* \"#utility.yul\":5372:5449   */\n      0x4e487b7100000000000000000000000000000000000000000000000000000000\n        /* \"#utility.yul\":5369:5370   */\n      0x00\n        /* \"#utility.yul\":5362:5450   */\n      mstore\n        /* \"#utility.yul\":5469:5473   */\n      0x12\n        /* \"#utility.yul\":5466:5467   */\n      0x04\n        /* \"#utility.yul\":5459:5474   */\n      mstore\n        /* \"#utility.yul\":5493:5497   */\n      0x24\n        /* \"#utility.yul\":5490:5491   */\n      0x00\n        /* \"#utility.yul\":5483:5498   */\n      revert\n        /* \"#utility.yul\":5510:5695   */\n    tag_24:\n        /* \"#utility.yul\":5550:5551   */\n      0x00\n        /* \"#utility.yul\":5567:5587   */\n      tag_221\n        /* \"#utility.yul\":5585:5586   */\n      dup3\n        /* \"#utility.yul\":5567:5587   */\n      tag_149\n      jump\t// in\n    tag_221:\n        /* \"#utility.yul\":5562:5587   */\n      swap2\n      pop\n        /* \"#utility.yul\":5601:5621   */\n      tag_222\n        /* \"#utility.yul\":5619:5620   */\n      dup4\n        /* \"#utility.yul\":5601:5621   */\n      tag_149\n      jump\t// in\n    tag_222:\n        /* \"#utility.yul\":5596:5621   */\n      swap3\n      pop\n        /* \"#utility.yul\":5640:5641   */\n      dup3\n        /* \"#utility.yul\":5630:5665   */\n      tag_223\n      jumpi\n        /* \"#utility.yul\":5645:5663   */\n      tag_224\n      tag_157\n      jump\t// in\n    tag_224:\n        /* \"#utility.yul\":5630:5665   */\n    tag_223:\n        /* \"#utility.yul\":5687:5688   */\n      dup3\n        /* \"#utility.yul\":5684:5685   */\n      dup3\n        /* \"#utility.yul\":5680:5689   */\n      div\n        /* \"#utility.yul\":5675:5689   */\n      swap1\n      pop\n        /* \"#utility.yul\":5510:5695   */\n      swap3\n      swap2\n      pop\n      pop\n      jump\t// out\n        /* \"#utility.yul\":5701:5870   */\n    tag_158:\n        /* \"#utility.yul\":5785:5796   */\n      0x00\n        /* \"#utility.yul\":5819:5825   */\n      dup3\n        /* \"#utility.yul\":5814:5817   */\n      dup3\n        /* \"#utility.yul\":5807:5826   */\n      mstore\n        /* \"#utility.yul\":5859:5863   */\n      0x20\n        /* \"#utility.yul\":5854:5857   */\n      dup3\n        /* \"#utility.yul\":5850:5864   */\n      add\n        /* \"#utility.yul\":5835:5864   */\n      swap1\n      pop\n        /* \"#utility.yul\":5701:5870   */\n      swap3\n      swap2\n      pop\n      pop\n      jump\t// out\n        /* \"#utility.yul\":5876:6039   */\n    tag_159:\n        /* \"#utility.yul\":6016:6031   */\n      0x6865617020697320656d70747900000000000000000000000000000000000000\n        /* \"#utility.yul\":6012:6013   */\n      0x00\n        /* \"#utility.yul\":6004:6010   */\n      dup3\n        /* \"#utility.yul\":6000:6014   */\n      add\n        /* \"#utility.yul\":5993:6032   */\n      mstore\n        /* \"#utility.yul\":5876:6039   */\n      pop\n      jump\t// out\n        /* \"#utility.yul\":6045:6411   */\n    tag_160:\n        /* \"#utility.yul\":6187:6190   */\n      0x00\n        /* \"#utility.yul\":6208:6275   */\n      tag_228\n        /* \"#utility.yul\":6272:6274   */\n      0x0d\n        /* \"#utility.yul\":6267:6270   */\n      dup4\n        /* \"#utility.yul\":6208:6275   */\n      tag_158\n      jump\t// in\n    tag_228:\n        /* \"#utility.yul\":6201:6275   */\n      swap2\n      pop\n        /* \"#utility.yul\":6284:6377   */\n      tag_229\n        /* \"#utility.yul\":6373:6376   */\n      dup3\n        /* \"#utility.yul\":6284:6377   */\n      tag_159\n      jump\t// in\n    tag_229:\n        /* \"#utility.yul\":6402:6404   */\n      0x20\n        /* \"#utility.yul\":6397:6400   */\n      dup3\n        /* \"#utility.yul\":6393:6405   */\n      add\n        /* \"#utility.yul\":6386:6405   */\n      swap1\n      pop\n        /* \"#utility.yul\":6045:6411   */\n      swap2\n      swap1\n      pop\n      jump\t// out\n        /* \"#utility.yul\":6417:6836   */\n    tag_34:\n        /* \"#utility.yul\":6583:6587   */\n      0x00\n        /* \"#utility.yul\":6621:6623   */\n      0x20\n        /* \"#utility.yul\":6610:6619   */\n      dup3\n        /* \"#utility.yul\":6606:6624   */\n      add\n        /* \"#utility.yul\":6598:6624   */\n      swap1\n      pop\n        /* \"#utility.yul\":6670:6679   */\n      dup2\n        /* \"#utility.yul\":6664:6668   */\n      dup2\n        /* \"#utility.yul\":6660:6680   */\n      sub\n        /* \"#utility.yul\":6656:6657   */\n      0x00\n        /* \"#utility.yul\":6645:6654   */\n      dup4\n        /* \"#utility.yul\":6641:6658   */\n      add\n        /* \"#utility.yul\":6634:6681   */\n      mstore\n        /* \"#utility.yul\":6698:6829   */\n      tag_231\n        /* \"#utility.yul\":6824:6828   */\n      dup2\n        /* \"#utility.yul\":6698:6829   */\n      tag_160\n      jump\t// in\n    tag_231:\n        /* \"#utility.yul\":6690:6829   */\n      swap1\n      pop\n        /* \"#utility.yul\":6417:6836   */\n      swap2\n      swap1\n      pop\n      jump\t// out\n        /* \"#utility.yul\":6842:7022   */\n    tag_38:\n        /* \"#utility.yul\":6890:6967   */\n      0x4e487b7100000000000000000000000000000000000000000000000000000000\n        /* \"#utility.yul\":6887:6888   */\n      0x00\n        /* \"#utility.yul\":6880:6968   */\n      mstore\n        /* \"#utility.yul\":6987:6991   */\n      0x32\n        /* \"#utility.yul\":6984:6985   */\n      0x04\n        /* \"#utility.yul\":6977:6992   */\n      mstore\n        /* \"#utility.yul\":7011:7015   */\n      0x24\n        /* \"#utility.yul\":7008:7009   */\n      0x00\n        /* \"#utility.yul\":7001:7016   */\n      revert\n        /* \"#utility.yul\":7028:7208   */\n    tag_49:\n        /* \"#utility.yul\":7076:7153   */\n      0x4e487b7100000000000000000000000000000000000000000000000000000000\n        /* \"#utility.yul\":7073:7074   */\n      0x00\n        /* \"#utility.yul\":7066:7154   */\n      mstore\n        /* \"#utility.yul\":7173:7177   */\n      0x31\n        /* \"#utility.yul\":7170:7171   */\n      0x04\n        /* \"#utility.yul\":7163:7178   */\n      mstore\n        /* \"#utility.yul\":7197:7201   */\n      0x24\n        /* \"#utility.yul\":7194:7195   */\n      0x00\n        /* \"#utility.yul\":7187:7202   */\n      revert\n        /* \"#utility.yul\":7214:7624   */\n    tag_122:\n        /* \"#utility.yul\":7254:7261   */\n      0x00\n        /* \"#utility.yul\":7277:7297   */\n      tag_235\n        /* \"#utility.yul\":7295:7296   */\n      dup3\n        /* \"#utility.yul\":7277:7297   */\n      tag_149\n      jump\t// in\n    tag_235:\n        /* \"#utility.yul\":7272:7297   */\n      swap2\n      pop\n        /* \"#utility.yul\":7311:7331   */\n      tag_236\n        /* \"#utility.yul\":7329:7330   */\n      dup4\n        /* \"#utility.yul\":7311:7331   */\n      tag_149\n      jump\t// in\n    tag_236:\n        /* \"#utility.yul\":7306:7331   */\n      swap3\n      pop\n        /* \"#utility.yul\":7366:7367   */\n      dup3\n        /* \"#utility.yul\":7363:7364   */\n      dup3\n        /* \"#utility.yul\":7359:7368   */\n      mul\n        /* \"#utility.yul\":7388:7418   */\n      tag_237\n        /* \"#utility.yul\":7406:7417   */\n      dup2\n        /* \"#utility.yul\":7388:7418   */\n      tag_149\n      jump\t// in\n    tag_237:\n        /* \"#utility.yul\":7377:7418   */\n      swap2\n      pop\n        /* \"#utility.yul\":7567:7568   */\n      dup3\n        /* \"#utility.yul\":7558:7565   */\n      dup3\n        /* \"#utility.yul\":7554:7569   */\n      div\n        /* \"#utility.yul\":7551:7552   */\n      dup5\n        /* \"#utility.yul\":7548:7570   */\n      eq\n        /* \"#utility.yul\":7528:7529   */\n      dup4\n        /* \"#utility.yul\":7521:7530   */\n      iszero\n        /* \"#utility.yul\":7501:7584   */\n      or\n        /* \"#utility.yul\":7478:7617   */\n      tag_238\n      jumpi\n        /* \"#utility.yul\":7597:7615   */\n      tag_239\n      tag_156\n      jump\t// in\n    tag_239:\n        /* \"#utility.yul\":7478:7617   */\n    tag_238:\n        /* \"#utility.yul\":7262:7624   */\n      pop\n        /* \"#utility.yul\":7214:7624   */\n      swap3\n      swap2\n      pop\n      pop\n      jump\t// out\n        /* \"#utility.yul\":7630:7821   */\n    tag_124:\n        /* \"#utility.yul\":7670:7673   */\n      0x00\n        /* \"#utility.yul\":7689:7709   */\n      tag_241\n        /* \"#utility.yul\":7707:7708   */\n      dup3\n        /* \"#utility.yul\":7689:7709   */\n      tag_149\n      jump\t// in\n    tag_241:\n        /* \"#utility.yul\":7684:7709   */\n      swap2\n      pop\n        /* \"#utility.yul\":7723:7743   */\n      tag_242\n        /* \"#utility.yul\":7741:7742   */\n      dup4\n        /* \"#utility.yul\":7723:7743   */\n      tag_149\n      jump\t// in\n    tag_242:\n        /* \"#utility.yul\":7718:7743   */\n      swap3\n      pop\n        /* \"#utility.yul\":7766:7767   */\n      dup3\n        /* \"#utility.yul\":7763:7764   */\n      dup3\n        /* \"#utility.yul\":7759:7768   */\n      add\n        /* \"#utility.yul\":7752:7768   */\n      swap1\n      pop\n        /* \"#utility.yul\":7787:7790   */\n      dup1\n        /* \"#utility.yul\":7784:7785   */\n      dup3\n        /* \"#utility.yul\":7781:7791   */\n      gt\n        /* \"#utility.yul\":7778:7814   */\n      iszero\n      tag_243\n      jumpi\n        /* \"#utility.yul\":7794:7812   */\n      tag_244\n      tag_156\n      jump\t// in\n    tag_244:\n        /* \"#utility.yul\":7778:7814   */\n    tag_243:\n        /* \"#utility.yul\":7630:7821   */\n      swap3\n      swap2\n      pop\n      pop\n      jump\t// out\n\n    auxdata: 0xa2646970667358221220488b105e9caea08287b7afddd23ecdd8d0aac1eae078021cfa62bb8bd2ba38f364736f6c63430008130033\n}\n",
				"bytecode": {
					"linkReferences": {},
					"object": "608060405234801561001057600080fd5b5060006040518060800160405280600073ffffffffffffffffffffffffffffffffffffffff1681526020017fffffffffffffffffffffffffffffffffffffffffffffffffffffffffffffffff8152602001600181526020017fffffffffffffffffffffffffffffffffffffffffffffffffffffffffffffffff815250908060018154018082558091505060019003906000526020600020906004020160009091909190915060008201518160000160006101000a81548173ffffffffffffffffffffffffffffffffffffffff021916908373ffffffffffffffffffffffffffffffffffffffff1602179055506020820151816001015560408201518160020155606082015181600301555050610ed68061012b6000396000f3fe608060405234801561001057600080fd5b50600436106100415760003560e01c80637829c46914610046578063a4ece52c14610062578063fe6dcdba1461006c575b600080fd5b610060600480360381019061005b9190610bd1565b61008a565b005b61006a61018b565b005b61007461039a565b6040516100819190610c71565b60405180910390f35b600081908060018154018082558091505060019003906000526020600020906004020160009091909190915060008201518160000160006101000a81548173ffffffffffffffffffffffffffffffffffffffff021916908373ffffffffffffffffffffffffffffffffffffffff1602179055506020820151816001015560408201518160020155606082015181600301555050600060016000805490506101319190610cbb565b90505b6000811115610187576000600260018361014e9190610cbb565b6101589190610d1e565b9050610164828261048f565b1561017b576101738183610741565b809150610181565b50610187565b50610134565b5050565b60008080549050116101d2576040517f08c379a00000000000000000000000000000000000000000000000000000000081526004016101c990610dac565b60405180910390fd5b600060016000805490506101e69190610cbb565b815481106101f7576101f6610dcc565b5b90600052602060002090600402016000808154811061021957610218610dcc565b5b90600052602060002090600402016000820160009054906101000a900473ffffffffffffffffffffffffffffffffffffffff168160000160006101000a81548173ffffffffffffffffffffffffffffffffffffffff021916908373ffffffffffffffffffffffffffffffffffffffff160217905550600182015481600101556002820154816002015560038201548160030155905050600060016000805490506102c39190610cbb565b815481106102d4576102d3610dcc565b5b9060005260206000209060040201600080820160006101000a81549073ffffffffffffffffffffffffffffffffffffffff02191690556001820160009055600282016000905560038201600090555050600080548061033657610335610dfb565b5b6001900381819060005260206000209060040201600080820160006101000a81549073ffffffffffffffffffffffffffffffffffffffff0219169055600182016000905560028201600090556003820160009055505090556103986000610941565b565b6103a26109e7565b60008080549050116103e9576040517f08c379a00000000000000000000000000000000000000000000000000000000081526004016103e090610dac565b60405180910390fd5b600080815481106103fd576103fc610dcc565b5b90600052602060002090600402016040518060800160405290816000820160009054906101000a900473ffffffffffffffffffffffffffffffffffffffff1673ffffffffffffffffffffffffffffffffffffffff1673ffffffffffffffffffffffffffffffffffffffff1681526020016001820154815260200160028201548152602001600382015481525050905090565b60008082815481106104a4576104a3610dcc565b5b906000526020600020906004020160020154600084815481106104ca576104c9610dcc565b5b906000526020600020906004020160020154036106eb57600082815481106104f5576104f4610dcc565b5b9060005260206000209060040201600301546000848154811061051b5761051a610dcc565b5b90600052602060002090600402016003015403610697576000828154811061054657610545610dcc565b5b9060005260206000209060040201600101546000848154811061056c5761056b610dcc565b5b90600052602060002090600402016001015403610643576000828154811061059757610596610dcc565b5b906000526020600020906004020160000160009054906101000a900473ffffffffffffffffffffffffffffffffffffffff1673ffffffffffffffffffffffffffffffffffffffff16600084815481106105f3576105f2610dcc565b5b906000526020600020906004020160000160009054906101000a900473ffffffffffffffffffffffffffffffffffffffff1673ffffffffffffffffffffffffffffffffffffffff1610905061073b565b6000828154811061065757610656610dcc565b5b9060005260206000209060040201600101546000848154811061067d5761067c610dcc565b5b90600052602060002090600402016001015410905061073b565b600082815481106106ab576106aa610dcc565b5b906000526020600020906004020160030154600084815481106106d1576106d0610dcc565b5b90600052602060002090600402016003015410905061073b565b600082815481106106ff576106fe610dcc565b5b9060005260206000209060040201600201546000848154811061072557610724610dcc565b5b9060005260206000209060040201600201541190505b92915050565b600080838154811061075657610755610dcc565b5b90600052602060002090600402016040518060800160405290816000820160009054906101000a900473ffffffffffffffffffffffffffffffffffffffff1673ffffffffffffffffffffffffffffffffffffffff1673ffffffffffffffffffffffffffffffffffffffff16815260200160018201548152602001600282015481526020016003820154815250509050600082815481106107f9576107f8610dcc565b5b90600052602060002090600402016000848154811061081b5761081a610dcc565b5b90600052602060002090600402016000820160009054906101000a900473ffffffffffffffffffffffffffffffffffffffff168160000160006101000a81548173ffffffffffffffffffffffffffffffffffffffff021916908373ffffffffffffffffffffffffffffffffffffffff16021790555060018201548160010155600282015481600201556003820154816003015590505080600083815481106108c6576108c5610dcc565b5b906000526020600020906004020160008201518160000160006101000a81548173ffffffffffffffffffffffffffffffffffffffff021916908373ffffffffffffffffffffffffffffffffffffffff160217905550602082015181600101556040820151816002015560608201518160030155905050505050565b600060018260026109529190610e2a565b61095c9190610e6c565b90506000600283600261096f9190610e2a565b6109799190610e6c565b905060008390506000805490508310801561099a5750610999838261048f565b5b156109a3578290505b600080549050821080156109bd57506109bc828261048f565b5b156109c6578190505b8381146109e1576109d78482610741565b6109e081610941565b5b50505050565b6040518060800160405280600073ffffffffffffffffffffffffffffffffffffffff1681526020016000815260200160008152602001600081525090565b6000604051905090565b600080fd5b600080fd5b6000601f19601f8301169050919050565b7f4e487b7100000000000000000000000000000000000000000000000000000000600052604160045260246000fd5b610a8282610a39565b810181811067ffffffffffffffff82111715610aa157610aa0610a4a565b5b80604052505050565b6000610ab4610a25565b9050610ac08282610a79565b919050565b600073ffffffffffffffffffffffffffffffffffffffff82169050919050565b6000610af082610ac5565b9050919050565b610b0081610ae5565b8114610b0b57600080fd5b50565b600081359050610b1d81610af7565b92915050565b6000819050919050565b610b3681610b23565b8114610b4157600080fd5b50565b600081359050610b5381610b2d565b92915050565b600060808284031215610b6f57610b6e610a34565b5b610b796080610aaa565b90506000610b8984828501610b0e565b6000830152506020610b9d84828501610b44565b6020830152506040610bb184828501610b44565b6040830152506060610bc584828501610b44565b60608301525092915050565b600060808284031215610be757610be6610a2f565b5b6000610bf584828501610b59565b91505092915050565b610c0781610ae5565b82525050565b610c1681610b23565b82525050565b608082016000820151610c326000850182610bfe565b506020820151610c456020850182610c0d565b506040820151610c586040850182610c0d565b506060820151610c6b6060850182610c0d565b50505050565b6000608082019050610c866000830184610c1c565b92915050565b7f4e487b7100000000000000000000000000000000000000000000000000000000600052601160045260246000fd5b6000610cc682610b23565b9150610cd183610b23565b9250828203905081811115610ce957610ce8610c8c565b5b92915050565b7f4e487b7100000000000000000000000000000000000000000000000000000000600052601260045260246000fd5b6000610d2982610b23565b9150610d3483610b23565b925082610d4457610d43610cef565b5b828204905092915050565b600082825260208201905092915050565b7f6865617020697320656d70747900000000000000000000000000000000000000600082015250565b6000610d96600d83610d4f565b9150610da182610d60565b602082019050919050565b60006020820190508181036000830152610dc581610d89565b9050919050565b7f4e487b7100000000000000000000000000000000000000000000000000000000600052603260045260246000fd5b7f4e487b7100000000000000000000000000000000000000000000000000000000600052603160045260246000fd5b6000610e3582610b23565b9150610e4083610b23565b9250828202610e4e81610b23565b91508282048414831517610e6557610e64610c8c565b5b5092915050565b6000610e7782610b23565b9150610e8283610b23565b9250828201905080821115610e9a57610e99610c8c565b5b9291505056fea2646970667358221220488b105e9caea08287b7afddd23ecdd8d0aac1eae078021cfa62bb8bd2ba38f364736f6c63430008130033",
					"opcodes": "PUSH1 0x80 PUSH1 0x40 MSTORE CALLVALUE DUP1 ISZERO PUSH2 0x10 JUMPI PUSH1 0x0 DUP1 REVERT JUMPDEST POP PUSH1 0x0 PUSH1 0x40 MLOAD DUP1 PUSH1 0x80 ADD PUSH1 0x40 MSTORE DUP1 PUSH1 0x0 PUSH20 0xFFFFFFFFFFFFFFFFFFFFFFFFFFFFFFFFFFFFFFFF AND DUP2 MSTORE PUSH1 0x20 ADD PUSH32 0xFFFFFFFFFFFFFFFFFFFFFFFFFFFFFFFFFFFFFFFFFFFFFFFFFFFFFFFFFFFFFFFF DUP2 MSTORE PUSH1 0x20 ADD PUSH1 0x1 DUP2 MSTORE PUSH1 0x20 ADD PUSH32 0xFFFFFFFFFFFFFFFFFFFFFFFFFFFFFFFFFFFFFFFFFFFFFFFFFFFFFFFFFFFFFFFF DUP2 MSTORE POP SWAP1 DUP1 PUSH1 0x1 DUP2 SLOAD ADD DUP1 DUP3 SSTORE DUP1 SWAP2 POP POP PUSH1 0x1 SWAP1 SUB SWAP1 PUSH1 0x0 MSTORE PUSH1 0x20 PUSH1 0x0 KECCAK256 SWAP1 PUSH1 0x4 MUL ADD PUSH1 0x0 SWAP1 SWAP2 SWAP1 SWAP2 SWAP1 SWAP2 POP PUSH1 0x0 DUP3 ADD MLOAD DUP2 PUSH1 0x0 ADD PUSH1 0x0 PUSH2 0x100 EXP DUP2 SLOAD DUP2 PUSH20 0xFFFFFFFFFFFFFFFFFFFFFFFFFFFFFFFFFFFFFFFF MUL NOT AND SWAP1 DUP4 PUSH20 0xFFFFFFFFFFFFFFFFFFFFFFFFFFFFFFFFFFFFFFFF AND MUL OR SWAP1 SSTORE POP PUSH1 0x20 DUP3 ADD MLOAD DUP2 PUSH1 0x1 ADD SSTORE PUSH1 0x40 DUP3 ADD MLOAD DUP2 PUSH1 0x2 ADD SSTORE PUSH1 0x60 DUP3 ADD MLOAD DUP2 PUSH1 0x3 ADD SSTORE POP POP PUSH2 0xED6 DUP1 PUSH2 0x12B PUSH1 0x0 CODECOPY PUSH1 0x0 RETURN INVALID PUSH1 0x80 PUSH1 0x40 MSTORE CALLVALUE DUP1 ISZERO PUSH2 0x10 JUMPI PUSH1 0x0 DUP1 REVERT JUMPDEST POP PUSH1 0x4 CALLDATASIZE LT PUSH2 0x41 JUMPI PUSH1 0x0 CALLDATALOAD PUSH1 0xE0 SHR DUP1 PUSH4 0x7829C469 EQ PUSH2 0x46 JUMPI DUP1 PUSH4 0xA4ECE52C EQ PUSH2 0x62 JUMPI DUP1 PUSH4 0xFE6DCDBA EQ PUSH2 0x6C JUMPI JUMPDEST PUSH1 0x0 DUP1 REVERT JUMPDEST PUSH2 0x60 PUSH1 0x4 DUP1 CALLDATASIZE SUB DUP2 ADD SWAP1 PUSH2 0x5B SWAP2 SWAP1 PUSH2 0xBD1 JUMP JUMPDEST PUSH2 0x8A JUMP JUMPDEST STOP JUMPDEST PUSH2 0x6A PUSH2 0x18B JUMP JUMPDEST STOP JUMPDEST PUSH2 0x74 PUSH2 0x39A JUMP JUMPDEST PUSH1 0x40 MLOAD PUSH2 0x81 SWAP2 SWAP1 PUSH2 0xC71 JUMP JUMPDEST PUSH1 0x40 MLOAD DUP1 SWAP2 SUB SWAP1 RETURN JUMPDEST PUSH1 0x0 DUP2 SWAP1 DUP1 PUSH1 0x1 DUP2 SLOAD ADD DUP1 DUP3 SSTORE DUP1 SWAP2 POP POP PUSH1 0x1 SWAP1 SUB SWAP1 PUSH1 0x0 MSTORE PUSH1 0x20 PUSH1 0x0 KECCAK256 SWAP1 PUSH1 0x4 MUL ADD PUSH1 0x0 SWAP1 SWAP2 SWAP1 SWAP2 SWAP1 SWAP2 POP PUSH1 0x0 DUP3 ADD MLOAD DUP2 PUSH1 0x0 ADD PUSH1 0x0 PUSH2 0x100 EXP DUP2 SLOAD DUP2 PUSH20 0xFFFFFFFFFFFFFFFFFFFFFFFFFFFFFFFFFFFFFFFF MUL NOT AND SWAP1 DUP4 PUSH20 0xFFFFFFFFFFFFFFFFFFFFFFFFFFFFFFFFFFFFFFFF AND MUL OR SWAP1 SSTORE POP PUSH1 0x20 DUP3 ADD MLOAD DUP2 PUSH1 0x1 ADD SSTORE PUSH1 0x40 DUP3 ADD MLOAD DUP2 PUSH1 0x2 ADD SSTORE PUSH1 0x60 DUP3 ADD MLOAD DUP2 PUSH1 0x3 ADD SSTORE POP POP PUSH1 0x0 PUSH1 0x1 PUSH1 0x0 DUP1 SLOAD SWAP1 POP PUSH2 0x131 SWAP2 SWAP1 PUSH2 0xCBB JUMP JUMPDEST SWAP1 POP JUMPDEST PUSH1 0x0 DUP2 GT ISZERO PUSH2 0x187 JUMPI PUSH1 0x0 PUSH1 0x2 PUSH1 0x1 DUP4 PUSH2 0x14E SWAP2 SWAP1 PUSH2 0xCBB JUMP JUMPDEST PUSH2 0x158 SWAP2 SWAP1 PUSH2 0xD1E JUMP JUMPDEST SWAP1 POP PUSH2 0x164 DUP3 DUP3 PUSH2 0x48F JUMP JUMPDEST ISZERO PUSH2 0x17B JUMPI PUSH2 0x173 DUP2 DUP4 PUSH2 0x741 JUMP JUMPDEST DUP1 SWAP2 POP PUSH2 0x181 JUMP JUMPDEST POP PUSH2 0x187 JUMP JUMPDEST POP PUSH2 0x134 JUMP JUMPDEST POP POP JUMP JUMPDEST PUSH1 0x0 DUP1 DUP1 SLOAD SWAP1 POP GT PUSH2 0x1D2 JUMPI PUSH1 0x40 MLOAD PUSH32 0x8C379A000000000000000000000000000000000000000000000000000000000 DUP2 MSTORE PUSH1 0x4 ADD PUSH2 0x1C9 SWAP1 PUSH2 0xDAC JUMP JUMPDEST PUSH1 0x40 MLOAD DUP1 SWAP2 SUB SWAP1 REVERT JUMPDEST PUSH1 0x0 PUSH1 0x1 PUSH1 0x0 DUP1 SLOAD SWAP1 POP PUSH2 0x1E6 SWAP2 SWAP1 PUSH2 0xCBB JUMP JUMPDEST DUP2 SLOAD DUP2 LT PUSH2 0x1F7 JUMPI PUSH2 0x1F6 PUSH2 0xDCC JUMP JUMPDEST JUMPDEST SWAP1 PUSH1 0x0 MSTORE PUSH1 0x20 PUSH1 0x0 KECCAK256 SWAP1 PUSH1 0x4 MUL ADD PUSH1 0x0 DUP1 DUP2 SLOAD DUP2 LT PUSH2 0x219 JUMPI PUSH2 0x218 PUSH2 0xDCC JUMP JUMPDEST JUMPDEST SWAP1 PUSH1 0x0 MSTORE PUSH1 0x20 PUSH1 0x0 KECCAK256 SWAP1 PUSH1 0x4 MUL ADD PUSH1 0x0 DUP3 ADD PUSH1 0x0 SWAP1 SLOAD SWAP1 PUSH2 0x100 EXP SWAP1 DIV PUSH20 0xFFFFFFFFFFFFFFFFFFFFFFFFFFFFFFFFFFFFFFFF AND DUP2 PUSH1 0x0 ADD PUSH1 0x0 PUSH2 0x100 EXP DUP2 SLOAD DUP2 PUSH20 0xFFFFFFFFFFFFFFFFFFFFFFFFFFFFFFFFFFFFFFFF MUL NOT AND SWAP1 DUP4 PUSH20 0xFFFFFFFFFFFFFFFFFFFFFFFFFFFFFFFFFFFFFFFF AND MUL OR SWAP1 SSTORE POP PUSH1 0x1 DUP3 ADD SLOAD DUP2 PUSH1 0x1 ADD SSTORE PUSH1 0x2 DUP3 ADD SLOAD DUP2 PUSH1 0x2 ADD SSTORE PUSH1 0x3 DUP3 ADD SLOAD DUP2 PUSH1 0x3 ADD SSTORE SWAP1 POP POP PUSH1 0x0 PUSH1 0x1 PUSH1 0x0 DUP1 SLOAD SWAP1 POP PUSH2 0x2C3 SWAP2 SWAP1 PUSH2 0xCBB JUMP JUMPDEST DUP2 SLOAD DUP2 LT PUSH2 0x2D4 JUMPI PUSH2 0x2D3 PUSH2 0xDCC JUMP JUMPDEST JUMPDEST SWAP1 PUSH1 0x0 MSTORE PUSH1 0x20 PUSH1 0x0 KECCAK256 SWAP1 PUSH1 0x4 MUL ADD PUSH1 0x0 DUP1 DUP3 ADD PUSH1 0x0 PUSH2 0x100 EXP DUP2 SLOAD SWAP1 PUSH20 0xFFFFFFFFFFFFFFFFFFFFFFFFFFFFFFFFFFFFFFFF MUL NOT AND SWAP1 SSTORE PUSH1 0x1 DUP3 ADD PUSH1 0x0 SWAP1 SSTORE PUSH1 0x2 DUP3 ADD PUSH1 0x0 SWAP1 SSTORE PUSH1 0x3 DUP3 ADD PUSH1 0x0 SWAP1 SSTORE POP POP PUSH1 0x0 DUP1 SLOAD DUP1 PUSH2 0x336 JUMPI PUSH2 0x335 PUSH2 0xDFB JUMP JUMPDEST JUMPDEST PUSH1 0x1 SWAP1 SUB DUP2 DUP2 SWAP1 PUSH1 0x0 MSTORE PUSH1 0x20 PUSH1 0x0 KECCAK256 SWAP1 PUSH1 0x4 MUL ADD PUSH1 0x0 DUP1 DUP3 ADD PUSH1 0x0 PUSH2 0x100 EXP DUP2 SLOAD SWAP1 PUSH20 0xFFFFFFFFFFFFFFFFFFFFFFFFFFFFFFFFFFFFFFFF MUL NOT AND SWAP1 SSTORE PUSH1 0x1 DUP3 ADD PUSH1 0x0 SWAP1 SSTORE PUSH1 0x2 DUP3 ADD PUSH1 0x0 SWAP1 SSTORE PUSH1 0x3 DUP3 ADD PUSH1 0x0 SWAP1 SSTORE POP POP SWAP1 SSTORE PUSH2 0x398 PUSH1 0x0 PUSH2 0x941 JUMP JUMPDEST JUMP JUMPDEST PUSH2 0x3A2 PUSH2 0x9E7 JUMP JUMPDEST PUSH1 0x0 DUP1 DUP1 SLOAD SWAP1 POP GT PUSH2 0x3E9 JUMPI PUSH1 0x40 MLOAD PUSH32 0x8C379A000000000000000000000000000000000000000000000000000000000 DUP2 MSTORE PUSH1 0x4 ADD PUSH2 0x3E0 SWAP1 PUSH2 0xDAC JUMP JUMPDEST PUSH1 0x40 MLOAD DUP1 SWAP2 SUB SWAP1 REVERT JUMPDEST PUSH1 0x0 DUP1 DUP2 SLOAD DUP2 LT PUSH2 0x3FD JUMPI PUSH2 0x3FC PUSH2 0xDCC JUMP JUMPDEST JUMPDEST SWAP1 PUSH1 0x0 MSTORE PUSH1 0x20 PUSH1 0x0 KECCAK256 SWAP1 PUSH1 0x4 MUL ADD PUSH1 0x40 MLOAD DUP1 PUSH1 0x80 ADD PUSH1 0x40 MSTORE SWAP1 DUP2 PUSH1 0x0 DUP3 ADD PUSH1 0x0 SWAP1 SLOAD SWAP1 PUSH2 0x100 EXP SWAP1 DIV PUSH20 0xFFFFFFFFFFFFFFFFFFFFFFFFFFFFFFFFFFFFFFFF AND PUSH20 0xFFFFFFFFFFFFFFFFFFFFFFFFFFFFFFFFFFFFFFFF AND PUSH20 0xFFFFFFFFFFFFFFFFFFFFFFFFFFFFFFFFFFFFFFFF AND DUP2 MSTORE PUSH1 0x20 ADD PUSH1 0x1 DUP3 ADD SLOAD DUP2 MSTORE PUSH1 0x20 ADD PUSH1 0x2 DUP3 ADD SLOAD DUP2 MSTORE PUSH1 0x20 ADD PUSH1 0x3 DUP3 ADD SLOAD DUP2 MSTORE POP POP SWAP1 POP SWAP1 JUMP JUMPDEST PUSH1 0x0 DUP1 DUP3 DUP2 SLOAD DUP2 LT PUSH2 0x4A4 JUMPI PUSH2 0x4A3 PUSH2 0xDCC JUMP JUMPDEST JUMPDEST SWAP1 PUSH1 0x0 MSTORE PUSH1 0x20 PUSH1 0x0 KECCAK256 SWAP1 PUSH1 0x4 MUL ADD PUSH1 0x2 ADD SLOAD PUSH1 0x0 DUP5 DUP2 SLOAD DUP2 LT PUSH2 0x4CA JUMPI PUSH2 0x4C9 PUSH2 0xDCC JUMP JUMPDEST JUMPDEST SWAP1 PUSH1 0x0 MSTORE PUSH1 0x20 PUSH1 0x0 KECCAK256 SWAP1 PUSH1 0x4 MUL ADD PUSH1 0x2 ADD SLOAD SUB PUSH2 0x6EB JUMPI PUSH1 0x0 DUP3 DUP2 SLOAD DUP2 LT PUSH2 0x4F5 JUMPI PUSH2 0x4F4 PUSH2 0xDCC JUMP JUMPDEST JUMPDEST SWAP1 PUSH1 0x0 MSTORE PUSH1 0x20 PUSH1 0x0 KECCAK256 SWAP1 PUSH1 0x4 MUL ADD PUSH1 0x3 ADD SLOAD PUSH1 0x0 DUP5 DUP2 SLOAD DUP2 LT PUSH2 0x51B JUMPI PUSH2 0x51A PUSH2 0xDCC JUMP JUMPDEST JUMPDEST SWAP1 PUSH1 0x0 MSTORE PUSH1 0x20 PUSH1 0x0 KECCAK256 SWAP1 PUSH1 0x4 MUL ADD PUSH1 0x3 ADD SLOAD SUB PUSH2 0x697 JUMPI PUSH1 0x0 DUP3 DUP2 SLOAD DUP2 LT PUSH2 0x546 JUMPI PUSH2 0x545 PUSH2 0xDCC JUMP JUMPDEST JUMPDEST SWAP1 PUSH1 0x0 MSTORE PUSH1 0x20 PUSH1 0x0 KECCAK256 SWAP1 PUSH1 0x4 MUL ADD PUSH1 0x1 ADD SLOAD PUSH1 0x0 DUP5 DUP2 SLOAD DUP2 LT PUSH2 0x56C JUMPI PUSH2 0x56B PUSH2 0xDCC JUMP JUMPDEST JUMPDEST SWAP1 PUSH1 0x0 MSTORE PUSH1 0x20 PUSH1 0x0 KECCAK256 SWAP1 PUSH1 0x4 MUL ADD PUSH1 0x1 ADD SLOAD SUB PUSH2 0x643 JUMPI PUSH1 0x0 DUP3 DUP2 SLOAD DUP2 LT PUSH2 0x597 JUMPI PUSH2 0x596 PUSH2 0xDCC JUMP JUMPDEST JUMPDEST SWAP1 PUSH1 0x0 MSTORE PUSH1 0x20 PUSH1 0x0 KECCAK256 SWAP1 PUSH1 0x4 MUL ADD PUSH1 0x0 ADD PUSH1 0x0 SWAP1 SLOAD SWAP1 PUSH2 0x100 EXP SWAP1 DIV PUSH20 0xFFFFFFFFFFFFFFFFFFFFFFFFFFFFFFFFFFFFFFFF AND PUSH20 0xFFFFFFFFFFFFFFFFFFFFFFFFFFFFFFFFFFFFFFFF AND PUSH1 0x0 DUP5 DUP2 SLOAD DUP2 LT PUSH2 0x5F3 JUMPI PUSH2 0x5F2 PUSH2 0xDCC JUMP JUMPDEST JUMPDEST SWAP1 PUSH1 0x0 MSTORE PUSH1 0x20 PUSH1 0x0 KECCAK256 SWAP1 PUSH1 0x4 MUL ADD PUSH1 0x0 ADD PUSH1 0x0 SWAP1 SLOAD SWAP1 PUSH2 0x100 EXP SWAP1 DIV PUSH20 0xFFFFFFFFFFFFFFFFFFFFFFFFFFFFFFFFFFFFFFFF AND PUSH20 0xFFFFFFFFFFFFFFFFFFFFFFFFFFFFFFFFFFFFFFFF AND LT SWAP1 POP PUSH2 0x73B JUMP JUMPDEST PUSH1 0x0 DUP3 DUP2 SLOAD DUP2 LT PUSH2 0x657 JUMPI PUSH2 0x656 PUSH2 0xDCC JUMP JUMPDEST JUMPDEST SWAP1 PUSH1 0x0 MSTORE PUSH1 0x20 PUSH1 0x0 KECCAK256 SWAP1 PUSH1 0x4 MUL ADD PUSH1 0x1 ADD SLOAD PUSH1 0x0 DUP5 DUP2 SLOAD DUP2 LT PUSH2 0x67D JUMPI PUSH2 0x67C PUSH2 0xDCC JUMP JUMPDEST JUMPDEST SWAP1 PUSH1 0x0 MSTORE PUSH1 0x20 PUSH1 0x0 KECCAK256 SWAP1 PUSH1 0x4 MUL ADD PUSH1 0x1 ADD SLOAD LT SWAP1 POP PUSH2 0x73B JUMP JUMPDEST PUSH1 0x0 DUP3 DUP2 SLOAD DUP2 LT PUSH2 0x6AB JUMPI PUSH2 0x6AA PUSH2 0xDCC JUMP JUMPDEST JUMPDEST SWAP1 PUSH1 0x0 MSTORE PUSH1 0x20 PUSH1 0x0 KECCAK256 SWAP1 PUSH1 0x4 MUL ADD PUSH1 0x3 ADD SLOAD PUSH1 0x0 DUP5 DUP2 SLOAD DUP2 LT PUSH2 0x6D1 JUMPI PUSH2 0x6D0 PUSH2 0xDCC JUMP JUMPDEST JUMPDEST SWAP1 PUSH1 0x0 MSTORE PUSH1 0x20 PUSH1 0x0 KECCAK256 SWAP1 PUSH1 0x4 MUL ADD PUSH1 0x3 ADD SLOAD LT SWAP1 POP PUSH2 0x73B JUMP JUMPDEST PUSH1 0x0 DUP3 DUP2 SLOAD DUP2 LT PUSH2 0x6FF JUMPI PUSH2 0x6FE PUSH2 0xDCC JUMP JUMPDEST JUMPDEST SWAP1 PUSH1 0x0 MSTORE PUSH1 0x20 PUSH1 0x0 KECCAK256 SWAP1 PUSH1 0x4 MUL ADD PUSH1 0x2 ADD SLOAD PUSH1 0x0 DUP5 DUP2 SLOAD DUP2 LT PUSH2 0x725 JUMPI PUSH2 0x724 PUSH2 0xDCC JUMP JUMPDEST JUMPDEST SWAP1 PUSH1 0x0 MSTORE PUSH1 0x20 PUSH1 0x0 KECCAK256 SWAP1 PUSH1 0x4 MUL ADD PUSH1 0x2 ADD SLOAD GT SWAP1 POP JUMPDEST SWAP3 SWAP2 POP POP JUMP JUMPDEST PUSH1 0x0 DUP1 DUP4 DUP2 SLOAD DUP2 LT PUSH2 0x756 JUMPI PUSH2 0x755 PUSH2 0xDCC JUMP JUMPDEST JUMPDEST SWAP1 PUSH1 0x0 MSTORE PUSH1 0x20 PUSH1 0x0 KECCAK256 SWAP1 PUSH1 0x4 MUL ADD PUSH1 0x40 MLOAD DUP1 PUSH1 0x80 ADD PUSH1 0x40 MSTORE SWAP1 DUP2 PUSH1 0x0 DUP3 ADD PUSH1 0x0 SWAP1 SLOAD SWAP1 PUSH2 0x100 EXP SWAP1 DIV PUSH20 0xFFFFFFFFFFFFFFFFFFFFFFFFFFFFFFFFFFFFFFFF AND PUSH20 0xFFFFFFFFFFFFFFFFFFFFFFFFFFFFFFFFFFFFFFFF AND PUSH20 0xFFFFFFFFFFFFFFFFFFFFFFFFFFFFFFFFFFFFFFFF AND DUP2 MSTORE PUSH1 0x20 ADD PUSH1 0x1 DUP3 ADD SLOAD DUP2 MSTORE PUSH1 0x20 ADD PUSH1 0x2 DUP3 ADD SLOAD DUP2 MSTORE PUSH1 0x20 ADD PUSH1 0x3 DUP3 ADD SLOAD DUP2 MSTORE POP POP SWAP1 POP PUSH1 0x0 DUP3 DUP2 SLOAD DUP2 LT PUSH2 0x7F9 JUMPI PUSH2 0x7F8 PUSH2 0xDCC JUMP JUMPDEST JUMPDEST SWAP1 PUSH1 0x0 MSTORE PUSH1 0x20 PUSH1 0x0 KECCAK256 SWAP1 PUSH1 0x4 MUL ADD PUSH1 0x0 DUP5 DUP2 SLOAD DUP2 LT PUSH2 0x81B JUMPI PUSH2 0x81A PUSH2 0xDCC JUMP JUMPDEST JUMPDEST SWAP1 PUSH1 0x0 MSTORE PUSH1 0x20 PUSH1 0x0 KECCAK256 SWAP1 PUSH1 0x4 MUL ADD PUSH1 0x0 DUP3 ADD PUSH1 0x0 SWAP1 SLOAD SWAP1 PUSH2 0x100 EXP SWAP1 DIV PUSH20 0xFFFFFFFFFFFFFFFFFFFFFFFFFFFFFFFFFFFFFFFF AND DUP2 PUSH1 0x0 ADD PUSH1 0x0 PUSH2 0x100 EXP DUP2 SLOAD DUP2 PUSH20 0xFFFFFFFFFFFFFFFFFFFFFFFFFFFFFFFFFFFFFFFF MUL NOT AND SWAP1 DUP4 PUSH20 0xFFFFFFFFFFFFFFFFFFFFFFFFFFFFFFFFFFFFFFFF AND MUL OR SWAP1 SSTORE POP PUSH1 0x1 DUP3 ADD SLOAD DUP2 PUSH1 0x1 ADD SSTORE PUSH1 0x2 DUP3 ADD SLOAD DUP2 PUSH1 0x2 ADD SSTORE PUSH1 0x3 DUP3 ADD SLOAD DUP2 PUSH1 0x3 ADD SSTORE SWAP1 POP POP DUP1 PUSH1 0x0 DUP4 DUP2 SLOAD DUP2 LT PUSH2 0x8C6 JUMPI PUSH2 0x8C5 PUSH2 0xDCC JUMP JUMPDEST JUMPDEST SWAP1 PUSH1 0x0 MSTORE PUSH1 0x20 PUSH1 0x0 KECCAK256 SWAP1 PUSH1 0x4 MUL ADD PUSH1 0x0 DUP3 ADD MLOAD DUP2 PUSH1 0x0 ADD PUSH1 0x0 PUSH2 0x100 EXP DUP2 SLOAD DUP2 PUSH20 0xFFFFFFFFFFFFFFFFFFFFFFFFFFFFFFFFFFFFFFFF MUL NOT AND SWAP1 DUP4 PUSH20 0xFFFFFFFFFFFFFFFFFFFFFFFFFFFFFFFFFFFFFFFF AND MUL OR SWAP1 SSTORE POP PUSH1 0x20 DUP3 ADD MLOAD DUP2 PUSH1 0x1 ADD SSTORE PUSH1 0x40 DUP3 ADD MLOAD DUP2 PUSH1 0x2 ADD SSTORE PUSH1 0x60 DUP3 ADD MLOAD DUP2 PUSH1 0x3 ADD SSTORE SWAP1 POP POP POP POP POP JUMP JUMPDEST PUSH1 0x0 PUSH1 0x1 DUP3 PUSH1 0x2 PUSH2 0x952 SWAP2 SWAP1 PUSH2 0xE2A JUMP JUMPDEST PUSH2 0x95C SWAP2 SWAP1 PUSH2 0xE6C JUMP JUMPDEST SWAP1 POP PUSH1 0x0 PUSH1 0x2 DUP4 PUSH1 0x2 PUSH2 0x96F SWAP2 SWAP1 PUSH2 0xE2A JUMP JUMPDEST PUSH2 0x979 SWAP2 SWAP1 PUSH2 0xE6C JUMP JUMPDEST SWAP1 POP PUSH1 0x0 DUP4 SWAP1 POP PUSH1 0x0 DUP1 SLOAD SWAP1 POP DUP4 LT DUP1 ISZERO PUSH2 0x99A JUMPI POP PUSH2 0x999 DUP4 DUP3 PUSH2 0x48F JUMP JUMPDEST JUMPDEST ISZERO PUSH2 0x9A3 JUMPI DUP3 SWAP1 POP JUMPDEST PUSH1 0x0 DUP1 SLOAD SWAP1 POP DUP3 LT DUP1 ISZERO PUSH2 0x9BD JUMPI POP PUSH2 0x9BC DUP3 DUP3 PUSH2 0x48F JUMP JUMPDEST JUMPDEST ISZERO PUSH2 0x9C6 JUMPI DUP2 SWAP1 POP JUMPDEST DUP4 DUP2 EQ PUSH2 0x9E1 JUMPI PUSH2 0x9D7 DUP5 DUP3 PUSH2 0x741 JUMP JUMPDEST PUSH2 0x9E0 DUP2 PUSH2 0x941 JUMP JUMPDEST JUMPDEST POP POP POP POP JUMP JUMPDEST PUSH1 0x40 MLOAD DUP1 PUSH1 0x80 ADD PUSH1 0x40 MSTORE DUP1 PUSH1 0x0 PUSH20 0xFFFFFFFFFFFFFFFFFFFFFFFFFFFFFFFFFFFFFFFF AND DUP2 MSTORE PUSH1 0x20 ADD PUSH1 0x0 DUP2 MSTORE PUSH1 0x20 ADD PUSH1 0x0 DUP2 MSTORE PUSH1 0x20 ADD PUSH1 0x0 DUP2 MSTORE POP SWAP1 JUMP JUMPDEST PUSH1 0x0 PUSH1 0x40 MLOAD SWAP1 POP SWAP1 JUMP JUMPDEST PUSH1 0x0 DUP1 REVERT JUMPDEST PUSH1 0x0 DUP1 REVERT JUMPDEST PUSH1 0x0 PUSH1 0x1F NOT PUSH1 0x1F DUP4 ADD AND SWAP1 POP SWAP2 SWAP1 POP JUMP JUMPDEST PUSH32 0x4E487B7100000000000000000000000000000000000000000000000000000000 PUSH1 0x0 MSTORE PUSH1 0x41 PUSH1 0x4 MSTORE PUSH1 0x24 PUSH1 0x0 REVERT JUMPDEST PUSH2 0xA82 DUP3 PUSH2 0xA39 JUMP JUMPDEST DUP2 ADD DUP2 DUP2 LT PUSH8 0xFFFFFFFFFFFFFFFF DUP3 GT OR ISZERO PUSH2 0xAA1 JUMPI PUSH2 0xAA0 PUSH2 0xA4A JUMP JUMPDEST JUMPDEST DUP1 PUSH1 0x40 MSTORE POP POP POP JUMP JUMPDEST PUSH1 0x0 PUSH2 0xAB4 PUSH2 0xA25 JUMP JUMPDEST SWAP1 POP PUSH2 0xAC0 DUP3 DUP3 PUSH2 0xA79 JUMP JUMPDEST SWAP2 SWAP1 POP JUMP JUMPDEST PUSH1 0x0 PUSH20 0xFFFFFFFFFFFFFFFFFFFFFFFFFFFFFFFFFFFFFFFF DUP3 AND SWAP1 POP SWAP2 SWAP1 POP JUMP JUMPDEST PUSH1 0x0 PUSH2 0xAF0 DUP3 PUSH2 0xAC5 JUMP JUMPDEST SWAP1 POP SWAP2 SWAP1 POP JUMP JUMPDEST PUSH2 0xB00 DUP2 PUSH2 0xAE5 JUMP JUMPDEST DUP2 EQ PUSH2 0xB0B JUMPI PUSH1 0x0 DUP1 REVERT JUMPDEST POP JUMP JUMPDEST PUSH1 0x0 DUP2 CALLDATALOAD SWAP1 POP PUSH2 0xB1D DUP2 PUSH2 0xAF7 JUMP JUMPDEST SWAP3 SWAP2 POP POP JUMP JUMPDEST PUSH1 0x0 DUP2 SWAP1 POP SWAP2 SWAP1 POP JUMP JUMPDEST PUSH2 0xB36 DUP2 PUSH2 0xB23 JUMP JUMPDEST DUP2 EQ PUSH2 0xB41 JUMPI PUSH1 0x0 DUP1 REVERT JUMPDEST POP JUMP JUMPDEST PUSH1 0x0 DUP2 CALLDATALOAD SWAP1 POP PUSH2 0xB53 DUP2 PUSH2 0xB2D JUMP JUMPDEST SWAP3 SWAP2 POP POP JUMP JUMPDEST PUSH1 0x0 PUSH1 0x80 DUP3 DUP5 SUB SLT ISZERO PUSH2 0xB6F JUMPI PUSH2 0xB6E PUSH2 0xA34 JUMP JUMPDEST JUMPDEST PUSH2 0xB79 PUSH1 0x80 PUSH2 0xAAA JUMP JUMPDEST SWAP1 POP PUSH1 0x0 PUSH2 0xB89 DUP5 DUP3 DUP6 ADD PUSH2 0xB0E JUMP JUMPDEST PUSH1 0x0 DUP4 ADD MSTORE POP PUSH1 0x20 PUSH2 0xB9D DUP5 DUP3 DUP6 ADD PUSH2 0xB44 JUMP JUMPDEST PUSH1 0x20 DUP4 ADD MSTORE POP PUSH1 0x40 PUSH2 0xBB1 DUP5 DUP3 DUP6 ADD PUSH2 0xB44 JUMP JUMPDEST PUSH1 0x40 DUP4 ADD MSTORE POP PUSH1 0x60 PUSH2 0xBC5 DUP5 DUP3 DUP6 ADD PUSH2 0xB44 JUMP JUMPDEST PUSH1 0x60 DUP4 ADD MSTORE POP SWAP3 SWAP2 POP POP JUMP JUMPDEST PUSH1 0x0 PUSH1 0x80 DUP3 DUP5 SUB SLT ISZERO PUSH2 0xBE7 JUMPI PUSH2 0xBE6 PUSH2 0xA2F JUMP JUMPDEST JUMPDEST PUSH1 0x0 PUSH2 0xBF5 DUP5 DUP3 DUP6 ADD PUSH2 0xB59 JUMP JUMPDEST SWAP2 POP POP SWAP3 SWAP2 POP POP JUMP JUMPDEST PUSH2 0xC07 DUP2 PUSH2 0xAE5 JUMP JUMPDEST DUP3 MSTORE POP POP JUMP JUMPDEST PUSH2 0xC16 DUP2 PUSH2 0xB23 JUMP JUMPDEST DUP3 MSTORE POP POP JUMP JUMPDEST PUSH1 0x80 DUP3 ADD PUSH1 0x0 DUP3 ADD MLOAD PUSH2 0xC32 PUSH1 0x0 DUP6 ADD DUP3 PUSH2 0xBFE JUMP JUMPDEST POP PUSH1 0x20 DUP3 ADD MLOAD PUSH2 0xC45 PUSH1 0x20 DUP6 ADD DUP3 PUSH2 0xC0D JUMP JUMPDEST POP PUSH1 0x40 DUP3 ADD MLOAD PUSH2 0xC58 PUSH1 0x40 DUP6 ADD DUP3 PUSH2 0xC0D JUMP JUMPDEST POP PUSH1 0x60 DUP3 ADD MLOAD PUSH2 0xC6B PUSH1 0x60 DUP6 ADD DUP3 PUSH2 0xC0D JUMP JUMPDEST POP POP POP POP JUMP JUMPDEST PUSH1 0x0 PUSH1 0x80 DUP3 ADD SWAP1 POP PUSH2 0xC86 PUSH1 0x0 DUP4 ADD DUP5 PUSH2 0xC1C JUMP JUMPDEST SWAP3 SWAP2 POP POP JUMP JUMPDEST PUSH32 0x4E487B7100000000000000000000000000000000000000000000000000000000 PUSH1 0x0 MSTORE PUSH1 0x11 PUSH1 0x4 MSTORE PUSH1 0x24 PUSH1 0x0 REVERT JUMPDEST PUSH1 0x0 PUSH2 0xCC6 DUP3 PUSH2 0xB23 JUMP JUMPDEST SWAP2 POP PUSH2 0xCD1 DUP4 PUSH2 0xB23 JUMP JUMPDEST SWAP3 POP DUP3 DUP3 SUB SWAP1 POP DUP2 DUP2 GT ISZERO PUSH2 0xCE9 JUMPI PUSH2 0xCE8 PUSH2 0xC8C JUMP JUMPDEST JUMPDEST SWAP3 SWAP2 POP POP JUMP JUMPDEST PUSH32 0x4E487B7100000000000000000000000000000000000000000000000000000000 PUSH1 0x0 MSTORE PUSH1 0x12 PUSH1 0x4 MSTORE PUSH1 0x24 PUSH1 0x0 REVERT JUMPDEST PUSH1 0x0 PUSH2 0xD29 DUP3 PUSH2 0xB23 JUMP JUMPDEST SWAP2 POP PUSH2 0xD34 DUP4 PUSH2 0xB23 JUMP JUMPDEST SWAP3 POP DUP3 PUSH2 0xD44 JUMPI PUSH2 0xD43 PUSH2 0xCEF JUMP JUMPDEST JUMPDEST DUP3 DUP3 DIV SWAP1 POP SWAP3 SWAP2 POP POP JUMP JUMPDEST PUSH1 0x0 DUP3 DUP3 MSTORE PUSH1 0x20 DUP3 ADD SWAP1 POP SWAP3 SWAP2 POP POP JUMP JUMPDEST PUSH32 0x6865617020697320656D70747900000000000000000000000000000000000000 PUSH1 0x0 DUP3 ADD MSTORE POP JUMP JUMPDEST PUSH1 0x0 PUSH2 0xD96 PUSH1 0xD DUP4 PUSH2 0xD4F JUMP JUMPDEST SWAP2 POP PUSH2 0xDA1 DUP3 PUSH2 0xD60 JUMP JUMPDEST PUSH1 0x20 DUP3 ADD SWAP1 POP SWAP2 SWAP1 POP JUMP JUMPDEST PUSH1 0x0 PUSH1 0x20 DUP3 ADD SWAP1 POP DUP2 DUP2 SUB PUSH1 0x0 DUP4 ADD MSTORE PUSH2 0xDC5 DUP2 PUSH2 0xD89 JUMP JUMPDEST SWAP1 POP SWAP2 SWAP1 POP JUMP JUMPDEST PUSH32 0x4E487B7100000000000000000000000000000000000000000000000000000000 PUSH1 0x0 MSTORE PUSH1 0x32 PUSH1 0x4 MSTORE PUSH1 0x24 PUSH1 0x0 REVERT JUMPDEST PUSH32 0x4E487B7100000000000000000000000000000000000000000000000000000000 PUSH1 0x0 MSTORE PUSH1 0x31 PUSH1 0x4 MSTORE PUSH1 0x24 PUSH1 0x0 REVERT JUMPDEST PUSH1 0x0 PUSH2 0xE35 DUP3 PUSH2 0xB23 JUMP JUMPDEST SWAP2 POP PUSH2 0xE40 DUP4 PUSH2 0xB23 JUMP JUMPDEST SWAP3 POP DUP3 DUP3 MUL PUSH2 0xE4E DUP2 PUSH2 0xB23 JUMP JUMPDEST SWAP2 POP DUP3 DUP3 DIV DUP5 EQ DUP4 ISZERO OR PUSH2 0xE65 JUMPI PUSH2 0xE64 PUSH2 0xC8C JUMP JUMPDEST JUMPDEST POP SWAP3 SWAP2 POP POP JUMP JUMPDEST PUSH1 0x0 PUSH2 0xE77 DUP3 PUSH2 0xB23 JUMP JUMPDEST SWAP2 POP PUSH2 0xE82 DUP4 PUSH2 0xB23 JUMP JUMPDEST SWAP3 POP DUP3 DUP3 ADD SWAP1 POP DUP1 DUP3 GT ISZERO PUSH2 0xE9A JUMPI PUSH2 0xE99 PUSH2 0xC8C JUMP JUMPDEST JUMPDEST SWAP3 SWAP2 POP POP JUMP INVALID LOG2 PUSH5 0x6970667358 0x22 SLT KECCAK256 BASEFEE DUP12 LT 0x5E SWAP13 0xAE LOG0 DUP3 DUP8 0xB7 0xAF 0xDD 0xD2 RETURNDATACOPY 0xCD 0xD8 0xD0 0xAA 0xC1 0xEA 0xE0 PUSH25 0x21CFA62BB8BD2BA38F364736F6C6343000813003300000000 "
				},
				"gasEstimates": {
					"creation": {
						"codeDepositCost": "759600",
						"executionCost": "115858",
						"totalCost": "875458"
					},
					"external": {
						"pop()": "infinite",
						"push((address,uint256,uint256,uint256))": "infinite",
						"top()": "infinite"
					},
					"internal": {
						"_conpare(uint256,uint256)": "34577",
						"_heapify(uint256)": "infinite",
						"_swap(uint256,uint256)": "infinite"
					}
				},
				"methodIdentifiers": {
					"pop()": "a4ece52c",
					"push((address,uint256,uint256,uint256))": "7829c469",
					"top()": "fe6dcdba"
				}
			},
			"storageLayout": {
				"storage": [
					{
						"astId": 416,
						"contract": "W1/heap.sol:MaxHeap",
						"label": "heap",
						"offset": 0,
						"slot": "0",
						"type": "t_array(t_struct(Order)412_storage)dyn_storage"
					}
				],
				"types": {
					"t_address": {
						"encoding": "inplace",
						"label": "address",
						"numberOfBytes": "20"
					},
					"t_array(t_struct(Order)412_storage)dyn_storage": {
						"base": "t_struct(Order)412_storage",
						"encoding": "dynamic_array",
						"label": "struct MaxHeap.Order[]",
						"numberOfBytes": "32"
					},
					"t_struct(Order)412_storage": {
						"encoding": "inplace",
						"label": "struct MaxHeap.Order",
						"members": [
							{
								"astId": 405,
								"contract": "W1/heap.sol:MaxHeap",
								"label": "trader",
								"offset": 0,
								"slot": "0",
								"type": "t_address"
							},
							{
								"astId": 407,
								"contract": "W1/heap.sol:MaxHeap",
								"label": "amount",
								"offset": 0,
								"slot": "1",
								"type": "t_uint256"
							},
							{
								"astId": 409,
								"contract": "W1/heap.sol:MaxHeap",
								"label": "price",
								"offset": 0,
								"slot": "2",
								"type": "t_uint256"
							},
							{
								"astId": 411,
								"contract": "W1/heap.sol:MaxHeap",
								"label": "timestamp",
								"offset": 0,
								"slot": "3",
								"type": "t_uint256"
							}
						],
						"numberOfBytes": "128"
					},
					"t_uint256": {
						"encoding": "inplace",
						"label": "uint256",
						"numberOfBytes": "32"
					}
				}
			},
			"userdoc": {
				"kind": "user",
				"methods": {},
				"version": 1
			}
		}
	}
}