{
	"W1/erc721treapNOT.sol": {
		"treap": {
			"abi": [
				{
					"inputs": [],
					"stateMutability": "nonpayable",
					"type": "constructor"
				},
				{
					"inputs": [
						{
							"internalType": "uint256",
							"name": "_now",
							"type": "uint256"
						}
					],
					"name": "get_Size",
					"outputs": [
						{
							"internalType": "uint256",
							"name": "",
							"type": "uint256"
						}
					],
					"stateMutability": "view",
					"type": "function"
				},
				{
					"inputs": [
						{
							"internalType": "uint256",
							"name": "_now",
							"type": "uint256"
						}
					],
					"name": "get_Sum",
					"outputs": [
						{
							"internalType": "uint256",
							"name": "",
							"type": "uint256"
						}
					],
					"stateMutability": "view",
					"type": "function"
				},
				{
					"inputs": [
						{
							"internalType": "address",
							"name": "_whitelist_user",
							"type": "address"
						}
					],
					"name": "insert",
					"outputs": [],
					"stateMutability": "nonpayable",
					"type": "function"
				},
				{
					"inputs": [
						{
							"internalType": "uint256",
							"name": "a",
							"type": "uint256"
						},
						{
							"internalType": "uint256",
							"name": "b",
							"type": "uint256"
						}
					],
					"name": "merge",
					"outputs": [
						{
							"internalType": "uint256",
							"name": "",
							"type": "uint256"
						}
					],
					"stateMutability": "nonpayable",
					"type": "function"
				},
				{
					"inputs": [
						{
							"internalType": "uint256",
							"name": "_now",
							"type": "uint256"
						}
					],
					"name": "pull",
					"outputs": [],
					"stateMutability": "nonpayable",
					"type": "function"
				},
				{
					"inputs": [],
					"name": "random",
					"outputs": [
						{
							"internalType": "uint256",
							"name": "",
							"type": "uint256"
						}
					],
					"stateMutability": "view",
					"type": "function"
				},
				{
					"inputs": [
						{
							"internalType": "uint256",
							"name": "_now",
							"type": "uint256"
						},
						{
							"internalType": "uint256",
							"name": "_index",
							"type": "uint256"
						}
					],
					"name": "splitByIndex",
					"outputs": [
						{
							"internalType": "uint256",
							"name": "",
							"type": "uint256"
						},
						{
							"internalType": "uint256",
							"name": "",
							"type": "uint256"
						}
					],
					"stateMutability": "nonpayable",
					"type": "function"
				}
			],
			"devdoc": {
				"kind": "dev",
				"methods": {},
				"version": 1
			},
			"evm": {
				"assembly": "    /* \"W1/erc721treapNOT.sol\":134:3589  contract treap {... */\n  mstore(0x40, 0x80)\n    /* \"W1/erc721treapNOT.sol\":391:392  0 */\n  0x00\n    /* \"W1/erc721treapNOT.sol\":376:392  uint256 size = 0 */\n  0x01\n  sstore\n    /* \"W1/erc721treapNOT.sol\":3284:3350  0xffffffffffffffffffffffffffffffffffffffffffffffffffffffffffffffff */\n  0xffffffffffffffffffffffffffffffffffffffffffffffffffffffffffffffff\n    /* \"W1/erc721treapNOT.sol\":3266:3350  uint256 MAX_INT = 0xffffffffffffffffffffffffffffffffffffffffffffffffffffffffffffffff */\n  0x02\n  sstore\n    /* \"W1/erc721treapNOT.sol\":3418:3419  0 */\n  0x00\n    /* \"W1/erc721treapNOT.sol\":3393:3421  abi.encodePacked(address(0)) */\n  add(0x20, mload(0x40))\n  tag_1\n  swap2\n  swap1\n  tag_2\n  jump\t// in\ntag_1:\n  mload(0x40)\n  0x20\n  dup2\n  dup4\n  sub\n  sub\n  dup2\n  mstore\n  swap1\n  0x40\n  mstore\n    /* \"W1/erc721treapNOT.sol\":3383:3422  keccak256(abi.encodePacked(address(0))) */\n  dup1\n  mload\n  swap1\n  0x20\n  add\n  keccak256\n    /* \"W1/erc721treapNOT.sol\":3375:3423  uint256(keccak256(abi.encodePacked(address(0)))) */\n  0x00\n  shr\n    /* \"W1/erc721treapNOT.sol\":3357:3423  uint256 keccak0 = uint256(keccak256(abi.encodePacked(address(0)))) */\n  0x03\n  sstore\n    /* \"W1/erc721treapNOT.sol\":429:629  constructor() {... */\n  callvalue\n  dup1\n  iszero\n  tag_3\n  jumpi\n  0x00\n  dup1\n  revert\ntag_3:\n  pop\n    /* \"W1/erc721treapNOT.sol\":454:458  root */\n  0x00\n    /* \"W1/erc721treapNOT.sol\":464:620  Node(0,MAX_INT, 0, uint256(keccak256(abi.encodePacked(address(0)))), ... */\n  mload(0x40)\n  dup1\n  0xe0\n  add\n  0x40\n  mstore\n  dup1\n    /* \"W1/erc721treapNOT.sol\":469:470  0 */\n  0x00\n    /* \"W1/erc721treapNOT.sol\":464:620  Node(0,MAX_INT, 0, uint256(keccak256(abi.encodePacked(address(0)))), ... */\n  dup2\n  mstore\n  0x20\n  add\n    /* \"W1/erc721treapNOT.sol\":471:478  MAX_INT */\n  sload(0x02)\n    /* \"W1/erc721treapNOT.sol\":464:620  Node(0,MAX_INT, 0, uint256(keccak256(abi.encodePacked(address(0)))), ... */\n  dup2\n  mstore\n  0x20\n  add\n    /* \"W1/erc721treapNOT.sol\":480:481  0 */\n  0x00\n    /* \"W1/erc721treapNOT.sol\":464:620  Node(0,MAX_INT, 0, uint256(keccak256(abi.encodePacked(address(0)))), ... */\n  dup2\n  mstore\n  0x20\n  add\n    /* \"W1/erc721treapNOT.sol\":526:527  0 */\n  0x00\n    /* \"W1/erc721treapNOT.sol\":501:529  abi.encodePacked(address(0)) */\n  add(0x20, mload(0x40))\n  tag_6\n  swap2\n  swap1\n  tag_2\n  jump\t// in\ntag_6:\n  mload(0x40)\n  0x20\n  dup2\n  dup4\n  sub\n  sub\n  dup2\n  mstore\n  swap1\n  0x40\n  mstore\n    /* \"W1/erc721treapNOT.sol\":491:530  keccak256(abi.encodePacked(address(0))) */\n  dup1\n  mload\n  swap1\n  0x20\n  add\n  keccak256\n    /* \"W1/erc721treapNOT.sol\":483:531  uint256(keccak256(abi.encodePacked(address(0)))) */\n  0x00\n  shr\n    /* \"W1/erc721treapNOT.sol\":464:620  Node(0,MAX_INT, 0, uint256(keccak256(abi.encodePacked(address(0)))), ... */\n  dup2\n  mstore\n  0x20\n  add\n    /* \"W1/erc721treapNOT.sol\":586:587  0 */\n  0x00\n    /* \"W1/erc721treapNOT.sol\":597:598  0 */\n  dup1\n    /* \"W1/erc721treapNOT.sol\":608:609  0 */\n  0x00\n    /* \"W1/erc721treapNOT.sol\":561:611  abi.encodePacked(address(0),address(0),address(0)) */\n  add(0x20, mload(0x40))\n  tag_7\n  swap4\n  swap3\n  swap2\n  swap1\n  tag_8\n  jump\t// in\ntag_7:\n  mload(0x40)\n  0x20\n  dup2\n  dup4\n  sub\n  sub\n  dup2\n  mstore\n  swap1\n  0x40\n  mstore\n    /* \"W1/erc721treapNOT.sol\":551:612  keccak256(abi.encodePacked(address(0),address(0),address(0))) */\n  dup1\n  mload\n  swap1\n  0x20\n  add\n  keccak256\n    /* \"W1/erc721treapNOT.sol\":543:613  uint256(keccak256(abi.encodePacked(address(0),address(0),address(0)))) */\n  0x00\n  shr\n    /* \"W1/erc721treapNOT.sol\":464:620  Node(0,MAX_INT, 0, uint256(keccak256(abi.encodePacked(address(0)))), ... */\n  dup2\n  mstore\n  0x20\n  add\n    /* \"W1/erc721treapNOT.sol\":615:616  0 */\n  0x00\n    /* \"W1/erc721treapNOT.sol\":464:620  Node(0,MAX_INT, 0, uint256(keccak256(abi.encodePacked(address(0)))), ... */\n  dup2\n  mstore\n  0x20\n  add\n    /* \"W1/erc721treapNOT.sol\":618:619  0 */\n  0x00\n    /* \"W1/erc721treapNOT.sol\":464:620  Node(0,MAX_INT, 0, uint256(keccak256(abi.encodePacked(address(0)))), ... */\n  dup2\n  mstore\n  pop\n    /* \"W1/erc721treapNOT.sol\":454:621  root.push(Node(0,MAX_INT, 0, uint256(keccak256(abi.encodePacked(address(0)))), ... */\n  swap1\n  dup1\n  0x01\n  dup2\n  sload\n  add\n  dup1\n  dup3\n  sstore\n  dup1\n  swap2\n  pop\n  pop\n  0x01\n  swap1\n  sub\n  swap1\n  0x00\n  mstore\n  keccak256(0x00, 0x20)\n  swap1\n  0x07\n  mul\n  add\n  0x00\n  swap1\n  swap2\n  swap1\n  swap2\n  swap1\n  swap2\n  pop\n  0x00\n  dup3\n  add\n  mload\n  dup2\n  0x00\n  add\n  sstore\n  0x20\n  dup3\n  add\n  mload\n  dup2\n  0x01\n  add\n  sstore\n  0x40\n  dup3\n  add\n  mload\n  dup2\n  0x02\n  add\n  sstore\n  0x60\n  dup3\n  add\n  mload\n  dup2\n  0x03\n  add\n  sstore\n  0x80\n  dup3\n  add\n  mload\n  dup2\n  0x04\n  add\n  sstore\n  0xa0\n  dup3\n  add\n  mload\n  dup2\n  0x05\n  add\n  sstore\n  0xc0\n  dup3\n  add\n  mload\n  dup2\n  0x06\n  add\n  sstore\n  pop\n  pop\n    /* \"W1/erc721treapNOT.sol\":134:3589  contract treap {... */\n  jump(tag_10)\n    /* \"#utility.yul\":7:133   */\ntag_11:\n    /* \"#utility.yul\":44:51   */\n  0x00\n    /* \"#utility.yul\":84:126   */\n  0xffffffffffffffffffffffffffffffffffffffff\n    /* \"#utility.yul\":77:82   */\n  dup3\n    /* \"#utility.yul\":73:127   */\n  and\n    /* \"#utility.yul\":62:127   */\n  swap1\n  pop\n    /* \"#utility.yul\":7:133   */\n  swap2\n  swap1\n  pop\n  jump\t// out\n    /* \"#utility.yul\":139:235   */\ntag_12:\n    /* \"#utility.yul\":176:183   */\n  0x00\n    /* \"#utility.yul\":205:229   */\n  tag_20\n    /* \"#utility.yul\":223:228   */\n  dup3\n    /* \"#utility.yul\":205:229   */\n  tag_11\n  jump\t// in\ntag_20:\n    /* \"#utility.yul\":194:229   */\n  swap1\n  pop\n    /* \"#utility.yul\":139:235   */\n  swap2\n  swap1\n  pop\n  jump\t// out\n    /* \"#utility.yul\":241:335   */\ntag_13:\n    /* \"#utility.yul\":274:282   */\n  0x00\n    /* \"#utility.yul\":322:327   */\n  dup2\n    /* \"#utility.yul\":318:320   */\n  0x60\n    /* \"#utility.yul\":314:328   */\n  shl\n    /* \"#utility.yul\":293:328   */\n  swap1\n  pop\n    /* \"#utility.yul\":241:335   */\n  swap2\n  swap1\n  pop\n  jump\t// out\n    /* \"#utility.yul\":341:435   */\ntag_14:\n    /* \"#utility.yul\":380:387   */\n  0x00\n    /* \"#utility.yul\":409:429   */\n  tag_23\n    /* \"#utility.yul\":423:428   */\n  dup3\n    /* \"#utility.yul\":409:429   */\n  tag_13\n  jump\t// in\ntag_23:\n    /* \"#utility.yul\":398:429   */\n  swap1\n  pop\n    /* \"#utility.yul\":341:435   */\n  swap2\n  swap1\n  pop\n  jump\t// out\n    /* \"#utility.yul\":441:541   */\ntag_15:\n    /* \"#utility.yul\":480:487   */\n  0x00\n    /* \"#utility.yul\":509:535   */\n  tag_25\n    /* \"#utility.yul\":529:534   */\n  dup3\n    /* \"#utility.yul\":509:535   */\n  tag_14\n  jump\t// in\ntag_25:\n    /* \"#utility.yul\":498:535   */\n  swap1\n  pop\n    /* \"#utility.yul\":441:541   */\n  swap2\n  swap1\n  pop\n  jump\t// out\n    /* \"#utility.yul\":547:704   */\ntag_16:\n    /* \"#utility.yul\":652:697   */\n  tag_27\n    /* \"#utility.yul\":672:696   */\n  tag_28\n    /* \"#utility.yul\":690:695   */\n  dup3\n    /* \"#utility.yul\":672:696   */\n  tag_12\n  jump\t// in\ntag_28:\n    /* \"#utility.yul\":652:697   */\n  tag_15\n  jump\t// in\ntag_27:\n    /* \"#utility.yul\":647:650   */\n  dup3\n    /* \"#utility.yul\":640:698   */\n  mstore\n    /* \"#utility.yul\":547:704   */\n  pop\n  pop\n  jump\t// out\n    /* \"#utility.yul\":710:966   */\ntag_2:\n    /* \"#utility.yul\":822:825   */\n  0x00\n    /* \"#utility.yul\":837:912   */\n  tag_30\n    /* \"#utility.yul\":908:911   */\n  dup3\n    /* \"#utility.yul\":899:905   */\n  dup5\n    /* \"#utility.yul\":837:912   */\n  tag_16\n  jump\t// in\ntag_30:\n    /* \"#utility.yul\":937:939   */\n  0x14\n    /* \"#utility.yul\":932:935   */\n  dup3\n    /* \"#utility.yul\":928:940   */\n  add\n    /* \"#utility.yul\":921:940   */\n  swap2\n  pop\n    /* \"#utility.yul\":957:960   */\n  dup2\n    /* \"#utility.yul\":950:960   */\n  swap1\n  pop\n    /* \"#utility.yul\":710:966   */\n  swap3\n  swap2\n  pop\n  pop\n  jump\t// out\n    /* \"#utility.yul\":972:1510   */\ntag_8:\n    /* \"#utility.yul\":1140:1143   */\n  0x00\n    /* \"#utility.yul\":1155:1230   */\n  tag_32\n    /* \"#utility.yul\":1226:1229   */\n  dup3\n    /* \"#utility.yul\":1217:1223   */\n  dup7\n    /* \"#utility.yul\":1155:1230   */\n  tag_16\n  jump\t// in\ntag_32:\n    /* \"#utility.yul\":1255:1257   */\n  0x14\n    /* \"#utility.yul\":1250:1253   */\n  dup3\n    /* \"#utility.yul\":1246:1258   */\n  add\n    /* \"#utility.yul\":1239:1258   */\n  swap2\n  pop\n    /* \"#utility.yul\":1268:1343   */\n  tag_33\n    /* \"#utility.yul\":1339:1342   */\n  dup3\n    /* \"#utility.yul\":1330:1336   */\n  dup6\n    /* \"#utility.yul\":1268:1343   */\n  tag_16\n  jump\t// in\ntag_33:\n    /* \"#utility.yul\":1368:1370   */\n  0x14\n    /* \"#utility.yul\":1363:1366   */\n  dup3\n    /* \"#utility.yul\":1359:1371   */\n  add\n    /* \"#utility.yul\":1352:1371   */\n  swap2\n  pop\n    /* \"#utility.yul\":1381:1456   */\n  tag_34\n    /* \"#utility.yul\":1452:1455   */\n  dup3\n    /* \"#utility.yul\":1443:1449   */\n  dup5\n    /* \"#utility.yul\":1381:1456   */\n  tag_16\n  jump\t// in\ntag_34:\n    /* \"#utility.yul\":1481:1483   */\n  0x14\n    /* \"#utility.yul\":1476:1479   */\n  dup3\n    /* \"#utility.yul\":1472:1484   */\n  add\n    /* \"#utility.yul\":1465:1484   */\n  swap2\n  pop\n    /* \"#utility.yul\":1501:1504   */\n  dup2\n    /* \"#utility.yul\":1494:1504   */\n  swap1\n  pop\n    /* \"#utility.yul\":972:1510   */\n  swap5\n  swap4\n  pop\n  pop\n  pop\n  pop\n  jump\t// out\n    /* \"W1/erc721treapNOT.sol\":134:3589  contract treap {... */\ntag_10:\n  dataSize(sub_0)\n  dup1\n  dataOffset(sub_0)\n  0x00\n  codecopy\n  0x00\n  return\nstop\n\nsub_0: assembly {\n        /* \"W1/erc721treapNOT.sol\":134:3589  contract treap {... */\n      mstore(0x40, 0x80)\n      callvalue\n      dup1\n      iszero\n      tag_1\n      jumpi\n      0x00\n      dup1\n      revert\n    tag_1:\n      pop\n      jumpi(tag_2, lt(calldatasize, 0x04))\n      shr(0xe0, calldataload(0x00))\n      dup1\n      0x5ec01e4d\n      gt\n      tag_10\n      jumpi\n      dup1\n      0x5ec01e4d\n      eq\n      tag_6\n      jumpi\n      dup1\n      0x886e8898\n      eq\n      tag_7\n      jumpi\n      dup1\n      0xbc902ad2\n      eq\n      tag_8\n      jumpi\n      dup1\n      0xd1c2babb\n      eq\n      tag_9\n      jumpi\n      jump(tag_2)\n    tag_10:\n      dup1\n      0x19ea79e0\n      eq\n      tag_3\n      jumpi\n      dup1\n      0x3d6a7290\n      eq\n      tag_4\n      jumpi\n      dup1\n      0x4d0392a8\n      eq\n      tag_5\n      jumpi\n    tag_2:\n      0x00\n      dup1\n      revert\n        /* \"W1/erc721treapNOT.sol\":1051:1168  function get_Sum(uint256 _now) public view returns (uint256){... */\n    tag_3:\n      tag_11\n      0x04\n      dup1\n      calldatasize\n      sub\n      dup2\n      add\n      swap1\n      tag_12\n      swap2\n      swap1\n      tag_13\n      jump\t// in\n    tag_12:\n      tag_14\n      jump\t// in\n    tag_11:\n      mload(0x40)\n      tag_15\n      swap2\n      swap1\n      tag_16\n      jump\t// in\n    tag_15:\n      mload(0x40)\n      dup1\n      swap2\n      sub\n      swap1\n      return\n        /* \"W1/erc721treapNOT.sol\":2039:2604  function splitByIndex(uint256 _now, uint256 _index) public returns (uint256, uint256) { // for modify one point... */\n    tag_4:\n      tag_17\n      0x04\n      dup1\n      calldatasize\n      sub\n      dup2\n      add\n      swap1\n      tag_18\n      swap2\n      swap1\n      tag_19\n      jump\t// in\n    tag_18:\n      tag_20\n      jump\t// in\n    tag_17:\n      mload(0x40)\n      tag_21\n      swap3\n      swap2\n      swap1\n      tag_22\n      jump\t// in\n    tag_21:\n      mload(0x40)\n      dup1\n      swap2\n      sub\n      swap1\n      return\n        /* \"W1/erc721treapNOT.sol\":1295:1597  function pull(uint256 _now) public {... */\n    tag_5:\n      tag_23\n      0x04\n      dup1\n      calldatasize\n      sub\n      dup2\n      add\n      swap1\n      tag_24\n      swap2\n      swap1\n      tag_13\n      jump\t// in\n    tag_24:\n      tag_25\n      jump\t// in\n    tag_23:\n      stop\n        /* \"W1/erc721treapNOT.sol\":3430:3580  function random() public view returns (uint256) {... */\n    tag_6:\n      tag_26\n      tag_27\n      jump\t// in\n    tag_26:\n      mload(0x40)\n      tag_28\n      swap2\n      swap1\n      tag_16\n      jump\t// in\n    tag_28:\n      mload(0x40)\n      dup1\n      swap2\n      sub\n      swap1\n      return\n        /* \"W1/erc721treapNOT.sol\":1176:1289  function get_Size(uint256 _now) public view returns (uint256){... */\n    tag_7:\n      tag_29\n      0x04\n      dup1\n      calldatasize\n      sub\n      dup2\n      add\n      swap1\n      tag_30\n      swap2\n      swap1\n      tag_13\n      jump\t// in\n    tag_30:\n      tag_31\n      jump\t// in\n    tag_29:\n      mload(0x40)\n      tag_32\n      swap2\n      swap1\n      tag_16\n      jump\t// in\n    tag_32:\n      mload(0x40)\n      dup1\n      swap2\n      sub\n      swap1\n      return\n        /* \"W1/erc721treapNOT.sol\":635:1023  function insert(address _whitelist_user) public{... */\n    tag_8:\n      tag_33\n      0x04\n      dup1\n      calldatasize\n      sub\n      dup2\n      add\n      swap1\n      tag_34\n      swap2\n      swap1\n      tag_35\n      jump\t// in\n    tag_34:\n      tag_36\n      jump\t// in\n    tag_33:\n      stop\n        /* \"W1/erc721treapNOT.sol\":1603:2033  function merge(uint256 a, uint256 b) public returns (uint256) {... */\n    tag_9:\n      tag_37\n      0x04\n      dup1\n      calldatasize\n      sub\n      dup2\n      add\n      swap1\n      tag_38\n      swap2\n      swap1\n      tag_19\n      jump\t// in\n    tag_38:\n      tag_39\n      jump\t// in\n    tag_37:\n      mload(0x40)\n      tag_40\n      swap2\n      swap1\n      tag_16\n      jump\t// in\n    tag_40:\n      mload(0x40)\n      dup1\n      swap2\n      sub\n      swap1\n      return\n        /* \"W1/erc721treapNOT.sol\":1051:1168  function get_Sum(uint256 _now) public view returns (uint256){... */\n    tag_14:\n        /* \"W1/erc721treapNOT.sol\":1103:1110  uint256 */\n      0x00\n        /* \"W1/erc721treapNOT.sol\":1135:1136  0 */\n      dup1\n        /* \"W1/erc721treapNOT.sol\":1129:1133  _now */\n      dup3\n        /* \"W1/erc721treapNOT.sol\":1129:1136  _now!=0 */\n      sub\n        /* \"W1/erc721treapNOT.sol\":1129:1160  _now!=0 ?root[_now].sum:keccak0 */\n      tag_42\n      jumpi\n        /* \"W1/erc721treapNOT.sol\":1153:1160  keccak0 */\n      sload(0x03)\n        /* \"W1/erc721treapNOT.sol\":1129:1160  _now!=0 ?root[_now].sum:keccak0 */\n      jump(tag_43)\n    tag_42:\n        /* \"W1/erc721treapNOT.sol\":1138:1142  root */\n      0x00\n        /* \"W1/erc721treapNOT.sol\":1143:1147  _now */\n      dup3\n        /* \"W1/erc721treapNOT.sol\":1138:1148  root[_now] */\n      dup2\n      sload\n      dup2\n      lt\n      tag_44\n      jumpi\n      tag_45\n      tag_46\n      jump\t// in\n    tag_45:\n    tag_44:\n      swap1\n      0x00\n      mstore\n      keccak256(0x00, 0x20)\n      swap1\n      0x07\n      mul\n      add\n        /* \"W1/erc721treapNOT.sol\":1138:1152  root[_now].sum */\n      0x04\n      add\n      sload\n        /* \"W1/erc721treapNOT.sol\":1129:1160  _now!=0 ?root[_now].sum:keccak0 */\n    tag_43:\n        /* \"W1/erc721treapNOT.sol\":1122:1160  return _now!=0 ?root[_now].sum:keccak0 */\n      swap1\n      pop\n        /* \"W1/erc721treapNOT.sol\":1051:1168  function get_Sum(uint256 _now) public view returns (uint256){... */\n      swap2\n      swap1\n      pop\n      jump\t// out\n        /* \"W1/erc721treapNOT.sol\":2039:2604  function splitByIndex(uint256 _now, uint256 _index) public returns (uint256, uint256) { // for modify one point... */\n    tag_20:\n        /* \"W1/erc721treapNOT.sol\":2107:2114  uint256 */\n      0x00\n        /* \"W1/erc721treapNOT.sol\":2116:2123  uint256 */\n      dup1\n        /* \"W1/erc721treapNOT.sol\":2169:2170  0 */\n      0x00\n        /* \"W1/erc721treapNOT.sol\":2163:2167  _now */\n      dup5\n        /* \"W1/erc721treapNOT.sol\":2163:2170  _now==0 */\n      sub\n        /* \"W1/erc721treapNOT.sol\":2160:2184  if(_now==0) return (0,0) */\n      tag_49\n      jumpi\n        /* \"W1/erc721treapNOT.sol\":2180:2181  0 */\n      0x00\n        /* \"W1/erc721treapNOT.sol\":2182:2183  0 */\n      dup1\n        /* \"W1/erc721treapNOT.sol\":2172:2184  return (0,0) */\n      swap2\n      pop\n      swap2\n      pop\n      jump(tag_48)\n        /* \"W1/erc721treapNOT.sol\":2160:2184  if(_now==0) return (0,0) */\n    tag_49:\n        /* \"W1/erc721treapNOT.sol\":2216:2222  _index */\n      dup3\n        /* \"W1/erc721treapNOT.sol\":2198:2202  root */\n      0x00\n        /* \"W1/erc721treapNOT.sol\":2203:2207  _now */\n      dup6\n        /* \"W1/erc721treapNOT.sol\":2198:2208  root[_now] */\n      dup2\n      sload\n      dup2\n      lt\n      tag_50\n      jumpi\n      tag_51\n      tag_46\n      jump\t// in\n    tag_51:\n    tag_50:\n      swap1\n      0x00\n      mstore\n      keccak256(0x00, 0x20)\n      swap1\n      0x07\n      mul\n      add\n        /* \"W1/erc721treapNOT.sol\":2198:2214  root[_now].index */\n      0x00\n      add\n      sload\n        /* \"W1/erc721treapNOT.sol\":2198:2222  root[_now].index<=_index */\n      gt\n        /* \"W1/erc721treapNOT.sol\":2195:2597  if(root[_now].index<=_index){... */\n      tag_53\n      jumpi\n        /* \"W1/erc721treapNOT.sol\":2239:2248  uint256 a */\n      0x00\n        /* \"W1/erc721treapNOT.sol\":2250:2259  uint256 b */\n      dup1\n        /* \"W1/erc721treapNOT.sol\":2263:2301  splitByIndex(root[_now].right, _index) */\n      tag_54\n        /* \"W1/erc721treapNOT.sol\":2276:2280  root */\n      0x00\n        /* \"W1/erc721treapNOT.sol\":2281:2285  _now */\n      dup8\n        /* \"W1/erc721treapNOT.sol\":2276:2286  root[_now] */\n      dup2\n      sload\n      dup2\n      lt\n      tag_55\n      jumpi\n      tag_56\n      tag_46\n      jump\t// in\n    tag_56:\n    tag_55:\n      swap1\n      0x00\n      mstore\n      keccak256(0x00, 0x20)\n      swap1\n      0x07\n      mul\n      add\n        /* \"W1/erc721treapNOT.sol\":2276:2292  root[_now].right */\n      0x06\n      add\n      sload\n        /* \"W1/erc721treapNOT.sol\":2294:2300  _index */\n      dup7\n        /* \"W1/erc721treapNOT.sol\":2263:2275  splitByIndex */\n      tag_20\n        /* \"W1/erc721treapNOT.sol\":2263:2301  splitByIndex(root[_now].right, _index) */\n      jump\t// in\n    tag_54:\n        /* \"W1/erc721treapNOT.sol\":2238:2301  (uint256 a, uint256 b) = splitByIndex(root[_now].right, _index) */\n      swap2\n      pop\n      swap2\n      pop\n        /* \"W1/erc721treapNOT.sol\":2335:2336  a */\n      dup2\n        /* \"W1/erc721treapNOT.sol\":2316:2320  root */\n      0x00\n        /* \"W1/erc721treapNOT.sol\":2321:2325  _now */\n      dup8\n        /* \"W1/erc721treapNOT.sol\":2316:2326  root[_now] */\n      dup2\n      sload\n      dup2\n      lt\n      tag_58\n      jumpi\n      tag_59\n      tag_46\n      jump\t// in\n    tag_59:\n    tag_58:\n      swap1\n      0x00\n      mstore\n      keccak256(0x00, 0x20)\n      swap1\n      0x07\n      mul\n      add\n        /* \"W1/erc721treapNOT.sol\":2316:2332  root[_now].right */\n      0x06\n      add\n        /* \"W1/erc721treapNOT.sol\":2316:2336  root[_now].right = a */\n      dup2\n      swap1\n      sstore\n      pop\n        /* \"W1/erc721treapNOT.sol\":2351:2361  pull(_now) */\n      tag_61\n        /* \"W1/erc721treapNOT.sol\":2356:2360  _now */\n      dup7\n        /* \"W1/erc721treapNOT.sol\":2351:2355  pull */\n      tag_25\n        /* \"W1/erc721treapNOT.sol\":2351:2361  pull(_now) */\n      jump\t// in\n    tag_61:\n        /* \"W1/erc721treapNOT.sol\":2384:2388  _now */\n      dup6\n        /* \"W1/erc721treapNOT.sol\":2390:2391  b */\n      dup2\n        /* \"W1/erc721treapNOT.sol\":2376:2392  return (_now, b) */\n      swap4\n      pop\n      swap4\n      pop\n      pop\n      pop\n      jump(tag_48)\n        /* \"W1/erc721treapNOT.sol\":2195:2597  if(root[_now].index<=_index){... */\n    tag_53:\n        /* \"W1/erc721treapNOT.sol\":2434:2443  uint256 a */\n      0x00\n        /* \"W1/erc721treapNOT.sol\":2445:2454  uint256 b */\n      dup1\n        /* \"W1/erc721treapNOT.sol\":2458:2495  splitByIndex(root[_now].left, _index) */\n      tag_63\n        /* \"W1/erc721treapNOT.sol\":2471:2475  root */\n      0x00\n        /* \"W1/erc721treapNOT.sol\":2476:2480  _now */\n      dup8\n        /* \"W1/erc721treapNOT.sol\":2471:2481  root[_now] */\n      dup2\n      sload\n      dup2\n      lt\n      tag_64\n      jumpi\n      tag_65\n      tag_46\n      jump\t// in\n    tag_65:\n    tag_64:\n      swap1\n      0x00\n      mstore\n      keccak256(0x00, 0x20)\n      swap1\n      0x07\n      mul\n      add\n        /* \"W1/erc721treapNOT.sol\":2471:2486  root[_now].left */\n      0x05\n      add\n      sload\n        /* \"W1/erc721treapNOT.sol\":2488:2494  _index */\n      dup7\n        /* \"W1/erc721treapNOT.sol\":2458:2470  splitByIndex */\n      tag_20\n        /* \"W1/erc721treapNOT.sol\":2458:2495  splitByIndex(root[_now].left, _index) */\n      jump\t// in\n    tag_63:\n        /* \"W1/erc721treapNOT.sol\":2433:2495  (uint256 a, uint256 b) = splitByIndex(root[_now].left, _index) */\n      swap2\n      pop\n      swap2\n      pop\n        /* \"W1/erc721treapNOT.sol\":2528:2529  b */\n      dup1\n        /* \"W1/erc721treapNOT.sol\":2510:2514  root */\n      0x00\n        /* \"W1/erc721treapNOT.sol\":2515:2519  _now */\n      dup8\n        /* \"W1/erc721treapNOT.sol\":2510:2520  root[_now] */\n      dup2\n      sload\n      dup2\n      lt\n      tag_67\n      jumpi\n      tag_68\n      tag_46\n      jump\t// in\n    tag_68:\n    tag_67:\n      swap1\n      0x00\n      mstore\n      keccak256(0x00, 0x20)\n      swap1\n      0x07\n      mul\n      add\n        /* \"W1/erc721treapNOT.sol\":2510:2525  root[_now].left */\n      0x05\n      add\n        /* \"W1/erc721treapNOT.sol\":2510:2529  root[_now].left = b */\n      dup2\n      swap1\n      sstore\n      pop\n        /* \"W1/erc721treapNOT.sol\":2544:2554  pull(_now) */\n      tag_70\n        /* \"W1/erc721treapNOT.sol\":2549:2553  _now */\n      dup7\n        /* \"W1/erc721treapNOT.sol\":2544:2548  pull */\n      tag_25\n        /* \"W1/erc721treapNOT.sol\":2544:2554  pull(_now) */\n      jump\t// in\n    tag_70:\n        /* \"W1/erc721treapNOT.sol\":2577:2578  a */\n      dup2\n        /* \"W1/erc721treapNOT.sol\":2580:2584  _now */\n      dup7\n        /* \"W1/erc721treapNOT.sol\":2569:2585  return (a, _now) */\n      swap4\n      pop\n      swap4\n      pop\n      pop\n      pop\n        /* \"W1/erc721treapNOT.sol\":2039:2604  function splitByIndex(uint256 _now, uint256 _index) public returns (uint256, uint256) { // for modify one point... */\n    tag_48:\n      swap3\n      pop\n      swap3\n      swap1\n      pop\n      jump\t// out\n        /* \"W1/erc721treapNOT.sol\":1295:1597  function pull(uint256 _now) public {... */\n    tag_25:\n        /* \"W1/erc721treapNOT.sol\":1350:1351  0 */\n      0x00\n        /* \"W1/erc721treapNOT.sol\":1344:1348  _now */\n      dup2\n        /* \"W1/erc721treapNOT.sol\":1344:1351  _now!=0 */\n      eq\n        /* \"W1/erc721treapNOT.sol\":1341:1590  if(_now!=0){... */\n      tag_72\n      jumpi\n        /* \"W1/erc721treapNOT.sol\":1419:1443  get_Sum(root[_now].left) */\n      tag_73\n        /* \"W1/erc721treapNOT.sol\":1427:1431  root */\n      0x00\n        /* \"W1/erc721treapNOT.sol\":1432:1436  _now */\n      dup3\n        /* \"W1/erc721treapNOT.sol\":1427:1437  root[_now] */\n      dup2\n      sload\n      dup2\n      lt\n      tag_74\n      jumpi\n      tag_75\n      tag_46\n      jump\t// in\n    tag_75:\n    tag_74:\n      swap1\n      0x00\n      mstore\n      keccak256(0x00, 0x20)\n      swap1\n      0x07\n      mul\n      add\n        /* \"W1/erc721treapNOT.sol\":1427:1442  root[_now].left */\n      0x05\n      add\n      sload\n        /* \"W1/erc721treapNOT.sol\":1419:1426  get_Sum */\n      tag_14\n        /* \"W1/erc721treapNOT.sol\":1419:1443  get_Sum(root[_now].left) */\n      jump\t// in\n    tag_73:\n        /* \"W1/erc721treapNOT.sol\":1444:1448  root */\n      0x00\n        /* \"W1/erc721treapNOT.sol\":1449:1453  _now */\n      dup3\n        /* \"W1/erc721treapNOT.sol\":1444:1454  root[_now] */\n      dup2\n      sload\n      dup2\n      lt\n      tag_77\n      jumpi\n      tag_78\n      tag_46\n      jump\t// in\n    tag_78:\n    tag_77:\n      swap1\n      0x00\n      mstore\n      keccak256(0x00, 0x20)\n      swap1\n      0x07\n      mul\n      add\n        /* \"W1/erc721treapNOT.sol\":1444:1458  root[_now].val */\n      0x03\n      add\n      sload\n        /* \"W1/erc721treapNOT.sol\":1459:1484  get_Sum(root[_now].right) */\n      tag_80\n        /* \"W1/erc721treapNOT.sol\":1467:1471  root */\n      0x00\n        /* \"W1/erc721treapNOT.sol\":1472:1476  _now */\n      dup5\n        /* \"W1/erc721treapNOT.sol\":1467:1477  root[_now] */\n      dup2\n      sload\n      dup2\n      lt\n      tag_81\n      jumpi\n      tag_82\n      tag_46\n      jump\t// in\n    tag_82:\n    tag_81:\n      swap1\n      0x00\n      mstore\n      keccak256(0x00, 0x20)\n      swap1\n      0x07\n      mul\n      add\n        /* \"W1/erc721treapNOT.sol\":1467:1483  root[_now].right */\n      0x06\n      add\n      sload\n        /* \"W1/erc721treapNOT.sol\":1459:1466  get_Sum */\n      tag_14\n        /* \"W1/erc721treapNOT.sol\":1459:1484  get_Sum(root[_now].right) */\n      jump\t// in\n    tag_80:\n        /* \"W1/erc721treapNOT.sol\":1402:1485  abi.encodePacked(get_Sum(root[_now].left),root[_now].val,get_Sum(root[_now].right)) */\n      add(0x20, mload(0x40))\n      tag_84\n      swap4\n      swap3\n      swap2\n      swap1\n      tag_85\n      jump\t// in\n    tag_84:\n      mload(0x40)\n      0x20\n      dup2\n      dup4\n      sub\n      sub\n      dup2\n      mstore\n      swap1\n      0x40\n      mstore\n        /* \"W1/erc721treapNOT.sol\":1392:1486  keccak256(abi.encodePacked(get_Sum(root[_now].left),root[_now].val,get_Sum(root[_now].right))) */\n      dup1\n      mload\n      swap1\n      0x20\n      add\n      keccak256\n        /* \"W1/erc721treapNOT.sol\":1384:1487  uint256(keccak256(abi.encodePacked(get_Sum(root[_now].left),root[_now].val,get_Sum(root[_now].right)))) */\n      0x00\n      shr\n        /* \"W1/erc721treapNOT.sol\":1367:1371  root */\n      0x00\n        /* \"W1/erc721treapNOT.sol\":1372:1376  _now */\n      dup3\n        /* \"W1/erc721treapNOT.sol\":1367:1377  root[_now] */\n      dup2\n      sload\n      dup2\n      lt\n      tag_86\n      jumpi\n      tag_87\n      tag_46\n      jump\t// in\n    tag_87:\n    tag_86:\n      swap1\n      0x00\n      mstore\n      keccak256(0x00, 0x20)\n      swap1\n      0x07\n      mul\n      add\n        /* \"W1/erc721treapNOT.sol\":1367:1381  root[_now].sum */\n      0x04\n      add\n        /* \"W1/erc721treapNOT.sol\":1367:1487  root[_now].sum = uint256(keccak256(abi.encodePacked(get_Sum(root[_now].left),root[_now].val,get_Sum(root[_now].right)))) */\n      dup2\n      swap1\n      sstore\n      pop\n        /* \"W1/erc721treapNOT.sol\":1552:1578  get_Size(root[_now].right) */\n      tag_89\n        /* \"W1/erc721treapNOT.sol\":1561:1565  root */\n      0x00\n        /* \"W1/erc721treapNOT.sol\":1566:1570  _now */\n      dup3\n        /* \"W1/erc721treapNOT.sol\":1561:1571  root[_now] */\n      dup2\n      sload\n      dup2\n      lt\n      tag_90\n      jumpi\n      tag_91\n      tag_46\n      jump\t// in\n    tag_91:\n    tag_90:\n      swap1\n      0x00\n      mstore\n      keccak256(0x00, 0x20)\n      swap1\n      0x07\n      mul\n      add\n        /* \"W1/erc721treapNOT.sol\":1561:1577  root[_now].right */\n      0x06\n      add\n      sload\n        /* \"W1/erc721treapNOT.sol\":1552:1560  get_Size */\n      tag_31\n        /* \"W1/erc721treapNOT.sol\":1552:1578  get_Size(root[_now].right) */\n      jump\t// in\n    tag_89:\n        /* \"W1/erc721treapNOT.sol\":1524:1549  get_Size(root[_now].left) */\n      tag_93\n        /* \"W1/erc721treapNOT.sol\":1533:1537  root */\n      0x00\n        /* \"W1/erc721treapNOT.sol\":1538:1542  _now */\n      dup4\n        /* \"W1/erc721treapNOT.sol\":1533:1543  root[_now] */\n      dup2\n      sload\n      dup2\n      lt\n      tag_94\n      jumpi\n      tag_95\n      tag_46\n      jump\t// in\n    tag_95:\n    tag_94:\n      swap1\n      0x00\n      mstore\n      keccak256(0x00, 0x20)\n      swap1\n      0x07\n      mul\n      add\n        /* \"W1/erc721treapNOT.sol\":1533:1548  root[_now].left */\n      0x05\n      add\n      sload\n        /* \"W1/erc721treapNOT.sol\":1524:1532  get_Size */\n      tag_31\n        /* \"W1/erc721treapNOT.sol\":1524:1549  get_Size(root[_now].left) */\n      jump\t// in\n    tag_93:\n        /* \"W1/erc721treapNOT.sol\":1520:1521  1 */\n      0x01\n        /* \"W1/erc721treapNOT.sol\":1520:1549  1 + get_Size(root[_now].left) */\n      tag_97\n      swap2\n      swap1\n      tag_98\n      jump\t// in\n    tag_97:\n        /* \"W1/erc721treapNOT.sol\":1520:1578  1 + get_Size(root[_now].left) + get_Size(root[_now].right) */\n      tag_99\n      swap2\n      swap1\n      tag_98\n      jump\t// in\n    tag_99:\n        /* \"W1/erc721treapNOT.sol\":1502:1506  root */\n      0x00\n        /* \"W1/erc721treapNOT.sol\":1507:1511  _now */\n      dup3\n        /* \"W1/erc721treapNOT.sol\":1502:1512  root[_now] */\n      dup2\n      sload\n      dup2\n      lt\n      tag_100\n      jumpi\n      tag_101\n      tag_46\n      jump\t// in\n    tag_101:\n    tag_100:\n      swap1\n      0x00\n      mstore\n      keccak256(0x00, 0x20)\n      swap1\n      0x07\n      mul\n      add\n        /* \"W1/erc721treapNOT.sol\":1502:1517  root[_now].size */\n      0x02\n      add\n        /* \"W1/erc721treapNOT.sol\":1502:1578  root[_now].size = 1 + get_Size(root[_now].left) + get_Size(root[_now].right) */\n      dup2\n      swap1\n      sstore\n      pop\n        /* \"W1/erc721treapNOT.sol\":1341:1590  if(_now!=0){... */\n    tag_72:\n        /* \"W1/erc721treapNOT.sol\":1295:1597  function pull(uint256 _now) public {... */\n      pop\n      jump\t// out\n        /* \"W1/erc721treapNOT.sol\":3430:3580  function random() public view returns (uint256) {... */\n    tag_27:\n        /* \"W1/erc721treapNOT.sol\":3469:3476  uint256 */\n      0x00\n        /* \"W1/erc721treapNOT.sol\":3489:3506  bytes32 blockHash */\n      dup1\n        /* \"W1/erc721treapNOT.sol\":3534:3535  1 */\n      0x01\n        /* \"W1/erc721treapNOT.sol\":3519:3531  block.number */\n      number\n        /* \"W1/erc721treapNOT.sol\":3519:3535  block.number - 1 */\n      tag_104\n      swap2\n      swap1\n      tag_105\n      jump\t// in\n    tag_104:\n        /* \"W1/erc721treapNOT.sol\":3509:3536  blockhash(block.number - 1) */\n      blockhash\n        /* \"W1/erc721treapNOT.sol\":3489:3536  bytes32 blockHash = blockhash(block.number - 1) */\n      swap1\n      pop\n        /* \"W1/erc721treapNOT.sol\":3562:3571  blockHash */\n      dup1\n        /* \"W1/erc721treapNOT.sol\":3554:3572  uint256(blockHash) */\n      0x00\n      shr\n        /* \"W1/erc721treapNOT.sol\":3547:3572  return uint256(blockHash) */\n      swap2\n      pop\n      pop\n        /* \"W1/erc721treapNOT.sol\":3430:3580  function random() public view returns (uint256) {... */\n      swap1\n      jump\t// out\n        /* \"W1/erc721treapNOT.sol\":1176:1289  function get_Size(uint256 _now) public view returns (uint256){... */\n    tag_31:\n        /* \"W1/erc721treapNOT.sol\":1229:1236  uint256 */\n      0x00\n        /* \"W1/erc721treapNOT.sol\":1261:1262  0 */\n      dup1\n        /* \"W1/erc721treapNOT.sol\":1255:1259  _now */\n      dup3\n        /* \"W1/erc721treapNOT.sol\":1255:1262  _now!=0 */\n      sub\n        /* \"W1/erc721treapNOT.sol\":1255:1281  _now!=0 ?root[_now].size:0 */\n      tag_107\n      jumpi\n        /* \"W1/erc721treapNOT.sol\":1280:1281  0 */\n      0x00\n        /* \"W1/erc721treapNOT.sol\":1255:1281  _now!=0 ?root[_now].size:0 */\n      jump(tag_108)\n    tag_107:\n        /* \"W1/erc721treapNOT.sol\":1264:1268  root */\n      0x00\n        /* \"W1/erc721treapNOT.sol\":1269:1273  _now */\n      dup3\n        /* \"W1/erc721treapNOT.sol\":1264:1274  root[_now] */\n      dup2\n      sload\n      dup2\n      lt\n      tag_109\n      jumpi\n      tag_110\n      tag_46\n      jump\t// in\n    tag_110:\n    tag_109:\n      swap1\n      0x00\n      mstore\n      keccak256(0x00, 0x20)\n      swap1\n      0x07\n      mul\n      add\n        /* \"W1/erc721treapNOT.sol\":1264:1279  root[_now].size */\n      0x02\n      add\n      sload\n        /* \"W1/erc721treapNOT.sol\":1255:1281  _now!=0 ?root[_now].size:0 */\n    tag_108:\n        /* \"W1/erc721treapNOT.sol\":1248:1281  return _now!=0 ?root[_now].size:0 */\n      swap1\n      pop\n        /* \"W1/erc721treapNOT.sol\":1176:1289  function get_Size(uint256 _now) public view returns (uint256){... */\n      swap2\n      swap1\n      pop\n      jump\t// out\n        /* \"W1/erc721treapNOT.sol\":635:1023  function insert(address _whitelist_user) public{... */\n    tag_36:\n        /* \"W1/erc721treapNOT.sol\":703:707  size */\n      0x01\n      0x00\n        /* \"W1/erc721treapNOT.sol\":703:709  size++ */\n      dup2\n      sload\n      dup1\n      swap3\n      swap2\n      swap1\n      tag_113\n      swap1\n      tag_114\n      jump\t// in\n    tag_113:\n      swap2\n      swap1\n      pop\n      sstore\n      pop\n        /* \"W1/erc721treapNOT.sol\":736:740  root */\n      0x00\n        /* \"W1/erc721treapNOT.sol\":746:842  Node(size, random(), 0, uint256(keccak256(abi.encodePacked(_whitelist_user))),... */\n      mload(0x40)\n      dup1\n      0xe0\n      add\n      0x40\n      mstore\n      dup1\n        /* \"W1/erc721treapNOT.sol\":751:755  size */\n      sload(0x01)\n        /* \"W1/erc721treapNOT.sol\":746:842  Node(size, random(), 0, uint256(keccak256(abi.encodePacked(_whitelist_user))),... */\n      dup2\n      mstore\n      0x20\n      add\n        /* \"W1/erc721treapNOT.sol\":757:765  random() */\n      tag_115\n        /* \"W1/erc721treapNOT.sol\":757:763  random */\n      tag_27\n        /* \"W1/erc721treapNOT.sol\":757:765  random() */\n      jump\t// in\n    tag_115:\n        /* \"W1/erc721treapNOT.sol\":746:842  Node(size, random(), 0, uint256(keccak256(abi.encodePacked(_whitelist_user))),... */\n      dup2\n      mstore\n      0x20\n      add\n        /* \"W1/erc721treapNOT.sol\":767:768  0 */\n      0x00\n        /* \"W1/erc721treapNOT.sol\":746:842  Node(size, random(), 0, uint256(keccak256(abi.encodePacked(_whitelist_user))),... */\n      dup2\n      mstore\n      0x20\n      add\n        /* \"W1/erc721treapNOT.sol\":805:820  _whitelist_user */\n      dup4\n        /* \"W1/erc721treapNOT.sol\":788:821  abi.encodePacked(_whitelist_user) */\n      add(0x20, mload(0x40))\n      tag_116\n      swap2\n      swap1\n      tag_117\n      jump\t// in\n    tag_116:\n      mload(0x40)\n      0x20\n      dup2\n      dup4\n      sub\n      sub\n      dup2\n      mstore\n      swap1\n      0x40\n      mstore\n        /* \"W1/erc721treapNOT.sol\":778:822  keccak256(abi.encodePacked(_whitelist_user)) */\n      dup1\n      mload\n      swap1\n      0x20\n      add\n      keccak256\n        /* \"W1/erc721treapNOT.sol\":770:823  uint256(keccak256(abi.encodePacked(_whitelist_user))) */\n      0x00\n      shr\n        /* \"W1/erc721treapNOT.sol\":746:842  Node(size, random(), 0, uint256(keccak256(abi.encodePacked(_whitelist_user))),... */\n      dup2\n      mstore\n      0x20\n      add\n        /* \"W1/erc721treapNOT.sol\":834:835  0 */\n      0x00\n        /* \"W1/erc721treapNOT.sol\":746:842  Node(size, random(), 0, uint256(keccak256(abi.encodePacked(_whitelist_user))),... */\n      dup2\n      mstore\n      0x20\n      add\n        /* \"W1/erc721treapNOT.sol\":837:838  0 */\n      0x00\n        /* \"W1/erc721treapNOT.sol\":746:842  Node(size, random(), 0, uint256(keccak256(abi.encodePacked(_whitelist_user))),... */\n      dup2\n      mstore\n      0x20\n      add\n        /* \"W1/erc721treapNOT.sol\":840:841  0 */\n      0x00\n        /* \"W1/erc721treapNOT.sol\":746:842  Node(size, random(), 0, uint256(keccak256(abi.encodePacked(_whitelist_user))),... */\n      dup2\n      mstore\n      pop\n        /* \"W1/erc721treapNOT.sol\":736:843  root.push(Node(size, random(), 0, uint256(keccak256(abi.encodePacked(_whitelist_user))),... */\n      swap1\n      dup1\n      0x01\n      dup2\n      sload\n      add\n      dup1\n      dup3\n      sstore\n      dup1\n      swap2\n      pop\n      pop\n      0x01\n      swap1\n      sub\n      swap1\n      0x00\n      mstore\n      keccak256(0x00, 0x20)\n      swap1\n      0x07\n      mul\n      add\n      0x00\n      swap1\n      swap2\n      swap1\n      swap2\n      swap1\n      swap2\n      pop\n      0x00\n      dup3\n      add\n      mload\n      dup2\n      0x00\n      add\n      sstore\n      0x20\n      dup3\n      add\n      mload\n      dup2\n      0x01\n      add\n      sstore\n      0x40\n      dup3\n      add\n      mload\n      dup2\n      0x02\n      add\n      sstore\n      0x60\n      dup3\n      add\n      mload\n      dup2\n      0x03\n      add\n      sstore\n      0x80\n      dup3\n      add\n      mload\n      dup2\n      0x04\n      add\n      sstore\n      0xa0\n      dup3\n      add\n      mload\n      dup2\n      0x05\n      add\n      sstore\n      0xc0\n      dup3\n      add\n      mload\n      dup2\n      0x06\n      add\n      sstore\n      pop\n      pop\n        /* \"W1/erc721treapNOT.sol\":906:930  get_Sum(root[size].left) */\n      tag_119\n        /* \"W1/erc721treapNOT.sol\":914:918  root */\n      0x00\n        /* \"W1/erc721treapNOT.sol\":919:923  size */\n      sload(0x01)\n        /* \"W1/erc721treapNOT.sol\":914:924  root[size] */\n      dup2\n      sload\n      dup2\n      lt\n      tag_120\n      jumpi\n      tag_121\n      tag_46\n      jump\t// in\n    tag_121:\n    tag_120:\n      swap1\n      0x00\n      mstore\n      keccak256(0x00, 0x20)\n      swap1\n      0x07\n      mul\n      add\n        /* \"W1/erc721treapNOT.sol\":914:929  root[size].left */\n      0x05\n      add\n      sload\n        /* \"W1/erc721treapNOT.sol\":906:913  get_Sum */\n      tag_14\n        /* \"W1/erc721treapNOT.sol\":906:930  get_Sum(root[size].left) */\n      jump\t// in\n    tag_119:\n        /* \"W1/erc721treapNOT.sol\":931:935  root */\n      0x00\n        /* \"W1/erc721treapNOT.sol\":936:940  size */\n      sload(0x01)\n        /* \"W1/erc721treapNOT.sol\":931:941  root[size] */\n      dup2\n      sload\n      dup2\n      lt\n      tag_123\n      jumpi\n      tag_124\n      tag_46\n      jump\t// in\n    tag_124:\n    tag_123:\n      swap1\n      0x00\n      mstore\n      keccak256(0x00, 0x20)\n      swap1\n      0x07\n      mul\n      add\n        /* \"W1/erc721treapNOT.sol\":931:945  root[size].val */\n      0x03\n      add\n      sload\n        /* \"W1/erc721treapNOT.sol\":946:971  get_Sum(root[size].right) */\n      tag_126\n        /* \"W1/erc721treapNOT.sol\":954:958  root */\n      0x00\n        /* \"W1/erc721treapNOT.sol\":959:963  size */\n      sload(0x01)\n        /* \"W1/erc721treapNOT.sol\":954:964  root[size] */\n      dup2\n      sload\n      dup2\n      lt\n      tag_127\n      jumpi\n      tag_128\n      tag_46\n      jump\t// in\n    tag_128:\n    tag_127:\n      swap1\n      0x00\n      mstore\n      keccak256(0x00, 0x20)\n      swap1\n      0x07\n      mul\n      add\n        /* \"W1/erc721treapNOT.sol\":954:970  root[size].right */\n      0x06\n      add\n      sload\n        /* \"W1/erc721treapNOT.sol\":946:953  get_Sum */\n      tag_14\n        /* \"W1/erc721treapNOT.sol\":946:971  get_Sum(root[size].right) */\n      jump\t// in\n    tag_126:\n        /* \"W1/erc721treapNOT.sol\":889:972  abi.encodePacked(get_Sum(root[size].left),root[size].val,get_Sum(root[size].right)) */\n      add(0x20, mload(0x40))\n      tag_130\n      swap4\n      swap3\n      swap2\n      swap1\n      tag_85\n      jump\t// in\n    tag_130:\n      mload(0x40)\n      0x20\n      dup2\n      dup4\n      sub\n      sub\n      dup2\n      mstore\n      swap1\n      0x40\n      mstore\n        /* \"W1/erc721treapNOT.sol\":879:973  keccak256(abi.encodePacked(get_Sum(root[size].left),root[size].val,get_Sum(root[size].right))) */\n      dup1\n      mload\n      swap1\n      0x20\n      add\n      keccak256\n        /* \"W1/erc721treapNOT.sol\":871:974  uint256(keccak256(abi.encodePacked(get_Sum(root[size].left),root[size].val,get_Sum(root[size].right)))) */\n      0x00\n      shr\n        /* \"W1/erc721treapNOT.sol\":854:858  root */\n      0x00\n        /* \"W1/erc721treapNOT.sol\":859:863  size */\n      sload(0x01)\n        /* \"W1/erc721treapNOT.sol\":854:864  root[size] */\n      dup2\n      sload\n      dup2\n      lt\n      tag_131\n      jumpi\n      tag_132\n      tag_46\n      jump\t// in\n    tag_132:\n    tag_131:\n      swap1\n      0x00\n      mstore\n      keccak256(0x00, 0x20)\n      swap1\n      0x07\n      mul\n      add\n        /* \"W1/erc721treapNOT.sol\":854:868  root[size].sum */\n      0x04\n      add\n        /* \"W1/erc721treapNOT.sol\":854:974  root[size].sum = uint256(keccak256(abi.encodePacked(get_Sum(root[size].left),root[size].val,get_Sum(root[size].right)))) */\n      dup2\n      swap1\n      sstore\n      pop\n        /* \"W1/erc721treapNOT.sol\":1001:1015  merge(0, size) */\n      tag_134\n        /* \"W1/erc721treapNOT.sol\":1007:1008  0 */\n      0x00\n        /* \"W1/erc721treapNOT.sol\":1010:1014  size */\n      sload(0x01)\n        /* \"W1/erc721treapNOT.sol\":1001:1006  merge */\n      tag_39\n        /* \"W1/erc721treapNOT.sol\":1001:1015  merge(0, size) */\n      jump\t// in\n    tag_134:\n        /* \"W1/erc721treapNOT.sol\":985:989  root */\n      0x00\n        /* \"W1/erc721treapNOT.sol\":990:991  0 */\n      dup1\n        /* \"W1/erc721treapNOT.sol\":985:992  root[0] */\n      dup2\n      sload\n      dup2\n      lt\n      tag_135\n      jumpi\n      tag_136\n      tag_46\n      jump\t// in\n    tag_136:\n    tag_135:\n      swap1\n      0x00\n      mstore\n      keccak256(0x00, 0x20)\n      swap1\n      0x07\n      mul\n      add\n        /* \"W1/erc721treapNOT.sol\":985:998  root[0].right */\n      0x06\n      add\n        /* \"W1/erc721treapNOT.sol\":985:1015  root[0].right = merge(0, size) */\n      dup2\n      swap1\n      sstore\n      pop\n        /* \"W1/erc721treapNOT.sol\":635:1023  function insert(address _whitelist_user) public{... */\n      pop\n      jump\t// out\n        /* \"W1/erc721treapNOT.sol\":1603:2033  function merge(uint256 a, uint256 b) public returns (uint256) {... */\n    tag_39:\n        /* \"W1/erc721treapNOT.sol\":1656:1663  uint256 */\n      0x00\n        /* \"W1/erc721treapNOT.sol\":1682:1683  0 */\n      dup1\n        /* \"W1/erc721treapNOT.sol\":1679:1680  a */\n      dup4\n        /* \"W1/erc721treapNOT.sol\":1679:1683  a==0 */\n      eq\n        /* \"W1/erc721treapNOT.sol\":1679:1689  a==0||b==0 */\n      dup1\n      tag_139\n      jumpi\n      pop\n        /* \"W1/erc721treapNOT.sol\":1688:1689  0 */\n      0x00\n        /* \"W1/erc721treapNOT.sol\":1685:1686  b */\n      dup3\n        /* \"W1/erc721treapNOT.sol\":1685:1689  b==0 */\n      eq\n        /* \"W1/erc721treapNOT.sol\":1679:1689  a==0||b==0 */\n    tag_139:\n        /* \"W1/erc721treapNOT.sol\":1676:1743  if(a==0||b==0) ... */\n      iszero\n      tag_140\n      jumpi\n        /* \"W1/erc721treapNOT.sol\":1726:1727  0 */\n      0x00\n        /* \"W1/erc721treapNOT.sol\":1723:1724  a */\n      dup4\n        /* \"W1/erc721treapNOT.sol\":1723:1727  a!=0 */\n      sub\n        /* \"W1/erc721treapNOT.sol\":1723:1731  a!=0?a:b */\n      tag_141\n      jumpi\n        /* \"W1/erc721treapNOT.sol\":1730:1731  b */\n      dup2\n        /* \"W1/erc721treapNOT.sol\":1723:1731  a!=0?a:b */\n      jump(tag_142)\n    tag_141:\n        /* \"W1/erc721treapNOT.sol\":1728:1729  a */\n      dup3\n        /* \"W1/erc721treapNOT.sol\":1723:1731  a!=0?a:b */\n    tag_142:\n        /* \"W1/erc721treapNOT.sol\":1716:1731  return a!=0?a:b */\n      swap1\n      pop\n      jump(tag_138)\n        /* \"W1/erc721treapNOT.sol\":1676:1743  if(a==0||b==0) ... */\n    tag_140:\n        /* \"W1/erc721treapNOT.sol\":1775:1779  root */\n      0x00\n        /* \"W1/erc721treapNOT.sol\":1780:1781  b */\n      dup3\n        /* \"W1/erc721treapNOT.sol\":1775:1782  root[b] */\n      dup2\n      sload\n      dup2\n      lt\n      tag_143\n      jumpi\n      tag_144\n      tag_46\n      jump\t// in\n    tag_144:\n    tag_143:\n      swap1\n      0x00\n      mstore\n      keccak256(0x00, 0x20)\n      swap1\n      0x07\n      mul\n      add\n        /* \"W1/erc721treapNOT.sol\":1775:1791  root[b].priority */\n      0x01\n      add\n      sload\n        /* \"W1/erc721treapNOT.sol\":1756:1760  root */\n      0x00\n        /* \"W1/erc721treapNOT.sol\":1761:1762  a */\n      dup5\n        /* \"W1/erc721treapNOT.sol\":1756:1763  root[a] */\n      dup2\n      sload\n      dup2\n      lt\n      tag_146\n      jumpi\n      tag_147\n      tag_46\n      jump\t// in\n    tag_147:\n    tag_146:\n      swap1\n      0x00\n      mstore\n      keccak256(0x00, 0x20)\n      swap1\n      0x07\n      mul\n      add\n        /* \"W1/erc721treapNOT.sol\":1756:1772  root[a].priority */\n      0x01\n      add\n      sload\n        /* \"W1/erc721treapNOT.sol\":1756:1791  root[a].priority > root[b].priority */\n      gt\n        /* \"W1/erc721treapNOT.sol\":1753:2026  if(root[a].priority > root[b].priority){... */\n      iszero\n      tag_149\n      jumpi\n        /* \"W1/erc721treapNOT.sol\":1823:1846  merge(root[a].right, b) */\n      tag_150\n        /* \"W1/erc721treapNOT.sol\":1829:1833  root */\n      0x00\n        /* \"W1/erc721treapNOT.sol\":1834:1835  a */\n      dup5\n        /* \"W1/erc721treapNOT.sol\":1829:1836  root[a] */\n      dup2\n      sload\n      dup2\n      lt\n      tag_151\n      jumpi\n      tag_152\n      tag_46\n      jump\t// in\n    tag_152:\n    tag_151:\n      swap1\n      0x00\n      mstore\n      keccak256(0x00, 0x20)\n      swap1\n      0x07\n      mul\n      add\n        /* \"W1/erc721treapNOT.sol\":1829:1842  root[a].right */\n      0x06\n      add\n      sload\n        /* \"W1/erc721treapNOT.sol\":1844:1845  b */\n      dup4\n        /* \"W1/erc721treapNOT.sol\":1823:1828  merge */\n      tag_39\n        /* \"W1/erc721treapNOT.sol\":1823:1846  merge(root[a].right, b) */\n      jump\t// in\n    tag_150:\n        /* \"W1/erc721treapNOT.sol\":1807:1811  root */\n      0x00\n        /* \"W1/erc721treapNOT.sol\":1812:1813  a */\n      dup5\n        /* \"W1/erc721treapNOT.sol\":1807:1814  root[a] */\n      dup2\n      sload\n      dup2\n      lt\n      tag_154\n      jumpi\n      tag_155\n      tag_46\n      jump\t// in\n    tag_155:\n    tag_154:\n      swap1\n      0x00\n      mstore\n      keccak256(0x00, 0x20)\n      swap1\n      0x07\n      mul\n      add\n        /* \"W1/erc721treapNOT.sol\":1807:1820  root[a].right */\n      0x06\n      add\n        /* \"W1/erc721treapNOT.sol\":1807:1846  root[a].right = merge(root[a].right, b) */\n      dup2\n      swap1\n      sstore\n      pop\n        /* \"W1/erc721treapNOT.sol\":1861:1868  pull(a) */\n      tag_157\n        /* \"W1/erc721treapNOT.sol\":1866:1867  a */\n      dup4\n        /* \"W1/erc721treapNOT.sol\":1861:1865  pull */\n      tag_25\n        /* \"W1/erc721treapNOT.sol\":1861:1868  pull(a) */\n      jump\t// in\n    tag_157:\n        /* \"W1/erc721treapNOT.sol\":1890:1891  a */\n      dup3\n        /* \"W1/erc721treapNOT.sol\":1883:1891  return a */\n      swap1\n      pop\n      jump(tag_138)\n        /* \"W1/erc721treapNOT.sol\":1753:2026  if(root[a].priority > root[b].priority){... */\n    tag_149:\n        /* \"W1/erc721treapNOT.sol\":1947:1969  merge(a, root[b].left) */\n      tag_159\n        /* \"W1/erc721treapNOT.sol\":1953:1954  a */\n      dup4\n        /* \"W1/erc721treapNOT.sol\":1956:1960  root */\n      0x00\n        /* \"W1/erc721treapNOT.sol\":1961:1962  b */\n      dup5\n        /* \"W1/erc721treapNOT.sol\":1956:1963  root[b] */\n      dup2\n      sload\n      dup2\n      lt\n      tag_160\n      jumpi\n      tag_161\n      tag_46\n      jump\t// in\n    tag_161:\n    tag_160:\n      swap1\n      0x00\n      mstore\n      keccak256(0x00, 0x20)\n      swap1\n      0x07\n      mul\n      add\n        /* \"W1/erc721treapNOT.sol\":1956:1968  root[b].left */\n      0x05\n      add\n      sload\n        /* \"W1/erc721treapNOT.sol\":1947:1952  merge */\n      tag_39\n        /* \"W1/erc721treapNOT.sol\":1947:1969  merge(a, root[b].left) */\n      jump\t// in\n    tag_159:\n        /* \"W1/erc721treapNOT.sol\":1932:1936  root */\n      0x00\n        /* \"W1/erc721treapNOT.sol\":1937:1938  b */\n      dup4\n        /* \"W1/erc721treapNOT.sol\":1932:1939  root[b] */\n      dup2\n      sload\n      dup2\n      lt\n      tag_163\n      jumpi\n      tag_164\n      tag_46\n      jump\t// in\n    tag_164:\n    tag_163:\n      swap1\n      0x00\n      mstore\n      keccak256(0x00, 0x20)\n      swap1\n      0x07\n      mul\n      add\n        /* \"W1/erc721treapNOT.sol\":1932:1944  root[b].left */\n      0x05\n      add\n        /* \"W1/erc721treapNOT.sol\":1932:1969  root[b].left = merge(a, root[b].left) */\n      dup2\n      swap1\n      sstore\n      pop\n        /* \"W1/erc721treapNOT.sol\":1984:1991  pull(b) */\n      tag_166\n        /* \"W1/erc721treapNOT.sol\":1989:1990  b */\n      dup3\n        /* \"W1/erc721treapNOT.sol\":1984:1988  pull */\n      tag_25\n        /* \"W1/erc721treapNOT.sol\":1984:1991  pull(b) */\n      jump\t// in\n    tag_166:\n        /* \"W1/erc721treapNOT.sol\":2013:2014  b */\n      dup2\n        /* \"W1/erc721treapNOT.sol\":2006:2014  return b */\n      swap1\n      pop\n        /* \"W1/erc721treapNOT.sol\":1603:2033  function merge(uint256 a, uint256 b) public returns (uint256) {... */\n    tag_138:\n      swap3\n      swap2\n      pop\n      pop\n      jump\t// out\n        /* \"#utility.yul\":88:205   */\n    tag_168:\n        /* \"#utility.yul\":197:198   */\n      0x00\n        /* \"#utility.yul\":194:195   */\n      dup1\n        /* \"#utility.yul\":187:199   */\n      revert\n        /* \"#utility.yul\":334:411   */\n    tag_170:\n        /* \"#utility.yul\":371:378   */\n      0x00\n        /* \"#utility.yul\":400:405   */\n      dup2\n        /* \"#utility.yul\":389:405   */\n      swap1\n      pop\n        /* \"#utility.yul\":334:411   */\n      swap2\n      swap1\n      pop\n      jump\t// out\n        /* \"#utility.yul\":417:539   */\n    tag_171:\n        /* \"#utility.yul\":490:514   */\n      tag_191\n        /* \"#utility.yul\":508:513   */\n      dup2\n        /* \"#utility.yul\":490:514   */\n      tag_170\n      jump\t// in\n    tag_191:\n        /* \"#utility.yul\":483:488   */\n      dup2\n        /* \"#utility.yul\":480:515   */\n      eq\n        /* \"#utility.yul\":470:533   */\n      tag_192\n      jumpi\n        /* \"#utility.yul\":529:530   */\n      0x00\n        /* \"#utility.yul\":526:527   */\n      dup1\n        /* \"#utility.yul\":519:531   */\n      revert\n        /* \"#utility.yul\":470:533   */\n    tag_192:\n        /* \"#utility.yul\":417:539   */\n      pop\n      jump\t// out\n        /* \"#utility.yul\":545:684   */\n    tag_172:\n        /* \"#utility.yul\":591:596   */\n      0x00\n        /* \"#utility.yul\":629:635   */\n      dup2\n        /* \"#utility.yul\":616:636   */\n      calldataload\n        /* \"#utility.yul\":607:636   */\n      swap1\n      pop\n        /* \"#utility.yul\":645:678   */\n      tag_194\n        /* \"#utility.yul\":672:677   */\n      dup2\n        /* \"#utility.yul\":645:678   */\n      tag_171\n      jump\t// in\n    tag_194:\n        /* \"#utility.yul\":545:684   */\n      swap3\n      swap2\n      pop\n      pop\n      jump\t// out\n        /* \"#utility.yul\":690:1019   */\n    tag_13:\n        /* \"#utility.yul\":749:755   */\n      0x00\n        /* \"#utility.yul\":798:800   */\n      0x20\n        /* \"#utility.yul\":786:795   */\n      dup3\n        /* \"#utility.yul\":777:784   */\n      dup5\n        /* \"#utility.yul\":773:796   */\n      sub\n        /* \"#utility.yul\":769:801   */\n      slt\n        /* \"#utility.yul\":766:885   */\n      iszero\n      tag_196\n      jumpi\n        /* \"#utility.yul\":804:883   */\n      tag_197\n      tag_168\n      jump\t// in\n    tag_197:\n        /* \"#utility.yul\":766:885   */\n    tag_196:\n        /* \"#utility.yul\":924:925   */\n      0x00\n        /* \"#utility.yul\":949:1002   */\n      tag_198\n        /* \"#utility.yul\":994:1001   */\n      dup5\n        /* \"#utility.yul\":985:991   */\n      dup3\n        /* \"#utility.yul\":974:983   */\n      dup6\n        /* \"#utility.yul\":970:992   */\n      add\n        /* \"#utility.yul\":949:1002   */\n      tag_172\n      jump\t// in\n    tag_198:\n        /* \"#utility.yul\":939:1002   */\n      swap2\n      pop\n        /* \"#utility.yul\":895:1012   */\n      pop\n        /* \"#utility.yul\":690:1019   */\n      swap3\n      swap2\n      pop\n      pop\n      jump\t// out\n        /* \"#utility.yul\":1025:1143   */\n    tag_173:\n        /* \"#utility.yul\":1112:1136   */\n      tag_200\n        /* \"#utility.yul\":1130:1135   */\n      dup2\n        /* \"#utility.yul\":1112:1136   */\n      tag_170\n      jump\t// in\n    tag_200:\n        /* \"#utility.yul\":1107:1110   */\n      dup3\n        /* \"#utility.yul\":1100:1137   */\n      mstore\n        /* \"#utility.yul\":1025:1143   */\n      pop\n      pop\n      jump\t// out\n        /* \"#utility.yul\":1149:1371   */\n    tag_16:\n        /* \"#utility.yul\":1242:1246   */\n      0x00\n        /* \"#utility.yul\":1280:1282   */\n      0x20\n        /* \"#utility.yul\":1269:1278   */\n      dup3\n        /* \"#utility.yul\":1265:1283   */\n      add\n        /* \"#utility.yul\":1257:1283   */\n      swap1\n      pop\n        /* \"#utility.yul\":1293:1364   */\n      tag_202\n        /* \"#utility.yul\":1361:1362   */\n      0x00\n        /* \"#utility.yul\":1350:1359   */\n      dup4\n        /* \"#utility.yul\":1346:1363   */\n      add\n        /* \"#utility.yul\":1337:1343   */\n      dup5\n        /* \"#utility.yul\":1293:1364   */\n      tag_173\n      jump\t// in\n    tag_202:\n        /* \"#utility.yul\":1149:1371   */\n      swap3\n      swap2\n      pop\n      pop\n      jump\t// out\n        /* \"#utility.yul\":1377:1851   */\n    tag_19:\n        /* \"#utility.yul\":1445:1451   */\n      0x00\n        /* \"#utility.yul\":1453:1459   */\n      dup1\n        /* \"#utility.yul\":1502:1504   */\n      0x40\n        /* \"#utility.yul\":1490:1499   */\n      dup4\n        /* \"#utility.yul\":1481:1488   */\n      dup6\n        /* \"#utility.yul\":1477:1500   */\n      sub\n        /* \"#utility.yul\":1473:1505   */\n      slt\n        /* \"#utility.yul\":1470:1589   */\n      iszero\n      tag_204\n      jumpi\n        /* \"#utility.yul\":1508:1587   */\n      tag_205\n      tag_168\n      jump\t// in\n    tag_205:\n        /* \"#utility.yul\":1470:1589   */\n    tag_204:\n        /* \"#utility.yul\":1628:1629   */\n      0x00\n        /* \"#utility.yul\":1653:1706   */\n      tag_206\n        /* \"#utility.yul\":1698:1705   */\n      dup6\n        /* \"#utility.yul\":1689:1695   */\n      dup3\n        /* \"#utility.yul\":1678:1687   */\n      dup7\n        /* \"#utility.yul\":1674:1696   */\n      add\n        /* \"#utility.yul\":1653:1706   */\n      tag_172\n      jump\t// in\n    tag_206:\n        /* \"#utility.yul\":1643:1706   */\n      swap3\n      pop\n        /* \"#utility.yul\":1599:1716   */\n      pop\n        /* \"#utility.yul\":1755:1757   */\n      0x20\n        /* \"#utility.yul\":1781:1834   */\n      tag_207\n        /* \"#utility.yul\":1826:1833   */\n      dup6\n        /* \"#utility.yul\":1817:1823   */\n      dup3\n        /* \"#utility.yul\":1806:1815   */\n      dup7\n        /* \"#utility.yul\":1802:1824   */\n      add\n        /* \"#utility.yul\":1781:1834   */\n      tag_172\n      jump\t// in\n    tag_207:\n        /* \"#utility.yul\":1771:1834   */\n      swap2\n      pop\n        /* \"#utility.yul\":1726:1844   */\n      pop\n        /* \"#utility.yul\":1377:1851   */\n      swap3\n      pop\n      swap3\n      swap1\n      pop\n      jump\t// out\n        /* \"#utility.yul\":1857:2189   */\n    tag_22:\n        /* \"#utility.yul\":1978:1982   */\n      0x00\n        /* \"#utility.yul\":2016:2018   */\n      0x40\n        /* \"#utility.yul\":2005:2014   */\n      dup3\n        /* \"#utility.yul\":2001:2019   */\n      add\n        /* \"#utility.yul\":1993:2019   */\n      swap1\n      pop\n        /* \"#utility.yul\":2029:2100   */\n      tag_209\n        /* \"#utility.yul\":2097:2098   */\n      0x00\n        /* \"#utility.yul\":2086:2095   */\n      dup4\n        /* \"#utility.yul\":2082:2099   */\n      add\n        /* \"#utility.yul\":2073:2079   */\n      dup6\n        /* \"#utility.yul\":2029:2100   */\n      tag_173\n      jump\t// in\n    tag_209:\n        /* \"#utility.yul\":2110:2182   */\n      tag_210\n        /* \"#utility.yul\":2178:2180   */\n      0x20\n        /* \"#utility.yul\":2167:2176   */\n      dup4\n        /* \"#utility.yul\":2163:2181   */\n      add\n        /* \"#utility.yul\":2154:2160   */\n      dup5\n        /* \"#utility.yul\":2110:2182   */\n      tag_173\n      jump\t// in\n    tag_210:\n        /* \"#utility.yul\":1857:2189   */\n      swap4\n      swap3\n      pop\n      pop\n      pop\n      jump\t// out\n        /* \"#utility.yul\":2195:2321   */\n    tag_174:\n        /* \"#utility.yul\":2232:2239   */\n      0x00\n        /* \"#utility.yul\":2272:2314   */\n      0xffffffffffffffffffffffffffffffffffffffff\n        /* \"#utility.yul\":2265:2270   */\n      dup3\n        /* \"#utility.yul\":2261:2315   */\n      and\n        /* \"#utility.yul\":2250:2315   */\n      swap1\n      pop\n        /* \"#utility.yul\":2195:2321   */\n      swap2\n      swap1\n      pop\n      jump\t// out\n        /* \"#utility.yul\":2327:2423   */\n    tag_175:\n        /* \"#utility.yul\":2364:2371   */\n      0x00\n        /* \"#utility.yul\":2393:2417   */\n      tag_213\n        /* \"#utility.yul\":2411:2416   */\n      dup3\n        /* \"#utility.yul\":2393:2417   */\n      tag_174\n      jump\t// in\n    tag_213:\n        /* \"#utility.yul\":2382:2417   */\n      swap1\n      pop\n        /* \"#utility.yul\":2327:2423   */\n      swap2\n      swap1\n      pop\n      jump\t// out\n        /* \"#utility.yul\":2429:2551   */\n    tag_176:\n        /* \"#utility.yul\":2502:2526   */\n      tag_215\n        /* \"#utility.yul\":2520:2525   */\n      dup2\n        /* \"#utility.yul\":2502:2526   */\n      tag_175\n      jump\t// in\n    tag_215:\n        /* \"#utility.yul\":2495:2500   */\n      dup2\n        /* \"#utility.yul\":2492:2527   */\n      eq\n        /* \"#utility.yul\":2482:2545   */\n      tag_216\n      jumpi\n        /* \"#utility.yul\":2541:2542   */\n      0x00\n        /* \"#utility.yul\":2538:2539   */\n      dup1\n        /* \"#utility.yul\":2531:2543   */\n      revert\n        /* \"#utility.yul\":2482:2545   */\n    tag_216:\n        /* \"#utility.yul\":2429:2551   */\n      pop\n      jump\t// out\n        /* \"#utility.yul\":2557:2696   */\n    tag_177:\n        /* \"#utility.yul\":2603:2608   */\n      0x00\n        /* \"#utility.yul\":2641:2647   */\n      dup2\n        /* \"#utility.yul\":2628:2648   */\n      calldataload\n        /* \"#utility.yul\":2619:2648   */\n      swap1\n      pop\n        /* \"#utility.yul\":2657:2690   */\n      tag_218\n        /* \"#utility.yul\":2684:2689   */\n      dup2\n        /* \"#utility.yul\":2657:2690   */\n      tag_176\n      jump\t// in\n    tag_218:\n        /* \"#utility.yul\":2557:2696   */\n      swap3\n      swap2\n      pop\n      pop\n      jump\t// out\n        /* \"#utility.yul\":2702:3031   */\n    tag_35:\n        /* \"#utility.yul\":2761:2767   */\n      0x00\n        /* \"#utility.yul\":2810:2812   */\n      0x20\n        /* \"#utility.yul\":2798:2807   */\n      dup3\n        /* \"#utility.yul\":2789:2796   */\n      dup5\n        /* \"#utility.yul\":2785:2808   */\n      sub\n        /* \"#utility.yul\":2781:2813   */\n      slt\n        /* \"#utility.yul\":2778:2897   */\n      iszero\n      tag_220\n      jumpi\n        /* \"#utility.yul\":2816:2895   */\n      tag_221\n      tag_168\n      jump\t// in\n    tag_221:\n        /* \"#utility.yul\":2778:2897   */\n    tag_220:\n        /* \"#utility.yul\":2936:2937   */\n      0x00\n        /* \"#utility.yul\":2961:3014   */\n      tag_222\n        /* \"#utility.yul\":3006:3013   */\n      dup5\n        /* \"#utility.yul\":2997:3003   */\n      dup3\n        /* \"#utility.yul\":2986:2995   */\n      dup6\n        /* \"#utility.yul\":2982:3004   */\n      add\n        /* \"#utility.yul\":2961:3014   */\n      tag_177\n      jump\t// in\n    tag_222:\n        /* \"#utility.yul\":2951:3014   */\n      swap2\n      pop\n        /* \"#utility.yul\":2907:3024   */\n      pop\n        /* \"#utility.yul\":2702:3031   */\n      swap3\n      swap2\n      pop\n      pop\n      jump\t// out\n        /* \"#utility.yul\":3037:3217   */\n    tag_46:\n        /* \"#utility.yul\":3085:3162   */\n      0x4e487b7100000000000000000000000000000000000000000000000000000000\n        /* \"#utility.yul\":3082:3083   */\n      0x00\n        /* \"#utility.yul\":3075:3163   */\n      mstore\n        /* \"#utility.yul\":3182:3186   */\n      0x32\n        /* \"#utility.yul\":3179:3180   */\n      0x04\n        /* \"#utility.yul\":3172:3187   */\n      mstore\n        /* \"#utility.yul\":3206:3210   */\n      0x24\n        /* \"#utility.yul\":3203:3204   */\n      0x00\n        /* \"#utility.yul\":3196:3211   */\n      revert\n        /* \"#utility.yul\":3223:3302   */\n    tag_178:\n        /* \"#utility.yul\":3262:3269   */\n      0x00\n        /* \"#utility.yul\":3291:3296   */\n      dup2\n        /* \"#utility.yul\":3280:3296   */\n      swap1\n      pop\n        /* \"#utility.yul\":3223:3302   */\n      swap2\n      swap1\n      pop\n      jump\t// out\n        /* \"#utility.yul\":3308:3465   */\n    tag_179:\n        /* \"#utility.yul\":3413:3458   */\n      tag_226\n        /* \"#utility.yul\":3433:3457   */\n      tag_227\n        /* \"#utility.yul\":3451:3456   */\n      dup3\n        /* \"#utility.yul\":3433:3457   */\n      tag_170\n      jump\t// in\n    tag_227:\n        /* \"#utility.yul\":3413:3458   */\n      tag_178\n      jump\t// in\n    tag_226:\n        /* \"#utility.yul\":3408:3411   */\n      dup3\n        /* \"#utility.yul\":3401:3459   */\n      mstore\n        /* \"#utility.yul\":3308:3465   */\n      pop\n      pop\n      jump\t// out\n        /* \"#utility.yul\":3471:4009   */\n    tag_85:\n        /* \"#utility.yul\":3639:3642   */\n      0x00\n        /* \"#utility.yul\":3654:3729   */\n      tag_229\n        /* \"#utility.yul\":3725:3728   */\n      dup3\n        /* \"#utility.yul\":3716:3722   */\n      dup7\n        /* \"#utility.yul\":3654:3729   */\n      tag_179\n      jump\t// in\n    tag_229:\n        /* \"#utility.yul\":3754:3756   */\n      0x20\n        /* \"#utility.yul\":3749:3752   */\n      dup3\n        /* \"#utility.yul\":3745:3757   */\n      add\n        /* \"#utility.yul\":3738:3757   */\n      swap2\n      pop\n        /* \"#utility.yul\":3767:3842   */\n      tag_230\n        /* \"#utility.yul\":3838:3841   */\n      dup3\n        /* \"#utility.yul\":3829:3835   */\n      dup6\n        /* \"#utility.yul\":3767:3842   */\n      tag_179\n      jump\t// in\n    tag_230:\n        /* \"#utility.yul\":3867:3869   */\n      0x20\n        /* \"#utility.yul\":3862:3865   */\n      dup3\n        /* \"#utility.yul\":3858:3870   */\n      add\n        /* \"#utility.yul\":3851:3870   */\n      swap2\n      pop\n        /* \"#utility.yul\":3880:3955   */\n      tag_231\n        /* \"#utility.yul\":3951:3954   */\n      dup3\n        /* \"#utility.yul\":3942:3948   */\n      dup5\n        /* \"#utility.yul\":3880:3955   */\n      tag_179\n      jump\t// in\n    tag_231:\n        /* \"#utility.yul\":3980:3982   */\n      0x20\n        /* \"#utility.yul\":3975:3978   */\n      dup3\n        /* \"#utility.yul\":3971:3983   */\n      add\n        /* \"#utility.yul\":3964:3983   */\n      swap2\n      pop\n        /* \"#utility.yul\":4000:4003   */\n      dup2\n        /* \"#utility.yul\":3993:4003   */\n      swap1\n      pop\n        /* \"#utility.yul\":3471:4009   */\n      swap5\n      swap4\n      pop\n      pop\n      pop\n      pop\n      jump\t// out\n        /* \"#utility.yul\":4015:4195   */\n    tag_180:\n        /* \"#utility.yul\":4063:4140   */\n      0x4e487b7100000000000000000000000000000000000000000000000000000000\n        /* \"#utility.yul\":4060:4061   */\n      0x00\n        /* \"#utility.yul\":4053:4141   */\n      mstore\n        /* \"#utility.yul\":4160:4164   */\n      0x11\n        /* \"#utility.yul\":4157:4158   */\n      0x04\n        /* \"#utility.yul\":4150:4165   */\n      mstore\n        /* \"#utility.yul\":4184:4188   */\n      0x24\n        /* \"#utility.yul\":4181:4182   */\n      0x00\n        /* \"#utility.yul\":4174:4189   */\n      revert\n        /* \"#utility.yul\":4201:4392   */\n    tag_98:\n        /* \"#utility.yul\":4241:4244   */\n      0x00\n        /* \"#utility.yul\":4260:4280   */\n      tag_234\n        /* \"#utility.yul\":4278:4279   */\n      dup3\n        /* \"#utility.yul\":4260:4280   */\n      tag_170\n      jump\t// in\n    tag_234:\n        /* \"#utility.yul\":4255:4280   */\n      swap2\n      pop\n        /* \"#utility.yul\":4294:4314   */\n      tag_235\n        /* \"#utility.yul\":4312:4313   */\n      dup4\n        /* \"#utility.yul\":4294:4314   */\n      tag_170\n      jump\t// in\n    tag_235:\n        /* \"#utility.yul\":4289:4314   */\n      swap3\n      pop\n        /* \"#utility.yul\":4337:4338   */\n      dup3\n        /* \"#utility.yul\":4334:4335   */\n      dup3\n        /* \"#utility.yul\":4330:4339   */\n      add\n        /* \"#utility.yul\":4323:4339   */\n      swap1\n      pop\n        /* \"#utility.yul\":4358:4361   */\n      dup1\n        /* \"#utility.yul\":4355:4356   */\n      dup3\n        /* \"#utility.yul\":4352:4362   */\n      gt\n        /* \"#utility.yul\":4349:4385   */\n      iszero\n      tag_236\n      jumpi\n        /* \"#utility.yul\":4365:4383   */\n      tag_237\n      tag_180\n      jump\t// in\n    tag_237:\n        /* \"#utility.yul\":4349:4385   */\n    tag_236:\n        /* \"#utility.yul\":4201:4392   */\n      swap3\n      swap2\n      pop\n      pop\n      jump\t// out\n        /* \"#utility.yul\":4398:4592   */\n    tag_105:\n        /* \"#utility.yul\":4438:4442   */\n      0x00\n        /* \"#utility.yul\":4458:4478   */\n      tag_239\n        /* \"#utility.yul\":4476:4477   */\n      dup3\n        /* \"#utility.yul\":4458:4478   */\n      tag_170\n      jump\t// in\n    tag_239:\n        /* \"#utility.yul\":4453:4478   */\n      swap2\n      pop\n        /* \"#utility.yul\":4492:4512   */\n      tag_240\n        /* \"#utility.yul\":4510:4511   */\n      dup4\n        /* \"#utility.yul\":4492:4512   */\n      tag_170\n      jump\t// in\n    tag_240:\n        /* \"#utility.yul\":4487:4512   */\n      swap3\n      pop\n        /* \"#utility.yul\":4536:4537   */\n      dup3\n        /* \"#utility.yul\":4533:4534   */\n      dup3\n        /* \"#utility.yul\":4529:4538   */\n      sub\n        /* \"#utility.yul\":4521:4538   */\n      swap1\n      pop\n        /* \"#utility.yul\":4560:4561   */\n      dup2\n        /* \"#utility.yul\":4554:4558   */\n      dup2\n        /* \"#utility.yul\":4551:4562   */\n      gt\n        /* \"#utility.yul\":4548:4585   */\n      iszero\n      tag_241\n      jumpi\n        /* \"#utility.yul\":4565:4583   */\n      tag_242\n      tag_180\n      jump\t// in\n    tag_242:\n        /* \"#utility.yul\":4548:4585   */\n    tag_241:\n        /* \"#utility.yul\":4398:4592   */\n      swap3\n      swap2\n      pop\n      pop\n      jump\t// out\n        /* \"#utility.yul\":4598:4831   */\n    tag_114:\n        /* \"#utility.yul\":4637:4640   */\n      0x00\n        /* \"#utility.yul\":4660:4684   */\n      tag_244\n        /* \"#utility.yul\":4678:4683   */\n      dup3\n        /* \"#utility.yul\":4660:4684   */\n      tag_170\n      jump\t// in\n    tag_244:\n        /* \"#utility.yul\":4651:4684   */\n      swap2\n      pop\n        /* \"#utility.yul\":4706:4772   */\n      0xffffffffffffffffffffffffffffffffffffffffffffffffffffffffffffffff\n        /* \"#utility.yul\":4699:4704   */\n      dup3\n        /* \"#utility.yul\":4696:4773   */\n      sub\n        /* \"#utility.yul\":4693:4796   */\n      tag_245\n      jumpi\n        /* \"#utility.yul\":4776:4794   */\n      tag_246\n      tag_180\n      jump\t// in\n    tag_246:\n        /* \"#utility.yul\":4693:4796   */\n    tag_245:\n        /* \"#utility.yul\":4823:4824   */\n      0x01\n        /* \"#utility.yul\":4816:4821   */\n      dup3\n        /* \"#utility.yul\":4812:4825   */\n      add\n        /* \"#utility.yul\":4805:4825   */\n      swap1\n      pop\n        /* \"#utility.yul\":4598:4831   */\n      swap2\n      swap1\n      pop\n      jump\t// out\n        /* \"#utility.yul\":4837:4931   */\n    tag_181:\n        /* \"#utility.yul\":4870:4878   */\n      0x00\n        /* \"#utility.yul\":4918:4923   */\n      dup2\n        /* \"#utility.yul\":4914:4916   */\n      0x60\n        /* \"#utility.yul\":4910:4924   */\n      shl\n        /* \"#utility.yul\":4889:4924   */\n      swap1\n      pop\n        /* \"#utility.yul\":4837:4931   */\n      swap2\n      swap1\n      pop\n      jump\t// out\n        /* \"#utility.yul\":4937:5031   */\n    tag_182:\n        /* \"#utility.yul\":4976:4983   */\n      0x00\n        /* \"#utility.yul\":5005:5025   */\n      tag_249\n        /* \"#utility.yul\":5019:5024   */\n      dup3\n        /* \"#utility.yul\":5005:5025   */\n      tag_181\n      jump\t// in\n    tag_249:\n        /* \"#utility.yul\":4994:5025   */\n      swap1\n      pop\n        /* \"#utility.yul\":4937:5031   */\n      swap2\n      swap1\n      pop\n      jump\t// out\n        /* \"#utility.yul\":5037:5137   */\n    tag_183:\n        /* \"#utility.yul\":5076:5083   */\n      0x00\n        /* \"#utility.yul\":5105:5131   */\n      tag_251\n        /* \"#utility.yul\":5125:5130   */\n      dup3\n        /* \"#utility.yul\":5105:5131   */\n      tag_182\n      jump\t// in\n    tag_251:\n        /* \"#utility.yul\":5094:5131   */\n      swap1\n      pop\n        /* \"#utility.yul\":5037:5137   */\n      swap2\n      swap1\n      pop\n      jump\t// out\n        /* \"#utility.yul\":5143:5300   */\n    tag_184:\n        /* \"#utility.yul\":5248:5293   */\n      tag_253\n        /* \"#utility.yul\":5268:5292   */\n      tag_254\n        /* \"#utility.yul\":5286:5291   */\n      dup3\n        /* \"#utility.yul\":5268:5292   */\n      tag_175\n      jump\t// in\n    tag_254:\n        /* \"#utility.yul\":5248:5293   */\n      tag_183\n      jump\t// in\n    tag_253:\n        /* \"#utility.yul\":5243:5246   */\n      dup3\n        /* \"#utility.yul\":5236:5294   */\n      mstore\n        /* \"#utility.yul\":5143:5300   */\n      pop\n      pop\n      jump\t// out\n        /* \"#utility.yul\":5306:5562   */\n    tag_117:\n        /* \"#utility.yul\":5418:5421   */\n      0x00\n        /* \"#utility.yul\":5433:5508   */\n      tag_256\n        /* \"#utility.yul\":5504:5507   */\n      dup3\n        /* \"#utility.yul\":5495:5501   */\n      dup5\n        /* \"#utility.yul\":5433:5508   */\n      tag_184\n      jump\t// in\n    tag_256:\n        /* \"#utility.yul\":5533:5535   */\n      0x14\n        /* \"#utility.yul\":5528:5531   */\n      dup3\n        /* \"#utility.yul\":5524:5536   */\n      add\n        /* \"#utility.yul\":5517:5536   */\n      swap2\n      pop\n        /* \"#utility.yul\":5553:5556   */\n      dup2\n        /* \"#utility.yul\":5546:5556   */\n      swap1\n      pop\n        /* \"#utility.yul\":5306:5562   */\n      swap3\n      swap2\n      pop\n      pop\n      jump\t// out\n\n    auxdata: 0xa2646970667358221220d1b9d330212c34799688e4d4b187a39398136308769dc894cc2b5366849ccfad64736f6c63430008130033\n}\n",
				"bytecode": {
					"linkReferences": {},
					"object": "608060405260006001557fffffffffffffffffffffffffffffffffffffffffffffffffffffffffffffffff6002556000604051602001620000419190620001fe565b6040516020818303038152906040528051906020012060001c6003553480156200006a57600080fd5b5060006040518060e00160405280600081526020016002548152602001600081526020016000604051602001620000a29190620001fe565b6040516020818303038152906040528051906020012060001c81526020016000806000604051602001620000d9939291906200021b565b6040516020818303038152906040528051906020012060001c81526020016000815260200160008152509080600181540180825580915050600190039060005260206000209060070201600090919091909150600082015181600001556020820151816001015560408201518160020155606082015181600301556080820151816004015560a0820151816005015560c0820151816006015550506200025e565b600073ffffffffffffffffffffffffffffffffffffffff82169050919050565b6000620001a7826200017a565b9050919050565b60008160601b9050919050565b6000620001c882620001ae565b9050919050565b6000620001dc82620001bb565b9050919050565b620001f8620001f2826200019a565b620001cf565b82525050565b60006200020c8284620001e3565b60148201915081905092915050565b6000620002298286620001e3565b6014820191506200023b8285620001e3565b6014820191506200024d8284620001e3565b601482019150819050949350505050565b610bca806200026e6000396000f3fe608060405234801561001057600080fd5b506004361061007d5760003560e01c80635ec01e4d1161005b5780635ec01e4d146100ff578063886e88981461011d578063bc902ad21461014d578063d1c2babb146101695761007d565b806319ea79e0146100825780633d6a7290146100b25780634d0392a8146100e3575b600080fd5b61009c6004803603810190610097919061087a565b610199565b6040516100a991906108b6565b60405180910390f35b6100cc60048036038101906100c791906108d1565b6101d8565b6040516100da929190610911565b60405180910390f35b6100fd60048036038101906100f8919061087a565b61030a565b005b610107610487565b60405161011491906108b6565b60405180910390f35b6101376004803603810190610132919061087a565b6104a4565b60405161014491906108b6565b60405180910390f35b61016760048036038101906101629190610998565b6104e2565b005b610183600480360381019061017e91906108d1565b6106ed565b60405161019091906108b6565b60405180910390f35b60008082036101aa576003546101d1565b600082815481106101be576101bd6109c5565b5b9060005260206000209060070201600401545b9050919050565b600080600084036101ef5760008091509150610303565b8260008581548110610204576102036109c5565b5b906000526020600020906007020160000154116102915760008061024d60008781548110610235576102346109c5565b5b906000526020600020906007020160060154866101d8565b915091508160008781548110610266576102656109c5565b5b9060005260206000209060070201600601819055506102848661030a565b8581935093505050610303565b6000806102c3600087815481106102ab576102aa6109c5565b5b906000526020600020906007020160050154866101d8565b9150915080600087815481106102dc576102db6109c5565b5b9060005260206000209060070201600501819055506102fa8661030a565b81869350935050505b9250929050565b600081146104845761034060008281548110610329576103286109c5565b5b906000526020600020906007020160050154610199565b60008281548110610354576103536109c5565b5b9060005260206000209060070201600301546103946000848154811061037d5761037c6109c5565b5b906000526020600020906007020160060154610199565b6040516020016103a693929190610a15565b6040516020818303038152906040528051906020012060001c600082815481106103d3576103d26109c5565b5b906000526020600020906007020160040181905550610416600082815481106103ff576103fe6109c5565b5b9060005260206000209060070201600601546104a4565b6104446000838154811061042d5761042c6109c5565b5b9060005260206000209060070201600501546104a4565b60016104509190610a81565b61045a9190610a81565b6000828154811061046e5761046d6109c5565b5b9060005260206000209060070201600201819055505b50565b6000806001436104979190610ab5565b4090508060001c91505090565b60008082036104b45760006104db565b600082815481106104c8576104c76109c5565b5b9060005260206000209060070201600201545b9050919050565b600160008154809291906104f590610ae9565b919050555060006040518060e001604052806001548152602001610517610487565b815260200160008152602001836040516020016105349190610b79565b6040516020818303038152906040528051906020012060001c8152602001600081526020016000815260200160008152509080600181540180825580915050600190039060005260206000209060070201600090919091909150600082015181600001556020820151816001015560408201518160020155606082015181600301556080820151816004015560a0820151816005015560c0820151816006015550506106066000600154815481106105ef576105ee6109c5565b5b906000526020600020906007020160050154610199565b60006001548154811061061c5761061b6109c5565b5b90600052602060002090600702016003015461065e600060015481548110610647576106466109c5565b5b906000526020600020906007020160060154610199565b60405160200161067093929190610a15565b6040516020818303038152906040528051906020012060001c60006001548154811061069f5761069e6109c5565b5b9060005260206000209060070201600401819055506106c160006001546106ed565b600080815481106106d5576106d46109c5565b5b90600052602060002090600702016006018190555050565b6000808314806106fd5750600082145b1561071957600083036107105781610712565b825b9050610839565b6000828154811061072d5761072c6109c5565b5b90600052602060002090600702016001015460008481548110610753576107526109c5565b5b90600052602060002090600702016001015411156107d45761079a60008481548110610782576107816109c5565b5b906000526020600020906007020160060154836106ed565b600084815481106107ae576107ad6109c5565b5b9060005260206000209060070201600601819055506107cc8361030a565b829050610839565b61080383600084815481106107ec576107eb6109c5565b5b9060005260206000209060070201600501546106ed565b60008381548110610817576108166109c5565b5b9060005260206000209060070201600501819055506108358261030a565b8190505b92915050565b600080fd5b6000819050919050565b61085781610844565b811461086257600080fd5b50565b6000813590506108748161084e565b92915050565b6000602082840312156108905761088f61083f565b5b600061089e84828501610865565b91505092915050565b6108b081610844565b82525050565b60006020820190506108cb60008301846108a7565b92915050565b600080604083850312156108e8576108e761083f565b5b60006108f685828601610865565b925050602061090785828601610865565b9150509250929050565b600060408201905061092660008301856108a7565b61093360208301846108a7565b9392505050565b600073ffffffffffffffffffffffffffffffffffffffff82169050919050565b60006109658261093a565b9050919050565b6109758161095a565b811461098057600080fd5b50565b6000813590506109928161096c565b92915050565b6000602082840312156109ae576109ad61083f565b5b60006109bc84828501610983565b91505092915050565b7f4e487b7100000000000000000000000000000000000000000000000000000000600052603260045260246000fd5b6000819050919050565b610a0f610a0a82610844565b6109f4565b82525050565b6000610a2182866109fe565b602082019150610a3182856109fe565b602082019150610a4182846109fe565b602082019150819050949350505050565b7f4e487b7100000000000000000000000000000000000000000000000000000000600052601160045260246000fd5b6000610a8c82610844565b9150610a9783610844565b9250828201905080821115610aaf57610aae610a52565b5b92915050565b6000610ac082610844565b9150610acb83610844565b9250828203905081811115610ae357610ae2610a52565b5b92915050565b6000610af482610844565b91507fffffffffffffffffffffffffffffffffffffffffffffffffffffffffffffffff8203610b2657610b25610a52565b5b600182019050919050565b60008160601b9050919050565b6000610b4982610b31565b9050919050565b6000610b5b82610b3e565b9050919050565b610b73610b6e8261095a565b610b50565b82525050565b6000610b858284610b62565b6014820191508190509291505056fea2646970667358221220d1b9d330212c34799688e4d4b187a39398136308769dc894cc2b5366849ccfad64736f6c63430008130033",
					"opcodes": "PUSH1 0x80 PUSH1 0x40 MSTORE PUSH1 0x0 PUSH1 0x1 SSTORE PUSH32 0xFFFFFFFFFFFFFFFFFFFFFFFFFFFFFFFFFFFFFFFFFFFFFFFFFFFFFFFFFFFFFFFF PUSH1 0x2 SSTORE PUSH1 0x0 PUSH1 0x40 MLOAD PUSH1 0x20 ADD PUSH3 0x41 SWAP2 SWAP1 PUSH3 0x1FE JUMP JUMPDEST PUSH1 0x40 MLOAD PUSH1 0x20 DUP2 DUP4 SUB SUB DUP2 MSTORE SWAP1 PUSH1 0x40 MSTORE DUP1 MLOAD SWAP1 PUSH1 0x20 ADD KECCAK256 PUSH1 0x0 SHR PUSH1 0x3 SSTORE CALLVALUE DUP1 ISZERO PUSH3 0x6A JUMPI PUSH1 0x0 DUP1 REVERT JUMPDEST POP PUSH1 0x0 PUSH1 0x40 MLOAD DUP1 PUSH1 0xE0 ADD PUSH1 0x40 MSTORE DUP1 PUSH1 0x0 DUP2 MSTORE PUSH1 0x20 ADD PUSH1 0x2 SLOAD DUP2 MSTORE PUSH1 0x20 ADD PUSH1 0x0 DUP2 MSTORE PUSH1 0x20 ADD PUSH1 0x0 PUSH1 0x40 MLOAD PUSH1 0x20 ADD PUSH3 0xA2 SWAP2 SWAP1 PUSH3 0x1FE JUMP JUMPDEST PUSH1 0x40 MLOAD PUSH1 0x20 DUP2 DUP4 SUB SUB DUP2 MSTORE SWAP1 PUSH1 0x40 MSTORE DUP1 MLOAD SWAP1 PUSH1 0x20 ADD KECCAK256 PUSH1 0x0 SHR DUP2 MSTORE PUSH1 0x20 ADD PUSH1 0x0 DUP1 PUSH1 0x0 PUSH1 0x40 MLOAD PUSH1 0x20 ADD PUSH3 0xD9 SWAP4 SWAP3 SWAP2 SWAP1 PUSH3 0x21B JUMP JUMPDEST PUSH1 0x40 MLOAD PUSH1 0x20 DUP2 DUP4 SUB SUB DUP2 MSTORE SWAP1 PUSH1 0x40 MSTORE DUP1 MLOAD SWAP1 PUSH1 0x20 ADD KECCAK256 PUSH1 0x0 SHR DUP2 MSTORE PUSH1 0x20 ADD PUSH1 0x0 DUP2 MSTORE PUSH1 0x20 ADD PUSH1 0x0 DUP2 MSTORE POP SWAP1 DUP1 PUSH1 0x1 DUP2 SLOAD ADD DUP1 DUP3 SSTORE DUP1 SWAP2 POP POP PUSH1 0x1 SWAP1 SUB SWAP1 PUSH1 0x0 MSTORE PUSH1 0x20 PUSH1 0x0 KECCAK256 SWAP1 PUSH1 0x7 MUL ADD PUSH1 0x0 SWAP1 SWAP2 SWAP1 SWAP2 SWAP1 SWAP2 POP PUSH1 0x0 DUP3 ADD MLOAD DUP2 PUSH1 0x0 ADD SSTORE PUSH1 0x20 DUP3 ADD MLOAD DUP2 PUSH1 0x1 ADD SSTORE PUSH1 0x40 DUP3 ADD MLOAD DUP2 PUSH1 0x2 ADD SSTORE PUSH1 0x60 DUP3 ADD MLOAD DUP2 PUSH1 0x3 ADD SSTORE PUSH1 0x80 DUP3 ADD MLOAD DUP2 PUSH1 0x4 ADD SSTORE PUSH1 0xA0 DUP3 ADD MLOAD DUP2 PUSH1 0x5 ADD SSTORE PUSH1 0xC0 DUP3 ADD MLOAD DUP2 PUSH1 0x6 ADD SSTORE POP POP PUSH3 0x25E JUMP JUMPDEST PUSH1 0x0 PUSH20 0xFFFFFFFFFFFFFFFFFFFFFFFFFFFFFFFFFFFFFFFF DUP3 AND SWAP1 POP SWAP2 SWAP1 POP JUMP JUMPDEST PUSH1 0x0 PUSH3 0x1A7 DUP3 PUSH3 0x17A JUMP JUMPDEST SWAP1 POP SWAP2 SWAP1 POP JUMP JUMPDEST PUSH1 0x0 DUP2 PUSH1 0x60 SHL SWAP1 POP SWAP2 SWAP1 POP JUMP JUMPDEST PUSH1 0x0 PUSH3 0x1C8 DUP3 PUSH3 0x1AE JUMP JUMPDEST SWAP1 POP SWAP2 SWAP1 POP JUMP JUMPDEST PUSH1 0x0 PUSH3 0x1DC DUP3 PUSH3 0x1BB JUMP JUMPDEST SWAP1 POP SWAP2 SWAP1 POP JUMP JUMPDEST PUSH3 0x1F8 PUSH3 0x1F2 DUP3 PUSH3 0x19A JUMP JUMPDEST PUSH3 0x1CF JUMP JUMPDEST DUP3 MSTORE POP POP JUMP JUMPDEST PUSH1 0x0 PUSH3 0x20C DUP3 DUP5 PUSH3 0x1E3 JUMP JUMPDEST PUSH1 0x14 DUP3 ADD SWAP2 POP DUP2 SWAP1 POP SWAP3 SWAP2 POP POP JUMP JUMPDEST PUSH1 0x0 PUSH3 0x229 DUP3 DUP7 PUSH3 0x1E3 JUMP JUMPDEST PUSH1 0x14 DUP3 ADD SWAP2 POP PUSH3 0x23B DUP3 DUP6 PUSH3 0x1E3 JUMP JUMPDEST PUSH1 0x14 DUP3 ADD SWAP2 POP PUSH3 0x24D DUP3 DUP5 PUSH3 0x1E3 JUMP JUMPDEST PUSH1 0x14 DUP3 ADD SWAP2 POP DUP2 SWAP1 POP SWAP5 SWAP4 POP POP POP POP JUMP JUMPDEST PUSH2 0xBCA DUP1 PUSH3 0x26E PUSH1 0x0 CODECOPY PUSH1 0x0 RETURN INVALID PUSH1 0x80 PUSH1 0x40 MSTORE CALLVALUE DUP1 ISZERO PUSH2 0x10 JUMPI PUSH1 0x0 DUP1 REVERT JUMPDEST POP PUSH1 0x4 CALLDATASIZE LT PUSH2 0x7D JUMPI PUSH1 0x0 CALLDATALOAD PUSH1 0xE0 SHR DUP1 PUSH4 0x5EC01E4D GT PUSH2 0x5B JUMPI DUP1 PUSH4 0x5EC01E4D EQ PUSH2 0xFF JUMPI DUP1 PUSH4 0x886E8898 EQ PUSH2 0x11D JUMPI DUP1 PUSH4 0xBC902AD2 EQ PUSH2 0x14D JUMPI DUP1 PUSH4 0xD1C2BABB EQ PUSH2 0x169 JUMPI PUSH2 0x7D JUMP JUMPDEST DUP1 PUSH4 0x19EA79E0 EQ PUSH2 0x82 JUMPI DUP1 PUSH4 0x3D6A7290 EQ PUSH2 0xB2 JUMPI DUP1 PUSH4 0x4D0392A8 EQ PUSH2 0xE3 JUMPI JUMPDEST PUSH1 0x0 DUP1 REVERT JUMPDEST PUSH2 0x9C PUSH1 0x4 DUP1 CALLDATASIZE SUB DUP2 ADD SWAP1 PUSH2 0x97 SWAP2 SWAP1 PUSH2 0x87A JUMP JUMPDEST PUSH2 0x199 JUMP JUMPDEST PUSH1 0x40 MLOAD PUSH2 0xA9 SWAP2 SWAP1 PUSH2 0x8B6 JUMP JUMPDEST PUSH1 0x40 MLOAD DUP1 SWAP2 SUB SWAP1 RETURN JUMPDEST PUSH2 0xCC PUSH1 0x4 DUP1 CALLDATASIZE SUB DUP2 ADD SWAP1 PUSH2 0xC7 SWAP2 SWAP1 PUSH2 0x8D1 JUMP JUMPDEST PUSH2 0x1D8 JUMP JUMPDEST PUSH1 0x40 MLOAD PUSH2 0xDA SWAP3 SWAP2 SWAP1 PUSH2 0x911 JUMP JUMPDEST PUSH1 0x40 MLOAD DUP1 SWAP2 SUB SWAP1 RETURN JUMPDEST PUSH2 0xFD PUSH1 0x4 DUP1 CALLDATASIZE SUB DUP2 ADD SWAP1 PUSH2 0xF8 SWAP2 SWAP1 PUSH2 0x87A JUMP JUMPDEST PUSH2 0x30A JUMP JUMPDEST STOP JUMPDEST PUSH2 0x107 PUSH2 0x487 JUMP JUMPDEST PUSH1 0x40 MLOAD PUSH2 0x114 SWAP2 SWAP1 PUSH2 0x8B6 JUMP JUMPDEST PUSH1 0x40 MLOAD DUP1 SWAP2 SUB SWAP1 RETURN JUMPDEST PUSH2 0x137 PUSH1 0x4 DUP1 CALLDATASIZE SUB DUP2 ADD SWAP1 PUSH2 0x132 SWAP2 SWAP1 PUSH2 0x87A JUMP JUMPDEST PUSH2 0x4A4 JUMP JUMPDEST PUSH1 0x40 MLOAD PUSH2 0x144 SWAP2 SWAP1 PUSH2 0x8B6 JUMP JUMPDEST PUSH1 0x40 MLOAD DUP1 SWAP2 SUB SWAP1 RETURN JUMPDEST PUSH2 0x167 PUSH1 0x4 DUP1 CALLDATASIZE SUB DUP2 ADD SWAP1 PUSH2 0x162 SWAP2 SWAP1 PUSH2 0x998 JUMP JUMPDEST PUSH2 0x4E2 JUMP JUMPDEST STOP JUMPDEST PUSH2 0x183 PUSH1 0x4 DUP1 CALLDATASIZE SUB DUP2 ADD SWAP1 PUSH2 0x17E SWAP2 SWAP1 PUSH2 0x8D1 JUMP JUMPDEST PUSH2 0x6ED JUMP JUMPDEST PUSH1 0x40 MLOAD PUSH2 0x190 SWAP2 SWAP1 PUSH2 0x8B6 JUMP JUMPDEST PUSH1 0x40 MLOAD DUP1 SWAP2 SUB SWAP1 RETURN JUMPDEST PUSH1 0x0 DUP1 DUP3 SUB PUSH2 0x1AA JUMPI PUSH1 0x3 SLOAD PUSH2 0x1D1 JUMP JUMPDEST PUSH1 0x0 DUP3 DUP2 SLOAD DUP2 LT PUSH2 0x1BE JUMPI PUSH2 0x1BD PUSH2 0x9C5 JUMP JUMPDEST JUMPDEST SWAP1 PUSH1 0x0 MSTORE PUSH1 0x20 PUSH1 0x0 KECCAK256 SWAP1 PUSH1 0x7 MUL ADD PUSH1 0x4 ADD SLOAD JUMPDEST SWAP1 POP SWAP2 SWAP1 POP JUMP JUMPDEST PUSH1 0x0 DUP1 PUSH1 0x0 DUP5 SUB PUSH2 0x1EF JUMPI PUSH1 0x0 DUP1 SWAP2 POP SWAP2 POP PUSH2 0x303 JUMP JUMPDEST DUP3 PUSH1 0x0 DUP6 DUP2 SLOAD DUP2 LT PUSH2 0x204 JUMPI PUSH2 0x203 PUSH2 0x9C5 JUMP JUMPDEST JUMPDEST SWAP1 PUSH1 0x0 MSTORE PUSH1 0x20 PUSH1 0x0 KECCAK256 SWAP1 PUSH1 0x7 MUL ADD PUSH1 0x0 ADD SLOAD GT PUSH2 0x291 JUMPI PUSH1 0x0 DUP1 PUSH2 0x24D PUSH1 0x0 DUP8 DUP2 SLOAD DUP2 LT PUSH2 0x235 JUMPI PUSH2 0x234 PUSH2 0x9C5 JUMP JUMPDEST JUMPDEST SWAP1 PUSH1 0x0 MSTORE PUSH1 0x20 PUSH1 0x0 KECCAK256 SWAP1 PUSH1 0x7 MUL ADD PUSH1 0x6 ADD SLOAD DUP7 PUSH2 0x1D8 JUMP JUMPDEST SWAP2 POP SWAP2 POP DUP2 PUSH1 0x0 DUP8 DUP2 SLOAD DUP2 LT PUSH2 0x266 JUMPI PUSH2 0x265 PUSH2 0x9C5 JUMP JUMPDEST JUMPDEST SWAP1 PUSH1 0x0 MSTORE PUSH1 0x20 PUSH1 0x0 KECCAK256 SWAP1 PUSH1 0x7 MUL ADD PUSH1 0x6 ADD DUP2 SWAP1 SSTORE POP PUSH2 0x284 DUP7 PUSH2 0x30A JUMP JUMPDEST DUP6 DUP2 SWAP4 POP SWAP4 POP POP POP PUSH2 0x303 JUMP JUMPDEST PUSH1 0x0 DUP1 PUSH2 0x2C3 PUSH1 0x0 DUP8 DUP2 SLOAD DUP2 LT PUSH2 0x2AB JUMPI PUSH2 0x2AA PUSH2 0x9C5 JUMP JUMPDEST JUMPDEST SWAP1 PUSH1 0x0 MSTORE PUSH1 0x20 PUSH1 0x0 KECCAK256 SWAP1 PUSH1 0x7 MUL ADD PUSH1 0x5 ADD SLOAD DUP7 PUSH2 0x1D8 JUMP JUMPDEST SWAP2 POP SWAP2 POP DUP1 PUSH1 0x0 DUP8 DUP2 SLOAD DUP2 LT PUSH2 0x2DC JUMPI PUSH2 0x2DB PUSH2 0x9C5 JUMP JUMPDEST JUMPDEST SWAP1 PUSH1 0x0 MSTORE PUSH1 0x20 PUSH1 0x0 KECCAK256 SWAP1 PUSH1 0x7 MUL ADD PUSH1 0x5 ADD DUP2 SWAP1 SSTORE POP PUSH2 0x2FA DUP7 PUSH2 0x30A JUMP JUMPDEST DUP2 DUP7 SWAP4 POP SWAP4 POP POP POP JUMPDEST SWAP3 POP SWAP3 SWAP1 POP JUMP JUMPDEST PUSH1 0x0 DUP2 EQ PUSH2 0x484 JUMPI PUSH2 0x340 PUSH1 0x0 DUP3 DUP2 SLOAD DUP2 LT PUSH2 0x329 JUMPI PUSH2 0x328 PUSH2 0x9C5 JUMP JUMPDEST JUMPDEST SWAP1 PUSH1 0x0 MSTORE PUSH1 0x20 PUSH1 0x0 KECCAK256 SWAP1 PUSH1 0x7 MUL ADD PUSH1 0x5 ADD SLOAD PUSH2 0x199 JUMP JUMPDEST PUSH1 0x0 DUP3 DUP2 SLOAD DUP2 LT PUSH2 0x354 JUMPI PUSH2 0x353 PUSH2 0x9C5 JUMP JUMPDEST JUMPDEST SWAP1 PUSH1 0x0 MSTORE PUSH1 0x20 PUSH1 0x0 KECCAK256 SWAP1 PUSH1 0x7 MUL ADD PUSH1 0x3 ADD SLOAD PUSH2 0x394 PUSH1 0x0 DUP5 DUP2 SLOAD DUP2 LT PUSH2 0x37D JUMPI PUSH2 0x37C PUSH2 0x9C5 JUMP JUMPDEST JUMPDEST SWAP1 PUSH1 0x0 MSTORE PUSH1 0x20 PUSH1 0x0 KECCAK256 SWAP1 PUSH1 0x7 MUL ADD PUSH1 0x6 ADD SLOAD PUSH2 0x199 JUMP JUMPDEST PUSH1 0x40 MLOAD PUSH1 0x20 ADD PUSH2 0x3A6 SWAP4 SWAP3 SWAP2 SWAP1 PUSH2 0xA15 JUMP JUMPDEST PUSH1 0x40 MLOAD PUSH1 0x20 DUP2 DUP4 SUB SUB DUP2 MSTORE SWAP1 PUSH1 0x40 MSTORE DUP1 MLOAD SWAP1 PUSH1 0x20 ADD KECCAK256 PUSH1 0x0 SHR PUSH1 0x0 DUP3 DUP2 SLOAD DUP2 LT PUSH2 0x3D3 JUMPI PUSH2 0x3D2 PUSH2 0x9C5 JUMP JUMPDEST JUMPDEST SWAP1 PUSH1 0x0 MSTORE PUSH1 0x20 PUSH1 0x0 KECCAK256 SWAP1 PUSH1 0x7 MUL ADD PUSH1 0x4 ADD DUP2 SWAP1 SSTORE POP PUSH2 0x416 PUSH1 0x0 DUP3 DUP2 SLOAD DUP2 LT PUSH2 0x3FF JUMPI PUSH2 0x3FE PUSH2 0x9C5 JUMP JUMPDEST JUMPDEST SWAP1 PUSH1 0x0 MSTORE PUSH1 0x20 PUSH1 0x0 KECCAK256 SWAP1 PUSH1 0x7 MUL ADD PUSH1 0x6 ADD SLOAD PUSH2 0x4A4 JUMP JUMPDEST PUSH2 0x444 PUSH1 0x0 DUP4 DUP2 SLOAD DUP2 LT PUSH2 0x42D JUMPI PUSH2 0x42C PUSH2 0x9C5 JUMP JUMPDEST JUMPDEST SWAP1 PUSH1 0x0 MSTORE PUSH1 0x20 PUSH1 0x0 KECCAK256 SWAP1 PUSH1 0x7 MUL ADD PUSH1 0x5 ADD SLOAD PUSH2 0x4A4 JUMP JUMPDEST PUSH1 0x1 PUSH2 0x450 SWAP2 SWAP1 PUSH2 0xA81 JUMP JUMPDEST PUSH2 0x45A SWAP2 SWAP1 PUSH2 0xA81 JUMP JUMPDEST PUSH1 0x0 DUP3 DUP2 SLOAD DUP2 LT PUSH2 0x46E JUMPI PUSH2 0x46D PUSH2 0x9C5 JUMP JUMPDEST JUMPDEST SWAP1 PUSH1 0x0 MSTORE PUSH1 0x20 PUSH1 0x0 KECCAK256 SWAP1 PUSH1 0x7 MUL ADD PUSH1 0x2 ADD DUP2 SWAP1 SSTORE POP JUMPDEST POP JUMP JUMPDEST PUSH1 0x0 DUP1 PUSH1 0x1 NUMBER PUSH2 0x497 SWAP2 SWAP1 PUSH2 0xAB5 JUMP JUMPDEST BLOCKHASH SWAP1 POP DUP1 PUSH1 0x0 SHR SWAP2 POP POP SWAP1 JUMP JUMPDEST PUSH1 0x0 DUP1 DUP3 SUB PUSH2 0x4B4 JUMPI PUSH1 0x0 PUSH2 0x4DB JUMP JUMPDEST PUSH1 0x0 DUP3 DUP2 SLOAD DUP2 LT PUSH2 0x4C8 JUMPI PUSH2 0x4C7 PUSH2 0x9C5 JUMP JUMPDEST JUMPDEST SWAP1 PUSH1 0x0 MSTORE PUSH1 0x20 PUSH1 0x0 KECCAK256 SWAP1 PUSH1 0x7 MUL ADD PUSH1 0x2 ADD SLOAD JUMPDEST SWAP1 POP SWAP2 SWAP1 POP JUMP JUMPDEST PUSH1 0x1 PUSH1 0x0 DUP2 SLOAD DUP1 SWAP3 SWAP2 SWAP1 PUSH2 0x4F5 SWAP1 PUSH2 0xAE9 JUMP JUMPDEST SWAP2 SWAP1 POP SSTORE POP PUSH1 0x0 PUSH1 0x40 MLOAD DUP1 PUSH1 0xE0 ADD PUSH1 0x40 MSTORE DUP1 PUSH1 0x1 SLOAD DUP2 MSTORE PUSH1 0x20 ADD PUSH2 0x517 PUSH2 0x487 JUMP JUMPDEST DUP2 MSTORE PUSH1 0x20 ADD PUSH1 0x0 DUP2 MSTORE PUSH1 0x20 ADD DUP4 PUSH1 0x40 MLOAD PUSH1 0x20 ADD PUSH2 0x534 SWAP2 SWAP1 PUSH2 0xB79 JUMP JUMPDEST PUSH1 0x40 MLOAD PUSH1 0x20 DUP2 DUP4 SUB SUB DUP2 MSTORE SWAP1 PUSH1 0x40 MSTORE DUP1 MLOAD SWAP1 PUSH1 0x20 ADD KECCAK256 PUSH1 0x0 SHR DUP2 MSTORE PUSH1 0x20 ADD PUSH1 0x0 DUP2 MSTORE PUSH1 0x20 ADD PUSH1 0x0 DUP2 MSTORE PUSH1 0x20 ADD PUSH1 0x0 DUP2 MSTORE POP SWAP1 DUP1 PUSH1 0x1 DUP2 SLOAD ADD DUP1 DUP3 SSTORE DUP1 SWAP2 POP POP PUSH1 0x1 SWAP1 SUB SWAP1 PUSH1 0x0 MSTORE PUSH1 0x20 PUSH1 0x0 KECCAK256 SWAP1 PUSH1 0x7 MUL ADD PUSH1 0x0 SWAP1 SWAP2 SWAP1 SWAP2 SWAP1 SWAP2 POP PUSH1 0x0 DUP3 ADD MLOAD DUP2 PUSH1 0x0 ADD SSTORE PUSH1 0x20 DUP3 ADD MLOAD DUP2 PUSH1 0x1 ADD SSTORE PUSH1 0x40 DUP3 ADD MLOAD DUP2 PUSH1 0x2 ADD SSTORE PUSH1 0x60 DUP3 ADD MLOAD DUP2 PUSH1 0x3 ADD SSTORE PUSH1 0x80 DUP3 ADD MLOAD DUP2 PUSH1 0x4 ADD SSTORE PUSH1 0xA0 DUP3 ADD MLOAD DUP2 PUSH1 0x5 ADD SSTORE PUSH1 0xC0 DUP3 ADD MLOAD DUP2 PUSH1 0x6 ADD SSTORE POP POP PUSH2 0x606 PUSH1 0x0 PUSH1 0x1 SLOAD DUP2 SLOAD DUP2 LT PUSH2 0x5EF JUMPI PUSH2 0x5EE PUSH2 0x9C5 JUMP JUMPDEST JUMPDEST SWAP1 PUSH1 0x0 MSTORE PUSH1 0x20 PUSH1 0x0 KECCAK256 SWAP1 PUSH1 0x7 MUL ADD PUSH1 0x5 ADD SLOAD PUSH2 0x199 JUMP JUMPDEST PUSH1 0x0 PUSH1 0x1 SLOAD DUP2 SLOAD DUP2 LT PUSH2 0x61C JUMPI PUSH2 0x61B PUSH2 0x9C5 JUMP JUMPDEST JUMPDEST SWAP1 PUSH1 0x0 MSTORE PUSH1 0x20 PUSH1 0x0 KECCAK256 SWAP1 PUSH1 0x7 MUL ADD PUSH1 0x3 ADD SLOAD PUSH2 0x65E PUSH1 0x0 PUSH1 0x1 SLOAD DUP2 SLOAD DUP2 LT PUSH2 0x647 JUMPI PUSH2 0x646 PUSH2 0x9C5 JUMP JUMPDEST JUMPDEST SWAP1 PUSH1 0x0 MSTORE PUSH1 0x20 PUSH1 0x0 KECCAK256 SWAP1 PUSH1 0x7 MUL ADD PUSH1 0x6 ADD SLOAD PUSH2 0x199 JUMP JUMPDEST PUSH1 0x40 MLOAD PUSH1 0x20 ADD PUSH2 0x670 SWAP4 SWAP3 SWAP2 SWAP1 PUSH2 0xA15 JUMP JUMPDEST PUSH1 0x40 MLOAD PUSH1 0x20 DUP2 DUP4 SUB SUB DUP2 MSTORE SWAP1 PUSH1 0x40 MSTORE DUP1 MLOAD SWAP1 PUSH1 0x20 ADD KECCAK256 PUSH1 0x0 SHR PUSH1 0x0 PUSH1 0x1 SLOAD DUP2 SLOAD DUP2 LT PUSH2 0x69F JUMPI PUSH2 0x69E PUSH2 0x9C5 JUMP JUMPDEST JUMPDEST SWAP1 PUSH1 0x0 MSTORE PUSH1 0x20 PUSH1 0x0 KECCAK256 SWAP1 PUSH1 0x7 MUL ADD PUSH1 0x4 ADD DUP2 SWAP1 SSTORE POP PUSH2 0x6C1 PUSH1 0x0 PUSH1 0x1 SLOAD PUSH2 0x6ED JUMP JUMPDEST PUSH1 0x0 DUP1 DUP2 SLOAD DUP2 LT PUSH2 0x6D5 JUMPI PUSH2 0x6D4 PUSH2 0x9C5 JUMP JUMPDEST JUMPDEST SWAP1 PUSH1 0x0 MSTORE PUSH1 0x20 PUSH1 0x0 KECCAK256 SWAP1 PUSH1 0x7 MUL ADD PUSH1 0x6 ADD DUP2 SWAP1 SSTORE POP POP JUMP JUMPDEST PUSH1 0x0 DUP1 DUP4 EQ DUP1 PUSH2 0x6FD JUMPI POP PUSH1 0x0 DUP3 EQ JUMPDEST ISZERO PUSH2 0x719 JUMPI PUSH1 0x0 DUP4 SUB PUSH2 0x710 JUMPI DUP2 PUSH2 0x712 JUMP JUMPDEST DUP3 JUMPDEST SWAP1 POP PUSH2 0x839 JUMP JUMPDEST PUSH1 0x0 DUP3 DUP2 SLOAD DUP2 LT PUSH2 0x72D JUMPI PUSH2 0x72C PUSH2 0x9C5 JUMP JUMPDEST JUMPDEST SWAP1 PUSH1 0x0 MSTORE PUSH1 0x20 PUSH1 0x0 KECCAK256 SWAP1 PUSH1 0x7 MUL ADD PUSH1 0x1 ADD SLOAD PUSH1 0x0 DUP5 DUP2 SLOAD DUP2 LT PUSH2 0x753 JUMPI PUSH2 0x752 PUSH2 0x9C5 JUMP JUMPDEST JUMPDEST SWAP1 PUSH1 0x0 MSTORE PUSH1 0x20 PUSH1 0x0 KECCAK256 SWAP1 PUSH1 0x7 MUL ADD PUSH1 0x1 ADD SLOAD GT ISZERO PUSH2 0x7D4 JUMPI PUSH2 0x79A PUSH1 0x0 DUP5 DUP2 SLOAD DUP2 LT PUSH2 0x782 JUMPI PUSH2 0x781 PUSH2 0x9C5 JUMP JUMPDEST JUMPDEST SWAP1 PUSH1 0x0 MSTORE PUSH1 0x20 PUSH1 0x0 KECCAK256 SWAP1 PUSH1 0x7 MUL ADD PUSH1 0x6 ADD SLOAD DUP4 PUSH2 0x6ED JUMP JUMPDEST PUSH1 0x0 DUP5 DUP2 SLOAD DUP2 LT PUSH2 0x7AE JUMPI PUSH2 0x7AD PUSH2 0x9C5 JUMP JUMPDEST JUMPDEST SWAP1 PUSH1 0x0 MSTORE PUSH1 0x20 PUSH1 0x0 KECCAK256 SWAP1 PUSH1 0x7 MUL ADD PUSH1 0x6 ADD DUP2 SWAP1 SSTORE POP PUSH2 0x7CC DUP4 PUSH2 0x30A JUMP JUMPDEST DUP3 SWAP1 POP PUSH2 0x839 JUMP JUMPDEST PUSH2 0x803 DUP4 PUSH1 0x0 DUP5 DUP2 SLOAD DUP2 LT PUSH2 0x7EC JUMPI PUSH2 0x7EB PUSH2 0x9C5 JUMP JUMPDEST JUMPDEST SWAP1 PUSH1 0x0 MSTORE PUSH1 0x20 PUSH1 0x0 KECCAK256 SWAP1 PUSH1 0x7 MUL ADD PUSH1 0x5 ADD SLOAD PUSH2 0x6ED JUMP JUMPDEST PUSH1 0x0 DUP4 DUP2 SLOAD DUP2 LT PUSH2 0x817 JUMPI PUSH2 0x816 PUSH2 0x9C5 JUMP JUMPDEST JUMPDEST SWAP1 PUSH1 0x0 MSTORE PUSH1 0x20 PUSH1 0x0 KECCAK256 SWAP1 PUSH1 0x7 MUL ADD PUSH1 0x5 ADD DUP2 SWAP1 SSTORE POP PUSH2 0x835 DUP3 PUSH2 0x30A JUMP JUMPDEST DUP2 SWAP1 POP JUMPDEST SWAP3 SWAP2 POP POP JUMP JUMPDEST PUSH1 0x0 DUP1 REVERT JUMPDEST PUSH1 0x0 DUP2 SWAP1 POP SWAP2 SWAP1 POP JUMP JUMPDEST PUSH2 0x857 DUP2 PUSH2 0x844 JUMP JUMPDEST DUP2 EQ PUSH2 0x862 JUMPI PUSH1 0x0 DUP1 REVERT JUMPDEST POP JUMP JUMPDEST PUSH1 0x0 DUP2 CALLDATALOAD SWAP1 POP PUSH2 0x874 DUP2 PUSH2 0x84E JUMP JUMPDEST SWAP3 SWAP2 POP POP JUMP JUMPDEST PUSH1 0x0 PUSH1 0x20 DUP3 DUP5 SUB SLT ISZERO PUSH2 0x890 JUMPI PUSH2 0x88F PUSH2 0x83F JUMP JUMPDEST JUMPDEST PUSH1 0x0 PUSH2 0x89E DUP5 DUP3 DUP6 ADD PUSH2 0x865 JUMP JUMPDEST SWAP2 POP POP SWAP3 SWAP2 POP POP JUMP JUMPDEST PUSH2 0x8B0 DUP2 PUSH2 0x844 JUMP JUMPDEST DUP3 MSTORE POP POP JUMP JUMPDEST PUSH1 0x0 PUSH1 0x20 DUP3 ADD SWAP1 POP PUSH2 0x8CB PUSH1 0x0 DUP4 ADD DUP5 PUSH2 0x8A7 JUMP JUMPDEST SWAP3 SWAP2 POP POP JUMP JUMPDEST PUSH1 0x0 DUP1 PUSH1 0x40 DUP4 DUP6 SUB SLT ISZERO PUSH2 0x8E8 JUMPI PUSH2 0x8E7 PUSH2 0x83F JUMP JUMPDEST JUMPDEST PUSH1 0x0 PUSH2 0x8F6 DUP6 DUP3 DUP7 ADD PUSH2 0x865 JUMP JUMPDEST SWAP3 POP POP PUSH1 0x20 PUSH2 0x907 DUP6 DUP3 DUP7 ADD PUSH2 0x865 JUMP JUMPDEST SWAP2 POP POP SWAP3 POP SWAP3 SWAP1 POP JUMP JUMPDEST PUSH1 0x0 PUSH1 0x40 DUP3 ADD SWAP1 POP PUSH2 0x926 PUSH1 0x0 DUP4 ADD DUP6 PUSH2 0x8A7 JUMP JUMPDEST PUSH2 0x933 PUSH1 0x20 DUP4 ADD DUP5 PUSH2 0x8A7 JUMP JUMPDEST SWAP4 SWAP3 POP POP POP JUMP JUMPDEST PUSH1 0x0 PUSH20 0xFFFFFFFFFFFFFFFFFFFFFFFFFFFFFFFFFFFFFFFF DUP3 AND SWAP1 POP SWAP2 SWAP1 POP JUMP JUMPDEST PUSH1 0x0 PUSH2 0x965 DUP3 PUSH2 0x93A JUMP JUMPDEST SWAP1 POP SWAP2 SWAP1 POP JUMP JUMPDEST PUSH2 0x975 DUP2 PUSH2 0x95A JUMP JUMPDEST DUP2 EQ PUSH2 0x980 JUMPI PUSH1 0x0 DUP1 REVERT JUMPDEST POP JUMP JUMPDEST PUSH1 0x0 DUP2 CALLDATALOAD SWAP1 POP PUSH2 0x992 DUP2 PUSH2 0x96C JUMP JUMPDEST SWAP3 SWAP2 POP POP JUMP JUMPDEST PUSH1 0x0 PUSH1 0x20 DUP3 DUP5 SUB SLT ISZERO PUSH2 0x9AE JUMPI PUSH2 0x9AD PUSH2 0x83F JUMP JUMPDEST JUMPDEST PUSH1 0x0 PUSH2 0x9BC DUP5 DUP3 DUP6 ADD PUSH2 0x983 JUMP JUMPDEST SWAP2 POP POP SWAP3 SWAP2 POP POP JUMP JUMPDEST PUSH32 0x4E487B7100000000000000000000000000000000000000000000000000000000 PUSH1 0x0 MSTORE PUSH1 0x32 PUSH1 0x4 MSTORE PUSH1 0x24 PUSH1 0x0 REVERT JUMPDEST PUSH1 0x0 DUP2 SWAP1 POP SWAP2 SWAP1 POP JUMP JUMPDEST PUSH2 0xA0F PUSH2 0xA0A DUP3 PUSH2 0x844 JUMP JUMPDEST PUSH2 0x9F4 JUMP JUMPDEST DUP3 MSTORE POP POP JUMP JUMPDEST PUSH1 0x0 PUSH2 0xA21 DUP3 DUP7 PUSH2 0x9FE JUMP JUMPDEST PUSH1 0x20 DUP3 ADD SWAP2 POP PUSH2 0xA31 DUP3 DUP6 PUSH2 0x9FE JUMP JUMPDEST PUSH1 0x20 DUP3 ADD SWAP2 POP PUSH2 0xA41 DUP3 DUP5 PUSH2 0x9FE JUMP JUMPDEST PUSH1 0x20 DUP3 ADD SWAP2 POP DUP2 SWAP1 POP SWAP5 SWAP4 POP POP POP POP JUMP JUMPDEST PUSH32 0x4E487B7100000000000000000000000000000000000000000000000000000000 PUSH1 0x0 MSTORE PUSH1 0x11 PUSH1 0x4 MSTORE PUSH1 0x24 PUSH1 0x0 REVERT JUMPDEST PUSH1 0x0 PUSH2 0xA8C DUP3 PUSH2 0x844 JUMP JUMPDEST SWAP2 POP PUSH2 0xA97 DUP4 PUSH2 0x844 JUMP JUMPDEST SWAP3 POP DUP3 DUP3 ADD SWAP1 POP DUP1 DUP3 GT ISZERO PUSH2 0xAAF JUMPI PUSH2 0xAAE PUSH2 0xA52 JUMP JUMPDEST JUMPDEST SWAP3 SWAP2 POP POP JUMP JUMPDEST PUSH1 0x0 PUSH2 0xAC0 DUP3 PUSH2 0x844 JUMP JUMPDEST SWAP2 POP PUSH2 0xACB DUP4 PUSH2 0x844 JUMP JUMPDEST SWAP3 POP DUP3 DUP3 SUB SWAP1 POP DUP2 DUP2 GT ISZERO PUSH2 0xAE3 JUMPI PUSH2 0xAE2 PUSH2 0xA52 JUMP JUMPDEST JUMPDEST SWAP3 SWAP2 POP POP JUMP JUMPDEST PUSH1 0x0 PUSH2 0xAF4 DUP3 PUSH2 0x844 JUMP JUMPDEST SWAP2 POP PUSH32 0xFFFFFFFFFFFFFFFFFFFFFFFFFFFFFFFFFFFFFFFFFFFFFFFFFFFFFFFFFFFFFFFF DUP3 SUB PUSH2 0xB26 JUMPI PUSH2 0xB25 PUSH2 0xA52 JUMP JUMPDEST JUMPDEST PUSH1 0x1 DUP3 ADD SWAP1 POP SWAP2 SWAP1 POP JUMP JUMPDEST PUSH1 0x0 DUP2 PUSH1 0x60 SHL SWAP1 POP SWAP2 SWAP1 POP JUMP JUMPDEST PUSH1 0x0 PUSH2 0xB49 DUP3 PUSH2 0xB31 JUMP JUMPDEST SWAP1 POP SWAP2 SWAP1 POP JUMP JUMPDEST PUSH1 0x0 PUSH2 0xB5B DUP3 PUSH2 0xB3E JUMP JUMPDEST SWAP1 POP SWAP2 SWAP1 POP JUMP JUMPDEST PUSH2 0xB73 PUSH2 0xB6E DUP3 PUSH2 0x95A JUMP JUMPDEST PUSH2 0xB50 JUMP JUMPDEST DUP3 MSTORE POP POP JUMP JUMPDEST PUSH1 0x0 PUSH2 0xB85 DUP3 DUP5 PUSH2 0xB62 JUMP JUMPDEST PUSH1 0x14 DUP3 ADD SWAP2 POP DUP2 SWAP1 POP SWAP3 SWAP2 POP POP JUMP INVALID LOG2 PUSH5 0x6970667358 0x22 SLT KECCAK256 0xD1 0xB9 0xD3 ADDRESS 0x21 0x2C CALLVALUE PUSH26 0x9688E4D4B187A39398136308769DC894CC2B5366849CCFAD6473 PUSH16 0x6C634300081300330000000000000000 "
				},
				"gasEstimates": {
					"creation": {
						"codeDepositCost": "603600",
						"executionCost": "infinite",
						"totalCost": "infinite"
					},
					"external": {
						"get_Size(uint256)": "infinite",
						"get_Sum(uint256)": "infinite",
						"insert(address)": "infinite",
						"merge(uint256,uint256)": "infinite",
						"pull(uint256)": "infinite",
						"random()": "infinite",
						"splitByIndex(uint256,uint256)": "infinite"
					}
				},
				"methodIdentifiers": {
					"get_Size(uint256)": "886e8898",
					"get_Sum(uint256)": "19ea79e0",
					"insert(address)": "bc902ad2",
					"merge(uint256,uint256)": "d1c2babb",
					"pull(uint256)": "4d0392a8",
					"random()": "5ec01e4d",
					"splitByIndex(uint256,uint256)": "3d6a7290"
				}
			},
			"storageLayout": {
				"storage": [
					{
						"astId": 20,
						"contract": "W1/erc721treapNOT.sol:treap",
						"label": "root",
						"offset": 0,
						"slot": "0",
						"type": "t_array(t_struct(Node)16_storage)dyn_storage"
					},
					{
						"astId": 23,
						"contract": "W1/erc721treapNOT.sol:treap",
						"label": "size",
						"offset": 0,
						"slot": "1",
						"type": "t_uint256"
					},
					{
						"astId": 403,
						"contract": "W1/erc721treapNOT.sol:treap",
						"label": "MAX_INT",
						"offset": 0,
						"slot": "2",
						"type": "t_uint256"
					},
					{
						"astId": 417,
						"contract": "W1/erc721treapNOT.sol:treap",
						"label": "keccak0",
						"offset": 0,
						"slot": "3",
						"type": "t_uint256"
					}
				],
				"types": {
					"t_array(t_struct(Node)16_storage)dyn_storage": {
						"base": "t_struct(Node)16_storage",
						"encoding": "dynamic_array",
						"label": "struct treap.Node[]",
						"numberOfBytes": "32"
					},
					"t_struct(Node)16_storage": {
						"encoding": "inplace",
						"label": "struct treap.Node",
						"members": [
							{
								"astId": 3,
								"contract": "W1/erc721treapNOT.sol:treap",
								"label": "index",
								"offset": 0,
								"slot": "0",
								"type": "t_uint256"
							},
							{
								"astId": 5,
								"contract": "W1/erc721treapNOT.sol:treap",
								"label": "priority",
								"offset": 0,
								"slot": "1",
								"type": "t_uint256"
							},
							{
								"astId": 7,
								"contract": "W1/erc721treapNOT.sol:treap",
								"label": "size",
								"offset": 0,
								"slot": "2",
								"type": "t_uint256"
							},
							{
								"astId": 9,
								"contract": "W1/erc721treapNOT.sol:treap",
								"label": "val",
								"offset": 0,
								"slot": "3",
								"type": "t_uint256"
							},
							{
								"astId": 11,
								"contract": "W1/erc721treapNOT.sol:treap",
								"label": "sum",
								"offset": 0,
								"slot": "4",
								"type": "t_uint256"
							},
							{
								"astId": 13,
								"contract": "W1/erc721treapNOT.sol:treap",
								"label": "left",
								"offset": 0,
								"slot": "5",
								"type": "t_uint256"
							},
							{
								"astId": 15,
								"contract": "W1/erc721treapNOT.sol:treap",
								"label": "right",
								"offset": 0,
								"slot": "6",
								"type": "t_uint256"
							}
						],
						"numberOfBytes": "224"
					},
					"t_uint256": {
						"encoding": "inplace",
						"label": "uint256",
						"numberOfBytes": "32"
					}
				}
			},
			"userdoc": {
				"kind": "user",
				"methods": {},
				"version": 1
			}
		}
	}
}