{
	"W1/heap.sol": {
		"MinHeap": {
			"abi": [
				{
					"inputs": [],
					"stateMutability": "nonpayable",
					"type": "constructor"
				},
				{
					"inputs": [],
					"name": "pop",
					"outputs": [],
					"stateMutability": "nonpayable",
					"type": "function"
				},
				{
					"inputs": [
						{
							"components": [
								{
									"internalType": "address",
									"name": "trader",
									"type": "address"
								},
								{
									"internalType": "uint256",
									"name": "amount",
									"type": "uint256"
								},
								{
									"internalType": "uint256",
									"name": "price",
									"type": "uint256"
								},
								{
									"internalType": "uint256",
									"name": "timestamp",
									"type": "uint256"
								}
							],
							"internalType": "struct Order",
							"name": "o",
							"type": "tuple"
						}
					],
					"name": "push",
					"outputs": [],
					"stateMutability": "nonpayable",
					"type": "function"
				},
				{
					"inputs": [],
					"name": "top",
					"outputs": [
						{
							"components": [
								{
									"internalType": "address",
									"name": "trader",
									"type": "address"
								},
								{
									"internalType": "uint256",
									"name": "amount",
									"type": "uint256"
								},
								{
									"internalType": "uint256",
									"name": "price",
									"type": "uint256"
								},
								{
									"internalType": "uint256",
									"name": "timestamp",
									"type": "uint256"
								}
							],
							"internalType": "struct Order",
							"name": "",
							"type": "tuple"
						}
					],
					"stateMutability": "view",
					"type": "function"
				}
			],
			"devdoc": {
				"kind": "dev",
				"methods": {},
				"version": 1
			},
			"evm": {
				"assembly": "    /* \"W1/heap.sol\":166:2778  contract MinHeap {... */\n  mstore(0x40, 0x80)\n    /* \"W1/heap.sol\":219:484  constructor() {... */\n  callvalue\n  dup1\n  iszero\n  tag_1\n  jumpi\n  0x00\n  dup1\n  revert\ntag_1:\n  pop\n    /* \"W1/heap.sol\":244:248  heap */\n  0x00\n    /* \"W1/heap.sol\":254:475  Order(address(0), 0xffffffffffffffffffffffffffffffffffffffffffffffffffffffffffffffff, 0xffffffffffffffffffffffffffffffffffffffffffffffffffffffffffffffff, 0xffffffffffffffffffffffffffffffffffffffffffffffffffffffffffffffff) */\n  mload(0x40)\n  dup1\n  0x80\n  add\n  0x40\n  mstore\n  dup1\n    /* \"W1/heap.sol\":268:269  0 */\n  0x00\n    /* \"W1/heap.sol\":254:475  Order(address(0), 0xffffffffffffffffffffffffffffffffffffffffffffffffffffffffffffffff, 0xffffffffffffffffffffffffffffffffffffffffffffffffffffffffffffffff, 0xffffffffffffffffffffffffffffffffffffffffffffffffffffffffffffffff) */\n  0xffffffffffffffffffffffffffffffffffffffff\n  and\n  dup2\n  mstore\n  0x20\n  add\n    /* \"W1/heap.sol\":272:338  0xffffffffffffffffffffffffffffffffffffffffffffffffffffffffffffffff */\n  0xffffffffffffffffffffffffffffffffffffffffffffffffffffffffffffffff\n    /* \"W1/heap.sol\":254:475  Order(address(0), 0xffffffffffffffffffffffffffffffffffffffffffffffffffffffffffffffff, 0xffffffffffffffffffffffffffffffffffffffffffffffffffffffffffffffff, 0xffffffffffffffffffffffffffffffffffffffffffffffffffffffffffffffff) */\n  dup2\n  mstore\n  0x20\n  add\n    /* \"W1/heap.sol\":340:406  0xffffffffffffffffffffffffffffffffffffffffffffffffffffffffffffffff */\n  0xffffffffffffffffffffffffffffffffffffffffffffffffffffffffffffffff\n    /* \"W1/heap.sol\":254:475  Order(address(0), 0xffffffffffffffffffffffffffffffffffffffffffffffffffffffffffffffff, 0xffffffffffffffffffffffffffffffffffffffffffffffffffffffffffffffff, 0xffffffffffffffffffffffffffffffffffffffffffffffffffffffffffffffff) */\n  dup2\n  mstore\n  0x20\n  add\n    /* \"W1/heap.sol\":408:474  0xffffffffffffffffffffffffffffffffffffffffffffffffffffffffffffffff */\n  0xffffffffffffffffffffffffffffffffffffffffffffffffffffffffffffffff\n    /* \"W1/heap.sol\":254:475  Order(address(0), 0xffffffffffffffffffffffffffffffffffffffffffffffffffffffffffffffff, 0xffffffffffffffffffffffffffffffffffffffffffffffffffffffffffffffff, 0xffffffffffffffffffffffffffffffffffffffffffffffffffffffffffffffff) */\n  dup2\n  mstore\n  pop\n    /* \"W1/heap.sol\":244:476  heap.push(Order(address(0), 0xffffffffffffffffffffffffffffffffffffffffffffffffffffffffffffffff, 0xffffffffffffffffffffffffffffffffffffffffffffffffffffffffffffffff, 0xffffffffffffffffffffffffffffffffffffffffffffffffffffffffffffffff)) */\n  swap1\n  dup1\n  0x01\n  dup2\n  sload\n  add\n  dup1\n  dup3\n  sstore\n  dup1\n  swap2\n  pop\n  pop\n  0x01\n  swap1\n  sub\n  swap1\n  0x00\n  mstore\n  keccak256(0x00, 0x20)\n  swap1\n  0x04\n  mul\n  add\n  0x00\n  swap1\n  swap2\n  swap1\n  swap2\n  swap1\n  swap2\n  pop\n  0x00\n  dup3\n  add\n  mload\n  dup2\n  0x00\n  add\n  exp(0x0100, 0x00)\n  dup2\n  sload\n  dup2\n  0xffffffffffffffffffffffffffffffffffffffff\n  mul\n  not\n  and\n  swap1\n  dup4\n  0xffffffffffffffffffffffffffffffffffffffff\n  and\n  mul\n  or\n  swap1\n  sstore\n  pop\n  0x20\n  dup3\n  add\n  mload\n  dup2\n  0x01\n  add\n  sstore\n  0x40\n  dup3\n  add\n  mload\n  dup2\n  0x02\n  add\n  sstore\n  0x60\n  dup3\n  add\n  mload\n  dup2\n  0x03\n  add\n  sstore\n  pop\n  pop\n    /* \"W1/heap.sol\":166:2778  contract MinHeap {... */\n  dataSize(sub_0)\n  dup1\n  dataOffset(sub_0)\n  0x00\n  codecopy\n  0x00\n  return\nstop\n\nsub_0: assembly {\n        /* \"W1/heap.sol\":166:2778  contract MinHeap {... */\n      mstore(0x40, 0x80)\n      callvalue\n      dup1\n      iszero\n      tag_1\n      jumpi\n      0x00\n      dup1\n      revert\n    tag_1:\n      pop\n      jumpi(tag_2, lt(calldatasize, 0x04))\n      shr(0xe0, calldataload(0x00))\n      dup1\n      0x7829c469\n      eq\n      tag_3\n      jumpi\n      dup1\n      0xa4ece52c\n      eq\n      tag_4\n      jumpi\n      dup1\n      0xfe6dcdba\n      eq\n      tag_5\n      jumpi\n    tag_2:\n      0x00\n      dup1\n      revert\n        /* \"W1/heap.sol\":496:826  function push (Order memory o) public {... */\n    tag_3:\n      tag_6\n      0x04\n      dup1\n      calldatasize\n      sub\n      dup2\n      add\n      swap1\n      tag_7\n      swap2\n      swap1\n      tag_8\n      jump\t// in\n    tag_7:\n      tag_9\n      jump\t// in\n    tag_6:\n      stop\n        /* \"W1/heap.sol\":834:1040  function pop() public {... */\n    tag_4:\n      tag_10\n      tag_11\n      jump\t// in\n    tag_10:\n      stop\n        /* \"W1/heap.sol\":1046:1181  function top() public view returns (Order memory) {... */\n    tag_5:\n      tag_12\n      tag_13\n      jump\t// in\n    tag_12:\n      mload(0x40)\n      tag_14\n      swap2\n      swap1\n      tag_15\n      jump\t// in\n    tag_14:\n      mload(0x40)\n      dup1\n      swap2\n      sub\n      swap1\n      return\n        /* \"W1/heap.sol\":496:826  function push (Order memory o) public {... */\n    tag_9:\n        /* \"W1/heap.sol\":545:549  heap */\n      0x00\n        /* \"W1/heap.sol\":555:556  o */\n      dup2\n        /* \"W1/heap.sol\":545:557  heap.push(o) */\n      swap1\n      dup1\n      0x01\n      dup2\n      sload\n      add\n      dup1\n      dup3\n      sstore\n      dup1\n      swap2\n      pop\n      pop\n      0x01\n      swap1\n      sub\n      swap1\n      0x00\n      mstore\n      keccak256(0x00, 0x20)\n      swap1\n      0x04\n      mul\n      add\n      0x00\n      swap1\n      swap2\n      swap1\n      swap2\n      swap1\n      swap2\n      pop\n      0x00\n      dup3\n      add\n      mload\n      dup2\n      0x00\n      add\n      exp(0x0100, 0x00)\n      dup2\n      sload\n      dup2\n      0xffffffffffffffffffffffffffffffffffffffff\n      mul\n      not\n      and\n      swap1\n      dup4\n      0xffffffffffffffffffffffffffffffffffffffff\n      and\n      mul\n      or\n      swap1\n      sstore\n      pop\n      0x20\n      dup3\n      add\n      mload\n      dup2\n      0x01\n      add\n      sstore\n      0x40\n      dup3\n      add\n      mload\n      dup2\n      0x02\n      add\n      sstore\n      0x60\n      dup3\n      add\n      mload\n      dup2\n      0x03\n      add\n      sstore\n      pop\n      pop\n        /* \"W1/heap.sol\":568:577  uint256 i */\n      0x00\n        /* \"W1/heap.sol\":594:595  1 */\n      0x01\n        /* \"W1/heap.sol\":580:584  heap */\n      0x00\n        /* \"W1/heap.sol\":580:591  heap.length */\n      dup1\n      sload\n      swap1\n      pop\n        /* \"W1/heap.sol\":580:595  heap.length - 1 */\n      tag_18\n      swap2\n      swap1\n      tag_19\n      jump\t// in\n    tag_18:\n        /* \"W1/heap.sol\":568:595  uint256 i = heap.length - 1 */\n      swap1\n      pop\n        /* \"W1/heap.sol\":606:819  while (i > 0) {... */\n    tag_20:\n        /* \"W1/heap.sol\":617:618  0 */\n      0x00\n        /* \"W1/heap.sol\":613:614  i */\n      dup2\n        /* \"W1/heap.sol\":613:618  i > 0 */\n      gt\n        /* \"W1/heap.sol\":606:819  while (i > 0) {... */\n      iszero\n      tag_21\n      jumpi\n        /* \"W1/heap.sol\":635:644  uint256 p */\n      0x00\n        /* \"W1/heap.sol\":657:658  2 */\n      0x02\n        /* \"W1/heap.sol\":652:653  1 */\n      0x01\n        /* \"W1/heap.sol\":648:649  i */\n      dup4\n        /* \"W1/heap.sol\":648:653  i - 1 */\n      tag_22\n      swap2\n      swap1\n      tag_19\n      jump\t// in\n    tag_22:\n        /* \"W1/heap.sol\":647:658  (i - 1) / 2 */\n      tag_23\n      swap2\n      swap1\n      tag_24\n      jump\t// in\n    tag_23:\n        /* \"W1/heap.sol\":635:658  uint256 p = (i - 1) / 2 */\n      swap1\n      pop\n        /* \"W1/heap.sol\":677:690  _conpare(i,p) */\n      tag_25\n        /* \"W1/heap.sol\":686:687  i */\n      dup3\n        /* \"W1/heap.sol\":688:689  p */\n      dup3\n        /* \"W1/heap.sol\":677:685  _conpare */\n      tag_26\n        /* \"W1/heap.sol\":677:690  _conpare(i,p) */\n      jump\t// in\n    tag_25:\n        /* \"W1/heap.sol\":673:808  if (_conpare(i,p)) {... */\n      iszero\n      tag_27\n      jumpi\n        /* \"W1/heap.sol\":711:722  _swap(p, i) */\n      tag_28\n        /* \"W1/heap.sol\":717:718  p */\n      dup2\n        /* \"W1/heap.sol\":720:721  i */\n      dup4\n        /* \"W1/heap.sol\":711:716  _swap */\n      tag_29\n        /* \"W1/heap.sol\":711:722  _swap(p, i) */\n      jump\t// in\n    tag_28:\n        /* \"W1/heap.sol\":745:746  p */\n      dup1\n        /* \"W1/heap.sol\":741:746  i = p */\n      swap2\n      pop\n        /* \"W1/heap.sol\":673:808  if (_conpare(i,p)) {... */\n      jump(tag_30)\n    tag_27:\n        /* \"W1/heap.sol\":787:792  break */\n      pop\n      jump(tag_21)\n        /* \"W1/heap.sol\":673:808  if (_conpare(i,p)) {... */\n    tag_30:\n        /* \"W1/heap.sol\":620:819  {... */\n      pop\n        /* \"W1/heap.sol\":606:819  while (i > 0) {... */\n      jump(tag_20)\n    tag_21:\n        /* \"W1/heap.sol\":534:826  {... */\n      pop\n        /* \"W1/heap.sol\":496:826  function push (Order memory o) public {... */\n      pop\n      jump\t// out\n        /* \"W1/heap.sol\":834:1040  function pop() public {... */\n    tag_11:\n        /* \"W1/heap.sol\":889:890  0 */\n      0x00\n        /* \"W1/heap.sol\":875:879  heap */\n      dup1\n        /* \"W1/heap.sol\":875:886  heap.length */\n      dup1\n      sload\n      swap1\n      pop\n        /* \"W1/heap.sol\":875:890  heap.length > 0 */\n      gt\n        /* \"W1/heap.sol\":867:908  require(heap.length > 0, \"heap is empty\") */\n      tag_32\n      jumpi\n      mload(0x40)\n      0x08c379a000000000000000000000000000000000000000000000000000000000\n      dup2\n      mstore\n      0x04\n      add\n      tag_33\n      swap1\n      tag_34\n      jump\t// in\n    tag_33:\n      mload(0x40)\n      dup1\n      swap2\n      sub\n      swap1\n      revert\n    tag_32:\n        /* \"W1/heap.sol\":929:933  heap */\n      0x00\n        /* \"W1/heap.sol\":948:949  1 */\n      0x01\n        /* \"W1/heap.sol\":934:938  heap */\n      0x00\n        /* \"W1/heap.sol\":934:945  heap.length */\n      dup1\n      sload\n      swap1\n      pop\n        /* \"W1/heap.sol\":934:949  heap.length - 1 */\n      tag_35\n      swap2\n      swap1\n      tag_19\n      jump\t// in\n    tag_35:\n        /* \"W1/heap.sol\":929:950  heap[heap.length - 1] */\n      dup2\n      sload\n      dup2\n      lt\n      tag_36\n      jumpi\n      tag_37\n      tag_38\n      jump\t// in\n    tag_37:\n    tag_36:\n      swap1\n      0x00\n      mstore\n      keccak256(0x00, 0x20)\n      swap1\n      0x04\n      mul\n      add\n        /* \"W1/heap.sol\":919:923  heap */\n      0x00\n        /* \"W1/heap.sol\":924:925  0 */\n      dup1\n        /* \"W1/heap.sol\":919:926  heap[0] */\n      dup2\n      sload\n      dup2\n      lt\n      tag_40\n      jumpi\n      tag_41\n      tag_38\n      jump\t// in\n    tag_41:\n    tag_40:\n      swap1\n      0x00\n      mstore\n      keccak256(0x00, 0x20)\n      swap1\n      0x04\n      mul\n      add\n        /* \"W1/heap.sol\":919:950  heap[0] = heap[heap.length - 1] */\n      0x00\n      dup3\n      add\n      0x00\n      swap1\n      sload\n      swap1\n      0x0100\n      exp\n      swap1\n      div\n      0xffffffffffffffffffffffffffffffffffffffff\n      and\n      dup2\n      0x00\n      add\n      exp(0x0100, 0x00)\n      dup2\n      sload\n      dup2\n      0xffffffffffffffffffffffffffffffffffffffff\n      mul\n      not\n      and\n      swap1\n      dup4\n      0xffffffffffffffffffffffffffffffffffffffff\n      and\n      mul\n      or\n      swap1\n      sstore\n      pop\n      0x01\n      dup3\n      add\n      sload\n      dup2\n      0x01\n      add\n      sstore\n      0x02\n      dup3\n      add\n      sload\n      dup2\n      0x02\n      add\n      sstore\n      0x03\n      dup3\n      add\n      sload\n      dup2\n      0x03\n      add\n      sstore\n      swap1\n      pop\n      pop\n        /* \"W1/heap.sol\":968:972  heap */\n      0x00\n        /* \"W1/heap.sol\":987:988  1 */\n      0x01\n        /* \"W1/heap.sol\":973:977  heap */\n      0x00\n        /* \"W1/heap.sol\":973:984  heap.length */\n      dup1\n      sload\n      swap1\n      pop\n        /* \"W1/heap.sol\":973:988  heap.length - 1 */\n      tag_43\n      swap2\n      swap1\n      tag_19\n      jump\t// in\n    tag_43:\n        /* \"W1/heap.sol\":968:989  heap[heap.length - 1] */\n      dup2\n      sload\n      dup2\n      lt\n      tag_44\n      jumpi\n      tag_45\n      tag_38\n      jump\t// in\n    tag_45:\n    tag_44:\n      swap1\n      0x00\n      mstore\n      keccak256(0x00, 0x20)\n      swap1\n      0x04\n      mul\n      add\n      0x00\n        /* \"W1/heap.sol\":961:989  delete heap[heap.length - 1] */\n      dup1\n      dup3\n      add\n      exp(0x0100, 0x00)\n      dup2\n      sload\n      swap1\n      0xffffffffffffffffffffffffffffffffffffffff\n      mul\n      not\n      and\n      swap1\n      sstore\n      0x01\n      dup3\n      add\n      0x00\n      swap1\n      sstore\n      0x02\n      dup3\n      add\n      0x00\n      swap1\n      sstore\n      0x03\n      dup3\n      add\n      0x00\n      swap1\n      sstore\n      pop\n      pop\n        /* \"W1/heap.sol\":1000:1004  heap */\n      0x00\n        /* \"W1/heap.sol\":1000:1010  heap.pop() */\n      dup1\n      sload\n      dup1\n      tag_47\n      jumpi\n      tag_48\n      tag_49\n      jump\t// in\n    tag_48:\n    tag_47:\n      0x01\n      swap1\n      sub\n      dup2\n      dup2\n      swap1\n      0x00\n      mstore\n      keccak256(0x00, 0x20)\n      swap1\n      0x04\n      mul\n      add\n      0x00\n      dup1\n      dup3\n      add\n      exp(0x0100, 0x00)\n      dup2\n      sload\n      swap1\n      0xffffffffffffffffffffffffffffffffffffffff\n      mul\n      not\n      and\n      swap1\n      sstore\n      0x01\n      dup3\n      add\n      0x00\n      swap1\n      sstore\n      0x02\n      dup3\n      add\n      0x00\n      swap1\n      sstore\n      0x03\n      dup3\n      add\n      0x00\n      swap1\n      sstore\n      pop\n      pop\n      swap1\n      sstore\n        /* \"W1/heap.sol\":1021:1032  _heapify(0) */\n      tag_51\n        /* \"W1/heap.sol\":1030:1031  0 */\n      0x00\n        /* \"W1/heap.sol\":1021:1029  _heapify */\n      tag_52\n        /* \"W1/heap.sol\":1021:1032  _heapify(0) */\n      jump\t// in\n    tag_51:\n        /* \"W1/heap.sol\":834:1040  function pop() public {... */\n      jump\t// out\n        /* \"W1/heap.sol\":1046:1181  function top() public view returns (Order memory) {... */\n    tag_13:\n        /* \"W1/heap.sol\":1082:1094  Order memory */\n      tag_53\n      tag_54\n      jump\t// in\n    tag_53:\n        /* \"W1/heap.sol\":1129:1130  0 */\n      0x00\n        /* \"W1/heap.sol\":1115:1119  heap */\n      dup1\n        /* \"W1/heap.sol\":1115:1126  heap.length */\n      dup1\n      sload\n      swap1\n      pop\n        /* \"W1/heap.sol\":1115:1130  heap.length > 0 */\n      gt\n        /* \"W1/heap.sol\":1107:1148  require(heap.length > 0, \"heap is empty\") */\n      tag_56\n      jumpi\n      mload(0x40)\n      0x08c379a000000000000000000000000000000000000000000000000000000000\n      dup2\n      mstore\n      0x04\n      add\n      tag_57\n      swap1\n      tag_34\n      jump\t// in\n    tag_57:\n      mload(0x40)\n      dup1\n      swap2\n      sub\n      swap1\n      revert\n    tag_56:\n        /* \"W1/heap.sol\":1166:1170  heap */\n      0x00\n        /* \"W1/heap.sol\":1171:1172  0 */\n      dup1\n        /* \"W1/heap.sol\":1166:1173  heap[0] */\n      dup2\n      sload\n      dup2\n      lt\n      tag_58\n      jumpi\n      tag_59\n      tag_38\n      jump\t// in\n    tag_59:\n    tag_58:\n      swap1\n      0x00\n      mstore\n      keccak256(0x00, 0x20)\n      swap1\n      0x04\n      mul\n      add\n        /* \"W1/heap.sol\":1159:1173  return heap[0] */\n      mload(0x40)\n      dup1\n      0x80\n      add\n      0x40\n      mstore\n      swap1\n      dup2\n      0x00\n      dup3\n      add\n      0x00\n      swap1\n      sload\n      swap1\n      0x0100\n      exp\n      swap1\n      div\n      0xffffffffffffffffffffffffffffffffffffffff\n      and\n      0xffffffffffffffffffffffffffffffffffffffff\n      and\n      0xffffffffffffffffffffffffffffffffffffffff\n      and\n      dup2\n      mstore\n      0x20\n      add\n      0x01\n      dup3\n      add\n      sload\n      dup2\n      mstore\n      0x20\n      add\n      0x02\n      dup3\n      add\n      sload\n      dup2\n      mstore\n      0x20\n      add\n      0x03\n      dup3\n      add\n      sload\n      dup2\n      mstore\n      pop\n      pop\n      swap1\n      pop\n        /* \"W1/heap.sol\":1046:1181  function top() public view returns (Order memory) {... */\n      swap1\n      jump\t// out\n        /* \"W1/heap.sol\":2110:2624  function _conpare(uint256 i,uint256 j) private view returns (bool) {... */\n    tag_26:\n        /* \"W1/heap.sol\":2171:2175  bool */\n      0x00\n        /* \"W1/heap.sol\":2218:2222  heap */\n      dup1\n        /* \"W1/heap.sol\":2223:2224  j */\n      dup3\n        /* \"W1/heap.sol\":2218:2225  heap[j] */\n      dup2\n      sload\n      dup2\n      lt\n      tag_62\n      jumpi\n      tag_63\n      tag_38\n      jump\t// in\n    tag_63:\n    tag_62:\n      swap1\n      0x00\n      mstore\n      keccak256(0x00, 0x20)\n      swap1\n      0x04\n      mul\n      add\n        /* \"W1/heap.sol\":2218:2231  heap[j].price */\n      0x02\n      add\n      sload\n        /* \"W1/heap.sol\":2201:2205  heap */\n      0x00\n        /* \"W1/heap.sol\":2206:2207  i */\n      dup5\n        /* \"W1/heap.sol\":2201:2208  heap[i] */\n      dup2\n      sload\n      dup2\n      lt\n      tag_65\n      jumpi\n      tag_66\n      tag_38\n      jump\t// in\n    tag_66:\n    tag_65:\n      swap1\n      0x00\n      mstore\n      keccak256(0x00, 0x20)\n      swap1\n      0x04\n      mul\n      add\n        /* \"W1/heap.sol\":2201:2214  heap[i].price */\n      0x02\n      add\n      sload\n        /* \"W1/heap.sol\":2201:2231  heap[i].price == heap[j].price */\n      sub\n        /* \"W1/heap.sol\":2198:2570  if(heap[i].price == heap[j].price) {... */\n      tag_68\n      jumpi\n        /* \"W1/heap.sol\":2272:2276  heap */\n      0x00\n        /* \"W1/heap.sol\":2277:2278  j */\n      dup3\n        /* \"W1/heap.sol\":2272:2279  heap[j] */\n      dup2\n      sload\n      dup2\n      lt\n      tag_69\n      jumpi\n      tag_70\n      tag_38\n      jump\t// in\n    tag_70:\n    tag_69:\n      swap1\n      0x00\n      mstore\n      keccak256(0x00, 0x20)\n      swap1\n      0x04\n      mul\n      add\n        /* \"W1/heap.sol\":2272:2289  heap[j].timestamp */\n      0x03\n      add\n      sload\n        /* \"W1/heap.sol\":2251:2255  heap */\n      0x00\n        /* \"W1/heap.sol\":2256:2257  i */\n      dup5\n        /* \"W1/heap.sol\":2251:2258  heap[i] */\n      dup2\n      sload\n      dup2\n      lt\n      tag_72\n      jumpi\n      tag_73\n      tag_38\n      jump\t// in\n    tag_73:\n    tag_72:\n      swap1\n      0x00\n      mstore\n      keccak256(0x00, 0x20)\n      swap1\n      0x04\n      mul\n      add\n        /* \"W1/heap.sol\":2251:2268  heap[i].timestamp */\n      0x03\n      add\n      sload\n        /* \"W1/heap.sol\":2251:2289  heap[i].timestamp == heap[j].timestamp */\n      sub\n        /* \"W1/heap.sol\":2248:2500  if(heap[i].timestamp == heap[j].timestamp) {... */\n      tag_75\n      jumpi\n        /* \"W1/heap.sol\":2331:2335  heap */\n      0x00\n        /* \"W1/heap.sol\":2336:2337  j */\n      dup3\n        /* \"W1/heap.sol\":2331:2338  heap[j] */\n      dup2\n      sload\n      dup2\n      lt\n      tag_76\n      jumpi\n      tag_77\n      tag_38\n      jump\t// in\n    tag_77:\n    tag_76:\n      swap1\n      0x00\n      mstore\n      keccak256(0x00, 0x20)\n      swap1\n      0x04\n      mul\n      add\n        /* \"W1/heap.sol\":2331:2345  heap[j].amount */\n      0x01\n      add\n      sload\n        /* \"W1/heap.sol\":2313:2317  heap */\n      0x00\n        /* \"W1/heap.sol\":2318:2319  i */\n      dup5\n        /* \"W1/heap.sol\":2313:2320  heap[i] */\n      dup2\n      sload\n      dup2\n      lt\n      tag_79\n      jumpi\n      tag_80\n      tag_38\n      jump\t// in\n    tag_80:\n    tag_79:\n      swap1\n      0x00\n      mstore\n      keccak256(0x00, 0x20)\n      swap1\n      0x04\n      mul\n      add\n        /* \"W1/heap.sol\":2313:2327  heap[i].amount */\n      0x01\n      add\n      sload\n        /* \"W1/heap.sol\":2313:2345  heap[i].amount == heap[j].amount */\n      sub\n        /* \"W1/heap.sol\":2310:2428  if(heap[i].amount == heap[j].amount) {... */\n      tag_82\n      jumpi\n        /* \"W1/heap.sol\":2394:2398  heap */\n      0x00\n        /* \"W1/heap.sol\":2399:2400  j */\n      dup3\n        /* \"W1/heap.sol\":2394:2401  heap[j] */\n      dup2\n      sload\n      dup2\n      lt\n      tag_83\n      jumpi\n      tag_84\n      tag_38\n      jump\t// in\n    tag_84:\n    tag_83:\n      swap1\n      0x00\n      mstore\n      keccak256(0x00, 0x20)\n      swap1\n      0x04\n      mul\n      add\n        /* \"W1/heap.sol\":2394:2408  heap[j].trader */\n      0x00\n      add\n      0x00\n      swap1\n      sload\n      swap1\n      0x0100\n      exp\n      swap1\n      div\n      0xffffffffffffffffffffffffffffffffffffffff\n      and\n        /* \"W1/heap.sol\":2377:2408  heap[i].trader < heap[j].trader */\n      0xffffffffffffffffffffffffffffffffffffffff\n      and\n        /* \"W1/heap.sol\":2377:2381  heap */\n      0x00\n        /* \"W1/heap.sol\":2382:2383  i */\n      dup5\n        /* \"W1/heap.sol\":2377:2384  heap[i] */\n      dup2\n      sload\n      dup2\n      lt\n      tag_86\n      jumpi\n      tag_87\n      tag_38\n      jump\t// in\n    tag_87:\n    tag_86:\n      swap1\n      0x00\n      mstore\n      keccak256(0x00, 0x20)\n      swap1\n      0x04\n      mul\n      add\n        /* \"W1/heap.sol\":2377:2391  heap[i].trader */\n      0x00\n      add\n      0x00\n      swap1\n      sload\n      swap1\n      0x0100\n      exp\n      swap1\n      div\n      0xffffffffffffffffffffffffffffffffffffffff\n      and\n        /* \"W1/heap.sol\":2377:2408  heap[i].trader < heap[j].trader */\n      0xffffffffffffffffffffffffffffffffffffffff\n      and\n      lt\n        /* \"W1/heap.sol\":2370:2408  return heap[i].trader < heap[j].trader */\n      swap1\n      pop\n      jump(tag_61)\n        /* \"W1/heap.sol\":2310:2428  if(heap[i].amount == heap[j].amount) {... */\n    tag_82:\n        /* \"W1/heap.sol\":2470:2474  heap */\n      0x00\n        /* \"W1/heap.sol\":2475:2476  j */\n      dup3\n        /* \"W1/heap.sol\":2470:2477  heap[j] */\n      dup2\n      sload\n      dup2\n      lt\n      tag_89\n      jumpi\n      tag_90\n      tag_38\n      jump\t// in\n    tag_90:\n    tag_89:\n      swap1\n      0x00\n      mstore\n      keccak256(0x00, 0x20)\n      swap1\n      0x04\n      mul\n      add\n        /* \"W1/heap.sol\":2470:2484  heap[j].amount */\n      0x01\n      add\n      sload\n        /* \"W1/heap.sol\":2453:2457  heap */\n      0x00\n        /* \"W1/heap.sol\":2458:2459  i */\n      dup5\n        /* \"W1/heap.sol\":2453:2460  heap[i] */\n      dup2\n      sload\n      dup2\n      lt\n      tag_92\n      jumpi\n      tag_93\n      tag_38\n      jump\t// in\n    tag_93:\n    tag_92:\n      swap1\n      0x00\n      mstore\n      keccak256(0x00, 0x20)\n      swap1\n      0x04\n      mul\n      add\n        /* \"W1/heap.sol\":2453:2467  heap[i].amount */\n      0x01\n      add\n      sload\n        /* \"W1/heap.sol\":2453:2484  heap[i].amount < heap[j].amount */\n      lt\n        /* \"W1/heap.sol\":2446:2484  return heap[i].amount < heap[j].amount */\n      swap1\n      pop\n      jump(tag_61)\n        /* \"W1/heap.sol\":2248:2500  if(heap[i].timestamp == heap[j].timestamp) {... */\n    tag_75:\n        /* \"W1/heap.sol\":2541:2545  heap */\n      0x00\n        /* \"W1/heap.sol\":2546:2547  j */\n      dup3\n        /* \"W1/heap.sol\":2541:2548  heap[j] */\n      dup2\n      sload\n      dup2\n      lt\n      tag_95\n      jumpi\n      tag_96\n      tag_38\n      jump\t// in\n    tag_96:\n    tag_95:\n      swap1\n      0x00\n      mstore\n      keccak256(0x00, 0x20)\n      swap1\n      0x04\n      mul\n      add\n        /* \"W1/heap.sol\":2541:2558  heap[j].timestamp */\n      0x03\n      add\n      sload\n        /* \"W1/heap.sol\":2521:2525  heap */\n      0x00\n        /* \"W1/heap.sol\":2526:2527  i */\n      dup5\n        /* \"W1/heap.sol\":2521:2528  heap[i] */\n      dup2\n      sload\n      dup2\n      lt\n      tag_98\n      jumpi\n      tag_99\n      tag_38\n      jump\t// in\n    tag_99:\n    tag_98:\n      swap1\n      0x00\n      mstore\n      keccak256(0x00, 0x20)\n      swap1\n      0x04\n      mul\n      add\n        /* \"W1/heap.sol\":2521:2538  heap[i].timestamp */\n      0x03\n      add\n      sload\n        /* \"W1/heap.sol\":2521:2558  heap[i].timestamp < heap[j].timestamp */\n      lt\n        /* \"W1/heap.sol\":2514:2558  return heap[i].timestamp < heap[j].timestamp */\n      swap1\n      pop\n      jump(tag_61)\n        /* \"W1/heap.sol\":2198:2570  if(heap[i].price == heap[j].price) {... */\n    tag_68:\n        /* \"W1/heap.sol\":2603:2607  heap */\n      0x00\n        /* \"W1/heap.sol\":2608:2609  j */\n      dup3\n        /* \"W1/heap.sol\":2603:2610  heap[j] */\n      dup2\n      sload\n      dup2\n      lt\n      tag_101\n      jumpi\n      tag_102\n      tag_38\n      jump\t// in\n    tag_102:\n    tag_101:\n      swap1\n      0x00\n      mstore\n      keccak256(0x00, 0x20)\n      swap1\n      0x04\n      mul\n      add\n        /* \"W1/heap.sol\":2603:2616  heap[j].price */\n      0x02\n      add\n      sload\n        /* \"W1/heap.sol\":2587:2591  heap */\n      0x00\n        /* \"W1/heap.sol\":2592:2593  i */\n      dup5\n        /* \"W1/heap.sol\":2587:2594  heap[i] */\n      dup2\n      sload\n      dup2\n      lt\n      tag_104\n      jumpi\n      tag_105\n      tag_38\n      jump\t// in\n    tag_105:\n    tag_104:\n      swap1\n      0x00\n      mstore\n      keccak256(0x00, 0x20)\n      swap1\n      0x04\n      mul\n      add\n        /* \"W1/heap.sol\":2587:2600  heap[i].price */\n      0x02\n      add\n      sload\n        /* \"W1/heap.sol\":2587:2616  heap[i].price < heap[j].price */\n      lt\n        /* \"W1/heap.sol\":2580:2616  return heap[i].price < heap[j].price */\n      swap1\n      pop\n        /* \"W1/heap.sol\":2110:2624  function _conpare(uint256 i,uint256 j) private view returns (bool) {... */\n    tag_61:\n      swap3\n      swap2\n      pop\n      pop\n      jump\t// out\n        /* \"W1/heap.sol\":2632:2775  function _swap(uint256 a, uint256 b) private  {... */\n    tag_29:\n        /* \"W1/heap.sol\":2689:2705  Order memory tmp */\n      0x00\n        /* \"W1/heap.sol\":2708:2712  heap */\n      dup1\n        /* \"W1/heap.sol\":2713:2714  a */\n      dup4\n        /* \"W1/heap.sol\":2708:2715  heap[a] */\n      dup2\n      sload\n      dup2\n      lt\n      tag_108\n      jumpi\n      tag_109\n      tag_38\n      jump\t// in\n    tag_109:\n    tag_108:\n      swap1\n      0x00\n      mstore\n      keccak256(0x00, 0x20)\n      swap1\n      0x04\n      mul\n      add\n        /* \"W1/heap.sol\":2689:2715  Order memory tmp = heap[a] */\n      mload(0x40)\n      dup1\n      0x80\n      add\n      0x40\n      mstore\n      swap1\n      dup2\n      0x00\n      dup3\n      add\n      0x00\n      swap1\n      sload\n      swap1\n      0x0100\n      exp\n      swap1\n      div\n      0xffffffffffffffffffffffffffffffffffffffff\n      and\n      0xffffffffffffffffffffffffffffffffffffffff\n      and\n      0xffffffffffffffffffffffffffffffffffffffff\n      and\n      dup2\n      mstore\n      0x20\n      add\n      0x01\n      dup3\n      add\n      sload\n      dup2\n      mstore\n      0x20\n      add\n      0x02\n      dup3\n      add\n      sload\n      dup2\n      mstore\n      0x20\n      add\n      0x03\n      dup3\n      add\n      sload\n      dup2\n      mstore\n      pop\n      pop\n      swap1\n      pop\n        /* \"W1/heap.sol\":2736:2740  heap */\n      0x00\n        /* \"W1/heap.sol\":2741:2742  b */\n      dup3\n        /* \"W1/heap.sol\":2736:2743  heap[b] */\n      dup2\n      sload\n      dup2\n      lt\n      tag_111\n      jumpi\n      tag_112\n      tag_38\n      jump\t// in\n    tag_112:\n    tag_111:\n      swap1\n      0x00\n      mstore\n      keccak256(0x00, 0x20)\n      swap1\n      0x04\n      mul\n      add\n        /* \"W1/heap.sol\":2726:2730  heap */\n      0x00\n        /* \"W1/heap.sol\":2731:2732  a */\n      dup5\n        /* \"W1/heap.sol\":2726:2733  heap[a] */\n      dup2\n      sload\n      dup2\n      lt\n      tag_114\n      jumpi\n      tag_115\n      tag_38\n      jump\t// in\n    tag_115:\n    tag_114:\n      swap1\n      0x00\n      mstore\n      keccak256(0x00, 0x20)\n      swap1\n      0x04\n      mul\n      add\n        /* \"W1/heap.sol\":2726:2743  heap[a] = heap[b] */\n      0x00\n      dup3\n      add\n      0x00\n      swap1\n      sload\n      swap1\n      0x0100\n      exp\n      swap1\n      div\n      0xffffffffffffffffffffffffffffffffffffffff\n      and\n      dup2\n      0x00\n      add\n      exp(0x0100, 0x00)\n      dup2\n      sload\n      dup2\n      0xffffffffffffffffffffffffffffffffffffffff\n      mul\n      not\n      and\n      swap1\n      dup4\n      0xffffffffffffffffffffffffffffffffffffffff\n      and\n      mul\n      or\n      swap1\n      sstore\n      pop\n      0x01\n      dup3\n      add\n      sload\n      dup2\n      0x01\n      add\n      sstore\n      0x02\n      dup3\n      add\n      sload\n      dup2\n      0x02\n      add\n      sstore\n      0x03\n      dup3\n      add\n      sload\n      dup2\n      0x03\n      add\n      sstore\n      swap1\n      pop\n      pop\n        /* \"W1/heap.sol\":2764:2767  tmp */\n      dup1\n        /* \"W1/heap.sol\":2754:2758  heap */\n      0x00\n        /* \"W1/heap.sol\":2759:2760  b */\n      dup4\n        /* \"W1/heap.sol\":2754:2761  heap[b] */\n      dup2\n      sload\n      dup2\n      lt\n      tag_117\n      jumpi\n      tag_118\n      tag_38\n      jump\t// in\n    tag_118:\n    tag_117:\n      swap1\n      0x00\n      mstore\n      keccak256(0x00, 0x20)\n      swap1\n      0x04\n      mul\n      add\n        /* \"W1/heap.sol\":2754:2767  heap[b] = tmp */\n      0x00\n      dup3\n      add\n      mload\n      dup2\n      0x00\n      add\n      exp(0x0100, 0x00)\n      dup2\n      sload\n      dup2\n      0xffffffffffffffffffffffffffffffffffffffff\n      mul\n      not\n      and\n      swap1\n      dup4\n      0xffffffffffffffffffffffffffffffffffffffff\n      and\n      mul\n      or\n      swap1\n      sstore\n      pop\n      0x20\n      dup3\n      add\n      mload\n      dup2\n      0x01\n      add\n      sstore\n      0x40\n      dup3\n      add\n      mload\n      dup2\n      0x02\n      add\n      sstore\n      0x60\n      dup3\n      add\n      mload\n      dup2\n      0x03\n      add\n      sstore\n      swap1\n      pop\n      pop\n        /* \"W1/heap.sol\":2678:2775  {... */\n      pop\n        /* \"W1/heap.sol\":2632:2775  function _swap(uint256 a, uint256 b) private  {... */\n      pop\n      pop\n      jump\t// out\n        /* \"W1/heap.sol\":1187:1630  function _heapify(uint256 _i) private {... */\n    tag_52:\n        /* \"W1/heap.sol\":1236:1245  uint256 l */\n      0x00\n        /* \"W1/heap.sol\":1257:1258  1 */\n      0x01\n        /* \"W1/heap.sol\":1252:1254  _i */\n      dup3\n        /* \"W1/heap.sol\":1248:1249  2 */\n      0x02\n        /* \"W1/heap.sol\":1248:1254  2 * _i */\n      tag_121\n      swap2\n      swap1\n      tag_122\n      jump\t// in\n    tag_121:\n        /* \"W1/heap.sol\":1248:1258  2 * _i + 1 */\n      tag_123\n      swap2\n      swap1\n      tag_124\n      jump\t// in\n    tag_123:\n        /* \"W1/heap.sol\":1236:1258  uint256 l = 2 * _i + 1 */\n      swap1\n      pop\n        /* \"W1/heap.sol\":1269:1278  uint256 r */\n      0x00\n        /* \"W1/heap.sol\":1290:1291  2 */\n      0x02\n        /* \"W1/heap.sol\":1285:1287  _i */\n      dup4\n        /* \"W1/heap.sol\":1281:1282  2 */\n      0x02\n        /* \"W1/heap.sol\":1281:1287  2 * _i */\n      tag_125\n      swap2\n      swap1\n      tag_122\n      jump\t// in\n    tag_125:\n        /* \"W1/heap.sol\":1281:1291  2 * _i + 2 */\n      tag_126\n      swap2\n      swap1\n      tag_124\n      jump\t// in\n    tag_126:\n        /* \"W1/heap.sol\":1269:1291  uint256 r = 2 * _i + 2 */\n      swap1\n      pop\n        /* \"W1/heap.sol\":1302:1318  uint256 smallest */\n      0x00\n        /* \"W1/heap.sol\":1321:1323  _i */\n      dup4\n        /* \"W1/heap.sol\":1302:1323  uint256 smallest = _i */\n      swap1\n      pop\n        /* \"W1/heap.sol\":1342:1346  heap */\n      0x00\n        /* \"W1/heap.sol\":1342:1353  heap.length */\n      dup1\n      sload\n      swap1\n      pop\n        /* \"W1/heap.sol\":1338:1339  l */\n      dup4\n        /* \"W1/heap.sol\":1338:1353  l < heap.length */\n      lt\n        /* \"W1/heap.sol\":1338:1378  l < heap.length && _conpare(l ,smallest) */\n      dup1\n      iszero\n      tag_127\n      jumpi\n      pop\n        /* \"W1/heap.sol\":1357:1378  _conpare(l ,smallest) */\n      tag_128\n        /* \"W1/heap.sol\":1366:1367  l */\n      dup4\n        /* \"W1/heap.sol\":1369:1377  smallest */\n      dup3\n        /* \"W1/heap.sol\":1357:1365  _conpare */\n      tag_26\n        /* \"W1/heap.sol\":1357:1378  _conpare(l ,smallest) */\n      jump\t// in\n    tag_128:\n        /* \"W1/heap.sol\":1338:1378  l < heap.length && _conpare(l ,smallest) */\n    tag_127:\n        /* \"W1/heap.sol\":1334:1419  if (l < heap.length && _conpare(l ,smallest)) {... */\n      iszero\n      tag_129\n      jumpi\n        /* \"W1/heap.sol\":1406:1407  l */\n      dup3\n        /* \"W1/heap.sol\":1395:1407  smallest = l */\n      swap1\n      pop\n        /* \"W1/heap.sol\":1334:1419  if (l < heap.length && _conpare(l ,smallest)) {... */\n    tag_129:\n        /* \"W1/heap.sol\":1437:1441  heap */\n      0x00\n        /* \"W1/heap.sol\":1437:1448  heap.length */\n      dup1\n      sload\n      swap1\n      pop\n        /* \"W1/heap.sol\":1433:1434  r */\n      dup3\n        /* \"W1/heap.sol\":1433:1448  r < heap.length */\n      lt\n        /* \"W1/heap.sol\":1433:1473  r < heap.length && _conpare(r ,smallest) */\n      dup1\n      iszero\n      tag_130\n      jumpi\n      pop\n        /* \"W1/heap.sol\":1452:1473  _conpare(r ,smallest) */\n      tag_131\n        /* \"W1/heap.sol\":1461:1462  r */\n      dup3\n        /* \"W1/heap.sol\":1464:1472  smallest */\n      dup3\n        /* \"W1/heap.sol\":1452:1460  _conpare */\n      tag_26\n        /* \"W1/heap.sol\":1452:1473  _conpare(r ,smallest) */\n      jump\t// in\n    tag_131:\n        /* \"W1/heap.sol\":1433:1473  r < heap.length && _conpare(r ,smallest) */\n    tag_130:\n        /* \"W1/heap.sol\":1429:1514  if (r < heap.length && _conpare(r ,smallest)) {... */\n      iszero\n      tag_132\n      jumpi\n        /* \"W1/heap.sol\":1501:1502  r */\n      dup2\n        /* \"W1/heap.sol\":1490:1502  smallest = r */\n      swap1\n      pop\n        /* \"W1/heap.sol\":1429:1514  if (r < heap.length && _conpare(r ,smallest)) {... */\n    tag_132:\n        /* \"W1/heap.sol\":1540:1542  _i */\n      dup4\n        /* \"W1/heap.sol\":1528:1536  smallest */\n      dup2\n        /* \"W1/heap.sol\":1528:1542  smallest != _i */\n      eq\n        /* \"W1/heap.sol\":1524:1623  if (smallest != _i) {... */\n      tag_133\n      jumpi\n        /* \"W1/heap.sol\":1559:1578  _swap(_i, smallest) */\n      tag_134\n        /* \"W1/heap.sol\":1565:1567  _i */\n      dup5\n        /* \"W1/heap.sol\":1569:1577  smallest */\n      dup3\n        /* \"W1/heap.sol\":1559:1564  _swap */\n      tag_29\n        /* \"W1/heap.sol\":1559:1578  _swap(_i, smallest) */\n      jump\t// in\n    tag_134:\n        /* \"W1/heap.sol\":1593:1611  _heapify(smallest) */\n      tag_135\n        /* \"W1/heap.sol\":1602:1610  smallest */\n      dup2\n        /* \"W1/heap.sol\":1593:1601  _heapify */\n      tag_52\n        /* \"W1/heap.sol\":1593:1611  _heapify(smallest) */\n      jump\t// in\n    tag_135:\n        /* \"W1/heap.sol\":1524:1623  if (smallest != _i) {... */\n    tag_133:\n        /* \"W1/heap.sol\":1225:1630  {... */\n      pop\n      pop\n      pop\n        /* \"W1/heap.sol\":1187:1630  function _heapify(uint256 _i) private {... */\n      pop\n      jump\t// out\n    tag_54:\n      mload(0x40)\n      dup1\n      0x80\n      add\n      0x40\n      mstore\n      dup1\n      and(0xffffffffffffffffffffffffffffffffffffffff, 0x00)\n      dup2\n      mstore\n      0x20\n      add\n      0x00\n      dup2\n      mstore\n      0x20\n      add\n      0x00\n      dup2\n      mstore\n      0x20\n      add\n      0x00\n      dup2\n      mstore\n      pop\n      swap1\n      jump\t// out\n        /* \"#utility.yul\":7:82   */\n    tag_136:\n        /* \"#utility.yul\":40:46   */\n      0x00\n        /* \"#utility.yul\":73:75   */\n      0x40\n        /* \"#utility.yul\":67:76   */\n      mload\n        /* \"#utility.yul\":57:76   */\n      swap1\n      pop\n        /* \"#utility.yul\":7:82   */\n      swap1\n      jump\t// out\n        /* \"#utility.yul\":88:205   */\n    tag_137:\n        /* \"#utility.yul\":197:198   */\n      0x00\n        /* \"#utility.yul\":194:195   */\n      dup1\n        /* \"#utility.yul\":187:199   */\n      revert\n        /* \"#utility.yul\":334:451   */\n    tag_139:\n        /* \"#utility.yul\":443:444   */\n      0x00\n        /* \"#utility.yul\":440:441   */\n      dup1\n        /* \"#utility.yul\":433:445   */\n      revert\n        /* \"#utility.yul\":457:559   */\n    tag_140:\n        /* \"#utility.yul\":498:504   */\n      0x00\n        /* \"#utility.yul\":549:551   */\n      0x1f\n        /* \"#utility.yul\":545:552   */\n      not\n        /* \"#utility.yul\":540:542   */\n      0x1f\n        /* \"#utility.yul\":533:538   */\n      dup4\n        /* \"#utility.yul\":529:543   */\n      add\n        /* \"#utility.yul\":525:553   */\n      and\n        /* \"#utility.yul\":515:553   */\n      swap1\n      pop\n        /* \"#utility.yul\":457:559   */\n      swap2\n      swap1\n      pop\n      jump\t// out\n        /* \"#utility.yul\":565:745   */\n    tag_141:\n        /* \"#utility.yul\":613:690   */\n      0x4e487b7100000000000000000000000000000000000000000000000000000000\n        /* \"#utility.yul\":610:611   */\n      0x00\n        /* \"#utility.yul\":603:691   */\n      mstore\n        /* \"#utility.yul\":710:714   */\n      0x41\n        /* \"#utility.yul\":707:708   */\n      0x04\n        /* \"#utility.yul\":700:715   */\n      mstore\n        /* \"#utility.yul\":734:738   */\n      0x24\n        /* \"#utility.yul\":731:732   */\n      0x00\n        /* \"#utility.yul\":724:739   */\n      revert\n        /* \"#utility.yul\":751:1032   */\n    tag_142:\n        /* \"#utility.yul\":834:861   */\n      tag_169\n        /* \"#utility.yul\":856:860   */\n      dup3\n        /* \"#utility.yul\":834:861   */\n      tag_140\n      jump\t// in\n    tag_169:\n        /* \"#utility.yul\":826:832   */\n      dup2\n        /* \"#utility.yul\":822:862   */\n      add\n        /* \"#utility.yul\":964:970   */\n      dup2\n        /* \"#utility.yul\":952:962   */\n      dup2\n        /* \"#utility.yul\":949:971   */\n      lt\n        /* \"#utility.yul\":928:946   */\n      0xffffffffffffffff\n        /* \"#utility.yul\":916:926   */\n      dup3\n        /* \"#utility.yul\":913:947   */\n      gt\n        /* \"#utility.yul\":910:972   */\n      or\n        /* \"#utility.yul\":907:995   */\n      iszero\n      tag_170\n      jumpi\n        /* \"#utility.yul\":975:993   */\n      tag_171\n      tag_141\n      jump\t// in\n    tag_171:\n        /* \"#utility.yul\":907:995   */\n    tag_170:\n        /* \"#utility.yul\":1015:1025   */\n      dup1\n        /* \"#utility.yul\":1011:1013   */\n      0x40\n        /* \"#utility.yul\":1004:1026   */\n      mstore\n        /* \"#utility.yul\":794:1032   */\n      pop\n        /* \"#utility.yul\":751:1032   */\n      pop\n      pop\n      jump\t// out\n        /* \"#utility.yul\":1038:1167   */\n    tag_143:\n        /* \"#utility.yul\":1072:1078   */\n      0x00\n        /* \"#utility.yul\":1099:1119   */\n      tag_173\n      tag_136\n      jump\t// in\n    tag_173:\n        /* \"#utility.yul\":1089:1119   */\n      swap1\n      pop\n        /* \"#utility.yul\":1128:1161   */\n      tag_174\n        /* \"#utility.yul\":1156:1160   */\n      dup3\n        /* \"#utility.yul\":1148:1154   */\n      dup3\n        /* \"#utility.yul\":1128:1161   */\n      tag_142\n      jump\t// in\n    tag_174:\n        /* \"#utility.yul\":1038:1167   */\n      swap2\n      swap1\n      pop\n      jump\t// out\n        /* \"#utility.yul\":1296:1422   */\n    tag_145:\n        /* \"#utility.yul\":1333:1340   */\n      0x00\n        /* \"#utility.yul\":1373:1415   */\n      0xffffffffffffffffffffffffffffffffffffffff\n        /* \"#utility.yul\":1366:1371   */\n      dup3\n        /* \"#utility.yul\":1362:1416   */\n      and\n        /* \"#utility.yul\":1351:1416   */\n      swap1\n      pop\n        /* \"#utility.yul\":1296:1422   */\n      swap2\n      swap1\n      pop\n      jump\t// out\n        /* \"#utility.yul\":1428:1524   */\n    tag_146:\n        /* \"#utility.yul\":1465:1472   */\n      0x00\n        /* \"#utility.yul\":1494:1518   */\n      tag_178\n        /* \"#utility.yul\":1512:1517   */\n      dup3\n        /* \"#utility.yul\":1494:1518   */\n      tag_145\n      jump\t// in\n    tag_178:\n        /* \"#utility.yul\":1483:1518   */\n      swap1\n      pop\n        /* \"#utility.yul\":1428:1524   */\n      swap2\n      swap1\n      pop\n      jump\t// out\n        /* \"#utility.yul\":1530:1652   */\n    tag_147:\n        /* \"#utility.yul\":1603:1627   */\n      tag_180\n        /* \"#utility.yul\":1621:1626   */\n      dup2\n        /* \"#utility.yul\":1603:1627   */\n      tag_146\n      jump\t// in\n    tag_180:\n        /* \"#utility.yul\":1596:1601   */\n      dup2\n        /* \"#utility.yul\":1593:1628   */\n      eq\n        /* \"#utility.yul\":1583:1646   */\n      tag_181\n      jumpi\n        /* \"#utility.yul\":1642:1643   */\n      0x00\n        /* \"#utility.yul\":1639:1640   */\n      dup1\n        /* \"#utility.yul\":1632:1644   */\n      revert\n        /* \"#utility.yul\":1583:1646   */\n    tag_181:\n        /* \"#utility.yul\":1530:1652   */\n      pop\n      jump\t// out\n        /* \"#utility.yul\":1658:1797   */\n    tag_148:\n        /* \"#utility.yul\":1704:1709   */\n      0x00\n        /* \"#utility.yul\":1742:1748   */\n      dup2\n        /* \"#utility.yul\":1729:1749   */\n      calldataload\n        /* \"#utility.yul\":1720:1749   */\n      swap1\n      pop\n        /* \"#utility.yul\":1758:1791   */\n      tag_183\n        /* \"#utility.yul\":1785:1790   */\n      dup2\n        /* \"#utility.yul\":1758:1791   */\n      tag_147\n      jump\t// in\n    tag_183:\n        /* \"#utility.yul\":1658:1797   */\n      swap3\n      swap2\n      pop\n      pop\n      jump\t// out\n        /* \"#utility.yul\":1803:1880   */\n    tag_149:\n        /* \"#utility.yul\":1840:1847   */\n      0x00\n        /* \"#utility.yul\":1869:1874   */\n      dup2\n        /* \"#utility.yul\":1858:1874   */\n      swap1\n      pop\n        /* \"#utility.yul\":1803:1880   */\n      swap2\n      swap1\n      pop\n      jump\t// out\n        /* \"#utility.yul\":1886:2008   */\n    tag_150:\n        /* \"#utility.yul\":1959:1983   */\n      tag_186\n        /* \"#utility.yul\":1977:1982   */\n      dup2\n        /* \"#utility.yul\":1959:1983   */\n      tag_149\n      jump\t// in\n    tag_186:\n        /* \"#utility.yul\":1952:1957   */\n      dup2\n        /* \"#utility.yul\":1949:1984   */\n      eq\n        /* \"#utility.yul\":1939:2002   */\n      tag_187\n      jumpi\n        /* \"#utility.yul\":1998:1999   */\n      0x00\n        /* \"#utility.yul\":1995:1996   */\n      dup1\n        /* \"#utility.yul\":1988:2000   */\n      revert\n        /* \"#utility.yul\":1939:2002   */\n    tag_187:\n        /* \"#utility.yul\":1886:2008   */\n      pop\n      jump\t// out\n        /* \"#utility.yul\":2014:2153   */\n    tag_151:\n        /* \"#utility.yul\":2060:2065   */\n      0x00\n        /* \"#utility.yul\":2098:2104   */\n      dup2\n        /* \"#utility.yul\":2085:2105   */\n      calldataload\n        /* \"#utility.yul\":2076:2105   */\n      swap1\n      pop\n        /* \"#utility.yul\":2114:2147   */\n      tag_189\n        /* \"#utility.yul\":2141:2146   */\n      dup2\n        /* \"#utility.yul\":2114:2147   */\n      tag_150\n      jump\t// in\n    tag_189:\n        /* \"#utility.yul\":2014:2153   */\n      swap3\n      swap2\n      pop\n      pop\n      jump\t// out\n        /* \"#utility.yul\":2179:3081   */\n    tag_152:\n        /* \"#utility.yul\":2249:2254   */\n      0x00\n        /* \"#utility.yul\":2293:2297   */\n      0x80\n        /* \"#utility.yul\":2281:2290   */\n      dup3\n        /* \"#utility.yul\":2276:2279   */\n      dup5\n        /* \"#utility.yul\":2272:2291   */\n      sub\n        /* \"#utility.yul\":2268:2298   */\n      slt\n        /* \"#utility.yul\":2265:2382   */\n      iszero\n      tag_191\n      jumpi\n        /* \"#utility.yul\":2301:2380   */\n      tag_192\n      tag_139\n      jump\t// in\n    tag_192:\n        /* \"#utility.yul\":2265:2382   */\n    tag_191:\n        /* \"#utility.yul\":2400:2421   */\n      tag_193\n        /* \"#utility.yul\":2416:2420   */\n      0x80\n        /* \"#utility.yul\":2400:2421   */\n      tag_143\n      jump\t// in\n    tag_193:\n        /* \"#utility.yul\":2391:2421   */\n      swap1\n      pop\n        /* \"#utility.yul\":2482:2483   */\n      0x00\n        /* \"#utility.yul\":2522:2571   */\n      tag_194\n        /* \"#utility.yul\":2567:2570   */\n      dup5\n        /* \"#utility.yul\":2558:2564   */\n      dup3\n        /* \"#utility.yul\":2547:2556   */\n      dup6\n        /* \"#utility.yul\":2543:2565   */\n      add\n        /* \"#utility.yul\":2522:2571   */\n      tag_148\n      jump\t// in\n    tag_194:\n        /* \"#utility.yul\":2515:2519   */\n      0x00\n        /* \"#utility.yul\":2508:2513   */\n      dup4\n        /* \"#utility.yul\":2504:2520   */\n      add\n        /* \"#utility.yul\":2497:2572   */\n      mstore\n        /* \"#utility.yul\":2431:2583   */\n      pop\n        /* \"#utility.yul\":2644:2646   */\n      0x20\n        /* \"#utility.yul\":2685:2734   */\n      tag_195\n        /* \"#utility.yul\":2730:2733   */\n      dup5\n        /* \"#utility.yul\":2721:2727   */\n      dup3\n        /* \"#utility.yul\":2710:2719   */\n      dup6\n        /* \"#utility.yul\":2706:2728   */\n      add\n        /* \"#utility.yul\":2685:2734   */\n      tag_151\n      jump\t// in\n    tag_195:\n        /* \"#utility.yul\":2678:2682   */\n      0x20\n        /* \"#utility.yul\":2671:2676   */\n      dup4\n        /* \"#utility.yul\":2667:2683   */\n      add\n        /* \"#utility.yul\":2660:2735   */\n      mstore\n        /* \"#utility.yul\":2593:2746   */\n      pop\n        /* \"#utility.yul\":2806:2808   */\n      0x40\n        /* \"#utility.yul\":2847:2896   */\n      tag_196\n        /* \"#utility.yul\":2892:2895   */\n      dup5\n        /* \"#utility.yul\":2883:2889   */\n      dup3\n        /* \"#utility.yul\":2872:2881   */\n      dup6\n        /* \"#utility.yul\":2868:2890   */\n      add\n        /* \"#utility.yul\":2847:2896   */\n      tag_151\n      jump\t// in\n    tag_196:\n        /* \"#utility.yul\":2840:2844   */\n      0x40\n        /* \"#utility.yul\":2833:2838   */\n      dup4\n        /* \"#utility.yul\":2829:2845   */\n      add\n        /* \"#utility.yul\":2822:2897   */\n      mstore\n        /* \"#utility.yul\":2756:2908   */\n      pop\n        /* \"#utility.yul\":2972:2974   */\n      0x60\n        /* \"#utility.yul\":3013:3062   */\n      tag_197\n        /* \"#utility.yul\":3058:3061   */\n      dup5\n        /* \"#utility.yul\":3049:3055   */\n      dup3\n        /* \"#utility.yul\":3038:3047   */\n      dup6\n        /* \"#utility.yul\":3034:3056   */\n      add\n        /* \"#utility.yul\":3013:3062   */\n      tag_151\n      jump\t// in\n    tag_197:\n        /* \"#utility.yul\":3006:3010   */\n      0x60\n        /* \"#utility.yul\":2999:3004   */\n      dup4\n        /* \"#utility.yul\":2995:3011   */\n      add\n        /* \"#utility.yul\":2988:3063   */\n      mstore\n        /* \"#utility.yul\":2918:3074   */\n      pop\n        /* \"#utility.yul\":2179:3081   */\n      swap3\n      swap2\n      pop\n      pop\n      jump\t// out\n        /* \"#utility.yul\":3087:3459   */\n    tag_8:\n        /* \"#utility.yul\":3167:3173   */\n      0x00\n        /* \"#utility.yul\":3216:3219   */\n      0x80\n        /* \"#utility.yul\":3204:3213   */\n      dup3\n        /* \"#utility.yul\":3195:3202   */\n      dup5\n        /* \"#utility.yul\":3191:3214   */\n      sub\n        /* \"#utility.yul\":3187:3220   */\n      slt\n        /* \"#utility.yul\":3184:3304   */\n      iszero\n      tag_199\n      jumpi\n        /* \"#utility.yul\":3223:3302   */\n      tag_200\n      tag_137\n      jump\t// in\n    tag_200:\n        /* \"#utility.yul\":3184:3304   */\n    tag_199:\n        /* \"#utility.yul\":3343:3344   */\n      0x00\n        /* \"#utility.yul\":3368:3442   */\n      tag_201\n        /* \"#utility.yul\":3434:3441   */\n      dup5\n        /* \"#utility.yul\":3425:3431   */\n      dup3\n        /* \"#utility.yul\":3414:3423   */\n      dup6\n        /* \"#utility.yul\":3410:3432   */\n      add\n        /* \"#utility.yul\":3368:3442   */\n      tag_152\n      jump\t// in\n    tag_201:\n        /* \"#utility.yul\":3358:3442   */\n      swap2\n      pop\n        /* \"#utility.yul\":3314:3452   */\n      pop\n        /* \"#utility.yul\":3087:3459   */\n      swap3\n      swap2\n      pop\n      pop\n      jump\t// out\n        /* \"#utility.yul\":3465:3573   */\n    tag_153:\n        /* \"#utility.yul\":3542:3566   */\n      tag_203\n        /* \"#utility.yul\":3560:3565   */\n      dup2\n        /* \"#utility.yul\":3542:3566   */\n      tag_146\n      jump\t// in\n    tag_203:\n        /* \"#utility.yul\":3537:3540   */\n      dup3\n        /* \"#utility.yul\":3530:3567   */\n      mstore\n        /* \"#utility.yul\":3465:3573   */\n      pop\n      pop\n      jump\t// out\n        /* \"#utility.yul\":3579:3687   */\n    tag_154:\n        /* \"#utility.yul\":3656:3680   */\n      tag_205\n        /* \"#utility.yul\":3674:3679   */\n      dup2\n        /* \"#utility.yul\":3656:3680   */\n      tag_149\n      jump\t// in\n    tag_205:\n        /* \"#utility.yul\":3651:3654   */\n      dup3\n        /* \"#utility.yul\":3644:3681   */\n      mstore\n        /* \"#utility.yul\":3579:3687   */\n      pop\n      pop\n      jump\t// out\n        /* \"#utility.yul\":3729:4586   */\n    tag_155:\n        /* \"#utility.yul\":3868:3872   */\n      0x80\n        /* \"#utility.yul\":3863:3866   */\n      dup3\n        /* \"#utility.yul\":3859:3873   */\n      add\n        /* \"#utility.yul\":3957:3961   */\n      0x00\n        /* \"#utility.yul\":3950:3955   */\n      dup3\n        /* \"#utility.yul\":3946:3962   */\n      add\n        /* \"#utility.yul\":3940:3963   */\n      mload\n        /* \"#utility.yul\":3976:4039   */\n      tag_207\n        /* \"#utility.yul\":4033:4037   */\n      0x00\n        /* \"#utility.yul\":4028:4031   */\n      dup6\n        /* \"#utility.yul\":4024:4038   */\n      add\n        /* \"#utility.yul\":4010:4022   */\n      dup3\n        /* \"#utility.yul\":3976:4039   */\n      tag_153\n      jump\t// in\n    tag_207:\n        /* \"#utility.yul\":3883:4049   */\n      pop\n        /* \"#utility.yul\":4133:4137   */\n      0x20\n        /* \"#utility.yul\":4126:4131   */\n      dup3\n        /* \"#utility.yul\":4122:4138   */\n      add\n        /* \"#utility.yul\":4116:4139   */\n      mload\n        /* \"#utility.yul\":4152:4215   */\n      tag_208\n        /* \"#utility.yul\":4209:4213   */\n      0x20\n        /* \"#utility.yul\":4204:4207   */\n      dup6\n        /* \"#utility.yul\":4200:4214   */\n      add\n        /* \"#utility.yul\":4186:4198   */\n      dup3\n        /* \"#utility.yul\":4152:4215   */\n      tag_154\n      jump\t// in\n    tag_208:\n        /* \"#utility.yul\":4059:4225   */\n      pop\n        /* \"#utility.yul\":4308:4312   */\n      0x40\n        /* \"#utility.yul\":4301:4306   */\n      dup3\n        /* \"#utility.yul\":4297:4313   */\n      add\n        /* \"#utility.yul\":4291:4314   */\n      mload\n        /* \"#utility.yul\":4327:4390   */\n      tag_209\n        /* \"#utility.yul\":4384:4388   */\n      0x40\n        /* \"#utility.yul\":4379:4382   */\n      dup6\n        /* \"#utility.yul\":4375:4389   */\n      add\n        /* \"#utility.yul\":4361:4373   */\n      dup3\n        /* \"#utility.yul\":4327:4390   */\n      tag_154\n      jump\t// in\n    tag_209:\n        /* \"#utility.yul\":4235:4400   */\n      pop\n        /* \"#utility.yul\":4487:4491   */\n      0x60\n        /* \"#utility.yul\":4480:4485   */\n      dup3\n        /* \"#utility.yul\":4476:4492   */\n      add\n        /* \"#utility.yul\":4470:4493   */\n      mload\n        /* \"#utility.yul\":4506:4569   */\n      tag_210\n        /* \"#utility.yul\":4563:4567   */\n      0x60\n        /* \"#utility.yul\":4558:4561   */\n      dup6\n        /* \"#utility.yul\":4554:4568   */\n      add\n        /* \"#utility.yul\":4540:4552   */\n      dup3\n        /* \"#utility.yul\":4506:4569   */\n      tag_154\n      jump\t// in\n    tag_210:\n        /* \"#utility.yul\":4410:4579   */\n      pop\n        /* \"#utility.yul\":3837:4586   */\n      pop\n        /* \"#utility.yul\":3729:4586   */\n      pop\n      pop\n      jump\t// out\n        /* \"#utility.yul\":4592:4899   */\n    tag_15:\n        /* \"#utility.yul\":4727:4731   */\n      0x00\n        /* \"#utility.yul\":4765:4768   */\n      0x80\n        /* \"#utility.yul\":4754:4763   */\n      dup3\n        /* \"#utility.yul\":4750:4769   */\n      add\n        /* \"#utility.yul\":4742:4769   */\n      swap1\n      pop\n        /* \"#utility.yul\":4779:4892   */\n      tag_212\n        /* \"#utility.yul\":4889:4890   */\n      0x00\n        /* \"#utility.yul\":4878:4887   */\n      dup4\n        /* \"#utility.yul\":4874:4891   */\n      add\n        /* \"#utility.yul\":4865:4871   */\n      dup5\n        /* \"#utility.yul\":4779:4892   */\n      tag_155\n      jump\t// in\n    tag_212:\n        /* \"#utility.yul\":4592:4899   */\n      swap3\n      swap2\n      pop\n      pop\n      jump\t// out\n        /* \"#utility.yul\":4905:5085   */\n    tag_156:\n        /* \"#utility.yul\":4953:5030   */\n      0x4e487b7100000000000000000000000000000000000000000000000000000000\n        /* \"#utility.yul\":4950:4951   */\n      0x00\n        /* \"#utility.yul\":4943:5031   */\n      mstore\n        /* \"#utility.yul\":5050:5054   */\n      0x11\n        /* \"#utility.yul\":5047:5048   */\n      0x04\n        /* \"#utility.yul\":5040:5055   */\n      mstore\n        /* \"#utility.yul\":5074:5078   */\n      0x24\n        /* \"#utility.yul\":5071:5072   */\n      0x00\n        /* \"#utility.yul\":5064:5079   */\n      revert\n        /* \"#utility.yul\":5091:5285   */\n    tag_19:\n        /* \"#utility.yul\":5131:5135   */\n      0x00\n        /* \"#utility.yul\":5151:5171   */\n      tag_215\n        /* \"#utility.yul\":5169:5170   */\n      dup3\n        /* \"#utility.yul\":5151:5171   */\n      tag_149\n      jump\t// in\n    tag_215:\n        /* \"#utility.yul\":5146:5171   */\n      swap2\n      pop\n        /* \"#utility.yul\":5185:5205   */\n      tag_216\n        /* \"#utility.yul\":5203:5204   */\n      dup4\n        /* \"#utility.yul\":5185:5205   */\n      tag_149\n      jump\t// in\n    tag_216:\n        /* \"#utility.yul\":5180:5205   */\n      swap3\n      pop\n        /* \"#utility.yul\":5229:5230   */\n      dup3\n        /* \"#utility.yul\":5226:5227   */\n      dup3\n        /* \"#utility.yul\":5222:5231   */\n      sub\n        /* \"#utility.yul\":5214:5231   */\n      swap1\n      pop\n        /* \"#utility.yul\":5253:5254   */\n      dup2\n        /* \"#utility.yul\":5247:5251   */\n      dup2\n        /* \"#utility.yul\":5244:5255   */\n      gt\n        /* \"#utility.yul\":5241:5278   */\n      iszero\n      tag_217\n      jumpi\n        /* \"#utility.yul\":5258:5276   */\n      tag_218\n      tag_156\n      jump\t// in\n    tag_218:\n        /* \"#utility.yul\":5241:5278   */\n    tag_217:\n        /* \"#utility.yul\":5091:5285   */\n      swap3\n      swap2\n      pop\n      pop\n      jump\t// out\n        /* \"#utility.yul\":5291:5471   */\n    tag_157:\n        /* \"#utility.yul\":5339:5416   */\n      0x4e487b7100000000000000000000000000000000000000000000000000000000\n        /* \"#utility.yul\":5336:5337   */\n      0x00\n        /* \"#utility.yul\":5329:5417   */\n      mstore\n        /* \"#utility.yul\":5436:5440   */\n      0x12\n        /* \"#utility.yul\":5433:5434   */\n      0x04\n        /* \"#utility.yul\":5426:5441   */\n      mstore\n        /* \"#utility.yul\":5460:5464   */\n      0x24\n        /* \"#utility.yul\":5457:5458   */\n      0x00\n        /* \"#utility.yul\":5450:5465   */\n      revert\n        /* \"#utility.yul\":5477:5662   */\n    tag_24:\n        /* \"#utility.yul\":5517:5518   */\n      0x00\n        /* \"#utility.yul\":5534:5554   */\n      tag_221\n        /* \"#utility.yul\":5552:5553   */\n      dup3\n        /* \"#utility.yul\":5534:5554   */\n      tag_149\n      jump\t// in\n    tag_221:\n        /* \"#utility.yul\":5529:5554   */\n      swap2\n      pop\n        /* \"#utility.yul\":5568:5588   */\n      tag_222\n        /* \"#utility.yul\":5586:5587   */\n      dup4\n        /* \"#utility.yul\":5568:5588   */\n      tag_149\n      jump\t// in\n    tag_222:\n        /* \"#utility.yul\":5563:5588   */\n      swap3\n      pop\n        /* \"#utility.yul\":5607:5608   */\n      dup3\n        /* \"#utility.yul\":5597:5632   */\n      tag_223\n      jumpi\n        /* \"#utility.yul\":5612:5630   */\n      tag_224\n      tag_157\n      jump\t// in\n    tag_224:\n        /* \"#utility.yul\":5597:5632   */\n    tag_223:\n        /* \"#utility.yul\":5654:5655   */\n      dup3\n        /* \"#utility.yul\":5651:5652   */\n      dup3\n        /* \"#utility.yul\":5647:5656   */\n      div\n        /* \"#utility.yul\":5642:5656   */\n      swap1\n      pop\n        /* \"#utility.yul\":5477:5662   */\n      swap3\n      swap2\n      pop\n      pop\n      jump\t// out\n        /* \"#utility.yul\":5668:5837   */\n    tag_158:\n        /* \"#utility.yul\":5752:5763   */\n      0x00\n        /* \"#utility.yul\":5786:5792   */\n      dup3\n        /* \"#utility.yul\":5781:5784   */\n      dup3\n        /* \"#utility.yul\":5774:5793   */\n      mstore\n        /* \"#utility.yul\":5826:5830   */\n      0x20\n        /* \"#utility.yul\":5821:5824   */\n      dup3\n        /* \"#utility.yul\":5817:5831   */\n      add\n        /* \"#utility.yul\":5802:5831   */\n      swap1\n      pop\n        /* \"#utility.yul\":5668:5837   */\n      swap3\n      swap2\n      pop\n      pop\n      jump\t// out\n        /* \"#utility.yul\":5843:6006   */\n    tag_159:\n        /* \"#utility.yul\":5983:5998   */\n      0x6865617020697320656d70747900000000000000000000000000000000000000\n        /* \"#utility.yul\":5979:5980   */\n      0x00\n        /* \"#utility.yul\":5971:5977   */\n      dup3\n        /* \"#utility.yul\":5967:5981   */\n      add\n        /* \"#utility.yul\":5960:5999   */\n      mstore\n        /* \"#utility.yul\":5843:6006   */\n      pop\n      jump\t// out\n        /* \"#utility.yul\":6012:6378   */\n    tag_160:\n        /* \"#utility.yul\":6154:6157   */\n      0x00\n        /* \"#utility.yul\":6175:6242   */\n      tag_228\n        /* \"#utility.yul\":6239:6241   */\n      0x0d\n        /* \"#utility.yul\":6234:6237   */\n      dup4\n        /* \"#utility.yul\":6175:6242   */\n      tag_158\n      jump\t// in\n    tag_228:\n        /* \"#utility.yul\":6168:6242   */\n      swap2\n      pop\n        /* \"#utility.yul\":6251:6344   */\n      tag_229\n        /* \"#utility.yul\":6340:6343   */\n      dup3\n        /* \"#utility.yul\":6251:6344   */\n      tag_159\n      jump\t// in\n    tag_229:\n        /* \"#utility.yul\":6369:6371   */\n      0x20\n        /* \"#utility.yul\":6364:6367   */\n      dup3\n        /* \"#utility.yul\":6360:6372   */\n      add\n        /* \"#utility.yul\":6353:6372   */\n      swap1\n      pop\n        /* \"#utility.yul\":6012:6378   */\n      swap2\n      swap1\n      pop\n      jump\t// out\n        /* \"#utility.yul\":6384:6803   */\n    tag_34:\n        /* \"#utility.yul\":6550:6554   */\n      0x00\n        /* \"#utility.yul\":6588:6590   */\n      0x20\n        /* \"#utility.yul\":6577:6586   */\n      dup3\n        /* \"#utility.yul\":6573:6591   */\n      add\n        /* \"#utility.yul\":6565:6591   */\n      swap1\n      pop\n        /* \"#utility.yul\":6637:6646   */\n      dup2\n        /* \"#utility.yul\":6631:6635   */\n      dup2\n        /* \"#utility.yul\":6627:6647   */\n      sub\n        /* \"#utility.yul\":6623:6624   */\n      0x00\n        /* \"#utility.yul\":6612:6621   */\n      dup4\n        /* \"#utility.yul\":6608:6625   */\n      add\n        /* \"#utility.yul\":6601:6648   */\n      mstore\n        /* \"#utility.yul\":6665:6796   */\n      tag_231\n        /* \"#utility.yul\":6791:6795   */\n      dup2\n        /* \"#utility.yul\":6665:6796   */\n      tag_160\n      jump\t// in\n    tag_231:\n        /* \"#utility.yul\":6657:6796   */\n      swap1\n      pop\n        /* \"#utility.yul\":6384:6803   */\n      swap2\n      swap1\n      pop\n      jump\t// out\n        /* \"#utility.yul\":6809:6989   */\n    tag_38:\n        /* \"#utility.yul\":6857:6934   */\n      0x4e487b7100000000000000000000000000000000000000000000000000000000\n        /* \"#utility.yul\":6854:6855   */\n      0x00\n        /* \"#utility.yul\":6847:6935   */\n      mstore\n        /* \"#utility.yul\":6954:6958   */\n      0x32\n        /* \"#utility.yul\":6951:6952   */\n      0x04\n        /* \"#utility.yul\":6944:6959   */\n      mstore\n        /* \"#utility.yul\":6978:6982   */\n      0x24\n        /* \"#utility.yul\":6975:6976   */\n      0x00\n        /* \"#utility.yul\":6968:6983   */\n      revert\n        /* \"#utility.yul\":6995:7175   */\n    tag_49:\n        /* \"#utility.yul\":7043:7120   */\n      0x4e487b7100000000000000000000000000000000000000000000000000000000\n        /* \"#utility.yul\":7040:7041   */\n      0x00\n        /* \"#utility.yul\":7033:7121   */\n      mstore\n        /* \"#utility.yul\":7140:7144   */\n      0x31\n        /* \"#utility.yul\":7137:7138   */\n      0x04\n        /* \"#utility.yul\":7130:7145   */\n      mstore\n        /* \"#utility.yul\":7164:7168   */\n      0x24\n        /* \"#utility.yul\":7161:7162   */\n      0x00\n        /* \"#utility.yul\":7154:7169   */\n      revert\n        /* \"#utility.yul\":7181:7591   */\n    tag_122:\n        /* \"#utility.yul\":7221:7228   */\n      0x00\n        /* \"#utility.yul\":7244:7264   */\n      tag_235\n        /* \"#utility.yul\":7262:7263   */\n      dup3\n        /* \"#utility.yul\":7244:7264   */\n      tag_149\n      jump\t// in\n    tag_235:\n        /* \"#utility.yul\":7239:7264   */\n      swap2\n      pop\n        /* \"#utility.yul\":7278:7298   */\n      tag_236\n        /* \"#utility.yul\":7296:7297   */\n      dup4\n        /* \"#utility.yul\":7278:7298   */\n      tag_149\n      jump\t// in\n    tag_236:\n        /* \"#utility.yul\":7273:7298   */\n      swap3\n      pop\n        /* \"#utility.yul\":7333:7334   */\n      dup3\n        /* \"#utility.yul\":7330:7331   */\n      dup3\n        /* \"#utility.yul\":7326:7335   */\n      mul\n        /* \"#utility.yul\":7355:7385   */\n      tag_237\n        /* \"#utility.yul\":7373:7384   */\n      dup2\n        /* \"#utility.yul\":7355:7385   */\n      tag_149\n      jump\t// in\n    tag_237:\n        /* \"#utility.yul\":7344:7385   */\n      swap2\n      pop\n        /* \"#utility.yul\":7534:7535   */\n      dup3\n        /* \"#utility.yul\":7525:7532   */\n      dup3\n        /* \"#utility.yul\":7521:7536   */\n      div\n        /* \"#utility.yul\":7518:7519   */\n      dup5\n        /* \"#utility.yul\":7515:7537   */\n      eq\n        /* \"#utility.yul\":7495:7496   */\n      dup4\n        /* \"#utility.yul\":7488:7497   */\n      iszero\n        /* \"#utility.yul\":7468:7551   */\n      or\n        /* \"#utility.yul\":7445:7584   */\n      tag_238\n      jumpi\n        /* \"#utility.yul\":7564:7582   */\n      tag_239\n      tag_156\n      jump\t// in\n    tag_239:\n        /* \"#utility.yul\":7445:7584   */\n    tag_238:\n        /* \"#utility.yul\":7229:7591   */\n      pop\n        /* \"#utility.yul\":7181:7591   */\n      swap3\n      swap2\n      pop\n      pop\n      jump\t// out\n        /* \"#utility.yul\":7597:7788   */\n    tag_124:\n        /* \"#utility.yul\":7637:7640   */\n      0x00\n        /* \"#utility.yul\":7656:7676   */\n      tag_241\n        /* \"#utility.yul\":7674:7675   */\n      dup3\n        /* \"#utility.yul\":7656:7676   */\n      tag_149\n      jump\t// in\n    tag_241:\n        /* \"#utility.yul\":7651:7676   */\n      swap2\n      pop\n        /* \"#utility.yul\":7690:7710   */\n      tag_242\n        /* \"#utility.yul\":7708:7709   */\n      dup4\n        /* \"#utility.yul\":7690:7710   */\n      tag_149\n      jump\t// in\n    tag_242:\n        /* \"#utility.yul\":7685:7710   */\n      swap3\n      pop\n        /* \"#utility.yul\":7733:7734   */\n      dup3\n        /* \"#utility.yul\":7730:7731   */\n      dup3\n        /* \"#utility.yul\":7726:7735   */\n      add\n        /* \"#utility.yul\":7719:7735   */\n      swap1\n      pop\n        /* \"#utility.yul\":7754:7757   */\n      dup1\n        /* \"#utility.yul\":7751:7752   */\n      dup3\n        /* \"#utility.yul\":7748:7758   */\n      gt\n        /* \"#utility.yul\":7745:7781   */\n      iszero\n      tag_243\n      jumpi\n        /* \"#utility.yul\":7761:7779   */\n      tag_244\n      tag_156\n      jump\t// in\n    tag_244:\n        /* \"#utility.yul\":7745:7781   */\n    tag_243:\n        /* \"#utility.yul\":7597:7788   */\n      swap3\n      swap2\n      pop\n      pop\n      jump\t// out\n\n    auxdata: 0xa264697066735822122049a593539a49cc65fa07275d7e2d15e00d20a249596f8362bda26b2d8987995264736f6c63430008130033\n}\n",
				"bytecode": {
					"linkReferences": {},
					"object": "608060405234801561001057600080fd5b5060006040518060800160405280600073ffffffffffffffffffffffffffffffffffffffff1681526020017fffffffffffffffffffffffffffffffffffffffffffffffffffffffffffffffff81526020017fffffffffffffffffffffffffffffffffffffffffffffffffffffffffffffffff81526020017fffffffffffffffffffffffffffffffffffffffffffffffffffffffffffffffff815250908060018154018082558091505060019003906000526020600020906004020160009091909190915060008201518160000160006101000a81548173ffffffffffffffffffffffffffffffffffffffff021916908373ffffffffffffffffffffffffffffffffffffffff1602179055506020820151816001015560408201518160020155606082015181600301555050610ed68061014a6000396000f3fe608060405234801561001057600080fd5b50600436106100415760003560e01c80637829c46914610046578063a4ece52c14610062578063fe6dcdba1461006c575b600080fd5b610060600480360381019061005b9190610bd1565b61008a565b005b61006a61018b565b005b61007461039a565b6040516100819190610c71565b60405180910390f35b600081908060018154018082558091505060019003906000526020600020906004020160009091909190915060008201518160000160006101000a81548173ffffffffffffffffffffffffffffffffffffffff021916908373ffffffffffffffffffffffffffffffffffffffff1602179055506020820151816001015560408201518160020155606082015181600301555050600060016000805490506101319190610cbb565b90505b6000811115610187576000600260018361014e9190610cbb565b6101589190610d1e565b9050610164828261048f565b1561017b576101738183610741565b809150610181565b50610187565b50610134565b5050565b60008080549050116101d2576040517f08c379a00000000000000000000000000000000000000000000000000000000081526004016101c990610dac565b60405180910390fd5b600060016000805490506101e69190610cbb565b815481106101f7576101f6610dcc565b5b90600052602060002090600402016000808154811061021957610218610dcc565b5b90600052602060002090600402016000820160009054906101000a900473ffffffffffffffffffffffffffffffffffffffff168160000160006101000a81548173ffffffffffffffffffffffffffffffffffffffff021916908373ffffffffffffffffffffffffffffffffffffffff160217905550600182015481600101556002820154816002015560038201548160030155905050600060016000805490506102c39190610cbb565b815481106102d4576102d3610dcc565b5b9060005260206000209060040201600080820160006101000a81549073ffffffffffffffffffffffffffffffffffffffff02191690556001820160009055600282016000905560038201600090555050600080548061033657610335610dfb565b5b6001900381819060005260206000209060040201600080820160006101000a81549073ffffffffffffffffffffffffffffffffffffffff0219169055600182016000905560028201600090556003820160009055505090556103986000610941565b565b6103a26109e7565b60008080549050116103e9576040517f08c379a00000000000000000000000000000000000000000000000000000000081526004016103e090610dac565b60405180910390fd5b600080815481106103fd576103fc610dcc565b5b90600052602060002090600402016040518060800160405290816000820160009054906101000a900473ffffffffffffffffffffffffffffffffffffffff1673ffffffffffffffffffffffffffffffffffffffff1673ffffffffffffffffffffffffffffffffffffffff1681526020016001820154815260200160028201548152602001600382015481525050905090565b60008082815481106104a4576104a3610dcc565b5b906000526020600020906004020160020154600084815481106104ca576104c9610dcc565b5b906000526020600020906004020160020154036106eb57600082815481106104f5576104f4610dcc565b5b9060005260206000209060040201600301546000848154811061051b5761051a610dcc565b5b90600052602060002090600402016003015403610697576000828154811061054657610545610dcc565b5b9060005260206000209060040201600101546000848154811061056c5761056b610dcc565b5b90600052602060002090600402016001015403610643576000828154811061059757610596610dcc565b5b906000526020600020906004020160000160009054906101000a900473ffffffffffffffffffffffffffffffffffffffff1673ffffffffffffffffffffffffffffffffffffffff16600084815481106105f3576105f2610dcc565b5b906000526020600020906004020160000160009054906101000a900473ffffffffffffffffffffffffffffffffffffffff1673ffffffffffffffffffffffffffffffffffffffff1610905061073b565b6000828154811061065757610656610dcc565b5b9060005260206000209060040201600101546000848154811061067d5761067c610dcc565b5b90600052602060002090600402016001015410905061073b565b600082815481106106ab576106aa610dcc565b5b906000526020600020906004020160030154600084815481106106d1576106d0610dcc565b5b90600052602060002090600402016003015410905061073b565b600082815481106106ff576106fe610dcc565b5b9060005260206000209060040201600201546000848154811061072557610724610dcc565b5b9060005260206000209060040201600201541090505b92915050565b600080838154811061075657610755610dcc565b5b90600052602060002090600402016040518060800160405290816000820160009054906101000a900473ffffffffffffffffffffffffffffffffffffffff1673ffffffffffffffffffffffffffffffffffffffff1673ffffffffffffffffffffffffffffffffffffffff16815260200160018201548152602001600282015481526020016003820154815250509050600082815481106107f9576107f8610dcc565b5b90600052602060002090600402016000848154811061081b5761081a610dcc565b5b90600052602060002090600402016000820160009054906101000a900473ffffffffffffffffffffffffffffffffffffffff168160000160006101000a81548173ffffffffffffffffffffffffffffffffffffffff021916908373ffffffffffffffffffffffffffffffffffffffff16021790555060018201548160010155600282015481600201556003820154816003015590505080600083815481106108c6576108c5610dcc565b5b906000526020600020906004020160008201518160000160006101000a81548173ffffffffffffffffffffffffffffffffffffffff021916908373ffffffffffffffffffffffffffffffffffffffff160217905550602082015181600101556040820151816002015560608201518160030155905050505050565b600060018260026109529190610e2a565b61095c9190610e6c565b90506000600283600261096f9190610e2a565b6109799190610e6c565b905060008390506000805490508310801561099a5750610999838261048f565b5b156109a3578290505b600080549050821080156109bd57506109bc828261048f565b5b156109c6578190505b8381146109e1576109d78482610741565b6109e081610941565b5b50505050565b6040518060800160405280600073ffffffffffffffffffffffffffffffffffffffff1681526020016000815260200160008152602001600081525090565b6000604051905090565b600080fd5b600080fd5b6000601f19601f8301169050919050565b7f4e487b7100000000000000000000000000000000000000000000000000000000600052604160045260246000fd5b610a8282610a39565b810181811067ffffffffffffffff82111715610aa157610aa0610a4a565b5b80604052505050565b6000610ab4610a25565b9050610ac08282610a79565b919050565b600073ffffffffffffffffffffffffffffffffffffffff82169050919050565b6000610af082610ac5565b9050919050565b610b0081610ae5565b8114610b0b57600080fd5b50565b600081359050610b1d81610af7565b92915050565b6000819050919050565b610b3681610b23565b8114610b4157600080fd5b50565b600081359050610b5381610b2d565b92915050565b600060808284031215610b6f57610b6e610a34565b5b610b796080610aaa565b90506000610b8984828501610b0e565b6000830152506020610b9d84828501610b44565b6020830152506040610bb184828501610b44565b6040830152506060610bc584828501610b44565b60608301525092915050565b600060808284031215610be757610be6610a2f565b5b6000610bf584828501610b59565b91505092915050565b610c0781610ae5565b82525050565b610c1681610b23565b82525050565b608082016000820151610c326000850182610bfe565b506020820151610c456020850182610c0d565b506040820151610c586040850182610c0d565b506060820151610c6b6060850182610c0d565b50505050565b6000608082019050610c866000830184610c1c565b92915050565b7f4e487b7100000000000000000000000000000000000000000000000000000000600052601160045260246000fd5b6000610cc682610b23565b9150610cd183610b23565b9250828203905081811115610ce957610ce8610c8c565b5b92915050565b7f4e487b7100000000000000000000000000000000000000000000000000000000600052601260045260246000fd5b6000610d2982610b23565b9150610d3483610b23565b925082610d4457610d43610cef565b5b828204905092915050565b600082825260208201905092915050565b7f6865617020697320656d70747900000000000000000000000000000000000000600082015250565b6000610d96600d83610d4f565b9150610da182610d60565b602082019050919050565b60006020820190508181036000830152610dc581610d89565b9050919050565b7f4e487b7100000000000000000000000000000000000000000000000000000000600052603260045260246000fd5b7f4e487b7100000000000000000000000000000000000000000000000000000000600052603160045260246000fd5b6000610e3582610b23565b9150610e4083610b23565b9250828202610e4e81610b23565b91508282048414831517610e6557610e64610c8c565b5b5092915050565b6000610e7782610b23565b9150610e8283610b23565b9250828201905080821115610e9a57610e99610c8c565b5b9291505056fea264697066735822122049a593539a49cc65fa07275d7e2d15e00d20a249596f8362bda26b2d8987995264736f6c63430008130033",
					"opcodes": "PUSH1 0x80 PUSH1 0x40 MSTORE CALLVALUE DUP1 ISZERO PUSH2 0x10 JUMPI PUSH1 0x0 DUP1 REVERT JUMPDEST POP PUSH1 0x0 PUSH1 0x40 MLOAD DUP1 PUSH1 0x80 ADD PUSH1 0x40 MSTORE DUP1 PUSH1 0x0 PUSH20 0xFFFFFFFFFFFFFFFFFFFFFFFFFFFFFFFFFFFFFFFF AND DUP2 MSTORE PUSH1 0x20 ADD PUSH32 0xFFFFFFFFFFFFFFFFFFFFFFFFFFFFFFFFFFFFFFFFFFFFFFFFFFFFFFFFFFFFFFFF DUP2 MSTORE PUSH1 0x20 ADD PUSH32 0xFFFFFFFFFFFFFFFFFFFFFFFFFFFFFFFFFFFFFFFFFFFFFFFFFFFFFFFFFFFFFFFF DUP2 MSTORE PUSH1 0x20 ADD PUSH32 0xFFFFFFFFFFFFFFFFFFFFFFFFFFFFFFFFFFFFFFFFFFFFFFFFFFFFFFFFFFFFFFFF DUP2 MSTORE POP SWAP1 DUP1 PUSH1 0x1 DUP2 SLOAD ADD DUP1 DUP3 SSTORE DUP1 SWAP2 POP POP PUSH1 0x1 SWAP1 SUB SWAP1 PUSH1 0x0 MSTORE PUSH1 0x20 PUSH1 0x0 KECCAK256 SWAP1 PUSH1 0x4 MUL ADD PUSH1 0x0 SWAP1 SWAP2 SWAP1 SWAP2 SWAP1 SWAP2 POP PUSH1 0x0 DUP3 ADD MLOAD DUP2 PUSH1 0x0 ADD PUSH1 0x0 PUSH2 0x100 EXP DUP2 SLOAD DUP2 PUSH20 0xFFFFFFFFFFFFFFFFFFFFFFFFFFFFFFFFFFFFFFFF MUL NOT AND SWAP1 DUP4 PUSH20 0xFFFFFFFFFFFFFFFFFFFFFFFFFFFFFFFFFFFFFFFF AND MUL OR SWAP1 SSTORE POP PUSH1 0x20 DUP3 ADD MLOAD DUP2 PUSH1 0x1 ADD SSTORE PUSH1 0x40 DUP3 ADD MLOAD DUP2 PUSH1 0x2 ADD SSTORE PUSH1 0x60 DUP3 ADD MLOAD DUP2 PUSH1 0x3 ADD SSTORE POP POP PUSH2 0xED6 DUP1 PUSH2 0x14A PUSH1 0x0 CODECOPY PUSH1 0x0 RETURN INVALID PUSH1 0x80 PUSH1 0x40 MSTORE CALLVALUE DUP1 ISZERO PUSH2 0x10 JUMPI PUSH1 0x0 DUP1 REVERT JUMPDEST POP PUSH1 0x4 CALLDATASIZE LT PUSH2 0x41 JUMPI PUSH1 0x0 CALLDATALOAD PUSH1 0xE0 SHR DUP1 PUSH4 0x7829C469 EQ PUSH2 0x46 JUMPI DUP1 PUSH4 0xA4ECE52C EQ PUSH2 0x62 JUMPI DUP1 PUSH4 0xFE6DCDBA EQ PUSH2 0x6C JUMPI JUMPDEST PUSH1 0x0 DUP1 REVERT JUMPDEST PUSH2 0x60 PUSH1 0x4 DUP1 CALLDATASIZE SUB DUP2 ADD SWAP1 PUSH2 0x5B SWAP2 SWAP1 PUSH2 0xBD1 JUMP JUMPDEST PUSH2 0x8A JUMP JUMPDEST STOP JUMPDEST PUSH2 0x6A PUSH2 0x18B JUMP JUMPDEST STOP JUMPDEST PUSH2 0x74 PUSH2 0x39A JUMP JUMPDEST PUSH1 0x40 MLOAD PUSH2 0x81 SWAP2 SWAP1 PUSH2 0xC71 JUMP JUMPDEST PUSH1 0x40 MLOAD DUP1 SWAP2 SUB SWAP1 RETURN JUMPDEST PUSH1 0x0 DUP2 SWAP1 DUP1 PUSH1 0x1 DUP2 SLOAD ADD DUP1 DUP3 SSTORE DUP1 SWAP2 POP POP PUSH1 0x1 SWAP1 SUB SWAP1 PUSH1 0x0 MSTORE PUSH1 0x20 PUSH1 0x0 KECCAK256 SWAP1 PUSH1 0x4 MUL ADD PUSH1 0x0 SWAP1 SWAP2 SWAP1 SWAP2 SWAP1 SWAP2 POP PUSH1 0x0 DUP3 ADD MLOAD DUP2 PUSH1 0x0 ADD PUSH1 0x0 PUSH2 0x100 EXP DUP2 SLOAD DUP2 PUSH20 0xFFFFFFFFFFFFFFFFFFFFFFFFFFFFFFFFFFFFFFFF MUL NOT AND SWAP1 DUP4 PUSH20 0xFFFFFFFFFFFFFFFFFFFFFFFFFFFFFFFFFFFFFFFF AND MUL OR SWAP1 SSTORE POP PUSH1 0x20 DUP3 ADD MLOAD DUP2 PUSH1 0x1 ADD SSTORE PUSH1 0x40 DUP3 ADD MLOAD DUP2 PUSH1 0x2 ADD SSTORE PUSH1 0x60 DUP3 ADD MLOAD DUP2 PUSH1 0x3 ADD SSTORE POP POP PUSH1 0x0 PUSH1 0x1 PUSH1 0x0 DUP1 SLOAD SWAP1 POP PUSH2 0x131 SWAP2 SWAP1 PUSH2 0xCBB JUMP JUMPDEST SWAP1 POP JUMPDEST PUSH1 0x0 DUP2 GT ISZERO PUSH2 0x187 JUMPI PUSH1 0x0 PUSH1 0x2 PUSH1 0x1 DUP4 PUSH2 0x14E SWAP2 SWAP1 PUSH2 0xCBB JUMP JUMPDEST PUSH2 0x158 SWAP2 SWAP1 PUSH2 0xD1E JUMP JUMPDEST SWAP1 POP PUSH2 0x164 DUP3 DUP3 PUSH2 0x48F JUMP JUMPDEST ISZERO PUSH2 0x17B JUMPI PUSH2 0x173 DUP2 DUP4 PUSH2 0x741 JUMP JUMPDEST DUP1 SWAP2 POP PUSH2 0x181 JUMP JUMPDEST POP PUSH2 0x187 JUMP JUMPDEST POP PUSH2 0x134 JUMP JUMPDEST POP POP JUMP JUMPDEST PUSH1 0x0 DUP1 DUP1 SLOAD SWAP1 POP GT PUSH2 0x1D2 JUMPI PUSH1 0x40 MLOAD PUSH32 0x8C379A000000000000000000000000000000000000000000000000000000000 DUP2 MSTORE PUSH1 0x4 ADD PUSH2 0x1C9 SWAP1 PUSH2 0xDAC JUMP JUMPDEST PUSH1 0x40 MLOAD DUP1 SWAP2 SUB SWAP1 REVERT JUMPDEST PUSH1 0x0 PUSH1 0x1 PUSH1 0x0 DUP1 SLOAD SWAP1 POP PUSH2 0x1E6 SWAP2 SWAP1 PUSH2 0xCBB JUMP JUMPDEST DUP2 SLOAD DUP2 LT PUSH2 0x1F7 JUMPI PUSH2 0x1F6 PUSH2 0xDCC JUMP JUMPDEST JUMPDEST SWAP1 PUSH1 0x0 MSTORE PUSH1 0x20 PUSH1 0x0 KECCAK256 SWAP1 PUSH1 0x4 MUL ADD PUSH1 0x0 DUP1 DUP2 SLOAD DUP2 LT PUSH2 0x219 JUMPI PUSH2 0x218 PUSH2 0xDCC JUMP JUMPDEST JUMPDEST SWAP1 PUSH1 0x0 MSTORE PUSH1 0x20 PUSH1 0x0 KECCAK256 SWAP1 PUSH1 0x4 MUL ADD PUSH1 0x0 DUP3 ADD PUSH1 0x0 SWAP1 SLOAD SWAP1 PUSH2 0x100 EXP SWAP1 DIV PUSH20 0xFFFFFFFFFFFFFFFFFFFFFFFFFFFFFFFFFFFFFFFF AND DUP2 PUSH1 0x0 ADD PUSH1 0x0 PUSH2 0x100 EXP DUP2 SLOAD DUP2 PUSH20 0xFFFFFFFFFFFFFFFFFFFFFFFFFFFFFFFFFFFFFFFF MUL NOT AND SWAP1 DUP4 PUSH20 0xFFFFFFFFFFFFFFFFFFFFFFFFFFFFFFFFFFFFFFFF AND MUL OR SWAP1 SSTORE POP PUSH1 0x1 DUP3 ADD SLOAD DUP2 PUSH1 0x1 ADD SSTORE PUSH1 0x2 DUP3 ADD SLOAD DUP2 PUSH1 0x2 ADD SSTORE PUSH1 0x3 DUP3 ADD SLOAD DUP2 PUSH1 0x3 ADD SSTORE SWAP1 POP POP PUSH1 0x0 PUSH1 0x1 PUSH1 0x0 DUP1 SLOAD SWAP1 POP PUSH2 0x2C3 SWAP2 SWAP1 PUSH2 0xCBB JUMP JUMPDEST DUP2 SLOAD DUP2 LT PUSH2 0x2D4 JUMPI PUSH2 0x2D3 PUSH2 0xDCC JUMP JUMPDEST JUMPDEST SWAP1 PUSH1 0x0 MSTORE PUSH1 0x20 PUSH1 0x0 KECCAK256 SWAP1 PUSH1 0x4 MUL ADD PUSH1 0x0 DUP1 DUP3 ADD PUSH1 0x0 PUSH2 0x100 EXP DUP2 SLOAD SWAP1 PUSH20 0xFFFFFFFFFFFFFFFFFFFFFFFFFFFFFFFFFFFFFFFF MUL NOT AND SWAP1 SSTORE PUSH1 0x1 DUP3 ADD PUSH1 0x0 SWAP1 SSTORE PUSH1 0x2 DUP3 ADD PUSH1 0x0 SWAP1 SSTORE PUSH1 0x3 DUP3 ADD PUSH1 0x0 SWAP1 SSTORE POP POP PUSH1 0x0 DUP1 SLOAD DUP1 PUSH2 0x336 JUMPI PUSH2 0x335 PUSH2 0xDFB JUMP JUMPDEST JUMPDEST PUSH1 0x1 SWAP1 SUB DUP2 DUP2 SWAP1 PUSH1 0x0 MSTORE PUSH1 0x20 PUSH1 0x0 KECCAK256 SWAP1 PUSH1 0x4 MUL ADD PUSH1 0x0 DUP1 DUP3 ADD PUSH1 0x0 PUSH2 0x100 EXP DUP2 SLOAD SWAP1 PUSH20 0xFFFFFFFFFFFFFFFFFFFFFFFFFFFFFFFFFFFFFFFF MUL NOT AND SWAP1 SSTORE PUSH1 0x1 DUP3 ADD PUSH1 0x0 SWAP1 SSTORE PUSH1 0x2 DUP3 ADD PUSH1 0x0 SWAP1 SSTORE PUSH1 0x3 DUP3 ADD PUSH1 0x0 SWAP1 SSTORE POP POP SWAP1 SSTORE PUSH2 0x398 PUSH1 0x0 PUSH2 0x941 JUMP JUMPDEST JUMP JUMPDEST PUSH2 0x3A2 PUSH2 0x9E7 JUMP JUMPDEST PUSH1 0x0 DUP1 DUP1 SLOAD SWAP1 POP GT PUSH2 0x3E9 JUMPI PUSH1 0x40 MLOAD PUSH32 0x8C379A000000000000000000000000000000000000000000000000000000000 DUP2 MSTORE PUSH1 0x4 ADD PUSH2 0x3E0 SWAP1 PUSH2 0xDAC JUMP JUMPDEST PUSH1 0x40 MLOAD DUP1 SWAP2 SUB SWAP1 REVERT JUMPDEST PUSH1 0x0 DUP1 DUP2 SLOAD DUP2 LT PUSH2 0x3FD JUMPI PUSH2 0x3FC PUSH2 0xDCC JUMP JUMPDEST JUMPDEST SWAP1 PUSH1 0x0 MSTORE PUSH1 0x20 PUSH1 0x0 KECCAK256 SWAP1 PUSH1 0x4 MUL ADD PUSH1 0x40 MLOAD DUP1 PUSH1 0x80 ADD PUSH1 0x40 MSTORE SWAP1 DUP2 PUSH1 0x0 DUP3 ADD PUSH1 0x0 SWAP1 SLOAD SWAP1 PUSH2 0x100 EXP SWAP1 DIV PUSH20 0xFFFFFFFFFFFFFFFFFFFFFFFFFFFFFFFFFFFFFFFF AND PUSH20 0xFFFFFFFFFFFFFFFFFFFFFFFFFFFFFFFFFFFFFFFF AND PUSH20 0xFFFFFFFFFFFFFFFFFFFFFFFFFFFFFFFFFFFFFFFF AND DUP2 MSTORE PUSH1 0x20 ADD PUSH1 0x1 DUP3 ADD SLOAD DUP2 MSTORE PUSH1 0x20 ADD PUSH1 0x2 DUP3 ADD SLOAD DUP2 MSTORE PUSH1 0x20 ADD PUSH1 0x3 DUP3 ADD SLOAD DUP2 MSTORE POP POP SWAP1 POP SWAP1 JUMP JUMPDEST PUSH1 0x0 DUP1 DUP3 DUP2 SLOAD DUP2 LT PUSH2 0x4A4 JUMPI PUSH2 0x4A3 PUSH2 0xDCC JUMP JUMPDEST JUMPDEST SWAP1 PUSH1 0x0 MSTORE PUSH1 0x20 PUSH1 0x0 KECCAK256 SWAP1 PUSH1 0x4 MUL ADD PUSH1 0x2 ADD SLOAD PUSH1 0x0 DUP5 DUP2 SLOAD DUP2 LT PUSH2 0x4CA JUMPI PUSH2 0x4C9 PUSH2 0xDCC JUMP JUMPDEST JUMPDEST SWAP1 PUSH1 0x0 MSTORE PUSH1 0x20 PUSH1 0x0 KECCAK256 SWAP1 PUSH1 0x4 MUL ADD PUSH1 0x2 ADD SLOAD SUB PUSH2 0x6EB JUMPI PUSH1 0x0 DUP3 DUP2 SLOAD DUP2 LT PUSH2 0x4F5 JUMPI PUSH2 0x4F4 PUSH2 0xDCC JUMP JUMPDEST JUMPDEST SWAP1 PUSH1 0x0 MSTORE PUSH1 0x20 PUSH1 0x0 KECCAK256 SWAP1 PUSH1 0x4 MUL ADD PUSH1 0x3 ADD SLOAD PUSH1 0x0 DUP5 DUP2 SLOAD DUP2 LT PUSH2 0x51B JUMPI PUSH2 0x51A PUSH2 0xDCC JUMP JUMPDEST JUMPDEST SWAP1 PUSH1 0x0 MSTORE PUSH1 0x20 PUSH1 0x0 KECCAK256 SWAP1 PUSH1 0x4 MUL ADD PUSH1 0x3 ADD SLOAD SUB PUSH2 0x697 JUMPI PUSH1 0x0 DUP3 DUP2 SLOAD DUP2 LT PUSH2 0x546 JUMPI PUSH2 0x545 PUSH2 0xDCC JUMP JUMPDEST JUMPDEST SWAP1 PUSH1 0x0 MSTORE PUSH1 0x20 PUSH1 0x0 KECCAK256 SWAP1 PUSH1 0x4 MUL ADD PUSH1 0x1 ADD SLOAD PUSH1 0x0 DUP5 DUP2 SLOAD DUP2 LT PUSH2 0x56C JUMPI PUSH2 0x56B PUSH2 0xDCC JUMP JUMPDEST JUMPDEST SWAP1 PUSH1 0x0 MSTORE PUSH1 0x20 PUSH1 0x0 KECCAK256 SWAP1 PUSH1 0x4 MUL ADD PUSH1 0x1 ADD SLOAD SUB PUSH2 0x643 JUMPI PUSH1 0x0 DUP3 DUP2 SLOAD DUP2 LT PUSH2 0x597 JUMPI PUSH2 0x596 PUSH2 0xDCC JUMP JUMPDEST JUMPDEST SWAP1 PUSH1 0x0 MSTORE PUSH1 0x20 PUSH1 0x0 KECCAK256 SWAP1 PUSH1 0x4 MUL ADD PUSH1 0x0 ADD PUSH1 0x0 SWAP1 SLOAD SWAP1 PUSH2 0x100 EXP SWAP1 DIV PUSH20 0xFFFFFFFFFFFFFFFFFFFFFFFFFFFFFFFFFFFFFFFF AND PUSH20 0xFFFFFFFFFFFFFFFFFFFFFFFFFFFFFFFFFFFFFFFF AND PUSH1 0x0 DUP5 DUP2 SLOAD DUP2 LT PUSH2 0x5F3 JUMPI PUSH2 0x5F2 PUSH2 0xDCC JUMP JUMPDEST JUMPDEST SWAP1 PUSH1 0x0 MSTORE PUSH1 0x20 PUSH1 0x0 KECCAK256 SWAP1 PUSH1 0x4 MUL ADD PUSH1 0x0 ADD PUSH1 0x0 SWAP1 SLOAD SWAP1 PUSH2 0x100 EXP SWAP1 DIV PUSH20 0xFFFFFFFFFFFFFFFFFFFFFFFFFFFFFFFFFFFFFFFF AND PUSH20 0xFFFFFFFFFFFFFFFFFFFFFFFFFFFFFFFFFFFFFFFF AND LT SWAP1 POP PUSH2 0x73B JUMP JUMPDEST PUSH1 0x0 DUP3 DUP2 SLOAD DUP2 LT PUSH2 0x657 JUMPI PUSH2 0x656 PUSH2 0xDCC JUMP JUMPDEST JUMPDEST SWAP1 PUSH1 0x0 MSTORE PUSH1 0x20 PUSH1 0x0 KECCAK256 SWAP1 PUSH1 0x4 MUL ADD PUSH1 0x1 ADD SLOAD PUSH1 0x0 DUP5 DUP2 SLOAD DUP2 LT PUSH2 0x67D JUMPI PUSH2 0x67C PUSH2 0xDCC JUMP JUMPDEST JUMPDEST SWAP1 PUSH1 0x0 MSTORE PUSH1 0x20 PUSH1 0x0 KECCAK256 SWAP1 PUSH1 0x4 MUL ADD PUSH1 0x1 ADD SLOAD LT SWAP1 POP PUSH2 0x73B JUMP JUMPDEST PUSH1 0x0 DUP3 DUP2 SLOAD DUP2 LT PUSH2 0x6AB JUMPI PUSH2 0x6AA PUSH2 0xDCC JUMP JUMPDEST JUMPDEST SWAP1 PUSH1 0x0 MSTORE PUSH1 0x20 PUSH1 0x0 KECCAK256 SWAP1 PUSH1 0x4 MUL ADD PUSH1 0x3 ADD SLOAD PUSH1 0x0 DUP5 DUP2 SLOAD DUP2 LT PUSH2 0x6D1 JUMPI PUSH2 0x6D0 PUSH2 0xDCC JUMP JUMPDEST JUMPDEST SWAP1 PUSH1 0x0 MSTORE PUSH1 0x20 PUSH1 0x0 KECCAK256 SWAP1 PUSH1 0x4 MUL ADD PUSH1 0x3 ADD SLOAD LT SWAP1 POP PUSH2 0x73B JUMP JUMPDEST PUSH1 0x0 DUP3 DUP2 SLOAD DUP2 LT PUSH2 0x6FF JUMPI PUSH2 0x6FE PUSH2 0xDCC JUMP JUMPDEST JUMPDEST SWAP1 PUSH1 0x0 MSTORE PUSH1 0x20 PUSH1 0x0 KECCAK256 SWAP1 PUSH1 0x4 MUL ADD PUSH1 0x2 ADD SLOAD PUSH1 0x0 DUP5 DUP2 SLOAD DUP2 LT PUSH2 0x725 JUMPI PUSH2 0x724 PUSH2 0xDCC JUMP JUMPDEST JUMPDEST SWAP1 PUSH1 0x0 MSTORE PUSH1 0x20 PUSH1 0x0 KECCAK256 SWAP1 PUSH1 0x4 MUL ADD PUSH1 0x2 ADD SLOAD LT SWAP1 POP JUMPDEST SWAP3 SWAP2 POP POP JUMP JUMPDEST PUSH1 0x0 DUP1 DUP4 DUP2 SLOAD DUP2 LT PUSH2 0x756 JUMPI PUSH2 0x755 PUSH2 0xDCC JUMP JUMPDEST JUMPDEST SWAP1 PUSH1 0x0 MSTORE PUSH1 0x20 PUSH1 0x0 KECCAK256 SWAP1 PUSH1 0x4 MUL ADD PUSH1 0x40 MLOAD DUP1 PUSH1 0x80 ADD PUSH1 0x40 MSTORE SWAP1 DUP2 PUSH1 0x0 DUP3 ADD PUSH1 0x0 SWAP1 SLOAD SWAP1 PUSH2 0x100 EXP SWAP1 DIV PUSH20 0xFFFFFFFFFFFFFFFFFFFFFFFFFFFFFFFFFFFFFFFF AND PUSH20 0xFFFFFFFFFFFFFFFFFFFFFFFFFFFFFFFFFFFFFFFF AND PUSH20 0xFFFFFFFFFFFFFFFFFFFFFFFFFFFFFFFFFFFFFFFF AND DUP2 MSTORE PUSH1 0x20 ADD PUSH1 0x1 DUP3 ADD SLOAD DUP2 MSTORE PUSH1 0x20 ADD PUSH1 0x2 DUP3 ADD SLOAD DUP2 MSTORE PUSH1 0x20 ADD PUSH1 0x3 DUP3 ADD SLOAD DUP2 MSTORE POP POP SWAP1 POP PUSH1 0x0 DUP3 DUP2 SLOAD DUP2 LT PUSH2 0x7F9 JUMPI PUSH2 0x7F8 PUSH2 0xDCC JUMP JUMPDEST JUMPDEST SWAP1 PUSH1 0x0 MSTORE PUSH1 0x20 PUSH1 0x0 KECCAK256 SWAP1 PUSH1 0x4 MUL ADD PUSH1 0x0 DUP5 DUP2 SLOAD DUP2 LT PUSH2 0x81B JUMPI PUSH2 0x81A PUSH2 0xDCC JUMP JUMPDEST JUMPDEST SWAP1 PUSH1 0x0 MSTORE PUSH1 0x20 PUSH1 0x0 KECCAK256 SWAP1 PUSH1 0x4 MUL ADD PUSH1 0x0 DUP3 ADD PUSH1 0x0 SWAP1 SLOAD SWAP1 PUSH2 0x100 EXP SWAP1 DIV PUSH20 0xFFFFFFFFFFFFFFFFFFFFFFFFFFFFFFFFFFFFFFFF AND DUP2 PUSH1 0x0 ADD PUSH1 0x0 PUSH2 0x100 EXP DUP2 SLOAD DUP2 PUSH20 0xFFFFFFFFFFFFFFFFFFFFFFFFFFFFFFFFFFFFFFFF MUL NOT AND SWAP1 DUP4 PUSH20 0xFFFFFFFFFFFFFFFFFFFFFFFFFFFFFFFFFFFFFFFF AND MUL OR SWAP1 SSTORE POP PUSH1 0x1 DUP3 ADD SLOAD DUP2 PUSH1 0x1 ADD SSTORE PUSH1 0x2 DUP3 ADD SLOAD DUP2 PUSH1 0x2 ADD SSTORE PUSH1 0x3 DUP3 ADD SLOAD DUP2 PUSH1 0x3 ADD SSTORE SWAP1 POP POP DUP1 PUSH1 0x0 DUP4 DUP2 SLOAD DUP2 LT PUSH2 0x8C6 JUMPI PUSH2 0x8C5 PUSH2 0xDCC JUMP JUMPDEST JUMPDEST SWAP1 PUSH1 0x0 MSTORE PUSH1 0x20 PUSH1 0x0 KECCAK256 SWAP1 PUSH1 0x4 MUL ADD PUSH1 0x0 DUP3 ADD MLOAD DUP2 PUSH1 0x0 ADD PUSH1 0x0 PUSH2 0x100 EXP DUP2 SLOAD DUP2 PUSH20 0xFFFFFFFFFFFFFFFFFFFFFFFFFFFFFFFFFFFFFFFF MUL NOT AND SWAP1 DUP4 PUSH20 0xFFFFFFFFFFFFFFFFFFFFFFFFFFFFFFFFFFFFFFFF AND MUL OR SWAP1 SSTORE POP PUSH1 0x20 DUP3 ADD MLOAD DUP2 PUSH1 0x1 ADD SSTORE PUSH1 0x40 DUP3 ADD MLOAD DUP2 PUSH1 0x2 ADD SSTORE PUSH1 0x60 DUP3 ADD MLOAD DUP2 PUSH1 0x3 ADD SSTORE SWAP1 POP POP POP POP POP JUMP JUMPDEST PUSH1 0x0 PUSH1 0x1 DUP3 PUSH1 0x2 PUSH2 0x952 SWAP2 SWAP1 PUSH2 0xE2A JUMP JUMPDEST PUSH2 0x95C SWAP2 SWAP1 PUSH2 0xE6C JUMP JUMPDEST SWAP1 POP PUSH1 0x0 PUSH1 0x2 DUP4 PUSH1 0x2 PUSH2 0x96F SWAP2 SWAP1 PUSH2 0xE2A JUMP JUMPDEST PUSH2 0x979 SWAP2 SWAP1 PUSH2 0xE6C JUMP JUMPDEST SWAP1 POP PUSH1 0x0 DUP4 SWAP1 POP PUSH1 0x0 DUP1 SLOAD SWAP1 POP DUP4 LT DUP1 ISZERO PUSH2 0x99A JUMPI POP PUSH2 0x999 DUP4 DUP3 PUSH2 0x48F JUMP JUMPDEST JUMPDEST ISZERO PUSH2 0x9A3 JUMPI DUP3 SWAP1 POP JUMPDEST PUSH1 0x0 DUP1 SLOAD SWAP1 POP DUP3 LT DUP1 ISZERO PUSH2 0x9BD JUMPI POP PUSH2 0x9BC DUP3 DUP3 PUSH2 0x48F JUMP JUMPDEST JUMPDEST ISZERO PUSH2 0x9C6 JUMPI DUP2 SWAP1 POP JUMPDEST DUP4 DUP2 EQ PUSH2 0x9E1 JUMPI PUSH2 0x9D7 DUP5 DUP3 PUSH2 0x741 JUMP JUMPDEST PUSH2 0x9E0 DUP2 PUSH2 0x941 JUMP JUMPDEST JUMPDEST POP POP POP POP JUMP JUMPDEST PUSH1 0x40 MLOAD DUP1 PUSH1 0x80 ADD PUSH1 0x40 MSTORE DUP1 PUSH1 0x0 PUSH20 0xFFFFFFFFFFFFFFFFFFFFFFFFFFFFFFFFFFFFFFFF AND DUP2 MSTORE PUSH1 0x20 ADD PUSH1 0x0 DUP2 MSTORE PUSH1 0x20 ADD PUSH1 0x0 DUP2 MSTORE PUSH1 0x20 ADD PUSH1 0x0 DUP2 MSTORE POP SWAP1 JUMP JUMPDEST PUSH1 0x0 PUSH1 0x40 MLOAD SWAP1 POP SWAP1 JUMP JUMPDEST PUSH1 0x0 DUP1 REVERT JUMPDEST PUSH1 0x0 DUP1 REVERT JUMPDEST PUSH1 0x0 PUSH1 0x1F NOT PUSH1 0x1F DUP4 ADD AND SWAP1 POP SWAP2 SWAP1 POP JUMP JUMPDEST PUSH32 0x4E487B7100000000000000000000000000000000000000000000000000000000 PUSH1 0x0 MSTORE PUSH1 0x41 PUSH1 0x4 MSTORE PUSH1 0x24 PUSH1 0x0 REVERT JUMPDEST PUSH2 0xA82 DUP3 PUSH2 0xA39 JUMP JUMPDEST DUP2 ADD DUP2 DUP2 LT PUSH8 0xFFFFFFFFFFFFFFFF DUP3 GT OR ISZERO PUSH2 0xAA1 JUMPI PUSH2 0xAA0 PUSH2 0xA4A JUMP JUMPDEST JUMPDEST DUP1 PUSH1 0x40 MSTORE POP POP POP JUMP JUMPDEST PUSH1 0x0 PUSH2 0xAB4 PUSH2 0xA25 JUMP JUMPDEST SWAP1 POP PUSH2 0xAC0 DUP3 DUP3 PUSH2 0xA79 JUMP JUMPDEST SWAP2 SWAP1 POP JUMP JUMPDEST PUSH1 0x0 PUSH20 0xFFFFFFFFFFFFFFFFFFFFFFFFFFFFFFFFFFFFFFFF DUP3 AND SWAP1 POP SWAP2 SWAP1 POP JUMP JUMPDEST PUSH1 0x0 PUSH2 0xAF0 DUP3 PUSH2 0xAC5 JUMP JUMPDEST SWAP1 POP SWAP2 SWAP1 POP JUMP JUMPDEST PUSH2 0xB00 DUP2 PUSH2 0xAE5 JUMP JUMPDEST DUP2 EQ PUSH2 0xB0B JUMPI PUSH1 0x0 DUP1 REVERT JUMPDEST POP JUMP JUMPDEST PUSH1 0x0 DUP2 CALLDATALOAD SWAP1 POP PUSH2 0xB1D DUP2 PUSH2 0xAF7 JUMP JUMPDEST SWAP3 SWAP2 POP POP JUMP JUMPDEST PUSH1 0x0 DUP2 SWAP1 POP SWAP2 SWAP1 POP JUMP JUMPDEST PUSH2 0xB36 DUP2 PUSH2 0xB23 JUMP JUMPDEST DUP2 EQ PUSH2 0xB41 JUMPI PUSH1 0x0 DUP1 REVERT JUMPDEST POP JUMP JUMPDEST PUSH1 0x0 DUP2 CALLDATALOAD SWAP1 POP PUSH2 0xB53 DUP2 PUSH2 0xB2D JUMP JUMPDEST SWAP3 SWAP2 POP POP JUMP JUMPDEST PUSH1 0x0 PUSH1 0x80 DUP3 DUP5 SUB SLT ISZERO PUSH2 0xB6F JUMPI PUSH2 0xB6E PUSH2 0xA34 JUMP JUMPDEST JUMPDEST PUSH2 0xB79 PUSH1 0x80 PUSH2 0xAAA JUMP JUMPDEST SWAP1 POP PUSH1 0x0 PUSH2 0xB89 DUP5 DUP3 DUP6 ADD PUSH2 0xB0E JUMP JUMPDEST PUSH1 0x0 DUP4 ADD MSTORE POP PUSH1 0x20 PUSH2 0xB9D DUP5 DUP3 DUP6 ADD PUSH2 0xB44 JUMP JUMPDEST PUSH1 0x20 DUP4 ADD MSTORE POP PUSH1 0x40 PUSH2 0xBB1 DUP5 DUP3 DUP6 ADD PUSH2 0xB44 JUMP JUMPDEST PUSH1 0x40 DUP4 ADD MSTORE POP PUSH1 0x60 PUSH2 0xBC5 DUP5 DUP3 DUP6 ADD PUSH2 0xB44 JUMP JUMPDEST PUSH1 0x60 DUP4 ADD MSTORE POP SWAP3 SWAP2 POP POP JUMP JUMPDEST PUSH1 0x0 PUSH1 0x80 DUP3 DUP5 SUB SLT ISZERO PUSH2 0xBE7 JUMPI PUSH2 0xBE6 PUSH2 0xA2F JUMP JUMPDEST JUMPDEST PUSH1 0x0 PUSH2 0xBF5 DUP5 DUP3 DUP6 ADD PUSH2 0xB59 JUMP JUMPDEST SWAP2 POP POP SWAP3 SWAP2 POP POP JUMP JUMPDEST PUSH2 0xC07 DUP2 PUSH2 0xAE5 JUMP JUMPDEST DUP3 MSTORE POP POP JUMP JUMPDEST PUSH2 0xC16 DUP2 PUSH2 0xB23 JUMP JUMPDEST DUP3 MSTORE POP POP JUMP JUMPDEST PUSH1 0x80 DUP3 ADD PUSH1 0x0 DUP3 ADD MLOAD PUSH2 0xC32 PUSH1 0x0 DUP6 ADD DUP3 PUSH2 0xBFE JUMP JUMPDEST POP PUSH1 0x20 DUP3 ADD MLOAD PUSH2 0xC45 PUSH1 0x20 DUP6 ADD DUP3 PUSH2 0xC0D JUMP JUMPDEST POP PUSH1 0x40 DUP3 ADD MLOAD PUSH2 0xC58 PUSH1 0x40 DUP6 ADD DUP3 PUSH2 0xC0D JUMP JUMPDEST POP PUSH1 0x60 DUP3 ADD MLOAD PUSH2 0xC6B PUSH1 0x60 DUP6 ADD DUP3 PUSH2 0xC0D JUMP JUMPDEST POP POP POP POP JUMP JUMPDEST PUSH1 0x0 PUSH1 0x80 DUP3 ADD SWAP1 POP PUSH2 0xC86 PUSH1 0x0 DUP4 ADD DUP5 PUSH2 0xC1C JUMP JUMPDEST SWAP3 SWAP2 POP POP JUMP JUMPDEST PUSH32 0x4E487B7100000000000000000000000000000000000000000000000000000000 PUSH1 0x0 MSTORE PUSH1 0x11 PUSH1 0x4 MSTORE PUSH1 0x24 PUSH1 0x0 REVERT JUMPDEST PUSH1 0x0 PUSH2 0xCC6 DUP3 PUSH2 0xB23 JUMP JUMPDEST SWAP2 POP PUSH2 0xCD1 DUP4 PUSH2 0xB23 JUMP JUMPDEST SWAP3 POP DUP3 DUP3 SUB SWAP1 POP DUP2 DUP2 GT ISZERO PUSH2 0xCE9 JUMPI PUSH2 0xCE8 PUSH2 0xC8C JUMP JUMPDEST JUMPDEST SWAP3 SWAP2 POP POP JUMP JUMPDEST PUSH32 0x4E487B7100000000000000000000000000000000000000000000000000000000 PUSH1 0x0 MSTORE PUSH1 0x12 PUSH1 0x4 MSTORE PUSH1 0x24 PUSH1 0x0 REVERT JUMPDEST PUSH1 0x0 PUSH2 0xD29 DUP3 PUSH2 0xB23 JUMP JUMPDEST SWAP2 POP PUSH2 0xD34 DUP4 PUSH2 0xB23 JUMP JUMPDEST SWAP3 POP DUP3 PUSH2 0xD44 JUMPI PUSH2 0xD43 PUSH2 0xCEF JUMP JUMPDEST JUMPDEST DUP3 DUP3 DIV SWAP1 POP SWAP3 SWAP2 POP POP JUMP JUMPDEST PUSH1 0x0 DUP3 DUP3 MSTORE PUSH1 0x20 DUP3 ADD SWAP1 POP SWAP3 SWAP2 POP POP JUMP JUMPDEST PUSH32 0x6865617020697320656D70747900000000000000000000000000000000000000 PUSH1 0x0 DUP3 ADD MSTORE POP JUMP JUMPDEST PUSH1 0x0 PUSH2 0xD96 PUSH1 0xD DUP4 PUSH2 0xD4F JUMP JUMPDEST SWAP2 POP PUSH2 0xDA1 DUP3 PUSH2 0xD60 JUMP JUMPDEST PUSH1 0x20 DUP3 ADD SWAP1 POP SWAP2 SWAP1 POP JUMP JUMPDEST PUSH1 0x0 PUSH1 0x20 DUP3 ADD SWAP1 POP DUP2 DUP2 SUB PUSH1 0x0 DUP4 ADD MSTORE PUSH2 0xDC5 DUP2 PUSH2 0xD89 JUMP JUMPDEST SWAP1 POP SWAP2 SWAP1 POP JUMP JUMPDEST PUSH32 0x4E487B7100000000000000000000000000000000000000000000000000000000 PUSH1 0x0 MSTORE PUSH1 0x32 PUSH1 0x4 MSTORE PUSH1 0x24 PUSH1 0x0 REVERT JUMPDEST PUSH32 0x4E487B7100000000000000000000000000000000000000000000000000000000 PUSH1 0x0 MSTORE PUSH1 0x31 PUSH1 0x4 MSTORE PUSH1 0x24 PUSH1 0x0 REVERT JUMPDEST PUSH1 0x0 PUSH2 0xE35 DUP3 PUSH2 0xB23 JUMP JUMPDEST SWAP2 POP PUSH2 0xE40 DUP4 PUSH2 0xB23 JUMP JUMPDEST SWAP3 POP DUP3 DUP3 MUL PUSH2 0xE4E DUP2 PUSH2 0xB23 JUMP JUMPDEST SWAP2 POP DUP3 DUP3 DIV DUP5 EQ DUP4 ISZERO OR PUSH2 0xE65 JUMPI PUSH2 0xE64 PUSH2 0xC8C JUMP JUMPDEST JUMPDEST POP SWAP3 SWAP2 POP POP JUMP JUMPDEST PUSH1 0x0 PUSH2 0xE77 DUP3 PUSH2 0xB23 JUMP JUMPDEST SWAP2 POP PUSH2 0xE82 DUP4 PUSH2 0xB23 JUMP JUMPDEST SWAP3 POP DUP3 DUP3 ADD SWAP1 POP DUP1 DUP3 GT ISZERO PUSH2 0xE9A JUMPI PUSH2 0xE99 PUSH2 0xC8C JUMP JUMPDEST JUMPDEST SWAP3 SWAP2 POP POP JUMP INVALID LOG2 PUSH5 0x6970667358 0x22 SLT KECCAK256 0x49 0xA5 SWAP4 MSTORE8 SWAP11 0x49 0xCC PUSH6 0xFA07275D7E2D ISZERO 0xE0 0xD KECCAK256 LOG2 0x49 MSIZE PUSH16 0x8362BDA26B2D8987995264736F6C6343 STOP ADDMOD SGT STOP CALLER "
				},
				"gasEstimates": {
					"creation": {
						"codeDepositCost": "759600",
						"executionCost": "115858",
						"totalCost": "875458"
					},
					"external": {
						"pop()": "infinite",
						"push((address,uint256,uint256,uint256))": "infinite",
						"top()": "infinite"
					},
					"internal": {
						"_conpare(uint256,uint256)": "34577",
						"_heapify(uint256)": "infinite",
						"_swap(uint256,uint256)": "infinite"
					}
				},
				"methodIdentifiers": {
					"pop()": "a4ece52c",
					"push((address,uint256,uint256,uint256))": "7829c469",
					"top()": "fe6dcdba"
				}
			},
			"storageLayout": {
				"storage": [
					{
						"astId": 14,
						"contract": "W1/heap.sol:MinHeap",
						"label": "heap",
						"offset": 0,
						"slot": "0",
						"type": "t_array(t_struct(Order)10_storage)dyn_storage"
					}
				],
				"types": {
					"t_address": {
						"encoding": "inplace",
						"label": "address",
						"numberOfBytes": "20"
					},
					"t_array(t_struct(Order)10_storage)dyn_storage": {
						"base": "t_struct(Order)10_storage",
						"encoding": "dynamic_array",
						"label": "struct Order[]",
						"numberOfBytes": "32"
					},
					"t_struct(Order)10_storage": {
						"encoding": "inplace",
						"label": "struct Order",
						"members": [
							{
								"astId": 3,
								"contract": "W1/heap.sol:MinHeap",
								"label": "trader",
								"offset": 0,
								"slot": "0",
								"type": "t_address"
							},
							{
								"astId": 5,
								"contract": "W1/heap.sol:MinHeap",
								"label": "amount",
								"offset": 0,
								"slot": "1",
								"type": "t_uint256"
							},
							{
								"astId": 7,
								"contract": "W1/heap.sol:MinHeap",
								"label": "price",
								"offset": 0,
								"slot": "2",
								"type": "t_uint256"
							},
							{
								"astId": 9,
								"contract": "W1/heap.sol:MinHeap",
								"label": "timestamp",
								"offset": 0,
								"slot": "3",
								"type": "t_uint256"
							}
						],
						"numberOfBytes": "128"
					},
					"t_uint256": {
						"encoding": "inplace",
						"label": "uint256",
						"numberOfBytes": "32"
					}
				}
			},
			"userdoc": {
				"kind": "user",
				"methods": {},
				"version": 1
			}
		}
	}
}