{
  "abi": [
    {
      "inputs": [
        {
          "components": [
            {
              "internalType": "uint256[]",
              "name": "limbs",
              "type": "uint256[]"
            }
          ],
          "internalType": "struct BigInt.bigint",
          "name": "a",
          "type": "tuple"
        },
        {
          "components": [
            {
              "internalType": "uint256[]",
              "name": "limbs",
              "type": "uint256[]"
            }
          ],
          "internalType": "struct BigInt.bigint",
          "name": "b",
          "type": "tuple"
        }
      ],
      "name": "add",
      "outputs": [
        {
          "components": [
            {
              "internalType": "uint256[]",
              "name": "limbs",
              "type": "uint256[]"
            }
          ],
          "internalType": "struct BigInt.bigint",
          "name": "",
          "type": "tuple"
        }
      ],
      "stateMutability": "pure",
      "type": "function"
    }
  ],
  "bytecode": {
    "object": "0x61066661003a600b82828239805160001a60731461002d57634e487b7160e01b600052600060045260246000fd5b30600052607381538281f3fe73000000000000000000000000000000000000000030146080604052600436106100355760003560e01c8063385a7ef81461003a575b600080fd5b61004d6100483660046104e6565b610063565b60405161005a919061054a565b60405180910390f35b6040805160208101909152606081528151518351511015610082579091905b60408051602081019091526060815283515161009f9060016105b0565b67ffffffffffffffff8111156100b7576100b76103c4565b6040519080825280602002602001820160405280156100e0578160200160208202803683370190505b50815260005b835151811015610165578351805182908110610104576101046105c3565b602002602001015185600001518281518110610122576101226105c3565b602002602001015161013491906105b0565b8251805183908110610148576101486105c3565b60209081029190910101528061015d816105d9565b9150506100e6565b8451518110156101be578451805182908110610183576101836105c3565b6020026020010151826000015182815181106101a1576101a16105c3565b6020908102919091010152806101b6816105d9565b915050610165565b60005b8551518110156102d8576f4b3b4ca85a86c47a098a224000000000836000015182815181106101f2576101f26105c3565b6020026020010151106102c6576f4b3b4ca85a86c47a098a22400000000083600001518281518110610226576102266105c3565b60200260200101516102389190610608565b83516102458360016105b0565b81518110610255576102556105c3565b6020026020010181815161026991906105b0565b905250825180516f4b3b4ca85a86c47a098a224000000000919083908110610293576102936105c3565b60200260200101516102a5919061061c565b83518051839081106102b9576102b96105c3565b6020026020010181815250505b806102d0816105d9565b9150506101c1565b508151855151815181106102ee576102ee6105c3565b60200260200101516000036103ba5760408051602081019091526060815285515167ffffffffffffffff811115610327576103276103c4565b604051908082528060200260200182016040528015610350578160200160208202803683370190505b50815260005b8651518110156103af578351805182908110610374576103746105c3565b602002602001015182600001518281518110610392576103926105c3565b6020908102919091010152806103a7816105d9565b915050610356565b5092506103be915050565b5090505b92915050565b634e487b7160e01b600052604160045260246000fd5b6040516020810167ffffffffffffffff811182821017156103fd576103fd6103c4565b60405290565b604051601f8201601f1916810167ffffffffffffffff8111828210171561042c5761042c6103c4565b604052919050565b6000602080838503121561044757600080fd5b61044f6103da565b9150823567ffffffffffffffff8082111561046957600080fd5b818501915085601f83011261047d57600080fd5b81358181111561048f5761048f6103c4565b8060051b91506104a0848301610403565b81815291830184019184810190888411156104ba57600080fd5b938501935b838510156104d8578435825293850193908501906104bf565b865250939695505050505050565b600080604083850312156104f957600080fd5b823567ffffffffffffffff8082111561051157600080fd5b61051d86838701610434565b9350602085013591508082111561053357600080fd5b5061054085828601610434565b9150509250929050565b6020808252825182820182905280516040840181905260009291820190839060608601905b8083101561058f578351825292840192600192909201919084019061056f565b509695505050505050565b634e487b7160e01b600052601160045260246000fd5b808201808211156103be576103be61059a565b634e487b7160e01b600052603260045260246000fd5b6000600182016105eb576105eb61059a565b5060010190565b634e487b7160e01b600052601260045260246000fd5b600082610617576106176105f2565b500490565b60008261062b5761062b6105f2565b50069056fea264697066735822122005ffea15301de4bb35996f66672087b7adce9519e12162d2f8a2835075a369a064736f6c63430008120033",
    "linkReferences": {}
  },
  "methodIdentifiers": {
    "add(BigInt.bigint,BigInt.bigint)": "385a7ef8"
  },
  "id": 28
}