{
	"W5/pool.sol": {
		"Pool": {
			"abi": [
				{
					"inputs": [],
					"stateMutability": "payable",
					"type": "constructor"
				},
				{
					"inputs": [
						{
							"internalType": "uint256",
							"name": "tokensToSpend",
							"type": "uint256"
						}
					],
					"name": "buyEthWithTokens",
					"outputs": [],
					"stateMutability": "nonpayable",
					"type": "function"
				},
				{
					"inputs": [],
					"name": "creator",
					"outputs": [
						{
							"internalType": "address",
							"name": "",
							"type": "address"
						}
					],
					"stateMutability": "view",
					"type": "function"
				},
				{
					"inputs": [],
					"name": "ethTotal",
					"outputs": [
						{
							"internalType": "uint256",
							"name": "",
							"type": "uint256"
						}
					],
					"stateMutability": "view",
					"type": "function"
				},
				{
					"inputs": [],
					"name": "getLatestEthPrice",
					"outputs": [
						{
							"internalType": "uint256",
							"name": "",
							"type": "uint256"
						}
					],
					"stateMutability": "view",
					"type": "function"
				},
				{
					"inputs": [],
					"name": "sellEthForTokens",
					"outputs": [],
					"stateMutability": "payable",
					"type": "function"
				},
				{
					"inputs": [],
					"name": "token",
					"outputs": [
						{
							"internalType": "contract ERC20",
							"name": "",
							"type": "address"
						}
					],
					"stateMutability": "view",
					"type": "function"
				},
				{
					"inputs": [],
					"name": "tokenTotal",
					"outputs": [
						{
							"internalType": "uint256",
							"name": "",
							"type": "uint256"
						}
					],
					"stateMutability": "view",
					"type": "function"
				},
				{
					"inputs": [],
					"name": "withdraw",
					"outputs": [],
					"stateMutability": "nonpayable",
					"type": "function"
				}
			],
			"devdoc": {
				"kind": "dev",
				"methods": {},
				"version": 1
			},
			"evm": {
				"assembly": "    /* \"W5/pool.sol\":178:2080  contract Pool {... */\n  mstore(0x40, 0x80)\n    /* \"W5/pool.sol\":317:359  0xae6B0f75b55fa4c90b2768e3157b7000241A41c5 */\n  0xae6b0f75b55fa4c90b2768e3157b7000241a41c5\n    /* \"W5/pool.sol\":290:360  ERC20 public token = ERC20(0xae6B0f75b55fa4c90b2768e3157b7000241A41c5) */\n  0x03\n  exp(0x0100, 0x00)\n  dup2\n  sload\n  dup2\n  0xffffffffffffffffffffffffffffffffffffffff\n  mul\n  not\n  and\n  swap1\n  dup4\n  0xffffffffffffffffffffffffffffffffffffffff\n  and\n  mul\n  or\n  swap1\n  sstore\n  pop\n    /* \"W5/pool.sol\":435:477  0xD4a33860578De61DBAbDc8BFdb98FD742fA7028e */\n  0xd4a33860578de61dbabdc8bfdb98fd742fa7028e\n    /* \"W5/pool.sol\":367:478  AggregatorV3Interface internal ethPriceFeed = AggregatorV3Interface(0xD4a33860578De61DBAbDc8BFdb98FD742fA7028e) */\n  0x04\n  exp(0x0100, 0x00)\n  dup2\n  sload\n  dup2\n  0xffffffffffffffffffffffffffffffffffffffff\n  mul\n  not\n  and\n  swap1\n  dup4\n  0xffffffffffffffffffffffffffffffffffffffff\n  and\n  mul\n  or\n  swap1\n  sstore\n  pop\n    /* \"W5/pool.sol\":531:540  msg.value */\n  callvalue\n    /* \"W5/pool.sol\":520:528  ethTotal */\n  0x00\n    /* \"W5/pool.sol\":520:540  ethTotal = msg.value */\n  dup2\n  swap1\n  sstore\n  pop\n    /* \"W5/pool.sol\":643:648  token */\n  0x03\n  0x00\n  swap1\n  sload\n  swap1\n  0x0100\n  exp\n  swap1\n  div\n  0xffffffffffffffffffffffffffffffffffffffff\n  and\n    /* \"W5/pool.sol\":643:657  token.decimals */\n  0xffffffffffffffffffffffffffffffffffffffff\n  and\n  0x313ce567\n    /* \"W5/pool.sol\":643:659  token.decimals() */\n  mload(0x40)\n  dup2\n  0xffffffff\n  and\n  0xe0\n  shl\n  dup2\n  mstore\n  0x04\n  add\n  0x20\n  mload(0x40)\n  dup1\n  dup4\n  sub\n  dup2\n  dup7\n  gas\n  staticcall\n  iszero\n  dup1\n  iszero\n  tag_4\n  jumpi\n  returndatasize\n  0x00\n  dup1\n  returndatacopy\n  revert(0x00, returndatasize)\ntag_4:\n  pop\n  pop\n  pop\n  pop\n  mload(0x40)\n  returndatasize\n  not(0x1f)\n  0x1f\n  dup3\n  add\n  and\n  dup3\n  add\n  dup1\n  0x40\n  mstore\n  pop\n  dup2\n  add\n  swap1\n  tag_5\n  swap2\n  swap1\n  tag_6\n  jump\t// in\ntag_5:\n    /* \"W5/pool.sol\":637:639  10 */\n  0x0a\n    /* \"W5/pool.sol\":637:659  10 ** token.decimals() */\n  tag_7\n  swap2\n  swap1\n  tag_8\n  jump\t// in\ntag_7:\n    /* \"W5/pool.sol\":625:634  1_000_000 */\n  0x0f4240\n    /* \"W5/pool.sol\":625:659  1_000_000 * 10 ** token.decimals() */\n  tag_9\n  swap2\n  swap1\n  tag_10\n  jump\t// in\ntag_9:\n    /* \"W5/pool.sol\":612:622  tokenTotal */\n  0x01\n    /* \"W5/pool.sol\":612:659  tokenTotal = 1_000_000 * 10 ** token.decimals() */\n  dup2\n  swap1\n  sstore\n  pop\n    /* \"W5/pool.sol\":730:740  msg.sender */\n  caller\n    /* \"W5/pool.sol\":720:727  creator */\n  0x02\n  0x00\n    /* \"W5/pool.sol\":720:740  creator = msg.sender */\n  0x0100\n  exp\n  dup2\n  sload\n  dup2\n  0xffffffffffffffffffffffffffffffffffffffff\n  mul\n  not\n  and\n  swap1\n  dup4\n  0xffffffffffffffffffffffffffffffffffffffff\n  and\n  mul\n  or\n  swap1\n  sstore\n  pop\n    /* \"W5/pool.sol\":178:2080  contract Pool {... */\n  jump(tag_11)\n    /* \"#utility.yul\":88:205   */\ntag_13:\n    /* \"#utility.yul\":197:198   */\n  0x00\n    /* \"#utility.yul\":194:195   */\n  dup1\n    /* \"#utility.yul\":187:199   */\n  revert\n    /* \"#utility.yul\":334:420   */\ntag_15:\n    /* \"#utility.yul\":369:376   */\n  0x00\n    /* \"#utility.yul\":409:413   */\n  0xff\n    /* \"#utility.yul\":402:407   */\n  dup3\n    /* \"#utility.yul\":398:414   */\n  and\n    /* \"#utility.yul\":387:414   */\n  swap1\n  pop\n    /* \"#utility.yul\":334:420   */\n  swap2\n  swap1\n  pop\n  jump\t// out\n    /* \"#utility.yul\":426:544   */\ntag_16:\n    /* \"#utility.yul\":497:519   */\n  tag_29\n    /* \"#utility.yul\":513:518   */\n  dup2\n    /* \"#utility.yul\":497:519   */\n  tag_15\n  jump\t// in\ntag_29:\n    /* \"#utility.yul\":490:495   */\n  dup2\n    /* \"#utility.yul\":487:520   */\n  eq\n    /* \"#utility.yul\":477:538   */\n  tag_30\n  jumpi\n    /* \"#utility.yul\":534:535   */\n  0x00\n    /* \"#utility.yul\":531:532   */\n  dup1\n    /* \"#utility.yul\":524:536   */\n  revert\n    /* \"#utility.yul\":477:538   */\ntag_30:\n    /* \"#utility.yul\":426:544   */\n  pop\n  jump\t// out\n    /* \"#utility.yul\":550:689   */\ntag_17:\n    /* \"#utility.yul\":605:610   */\n  0x00\n    /* \"#utility.yul\":636:642   */\n  dup2\n    /* \"#utility.yul\":630:643   */\n  mload\n    /* \"#utility.yul\":621:643   */\n  swap1\n  pop\n    /* \"#utility.yul\":652:683   */\n  tag_32\n    /* \"#utility.yul\":677:682   */\n  dup2\n    /* \"#utility.yul\":652:683   */\n  tag_16\n  jump\t// in\ntag_32:\n    /* \"#utility.yul\":550:689   */\n  swap3\n  swap2\n  pop\n  pop\n  jump\t// out\n    /* \"#utility.yul\":695:1042   */\ntag_6:\n    /* \"#utility.yul\":763:769   */\n  0x00\n    /* \"#utility.yul\":812:814   */\n  0x20\n    /* \"#utility.yul\":800:809   */\n  dup3\n    /* \"#utility.yul\":791:798   */\n  dup5\n    /* \"#utility.yul\":787:810   */\n  sub\n    /* \"#utility.yul\":783:815   */\n  slt\n    /* \"#utility.yul\":780:899   */\n  iszero\n  tag_34\n  jumpi\n    /* \"#utility.yul\":818:897   */\n  tag_35\n  tag_13\n  jump\t// in\ntag_35:\n    /* \"#utility.yul\":780:899   */\ntag_34:\n    /* \"#utility.yul\":938:939   */\n  0x00\n    /* \"#utility.yul\":963:1025   */\n  tag_36\n    /* \"#utility.yul\":1017:1024   */\n  dup5\n    /* \"#utility.yul\":1008:1014   */\n  dup3\n    /* \"#utility.yul\":997:1006   */\n  dup6\n    /* \"#utility.yul\":993:1015   */\n  add\n    /* \"#utility.yul\":963:1025   */\n  tag_17\n  jump\t// in\ntag_36:\n    /* \"#utility.yul\":953:1025   */\n  swap2\n  pop\n    /* \"#utility.yul\":909:1035   */\n  pop\n    /* \"#utility.yul\":695:1042   */\n  swap3\n  swap2\n  pop\n  pop\n  jump\t// out\n    /* \"#utility.yul\":1048:1228   */\ntag_18:\n    /* \"#utility.yul\":1096:1173   */\n  0x4e487b7100000000000000000000000000000000000000000000000000000000\n    /* \"#utility.yul\":1093:1094   */\n  0x00\n    /* \"#utility.yul\":1086:1174   */\n  mstore\n    /* \"#utility.yul\":1193:1197   */\n  0x11\n    /* \"#utility.yul\":1190:1191   */\n  0x04\n    /* \"#utility.yul\":1183:1198   */\n  mstore\n    /* \"#utility.yul\":1217:1221   */\n  0x24\n    /* \"#utility.yul\":1214:1215   */\n  0x00\n    /* \"#utility.yul\":1207:1222   */\n  revert\n    /* \"#utility.yul\":1234:1336   */\ntag_19:\n    /* \"#utility.yul\":1276:1284   */\n  0x00\n    /* \"#utility.yul\":1323:1328   */\n  dup2\n    /* \"#utility.yul\":1320:1321   */\n  0x01\n    /* \"#utility.yul\":1316:1329   */\n  shr\n    /* \"#utility.yul\":1295:1329   */\n  swap1\n  pop\n    /* \"#utility.yul\":1234:1336   */\n  swap2\n  swap1\n  pop\n  jump\t// out\n    /* \"#utility.yul\":1342:2190   */\ntag_20:\n    /* \"#utility.yul\":1403:1408   */\n  0x00\n    /* \"#utility.yul\":1410:1414   */\n  dup1\n    /* \"#utility.yul\":1434:1440   */\n  dup3\n    /* \"#utility.yul\":1425:1440   */\n  swap2\n  pop\n    /* \"#utility.yul\":1458:1463   */\n  dup4\n    /* \"#utility.yul\":1449:1463   */\n  swap1\n  pop\n    /* \"#utility.yul\":1472:2184   */\ntag_40:\n    /* \"#utility.yul\":1493:1494   */\n  0x01\n    /* \"#utility.yul\":1483:1491   */\n  dup6\n    /* \"#utility.yul\":1480:1495   */\n  gt\n    /* \"#utility.yul\":1472:2184   */\n  iszero\n  tag_42\n  jumpi\n    /* \"#utility.yul\":1588:1592   */\n  dup1\n    /* \"#utility.yul\":1583:1586   */\n  dup7\n    /* \"#utility.yul\":1579:1593   */\n  div\n    /* \"#utility.yul\":1573:1577   */\n  dup2\n    /* \"#utility.yul\":1570:1594   */\n  gt\n    /* \"#utility.yul\":1567:1617   */\n  iszero\n  tag_43\n  jumpi\n    /* \"#utility.yul\":1597:1615   */\n  tag_44\n  tag_18\n  jump\t// in\ntag_44:\n    /* \"#utility.yul\":1567:1617   */\ntag_43:\n    /* \"#utility.yul\":1647:1648   */\n  0x01\n    /* \"#utility.yul\":1637:1645   */\n  dup6\n    /* \"#utility.yul\":1633:1649   */\n  and\n    /* \"#utility.yul\":1630:2081   */\n  iszero\n  tag_45\n  jumpi\n    /* \"#utility.yul\":2062:2066   */\n  dup1\n    /* \"#utility.yul\":2055:2060   */\n  dup3\n    /* \"#utility.yul\":2051:2067   */\n  mul\n    /* \"#utility.yul\":2042:2067   */\n  swap2\n  pop\n    /* \"#utility.yul\":1630:2081   */\ntag_45:\n    /* \"#utility.yul\":2112:2116   */\n  dup1\n    /* \"#utility.yul\":2106:2110   */\n  dup2\n    /* \"#utility.yul\":2102:2117   */\n  mul\n    /* \"#utility.yul\":2094:2117   */\n  swap1\n  pop\n    /* \"#utility.yul\":2142:2174   */\n  tag_46\n    /* \"#utility.yul\":2165:2173   */\n  dup6\n    /* \"#utility.yul\":2142:2174   */\n  tag_19\n  jump\t// in\ntag_46:\n    /* \"#utility.yul\":2130:2174   */\n  swap5\n  pop\n    /* \"#utility.yul\":1472:2184   */\n  jump(tag_40)\ntag_42:\n    /* \"#utility.yul\":1342:2190   */\n  swap5\n  pop\n  swap5\n  swap3\n  pop\n  pop\n  pop\n  jump\t// out\n    /* \"#utility.yul\":2196:3269   */\ntag_21:\n    /* \"#utility.yul\":2250:2255   */\n  0x00\n    /* \"#utility.yul\":2441:2449   */\n  dup3\n    /* \"#utility.yul\":2431:2471   */\n  tag_48\n  jumpi\n    /* \"#utility.yul\":2462:2463   */\n  0x01\n    /* \"#utility.yul\":2453:2463   */\n  swap1\n  pop\n    /* \"#utility.yul\":2464:2469   */\n  jump(tag_47)\n    /* \"#utility.yul\":2431:2471   */\ntag_48:\n    /* \"#utility.yul\":2490:2494   */\n  dup2\n    /* \"#utility.yul\":2480:2516   */\n  tag_49\n  jumpi\n    /* \"#utility.yul\":2507:2508   */\n  0x00\n    /* \"#utility.yul\":2498:2508   */\n  swap1\n  pop\n    /* \"#utility.yul\":2509:2514   */\n  jump(tag_47)\n    /* \"#utility.yul\":2480:2516   */\ntag_49:\n    /* \"#utility.yul\":2576:2580   */\n  dup2\n    /* \"#utility.yul\":2624:2625   */\n  0x01\n    /* \"#utility.yul\":2619:2646   */\n  dup2\n  eq\n  tag_51\n  jumpi\n    /* \"#utility.yul\":2660:2661   */\n  0x02\n    /* \"#utility.yul\":2655:2846   */\n  dup2\n  eq\n  tag_52\n  jumpi\n    /* \"#utility.yul\":2569:2846   */\n  jump(tag_50)\n    /* \"#utility.yul\":2619:2646   */\ntag_51:\n    /* \"#utility.yul\":2637:2638   */\n  0x01\n    /* \"#utility.yul\":2628:2638   */\n  swap2\n  pop\n    /* \"#utility.yul\":2639:2644   */\n  pop\n  jump(tag_47)\n    /* \"#utility.yul\":2655:2846   */\ntag_52:\n    /* \"#utility.yul\":2700:2703   */\n  0xff\n    /* \"#utility.yul\":2690:2698   */\n  dup5\n    /* \"#utility.yul\":2687:2704   */\n  gt\n    /* \"#utility.yul\":2684:2727   */\n  iszero\n  tag_53\n  jumpi\n    /* \"#utility.yul\":2707:2725   */\n  tag_54\n  tag_18\n  jump\t// in\ntag_54:\n    /* \"#utility.yul\":2684:2727   */\ntag_53:\n    /* \"#utility.yul\":2756:2764   */\n  dup4\n    /* \"#utility.yul\":2753:2754   */\n  0x02\n    /* \"#utility.yul\":2749:2765   */\n  exp\n    /* \"#utility.yul\":2740:2765   */\n  swap2\n  pop\n    /* \"#utility.yul\":2791:2794   */\n  dup5\n    /* \"#utility.yul\":2784:2789   */\n  dup3\n    /* \"#utility.yul\":2781:2795   */\n  gt\n    /* \"#utility.yul\":2778:2818   */\n  iszero\n  tag_55\n  jumpi\n    /* \"#utility.yul\":2798:2816   */\n  tag_56\n  tag_18\n  jump\t// in\ntag_56:\n    /* \"#utility.yul\":2778:2818   */\ntag_55:\n    /* \"#utility.yul\":2831:2836   */\n  pop\n  jump(tag_47)\n    /* \"#utility.yul\":2569:2846   */\ntag_50:\n  pop\n    /* \"#utility.yul\":2955:2957   */\n  0x20\n    /* \"#utility.yul\":2945:2953   */\n  dup4\n    /* \"#utility.yul\":2942:2958   */\n  lt\n    /* \"#utility.yul\":2936:2939   */\n  0x0133\n    /* \"#utility.yul\":2930:2934   */\n  dup4\n    /* \"#utility.yul\":2927:2940   */\n  lt\n    /* \"#utility.yul\":2923:2959   */\n  and\n    /* \"#utility.yul\":2905:2907   */\n  0x4e\n    /* \"#utility.yul\":2895:2903   */\n  dup5\n    /* \"#utility.yul\":2892:2908   */\n  lt\n    /* \"#utility.yul\":2887:2889   */\n  0x0b\n    /* \"#utility.yul\":2881:2885   */\n  dup5\n    /* \"#utility.yul\":2878:2890   */\n  lt\n    /* \"#utility.yul\":2874:2909   */\n  and\n    /* \"#utility.yul\":2858:2969   */\n  or\n    /* \"#utility.yul\":2855:3101   */\n  iszero\n  tag_57\n  jumpi\n    /* \"#utility.yul\":3011:3019   */\n  dup3\n    /* \"#utility.yul\":3005:3009   */\n  dup3\n    /* \"#utility.yul\":3001:3020   */\n  exp\n    /* \"#utility.yul\":2992:3020   */\n  swap1\n  pop\n    /* \"#utility.yul\":3046:3049   */\n  dup4\n    /* \"#utility.yul\":3039:3044   */\n  dup2\n    /* \"#utility.yul\":3036:3050   */\n  gt\n    /* \"#utility.yul\":3033:3073   */\n  iszero\n  tag_58\n  jumpi\n    /* \"#utility.yul\":3053:3071   */\n  tag_59\n  tag_18\n  jump\t// in\ntag_59:\n    /* \"#utility.yul\":3033:3073   */\ntag_58:\n    /* \"#utility.yul\":3086:3091   */\n  jump(tag_47)\n    /* \"#utility.yul\":2855:3101   */\ntag_57:\n    /* \"#utility.yul\":3126:3168   */\n  tag_60\n    /* \"#utility.yul\":3164:3167   */\n  dup5\n    /* \"#utility.yul\":3154:3162   */\n  dup5\n    /* \"#utility.yul\":3148:3152   */\n  dup5\n    /* \"#utility.yul\":3145:3146   */\n  0x01\n    /* \"#utility.yul\":3126:3168   */\n  tag_20\n  jump\t// in\ntag_60:\n    /* \"#utility.yul\":3111:3168   */\n  swap3\n  pop\n  swap1\n  pop\n    /* \"#utility.yul\":3200:3204   */\n  dup2\n    /* \"#utility.yul\":3195:3198   */\n  dup5\n    /* \"#utility.yul\":3191:3205   */\n  div\n    /* \"#utility.yul\":3184:3189   */\n  dup2\n    /* \"#utility.yul\":3181:3206   */\n  gt\n    /* \"#utility.yul\":3178:3229   */\n  iszero\n  tag_61\n  jumpi\n    /* \"#utility.yul\":3209:3227   */\n  tag_62\n  tag_18\n  jump\t// in\ntag_62:\n    /* \"#utility.yul\":3178:3229   */\ntag_61:\n    /* \"#utility.yul\":3258:3262   */\n  dup2\n    /* \"#utility.yul\":3251:3256   */\n  dup2\n    /* \"#utility.yul\":3247:3263   */\n  mul\n    /* \"#utility.yul\":3238:3263   */\n  swap1\n  pop\n    /* \"#utility.yul\":2196:3269   */\ntag_47:\n  swap4\n  swap3\n  pop\n  pop\n  pop\n  jump\t// out\n    /* \"#utility.yul\":3275:3352   */\ntag_22:\n    /* \"#utility.yul\":3312:3319   */\n  0x00\n    /* \"#utility.yul\":3341:3346   */\n  dup2\n    /* \"#utility.yul\":3330:3346   */\n  swap1\n  pop\n    /* \"#utility.yul\":3275:3352   */\n  swap2\n  swap1\n  pop\n  jump\t// out\n    /* \"#utility.yul\":3358:3639   */\ntag_8:\n    /* \"#utility.yul\":3416:3421   */\n  0x00\n    /* \"#utility.yul\":3440:3463   */\n  tag_65\n    /* \"#utility.yul\":3458:3462   */\n  dup3\n    /* \"#utility.yul\":3440:3463   */\n  tag_22\n  jump\t// in\ntag_65:\n    /* \"#utility.yul\":3432:3463   */\n  swap2\n  pop\n    /* \"#utility.yul\":3484:3509   */\n  tag_66\n    /* \"#utility.yul\":3500:3508   */\n  dup4\n    /* \"#utility.yul\":3484:3509   */\n  tag_15\n  jump\t// in\ntag_66:\n    /* \"#utility.yul\":3472:3509   */\n  swap3\n  pop\n    /* \"#utility.yul\":3528:3632   */\n  tag_67\n    /* \"#utility.yul\":3565:3631   */\n  0xffffffffffffffffffffffffffffffffffffffffffffffffffffffffffffffff\n    /* \"#utility.yul\":3555:3563   */\n  dup5\n    /* \"#utility.yul\":3549:3553   */\n  dup5\n    /* \"#utility.yul\":3528:3632   */\n  tag_21\n  jump\t// in\ntag_67:\n    /* \"#utility.yul\":3519:3632   */\n  swap1\n  pop\n    /* \"#utility.yul\":3358:3639   */\n  swap3\n  swap2\n  pop\n  pop\n  jump\t// out\n    /* \"#utility.yul\":3645:4055   */\ntag_10:\n    /* \"#utility.yul\":3685:3692   */\n  0x00\n    /* \"#utility.yul\":3708:3728   */\n  tag_69\n    /* \"#utility.yul\":3726:3727   */\n  dup3\n    /* \"#utility.yul\":3708:3728   */\n  tag_22\n  jump\t// in\ntag_69:\n    /* \"#utility.yul\":3703:3728   */\n  swap2\n  pop\n    /* \"#utility.yul\":3742:3762   */\n  tag_70\n    /* \"#utility.yul\":3760:3761   */\n  dup4\n    /* \"#utility.yul\":3742:3762   */\n  tag_22\n  jump\t// in\ntag_70:\n    /* \"#utility.yul\":3737:3762   */\n  swap3\n  pop\n    /* \"#utility.yul\":3797:3798   */\n  dup3\n    /* \"#utility.yul\":3794:3795   */\n  dup3\n    /* \"#utility.yul\":3790:3799   */\n  mul\n    /* \"#utility.yul\":3819:3849   */\n  tag_71\n    /* \"#utility.yul\":3837:3848   */\n  dup2\n    /* \"#utility.yul\":3819:3849   */\n  tag_22\n  jump\t// in\ntag_71:\n    /* \"#utility.yul\":3808:3849   */\n  swap2\n  pop\n    /* \"#utility.yul\":3998:3999   */\n  dup3\n    /* \"#utility.yul\":3989:3996   */\n  dup3\n    /* \"#utility.yul\":3985:4000   */\n  div\n    /* \"#utility.yul\":3982:3983   */\n  dup5\n    /* \"#utility.yul\":3979:4001   */\n  eq\n    /* \"#utility.yul\":3959:3960   */\n  dup4\n    /* \"#utility.yul\":3952:3961   */\n  iszero\n    /* \"#utility.yul\":3932:4015   */\n  or\n    /* \"#utility.yul\":3909:4048   */\n  tag_72\n  jumpi\n    /* \"#utility.yul\":4028:4046   */\n  tag_73\n  tag_18\n  jump\t// in\ntag_73:\n    /* \"#utility.yul\":3909:4048   */\ntag_72:\n    /* \"#utility.yul\":3693:4055   */\n  pop\n    /* \"#utility.yul\":3645:4055   */\n  swap3\n  swap2\n  pop\n  pop\n  jump\t// out\n    /* \"W5/pool.sol\":178:2080  contract Pool {... */\ntag_11:\n  dataSize(sub_0)\n  dup1\n  dataOffset(sub_0)\n  0x00\n  codecopy\n  0x00\n  return\nstop\n\nsub_0: assembly {\n        /* \"W5/pool.sol\":178:2080  contract Pool {... */\n      mstore(0x40, 0x80)\n      jumpi(tag_1, lt(calldatasize, 0x04))\n      shr(0xe0, calldataload(0x00))\n      dup1\n      0x41eccbd5\n      gt\n      tag_10\n      jumpi\n      dup1\n      0x41eccbd5\n      eq\n      tag_6\n      jumpi\n      dup1\n      0x8e06355f\n      eq\n      tag_7\n      jumpi\n      dup1\n      0xb1437e27\n      eq\n      tag_8\n      jumpi\n      dup1\n      0xfc0c546a\n      eq\n      tag_9\n      jumpi\n      jump(tag_1)\n    tag_10:\n      dup1\n      0x02d05d3f\n      eq\n      tag_2\n      jumpi\n      dup1\n      0x30c0b9ec\n      eq\n      tag_3\n      jumpi\n      dup1\n      0x3ccfd60b\n      eq\n      tag_4\n      jumpi\n      dup1\n      0x3d1135ea\n      eq\n      tag_5\n      jumpi\n    tag_1:\n      0x00\n      dup1\n      revert\n        /* \"W5/pool.sol\":261:283  address public creator */\n    tag_2:\n      callvalue\n      dup1\n      iszero\n      tag_11\n      jumpi\n      0x00\n      dup1\n      revert\n    tag_11:\n      pop\n      tag_12\n      tag_13\n      jump\t// in\n    tag_12:\n      mload(0x40)\n      tag_14\n      swap2\n      swap1\n      tag_15\n      jump\t// in\n    tag_14:\n      mload(0x40)\n      dup1\n      swap2\n      sub\n      swap1\n      return\n        /* \"W5/pool.sol\":756:920  function getLatestEthPrice() public view returns (uint256) {... */\n    tag_3:\n      callvalue\n      dup1\n      iszero\n      tag_16\n      jumpi\n      0x00\n      dup1\n      revert\n    tag_16:\n      pop\n      tag_17\n      tag_18\n      jump\t// in\n    tag_17:\n      mload(0x40)\n      tag_19\n      swap2\n      swap1\n      tag_20\n      jump\t// in\n    tag_19:\n      mload(0x40)\n      dup1\n      swap2\n      sub\n      swap1\n      return\n        /* \"W5/pool.sol\":1887:2077  function withdraw() public {... */\n    tag_4:\n      callvalue\n      dup1\n      iszero\n      tag_21\n      jumpi\n      0x00\n      dup1\n      revert\n    tag_21:\n      pop\n      tag_22\n      tag_23\n      jump\t// in\n    tag_22:\n      stop\n        /* \"W5/pool.sol\":928:1470  function buyEthWithTokens(uint256 tokensToSpend) public {... */\n    tag_5:\n      callvalue\n      dup1\n      iszero\n      tag_24\n      jumpi\n      0x00\n      dup1\n      revert\n    tag_24:\n      pop\n      tag_25\n      0x04\n      dup1\n      calldatasize\n      sub\n      dup2\n      add\n      swap1\n      tag_26\n      swap2\n      swap1\n      tag_27\n      jump\t// in\n    tag_26:\n      tag_28\n      jump\t// in\n    tag_25:\n      stop\n        /* \"W5/pool.sol\":199:222  uint256 public ethTotal */\n    tag_6:\n      callvalue\n      dup1\n      iszero\n      tag_29\n      jumpi\n      0x00\n      dup1\n      revert\n    tag_29:\n      pop\n      tag_30\n      tag_31\n      jump\t// in\n    tag_30:\n      mload(0x40)\n      tag_32\n      swap2\n      swap1\n      tag_20\n      jump\t// in\n    tag_32:\n      mload(0x40)\n      dup1\n      swap2\n      sub\n      swap1\n      return\n        /* \"W5/pool.sol\":1478:1879  function sellEthForTokens() public payable {... */\n    tag_7:\n      tag_33\n      tag_34\n      jump\t// in\n    tag_33:\n      stop\n        /* \"W5/pool.sol\":229:254  uint256 public tokenTotal */\n    tag_8:\n      callvalue\n      dup1\n      iszero\n      tag_35\n      jumpi\n      0x00\n      dup1\n      revert\n    tag_35:\n      pop\n      tag_36\n      tag_37\n      jump\t// in\n    tag_36:\n      mload(0x40)\n      tag_38\n      swap2\n      swap1\n      tag_20\n      jump\t// in\n    tag_38:\n      mload(0x40)\n      dup1\n      swap2\n      sub\n      swap1\n      return\n        /* \"W5/pool.sol\":290:360  ERC20 public token = ERC20(0xae6B0f75b55fa4c90b2768e3157b7000241A41c5) */\n    tag_9:\n      callvalue\n      dup1\n      iszero\n      tag_39\n      jumpi\n      0x00\n      dup1\n      revert\n    tag_39:\n      pop\n      tag_40\n      tag_41\n      jump\t// in\n    tag_40:\n      mload(0x40)\n      tag_42\n      swap2\n      swap1\n      tag_43\n      jump\t// in\n    tag_42:\n      mload(0x40)\n      dup1\n      swap2\n      sub\n      swap1\n      return\n        /* \"W5/pool.sol\":261:283  address public creator */\n    tag_13:\n      0x02\n      0x00\n      swap1\n      sload\n      swap1\n      0x0100\n      exp\n      swap1\n      div\n      0xffffffffffffffffffffffffffffffffffffffff\n      and\n      dup2\n      jump\t// out\n        /* \"W5/pool.sol\":756:920  function getLatestEthPrice() public view returns (uint256) {... */\n    tag_18:\n        /* \"W5/pool.sol\":806:813  uint256 */\n      0x00\n        /* \"W5/pool.sol\":829:842  int256 answer */\n      dup1\n        /* \"W5/pool.sol\":849:861  ethPriceFeed */\n      0x04\n      0x00\n      swap1\n      sload\n      swap1\n      0x0100\n      exp\n      swap1\n      div\n      0xffffffffffffffffffffffffffffffffffffffff\n      and\n        /* \"W5/pool.sol\":849:877  ethPriceFeed.latestRoundData */\n      0xffffffffffffffffffffffffffffffffffffffff\n      and\n      0xfeaf968c\n        /* \"W5/pool.sol\":849:879  ethPriceFeed.latestRoundData() */\n      mload(0x40)\n      dup2\n      0xffffffff\n      and\n      0xe0\n      shl\n      dup2\n      mstore\n      0x04\n      add\n      0xa0\n      mload(0x40)\n      dup1\n      dup4\n      sub\n      dup2\n      dup7\n      gas\n      staticcall\n      iszero\n      dup1\n      iszero\n      tag_46\n      jumpi\n      returndatasize\n      0x00\n      dup1\n      returndatacopy\n      revert(0x00, returndatasize)\n    tag_46:\n      pop\n      pop\n      pop\n      pop\n      mload(0x40)\n      returndatasize\n      not(0x1f)\n      0x1f\n      dup3\n      add\n      and\n      dup3\n      add\n      dup1\n      0x40\n      mstore\n      pop\n      dup2\n      add\n      swap1\n      tag_47\n      swap2\n      swap1\n      tag_48\n      jump\t// in\n    tag_47:\n        /* \"W5/pool.sol\":826:879  (, int256 answer,,,) = ethPriceFeed.latestRoundData() */\n      pop\n      pop\n      pop\n      swap2\n      pop\n      pop\n        /* \"W5/pool.sol\":905:911  answer */\n      dup1\n        /* \"W5/pool.sol\":890:912  return uint256(answer) */\n      swap2\n      pop\n      pop\n        /* \"W5/pool.sol\":756:920  function getLatestEthPrice() public view returns (uint256) {... */\n      swap1\n      jump\t// out\n        /* \"W5/pool.sol\":1887:2077  function withdraw() public {... */\n    tag_23:\n        /* \"W5/pool.sol\":1947:1954  creator */\n      0x02\n      0x00\n      swap1\n      sload\n      swap1\n      0x0100\n      exp\n      swap1\n      div\n      0xffffffffffffffffffffffffffffffffffffffff\n      and\n        /* \"W5/pool.sol\":1933:1954  msg.sender == creator */\n      0xffffffffffffffffffffffffffffffffffffffff\n      and\n        /* \"W5/pool.sol\":1933:1943  msg.sender */\n      caller\n        /* \"W5/pool.sol\":1933:1954  msg.sender == creator */\n      0xffffffffffffffffffffffffffffffffffffffff\n      and\n      eq\n        /* \"W5/pool.sol\":1925:2007  require(msg.sender == creator, \"Only the contract creator can call this function\") */\n      tag_50\n      jumpi\n      mload(0x40)\n      0x08c379a000000000000000000000000000000000000000000000000000000000\n      dup2\n      mstore\n      0x04\n      add\n      tag_51\n      swap1\n      tag_52\n      jump\t// in\n    tag_51:\n      mload(0x40)\n      dup1\n      swap2\n      sub\n      swap1\n      revert\n    tag_50:\n        /* \"W5/pool.sol\":2026:2036  msg.sender */\n      caller\n        /* \"W5/pool.sol\":2018:2046  payable(msg.sender).transfer */\n      0xffffffffffffffffffffffffffffffffffffffff\n      and\n        /* \"W5/pool.sol\":2018:2069  payable(msg.sender).transfer(address(this).balance) */\n      0x08fc\n        /* \"W5/pool.sol\":2047:2068  address(this).balance */\n      selfbalance\n        /* \"W5/pool.sol\":2018:2069  payable(msg.sender).transfer(address(this).balance) */\n      swap1\n      dup2\n      iszero\n      mul\n      swap1\n      mload(0x40)\n      0x00\n      mload(0x40)\n      dup1\n      dup4\n      sub\n      dup2\n      dup6\n      dup9\n      dup9\n      call\n      swap4\n      pop\n      pop\n      pop\n      pop\n      iszero\n      dup1\n      iszero\n      tag_54\n      jumpi\n      returndatasize\n      0x00\n      dup1\n      returndatacopy\n      revert(0x00, returndatasize)\n    tag_54:\n      pop\n        /* \"W5/pool.sol\":1887:2077  function withdraw() public {... */\n      jump\t// out\n        /* \"W5/pool.sol\":928:1470  function buyEthWithTokens(uint256 tokensToSpend) public {... */\n    tag_28:\n        /* \"W5/pool.sol\":1034:1047  tokensToSpend */\n      dup1\n        /* \"W5/pool.sol\":1003:1008  token */\n      0x03\n      0x00\n      swap1\n      sload\n      swap1\n      0x0100\n      exp\n      swap1\n      div\n      0xffffffffffffffffffffffffffffffffffffffff\n      and\n        /* \"W5/pool.sol\":1003:1018  token.balanceOf */\n      0xffffffffffffffffffffffffffffffffffffffff\n      and\n      0x70a08231\n        /* \"W5/pool.sol\":1019:1029  msg.sender */\n      caller\n        /* \"W5/pool.sol\":1003:1030  token.balanceOf(msg.sender) */\n      mload(0x40)\n      dup3\n      0xffffffff\n      and\n      0xe0\n      shl\n      dup2\n      mstore\n      0x04\n      add\n      tag_56\n      swap2\n      swap1\n      tag_15\n      jump\t// in\n    tag_56:\n      0x20\n      mload(0x40)\n      dup1\n      dup4\n      sub\n      dup2\n      dup7\n      gas\n      staticcall\n      iszero\n      dup1\n      iszero\n      tag_58\n      jumpi\n      returndatasize\n      0x00\n      dup1\n      returndatacopy\n      revert(0x00, returndatasize)\n    tag_58:\n      pop\n      pop\n      pop\n      pop\n      mload(0x40)\n      returndatasize\n      not(0x1f)\n      0x1f\n      dup3\n      add\n      and\n      dup3\n      add\n      dup1\n      0x40\n      mstore\n      pop\n      dup2\n      add\n      swap1\n      tag_59\n      swap2\n      swap1\n      tag_60\n      jump\t// in\n    tag_59:\n        /* \"W5/pool.sol\":1003:1047  token.balanceOf(msg.sender) >= tokensToSpend */\n      lt\n      iszero\n        /* \"W5/pool.sol\":995:1078  require(token.balanceOf(msg.sender) >= tokensToSpend, \"Not enough tokens to spend\") */\n      tag_61\n      jumpi\n      mload(0x40)\n      0x08c379a000000000000000000000000000000000000000000000000000000000\n      dup2\n      mstore\n      0x04\n      add\n      tag_62\n      swap1\n      tag_63\n      jump\t// in\n    tag_62:\n      mload(0x40)\n      dup1\n      swap2\n      sub\n      swap1\n      revert\n    tag_61:\n        /* \"W5/pool.sol\":1091:1107  uint256 ethPrice */\n      0x00\n        /* \"W5/pool.sol\":1110:1129  getLatestEthPrice() */\n      tag_64\n        /* \"W5/pool.sol\":1110:1127  getLatestEthPrice */\n      tag_18\n        /* \"W5/pool.sol\":1110:1129  getLatestEthPrice() */\n      jump\t// in\n    tag_64:\n        /* \"W5/pool.sol\":1091:1129  uint256 ethPrice = getLatestEthPrice() */\n      swap1\n      pop\n        /* \"W5/pool.sol\":1140:1156  uint256 ethToBuy */\n      0x00\n        /* \"W5/pool.sol\":1184:1192  ethPrice */\n      dup2\n        /* \"W5/pool.sol\":1176:1180  1e18 */\n      0x0de0b6b3a7640000\n        /* \"W5/pool.sol\":1160:1173  tokensToSpend */\n      dup5\n        /* \"W5/pool.sol\":1160:1180  tokensToSpend * 1e18 */\n      tag_65\n      swap2\n      swap1\n      tag_66\n      jump\t// in\n    tag_65:\n        /* \"W5/pool.sol\":1159:1192  (tokensToSpend * 1e18) / ethPrice */\n      tag_67\n      swap2\n      swap1\n      tag_68\n      jump\t// in\n    tag_67:\n        /* \"W5/pool.sol\":1140:1192  uint256 ethToBuy = (tokensToSpend * 1e18) / ethPrice */\n      swap1\n      pop\n        /* \"W5/pool.sol\":1236:1244  ethToBuy */\n      dup1\n        /* \"W5/pool.sol\":1211:1232  address(this).balance */\n      selfbalance\n        /* \"W5/pool.sol\":1211:1244  address(this).balance >= ethToBuy */\n      lt\n      iszero\n        /* \"W5/pool.sol\":1203:1275  require(address(this).balance >= ethToBuy, \"Not enough ETH in the pool\") */\n      tag_69\n      jumpi\n      mload(0x40)\n      0x08c379a000000000000000000000000000000000000000000000000000000000\n      dup2\n      mstore\n      0x04\n      add\n      tag_70\n      swap1\n      tag_71\n      jump\t// in\n    tag_70:\n      mload(0x40)\n      dup1\n      swap2\n      sub\n      swap1\n      revert\n    tag_69:\n        /* \"W5/pool.sol\":1300:1308  ethToBuy */\n      dup1\n        /* \"W5/pool.sol\":1288:1296  ethTotal */\n      0x00\n      dup1\n        /* \"W5/pool.sol\":1288:1308  ethTotal -= ethToBuy */\n      dup3\n      dup3\n      sload\n      tag_72\n      swap2\n      swap1\n      tag_73\n      jump\t// in\n    tag_72:\n      swap3\n      pop\n      pop\n      dup2\n      swap1\n      sstore\n      pop\n        /* \"W5/pool.sol\":1333:1346  tokensToSpend */\n      dup3\n        /* \"W5/pool.sol\":1319:1329  tokenTotal */\n      0x01\n      0x00\n        /* \"W5/pool.sol\":1319:1346  tokenTotal += tokensToSpend */\n      dup3\n      dup3\n      sload\n      tag_74\n      swap2\n      swap1\n      tag_75\n      jump\t// in\n    tag_74:\n      swap3\n      pop\n      pop\n      dup2\n      swap1\n      sstore\n      pop\n        /* \"W5/pool.sol\":1359:1364  token */\n      0x03\n      0x00\n      swap1\n      sload\n      swap1\n      0x0100\n      exp\n      swap1\n      div\n      0xffffffffffffffffffffffffffffffffffffffff\n      and\n        /* \"W5/pool.sol\":1359:1377  token.transferFrom */\n      0xffffffffffffffffffffffffffffffffffffffff\n      and\n      0x23b872dd\n        /* \"W5/pool.sol\":1378:1388  msg.sender */\n      caller\n        /* \"W5/pool.sol\":1390:1397  creator */\n      0x02\n      0x00\n      swap1\n      sload\n      swap1\n      0x0100\n      exp\n      swap1\n      div\n      0xffffffffffffffffffffffffffffffffffffffff\n      and\n        /* \"W5/pool.sol\":1399:1412  tokensToSpend */\n      dup7\n        /* \"W5/pool.sol\":1359:1413  token.transferFrom(msg.sender, creator, tokensToSpend) */\n      mload(0x40)\n      dup5\n      0xffffffff\n      and\n      0xe0\n      shl\n      dup2\n      mstore\n      0x04\n      add\n      tag_76\n      swap4\n      swap3\n      swap2\n      swap1\n      tag_77\n      jump\t// in\n    tag_76:\n      0x20\n      mload(0x40)\n      dup1\n      dup4\n      sub\n      dup2\n      0x00\n      dup8\n      gas\n      call\n      iszero\n      dup1\n      iszero\n      tag_79\n      jumpi\n      returndatasize\n      0x00\n      dup1\n      returndatacopy\n      revert(0x00, returndatasize)\n    tag_79:\n      pop\n      pop\n      pop\n      pop\n      mload(0x40)\n      returndatasize\n      not(0x1f)\n      0x1f\n      dup3\n      add\n      and\n      dup3\n      add\n      dup1\n      0x40\n      mstore\n      pop\n      dup2\n      add\n      swap1\n      tag_80\n      swap2\n      swap1\n      tag_81\n      jump\t// in\n    tag_80:\n      pop\n        /* \"W5/pool.sol\":1432:1442  msg.sender */\n      caller\n        /* \"W5/pool.sol\":1424:1452  payable(msg.sender).transfer */\n      0xffffffffffffffffffffffffffffffffffffffff\n      and\n        /* \"W5/pool.sol\":1424:1462  payable(msg.sender).transfer(ethToBuy) */\n      0x08fc\n        /* \"W5/pool.sol\":1453:1461  ethToBuy */\n      dup3\n        /* \"W5/pool.sol\":1424:1462  payable(msg.sender).transfer(ethToBuy) */\n      swap1\n      dup2\n      iszero\n      mul\n      swap1\n      mload(0x40)\n      0x00\n      mload(0x40)\n      dup1\n      dup4\n      sub\n      dup2\n      dup6\n      dup9\n      dup9\n      call\n      swap4\n      pop\n      pop\n      pop\n      pop\n      iszero\n      dup1\n      iszero\n      tag_83\n      jumpi\n      returndatasize\n      0x00\n      dup1\n      returndatacopy\n      revert(0x00, returndatasize)\n    tag_83:\n      pop\n        /* \"W5/pool.sol\":984:1470  {... */\n      pop\n      pop\n        /* \"W5/pool.sol\":928:1470  function buyEthWithTokens(uint256 tokensToSpend) public {... */\n      pop\n      jump\t// out\n        /* \"W5/pool.sol\":199:222  uint256 public ethTotal */\n    tag_31:\n      sload(0x00)\n      dup2\n      jump\t// out\n        /* \"W5/pool.sol\":1478:1879  function sellEthForTokens() public payable {... */\n    tag_34:\n        /* \"W5/pool.sol\":1532:1548  uint256 ethPrice */\n      0x00\n        /* \"W5/pool.sol\":1551:1570  getLatestEthPrice() */\n      tag_85\n        /* \"W5/pool.sol\":1551:1568  getLatestEthPrice */\n      tag_18\n        /* \"W5/pool.sol\":1551:1570  getLatestEthPrice() */\n      jump\t// in\n    tag_85:\n        /* \"W5/pool.sol\":1532:1570  uint256 ethPrice = getLatestEthPrice() */\n      swap1\n      pop\n        /* \"W5/pool.sol\":1581:1603  uint256 tokensToReturn */\n      0x00\n        /* \"W5/pool.sol\":1631:1635  1e18 */\n      0x0de0b6b3a7640000\n        /* \"W5/pool.sol\":1619:1627  ethPrice */\n      dup3\n        /* \"W5/pool.sol\":1607:1616  msg.value */\n      callvalue\n        /* \"W5/pool.sol\":1607:1627  msg.value * ethPrice */\n      tag_86\n      swap2\n      swap1\n      tag_66\n      jump\t// in\n    tag_86:\n        /* \"W5/pool.sol\":1606:1635  (msg.value * ethPrice) / 1e18 */\n      tag_87\n      swap2\n      swap1\n      tag_68\n      jump\t// in\n    tag_87:\n        /* \"W5/pool.sol\":1581:1635  uint256 tokensToReturn = (msg.value * ethPrice) / 1e18 */\n      swap1\n      pop\n        /* \"W5/pool.sol\":1682:1696  tokensToReturn */\n      dup1\n        /* \"W5/pool.sol\":1654:1659  token */\n      0x03\n      0x00\n      swap1\n      sload\n      swap1\n      0x0100\n      exp\n      swap1\n      div\n      0xffffffffffffffffffffffffffffffffffffffff\n      and\n        /* \"W5/pool.sol\":1654:1669  token.balanceOf */\n      0xffffffffffffffffffffffffffffffffffffffff\n      and\n      0x70a08231\n        /* \"W5/pool.sol\":1670:1677  creator */\n      0x02\n      0x00\n      swap1\n      sload\n      swap1\n      0x0100\n      exp\n      swap1\n      div\n      0xffffffffffffffffffffffffffffffffffffffff\n      and\n        /* \"W5/pool.sol\":1654:1678  token.balanceOf(creator) */\n      mload(0x40)\n      dup3\n      0xffffffff\n      and\n      0xe0\n      shl\n      dup2\n      mstore\n      0x04\n      add\n      tag_88\n      swap2\n      swap1\n      tag_15\n      jump\t// in\n    tag_88:\n      0x20\n      mload(0x40)\n      dup1\n      dup4\n      sub\n      dup2\n      dup7\n      gas\n      staticcall\n      iszero\n      dup1\n      iszero\n      tag_90\n      jumpi\n      returndatasize\n      0x00\n      dup1\n      returndatacopy\n      revert(0x00, returndatasize)\n    tag_90:\n      pop\n      pop\n      pop\n      pop\n      mload(0x40)\n      returndatasize\n      not(0x1f)\n      0x1f\n      dup3\n      add\n      and\n      dup3\n      add\n      dup1\n      0x40\n      mstore\n      pop\n      dup2\n      add\n      swap1\n      tag_91\n      swap2\n      swap1\n      tag_60\n      jump\t// in\n    tag_91:\n        /* \"W5/pool.sol\":1654:1696  token.balanceOf(creator) >= tokensToReturn */\n      lt\n      iszero\n        /* \"W5/pool.sol\":1646:1730  require(token.balanceOf(creator) >= tokensToReturn, \"Not enough tokens in the pool\") */\n      tag_92\n      jumpi\n      mload(0x40)\n      0x08c379a000000000000000000000000000000000000000000000000000000000\n      dup2\n      mstore\n      0x04\n      add\n      tag_93\n      swap1\n      tag_94\n      jump\t// in\n    tag_93:\n      mload(0x40)\n      dup1\n      swap2\n      sub\n      swap1\n      revert\n    tag_92:\n        /* \"W5/pool.sol\":1755:1764  msg.value */\n      callvalue\n        /* \"W5/pool.sol\":1743:1751  ethTotal */\n      0x00\n      dup1\n        /* \"W5/pool.sol\":1743:1764  ethTotal += msg.value */\n      dup3\n      dup3\n      sload\n      tag_95\n      swap2\n      swap1\n      tag_75\n      jump\t// in\n    tag_95:\n      swap3\n      pop\n      pop\n      dup2\n      swap1\n      sstore\n      pop\n        /* \"W5/pool.sol\":1789:1803  tokensToReturn */\n      dup1\n        /* \"W5/pool.sol\":1775:1785  tokenTotal */\n      0x01\n      0x00\n        /* \"W5/pool.sol\":1775:1803  tokenTotal -= tokensToReturn */\n      dup3\n      dup3\n      sload\n      tag_96\n      swap2\n      swap1\n      tag_73\n      jump\t// in\n    tag_96:\n      swap3\n      pop\n      pop\n      dup2\n      swap1\n      sstore\n      pop\n        /* \"W5/pool.sol\":1816:1821  token */\n      0x03\n      0x00\n      swap1\n      sload\n      swap1\n      0x0100\n      exp\n      swap1\n      div\n      0xffffffffffffffffffffffffffffffffffffffff\n      and\n        /* \"W5/pool.sol\":1816:1834  token.transferFrom */\n      0xffffffffffffffffffffffffffffffffffffffff\n      and\n      0x23b872dd\n        /* \"W5/pool.sol\":1835:1842  creator */\n      0x02\n      0x00\n      swap1\n      sload\n      swap1\n      0x0100\n      exp\n      swap1\n      div\n      0xffffffffffffffffffffffffffffffffffffffff\n      and\n        /* \"W5/pool.sol\":1844:1854  msg.sender */\n      caller\n        /* \"W5/pool.sol\":1856:1870  tokensToReturn */\n      dup5\n        /* \"W5/pool.sol\":1816:1871  token.transferFrom(creator, msg.sender, tokensToReturn) */\n      mload(0x40)\n      dup5\n      0xffffffff\n      and\n      0xe0\n      shl\n      dup2\n      mstore\n      0x04\n      add\n      tag_97\n      swap4\n      swap3\n      swap2\n      swap1\n      tag_77\n      jump\t// in\n    tag_97:\n      0x20\n      mload(0x40)\n      dup1\n      dup4\n      sub\n      dup2\n      0x00\n      dup8\n      gas\n      call\n      iszero\n      dup1\n      iszero\n      tag_99\n      jumpi\n      returndatasize\n      0x00\n      dup1\n      returndatacopy\n      revert(0x00, returndatasize)\n    tag_99:\n      pop\n      pop\n      pop\n      pop\n      mload(0x40)\n      returndatasize\n      not(0x1f)\n      0x1f\n      dup3\n      add\n      and\n      dup3\n      add\n      dup1\n      0x40\n      mstore\n      pop\n      dup2\n      add\n      swap1\n      tag_100\n      swap2\n      swap1\n      tag_81\n      jump\t// in\n    tag_100:\n      pop\n        /* \"W5/pool.sol\":1521:1879  {... */\n      pop\n      pop\n        /* \"W5/pool.sol\":1478:1879  function sellEthForTokens() public payable {... */\n      jump\t// out\n        /* \"W5/pool.sol\":229:254  uint256 public tokenTotal */\n    tag_37:\n      sload(0x01)\n      dup2\n      jump\t// out\n        /* \"W5/pool.sol\":290:360  ERC20 public token = ERC20(0xae6B0f75b55fa4c90b2768e3157b7000241A41c5) */\n    tag_41:\n      0x03\n      0x00\n      swap1\n      sload\n      swap1\n      0x0100\n      exp\n      swap1\n      div\n      0xffffffffffffffffffffffffffffffffffffffff\n      and\n      dup2\n      jump\t// out\n        /* \"#utility.yul\":7:133   */\n    tag_101:\n        /* \"#utility.yul\":44:51   */\n      0x00\n        /* \"#utility.yul\":84:126   */\n      0xffffffffffffffffffffffffffffffffffffffff\n        /* \"#utility.yul\":77:82   */\n      dup3\n        /* \"#utility.yul\":73:127   */\n      and\n        /* \"#utility.yul\":62:127   */\n      swap1\n      pop\n        /* \"#utility.yul\":7:133   */\n      swap2\n      swap1\n      pop\n      jump\t// out\n        /* \"#utility.yul\":139:235   */\n    tag_102:\n        /* \"#utility.yul\":176:183   */\n      0x00\n        /* \"#utility.yul\":205:229   */\n      tag_140\n        /* \"#utility.yul\":223:228   */\n      dup3\n        /* \"#utility.yul\":205:229   */\n      tag_101\n      jump\t// in\n    tag_140:\n        /* \"#utility.yul\":194:229   */\n      swap1\n      pop\n        /* \"#utility.yul\":139:235   */\n      swap2\n      swap1\n      pop\n      jump\t// out\n        /* \"#utility.yul\":241:359   */\n    tag_103:\n        /* \"#utility.yul\":328:352   */\n      tag_142\n        /* \"#utility.yul\":346:351   */\n      dup2\n        /* \"#utility.yul\":328:352   */\n      tag_102\n      jump\t// in\n    tag_142:\n        /* \"#utility.yul\":323:326   */\n      dup3\n        /* \"#utility.yul\":316:353   */\n      mstore\n        /* \"#utility.yul\":241:359   */\n      pop\n      pop\n      jump\t// out\n        /* \"#utility.yul\":365:587   */\n    tag_15:\n        /* \"#utility.yul\":458:462   */\n      0x00\n        /* \"#utility.yul\":496:498   */\n      0x20\n        /* \"#utility.yul\":485:494   */\n      dup3\n        /* \"#utility.yul\":481:499   */\n      add\n        /* \"#utility.yul\":473:499   */\n      swap1\n      pop\n        /* \"#utility.yul\":509:580   */\n      tag_144\n        /* \"#utility.yul\":577:578   */\n      0x00\n        /* \"#utility.yul\":566:575   */\n      dup4\n        /* \"#utility.yul\":562:579   */\n      add\n        /* \"#utility.yul\":553:559   */\n      dup5\n        /* \"#utility.yul\":509:580   */\n      tag_103\n      jump\t// in\n    tag_144:\n        /* \"#utility.yul\":365:587   */\n      swap3\n      swap2\n      pop\n      pop\n      jump\t// out\n        /* \"#utility.yul\":593:670   */\n    tag_104:\n        /* \"#utility.yul\":630:637   */\n      0x00\n        /* \"#utility.yul\":659:664   */\n      dup2\n        /* \"#utility.yul\":648:664   */\n      swap1\n      pop\n        /* \"#utility.yul\":593:670   */\n      swap2\n      swap1\n      pop\n      jump\t// out\n        /* \"#utility.yul\":676:794   */\n    tag_105:\n        /* \"#utility.yul\":763:787   */\n      tag_147\n        /* \"#utility.yul\":781:786   */\n      dup2\n        /* \"#utility.yul\":763:787   */\n      tag_104\n      jump\t// in\n    tag_147:\n        /* \"#utility.yul\":758:761   */\n      dup3\n        /* \"#utility.yul\":751:788   */\n      mstore\n        /* \"#utility.yul\":676:794   */\n      pop\n      pop\n      jump\t// out\n        /* \"#utility.yul\":800:1022   */\n    tag_20:\n        /* \"#utility.yul\":893:897   */\n      0x00\n        /* \"#utility.yul\":931:933   */\n      0x20\n        /* \"#utility.yul\":920:929   */\n      dup3\n        /* \"#utility.yul\":916:934   */\n      add\n        /* \"#utility.yul\":908:934   */\n      swap1\n      pop\n        /* \"#utility.yul\":944:1015   */\n      tag_149\n        /* \"#utility.yul\":1012:1013   */\n      0x00\n        /* \"#utility.yul\":1001:1010   */\n      dup4\n        /* \"#utility.yul\":997:1014   */\n      add\n        /* \"#utility.yul\":988:994   */\n      dup5\n        /* \"#utility.yul\":944:1015   */\n      tag_105\n      jump\t// in\n    tag_149:\n        /* \"#utility.yul\":800:1022   */\n      swap3\n      swap2\n      pop\n      pop\n      jump\t// out\n        /* \"#utility.yul\":1109:1226   */\n    tag_107:\n        /* \"#utility.yul\":1218:1219   */\n      0x00\n        /* \"#utility.yul\":1215:1216   */\n      dup1\n        /* \"#utility.yul\":1208:1220   */\n      revert\n        /* \"#utility.yul\":1355:1477   */\n    tag_109:\n        /* \"#utility.yul\":1428:1452   */\n      tag_154\n        /* \"#utility.yul\":1446:1451   */\n      dup2\n        /* \"#utility.yul\":1428:1452   */\n      tag_104\n      jump\t// in\n    tag_154:\n        /* \"#utility.yul\":1421:1426   */\n      dup2\n        /* \"#utility.yul\":1418:1453   */\n      eq\n        /* \"#utility.yul\":1408:1471   */\n      tag_155\n      jumpi\n        /* \"#utility.yul\":1467:1468   */\n      0x00\n        /* \"#utility.yul\":1464:1465   */\n      dup1\n        /* \"#utility.yul\":1457:1469   */\n      revert\n        /* \"#utility.yul\":1408:1471   */\n    tag_155:\n        /* \"#utility.yul\":1355:1477   */\n      pop\n      jump\t// out\n        /* \"#utility.yul\":1483:1622   */\n    tag_110:\n        /* \"#utility.yul\":1529:1534   */\n      0x00\n        /* \"#utility.yul\":1567:1573   */\n      dup2\n        /* \"#utility.yul\":1554:1574   */\n      calldataload\n        /* \"#utility.yul\":1545:1574   */\n      swap1\n      pop\n        /* \"#utility.yul\":1583:1616   */\n      tag_157\n        /* \"#utility.yul\":1610:1615   */\n      dup2\n        /* \"#utility.yul\":1583:1616   */\n      tag_109\n      jump\t// in\n    tag_157:\n        /* \"#utility.yul\":1483:1622   */\n      swap3\n      swap2\n      pop\n      pop\n      jump\t// out\n        /* \"#utility.yul\":1628:1957   */\n    tag_27:\n        /* \"#utility.yul\":1687:1693   */\n      0x00\n        /* \"#utility.yul\":1736:1738   */\n      0x20\n        /* \"#utility.yul\":1724:1733   */\n      dup3\n        /* \"#utility.yul\":1715:1722   */\n      dup5\n        /* \"#utility.yul\":1711:1734   */\n      sub\n        /* \"#utility.yul\":1707:1739   */\n      slt\n        /* \"#utility.yul\":1704:1823   */\n      iszero\n      tag_159\n      jumpi\n        /* \"#utility.yul\":1742:1821   */\n      tag_160\n      tag_107\n      jump\t// in\n    tag_160:\n        /* \"#utility.yul\":1704:1823   */\n    tag_159:\n        /* \"#utility.yul\":1862:1863   */\n      0x00\n        /* \"#utility.yul\":1887:1940   */\n      tag_161\n        /* \"#utility.yul\":1932:1939   */\n      dup5\n        /* \"#utility.yul\":1923:1929   */\n      dup3\n        /* \"#utility.yul\":1912:1921   */\n      dup6\n        /* \"#utility.yul\":1908:1930   */\n      add\n        /* \"#utility.yul\":1887:1940   */\n      tag_110\n      jump\t// in\n    tag_161:\n        /* \"#utility.yul\":1877:1940   */\n      swap2\n      pop\n        /* \"#utility.yul\":1833:1950   */\n      pop\n        /* \"#utility.yul\":1628:1957   */\n      swap3\n      swap2\n      pop\n      pop\n      jump\t// out\n        /* \"#utility.yul\":1963:2023   */\n    tag_111:\n        /* \"#utility.yul\":1991:1994   */\n      0x00\n        /* \"#utility.yul\":2012:2017   */\n      dup2\n        /* \"#utility.yul\":2005:2017   */\n      swap1\n      pop\n        /* \"#utility.yul\":1963:2023   */\n      swap2\n      swap1\n      pop\n      jump\t// out\n        /* \"#utility.yul\":2029:2171   */\n    tag_112:\n        /* \"#utility.yul\":2079:2088   */\n      0x00\n        /* \"#utility.yul\":2112:2165   */\n      tag_164\n        /* \"#utility.yul\":2130:2164   */\n      tag_165\n        /* \"#utility.yul\":2139:2163   */\n      tag_166\n        /* \"#utility.yul\":2157:2162   */\n      dup5\n        /* \"#utility.yul\":2139:2163   */\n      tag_101\n      jump\t// in\n    tag_166:\n        /* \"#utility.yul\":2130:2164   */\n      tag_111\n      jump\t// in\n    tag_165:\n        /* \"#utility.yul\":2112:2165   */\n      tag_101\n      jump\t// in\n    tag_164:\n        /* \"#utility.yul\":2099:2165   */\n      swap1\n      pop\n        /* \"#utility.yul\":2029:2171   */\n      swap2\n      swap1\n      pop\n      jump\t// out\n        /* \"#utility.yul\":2177:2303   */\n    tag_113:\n        /* \"#utility.yul\":2227:2236   */\n      0x00\n        /* \"#utility.yul\":2260:2297   */\n      tag_168\n        /* \"#utility.yul\":2291:2296   */\n      dup3\n        /* \"#utility.yul\":2260:2297   */\n      tag_112\n      jump\t// in\n    tag_168:\n        /* \"#utility.yul\":2247:2297   */\n      swap1\n      pop\n        /* \"#utility.yul\":2177:2303   */\n      swap2\n      swap1\n      pop\n      jump\t// out\n        /* \"#utility.yul\":2309:2448   */\n    tag_114:\n        /* \"#utility.yul\":2372:2381   */\n      0x00\n        /* \"#utility.yul\":2405:2442   */\n      tag_170\n        /* \"#utility.yul\":2436:2441   */\n      dup3\n        /* \"#utility.yul\":2405:2442   */\n      tag_113\n      jump\t// in\n    tag_170:\n        /* \"#utility.yul\":2392:2442   */\n      swap1\n      pop\n        /* \"#utility.yul\":2309:2448   */\n      swap2\n      swap1\n      pop\n      jump\t// out\n        /* \"#utility.yul\":2454:2611   */\n    tag_115:\n        /* \"#utility.yul\":2554:2604   */\n      tag_172\n        /* \"#utility.yul\":2598:2603   */\n      dup2\n        /* \"#utility.yul\":2554:2604   */\n      tag_114\n      jump\t// in\n    tag_172:\n        /* \"#utility.yul\":2549:2552   */\n      dup3\n        /* \"#utility.yul\":2542:2605   */\n      mstore\n        /* \"#utility.yul\":2454:2611   */\n      pop\n      pop\n      jump\t// out\n        /* \"#utility.yul\":2617:2865   */\n    tag_43:\n        /* \"#utility.yul\":2723:2727   */\n      0x00\n        /* \"#utility.yul\":2761:2763   */\n      0x20\n        /* \"#utility.yul\":2750:2759   */\n      dup3\n        /* \"#utility.yul\":2746:2764   */\n      add\n        /* \"#utility.yul\":2738:2764   */\n      swap1\n      pop\n        /* \"#utility.yul\":2774:2858   */\n      tag_174\n        /* \"#utility.yul\":2855:2856   */\n      0x00\n        /* \"#utility.yul\":2844:2853   */\n      dup4\n        /* \"#utility.yul\":2840:2857   */\n      add\n        /* \"#utility.yul\":2831:2837   */\n      dup5\n        /* \"#utility.yul\":2774:2858   */\n      tag_115\n      jump\t// in\n    tag_174:\n        /* \"#utility.yul\":2617:2865   */\n      swap3\n      swap2\n      pop\n      pop\n      jump\t// out\n        /* \"#utility.yul\":2871:2976   */\n    tag_116:\n        /* \"#utility.yul\":2907:2914   */\n      0x00\n        /* \"#utility.yul\":2947:2969   */\n      0xffffffffffffffffffff\n        /* \"#utility.yul\":2940:2945   */\n      dup3\n        /* \"#utility.yul\":2936:2970   */\n      and\n        /* \"#utility.yul\":2925:2970   */\n      swap1\n      pop\n        /* \"#utility.yul\":2871:2976   */\n      swap2\n      swap1\n      pop\n      jump\t// out\n        /* \"#utility.yul\":2982:3102   */\n    tag_117:\n        /* \"#utility.yul\":3054:3077   */\n      tag_177\n        /* \"#utility.yul\":3071:3076   */\n      dup2\n        /* \"#utility.yul\":3054:3077   */\n      tag_116\n      jump\t// in\n    tag_177:\n        /* \"#utility.yul\":3047:3052   */\n      dup2\n        /* \"#utility.yul\":3044:3078   */\n      eq\n        /* \"#utility.yul\":3034:3096   */\n      tag_178\n      jumpi\n        /* \"#utility.yul\":3092:3093   */\n      0x00\n        /* \"#utility.yul\":3089:3090   */\n      dup1\n        /* \"#utility.yul\":3082:3094   */\n      revert\n        /* \"#utility.yul\":3034:3096   */\n    tag_178:\n        /* \"#utility.yul\":2982:3102   */\n      pop\n      jump\t// out\n        /* \"#utility.yul\":3108:3249   */\n    tag_118:\n        /* \"#utility.yul\":3164:3169   */\n      0x00\n        /* \"#utility.yul\":3195:3201   */\n      dup2\n        /* \"#utility.yul\":3189:3202   */\n      mload\n        /* \"#utility.yul\":3180:3202   */\n      swap1\n      pop\n        /* \"#utility.yul\":3211:3243   */\n      tag_180\n        /* \"#utility.yul\":3237:3242   */\n      dup2\n        /* \"#utility.yul\":3211:3243   */\n      tag_117\n      jump\t// in\n    tag_180:\n        /* \"#utility.yul\":3108:3249   */\n      swap3\n      swap2\n      pop\n      pop\n      jump\t// out\n        /* \"#utility.yul\":3255:3331   */\n    tag_119:\n        /* \"#utility.yul\":3291:3298   */\n      0x00\n        /* \"#utility.yul\":3320:3325   */\n      dup2\n        /* \"#utility.yul\":3309:3325   */\n      swap1\n      pop\n        /* \"#utility.yul\":3255:3331   */\n      swap2\n      swap1\n      pop\n      jump\t// out\n        /* \"#utility.yul\":3337:3457   */\n    tag_120:\n        /* \"#utility.yul\":3409:3432   */\n      tag_183\n        /* \"#utility.yul\":3426:3431   */\n      dup2\n        /* \"#utility.yul\":3409:3432   */\n      tag_119\n      jump\t// in\n    tag_183:\n        /* \"#utility.yul\":3402:3407   */\n      dup2\n        /* \"#utility.yul\":3399:3433   */\n      eq\n        /* \"#utility.yul\":3389:3451   */\n      tag_184\n      jumpi\n        /* \"#utility.yul\":3447:3448   */\n      0x00\n        /* \"#utility.yul\":3444:3445   */\n      dup1\n        /* \"#utility.yul\":3437:3449   */\n      revert\n        /* \"#utility.yul\":3389:3451   */\n    tag_184:\n        /* \"#utility.yul\":3337:3457   */\n      pop\n      jump\t// out\n        /* \"#utility.yul\":3463:3604   */\n    tag_121:\n        /* \"#utility.yul\":3519:3524   */\n      0x00\n        /* \"#utility.yul\":3550:3556   */\n      dup2\n        /* \"#utility.yul\":3544:3557   */\n      mload\n        /* \"#utility.yul\":3535:3557   */\n      swap1\n      pop\n        /* \"#utility.yul\":3566:3598   */\n      tag_186\n        /* \"#utility.yul\":3592:3597   */\n      dup2\n        /* \"#utility.yul\":3566:3598   */\n      tag_120\n      jump\t// in\n    tag_186:\n        /* \"#utility.yul\":3463:3604   */\n      swap3\n      swap2\n      pop\n      pop\n      jump\t// out\n        /* \"#utility.yul\":3610:3753   */\n    tag_122:\n        /* \"#utility.yul\":3667:3672   */\n      0x00\n        /* \"#utility.yul\":3698:3704   */\n      dup2\n        /* \"#utility.yul\":3692:3705   */\n      mload\n        /* \"#utility.yul\":3683:3705   */\n      swap1\n      pop\n        /* \"#utility.yul\":3714:3747   */\n      tag_188\n        /* \"#utility.yul\":3741:3746   */\n      dup2\n        /* \"#utility.yul\":3714:3747   */\n      tag_109\n      jump\t// in\n    tag_188:\n        /* \"#utility.yul\":3610:3753   */\n      swap3\n      swap2\n      pop\n      pop\n      jump\t// out\n        /* \"#utility.yul\":3759:4730   */\n    tag_48:\n        /* \"#utility.yul\":3862:3868   */\n      0x00\n        /* \"#utility.yul\":3870:3876   */\n      dup1\n        /* \"#utility.yul\":3878:3884   */\n      0x00\n        /* \"#utility.yul\":3886:3892   */\n      dup1\n        /* \"#utility.yul\":3894:3900   */\n      0x00\n        /* \"#utility.yul\":3943:3946   */\n      0xa0\n        /* \"#utility.yul\":3931:3940   */\n      dup7\n        /* \"#utility.yul\":3922:3929   */\n      dup9\n        /* \"#utility.yul\":3918:3941   */\n      sub\n        /* \"#utility.yul\":3914:3947   */\n      slt\n        /* \"#utility.yul\":3911:4031   */\n      iszero\n      tag_190\n      jumpi\n        /* \"#utility.yul\":3950:4029   */\n      tag_191\n      tag_107\n      jump\t// in\n    tag_191:\n        /* \"#utility.yul\":3911:4031   */\n    tag_190:\n        /* \"#utility.yul\":4070:4071   */\n      0x00\n        /* \"#utility.yul\":4095:4158   */\n      tag_192\n        /* \"#utility.yul\":4150:4157   */\n      dup9\n        /* \"#utility.yul\":4141:4147   */\n      dup3\n        /* \"#utility.yul\":4130:4139   */\n      dup10\n        /* \"#utility.yul\":4126:4148   */\n      add\n        /* \"#utility.yul\":4095:4158   */\n      tag_118\n      jump\t// in\n    tag_192:\n        /* \"#utility.yul\":4085:4158   */\n      swap6\n      pop\n        /* \"#utility.yul\":4041:4168   */\n      pop\n        /* \"#utility.yul\":4207:4209   */\n      0x20\n        /* \"#utility.yul\":4233:4296   */\n      tag_193\n        /* \"#utility.yul\":4288:4295   */\n      dup9\n        /* \"#utility.yul\":4279:4285   */\n      dup3\n        /* \"#utility.yul\":4268:4277   */\n      dup10\n        /* \"#utility.yul\":4264:4286   */\n      add\n        /* \"#utility.yul\":4233:4296   */\n      tag_121\n      jump\t// in\n    tag_193:\n        /* \"#utility.yul\":4223:4296   */\n      swap5\n      pop\n        /* \"#utility.yul\":4178:4306   */\n      pop\n        /* \"#utility.yul\":4345:4347   */\n      0x40\n        /* \"#utility.yul\":4371:4435   */\n      tag_194\n        /* \"#utility.yul\":4427:4434   */\n      dup9\n        /* \"#utility.yul\":4418:4424   */\n      dup3\n        /* \"#utility.yul\":4407:4416   */\n      dup10\n        /* \"#utility.yul\":4403:4425   */\n      add\n        /* \"#utility.yul\":4371:4435   */\n      tag_122\n      jump\t// in\n    tag_194:\n        /* \"#utility.yul\":4361:4435   */\n      swap4\n      pop\n        /* \"#utility.yul\":4316:4445   */\n      pop\n        /* \"#utility.yul\":4484:4486   */\n      0x60\n        /* \"#utility.yul\":4510:4574   */\n      tag_195\n        /* \"#utility.yul\":4566:4573   */\n      dup9\n        /* \"#utility.yul\":4557:4563   */\n      dup3\n        /* \"#utility.yul\":4546:4555   */\n      dup10\n        /* \"#utility.yul\":4542:4564   */\n      add\n        /* \"#utility.yul\":4510:4574   */\n      tag_122\n      jump\t// in\n    tag_195:\n        /* \"#utility.yul\":4500:4574   */\n      swap3\n      pop\n        /* \"#utility.yul\":4455:4584   */\n      pop\n        /* \"#utility.yul\":4623:4626   */\n      0x80\n        /* \"#utility.yul\":4650:4713   */\n      tag_196\n        /* \"#utility.yul\":4705:4712   */\n      dup9\n        /* \"#utility.yul\":4696:4702   */\n      dup3\n        /* \"#utility.yul\":4685:4694   */\n      dup10\n        /* \"#utility.yul\":4681:4703   */\n      add\n        /* \"#utility.yul\":4650:4713   */\n      tag_118\n      jump\t// in\n    tag_196:\n        /* \"#utility.yul\":4640:4713   */\n      swap2\n      pop\n        /* \"#utility.yul\":4594:4723   */\n      pop\n        /* \"#utility.yul\":3759:4730   */\n      swap3\n      swap6\n      pop\n      swap3\n      swap6\n      swap1\n      swap4\n      pop\n      jump\t// out\n        /* \"#utility.yul\":4736:4905   */\n    tag_123:\n        /* \"#utility.yul\":4820:4831   */\n      0x00\n        /* \"#utility.yul\":4854:4860   */\n      dup3\n        /* \"#utility.yul\":4849:4852   */\n      dup3\n        /* \"#utility.yul\":4842:4861   */\n      mstore\n        /* \"#utility.yul\":4894:4898   */\n      0x20\n        /* \"#utility.yul\":4889:4892   */\n      dup3\n        /* \"#utility.yul\":4885:4899   */\n      add\n        /* \"#utility.yul\":4870:4899   */\n      swap1\n      pop\n        /* \"#utility.yul\":4736:4905   */\n      swap3\n      swap2\n      pop\n      pop\n      jump\t// out\n        /* \"#utility.yul\":4911:5146   */\n    tag_124:\n        /* \"#utility.yul\":5051:5085   */\n      0x4f6e6c792074686520636f6e74726163742063726561746f722063616e206361\n        /* \"#utility.yul\":5047:5048   */\n      0x00\n        /* \"#utility.yul\":5039:5045   */\n      dup3\n        /* \"#utility.yul\":5035:5049   */\n      add\n        /* \"#utility.yul\":5028:5086   */\n      mstore\n        /* \"#utility.yul\":5120:5138   */\n      0x6c6c20746869732066756e6374696f6e00000000000000000000000000000000\n        /* \"#utility.yul\":5115:5117   */\n      0x20\n        /* \"#utility.yul\":5107:5113   */\n      dup3\n        /* \"#utility.yul\":5103:5118   */\n      add\n        /* \"#utility.yul\":5096:5139   */\n      mstore\n        /* \"#utility.yul\":4911:5146   */\n      pop\n      jump\t// out\n        /* \"#utility.yul\":5152:5518   */\n    tag_125:\n        /* \"#utility.yul\":5294:5297   */\n      0x00\n        /* \"#utility.yul\":5315:5382   */\n      tag_200\n        /* \"#utility.yul\":5379:5381   */\n      0x30\n        /* \"#utility.yul\":5374:5377   */\n      dup4\n        /* \"#utility.yul\":5315:5382   */\n      tag_123\n      jump\t// in\n    tag_200:\n        /* \"#utility.yul\":5308:5382   */\n      swap2\n      pop\n        /* \"#utility.yul\":5391:5484   */\n      tag_201\n        /* \"#utility.yul\":5480:5483   */\n      dup3\n        /* \"#utility.yul\":5391:5484   */\n      tag_124\n      jump\t// in\n    tag_201:\n        /* \"#utility.yul\":5509:5511   */\n      0x40\n        /* \"#utility.yul\":5504:5507   */\n      dup3\n        /* \"#utility.yul\":5500:5512   */\n      add\n        /* \"#utility.yul\":5493:5512   */\n      swap1\n      pop\n        /* \"#utility.yul\":5152:5518   */\n      swap2\n      swap1\n      pop\n      jump\t// out\n        /* \"#utility.yul\":5524:5943   */\n    tag_52:\n        /* \"#utility.yul\":5690:5694   */\n      0x00\n        /* \"#utility.yul\":5728:5730   */\n      0x20\n        /* \"#utility.yul\":5717:5726   */\n      dup3\n        /* \"#utility.yul\":5713:5731   */\n      add\n        /* \"#utility.yul\":5705:5731   */\n      swap1\n      pop\n        /* \"#utility.yul\":5777:5786   */\n      dup2\n        /* \"#utility.yul\":5771:5775   */\n      dup2\n        /* \"#utility.yul\":5767:5787   */\n      sub\n        /* \"#utility.yul\":5763:5764   */\n      0x00\n        /* \"#utility.yul\":5752:5761   */\n      dup4\n        /* \"#utility.yul\":5748:5765   */\n      add\n        /* \"#utility.yul\":5741:5788   */\n      mstore\n        /* \"#utility.yul\":5805:5936   */\n      tag_203\n        /* \"#utility.yul\":5931:5935   */\n      dup2\n        /* \"#utility.yul\":5805:5936   */\n      tag_125\n      jump\t// in\n    tag_203:\n        /* \"#utility.yul\":5797:5936   */\n      swap1\n      pop\n        /* \"#utility.yul\":5524:5943   */\n      swap2\n      swap1\n      pop\n      jump\t// out\n        /* \"#utility.yul\":5949:6300   */\n    tag_60:\n        /* \"#utility.yul\":6019:6025   */\n      0x00\n        /* \"#utility.yul\":6068:6070   */\n      0x20\n        /* \"#utility.yul\":6056:6065   */\n      dup3\n        /* \"#utility.yul\":6047:6054   */\n      dup5\n        /* \"#utility.yul\":6043:6066   */\n      sub\n        /* \"#utility.yul\":6039:6071   */\n      slt\n        /* \"#utility.yul\":6036:6155   */\n      iszero\n      tag_205\n      jumpi\n        /* \"#utility.yul\":6074:6153   */\n      tag_206\n      tag_107\n      jump\t// in\n    tag_206:\n        /* \"#utility.yul\":6036:6155   */\n    tag_205:\n        /* \"#utility.yul\":6194:6195   */\n      0x00\n        /* \"#utility.yul\":6219:6283   */\n      tag_207\n        /* \"#utility.yul\":6275:6282   */\n      dup5\n        /* \"#utility.yul\":6266:6272   */\n      dup3\n        /* \"#utility.yul\":6255:6264   */\n      dup6\n        /* \"#utility.yul\":6251:6273   */\n      add\n        /* \"#utility.yul\":6219:6283   */\n      tag_122\n      jump\t// in\n    tag_207:\n        /* \"#utility.yul\":6209:6283   */\n      swap2\n      pop\n        /* \"#utility.yul\":6165:6293   */\n      pop\n        /* \"#utility.yul\":5949:6300   */\n      swap3\n      swap2\n      pop\n      pop\n      jump\t// out\n        /* \"#utility.yul\":6306:6482   */\n    tag_126:\n        /* \"#utility.yul\":6446:6474   */\n      0x4e6f7420656e6f75676820746f6b656e7320746f207370656e64000000000000\n        /* \"#utility.yul\":6442:6443   */\n      0x00\n        /* \"#utility.yul\":6434:6440   */\n      dup3\n        /* \"#utility.yul\":6430:6444   */\n      add\n        /* \"#utility.yul\":6423:6475   */\n      mstore\n        /* \"#utility.yul\":6306:6482   */\n      pop\n      jump\t// out\n        /* \"#utility.yul\":6488:6854   */\n    tag_127:\n        /* \"#utility.yul\":6630:6633   */\n      0x00\n        /* \"#utility.yul\":6651:6718   */\n      tag_210\n        /* \"#utility.yul\":6715:6717   */\n      0x1a\n        /* \"#utility.yul\":6710:6713   */\n      dup4\n        /* \"#utility.yul\":6651:6718   */\n      tag_123\n      jump\t// in\n    tag_210:\n        /* \"#utility.yul\":6644:6718   */\n      swap2\n      pop\n        /* \"#utility.yul\":6727:6820   */\n      tag_211\n        /* \"#utility.yul\":6816:6819   */\n      dup3\n        /* \"#utility.yul\":6727:6820   */\n      tag_126\n      jump\t// in\n    tag_211:\n        /* \"#utility.yul\":6845:6847   */\n      0x20\n        /* \"#utility.yul\":6840:6843   */\n      dup3\n        /* \"#utility.yul\":6836:6848   */\n      add\n        /* \"#utility.yul\":6829:6848   */\n      swap1\n      pop\n        /* \"#utility.yul\":6488:6854   */\n      swap2\n      swap1\n      pop\n      jump\t// out\n        /* \"#utility.yul\":6860:7279   */\n    tag_63:\n        /* \"#utility.yul\":7026:7030   */\n      0x00\n        /* \"#utility.yul\":7064:7066   */\n      0x20\n        /* \"#utility.yul\":7053:7062   */\n      dup3\n        /* \"#utility.yul\":7049:7067   */\n      add\n        /* \"#utility.yul\":7041:7067   */\n      swap1\n      pop\n        /* \"#utility.yul\":7113:7122   */\n      dup2\n        /* \"#utility.yul\":7107:7111   */\n      dup2\n        /* \"#utility.yul\":7103:7123   */\n      sub\n        /* \"#utility.yul\":7099:7100   */\n      0x00\n        /* \"#utility.yul\":7088:7097   */\n      dup4\n        /* \"#utility.yul\":7084:7101   */\n      add\n        /* \"#utility.yul\":7077:7124   */\n      mstore\n        /* \"#utility.yul\":7141:7272   */\n      tag_213\n        /* \"#utility.yul\":7267:7271   */\n      dup2\n        /* \"#utility.yul\":7141:7272   */\n      tag_127\n      jump\t// in\n    tag_213:\n        /* \"#utility.yul\":7133:7272   */\n      swap1\n      pop\n        /* \"#utility.yul\":6860:7279   */\n      swap2\n      swap1\n      pop\n      jump\t// out\n        /* \"#utility.yul\":7285:7465   */\n    tag_128:\n        /* \"#utility.yul\":7333:7410   */\n      0x4e487b7100000000000000000000000000000000000000000000000000000000\n        /* \"#utility.yul\":7330:7331   */\n      0x00\n        /* \"#utility.yul\":7323:7411   */\n      mstore\n        /* \"#utility.yul\":7430:7434   */\n      0x11\n        /* \"#utility.yul\":7427:7428   */\n      0x04\n        /* \"#utility.yul\":7420:7435   */\n      mstore\n        /* \"#utility.yul\":7454:7458   */\n      0x24\n        /* \"#utility.yul\":7451:7452   */\n      0x00\n        /* \"#utility.yul\":7444:7459   */\n      revert\n        /* \"#utility.yul\":7471:7881   */\n    tag_66:\n        /* \"#utility.yul\":7511:7518   */\n      0x00\n        /* \"#utility.yul\":7534:7554   */\n      tag_216\n        /* \"#utility.yul\":7552:7553   */\n      dup3\n        /* \"#utility.yul\":7534:7554   */\n      tag_104\n      jump\t// in\n    tag_216:\n        /* \"#utility.yul\":7529:7554   */\n      swap2\n      pop\n        /* \"#utility.yul\":7568:7588   */\n      tag_217\n        /* \"#utility.yul\":7586:7587   */\n      dup4\n        /* \"#utility.yul\":7568:7588   */\n      tag_104\n      jump\t// in\n    tag_217:\n        /* \"#utility.yul\":7563:7588   */\n      swap3\n      pop\n        /* \"#utility.yul\":7623:7624   */\n      dup3\n        /* \"#utility.yul\":7620:7621   */\n      dup3\n        /* \"#utility.yul\":7616:7625   */\n      mul\n        /* \"#utility.yul\":7645:7675   */\n      tag_218\n        /* \"#utility.yul\":7663:7674   */\n      dup2\n        /* \"#utility.yul\":7645:7675   */\n      tag_104\n      jump\t// in\n    tag_218:\n        /* \"#utility.yul\":7634:7675   */\n      swap2\n      pop\n        /* \"#utility.yul\":7824:7825   */\n      dup3\n        /* \"#utility.yul\":7815:7822   */\n      dup3\n        /* \"#utility.yul\":7811:7826   */\n      div\n        /* \"#utility.yul\":7808:7809   */\n      dup5\n        /* \"#utility.yul\":7805:7827   */\n      eq\n        /* \"#utility.yul\":7785:7786   */\n      dup4\n        /* \"#utility.yul\":7778:7787   */\n      iszero\n        /* \"#utility.yul\":7758:7841   */\n      or\n        /* \"#utility.yul\":7735:7874   */\n      tag_219\n      jumpi\n        /* \"#utility.yul\":7854:7872   */\n      tag_220\n      tag_128\n      jump\t// in\n    tag_220:\n        /* \"#utility.yul\":7735:7874   */\n    tag_219:\n        /* \"#utility.yul\":7519:7881   */\n      pop\n        /* \"#utility.yul\":7471:7881   */\n      swap3\n      swap2\n      pop\n      pop\n      jump\t// out\n        /* \"#utility.yul\":7887:8067   */\n    tag_129:\n        /* \"#utility.yul\":7935:8012   */\n      0x4e487b7100000000000000000000000000000000000000000000000000000000\n        /* \"#utility.yul\":7932:7933   */\n      0x00\n        /* \"#utility.yul\":7925:8013   */\n      mstore\n        /* \"#utility.yul\":8032:8036   */\n      0x12\n        /* \"#utility.yul\":8029:8030   */\n      0x04\n        /* \"#utility.yul\":8022:8037   */\n      mstore\n        /* \"#utility.yul\":8056:8060   */\n      0x24\n        /* \"#utility.yul\":8053:8054   */\n      0x00\n        /* \"#utility.yul\":8046:8061   */\n      revert\n        /* \"#utility.yul\":8073:8258   */\n    tag_68:\n        /* \"#utility.yul\":8113:8114   */\n      0x00\n        /* \"#utility.yul\":8130:8150   */\n      tag_223\n        /* \"#utility.yul\":8148:8149   */\n      dup3\n        /* \"#utility.yul\":8130:8150   */\n      tag_104\n      jump\t// in\n    tag_223:\n        /* \"#utility.yul\":8125:8150   */\n      swap2\n      pop\n        /* \"#utility.yul\":8164:8184   */\n      tag_224\n        /* \"#utility.yul\":8182:8183   */\n      dup4\n        /* \"#utility.yul\":8164:8184   */\n      tag_104\n      jump\t// in\n    tag_224:\n        /* \"#utility.yul\":8159:8184   */\n      swap3\n      pop\n        /* \"#utility.yul\":8203:8204   */\n      dup3\n        /* \"#utility.yul\":8193:8228   */\n      tag_225\n      jumpi\n        /* \"#utility.yul\":8208:8226   */\n      tag_226\n      tag_129\n      jump\t// in\n    tag_226:\n        /* \"#utility.yul\":8193:8228   */\n    tag_225:\n        /* \"#utility.yul\":8250:8251   */\n      dup3\n        /* \"#utility.yul\":8247:8248   */\n      dup3\n        /* \"#utility.yul\":8243:8252   */\n      div\n        /* \"#utility.yul\":8238:8252   */\n      swap1\n      pop\n        /* \"#utility.yul\":8073:8258   */\n      swap3\n      swap2\n      pop\n      pop\n      jump\t// out\n        /* \"#utility.yul\":8264:8440   */\n    tag_130:\n        /* \"#utility.yul\":8404:8432   */\n      0x4e6f7420656e6f7567682045544820696e2074686520706f6f6c000000000000\n        /* \"#utility.yul\":8400:8401   */\n      0x00\n        /* \"#utility.yul\":8392:8398   */\n      dup3\n        /* \"#utility.yul\":8388:8402   */\n      add\n        /* \"#utility.yul\":8381:8433   */\n      mstore\n        /* \"#utility.yul\":8264:8440   */\n      pop\n      jump\t// out\n        /* \"#utility.yul\":8446:8812   */\n    tag_131:\n        /* \"#utility.yul\":8588:8591   */\n      0x00\n        /* \"#utility.yul\":8609:8676   */\n      tag_229\n        /* \"#utility.yul\":8673:8675   */\n      0x1a\n        /* \"#utility.yul\":8668:8671   */\n      dup4\n        /* \"#utility.yul\":8609:8676   */\n      tag_123\n      jump\t// in\n    tag_229:\n        /* \"#utility.yul\":8602:8676   */\n      swap2\n      pop\n        /* \"#utility.yul\":8685:8778   */\n      tag_230\n        /* \"#utility.yul\":8774:8777   */\n      dup3\n        /* \"#utility.yul\":8685:8778   */\n      tag_130\n      jump\t// in\n    tag_230:\n        /* \"#utility.yul\":8803:8805   */\n      0x20\n        /* \"#utility.yul\":8798:8801   */\n      dup3\n        /* \"#utility.yul\":8794:8806   */\n      add\n        /* \"#utility.yul\":8787:8806   */\n      swap1\n      pop\n        /* \"#utility.yul\":8446:8812   */\n      swap2\n      swap1\n      pop\n      jump\t// out\n        /* \"#utility.yul\":8818:9237   */\n    tag_71:\n        /* \"#utility.yul\":8984:8988   */\n      0x00\n        /* \"#utility.yul\":9022:9024   */\n      0x20\n        /* \"#utility.yul\":9011:9020   */\n      dup3\n        /* \"#utility.yul\":9007:9025   */\n      add\n        /* \"#utility.yul\":8999:9025   */\n      swap1\n      pop\n        /* \"#utility.yul\":9071:9080   */\n      dup2\n        /* \"#utility.yul\":9065:9069   */\n      dup2\n        /* \"#utility.yul\":9061:9081   */\n      sub\n        /* \"#utility.yul\":9057:9058   */\n      0x00\n        /* \"#utility.yul\":9046:9055   */\n      dup4\n        /* \"#utility.yul\":9042:9059   */\n      add\n        /* \"#utility.yul\":9035:9082   */\n      mstore\n        /* \"#utility.yul\":9099:9230   */\n      tag_232\n        /* \"#utility.yul\":9225:9229   */\n      dup2\n        /* \"#utility.yul\":9099:9230   */\n      tag_131\n      jump\t// in\n    tag_232:\n        /* \"#utility.yul\":9091:9230   */\n      swap1\n      pop\n        /* \"#utility.yul\":8818:9237   */\n      swap2\n      swap1\n      pop\n      jump\t// out\n        /* \"#utility.yul\":9243:9437   */\n    tag_73:\n        /* \"#utility.yul\":9283:9287   */\n      0x00\n        /* \"#utility.yul\":9303:9323   */\n      tag_234\n        /* \"#utility.yul\":9321:9322   */\n      dup3\n        /* \"#utility.yul\":9303:9323   */\n      tag_104\n      jump\t// in\n    tag_234:\n        /* \"#utility.yul\":9298:9323   */\n      swap2\n      pop\n        /* \"#utility.yul\":9337:9357   */\n      tag_235\n        /* \"#utility.yul\":9355:9356   */\n      dup4\n        /* \"#utility.yul\":9337:9357   */\n      tag_104\n      jump\t// in\n    tag_235:\n        /* \"#utility.yul\":9332:9357   */\n      swap3\n      pop\n        /* \"#utility.yul\":9381:9382   */\n      dup3\n        /* \"#utility.yul\":9378:9379   */\n      dup3\n        /* \"#utility.yul\":9374:9383   */\n      sub\n        /* \"#utility.yul\":9366:9383   */\n      swap1\n      pop\n        /* \"#utility.yul\":9405:9406   */\n      dup2\n        /* \"#utility.yul\":9399:9403   */\n      dup2\n        /* \"#utility.yul\":9396:9407   */\n      gt\n        /* \"#utility.yul\":9393:9430   */\n      iszero\n      tag_236\n      jumpi\n        /* \"#utility.yul\":9410:9428   */\n      tag_237\n      tag_128\n      jump\t// in\n    tag_237:\n        /* \"#utility.yul\":9393:9430   */\n    tag_236:\n        /* \"#utility.yul\":9243:9437   */\n      swap3\n      swap2\n      pop\n      pop\n      jump\t// out\n        /* \"#utility.yul\":9443:9634   */\n    tag_75:\n        /* \"#utility.yul\":9483:9486   */\n      0x00\n        /* \"#utility.yul\":9502:9522   */\n      tag_239\n        /* \"#utility.yul\":9520:9521   */\n      dup3\n        /* \"#utility.yul\":9502:9522   */\n      tag_104\n      jump\t// in\n    tag_239:\n        /* \"#utility.yul\":9497:9522   */\n      swap2\n      pop\n        /* \"#utility.yul\":9536:9556   */\n      tag_240\n        /* \"#utility.yul\":9554:9555   */\n      dup4\n        /* \"#utility.yul\":9536:9556   */\n      tag_104\n      jump\t// in\n    tag_240:\n        /* \"#utility.yul\":9531:9556   */\n      swap3\n      pop\n        /* \"#utility.yul\":9579:9580   */\n      dup3\n        /* \"#utility.yul\":9576:9577   */\n      dup3\n        /* \"#utility.yul\":9572:9581   */\n      add\n        /* \"#utility.yul\":9565:9581   */\n      swap1\n      pop\n        /* \"#utility.yul\":9600:9603   */\n      dup1\n        /* \"#utility.yul\":9597:9598   */\n      dup3\n        /* \"#utility.yul\":9594:9604   */\n      gt\n        /* \"#utility.yul\":9591:9627   */\n      iszero\n      tag_241\n      jumpi\n        /* \"#utility.yul\":9607:9625   */\n      tag_242\n      tag_128\n      jump\t// in\n    tag_242:\n        /* \"#utility.yul\":9591:9627   */\n    tag_241:\n        /* \"#utility.yul\":9443:9634   */\n      swap3\n      swap2\n      pop\n      pop\n      jump\t// out\n        /* \"#utility.yul\":9640:10082   */\n    tag_77:\n        /* \"#utility.yul\":9789:9793   */\n      0x00\n        /* \"#utility.yul\":9827:9829   */\n      0x60\n        /* \"#utility.yul\":9816:9825   */\n      dup3\n        /* \"#utility.yul\":9812:9830   */\n      add\n        /* \"#utility.yul\":9804:9830   */\n      swap1\n      pop\n        /* \"#utility.yul\":9840:9911   */\n      tag_244\n        /* \"#utility.yul\":9908:9909   */\n      0x00\n        /* \"#utility.yul\":9897:9906   */\n      dup4\n        /* \"#utility.yul\":9893:9910   */\n      add\n        /* \"#utility.yul\":9884:9890   */\n      dup7\n        /* \"#utility.yul\":9840:9911   */\n      tag_103\n      jump\t// in\n    tag_244:\n        /* \"#utility.yul\":9921:9993   */\n      tag_245\n        /* \"#utility.yul\":9989:9991   */\n      0x20\n        /* \"#utility.yul\":9978:9987   */\n      dup4\n        /* \"#utility.yul\":9974:9992   */\n      add\n        /* \"#utility.yul\":9965:9971   */\n      dup6\n        /* \"#utility.yul\":9921:9993   */\n      tag_103\n      jump\t// in\n    tag_245:\n        /* \"#utility.yul\":10003:10075   */\n      tag_246\n        /* \"#utility.yul\":10071:10073   */\n      0x40\n        /* \"#utility.yul\":10060:10069   */\n      dup4\n        /* \"#utility.yul\":10056:10074   */\n      add\n        /* \"#utility.yul\":10047:10053   */\n      dup5\n        /* \"#utility.yul\":10003:10075   */\n      tag_105\n      jump\t// in\n    tag_246:\n        /* \"#utility.yul\":9640:10082   */\n      swap5\n      swap4\n      pop\n      pop\n      pop\n      pop\n      jump\t// out\n        /* \"#utility.yul\":10088:10178   */\n    tag_132:\n        /* \"#utility.yul\":10122:10129   */\n      0x00\n        /* \"#utility.yul\":10165:10170   */\n      dup2\n        /* \"#utility.yul\":10158:10171   */\n      iszero\n        /* \"#utility.yul\":10151:10172   */\n      iszero\n        /* \"#utility.yul\":10140:10172   */\n      swap1\n      pop\n        /* \"#utility.yul\":10088:10178   */\n      swap2\n      swap1\n      pop\n      jump\t// out\n        /* \"#utility.yul\":10184:10300   */\n    tag_133:\n        /* \"#utility.yul\":10254:10275   */\n      tag_249\n        /* \"#utility.yul\":10269:10274   */\n      dup2\n        /* \"#utility.yul\":10254:10275   */\n      tag_132\n      jump\t// in\n    tag_249:\n        /* \"#utility.yul\":10247:10252   */\n      dup2\n        /* \"#utility.yul\":10244:10276   */\n      eq\n        /* \"#utility.yul\":10234:10294   */\n      tag_250\n      jumpi\n        /* \"#utility.yul\":10290:10291   */\n      0x00\n        /* \"#utility.yul\":10287:10288   */\n      dup1\n        /* \"#utility.yul\":10280:10292   */\n      revert\n        /* \"#utility.yul\":10234:10294   */\n    tag_250:\n        /* \"#utility.yul\":10184:10300   */\n      pop\n      jump\t// out\n        /* \"#utility.yul\":10306:10443   */\n    tag_134:\n        /* \"#utility.yul\":10360:10365   */\n      0x00\n        /* \"#utility.yul\":10391:10397   */\n      dup2\n        /* \"#utility.yul\":10385:10398   */\n      mload\n        /* \"#utility.yul\":10376:10398   */\n      swap1\n      pop\n        /* \"#utility.yul\":10407:10437   */\n      tag_252\n        /* \"#utility.yul\":10431:10436   */\n      dup2\n        /* \"#utility.yul\":10407:10437   */\n      tag_133\n      jump\t// in\n    tag_252:\n        /* \"#utility.yul\":10306:10443   */\n      swap3\n      swap2\n      pop\n      pop\n      jump\t// out\n        /* \"#utility.yul\":10449:10794   */\n    tag_81:\n        /* \"#utility.yul\":10516:10522   */\n      0x00\n        /* \"#utility.yul\":10565:10567   */\n      0x20\n        /* \"#utility.yul\":10553:10562   */\n      dup3\n        /* \"#utility.yul\":10544:10551   */\n      dup5\n        /* \"#utility.yul\":10540:10563   */\n      sub\n        /* \"#utility.yul\":10536:10568   */\n      slt\n        /* \"#utility.yul\":10533:10652   */\n      iszero\n      tag_254\n      jumpi\n        /* \"#utility.yul\":10571:10650   */\n      tag_255\n      tag_107\n      jump\t// in\n    tag_255:\n        /* \"#utility.yul\":10533:10652   */\n    tag_254:\n        /* \"#utility.yul\":10691:10692   */\n      0x00\n        /* \"#utility.yul\":10716:10777   */\n      tag_256\n        /* \"#utility.yul\":10769:10776   */\n      dup5\n        /* \"#utility.yul\":10760:10766   */\n      dup3\n        /* \"#utility.yul\":10749:10758   */\n      dup6\n        /* \"#utility.yul\":10745:10767   */\n      add\n        /* \"#utility.yul\":10716:10777   */\n      tag_134\n      jump\t// in\n    tag_256:\n        /* \"#utility.yul\":10706:10777   */\n      swap2\n      pop\n        /* \"#utility.yul\":10662:10787   */\n      pop\n        /* \"#utility.yul\":10449:10794   */\n      swap3\n      swap2\n      pop\n      pop\n      jump\t// out\n        /* \"#utility.yul\":10800:10979   */\n    tag_135:\n        /* \"#utility.yul\":10940:10971   */\n      0x4e6f7420656e6f75676820746f6b656e7320696e2074686520706f6f6c000000\n        /* \"#utility.yul\":10936:10937   */\n      0x00\n        /* \"#utility.yul\":10928:10934   */\n      dup3\n        /* \"#utility.yul\":10924:10938   */\n      add\n        /* \"#utility.yul\":10917:10972   */\n      mstore\n        /* \"#utility.yul\":10800:10979   */\n      pop\n      jump\t// out\n        /* \"#utility.yul\":10985:11351   */\n    tag_136:\n        /* \"#utility.yul\":11127:11130   */\n      0x00\n        /* \"#utility.yul\":11148:11215   */\n      tag_259\n        /* \"#utility.yul\":11212:11214   */\n      0x1d\n        /* \"#utility.yul\":11207:11210   */\n      dup4\n        /* \"#utility.yul\":11148:11215   */\n      tag_123\n      jump\t// in\n    tag_259:\n        /* \"#utility.yul\":11141:11215   */\n      swap2\n      pop\n        /* \"#utility.yul\":11224:11317   */\n      tag_260\n        /* \"#utility.yul\":11313:11316   */\n      dup3\n        /* \"#utility.yul\":11224:11317   */\n      tag_135\n      jump\t// in\n    tag_260:\n        /* \"#utility.yul\":11342:11344   */\n      0x20\n        /* \"#utility.yul\":11337:11340   */\n      dup3\n        /* \"#utility.yul\":11333:11345   */\n      add\n        /* \"#utility.yul\":11326:11345   */\n      swap1\n      pop\n        /* \"#utility.yul\":10985:11351   */\n      swap2\n      swap1\n      pop\n      jump\t// out\n        /* \"#utility.yul\":11357:11776   */\n    tag_94:\n        /* \"#utility.yul\":11523:11527   */\n      0x00\n        /* \"#utility.yul\":11561:11563   */\n      0x20\n        /* \"#utility.yul\":11550:11559   */\n      dup3\n        /* \"#utility.yul\":11546:11564   */\n      add\n        /* \"#utility.yul\":11538:11564   */\n      swap1\n      pop\n        /* \"#utility.yul\":11610:11619   */\n      dup2\n        /* \"#utility.yul\":11604:11608   */\n      dup2\n        /* \"#utility.yul\":11600:11620   */\n      sub\n        /* \"#utility.yul\":11596:11597   */\n      0x00\n        /* \"#utility.yul\":11585:11594   */\n      dup4\n        /* \"#utility.yul\":11581:11598   */\n      add\n        /* \"#utility.yul\":11574:11621   */\n      mstore\n        /* \"#utility.yul\":11638:11769   */\n      tag_262\n        /* \"#utility.yul\":11764:11768   */\n      dup2\n        /* \"#utility.yul\":11638:11769   */\n      tag_136\n      jump\t// in\n    tag_262:\n        /* \"#utility.yul\":11630:11769   */\n      swap1\n      pop\n        /* \"#utility.yul\":11357:11776   */\n      swap2\n      swap1\n      pop\n      jump\t// out\n\n    auxdata: 0xa2646970667358221220df454691a79715c87ab30dd25c570136f9937ce9f45a06c03b2b413a9a7de70864736f6c63430008120033\n}\n",
				"bytecode": {
					"linkReferences": {},
					"object": "608060405273ae6b0f75b55fa4c90b2768e3157b7000241a41c5600360006101000a81548173ffffffffffffffffffffffffffffffffffffffff021916908373ffffffffffffffffffffffffffffffffffffffff16021790555073d4a33860578de61dbabdc8bfdb98fd742fa7028e600460006101000a81548173ffffffffffffffffffffffffffffffffffffffff021916908373ffffffffffffffffffffffffffffffffffffffff16021790555034600081905550600360009054906101000a900473ffffffffffffffffffffffffffffffffffffffff1673ffffffffffffffffffffffffffffffffffffffff1663313ce5676040518163ffffffff1660e01b8152600401602060405180830381865afa15801562000123573d6000803e3d6000fd5b505050506040513d601f19601f82011682018060405250810190620001499190620001f7565b600a620001579190620003b6565b620f424062000167919062000407565b60018190555033600260006101000a81548173ffffffffffffffffffffffffffffffffffffffff021916908373ffffffffffffffffffffffffffffffffffffffff16021790555062000452565b600080fd5b600060ff82169050919050565b620001d181620001b9565b8114620001dd57600080fd5b50565b600081519050620001f181620001c6565b92915050565b60006020828403121562000210576200020f620001b4565b5b60006200022084828501620001e0565b91505092915050565b7f4e487b7100000000000000000000000000000000000000000000000000000000600052601160045260246000fd5b60008160011c9050919050565b6000808291508390505b6001851115620002b7578086048111156200028f576200028e62000229565b5b60018516156200029f5780820291505b8081029050620002af8562000258565b94506200026f565b94509492505050565b600082620002d25760019050620003a5565b81620002e25760009050620003a5565b8160018114620002fb576002811462000306576200033c565b6001915050620003a5565b60ff8411156200031b576200031a62000229565b5b8360020a91508482111562000335576200033462000229565b5b50620003a5565b5060208310610133831016604e8410600b8410161715620003765782820a90508381111562000370576200036f62000229565b5b620003a5565b62000385848484600162000265565b925090508184048111156200039f576200039e62000229565b5b81810290505b9392505050565b6000819050919050565b6000620003c382620003ac565b9150620003d083620001b9565b9250620003ff7fffffffffffffffffffffffffffffffffffffffffffffffffffffffffffffffff8484620002c0565b905092915050565b60006200041482620003ac565b91506200042183620003ac565b92508282026200043181620003ac565b915082820484148315176200044b576200044a62000229565b5b5092915050565b610ebd80620004626000396000f3fe60806040526004361061007b5760003560e01c806341eccbd51161004e57806341eccbd5146101165780638e06355f14610141578063b1437e271461014b578063fc0c546a146101765761007b565b806302d05d3f1461008057806330c0b9ec146100ab5780633ccfd60b146100d65780633d1135ea146100ed575b600080fd5b34801561008c57600080fd5b506100956101a1565b6040516100a2919061086f565b60405180910390f35b3480156100b757600080fd5b506100c06101c7565b6040516100cd91906108a3565b60405180910390f35b3480156100e257600080fd5b506100eb610268565b005b3480156100f957600080fd5b50610114600480360381019061010f91906108ef565b610341565b005b34801561012257600080fd5b5061012b6105d3565b60405161013891906108a3565b60405180910390f35b6101496105d9565b005b34801561015757600080fd5b50610160610802565b60405161016d91906108a3565b60405180910390f35b34801561018257600080fd5b5061018b610808565b604051610198919061097b565b60405180910390f35b600260009054906101000a900473ffffffffffffffffffffffffffffffffffffffff1681565b600080600460009054906101000a900473ffffffffffffffffffffffffffffffffffffffff1673ffffffffffffffffffffffffffffffffffffffff1663feaf968c6040518163ffffffff1660e01b815260040160a060405180830381865afa158015610237573d6000803e3d6000fd5b505050506040513d601f19601f8201168201806040525081019061025b9190610a23565b5050509150508091505090565b600260009054906101000a900473ffffffffffffffffffffffffffffffffffffffff1673ffffffffffffffffffffffffffffffffffffffff163373ffffffffffffffffffffffffffffffffffffffff16146102f8576040517f08c379a00000000000000000000000000000000000000000000000000000000081526004016102ef90610b21565b60405180910390fd5b3373ffffffffffffffffffffffffffffffffffffffff166108fc479081150290604051600060405180830381858888f1935050505015801561033e573d6000803e3d6000fd5b50565b80600360009054906101000a900473ffffffffffffffffffffffffffffffffffffffff1673ffffffffffffffffffffffffffffffffffffffff166370a08231336040518263ffffffff1660e01b815260040161039d919061086f565b602060405180830381865afa1580156103ba573d6000803e3d6000fd5b505050506040513d601f19601f820116820180604052508101906103de9190610b41565b101561041f576040517f08c379a000000000000000000000000000000000000000000000000000000000815260040161041690610bba565b60405180910390fd5b60006104296101c7565b9050600081670de0b6b3a7640000846104429190610c09565b61044c9190610c7a565b905080471015610491576040517f08c379a000000000000000000000000000000000000000000000000000000000815260040161048890610cf7565b60405180910390fd5b806000808282546104a29190610d17565b9250508190555082600160008282546104bb9190610d4b565b92505081905550600360009054906101000a900473ffffffffffffffffffffffffffffffffffffffff1673ffffffffffffffffffffffffffffffffffffffff166323b872dd33600260009054906101000a900473ffffffffffffffffffffffffffffffffffffffff16866040518463ffffffff1660e01b815260040161054393929190610d7f565b6020604051808303816000875af1158015610562573d6000803e3d6000fd5b505050506040513d601f19601f820116820180604052508101906105869190610dee565b503373ffffffffffffffffffffffffffffffffffffffff166108fc829081150290604051600060405180830381858888f193505050501580156105cd573d6000803e3d6000fd5b50505050565b60005481565b60006105e36101c7565b90506000670de0b6b3a764000082346105fc9190610c09565b6106069190610c7a565b905080600360009054906101000a900473ffffffffffffffffffffffffffffffffffffffff1673ffffffffffffffffffffffffffffffffffffffff166370a08231600260009054906101000a900473ffffffffffffffffffffffffffffffffffffffff166040518263ffffffff1660e01b8152600401610686919061086f565b602060405180830381865afa1580156106a3573d6000803e3d6000fd5b505050506040513d601f19601f820116820180604052508101906106c79190610b41565b1015610708576040517f08c379a00000000000000000000000000000000000000000000000000000000081526004016106ff90610e67565b60405180910390fd5b346000808282546107199190610d4b565b9250508190555080600160008282546107329190610d17565b92505081905550600360009054906101000a900473ffffffffffffffffffffffffffffffffffffffff1673ffffffffffffffffffffffffffffffffffffffff166323b872dd600260009054906101000a900473ffffffffffffffffffffffffffffffffffffffff1633846040518463ffffffff1660e01b81526004016107ba93929190610d7f565b6020604051808303816000875af11580156107d9573d6000803e3d6000fd5b505050506040513d601f19601f820116820180604052508101906107fd9190610dee565b505050565b60015481565b600360009054906101000a900473ffffffffffffffffffffffffffffffffffffffff1681565b600073ffffffffffffffffffffffffffffffffffffffff82169050919050565b60006108598261082e565b9050919050565b6108698161084e565b82525050565b60006020820190506108846000830184610860565b92915050565b6000819050919050565b61089d8161088a565b82525050565b60006020820190506108b86000830184610894565b92915050565b600080fd5b6108cc8161088a565b81146108d757600080fd5b50565b6000813590506108e9816108c3565b92915050565b600060208284031215610905576109046108be565b5b6000610913848285016108da565b91505092915050565b6000819050919050565b600061094161093c6109378461082e565b61091c565b61082e565b9050919050565b600061095382610926565b9050919050565b600061096582610948565b9050919050565b6109758161095a565b82525050565b6000602082019050610990600083018461096c565b92915050565b600069ffffffffffffffffffff82169050919050565b6109b581610996565b81146109c057600080fd5b50565b6000815190506109d2816109ac565b92915050565b6000819050919050565b6109eb816109d8565b81146109f657600080fd5b50565b600081519050610a08816109e2565b92915050565b600081519050610a1d816108c3565b92915050565b600080600080600060a08688031215610a3f57610a3e6108be565b5b6000610a4d888289016109c3565b9550506020610a5e888289016109f9565b9450506040610a6f88828901610a0e565b9350506060610a8088828901610a0e565b9250506080610a91888289016109c3565b9150509295509295909350565b600082825260208201905092915050565b7f4f6e6c792074686520636f6e74726163742063726561746f722063616e20636160008201527f6c6c20746869732066756e6374696f6e00000000000000000000000000000000602082015250565b6000610b0b603083610a9e565b9150610b1682610aaf565b604082019050919050565b60006020820190508181036000830152610b3a81610afe565b9050919050565b600060208284031215610b5757610b566108be565b5b6000610b6584828501610a0e565b91505092915050565b7f4e6f7420656e6f75676820746f6b656e7320746f207370656e64000000000000600082015250565b6000610ba4601a83610a9e565b9150610baf82610b6e565b602082019050919050565b60006020820190508181036000830152610bd381610b97565b9050919050565b7f4e487b7100000000000000000000000000000000000000000000000000000000600052601160045260246000fd5b6000610c148261088a565b9150610c1f8361088a565b9250828202610c2d8161088a565b91508282048414831517610c4457610c43610bda565b5b5092915050565b7f4e487b7100000000000000000000000000000000000000000000000000000000600052601260045260246000fd5b6000610c858261088a565b9150610c908361088a565b925082610ca057610c9f610c4b565b5b828204905092915050565b7f4e6f7420656e6f7567682045544820696e2074686520706f6f6c000000000000600082015250565b6000610ce1601a83610a9e565b9150610cec82610cab565b602082019050919050565b60006020820190508181036000830152610d1081610cd4565b9050919050565b6000610d228261088a565b9150610d2d8361088a565b9250828203905081811115610d4557610d44610bda565b5b92915050565b6000610d568261088a565b9150610d618361088a565b9250828201905080821115610d7957610d78610bda565b5b92915050565b6000606082019050610d946000830186610860565b610da16020830185610860565b610dae6040830184610894565b949350505050565b60008115159050919050565b610dcb81610db6565b8114610dd657600080fd5b50565b600081519050610de881610dc2565b92915050565b600060208284031215610e0457610e036108be565b5b6000610e1284828501610dd9565b91505092915050565b7f4e6f7420656e6f75676820746f6b656e7320696e2074686520706f6f6c000000600082015250565b6000610e51601d83610a9e565b9150610e5c82610e1b565b602082019050919050565b60006020820190508181036000830152610e8081610e44565b905091905056fea2646970667358221220df454691a79715c87ab30dd25c570136f9937ce9f45a06c03b2b413a9a7de70864736f6c63430008120033",
					"opcodes": "PUSH1 0x80 PUSH1 0x40 MSTORE PUSH20 0xAE6B0F75B55FA4C90B2768E3157B7000241A41C5 PUSH1 0x3 PUSH1 0x0 PUSH2 0x100 EXP DUP2 SLOAD DUP2 PUSH20 0xFFFFFFFFFFFFFFFFFFFFFFFFFFFFFFFFFFFFFFFF MUL NOT AND SWAP1 DUP4 PUSH20 0xFFFFFFFFFFFFFFFFFFFFFFFFFFFFFFFFFFFFFFFF AND MUL OR SWAP1 SSTORE POP PUSH20 0xD4A33860578DE61DBABDC8BFDB98FD742FA7028E PUSH1 0x4 PUSH1 0x0 PUSH2 0x100 EXP DUP2 SLOAD DUP2 PUSH20 0xFFFFFFFFFFFFFFFFFFFFFFFFFFFFFFFFFFFFFFFF MUL NOT AND SWAP1 DUP4 PUSH20 0xFFFFFFFFFFFFFFFFFFFFFFFFFFFFFFFFFFFFFFFF AND MUL OR SWAP1 SSTORE POP CALLVALUE PUSH1 0x0 DUP2 SWAP1 SSTORE POP PUSH1 0x3 PUSH1 0x0 SWAP1 SLOAD SWAP1 PUSH2 0x100 EXP SWAP1 DIV PUSH20 0xFFFFFFFFFFFFFFFFFFFFFFFFFFFFFFFFFFFFFFFF AND PUSH20 0xFFFFFFFFFFFFFFFFFFFFFFFFFFFFFFFFFFFFFFFF AND PUSH4 0x313CE567 PUSH1 0x40 MLOAD DUP2 PUSH4 0xFFFFFFFF AND PUSH1 0xE0 SHL DUP2 MSTORE PUSH1 0x4 ADD PUSH1 0x20 PUSH1 0x40 MLOAD DUP1 DUP4 SUB DUP2 DUP7 GAS STATICCALL ISZERO DUP1 ISZERO PUSH3 0x123 JUMPI RETURNDATASIZE PUSH1 0x0 DUP1 RETURNDATACOPY RETURNDATASIZE PUSH1 0x0 REVERT JUMPDEST POP POP POP POP PUSH1 0x40 MLOAD RETURNDATASIZE PUSH1 0x1F NOT PUSH1 0x1F DUP3 ADD AND DUP3 ADD DUP1 PUSH1 0x40 MSTORE POP DUP2 ADD SWAP1 PUSH3 0x149 SWAP2 SWAP1 PUSH3 0x1F7 JUMP JUMPDEST PUSH1 0xA PUSH3 0x157 SWAP2 SWAP1 PUSH3 0x3B6 JUMP JUMPDEST PUSH3 0xF4240 PUSH3 0x167 SWAP2 SWAP1 PUSH3 0x407 JUMP JUMPDEST PUSH1 0x1 DUP2 SWAP1 SSTORE POP CALLER PUSH1 0x2 PUSH1 0x0 PUSH2 0x100 EXP DUP2 SLOAD DUP2 PUSH20 0xFFFFFFFFFFFFFFFFFFFFFFFFFFFFFFFFFFFFFFFF MUL NOT AND SWAP1 DUP4 PUSH20 0xFFFFFFFFFFFFFFFFFFFFFFFFFFFFFFFFFFFFFFFF AND MUL OR SWAP1 SSTORE POP PUSH3 0x452 JUMP JUMPDEST PUSH1 0x0 DUP1 REVERT JUMPDEST PUSH1 0x0 PUSH1 0xFF DUP3 AND SWAP1 POP SWAP2 SWAP1 POP JUMP JUMPDEST PUSH3 0x1D1 DUP2 PUSH3 0x1B9 JUMP JUMPDEST DUP2 EQ PUSH3 0x1DD JUMPI PUSH1 0x0 DUP1 REVERT JUMPDEST POP JUMP JUMPDEST PUSH1 0x0 DUP2 MLOAD SWAP1 POP PUSH3 0x1F1 DUP2 PUSH3 0x1C6 JUMP JUMPDEST SWAP3 SWAP2 POP POP JUMP JUMPDEST PUSH1 0x0 PUSH1 0x20 DUP3 DUP5 SUB SLT ISZERO PUSH3 0x210 JUMPI PUSH3 0x20F PUSH3 0x1B4 JUMP JUMPDEST JUMPDEST PUSH1 0x0 PUSH3 0x220 DUP5 DUP3 DUP6 ADD PUSH3 0x1E0 JUMP JUMPDEST SWAP2 POP POP SWAP3 SWAP2 POP POP JUMP JUMPDEST PUSH32 0x4E487B7100000000000000000000000000000000000000000000000000000000 PUSH1 0x0 MSTORE PUSH1 0x11 PUSH1 0x4 MSTORE PUSH1 0x24 PUSH1 0x0 REVERT JUMPDEST PUSH1 0x0 DUP2 PUSH1 0x1 SHR SWAP1 POP SWAP2 SWAP1 POP JUMP JUMPDEST PUSH1 0x0 DUP1 DUP3 SWAP2 POP DUP4 SWAP1 POP JUMPDEST PUSH1 0x1 DUP6 GT ISZERO PUSH3 0x2B7 JUMPI DUP1 DUP7 DIV DUP2 GT ISZERO PUSH3 0x28F JUMPI PUSH3 0x28E PUSH3 0x229 JUMP JUMPDEST JUMPDEST PUSH1 0x1 DUP6 AND ISZERO PUSH3 0x29F JUMPI DUP1 DUP3 MUL SWAP2 POP JUMPDEST DUP1 DUP2 MUL SWAP1 POP PUSH3 0x2AF DUP6 PUSH3 0x258 JUMP JUMPDEST SWAP5 POP PUSH3 0x26F JUMP JUMPDEST SWAP5 POP SWAP5 SWAP3 POP POP POP JUMP JUMPDEST PUSH1 0x0 DUP3 PUSH3 0x2D2 JUMPI PUSH1 0x1 SWAP1 POP PUSH3 0x3A5 JUMP JUMPDEST DUP2 PUSH3 0x2E2 JUMPI PUSH1 0x0 SWAP1 POP PUSH3 0x3A5 JUMP JUMPDEST DUP2 PUSH1 0x1 DUP2 EQ PUSH3 0x2FB JUMPI PUSH1 0x2 DUP2 EQ PUSH3 0x306 JUMPI PUSH3 0x33C JUMP JUMPDEST PUSH1 0x1 SWAP2 POP POP PUSH3 0x3A5 JUMP JUMPDEST PUSH1 0xFF DUP5 GT ISZERO PUSH3 0x31B JUMPI PUSH3 0x31A PUSH3 0x229 JUMP JUMPDEST JUMPDEST DUP4 PUSH1 0x2 EXP SWAP2 POP DUP5 DUP3 GT ISZERO PUSH3 0x335 JUMPI PUSH3 0x334 PUSH3 0x229 JUMP JUMPDEST JUMPDEST POP PUSH3 0x3A5 JUMP JUMPDEST POP PUSH1 0x20 DUP4 LT PUSH2 0x133 DUP4 LT AND PUSH1 0x4E DUP5 LT PUSH1 0xB DUP5 LT AND OR ISZERO PUSH3 0x376 JUMPI DUP3 DUP3 EXP SWAP1 POP DUP4 DUP2 GT ISZERO PUSH3 0x370 JUMPI PUSH3 0x36F PUSH3 0x229 JUMP JUMPDEST JUMPDEST PUSH3 0x3A5 JUMP JUMPDEST PUSH3 0x385 DUP5 DUP5 DUP5 PUSH1 0x1 PUSH3 0x265 JUMP JUMPDEST SWAP3 POP SWAP1 POP DUP2 DUP5 DIV DUP2 GT ISZERO PUSH3 0x39F JUMPI PUSH3 0x39E PUSH3 0x229 JUMP JUMPDEST JUMPDEST DUP2 DUP2 MUL SWAP1 POP JUMPDEST SWAP4 SWAP3 POP POP POP JUMP JUMPDEST PUSH1 0x0 DUP2 SWAP1 POP SWAP2 SWAP1 POP JUMP JUMPDEST PUSH1 0x0 PUSH3 0x3C3 DUP3 PUSH3 0x3AC JUMP JUMPDEST SWAP2 POP PUSH3 0x3D0 DUP4 PUSH3 0x1B9 JUMP JUMPDEST SWAP3 POP PUSH3 0x3FF PUSH32 0xFFFFFFFFFFFFFFFFFFFFFFFFFFFFFFFFFFFFFFFFFFFFFFFFFFFFFFFFFFFFFFFF DUP5 DUP5 PUSH3 0x2C0 JUMP JUMPDEST SWAP1 POP SWAP3 SWAP2 POP POP JUMP JUMPDEST PUSH1 0x0 PUSH3 0x414 DUP3 PUSH3 0x3AC JUMP JUMPDEST SWAP2 POP PUSH3 0x421 DUP4 PUSH3 0x3AC JUMP JUMPDEST SWAP3 POP DUP3 DUP3 MUL PUSH3 0x431 DUP2 PUSH3 0x3AC JUMP JUMPDEST SWAP2 POP DUP3 DUP3 DIV DUP5 EQ DUP4 ISZERO OR PUSH3 0x44B JUMPI PUSH3 0x44A PUSH3 0x229 JUMP JUMPDEST JUMPDEST POP SWAP3 SWAP2 POP POP JUMP JUMPDEST PUSH2 0xEBD DUP1 PUSH3 0x462 PUSH1 0x0 CODECOPY PUSH1 0x0 RETURN INVALID PUSH1 0x80 PUSH1 0x40 MSTORE PUSH1 0x4 CALLDATASIZE LT PUSH2 0x7B JUMPI PUSH1 0x0 CALLDATALOAD PUSH1 0xE0 SHR DUP1 PUSH4 0x41ECCBD5 GT PUSH2 0x4E JUMPI DUP1 PUSH4 0x41ECCBD5 EQ PUSH2 0x116 JUMPI DUP1 PUSH4 0x8E06355F EQ PUSH2 0x141 JUMPI DUP1 PUSH4 0xB1437E27 EQ PUSH2 0x14B JUMPI DUP1 PUSH4 0xFC0C546A EQ PUSH2 0x176 JUMPI PUSH2 0x7B JUMP JUMPDEST DUP1 PUSH4 0x2D05D3F EQ PUSH2 0x80 JUMPI DUP1 PUSH4 0x30C0B9EC EQ PUSH2 0xAB JUMPI DUP1 PUSH4 0x3CCFD60B EQ PUSH2 0xD6 JUMPI DUP1 PUSH4 0x3D1135EA EQ PUSH2 0xED JUMPI JUMPDEST PUSH1 0x0 DUP1 REVERT JUMPDEST CALLVALUE DUP1 ISZERO PUSH2 0x8C JUMPI PUSH1 0x0 DUP1 REVERT JUMPDEST POP PUSH2 0x95 PUSH2 0x1A1 JUMP JUMPDEST PUSH1 0x40 MLOAD PUSH2 0xA2 SWAP2 SWAP1 PUSH2 0x86F JUMP JUMPDEST PUSH1 0x40 MLOAD DUP1 SWAP2 SUB SWAP1 RETURN JUMPDEST CALLVALUE DUP1 ISZERO PUSH2 0xB7 JUMPI PUSH1 0x0 DUP1 REVERT JUMPDEST POP PUSH2 0xC0 PUSH2 0x1C7 JUMP JUMPDEST PUSH1 0x40 MLOAD PUSH2 0xCD SWAP2 SWAP1 PUSH2 0x8A3 JUMP JUMPDEST PUSH1 0x40 MLOAD DUP1 SWAP2 SUB SWAP1 RETURN JUMPDEST CALLVALUE DUP1 ISZERO PUSH2 0xE2 JUMPI PUSH1 0x0 DUP1 REVERT JUMPDEST POP PUSH2 0xEB PUSH2 0x268 JUMP JUMPDEST STOP JUMPDEST CALLVALUE DUP1 ISZERO PUSH2 0xF9 JUMPI PUSH1 0x0 DUP1 REVERT JUMPDEST POP PUSH2 0x114 PUSH1 0x4 DUP1 CALLDATASIZE SUB DUP2 ADD SWAP1 PUSH2 0x10F SWAP2 SWAP1 PUSH2 0x8EF JUMP JUMPDEST PUSH2 0x341 JUMP JUMPDEST STOP JUMPDEST CALLVALUE DUP1 ISZERO PUSH2 0x122 JUMPI PUSH1 0x0 DUP1 REVERT JUMPDEST POP PUSH2 0x12B PUSH2 0x5D3 JUMP JUMPDEST PUSH1 0x40 MLOAD PUSH2 0x138 SWAP2 SWAP1 PUSH2 0x8A3 JUMP JUMPDEST PUSH1 0x40 MLOAD DUP1 SWAP2 SUB SWAP1 RETURN JUMPDEST PUSH2 0x149 PUSH2 0x5D9 JUMP JUMPDEST STOP JUMPDEST CALLVALUE DUP1 ISZERO PUSH2 0x157 JUMPI PUSH1 0x0 DUP1 REVERT JUMPDEST POP PUSH2 0x160 PUSH2 0x802 JUMP JUMPDEST PUSH1 0x40 MLOAD PUSH2 0x16D SWAP2 SWAP1 PUSH2 0x8A3 JUMP JUMPDEST PUSH1 0x40 MLOAD DUP1 SWAP2 SUB SWAP1 RETURN JUMPDEST CALLVALUE DUP1 ISZERO PUSH2 0x182 JUMPI PUSH1 0x0 DUP1 REVERT JUMPDEST POP PUSH2 0x18B PUSH2 0x808 JUMP JUMPDEST PUSH1 0x40 MLOAD PUSH2 0x198 SWAP2 SWAP1 PUSH2 0x97B JUMP JUMPDEST PUSH1 0x40 MLOAD DUP1 SWAP2 SUB SWAP1 RETURN JUMPDEST PUSH1 0x2 PUSH1 0x0 SWAP1 SLOAD SWAP1 PUSH2 0x100 EXP SWAP1 DIV PUSH20 0xFFFFFFFFFFFFFFFFFFFFFFFFFFFFFFFFFFFFFFFF AND DUP2 JUMP JUMPDEST PUSH1 0x0 DUP1 PUSH1 0x4 PUSH1 0x0 SWAP1 SLOAD SWAP1 PUSH2 0x100 EXP SWAP1 DIV PUSH20 0xFFFFFFFFFFFFFFFFFFFFFFFFFFFFFFFFFFFFFFFF AND PUSH20 0xFFFFFFFFFFFFFFFFFFFFFFFFFFFFFFFFFFFFFFFF AND PUSH4 0xFEAF968C PUSH1 0x40 MLOAD DUP2 PUSH4 0xFFFFFFFF AND PUSH1 0xE0 SHL DUP2 MSTORE PUSH1 0x4 ADD PUSH1 0xA0 PUSH1 0x40 MLOAD DUP1 DUP4 SUB DUP2 DUP7 GAS STATICCALL ISZERO DUP1 ISZERO PUSH2 0x237 JUMPI RETURNDATASIZE PUSH1 0x0 DUP1 RETURNDATACOPY RETURNDATASIZE PUSH1 0x0 REVERT JUMPDEST POP POP POP POP PUSH1 0x40 MLOAD RETURNDATASIZE PUSH1 0x1F NOT PUSH1 0x1F DUP3 ADD AND DUP3 ADD DUP1 PUSH1 0x40 MSTORE POP DUP2 ADD SWAP1 PUSH2 0x25B SWAP2 SWAP1 PUSH2 0xA23 JUMP JUMPDEST POP POP POP SWAP2 POP POP DUP1 SWAP2 POP POP SWAP1 JUMP JUMPDEST PUSH1 0x2 PUSH1 0x0 SWAP1 SLOAD SWAP1 PUSH2 0x100 EXP SWAP1 DIV PUSH20 0xFFFFFFFFFFFFFFFFFFFFFFFFFFFFFFFFFFFFFFFF AND PUSH20 0xFFFFFFFFFFFFFFFFFFFFFFFFFFFFFFFFFFFFFFFF AND CALLER PUSH20 0xFFFFFFFFFFFFFFFFFFFFFFFFFFFFFFFFFFFFFFFF AND EQ PUSH2 0x2F8 JUMPI PUSH1 0x40 MLOAD PUSH32 0x8C379A000000000000000000000000000000000000000000000000000000000 DUP2 MSTORE PUSH1 0x4 ADD PUSH2 0x2EF SWAP1 PUSH2 0xB21 JUMP JUMPDEST PUSH1 0x40 MLOAD DUP1 SWAP2 SUB SWAP1 REVERT JUMPDEST CALLER PUSH20 0xFFFFFFFFFFFFFFFFFFFFFFFFFFFFFFFFFFFFFFFF AND PUSH2 0x8FC SELFBALANCE SWAP1 DUP2 ISZERO MUL SWAP1 PUSH1 0x40 MLOAD PUSH1 0x0 PUSH1 0x40 MLOAD DUP1 DUP4 SUB DUP2 DUP6 DUP9 DUP9 CALL SWAP4 POP POP POP POP ISZERO DUP1 ISZERO PUSH2 0x33E JUMPI RETURNDATASIZE PUSH1 0x0 DUP1 RETURNDATACOPY RETURNDATASIZE PUSH1 0x0 REVERT JUMPDEST POP JUMP JUMPDEST DUP1 PUSH1 0x3 PUSH1 0x0 SWAP1 SLOAD SWAP1 PUSH2 0x100 EXP SWAP1 DIV PUSH20 0xFFFFFFFFFFFFFFFFFFFFFFFFFFFFFFFFFFFFFFFF AND PUSH20 0xFFFFFFFFFFFFFFFFFFFFFFFFFFFFFFFFFFFFFFFF AND PUSH4 0x70A08231 CALLER PUSH1 0x40 MLOAD DUP3 PUSH4 0xFFFFFFFF AND PUSH1 0xE0 SHL DUP2 MSTORE PUSH1 0x4 ADD PUSH2 0x39D SWAP2 SWAP1 PUSH2 0x86F JUMP JUMPDEST PUSH1 0x20 PUSH1 0x40 MLOAD DUP1 DUP4 SUB DUP2 DUP7 GAS STATICCALL ISZERO DUP1 ISZERO PUSH2 0x3BA JUMPI RETURNDATASIZE PUSH1 0x0 DUP1 RETURNDATACOPY RETURNDATASIZE PUSH1 0x0 REVERT JUMPDEST POP POP POP POP PUSH1 0x40 MLOAD RETURNDATASIZE PUSH1 0x1F NOT PUSH1 0x1F DUP3 ADD AND DUP3 ADD DUP1 PUSH1 0x40 MSTORE POP DUP2 ADD SWAP1 PUSH2 0x3DE SWAP2 SWAP1 PUSH2 0xB41 JUMP JUMPDEST LT ISZERO PUSH2 0x41F JUMPI PUSH1 0x40 MLOAD PUSH32 0x8C379A000000000000000000000000000000000000000000000000000000000 DUP2 MSTORE PUSH1 0x4 ADD PUSH2 0x416 SWAP1 PUSH2 0xBBA JUMP JUMPDEST PUSH1 0x40 MLOAD DUP1 SWAP2 SUB SWAP1 REVERT JUMPDEST PUSH1 0x0 PUSH2 0x429 PUSH2 0x1C7 JUMP JUMPDEST SWAP1 POP PUSH1 0x0 DUP2 PUSH8 0xDE0B6B3A7640000 DUP5 PUSH2 0x442 SWAP2 SWAP1 PUSH2 0xC09 JUMP JUMPDEST PUSH2 0x44C SWAP2 SWAP1 PUSH2 0xC7A JUMP JUMPDEST SWAP1 POP DUP1 SELFBALANCE LT ISZERO PUSH2 0x491 JUMPI PUSH1 0x40 MLOAD PUSH32 0x8C379A000000000000000000000000000000000000000000000000000000000 DUP2 MSTORE PUSH1 0x4 ADD PUSH2 0x488 SWAP1 PUSH2 0xCF7 JUMP JUMPDEST PUSH1 0x40 MLOAD DUP1 SWAP2 SUB SWAP1 REVERT JUMPDEST DUP1 PUSH1 0x0 DUP1 DUP3 DUP3 SLOAD PUSH2 0x4A2 SWAP2 SWAP1 PUSH2 0xD17 JUMP JUMPDEST SWAP3 POP POP DUP2 SWAP1 SSTORE POP DUP3 PUSH1 0x1 PUSH1 0x0 DUP3 DUP3 SLOAD PUSH2 0x4BB SWAP2 SWAP1 PUSH2 0xD4B JUMP JUMPDEST SWAP3 POP POP DUP2 SWAP1 SSTORE POP PUSH1 0x3 PUSH1 0x0 SWAP1 SLOAD SWAP1 PUSH2 0x100 EXP SWAP1 DIV PUSH20 0xFFFFFFFFFFFFFFFFFFFFFFFFFFFFFFFFFFFFFFFF AND PUSH20 0xFFFFFFFFFFFFFFFFFFFFFFFFFFFFFFFFFFFFFFFF AND PUSH4 0x23B872DD CALLER PUSH1 0x2 PUSH1 0x0 SWAP1 SLOAD SWAP1 PUSH2 0x100 EXP SWAP1 DIV PUSH20 0xFFFFFFFFFFFFFFFFFFFFFFFFFFFFFFFFFFFFFFFF AND DUP7 PUSH1 0x40 MLOAD DUP5 PUSH4 0xFFFFFFFF AND PUSH1 0xE0 SHL DUP2 MSTORE PUSH1 0x4 ADD PUSH2 0x543 SWAP4 SWAP3 SWAP2 SWAP1 PUSH2 0xD7F JUMP JUMPDEST PUSH1 0x20 PUSH1 0x40 MLOAD DUP1 DUP4 SUB DUP2 PUSH1 0x0 DUP8 GAS CALL ISZERO DUP1 ISZERO PUSH2 0x562 JUMPI RETURNDATASIZE PUSH1 0x0 DUP1 RETURNDATACOPY RETURNDATASIZE PUSH1 0x0 REVERT JUMPDEST POP POP POP POP PUSH1 0x40 MLOAD RETURNDATASIZE PUSH1 0x1F NOT PUSH1 0x1F DUP3 ADD AND DUP3 ADD DUP1 PUSH1 0x40 MSTORE POP DUP2 ADD SWAP1 PUSH2 0x586 SWAP2 SWAP1 PUSH2 0xDEE JUMP JUMPDEST POP CALLER PUSH20 0xFFFFFFFFFFFFFFFFFFFFFFFFFFFFFFFFFFFFFFFF AND PUSH2 0x8FC DUP3 SWAP1 DUP2 ISZERO MUL SWAP1 PUSH1 0x40 MLOAD PUSH1 0x0 PUSH1 0x40 MLOAD DUP1 DUP4 SUB DUP2 DUP6 DUP9 DUP9 CALL SWAP4 POP POP POP POP ISZERO DUP1 ISZERO PUSH2 0x5CD JUMPI RETURNDATASIZE PUSH1 0x0 DUP1 RETURNDATACOPY RETURNDATASIZE PUSH1 0x0 REVERT JUMPDEST POP POP POP POP JUMP JUMPDEST PUSH1 0x0 SLOAD DUP2 JUMP JUMPDEST PUSH1 0x0 PUSH2 0x5E3 PUSH2 0x1C7 JUMP JUMPDEST SWAP1 POP PUSH1 0x0 PUSH8 0xDE0B6B3A7640000 DUP3 CALLVALUE PUSH2 0x5FC SWAP2 SWAP1 PUSH2 0xC09 JUMP JUMPDEST PUSH2 0x606 SWAP2 SWAP1 PUSH2 0xC7A JUMP JUMPDEST SWAP1 POP DUP1 PUSH1 0x3 PUSH1 0x0 SWAP1 SLOAD SWAP1 PUSH2 0x100 EXP SWAP1 DIV PUSH20 0xFFFFFFFFFFFFFFFFFFFFFFFFFFFFFFFFFFFFFFFF AND PUSH20 0xFFFFFFFFFFFFFFFFFFFFFFFFFFFFFFFFFFFFFFFF AND PUSH4 0x70A08231 PUSH1 0x2 PUSH1 0x0 SWAP1 SLOAD SWAP1 PUSH2 0x100 EXP SWAP1 DIV PUSH20 0xFFFFFFFFFFFFFFFFFFFFFFFFFFFFFFFFFFFFFFFF AND PUSH1 0x40 MLOAD DUP3 PUSH4 0xFFFFFFFF AND PUSH1 0xE0 SHL DUP2 MSTORE PUSH1 0x4 ADD PUSH2 0x686 SWAP2 SWAP1 PUSH2 0x86F JUMP JUMPDEST PUSH1 0x20 PUSH1 0x40 MLOAD DUP1 DUP4 SUB DUP2 DUP7 GAS STATICCALL ISZERO DUP1 ISZERO PUSH2 0x6A3 JUMPI RETURNDATASIZE PUSH1 0x0 DUP1 RETURNDATACOPY RETURNDATASIZE PUSH1 0x0 REVERT JUMPDEST POP POP POP POP PUSH1 0x40 MLOAD RETURNDATASIZE PUSH1 0x1F NOT PUSH1 0x1F DUP3 ADD AND DUP3 ADD DUP1 PUSH1 0x40 MSTORE POP DUP2 ADD SWAP1 PUSH2 0x6C7 SWAP2 SWAP1 PUSH2 0xB41 JUMP JUMPDEST LT ISZERO PUSH2 0x708 JUMPI PUSH1 0x40 MLOAD PUSH32 0x8C379A000000000000000000000000000000000000000000000000000000000 DUP2 MSTORE PUSH1 0x4 ADD PUSH2 0x6FF SWAP1 PUSH2 0xE67 JUMP JUMPDEST PUSH1 0x40 MLOAD DUP1 SWAP2 SUB SWAP1 REVERT JUMPDEST CALLVALUE PUSH1 0x0 DUP1 DUP3 DUP3 SLOAD PUSH2 0x719 SWAP2 SWAP1 PUSH2 0xD4B JUMP JUMPDEST SWAP3 POP POP DUP2 SWAP1 SSTORE POP DUP1 PUSH1 0x1 PUSH1 0x0 DUP3 DUP3 SLOAD PUSH2 0x732 SWAP2 SWAP1 PUSH2 0xD17 JUMP JUMPDEST SWAP3 POP POP DUP2 SWAP1 SSTORE POP PUSH1 0x3 PUSH1 0x0 SWAP1 SLOAD SWAP1 PUSH2 0x100 EXP SWAP1 DIV PUSH20 0xFFFFFFFFFFFFFFFFFFFFFFFFFFFFFFFFFFFFFFFF AND PUSH20 0xFFFFFFFFFFFFFFFFFFFFFFFFFFFFFFFFFFFFFFFF AND PUSH4 0x23B872DD PUSH1 0x2 PUSH1 0x0 SWAP1 SLOAD SWAP1 PUSH2 0x100 EXP SWAP1 DIV PUSH20 0xFFFFFFFFFFFFFFFFFFFFFFFFFFFFFFFFFFFFFFFF AND CALLER DUP5 PUSH1 0x40 MLOAD DUP5 PUSH4 0xFFFFFFFF AND PUSH1 0xE0 SHL DUP2 MSTORE PUSH1 0x4 ADD PUSH2 0x7BA SWAP4 SWAP3 SWAP2 SWAP1 PUSH2 0xD7F JUMP JUMPDEST PUSH1 0x20 PUSH1 0x40 MLOAD DUP1 DUP4 SUB DUP2 PUSH1 0x0 DUP8 GAS CALL ISZERO DUP1 ISZERO PUSH2 0x7D9 JUMPI RETURNDATASIZE PUSH1 0x0 DUP1 RETURNDATACOPY RETURNDATASIZE PUSH1 0x0 REVERT JUMPDEST POP POP POP POP PUSH1 0x40 MLOAD RETURNDATASIZE PUSH1 0x1F NOT PUSH1 0x1F DUP3 ADD AND DUP3 ADD DUP1 PUSH1 0x40 MSTORE POP DUP2 ADD SWAP1 PUSH2 0x7FD SWAP2 SWAP1 PUSH2 0xDEE JUMP JUMPDEST POP POP POP JUMP JUMPDEST PUSH1 0x1 SLOAD DUP2 JUMP JUMPDEST PUSH1 0x3 PUSH1 0x0 SWAP1 SLOAD SWAP1 PUSH2 0x100 EXP SWAP1 DIV PUSH20 0xFFFFFFFFFFFFFFFFFFFFFFFFFFFFFFFFFFFFFFFF AND DUP2 JUMP JUMPDEST PUSH1 0x0 PUSH20 0xFFFFFFFFFFFFFFFFFFFFFFFFFFFFFFFFFFFFFFFF DUP3 AND SWAP1 POP SWAP2 SWAP1 POP JUMP JUMPDEST PUSH1 0x0 PUSH2 0x859 DUP3 PUSH2 0x82E JUMP JUMPDEST SWAP1 POP SWAP2 SWAP1 POP JUMP JUMPDEST PUSH2 0x869 DUP2 PUSH2 0x84E JUMP JUMPDEST DUP3 MSTORE POP POP JUMP JUMPDEST PUSH1 0x0 PUSH1 0x20 DUP3 ADD SWAP1 POP PUSH2 0x884 PUSH1 0x0 DUP4 ADD DUP5 PUSH2 0x860 JUMP JUMPDEST SWAP3 SWAP2 POP POP JUMP JUMPDEST PUSH1 0x0 DUP2 SWAP1 POP SWAP2 SWAP1 POP JUMP JUMPDEST PUSH2 0x89D DUP2 PUSH2 0x88A JUMP JUMPDEST DUP3 MSTORE POP POP JUMP JUMPDEST PUSH1 0x0 PUSH1 0x20 DUP3 ADD SWAP1 POP PUSH2 0x8B8 PUSH1 0x0 DUP4 ADD DUP5 PUSH2 0x894 JUMP JUMPDEST SWAP3 SWAP2 POP POP JUMP JUMPDEST PUSH1 0x0 DUP1 REVERT JUMPDEST PUSH2 0x8CC DUP2 PUSH2 0x88A JUMP JUMPDEST DUP2 EQ PUSH2 0x8D7 JUMPI PUSH1 0x0 DUP1 REVERT JUMPDEST POP JUMP JUMPDEST PUSH1 0x0 DUP2 CALLDATALOAD SWAP1 POP PUSH2 0x8E9 DUP2 PUSH2 0x8C3 JUMP JUMPDEST SWAP3 SWAP2 POP POP JUMP JUMPDEST PUSH1 0x0 PUSH1 0x20 DUP3 DUP5 SUB SLT ISZERO PUSH2 0x905 JUMPI PUSH2 0x904 PUSH2 0x8BE JUMP JUMPDEST JUMPDEST PUSH1 0x0 PUSH2 0x913 DUP5 DUP3 DUP6 ADD PUSH2 0x8DA JUMP JUMPDEST SWAP2 POP POP SWAP3 SWAP2 POP POP JUMP JUMPDEST PUSH1 0x0 DUP2 SWAP1 POP SWAP2 SWAP1 POP JUMP JUMPDEST PUSH1 0x0 PUSH2 0x941 PUSH2 0x93C PUSH2 0x937 DUP5 PUSH2 0x82E JUMP JUMPDEST PUSH2 0x91C JUMP JUMPDEST PUSH2 0x82E JUMP JUMPDEST SWAP1 POP SWAP2 SWAP1 POP JUMP JUMPDEST PUSH1 0x0 PUSH2 0x953 DUP3 PUSH2 0x926 JUMP JUMPDEST SWAP1 POP SWAP2 SWAP1 POP JUMP JUMPDEST PUSH1 0x0 PUSH2 0x965 DUP3 PUSH2 0x948 JUMP JUMPDEST SWAP1 POP SWAP2 SWAP1 POP JUMP JUMPDEST PUSH2 0x975 DUP2 PUSH2 0x95A JUMP JUMPDEST DUP3 MSTORE POP POP JUMP JUMPDEST PUSH1 0x0 PUSH1 0x20 DUP3 ADD SWAP1 POP PUSH2 0x990 PUSH1 0x0 DUP4 ADD DUP5 PUSH2 0x96C JUMP JUMPDEST SWAP3 SWAP2 POP POP JUMP JUMPDEST PUSH1 0x0 PUSH10 0xFFFFFFFFFFFFFFFFFFFF DUP3 AND SWAP1 POP SWAP2 SWAP1 POP JUMP JUMPDEST PUSH2 0x9B5 DUP2 PUSH2 0x996 JUMP JUMPDEST DUP2 EQ PUSH2 0x9C0 JUMPI PUSH1 0x0 DUP1 REVERT JUMPDEST POP JUMP JUMPDEST PUSH1 0x0 DUP2 MLOAD SWAP1 POP PUSH2 0x9D2 DUP2 PUSH2 0x9AC JUMP JUMPDEST SWAP3 SWAP2 POP POP JUMP JUMPDEST PUSH1 0x0 DUP2 SWAP1 POP SWAP2 SWAP1 POP JUMP JUMPDEST PUSH2 0x9EB DUP2 PUSH2 0x9D8 JUMP JUMPDEST DUP2 EQ PUSH2 0x9F6 JUMPI PUSH1 0x0 DUP1 REVERT JUMPDEST POP JUMP JUMPDEST PUSH1 0x0 DUP2 MLOAD SWAP1 POP PUSH2 0xA08 DUP2 PUSH2 0x9E2 JUMP JUMPDEST SWAP3 SWAP2 POP POP JUMP JUMPDEST PUSH1 0x0 DUP2 MLOAD SWAP1 POP PUSH2 0xA1D DUP2 PUSH2 0x8C3 JUMP JUMPDEST SWAP3 SWAP2 POP POP JUMP JUMPDEST PUSH1 0x0 DUP1 PUSH1 0x0 DUP1 PUSH1 0x0 PUSH1 0xA0 DUP7 DUP9 SUB SLT ISZERO PUSH2 0xA3F JUMPI PUSH2 0xA3E PUSH2 0x8BE JUMP JUMPDEST JUMPDEST PUSH1 0x0 PUSH2 0xA4D DUP9 DUP3 DUP10 ADD PUSH2 0x9C3 JUMP JUMPDEST SWAP6 POP POP PUSH1 0x20 PUSH2 0xA5E DUP9 DUP3 DUP10 ADD PUSH2 0x9F9 JUMP JUMPDEST SWAP5 POP POP PUSH1 0x40 PUSH2 0xA6F DUP9 DUP3 DUP10 ADD PUSH2 0xA0E JUMP JUMPDEST SWAP4 POP POP PUSH1 0x60 PUSH2 0xA80 DUP9 DUP3 DUP10 ADD PUSH2 0xA0E JUMP JUMPDEST SWAP3 POP POP PUSH1 0x80 PUSH2 0xA91 DUP9 DUP3 DUP10 ADD PUSH2 0x9C3 JUMP JUMPDEST SWAP2 POP POP SWAP3 SWAP6 POP SWAP3 SWAP6 SWAP1 SWAP4 POP JUMP JUMPDEST PUSH1 0x0 DUP3 DUP3 MSTORE PUSH1 0x20 DUP3 ADD SWAP1 POP SWAP3 SWAP2 POP POP JUMP JUMPDEST PUSH32 0x4F6E6C792074686520636F6E74726163742063726561746F722063616E206361 PUSH1 0x0 DUP3 ADD MSTORE PUSH32 0x6C6C20746869732066756E6374696F6E00000000000000000000000000000000 PUSH1 0x20 DUP3 ADD MSTORE POP JUMP JUMPDEST PUSH1 0x0 PUSH2 0xB0B PUSH1 0x30 DUP4 PUSH2 0xA9E JUMP JUMPDEST SWAP2 POP PUSH2 0xB16 DUP3 PUSH2 0xAAF JUMP JUMPDEST PUSH1 0x40 DUP3 ADD SWAP1 POP SWAP2 SWAP1 POP JUMP JUMPDEST PUSH1 0x0 PUSH1 0x20 DUP3 ADD SWAP1 POP DUP2 DUP2 SUB PUSH1 0x0 DUP4 ADD MSTORE PUSH2 0xB3A DUP2 PUSH2 0xAFE JUMP JUMPDEST SWAP1 POP SWAP2 SWAP1 POP JUMP JUMPDEST PUSH1 0x0 PUSH1 0x20 DUP3 DUP5 SUB SLT ISZERO PUSH2 0xB57 JUMPI PUSH2 0xB56 PUSH2 0x8BE JUMP JUMPDEST JUMPDEST PUSH1 0x0 PUSH2 0xB65 DUP5 DUP3 DUP6 ADD PUSH2 0xA0E JUMP JUMPDEST SWAP2 POP POP SWAP3 SWAP2 POP POP JUMP JUMPDEST PUSH32 0x4E6F7420656E6F75676820746F6B656E7320746F207370656E64000000000000 PUSH1 0x0 DUP3 ADD MSTORE POP JUMP JUMPDEST PUSH1 0x0 PUSH2 0xBA4 PUSH1 0x1A DUP4 PUSH2 0xA9E JUMP JUMPDEST SWAP2 POP PUSH2 0xBAF DUP3 PUSH2 0xB6E JUMP JUMPDEST PUSH1 0x20 DUP3 ADD SWAP1 POP SWAP2 SWAP1 POP JUMP JUMPDEST PUSH1 0x0 PUSH1 0x20 DUP3 ADD SWAP1 POP DUP2 DUP2 SUB PUSH1 0x0 DUP4 ADD MSTORE PUSH2 0xBD3 DUP2 PUSH2 0xB97 JUMP JUMPDEST SWAP1 POP SWAP2 SWAP1 POP JUMP JUMPDEST PUSH32 0x4E487B7100000000000000000000000000000000000000000000000000000000 PUSH1 0x0 MSTORE PUSH1 0x11 PUSH1 0x4 MSTORE PUSH1 0x24 PUSH1 0x0 REVERT JUMPDEST PUSH1 0x0 PUSH2 0xC14 DUP3 PUSH2 0x88A JUMP JUMPDEST SWAP2 POP PUSH2 0xC1F DUP4 PUSH2 0x88A JUMP JUMPDEST SWAP3 POP DUP3 DUP3 MUL PUSH2 0xC2D DUP2 PUSH2 0x88A JUMP JUMPDEST SWAP2 POP DUP3 DUP3 DIV DUP5 EQ DUP4 ISZERO OR PUSH2 0xC44 JUMPI PUSH2 0xC43 PUSH2 0xBDA JUMP JUMPDEST JUMPDEST POP SWAP3 SWAP2 POP POP JUMP JUMPDEST PUSH32 0x4E487B7100000000000000000000000000000000000000000000000000000000 PUSH1 0x0 MSTORE PUSH1 0x12 PUSH1 0x4 MSTORE PUSH1 0x24 PUSH1 0x0 REVERT JUMPDEST PUSH1 0x0 PUSH2 0xC85 DUP3 PUSH2 0x88A JUMP JUMPDEST SWAP2 POP PUSH2 0xC90 DUP4 PUSH2 0x88A JUMP JUMPDEST SWAP3 POP DUP3 PUSH2 0xCA0 JUMPI PUSH2 0xC9F PUSH2 0xC4B JUMP JUMPDEST JUMPDEST DUP3 DUP3 DIV SWAP1 POP SWAP3 SWAP2 POP POP JUMP JUMPDEST PUSH32 0x4E6F7420656E6F7567682045544820696E2074686520706F6F6C000000000000 PUSH1 0x0 DUP3 ADD MSTORE POP JUMP JUMPDEST PUSH1 0x0 PUSH2 0xCE1 PUSH1 0x1A DUP4 PUSH2 0xA9E JUMP JUMPDEST SWAP2 POP PUSH2 0xCEC DUP3 PUSH2 0xCAB JUMP JUMPDEST PUSH1 0x20 DUP3 ADD SWAP1 POP SWAP2 SWAP1 POP JUMP JUMPDEST PUSH1 0x0 PUSH1 0x20 DUP3 ADD SWAP1 POP DUP2 DUP2 SUB PUSH1 0x0 DUP4 ADD MSTORE PUSH2 0xD10 DUP2 PUSH2 0xCD4 JUMP JUMPDEST SWAP1 POP SWAP2 SWAP1 POP JUMP JUMPDEST PUSH1 0x0 PUSH2 0xD22 DUP3 PUSH2 0x88A JUMP JUMPDEST SWAP2 POP PUSH2 0xD2D DUP4 PUSH2 0x88A JUMP JUMPDEST SWAP3 POP DUP3 DUP3 SUB SWAP1 POP DUP2 DUP2 GT ISZERO PUSH2 0xD45 JUMPI PUSH2 0xD44 PUSH2 0xBDA JUMP JUMPDEST JUMPDEST SWAP3 SWAP2 POP POP JUMP JUMPDEST PUSH1 0x0 PUSH2 0xD56 DUP3 PUSH2 0x88A JUMP JUMPDEST SWAP2 POP PUSH2 0xD61 DUP4 PUSH2 0x88A JUMP JUMPDEST SWAP3 POP DUP3 DUP3 ADD SWAP1 POP DUP1 DUP3 GT ISZERO PUSH2 0xD79 JUMPI PUSH2 0xD78 PUSH2 0xBDA JUMP JUMPDEST JUMPDEST SWAP3 SWAP2 POP POP JUMP JUMPDEST PUSH1 0x0 PUSH1 0x60 DUP3 ADD SWAP1 POP PUSH2 0xD94 PUSH1 0x0 DUP4 ADD DUP7 PUSH2 0x860 JUMP JUMPDEST PUSH2 0xDA1 PUSH1 0x20 DUP4 ADD DUP6 PUSH2 0x860 JUMP JUMPDEST PUSH2 0xDAE PUSH1 0x40 DUP4 ADD DUP5 PUSH2 0x894 JUMP JUMPDEST SWAP5 SWAP4 POP POP POP POP JUMP JUMPDEST PUSH1 0x0 DUP2 ISZERO ISZERO SWAP1 POP SWAP2 SWAP1 POP JUMP JUMPDEST PUSH2 0xDCB DUP2 PUSH2 0xDB6 JUMP JUMPDEST DUP2 EQ PUSH2 0xDD6 JUMPI PUSH1 0x0 DUP1 REVERT JUMPDEST POP JUMP JUMPDEST PUSH1 0x0 DUP2 MLOAD SWAP1 POP PUSH2 0xDE8 DUP2 PUSH2 0xDC2 JUMP JUMPDEST SWAP3 SWAP2 POP POP JUMP JUMPDEST PUSH1 0x0 PUSH1 0x20 DUP3 DUP5 SUB SLT ISZERO PUSH2 0xE04 JUMPI PUSH2 0xE03 PUSH2 0x8BE JUMP JUMPDEST JUMPDEST PUSH1 0x0 PUSH2 0xE12 DUP5 DUP3 DUP6 ADD PUSH2 0xDD9 JUMP JUMPDEST SWAP2 POP POP SWAP3 SWAP2 POP POP JUMP JUMPDEST PUSH32 0x4E6F7420656E6F75676820746F6B656E7320696E2074686520706F6F6C000000 PUSH1 0x0 DUP3 ADD MSTORE POP JUMP JUMPDEST PUSH1 0x0 PUSH2 0xE51 PUSH1 0x1D DUP4 PUSH2 0xA9E JUMP JUMPDEST SWAP2 POP PUSH2 0xE5C DUP3 PUSH2 0xE1B JUMP JUMPDEST PUSH1 0x20 DUP3 ADD SWAP1 POP SWAP2 SWAP1 POP JUMP JUMPDEST PUSH1 0x0 PUSH1 0x20 DUP3 ADD SWAP1 POP DUP2 DUP2 SUB PUSH1 0x0 DUP4 ADD MSTORE PUSH2 0xE80 DUP2 PUSH2 0xE44 JUMP JUMPDEST SWAP1 POP SWAP2 SWAP1 POP JUMP INVALID LOG2 PUSH5 0x6970667358 0x22 SLT KECCAK256 0xDF GASLIMIT CHAINID SWAP2 0xA7 SWAP8 ISZERO 0xC8 PUSH27 0xB30DD25C570136F9937CE9F45A06C03B2B413A9A7DE70864736F6C PUSH4 0x43000812 STOP CALLER "
				},
				"gasEstimates": {
					"creation": {
						"codeDepositCost": "754600",
						"executionCost": "infinite",
						"totalCost": "infinite"
					},
					"external": {
						"buyEthWithTokens(uint256)": "infinite",
						"creator()": "2515",
						"ethTotal()": "2429",
						"getLatestEthPrice()": "infinite",
						"sellEthForTokens()": "infinite",
						"token()": "infinite",
						"tokenTotal()": "2473",
						"withdraw()": "infinite"
					}
				},
				"methodIdentifiers": {
					"buyEthWithTokens(uint256)": "3d1135ea",
					"creator()": "02d05d3f",
					"ethTotal()": "41eccbd5",
					"getLatestEthPrice()": "30c0b9ec",
					"sellEthForTokens()": "8e06355f",
					"token()": "fc0c546a",
					"tokenTotal()": "b1437e27",
					"withdraw()": "3ccfd60b"
				}
			},
			"storageLayout": {
				"storage": [
					{
						"astId": 819,
						"contract": "W5/pool.sol:Pool",
						"label": "ethTotal",
						"offset": 0,
						"slot": "0",
						"type": "t_uint256"
					},
					{
						"astId": 821,
						"contract": "W5/pool.sol:Pool",
						"label": "tokenTotal",
						"offset": 0,
						"slot": "1",
						"type": "t_uint256"
					},
					{
						"astId": 823,
						"contract": "W5/pool.sol:Pool",
						"label": "creator",
						"offset": 0,
						"slot": "2",
						"type": "t_address"
					},
					{
						"astId": 829,
						"contract": "W5/pool.sol:Pool",
						"label": "token",
						"offset": 0,
						"slot": "3",
						"type": "t_contract(ERC20)632"
					},
					{
						"astId": 835,
						"contract": "W5/pool.sol:Pool",
						"label": "ethPriceFeed",
						"offset": 0,
						"slot": "4",
						"type": "t_contract(AggregatorV3Interface)45"
					}
				],
				"types": {
					"t_address": {
						"encoding": "inplace",
						"label": "address",
						"numberOfBytes": "20"
					},
					"t_contract(AggregatorV3Interface)45": {
						"encoding": "inplace",
						"label": "contract AggregatorV3Interface",
						"numberOfBytes": "20"
					},
					"t_contract(ERC20)632": {
						"encoding": "inplace",
						"label": "contract ERC20",
						"numberOfBytes": "20"
					},
					"t_uint256": {
						"encoding": "inplace",
						"label": "uint256",
						"numberOfBytes": "32"
					}
				}
			},
			"userdoc": {
				"kind": "user",
				"methods": {},
				"version": 1
			}
		}
	}
}