{
  "abi": [
    {
      "inputs": [
        {
          "internalType": "uint256",
          "name": "tokenId",
          "type": "uint256"
        }
      ],
      "name": "collectAllFees",
      "outputs": [
        {
          "internalType": "uint256",
          "name": "amount0",
          "type": "uint256"
        },
        {
          "internalType": "uint256",
          "name": "amount1",
          "type": "uint256"
        }
      ],
      "stateMutability": "nonpayable",
      "type": "function"
    },
    {
      "inputs": [
        {
          "internalType": "uint256",
          "name": "tokenId",
          "type": "uint256"
        },
        {
          "internalType": "uint128",
          "name": "liquidity",
          "type": "uint128"
        }
      ],
      "name": "decreaseLiquidityCurrentRange",
      "outputs": [
        {
          "internalType": "uint256",
          "name": "amount0",
          "type": "uint256"
        },
        {
          "internalType": "uint256",
          "name": "amount1",
          "type": "uint256"
        }
      ],
      "stateMutability": "nonpayable",
      "type": "function"
    },
    {
      "inputs": [
        {
          "internalType": "uint256",
          "name": "tokenId",
          "type": "uint256"
        },
        {
          "internalType": "uint256",
          "name": "amount0ToAdd",
          "type": "uint256"
        },
        {
          "internalType": "uint256",
          "name": "amount1ToAdd",
          "type": "uint256"
        }
      ],
      "name": "increaseLiquidityCurrentRange",
      "outputs": [
        {
          "internalType": "uint128",
          "name": "liquidity",
          "type": "uint128"
        },
        {
          "internalType": "uint256",
          "name": "amount0",
          "type": "uint256"
        },
        {
          "internalType": "uint256",
          "name": "amount1",
          "type": "uint256"
        }
      ],
      "stateMutability": "nonpayable",
      "type": "function"
    },
    {
      "inputs": [
        {
          "internalType": "uint256",
          "name": "amount0ToAdd",
          "type": "uint256"
        },
        {
          "internalType": "uint256",
          "name": "amount1ToAdd",
          "type": "uint256"
        }
      ],
      "name": "mintNewPosition",
      "outputs": [
        {
          "internalType": "uint256",
          "name": "tokenId",
          "type": "uint256"
        },
        {
          "internalType": "uint128",
          "name": "liquidity",
          "type": "uint128"
        },
        {
          "internalType": "uint256",
          "name": "amount0",
          "type": "uint256"
        },
        {
          "internalType": "uint256",
          "name": "amount1",
          "type": "uint256"
        }
      ],
      "stateMutability": "nonpayable",
      "type": "function"
    },
    {
      "inputs": [],
      "name": "nonfungiblePositionManager",
      "outputs": [
        {
          "internalType": "contract INonfungiblePositionManager",
          "name": "",
          "type": "address"
        }
      ],
      "stateMutability": "view",
      "type": "function"
    },
    {
      "inputs": [
        {
          "internalType": "address",
          "name": "operator",
          "type": "address"
        },
        {
          "internalType": "address",
          "name": "from",
          "type": "address"
        },
        {
          "internalType": "uint256",
          "name": "tokenId",
          "type": "uint256"
        },
        {
          "internalType": "bytes",
          "name": "",
          "type": "bytes"
        }
      ],
      "name": "onERC721Received",
      "outputs": [
        {
          "internalType": "bytes4",
          "name": "",
          "type": "bytes4"
        }
      ],
      "stateMutability": "nonpayable",
      "type": "function"
    }
  ],
  "bytecode": {
    "object": "0x6080604052600080546001600160a01b03191673c36442b4a4522e871399cd717abdd847ab11fe8817905534801561003657600080fd5b50610fb3806100466000396000f3fe608060405234801561001057600080fd5b50600436106100625760003560e01c8063150b7a02146100675780631834c397146100a457806346ce96dd146100cc578063617d6d6e146100df578063b44a272214610117578063f058ebee14610142575b600080fd5b610086610075366004610bc9565b630a85bd0160e11b95945050505050565b6040516001600160e01b031990911681526020015b60405180910390f35b6100b76100b2366004610c7c565b61017d565b6040805192835260208301919091520161009b565b6100b76100da366004610cac565b61024e565b6100f26100ed366004610cc5565b610312565b604080516001600160801b03909416845260208401929092529082015260600161009b565b60005461012a906001600160a01b031681565b6040516001600160a01b03909116815260200161009b565b610155610150366004610cf1565b6105fb565b604080519485526001600160801b03909316602085015291830152606082015260800161009b565b6040805160a0810182528381526001600160801b0383811660208301908152600083850181815260608501828152426080870190815283549751630624e65f60e11b81528751600482015294519095166024850152905160448401525160648301529151608482015290928392916001600160a01b0390911690630c49ccbe9060a40160408051808303816000875af115801561021e573d6000803e3d6000fd5b505050506040513d601f19601f820116820180604052508101906102429190610d13565b90969095509350505050565b6040805160808101825282815230602082019081526001600160801b038284018181526060840182815260008054965163fc6f786560e01b81528651600482015294516001600160a01b03908116602487015292518416604486015290519092166064840152909384939291169063fc6f78659060840160408051808303816000875af11580156102e3573d6000803e3d6000fd5b505050506040513d601f19601f820116820180604052508101906103079190610d13565b909590945092505050565b6040516323b872dd60e01b815260009081908190736b175474e89094c44da98b954eedeac495271d0f906323b872dd9061035490339030908a90600401610d37565b6020604051808303816000875af1158015610373573d6000803e3d6000fd5b505050506040513d601f19601f820116820180604052508101906103979190610d5b565b506040516323b872dd60e01b815273c02aaa39b223fe8d0a0e5c4f27ead9083c756cc2906323b872dd906103d390339030908990600401610d37565b6020604051808303816000875af11580156103f2573d6000803e3d6000fd5b505050506040513d601f19601f820116820180604052508101906104169190610d5b565b5060005460405163095ea7b360e01b81526001600160a01b03909116600482015260248101869052736b175474e89094c44da98b954eedeac495271d0f9063095ea7b3906044016020604051808303816000875af115801561047c573d6000803e3d6000fd5b505050506040513d601f19601f820116820180604052508101906104a09190610d5b565b5060005460405163095ea7b360e01b81526001600160a01b0390911660048201526024810185905273c02aaa39b223fe8d0a0e5c4f27ead9083c756cc29063095ea7b3906044016020604051808303816000875af1158015610506573d6000803e3d6000fd5b505050506040513d601f19601f8201168201806040525081019061052a9190610d5b565b506040805160c08101825287815260208101878152818301878152600060608401818152608085018281524260a087019081529254965163219f5d1760e01b8152865160048201529451602486015292516044850152516064840152905160848301525160a482015290916001600160a01b03169063219f5d179060c4016060604051808303816000875af11580156105c7573d6000803e3d6000fd5b505050506040513d601f19601f820116820180604052508101906105eb9190610d84565b9199909850909650945050505050565b600080600080736b175474e89094c44da98b954eedeac495271d0f6001600160a01b03166323b872dd3330896040518463ffffffff1660e01b815260040161064593929190610d37565b6020604051808303816000875af1158015610664573d6000803e3d6000fd5b505050506040513d601f19601f820116820180604052508101906106889190610d5b565b506040516323b872dd60e01b815273c02aaa39b223fe8d0a0e5c4f27ead9083c756cc2906323b872dd906106c490339030908a90600401610d37565b6020604051808303816000875af11580156106e3573d6000803e3d6000fd5b505050506040513d601f19601f820116820180604052508101906107079190610d5b565b5060005460405163095ea7b360e01b81526001600160a01b03909116600482015260248101879052736b175474e89094c44da98b954eedeac495271d0f9063095ea7b3906044016020604051808303816000875af115801561076d573d6000803e3d6000fd5b505050506040513d601f19601f820116820180604052508101906107919190610d5b565b5060005460405163095ea7b360e01b81526001600160a01b0390911660048201526024810186905273c02aaa39b223fe8d0a0e5c4f27ead9083c756cc29063095ea7b3906044016020604051808303816000875af11580156107f7573d6000803e3d6000fd5b505050506040513d601f19601f8201168201806040525081019061081b9190610d5b565b506040805161016081018252736b175474e89094c44da98b954eedeac495271d0f815273c02aaa39b223fe8d0a0e5c4f27ead9083c756cc26020820152610bb89181019190915260009060608101603c61087981620d89e719610dd1565b6108839190610e19565b60020b8152602001603c8061089b620d89e719610e40565b6108a59190610dd1565b6108af9190610e19565b60020b8152602081018990526040808201899052600060608301819052608083018190523060a08401524260c09093019290925290549051634418b22b60e11b81529192506001600160a01b031690638831645690610912908490600401610e62565b6080604051808303816000875af1158015610931573d6000803e3d6000fd5b505050506040513d601f19601f820116820180604052508101906109559190610f26565b9297509095509350915086831015610a81576000805460405163095ea7b360e01b81526001600160a01b0390911660048201526024810191909152736b175474e89094c44da98b954eedeac495271d0f9063095ea7b3906044016020604051808303816000875af11580156109ce573d6000803e3d6000fd5b505050506040513d601f19601f820116820180604052508101906109f29190610d5b565b5060006109ff8489610f64565b60405163a9059cbb60e01b815233600482015260248101829052909150736b175474e89094c44da98b954eedeac495271d0f9063a9059cbb906044016020604051808303816000875af1158015610a5a573d6000803e3d6000fd5b505050506040513d601f19601f82011682018060405250810190610a7e9190610d5b565b50505b85821015610ba3576000805460405163095ea7b360e01b81526001600160a01b039091166004820152602481019190915273c02aaa39b223fe8d0a0e5c4f27ead9083c756cc29063095ea7b3906044016020604051808303816000875af1158015610af0573d6000803e3d6000fd5b505050506040513d601f19601f82011682018060405250810190610b149190610d5b565b506000610b218388610f64565b60405163a9059cbb60e01b81523360048201526024810182905290915073c02aaa39b223fe8d0a0e5c4f27ead9083c756cc29063a9059cbb906044016020604051808303816000875af1158015610b7c573d6000803e3d6000fd5b505050506040513d601f19601f82011682018060405250810190610ba09190610d5b565b50505b5092959194509250565b80356001600160a01b0381168114610bc457600080fd5b919050565b600080600080600060808688031215610be157600080fd5b610bea86610bad565b9450610bf860208701610bad565b935060408601359250606086013567ffffffffffffffff80821115610c1c57600080fd5b818801915088601f830112610c3057600080fd5b813581811115610c3f57600080fd5b896020828501011115610c5157600080fd5b9699959850939650602001949392505050565b6001600160801b0381168114610c7957600080fd5b50565b60008060408385031215610c8f57600080fd5b823591506020830135610ca181610c64565b809150509250929050565b600060208284031215610cbe57600080fd5b5035919050565b600080600060608486031215610cda57600080fd5b505081359360208301359350604090920135919050565b60008060408385031215610d0457600080fd5b50508035926020909101359150565b60008060408385031215610d2657600080fd5b505080516020909101519092909150565b6001600160a01b039384168152919092166020820152604081019190915260600190565b600060208284031215610d6d57600080fd5b81518015158114610d7d57600080fd5b9392505050565b600080600060608486031215610d9957600080fd5b8351610da481610c64565b602085015160409095015190969495509392505050565b634e487b7160e01b600052601160045260246000fd5b60008160020b8360020b80610df657634e487b7160e01b600052601260045260246000fd5b627fffff19821460001982141615610e1057610e10610dbb565b90059392505050565b60008260020b8260020b028060020b9150808214610e3957610e39610dbb565b5092915050565b60008160020b627fffff198103610e5957610e59610dbb565b60000392915050565b81516001600160a01b0316815261016081016020830151610e8e60208401826001600160a01b03169052565b506040830151610ea5604084018262ffffff169052565b506060830151610eba606084018260020b9052565b506080830151610ecf608084018260020b9052565b5060a083015160a083015260c083015160c083015260e083015160e083015261010080840151818401525061012080840151610f15828501826001600160a01b03169052565b505061014092830151919092015290565b60008060008060808587031215610f3c57600080fd5b845193506020850151610f4e81610c64565b6040860151606090960151949790965092505050565b81810381811115610f7757610f77610dbb565b9291505056fea2646970667358221220ea4f5061acc63b66812e7751958a7e02723cc71e6a22325a868987347101aadf64736f6c63430008120033",
    "linkReferences": {}
  },
  "methodIdentifiers": {
    "collectAllFees(uint256)": "46ce96dd",
    "decreaseLiquidityCurrentRange(uint256,uint128)": "1834c397",
    "increaseLiquidityCurrentRange(uint256,uint256,uint256)": "617d6d6e",
    "mintNewPosition(uint256,uint256)": "f058ebee",
    "nonfungiblePositionManager()": "b44a2722",
    "onERC721Received(address,address,uint256,bytes)": "150b7a02"
  },
  "id": 22
}