{
	"data": {
		"bytecode": {
			"linkReferences": {},
			"object": "608060405234801561001057600080fd5b5061085b806100206000396000f3fe608060405234801561001057600080fd5b506004361061002b5760003560e01c8063ca77ab6514610030575b600080fd5b61003861004e565b60405161004591906105f3565b60405180910390f35b6100566104ee565b60006040518060200160405280600167ffffffffffffffff81111561007e5761007d610615565b5b6040519080825280602002602001820160405280156100ac5781602001602082028036833780820191505090505b5081525090507fdd15fe86affad91249ef0eb713f39ebeaa987b6e6fd2a000000000000000000081600001516000815181106100eb576100ea610644565b5b60200260200101818152505060006101066104d260806101a5565b600161011291906106a2565b9050600060405180602001604052808367ffffffffffffffff81111561013b5761013a610615565b5b6040519080825280602002602001820160405280156101695781602001602082028036833780820191505090505b5081525090506101846104d2826101d290919063ffffffff16565b600061019982856102fa90919063ffffffff16565b90508094505050505090565b600081600183856101b691906106a2565b6101c091906106d6565b6101ca9190610739565b905092915050565b60006080826101e19190610739565b905060006080836101f2919061076a565b905083600001515182106102c657600060018361020f91906106a2565b67ffffffffffffffff81111561022857610227610615565b5b6040519080825280602002602001820160405280156102565781602001602082028036833780820191505090505b50905060005b8560000151518110156102ba57856000015181815181106102805761027f610644565b5b602002602001015182828151811061029b5761029a610644565b5b60200260200101818152505080806102b29061079b565b91505061025c565b50808560000181905250505b806001901b846000015183815181106102e2576102e1610644565b5b60200260200101818151179150818152505050505050565b6103026104ee565b61030a6104ee565b82600001515184600001515161032091906106a2565b67ffffffffffffffff81111561033957610338610615565b5b6040519080825280602002602001820160405280156103675781602001602082028036833780820191505090505b50816000018190525060005b8460000151518110156104e3576000805b85600001515181101561049a576000846000015182856103a491906106a2565b815181106103b5576103b4610644565b5b602002602001015183886000015184815181106103d5576103d4610644565b5b60200260200101518a6000015187815181106103f4576103f3610644565b5b602002602001015161040691906107e3565b61041091906106a2565b61041a91906106a2565b905070010000000000000000000000000000000081610439919061076a565b8560000151838661044a91906106a2565b8151811061045b5761045a610644565b5b602002602001018181525050700100000000000000000000000000000000816104849190610739565b92505080806104929061079b565b915050610384565b50808360000151866000015151846104b291906106a2565b815181106104c3576104c2610644565b5b6020026020010181815250505080806104db9061079b565b915050610373565b508091505092915050565b6040518060200160405280606081525090565b600081519050919050565b600082825260208201905092915050565b6000819050602082019050919050565b6000819050919050565b6105408161052d565b82525050565b60006105528383610537565b60208301905092915050565b6000602082019050919050565b600061057682610501565b610580818561050c565b935061058b8361051d565b8060005b838110156105bc5781516105a38882610546565b97506105ae8361055e565b92505060018101905061058f565b5085935050505092915050565b600060208301600083015184820360008601526105e6828261056b565b9150508091505092915050565b6000602082019050818103600083015261060d81846105c9565b905092915050565b7f4e487b7100000000000000000000000000000000000000000000000000000000600052604160045260246000fd5b7f4e487b7100000000000000000000000000000000000000000000000000000000600052603260045260246000fd5b7f4e487b7100000000000000000000000000000000000000000000000000000000600052601160045260246000fd5b60006106ad8261052d565b91506106b88361052d565b92508282019050808211156106d0576106cf610673565b5b92915050565b60006106e18261052d565b91506106ec8361052d565b925082820390508181111561070457610703610673565b5b92915050565b7f4e487b7100000000000000000000000000000000000000000000000000000000600052601260045260246000fd5b60006107448261052d565b915061074f8361052d565b92508261075f5761075e61070a565b5b828204905092915050565b60006107758261052d565b91506107808361052d565b9250826107905761078f61070a565b5b828206905092915050565b60006107a68261052d565b91507fffffffffffffffffffffffffffffffffffffffffffffffffffffffffffffffff82036107d8576107d7610673565b5b600182019050919050565b60006107ee8261052d565b91506107f98361052d565b92508282026108078161052d565b9150828204841483151761081e5761081d610673565b5b509291505056fea26469706673582212208f8a6b8761b798ebd8ebade8f984336f18e1274e3b20b2ffa107d3b22f0a58f664736f6c63430008120033",
			"opcodes": "PUSH1 0x80 PUSH1 0x40 MSTORE CALLVALUE DUP1 ISZERO PUSH2 0x10 JUMPI PUSH1 0x0 DUP1 REVERT JUMPDEST POP PUSH2 0x85B DUP1 PUSH2 0x20 PUSH1 0x0 CODECOPY PUSH1 0x0 RETURN INVALID PUSH1 0x80 PUSH1 0x40 MSTORE CALLVALUE DUP1 ISZERO PUSH2 0x10 JUMPI PUSH1 0x0 DUP1 REVERT JUMPDEST POP PUSH1 0x4 CALLDATASIZE LT PUSH2 0x2B JUMPI PUSH1 0x0 CALLDATALOAD PUSH1 0xE0 SHR DUP1 PUSH4 0xCA77AB65 EQ PUSH2 0x30 JUMPI JUMPDEST PUSH1 0x0 DUP1 REVERT JUMPDEST PUSH2 0x38 PUSH2 0x4E JUMP JUMPDEST PUSH1 0x40 MLOAD PUSH2 0x45 SWAP2 SWAP1 PUSH2 0x5F3 JUMP JUMPDEST PUSH1 0x40 MLOAD DUP1 SWAP2 SUB SWAP1 RETURN JUMPDEST PUSH2 0x56 PUSH2 0x4EE JUMP JUMPDEST PUSH1 0x0 PUSH1 0x40 MLOAD DUP1 PUSH1 0x20 ADD PUSH1 0x40 MSTORE DUP1 PUSH1 0x1 PUSH8 0xFFFFFFFFFFFFFFFF DUP2 GT ISZERO PUSH2 0x7E JUMPI PUSH2 0x7D PUSH2 0x615 JUMP JUMPDEST JUMPDEST PUSH1 0x40 MLOAD SWAP1 DUP1 DUP3 MSTORE DUP1 PUSH1 0x20 MUL PUSH1 0x20 ADD DUP3 ADD PUSH1 0x40 MSTORE DUP1 ISZERO PUSH2 0xAC JUMPI DUP2 PUSH1 0x20 ADD PUSH1 0x20 DUP3 MUL DUP1 CALLDATASIZE DUP4 CALLDATACOPY DUP1 DUP3 ADD SWAP2 POP POP SWAP1 POP JUMPDEST POP DUP2 MSTORE POP SWAP1 POP PUSH32 0xDD15FE86AFFAD91249EF0EB713F39EBEAA987B6E6FD2A0000000000000000000 DUP2 PUSH1 0x0 ADD MLOAD PUSH1 0x0 DUP2 MLOAD DUP2 LT PUSH2 0xEB JUMPI PUSH2 0xEA PUSH2 0x644 JUMP JUMPDEST JUMPDEST PUSH1 0x20 MUL PUSH1 0x20 ADD ADD DUP2 DUP2 MSTORE POP POP PUSH1 0x0 PUSH2 0x106 PUSH2 0x4D2 PUSH1 0x80 PUSH2 0x1A5 JUMP JUMPDEST PUSH1 0x1 PUSH2 0x112 SWAP2 SWAP1 PUSH2 0x6A2 JUMP JUMPDEST SWAP1 POP PUSH1 0x0 PUSH1 0x40 MLOAD DUP1 PUSH1 0x20 ADD PUSH1 0x40 MSTORE DUP1 DUP4 PUSH8 0xFFFFFFFFFFFFFFFF DUP2 GT ISZERO PUSH2 0x13B JUMPI PUSH2 0x13A PUSH2 0x615 JUMP JUMPDEST JUMPDEST PUSH1 0x40 MLOAD SWAP1 DUP1 DUP3 MSTORE DUP1 PUSH1 0x20 MUL PUSH1 0x20 ADD DUP3 ADD PUSH1 0x40 MSTORE DUP1 ISZERO PUSH2 0x169 JUMPI DUP2 PUSH1 0x20 ADD PUSH1 0x20 DUP3 MUL DUP1 CALLDATASIZE DUP4 CALLDATACOPY DUP1 DUP3 ADD SWAP2 POP POP SWAP1 POP JUMPDEST POP DUP2 MSTORE POP SWAP1 POP PUSH2 0x184 PUSH2 0x4D2 DUP3 PUSH2 0x1D2 SWAP1 SWAP2 SWAP1 PUSH4 0xFFFFFFFF AND JUMP JUMPDEST PUSH1 0x0 PUSH2 0x199 DUP3 DUP6 PUSH2 0x2FA SWAP1 SWAP2 SWAP1 PUSH4 0xFFFFFFFF AND JUMP JUMPDEST SWAP1 POP DUP1 SWAP5 POP POP POP POP POP SWAP1 JUMP JUMPDEST PUSH1 0x0 DUP2 PUSH1 0x1 DUP4 DUP6 PUSH2 0x1B6 SWAP2 SWAP1 PUSH2 0x6A2 JUMP JUMPDEST PUSH2 0x1C0 SWAP2 SWAP1 PUSH2 0x6D6 JUMP JUMPDEST PUSH2 0x1CA SWAP2 SWAP1 PUSH2 0x739 JUMP JUMPDEST SWAP1 POP SWAP3 SWAP2 POP POP JUMP JUMPDEST PUSH1 0x0 PUSH1 0x80 DUP3 PUSH2 0x1E1 SWAP2 SWAP1 PUSH2 0x739 JUMP JUMPDEST SWAP1 POP PUSH1 0x0 PUSH1 0x80 DUP4 PUSH2 0x1F2 SWAP2 SWAP1 PUSH2 0x76A JUMP JUMPDEST SWAP1 POP DUP4 PUSH1 0x0 ADD MLOAD MLOAD DUP3 LT PUSH2 0x2C6 JUMPI PUSH1 0x0 PUSH1 0x1 DUP4 PUSH2 0x20F SWAP2 SWAP1 PUSH2 0x6A2 JUMP JUMPDEST PUSH8 0xFFFFFFFFFFFFFFFF DUP2 GT ISZERO PUSH2 0x228 JUMPI PUSH2 0x227 PUSH2 0x615 JUMP JUMPDEST JUMPDEST PUSH1 0x40 MLOAD SWAP1 DUP1 DUP3 MSTORE DUP1 PUSH1 0x20 MUL PUSH1 0x20 ADD DUP3 ADD PUSH1 0x40 MSTORE DUP1 ISZERO PUSH2 0x256 JUMPI DUP2 PUSH1 0x20 ADD PUSH1 0x20 DUP3 MUL DUP1 CALLDATASIZE DUP4 CALLDATACOPY DUP1 DUP3 ADD SWAP2 POP POP SWAP1 POP JUMPDEST POP SWAP1 POP PUSH1 0x0 JUMPDEST DUP6 PUSH1 0x0 ADD MLOAD MLOAD DUP2 LT ISZERO PUSH2 0x2BA JUMPI DUP6 PUSH1 0x0 ADD MLOAD DUP2 DUP2 MLOAD DUP2 LT PUSH2 0x280 JUMPI PUSH2 0x27F PUSH2 0x644 JUMP JUMPDEST JUMPDEST PUSH1 0x20 MUL PUSH1 0x20 ADD ADD MLOAD DUP3 DUP3 DUP2 MLOAD DUP2 LT PUSH2 0x29B JUMPI PUSH2 0x29A PUSH2 0x644 JUMP JUMPDEST JUMPDEST PUSH1 0x20 MUL PUSH1 0x20 ADD ADD DUP2 DUP2 MSTORE POP POP DUP1 DUP1 PUSH2 0x2B2 SWAP1 PUSH2 0x79B JUMP JUMPDEST SWAP2 POP POP PUSH2 0x25C JUMP JUMPDEST POP DUP1 DUP6 PUSH1 0x0 ADD DUP2 SWAP1 MSTORE POP POP JUMPDEST DUP1 PUSH1 0x1 SWAP1 SHL DUP5 PUSH1 0x0 ADD MLOAD DUP4 DUP2 MLOAD DUP2 LT PUSH2 0x2E2 JUMPI PUSH2 0x2E1 PUSH2 0x644 JUMP JUMPDEST JUMPDEST PUSH1 0x20 MUL PUSH1 0x20 ADD ADD DUP2 DUP2 MLOAD OR SWAP2 POP DUP2 DUP2 MSTORE POP POP POP POP POP POP JUMP JUMPDEST PUSH2 0x302 PUSH2 0x4EE JUMP JUMPDEST PUSH2 0x30A PUSH2 0x4EE JUMP JUMPDEST DUP3 PUSH1 0x0 ADD MLOAD MLOAD DUP5 PUSH1 0x0 ADD MLOAD MLOAD PUSH2 0x320 SWAP2 SWAP1 PUSH2 0x6A2 JUMP JUMPDEST PUSH8 0xFFFFFFFFFFFFFFFF DUP2 GT ISZERO PUSH2 0x339 JUMPI PUSH2 0x338 PUSH2 0x615 JUMP JUMPDEST JUMPDEST PUSH1 0x40 MLOAD SWAP1 DUP1 DUP3 MSTORE DUP1 PUSH1 0x20 MUL PUSH1 0x20 ADD DUP3 ADD PUSH1 0x40 MSTORE DUP1 ISZERO PUSH2 0x367 JUMPI DUP2 PUSH1 0x20 ADD PUSH1 0x20 DUP3 MUL DUP1 CALLDATASIZE DUP4 CALLDATACOPY DUP1 DUP3 ADD SWAP2 POP POP SWAP1 POP JUMPDEST POP DUP2 PUSH1 0x0 ADD DUP2 SWAP1 MSTORE POP PUSH1 0x0 JUMPDEST DUP5 PUSH1 0x0 ADD MLOAD MLOAD DUP2 LT ISZERO PUSH2 0x4E3 JUMPI PUSH1 0x0 DUP1 JUMPDEST DUP6 PUSH1 0x0 ADD MLOAD MLOAD DUP2 LT ISZERO PUSH2 0x49A JUMPI PUSH1 0x0 DUP5 PUSH1 0x0 ADD MLOAD DUP3 DUP6 PUSH2 0x3A4 SWAP2 SWAP1 PUSH2 0x6A2 JUMP JUMPDEST DUP2 MLOAD DUP2 LT PUSH2 0x3B5 JUMPI PUSH2 0x3B4 PUSH2 0x644 JUMP JUMPDEST JUMPDEST PUSH1 0x20 MUL PUSH1 0x20 ADD ADD MLOAD DUP4 DUP9 PUSH1 0x0 ADD MLOAD DUP5 DUP2 MLOAD DUP2 LT PUSH2 0x3D5 JUMPI PUSH2 0x3D4 PUSH2 0x644 JUMP JUMPDEST JUMPDEST PUSH1 0x20 MUL PUSH1 0x20 ADD ADD MLOAD DUP11 PUSH1 0x0 ADD MLOAD DUP8 DUP2 MLOAD DUP2 LT PUSH2 0x3F4 JUMPI PUSH2 0x3F3 PUSH2 0x644 JUMP JUMPDEST JUMPDEST PUSH1 0x20 MUL PUSH1 0x20 ADD ADD MLOAD PUSH2 0x406 SWAP2 SWAP1 PUSH2 0x7E3 JUMP JUMPDEST PUSH2 0x410 SWAP2 SWAP1 PUSH2 0x6A2 JUMP JUMPDEST PUSH2 0x41A SWAP2 SWAP1 PUSH2 0x6A2 JUMP JUMPDEST SWAP1 POP PUSH17 0x100000000000000000000000000000000 DUP2 PUSH2 0x439 SWAP2 SWAP1 PUSH2 0x76A JUMP JUMPDEST DUP6 PUSH1 0x0 ADD MLOAD DUP4 DUP7 PUSH2 0x44A SWAP2 SWAP1 PUSH2 0x6A2 JUMP JUMPDEST DUP2 MLOAD DUP2 LT PUSH2 0x45B JUMPI PUSH2 0x45A PUSH2 0x644 JUMP JUMPDEST JUMPDEST PUSH1 0x20 MUL PUSH1 0x20 ADD ADD DUP2 DUP2 MSTORE POP POP PUSH17 0x100000000000000000000000000000000 DUP2 PUSH2 0x484 SWAP2 SWAP1 PUSH2 0x739 JUMP JUMPDEST SWAP3 POP POP DUP1 DUP1 PUSH2 0x492 SWAP1 PUSH2 0x79B JUMP JUMPDEST SWAP2 POP POP PUSH2 0x384 JUMP JUMPDEST POP DUP1 DUP4 PUSH1 0x0 ADD MLOAD DUP7 PUSH1 0x0 ADD MLOAD MLOAD DUP5 PUSH2 0x4B2 SWAP2 SWAP1 PUSH2 0x6A2 JUMP JUMPDEST DUP2 MLOAD DUP2 LT PUSH2 0x4C3 JUMPI PUSH2 0x4C2 PUSH2 0x644 JUMP JUMPDEST JUMPDEST PUSH1 0x20 MUL PUSH1 0x20 ADD ADD DUP2 DUP2 MSTORE POP POP POP DUP1 DUP1 PUSH2 0x4DB SWAP1 PUSH2 0x79B JUMP JUMPDEST SWAP2 POP POP PUSH2 0x373 JUMP JUMPDEST POP DUP1 SWAP2 POP POP SWAP3 SWAP2 POP POP JUMP JUMPDEST PUSH1 0x40 MLOAD DUP1 PUSH1 0x20 ADD PUSH1 0x40 MSTORE DUP1 PUSH1 0x60 DUP2 MSTORE POP SWAP1 JUMP JUMPDEST PUSH1 0x0 DUP2 MLOAD SWAP1 POP SWAP2 SWAP1 POP JUMP JUMPDEST PUSH1 0x0 DUP3 DUP3 MSTORE PUSH1 0x20 DUP3 ADD SWAP1 POP SWAP3 SWAP2 POP POP JUMP JUMPDEST PUSH1 0x0 DUP2 SWAP1 POP PUSH1 0x20 DUP3 ADD SWAP1 POP SWAP2 SWAP1 POP JUMP JUMPDEST PUSH1 0x0 DUP2 SWAP1 POP SWAP2 SWAP1 POP JUMP JUMPDEST PUSH2 0x540 DUP2 PUSH2 0x52D JUMP JUMPDEST DUP3 MSTORE POP POP JUMP JUMPDEST PUSH1 0x0 PUSH2 0x552 DUP4 DUP4 PUSH2 0x537 JUMP JUMPDEST PUSH1 0x20 DUP4 ADD SWAP1 POP SWAP3 SWAP2 POP POP JUMP JUMPDEST PUSH1 0x0 PUSH1 0x20 DUP3 ADD SWAP1 POP SWAP2 SWAP1 POP JUMP JUMPDEST PUSH1 0x0 PUSH2 0x576 DUP3 PUSH2 0x501 JUMP JUMPDEST PUSH2 0x580 DUP2 DUP6 PUSH2 0x50C JUMP JUMPDEST SWAP4 POP PUSH2 0x58B DUP4 PUSH2 0x51D JUMP JUMPDEST DUP1 PUSH1 0x0 JUMPDEST DUP4 DUP2 LT ISZERO PUSH2 0x5BC JUMPI DUP2 MLOAD PUSH2 0x5A3 DUP9 DUP3 PUSH2 0x546 JUMP JUMPDEST SWAP8 POP PUSH2 0x5AE DUP4 PUSH2 0x55E JUMP JUMPDEST SWAP3 POP POP PUSH1 0x1 DUP2 ADD SWAP1 POP PUSH2 0x58F JUMP JUMPDEST POP DUP6 SWAP4 POP POP POP POP SWAP3 SWAP2 POP POP JUMP JUMPDEST PUSH1 0x0 PUSH1 0x20 DUP4 ADD PUSH1 0x0 DUP4 ADD MLOAD DUP5 DUP3 SUB PUSH1 0x0 DUP7 ADD MSTORE PUSH2 0x5E6 DUP3 DUP3 PUSH2 0x56B JUMP JUMPDEST SWAP2 POP POP DUP1 SWAP2 POP POP SWAP3 SWAP2 POP POP JUMP JUMPDEST PUSH1 0x0 PUSH1 0x20 DUP3 ADD SWAP1 POP DUP2 DUP2 SUB PUSH1 0x0 DUP4 ADD MSTORE PUSH2 0x60D DUP2 DUP5 PUSH2 0x5C9 JUMP JUMPDEST SWAP1 POP SWAP3 SWAP2 POP POP JUMP JUMPDEST PUSH32 0x4E487B7100000000000000000000000000000000000000000000000000000000 PUSH1 0x0 MSTORE PUSH1 0x41 PUSH1 0x4 MSTORE PUSH1 0x24 PUSH1 0x0 REVERT JUMPDEST PUSH32 0x4E487B7100000000000000000000000000000000000000000000000000000000 PUSH1 0x0 MSTORE PUSH1 0x32 PUSH1 0x4 MSTORE PUSH1 0x24 PUSH1 0x0 REVERT JUMPDEST PUSH32 0x4E487B7100000000000000000000000000000000000000000000000000000000 PUSH1 0x0 MSTORE PUSH1 0x11 PUSH1 0x4 MSTORE PUSH1 0x24 PUSH1 0x0 REVERT JUMPDEST PUSH1 0x0 PUSH2 0x6AD DUP3 PUSH2 0x52D JUMP JUMPDEST SWAP2 POP PUSH2 0x6B8 DUP4 PUSH2 0x52D JUMP JUMPDEST SWAP3 POP DUP3 DUP3 ADD SWAP1 POP DUP1 DUP3 GT ISZERO PUSH2 0x6D0 JUMPI PUSH2 0x6CF PUSH2 0x673 JUMP JUMPDEST JUMPDEST SWAP3 SWAP2 POP POP JUMP JUMPDEST PUSH1 0x0 PUSH2 0x6E1 DUP3 PUSH2 0x52D JUMP JUMPDEST SWAP2 POP PUSH2 0x6EC DUP4 PUSH2 0x52D JUMP JUMPDEST SWAP3 POP DUP3 DUP3 SUB SWAP1 POP DUP2 DUP2 GT ISZERO PUSH2 0x704 JUMPI PUSH2 0x703 PUSH2 0x673 JUMP JUMPDEST JUMPDEST SWAP3 SWAP2 POP POP JUMP JUMPDEST PUSH32 0x4E487B7100000000000000000000000000000000000000000000000000000000 PUSH1 0x0 MSTORE PUSH1 0x12 PUSH1 0x4 MSTORE PUSH1 0x24 PUSH1 0x0 REVERT JUMPDEST PUSH1 0x0 PUSH2 0x744 DUP3 PUSH2 0x52D JUMP JUMPDEST SWAP2 POP PUSH2 0x74F DUP4 PUSH2 0x52D JUMP JUMPDEST SWAP3 POP DUP3 PUSH2 0x75F JUMPI PUSH2 0x75E PUSH2 0x70A JUMP JUMPDEST JUMPDEST DUP3 DUP3 DIV SWAP1 POP SWAP3 SWAP2 POP POP JUMP JUMPDEST PUSH1 0x0 PUSH2 0x775 DUP3 PUSH2 0x52D JUMP JUMPDEST SWAP2 POP PUSH2 0x780 DUP4 PUSH2 0x52D JUMP JUMPDEST SWAP3 POP DUP3 PUSH2 0x790 JUMPI PUSH2 0x78F PUSH2 0x70A JUMP JUMPDEST JUMPDEST DUP3 DUP3 MOD SWAP1 POP SWAP3 SWAP2 POP POP JUMP JUMPDEST PUSH1 0x0 PUSH2 0x7A6 DUP3 PUSH2 0x52D JUMP JUMPDEST SWAP2 POP PUSH32 0xFFFFFFFFFFFFFFFFFFFFFFFFFFFFFFFFFFFFFFFFFFFFFFFFFFFFFFFFFFFFFFFF DUP3 SUB PUSH2 0x7D8 JUMPI PUSH2 0x7D7 PUSH2 0x673 JUMP JUMPDEST JUMPDEST PUSH1 0x1 DUP3 ADD SWAP1 POP SWAP2 SWAP1 POP JUMP JUMPDEST PUSH1 0x0 PUSH2 0x7EE DUP3 PUSH2 0x52D JUMP JUMPDEST SWAP2 POP PUSH2 0x7F9 DUP4 PUSH2 0x52D JUMP JUMPDEST SWAP3 POP DUP3 DUP3 MUL PUSH2 0x807 DUP2 PUSH2 0x52D JUMP JUMPDEST SWAP2 POP DUP3 DUP3 DIV DUP5 EQ DUP4 ISZERO OR PUSH2 0x81E JUMPI PUSH2 0x81D PUSH2 0x673 JUMP JUMPDEST JUMPDEST POP SWAP3 SWAP2 POP POP JUMP INVALID LOG2 PUSH5 0x6970667358 0x22 SLT KECCAK256 DUP16 DUP11 PUSH12 0x8761B798EBD8EBADE8F98433 PUSH16 0x18E1274E3B20B2FFA107D3B22F0A58F6 PUSH5 0x736F6C6343 STOP ADDMOD SLT STOP CALLER "
		},
		"gasEstimates": {
			"creation": {
				"codeDepositCost": "427800",
				"executionCost": "461",
				"totalCost": "428261"
			},
			"external": {
				"calculate()": "infinite"
			},
			"internal": {
				"ceilDiv(uint256,uint256)": "infinite"
			}
		},
		"methodIdentifiers": {
			"calculate()": "ca77ab65"
		}
	},
	"abi": [
		{
			"inputs": [],
			"name": "calculate",
			"outputs": [
				{
					"components": [
						{
							"internalType": "uint256[]",
							"name": "limbs",
							"type": "uint256[]"
						}
					],
					"internalType": "struct BigInt.bigint",
					"name": "",
					"type": "tuple"
				}
			],
			"stateMutability": "pure",
			"type": "function"
		}
	]
}