{
  "abi": [
    {
      "inputs": [],
      "name": "calculate",
      "outputs": [
        {
          "components": [
            {
              "internalType": "uint256[]",
              "name": "limbs",
              "type": "uint256[]"
            }
          ],
          "internalType": "struct BigInt.bigint",
          "name": "",
          "type": "tuple"
        }
      ],
      "stateMutability": "pure",
      "type": "function"
    }
  ],
  "bytecode": {
    "object": "0x608060405234801561001057600080fd5b5061059c806100206000396000f3fe608060405234801561001057600080fd5b506004361061002b5760003560e01c8063ca77ab6514610030575b600080fd5b61003861004e565b6040516100459190610440565b60405180910390f35b604080516020808201835260608083528351600181840181815292820186529394600094919384939291840190803683375050509052805180519192507fdd15fe86affad91249ef0eb713f39ebeaa987b6e6fd2a0000000000000000000916000906100bc576100bc6104a6565b60200260200101818152505060006100d76104d26080610159565b6100e29060016104d2565b9050600060405180602001604052808367ffffffffffffffff81111561010a5761010a610490565b604051908082528060200260200182016040528015610133578160200160208202803683370190505b5090529050610144816104d2610185565b6000610150848361028d565b95945050505050565b600081600161016882866104d2565b61017291906104e5565b61017c919061050e565b90505b92915050565b600061019260808361050e565b905060006101a1608084610522565b845151909150821061025a5760006101ba8360016104d2565b67ffffffffffffffff8111156101d2576101d2610490565b6040519080825280602002602001820160405280156101fb578160200160208202803683370190505b50905060005b85515181101561025657855180518290811061021f5761021f6104a6565b6020026020010151828281518110610239576102396104a6565b60209081029190910101528061024e81610536565b915050610201565b5084525b806001901b84600001518381518110610275576102756104a6565b60200260200101818151179150818152505050505050565b6040805160208101909152606081526040805160208101909152606081528251518451516102bb91906104d2565b67ffffffffffffffff8111156102d3576102d3610490565b6040519080825280602002602001820160405280156102fc578160200160208202803683370190505b50815260005b845151811015610438576000805b8551518110156103f757835160009061032983866104d2565b81518110610339576103396104a6565b60200260200101518388600001518481518110610358576103586104a6565b60200260200101518a600001518781518110610376576103766104a6565b6020026020010151610388919061054f565b61039291906104d2565b61039c91906104d2565b90506103ac600160801b82610522565b85516103b884876104d2565b815181106103c8576103c86104a6565b60209081029190910101526103e1600160801b8261050e565b92505080806103ef90610536565b915050610310565b50825185515182919061040a90856104d2565b8151811061041a5761041a6104a6565b6020908102919091010152508061043081610536565b915050610302565b509392505050565b6020808252825182820182905280516040840181905260009291820190839060608601905b808310156104855783518252928401926001929092019190840190610465565b509695505050505050565b634e487b7160e01b600052604160045260246000fd5b634e487b7160e01b600052603260045260246000fd5b634e487b7160e01b600052601160045260246000fd5b8082018082111561017f5761017f6104bc565b8181038181111561017f5761017f6104bc565b634e487b7160e01b600052601260045260246000fd5b60008261051d5761051d6104f8565b500490565b600082610531576105316104f8565b500690565b600060018201610548576105486104bc565b5060010190565b808202811582820484141761017f5761017f6104bc56fea26469706673582212200615260f4d1500a3b07bb9c432a540ee5cae33fad4f4da445f7545b109cd5f7564736f6c63430008120033",
    "linkReferences": {}
  },
  "methodIdentifiers": {
    "calculate()": "ca77ab65"
  },
  "id": 22
}