{
	"data": {
		"bytecode": {
			"linkReferences": {},
			"object": "60a06040523480156200001157600080fd5b506040516200251a3803806200251a8339818101604052810190620000379190620000dc565b8073ffffffffffffffffffffffffffffffffffffffff1660808173ffffffffffffffffffffffffffffffffffffffff1681525050506200010e565b600080fd5b600073ffffffffffffffffffffffffffffffffffffffff82169050919050565b6000620000a48262000077565b9050919050565b620000b68162000097565b8114620000c257600080fd5b50565b600081519050620000d681620000ab565b92915050565b600060208284031215620000f557620000f462000072565b5b60006200010584828501620000c5565b91505092915050565b60805161238e6200018c6000396000818161054401528181610715015281816109a301528181610a4601528181610bbf01528181610cb601528181610e5301528181610ef60152818161124101528181611338015281816114d50152818161155001528181611737015281816118510152611941015261238e6000f3fe60806040526004361061011f5760003560e01c806394b918de116100a0578063dc2d845b11610064578063dc2d845b14610427578063dccc5fea14610464578063f5eb42dc146104a1578063fc0c546a146104de578063fcc2ba08146105095761011f565b806394b918de146103255780639c8f9f2314610355578063a201ccf614610393578063a607a8d9146103d1578063a734f06e146103fc5761011f565b806362279b65116100e757806362279b65146102125780636cae4f84146102425780636fb84b741461026d57806370a08231146102aa5780637a6a5e1b146102e75761011f565b806318160ddd14610124578063443cb4bc1461014f57806351c6590a1461017a57806356c1d7eb146101aa5780635a76f25e146101e7575b600080fd5b34801561013057600080fd5b50610139610534565b6040516101469190611a71565b60405180910390f35b34801561015b57600080fd5b5061016461053a565b6040516101719190611a71565b60405180910390f35b610194600480360381019061018f9190611abd565b610540565b6040516101a19190611a71565b60405180910390f35b3480156101b657600080fd5b506101d160048036038101906101cc9190611abd565b6107b8565b6040516101de9190611a71565b60405180910390f35b3480156101f357600080fd5b506101fc610865565b6040516102099190611a71565b60405180910390f35b61022c60048036038101906102279190611aea565b61086b565b6040516102399190611a71565b60405180910390f35b34801561024e57600080fd5b50610257610aeb565b6040516102649190611a71565b60405180910390f35b34801561027957600080fd5b50610294600480360381019061028f9190611abd565b610b32565b6040516102a19190611a71565b60405180910390f35b3480156102b657600080fd5b506102d160048036038101906102cc9190611b9b565b610d59565b6040516102de9190611a71565b60405180910390f35b3480156102f357600080fd5b5061030e60048036038101906103099190611b9b565b610d71565b60405161031c929190611bc8565b60405180910390f35b61033f600480360381019061033a9190611abd565b610dc6565b60405161034c9190611a71565b60405180910390f35b34801561036157600080fd5b5061037c60048036038101906103779190611abd565b610f99565b60405161038a929190611bc8565b60405180910390f35b34801561039f57600080fd5b506103ba60048036038101906103b59190611bf1565b611031565b6040516103c8929190611bc8565b60405180910390f35b3480156103dd57600080fd5b506103e66110cb565b6040516103f39190611a71565b60405180910390f35b34801561040857600080fd5b50610411611147565b60405161041e9190611c40565b60405180910390f35b34801561043357600080fd5b5061044e60048036038101906104499190611aea565b61114c565b60405161045b9190611a71565b60405180910390f35b34801561047057600080fd5b5061048b60048036038101906104869190611abd565b6113dd565b6040516104989190611a71565b60405180910390f35b3480156104ad57600080fd5b506104c860048036038101906104c39190611b9b565b61148a565b6040516104d59190611a71565b60405180910390f35b3480156104ea57600080fd5b506104f36114d3565b6040516105009190611cba565b60405180910390f35b34801561051557600080fd5b5061051e6114f7565b60405161052b9190611a71565b60405180910390f35b60025481565b60005481565b60007f000000000000000000000000000000000000000000000000000000000000000073ffffffffffffffffffffffffffffffffffffffff166323b872dd3330856040518463ffffffff1660e01b815260040161059f93929190611cd5565b6020604051808303816000875af11580156105be573d6000803e3d6000fd5b505050506040513d601f19601f820116820180604052508101906105e29190611d44565b5060003490506000805411806105fa57506000600154115b1561065c578060015461060d9190611da0565b8360005461061b9190611da0565b1461065b576040517f08c379a000000000000000000000000000000000000000000000000000000000815260040161065290611e3f565b60405180910390fd5b5b6000600254036106815761067a83826106759190611da0565b6115fc565b91506106c2565b6106bf600054600254836106959190611da0565b61069f9190611e8e565b600154600254866106b09190611da0565b6106ba9190611e8e565b611676565b91505b60008211610705576040517f08c379a00000000000000000000000000000000000000000000000000000000081526004016106fc90611f0b565b60405180910390fd5b61070f338361168f565b6107b2477f000000000000000000000000000000000000000000000000000000000000000073ffffffffffffffffffffffffffffffffffffffff166370a08231306040518263ffffffff1660e01b815260040161076c9190611c40565b602060405180830381865afa158015610789573d6000803e3d6000fd5b505050506040513d601f19601f820116820180604052508101906107ad9190611f40565b611702565b50919050565b6000806000541180156107cd57506000600154115b80156107d95750600082115b610818576040517f08c379a000000000000000000000000000000000000000000000000000000000815260040161080f90611fb9565b60405180910390fd5b60006103e86103e58461082b9190611da0565b6108359190611e8e565b9050806000546108459190611fd9565b816001546108539190611da0565b61085d9190611e8e565b915050919050565b60015481565b60008334146108af576040517f08c379a00000000000000000000000000000000000000000000000000000000081526004016108a690612059565b60405180910390fd5b60006103e86103e5866108c29190611da0565b6108cc9190611e8e565b9050806000546108dc9190611fd9565b816001546108ea9190611da0565b6108f49190611e8e565b915060008211610939576040517f08c379a0000000000000000000000000000000000000000000000000000000008152600401610930906120c5565b60405180910390fd5b6103e8836103e861094a91906120e5565b856109559190611da0565b61095f9190611e8e565b8210156109a1576040517f08c379a000000000000000000000000000000000000000000000000000000000815260040161099890612165565b60405180910390fd5b7f000000000000000000000000000000000000000000000000000000000000000073ffffffffffffffffffffffffffffffffffffffff1663a9059cbb33846040518363ffffffff1660e01b81526004016109fc929190612185565b6020604051808303816000875af1158015610a1b573d6000803e3d6000fd5b505050506040513d601f19601f82011682018060405250810190610a3f9190611d44565b50610ae3477f000000000000000000000000000000000000000000000000000000000000000073ffffffffffffffffffffffffffffffffffffffff166370a08231306040518263ffffffff1660e01b8152600401610a9d9190611c40565b602060405180830381865afa158015610aba573d6000803e3d6000fd5b505050506040513d601f19601f82011682018060405250810190610ade9190611f40565b611702565b509392505050565b6000600360003373ffffffffffffffffffffffffffffffffffffffff1673ffffffffffffffffffffffffffffffffffffffff16815260200190815260200160002054905090565b6000806103e86103e584610b469190611da0565b610b509190611e8e565b905080600154610b609190611fd9565b81600054610b6e9190611da0565b610b789190611e8e565b915060008211610bbd576040517f08c379a0000000000000000000000000000000000000000000000000000000008152600401610bb4906120c5565b60405180910390fd5b7f000000000000000000000000000000000000000000000000000000000000000073ffffffffffffffffffffffffffffffffffffffff166323b872dd3330866040518463ffffffff1660e01b8152600401610c1a93929190611cd5565b6020604051808303816000875af1158015610c39573d6000803e3d6000fd5b505050506040513d601f19601f82011682018060405250810190610c5d9190611d44565b503373ffffffffffffffffffffffffffffffffffffffff166108fc839081150290604051600060405180830381858888f19350505050158015610ca4573d6000803e3d6000fd5b50610d538247610cb491906120e5565b7f000000000000000000000000000000000000000000000000000000000000000073ffffffffffffffffffffffffffffffffffffffff166370a08231306040518263ffffffff1660e01b8152600401610d0d9190611c40565b602060405180830381865afa158015610d2a573d6000803e3d6000fd5b505050506040513d601f19601f82011682018060405250810190610d4e9190611f40565b611702565b50919050565b60036020528060005260406000206000915090505481565b600080610dbd83600360008673ffffffffffffffffffffffffffffffffffffffff1673ffffffffffffffffffffffffffffffffffffffff16815260200190815260200160002054611714565b91509150915091565b6000813414610e0a576040517f08c379a0000000000000000000000000000000000000000000000000000000008152600401610e0190612059565b60405180910390fd5b60006103e86103e584610e1d9190611da0565b610e279190611e8e565b905080600054610e379190611fd9565b81600154610e459190611da0565b610e4f9190611e8e565b91507f000000000000000000000000000000000000000000000000000000000000000073ffffffffffffffffffffffffffffffffffffffff1663a9059cbb33846040518363ffffffff1660e01b8152600401610eac929190612185565b6020604051808303816000875af1158015610ecb573d6000803e3d6000fd5b505050506040513d601f19601f82011682018060405250810190610eef9190611d44565b50610f93477f000000000000000000000000000000000000000000000000000000000000000073ffffffffffffffffffffffffffffffffffffffff166370a08231306040518263ffffffff1660e01b8152600401610f4d9190611c40565b602060405180830381865afa158015610f6a573d6000803e3d6000fd5b505050506040513d601f19601f82011682018060405250810190610f8e9190611f40565b611702565b50919050565b600080600360003373ffffffffffffffffffffffffffffffffffffffff1673ffffffffffffffffffffffffffffffffffffffff1681526020019081526020016000205483111561101e576040517f08c379a0000000000000000000000000000000000000000000000000000000008152600401611015906121fa565b60405180910390fd5b6110283384611714565b91509150915091565b600080600360008573ffffffffffffffffffffffffffffffffffffffff1673ffffffffffffffffffffffffffffffffffffffff168152602001908152602001600020548311156110b6576040517f08c379a00000000000000000000000000000000000000000000000000000000081526004016110ad906121fa565b60405180910390fd5b6110c08484611714565b915091509250929050565b6000806000541180156110e057506000600154115b61111f576040517f08c379a000000000000000000000000000000000000000000000000000000000815260040161111690612266565b60405180910390fd5b600054670de0b6b3a76400006001546111389190611da0565b6111429190611e8e565b905090565b600081565b6000806103e86103e5866111609190611da0565b61116a9190611e8e565b90508060015461117a9190611fd9565b816000546111889190611da0565b6111929190611e8e565b9150600082116111d7576040517f08c379a00000000000000000000000000000000000000000000000000000000081526004016111ce906120c5565b60405180910390fd5b6103e8836103e86111e891906120e5565b856111f39190611da0565b6111fd9190611e8e565b82101561123f576040517f08c379a000000000000000000000000000000000000000000000000000000000815260040161123690612165565b60405180910390fd5b7f000000000000000000000000000000000000000000000000000000000000000073ffffffffffffffffffffffffffffffffffffffff166323b872dd3330886040518463ffffffff1660e01b815260040161129c93929190611cd5565b6020604051808303816000875af11580156112bb573d6000803e3d6000fd5b505050506040513d601f19601f820116820180604052508101906112df9190611d44565b503373ffffffffffffffffffffffffffffffffffffffff166108fc839081150290604051600060405180830381858888f19350505050158015611326573d6000803e3d6000fd5b506113d5824761133691906120e5565b7f000000000000000000000000000000000000000000000000000000000000000073ffffffffffffffffffffffffffffffffffffffff166370a08231306040518263ffffffff1660e01b815260040161138f9190611c40565b602060405180830381865afa1580156113ac573d6000803e3d6000fd5b505050506040513d601f19601f820116820180604052508101906113d09190611f40565b611702565b509392505050565b6000806000541180156113f257506000600154115b80156113fe5750600082115b61143d576040517f08c379a000000000000000000000000000000000000000000000000000000000815260040161143490612266565b60405180910390fd5b60006103e86103e5846114509190611da0565b61145a9190611e8e565b90508060015461146a9190611fd9565b816000546114789190611da0565b6114829190611e8e565b915050919050565b6000600360008373ffffffffffffffffffffffffffffffffffffffff1673ffffffffffffffffffffffffffffffffffffffff168152602001908152602001600020549050919050565b7f000000000000000000000000000000000000000000000000000000000000000081565b60008060005411801561150c57506000600154115b61154b576040517f08c379a000000000000000000000000000000000000000000000000000000000815260040161154290611fb9565b60405180910390fd5b6001547f000000000000000000000000000000000000000000000000000000000000000073ffffffffffffffffffffffffffffffffffffffff1663313ce5676040518163ffffffff1660e01b8152600401602060405180830381865afa1580156115b9573d6000803e3d6000fd5b505050506040513d601f19601f820116820180604052508101906115dd91906122bf565b60ff166000546115ed9190611da0565b6115f79190611e8e565b905090565b60006003821115611663578190506000600160028461161b9190611e8e565b6116259190611fd9565b90505b8181101561165d5780915060028182856116429190611e8e565b61164c9190611fd9565b6116569190611e8e565b9050611628565b50611671565b6000821461167057600190505b5b919050565b60008183106116855781611687565b825b905092915050565b80600360008473ffffffffffffffffffffffffffffffffffffffff1673ffffffffffffffffffffffffffffffffffffffff16815260200190815260200160002060008282546116de9190611fd9565b9250508190555080600260008282546116f79190611fd9565b925050819055505050565b81600081905550806001819055505050565b60008060025447846117269190611da0565b6117309190611e8e565b91506002547f000000000000000000000000000000000000000000000000000000000000000073ffffffffffffffffffffffffffffffffffffffff166370a08231306040518263ffffffff1660e01b815260040161178e9190611c40565b602060405180830381865afa1580156117ab573d6000803e3d6000fd5b505050506040513d601f19601f820116820180604052508101906117cf9190611f40565b846117da9190611da0565b6117e49190611e8e565b90506000821180156117f65750600081115b611835576040517f08c379a000000000000000000000000000000000000000000000000000000000815260040161182c90612338565b60405180910390fd5b61183f84846119e5565b6118f8824761184e91906120e5565b827f000000000000000000000000000000000000000000000000000000000000000073ffffffffffffffffffffffffffffffffffffffff166370a08231306040518263ffffffff1660e01b81526004016118a89190611c40565b602060405180830381865afa1580156118c5573d6000803e3d6000fd5b505050506040513d601f19601f820116820180604052508101906118e99190611f40565b6118f391906120e5565b611702565b8373ffffffffffffffffffffffffffffffffffffffff166108fc839081150290604051600060405180830381858888f1935050505015801561193e573d6000803e3d6000fd5b507f000000000000000000000000000000000000000000000000000000000000000073ffffffffffffffffffffffffffffffffffffffff1663a9059cbb85836040518363ffffffff1660e01b815260040161199a929190612185565b6020604051808303816000875af11580156119b9573d6000803e3d6000fd5b505050506040513d601f19601f820116820180604052508101906119dd9190611d44565b509250929050565b80600360008473ffffffffffffffffffffffffffffffffffffffff1673ffffffffffffffffffffffffffffffffffffffff1681526020019081526020016000206000828254611a3491906120e5565b925050819055508060026000828254611a4d91906120e5565b925050819055505050565b6000819050919050565b611a6b81611a58565b82525050565b6000602082019050611a866000830184611a62565b92915050565b600080fd5b611a9a81611a58565b8114611aa557600080fd5b50565b600081359050611ab781611a91565b92915050565b600060208284031215611ad357611ad2611a8c565b5b6000611ae184828501611aa8565b91505092915050565b600080600060608486031215611b0357611b02611a8c565b5b6000611b1186828701611aa8565b9350506020611b2286828701611aa8565b9250506040611b3386828701611aa8565b9150509250925092565b600073ffffffffffffffffffffffffffffffffffffffff82169050919050565b6000611b6882611b3d565b9050919050565b611b7881611b5d565b8114611b8357600080fd5b50565b600081359050611b9581611b6f565b92915050565b600060208284031215611bb157611bb0611a8c565b5b6000611bbf84828501611b86565b91505092915050565b6000604082019050611bdd6000830185611a62565b611bea6020830184611a62565b9392505050565b60008060408385031215611c0857611c07611a8c565b5b6000611c1685828601611b86565b9250506020611c2785828601611aa8565b9150509250929050565b611c3a81611b5d565b82525050565b6000602082019050611c556000830184611c31565b92915050565b6000819050919050565b6000611c80611c7b611c7684611b3d565b611c5b565b611b3d565b9050919050565b6000611c9282611c65565b9050919050565b6000611ca482611c87565b9050919050565b611cb481611c99565b82525050565b6000602082019050611ccf6000830184611cab565b92915050565b6000606082019050611cea6000830186611c31565b611cf76020830185611c31565b611d046040830184611a62565b949350505050565b60008115159050919050565b611d2181611d0c565b8114611d2c57600080fd5b50565b600081519050611d3e81611d18565b92915050565b600060208284031215611d5a57611d59611a8c565b5b6000611d6884828501611d2f565b91505092915050565b7f4e487b7100000000000000000000000000000000000000000000000000000000600052601160045260246000fd5b6000611dab82611a58565b9150611db683611a58565b9250828202611dc481611a58565b91508282048414831517611ddb57611dda611d71565b5b5092915050565b600082825260208201905092915050565b7f78202f207920213d206478202f20647900000000000000000000000000000000600082015250565b6000611e29601083611de2565b9150611e3482611df3565b602082019050919050565b60006020820190508181036000830152611e5881611e1c565b9050919050565b7f4e487b7100000000000000000000000000000000000000000000000000000000600052601260045260246000fd5b6000611e9982611a58565b9150611ea483611a58565b925082611eb457611eb3611e5f565b5b828204905092915050565b7f736861726573203d203000000000000000000000000000000000000000000000600082015250565b6000611ef5600a83611de2565b9150611f0082611ebf565b602082019050919050565b60006020820190508181036000830152611f2481611ee8565b9050919050565b600081519050611f3a81611a91565b92915050565b600060208284031215611f5657611f55611a8c565b5b6000611f6484828501611f2b565b91505092915050565b7f496e76616c696420455243323020726573657276657300000000000000000000600082015250565b6000611fa3601683611de2565b9150611fae82611f6d565b602082019050919050565b60006020820190508181036000830152611fd281611f96565b9050919050565b6000611fe482611a58565b9150611fef83611a58565b925082820190508082111561200757612006611d71565b5b92915050565b7f45544820616d6f756e74206d69736d6174636800000000000000000000000000600082015250565b6000612043601383611de2565b915061204e8261200d565b602082019050919050565b6000602082019050818103600083015261207281612036565b9050919050565b7f496e73756666696369656e74206f757470757420616d6f756e74000000000000600082015250565b60006120af601a83611de2565b91506120ba82612079565b602082019050919050565b600060208201905081810360008301526120de816120a2565b9050919050565b60006120f082611a58565b91506120fb83611a58565b925082820390508181111561211357612112611d71565b5b92915050565b7f536c69704c6f636b000000000000000000000000000000000000000000000000600082015250565b600061214f600883611de2565b915061215a82612119565b602082019050919050565b6000602082019050818103600083015261217e81612142565b9050919050565b600060408201905061219a6000830185611c31565b6121a76020830184611a62565b9392505050565b7f496e73756666696369656e742062616c616e6365000000000000000000000000600082015250565b60006121e4601483611de2565b91506121ef826121ae565b602082019050919050565b60006020820190508181036000830152612213816121d7565b9050919050565b7f496e76616c696420455448207265736572766573000000000000000000000000600082015250565b6000612250601483611de2565b915061225b8261221a565b602082019050919050565b6000602082019050818103600083015261227f81612243565b9050919050565b600060ff82169050919050565b61229c81612286565b81146122a757600080fd5b50565b6000815190506122b981612293565b92915050565b6000602082840312156122d5576122d4611a8c565b5b60006122e3848285016122aa565b91505092915050565b7f616d6f756e7430206f7220616d6f756e7431203d203000000000000000000000600082015250565b6000612322601683611de2565b915061232d826122ec565b602082019050919050565b6000602082019050818103600083015261235181612315565b905091905056fea2646970667358221220991b6051337e7a6d15e8719efce3907ca606aa0f367b5575ee221fabe6bc0f4664736f6c63430008120033",
			"opcodes": "PUSH1 0xA0 PUSH1 0x40 MSTORE CALLVALUE DUP1 ISZERO PUSH3 0x11 JUMPI PUSH1 0x0 DUP1 REVERT JUMPDEST POP PUSH1 0x40 MLOAD PUSH3 0x251A CODESIZE SUB DUP1 PUSH3 0x251A DUP4 CODECOPY DUP2 DUP2 ADD PUSH1 0x40 MSTORE DUP2 ADD SWAP1 PUSH3 0x37 SWAP2 SWAP1 PUSH3 0xDC JUMP JUMPDEST DUP1 PUSH20 0xFFFFFFFFFFFFFFFFFFFFFFFFFFFFFFFFFFFFFFFF AND PUSH1 0x80 DUP2 PUSH20 0xFFFFFFFFFFFFFFFFFFFFFFFFFFFFFFFFFFFFFFFF AND DUP2 MSTORE POP POP POP PUSH3 0x10E JUMP JUMPDEST PUSH1 0x0 DUP1 REVERT JUMPDEST PUSH1 0x0 PUSH20 0xFFFFFFFFFFFFFFFFFFFFFFFFFFFFFFFFFFFFFFFF DUP3 AND SWAP1 POP SWAP2 SWAP1 POP JUMP JUMPDEST PUSH1 0x0 PUSH3 0xA4 DUP3 PUSH3 0x77 JUMP JUMPDEST SWAP1 POP SWAP2 SWAP1 POP JUMP JUMPDEST PUSH3 0xB6 DUP2 PUSH3 0x97 JUMP JUMPDEST DUP2 EQ PUSH3 0xC2 JUMPI PUSH1 0x0 DUP1 REVERT JUMPDEST POP JUMP JUMPDEST PUSH1 0x0 DUP2 MLOAD SWAP1 POP PUSH3 0xD6 DUP2 PUSH3 0xAB JUMP JUMPDEST SWAP3 SWAP2 POP POP JUMP JUMPDEST PUSH1 0x0 PUSH1 0x20 DUP3 DUP5 SUB SLT ISZERO PUSH3 0xF5 JUMPI PUSH3 0xF4 PUSH3 0x72 JUMP JUMPDEST JUMPDEST PUSH1 0x0 PUSH3 0x105 DUP5 DUP3 DUP6 ADD PUSH3 0xC5 JUMP JUMPDEST SWAP2 POP POP SWAP3 SWAP2 POP POP JUMP JUMPDEST PUSH1 0x80 MLOAD PUSH2 0x238E PUSH3 0x18C PUSH1 0x0 CODECOPY PUSH1 0x0 DUP2 DUP2 PUSH2 0x544 ADD MSTORE DUP2 DUP2 PUSH2 0x715 ADD MSTORE DUP2 DUP2 PUSH2 0x9A3 ADD MSTORE DUP2 DUP2 PUSH2 0xA46 ADD MSTORE DUP2 DUP2 PUSH2 0xBBF ADD MSTORE DUP2 DUP2 PUSH2 0xCB6 ADD MSTORE DUP2 DUP2 PUSH2 0xE53 ADD MSTORE DUP2 DUP2 PUSH2 0xEF6 ADD MSTORE DUP2 DUP2 PUSH2 0x1241 ADD MSTORE DUP2 DUP2 PUSH2 0x1338 ADD MSTORE DUP2 DUP2 PUSH2 0x14D5 ADD MSTORE DUP2 DUP2 PUSH2 0x1550 ADD MSTORE DUP2 DUP2 PUSH2 0x1737 ADD MSTORE DUP2 DUP2 PUSH2 0x1851 ADD MSTORE PUSH2 0x1941 ADD MSTORE PUSH2 0x238E PUSH1 0x0 RETURN INVALID PUSH1 0x80 PUSH1 0x40 MSTORE PUSH1 0x4 CALLDATASIZE LT PUSH2 0x11F JUMPI PUSH1 0x0 CALLDATALOAD PUSH1 0xE0 SHR DUP1 PUSH4 0x94B918DE GT PUSH2 0xA0 JUMPI DUP1 PUSH4 0xDC2D845B GT PUSH2 0x64 JUMPI DUP1 PUSH4 0xDC2D845B EQ PUSH2 0x427 JUMPI DUP1 PUSH4 0xDCCC5FEA EQ PUSH2 0x464 JUMPI DUP1 PUSH4 0xF5EB42DC EQ PUSH2 0x4A1 JUMPI DUP1 PUSH4 0xFC0C546A EQ PUSH2 0x4DE JUMPI DUP1 PUSH4 0xFCC2BA08 EQ PUSH2 0x509 JUMPI PUSH2 0x11F JUMP JUMPDEST DUP1 PUSH4 0x94B918DE EQ PUSH2 0x325 JUMPI DUP1 PUSH4 0x9C8F9F23 EQ PUSH2 0x355 JUMPI DUP1 PUSH4 0xA201CCF6 EQ PUSH2 0x393 JUMPI DUP1 PUSH4 0xA607A8D9 EQ PUSH2 0x3D1 JUMPI DUP1 PUSH4 0xA734F06E EQ PUSH2 0x3FC JUMPI PUSH2 0x11F JUMP JUMPDEST DUP1 PUSH4 0x62279B65 GT PUSH2 0xE7 JUMPI DUP1 PUSH4 0x62279B65 EQ PUSH2 0x212 JUMPI DUP1 PUSH4 0x6CAE4F84 EQ PUSH2 0x242 JUMPI DUP1 PUSH4 0x6FB84B74 EQ PUSH2 0x26D JUMPI DUP1 PUSH4 0x70A08231 EQ PUSH2 0x2AA JUMPI DUP1 PUSH4 0x7A6A5E1B EQ PUSH2 0x2E7 JUMPI PUSH2 0x11F JUMP JUMPDEST DUP1 PUSH4 0x18160DDD EQ PUSH2 0x124 JUMPI DUP1 PUSH4 0x443CB4BC EQ PUSH2 0x14F JUMPI DUP1 PUSH4 0x51C6590A EQ PUSH2 0x17A JUMPI DUP1 PUSH4 0x56C1D7EB EQ PUSH2 0x1AA JUMPI DUP1 PUSH4 0x5A76F25E EQ PUSH2 0x1E7 JUMPI JUMPDEST PUSH1 0x0 DUP1 REVERT JUMPDEST CALLVALUE DUP1 ISZERO PUSH2 0x130 JUMPI PUSH1 0x0 DUP1 REVERT JUMPDEST POP PUSH2 0x139 PUSH2 0x534 JUMP JUMPDEST PUSH1 0x40 MLOAD PUSH2 0x146 SWAP2 SWAP1 PUSH2 0x1A71 JUMP JUMPDEST PUSH1 0x40 MLOAD DUP1 SWAP2 SUB SWAP1 RETURN JUMPDEST CALLVALUE DUP1 ISZERO PUSH2 0x15B JUMPI PUSH1 0x0 DUP1 REVERT JUMPDEST POP PUSH2 0x164 PUSH2 0x53A JUMP JUMPDEST PUSH1 0x40 MLOAD PUSH2 0x171 SWAP2 SWAP1 PUSH2 0x1A71 JUMP JUMPDEST PUSH1 0x40 MLOAD DUP1 SWAP2 SUB SWAP1 RETURN JUMPDEST PUSH2 0x194 PUSH1 0x4 DUP1 CALLDATASIZE SUB DUP2 ADD SWAP1 PUSH2 0x18F SWAP2 SWAP1 PUSH2 0x1ABD JUMP JUMPDEST PUSH2 0x540 JUMP JUMPDEST PUSH1 0x40 MLOAD PUSH2 0x1A1 SWAP2 SWAP1 PUSH2 0x1A71 JUMP JUMPDEST PUSH1 0x40 MLOAD DUP1 SWAP2 SUB SWAP1 RETURN JUMPDEST CALLVALUE DUP1 ISZERO PUSH2 0x1B6 JUMPI PUSH1 0x0 DUP1 REVERT JUMPDEST POP PUSH2 0x1D1 PUSH1 0x4 DUP1 CALLDATASIZE SUB DUP2 ADD SWAP1 PUSH2 0x1CC SWAP2 SWAP1 PUSH2 0x1ABD JUMP JUMPDEST PUSH2 0x7B8 JUMP JUMPDEST PUSH1 0x40 MLOAD PUSH2 0x1DE SWAP2 SWAP1 PUSH2 0x1A71 JUMP JUMPDEST PUSH1 0x40 MLOAD DUP1 SWAP2 SUB SWAP1 RETURN JUMPDEST CALLVALUE DUP1 ISZERO PUSH2 0x1F3 JUMPI PUSH1 0x0 DUP1 REVERT JUMPDEST POP PUSH2 0x1FC PUSH2 0x865 JUMP JUMPDEST PUSH1 0x40 MLOAD PUSH2 0x209 SWAP2 SWAP1 PUSH2 0x1A71 JUMP JUMPDEST PUSH1 0x40 MLOAD DUP1 SWAP2 SUB SWAP1 RETURN JUMPDEST PUSH2 0x22C PUSH1 0x4 DUP1 CALLDATASIZE SUB DUP2 ADD SWAP1 PUSH2 0x227 SWAP2 SWAP1 PUSH2 0x1AEA JUMP JUMPDEST PUSH2 0x86B JUMP JUMPDEST PUSH1 0x40 MLOAD PUSH2 0x239 SWAP2 SWAP1 PUSH2 0x1A71 JUMP JUMPDEST PUSH1 0x40 MLOAD DUP1 SWAP2 SUB SWAP1 RETURN JUMPDEST CALLVALUE DUP1 ISZERO PUSH2 0x24E JUMPI PUSH1 0x0 DUP1 REVERT JUMPDEST POP PUSH2 0x257 PUSH2 0xAEB JUMP JUMPDEST PUSH1 0x40 MLOAD PUSH2 0x264 SWAP2 SWAP1 PUSH2 0x1A71 JUMP JUMPDEST PUSH1 0x40 MLOAD DUP1 SWAP2 SUB SWAP1 RETURN JUMPDEST CALLVALUE DUP1 ISZERO PUSH2 0x279 JUMPI PUSH1 0x0 DUP1 REVERT JUMPDEST POP PUSH2 0x294 PUSH1 0x4 DUP1 CALLDATASIZE SUB DUP2 ADD SWAP1 PUSH2 0x28F SWAP2 SWAP1 PUSH2 0x1ABD JUMP JUMPDEST PUSH2 0xB32 JUMP JUMPDEST PUSH1 0x40 MLOAD PUSH2 0x2A1 SWAP2 SWAP1 PUSH2 0x1A71 JUMP JUMPDEST PUSH1 0x40 MLOAD DUP1 SWAP2 SUB SWAP1 RETURN JUMPDEST CALLVALUE DUP1 ISZERO PUSH2 0x2B6 JUMPI PUSH1 0x0 DUP1 REVERT JUMPDEST POP PUSH2 0x2D1 PUSH1 0x4 DUP1 CALLDATASIZE SUB DUP2 ADD SWAP1 PUSH2 0x2CC SWAP2 SWAP1 PUSH2 0x1B9B JUMP JUMPDEST PUSH2 0xD59 JUMP JUMPDEST PUSH1 0x40 MLOAD PUSH2 0x2DE SWAP2 SWAP1 PUSH2 0x1A71 JUMP JUMPDEST PUSH1 0x40 MLOAD DUP1 SWAP2 SUB SWAP1 RETURN JUMPDEST CALLVALUE DUP1 ISZERO PUSH2 0x2F3 JUMPI PUSH1 0x0 DUP1 REVERT JUMPDEST POP PUSH2 0x30E PUSH1 0x4 DUP1 CALLDATASIZE SUB DUP2 ADD SWAP1 PUSH2 0x309 SWAP2 SWAP1 PUSH2 0x1B9B JUMP JUMPDEST PUSH2 0xD71 JUMP JUMPDEST PUSH1 0x40 MLOAD PUSH2 0x31C SWAP3 SWAP2 SWAP1 PUSH2 0x1BC8 JUMP JUMPDEST PUSH1 0x40 MLOAD DUP1 SWAP2 SUB SWAP1 RETURN JUMPDEST PUSH2 0x33F PUSH1 0x4 DUP1 CALLDATASIZE SUB DUP2 ADD SWAP1 PUSH2 0x33A SWAP2 SWAP1 PUSH2 0x1ABD JUMP JUMPDEST PUSH2 0xDC6 JUMP JUMPDEST PUSH1 0x40 MLOAD PUSH2 0x34C SWAP2 SWAP1 PUSH2 0x1A71 JUMP JUMPDEST PUSH1 0x40 MLOAD DUP1 SWAP2 SUB SWAP1 RETURN JUMPDEST CALLVALUE DUP1 ISZERO PUSH2 0x361 JUMPI PUSH1 0x0 DUP1 REVERT JUMPDEST POP PUSH2 0x37C PUSH1 0x4 DUP1 CALLDATASIZE SUB DUP2 ADD SWAP1 PUSH2 0x377 SWAP2 SWAP1 PUSH2 0x1ABD JUMP JUMPDEST PUSH2 0xF99 JUMP JUMPDEST PUSH1 0x40 MLOAD PUSH2 0x38A SWAP3 SWAP2 SWAP1 PUSH2 0x1BC8 JUMP JUMPDEST PUSH1 0x40 MLOAD DUP1 SWAP2 SUB SWAP1 RETURN JUMPDEST CALLVALUE DUP1 ISZERO PUSH2 0x39F JUMPI PUSH1 0x0 DUP1 REVERT JUMPDEST POP PUSH2 0x3BA PUSH1 0x4 DUP1 CALLDATASIZE SUB DUP2 ADD SWAP1 PUSH2 0x3B5 SWAP2 SWAP1 PUSH2 0x1BF1 JUMP JUMPDEST PUSH2 0x1031 JUMP JUMPDEST PUSH1 0x40 MLOAD PUSH2 0x3C8 SWAP3 SWAP2 SWAP1 PUSH2 0x1BC8 JUMP JUMPDEST PUSH1 0x40 MLOAD DUP1 SWAP2 SUB SWAP1 RETURN JUMPDEST CALLVALUE DUP1 ISZERO PUSH2 0x3DD JUMPI PUSH1 0x0 DUP1 REVERT JUMPDEST POP PUSH2 0x3E6 PUSH2 0x10CB JUMP JUMPDEST PUSH1 0x40 MLOAD PUSH2 0x3F3 SWAP2 SWAP1 PUSH2 0x1A71 JUMP JUMPDEST PUSH1 0x40 MLOAD DUP1 SWAP2 SUB SWAP1 RETURN JUMPDEST CALLVALUE DUP1 ISZERO PUSH2 0x408 JUMPI PUSH1 0x0 DUP1 REVERT JUMPDEST POP PUSH2 0x411 PUSH2 0x1147 JUMP JUMPDEST PUSH1 0x40 MLOAD PUSH2 0x41E SWAP2 SWAP1 PUSH2 0x1C40 JUMP JUMPDEST PUSH1 0x40 MLOAD DUP1 SWAP2 SUB SWAP1 RETURN JUMPDEST CALLVALUE DUP1 ISZERO PUSH2 0x433 JUMPI PUSH1 0x0 DUP1 REVERT JUMPDEST POP PUSH2 0x44E PUSH1 0x4 DUP1 CALLDATASIZE SUB DUP2 ADD SWAP1 PUSH2 0x449 SWAP2 SWAP1 PUSH2 0x1AEA JUMP JUMPDEST PUSH2 0x114C JUMP JUMPDEST PUSH1 0x40 MLOAD PUSH2 0x45B SWAP2 SWAP1 PUSH2 0x1A71 JUMP JUMPDEST PUSH1 0x40 MLOAD DUP1 SWAP2 SUB SWAP1 RETURN JUMPDEST CALLVALUE DUP1 ISZERO PUSH2 0x470 JUMPI PUSH1 0x0 DUP1 REVERT JUMPDEST POP PUSH2 0x48B PUSH1 0x4 DUP1 CALLDATASIZE SUB DUP2 ADD SWAP1 PUSH2 0x486 SWAP2 SWAP1 PUSH2 0x1ABD JUMP JUMPDEST PUSH2 0x13DD JUMP JUMPDEST PUSH1 0x40 MLOAD PUSH2 0x498 SWAP2 SWAP1 PUSH2 0x1A71 JUMP JUMPDEST PUSH1 0x40 MLOAD DUP1 SWAP2 SUB SWAP1 RETURN JUMPDEST CALLVALUE DUP1 ISZERO PUSH2 0x4AD JUMPI PUSH1 0x0 DUP1 REVERT JUMPDEST POP PUSH2 0x4C8 PUSH1 0x4 DUP1 CALLDATASIZE SUB DUP2 ADD SWAP1 PUSH2 0x4C3 SWAP2 SWAP1 PUSH2 0x1B9B JUMP JUMPDEST PUSH2 0x148A JUMP JUMPDEST PUSH1 0x40 MLOAD PUSH2 0x4D5 SWAP2 SWAP1 PUSH2 0x1A71 JUMP JUMPDEST PUSH1 0x40 MLOAD DUP1 SWAP2 SUB SWAP1 RETURN JUMPDEST CALLVALUE DUP1 ISZERO PUSH2 0x4EA JUMPI PUSH1 0x0 DUP1 REVERT JUMPDEST POP PUSH2 0x4F3 PUSH2 0x14D3 JUMP JUMPDEST PUSH1 0x40 MLOAD PUSH2 0x500 SWAP2 SWAP1 PUSH2 0x1CBA JUMP JUMPDEST PUSH1 0x40 MLOAD DUP1 SWAP2 SUB SWAP1 RETURN JUMPDEST CALLVALUE DUP1 ISZERO PUSH2 0x515 JUMPI PUSH1 0x0 DUP1 REVERT JUMPDEST POP PUSH2 0x51E PUSH2 0x14F7 JUMP JUMPDEST PUSH1 0x40 MLOAD PUSH2 0x52B SWAP2 SWAP1 PUSH2 0x1A71 JUMP JUMPDEST PUSH1 0x40 MLOAD DUP1 SWAP2 SUB SWAP1 RETURN JUMPDEST PUSH1 0x2 SLOAD DUP2 JUMP JUMPDEST PUSH1 0x0 SLOAD DUP2 JUMP JUMPDEST PUSH1 0x0 PUSH32 0x0 PUSH20 0xFFFFFFFFFFFFFFFFFFFFFFFFFFFFFFFFFFFFFFFF AND PUSH4 0x23B872DD CALLER ADDRESS DUP6 PUSH1 0x40 MLOAD DUP5 PUSH4 0xFFFFFFFF AND PUSH1 0xE0 SHL DUP2 MSTORE PUSH1 0x4 ADD PUSH2 0x59F SWAP4 SWAP3 SWAP2 SWAP1 PUSH2 0x1CD5 JUMP JUMPDEST PUSH1 0x20 PUSH1 0x40 MLOAD DUP1 DUP4 SUB DUP2 PUSH1 0x0 DUP8 GAS CALL ISZERO DUP1 ISZERO PUSH2 0x5BE JUMPI RETURNDATASIZE PUSH1 0x0 DUP1 RETURNDATACOPY RETURNDATASIZE PUSH1 0x0 REVERT JUMPDEST POP POP POP POP PUSH1 0x40 MLOAD RETURNDATASIZE PUSH1 0x1F NOT PUSH1 0x1F DUP3 ADD AND DUP3 ADD DUP1 PUSH1 0x40 MSTORE POP DUP2 ADD SWAP1 PUSH2 0x5E2 SWAP2 SWAP1 PUSH2 0x1D44 JUMP JUMPDEST POP PUSH1 0x0 CALLVALUE SWAP1 POP PUSH1 0x0 DUP1 SLOAD GT DUP1 PUSH2 0x5FA JUMPI POP PUSH1 0x0 PUSH1 0x1 SLOAD GT JUMPDEST ISZERO PUSH2 0x65C JUMPI DUP1 PUSH1 0x1 SLOAD PUSH2 0x60D SWAP2 SWAP1 PUSH2 0x1DA0 JUMP JUMPDEST DUP4 PUSH1 0x0 SLOAD PUSH2 0x61B SWAP2 SWAP1 PUSH2 0x1DA0 JUMP JUMPDEST EQ PUSH2 0x65B JUMPI PUSH1 0x40 MLOAD PUSH32 0x8C379A000000000000000000000000000000000000000000000000000000000 DUP2 MSTORE PUSH1 0x4 ADD PUSH2 0x652 SWAP1 PUSH2 0x1E3F JUMP JUMPDEST PUSH1 0x40 MLOAD DUP1 SWAP2 SUB SWAP1 REVERT JUMPDEST JUMPDEST PUSH1 0x0 PUSH1 0x2 SLOAD SUB PUSH2 0x681 JUMPI PUSH2 0x67A DUP4 DUP3 PUSH2 0x675 SWAP2 SWAP1 PUSH2 0x1DA0 JUMP JUMPDEST PUSH2 0x15FC JUMP JUMPDEST SWAP2 POP PUSH2 0x6C2 JUMP JUMPDEST PUSH2 0x6BF PUSH1 0x0 SLOAD PUSH1 0x2 SLOAD DUP4 PUSH2 0x695 SWAP2 SWAP1 PUSH2 0x1DA0 JUMP JUMPDEST PUSH2 0x69F SWAP2 SWAP1 PUSH2 0x1E8E JUMP JUMPDEST PUSH1 0x1 SLOAD PUSH1 0x2 SLOAD DUP7 PUSH2 0x6B0 SWAP2 SWAP1 PUSH2 0x1DA0 JUMP JUMPDEST PUSH2 0x6BA SWAP2 SWAP1 PUSH2 0x1E8E JUMP JUMPDEST PUSH2 0x1676 JUMP JUMPDEST SWAP2 POP JUMPDEST PUSH1 0x0 DUP3 GT PUSH2 0x705 JUMPI PUSH1 0x40 MLOAD PUSH32 0x8C379A000000000000000000000000000000000000000000000000000000000 DUP2 MSTORE PUSH1 0x4 ADD PUSH2 0x6FC SWAP1 PUSH2 0x1F0B JUMP JUMPDEST PUSH1 0x40 MLOAD DUP1 SWAP2 SUB SWAP1 REVERT JUMPDEST PUSH2 0x70F CALLER DUP4 PUSH2 0x168F JUMP JUMPDEST PUSH2 0x7B2 SELFBALANCE PUSH32 0x0 PUSH20 0xFFFFFFFFFFFFFFFFFFFFFFFFFFFFFFFFFFFFFFFF AND PUSH4 0x70A08231 ADDRESS PUSH1 0x40 MLOAD DUP3 PUSH4 0xFFFFFFFF AND PUSH1 0xE0 SHL DUP2 MSTORE PUSH1 0x4 ADD PUSH2 0x76C SWAP2 SWAP1 PUSH2 0x1C40 JUMP JUMPDEST PUSH1 0x20 PUSH1 0x40 MLOAD DUP1 DUP4 SUB DUP2 DUP7 GAS STATICCALL ISZERO DUP1 ISZERO PUSH2 0x789 JUMPI RETURNDATASIZE PUSH1 0x0 DUP1 RETURNDATACOPY RETURNDATASIZE PUSH1 0x0 REVERT JUMPDEST POP POP POP POP PUSH1 0x40 MLOAD RETURNDATASIZE PUSH1 0x1F NOT PUSH1 0x1F DUP3 ADD AND DUP3 ADD DUP1 PUSH1 0x40 MSTORE POP DUP2 ADD SWAP1 PUSH2 0x7AD SWAP2 SWAP1 PUSH2 0x1F40 JUMP JUMPDEST PUSH2 0x1702 JUMP JUMPDEST POP SWAP2 SWAP1 POP JUMP JUMPDEST PUSH1 0x0 DUP1 PUSH1 0x0 SLOAD GT DUP1 ISZERO PUSH2 0x7CD JUMPI POP PUSH1 0x0 PUSH1 0x1 SLOAD GT JUMPDEST DUP1 ISZERO PUSH2 0x7D9 JUMPI POP PUSH1 0x0 DUP3 GT JUMPDEST PUSH2 0x818 JUMPI PUSH1 0x40 MLOAD PUSH32 0x8C379A000000000000000000000000000000000000000000000000000000000 DUP2 MSTORE PUSH1 0x4 ADD PUSH2 0x80F SWAP1 PUSH2 0x1FB9 JUMP JUMPDEST PUSH1 0x40 MLOAD DUP1 SWAP2 SUB SWAP1 REVERT JUMPDEST PUSH1 0x0 PUSH2 0x3E8 PUSH2 0x3E5 DUP5 PUSH2 0x82B SWAP2 SWAP1 PUSH2 0x1DA0 JUMP JUMPDEST PUSH2 0x835 SWAP2 SWAP1 PUSH2 0x1E8E JUMP JUMPDEST SWAP1 POP DUP1 PUSH1 0x0 SLOAD PUSH2 0x845 SWAP2 SWAP1 PUSH2 0x1FD9 JUMP JUMPDEST DUP2 PUSH1 0x1 SLOAD PUSH2 0x853 SWAP2 SWAP1 PUSH2 0x1DA0 JUMP JUMPDEST PUSH2 0x85D SWAP2 SWAP1 PUSH2 0x1E8E JUMP JUMPDEST SWAP2 POP POP SWAP2 SWAP1 POP JUMP JUMPDEST PUSH1 0x1 SLOAD DUP2 JUMP JUMPDEST PUSH1 0x0 DUP4 CALLVALUE EQ PUSH2 0x8AF JUMPI PUSH1 0x40 MLOAD PUSH32 0x8C379A000000000000000000000000000000000000000000000000000000000 DUP2 MSTORE PUSH1 0x4 ADD PUSH2 0x8A6 SWAP1 PUSH2 0x2059 JUMP JUMPDEST PUSH1 0x40 MLOAD DUP1 SWAP2 SUB SWAP1 REVERT JUMPDEST PUSH1 0x0 PUSH2 0x3E8 PUSH2 0x3E5 DUP7 PUSH2 0x8C2 SWAP2 SWAP1 PUSH2 0x1DA0 JUMP JUMPDEST PUSH2 0x8CC SWAP2 SWAP1 PUSH2 0x1E8E JUMP JUMPDEST SWAP1 POP DUP1 PUSH1 0x0 SLOAD PUSH2 0x8DC SWAP2 SWAP1 PUSH2 0x1FD9 JUMP JUMPDEST DUP2 PUSH1 0x1 SLOAD PUSH2 0x8EA SWAP2 SWAP1 PUSH2 0x1DA0 JUMP JUMPDEST PUSH2 0x8F4 SWAP2 SWAP1 PUSH2 0x1E8E JUMP JUMPDEST SWAP2 POP PUSH1 0x0 DUP3 GT PUSH2 0x939 JUMPI PUSH1 0x40 MLOAD PUSH32 0x8C379A000000000000000000000000000000000000000000000000000000000 DUP2 MSTORE PUSH1 0x4 ADD PUSH2 0x930 SWAP1 PUSH2 0x20C5 JUMP JUMPDEST PUSH1 0x40 MLOAD DUP1 SWAP2 SUB SWAP1 REVERT JUMPDEST PUSH2 0x3E8 DUP4 PUSH2 0x3E8 PUSH2 0x94A SWAP2 SWAP1 PUSH2 0x20E5 JUMP JUMPDEST DUP6 PUSH2 0x955 SWAP2 SWAP1 PUSH2 0x1DA0 JUMP JUMPDEST PUSH2 0x95F SWAP2 SWAP1 PUSH2 0x1E8E JUMP JUMPDEST DUP3 LT ISZERO PUSH2 0x9A1 JUMPI PUSH1 0x40 MLOAD PUSH32 0x8C379A000000000000000000000000000000000000000000000000000000000 DUP2 MSTORE PUSH1 0x4 ADD PUSH2 0x998 SWAP1 PUSH2 0x2165 JUMP JUMPDEST PUSH1 0x40 MLOAD DUP1 SWAP2 SUB SWAP1 REVERT JUMPDEST PUSH32 0x0 PUSH20 0xFFFFFFFFFFFFFFFFFFFFFFFFFFFFFFFFFFFFFFFF AND PUSH4 0xA9059CBB CALLER DUP5 PUSH1 0x40 MLOAD DUP4 PUSH4 0xFFFFFFFF AND PUSH1 0xE0 SHL DUP2 MSTORE PUSH1 0x4 ADD PUSH2 0x9FC SWAP3 SWAP2 SWAP1 PUSH2 0x2185 JUMP JUMPDEST PUSH1 0x20 PUSH1 0x40 MLOAD DUP1 DUP4 SUB DUP2 PUSH1 0x0 DUP8 GAS CALL ISZERO DUP1 ISZERO PUSH2 0xA1B JUMPI RETURNDATASIZE PUSH1 0x0 DUP1 RETURNDATACOPY RETURNDATASIZE PUSH1 0x0 REVERT JUMPDEST POP POP POP POP PUSH1 0x40 MLOAD RETURNDATASIZE PUSH1 0x1F NOT PUSH1 0x1F DUP3 ADD AND DUP3 ADD DUP1 PUSH1 0x40 MSTORE POP DUP2 ADD SWAP1 PUSH2 0xA3F SWAP2 SWAP1 PUSH2 0x1D44 JUMP JUMPDEST POP PUSH2 0xAE3 SELFBALANCE PUSH32 0x0 PUSH20 0xFFFFFFFFFFFFFFFFFFFFFFFFFFFFFFFFFFFFFFFF AND PUSH4 0x70A08231 ADDRESS PUSH1 0x40 MLOAD DUP3 PUSH4 0xFFFFFFFF AND PUSH1 0xE0 SHL DUP2 MSTORE PUSH1 0x4 ADD PUSH2 0xA9D SWAP2 SWAP1 PUSH2 0x1C40 JUMP JUMPDEST PUSH1 0x20 PUSH1 0x40 MLOAD DUP1 DUP4 SUB DUP2 DUP7 GAS STATICCALL ISZERO DUP1 ISZERO PUSH2 0xABA JUMPI RETURNDATASIZE PUSH1 0x0 DUP1 RETURNDATACOPY RETURNDATASIZE PUSH1 0x0 REVERT JUMPDEST POP POP POP POP PUSH1 0x40 MLOAD RETURNDATASIZE PUSH1 0x1F NOT PUSH1 0x1F DUP3 ADD AND DUP3 ADD DUP1 PUSH1 0x40 MSTORE POP DUP2 ADD SWAP1 PUSH2 0xADE SWAP2 SWAP1 PUSH2 0x1F40 JUMP JUMPDEST PUSH2 0x1702 JUMP JUMPDEST POP SWAP4 SWAP3 POP POP POP JUMP JUMPDEST PUSH1 0x0 PUSH1 0x3 PUSH1 0x0 CALLER PUSH20 0xFFFFFFFFFFFFFFFFFFFFFFFFFFFFFFFFFFFFFFFF AND PUSH20 0xFFFFFFFFFFFFFFFFFFFFFFFFFFFFFFFFFFFFFFFF AND DUP2 MSTORE PUSH1 0x20 ADD SWAP1 DUP2 MSTORE PUSH1 0x20 ADD PUSH1 0x0 KECCAK256 SLOAD SWAP1 POP SWAP1 JUMP JUMPDEST PUSH1 0x0 DUP1 PUSH2 0x3E8 PUSH2 0x3E5 DUP5 PUSH2 0xB46 SWAP2 SWAP1 PUSH2 0x1DA0 JUMP JUMPDEST PUSH2 0xB50 SWAP2 SWAP1 PUSH2 0x1E8E JUMP JUMPDEST SWAP1 POP DUP1 PUSH1 0x1 SLOAD PUSH2 0xB60 SWAP2 SWAP1 PUSH2 0x1FD9 JUMP JUMPDEST DUP2 PUSH1 0x0 SLOAD PUSH2 0xB6E SWAP2 SWAP1 PUSH2 0x1DA0 JUMP JUMPDEST PUSH2 0xB78 SWAP2 SWAP1 PUSH2 0x1E8E JUMP JUMPDEST SWAP2 POP PUSH1 0x0 DUP3 GT PUSH2 0xBBD JUMPI PUSH1 0x40 MLOAD PUSH32 0x8C379A000000000000000000000000000000000000000000000000000000000 DUP2 MSTORE PUSH1 0x4 ADD PUSH2 0xBB4 SWAP1 PUSH2 0x20C5 JUMP JUMPDEST PUSH1 0x40 MLOAD DUP1 SWAP2 SUB SWAP1 REVERT JUMPDEST PUSH32 0x0 PUSH20 0xFFFFFFFFFFFFFFFFFFFFFFFFFFFFFFFFFFFFFFFF AND PUSH4 0x23B872DD CALLER ADDRESS DUP7 PUSH1 0x40 MLOAD DUP5 PUSH4 0xFFFFFFFF AND PUSH1 0xE0 SHL DUP2 MSTORE PUSH1 0x4 ADD PUSH2 0xC1A SWAP4 SWAP3 SWAP2 SWAP1 PUSH2 0x1CD5 JUMP JUMPDEST PUSH1 0x20 PUSH1 0x40 MLOAD DUP1 DUP4 SUB DUP2 PUSH1 0x0 DUP8 GAS CALL ISZERO DUP1 ISZERO PUSH2 0xC39 JUMPI RETURNDATASIZE PUSH1 0x0 DUP1 RETURNDATACOPY RETURNDATASIZE PUSH1 0x0 REVERT JUMPDEST POP POP POP POP PUSH1 0x40 MLOAD RETURNDATASIZE PUSH1 0x1F NOT PUSH1 0x1F DUP3 ADD AND DUP3 ADD DUP1 PUSH1 0x40 MSTORE POP DUP2 ADD SWAP1 PUSH2 0xC5D SWAP2 SWAP1 PUSH2 0x1D44 JUMP JUMPDEST POP CALLER PUSH20 0xFFFFFFFFFFFFFFFFFFFFFFFFFFFFFFFFFFFFFFFF AND PUSH2 0x8FC DUP4 SWAP1 DUP2 ISZERO MUL SWAP1 PUSH1 0x40 MLOAD PUSH1 0x0 PUSH1 0x40 MLOAD DUP1 DUP4 SUB DUP2 DUP6 DUP9 DUP9 CALL SWAP4 POP POP POP POP ISZERO DUP1 ISZERO PUSH2 0xCA4 JUMPI RETURNDATASIZE PUSH1 0x0 DUP1 RETURNDATACOPY RETURNDATASIZE PUSH1 0x0 REVERT JUMPDEST POP PUSH2 0xD53 DUP3 SELFBALANCE PUSH2 0xCB4 SWAP2 SWAP1 PUSH2 0x20E5 JUMP JUMPDEST PUSH32 0x0 PUSH20 0xFFFFFFFFFFFFFFFFFFFFFFFFFFFFFFFFFFFFFFFF AND PUSH4 0x70A08231 ADDRESS PUSH1 0x40 MLOAD DUP3 PUSH4 0xFFFFFFFF AND PUSH1 0xE0 SHL DUP2 MSTORE PUSH1 0x4 ADD PUSH2 0xD0D SWAP2 SWAP1 PUSH2 0x1C40 JUMP JUMPDEST PUSH1 0x20 PUSH1 0x40 MLOAD DUP1 DUP4 SUB DUP2 DUP7 GAS STATICCALL ISZERO DUP1 ISZERO PUSH2 0xD2A JUMPI RETURNDATASIZE PUSH1 0x0 DUP1 RETURNDATACOPY RETURNDATASIZE PUSH1 0x0 REVERT JUMPDEST POP POP POP POP PUSH1 0x40 MLOAD RETURNDATASIZE PUSH1 0x1F NOT PUSH1 0x1F DUP3 ADD AND DUP3 ADD DUP1 PUSH1 0x40 MSTORE POP DUP2 ADD SWAP1 PUSH2 0xD4E SWAP2 SWAP1 PUSH2 0x1F40 JUMP JUMPDEST PUSH2 0x1702 JUMP JUMPDEST POP SWAP2 SWAP1 POP JUMP JUMPDEST PUSH1 0x3 PUSH1 0x20 MSTORE DUP1 PUSH1 0x0 MSTORE PUSH1 0x40 PUSH1 0x0 KECCAK256 PUSH1 0x0 SWAP2 POP SWAP1 POP SLOAD DUP2 JUMP JUMPDEST PUSH1 0x0 DUP1 PUSH2 0xDBD DUP4 PUSH1 0x3 PUSH1 0x0 DUP7 PUSH20 0xFFFFFFFFFFFFFFFFFFFFFFFFFFFFFFFFFFFFFFFF AND PUSH20 0xFFFFFFFFFFFFFFFFFFFFFFFFFFFFFFFFFFFFFFFF AND DUP2 MSTORE PUSH1 0x20 ADD SWAP1 DUP2 MSTORE PUSH1 0x20 ADD PUSH1 0x0 KECCAK256 SLOAD PUSH2 0x1714 JUMP JUMPDEST SWAP2 POP SWAP2 POP SWAP2 POP SWAP2 JUMP JUMPDEST PUSH1 0x0 DUP2 CALLVALUE EQ PUSH2 0xE0A JUMPI PUSH1 0x40 MLOAD PUSH32 0x8C379A000000000000000000000000000000000000000000000000000000000 DUP2 MSTORE PUSH1 0x4 ADD PUSH2 0xE01 SWAP1 PUSH2 0x2059 JUMP JUMPDEST PUSH1 0x40 MLOAD DUP1 SWAP2 SUB SWAP1 REVERT JUMPDEST PUSH1 0x0 PUSH2 0x3E8 PUSH2 0x3E5 DUP5 PUSH2 0xE1D SWAP2 SWAP1 PUSH2 0x1DA0 JUMP JUMPDEST PUSH2 0xE27 SWAP2 SWAP1 PUSH2 0x1E8E JUMP JUMPDEST SWAP1 POP DUP1 PUSH1 0x0 SLOAD PUSH2 0xE37 SWAP2 SWAP1 PUSH2 0x1FD9 JUMP JUMPDEST DUP2 PUSH1 0x1 SLOAD PUSH2 0xE45 SWAP2 SWAP1 PUSH2 0x1DA0 JUMP JUMPDEST PUSH2 0xE4F SWAP2 SWAP1 PUSH2 0x1E8E JUMP JUMPDEST SWAP2 POP PUSH32 0x0 PUSH20 0xFFFFFFFFFFFFFFFFFFFFFFFFFFFFFFFFFFFFFFFF AND PUSH4 0xA9059CBB CALLER DUP5 PUSH1 0x40 MLOAD DUP4 PUSH4 0xFFFFFFFF AND PUSH1 0xE0 SHL DUP2 MSTORE PUSH1 0x4 ADD PUSH2 0xEAC SWAP3 SWAP2 SWAP1 PUSH2 0x2185 JUMP JUMPDEST PUSH1 0x20 PUSH1 0x40 MLOAD DUP1 DUP4 SUB DUP2 PUSH1 0x0 DUP8 GAS CALL ISZERO DUP1 ISZERO PUSH2 0xECB JUMPI RETURNDATASIZE PUSH1 0x0 DUP1 RETURNDATACOPY RETURNDATASIZE PUSH1 0x0 REVERT JUMPDEST POP POP POP POP PUSH1 0x40 MLOAD RETURNDATASIZE PUSH1 0x1F NOT PUSH1 0x1F DUP3 ADD AND DUP3 ADD DUP1 PUSH1 0x40 MSTORE POP DUP2 ADD SWAP1 PUSH2 0xEEF SWAP2 SWAP1 PUSH2 0x1D44 JUMP JUMPDEST POP PUSH2 0xF93 SELFBALANCE PUSH32 0x0 PUSH20 0xFFFFFFFFFFFFFFFFFFFFFFFFFFFFFFFFFFFFFFFF AND PUSH4 0x70A08231 ADDRESS PUSH1 0x40 MLOAD DUP3 PUSH4 0xFFFFFFFF AND PUSH1 0xE0 SHL DUP2 MSTORE PUSH1 0x4 ADD PUSH2 0xF4D SWAP2 SWAP1 PUSH2 0x1C40 JUMP JUMPDEST PUSH1 0x20 PUSH1 0x40 MLOAD DUP1 DUP4 SUB DUP2 DUP7 GAS STATICCALL ISZERO DUP1 ISZERO PUSH2 0xF6A JUMPI RETURNDATASIZE PUSH1 0x0 DUP1 RETURNDATACOPY RETURNDATASIZE PUSH1 0x0 REVERT JUMPDEST POP POP POP POP PUSH1 0x40 MLOAD RETURNDATASIZE PUSH1 0x1F NOT PUSH1 0x1F DUP3 ADD AND DUP3 ADD DUP1 PUSH1 0x40 MSTORE POP DUP2 ADD SWAP1 PUSH2 0xF8E SWAP2 SWAP1 PUSH2 0x1F40 JUMP JUMPDEST PUSH2 0x1702 JUMP JUMPDEST POP SWAP2 SWAP1 POP JUMP JUMPDEST PUSH1 0x0 DUP1 PUSH1 0x3 PUSH1 0x0 CALLER PUSH20 0xFFFFFFFFFFFFFFFFFFFFFFFFFFFFFFFFFFFFFFFF AND PUSH20 0xFFFFFFFFFFFFFFFFFFFFFFFFFFFFFFFFFFFFFFFF AND DUP2 MSTORE PUSH1 0x20 ADD SWAP1 DUP2 MSTORE PUSH1 0x20 ADD PUSH1 0x0 KECCAK256 SLOAD DUP4 GT ISZERO PUSH2 0x101E JUMPI PUSH1 0x40 MLOAD PUSH32 0x8C379A000000000000000000000000000000000000000000000000000000000 DUP2 MSTORE PUSH1 0x4 ADD PUSH2 0x1015 SWAP1 PUSH2 0x21FA JUMP JUMPDEST PUSH1 0x40 MLOAD DUP1 SWAP2 SUB SWAP1 REVERT JUMPDEST PUSH2 0x1028 CALLER DUP5 PUSH2 0x1714 JUMP JUMPDEST SWAP2 POP SWAP2 POP SWAP2 POP SWAP2 JUMP JUMPDEST PUSH1 0x0 DUP1 PUSH1 0x3 PUSH1 0x0 DUP6 PUSH20 0xFFFFFFFFFFFFFFFFFFFFFFFFFFFFFFFFFFFFFFFF AND PUSH20 0xFFFFFFFFFFFFFFFFFFFFFFFFFFFFFFFFFFFFFFFF AND DUP2 MSTORE PUSH1 0x20 ADD SWAP1 DUP2 MSTORE PUSH1 0x20 ADD PUSH1 0x0 KECCAK256 SLOAD DUP4 GT ISZERO PUSH2 0x10B6 JUMPI PUSH1 0x40 MLOAD PUSH32 0x8C379A000000000000000000000000000000000000000000000000000000000 DUP2 MSTORE PUSH1 0x4 ADD PUSH2 0x10AD SWAP1 PUSH2 0x21FA JUMP JUMPDEST PUSH1 0x40 MLOAD DUP1 SWAP2 SUB SWAP1 REVERT JUMPDEST PUSH2 0x10C0 DUP5 DUP5 PUSH2 0x1714 JUMP JUMPDEST SWAP2 POP SWAP2 POP SWAP3 POP SWAP3 SWAP1 POP JUMP JUMPDEST PUSH1 0x0 DUP1 PUSH1 0x0 SLOAD GT DUP1 ISZERO PUSH2 0x10E0 JUMPI POP PUSH1 0x0 PUSH1 0x1 SLOAD GT JUMPDEST PUSH2 0x111F JUMPI PUSH1 0x40 MLOAD PUSH32 0x8C379A000000000000000000000000000000000000000000000000000000000 DUP2 MSTORE PUSH1 0x4 ADD PUSH2 0x1116 SWAP1 PUSH2 0x2266 JUMP JUMPDEST PUSH1 0x40 MLOAD DUP1 SWAP2 SUB SWAP1 REVERT JUMPDEST PUSH1 0x0 SLOAD PUSH8 0xDE0B6B3A7640000 PUSH1 0x1 SLOAD PUSH2 0x1138 SWAP2 SWAP1 PUSH2 0x1DA0 JUMP JUMPDEST PUSH2 0x1142 SWAP2 SWAP1 PUSH2 0x1E8E JUMP JUMPDEST SWAP1 POP SWAP1 JUMP JUMPDEST PUSH1 0x0 DUP2 JUMP JUMPDEST PUSH1 0x0 DUP1 PUSH2 0x3E8 PUSH2 0x3E5 DUP7 PUSH2 0x1160 SWAP2 SWAP1 PUSH2 0x1DA0 JUMP JUMPDEST PUSH2 0x116A SWAP2 SWAP1 PUSH2 0x1E8E JUMP JUMPDEST SWAP1 POP DUP1 PUSH1 0x1 SLOAD PUSH2 0x117A SWAP2 SWAP1 PUSH2 0x1FD9 JUMP JUMPDEST DUP2 PUSH1 0x0 SLOAD PUSH2 0x1188 SWAP2 SWAP1 PUSH2 0x1DA0 JUMP JUMPDEST PUSH2 0x1192 SWAP2 SWAP1 PUSH2 0x1E8E JUMP JUMPDEST SWAP2 POP PUSH1 0x0 DUP3 GT PUSH2 0x11D7 JUMPI PUSH1 0x40 MLOAD PUSH32 0x8C379A000000000000000000000000000000000000000000000000000000000 DUP2 MSTORE PUSH1 0x4 ADD PUSH2 0x11CE SWAP1 PUSH2 0x20C5 JUMP JUMPDEST PUSH1 0x40 MLOAD DUP1 SWAP2 SUB SWAP1 REVERT JUMPDEST PUSH2 0x3E8 DUP4 PUSH2 0x3E8 PUSH2 0x11E8 SWAP2 SWAP1 PUSH2 0x20E5 JUMP JUMPDEST DUP6 PUSH2 0x11F3 SWAP2 SWAP1 PUSH2 0x1DA0 JUMP JUMPDEST PUSH2 0x11FD SWAP2 SWAP1 PUSH2 0x1E8E JUMP JUMPDEST DUP3 LT ISZERO PUSH2 0x123F JUMPI PUSH1 0x40 MLOAD PUSH32 0x8C379A000000000000000000000000000000000000000000000000000000000 DUP2 MSTORE PUSH1 0x4 ADD PUSH2 0x1236 SWAP1 PUSH2 0x2165 JUMP JUMPDEST PUSH1 0x40 MLOAD DUP1 SWAP2 SUB SWAP1 REVERT JUMPDEST PUSH32 0x0 PUSH20 0xFFFFFFFFFFFFFFFFFFFFFFFFFFFFFFFFFFFFFFFF AND PUSH4 0x23B872DD CALLER ADDRESS DUP9 PUSH1 0x40 MLOAD DUP5 PUSH4 0xFFFFFFFF AND PUSH1 0xE0 SHL DUP2 MSTORE PUSH1 0x4 ADD PUSH2 0x129C SWAP4 SWAP3 SWAP2 SWAP1 PUSH2 0x1CD5 JUMP JUMPDEST PUSH1 0x20 PUSH1 0x40 MLOAD DUP1 DUP4 SUB DUP2 PUSH1 0x0 DUP8 GAS CALL ISZERO DUP1 ISZERO PUSH2 0x12BB JUMPI RETURNDATASIZE PUSH1 0x0 DUP1 RETURNDATACOPY RETURNDATASIZE PUSH1 0x0 REVERT JUMPDEST POP POP POP POP PUSH1 0x40 MLOAD RETURNDATASIZE PUSH1 0x1F NOT PUSH1 0x1F DUP3 ADD AND DUP3 ADD DUP1 PUSH1 0x40 MSTORE POP DUP2 ADD SWAP1 PUSH2 0x12DF SWAP2 SWAP1 PUSH2 0x1D44 JUMP JUMPDEST POP CALLER PUSH20 0xFFFFFFFFFFFFFFFFFFFFFFFFFFFFFFFFFFFFFFFF AND PUSH2 0x8FC DUP4 SWAP1 DUP2 ISZERO MUL SWAP1 PUSH1 0x40 MLOAD PUSH1 0x0 PUSH1 0x40 MLOAD DUP1 DUP4 SUB DUP2 DUP6 DUP9 DUP9 CALL SWAP4 POP POP POP POP ISZERO DUP1 ISZERO PUSH2 0x1326 JUMPI RETURNDATASIZE PUSH1 0x0 DUP1 RETURNDATACOPY RETURNDATASIZE PUSH1 0x0 REVERT JUMPDEST POP PUSH2 0x13D5 DUP3 SELFBALANCE PUSH2 0x1336 SWAP2 SWAP1 PUSH2 0x20E5 JUMP JUMPDEST PUSH32 0x0 PUSH20 0xFFFFFFFFFFFFFFFFFFFFFFFFFFFFFFFFFFFFFFFF AND PUSH4 0x70A08231 ADDRESS PUSH1 0x40 MLOAD DUP3 PUSH4 0xFFFFFFFF AND PUSH1 0xE0 SHL DUP2 MSTORE PUSH1 0x4 ADD PUSH2 0x138F SWAP2 SWAP1 PUSH2 0x1C40 JUMP JUMPDEST PUSH1 0x20 PUSH1 0x40 MLOAD DUP1 DUP4 SUB DUP2 DUP7 GAS STATICCALL ISZERO DUP1 ISZERO PUSH2 0x13AC JUMPI RETURNDATASIZE PUSH1 0x0 DUP1 RETURNDATACOPY RETURNDATASIZE PUSH1 0x0 REVERT JUMPDEST POP POP POP POP PUSH1 0x40 MLOAD RETURNDATASIZE PUSH1 0x1F NOT PUSH1 0x1F DUP3 ADD AND DUP3 ADD DUP1 PUSH1 0x40 MSTORE POP DUP2 ADD SWAP1 PUSH2 0x13D0 SWAP2 SWAP1 PUSH2 0x1F40 JUMP JUMPDEST PUSH2 0x1702 JUMP JUMPDEST POP SWAP4 SWAP3 POP POP POP JUMP JUMPDEST PUSH1 0x0 DUP1 PUSH1 0x0 SLOAD GT DUP1 ISZERO PUSH2 0x13F2 JUMPI POP PUSH1 0x0 PUSH1 0x1 SLOAD GT JUMPDEST DUP1 ISZERO PUSH2 0x13FE JUMPI POP PUSH1 0x0 DUP3 GT JUMPDEST PUSH2 0x143D JUMPI PUSH1 0x40 MLOAD PUSH32 0x8C379A000000000000000000000000000000000000000000000000000000000 DUP2 MSTORE PUSH1 0x4 ADD PUSH2 0x1434 SWAP1 PUSH2 0x2266 JUMP JUMPDEST PUSH1 0x40 MLOAD DUP1 SWAP2 SUB SWAP1 REVERT JUMPDEST PUSH1 0x0 PUSH2 0x3E8 PUSH2 0x3E5 DUP5 PUSH2 0x1450 SWAP2 SWAP1 PUSH2 0x1DA0 JUMP JUMPDEST PUSH2 0x145A SWAP2 SWAP1 PUSH2 0x1E8E JUMP JUMPDEST SWAP1 POP DUP1 PUSH1 0x1 SLOAD PUSH2 0x146A SWAP2 SWAP1 PUSH2 0x1FD9 JUMP JUMPDEST DUP2 PUSH1 0x0 SLOAD PUSH2 0x1478 SWAP2 SWAP1 PUSH2 0x1DA0 JUMP JUMPDEST PUSH2 0x1482 SWAP2 SWAP1 PUSH2 0x1E8E JUMP JUMPDEST SWAP2 POP POP SWAP2 SWAP1 POP JUMP JUMPDEST PUSH1 0x0 PUSH1 0x3 PUSH1 0x0 DUP4 PUSH20 0xFFFFFFFFFFFFFFFFFFFFFFFFFFFFFFFFFFFFFFFF AND PUSH20 0xFFFFFFFFFFFFFFFFFFFFFFFFFFFFFFFFFFFFFFFF AND DUP2 MSTORE PUSH1 0x20 ADD SWAP1 DUP2 MSTORE PUSH1 0x20 ADD PUSH1 0x0 KECCAK256 SLOAD SWAP1 POP SWAP2 SWAP1 POP JUMP JUMPDEST PUSH32 0x0 DUP2 JUMP JUMPDEST PUSH1 0x0 DUP1 PUSH1 0x0 SLOAD GT DUP1 ISZERO PUSH2 0x150C JUMPI POP PUSH1 0x0 PUSH1 0x1 SLOAD GT JUMPDEST PUSH2 0x154B JUMPI PUSH1 0x40 MLOAD PUSH32 0x8C379A000000000000000000000000000000000000000000000000000000000 DUP2 MSTORE PUSH1 0x4 ADD PUSH2 0x1542 SWAP1 PUSH2 0x1FB9 JUMP JUMPDEST PUSH1 0x40 MLOAD DUP1 SWAP2 SUB SWAP1 REVERT JUMPDEST PUSH1 0x1 SLOAD PUSH32 0x0 PUSH20 0xFFFFFFFFFFFFFFFFFFFFFFFFFFFFFFFFFFFFFFFF AND PUSH4 0x313CE567 PUSH1 0x40 MLOAD DUP2 PUSH4 0xFFFFFFFF AND PUSH1 0xE0 SHL DUP2 MSTORE PUSH1 0x4 ADD PUSH1 0x20 PUSH1 0x40 MLOAD DUP1 DUP4 SUB DUP2 DUP7 GAS STATICCALL ISZERO DUP1 ISZERO PUSH2 0x15B9 JUMPI RETURNDATASIZE PUSH1 0x0 DUP1 RETURNDATACOPY RETURNDATASIZE PUSH1 0x0 REVERT JUMPDEST POP POP POP POP PUSH1 0x40 MLOAD RETURNDATASIZE PUSH1 0x1F NOT PUSH1 0x1F DUP3 ADD AND DUP3 ADD DUP1 PUSH1 0x40 MSTORE POP DUP2 ADD SWAP1 PUSH2 0x15DD SWAP2 SWAP1 PUSH2 0x22BF JUMP JUMPDEST PUSH1 0xFF AND PUSH1 0x0 SLOAD PUSH2 0x15ED SWAP2 SWAP1 PUSH2 0x1DA0 JUMP JUMPDEST PUSH2 0x15F7 SWAP2 SWAP1 PUSH2 0x1E8E JUMP JUMPDEST SWAP1 POP SWAP1 JUMP JUMPDEST PUSH1 0x0 PUSH1 0x3 DUP3 GT ISZERO PUSH2 0x1663 JUMPI DUP2 SWAP1 POP PUSH1 0x0 PUSH1 0x1 PUSH1 0x2 DUP5 PUSH2 0x161B SWAP2 SWAP1 PUSH2 0x1E8E JUMP JUMPDEST PUSH2 0x1625 SWAP2 SWAP1 PUSH2 0x1FD9 JUMP JUMPDEST SWAP1 POP JUMPDEST DUP2 DUP2 LT ISZERO PUSH2 0x165D JUMPI DUP1 SWAP2 POP PUSH1 0x2 DUP2 DUP3 DUP6 PUSH2 0x1642 SWAP2 SWAP1 PUSH2 0x1E8E JUMP JUMPDEST PUSH2 0x164C SWAP2 SWAP1 PUSH2 0x1FD9 JUMP JUMPDEST PUSH2 0x1656 SWAP2 SWAP1 PUSH2 0x1E8E JUMP JUMPDEST SWAP1 POP PUSH2 0x1628 JUMP JUMPDEST POP PUSH2 0x1671 JUMP JUMPDEST PUSH1 0x0 DUP3 EQ PUSH2 0x1670 JUMPI PUSH1 0x1 SWAP1 POP JUMPDEST JUMPDEST SWAP2 SWAP1 POP JUMP JUMPDEST PUSH1 0x0 DUP2 DUP4 LT PUSH2 0x1685 JUMPI DUP2 PUSH2 0x1687 JUMP JUMPDEST DUP3 JUMPDEST SWAP1 POP SWAP3 SWAP2 POP POP JUMP JUMPDEST DUP1 PUSH1 0x3 PUSH1 0x0 DUP5 PUSH20 0xFFFFFFFFFFFFFFFFFFFFFFFFFFFFFFFFFFFFFFFF AND PUSH20 0xFFFFFFFFFFFFFFFFFFFFFFFFFFFFFFFFFFFFFFFF AND DUP2 MSTORE PUSH1 0x20 ADD SWAP1 DUP2 MSTORE PUSH1 0x20 ADD PUSH1 0x0 KECCAK256 PUSH1 0x0 DUP3 DUP3 SLOAD PUSH2 0x16DE SWAP2 SWAP1 PUSH2 0x1FD9 JUMP JUMPDEST SWAP3 POP POP DUP2 SWAP1 SSTORE POP DUP1 PUSH1 0x2 PUSH1 0x0 DUP3 DUP3 SLOAD PUSH2 0x16F7 SWAP2 SWAP1 PUSH2 0x1FD9 JUMP JUMPDEST SWAP3 POP POP DUP2 SWAP1 SSTORE POP POP POP JUMP JUMPDEST DUP2 PUSH1 0x0 DUP2 SWAP1 SSTORE POP DUP1 PUSH1 0x1 DUP2 SWAP1 SSTORE POP POP POP JUMP JUMPDEST PUSH1 0x0 DUP1 PUSH1 0x2 SLOAD SELFBALANCE DUP5 PUSH2 0x1726 SWAP2 SWAP1 PUSH2 0x1DA0 JUMP JUMPDEST PUSH2 0x1730 SWAP2 SWAP1 PUSH2 0x1E8E JUMP JUMPDEST SWAP2 POP PUSH1 0x2 SLOAD PUSH32 0x0 PUSH20 0xFFFFFFFFFFFFFFFFFFFFFFFFFFFFFFFFFFFFFFFF AND PUSH4 0x70A08231 ADDRESS PUSH1 0x40 MLOAD DUP3 PUSH4 0xFFFFFFFF AND PUSH1 0xE0 SHL DUP2 MSTORE PUSH1 0x4 ADD PUSH2 0x178E SWAP2 SWAP1 PUSH2 0x1C40 JUMP JUMPDEST PUSH1 0x20 PUSH1 0x40 MLOAD DUP1 DUP4 SUB DUP2 DUP7 GAS STATICCALL ISZERO DUP1 ISZERO PUSH2 0x17AB JUMPI RETURNDATASIZE PUSH1 0x0 DUP1 RETURNDATACOPY RETURNDATASIZE PUSH1 0x0 REVERT JUMPDEST POP POP POP POP PUSH1 0x40 MLOAD RETURNDATASIZE PUSH1 0x1F NOT PUSH1 0x1F DUP3 ADD AND DUP3 ADD DUP1 PUSH1 0x40 MSTORE POP DUP2 ADD SWAP1 PUSH2 0x17CF SWAP2 SWAP1 PUSH2 0x1F40 JUMP JUMPDEST DUP5 PUSH2 0x17DA SWAP2 SWAP1 PUSH2 0x1DA0 JUMP JUMPDEST PUSH2 0x17E4 SWAP2 SWAP1 PUSH2 0x1E8E JUMP JUMPDEST SWAP1 POP PUSH1 0x0 DUP3 GT DUP1 ISZERO PUSH2 0x17F6 JUMPI POP PUSH1 0x0 DUP2 GT JUMPDEST PUSH2 0x1835 JUMPI PUSH1 0x40 MLOAD PUSH32 0x8C379A000000000000000000000000000000000000000000000000000000000 DUP2 MSTORE PUSH1 0x4 ADD PUSH2 0x182C SWAP1 PUSH2 0x2338 JUMP JUMPDEST PUSH1 0x40 MLOAD DUP1 SWAP2 SUB SWAP1 REVERT JUMPDEST PUSH2 0x183F DUP5 DUP5 PUSH2 0x19E5 JUMP JUMPDEST PUSH2 0x18F8 DUP3 SELFBALANCE PUSH2 0x184E SWAP2 SWAP1 PUSH2 0x20E5 JUMP JUMPDEST DUP3 PUSH32 0x0 PUSH20 0xFFFFFFFFFFFFFFFFFFFFFFFFFFFFFFFFFFFFFFFF AND PUSH4 0x70A08231 ADDRESS PUSH1 0x40 MLOAD DUP3 PUSH4 0xFFFFFFFF AND PUSH1 0xE0 SHL DUP2 MSTORE PUSH1 0x4 ADD PUSH2 0x18A8 SWAP2 SWAP1 PUSH2 0x1C40 JUMP JUMPDEST PUSH1 0x20 PUSH1 0x40 MLOAD DUP1 DUP4 SUB DUP2 DUP7 GAS STATICCALL ISZERO DUP1 ISZERO PUSH2 0x18C5 JUMPI RETURNDATASIZE PUSH1 0x0 DUP1 RETURNDATACOPY RETURNDATASIZE PUSH1 0x0 REVERT JUMPDEST POP POP POP POP PUSH1 0x40 MLOAD RETURNDATASIZE PUSH1 0x1F NOT PUSH1 0x1F DUP3 ADD AND DUP3 ADD DUP1 PUSH1 0x40 MSTORE POP DUP2 ADD SWAP1 PUSH2 0x18E9 SWAP2 SWAP1 PUSH2 0x1F40 JUMP JUMPDEST PUSH2 0x18F3 SWAP2 SWAP1 PUSH2 0x20E5 JUMP JUMPDEST PUSH2 0x1702 JUMP JUMPDEST DUP4 PUSH20 0xFFFFFFFFFFFFFFFFFFFFFFFFFFFFFFFFFFFFFFFF AND PUSH2 0x8FC DUP4 SWAP1 DUP2 ISZERO MUL SWAP1 PUSH1 0x40 MLOAD PUSH1 0x0 PUSH1 0x40 MLOAD DUP1 DUP4 SUB DUP2 DUP6 DUP9 DUP9 CALL SWAP4 POP POP POP POP ISZERO DUP1 ISZERO PUSH2 0x193E JUMPI RETURNDATASIZE PUSH1 0x0 DUP1 RETURNDATACOPY RETURNDATASIZE PUSH1 0x0 REVERT JUMPDEST POP PUSH32 0x0 PUSH20 0xFFFFFFFFFFFFFFFFFFFFFFFFFFFFFFFFFFFFFFFF AND PUSH4 0xA9059CBB DUP6 DUP4 PUSH1 0x40 MLOAD DUP4 PUSH4 0xFFFFFFFF AND PUSH1 0xE0 SHL DUP2 MSTORE PUSH1 0x4 ADD PUSH2 0x199A SWAP3 SWAP2 SWAP1 PUSH2 0x2185 JUMP JUMPDEST PUSH1 0x20 PUSH1 0x40 MLOAD DUP1 DUP4 SUB DUP2 PUSH1 0x0 DUP8 GAS CALL ISZERO DUP1 ISZERO PUSH2 0x19B9 JUMPI RETURNDATASIZE PUSH1 0x0 DUP1 RETURNDATACOPY RETURNDATASIZE PUSH1 0x0 REVERT JUMPDEST POP POP POP POP PUSH1 0x40 MLOAD RETURNDATASIZE PUSH1 0x1F NOT PUSH1 0x1F DUP3 ADD AND DUP3 ADD DUP1 PUSH1 0x40 MSTORE POP DUP2 ADD SWAP1 PUSH2 0x19DD SWAP2 SWAP1 PUSH2 0x1D44 JUMP JUMPDEST POP SWAP3 POP SWAP3 SWAP1 POP JUMP JUMPDEST DUP1 PUSH1 0x3 PUSH1 0x0 DUP5 PUSH20 0xFFFFFFFFFFFFFFFFFFFFFFFFFFFFFFFFFFFFFFFF AND PUSH20 0xFFFFFFFFFFFFFFFFFFFFFFFFFFFFFFFFFFFFFFFF AND DUP2 MSTORE PUSH1 0x20 ADD SWAP1 DUP2 MSTORE PUSH1 0x20 ADD PUSH1 0x0 KECCAK256 PUSH1 0x0 DUP3 DUP3 SLOAD PUSH2 0x1A34 SWAP2 SWAP1 PUSH2 0x20E5 JUMP JUMPDEST SWAP3 POP POP DUP2 SWAP1 SSTORE POP DUP1 PUSH1 0x2 PUSH1 0x0 DUP3 DUP3 SLOAD PUSH2 0x1A4D SWAP2 SWAP1 PUSH2 0x20E5 JUMP JUMPDEST SWAP3 POP POP DUP2 SWAP1 SSTORE POP POP POP JUMP JUMPDEST PUSH1 0x0 DUP2 SWAP1 POP SWAP2 SWAP1 POP JUMP JUMPDEST PUSH2 0x1A6B DUP2 PUSH2 0x1A58 JUMP JUMPDEST DUP3 MSTORE POP POP JUMP JUMPDEST PUSH1 0x0 PUSH1 0x20 DUP3 ADD SWAP1 POP PUSH2 0x1A86 PUSH1 0x0 DUP4 ADD DUP5 PUSH2 0x1A62 JUMP JUMPDEST SWAP3 SWAP2 POP POP JUMP JUMPDEST PUSH1 0x0 DUP1 REVERT JUMPDEST PUSH2 0x1A9A DUP2 PUSH2 0x1A58 JUMP JUMPDEST DUP2 EQ PUSH2 0x1AA5 JUMPI PUSH1 0x0 DUP1 REVERT JUMPDEST POP JUMP JUMPDEST PUSH1 0x0 DUP2 CALLDATALOAD SWAP1 POP PUSH2 0x1AB7 DUP2 PUSH2 0x1A91 JUMP JUMPDEST SWAP3 SWAP2 POP POP JUMP JUMPDEST PUSH1 0x0 PUSH1 0x20 DUP3 DUP5 SUB SLT ISZERO PUSH2 0x1AD3 JUMPI PUSH2 0x1AD2 PUSH2 0x1A8C JUMP JUMPDEST JUMPDEST PUSH1 0x0 PUSH2 0x1AE1 DUP5 DUP3 DUP6 ADD PUSH2 0x1AA8 JUMP JUMPDEST SWAP2 POP POP SWAP3 SWAP2 POP POP JUMP JUMPDEST PUSH1 0x0 DUP1 PUSH1 0x0 PUSH1 0x60 DUP5 DUP7 SUB SLT ISZERO PUSH2 0x1B03 JUMPI PUSH2 0x1B02 PUSH2 0x1A8C JUMP JUMPDEST JUMPDEST PUSH1 0x0 PUSH2 0x1B11 DUP7 DUP3 DUP8 ADD PUSH2 0x1AA8 JUMP JUMPDEST SWAP4 POP POP PUSH1 0x20 PUSH2 0x1B22 DUP7 DUP3 DUP8 ADD PUSH2 0x1AA8 JUMP JUMPDEST SWAP3 POP POP PUSH1 0x40 PUSH2 0x1B33 DUP7 DUP3 DUP8 ADD PUSH2 0x1AA8 JUMP JUMPDEST SWAP2 POP POP SWAP3 POP SWAP3 POP SWAP3 JUMP JUMPDEST PUSH1 0x0 PUSH20 0xFFFFFFFFFFFFFFFFFFFFFFFFFFFFFFFFFFFFFFFF DUP3 AND SWAP1 POP SWAP2 SWAP1 POP JUMP JUMPDEST PUSH1 0x0 PUSH2 0x1B68 DUP3 PUSH2 0x1B3D JUMP JUMPDEST SWAP1 POP SWAP2 SWAP1 POP JUMP JUMPDEST PUSH2 0x1B78 DUP2 PUSH2 0x1B5D JUMP JUMPDEST DUP2 EQ PUSH2 0x1B83 JUMPI PUSH1 0x0 DUP1 REVERT JUMPDEST POP JUMP JUMPDEST PUSH1 0x0 DUP2 CALLDATALOAD SWAP1 POP PUSH2 0x1B95 DUP2 PUSH2 0x1B6F JUMP JUMPDEST SWAP3 SWAP2 POP POP JUMP JUMPDEST PUSH1 0x0 PUSH1 0x20 DUP3 DUP5 SUB SLT ISZERO PUSH2 0x1BB1 JUMPI PUSH2 0x1BB0 PUSH2 0x1A8C JUMP JUMPDEST JUMPDEST PUSH1 0x0 PUSH2 0x1BBF DUP5 DUP3 DUP6 ADD PUSH2 0x1B86 JUMP JUMPDEST SWAP2 POP POP SWAP3 SWAP2 POP POP JUMP JUMPDEST PUSH1 0x0 PUSH1 0x40 DUP3 ADD SWAP1 POP PUSH2 0x1BDD PUSH1 0x0 DUP4 ADD DUP6 PUSH2 0x1A62 JUMP JUMPDEST PUSH2 0x1BEA PUSH1 0x20 DUP4 ADD DUP5 PUSH2 0x1A62 JUMP JUMPDEST SWAP4 SWAP3 POP POP POP JUMP JUMPDEST PUSH1 0x0 DUP1 PUSH1 0x40 DUP4 DUP6 SUB SLT ISZERO PUSH2 0x1C08 JUMPI PUSH2 0x1C07 PUSH2 0x1A8C JUMP JUMPDEST JUMPDEST PUSH1 0x0 PUSH2 0x1C16 DUP6 DUP3 DUP7 ADD PUSH2 0x1B86 JUMP JUMPDEST SWAP3 POP POP PUSH1 0x20 PUSH2 0x1C27 DUP6 DUP3 DUP7 ADD PUSH2 0x1AA8 JUMP JUMPDEST SWAP2 POP POP SWAP3 POP SWAP3 SWAP1 POP JUMP JUMPDEST PUSH2 0x1C3A DUP2 PUSH2 0x1B5D JUMP JUMPDEST DUP3 MSTORE POP POP JUMP JUMPDEST PUSH1 0x0 PUSH1 0x20 DUP3 ADD SWAP1 POP PUSH2 0x1C55 PUSH1 0x0 DUP4 ADD DUP5 PUSH2 0x1C31 JUMP JUMPDEST SWAP3 SWAP2 POP POP JUMP JUMPDEST PUSH1 0x0 DUP2 SWAP1 POP SWAP2 SWAP1 POP JUMP JUMPDEST PUSH1 0x0 PUSH2 0x1C80 PUSH2 0x1C7B PUSH2 0x1C76 DUP5 PUSH2 0x1B3D JUMP JUMPDEST PUSH2 0x1C5B JUMP JUMPDEST PUSH2 0x1B3D JUMP JUMPDEST SWAP1 POP SWAP2 SWAP1 POP JUMP JUMPDEST PUSH1 0x0 PUSH2 0x1C92 DUP3 PUSH2 0x1C65 JUMP JUMPDEST SWAP1 POP SWAP2 SWAP1 POP JUMP JUMPDEST PUSH1 0x0 PUSH2 0x1CA4 DUP3 PUSH2 0x1C87 JUMP JUMPDEST SWAP1 POP SWAP2 SWAP1 POP JUMP JUMPDEST PUSH2 0x1CB4 DUP2 PUSH2 0x1C99 JUMP JUMPDEST DUP3 MSTORE POP POP JUMP JUMPDEST PUSH1 0x0 PUSH1 0x20 DUP3 ADD SWAP1 POP PUSH2 0x1CCF PUSH1 0x0 DUP4 ADD DUP5 PUSH2 0x1CAB JUMP JUMPDEST SWAP3 SWAP2 POP POP JUMP JUMPDEST PUSH1 0x0 PUSH1 0x60 DUP3 ADD SWAP1 POP PUSH2 0x1CEA PUSH1 0x0 DUP4 ADD DUP7 PUSH2 0x1C31 JUMP JUMPDEST PUSH2 0x1CF7 PUSH1 0x20 DUP4 ADD DUP6 PUSH2 0x1C31 JUMP JUMPDEST PUSH2 0x1D04 PUSH1 0x40 DUP4 ADD DUP5 PUSH2 0x1A62 JUMP JUMPDEST SWAP5 SWAP4 POP POP POP POP JUMP JUMPDEST PUSH1 0x0 DUP2 ISZERO ISZERO SWAP1 POP SWAP2 SWAP1 POP JUMP JUMPDEST PUSH2 0x1D21 DUP2 PUSH2 0x1D0C JUMP JUMPDEST DUP2 EQ PUSH2 0x1D2C JUMPI PUSH1 0x0 DUP1 REVERT JUMPDEST POP JUMP JUMPDEST PUSH1 0x0 DUP2 MLOAD SWAP1 POP PUSH2 0x1D3E DUP2 PUSH2 0x1D18 JUMP JUMPDEST SWAP3 SWAP2 POP POP JUMP JUMPDEST PUSH1 0x0 PUSH1 0x20 DUP3 DUP5 SUB SLT ISZERO PUSH2 0x1D5A JUMPI PUSH2 0x1D59 PUSH2 0x1A8C JUMP JUMPDEST JUMPDEST PUSH1 0x0 PUSH2 0x1D68 DUP5 DUP3 DUP6 ADD PUSH2 0x1D2F JUMP JUMPDEST SWAP2 POP POP SWAP3 SWAP2 POP POP JUMP JUMPDEST PUSH32 0x4E487B7100000000000000000000000000000000000000000000000000000000 PUSH1 0x0 MSTORE PUSH1 0x11 PUSH1 0x4 MSTORE PUSH1 0x24 PUSH1 0x0 REVERT JUMPDEST PUSH1 0x0 PUSH2 0x1DAB DUP3 PUSH2 0x1A58 JUMP JUMPDEST SWAP2 POP PUSH2 0x1DB6 DUP4 PUSH2 0x1A58 JUMP JUMPDEST SWAP3 POP DUP3 DUP3 MUL PUSH2 0x1DC4 DUP2 PUSH2 0x1A58 JUMP JUMPDEST SWAP2 POP DUP3 DUP3 DIV DUP5 EQ DUP4 ISZERO OR PUSH2 0x1DDB JUMPI PUSH2 0x1DDA PUSH2 0x1D71 JUMP JUMPDEST JUMPDEST POP SWAP3 SWAP2 POP POP JUMP JUMPDEST PUSH1 0x0 DUP3 DUP3 MSTORE PUSH1 0x20 DUP3 ADD SWAP1 POP SWAP3 SWAP2 POP POP JUMP JUMPDEST PUSH32 0x78202F207920213D206478202F20647900000000000000000000000000000000 PUSH1 0x0 DUP3 ADD MSTORE POP JUMP JUMPDEST PUSH1 0x0 PUSH2 0x1E29 PUSH1 0x10 DUP4 PUSH2 0x1DE2 JUMP JUMPDEST SWAP2 POP PUSH2 0x1E34 DUP3 PUSH2 0x1DF3 JUMP JUMPDEST PUSH1 0x20 DUP3 ADD SWAP1 POP SWAP2 SWAP1 POP JUMP JUMPDEST PUSH1 0x0 PUSH1 0x20 DUP3 ADD SWAP1 POP DUP2 DUP2 SUB PUSH1 0x0 DUP4 ADD MSTORE PUSH2 0x1E58 DUP2 PUSH2 0x1E1C JUMP JUMPDEST SWAP1 POP SWAP2 SWAP1 POP JUMP JUMPDEST PUSH32 0x4E487B7100000000000000000000000000000000000000000000000000000000 PUSH1 0x0 MSTORE PUSH1 0x12 PUSH1 0x4 MSTORE PUSH1 0x24 PUSH1 0x0 REVERT JUMPDEST PUSH1 0x0 PUSH2 0x1E99 DUP3 PUSH2 0x1A58 JUMP JUMPDEST SWAP2 POP PUSH2 0x1EA4 DUP4 PUSH2 0x1A58 JUMP JUMPDEST SWAP3 POP DUP3 PUSH2 0x1EB4 JUMPI PUSH2 0x1EB3 PUSH2 0x1E5F JUMP JUMPDEST JUMPDEST DUP3 DUP3 DIV SWAP1 POP SWAP3 SWAP2 POP POP JUMP JUMPDEST PUSH32 0x736861726573203D203000000000000000000000000000000000000000000000 PUSH1 0x0 DUP3 ADD MSTORE POP JUMP JUMPDEST PUSH1 0x0 PUSH2 0x1EF5 PUSH1 0xA DUP4 PUSH2 0x1DE2 JUMP JUMPDEST SWAP2 POP PUSH2 0x1F00 DUP3 PUSH2 0x1EBF JUMP JUMPDEST PUSH1 0x20 DUP3 ADD SWAP1 POP SWAP2 SWAP1 POP JUMP JUMPDEST PUSH1 0x0 PUSH1 0x20 DUP3 ADD SWAP1 POP DUP2 DUP2 SUB PUSH1 0x0 DUP4 ADD MSTORE PUSH2 0x1F24 DUP2 PUSH2 0x1EE8 JUMP JUMPDEST SWAP1 POP SWAP2 SWAP1 POP JUMP JUMPDEST PUSH1 0x0 DUP2 MLOAD SWAP1 POP PUSH2 0x1F3A DUP2 PUSH2 0x1A91 JUMP JUMPDEST SWAP3 SWAP2 POP POP JUMP JUMPDEST PUSH1 0x0 PUSH1 0x20 DUP3 DUP5 SUB SLT ISZERO PUSH2 0x1F56 JUMPI PUSH2 0x1F55 PUSH2 0x1A8C JUMP JUMPDEST JUMPDEST PUSH1 0x0 PUSH2 0x1F64 DUP5 DUP3 DUP6 ADD PUSH2 0x1F2B JUMP JUMPDEST SWAP2 POP POP SWAP3 SWAP2 POP POP JUMP JUMPDEST PUSH32 0x496E76616C696420455243323020726573657276657300000000000000000000 PUSH1 0x0 DUP3 ADD MSTORE POP JUMP JUMPDEST PUSH1 0x0 PUSH2 0x1FA3 PUSH1 0x16 DUP4 PUSH2 0x1DE2 JUMP JUMPDEST SWAP2 POP PUSH2 0x1FAE DUP3 PUSH2 0x1F6D JUMP JUMPDEST PUSH1 0x20 DUP3 ADD SWAP1 POP SWAP2 SWAP1 POP JUMP JUMPDEST PUSH1 0x0 PUSH1 0x20 DUP3 ADD SWAP1 POP DUP2 DUP2 SUB PUSH1 0x0 DUP4 ADD MSTORE PUSH2 0x1FD2 DUP2 PUSH2 0x1F96 JUMP JUMPDEST SWAP1 POP SWAP2 SWAP1 POP JUMP JUMPDEST PUSH1 0x0 PUSH2 0x1FE4 DUP3 PUSH2 0x1A58 JUMP JUMPDEST SWAP2 POP PUSH2 0x1FEF DUP4 PUSH2 0x1A58 JUMP JUMPDEST SWAP3 POP DUP3 DUP3 ADD SWAP1 POP DUP1 DUP3 GT ISZERO PUSH2 0x2007 JUMPI PUSH2 0x2006 PUSH2 0x1D71 JUMP JUMPDEST JUMPDEST SWAP3 SWAP2 POP POP JUMP JUMPDEST PUSH32 0x45544820616D6F756E74206D69736D6174636800000000000000000000000000 PUSH1 0x0 DUP3 ADD MSTORE POP JUMP JUMPDEST PUSH1 0x0 PUSH2 0x2043 PUSH1 0x13 DUP4 PUSH2 0x1DE2 JUMP JUMPDEST SWAP2 POP PUSH2 0x204E DUP3 PUSH2 0x200D JUMP JUMPDEST PUSH1 0x20 DUP3 ADD SWAP1 POP SWAP2 SWAP1 POP JUMP JUMPDEST PUSH1 0x0 PUSH1 0x20 DUP3 ADD SWAP1 POP DUP2 DUP2 SUB PUSH1 0x0 DUP4 ADD MSTORE PUSH2 0x2072 DUP2 PUSH2 0x2036 JUMP JUMPDEST SWAP1 POP SWAP2 SWAP1 POP JUMP JUMPDEST PUSH32 0x496E73756666696369656E74206F757470757420616D6F756E74000000000000 PUSH1 0x0 DUP3 ADD MSTORE POP JUMP JUMPDEST PUSH1 0x0 PUSH2 0x20AF PUSH1 0x1A DUP4 PUSH2 0x1DE2 JUMP JUMPDEST SWAP2 POP PUSH2 0x20BA DUP3 PUSH2 0x2079 JUMP JUMPDEST PUSH1 0x20 DUP3 ADD SWAP1 POP SWAP2 SWAP1 POP JUMP JUMPDEST PUSH1 0x0 PUSH1 0x20 DUP3 ADD SWAP1 POP DUP2 DUP2 SUB PUSH1 0x0 DUP4 ADD MSTORE PUSH2 0x20DE DUP2 PUSH2 0x20A2 JUMP JUMPDEST SWAP1 POP SWAP2 SWAP1 POP JUMP JUMPDEST PUSH1 0x0 PUSH2 0x20F0 DUP3 PUSH2 0x1A58 JUMP JUMPDEST SWAP2 POP PUSH2 0x20FB DUP4 PUSH2 0x1A58 JUMP JUMPDEST SWAP3 POP DUP3 DUP3 SUB SWAP1 POP DUP2 DUP2 GT ISZERO PUSH2 0x2113 JUMPI PUSH2 0x2112 PUSH2 0x1D71 JUMP JUMPDEST JUMPDEST SWAP3 SWAP2 POP POP JUMP JUMPDEST PUSH32 0x536C69704C6F636B000000000000000000000000000000000000000000000000 PUSH1 0x0 DUP3 ADD MSTORE POP JUMP JUMPDEST PUSH1 0x0 PUSH2 0x214F PUSH1 0x8 DUP4 PUSH2 0x1DE2 JUMP JUMPDEST SWAP2 POP PUSH2 0x215A DUP3 PUSH2 0x2119 JUMP JUMPDEST PUSH1 0x20 DUP3 ADD SWAP1 POP SWAP2 SWAP1 POP JUMP JUMPDEST PUSH1 0x0 PUSH1 0x20 DUP3 ADD SWAP1 POP DUP2 DUP2 SUB PUSH1 0x0 DUP4 ADD MSTORE PUSH2 0x217E DUP2 PUSH2 0x2142 JUMP JUMPDEST SWAP1 POP SWAP2 SWAP1 POP JUMP JUMPDEST PUSH1 0x0 PUSH1 0x40 DUP3 ADD SWAP1 POP PUSH2 0x219A PUSH1 0x0 DUP4 ADD DUP6 PUSH2 0x1C31 JUMP JUMPDEST PUSH2 0x21A7 PUSH1 0x20 DUP4 ADD DUP5 PUSH2 0x1A62 JUMP JUMPDEST SWAP4 SWAP3 POP POP POP JUMP JUMPDEST PUSH32 0x496E73756666696369656E742062616C616E6365000000000000000000000000 PUSH1 0x0 DUP3 ADD MSTORE POP JUMP JUMPDEST PUSH1 0x0 PUSH2 0x21E4 PUSH1 0x14 DUP4 PUSH2 0x1DE2 JUMP JUMPDEST SWAP2 POP PUSH2 0x21EF DUP3 PUSH2 0x21AE JUMP JUMPDEST PUSH1 0x20 DUP3 ADD SWAP1 POP SWAP2 SWAP1 POP JUMP JUMPDEST PUSH1 0x0 PUSH1 0x20 DUP3 ADD SWAP1 POP DUP2 DUP2 SUB PUSH1 0x0 DUP4 ADD MSTORE PUSH2 0x2213 DUP2 PUSH2 0x21D7 JUMP JUMPDEST SWAP1 POP SWAP2 SWAP1 POP JUMP JUMPDEST PUSH32 0x496E76616C696420455448207265736572766573000000000000000000000000 PUSH1 0x0 DUP3 ADD MSTORE POP JUMP JUMPDEST PUSH1 0x0 PUSH2 0x2250 PUSH1 0x14 DUP4 PUSH2 0x1DE2 JUMP JUMPDEST SWAP2 POP PUSH2 0x225B DUP3 PUSH2 0x221A JUMP JUMPDEST PUSH1 0x20 DUP3 ADD SWAP1 POP SWAP2 SWAP1 POP JUMP JUMPDEST PUSH1 0x0 PUSH1 0x20 DUP3 ADD SWAP1 POP DUP2 DUP2 SUB PUSH1 0x0 DUP4 ADD MSTORE PUSH2 0x227F DUP2 PUSH2 0x2243 JUMP JUMPDEST SWAP1 POP SWAP2 SWAP1 POP JUMP JUMPDEST PUSH1 0x0 PUSH1 0xFF DUP3 AND SWAP1 POP SWAP2 SWAP1 POP JUMP JUMPDEST PUSH2 0x229C DUP2 PUSH2 0x2286 JUMP JUMPDEST DUP2 EQ PUSH2 0x22A7 JUMPI PUSH1 0x0 DUP1 REVERT JUMPDEST POP JUMP JUMPDEST PUSH1 0x0 DUP2 MLOAD SWAP1 POP PUSH2 0x22B9 DUP2 PUSH2 0x2293 JUMP JUMPDEST SWAP3 SWAP2 POP POP JUMP JUMPDEST PUSH1 0x0 PUSH1 0x20 DUP3 DUP5 SUB SLT ISZERO PUSH2 0x22D5 JUMPI PUSH2 0x22D4 PUSH2 0x1A8C JUMP JUMPDEST JUMPDEST PUSH1 0x0 PUSH2 0x22E3 DUP5 DUP3 DUP6 ADD PUSH2 0x22AA JUMP JUMPDEST SWAP2 POP POP SWAP3 SWAP2 POP POP JUMP JUMPDEST PUSH32 0x616D6F756E7430206F7220616D6F756E7431203D203000000000000000000000 PUSH1 0x0 DUP3 ADD MSTORE POP JUMP JUMPDEST PUSH1 0x0 PUSH2 0x2322 PUSH1 0x16 DUP4 PUSH2 0x1DE2 JUMP JUMPDEST SWAP2 POP PUSH2 0x232D DUP3 PUSH2 0x22EC JUMP JUMPDEST PUSH1 0x20 DUP3 ADD SWAP1 POP SWAP2 SWAP1 POP JUMP JUMPDEST PUSH1 0x0 PUSH1 0x20 DUP3 ADD SWAP1 POP DUP2 DUP2 SUB PUSH1 0x0 DUP4 ADD MSTORE PUSH2 0x2351 DUP2 PUSH2 0x2315 JUMP JUMPDEST SWAP1 POP SWAP2 SWAP1 POP JUMP INVALID LOG2 PUSH5 0x6970667358 0x22 SLT KECCAK256 SWAP10 SHL PUSH1 0x51 CALLER PUSH31 0x7A6D15E8719EFCE3907CA606AA0F367B5575EE221FABE6BC0F4664736F6C63 NUMBER STOP ADDMOD SLT STOP CALLER "
		},
		"gasEstimates": {
			"creation": {
				"codeDepositCost": "1820400",
				"executionCost": "infinite",
				"totalCost": "infinite"
			},
			"external": {
				"ETH_ADDRESS()": "489",
				"addLiquidity(uint256)": "infinite",
				"balanceOf(address)": "2903",
				"getERCPrice()": "infinite",
				"getETHPrice()": "infinite",
				"getInERCPredictOutputETH(uint256)": "infinite",
				"getInETHPredictOutputERC(uint256)": "infinite",
				"my_shars()": "2571",
				"removeAllLiquidity(address)": "infinite",
				"removeLiquidity(address,uint256)": "infinite",
				"removeLiquidity(uint256)": "infinite",
				"reserve0()": "2475",
				"reserve1()": "2541",
				"sharesOf(address)": "2907",
				"swap(uint256)": "infinite",
				"swapTokenForETH(uint256)": "infinite",
				"swapTokenForETH_WithSlipLock(uint256,uint256,uint256)": "infinite",
				"swap_WithSlipLock(uint256,uint256,uint256)": "infinite",
				"token()": "infinite",
				"totalSupply()": "2453"
			},
			"internal": {
				"_burn(address,uint256)": "infinite",
				"_min(uint256,uint256)": "infinite",
				"_mint(address,uint256)": "infinite",
				"_removeLiquidity(address,uint256)": "infinite",
				"_sqrt(uint256)": "infinite",
				"_update(uint256,uint256)": "44241"
			}
		},
		"methodIdentifiers": {
			"ETH_ADDRESS()": "a734f06e",
			"addLiquidity(uint256)": "51c6590a",
			"balanceOf(address)": "70a08231",
			"getERCPrice()": "fcc2ba08",
			"getETHPrice()": "a607a8d9",
			"getInERCPredictOutputETH(uint256)": "dccc5fea",
			"getInETHPredictOutputERC(uint256)": "56c1d7eb",
			"my_shars()": "6cae4f84",
			"removeAllLiquidity(address)": "7a6a5e1b",
			"removeLiquidity(address,uint256)": "a201ccf6",
			"removeLiquidity(uint256)": "9c8f9f23",
			"reserve0()": "443cb4bc",
			"reserve1()": "5a76f25e",
			"sharesOf(address)": "f5eb42dc",
			"swap(uint256)": "94b918de",
			"swapTokenForETH(uint256)": "6fb84b74",
			"swapTokenForETH_WithSlipLock(uint256,uint256,uint256)": "dc2d845b",
			"swap_WithSlipLock(uint256,uint256,uint256)": "62279b65",
			"token()": "fc0c546a",
			"totalSupply()": "18160ddd"
		}
	},
	"abi": [
		{
			"inputs": [
				{
					"internalType": "address",
					"name": "_token",
					"type": "address"
				}
			],
			"stateMutability": "nonpayable",
			"type": "constructor"
		},
		{
			"inputs": [],
			"name": "ETH_ADDRESS",
			"outputs": [
				{
					"internalType": "address",
					"name": "",
					"type": "address"
				}
			],
			"stateMutability": "view",
			"type": "function"
		},
		{
			"inputs": [
				{
					"internalType": "uint256",
					"name": "_amount1",
					"type": "uint256"
				}
			],
			"name": "addLiquidity",
			"outputs": [
				{
					"internalType": "uint256",
					"name": "shares",
					"type": "uint256"
				}
			],
			"stateMutability": "payable",
			"type": "function"
		},
		{
			"inputs": [
				{
					"internalType": "address",
					"name": "",
					"type": "address"
				}
			],
			"name": "balanceOf",
			"outputs": [
				{
					"internalType": "uint256",
					"name": "",
					"type": "uint256"
				}
			],
			"stateMutability": "view",
			"type": "function"
		},
		{
			"inputs": [],
			"name": "getERCPrice",
			"outputs": [
				{
					"internalType": "uint256",
					"name": "",
					"type": "uint256"
				}
			],
			"stateMutability": "view",
			"type": "function"
		},
		{
			"inputs": [],
			"name": "getETHPrice",
			"outputs": [
				{
					"internalType": "uint256",
					"name": "",
					"type": "uint256"
				}
			],
			"stateMutability": "view",
			"type": "function"
		},
		{
			"inputs": [
				{
					"internalType": "uint256",
					"name": "_amount",
					"type": "uint256"
				}
			],
			"name": "getInERCPredictOutputETH",
			"outputs": [
				{
					"internalType": "uint256",
					"name": "",
					"type": "uint256"
				}
			],
			"stateMutability": "view",
			"type": "function"
		},
		{
			"inputs": [
				{
					"internalType": "uint256",
					"name": "_amount",
					"type": "uint256"
				}
			],
			"name": "getInETHPredictOutputERC",
			"outputs": [
				{
					"internalType": "uint256",
					"name": "",
					"type": "uint256"
				}
			],
			"stateMutability": "view",
			"type": "function"
		},
		{
			"inputs": [],
			"name": "my_shars",
			"outputs": [
				{
					"internalType": "uint256",
					"name": "",
					"type": "uint256"
				}
			],
			"stateMutability": "view",
			"type": "function"
		},
		{
			"inputs": [
				{
					"internalType": "address",
					"name": "_user",
					"type": "address"
				}
			],
			"name": "removeAllLiquidity",
			"outputs": [
				{
					"internalType": "uint256",
					"name": "amount0",
					"type": "uint256"
				},
				{
					"internalType": "uint256",
					"name": "amount1",
					"type": "uint256"
				}
			],
			"stateMutability": "nonpayable",
			"type": "function"
		},
		{
			"inputs": [
				{
					"internalType": "uint256",
					"name": "_shares",
					"type": "uint256"
				}
			],
			"name": "removeLiquidity",
			"outputs": [
				{
					"internalType": "uint256",
					"name": "amount0",
					"type": "uint256"
				},
				{
					"internalType": "uint256",
					"name": "amount1",
					"type": "uint256"
				}
			],
			"stateMutability": "nonpayable",
			"type": "function"
		},
		{
			"inputs": [
				{
					"internalType": "address",
					"name": "_user",
					"type": "address"
				},
				{
					"internalType": "uint256",
					"name": "_shares",
					"type": "uint256"
				}
			],
			"name": "removeLiquidity",
			"outputs": [
				{
					"internalType": "uint256",
					"name": "amount0",
					"type": "uint256"
				},
				{
					"internalType": "uint256",
					"name": "amount1",
					"type": "uint256"
				}
			],
			"stateMutability": "nonpayable",
			"type": "function"
		},
		{
			"inputs": [],
			"name": "reserve0",
			"outputs": [
				{
					"internalType": "uint256",
					"name": "",
					"type": "uint256"
				}
			],
			"stateMutability": "view",
			"type": "function"
		},
		{
			"inputs": [],
			"name": "reserve1",
			"outputs": [
				{
					"internalType": "uint256",
					"name": "",
					"type": "uint256"
				}
			],
			"stateMutability": "view",
			"type": "function"
		},
		{
			"inputs": [
				{
					"internalType": "address",
					"name": "_user",
					"type": "address"
				}
			],
			"name": "sharesOf",
			"outputs": [
				{
					"internalType": "uint256",
					"name": "",
					"type": "uint256"
				}
			],
			"stateMutability": "view",
			"type": "function"
		},
		{
			"inputs": [
				{
					"internalType": "uint256",
					"name": "_amountIn",
					"type": "uint256"
				}
			],
			"name": "swap",
			"outputs": [
				{
					"internalType": "uint256",
					"name": "amountOut",
					"type": "uint256"
				}
			],
			"stateMutability": "payable",
			"type": "function"
		},
		{
			"inputs": [
				{
					"internalType": "uint256",
					"name": "_amountIn",
					"type": "uint256"
				}
			],
			"name": "swapTokenForETH",
			"outputs": [
				{
					"internalType": "uint256",
					"name": "amountOut",
					"type": "uint256"
				}
			],
			"stateMutability": "nonpayable",
			"type": "function"
		},
		{
			"inputs": [
				{
					"internalType": "uint256",
					"name": "_amountIn",
					"type": "uint256"
				},
				{
					"internalType": "uint256",
					"name": "_forwardOutput",
					"type": "uint256"
				},
				{
					"internalType": "uint256",
					"name": "_slipLock",
					"type": "uint256"
				}
			],
			"name": "swapTokenForETH_WithSlipLock",
			"outputs": [
				{
					"internalType": "uint256",
					"name": "amountOut",
					"type": "uint256"
				}
			],
			"stateMutability": "nonpayable",
			"type": "function"
		},
		{
			"inputs": [
				{
					"internalType": "uint256",
					"name": "_amountIn",
					"type": "uint256"
				},
				{
					"internalType": "uint256",
					"name": "_forwardOutput",
					"type": "uint256"
				},
				{
					"internalType": "uint256",
					"name": "_slipLock",
					"type": "uint256"
				}
			],
			"name": "swap_WithSlipLock",
			"outputs": [
				{
					"internalType": "uint256",
					"name": "amountOut",
					"type": "uint256"
				}
			],
			"stateMutability": "payable",
			"type": "function"
		},
		{
			"inputs": [],
			"name": "token",
			"outputs": [
				{
					"internalType": "contract IERC20",
					"name": "",
					"type": "address"
				}
			],
			"stateMutability": "view",
			"type": "function"
		},
		{
			"inputs": [],
			"name": "totalSupply",
			"outputs": [
				{
					"internalType": "uint256",
					"name": "",
					"type": "uint256"
				}
			],
			"stateMutability": "view",
			"type": "function"
		}
	]
}