{
	"data": {
		"bytecode": {
			"linkReferences": {},
			"object": "60a06040523480156200001157600080fd5b506040516200279f3803806200279f83398181016040528101906200003791906200011c565b336000806101000a81548173ffffffffffffffffffffffffffffffffffffffff021916908373ffffffffffffffffffffffffffffffffffffffff1602179055508073ffffffffffffffffffffffffffffffffffffffff1660808173ffffffffffffffffffffffffffffffffffffffff1681525050506200014e565b600080fd5b600073ffffffffffffffffffffffffffffffffffffffff82169050919050565b6000620000e482620000b7565b9050919050565b620000f681620000d7565b81146200010257600080fd5b50565b6000815190506200011681620000eb565b92915050565b600060208284031215620001355762000134620000b2565b5b6000620001458482850162000105565b91505092915050565b6080516125da620001c56000396000818161054401528181610716015281816109fc01528181610a9f01528181610c7101528181610d5d01528181610f5b01528181610ffe0152818161139d0152818161148901528181611626015281816116a00152818161191f0152611a0f01526125da6000f3fe60806040526004361061011f5760003560e01c806394b918de116100a0578063dc2d845b11610064578063dc2d845b14610427578063dccc5fea14610464578063f5eb42dc146104a1578063fc0c546a146104de578063fcc2ba08146105095761011f565b806394b918de146103255780639c8f9f2314610355578063a201ccf614610393578063a607a8d9146103d1578063a734f06e146103fc5761011f565b806362279b65116100e757806362279b65146102125780636cae4f84146102425780636fb84b741461026d57806370a08231146102aa5780637a6a5e1b146102e75761011f565b806318160ddd14610124578063443cb4bc1461014f57806351c6590a1461017a57806356c1d7eb146101aa5780635a76f25e146101e7575b600080fd5b34801561013057600080fd5b50610139610534565b6040516101469190611b3f565b60405180910390f35b34801561015b57600080fd5b5061016461053a565b6040516101719190611b3f565b60405180910390f35b610194600480360381019061018f9190611b8b565b610540565b6040516101a19190611b3f565b60405180910390f35b3480156101b657600080fd5b506101d160048036038101906101cc9190611b8b565b6107b9565b6040516101de9190611b3f565b60405180910390f35b3480156101f357600080fd5b506101fc610866565b6040516102099190611b3f565b60405180910390f35b61022c60048036038101906102279190611bb8565b61086c565b6040516102399190611b3f565b60405180910390f35b34801561024e57600080fd5b50610257610b45565b6040516102649190611b3f565b60405180910390f35b34801561027957600080fd5b50610294600480360381019061028f9190611b8b565b610b8c565b6040516102a19190611b3f565b60405180910390f35b3480156102b657600080fd5b506102d160048036038101906102cc9190611c69565b610e01565b6040516102de9190611b3f565b60405180910390f35b3480156102f357600080fd5b5061030e60048036038101906103099190611c69565b610e19565b60405161031c929190611c96565b60405180910390f35b61033f600480360381019061033a9190611b8b565b610e6e565b60405161034c9190611b3f565b60405180910390f35b34801561036157600080fd5b5061037c60048036038101906103779190611b8b565b6110a2565b60405161038a929190611c96565b60405180910390f35b34801561039f57600080fd5b506103ba60048036038101906103b59190611cbf565b61113a565b6040516103c8929190611c96565b60405180910390f35b3480156103dd57600080fd5b506103e66111d4565b6040516103f39190611b3f565b60405180910390f35b34801561040857600080fd5b50610411611250565b60405161041e9190611d0e565b60405180910390f35b34801561043357600080fd5b5061044e60048036038101906104499190611bb8565b611255565b60405161045b9190611b3f565b60405180910390f35b34801561047057600080fd5b5061048b60048036038101906104869190611b8b565b61152e565b6040516104989190611b3f565b60405180910390f35b3480156104ad57600080fd5b506104c860048036038101906104c39190611c69565b6115db565b6040516104d59190611b3f565b60405180910390f35b3480156104ea57600080fd5b506104f3611624565b6040516105009190611d88565b60405180910390f35b34801561051557600080fd5b5061051e611648565b60405161052b9190611b3f565b60405180910390f35b60035481565b60015481565b60007f000000000000000000000000000000000000000000000000000000000000000073ffffffffffffffffffffffffffffffffffffffff166323b872dd3330856040518463ffffffff1660e01b815260040161059f93929190611da3565b6020604051808303816000875af11580156105be573d6000803e3d6000fd5b505050506040513d601f19601f820116820180604052508101906105e29190611e12565b506000349050600060015411806105fb57506000600254115b1561065d578060025461060e9190611e6e565b8360015461061c9190611e6e565b1461065c576040517f08c379a000000000000000000000000000000000000000000000000000000000815260040161065390611f0d565b60405180910390fd5b5b6000600354036106825761067b83826106769190611e6e565b61175f565b91506106c3565b6106c0600154600354836106969190611e6e565b6106a09190611f5c565b600254600354866106b19190611e6e565b6106bb9190611f5c565b6117d9565b91505b60008211610706576040517f08c379a00000000000000000000000000000000000000000000000000000000081526004016106fd90611fd9565b60405180910390fd5b61071033836117f2565b6107b3477f000000000000000000000000000000000000000000000000000000000000000073ffffffffffffffffffffffffffffffffffffffff166370a08231306040518263ffffffff1660e01b815260040161076d9190611d0e565b602060405180830381865afa15801561078a573d6000803e3d6000fd5b505050506040513d601f19601f820116820180604052508101906107ae919061200e565b611865565b50919050565b6000806001541180156107ce57506000600254115b80156107da5750600082115b610819576040517f08c379a000000000000000000000000000000000000000000000000000000000815260040161081090612087565b60405180910390fd5b60006103e86103e58461082c9190611e6e565b6108369190611f5c565b90508060015461084691906120a7565b816002546108549190611e6e565b61085e9190611f5c565b915050919050565b60025481565b60008334146108b0576040517f08c379a00000000000000000000000000000000000000000000000000000000081526004016108a790612127565b60405180910390fd5b60006103e86103e5866108c39190611e6e565b6108cd9190611f5c565b9050806001546108dd91906120a7565b816002546108eb9190611e6e565b6108f59190611f5c565b91506000821161093a576040517f08c379a000000000000000000000000000000000000000000000000000000000815260040161093190612193565b60405180910390fd5b6103e8836103e861094b91906121b3565b856109569190611e6e565b6109609190611f5c565b8210156109a2576040517f08c379a000000000000000000000000000000000000000000000000000000000815260040161099990612233565b60405180910390fd5b6000600154600354600185896109b891906121b3565b901c6109c49190611e6e565b6109ce9190611f5c565b90506109fa60008054906101000a900473ffffffffffffffffffffffffffffffffffffffff16826117f2565b7f000000000000000000000000000000000000000000000000000000000000000073ffffffffffffffffffffffffffffffffffffffff1663a9059cbb33856040518363ffffffff1660e01b8152600401610a55929190612253565b6020604051808303816000875af1158015610a74573d6000803e3d6000fd5b505050506040513d601f19601f82011682018060405250810190610a989190611e12565b50610b3c477f000000000000000000000000000000000000000000000000000000000000000073ffffffffffffffffffffffffffffffffffffffff166370a08231306040518263ffffffff1660e01b8152600401610af69190611d0e565b602060405180830381865afa158015610b13573d6000803e3d6000fd5b505050506040513d601f19601f82011682018060405250810190610b37919061200e565b611865565b50509392505050565b6000600460003373ffffffffffffffffffffffffffffffffffffffff1673ffffffffffffffffffffffffffffffffffffffff16815260200190815260200160002054905090565b6000806103e86103e584610ba09190611e6e565b610baa9190611f5c565b905080600254610bba91906120a7565b81600154610bc89190611e6e565b610bd29190611f5c565b915060008211610c17576040517f08c379a0000000000000000000000000000000000000000000000000000000008152600401610c0e90612193565b60405180910390fd5b600060025460035460018587610c2d91906121b3565b901c610c399190611e6e565b610c439190611f5c565b9050610c6f60008054906101000a900473ffffffffffffffffffffffffffffffffffffffff16826117f2565b7f000000000000000000000000000000000000000000000000000000000000000073ffffffffffffffffffffffffffffffffffffffff166323b872dd3330876040518463ffffffff1660e01b8152600401610ccc93929190611da3565b6020604051808303816000875af1158015610ceb573d6000803e3d6000fd5b505050506040513d601f19601f82011682018060405250810190610d0f9190611e12565b503373ffffffffffffffffffffffffffffffffffffffff166108fc849081150290604051600060405180830381858888f19350505050158015610d56573d6000803e3d6000fd5b50610dfa477f000000000000000000000000000000000000000000000000000000000000000073ffffffffffffffffffffffffffffffffffffffff166370a08231306040518263ffffffff1660e01b8152600401610db49190611d0e565b602060405180830381865afa158015610dd1573d6000803e3d6000fd5b505050506040513d601f19601f82011682018060405250810190610df5919061200e565b611865565b5050919050565b60046020528060005260406000206000915090505481565b600080610e6583600460008673ffffffffffffffffffffffffffffffffffffffff1673ffffffffffffffffffffffffffffffffffffffff16815260200190815260200160002054611877565b91509150915091565b6000813414610eb2576040517f08c379a0000000000000000000000000000000000000000000000000000000008152600401610ea990612127565b60405180910390fd5b60006103e86103e584610ec59190611e6e565b610ecf9190611f5c565b905080600154610edf91906120a7565b81600254610eed9190611e6e565b610ef79190611f5c565b915060006002600154610f0a9190611e6e565b6003548486610f1991906121b3565b610f239190611e6e565b610f2d9190611f5c565b9050610f5960008054906101000a900473ffffffffffffffffffffffffffffffffffffffff16826117f2565b7f000000000000000000000000000000000000000000000000000000000000000073ffffffffffffffffffffffffffffffffffffffff1663a9059cbb33856040518363ffffffff1660e01b8152600401610fb4929190612253565b6020604051808303816000875af1158015610fd3573d6000803e3d6000fd5b505050506040513d601f19601f82011682018060405250810190610ff79190611e12565b5061109b477f000000000000000000000000000000000000000000000000000000000000000073ffffffffffffffffffffffffffffffffffffffff166370a08231306040518263ffffffff1660e01b81526004016110559190611d0e565b602060405180830381865afa158015611072573d6000803e3d6000fd5b505050506040513d601f19601f82011682018060405250810190611096919061200e565b611865565b5050919050565b600080600460003373ffffffffffffffffffffffffffffffffffffffff1673ffffffffffffffffffffffffffffffffffffffff16815260200190815260200160002054831115611127576040517f08c379a000000000000000000000000000000000000000000000000000000000815260040161111e906122c8565b60405180910390fd5b6111313384611877565b91509150915091565b600080600460008573ffffffffffffffffffffffffffffffffffffffff1673ffffffffffffffffffffffffffffffffffffffff168152602001908152602001600020548311156111bf576040517f08c379a00000000000000000000000000000000000000000000000000000000081526004016111b6906122c8565b60405180910390fd5b6111c98484611877565b915091509250929050565b6000806001541180156111e957506000600254115b611228576040517f08c379a000000000000000000000000000000000000000000000000000000000815260040161121f90612334565b60405180910390fd5b600154670de0b6b3a76400006002546112419190611e6e565b61124b9190611f5c565b905090565b600081565b6000806103e86103e5866112699190611e6e565b6112739190611f5c565b90508060025461128391906120a7565b816001546112919190611e6e565b61129b9190611f5c565b9150600082116112e0576040517f08c379a00000000000000000000000000000000000000000000000000000000081526004016112d790612193565b60405180910390fd5b6103e8836103e86112f191906121b3565b856112fc9190611e6e565b6113069190611f5c565b821015611348576040517f08c379a000000000000000000000000000000000000000000000000000000000815260040161133f90612233565b60405180910390fd5b61139b60008054906101000a900473ffffffffffffffffffffffffffffffffffffffff166002546003546001868a61138091906121b3565b901c61138c9190611e6e565b6113969190611f5c565b6117f2565b7f000000000000000000000000000000000000000000000000000000000000000073ffffffffffffffffffffffffffffffffffffffff166323b872dd3330886040518463ffffffff1660e01b81526004016113f893929190611da3565b6020604051808303816000875af1158015611417573d6000803e3d6000fd5b505050506040513d601f19601f8201168201806040525081019061143b9190611e12565b503373ffffffffffffffffffffffffffffffffffffffff166108fc839081150290604051600060405180830381858888f19350505050158015611482573d6000803e3d6000fd5b50611526477f000000000000000000000000000000000000000000000000000000000000000073ffffffffffffffffffffffffffffffffffffffff166370a08231306040518263ffffffff1660e01b81526004016114e09190611d0e565b602060405180830381865afa1580156114fd573d6000803e3d6000fd5b505050506040513d601f19601f82011682018060405250810190611521919061200e565b611865565b509392505050565b60008060015411801561154357506000600254115b801561154f5750600082115b61158e576040517f08c379a000000000000000000000000000000000000000000000000000000000815260040161158590612334565b60405180910390fd5b60006103e86103e5846115a19190611e6e565b6115ab9190611f5c565b9050806002546115bb91906120a7565b816001546115c99190611e6e565b6115d39190611f5c565b915050919050565b6000600460008373ffffffffffffffffffffffffffffffffffffffff1673ffffffffffffffffffffffffffffffffffffffff168152602001908152602001600020549050919050565b7f000000000000000000000000000000000000000000000000000000000000000081565b60008060015411801561165d57506000600254115b61169c576040517f08c379a000000000000000000000000000000000000000000000000000000000815260040161169390612087565b60405180910390fd5b60007f000000000000000000000000000000000000000000000000000000000000000073ffffffffffffffffffffffffffffffffffffffff1663313ce5676040518163ffffffff1660e01b8152600401602060405180830381865afa158015611709573d6000803e3d6000fd5b505050506040513d601f19601f8201168201806040525081019061172d919061238d565b60ff16905060025481600a61174291906124ed565b60015461174f9190611e6e565b6117599190611f5c565b91505090565b600060038211156117c6578190506000600160028461177e9190611f5c565b61178891906120a7565b90505b818110156117c05780915060028182856117a59190611f5c565b6117af91906120a7565b6117b99190611f5c565b905061178b565b506117d4565b600082146117d357600190505b5b919050565b60008183106117e857816117ea565b825b905092915050565b80600460008473ffffffffffffffffffffffffffffffffffffffff1673ffffffffffffffffffffffffffffffffffffffff168152602001908152602001600020600082825461184191906120a7565b92505081905550806003600082825461185a91906120a7565b925050819055505050565b81600181905550806002819055505050565b6000806003546001548461188b9190611e6e565b6118959190611f5c565b9150600354600254846118a89190611e6e565b6118b29190611f5c565b90506000821180156118c45750600081115b611903576040517f08c379a00000000000000000000000000000000000000000000000000000000081526004016118fa90612584565b60405180910390fd5b61190d8484611ab3565b6119c6824761191c91906121b3565b827f000000000000000000000000000000000000000000000000000000000000000073ffffffffffffffffffffffffffffffffffffffff166370a08231306040518263ffffffff1660e01b81526004016119769190611d0e565b602060405180830381865afa158015611993573d6000803e3d6000fd5b505050506040513d601f19601f820116820180604052508101906119b7919061200e565b6119c191906121b3565b611865565b8373ffffffffffffffffffffffffffffffffffffffff166108fc839081150290604051600060405180830381858888f19350505050158015611a0c573d6000803e3d6000fd5b507f000000000000000000000000000000000000000000000000000000000000000073ffffffffffffffffffffffffffffffffffffffff1663a9059cbb85836040518363ffffffff1660e01b8152600401611a68929190612253565b6020604051808303816000875af1158015611a87573d6000803e3d6000fd5b505050506040513d601f19601f82011682018060405250810190611aab9190611e12565b509250929050565b80600460008473ffffffffffffffffffffffffffffffffffffffff1673ffffffffffffffffffffffffffffffffffffffff1681526020019081526020016000206000828254611b0291906121b3565b925050819055508060036000828254611b1b91906121b3565b925050819055505050565b6000819050919050565b611b3981611b26565b82525050565b6000602082019050611b546000830184611b30565b92915050565b600080fd5b611b6881611b26565b8114611b7357600080fd5b50565b600081359050611b8581611b5f565b92915050565b600060208284031215611ba157611ba0611b5a565b5b6000611baf84828501611b76565b91505092915050565b600080600060608486031215611bd157611bd0611b5a565b5b6000611bdf86828701611b76565b9350506020611bf086828701611b76565b9250506040611c0186828701611b76565b9150509250925092565b600073ffffffffffffffffffffffffffffffffffffffff82169050919050565b6000611c3682611c0b565b9050919050565b611c4681611c2b565b8114611c5157600080fd5b50565b600081359050611c6381611c3d565b92915050565b600060208284031215611c7f57611c7e611b5a565b5b6000611c8d84828501611c54565b91505092915050565b6000604082019050611cab6000830185611b30565b611cb86020830184611b30565b9392505050565b60008060408385031215611cd657611cd5611b5a565b5b6000611ce485828601611c54565b9250506020611cf585828601611b76565b9150509250929050565b611d0881611c2b565b82525050565b6000602082019050611d236000830184611cff565b92915050565b6000819050919050565b6000611d4e611d49611d4484611c0b565b611d29565b611c0b565b9050919050565b6000611d6082611d33565b9050919050565b6000611d7282611d55565b9050919050565b611d8281611d67565b82525050565b6000602082019050611d9d6000830184611d79565b92915050565b6000606082019050611db86000830186611cff565b611dc56020830185611cff565b611dd26040830184611b30565b949350505050565b60008115159050919050565b611def81611dda565b8114611dfa57600080fd5b50565b600081519050611e0c81611de6565b92915050565b600060208284031215611e2857611e27611b5a565b5b6000611e3684828501611dfd565b91505092915050565b7f4e487b7100000000000000000000000000000000000000000000000000000000600052601160045260246000fd5b6000611e7982611b26565b9150611e8483611b26565b9250828202611e9281611b26565b91508282048414831517611ea957611ea8611e3f565b5b5092915050565b600082825260208201905092915050565b7f78202f207920213d206478202f20647900000000000000000000000000000000600082015250565b6000611ef7601083611eb0565b9150611f0282611ec1565b602082019050919050565b60006020820190508181036000830152611f2681611eea565b9050919050565b7f4e487b7100000000000000000000000000000000000000000000000000000000600052601260045260246000fd5b6000611f6782611b26565b9150611f7283611b26565b925082611f8257611f81611f2d565b5b828204905092915050565b7f736861726573203d203000000000000000000000000000000000000000000000600082015250565b6000611fc3600a83611eb0565b9150611fce82611f8d565b602082019050919050565b60006020820190508181036000830152611ff281611fb6565b9050919050565b60008151905061200881611b5f565b92915050565b60006020828403121561202457612023611b5a565b5b600061203284828501611ff9565b91505092915050565b7f496e76616c696420455243323020726573657276657300000000000000000000600082015250565b6000612071601683611eb0565b915061207c8261203b565b602082019050919050565b600060208201905081810360008301526120a081612064565b9050919050565b60006120b282611b26565b91506120bd83611b26565b92508282019050808211156120d5576120d4611e3f565b5b92915050565b7f45544820616d6f756e74206d69736d6174636800000000000000000000000000600082015250565b6000612111601383611eb0565b915061211c826120db565b602082019050919050565b6000602082019050818103600083015261214081612104565b9050919050565b7f496e73756666696369656e74206f757470757420616d6f756e74000000000000600082015250565b600061217d601a83611eb0565b915061218882612147565b602082019050919050565b600060208201905081810360008301526121ac81612170565b9050919050565b60006121be82611b26565b91506121c983611b26565b92508282039050818111156121e1576121e0611e3f565b5b92915050565b7f536c69704c6f636b000000000000000000000000000000000000000000000000600082015250565b600061221d600883611eb0565b9150612228826121e7565b602082019050919050565b6000602082019050818103600083015261224c81612210565b9050919050565b60006040820190506122686000830185611cff565b6122756020830184611b30565b9392505050565b7f496e73756666696369656e742062616c616e6365000000000000000000000000600082015250565b60006122b2601483611eb0565b91506122bd8261227c565b602082019050919050565b600060208201905081810360008301526122e1816122a5565b9050919050565b7f496e76616c696420455448207265736572766573000000000000000000000000600082015250565b600061231e601483611eb0565b9150612329826122e8565b602082019050919050565b6000602082019050818103600083015261234d81612311565b9050919050565b600060ff82169050919050565b61236a81612354565b811461237557600080fd5b50565b60008151905061238781612361565b92915050565b6000602082840312156123a3576123a2611b5a565b5b60006123b184828501612378565b91505092915050565b60008160011c9050919050565b6000808291508390505b6001851115612411578086048111156123ed576123ec611e3f565b5b60018516156123fc5780820291505b808102905061240a856123ba565b94506123d1565b94509492505050565b60008261242a57600190506124e6565b8161243857600090506124e6565b816001811461244e576002811461245857612487565b60019150506124e6565b60ff84111561246a57612469611e3f565b5b8360020a91508482111561248157612480611e3f565b5b506124e6565b5060208310610133831016604e8410600b84101617156124bc5782820a9050838111156124b7576124b6611e3f565b5b6124e6565b6124c984848460016123c7565b925090508184048111156124e0576124df611e3f565b5b81810290505b9392505050565b60006124f882611b26565b915061250383611b26565b92506125307fffffffffffffffffffffffffffffffffffffffffffffffffffffffffffffffff848461241a565b905092915050565b7f616d6f756e7430206f7220616d6f756e7431203d203000000000000000000000600082015250565b600061256e601683611eb0565b915061257982612538565b602082019050919050565b6000602082019050818103600083015261259d81612561565b905091905056fea26469706673582212206ac14c380b46adf6dbc81a79681256c2ddedcbed4a11109e23d4938011aadff864736f6c63430008120033",
			"opcodes": "PUSH1 0xA0 PUSH1 0x40 MSTORE CALLVALUE DUP1 ISZERO PUSH3 0x11 JUMPI PUSH1 0x0 DUP1 REVERT JUMPDEST POP PUSH1 0x40 MLOAD PUSH3 0x279F CODESIZE SUB DUP1 PUSH3 0x279F DUP4 CODECOPY DUP2 DUP2 ADD PUSH1 0x40 MSTORE DUP2 ADD SWAP1 PUSH3 0x37 SWAP2 SWAP1 PUSH3 0x11C JUMP JUMPDEST CALLER PUSH1 0x0 DUP1 PUSH2 0x100 EXP DUP2 SLOAD DUP2 PUSH20 0xFFFFFFFFFFFFFFFFFFFFFFFFFFFFFFFFFFFFFFFF MUL NOT AND SWAP1 DUP4 PUSH20 0xFFFFFFFFFFFFFFFFFFFFFFFFFFFFFFFFFFFFFFFF AND MUL OR SWAP1 SSTORE POP DUP1 PUSH20 0xFFFFFFFFFFFFFFFFFFFFFFFFFFFFFFFFFFFFFFFF AND PUSH1 0x80 DUP2 PUSH20 0xFFFFFFFFFFFFFFFFFFFFFFFFFFFFFFFFFFFFFFFF AND DUP2 MSTORE POP POP POP PUSH3 0x14E JUMP JUMPDEST PUSH1 0x0 DUP1 REVERT JUMPDEST PUSH1 0x0 PUSH20 0xFFFFFFFFFFFFFFFFFFFFFFFFFFFFFFFFFFFFFFFF DUP3 AND SWAP1 POP SWAP2 SWAP1 POP JUMP JUMPDEST PUSH1 0x0 PUSH3 0xE4 DUP3 PUSH3 0xB7 JUMP JUMPDEST SWAP1 POP SWAP2 SWAP1 POP JUMP JUMPDEST PUSH3 0xF6 DUP2 PUSH3 0xD7 JUMP JUMPDEST DUP2 EQ PUSH3 0x102 JUMPI PUSH1 0x0 DUP1 REVERT JUMPDEST POP JUMP JUMPDEST PUSH1 0x0 DUP2 MLOAD SWAP1 POP PUSH3 0x116 DUP2 PUSH3 0xEB JUMP JUMPDEST SWAP3 SWAP2 POP POP JUMP JUMPDEST PUSH1 0x0 PUSH1 0x20 DUP3 DUP5 SUB SLT ISZERO PUSH3 0x135 JUMPI PUSH3 0x134 PUSH3 0xB2 JUMP JUMPDEST JUMPDEST PUSH1 0x0 PUSH3 0x145 DUP5 DUP3 DUP6 ADD PUSH3 0x105 JUMP JUMPDEST SWAP2 POP POP SWAP3 SWAP2 POP POP JUMP JUMPDEST PUSH1 0x80 MLOAD PUSH2 0x25DA PUSH3 0x1C5 PUSH1 0x0 CODECOPY PUSH1 0x0 DUP2 DUP2 PUSH2 0x544 ADD MSTORE DUP2 DUP2 PUSH2 0x716 ADD MSTORE DUP2 DUP2 PUSH2 0x9FC ADD MSTORE DUP2 DUP2 PUSH2 0xA9F ADD MSTORE DUP2 DUP2 PUSH2 0xC71 ADD MSTORE DUP2 DUP2 PUSH2 0xD5D ADD MSTORE DUP2 DUP2 PUSH2 0xF5B ADD MSTORE DUP2 DUP2 PUSH2 0xFFE ADD MSTORE DUP2 DUP2 PUSH2 0x139D ADD MSTORE DUP2 DUP2 PUSH2 0x1489 ADD MSTORE DUP2 DUP2 PUSH2 0x1626 ADD MSTORE DUP2 DUP2 PUSH2 0x16A0 ADD MSTORE DUP2 DUP2 PUSH2 0x191F ADD MSTORE PUSH2 0x1A0F ADD MSTORE PUSH2 0x25DA PUSH1 0x0 RETURN INVALID PUSH1 0x80 PUSH1 0x40 MSTORE PUSH1 0x4 CALLDATASIZE LT PUSH2 0x11F JUMPI PUSH1 0x0 CALLDATALOAD PUSH1 0xE0 SHR DUP1 PUSH4 0x94B918DE GT PUSH2 0xA0 JUMPI DUP1 PUSH4 0xDC2D845B GT PUSH2 0x64 JUMPI DUP1 PUSH4 0xDC2D845B EQ PUSH2 0x427 JUMPI DUP1 PUSH4 0xDCCC5FEA EQ PUSH2 0x464 JUMPI DUP1 PUSH4 0xF5EB42DC EQ PUSH2 0x4A1 JUMPI DUP1 PUSH4 0xFC0C546A EQ PUSH2 0x4DE JUMPI DUP1 PUSH4 0xFCC2BA08 EQ PUSH2 0x509 JUMPI PUSH2 0x11F JUMP JUMPDEST DUP1 PUSH4 0x94B918DE EQ PUSH2 0x325 JUMPI DUP1 PUSH4 0x9C8F9F23 EQ PUSH2 0x355 JUMPI DUP1 PUSH4 0xA201CCF6 EQ PUSH2 0x393 JUMPI DUP1 PUSH4 0xA607A8D9 EQ PUSH2 0x3D1 JUMPI DUP1 PUSH4 0xA734F06E EQ PUSH2 0x3FC JUMPI PUSH2 0x11F JUMP JUMPDEST DUP1 PUSH4 0x62279B65 GT PUSH2 0xE7 JUMPI DUP1 PUSH4 0x62279B65 EQ PUSH2 0x212 JUMPI DUP1 PUSH4 0x6CAE4F84 EQ PUSH2 0x242 JUMPI DUP1 PUSH4 0x6FB84B74 EQ PUSH2 0x26D JUMPI DUP1 PUSH4 0x70A08231 EQ PUSH2 0x2AA JUMPI DUP1 PUSH4 0x7A6A5E1B EQ PUSH2 0x2E7 JUMPI PUSH2 0x11F JUMP JUMPDEST DUP1 PUSH4 0x18160DDD EQ PUSH2 0x124 JUMPI DUP1 PUSH4 0x443CB4BC EQ PUSH2 0x14F JUMPI DUP1 PUSH4 0x51C6590A EQ PUSH2 0x17A JUMPI DUP1 PUSH4 0x56C1D7EB EQ PUSH2 0x1AA JUMPI DUP1 PUSH4 0x5A76F25E EQ PUSH2 0x1E7 JUMPI JUMPDEST PUSH1 0x0 DUP1 REVERT JUMPDEST CALLVALUE DUP1 ISZERO PUSH2 0x130 JUMPI PUSH1 0x0 DUP1 REVERT JUMPDEST POP PUSH2 0x139 PUSH2 0x534 JUMP JUMPDEST PUSH1 0x40 MLOAD PUSH2 0x146 SWAP2 SWAP1 PUSH2 0x1B3F JUMP JUMPDEST PUSH1 0x40 MLOAD DUP1 SWAP2 SUB SWAP1 RETURN JUMPDEST CALLVALUE DUP1 ISZERO PUSH2 0x15B JUMPI PUSH1 0x0 DUP1 REVERT JUMPDEST POP PUSH2 0x164 PUSH2 0x53A JUMP JUMPDEST PUSH1 0x40 MLOAD PUSH2 0x171 SWAP2 SWAP1 PUSH2 0x1B3F JUMP JUMPDEST PUSH1 0x40 MLOAD DUP1 SWAP2 SUB SWAP1 RETURN JUMPDEST PUSH2 0x194 PUSH1 0x4 DUP1 CALLDATASIZE SUB DUP2 ADD SWAP1 PUSH2 0x18F SWAP2 SWAP1 PUSH2 0x1B8B JUMP JUMPDEST PUSH2 0x540 JUMP JUMPDEST PUSH1 0x40 MLOAD PUSH2 0x1A1 SWAP2 SWAP1 PUSH2 0x1B3F JUMP JUMPDEST PUSH1 0x40 MLOAD DUP1 SWAP2 SUB SWAP1 RETURN JUMPDEST CALLVALUE DUP1 ISZERO PUSH2 0x1B6 JUMPI PUSH1 0x0 DUP1 REVERT JUMPDEST POP PUSH2 0x1D1 PUSH1 0x4 DUP1 CALLDATASIZE SUB DUP2 ADD SWAP1 PUSH2 0x1CC SWAP2 SWAP1 PUSH2 0x1B8B JUMP JUMPDEST PUSH2 0x7B9 JUMP JUMPDEST PUSH1 0x40 MLOAD PUSH2 0x1DE SWAP2 SWAP1 PUSH2 0x1B3F JUMP JUMPDEST PUSH1 0x40 MLOAD DUP1 SWAP2 SUB SWAP1 RETURN JUMPDEST CALLVALUE DUP1 ISZERO PUSH2 0x1F3 JUMPI PUSH1 0x0 DUP1 REVERT JUMPDEST POP PUSH2 0x1FC PUSH2 0x866 JUMP JUMPDEST PUSH1 0x40 MLOAD PUSH2 0x209 SWAP2 SWAP1 PUSH2 0x1B3F JUMP JUMPDEST PUSH1 0x40 MLOAD DUP1 SWAP2 SUB SWAP1 RETURN JUMPDEST PUSH2 0x22C PUSH1 0x4 DUP1 CALLDATASIZE SUB DUP2 ADD SWAP1 PUSH2 0x227 SWAP2 SWAP1 PUSH2 0x1BB8 JUMP JUMPDEST PUSH2 0x86C JUMP JUMPDEST PUSH1 0x40 MLOAD PUSH2 0x239 SWAP2 SWAP1 PUSH2 0x1B3F JUMP JUMPDEST PUSH1 0x40 MLOAD DUP1 SWAP2 SUB SWAP1 RETURN JUMPDEST CALLVALUE DUP1 ISZERO PUSH2 0x24E JUMPI PUSH1 0x0 DUP1 REVERT JUMPDEST POP PUSH2 0x257 PUSH2 0xB45 JUMP JUMPDEST PUSH1 0x40 MLOAD PUSH2 0x264 SWAP2 SWAP1 PUSH2 0x1B3F JUMP JUMPDEST PUSH1 0x40 MLOAD DUP1 SWAP2 SUB SWAP1 RETURN JUMPDEST CALLVALUE DUP1 ISZERO PUSH2 0x279 JUMPI PUSH1 0x0 DUP1 REVERT JUMPDEST POP PUSH2 0x294 PUSH1 0x4 DUP1 CALLDATASIZE SUB DUP2 ADD SWAP1 PUSH2 0x28F SWAP2 SWAP1 PUSH2 0x1B8B JUMP JUMPDEST PUSH2 0xB8C JUMP JUMPDEST PUSH1 0x40 MLOAD PUSH2 0x2A1 SWAP2 SWAP1 PUSH2 0x1B3F JUMP JUMPDEST PUSH1 0x40 MLOAD DUP1 SWAP2 SUB SWAP1 RETURN JUMPDEST CALLVALUE DUP1 ISZERO PUSH2 0x2B6 JUMPI PUSH1 0x0 DUP1 REVERT JUMPDEST POP PUSH2 0x2D1 PUSH1 0x4 DUP1 CALLDATASIZE SUB DUP2 ADD SWAP1 PUSH2 0x2CC SWAP2 SWAP1 PUSH2 0x1C69 JUMP JUMPDEST PUSH2 0xE01 JUMP JUMPDEST PUSH1 0x40 MLOAD PUSH2 0x2DE SWAP2 SWAP1 PUSH2 0x1B3F JUMP JUMPDEST PUSH1 0x40 MLOAD DUP1 SWAP2 SUB SWAP1 RETURN JUMPDEST CALLVALUE DUP1 ISZERO PUSH2 0x2F3 JUMPI PUSH1 0x0 DUP1 REVERT JUMPDEST POP PUSH2 0x30E PUSH1 0x4 DUP1 CALLDATASIZE SUB DUP2 ADD SWAP1 PUSH2 0x309 SWAP2 SWAP1 PUSH2 0x1C69 JUMP JUMPDEST PUSH2 0xE19 JUMP JUMPDEST PUSH1 0x40 MLOAD PUSH2 0x31C SWAP3 SWAP2 SWAP1 PUSH2 0x1C96 JUMP JUMPDEST PUSH1 0x40 MLOAD DUP1 SWAP2 SUB SWAP1 RETURN JUMPDEST PUSH2 0x33F PUSH1 0x4 DUP1 CALLDATASIZE SUB DUP2 ADD SWAP1 PUSH2 0x33A SWAP2 SWAP1 PUSH2 0x1B8B JUMP JUMPDEST PUSH2 0xE6E JUMP JUMPDEST PUSH1 0x40 MLOAD PUSH2 0x34C SWAP2 SWAP1 PUSH2 0x1B3F JUMP JUMPDEST PUSH1 0x40 MLOAD DUP1 SWAP2 SUB SWAP1 RETURN JUMPDEST CALLVALUE DUP1 ISZERO PUSH2 0x361 JUMPI PUSH1 0x0 DUP1 REVERT JUMPDEST POP PUSH2 0x37C PUSH1 0x4 DUP1 CALLDATASIZE SUB DUP2 ADD SWAP1 PUSH2 0x377 SWAP2 SWAP1 PUSH2 0x1B8B JUMP JUMPDEST PUSH2 0x10A2 JUMP JUMPDEST PUSH1 0x40 MLOAD PUSH2 0x38A SWAP3 SWAP2 SWAP1 PUSH2 0x1C96 JUMP JUMPDEST PUSH1 0x40 MLOAD DUP1 SWAP2 SUB SWAP1 RETURN JUMPDEST CALLVALUE DUP1 ISZERO PUSH2 0x39F JUMPI PUSH1 0x0 DUP1 REVERT JUMPDEST POP PUSH2 0x3BA PUSH1 0x4 DUP1 CALLDATASIZE SUB DUP2 ADD SWAP1 PUSH2 0x3B5 SWAP2 SWAP1 PUSH2 0x1CBF JUMP JUMPDEST PUSH2 0x113A JUMP JUMPDEST PUSH1 0x40 MLOAD PUSH2 0x3C8 SWAP3 SWAP2 SWAP1 PUSH2 0x1C96 JUMP JUMPDEST PUSH1 0x40 MLOAD DUP1 SWAP2 SUB SWAP1 RETURN JUMPDEST CALLVALUE DUP1 ISZERO PUSH2 0x3DD JUMPI PUSH1 0x0 DUP1 REVERT JUMPDEST POP PUSH2 0x3E6 PUSH2 0x11D4 JUMP JUMPDEST PUSH1 0x40 MLOAD PUSH2 0x3F3 SWAP2 SWAP1 PUSH2 0x1B3F JUMP JUMPDEST PUSH1 0x40 MLOAD DUP1 SWAP2 SUB SWAP1 RETURN JUMPDEST CALLVALUE DUP1 ISZERO PUSH2 0x408 JUMPI PUSH1 0x0 DUP1 REVERT JUMPDEST POP PUSH2 0x411 PUSH2 0x1250 JUMP JUMPDEST PUSH1 0x40 MLOAD PUSH2 0x41E SWAP2 SWAP1 PUSH2 0x1D0E JUMP JUMPDEST PUSH1 0x40 MLOAD DUP1 SWAP2 SUB SWAP1 RETURN JUMPDEST CALLVALUE DUP1 ISZERO PUSH2 0x433 JUMPI PUSH1 0x0 DUP1 REVERT JUMPDEST POP PUSH2 0x44E PUSH1 0x4 DUP1 CALLDATASIZE SUB DUP2 ADD SWAP1 PUSH2 0x449 SWAP2 SWAP1 PUSH2 0x1BB8 JUMP JUMPDEST PUSH2 0x1255 JUMP JUMPDEST PUSH1 0x40 MLOAD PUSH2 0x45B SWAP2 SWAP1 PUSH2 0x1B3F JUMP JUMPDEST PUSH1 0x40 MLOAD DUP1 SWAP2 SUB SWAP1 RETURN JUMPDEST CALLVALUE DUP1 ISZERO PUSH2 0x470 JUMPI PUSH1 0x0 DUP1 REVERT JUMPDEST POP PUSH2 0x48B PUSH1 0x4 DUP1 CALLDATASIZE SUB DUP2 ADD SWAP1 PUSH2 0x486 SWAP2 SWAP1 PUSH2 0x1B8B JUMP JUMPDEST PUSH2 0x152E JUMP JUMPDEST PUSH1 0x40 MLOAD PUSH2 0x498 SWAP2 SWAP1 PUSH2 0x1B3F JUMP JUMPDEST PUSH1 0x40 MLOAD DUP1 SWAP2 SUB SWAP1 RETURN JUMPDEST CALLVALUE DUP1 ISZERO PUSH2 0x4AD JUMPI PUSH1 0x0 DUP1 REVERT JUMPDEST POP PUSH2 0x4C8 PUSH1 0x4 DUP1 CALLDATASIZE SUB DUP2 ADD SWAP1 PUSH2 0x4C3 SWAP2 SWAP1 PUSH2 0x1C69 JUMP JUMPDEST PUSH2 0x15DB JUMP JUMPDEST PUSH1 0x40 MLOAD PUSH2 0x4D5 SWAP2 SWAP1 PUSH2 0x1B3F JUMP JUMPDEST PUSH1 0x40 MLOAD DUP1 SWAP2 SUB SWAP1 RETURN JUMPDEST CALLVALUE DUP1 ISZERO PUSH2 0x4EA JUMPI PUSH1 0x0 DUP1 REVERT JUMPDEST POP PUSH2 0x4F3 PUSH2 0x1624 JUMP JUMPDEST PUSH1 0x40 MLOAD PUSH2 0x500 SWAP2 SWAP1 PUSH2 0x1D88 JUMP JUMPDEST PUSH1 0x40 MLOAD DUP1 SWAP2 SUB SWAP1 RETURN JUMPDEST CALLVALUE DUP1 ISZERO PUSH2 0x515 JUMPI PUSH1 0x0 DUP1 REVERT JUMPDEST POP PUSH2 0x51E PUSH2 0x1648 JUMP JUMPDEST PUSH1 0x40 MLOAD PUSH2 0x52B SWAP2 SWAP1 PUSH2 0x1B3F JUMP JUMPDEST PUSH1 0x40 MLOAD DUP1 SWAP2 SUB SWAP1 RETURN JUMPDEST PUSH1 0x3 SLOAD DUP2 JUMP JUMPDEST PUSH1 0x1 SLOAD DUP2 JUMP JUMPDEST PUSH1 0x0 PUSH32 0x0 PUSH20 0xFFFFFFFFFFFFFFFFFFFFFFFFFFFFFFFFFFFFFFFF AND PUSH4 0x23B872DD CALLER ADDRESS DUP6 PUSH1 0x40 MLOAD DUP5 PUSH4 0xFFFFFFFF AND PUSH1 0xE0 SHL DUP2 MSTORE PUSH1 0x4 ADD PUSH2 0x59F SWAP4 SWAP3 SWAP2 SWAP1 PUSH2 0x1DA3 JUMP JUMPDEST PUSH1 0x20 PUSH1 0x40 MLOAD DUP1 DUP4 SUB DUP2 PUSH1 0x0 DUP8 GAS CALL ISZERO DUP1 ISZERO PUSH2 0x5BE JUMPI RETURNDATASIZE PUSH1 0x0 DUP1 RETURNDATACOPY RETURNDATASIZE PUSH1 0x0 REVERT JUMPDEST POP POP POP POP PUSH1 0x40 MLOAD RETURNDATASIZE PUSH1 0x1F NOT PUSH1 0x1F DUP3 ADD AND DUP3 ADD DUP1 PUSH1 0x40 MSTORE POP DUP2 ADD SWAP1 PUSH2 0x5E2 SWAP2 SWAP1 PUSH2 0x1E12 JUMP JUMPDEST POP PUSH1 0x0 CALLVALUE SWAP1 POP PUSH1 0x0 PUSH1 0x1 SLOAD GT DUP1 PUSH2 0x5FB JUMPI POP PUSH1 0x0 PUSH1 0x2 SLOAD GT JUMPDEST ISZERO PUSH2 0x65D JUMPI DUP1 PUSH1 0x2 SLOAD PUSH2 0x60E SWAP2 SWAP1 PUSH2 0x1E6E JUMP JUMPDEST DUP4 PUSH1 0x1 SLOAD PUSH2 0x61C SWAP2 SWAP1 PUSH2 0x1E6E JUMP JUMPDEST EQ PUSH2 0x65C JUMPI PUSH1 0x40 MLOAD PUSH32 0x8C379A000000000000000000000000000000000000000000000000000000000 DUP2 MSTORE PUSH1 0x4 ADD PUSH2 0x653 SWAP1 PUSH2 0x1F0D JUMP JUMPDEST PUSH1 0x40 MLOAD DUP1 SWAP2 SUB SWAP1 REVERT JUMPDEST JUMPDEST PUSH1 0x0 PUSH1 0x3 SLOAD SUB PUSH2 0x682 JUMPI PUSH2 0x67B DUP4 DUP3 PUSH2 0x676 SWAP2 SWAP1 PUSH2 0x1E6E JUMP JUMPDEST PUSH2 0x175F JUMP JUMPDEST SWAP2 POP PUSH2 0x6C3 JUMP JUMPDEST PUSH2 0x6C0 PUSH1 0x1 SLOAD PUSH1 0x3 SLOAD DUP4 PUSH2 0x696 SWAP2 SWAP1 PUSH2 0x1E6E JUMP JUMPDEST PUSH2 0x6A0 SWAP2 SWAP1 PUSH2 0x1F5C JUMP JUMPDEST PUSH1 0x2 SLOAD PUSH1 0x3 SLOAD DUP7 PUSH2 0x6B1 SWAP2 SWAP1 PUSH2 0x1E6E JUMP JUMPDEST PUSH2 0x6BB SWAP2 SWAP1 PUSH2 0x1F5C JUMP JUMPDEST PUSH2 0x17D9 JUMP JUMPDEST SWAP2 POP JUMPDEST PUSH1 0x0 DUP3 GT PUSH2 0x706 JUMPI PUSH1 0x40 MLOAD PUSH32 0x8C379A000000000000000000000000000000000000000000000000000000000 DUP2 MSTORE PUSH1 0x4 ADD PUSH2 0x6FD SWAP1 PUSH2 0x1FD9 JUMP JUMPDEST PUSH1 0x40 MLOAD DUP1 SWAP2 SUB SWAP1 REVERT JUMPDEST PUSH2 0x710 CALLER DUP4 PUSH2 0x17F2 JUMP JUMPDEST PUSH2 0x7B3 SELFBALANCE PUSH32 0x0 PUSH20 0xFFFFFFFFFFFFFFFFFFFFFFFFFFFFFFFFFFFFFFFF AND PUSH4 0x70A08231 ADDRESS PUSH1 0x40 MLOAD DUP3 PUSH4 0xFFFFFFFF AND PUSH1 0xE0 SHL DUP2 MSTORE PUSH1 0x4 ADD PUSH2 0x76D SWAP2 SWAP1 PUSH2 0x1D0E JUMP JUMPDEST PUSH1 0x20 PUSH1 0x40 MLOAD DUP1 DUP4 SUB DUP2 DUP7 GAS STATICCALL ISZERO DUP1 ISZERO PUSH2 0x78A JUMPI RETURNDATASIZE PUSH1 0x0 DUP1 RETURNDATACOPY RETURNDATASIZE PUSH1 0x0 REVERT JUMPDEST POP POP POP POP PUSH1 0x40 MLOAD RETURNDATASIZE PUSH1 0x1F NOT PUSH1 0x1F DUP3 ADD AND DUP3 ADD DUP1 PUSH1 0x40 MSTORE POP DUP2 ADD SWAP1 PUSH2 0x7AE SWAP2 SWAP1 PUSH2 0x200E JUMP JUMPDEST PUSH2 0x1865 JUMP JUMPDEST POP SWAP2 SWAP1 POP JUMP JUMPDEST PUSH1 0x0 DUP1 PUSH1 0x1 SLOAD GT DUP1 ISZERO PUSH2 0x7CE JUMPI POP PUSH1 0x0 PUSH1 0x2 SLOAD GT JUMPDEST DUP1 ISZERO PUSH2 0x7DA JUMPI POP PUSH1 0x0 DUP3 GT JUMPDEST PUSH2 0x819 JUMPI PUSH1 0x40 MLOAD PUSH32 0x8C379A000000000000000000000000000000000000000000000000000000000 DUP2 MSTORE PUSH1 0x4 ADD PUSH2 0x810 SWAP1 PUSH2 0x2087 JUMP JUMPDEST PUSH1 0x40 MLOAD DUP1 SWAP2 SUB SWAP1 REVERT JUMPDEST PUSH1 0x0 PUSH2 0x3E8 PUSH2 0x3E5 DUP5 PUSH2 0x82C SWAP2 SWAP1 PUSH2 0x1E6E JUMP JUMPDEST PUSH2 0x836 SWAP2 SWAP1 PUSH2 0x1F5C JUMP JUMPDEST SWAP1 POP DUP1 PUSH1 0x1 SLOAD PUSH2 0x846 SWAP2 SWAP1 PUSH2 0x20A7 JUMP JUMPDEST DUP2 PUSH1 0x2 SLOAD PUSH2 0x854 SWAP2 SWAP1 PUSH2 0x1E6E JUMP JUMPDEST PUSH2 0x85E SWAP2 SWAP1 PUSH2 0x1F5C JUMP JUMPDEST SWAP2 POP POP SWAP2 SWAP1 POP JUMP JUMPDEST PUSH1 0x2 SLOAD DUP2 JUMP JUMPDEST PUSH1 0x0 DUP4 CALLVALUE EQ PUSH2 0x8B0 JUMPI PUSH1 0x40 MLOAD PUSH32 0x8C379A000000000000000000000000000000000000000000000000000000000 DUP2 MSTORE PUSH1 0x4 ADD PUSH2 0x8A7 SWAP1 PUSH2 0x2127 JUMP JUMPDEST PUSH1 0x40 MLOAD DUP1 SWAP2 SUB SWAP1 REVERT JUMPDEST PUSH1 0x0 PUSH2 0x3E8 PUSH2 0x3E5 DUP7 PUSH2 0x8C3 SWAP2 SWAP1 PUSH2 0x1E6E JUMP JUMPDEST PUSH2 0x8CD SWAP2 SWAP1 PUSH2 0x1F5C JUMP JUMPDEST SWAP1 POP DUP1 PUSH1 0x1 SLOAD PUSH2 0x8DD SWAP2 SWAP1 PUSH2 0x20A7 JUMP JUMPDEST DUP2 PUSH1 0x2 SLOAD PUSH2 0x8EB SWAP2 SWAP1 PUSH2 0x1E6E JUMP JUMPDEST PUSH2 0x8F5 SWAP2 SWAP1 PUSH2 0x1F5C JUMP JUMPDEST SWAP2 POP PUSH1 0x0 DUP3 GT PUSH2 0x93A JUMPI PUSH1 0x40 MLOAD PUSH32 0x8C379A000000000000000000000000000000000000000000000000000000000 DUP2 MSTORE PUSH1 0x4 ADD PUSH2 0x931 SWAP1 PUSH2 0x2193 JUMP JUMPDEST PUSH1 0x40 MLOAD DUP1 SWAP2 SUB SWAP1 REVERT JUMPDEST PUSH2 0x3E8 DUP4 PUSH2 0x3E8 PUSH2 0x94B SWAP2 SWAP1 PUSH2 0x21B3 JUMP JUMPDEST DUP6 PUSH2 0x956 SWAP2 SWAP1 PUSH2 0x1E6E JUMP JUMPDEST PUSH2 0x960 SWAP2 SWAP1 PUSH2 0x1F5C JUMP JUMPDEST DUP3 LT ISZERO PUSH2 0x9A2 JUMPI PUSH1 0x40 MLOAD PUSH32 0x8C379A000000000000000000000000000000000000000000000000000000000 DUP2 MSTORE PUSH1 0x4 ADD PUSH2 0x999 SWAP1 PUSH2 0x2233 JUMP JUMPDEST PUSH1 0x40 MLOAD DUP1 SWAP2 SUB SWAP1 REVERT JUMPDEST PUSH1 0x0 PUSH1 0x1 SLOAD PUSH1 0x3 SLOAD PUSH1 0x1 DUP6 DUP10 PUSH2 0x9B8 SWAP2 SWAP1 PUSH2 0x21B3 JUMP JUMPDEST SWAP1 SHR PUSH2 0x9C4 SWAP2 SWAP1 PUSH2 0x1E6E JUMP JUMPDEST PUSH2 0x9CE SWAP2 SWAP1 PUSH2 0x1F5C JUMP JUMPDEST SWAP1 POP PUSH2 0x9FA PUSH1 0x0 DUP1 SLOAD SWAP1 PUSH2 0x100 EXP SWAP1 DIV PUSH20 0xFFFFFFFFFFFFFFFFFFFFFFFFFFFFFFFFFFFFFFFF AND DUP3 PUSH2 0x17F2 JUMP JUMPDEST PUSH32 0x0 PUSH20 0xFFFFFFFFFFFFFFFFFFFFFFFFFFFFFFFFFFFFFFFF AND PUSH4 0xA9059CBB CALLER DUP6 PUSH1 0x40 MLOAD DUP4 PUSH4 0xFFFFFFFF AND PUSH1 0xE0 SHL DUP2 MSTORE PUSH1 0x4 ADD PUSH2 0xA55 SWAP3 SWAP2 SWAP1 PUSH2 0x2253 JUMP JUMPDEST PUSH1 0x20 PUSH1 0x40 MLOAD DUP1 DUP4 SUB DUP2 PUSH1 0x0 DUP8 GAS CALL ISZERO DUP1 ISZERO PUSH2 0xA74 JUMPI RETURNDATASIZE PUSH1 0x0 DUP1 RETURNDATACOPY RETURNDATASIZE PUSH1 0x0 REVERT JUMPDEST POP POP POP POP PUSH1 0x40 MLOAD RETURNDATASIZE PUSH1 0x1F NOT PUSH1 0x1F DUP3 ADD AND DUP3 ADD DUP1 PUSH1 0x40 MSTORE POP DUP2 ADD SWAP1 PUSH2 0xA98 SWAP2 SWAP1 PUSH2 0x1E12 JUMP JUMPDEST POP PUSH2 0xB3C SELFBALANCE PUSH32 0x0 PUSH20 0xFFFFFFFFFFFFFFFFFFFFFFFFFFFFFFFFFFFFFFFF AND PUSH4 0x70A08231 ADDRESS PUSH1 0x40 MLOAD DUP3 PUSH4 0xFFFFFFFF AND PUSH1 0xE0 SHL DUP2 MSTORE PUSH1 0x4 ADD PUSH2 0xAF6 SWAP2 SWAP1 PUSH2 0x1D0E JUMP JUMPDEST PUSH1 0x20 PUSH1 0x40 MLOAD DUP1 DUP4 SUB DUP2 DUP7 GAS STATICCALL ISZERO DUP1 ISZERO PUSH2 0xB13 JUMPI RETURNDATASIZE PUSH1 0x0 DUP1 RETURNDATACOPY RETURNDATASIZE PUSH1 0x0 REVERT JUMPDEST POP POP POP POP PUSH1 0x40 MLOAD RETURNDATASIZE PUSH1 0x1F NOT PUSH1 0x1F DUP3 ADD AND DUP3 ADD DUP1 PUSH1 0x40 MSTORE POP DUP2 ADD SWAP1 PUSH2 0xB37 SWAP2 SWAP1 PUSH2 0x200E JUMP JUMPDEST PUSH2 0x1865 JUMP JUMPDEST POP POP SWAP4 SWAP3 POP POP POP JUMP JUMPDEST PUSH1 0x0 PUSH1 0x4 PUSH1 0x0 CALLER PUSH20 0xFFFFFFFFFFFFFFFFFFFFFFFFFFFFFFFFFFFFFFFF AND PUSH20 0xFFFFFFFFFFFFFFFFFFFFFFFFFFFFFFFFFFFFFFFF AND DUP2 MSTORE PUSH1 0x20 ADD SWAP1 DUP2 MSTORE PUSH1 0x20 ADD PUSH1 0x0 KECCAK256 SLOAD SWAP1 POP SWAP1 JUMP JUMPDEST PUSH1 0x0 DUP1 PUSH2 0x3E8 PUSH2 0x3E5 DUP5 PUSH2 0xBA0 SWAP2 SWAP1 PUSH2 0x1E6E JUMP JUMPDEST PUSH2 0xBAA SWAP2 SWAP1 PUSH2 0x1F5C JUMP JUMPDEST SWAP1 POP DUP1 PUSH1 0x2 SLOAD PUSH2 0xBBA SWAP2 SWAP1 PUSH2 0x20A7 JUMP JUMPDEST DUP2 PUSH1 0x1 SLOAD PUSH2 0xBC8 SWAP2 SWAP1 PUSH2 0x1E6E JUMP JUMPDEST PUSH2 0xBD2 SWAP2 SWAP1 PUSH2 0x1F5C JUMP JUMPDEST SWAP2 POP PUSH1 0x0 DUP3 GT PUSH2 0xC17 JUMPI PUSH1 0x40 MLOAD PUSH32 0x8C379A000000000000000000000000000000000000000000000000000000000 DUP2 MSTORE PUSH1 0x4 ADD PUSH2 0xC0E SWAP1 PUSH2 0x2193 JUMP JUMPDEST PUSH1 0x40 MLOAD DUP1 SWAP2 SUB SWAP1 REVERT JUMPDEST PUSH1 0x0 PUSH1 0x2 SLOAD PUSH1 0x3 SLOAD PUSH1 0x1 DUP6 DUP8 PUSH2 0xC2D SWAP2 SWAP1 PUSH2 0x21B3 JUMP JUMPDEST SWAP1 SHR PUSH2 0xC39 SWAP2 SWAP1 PUSH2 0x1E6E JUMP JUMPDEST PUSH2 0xC43 SWAP2 SWAP1 PUSH2 0x1F5C JUMP JUMPDEST SWAP1 POP PUSH2 0xC6F PUSH1 0x0 DUP1 SLOAD SWAP1 PUSH2 0x100 EXP SWAP1 DIV PUSH20 0xFFFFFFFFFFFFFFFFFFFFFFFFFFFFFFFFFFFFFFFF AND DUP3 PUSH2 0x17F2 JUMP JUMPDEST PUSH32 0x0 PUSH20 0xFFFFFFFFFFFFFFFFFFFFFFFFFFFFFFFFFFFFFFFF AND PUSH4 0x23B872DD CALLER ADDRESS DUP8 PUSH1 0x40 MLOAD DUP5 PUSH4 0xFFFFFFFF AND PUSH1 0xE0 SHL DUP2 MSTORE PUSH1 0x4 ADD PUSH2 0xCCC SWAP4 SWAP3 SWAP2 SWAP1 PUSH2 0x1DA3 JUMP JUMPDEST PUSH1 0x20 PUSH1 0x40 MLOAD DUP1 DUP4 SUB DUP2 PUSH1 0x0 DUP8 GAS CALL ISZERO DUP1 ISZERO PUSH2 0xCEB JUMPI RETURNDATASIZE PUSH1 0x0 DUP1 RETURNDATACOPY RETURNDATASIZE PUSH1 0x0 REVERT JUMPDEST POP POP POP POP PUSH1 0x40 MLOAD RETURNDATASIZE PUSH1 0x1F NOT PUSH1 0x1F DUP3 ADD AND DUP3 ADD DUP1 PUSH1 0x40 MSTORE POP DUP2 ADD SWAP1 PUSH2 0xD0F SWAP2 SWAP1 PUSH2 0x1E12 JUMP JUMPDEST POP CALLER PUSH20 0xFFFFFFFFFFFFFFFFFFFFFFFFFFFFFFFFFFFFFFFF AND PUSH2 0x8FC DUP5 SWAP1 DUP2 ISZERO MUL SWAP1 PUSH1 0x40 MLOAD PUSH1 0x0 PUSH1 0x40 MLOAD DUP1 DUP4 SUB DUP2 DUP6 DUP9 DUP9 CALL SWAP4 POP POP POP POP ISZERO DUP1 ISZERO PUSH2 0xD56 JUMPI RETURNDATASIZE PUSH1 0x0 DUP1 RETURNDATACOPY RETURNDATASIZE PUSH1 0x0 REVERT JUMPDEST POP PUSH2 0xDFA SELFBALANCE PUSH32 0x0 PUSH20 0xFFFFFFFFFFFFFFFFFFFFFFFFFFFFFFFFFFFFFFFF AND PUSH4 0x70A08231 ADDRESS PUSH1 0x40 MLOAD DUP3 PUSH4 0xFFFFFFFF AND PUSH1 0xE0 SHL DUP2 MSTORE PUSH1 0x4 ADD PUSH2 0xDB4 SWAP2 SWAP1 PUSH2 0x1D0E JUMP JUMPDEST PUSH1 0x20 PUSH1 0x40 MLOAD DUP1 DUP4 SUB DUP2 DUP7 GAS STATICCALL ISZERO DUP1 ISZERO PUSH2 0xDD1 JUMPI RETURNDATASIZE PUSH1 0x0 DUP1 RETURNDATACOPY RETURNDATASIZE PUSH1 0x0 REVERT JUMPDEST POP POP POP POP PUSH1 0x40 MLOAD RETURNDATASIZE PUSH1 0x1F NOT PUSH1 0x1F DUP3 ADD AND DUP3 ADD DUP1 PUSH1 0x40 MSTORE POP DUP2 ADD SWAP1 PUSH2 0xDF5 SWAP2 SWAP1 PUSH2 0x200E JUMP JUMPDEST PUSH2 0x1865 JUMP JUMPDEST POP POP SWAP2 SWAP1 POP JUMP JUMPDEST PUSH1 0x4 PUSH1 0x20 MSTORE DUP1 PUSH1 0x0 MSTORE PUSH1 0x40 PUSH1 0x0 KECCAK256 PUSH1 0x0 SWAP2 POP SWAP1 POP SLOAD DUP2 JUMP JUMPDEST PUSH1 0x0 DUP1 PUSH2 0xE65 DUP4 PUSH1 0x4 PUSH1 0x0 DUP7 PUSH20 0xFFFFFFFFFFFFFFFFFFFFFFFFFFFFFFFFFFFFFFFF AND PUSH20 0xFFFFFFFFFFFFFFFFFFFFFFFFFFFFFFFFFFFFFFFF AND DUP2 MSTORE PUSH1 0x20 ADD SWAP1 DUP2 MSTORE PUSH1 0x20 ADD PUSH1 0x0 KECCAK256 SLOAD PUSH2 0x1877 JUMP JUMPDEST SWAP2 POP SWAP2 POP SWAP2 POP SWAP2 JUMP JUMPDEST PUSH1 0x0 DUP2 CALLVALUE EQ PUSH2 0xEB2 JUMPI PUSH1 0x40 MLOAD PUSH32 0x8C379A000000000000000000000000000000000000000000000000000000000 DUP2 MSTORE PUSH1 0x4 ADD PUSH2 0xEA9 SWAP1 PUSH2 0x2127 JUMP JUMPDEST PUSH1 0x40 MLOAD DUP1 SWAP2 SUB SWAP1 REVERT JUMPDEST PUSH1 0x0 PUSH2 0x3E8 PUSH2 0x3E5 DUP5 PUSH2 0xEC5 SWAP2 SWAP1 PUSH2 0x1E6E JUMP JUMPDEST PUSH2 0xECF SWAP2 SWAP1 PUSH2 0x1F5C JUMP JUMPDEST SWAP1 POP DUP1 PUSH1 0x1 SLOAD PUSH2 0xEDF SWAP2 SWAP1 PUSH2 0x20A7 JUMP JUMPDEST DUP2 PUSH1 0x2 SLOAD PUSH2 0xEED SWAP2 SWAP1 PUSH2 0x1E6E JUMP JUMPDEST PUSH2 0xEF7 SWAP2 SWAP1 PUSH2 0x1F5C JUMP JUMPDEST SWAP2 POP PUSH1 0x0 PUSH1 0x2 PUSH1 0x1 SLOAD PUSH2 0xF0A SWAP2 SWAP1 PUSH2 0x1E6E JUMP JUMPDEST PUSH1 0x3 SLOAD DUP5 DUP7 PUSH2 0xF19 SWAP2 SWAP1 PUSH2 0x21B3 JUMP JUMPDEST PUSH2 0xF23 SWAP2 SWAP1 PUSH2 0x1E6E JUMP JUMPDEST PUSH2 0xF2D SWAP2 SWAP1 PUSH2 0x1F5C JUMP JUMPDEST SWAP1 POP PUSH2 0xF59 PUSH1 0x0 DUP1 SLOAD SWAP1 PUSH2 0x100 EXP SWAP1 DIV PUSH20 0xFFFFFFFFFFFFFFFFFFFFFFFFFFFFFFFFFFFFFFFF AND DUP3 PUSH2 0x17F2 JUMP JUMPDEST PUSH32 0x0 PUSH20 0xFFFFFFFFFFFFFFFFFFFFFFFFFFFFFFFFFFFFFFFF AND PUSH4 0xA9059CBB CALLER DUP6 PUSH1 0x40 MLOAD DUP4 PUSH4 0xFFFFFFFF AND PUSH1 0xE0 SHL DUP2 MSTORE PUSH1 0x4 ADD PUSH2 0xFB4 SWAP3 SWAP2 SWAP1 PUSH2 0x2253 JUMP JUMPDEST PUSH1 0x20 PUSH1 0x40 MLOAD DUP1 DUP4 SUB DUP2 PUSH1 0x0 DUP8 GAS CALL ISZERO DUP1 ISZERO PUSH2 0xFD3 JUMPI RETURNDATASIZE PUSH1 0x0 DUP1 RETURNDATACOPY RETURNDATASIZE PUSH1 0x0 REVERT JUMPDEST POP POP POP POP PUSH1 0x40 MLOAD RETURNDATASIZE PUSH1 0x1F NOT PUSH1 0x1F DUP3 ADD AND DUP3 ADD DUP1 PUSH1 0x40 MSTORE POP DUP2 ADD SWAP1 PUSH2 0xFF7 SWAP2 SWAP1 PUSH2 0x1E12 JUMP JUMPDEST POP PUSH2 0x109B SELFBALANCE PUSH32 0x0 PUSH20 0xFFFFFFFFFFFFFFFFFFFFFFFFFFFFFFFFFFFFFFFF AND PUSH4 0x70A08231 ADDRESS PUSH1 0x40 MLOAD DUP3 PUSH4 0xFFFFFFFF AND PUSH1 0xE0 SHL DUP2 MSTORE PUSH1 0x4 ADD PUSH2 0x1055 SWAP2 SWAP1 PUSH2 0x1D0E JUMP JUMPDEST PUSH1 0x20 PUSH1 0x40 MLOAD DUP1 DUP4 SUB DUP2 DUP7 GAS STATICCALL ISZERO DUP1 ISZERO PUSH2 0x1072 JUMPI RETURNDATASIZE PUSH1 0x0 DUP1 RETURNDATACOPY RETURNDATASIZE PUSH1 0x0 REVERT JUMPDEST POP POP POP POP PUSH1 0x40 MLOAD RETURNDATASIZE PUSH1 0x1F NOT PUSH1 0x1F DUP3 ADD AND DUP3 ADD DUP1 PUSH1 0x40 MSTORE POP DUP2 ADD SWAP1 PUSH2 0x1096 SWAP2 SWAP1 PUSH2 0x200E JUMP JUMPDEST PUSH2 0x1865 JUMP JUMPDEST POP POP SWAP2 SWAP1 POP JUMP JUMPDEST PUSH1 0x0 DUP1 PUSH1 0x4 PUSH1 0x0 CALLER PUSH20 0xFFFFFFFFFFFFFFFFFFFFFFFFFFFFFFFFFFFFFFFF AND PUSH20 0xFFFFFFFFFFFFFFFFFFFFFFFFFFFFFFFFFFFFFFFF AND DUP2 MSTORE PUSH1 0x20 ADD SWAP1 DUP2 MSTORE PUSH1 0x20 ADD PUSH1 0x0 KECCAK256 SLOAD DUP4 GT ISZERO PUSH2 0x1127 JUMPI PUSH1 0x40 MLOAD PUSH32 0x8C379A000000000000000000000000000000000000000000000000000000000 DUP2 MSTORE PUSH1 0x4 ADD PUSH2 0x111E SWAP1 PUSH2 0x22C8 JUMP JUMPDEST PUSH1 0x40 MLOAD DUP1 SWAP2 SUB SWAP1 REVERT JUMPDEST PUSH2 0x1131 CALLER DUP5 PUSH2 0x1877 JUMP JUMPDEST SWAP2 POP SWAP2 POP SWAP2 POP SWAP2 JUMP JUMPDEST PUSH1 0x0 DUP1 PUSH1 0x4 PUSH1 0x0 DUP6 PUSH20 0xFFFFFFFFFFFFFFFFFFFFFFFFFFFFFFFFFFFFFFFF AND PUSH20 0xFFFFFFFFFFFFFFFFFFFFFFFFFFFFFFFFFFFFFFFF AND DUP2 MSTORE PUSH1 0x20 ADD SWAP1 DUP2 MSTORE PUSH1 0x20 ADD PUSH1 0x0 KECCAK256 SLOAD DUP4 GT ISZERO PUSH2 0x11BF JUMPI PUSH1 0x40 MLOAD PUSH32 0x8C379A000000000000000000000000000000000000000000000000000000000 DUP2 MSTORE PUSH1 0x4 ADD PUSH2 0x11B6 SWAP1 PUSH2 0x22C8 JUMP JUMPDEST PUSH1 0x40 MLOAD DUP1 SWAP2 SUB SWAP1 REVERT JUMPDEST PUSH2 0x11C9 DUP5 DUP5 PUSH2 0x1877 JUMP JUMPDEST SWAP2 POP SWAP2 POP SWAP3 POP SWAP3 SWAP1 POP JUMP JUMPDEST PUSH1 0x0 DUP1 PUSH1 0x1 SLOAD GT DUP1 ISZERO PUSH2 0x11E9 JUMPI POP PUSH1 0x0 PUSH1 0x2 SLOAD GT JUMPDEST PUSH2 0x1228 JUMPI PUSH1 0x40 MLOAD PUSH32 0x8C379A000000000000000000000000000000000000000000000000000000000 DUP2 MSTORE PUSH1 0x4 ADD PUSH2 0x121F SWAP1 PUSH2 0x2334 JUMP JUMPDEST PUSH1 0x40 MLOAD DUP1 SWAP2 SUB SWAP1 REVERT JUMPDEST PUSH1 0x1 SLOAD PUSH8 0xDE0B6B3A7640000 PUSH1 0x2 SLOAD PUSH2 0x1241 SWAP2 SWAP1 PUSH2 0x1E6E JUMP JUMPDEST PUSH2 0x124B SWAP2 SWAP1 PUSH2 0x1F5C JUMP JUMPDEST SWAP1 POP SWAP1 JUMP JUMPDEST PUSH1 0x0 DUP2 JUMP JUMPDEST PUSH1 0x0 DUP1 PUSH2 0x3E8 PUSH2 0x3E5 DUP7 PUSH2 0x1269 SWAP2 SWAP1 PUSH2 0x1E6E JUMP JUMPDEST PUSH2 0x1273 SWAP2 SWAP1 PUSH2 0x1F5C JUMP JUMPDEST SWAP1 POP DUP1 PUSH1 0x2 SLOAD PUSH2 0x1283 SWAP2 SWAP1 PUSH2 0x20A7 JUMP JUMPDEST DUP2 PUSH1 0x1 SLOAD PUSH2 0x1291 SWAP2 SWAP1 PUSH2 0x1E6E JUMP JUMPDEST PUSH2 0x129B SWAP2 SWAP1 PUSH2 0x1F5C JUMP JUMPDEST SWAP2 POP PUSH1 0x0 DUP3 GT PUSH2 0x12E0 JUMPI PUSH1 0x40 MLOAD PUSH32 0x8C379A000000000000000000000000000000000000000000000000000000000 DUP2 MSTORE PUSH1 0x4 ADD PUSH2 0x12D7 SWAP1 PUSH2 0x2193 JUMP JUMPDEST PUSH1 0x40 MLOAD DUP1 SWAP2 SUB SWAP1 REVERT JUMPDEST PUSH2 0x3E8 DUP4 PUSH2 0x3E8 PUSH2 0x12F1 SWAP2 SWAP1 PUSH2 0x21B3 JUMP JUMPDEST DUP6 PUSH2 0x12FC SWAP2 SWAP1 PUSH2 0x1E6E JUMP JUMPDEST PUSH2 0x1306 SWAP2 SWAP1 PUSH2 0x1F5C JUMP JUMPDEST DUP3 LT ISZERO PUSH2 0x1348 JUMPI PUSH1 0x40 MLOAD PUSH32 0x8C379A000000000000000000000000000000000000000000000000000000000 DUP2 MSTORE PUSH1 0x4 ADD PUSH2 0x133F SWAP1 PUSH2 0x2233 JUMP JUMPDEST PUSH1 0x40 MLOAD DUP1 SWAP2 SUB SWAP1 REVERT JUMPDEST PUSH2 0x139B PUSH1 0x0 DUP1 SLOAD SWAP1 PUSH2 0x100 EXP SWAP1 DIV PUSH20 0xFFFFFFFFFFFFFFFFFFFFFFFFFFFFFFFFFFFFFFFF AND PUSH1 0x2 SLOAD PUSH1 0x3 SLOAD PUSH1 0x1 DUP7 DUP11 PUSH2 0x1380 SWAP2 SWAP1 PUSH2 0x21B3 JUMP JUMPDEST SWAP1 SHR PUSH2 0x138C SWAP2 SWAP1 PUSH2 0x1E6E JUMP JUMPDEST PUSH2 0x1396 SWAP2 SWAP1 PUSH2 0x1F5C JUMP JUMPDEST PUSH2 0x17F2 JUMP JUMPDEST PUSH32 0x0 PUSH20 0xFFFFFFFFFFFFFFFFFFFFFFFFFFFFFFFFFFFFFFFF AND PUSH4 0x23B872DD CALLER ADDRESS DUP9 PUSH1 0x40 MLOAD DUP5 PUSH4 0xFFFFFFFF AND PUSH1 0xE0 SHL DUP2 MSTORE PUSH1 0x4 ADD PUSH2 0x13F8 SWAP4 SWAP3 SWAP2 SWAP1 PUSH2 0x1DA3 JUMP JUMPDEST PUSH1 0x20 PUSH1 0x40 MLOAD DUP1 DUP4 SUB DUP2 PUSH1 0x0 DUP8 GAS CALL ISZERO DUP1 ISZERO PUSH2 0x1417 JUMPI RETURNDATASIZE PUSH1 0x0 DUP1 RETURNDATACOPY RETURNDATASIZE PUSH1 0x0 REVERT JUMPDEST POP POP POP POP PUSH1 0x40 MLOAD RETURNDATASIZE PUSH1 0x1F NOT PUSH1 0x1F DUP3 ADD AND DUP3 ADD DUP1 PUSH1 0x40 MSTORE POP DUP2 ADD SWAP1 PUSH2 0x143B SWAP2 SWAP1 PUSH2 0x1E12 JUMP JUMPDEST POP CALLER PUSH20 0xFFFFFFFFFFFFFFFFFFFFFFFFFFFFFFFFFFFFFFFF AND PUSH2 0x8FC DUP4 SWAP1 DUP2 ISZERO MUL SWAP1 PUSH1 0x40 MLOAD PUSH1 0x0 PUSH1 0x40 MLOAD DUP1 DUP4 SUB DUP2 DUP6 DUP9 DUP9 CALL SWAP4 POP POP POP POP ISZERO DUP1 ISZERO PUSH2 0x1482 JUMPI RETURNDATASIZE PUSH1 0x0 DUP1 RETURNDATACOPY RETURNDATASIZE PUSH1 0x0 REVERT JUMPDEST POP PUSH2 0x1526 SELFBALANCE PUSH32 0x0 PUSH20 0xFFFFFFFFFFFFFFFFFFFFFFFFFFFFFFFFFFFFFFFF AND PUSH4 0x70A08231 ADDRESS PUSH1 0x40 MLOAD DUP3 PUSH4 0xFFFFFFFF AND PUSH1 0xE0 SHL DUP2 MSTORE PUSH1 0x4 ADD PUSH2 0x14E0 SWAP2 SWAP1 PUSH2 0x1D0E JUMP JUMPDEST PUSH1 0x20 PUSH1 0x40 MLOAD DUP1 DUP4 SUB DUP2 DUP7 GAS STATICCALL ISZERO DUP1 ISZERO PUSH2 0x14FD JUMPI RETURNDATASIZE PUSH1 0x0 DUP1 RETURNDATACOPY RETURNDATASIZE PUSH1 0x0 REVERT JUMPDEST POP POP POP POP PUSH1 0x40 MLOAD RETURNDATASIZE PUSH1 0x1F NOT PUSH1 0x1F DUP3 ADD AND DUP3 ADD DUP1 PUSH1 0x40 MSTORE POP DUP2 ADD SWAP1 PUSH2 0x1521 SWAP2 SWAP1 PUSH2 0x200E JUMP JUMPDEST PUSH2 0x1865 JUMP JUMPDEST POP SWAP4 SWAP3 POP POP POP JUMP JUMPDEST PUSH1 0x0 DUP1 PUSH1 0x1 SLOAD GT DUP1 ISZERO PUSH2 0x1543 JUMPI POP PUSH1 0x0 PUSH1 0x2 SLOAD GT JUMPDEST DUP1 ISZERO PUSH2 0x154F JUMPI POP PUSH1 0x0 DUP3 GT JUMPDEST PUSH2 0x158E JUMPI PUSH1 0x40 MLOAD PUSH32 0x8C379A000000000000000000000000000000000000000000000000000000000 DUP2 MSTORE PUSH1 0x4 ADD PUSH2 0x1585 SWAP1 PUSH2 0x2334 JUMP JUMPDEST PUSH1 0x40 MLOAD DUP1 SWAP2 SUB SWAP1 REVERT JUMPDEST PUSH1 0x0 PUSH2 0x3E8 PUSH2 0x3E5 DUP5 PUSH2 0x15A1 SWAP2 SWAP1 PUSH2 0x1E6E JUMP JUMPDEST PUSH2 0x15AB SWAP2 SWAP1 PUSH2 0x1F5C JUMP JUMPDEST SWAP1 POP DUP1 PUSH1 0x2 SLOAD PUSH2 0x15BB SWAP2 SWAP1 PUSH2 0x20A7 JUMP JUMPDEST DUP2 PUSH1 0x1 SLOAD PUSH2 0x15C9 SWAP2 SWAP1 PUSH2 0x1E6E JUMP JUMPDEST PUSH2 0x15D3 SWAP2 SWAP1 PUSH2 0x1F5C JUMP JUMPDEST SWAP2 POP POP SWAP2 SWAP1 POP JUMP JUMPDEST PUSH1 0x0 PUSH1 0x4 PUSH1 0x0 DUP4 PUSH20 0xFFFFFFFFFFFFFFFFFFFFFFFFFFFFFFFFFFFFFFFF AND PUSH20 0xFFFFFFFFFFFFFFFFFFFFFFFFFFFFFFFFFFFFFFFF AND DUP2 MSTORE PUSH1 0x20 ADD SWAP1 DUP2 MSTORE PUSH1 0x20 ADD PUSH1 0x0 KECCAK256 SLOAD SWAP1 POP SWAP2 SWAP1 POP JUMP JUMPDEST PUSH32 0x0 DUP2 JUMP JUMPDEST PUSH1 0x0 DUP1 PUSH1 0x1 SLOAD GT DUP1 ISZERO PUSH2 0x165D JUMPI POP PUSH1 0x0 PUSH1 0x2 SLOAD GT JUMPDEST PUSH2 0x169C JUMPI PUSH1 0x40 MLOAD PUSH32 0x8C379A000000000000000000000000000000000000000000000000000000000 DUP2 MSTORE PUSH1 0x4 ADD PUSH2 0x1693 SWAP1 PUSH2 0x2087 JUMP JUMPDEST PUSH1 0x40 MLOAD DUP1 SWAP2 SUB SWAP1 REVERT JUMPDEST PUSH1 0x0 PUSH32 0x0 PUSH20 0xFFFFFFFFFFFFFFFFFFFFFFFFFFFFFFFFFFFFFFFF AND PUSH4 0x313CE567 PUSH1 0x40 MLOAD DUP2 PUSH4 0xFFFFFFFF AND PUSH1 0xE0 SHL DUP2 MSTORE PUSH1 0x4 ADD PUSH1 0x20 PUSH1 0x40 MLOAD DUP1 DUP4 SUB DUP2 DUP7 GAS STATICCALL ISZERO DUP1 ISZERO PUSH2 0x1709 JUMPI RETURNDATASIZE PUSH1 0x0 DUP1 RETURNDATACOPY RETURNDATASIZE PUSH1 0x0 REVERT JUMPDEST POP POP POP POP PUSH1 0x40 MLOAD RETURNDATASIZE PUSH1 0x1F NOT PUSH1 0x1F DUP3 ADD AND DUP3 ADD DUP1 PUSH1 0x40 MSTORE POP DUP2 ADD SWAP1 PUSH2 0x172D SWAP2 SWAP1 PUSH2 0x238D JUMP JUMPDEST PUSH1 0xFF AND SWAP1 POP PUSH1 0x2 SLOAD DUP2 PUSH1 0xA PUSH2 0x1742 SWAP2 SWAP1 PUSH2 0x24ED JUMP JUMPDEST PUSH1 0x1 SLOAD PUSH2 0x174F SWAP2 SWAP1 PUSH2 0x1E6E JUMP JUMPDEST PUSH2 0x1759 SWAP2 SWAP1 PUSH2 0x1F5C JUMP JUMPDEST SWAP2 POP POP SWAP1 JUMP JUMPDEST PUSH1 0x0 PUSH1 0x3 DUP3 GT ISZERO PUSH2 0x17C6 JUMPI DUP2 SWAP1 POP PUSH1 0x0 PUSH1 0x1 PUSH1 0x2 DUP5 PUSH2 0x177E SWAP2 SWAP1 PUSH2 0x1F5C JUMP JUMPDEST PUSH2 0x1788 SWAP2 SWAP1 PUSH2 0x20A7 JUMP JUMPDEST SWAP1 POP JUMPDEST DUP2 DUP2 LT ISZERO PUSH2 0x17C0 JUMPI DUP1 SWAP2 POP PUSH1 0x2 DUP2 DUP3 DUP6 PUSH2 0x17A5 SWAP2 SWAP1 PUSH2 0x1F5C JUMP JUMPDEST PUSH2 0x17AF SWAP2 SWAP1 PUSH2 0x20A7 JUMP JUMPDEST PUSH2 0x17B9 SWAP2 SWAP1 PUSH2 0x1F5C JUMP JUMPDEST SWAP1 POP PUSH2 0x178B JUMP JUMPDEST POP PUSH2 0x17D4 JUMP JUMPDEST PUSH1 0x0 DUP3 EQ PUSH2 0x17D3 JUMPI PUSH1 0x1 SWAP1 POP JUMPDEST JUMPDEST SWAP2 SWAP1 POP JUMP JUMPDEST PUSH1 0x0 DUP2 DUP4 LT PUSH2 0x17E8 JUMPI DUP2 PUSH2 0x17EA JUMP JUMPDEST DUP3 JUMPDEST SWAP1 POP SWAP3 SWAP2 POP POP JUMP JUMPDEST DUP1 PUSH1 0x4 PUSH1 0x0 DUP5 PUSH20 0xFFFFFFFFFFFFFFFFFFFFFFFFFFFFFFFFFFFFFFFF AND PUSH20 0xFFFFFFFFFFFFFFFFFFFFFFFFFFFFFFFFFFFFFFFF AND DUP2 MSTORE PUSH1 0x20 ADD SWAP1 DUP2 MSTORE PUSH1 0x20 ADD PUSH1 0x0 KECCAK256 PUSH1 0x0 DUP3 DUP3 SLOAD PUSH2 0x1841 SWAP2 SWAP1 PUSH2 0x20A7 JUMP JUMPDEST SWAP3 POP POP DUP2 SWAP1 SSTORE POP DUP1 PUSH1 0x3 PUSH1 0x0 DUP3 DUP3 SLOAD PUSH2 0x185A SWAP2 SWAP1 PUSH2 0x20A7 JUMP JUMPDEST SWAP3 POP POP DUP2 SWAP1 SSTORE POP POP POP JUMP JUMPDEST DUP2 PUSH1 0x1 DUP2 SWAP1 SSTORE POP DUP1 PUSH1 0x2 DUP2 SWAP1 SSTORE POP POP POP JUMP JUMPDEST PUSH1 0x0 DUP1 PUSH1 0x3 SLOAD PUSH1 0x1 SLOAD DUP5 PUSH2 0x188B SWAP2 SWAP1 PUSH2 0x1E6E JUMP JUMPDEST PUSH2 0x1895 SWAP2 SWAP1 PUSH2 0x1F5C JUMP JUMPDEST SWAP2 POP PUSH1 0x3 SLOAD PUSH1 0x2 SLOAD DUP5 PUSH2 0x18A8 SWAP2 SWAP1 PUSH2 0x1E6E JUMP JUMPDEST PUSH2 0x18B2 SWAP2 SWAP1 PUSH2 0x1F5C JUMP JUMPDEST SWAP1 POP PUSH1 0x0 DUP3 GT DUP1 ISZERO PUSH2 0x18C4 JUMPI POP PUSH1 0x0 DUP2 GT JUMPDEST PUSH2 0x1903 JUMPI PUSH1 0x40 MLOAD PUSH32 0x8C379A000000000000000000000000000000000000000000000000000000000 DUP2 MSTORE PUSH1 0x4 ADD PUSH2 0x18FA SWAP1 PUSH2 0x2584 JUMP JUMPDEST PUSH1 0x40 MLOAD DUP1 SWAP2 SUB SWAP1 REVERT JUMPDEST PUSH2 0x190D DUP5 DUP5 PUSH2 0x1AB3 JUMP JUMPDEST PUSH2 0x19C6 DUP3 SELFBALANCE PUSH2 0x191C SWAP2 SWAP1 PUSH2 0x21B3 JUMP JUMPDEST DUP3 PUSH32 0x0 PUSH20 0xFFFFFFFFFFFFFFFFFFFFFFFFFFFFFFFFFFFFFFFF AND PUSH4 0x70A08231 ADDRESS PUSH1 0x40 MLOAD DUP3 PUSH4 0xFFFFFFFF AND PUSH1 0xE0 SHL DUP2 MSTORE PUSH1 0x4 ADD PUSH2 0x1976 SWAP2 SWAP1 PUSH2 0x1D0E JUMP JUMPDEST PUSH1 0x20 PUSH1 0x40 MLOAD DUP1 DUP4 SUB DUP2 DUP7 GAS STATICCALL ISZERO DUP1 ISZERO PUSH2 0x1993 JUMPI RETURNDATASIZE PUSH1 0x0 DUP1 RETURNDATACOPY RETURNDATASIZE PUSH1 0x0 REVERT JUMPDEST POP POP POP POP PUSH1 0x40 MLOAD RETURNDATASIZE PUSH1 0x1F NOT PUSH1 0x1F DUP3 ADD AND DUP3 ADD DUP1 PUSH1 0x40 MSTORE POP DUP2 ADD SWAP1 PUSH2 0x19B7 SWAP2 SWAP1 PUSH2 0x200E JUMP JUMPDEST PUSH2 0x19C1 SWAP2 SWAP1 PUSH2 0x21B3 JUMP JUMPDEST PUSH2 0x1865 JUMP JUMPDEST DUP4 PUSH20 0xFFFFFFFFFFFFFFFFFFFFFFFFFFFFFFFFFFFFFFFF AND PUSH2 0x8FC DUP4 SWAP1 DUP2 ISZERO MUL SWAP1 PUSH1 0x40 MLOAD PUSH1 0x0 PUSH1 0x40 MLOAD DUP1 DUP4 SUB DUP2 DUP6 DUP9 DUP9 CALL SWAP4 POP POP POP POP ISZERO DUP1 ISZERO PUSH2 0x1A0C JUMPI RETURNDATASIZE PUSH1 0x0 DUP1 RETURNDATACOPY RETURNDATASIZE PUSH1 0x0 REVERT JUMPDEST POP PUSH32 0x0 PUSH20 0xFFFFFFFFFFFFFFFFFFFFFFFFFFFFFFFFFFFFFFFF AND PUSH4 0xA9059CBB DUP6 DUP4 PUSH1 0x40 MLOAD DUP4 PUSH4 0xFFFFFFFF AND PUSH1 0xE0 SHL DUP2 MSTORE PUSH1 0x4 ADD PUSH2 0x1A68 SWAP3 SWAP2 SWAP1 PUSH2 0x2253 JUMP JUMPDEST PUSH1 0x20 PUSH1 0x40 MLOAD DUP1 DUP4 SUB DUP2 PUSH1 0x0 DUP8 GAS CALL ISZERO DUP1 ISZERO PUSH2 0x1A87 JUMPI RETURNDATASIZE PUSH1 0x0 DUP1 RETURNDATACOPY RETURNDATASIZE PUSH1 0x0 REVERT JUMPDEST POP POP POP POP PUSH1 0x40 MLOAD RETURNDATASIZE PUSH1 0x1F NOT PUSH1 0x1F DUP3 ADD AND DUP3 ADD DUP1 PUSH1 0x40 MSTORE POP DUP2 ADD SWAP1 PUSH2 0x1AAB SWAP2 SWAP1 PUSH2 0x1E12 JUMP JUMPDEST POP SWAP3 POP SWAP3 SWAP1 POP JUMP JUMPDEST DUP1 PUSH1 0x4 PUSH1 0x0 DUP5 PUSH20 0xFFFFFFFFFFFFFFFFFFFFFFFFFFFFFFFFFFFFFFFF AND PUSH20 0xFFFFFFFFFFFFFFFFFFFFFFFFFFFFFFFFFFFFFFFF AND DUP2 MSTORE PUSH1 0x20 ADD SWAP1 DUP2 MSTORE PUSH1 0x20 ADD PUSH1 0x0 KECCAK256 PUSH1 0x0 DUP3 DUP3 SLOAD PUSH2 0x1B02 SWAP2 SWAP1 PUSH2 0x21B3 JUMP JUMPDEST SWAP3 POP POP DUP2 SWAP1 SSTORE POP DUP1 PUSH1 0x3 PUSH1 0x0 DUP3 DUP3 SLOAD PUSH2 0x1B1B SWAP2 SWAP1 PUSH2 0x21B3 JUMP JUMPDEST SWAP3 POP POP DUP2 SWAP1 SSTORE POP POP POP JUMP JUMPDEST PUSH1 0x0 DUP2 SWAP1 POP SWAP2 SWAP1 POP JUMP JUMPDEST PUSH2 0x1B39 DUP2 PUSH2 0x1B26 JUMP JUMPDEST DUP3 MSTORE POP POP JUMP JUMPDEST PUSH1 0x0 PUSH1 0x20 DUP3 ADD SWAP1 POP PUSH2 0x1B54 PUSH1 0x0 DUP4 ADD DUP5 PUSH2 0x1B30 JUMP JUMPDEST SWAP3 SWAP2 POP POP JUMP JUMPDEST PUSH1 0x0 DUP1 REVERT JUMPDEST PUSH2 0x1B68 DUP2 PUSH2 0x1B26 JUMP JUMPDEST DUP2 EQ PUSH2 0x1B73 JUMPI PUSH1 0x0 DUP1 REVERT JUMPDEST POP JUMP JUMPDEST PUSH1 0x0 DUP2 CALLDATALOAD SWAP1 POP PUSH2 0x1B85 DUP2 PUSH2 0x1B5F JUMP JUMPDEST SWAP3 SWAP2 POP POP JUMP JUMPDEST PUSH1 0x0 PUSH1 0x20 DUP3 DUP5 SUB SLT ISZERO PUSH2 0x1BA1 JUMPI PUSH2 0x1BA0 PUSH2 0x1B5A JUMP JUMPDEST JUMPDEST PUSH1 0x0 PUSH2 0x1BAF DUP5 DUP3 DUP6 ADD PUSH2 0x1B76 JUMP JUMPDEST SWAP2 POP POP SWAP3 SWAP2 POP POP JUMP JUMPDEST PUSH1 0x0 DUP1 PUSH1 0x0 PUSH1 0x60 DUP5 DUP7 SUB SLT ISZERO PUSH2 0x1BD1 JUMPI PUSH2 0x1BD0 PUSH2 0x1B5A JUMP JUMPDEST JUMPDEST PUSH1 0x0 PUSH2 0x1BDF DUP7 DUP3 DUP8 ADD PUSH2 0x1B76 JUMP JUMPDEST SWAP4 POP POP PUSH1 0x20 PUSH2 0x1BF0 DUP7 DUP3 DUP8 ADD PUSH2 0x1B76 JUMP JUMPDEST SWAP3 POP POP PUSH1 0x40 PUSH2 0x1C01 DUP7 DUP3 DUP8 ADD PUSH2 0x1B76 JUMP JUMPDEST SWAP2 POP POP SWAP3 POP SWAP3 POP SWAP3 JUMP JUMPDEST PUSH1 0x0 PUSH20 0xFFFFFFFFFFFFFFFFFFFFFFFFFFFFFFFFFFFFFFFF DUP3 AND SWAP1 POP SWAP2 SWAP1 POP JUMP JUMPDEST PUSH1 0x0 PUSH2 0x1C36 DUP3 PUSH2 0x1C0B JUMP JUMPDEST SWAP1 POP SWAP2 SWAP1 POP JUMP JUMPDEST PUSH2 0x1C46 DUP2 PUSH2 0x1C2B JUMP JUMPDEST DUP2 EQ PUSH2 0x1C51 JUMPI PUSH1 0x0 DUP1 REVERT JUMPDEST POP JUMP JUMPDEST PUSH1 0x0 DUP2 CALLDATALOAD SWAP1 POP PUSH2 0x1C63 DUP2 PUSH2 0x1C3D JUMP JUMPDEST SWAP3 SWAP2 POP POP JUMP JUMPDEST PUSH1 0x0 PUSH1 0x20 DUP3 DUP5 SUB SLT ISZERO PUSH2 0x1C7F JUMPI PUSH2 0x1C7E PUSH2 0x1B5A JUMP JUMPDEST JUMPDEST PUSH1 0x0 PUSH2 0x1C8D DUP5 DUP3 DUP6 ADD PUSH2 0x1C54 JUMP JUMPDEST SWAP2 POP POP SWAP3 SWAP2 POP POP JUMP JUMPDEST PUSH1 0x0 PUSH1 0x40 DUP3 ADD SWAP1 POP PUSH2 0x1CAB PUSH1 0x0 DUP4 ADD DUP6 PUSH2 0x1B30 JUMP JUMPDEST PUSH2 0x1CB8 PUSH1 0x20 DUP4 ADD DUP5 PUSH2 0x1B30 JUMP JUMPDEST SWAP4 SWAP3 POP POP POP JUMP JUMPDEST PUSH1 0x0 DUP1 PUSH1 0x40 DUP4 DUP6 SUB SLT ISZERO PUSH2 0x1CD6 JUMPI PUSH2 0x1CD5 PUSH2 0x1B5A JUMP JUMPDEST JUMPDEST PUSH1 0x0 PUSH2 0x1CE4 DUP6 DUP3 DUP7 ADD PUSH2 0x1C54 JUMP JUMPDEST SWAP3 POP POP PUSH1 0x20 PUSH2 0x1CF5 DUP6 DUP3 DUP7 ADD PUSH2 0x1B76 JUMP JUMPDEST SWAP2 POP POP SWAP3 POP SWAP3 SWAP1 POP JUMP JUMPDEST PUSH2 0x1D08 DUP2 PUSH2 0x1C2B JUMP JUMPDEST DUP3 MSTORE POP POP JUMP JUMPDEST PUSH1 0x0 PUSH1 0x20 DUP3 ADD SWAP1 POP PUSH2 0x1D23 PUSH1 0x0 DUP4 ADD DUP5 PUSH2 0x1CFF JUMP JUMPDEST SWAP3 SWAP2 POP POP JUMP JUMPDEST PUSH1 0x0 DUP2 SWAP1 POP SWAP2 SWAP1 POP JUMP JUMPDEST PUSH1 0x0 PUSH2 0x1D4E PUSH2 0x1D49 PUSH2 0x1D44 DUP5 PUSH2 0x1C0B JUMP JUMPDEST PUSH2 0x1D29 JUMP JUMPDEST PUSH2 0x1C0B JUMP JUMPDEST SWAP1 POP SWAP2 SWAP1 POP JUMP JUMPDEST PUSH1 0x0 PUSH2 0x1D60 DUP3 PUSH2 0x1D33 JUMP JUMPDEST SWAP1 POP SWAP2 SWAP1 POP JUMP JUMPDEST PUSH1 0x0 PUSH2 0x1D72 DUP3 PUSH2 0x1D55 JUMP JUMPDEST SWAP1 POP SWAP2 SWAP1 POP JUMP JUMPDEST PUSH2 0x1D82 DUP2 PUSH2 0x1D67 JUMP JUMPDEST DUP3 MSTORE POP POP JUMP JUMPDEST PUSH1 0x0 PUSH1 0x20 DUP3 ADD SWAP1 POP PUSH2 0x1D9D PUSH1 0x0 DUP4 ADD DUP5 PUSH2 0x1D79 JUMP JUMPDEST SWAP3 SWAP2 POP POP JUMP JUMPDEST PUSH1 0x0 PUSH1 0x60 DUP3 ADD SWAP1 POP PUSH2 0x1DB8 PUSH1 0x0 DUP4 ADD DUP7 PUSH2 0x1CFF JUMP JUMPDEST PUSH2 0x1DC5 PUSH1 0x20 DUP4 ADD DUP6 PUSH2 0x1CFF JUMP JUMPDEST PUSH2 0x1DD2 PUSH1 0x40 DUP4 ADD DUP5 PUSH2 0x1B30 JUMP JUMPDEST SWAP5 SWAP4 POP POP POP POP JUMP JUMPDEST PUSH1 0x0 DUP2 ISZERO ISZERO SWAP1 POP SWAP2 SWAP1 POP JUMP JUMPDEST PUSH2 0x1DEF DUP2 PUSH2 0x1DDA JUMP JUMPDEST DUP2 EQ PUSH2 0x1DFA JUMPI PUSH1 0x0 DUP1 REVERT JUMPDEST POP JUMP JUMPDEST PUSH1 0x0 DUP2 MLOAD SWAP1 POP PUSH2 0x1E0C DUP2 PUSH2 0x1DE6 JUMP JUMPDEST SWAP3 SWAP2 POP POP JUMP JUMPDEST PUSH1 0x0 PUSH1 0x20 DUP3 DUP5 SUB SLT ISZERO PUSH2 0x1E28 JUMPI PUSH2 0x1E27 PUSH2 0x1B5A JUMP JUMPDEST JUMPDEST PUSH1 0x0 PUSH2 0x1E36 DUP5 DUP3 DUP6 ADD PUSH2 0x1DFD JUMP JUMPDEST SWAP2 POP POP SWAP3 SWAP2 POP POP JUMP JUMPDEST PUSH32 0x4E487B7100000000000000000000000000000000000000000000000000000000 PUSH1 0x0 MSTORE PUSH1 0x11 PUSH1 0x4 MSTORE PUSH1 0x24 PUSH1 0x0 REVERT JUMPDEST PUSH1 0x0 PUSH2 0x1E79 DUP3 PUSH2 0x1B26 JUMP JUMPDEST SWAP2 POP PUSH2 0x1E84 DUP4 PUSH2 0x1B26 JUMP JUMPDEST SWAP3 POP DUP3 DUP3 MUL PUSH2 0x1E92 DUP2 PUSH2 0x1B26 JUMP JUMPDEST SWAP2 POP DUP3 DUP3 DIV DUP5 EQ DUP4 ISZERO OR PUSH2 0x1EA9 JUMPI PUSH2 0x1EA8 PUSH2 0x1E3F JUMP JUMPDEST JUMPDEST POP SWAP3 SWAP2 POP POP JUMP JUMPDEST PUSH1 0x0 DUP3 DUP3 MSTORE PUSH1 0x20 DUP3 ADD SWAP1 POP SWAP3 SWAP2 POP POP JUMP JUMPDEST PUSH32 0x78202F207920213D206478202F20647900000000000000000000000000000000 PUSH1 0x0 DUP3 ADD MSTORE POP JUMP JUMPDEST PUSH1 0x0 PUSH2 0x1EF7 PUSH1 0x10 DUP4 PUSH2 0x1EB0 JUMP JUMPDEST SWAP2 POP PUSH2 0x1F02 DUP3 PUSH2 0x1EC1 JUMP JUMPDEST PUSH1 0x20 DUP3 ADD SWAP1 POP SWAP2 SWAP1 POP JUMP JUMPDEST PUSH1 0x0 PUSH1 0x20 DUP3 ADD SWAP1 POP DUP2 DUP2 SUB PUSH1 0x0 DUP4 ADD MSTORE PUSH2 0x1F26 DUP2 PUSH2 0x1EEA JUMP JUMPDEST SWAP1 POP SWAP2 SWAP1 POP JUMP JUMPDEST PUSH32 0x4E487B7100000000000000000000000000000000000000000000000000000000 PUSH1 0x0 MSTORE PUSH1 0x12 PUSH1 0x4 MSTORE PUSH1 0x24 PUSH1 0x0 REVERT JUMPDEST PUSH1 0x0 PUSH2 0x1F67 DUP3 PUSH2 0x1B26 JUMP JUMPDEST SWAP2 POP PUSH2 0x1F72 DUP4 PUSH2 0x1B26 JUMP JUMPDEST SWAP3 POP DUP3 PUSH2 0x1F82 JUMPI PUSH2 0x1F81 PUSH2 0x1F2D JUMP JUMPDEST JUMPDEST DUP3 DUP3 DIV SWAP1 POP SWAP3 SWAP2 POP POP JUMP JUMPDEST PUSH32 0x736861726573203D203000000000000000000000000000000000000000000000 PUSH1 0x0 DUP3 ADD MSTORE POP JUMP JUMPDEST PUSH1 0x0 PUSH2 0x1FC3 PUSH1 0xA DUP4 PUSH2 0x1EB0 JUMP JUMPDEST SWAP2 POP PUSH2 0x1FCE DUP3 PUSH2 0x1F8D JUMP JUMPDEST PUSH1 0x20 DUP3 ADD SWAP1 POP SWAP2 SWAP1 POP JUMP JUMPDEST PUSH1 0x0 PUSH1 0x20 DUP3 ADD SWAP1 POP DUP2 DUP2 SUB PUSH1 0x0 DUP4 ADD MSTORE PUSH2 0x1FF2 DUP2 PUSH2 0x1FB6 JUMP JUMPDEST SWAP1 POP SWAP2 SWAP1 POP JUMP JUMPDEST PUSH1 0x0 DUP2 MLOAD SWAP1 POP PUSH2 0x2008 DUP2 PUSH2 0x1B5F JUMP JUMPDEST SWAP3 SWAP2 POP POP JUMP JUMPDEST PUSH1 0x0 PUSH1 0x20 DUP3 DUP5 SUB SLT ISZERO PUSH2 0x2024 JUMPI PUSH2 0x2023 PUSH2 0x1B5A JUMP JUMPDEST JUMPDEST PUSH1 0x0 PUSH2 0x2032 DUP5 DUP3 DUP6 ADD PUSH2 0x1FF9 JUMP JUMPDEST SWAP2 POP POP SWAP3 SWAP2 POP POP JUMP JUMPDEST PUSH32 0x496E76616C696420455243323020726573657276657300000000000000000000 PUSH1 0x0 DUP3 ADD MSTORE POP JUMP JUMPDEST PUSH1 0x0 PUSH2 0x2071 PUSH1 0x16 DUP4 PUSH2 0x1EB0 JUMP JUMPDEST SWAP2 POP PUSH2 0x207C DUP3 PUSH2 0x203B JUMP JUMPDEST PUSH1 0x20 DUP3 ADD SWAP1 POP SWAP2 SWAP1 POP JUMP JUMPDEST PUSH1 0x0 PUSH1 0x20 DUP3 ADD SWAP1 POP DUP2 DUP2 SUB PUSH1 0x0 DUP4 ADD MSTORE PUSH2 0x20A0 DUP2 PUSH2 0x2064 JUMP JUMPDEST SWAP1 POP SWAP2 SWAP1 POP JUMP JUMPDEST PUSH1 0x0 PUSH2 0x20B2 DUP3 PUSH2 0x1B26 JUMP JUMPDEST SWAP2 POP PUSH2 0x20BD DUP4 PUSH2 0x1B26 JUMP JUMPDEST SWAP3 POP DUP3 DUP3 ADD SWAP1 POP DUP1 DUP3 GT ISZERO PUSH2 0x20D5 JUMPI PUSH2 0x20D4 PUSH2 0x1E3F JUMP JUMPDEST JUMPDEST SWAP3 SWAP2 POP POP JUMP JUMPDEST PUSH32 0x45544820616D6F756E74206D69736D6174636800000000000000000000000000 PUSH1 0x0 DUP3 ADD MSTORE POP JUMP JUMPDEST PUSH1 0x0 PUSH2 0x2111 PUSH1 0x13 DUP4 PUSH2 0x1EB0 JUMP JUMPDEST SWAP2 POP PUSH2 0x211C DUP3 PUSH2 0x20DB JUMP JUMPDEST PUSH1 0x20 DUP3 ADD SWAP1 POP SWAP2 SWAP1 POP JUMP JUMPDEST PUSH1 0x0 PUSH1 0x20 DUP3 ADD SWAP1 POP DUP2 DUP2 SUB PUSH1 0x0 DUP4 ADD MSTORE PUSH2 0x2140 DUP2 PUSH2 0x2104 JUMP JUMPDEST SWAP1 POP SWAP2 SWAP1 POP JUMP JUMPDEST PUSH32 0x496E73756666696369656E74206F757470757420616D6F756E74000000000000 PUSH1 0x0 DUP3 ADD MSTORE POP JUMP JUMPDEST PUSH1 0x0 PUSH2 0x217D PUSH1 0x1A DUP4 PUSH2 0x1EB0 JUMP JUMPDEST SWAP2 POP PUSH2 0x2188 DUP3 PUSH2 0x2147 JUMP JUMPDEST PUSH1 0x20 DUP3 ADD SWAP1 POP SWAP2 SWAP1 POP JUMP JUMPDEST PUSH1 0x0 PUSH1 0x20 DUP3 ADD SWAP1 POP DUP2 DUP2 SUB PUSH1 0x0 DUP4 ADD MSTORE PUSH2 0x21AC DUP2 PUSH2 0x2170 JUMP JUMPDEST SWAP1 POP SWAP2 SWAP1 POP JUMP JUMPDEST PUSH1 0x0 PUSH2 0x21BE DUP3 PUSH2 0x1B26 JUMP JUMPDEST SWAP2 POP PUSH2 0x21C9 DUP4 PUSH2 0x1B26 JUMP JUMPDEST SWAP3 POP DUP3 DUP3 SUB SWAP1 POP DUP2 DUP2 GT ISZERO PUSH2 0x21E1 JUMPI PUSH2 0x21E0 PUSH2 0x1E3F JUMP JUMPDEST JUMPDEST SWAP3 SWAP2 POP POP JUMP JUMPDEST PUSH32 0x536C69704C6F636B000000000000000000000000000000000000000000000000 PUSH1 0x0 DUP3 ADD MSTORE POP JUMP JUMPDEST PUSH1 0x0 PUSH2 0x221D PUSH1 0x8 DUP4 PUSH2 0x1EB0 JUMP JUMPDEST SWAP2 POP PUSH2 0x2228 DUP3 PUSH2 0x21E7 JUMP JUMPDEST PUSH1 0x20 DUP3 ADD SWAP1 POP SWAP2 SWAP1 POP JUMP JUMPDEST PUSH1 0x0 PUSH1 0x20 DUP3 ADD SWAP1 POP DUP2 DUP2 SUB PUSH1 0x0 DUP4 ADD MSTORE PUSH2 0x224C DUP2 PUSH2 0x2210 JUMP JUMPDEST SWAP1 POP SWAP2 SWAP1 POP JUMP JUMPDEST PUSH1 0x0 PUSH1 0x40 DUP3 ADD SWAP1 POP PUSH2 0x2268 PUSH1 0x0 DUP4 ADD DUP6 PUSH2 0x1CFF JUMP JUMPDEST PUSH2 0x2275 PUSH1 0x20 DUP4 ADD DUP5 PUSH2 0x1B30 JUMP JUMPDEST SWAP4 SWAP3 POP POP POP JUMP JUMPDEST PUSH32 0x496E73756666696369656E742062616C616E6365000000000000000000000000 PUSH1 0x0 DUP3 ADD MSTORE POP JUMP JUMPDEST PUSH1 0x0 PUSH2 0x22B2 PUSH1 0x14 DUP4 PUSH2 0x1EB0 JUMP JUMPDEST SWAP2 POP PUSH2 0x22BD DUP3 PUSH2 0x227C JUMP JUMPDEST PUSH1 0x20 DUP3 ADD SWAP1 POP SWAP2 SWAP1 POP JUMP JUMPDEST PUSH1 0x0 PUSH1 0x20 DUP3 ADD SWAP1 POP DUP2 DUP2 SUB PUSH1 0x0 DUP4 ADD MSTORE PUSH2 0x22E1 DUP2 PUSH2 0x22A5 JUMP JUMPDEST SWAP1 POP SWAP2 SWAP1 POP JUMP JUMPDEST PUSH32 0x496E76616C696420455448207265736572766573000000000000000000000000 PUSH1 0x0 DUP3 ADD MSTORE POP JUMP JUMPDEST PUSH1 0x0 PUSH2 0x231E PUSH1 0x14 DUP4 PUSH2 0x1EB0 JUMP JUMPDEST SWAP2 POP PUSH2 0x2329 DUP3 PUSH2 0x22E8 JUMP JUMPDEST PUSH1 0x20 DUP3 ADD SWAP1 POP SWAP2 SWAP1 POP JUMP JUMPDEST PUSH1 0x0 PUSH1 0x20 DUP3 ADD SWAP1 POP DUP2 DUP2 SUB PUSH1 0x0 DUP4 ADD MSTORE PUSH2 0x234D DUP2 PUSH2 0x2311 JUMP JUMPDEST SWAP1 POP SWAP2 SWAP1 POP JUMP JUMPDEST PUSH1 0x0 PUSH1 0xFF DUP3 AND SWAP1 POP SWAP2 SWAP1 POP JUMP JUMPDEST PUSH2 0x236A DUP2 PUSH2 0x2354 JUMP JUMPDEST DUP2 EQ PUSH2 0x2375 JUMPI PUSH1 0x0 DUP1 REVERT JUMPDEST POP JUMP JUMPDEST PUSH1 0x0 DUP2 MLOAD SWAP1 POP PUSH2 0x2387 DUP2 PUSH2 0x2361 JUMP JUMPDEST SWAP3 SWAP2 POP POP JUMP JUMPDEST PUSH1 0x0 PUSH1 0x20 DUP3 DUP5 SUB SLT ISZERO PUSH2 0x23A3 JUMPI PUSH2 0x23A2 PUSH2 0x1B5A JUMP JUMPDEST JUMPDEST PUSH1 0x0 PUSH2 0x23B1 DUP5 DUP3 DUP6 ADD PUSH2 0x2378 JUMP JUMPDEST SWAP2 POP POP SWAP3 SWAP2 POP POP JUMP JUMPDEST PUSH1 0x0 DUP2 PUSH1 0x1 SHR SWAP1 POP SWAP2 SWAP1 POP JUMP JUMPDEST PUSH1 0x0 DUP1 DUP3 SWAP2 POP DUP4 SWAP1 POP JUMPDEST PUSH1 0x1 DUP6 GT ISZERO PUSH2 0x2411 JUMPI DUP1 DUP7 DIV DUP2 GT ISZERO PUSH2 0x23ED JUMPI PUSH2 0x23EC PUSH2 0x1E3F JUMP JUMPDEST JUMPDEST PUSH1 0x1 DUP6 AND ISZERO PUSH2 0x23FC JUMPI DUP1 DUP3 MUL SWAP2 POP JUMPDEST DUP1 DUP2 MUL SWAP1 POP PUSH2 0x240A DUP6 PUSH2 0x23BA JUMP JUMPDEST SWAP5 POP PUSH2 0x23D1 JUMP JUMPDEST SWAP5 POP SWAP5 SWAP3 POP POP POP JUMP JUMPDEST PUSH1 0x0 DUP3 PUSH2 0x242A JUMPI PUSH1 0x1 SWAP1 POP PUSH2 0x24E6 JUMP JUMPDEST DUP2 PUSH2 0x2438 JUMPI PUSH1 0x0 SWAP1 POP PUSH2 0x24E6 JUMP JUMPDEST DUP2 PUSH1 0x1 DUP2 EQ PUSH2 0x244E JUMPI PUSH1 0x2 DUP2 EQ PUSH2 0x2458 JUMPI PUSH2 0x2487 JUMP JUMPDEST PUSH1 0x1 SWAP2 POP POP PUSH2 0x24E6 JUMP JUMPDEST PUSH1 0xFF DUP5 GT ISZERO PUSH2 0x246A JUMPI PUSH2 0x2469 PUSH2 0x1E3F JUMP JUMPDEST JUMPDEST DUP4 PUSH1 0x2 EXP SWAP2 POP DUP5 DUP3 GT ISZERO PUSH2 0x2481 JUMPI PUSH2 0x2480 PUSH2 0x1E3F JUMP JUMPDEST JUMPDEST POP PUSH2 0x24E6 JUMP JUMPDEST POP PUSH1 0x20 DUP4 LT PUSH2 0x133 DUP4 LT AND PUSH1 0x4E DUP5 LT PUSH1 0xB DUP5 LT AND OR ISZERO PUSH2 0x24BC JUMPI DUP3 DUP3 EXP SWAP1 POP DUP4 DUP2 GT ISZERO PUSH2 0x24B7 JUMPI PUSH2 0x24B6 PUSH2 0x1E3F JUMP JUMPDEST JUMPDEST PUSH2 0x24E6 JUMP JUMPDEST PUSH2 0x24C9 DUP5 DUP5 DUP5 PUSH1 0x1 PUSH2 0x23C7 JUMP JUMPDEST SWAP3 POP SWAP1 POP DUP2 DUP5 DIV DUP2 GT ISZERO PUSH2 0x24E0 JUMPI PUSH2 0x24DF PUSH2 0x1E3F JUMP JUMPDEST JUMPDEST DUP2 DUP2 MUL SWAP1 POP JUMPDEST SWAP4 SWAP3 POP POP POP JUMP JUMPDEST PUSH1 0x0 PUSH2 0x24F8 DUP3 PUSH2 0x1B26 JUMP JUMPDEST SWAP2 POP PUSH2 0x2503 DUP4 PUSH2 0x1B26 JUMP JUMPDEST SWAP3 POP PUSH2 0x2530 PUSH32 0xFFFFFFFFFFFFFFFFFFFFFFFFFFFFFFFFFFFFFFFFFFFFFFFFFFFFFFFFFFFFFFFF DUP5 DUP5 PUSH2 0x241A JUMP JUMPDEST SWAP1 POP SWAP3 SWAP2 POP POP JUMP JUMPDEST PUSH32 0x616D6F756E7430206F7220616D6F756E7431203D203000000000000000000000 PUSH1 0x0 DUP3 ADD MSTORE POP JUMP JUMPDEST PUSH1 0x0 PUSH2 0x256E PUSH1 0x16 DUP4 PUSH2 0x1EB0 JUMP JUMPDEST SWAP2 POP PUSH2 0x2579 DUP3 PUSH2 0x2538 JUMP JUMPDEST PUSH1 0x20 DUP3 ADD SWAP1 POP SWAP2 SWAP1 POP JUMP JUMPDEST PUSH1 0x0 PUSH1 0x20 DUP3 ADD SWAP1 POP DUP2 DUP2 SUB PUSH1 0x0 DUP4 ADD MSTORE PUSH2 0x259D DUP2 PUSH2 0x2561 JUMP JUMPDEST SWAP1 POP SWAP2 SWAP1 POP JUMP INVALID LOG2 PUSH5 0x6970667358 0x22 SLT KECCAK256 PUSH11 0xC14C380B46ADF6DBC81A79 PUSH9 0x1256C2DDEDCBED4A11 LT SWAP15 0x23 0xD4 SWAP4 DUP1 GT 0xAA 0xDF 0xF8 PUSH5 0x736F6C6343 STOP ADDMOD SLT STOP CALLER "
		},
		"gasEstimates": {
			"creation": {
				"codeDepositCost": "1938000",
				"executionCost": "infinite",
				"totalCost": "infinite"
			},
			"external": {
				"ETH_ADDRESS()": "489",
				"addLiquidity(uint256)": "infinite",
				"balanceOf(address)": "2903",
				"getERCPrice()": "infinite",
				"getETHPrice()": "infinite",
				"getInERCPredictOutputETH(uint256)": "infinite",
				"getInETHPredictOutputERC(uint256)": "infinite",
				"my_shars()": "2571",
				"removeAllLiquidity(address)": "infinite",
				"removeLiquidity(address,uint256)": "infinite",
				"removeLiquidity(uint256)": "infinite",
				"reserve0()": "2475",
				"reserve1()": "2541",
				"sharesOf(address)": "2907",
				"swap(uint256)": "infinite",
				"swapTokenForETH(uint256)": "infinite",
				"swapTokenForETH_WithSlipLock(uint256,uint256,uint256)": "infinite",
				"swap_WithSlipLock(uint256,uint256,uint256)": "infinite",
				"token()": "infinite",
				"totalSupply()": "2453"
			},
			"internal": {
				"_burn(address,uint256)": "infinite",
				"_min(uint256,uint256)": "infinite",
				"_mint(address,uint256)": "infinite",
				"_removeLiquidity(address,uint256)": "infinite",
				"_sqrt(uint256)": "infinite",
				"_update(uint256,uint256)": "44241"
			}
		},
		"methodIdentifiers": {
			"ETH_ADDRESS()": "a734f06e",
			"addLiquidity(uint256)": "51c6590a",
			"balanceOf(address)": "70a08231",
			"getERCPrice()": "fcc2ba08",
			"getETHPrice()": "a607a8d9",
			"getInERCPredictOutputETH(uint256)": "dccc5fea",
			"getInETHPredictOutputERC(uint256)": "56c1d7eb",
			"my_shars()": "6cae4f84",
			"removeAllLiquidity(address)": "7a6a5e1b",
			"removeLiquidity(address,uint256)": "a201ccf6",
			"removeLiquidity(uint256)": "9c8f9f23",
			"reserve0()": "443cb4bc",
			"reserve1()": "5a76f25e",
			"sharesOf(address)": "f5eb42dc",
			"swap(uint256)": "94b918de",
			"swapTokenForETH(uint256)": "6fb84b74",
			"swapTokenForETH_WithSlipLock(uint256,uint256,uint256)": "dc2d845b",
			"swap_WithSlipLock(uint256,uint256,uint256)": "62279b65",
			"token()": "fc0c546a",
			"totalSupply()": "18160ddd"
		}
	},
	"abi": [
		{
			"inputs": [
				{
					"internalType": "address",
					"name": "_token",
					"type": "address"
				}
			],
			"stateMutability": "nonpayable",
			"type": "constructor"
		},
		{
			"inputs": [],
			"name": "ETH_ADDRESS",
			"outputs": [
				{
					"internalType": "address",
					"name": "",
					"type": "address"
				}
			],
			"stateMutability": "view",
			"type": "function"
		},
		{
			"inputs": [
				{
					"internalType": "uint256",
					"name": "_amount1",
					"type": "uint256"
				}
			],
			"name": "addLiquidity",
			"outputs": [
				{
					"internalType": "uint256",
					"name": "shares",
					"type": "uint256"
				}
			],
			"stateMutability": "payable",
			"type": "function"
		},
		{
			"inputs": [
				{
					"internalType": "address",
					"name": "",
					"type": "address"
				}
			],
			"name": "balanceOf",
			"outputs": [
				{
					"internalType": "uint256",
					"name": "",
					"type": "uint256"
				}
			],
			"stateMutability": "view",
			"type": "function"
		},
		{
			"inputs": [],
			"name": "getERCPrice",
			"outputs": [
				{
					"internalType": "uint256",
					"name": "",
					"type": "uint256"
				}
			],
			"stateMutability": "view",
			"type": "function"
		},
		{
			"inputs": [],
			"name": "getETHPrice",
			"outputs": [
				{
					"internalType": "uint256",
					"name": "",
					"type": "uint256"
				}
			],
			"stateMutability": "view",
			"type": "function"
		},
		{
			"inputs": [
				{
					"internalType": "uint256",
					"name": "_amount",
					"type": "uint256"
				}
			],
			"name": "getInERCPredictOutputETH",
			"outputs": [
				{
					"internalType": "uint256",
					"name": "",
					"type": "uint256"
				}
			],
			"stateMutability": "view",
			"type": "function"
		},
		{
			"inputs": [
				{
					"internalType": "uint256",
					"name": "_amount",
					"type": "uint256"
				}
			],
			"name": "getInETHPredictOutputERC",
			"outputs": [
				{
					"internalType": "uint256",
					"name": "",
					"type": "uint256"
				}
			],
			"stateMutability": "view",
			"type": "function"
		},
		{
			"inputs": [],
			"name": "my_shars",
			"outputs": [
				{
					"internalType": "uint256",
					"name": "",
					"type": "uint256"
				}
			],
			"stateMutability": "view",
			"type": "function"
		},
		{
			"inputs": [
				{
					"internalType": "address",
					"name": "_user",
					"type": "address"
				}
			],
			"name": "removeAllLiquidity",
			"outputs": [
				{
					"internalType": "uint256",
					"name": "amount0",
					"type": "uint256"
				},
				{
					"internalType": "uint256",
					"name": "amount1",
					"type": "uint256"
				}
			],
			"stateMutability": "nonpayable",
			"type": "function"
		},
		{
			"inputs": [
				{
					"internalType": "uint256",
					"name": "_shares",
					"type": "uint256"
				}
			],
			"name": "removeLiquidity",
			"outputs": [
				{
					"internalType": "uint256",
					"name": "amount0",
					"type": "uint256"
				},
				{
					"internalType": "uint256",
					"name": "amount1",
					"type": "uint256"
				}
			],
			"stateMutability": "nonpayable",
			"type": "function"
		},
		{
			"inputs": [
				{
					"internalType": "address",
					"name": "_user",
					"type": "address"
				},
				{
					"internalType": "uint256",
					"name": "_shares",
					"type": "uint256"
				}
			],
			"name": "removeLiquidity",
			"outputs": [
				{
					"internalType": "uint256",
					"name": "amount0",
					"type": "uint256"
				},
				{
					"internalType": "uint256",
					"name": "amount1",
					"type": "uint256"
				}
			],
			"stateMutability": "nonpayable",
			"type": "function"
		},
		{
			"inputs": [],
			"name": "reserve0",
			"outputs": [
				{
					"internalType": "uint256",
					"name": "",
					"type": "uint256"
				}
			],
			"stateMutability": "view",
			"type": "function"
		},
		{
			"inputs": [],
			"name": "reserve1",
			"outputs": [
				{
					"internalType": "uint256",
					"name": "",
					"type": "uint256"
				}
			],
			"stateMutability": "view",
			"type": "function"
		},
		{
			"inputs": [
				{
					"internalType": "address",
					"name": "_user",
					"type": "address"
				}
			],
			"name": "sharesOf",
			"outputs": [
				{
					"internalType": "uint256",
					"name": "",
					"type": "uint256"
				}
			],
			"stateMutability": "view",
			"type": "function"
		},
		{
			"inputs": [
				{
					"internalType": "uint256",
					"name": "_amountIn",
					"type": "uint256"
				}
			],
			"name": "swap",
			"outputs": [
				{
					"internalType": "uint256",
					"name": "amountOut",
					"type": "uint256"
				}
			],
			"stateMutability": "payable",
			"type": "function"
		},
		{
			"inputs": [
				{
					"internalType": "uint256",
					"name": "_amountIn",
					"type": "uint256"
				}
			],
			"name": "swapTokenForETH",
			"outputs": [
				{
					"internalType": "uint256",
					"name": "amountOut",
					"type": "uint256"
				}
			],
			"stateMutability": "nonpayable",
			"type": "function"
		},
		{
			"inputs": [
				{
					"internalType": "uint256",
					"name": "_amountIn",
					"type": "uint256"
				},
				{
					"internalType": "uint256",
					"name": "_forwardOutput",
					"type": "uint256"
				},
				{
					"internalType": "uint256",
					"name": "_slipLock",
					"type": "uint256"
				}
			],
			"name": "swapTokenForETH_WithSlipLock",
			"outputs": [
				{
					"internalType": "uint256",
					"name": "amountOut",
					"type": "uint256"
				}
			],
			"stateMutability": "nonpayable",
			"type": "function"
		},
		{
			"inputs": [
				{
					"internalType": "uint256",
					"name": "_amountIn",
					"type": "uint256"
				},
				{
					"internalType": "uint256",
					"name": "_forwardOutput",
					"type": "uint256"
				},
				{
					"internalType": "uint256",
					"name": "_slipLock",
					"type": "uint256"
				}
			],
			"name": "swap_WithSlipLock",
			"outputs": [
				{
					"internalType": "uint256",
					"name": "amountOut",
					"type": "uint256"
				}
			],
			"stateMutability": "payable",
			"type": "function"
		},
		{
			"inputs": [],
			"name": "token",
			"outputs": [
				{
					"internalType": "contract IERC20",
					"name": "",
					"type": "address"
				}
			],
			"stateMutability": "view",
			"type": "function"
		},
		{
			"inputs": [],
			"name": "totalSupply",
			"outputs": [
				{
					"internalType": "uint256",
					"name": "",
					"type": "uint256"
				}
			],
			"stateMutability": "view",
			"type": "function"
		}
	]
}