{
	"W6/heappointer.sol": {
		"maxHeap": {
			"abi": [
				{
					"inputs": [],
					"stateMutability": "nonpayable",
					"type": "constructor"
				},
				{
					"inputs": [
						{
							"internalType": "uint256",
							"name": "",
							"type": "uint256"
						}
					],
					"name": "heap",
					"outputs": [
						{
							"internalType": "uint256",
							"name": "",
							"type": "uint256"
						}
					],
					"stateMutability": "view",
					"type": "function"
				},
				{
					"inputs": [],
					"name": "pointer",
					"outputs": [
						{
							"internalType": "contract Pointer",
							"name": "",
							"type": "address"
						}
					],
					"stateMutability": "view",
					"type": "function"
				},
				{
					"inputs": [],
					"name": "pop",
					"outputs": [
						{
							"internalType": "uint256",
							"name": "",
							"type": "uint256"
						}
					],
					"stateMutability": "nonpayable",
					"type": "function"
				},
				{
					"inputs": [],
					"name": "print",
					"outputs": [
						{
							"internalType": "uint256[]",
							"name": "",
							"type": "uint256[]"
						},
						{
							"internalType": "uint256[]",
							"name": "",
							"type": "uint256[]"
						}
					],
					"stateMutability": "view",
					"type": "function"
				},
				{
					"inputs": [
						{
							"internalType": "uint256",
							"name": "value",
							"type": "uint256"
						}
					],
					"name": "push",
					"outputs": [
						{
							"internalType": "uint256",
							"name": "",
							"type": "uint256"
						}
					],
					"stateMutability": "nonpayable",
					"type": "function"
				}
			],
			"devdoc": {
				"kind": "dev",
				"methods": {},
				"version": 1
			},
			"evm": {
				"assembly": "    /* \"W6/heappointer.sol\":96:2016  contract maxHeap {... */\n  mstore(0x40, 0x80)\n    /* \"W6/heappointer.sol\":177:233  constructor() {... */\n  callvalue\n  dup1\n  iszero\n  tag_1\n  jumpi\n  0x00\n  dup1\n  revert\ntag_1:\n  pop\n    /* \"W6/heappointer.sol\":212:225  new Pointer() */\n  mload(0x40)\n  tag_4\n  swap1\n  tag_5\n  jump\t// in\ntag_4:\n  mload(0x40)\n  dup1\n  swap2\n  sub\n  swap1\n  0x00\n  create\n  dup1\n  iszero\n  dup1\n  iszero\n  tag_6\n  jumpi\n  returndatasize\n  0x00\n  dup1\n  returndatacopy\n  revert(0x00, returndatasize)\ntag_6:\n  pop\n    /* \"W6/heappointer.sol\":202:209  pointer */\n  0x01\n  0x00\n    /* \"W6/heappointer.sol\":202:225  pointer = new Pointer() */\n  0x0100\n  exp\n  dup2\n  sload\n  dup2\n  0xffffffffffffffffffffffffffffffffffffffff\n  mul\n  not\n  and\n  swap1\n  dup4\n  0xffffffffffffffffffffffffffffffffffffffff\n  and\n  mul\n  or\n  swap1\n  sstore\n  pop\n    /* \"W6/heappointer.sol\":96:2016  contract maxHeap {... */\n  jump(tag_7)\ntag_5:\n  dataSize(sub_1)\n  dup1\n  dataOffset(sub_1)\n  dup4\n  codecopy\n  add\n  swap1\n  jump\t// out\ntag_7:\n  dataSize(sub_0)\n  dup1\n  dataOffset(sub_0)\n  0x00\n  codecopy\n  0x00\n  return\nstop\n\nsub_0: assembly {\n        /* \"W6/heappointer.sol\":96:2016  contract maxHeap {... */\n      mstore(0x40, 0x80)\n      callvalue\n      dup1\n      iszero\n      tag_1\n      jumpi\n      0x00\n      dup1\n      revert\n    tag_1:\n      pop\n      jumpi(tag_2, lt(calldatasize, 0x04))\n      shr(0xe0, calldataload(0x00))\n      dup1\n      0x13bdfacd\n      eq\n      tag_3\n      jumpi\n      dup1\n      0x1c01f292\n      eq\n      tag_4\n      jumpi\n      dup1\n      0x2f5f3b3c\n      eq\n      tag_5\n      jumpi\n      dup1\n      0x959ac484\n      eq\n      tag_6\n      jumpi\n      dup1\n      0xa4ece52c\n      eq\n      tag_7\n      jumpi\n    tag_2:\n      0x00\n      dup1\n      revert\n        /* \"W6/heappointer.sol\":1618:2011  function print() public view returns (uint256[] memory, uint256[] memory) {... */\n    tag_3:\n      tag_8\n      tag_9\n      jump\t// in\n    tag_8:\n      mload(0x40)\n      tag_10\n      swap3\n      swap2\n      swap1\n      tag_11\n      jump\t// in\n    tag_10:\n      mload(0x40)\n      dup1\n      swap2\n      sub\n      swap1\n      return\n        /* \"W6/heappointer.sol\":120:141  uint256[] public heap */\n    tag_4:\n      tag_12\n      0x04\n      dup1\n      calldatasize\n      sub\n      dup2\n      add\n      swap1\n      tag_13\n      swap2\n      swap1\n      tag_14\n      jump\t// in\n    tag_13:\n      tag_15\n      jump\t// in\n    tag_12:\n      mload(0x40)\n      tag_16\n      swap2\n      swap1\n      tag_17\n      jump\t// in\n    tag_16:\n      mload(0x40)\n      dup1\n      swap2\n      sub\n      swap1\n      return\n        /* \"W6/heappointer.sol\":148:170  Pointer public pointer */\n    tag_5:\n      tag_18\n      tag_19\n      jump\t// in\n    tag_18:\n      mload(0x40)\n      tag_20\n      swap2\n      swap1\n      tag_21\n      jump\t// in\n    tag_20:\n      mload(0x40)\n      dup1\n      swap2\n      sub\n      swap1\n      return\n        /* \"W6/heappointer.sol\":367:822  function push(uint256 value) public returns (uint256) {... */\n    tag_6:\n      tag_22\n      0x04\n      dup1\n      calldatasize\n      sub\n      dup2\n      add\n      swap1\n      tag_23\n      swap2\n      swap1\n      tag_14\n      jump\t// in\n    tag_23:\n      tag_24\n      jump\t// in\n    tag_22:\n      mload(0x40)\n      tag_25\n      swap2\n      swap1\n      tag_17\n      jump\t// in\n    tag_25:\n      mload(0x40)\n      dup1\n      swap2\n      sub\n      swap1\n      return\n        /* \"W6/heappointer.sol\":1375:1612  function pop() public returns (uint256) {... */\n    tag_7:\n      tag_26\n      tag_27\n      jump\t// in\n    tag_26:\n      mload(0x40)\n      tag_28\n      swap2\n      swap1\n      tag_17\n      jump\t// in\n    tag_28:\n      mload(0x40)\n      dup1\n      swap2\n      sub\n      swap1\n      return\n        /* \"W6/heappointer.sol\":1618:2011  function print() public view returns (uint256[] memory, uint256[] memory) {... */\n    tag_9:\n        /* \"W6/heappointer.sol\":1656:1672  uint256[] memory */\n      0x60\n        /* \"W6/heappointer.sol\":1674:1690  uint256[] memory */\n      dup1\n        /* \"W6/heappointer.sol\":1703:1726  uint256[] memory result */\n      0x00\n        /* \"W6/heappointer.sol\":1743:1747  heap */\n      dup1\n        /* \"W6/heappointer.sol\":1743:1754  heap.length */\n      dup1\n      sload\n      swap1\n      pop\n        /* \"W6/heappointer.sol\":1729:1755  new uint256[](heap.length) */\n      0xffffffffffffffff\n      dup2\n      gt\n      iszero\n      tag_30\n      jumpi\n      tag_31\n      tag_32\n      jump\t// in\n    tag_31:\n    tag_30:\n      mload(0x40)\n      swap1\n      dup1\n      dup3\n      mstore\n      dup1\n      0x20\n      mul\n      0x20\n      add\n      dup3\n      add\n      0x40\n      mstore\n      dup1\n      iszero\n      tag_33\n      jumpi\n      dup2\n      0x20\n      add\n      0x20\n      dup3\n      mul\n      dup1\n      calldatasize\n      dup4\n      calldatacopy\n      dup1\n      dup3\n      add\n      swap2\n      pop\n      pop\n      swap1\n      pop\n    tag_33:\n      pop\n        /* \"W6/heappointer.sol\":1703:1755  uint256[] memory result = new uint256[](heap.length) */\n      swap1\n      pop\n        /* \"W6/heappointer.sol\":1766:1790  uint256[] memory result2 */\n      0x00\n        /* \"W6/heappointer.sol\":1807:1811  heap */\n      dup1\n        /* \"W6/heappointer.sol\":1807:1818  heap.length */\n      dup1\n      sload\n      swap1\n      pop\n        /* \"W6/heappointer.sol\":1793:1819  new uint256[](heap.length) */\n      0xffffffffffffffff\n      dup2\n      gt\n      iszero\n      tag_34\n      jumpi\n      tag_35\n      tag_32\n      jump\t// in\n    tag_35:\n    tag_34:\n      mload(0x40)\n      swap1\n      dup1\n      dup3\n      mstore\n      dup1\n      0x20\n      mul\n      0x20\n      add\n      dup3\n      add\n      0x40\n      mstore\n      dup1\n      iszero\n      tag_36\n      jumpi\n      dup2\n      0x20\n      add\n      0x20\n      dup3\n      mul\n      dup1\n      calldatasize\n      dup4\n      calldatacopy\n      dup1\n      dup3\n      add\n      swap2\n      pop\n      pop\n      swap1\n      pop\n    tag_36:\n      pop\n        /* \"W6/heappointer.sol\":1766:1819  uint256[] memory result2 = new uint256[](heap.length) */\n      swap1\n      pop\n        /* \"W6/heappointer.sol\":1835:1844  uint256 i */\n      0x00\n        /* \"W6/heappointer.sol\":1830:1970  for (uint256 i = 0; i < heap.length; i++) {... */\n    tag_37:\n        /* \"W6/heappointer.sol\":1854:1858  heap */\n      0x00\n        /* \"W6/heappointer.sol\":1854:1865  heap.length */\n      dup1\n      sload\n      swap1\n      pop\n        /* \"W6/heappointer.sol\":1850:1851  i */\n      dup2\n        /* \"W6/heappointer.sol\":1850:1865  i < heap.length */\n      lt\n        /* \"W6/heappointer.sol\":1830:1970  for (uint256 i = 0; i < heap.length; i++) {... */\n      iszero\n      tag_38\n      jumpi\n        /* \"W6/heappointer.sol\":1899:1906  pointer */\n      0x01\n      0x00\n      swap1\n      sload\n      swap1\n      0x0100\n      exp\n      swap1\n      div\n      0xffffffffffffffffffffffffffffffffffffffff\n      and\n        /* \"W6/heappointer.sol\":1899:1914  pointer.pointer */\n      0xffffffffffffffffffffffffffffffffffffffff\n      and\n      0xf9d6a52e\n        /* \"W6/heappointer.sol\":1915:1919  heap */\n      0x00\n        /* \"W6/heappointer.sol\":1920:1921  i */\n      dup4\n        /* \"W6/heappointer.sol\":1915:1922  heap[i] */\n      dup2\n      sload\n      dup2\n      lt\n      tag_40\n      jumpi\n      tag_41\n      tag_42\n      jump\t// in\n    tag_41:\n    tag_40:\n      swap1\n      0x00\n      mstore\n      keccak256(0x00, 0x20)\n      add\n      sload\n        /* \"W6/heappointer.sol\":1899:1923  pointer.pointer(heap[i]) */\n      mload(0x40)\n      dup3\n      0xffffffff\n      and\n      0xe0\n      shl\n      dup2\n      mstore\n      0x04\n      add\n      tag_44\n      swap2\n      swap1\n      tag_17\n      jump\t// in\n    tag_44:\n      0x20\n      mload(0x40)\n      dup1\n      dup4\n      sub\n      dup2\n      dup7\n      gas\n      staticcall\n      iszero\n      dup1\n      iszero\n      tag_46\n      jumpi\n      returndatasize\n      0x00\n      dup1\n      returndatacopy\n      revert(0x00, returndatasize)\n    tag_46:\n      pop\n      pop\n      pop\n      pop\n      mload(0x40)\n      returndatasize\n      not(0x1f)\n      0x1f\n      dup3\n      add\n      and\n      dup3\n      add\n      dup1\n      0x40\n      mstore\n      pop\n      dup2\n      add\n      swap1\n      tag_47\n      swap2\n      swap1\n      tag_48\n      jump\t// in\n    tag_47:\n        /* \"W6/heappointer.sol\":1887:1893  result */\n      dup4\n        /* \"W6/heappointer.sol\":1894:1895  i */\n      dup3\n        /* \"W6/heappointer.sol\":1887:1896  result[i] */\n      dup2\n      mload\n      dup2\n      lt\n      tag_49\n      jumpi\n      tag_50\n      tag_42\n      jump\t// in\n    tag_50:\n    tag_49:\n      0x20\n      mul\n      0x20\n      add\n      add\n        /* \"W6/heappointer.sol\":1887:1923  result[i] = pointer.pointer(heap[i]) */\n      dup2\n      dup2\n      mstore\n      pop\n      pop\n        /* \"W6/heappointer.sol\":1951:1955  heap */\n      0x00\n        /* \"W6/heappointer.sol\":1956:1957  i */\n      dup2\n        /* \"W6/heappointer.sol\":1951:1958  heap[i] */\n      dup2\n      sload\n      dup2\n      lt\n      tag_51\n      jumpi\n      tag_52\n      tag_42\n      jump\t// in\n    tag_52:\n    tag_51:\n      swap1\n      0x00\n      mstore\n      keccak256(0x00, 0x20)\n      add\n      sload\n        /* \"W6/heappointer.sol\":1938:1945  result2 */\n      dup3\n        /* \"W6/heappointer.sol\":1946:1947  i */\n      dup3\n        /* \"W6/heappointer.sol\":1938:1948  result2[i] */\n      dup2\n      mload\n      dup2\n      lt\n      tag_54\n      jumpi\n      tag_55\n      tag_42\n      jump\t// in\n    tag_55:\n    tag_54:\n      0x20\n      mul\n      0x20\n      add\n      add\n        /* \"W6/heappointer.sol\":1938:1958  result2[i] = heap[i] */\n      dup2\n      dup2\n      mstore\n      pop\n      pop\n        /* \"W6/heappointer.sol\":1867:1870  i++ */\n      dup1\n      dup1\n      tag_56\n      swap1\n      tag_57\n      jump\t// in\n    tag_56:\n      swap2\n      pop\n      pop\n        /* \"W6/heappointer.sol\":1830:1970  for (uint256 i = 0; i < heap.length; i++) {... */\n      jump(tag_37)\n    tag_38:\n      pop\n        /* \"W6/heappointer.sol\":1988:1994  result */\n      dup2\n        /* \"W6/heappointer.sol\":1995:2002  result2 */\n      dup2\n        /* \"W6/heappointer.sol\":1980:2003  return (result,result2) */\n      swap4\n      pop\n      swap4\n      pop\n      pop\n      pop\n        /* \"W6/heappointer.sol\":1618:2011  function print() public view returns (uint256[] memory, uint256[] memory) {... */\n      swap1\n      swap2\n      jump\t// out\n        /* \"W6/heappointer.sol\":120:141  uint256[] public heap */\n    tag_15:\n      0x00\n      dup2\n      dup2\n      sload\n      dup2\n      lt\n      tag_58\n      jumpi\n      0x00\n      dup1\n      revert\n    tag_58:\n      swap1\n      0x00\n      mstore\n      keccak256(0x00, 0x20)\n      add\n      0x00\n      swap2\n      pop\n      swap1\n      pop\n      sload\n      dup2\n      jump\t// out\n        /* \"W6/heappointer.sol\":148:170  Pointer public pointer */\n    tag_19:\n      0x01\n      0x00\n      swap1\n      sload\n      swap1\n      0x0100\n      exp\n      swap1\n      div\n      0xffffffffffffffffffffffffffffffffffffffff\n      and\n      dup2\n      jump\t// out\n        /* \"W6/heappointer.sol\":367:822  function push(uint256 value) public returns (uint256) {... */\n    tag_24:\n        /* \"W6/heappointer.sol\":412:419  uint256 */\n      0x00\n        /* \"W6/heappointer.sol\":432:441  uint256 p */\n      dup1\n        /* \"W6/heappointer.sol\":444:451  pointer */\n      0x01\n      0x00\n      swap1\n      sload\n      swap1\n      0x0100\n      exp\n      swap1\n      div\n      0xffffffffffffffffffffffffffffffffffffffff\n      and\n        /* \"W6/heappointer.sol\":444:463  pointer.new_uint256 */\n      0xffffffffffffffffffffffffffffffffffffffff\n      and\n      0xe96aff0b\n        /* \"W6/heappointer.sol\":464:469  value */\n      dup5\n        /* \"W6/heappointer.sol\":444:470  pointer.new_uint256(value) */\n      mload(0x40)\n      dup3\n      0xffffffff\n      and\n      0xe0\n      shl\n      dup2\n      mstore\n      0x04\n      add\n      tag_61\n      swap2\n      swap1\n      tag_17\n      jump\t// in\n    tag_61:\n      0x20\n      mload(0x40)\n      dup1\n      dup4\n      sub\n      dup2\n      0x00\n      dup8\n      gas\n      call\n      iszero\n      dup1\n      iszero\n      tag_63\n      jumpi\n      returndatasize\n      0x00\n      dup1\n      returndatacopy\n      revert(0x00, returndatasize)\n    tag_63:\n      pop\n      pop\n      pop\n      pop\n      mload(0x40)\n      returndatasize\n      not(0x1f)\n      0x1f\n      dup3\n      add\n      and\n      dup3\n      add\n      dup1\n      0x40\n      mstore\n      pop\n      dup2\n      add\n      swap1\n      tag_64\n      swap2\n      swap1\n      tag_48\n      jump\t// in\n    tag_64:\n        /* \"W6/heappointer.sol\":432:470  uint256 p = pointer.new_uint256(value) */\n      swap1\n      pop\n        /* \"W6/heappointer.sol\":481:485  heap */\n      0x00\n        /* \"W6/heappointer.sol\":491:492  p */\n      dup2\n        /* \"W6/heappointer.sol\":481:493  heap.push(p) */\n      swap1\n      dup1\n      0x01\n      dup2\n      sload\n      add\n      dup1\n      dup3\n      sstore\n      dup1\n      swap2\n      pop\n      pop\n      0x01\n      swap1\n      sub\n      swap1\n      0x00\n      mstore\n      keccak256(0x00, 0x20)\n      add\n      0x00\n      swap1\n      swap2\n      swap1\n      swap2\n      swap1\n      swap2\n      pop\n      sstore\n        /* \"W6/heappointer.sol\":504:513  uint256 i */\n      0x00\n        /* \"W6/heappointer.sol\":530:531  1 */\n      0x01\n        /* \"W6/heappointer.sol\":516:520  heap */\n      0x00\n        /* \"W6/heappointer.sol\":516:527  heap.length */\n      dup1\n      sload\n      swap1\n      pop\n        /* \"W6/heappointer.sol\":516:531  heap.length - 1 */\n      tag_66\n      swap2\n      swap1\n      tag_67\n      jump\t// in\n    tag_66:\n        /* \"W6/heappointer.sol\":504:531  uint256 i = heap.length - 1 */\n      swap1\n      pop\n        /* \"W6/heappointer.sol\":542:796  while (i > 0) {... */\n    tag_68:\n        /* \"W6/heappointer.sol\":553:554  0 */\n      0x00\n        /* \"W6/heappointer.sol\":549:550  i */\n      dup2\n        /* \"W6/heappointer.sol\":549:554  i > 0 */\n      gt\n        /* \"W6/heappointer.sol\":542:796  while (i > 0) {... */\n      iszero\n      tag_69\n      jumpi\n        /* \"W6/heappointer.sol\":571:585  uint256 parent */\n      0x00\n        /* \"W6/heappointer.sol\":598:599  2 */\n      0x02\n        /* \"W6/heappointer.sol\":593:594  1 */\n      0x01\n        /* \"W6/heappointer.sol\":589:590  i */\n      dup4\n        /* \"W6/heappointer.sol\":589:594  i - 1 */\n      tag_70\n      swap2\n      swap1\n      tag_67\n      jump\t// in\n    tag_70:\n        /* \"W6/heappointer.sol\":588:599  (i - 1) / 2 */\n      tag_71\n      swap2\n      swap1\n      tag_72\n      jump\t// in\n    tag_71:\n        /* \"W6/heappointer.sol\":571:599  uint256 parent = (i - 1) / 2 */\n      swap1\n      pop\n        /* \"W6/heappointer.sol\":651:658  pointer */\n      0x01\n      0x00\n      swap1\n      sload\n      swap1\n      0x0100\n      exp\n      swap1\n      div\n      0xffffffffffffffffffffffffffffffffffffffff\n      and\n        /* \"W6/heappointer.sol\":651:666  pointer.pointer */\n      0xffffffffffffffffffffffffffffffffffffffff\n      and\n      0xf9d6a52e\n        /* \"W6/heappointer.sol\":667:671  heap */\n      0x00\n        /* \"W6/heappointer.sol\":672:673  i */\n      dup5\n        /* \"W6/heappointer.sol\":667:674  heap[i] */\n      dup2\n      sload\n      dup2\n      lt\n      tag_73\n      jumpi\n      tag_74\n      tag_42\n      jump\t// in\n    tag_74:\n    tag_73:\n      swap1\n      0x00\n      mstore\n      keccak256(0x00, 0x20)\n      add\n      sload\n        /* \"W6/heappointer.sol\":651:675  pointer.pointer(heap[i]) */\n      mload(0x40)\n      dup3\n      0xffffffff\n      and\n      0xe0\n      shl\n      dup2\n      mstore\n      0x04\n      add\n      tag_76\n      swap2\n      swap1\n      tag_17\n      jump\t// in\n    tag_76:\n      0x20\n      mload(0x40)\n      dup1\n      dup4\n      sub\n      dup2\n      dup7\n      gas\n      staticcall\n      iszero\n      dup1\n      iszero\n      tag_78\n      jumpi\n      returndatasize\n      0x00\n      dup1\n      returndatacopy\n      revert(0x00, returndatasize)\n    tag_78:\n      pop\n      pop\n      pop\n      pop\n      mload(0x40)\n      returndatasize\n      not(0x1f)\n      0x1f\n      dup3\n      add\n      and\n      dup3\n      add\n      dup1\n      0x40\n      mstore\n      pop\n      dup2\n      add\n      swap1\n      tag_79\n      swap2\n      swap1\n      tag_48\n      jump\t// in\n    tag_79:\n        /* \"W6/heappointer.sol\":618:625  pointer */\n      0x01\n      0x00\n      swap1\n      sload\n      swap1\n      0x0100\n      exp\n      swap1\n      div\n      0xffffffffffffffffffffffffffffffffffffffff\n      and\n        /* \"W6/heappointer.sol\":618:633  pointer.pointer */\n      0xffffffffffffffffffffffffffffffffffffffff\n      and\n      0xf9d6a52e\n        /* \"W6/heappointer.sol\":634:638  heap */\n      0x00\n        /* \"W6/heappointer.sol\":639:645  parent */\n      dup5\n        /* \"W6/heappointer.sol\":634:646  heap[parent] */\n      dup2\n      sload\n      dup2\n      lt\n      tag_80\n      jumpi\n      tag_81\n      tag_42\n      jump\t// in\n    tag_81:\n    tag_80:\n      swap1\n      0x00\n      mstore\n      keccak256(0x00, 0x20)\n      add\n      sload\n        /* \"W6/heappointer.sol\":618:647  pointer.pointer(heap[parent]) */\n      mload(0x40)\n      dup3\n      0xffffffff\n      and\n      0xe0\n      shl\n      dup2\n      mstore\n      0x04\n      add\n      tag_83\n      swap2\n      swap1\n      tag_17\n      jump\t// in\n    tag_83:\n      0x20\n      mload(0x40)\n      dup1\n      dup4\n      sub\n      dup2\n      dup7\n      gas\n      staticcall\n      iszero\n      dup1\n      iszero\n      tag_85\n      jumpi\n      returndatasize\n      0x00\n      dup1\n      returndatacopy\n      revert(0x00, returndatasize)\n    tag_85:\n      pop\n      pop\n      pop\n      pop\n      mload(0x40)\n      returndatasize\n      not(0x1f)\n      0x1f\n      dup3\n      add\n      and\n      dup3\n      add\n      dup1\n      0x40\n      mstore\n      pop\n      dup2\n      add\n      swap1\n      tag_86\n      swap2\n      swap1\n      tag_48\n      jump\t// in\n    tag_86:\n        /* \"W6/heappointer.sol\":618:675  pointer.pointer(heap[parent]) >= pointer.pointer(heap[i]) */\n      lt\n        /* \"W6/heappointer.sol\":614:717  if (pointer.pointer(heap[parent]) >= pointer.pointer(heap[i])) {... */\n      tag_87\n      jumpi\n        /* \"W6/heappointer.sol\":696:701  break */\n      pop\n      jump(tag_69)\n        /* \"W6/heappointer.sol\":614:717  if (pointer.pointer(heap[parent]) >= pointer.pointer(heap[i])) {... */\n    tag_87:\n        /* \"W6/heappointer.sol\":731:759  _swap(heap[parent], heap[i]) */\n      tag_88\n        /* \"W6/heappointer.sol\":737:741  heap */\n      0x00\n        /* \"W6/heappointer.sol\":742:748  parent */\n      dup3\n        /* \"W6/heappointer.sol\":737:749  heap[parent] */\n      dup2\n      sload\n      dup2\n      lt\n      tag_89\n      jumpi\n      tag_90\n      tag_42\n      jump\t// in\n    tag_90:\n    tag_89:\n      swap1\n      0x00\n      mstore\n      keccak256(0x00, 0x20)\n      add\n      sload\n        /* \"W6/heappointer.sol\":751:755  heap */\n      0x00\n        /* \"W6/heappointer.sol\":756:757  i */\n      dup5\n        /* \"W6/heappointer.sol\":751:758  heap[i] */\n      dup2\n      sload\n      dup2\n      lt\n      tag_92\n      jumpi\n      tag_93\n      tag_42\n      jump\t// in\n    tag_93:\n    tag_92:\n      swap1\n      0x00\n      mstore\n      keccak256(0x00, 0x20)\n      add\n      sload\n        /* \"W6/heappointer.sol\":731:736  _swap */\n      tag_95\n        /* \"W6/heappointer.sol\":731:759  _swap(heap[parent], heap[i]) */\n      jump\t// in\n    tag_88:\n        /* \"W6/heappointer.sol\":778:784  parent */\n      dup1\n        /* \"W6/heappointer.sol\":774:784  i = parent */\n      swap2\n      pop\n        /* \"W6/heappointer.sol\":556:796  {... */\n      pop\n        /* \"W6/heappointer.sol\":542:796  while (i > 0) {... */\n      jump(tag_68)\n    tag_69:\n        /* \"W6/heappointer.sol\":813:814  p */\n      dup2\n        /* \"W6/heappointer.sol\":806:814  return p */\n      swap3\n      pop\n      pop\n      pop\n        /* \"W6/heappointer.sol\":367:822  function push(uint256 value) public returns (uint256) {... */\n      swap2\n      swap1\n      pop\n      jump\t// out\n        /* \"W6/heappointer.sol\":1375:1612  function pop() public returns (uint256) {... */\n    tag_27:\n        /* \"W6/heappointer.sol\":1406:1413  uint256 */\n      0x00\n        /* \"W6/heappointer.sol\":1448:1449  0 */\n      dup1\n        /* \"W6/heappointer.sol\":1434:1438  heap */\n      0x00\n        /* \"W6/heappointer.sol\":1434:1445  heap.length */\n      dup1\n      sload\n      swap1\n      pop\n        /* \"W6/heappointer.sol\":1434:1449  heap.length > 0 */\n      gt\n        /* \"W6/heappointer.sol\":1426:1467  require(heap.length > 0, \"Heap is empty\") */\n      tag_97\n      jumpi\n      mload(0x40)\n      0x08c379a000000000000000000000000000000000000000000000000000000000\n      dup2\n      mstore\n      0x04\n      add\n      tag_98\n      swap1\n      tag_99\n      jump\t// in\n    tag_98:\n      mload(0x40)\n      dup1\n      swap2\n      sub\n      swap1\n      revert\n    tag_97:\n        /* \"W6/heappointer.sol\":1478:1489  uint256 top */\n      0x00\n        /* \"W6/heappointer.sol\":1492:1496  heap */\n      dup1\n        /* \"W6/heappointer.sol\":1497:1498  0 */\n      0x00\n        /* \"W6/heappointer.sol\":1492:1499  heap[0] */\n      dup2\n      sload\n      dup2\n      lt\n      tag_100\n      jumpi\n      tag_101\n      tag_42\n      jump\t// in\n    tag_101:\n    tag_100:\n      swap1\n      0x00\n      mstore\n      keccak256(0x00, 0x20)\n      add\n      sload\n        /* \"W6/heappointer.sol\":1478:1499  uint256 top = heap[0] */\n      swap1\n      pop\n        /* \"W6/heappointer.sol\":1520:1524  heap */\n      0x00\n        /* \"W6/heappointer.sol\":1539:1540  1 */\n      0x01\n        /* \"W6/heappointer.sol\":1525:1529  heap */\n      0x00\n        /* \"W6/heappointer.sol\":1525:1536  heap.length */\n      dup1\n      sload\n      swap1\n      pop\n        /* \"W6/heappointer.sol\":1525:1540  heap.length - 1 */\n      tag_103\n      swap2\n      swap1\n      tag_67\n      jump\t// in\n    tag_103:\n        /* \"W6/heappointer.sol\":1520:1541  heap[heap.length - 1] */\n      dup2\n      sload\n      dup2\n      lt\n      tag_104\n      jumpi\n      tag_105\n      tag_42\n      jump\t// in\n    tag_105:\n    tag_104:\n      swap1\n      0x00\n      mstore\n      keccak256(0x00, 0x20)\n      add\n      sload\n        /* \"W6/heappointer.sol\":1510:1514  heap */\n      0x00\n        /* \"W6/heappointer.sol\":1515:1516  0 */\n      dup1\n        /* \"W6/heappointer.sol\":1510:1517  heap[0] */\n      dup2\n      sload\n      dup2\n      lt\n      tag_107\n      jumpi\n      tag_108\n      tag_42\n      jump\t// in\n    tag_108:\n    tag_107:\n      swap1\n      0x00\n      mstore\n      keccak256(0x00, 0x20)\n      add\n        /* \"W6/heappointer.sol\":1510:1541  heap[0] = heap[heap.length - 1] */\n      dup2\n      swap1\n      sstore\n      pop\n        /* \"W6/heappointer.sol\":1552:1556  heap */\n      0x00\n        /* \"W6/heappointer.sol\":1552:1562  heap.pop() */\n      dup1\n      sload\n      dup1\n      tag_110\n      jumpi\n      tag_111\n      tag_112\n      jump\t// in\n    tag_111:\n    tag_110:\n      0x01\n      swap1\n      sub\n      dup2\n      dup2\n      swap1\n      0x00\n      mstore\n      keccak256(0x00, 0x20)\n      add\n      0x00\n      swap1\n      sstore\n      swap1\n      sstore\n        /* \"W6/heappointer.sol\":1573:1583  heapify(0) */\n      tag_114\n        /* \"W6/heappointer.sol\":1581:1582  0 */\n      0x00\n        /* \"W6/heappointer.sol\":1573:1580  heapify */\n      tag_115\n        /* \"W6/heappointer.sol\":1573:1583  heapify(0) */\n      jump\t// in\n    tag_114:\n        /* \"W6/heappointer.sol\":1601:1604  top */\n      dup1\n        /* \"W6/heappointer.sol\":1594:1604  return top */\n      swap2\n      pop\n      pop\n        /* \"W6/heappointer.sol\":1375:1612  function pop() public returns (uint256) {... */\n      swap1\n      jump\t// out\n        /* \"W6/heappointer.sol\":239:359  function _swap(uint256 a, uint256 b) private pure {... */\n    tag_95:\n        /* \"W6/heappointer.sol\":300:312  uint256 temp */\n      0x00\n        /* \"W6/heappointer.sol\":315:316  a */\n      dup3\n        /* \"W6/heappointer.sol\":300:316  uint256 temp = a */\n      swap1\n      pop\n        /* \"W6/heappointer.sol\":331:332  b */\n      dup2\n        /* \"W6/heappointer.sol\":327:332  a = b */\n      swap3\n      pop\n        /* \"W6/heappointer.sol\":347:351  temp */\n      dup1\n        /* \"W6/heappointer.sol\":343:351  b = temp */\n      swap2\n      pop\n        /* \"W6/heappointer.sol\":289:359  {... */\n      pop\n        /* \"W6/heappointer.sol\":239:359  function _swap(uint256 a, uint256 b) private pure {... */\n      pop\n      pop\n      jump\t// out\n        /* \"W6/heappointer.sol\":828:1369  function heapify(uint256 i) private {... */\n    tag_115:\n        /* \"W6/heappointer.sol\":875:887  uint256 left */\n      0x00\n        /* \"W6/heappointer.sol\":898:899  1 */\n      0x01\n        /* \"W6/heappointer.sol\":894:895  i */\n      dup3\n        /* \"W6/heappointer.sol\":890:891  2 */\n      0x02\n        /* \"W6/heappointer.sol\":890:895  2 * i */\n      tag_118\n      swap2\n      swap1\n      tag_119\n      jump\t// in\n    tag_118:\n        /* \"W6/heappointer.sol\":890:899  2 * i + 1 */\n      tag_120\n      swap2\n      swap1\n      tag_121\n      jump\t// in\n    tag_120:\n        /* \"W6/heappointer.sol\":875:899  uint256 left = 2 * i + 1 */\n      swap1\n      pop\n        /* \"W6/heappointer.sol\":910:923  uint256 right */\n      0x00\n        /* \"W6/heappointer.sol\":934:935  2 */\n      0x02\n        /* \"W6/heappointer.sol\":930:931  i */\n      dup4\n        /* \"W6/heappointer.sol\":926:927  2 */\n      0x02\n        /* \"W6/heappointer.sol\":926:931  2 * i */\n      tag_122\n      swap2\n      swap1\n      tag_119\n      jump\t// in\n    tag_122:\n        /* \"W6/heappointer.sol\":926:935  2 * i + 2 */\n      tag_123\n      swap2\n      swap1\n      tag_121\n      jump\t// in\n    tag_123:\n        /* \"W6/heappointer.sol\":910:935  uint256 right = 2 * i + 2 */\n      swap1\n      pop\n        /* \"W6/heappointer.sol\":946:961  uint256 largest */\n      0x00\n        /* \"W6/heappointer.sol\":964:965  i */\n      dup4\n        /* \"W6/heappointer.sol\":946:965  uint256 largest = i */\n      swap1\n      pop\n        /* \"W6/heappointer.sol\":987:991  heap */\n      0x00\n        /* \"W6/heappointer.sol\":987:998  heap.length */\n      dup1\n      sload\n      swap1\n      pop\n        /* \"W6/heappointer.sol\":980:984  left */\n      dup4\n        /* \"W6/heappointer.sol\":980:998  left < heap.length */\n      lt\n        /* \"W6/heappointer.sol\":980:1062  left < heap.length && pointer.pointer(heap[left]) > pointer.pointer(heap[largest]) */\n      dup1\n      iszero\n      tag_124\n      jumpi\n      pop\n        /* \"W6/heappointer.sol\":1032:1039  pointer */\n      0x01\n      0x00\n      swap1\n      sload\n      swap1\n      0x0100\n      exp\n      swap1\n      div\n      0xffffffffffffffffffffffffffffffffffffffff\n      and\n        /* \"W6/heappointer.sol\":1032:1047  pointer.pointer */\n      0xffffffffffffffffffffffffffffffffffffffff\n      and\n      0xf9d6a52e\n        /* \"W6/heappointer.sol\":1048:1052  heap */\n      0x00\n        /* \"W6/heappointer.sol\":1053:1060  largest */\n      dup4\n        /* \"W6/heappointer.sol\":1048:1061  heap[largest] */\n      dup2\n      sload\n      dup2\n      lt\n      tag_125\n      jumpi\n      tag_126\n      tag_42\n      jump\t// in\n    tag_126:\n    tag_125:\n      swap1\n      0x00\n      mstore\n      keccak256(0x00, 0x20)\n      add\n      sload\n        /* \"W6/heappointer.sol\":1032:1062  pointer.pointer(heap[largest]) */\n      mload(0x40)\n      dup3\n      0xffffffff\n      and\n      0xe0\n      shl\n      dup2\n      mstore\n      0x04\n      add\n      tag_128\n      swap2\n      swap1\n      tag_17\n      jump\t// in\n    tag_128:\n      0x20\n      mload(0x40)\n      dup1\n      dup4\n      sub\n      dup2\n      dup7\n      gas\n      staticcall\n      iszero\n      dup1\n      iszero\n      tag_130\n      jumpi\n      returndatasize\n      0x00\n      dup1\n      returndatacopy\n      revert(0x00, returndatasize)\n    tag_130:\n      pop\n      pop\n      pop\n      pop\n      mload(0x40)\n      returndatasize\n      not(0x1f)\n      0x1f\n      dup3\n      add\n      and\n      dup3\n      add\n      dup1\n      0x40\n      mstore\n      pop\n      dup2\n      add\n      swap1\n      tag_131\n      swap2\n      swap1\n      tag_48\n      jump\t// in\n    tag_131:\n        /* \"W6/heappointer.sol\":1002:1009  pointer */\n      0x01\n      0x00\n      swap1\n      sload\n      swap1\n      0x0100\n      exp\n      swap1\n      div\n      0xffffffffffffffffffffffffffffffffffffffff\n      and\n        /* \"W6/heappointer.sol\":1002:1017  pointer.pointer */\n      0xffffffffffffffffffffffffffffffffffffffff\n      and\n      0xf9d6a52e\n        /* \"W6/heappointer.sol\":1018:1022  heap */\n      0x00\n        /* \"W6/heappointer.sol\":1023:1027  left */\n      dup7\n        /* \"W6/heappointer.sol\":1018:1028  heap[left] */\n      dup2\n      sload\n      dup2\n      lt\n      tag_132\n      jumpi\n      tag_133\n      tag_42\n      jump\t// in\n    tag_133:\n    tag_132:\n      swap1\n      0x00\n      mstore\n      keccak256(0x00, 0x20)\n      add\n      sload\n        /* \"W6/heappointer.sol\":1002:1029  pointer.pointer(heap[left]) */\n      mload(0x40)\n      dup3\n      0xffffffff\n      and\n      0xe0\n      shl\n      dup2\n      mstore\n      0x04\n      add\n      tag_135\n      swap2\n      swap1\n      tag_17\n      jump\t// in\n    tag_135:\n      0x20\n      mload(0x40)\n      dup1\n      dup4\n      sub\n      dup2\n      dup7\n      gas\n      staticcall\n      iszero\n      dup1\n      iszero\n      tag_137\n      jumpi\n      returndatasize\n      0x00\n      dup1\n      returndatacopy\n      revert(0x00, returndatasize)\n    tag_137:\n      pop\n      pop\n      pop\n      pop\n      mload(0x40)\n      returndatasize\n      not(0x1f)\n      0x1f\n      dup3\n      add\n      and\n      dup3\n      add\n      dup1\n      0x40\n      mstore\n      pop\n      dup2\n      add\n      swap1\n      tag_138\n      swap2\n      swap1\n      tag_48\n      jump\t// in\n    tag_138:\n        /* \"W6/heappointer.sol\":1002:1062  pointer.pointer(heap[left]) > pointer.pointer(heap[largest]) */\n      gt\n        /* \"W6/heappointer.sol\":980:1062  left < heap.length && pointer.pointer(heap[left]) > pointer.pointer(heap[largest]) */\n    tag_124:\n        /* \"W6/heappointer.sol\":976:1105  if (left < heap.length && pointer.pointer(heap[left]) > pointer.pointer(heap[largest])) {... */\n      iszero\n      tag_139\n      jumpi\n        /* \"W6/heappointer.sol\":1089:1093  left */\n      dup3\n        /* \"W6/heappointer.sol\":1079:1093  largest = left */\n      swap1\n      pop\n        /* \"W6/heappointer.sol\":976:1105  if (left < heap.length && pointer.pointer(heap[left]) > pointer.pointer(heap[largest])) {... */\n    tag_139:\n        /* \"W6/heappointer.sol\":1127:1131  heap */\n      0x00\n        /* \"W6/heappointer.sol\":1127:1138  heap.length */\n      dup1\n      sload\n      swap1\n      pop\n        /* \"W6/heappointer.sol\":1119:1124  right */\n      dup3\n        /* \"W6/heappointer.sol\":1119:1138  right < heap.length */\n      lt\n        /* \"W6/heappointer.sol\":1119:1203  right < heap.length && pointer.pointer(heap[right]) > pointer.pointer(heap[largest]) */\n      dup1\n      iszero\n      tag_140\n      jumpi\n      pop\n        /* \"W6/heappointer.sol\":1173:1180  pointer */\n      0x01\n      0x00\n      swap1\n      sload\n      swap1\n      0x0100\n      exp\n      swap1\n      div\n      0xffffffffffffffffffffffffffffffffffffffff\n      and\n        /* \"W6/heappointer.sol\":1173:1188  pointer.pointer */\n      0xffffffffffffffffffffffffffffffffffffffff\n      and\n      0xf9d6a52e\n        /* \"W6/heappointer.sol\":1189:1193  heap */\n      0x00\n        /* \"W6/heappointer.sol\":1194:1201  largest */\n      dup4\n        /* \"W6/heappointer.sol\":1189:1202  heap[largest] */\n      dup2\n      sload\n      dup2\n      lt\n      tag_141\n      jumpi\n      tag_142\n      tag_42\n      jump\t// in\n    tag_142:\n    tag_141:\n      swap1\n      0x00\n      mstore\n      keccak256(0x00, 0x20)\n      add\n      sload\n        /* \"W6/heappointer.sol\":1173:1203  pointer.pointer(heap[largest]) */\n      mload(0x40)\n      dup3\n      0xffffffff\n      and\n      0xe0\n      shl\n      dup2\n      mstore\n      0x04\n      add\n      tag_144\n      swap2\n      swap1\n      tag_17\n      jump\t// in\n    tag_144:\n      0x20\n      mload(0x40)\n      dup1\n      dup4\n      sub\n      dup2\n      dup7\n      gas\n      staticcall\n      iszero\n      dup1\n      iszero\n      tag_146\n      jumpi\n      returndatasize\n      0x00\n      dup1\n      returndatacopy\n      revert(0x00, returndatasize)\n    tag_146:\n      pop\n      pop\n      pop\n      pop\n      mload(0x40)\n      returndatasize\n      not(0x1f)\n      0x1f\n      dup3\n      add\n      and\n      dup3\n      add\n      dup1\n      0x40\n      mstore\n      pop\n      dup2\n      add\n      swap1\n      tag_147\n      swap2\n      swap1\n      tag_48\n      jump\t// in\n    tag_147:\n        /* \"W6/heappointer.sol\":1142:1149  pointer */\n      0x01\n      0x00\n      swap1\n      sload\n      swap1\n      0x0100\n      exp\n      swap1\n      div\n      0xffffffffffffffffffffffffffffffffffffffff\n      and\n        /* \"W6/heappointer.sol\":1142:1157  pointer.pointer */\n      0xffffffffffffffffffffffffffffffffffffffff\n      and\n      0xf9d6a52e\n        /* \"W6/heappointer.sol\":1158:1162  heap */\n      0x00\n        /* \"W6/heappointer.sol\":1163:1168  right */\n      dup6\n        /* \"W6/heappointer.sol\":1158:1169  heap[right] */\n      dup2\n      sload\n      dup2\n      lt\n      tag_148\n      jumpi\n      tag_149\n      tag_42\n      jump\t// in\n    tag_149:\n    tag_148:\n      swap1\n      0x00\n      mstore\n      keccak256(0x00, 0x20)\n      add\n      sload\n        /* \"W6/heappointer.sol\":1142:1170  pointer.pointer(heap[right]) */\n      mload(0x40)\n      dup3\n      0xffffffff\n      and\n      0xe0\n      shl\n      dup2\n      mstore\n      0x04\n      add\n      tag_151\n      swap2\n      swap1\n      tag_17\n      jump\t// in\n    tag_151:\n      0x20\n      mload(0x40)\n      dup1\n      dup4\n      sub\n      dup2\n      dup7\n      gas\n      staticcall\n      iszero\n      dup1\n      iszero\n      tag_153\n      jumpi\n      returndatasize\n      0x00\n      dup1\n      returndatacopy\n      revert(0x00, returndatasize)\n    tag_153:\n      pop\n      pop\n      pop\n      pop\n      mload(0x40)\n      returndatasize\n      not(0x1f)\n      0x1f\n      dup3\n      add\n      and\n      dup3\n      add\n      dup1\n      0x40\n      mstore\n      pop\n      dup2\n      add\n      swap1\n      tag_154\n      swap2\n      swap1\n      tag_48\n      jump\t// in\n    tag_154:\n        /* \"W6/heappointer.sol\":1142:1203  pointer.pointer(heap[right]) > pointer.pointer(heap[largest]) */\n      gt\n        /* \"W6/heappointer.sol\":1119:1203  right < heap.length && pointer.pointer(heap[right]) > pointer.pointer(heap[largest]) */\n    tag_140:\n        /* \"W6/heappointer.sol\":1115:1247  if (right < heap.length && pointer.pointer(heap[right]) > pointer.pointer(heap[largest])) {... */\n      iszero\n      tag_155\n      jumpi\n        /* \"W6/heappointer.sol\":1230:1235  right */\n      dup2\n        /* \"W6/heappointer.sol\":1220:1235  largest = right */\n      swap1\n      pop\n        /* \"W6/heappointer.sol\":1115:1247  if (right < heap.length && pointer.pointer(heap[right]) > pointer.pointer(heap[largest])) {... */\n    tag_155:\n        /* \"W6/heappointer.sol\":1272:1273  i */\n      dup4\n        /* \"W6/heappointer.sol\":1261:1268  largest */\n      dup2\n        /* \"W6/heappointer.sol\":1261:1273  largest != i */\n      eq\n        /* \"W6/heappointer.sol\":1257:1362  if (largest != i) {... */\n      tag_156\n      jumpi\n        /* \"W6/heappointer.sol\":1290:1319  _swap(heap[i], heap[largest]) */\n      tag_157\n        /* \"W6/heappointer.sol\":1296:1300  heap */\n      0x00\n        /* \"W6/heappointer.sol\":1301:1302  i */\n      dup6\n        /* \"W6/heappointer.sol\":1296:1303  heap[i] */\n      dup2\n      sload\n      dup2\n      lt\n      tag_158\n      jumpi\n      tag_159\n      tag_42\n      jump\t// in\n    tag_159:\n    tag_158:\n      swap1\n      0x00\n      mstore\n      keccak256(0x00, 0x20)\n      add\n      sload\n        /* \"W6/heappointer.sol\":1305:1309  heap */\n      0x00\n        /* \"W6/heappointer.sol\":1310:1317  largest */\n      dup4\n        /* \"W6/heappointer.sol\":1305:1318  heap[largest] */\n      dup2\n      sload\n      dup2\n      lt\n      tag_161\n      jumpi\n      tag_162\n      tag_42\n      jump\t// in\n    tag_162:\n    tag_161:\n      swap1\n      0x00\n      mstore\n      keccak256(0x00, 0x20)\n      add\n      sload\n        /* \"W6/heappointer.sol\":1290:1295  _swap */\n      tag_95\n        /* \"W6/heappointer.sol\":1290:1319  _swap(heap[i], heap[largest]) */\n      jump\t// in\n    tag_157:\n        /* \"W6/heappointer.sol\":1334:1350  heapify(largest) */\n      tag_164\n        /* \"W6/heappointer.sol\":1342:1349  largest */\n      dup2\n        /* \"W6/heappointer.sol\":1334:1341  heapify */\n      tag_115\n        /* \"W6/heappointer.sol\":1334:1350  heapify(largest) */\n      jump\t// in\n    tag_164:\n        /* \"W6/heappointer.sol\":1257:1362  if (largest != i) {... */\n    tag_156:\n        /* \"W6/heappointer.sol\":864:1369  {... */\n      pop\n      pop\n      pop\n        /* \"W6/heappointer.sol\":828:1369  function heapify(uint256 i) private {... */\n      pop\n      jump\t// out\n        /* \"#utility.yul\":7:121   */\n    tag_165:\n        /* \"#utility.yul\":74:80   */\n      0x00\n        /* \"#utility.yul\":108:113   */\n      dup2\n        /* \"#utility.yul\":102:114   */\n      mload\n        /* \"#utility.yul\":92:114   */\n      swap1\n      pop\n        /* \"#utility.yul\":7:121   */\n      swap2\n      swap1\n      pop\n      jump\t// out\n        /* \"#utility.yul\":127:311   */\n    tag_166:\n        /* \"#utility.yul\":226:237   */\n      0x00\n        /* \"#utility.yul\":260:266   */\n      dup3\n        /* \"#utility.yul\":255:258   */\n      dup3\n        /* \"#utility.yul\":248:267   */\n      mstore\n        /* \"#utility.yul\":300:304   */\n      0x20\n        /* \"#utility.yul\":295:298   */\n      dup3\n        /* \"#utility.yul\":291:305   */\n      add\n        /* \"#utility.yul\":276:305   */\n      swap1\n      pop\n        /* \"#utility.yul\":127:311   */\n      swap3\n      swap2\n      pop\n      pop\n      jump\t// out\n        /* \"#utility.yul\":317:449   */\n    tag_167:\n        /* \"#utility.yul\":384:388   */\n      0x00\n        /* \"#utility.yul\":407:410   */\n      dup2\n        /* \"#utility.yul\":399:410   */\n      swap1\n      pop\n        /* \"#utility.yul\":437:441   */\n      0x20\n        /* \"#utility.yul\":432:435   */\n      dup3\n        /* \"#utility.yul\":428:442   */\n      add\n        /* \"#utility.yul\":420:442   */\n      swap1\n      pop\n        /* \"#utility.yul\":317:449   */\n      swap2\n      swap1\n      pop\n      jump\t// out\n        /* \"#utility.yul\":455:532   */\n    tag_168:\n        /* \"#utility.yul\":492:499   */\n      0x00\n        /* \"#utility.yul\":521:526   */\n      dup2\n        /* \"#utility.yul\":510:526   */\n      swap1\n      pop\n        /* \"#utility.yul\":455:532   */\n      swap2\n      swap1\n      pop\n      jump\t// out\n        /* \"#utility.yul\":538:646   */\n    tag_169:\n        /* \"#utility.yul\":615:639   */\n      tag_197\n        /* \"#utility.yul\":633:638   */\n      dup2\n        /* \"#utility.yul\":615:639   */\n      tag_168\n      jump\t// in\n    tag_197:\n        /* \"#utility.yul\":610:613   */\n      dup3\n        /* \"#utility.yul\":603:640   */\n      mstore\n        /* \"#utility.yul\":538:646   */\n      pop\n      pop\n      jump\t// out\n        /* \"#utility.yul\":652:831   */\n    tag_170:\n        /* \"#utility.yul\":721:731   */\n      0x00\n        /* \"#utility.yul\":742:788   */\n      tag_199\n        /* \"#utility.yul\":784:787   */\n      dup4\n        /* \"#utility.yul\":776:782   */\n      dup4\n        /* \"#utility.yul\":742:788   */\n      tag_169\n      jump\t// in\n    tag_199:\n        /* \"#utility.yul\":820:824   */\n      0x20\n        /* \"#utility.yul\":815:818   */\n      dup4\n        /* \"#utility.yul\":811:825   */\n      add\n        /* \"#utility.yul\":797:825   */\n      swap1\n      pop\n        /* \"#utility.yul\":652:831   */\n      swap3\n      swap2\n      pop\n      pop\n      jump\t// out\n        /* \"#utility.yul\":837:950   */\n    tag_171:\n        /* \"#utility.yul\":907:911   */\n      0x00\n        /* \"#utility.yul\":939:943   */\n      0x20\n        /* \"#utility.yul\":934:937   */\n      dup3\n        /* \"#utility.yul\":930:944   */\n      add\n        /* \"#utility.yul\":922:944   */\n      swap1\n      pop\n        /* \"#utility.yul\":837:950   */\n      swap2\n      swap1\n      pop\n      jump\t// out\n        /* \"#utility.yul\":986:1718   */\n    tag_172:\n        /* \"#utility.yul\":1105:1108   */\n      0x00\n        /* \"#utility.yul\":1134:1188   */\n      tag_202\n        /* \"#utility.yul\":1182:1187   */\n      dup3\n        /* \"#utility.yul\":1134:1188   */\n      tag_165\n      jump\t// in\n    tag_202:\n        /* \"#utility.yul\":1204:1290   */\n      tag_203\n        /* \"#utility.yul\":1283:1289   */\n      dup2\n        /* \"#utility.yul\":1278:1281   */\n      dup6\n        /* \"#utility.yul\":1204:1290   */\n      tag_166\n      jump\t// in\n    tag_203:\n        /* \"#utility.yul\":1197:1290   */\n      swap4\n      pop\n        /* \"#utility.yul\":1314:1370   */\n      tag_204\n        /* \"#utility.yul\":1364:1369   */\n      dup4\n        /* \"#utility.yul\":1314:1370   */\n      tag_167\n      jump\t// in\n    tag_204:\n        /* \"#utility.yul\":1393:1400   */\n      dup1\n        /* \"#utility.yul\":1424:1425   */\n      0x00\n        /* \"#utility.yul\":1409:1693   */\n    tag_205:\n        /* \"#utility.yul\":1434:1440   */\n      dup4\n        /* \"#utility.yul\":1431:1432   */\n      dup2\n        /* \"#utility.yul\":1428:1441   */\n      lt\n        /* \"#utility.yul\":1409:1693   */\n      iszero\n      tag_207\n      jumpi\n        /* \"#utility.yul\":1510:1516   */\n      dup2\n        /* \"#utility.yul\":1504:1517   */\n      mload\n        /* \"#utility.yul\":1537:1600   */\n      tag_208\n        /* \"#utility.yul\":1596:1599   */\n      dup9\n        /* \"#utility.yul\":1581:1594   */\n      dup3\n        /* \"#utility.yul\":1537:1600   */\n      tag_170\n      jump\t// in\n    tag_208:\n        /* \"#utility.yul\":1530:1600   */\n      swap8\n      pop\n        /* \"#utility.yul\":1623:1683   */\n      tag_209\n        /* \"#utility.yul\":1676:1682   */\n      dup4\n        /* \"#utility.yul\":1623:1683   */\n      tag_171\n      jump\t// in\n    tag_209:\n        /* \"#utility.yul\":1613:1683   */\n      swap3\n      pop\n        /* \"#utility.yul\":1469:1693   */\n      pop\n        /* \"#utility.yul\":1456:1457   */\n      0x01\n        /* \"#utility.yul\":1453:1454   */\n      dup2\n        /* \"#utility.yul\":1449:1458   */\n      add\n        /* \"#utility.yul\":1444:1458   */\n      swap1\n      pop\n        /* \"#utility.yul\":1409:1693   */\n      jump(tag_205)\n    tag_207:\n        /* \"#utility.yul\":1413:1427   */\n      pop\n        /* \"#utility.yul\":1709:1712   */\n      dup6\n        /* \"#utility.yul\":1702:1712   */\n      swap4\n      pop\n        /* \"#utility.yul\":1110:1718   */\n      pop\n      pop\n      pop\n        /* \"#utility.yul\":986:1718   */\n      swap3\n      swap2\n      pop\n      pop\n      jump\t// out\n        /* \"#utility.yul\":1724:2358   */\n    tag_11:\n        /* \"#utility.yul\":1945:1949   */\n      0x00\n        /* \"#utility.yul\":1983:1985   */\n      0x40\n        /* \"#utility.yul\":1972:1981   */\n      dup3\n        /* \"#utility.yul\":1968:1986   */\n      add\n        /* \"#utility.yul\":1960:1986   */\n      swap1\n      pop\n        /* \"#utility.yul\":2032:2041   */\n      dup2\n        /* \"#utility.yul\":2026:2030   */\n      dup2\n        /* \"#utility.yul\":2022:2042   */\n      sub\n        /* \"#utility.yul\":2018:2019   */\n      0x00\n        /* \"#utility.yul\":2007:2016   */\n      dup4\n        /* \"#utility.yul\":2003:2020   */\n      add\n        /* \"#utility.yul\":1996:2043   */\n      mstore\n        /* \"#utility.yul\":2060:2168   */\n      tag_211\n        /* \"#utility.yul\":2163:2167   */\n      dup2\n        /* \"#utility.yul\":2154:2160   */\n      dup6\n        /* \"#utility.yul\":2060:2168   */\n      tag_172\n      jump\t// in\n    tag_211:\n        /* \"#utility.yul\":2052:2168   */\n      swap1\n      pop\n        /* \"#utility.yul\":2215:2224   */\n      dup2\n        /* \"#utility.yul\":2209:2213   */\n      dup2\n        /* \"#utility.yul\":2205:2225   */\n      sub\n        /* \"#utility.yul\":2200:2202   */\n      0x20\n        /* \"#utility.yul\":2189:2198   */\n      dup4\n        /* \"#utility.yul\":2185:2203   */\n      add\n        /* \"#utility.yul\":2178:2226   */\n      mstore\n        /* \"#utility.yul\":2243:2351   */\n      tag_212\n        /* \"#utility.yul\":2346:2350   */\n      dup2\n        /* \"#utility.yul\":2337:2343   */\n      dup5\n        /* \"#utility.yul\":2243:2351   */\n      tag_172\n      jump\t// in\n    tag_212:\n        /* \"#utility.yul\":2235:2351   */\n      swap1\n      pop\n        /* \"#utility.yul\":1724:2358   */\n      swap4\n      swap3\n      pop\n      pop\n      pop\n      jump\t// out\n        /* \"#utility.yul\":2445:2562   */\n    tag_174:\n        /* \"#utility.yul\":2554:2555   */\n      0x00\n        /* \"#utility.yul\":2551:2552   */\n      dup1\n        /* \"#utility.yul\":2544:2556   */\n      revert\n        /* \"#utility.yul\":2691:2813   */\n    tag_176:\n        /* \"#utility.yul\":2764:2788   */\n      tag_217\n        /* \"#utility.yul\":2782:2787   */\n      dup2\n        /* \"#utility.yul\":2764:2788   */\n      tag_168\n      jump\t// in\n    tag_217:\n        /* \"#utility.yul\":2757:2762   */\n      dup2\n        /* \"#utility.yul\":2754:2789   */\n      eq\n        /* \"#utility.yul\":2744:2807   */\n      tag_218\n      jumpi\n        /* \"#utility.yul\":2803:2804   */\n      0x00\n        /* \"#utility.yul\":2800:2801   */\n      dup1\n        /* \"#utility.yul\":2793:2805   */\n      revert\n        /* \"#utility.yul\":2744:2807   */\n    tag_218:\n        /* \"#utility.yul\":2691:2813   */\n      pop\n      jump\t// out\n        /* \"#utility.yul\":2819:2958   */\n    tag_177:\n        /* \"#utility.yul\":2865:2870   */\n      0x00\n        /* \"#utility.yul\":2903:2909   */\n      dup2\n        /* \"#utility.yul\":2890:2910   */\n      calldataload\n        /* \"#utility.yul\":2881:2910   */\n      swap1\n      pop\n        /* \"#utility.yul\":2919:2952   */\n      tag_220\n        /* \"#utility.yul\":2946:2951   */\n      dup2\n        /* \"#utility.yul\":2919:2952   */\n      tag_176\n      jump\t// in\n    tag_220:\n        /* \"#utility.yul\":2819:2958   */\n      swap3\n      swap2\n      pop\n      pop\n      jump\t// out\n        /* \"#utility.yul\":2964:3293   */\n    tag_14:\n        /* \"#utility.yul\":3023:3029   */\n      0x00\n        /* \"#utility.yul\":3072:3074   */\n      0x20\n        /* \"#utility.yul\":3060:3069   */\n      dup3\n        /* \"#utility.yul\":3051:3058   */\n      dup5\n        /* \"#utility.yul\":3047:3070   */\n      sub\n        /* \"#utility.yul\":3043:3075   */\n      slt\n        /* \"#utility.yul\":3040:3159   */\n      iszero\n      tag_222\n      jumpi\n        /* \"#utility.yul\":3078:3157   */\n      tag_223\n      tag_174\n      jump\t// in\n    tag_223:\n        /* \"#utility.yul\":3040:3159   */\n    tag_222:\n        /* \"#utility.yul\":3198:3199   */\n      0x00\n        /* \"#utility.yul\":3223:3276   */\n      tag_224\n        /* \"#utility.yul\":3268:3275   */\n      dup5\n        /* \"#utility.yul\":3259:3265   */\n      dup3\n        /* \"#utility.yul\":3248:3257   */\n      dup6\n        /* \"#utility.yul\":3244:3266   */\n      add\n        /* \"#utility.yul\":3223:3276   */\n      tag_177\n      jump\t// in\n    tag_224:\n        /* \"#utility.yul\":3213:3276   */\n      swap2\n      pop\n        /* \"#utility.yul\":3169:3286   */\n      pop\n        /* \"#utility.yul\":2964:3293   */\n      swap3\n      swap2\n      pop\n      pop\n      jump\t// out\n        /* \"#utility.yul\":3299:3417   */\n    tag_178:\n        /* \"#utility.yul\":3386:3410   */\n      tag_226\n        /* \"#utility.yul\":3404:3409   */\n      dup2\n        /* \"#utility.yul\":3386:3410   */\n      tag_168\n      jump\t// in\n    tag_226:\n        /* \"#utility.yul\":3381:3384   */\n      dup3\n        /* \"#utility.yul\":3374:3411   */\n      mstore\n        /* \"#utility.yul\":3299:3417   */\n      pop\n      pop\n      jump\t// out\n        /* \"#utility.yul\":3423:3645   */\n    tag_17:\n        /* \"#utility.yul\":3516:3520   */\n      0x00\n        /* \"#utility.yul\":3554:3556   */\n      0x20\n        /* \"#utility.yul\":3543:3552   */\n      dup3\n        /* \"#utility.yul\":3539:3557   */\n      add\n        /* \"#utility.yul\":3531:3557   */\n      swap1\n      pop\n        /* \"#utility.yul\":3567:3638   */\n      tag_228\n        /* \"#utility.yul\":3635:3636   */\n      0x00\n        /* \"#utility.yul\":3624:3633   */\n      dup4\n        /* \"#utility.yul\":3620:3637   */\n      add\n        /* \"#utility.yul\":3611:3617   */\n      dup5\n        /* \"#utility.yul\":3567:3638   */\n      tag_178\n      jump\t// in\n    tag_228:\n        /* \"#utility.yul\":3423:3645   */\n      swap3\n      swap2\n      pop\n      pop\n      jump\t// out\n        /* \"#utility.yul\":3651:3777   */\n    tag_179:\n        /* \"#utility.yul\":3688:3695   */\n      0x00\n        /* \"#utility.yul\":3728:3770   */\n      0xffffffffffffffffffffffffffffffffffffffff\n        /* \"#utility.yul\":3721:3726   */\n      dup3\n        /* \"#utility.yul\":3717:3771   */\n      and\n        /* \"#utility.yul\":3706:3771   */\n      swap1\n      pop\n        /* \"#utility.yul\":3651:3777   */\n      swap2\n      swap1\n      pop\n      jump\t// out\n        /* \"#utility.yul\":3783:3843   */\n    tag_180:\n        /* \"#utility.yul\":3811:3814   */\n      0x00\n        /* \"#utility.yul\":3832:3837   */\n      dup2\n        /* \"#utility.yul\":3825:3837   */\n      swap1\n      pop\n        /* \"#utility.yul\":3783:3843   */\n      swap2\n      swap1\n      pop\n      jump\t// out\n        /* \"#utility.yul\":3849:3991   */\n    tag_181:\n        /* \"#utility.yul\":3899:3908   */\n      0x00\n        /* \"#utility.yul\":3932:3985   */\n      tag_232\n        /* \"#utility.yul\":3950:3984   */\n      tag_233\n        /* \"#utility.yul\":3959:3983   */\n      tag_234\n        /* \"#utility.yul\":3977:3982   */\n      dup5\n        /* \"#utility.yul\":3959:3983   */\n      tag_179\n      jump\t// in\n    tag_234:\n        /* \"#utility.yul\":3950:3984   */\n      tag_180\n      jump\t// in\n    tag_233:\n        /* \"#utility.yul\":3932:3985   */\n      tag_179\n      jump\t// in\n    tag_232:\n        /* \"#utility.yul\":3919:3985   */\n      swap1\n      pop\n        /* \"#utility.yul\":3849:3991   */\n      swap2\n      swap1\n      pop\n      jump\t// out\n        /* \"#utility.yul\":3997:4123   */\n    tag_182:\n        /* \"#utility.yul\":4047:4056   */\n      0x00\n        /* \"#utility.yul\":4080:4117   */\n      tag_236\n        /* \"#utility.yul\":4111:4116   */\n      dup3\n        /* \"#utility.yul\":4080:4117   */\n      tag_181\n      jump\t// in\n    tag_236:\n        /* \"#utility.yul\":4067:4117   */\n      swap1\n      pop\n        /* \"#utility.yul\":3997:4123   */\n      swap2\n      swap1\n      pop\n      jump\t// out\n        /* \"#utility.yul\":4129:4270   */\n    tag_183:\n        /* \"#utility.yul\":4194:4203   */\n      0x00\n        /* \"#utility.yul\":4227:4264   */\n      tag_238\n        /* \"#utility.yul\":4258:4263   */\n      dup3\n        /* \"#utility.yul\":4227:4264   */\n      tag_182\n      jump\t// in\n    tag_238:\n        /* \"#utility.yul\":4214:4264   */\n      swap1\n      pop\n        /* \"#utility.yul\":4129:4270   */\n      swap2\n      swap1\n      pop\n      jump\t// out\n        /* \"#utility.yul\":4276:4437   */\n    tag_184:\n        /* \"#utility.yul\":4378:4430   */\n      tag_240\n        /* \"#utility.yul\":4424:4429   */\n      dup2\n        /* \"#utility.yul\":4378:4430   */\n      tag_183\n      jump\t// in\n    tag_240:\n        /* \"#utility.yul\":4373:4376   */\n      dup3\n        /* \"#utility.yul\":4366:4431   */\n      mstore\n        /* \"#utility.yul\":4276:4437   */\n      pop\n      pop\n      jump\t// out\n        /* \"#utility.yul\":4443:4695   */\n    tag_21:\n        /* \"#utility.yul\":4551:4555   */\n      0x00\n        /* \"#utility.yul\":4589:4591   */\n      0x20\n        /* \"#utility.yul\":4578:4587   */\n      dup3\n        /* \"#utility.yul\":4574:4592   */\n      add\n        /* \"#utility.yul\":4566:4592   */\n      swap1\n      pop\n        /* \"#utility.yul\":4602:4688   */\n      tag_242\n        /* \"#utility.yul\":4685:4686   */\n      0x00\n        /* \"#utility.yul\":4674:4683   */\n      dup4\n        /* \"#utility.yul\":4670:4687   */\n      add\n        /* \"#utility.yul\":4661:4667   */\n      dup5\n        /* \"#utility.yul\":4602:4688   */\n      tag_184\n      jump\t// in\n    tag_242:\n        /* \"#utility.yul\":4443:4695   */\n      swap3\n      swap2\n      pop\n      pop\n      jump\t// out\n        /* \"#utility.yul\":4701:4881   */\n    tag_32:\n        /* \"#utility.yul\":4749:4826   */\n      0x4e487b7100000000000000000000000000000000000000000000000000000000\n        /* \"#utility.yul\":4746:4747   */\n      0x00\n        /* \"#utility.yul\":4739:4827   */\n      mstore\n        /* \"#utility.yul\":4846:4850   */\n      0x41\n        /* \"#utility.yul\":4843:4844   */\n      0x04\n        /* \"#utility.yul\":4836:4851   */\n      mstore\n        /* \"#utility.yul\":4870:4874   */\n      0x24\n        /* \"#utility.yul\":4867:4868   */\n      0x00\n        /* \"#utility.yul\":4860:4875   */\n      revert\n        /* \"#utility.yul\":4887:5067   */\n    tag_42:\n        /* \"#utility.yul\":4935:5012   */\n      0x4e487b7100000000000000000000000000000000000000000000000000000000\n        /* \"#utility.yul\":4932:4933   */\n      0x00\n        /* \"#utility.yul\":4925:5013   */\n      mstore\n        /* \"#utility.yul\":5032:5036   */\n      0x32\n        /* \"#utility.yul\":5029:5030   */\n      0x04\n        /* \"#utility.yul\":5022:5037   */\n      mstore\n        /* \"#utility.yul\":5056:5060   */\n      0x24\n        /* \"#utility.yul\":5053:5054   */\n      0x00\n        /* \"#utility.yul\":5046:5061   */\n      revert\n        /* \"#utility.yul\":5073:5216   */\n    tag_185:\n        /* \"#utility.yul\":5130:5135   */\n      0x00\n        /* \"#utility.yul\":5161:5167   */\n      dup2\n        /* \"#utility.yul\":5155:5168   */\n      mload\n        /* \"#utility.yul\":5146:5168   */\n      swap1\n      pop\n        /* \"#utility.yul\":5177:5210   */\n      tag_246\n        /* \"#utility.yul\":5204:5209   */\n      dup2\n        /* \"#utility.yul\":5177:5210   */\n      tag_176\n      jump\t// in\n    tag_246:\n        /* \"#utility.yul\":5073:5216   */\n      swap3\n      swap2\n      pop\n      pop\n      jump\t// out\n        /* \"#utility.yul\":5222:5573   */\n    tag_48:\n        /* \"#utility.yul\":5292:5298   */\n      0x00\n        /* \"#utility.yul\":5341:5343   */\n      0x20\n        /* \"#utility.yul\":5329:5338   */\n      dup3\n        /* \"#utility.yul\":5320:5327   */\n      dup5\n        /* \"#utility.yul\":5316:5339   */\n      sub\n        /* \"#utility.yul\":5312:5344   */\n      slt\n        /* \"#utility.yul\":5309:5428   */\n      iszero\n      tag_248\n      jumpi\n        /* \"#utility.yul\":5347:5426   */\n      tag_249\n      tag_174\n      jump\t// in\n    tag_249:\n        /* \"#utility.yul\":5309:5428   */\n    tag_248:\n        /* \"#utility.yul\":5467:5468   */\n      0x00\n        /* \"#utility.yul\":5492:5556   */\n      tag_250\n        /* \"#utility.yul\":5548:5555   */\n      dup5\n        /* \"#utility.yul\":5539:5545   */\n      dup3\n        /* \"#utility.yul\":5528:5537   */\n      dup6\n        /* \"#utility.yul\":5524:5546   */\n      add\n        /* \"#utility.yul\":5492:5556   */\n      tag_185\n      jump\t// in\n    tag_250:\n        /* \"#utility.yul\":5482:5556   */\n      swap2\n      pop\n        /* \"#utility.yul\":5438:5566   */\n      pop\n        /* \"#utility.yul\":5222:5573   */\n      swap3\n      swap2\n      pop\n      pop\n      jump\t// out\n        /* \"#utility.yul\":5579:5759   */\n    tag_186:\n        /* \"#utility.yul\":5627:5704   */\n      0x4e487b7100000000000000000000000000000000000000000000000000000000\n        /* \"#utility.yul\":5624:5625   */\n      0x00\n        /* \"#utility.yul\":5617:5705   */\n      mstore\n        /* \"#utility.yul\":5724:5728   */\n      0x11\n        /* \"#utility.yul\":5721:5722   */\n      0x04\n        /* \"#utility.yul\":5714:5729   */\n      mstore\n        /* \"#utility.yul\":5748:5752   */\n      0x24\n        /* \"#utility.yul\":5745:5746   */\n      0x00\n        /* \"#utility.yul\":5738:5753   */\n      revert\n        /* \"#utility.yul\":5765:5998   */\n    tag_57:\n        /* \"#utility.yul\":5804:5807   */\n      0x00\n        /* \"#utility.yul\":5827:5851   */\n      tag_253\n        /* \"#utility.yul\":5845:5850   */\n      dup3\n        /* \"#utility.yul\":5827:5851   */\n      tag_168\n      jump\t// in\n    tag_253:\n        /* \"#utility.yul\":5818:5851   */\n      swap2\n      pop\n        /* \"#utility.yul\":5873:5939   */\n      0xffffffffffffffffffffffffffffffffffffffffffffffffffffffffffffffff\n        /* \"#utility.yul\":5866:5871   */\n      dup3\n        /* \"#utility.yul\":5863:5940   */\n      sub\n        /* \"#utility.yul\":5860:5963   */\n      tag_254\n      jumpi\n        /* \"#utility.yul\":5943:5961   */\n      tag_255\n      tag_186\n      jump\t// in\n    tag_255:\n        /* \"#utility.yul\":5860:5963   */\n    tag_254:\n        /* \"#utility.yul\":5990:5991   */\n      0x01\n        /* \"#utility.yul\":5983:5988   */\n      dup3\n        /* \"#utility.yul\":5979:5992   */\n      add\n        /* \"#utility.yul\":5972:5992   */\n      swap1\n      pop\n        /* \"#utility.yul\":5765:5998   */\n      swap2\n      swap1\n      pop\n      jump\t// out\n        /* \"#utility.yul\":6004:6198   */\n    tag_67:\n        /* \"#utility.yul\":6044:6048   */\n      0x00\n        /* \"#utility.yul\":6064:6084   */\n      tag_257\n        /* \"#utility.yul\":6082:6083   */\n      dup3\n        /* \"#utility.yul\":6064:6084   */\n      tag_168\n      jump\t// in\n    tag_257:\n        /* \"#utility.yul\":6059:6084   */\n      swap2\n      pop\n        /* \"#utility.yul\":6098:6118   */\n      tag_258\n        /* \"#utility.yul\":6116:6117   */\n      dup4\n        /* \"#utility.yul\":6098:6118   */\n      tag_168\n      jump\t// in\n    tag_258:\n        /* \"#utility.yul\":6093:6118   */\n      swap3\n      pop\n        /* \"#utility.yul\":6142:6143   */\n      dup3\n        /* \"#utility.yul\":6139:6140   */\n      dup3\n        /* \"#utility.yul\":6135:6144   */\n      sub\n        /* \"#utility.yul\":6127:6144   */\n      swap1\n      pop\n        /* \"#utility.yul\":6166:6167   */\n      dup2\n        /* \"#utility.yul\":6160:6164   */\n      dup2\n        /* \"#utility.yul\":6157:6168   */\n      gt\n        /* \"#utility.yul\":6154:6191   */\n      iszero\n      tag_259\n      jumpi\n        /* \"#utility.yul\":6171:6189   */\n      tag_260\n      tag_186\n      jump\t// in\n    tag_260:\n        /* \"#utility.yul\":6154:6191   */\n    tag_259:\n        /* \"#utility.yul\":6004:6198   */\n      swap3\n      swap2\n      pop\n      pop\n      jump\t// out\n        /* \"#utility.yul\":6204:6384   */\n    tag_187:\n        /* \"#utility.yul\":6252:6329   */\n      0x4e487b7100000000000000000000000000000000000000000000000000000000\n        /* \"#utility.yul\":6249:6250   */\n      0x00\n        /* \"#utility.yul\":6242:6330   */\n      mstore\n        /* \"#utility.yul\":6349:6353   */\n      0x12\n        /* \"#utility.yul\":6346:6347   */\n      0x04\n        /* \"#utility.yul\":6339:6354   */\n      mstore\n        /* \"#utility.yul\":6373:6377   */\n      0x24\n        /* \"#utility.yul\":6370:6371   */\n      0x00\n        /* \"#utility.yul\":6363:6378   */\n      revert\n        /* \"#utility.yul\":6390:6575   */\n    tag_72:\n        /* \"#utility.yul\":6430:6431   */\n      0x00\n        /* \"#utility.yul\":6447:6467   */\n      tag_263\n        /* \"#utility.yul\":6465:6466   */\n      dup3\n        /* \"#utility.yul\":6447:6467   */\n      tag_168\n      jump\t// in\n    tag_263:\n        /* \"#utility.yul\":6442:6467   */\n      swap2\n      pop\n        /* \"#utility.yul\":6481:6501   */\n      tag_264\n        /* \"#utility.yul\":6499:6500   */\n      dup4\n        /* \"#utility.yul\":6481:6501   */\n      tag_168\n      jump\t// in\n    tag_264:\n        /* \"#utility.yul\":6476:6501   */\n      swap3\n      pop\n        /* \"#utility.yul\":6520:6521   */\n      dup3\n        /* \"#utility.yul\":6510:6545   */\n      tag_265\n      jumpi\n        /* \"#utility.yul\":6525:6543   */\n      tag_266\n      tag_187\n      jump\t// in\n    tag_266:\n        /* \"#utility.yul\":6510:6545   */\n    tag_265:\n        /* \"#utility.yul\":6567:6568   */\n      dup3\n        /* \"#utility.yul\":6564:6565   */\n      dup3\n        /* \"#utility.yul\":6560:6569   */\n      div\n        /* \"#utility.yul\":6555:6569   */\n      swap1\n      pop\n        /* \"#utility.yul\":6390:6575   */\n      swap3\n      swap2\n      pop\n      pop\n      jump\t// out\n        /* \"#utility.yul\":6581:6750   */\n    tag_188:\n        /* \"#utility.yul\":6665:6676   */\n      0x00\n        /* \"#utility.yul\":6699:6705   */\n      dup3\n        /* \"#utility.yul\":6694:6697   */\n      dup3\n        /* \"#utility.yul\":6687:6706   */\n      mstore\n        /* \"#utility.yul\":6739:6743   */\n      0x20\n        /* \"#utility.yul\":6734:6737   */\n      dup3\n        /* \"#utility.yul\":6730:6744   */\n      add\n        /* \"#utility.yul\":6715:6744   */\n      swap1\n      pop\n        /* \"#utility.yul\":6581:6750   */\n      swap3\n      swap2\n      pop\n      pop\n      jump\t// out\n        /* \"#utility.yul\":6756:6919   */\n    tag_189:\n        /* \"#utility.yul\":6896:6911   */\n      0x4865617020697320656d70747900000000000000000000000000000000000000\n        /* \"#utility.yul\":6892:6893   */\n      0x00\n        /* \"#utility.yul\":6884:6890   */\n      dup3\n        /* \"#utility.yul\":6880:6894   */\n      add\n        /* \"#utility.yul\":6873:6912   */\n      mstore\n        /* \"#utility.yul\":6756:6919   */\n      pop\n      jump\t// out\n        /* \"#utility.yul\":6925:7291   */\n    tag_190:\n        /* \"#utility.yul\":7067:7070   */\n      0x00\n        /* \"#utility.yul\":7088:7155   */\n      tag_270\n        /* \"#utility.yul\":7152:7154   */\n      0x0d\n        /* \"#utility.yul\":7147:7150   */\n      dup4\n        /* \"#utility.yul\":7088:7155   */\n      tag_188\n      jump\t// in\n    tag_270:\n        /* \"#utility.yul\":7081:7155   */\n      swap2\n      pop\n        /* \"#utility.yul\":7164:7257   */\n      tag_271\n        /* \"#utility.yul\":7253:7256   */\n      dup3\n        /* \"#utility.yul\":7164:7257   */\n      tag_189\n      jump\t// in\n    tag_271:\n        /* \"#utility.yul\":7282:7284   */\n      0x20\n        /* \"#utility.yul\":7277:7280   */\n      dup3\n        /* \"#utility.yul\":7273:7285   */\n      add\n        /* \"#utility.yul\":7266:7285   */\n      swap1\n      pop\n        /* \"#utility.yul\":6925:7291   */\n      swap2\n      swap1\n      pop\n      jump\t// out\n        /* \"#utility.yul\":7297:7716   */\n    tag_99:\n        /* \"#utility.yul\":7463:7467   */\n      0x00\n        /* \"#utility.yul\":7501:7503   */\n      0x20\n        /* \"#utility.yul\":7490:7499   */\n      dup3\n        /* \"#utility.yul\":7486:7504   */\n      add\n        /* \"#utility.yul\":7478:7504   */\n      swap1\n      pop\n        /* \"#utility.yul\":7550:7559   */\n      dup2\n        /* \"#utility.yul\":7544:7548   */\n      dup2\n        /* \"#utility.yul\":7540:7560   */\n      sub\n        /* \"#utility.yul\":7536:7537   */\n      0x00\n        /* \"#utility.yul\":7525:7534   */\n      dup4\n        /* \"#utility.yul\":7521:7538   */\n      add\n        /* \"#utility.yul\":7514:7561   */\n      mstore\n        /* \"#utility.yul\":7578:7709   */\n      tag_273\n        /* \"#utility.yul\":7704:7708   */\n      dup2\n        /* \"#utility.yul\":7578:7709   */\n      tag_190\n      jump\t// in\n    tag_273:\n        /* \"#utility.yul\":7570:7709   */\n      swap1\n      pop\n        /* \"#utility.yul\":7297:7716   */\n      swap2\n      swap1\n      pop\n      jump\t// out\n        /* \"#utility.yul\":7722:7902   */\n    tag_112:\n        /* \"#utility.yul\":7770:7847   */\n      0x4e487b7100000000000000000000000000000000000000000000000000000000\n        /* \"#utility.yul\":7767:7768   */\n      0x00\n        /* \"#utility.yul\":7760:7848   */\n      mstore\n        /* \"#utility.yul\":7867:7871   */\n      0x31\n        /* \"#utility.yul\":7864:7865   */\n      0x04\n        /* \"#utility.yul\":7857:7872   */\n      mstore\n        /* \"#utility.yul\":7891:7895   */\n      0x24\n        /* \"#utility.yul\":7888:7889   */\n      0x00\n        /* \"#utility.yul\":7881:7896   */\n      revert\n        /* \"#utility.yul\":7908:8318   */\n    tag_119:\n        /* \"#utility.yul\":7948:7955   */\n      0x00\n        /* \"#utility.yul\":7971:7991   */\n      tag_276\n        /* \"#utility.yul\":7989:7990   */\n      dup3\n        /* \"#utility.yul\":7971:7991   */\n      tag_168\n      jump\t// in\n    tag_276:\n        /* \"#utility.yul\":7966:7991   */\n      swap2\n      pop\n        /* \"#utility.yul\":8005:8025   */\n      tag_277\n        /* \"#utility.yul\":8023:8024   */\n      dup4\n        /* \"#utility.yul\":8005:8025   */\n      tag_168\n      jump\t// in\n    tag_277:\n        /* \"#utility.yul\":8000:8025   */\n      swap3\n      pop\n        /* \"#utility.yul\":8060:8061   */\n      dup3\n        /* \"#utility.yul\":8057:8058   */\n      dup3\n        /* \"#utility.yul\":8053:8062   */\n      mul\n        /* \"#utility.yul\":8082:8112   */\n      tag_278\n        /* \"#utility.yul\":8100:8111   */\n      dup2\n        /* \"#utility.yul\":8082:8112   */\n      tag_168\n      jump\t// in\n    tag_278:\n        /* \"#utility.yul\":8071:8112   */\n      swap2\n      pop\n        /* \"#utility.yul\":8261:8262   */\n      dup3\n        /* \"#utility.yul\":8252:8259   */\n      dup3\n        /* \"#utility.yul\":8248:8263   */\n      div\n        /* \"#utility.yul\":8245:8246   */\n      dup5\n        /* \"#utility.yul\":8242:8264   */\n      eq\n        /* \"#utility.yul\":8222:8223   */\n      dup4\n        /* \"#utility.yul\":8215:8224   */\n      iszero\n        /* \"#utility.yul\":8195:8278   */\n      or\n        /* \"#utility.yul\":8172:8311   */\n      tag_279\n      jumpi\n        /* \"#utility.yul\":8291:8309   */\n      tag_280\n      tag_186\n      jump\t// in\n    tag_280:\n        /* \"#utility.yul\":8172:8311   */\n    tag_279:\n        /* \"#utility.yul\":7956:8318   */\n      pop\n        /* \"#utility.yul\":7908:8318   */\n      swap3\n      swap2\n      pop\n      pop\n      jump\t// out\n        /* \"#utility.yul\":8324:8515   */\n    tag_121:\n        /* \"#utility.yul\":8364:8367   */\n      0x00\n        /* \"#utility.yul\":8383:8403   */\n      tag_282\n        /* \"#utility.yul\":8401:8402   */\n      dup3\n        /* \"#utility.yul\":8383:8403   */\n      tag_168\n      jump\t// in\n    tag_282:\n        /* \"#utility.yul\":8378:8403   */\n      swap2\n      pop\n        /* \"#utility.yul\":8417:8437   */\n      tag_283\n        /* \"#utility.yul\":8435:8436   */\n      dup4\n        /* \"#utility.yul\":8417:8437   */\n      tag_168\n      jump\t// in\n    tag_283:\n        /* \"#utility.yul\":8412:8437   */\n      swap3\n      pop\n        /* \"#utility.yul\":8460:8461   */\n      dup3\n        /* \"#utility.yul\":8457:8458   */\n      dup3\n        /* \"#utility.yul\":8453:8462   */\n      add\n        /* \"#utility.yul\":8446:8462   */\n      swap1\n      pop\n        /* \"#utility.yul\":8481:8484   */\n      dup1\n        /* \"#utility.yul\":8478:8479   */\n      dup3\n        /* \"#utility.yul\":8475:8485   */\n      gt\n        /* \"#utility.yul\":8472:8508   */\n      iszero\n      tag_284\n      jumpi\n        /* \"#utility.yul\":8488:8506   */\n      tag_285\n      tag_186\n      jump\t// in\n    tag_285:\n        /* \"#utility.yul\":8472:8508   */\n    tag_284:\n        /* \"#utility.yul\":8324:8515   */\n      swap3\n      swap2\n      pop\n      pop\n      jump\t// out\n\n    auxdata: 0xa2646970667358221220ed5176da448f9b67cd64e670f5edd308f13351acdd255256fd202e3c9bb64d6764736f6c63430008120033\n}\n\nsub_1: assembly {\n        /* \"W6/pointer.sol\":73:1255  contract Pointer{... */\n      mstore(0x40, 0x80)\n        /* \"W6/pointer.sol\":218:266  constructor() {... */\n      callvalue\n      dup1\n      iszero\n      tag_1\n      jumpi\n      0x00\n      dup1\n      revert\n    tag_1:\n      pop\n        /* \"W6/pointer.sol\":243:250  pointer */\n      0x00\n        /* \"W6/pointer.sol\":256:257  0 */\n      dup1\n        /* \"W6/pointer.sol\":243:258  pointer.push(0) */\n      dup1\n      0x01\n      dup2\n      sload\n      add\n      dup1\n      dup3\n      sstore\n      dup1\n      swap2\n      pop\n      pop\n      0x01\n      swap1\n      sub\n      swap1\n      0x00\n      mstore\n      keccak256(0x00, 0x20)\n      add\n      0x00\n      swap1\n      swap2\n      swap1\n      swap2\n      swap1\n      swap2\n      pop\n      sstore\n        /* \"W6/pointer.sol\":73:1255  contract Pointer{... */\n      dataSize(sub_0)\n      dup1\n      dataOffset(sub_0)\n      0x00\n      codecopy\n      0x00\n      return\n    stop\n\n    sub_0: assembly {\n            /* \"W6/pointer.sol\":73:1255  contract Pointer{... */\n          mstore(0x40, 0x80)\n          callvalue\n          dup1\n          iszero\n          tag_1\n          jumpi\n          0x00\n          dup1\n          revert\n        tag_1:\n          pop\n          jumpi(tag_2, lt(calldatasize, 0x04))\n          shr(0xe0, calldataload(0x00))\n          dup1\n          0x92d8e428\n          eq\n          tag_3\n          jumpi\n          dup1\n          0xa47ea718\n          eq\n          tag_4\n          jumpi\n          dup1\n          0xe96aff0b\n          eq\n          tag_5\n          jumpi\n          dup1\n          0xf63c2e09\n          eq\n          tag_6\n          jumpi\n          dup1\n          0xf9d6a52e\n          eq\n          tag_7\n          jumpi\n        tag_2:\n          0x00\n          dup1\n          revert\n            /* \"W6/pointer.sol\":272:590  function new_uint256() public returns (uint256){... */\n        tag_3:\n          tag_8\n          tag_9\n          jump\t// in\n        tag_8:\n          mload(0x40)\n          tag_10\n          swap2\n          swap1\n          tag_11\n          jump\t// in\n        tag_10:\n          mload(0x40)\n          dup1\n          swap2\n          sub\n          swap1\n          return\n            /* \"W6/pointer.sol\":970:1252  function delete_uint256(uint256 p) public{... */\n        tag_4:\n          tag_12\n          0x04\n          dup1\n          calldatasize\n          sub\n          dup2\n          add\n          swap1\n          tag_13\n          swap2\n          swap1\n          tag_14\n          jump\t// in\n        tag_13:\n          tag_15\n          jump\t// in\n        tag_12:\n          stop\n            /* \"W6/pointer.sol\":596:964  function new_uint256(uint256 value) public returns (uint256){... */\n        tag_5:\n          tag_16\n          0x04\n          dup1\n          calldatasize\n          sub\n          dup2\n          add\n          swap1\n          tag_17\n          swap2\n          swap1\n          tag_14\n          jump\t// in\n        tag_17:\n          tag_18\n          jump\t// in\n        tag_16:\n          mload(0x40)\n          tag_19\n          swap2\n          swap1\n          tag_11\n          jump\t// in\n        tag_19:\n          mload(0x40)\n          dup1\n          swap2\n          sub\n          swap1\n          return\n            /* \"W6/pointer.sol\":183:211  uint256[] public nullPointer */\n        tag_6:\n          tag_20\n          0x04\n          dup1\n          calldatasize\n          sub\n          dup2\n          add\n          swap1\n          tag_21\n          swap2\n          swap1\n          tag_14\n          jump\t// in\n        tag_21:\n          tag_22\n          jump\t// in\n        tag_20:\n          mload(0x40)\n          tag_23\n          swap2\n          swap1\n          tag_11\n          jump\t// in\n        tag_23:\n          mload(0x40)\n          dup1\n          swap2\n          sub\n          swap1\n          return\n            /* \"W6/pointer.sol\":96:120  uint256[] public pointer */\n        tag_7:\n          tag_24\n          0x04\n          dup1\n          calldatasize\n          sub\n          dup2\n          add\n          swap1\n          tag_25\n          swap2\n          swap1\n          tag_14\n          jump\t// in\n        tag_25:\n          tag_26\n          jump\t// in\n        tag_24:\n          mload(0x40)\n          tag_27\n          swap2\n          swap1\n          tag_11\n          jump\t// in\n        tag_27:\n          mload(0x40)\n          dup1\n          swap2\n          sub\n          swap1\n          return\n            /* \"W6/pointer.sol\":272:590  function new_uint256() public returns (uint256){... */\n        tag_9:\n            /* \"W6/pointer.sol\":311:318  uint256 */\n          0x00\n            /* \"W6/pointer.sol\":356:357  0 */\n          dup1\n            /* \"W6/pointer.sol\":334:345  nullPointer */\n          0x01\n            /* \"W6/pointer.sol\":334:352  nullPointer.length */\n          dup1\n          sload\n          swap1\n          pop\n            /* \"W6/pointer.sol\":334:357  nullPointer.length == 0 */\n          sub\n            /* \"W6/pointer.sol\":330:583  if (nullPointer.length == 0){... */\n          tag_29\n          jumpi\n            /* \"W6/pointer.sol\":373:380  pointer */\n          0x00\n            /* \"W6/pointer.sol\":386:387  0 */\n          dup1\n            /* \"W6/pointer.sol\":373:388  pointer.push(0) */\n          dup1\n          0x01\n          dup2\n          sload\n          add\n          dup1\n          dup3\n          sstore\n          dup1\n          swap2\n          pop\n          pop\n          0x01\n          swap1\n          sub\n          swap1\n          0x00\n          mstore\n          keccak256(0x00, 0x20)\n          add\n          0x00\n          swap1\n          swap2\n          swap1\n          swap2\n          swap1\n          swap2\n          pop\n          sstore\n            /* \"W6/pointer.sol\":427:428  1 */\n          0x01\n            /* \"W6/pointer.sol\":410:417  pointer */\n          0x00\n            /* \"W6/pointer.sol\":410:424  pointer.length */\n          dup1\n          sload\n          swap1\n          pop\n            /* \"W6/pointer.sol\":410:428  pointer.length - 1 */\n          tag_31\n          swap2\n          swap1\n          tag_32\n          jump\t// in\n        tag_31:\n            /* \"W6/pointer.sol\":403:428  return pointer.length - 1 */\n          swap1\n          pop\n          jump(tag_28)\n            /* \"W6/pointer.sol\":330:583  if (nullPointer.length == 0){... */\n        tag_29:\n            /* \"W6/pointer.sol\":469:478  uint256 p */\n          0x00\n            /* \"W6/pointer.sol\":481:492  nullPointer */\n          0x01\n            /* \"W6/pointer.sol\":514:515  1 */\n          dup1\n            /* \"W6/pointer.sol\":493:504  nullPointer */\n          dup1\n            /* \"W6/pointer.sol\":493:511  nullPointer.length */\n          dup1\n          sload\n          swap1\n          pop\n            /* \"W6/pointer.sol\":493:515  nullPointer.length - 1 */\n          tag_34\n          swap2\n          swap1\n          tag_32\n          jump\t// in\n        tag_34:\n            /* \"W6/pointer.sol\":481:516  nullPointer[nullPointer.length - 1] */\n          dup2\n          sload\n          dup2\n          lt\n          tag_35\n          jumpi\n          tag_36\n          tag_37\n          jump\t// in\n        tag_36:\n        tag_35:\n          swap1\n          0x00\n          mstore\n          keccak256(0x00, 0x20)\n          add\n          sload\n            /* \"W6/pointer.sol\":469:516  uint256 p = nullPointer[nullPointer.length - 1] */\n          swap1\n          pop\n            /* \"W6/pointer.sol\":531:542  nullPointer */\n          0x01\n            /* \"W6/pointer.sol\":531:548  nullPointer.pop() */\n          dup1\n          sload\n          dup1\n          tag_39\n          jumpi\n          tag_40\n          tag_41\n          jump\t// in\n        tag_40:\n        tag_39:\n          0x01\n          swap1\n          sub\n          dup2\n          dup2\n          swap1\n          0x00\n          mstore\n          keccak256(0x00, 0x20)\n          add\n          0x00\n          swap1\n          sstore\n          swap1\n          sstore\n            /* \"W6/pointer.sol\":570:571  p */\n          dup1\n            /* \"W6/pointer.sol\":563:571  return p */\n          swap2\n          pop\n          pop\n            /* \"W6/pointer.sol\":272:590  function new_uint256() public returns (uint256){... */\n        tag_28:\n          swap1\n          jump\t// out\n            /* \"W6/pointer.sol\":970:1252  function delete_uint256(uint256 p) public{... */\n        tag_15:\n            /* \"W6/pointer.sol\":1036:1037  0 */\n          0x00\n            /* \"W6/pointer.sol\":1031:1032  p */\n          dup2\n            /* \"W6/pointer.sol\":1031:1037  p != 0 */\n          eq\n          iszero\n            /* \"W6/pointer.sol\":1031:1055  p != 0&&p<pointer.length */\n          dup1\n          iszero\n          tag_44\n          jumpi\n          pop\n            /* \"W6/pointer.sol\":1041:1048  pointer */\n          0x00\n            /* \"W6/pointer.sol\":1041:1055  pointer.length */\n          dup1\n          sload\n          swap1\n          pop\n            /* \"W6/pointer.sol\":1039:1040  p */\n          dup2\n            /* \"W6/pointer.sol\":1039:1055  p<pointer.length */\n          lt\n            /* \"W6/pointer.sol\":1031:1055  p != 0&&p<pointer.length */\n        tag_44:\n            /* \"W6/pointer.sol\":1022:1082  require((p != 0&&p<pointer.length), \"Cannot delete nullptr\") */\n          tag_45\n          jumpi\n          mload(0x40)\n          0x08c379a000000000000000000000000000000000000000000000000000000000\n          dup2\n          mstore\n          0x04\n          add\n          tag_46\n          swap1\n          tag_47\n          jump\t// in\n        tag_46:\n          mload(0x40)\n          dup1\n          swap2\n          sub\n          swap1\n          revert\n        tag_45:\n            /* \"W6/pointer.sol\":1114:1115  1 */\n          0x01\n            /* \"W6/pointer.sol\":1099:1106  pointer */\n          0x00\n            /* \"W6/pointer.sol\":1099:1113  pointer.length */\n          dup1\n          sload\n          swap1\n          pop\n            /* \"W6/pointer.sol\":1099:1115  pointer.length-1 */\n          tag_48\n          swap2\n          swap1\n          tag_32\n          jump\t// in\n        tag_48:\n            /* \"W6/pointer.sol\":1096:1097  p */\n          dup2\n            /* \"W6/pointer.sol\":1096:1115  p==pointer.length-1 */\n          sub\n            /* \"W6/pointer.sol\":1093:1245  if(p==pointer.length-1){... */\n          tag_49\n          jumpi\n            /* \"W6/pointer.sol\":1131:1138  pointer */\n          0x00\n            /* \"W6/pointer.sol\":1131:1144  pointer.pop() */\n          dup1\n          sload\n          dup1\n          tag_50\n          jumpi\n          tag_51\n          tag_41\n          jump\t// in\n        tag_51:\n        tag_50:\n          0x01\n          swap1\n          sub\n          dup2\n          dup2\n          swap1\n          0x00\n          mstore\n          keccak256(0x00, 0x20)\n          add\n          0x00\n          swap1\n          sstore\n          swap1\n          sstore\n            /* \"W6/pointer.sol\":1093:1245  if(p==pointer.length-1){... */\n          jump(tag_53)\n        tag_49:\n            /* \"W6/pointer.sol\":1198:1199  0 */\n          0x00\n            /* \"W6/pointer.sol\":1185:1192  pointer */\n          dup1\n            /* \"W6/pointer.sol\":1193:1194  p */\n          dup3\n            /* \"W6/pointer.sol\":1185:1195  pointer[p] */\n          dup2\n          sload\n          dup2\n          lt\n          tag_54\n          jumpi\n          tag_55\n          tag_37\n          jump\t// in\n        tag_55:\n        tag_54:\n          swap1\n          0x00\n          mstore\n          keccak256(0x00, 0x20)\n          add\n            /* \"W6/pointer.sol\":1185:1199  pointer[p] = 0 */\n          dup2\n          swap1\n          sstore\n          pop\n            /* \"W6/pointer.sol\":1214:1225  nullPointer */\n          0x01\n            /* \"W6/pointer.sol\":1231:1232  p */\n          dup2\n            /* \"W6/pointer.sol\":1214:1233  nullPointer.push(p) */\n          swap1\n          dup1\n          0x01\n          dup2\n          sload\n          add\n          dup1\n          dup3\n          sstore\n          dup1\n          swap2\n          pop\n          pop\n          0x01\n          swap1\n          sub\n          swap1\n          0x00\n          mstore\n          keccak256(0x00, 0x20)\n          add\n          0x00\n          swap1\n          swap2\n          swap1\n          swap2\n          swap1\n          swap2\n          pop\n          sstore\n            /* \"W6/pointer.sol\":1093:1245  if(p==pointer.length-1){... */\n        tag_53:\n            /* \"W6/pointer.sol\":970:1252  function delete_uint256(uint256 p) public{... */\n          pop\n          jump\t// out\n            /* \"W6/pointer.sol\":596:964  function new_uint256(uint256 value) public returns (uint256){... */\n        tag_18:\n            /* \"W6/pointer.sol\":648:655  uint256 */\n          0x00\n            /* \"W6/pointer.sol\":693:694  0 */\n          dup1\n            /* \"W6/pointer.sol\":671:682  nullPointer */\n          0x01\n            /* \"W6/pointer.sol\":671:689  nullPointer.length */\n          dup1\n          sload\n          swap1\n          pop\n            /* \"W6/pointer.sol\":671:694  nullPointer.length == 0 */\n          sub\n            /* \"W6/pointer.sol\":667:957  if (nullPointer.length == 0){... */\n          tag_59\n          jumpi\n            /* \"W6/pointer.sol\":710:717  pointer */\n          0x00\n            /* \"W6/pointer.sol\":723:728  value */\n          dup3\n            /* \"W6/pointer.sol\":710:729  pointer.push(value) */\n          swap1\n          dup1\n          0x01\n          dup2\n          sload\n          add\n          dup1\n          dup3\n          sstore\n          dup1\n          swap2\n          pop\n          pop\n          0x01\n          swap1\n          sub\n          swap1\n          0x00\n          mstore\n          keccak256(0x00, 0x20)\n          add\n          0x00\n          swap1\n          swap2\n          swap1\n          swap2\n          swap1\n          swap2\n          pop\n          sstore\n            /* \"W6/pointer.sol\":768:769  1 */\n          0x01\n            /* \"W6/pointer.sol\":751:758  pointer */\n          0x00\n            /* \"W6/pointer.sol\":751:765  pointer.length */\n          dup1\n          sload\n          swap1\n          pop\n            /* \"W6/pointer.sol\":751:769  pointer.length - 1 */\n          tag_61\n          swap2\n          swap1\n          tag_32\n          jump\t// in\n        tag_61:\n            /* \"W6/pointer.sol\":744:769  return pointer.length - 1 */\n          swap1\n          pop\n          jump(tag_58)\n            /* \"W6/pointer.sol\":667:957  if (nullPointer.length == 0){... */\n        tag_59:\n            /* \"W6/pointer.sol\":810:819  uint256 p */\n          0x00\n            /* \"W6/pointer.sol\":822:833  nullPointer */\n          0x01\n            /* \"W6/pointer.sol\":855:856  1 */\n          dup1\n            /* \"W6/pointer.sol\":834:845  nullPointer */\n          dup1\n            /* \"W6/pointer.sol\":834:852  nullPointer.length */\n          dup1\n          sload\n          swap1\n          pop\n            /* \"W6/pointer.sol\":834:856  nullPointer.length - 1 */\n          tag_63\n          swap2\n          swap1\n          tag_32\n          jump\t// in\n        tag_63:\n            /* \"W6/pointer.sol\":822:857  nullPointer[nullPointer.length - 1] */\n          dup2\n          sload\n          dup2\n          lt\n          tag_64\n          jumpi\n          tag_65\n          tag_37\n          jump\t// in\n        tag_65:\n        tag_64:\n          swap1\n          0x00\n          mstore\n          keccak256(0x00, 0x20)\n          add\n          sload\n            /* \"W6/pointer.sol\":810:857  uint256 p = nullPointer[nullPointer.length - 1] */\n          swap1\n          pop\n            /* \"W6/pointer.sol\":872:883  nullPointer */\n          0x01\n            /* \"W6/pointer.sol\":872:889  nullPointer.pop() */\n          dup1\n          sload\n          dup1\n          tag_67\n          jumpi\n          tag_68\n          tag_41\n          jump\t// in\n        tag_68:\n        tag_67:\n          0x01\n          swap1\n          sub\n          dup2\n          dup2\n          swap1\n          0x00\n          mstore\n          keccak256(0x00, 0x20)\n          add\n          0x00\n          swap1\n          sstore\n          swap1\n          sstore\n            /* \"W6/pointer.sol\":917:922  value */\n          dup3\n            /* \"W6/pointer.sol\":904:911  pointer */\n          0x00\n            /* \"W6/pointer.sol\":912:913  p */\n          dup3\n            /* \"W6/pointer.sol\":904:914  pointer[p] */\n          dup2\n          sload\n          dup2\n          lt\n          tag_70\n          jumpi\n          tag_71\n          tag_37\n          jump\t// in\n        tag_71:\n        tag_70:\n          swap1\n          0x00\n          mstore\n          keccak256(0x00, 0x20)\n          add\n            /* \"W6/pointer.sol\":904:922  pointer[p] = value */\n          dup2\n          swap1\n          sstore\n          pop\n            /* \"W6/pointer.sol\":944:945  p */\n          dup1\n            /* \"W6/pointer.sol\":937:945  return p */\n          swap2\n          pop\n          pop\n            /* \"W6/pointer.sol\":596:964  function new_uint256(uint256 value) public returns (uint256){... */\n        tag_58:\n          swap2\n          swap1\n          pop\n          jump\t// out\n            /* \"W6/pointer.sol\":183:211  uint256[] public nullPointer */\n        tag_22:\n          0x01\n          dup2\n          dup2\n          sload\n          dup2\n          lt\n          tag_73\n          jumpi\n          0x00\n          dup1\n          revert\n        tag_73:\n          swap1\n          0x00\n          mstore\n          keccak256(0x00, 0x20)\n          add\n          0x00\n          swap2\n          pop\n          swap1\n          pop\n          sload\n          dup2\n          jump\t// out\n            /* \"W6/pointer.sol\":96:120  uint256[] public pointer */\n        tag_26:\n          0x00\n          dup2\n          dup2\n          sload\n          dup2\n          lt\n          tag_75\n          jumpi\n          0x00\n          dup1\n          revert\n        tag_75:\n          swap1\n          0x00\n          mstore\n          keccak256(0x00, 0x20)\n          add\n          0x00\n          swap2\n          pop\n          swap1\n          pop\n          sload\n          dup2\n          jump\t// out\n            /* \"#utility.yul\":7:84   */\n        tag_77:\n            /* \"#utility.yul\":44:51   */\n          0x00\n            /* \"#utility.yul\":73:78   */\n          dup2\n            /* \"#utility.yul\":62:78   */\n          swap1\n          pop\n            /* \"#utility.yul\":7:84   */\n          swap2\n          swap1\n          pop\n          jump\t// out\n            /* \"#utility.yul\":90:208   */\n        tag_78:\n            /* \"#utility.yul\":177:201   */\n          tag_91\n            /* \"#utility.yul\":195:200   */\n          dup2\n            /* \"#utility.yul\":177:201   */\n          tag_77\n          jump\t// in\n        tag_91:\n            /* \"#utility.yul\":172:175   */\n          dup3\n            /* \"#utility.yul\":165:202   */\n          mstore\n            /* \"#utility.yul\":90:208   */\n          pop\n          pop\n          jump\t// out\n            /* \"#utility.yul\":214:436   */\n        tag_11:\n            /* \"#utility.yul\":307:311   */\n          0x00\n            /* \"#utility.yul\":345:347   */\n          0x20\n            /* \"#utility.yul\":334:343   */\n          dup3\n            /* \"#utility.yul\":330:348   */\n          add\n            /* \"#utility.yul\":322:348   */\n          swap1\n          pop\n            /* \"#utility.yul\":358:429   */\n          tag_93\n            /* \"#utility.yul\":426:427   */\n          0x00\n            /* \"#utility.yul\":415:424   */\n          dup4\n            /* \"#utility.yul\":411:428   */\n          add\n            /* \"#utility.yul\":402:408   */\n          dup5\n            /* \"#utility.yul\":358:429   */\n          tag_78\n          jump\t// in\n        tag_93:\n            /* \"#utility.yul\":214:436   */\n          swap3\n          swap2\n          pop\n          pop\n          jump\t// out\n            /* \"#utility.yul\":523:640   */\n        tag_80:\n            /* \"#utility.yul\":632:633   */\n          0x00\n            /* \"#utility.yul\":629:630   */\n          dup1\n            /* \"#utility.yul\":622:634   */\n          revert\n            /* \"#utility.yul\":769:891   */\n        tag_82:\n            /* \"#utility.yul\":842:866   */\n          tag_98\n            /* \"#utility.yul\":860:865   */\n          dup2\n            /* \"#utility.yul\":842:866   */\n          tag_77\n          jump\t// in\n        tag_98:\n            /* \"#utility.yul\":835:840   */\n          dup2\n            /* \"#utility.yul\":832:867   */\n          eq\n            /* \"#utility.yul\":822:885   */\n          tag_99\n          jumpi\n            /* \"#utility.yul\":881:882   */\n          0x00\n            /* \"#utility.yul\":878:879   */\n          dup1\n            /* \"#utility.yul\":871:883   */\n          revert\n            /* \"#utility.yul\":822:885   */\n        tag_99:\n            /* \"#utility.yul\":769:891   */\n          pop\n          jump\t// out\n            /* \"#utility.yul\":897:1036   */\n        tag_83:\n            /* \"#utility.yul\":943:948   */\n          0x00\n            /* \"#utility.yul\":981:987   */\n          dup2\n            /* \"#utility.yul\":968:988   */\n          calldataload\n            /* \"#utility.yul\":959:988   */\n          swap1\n          pop\n            /* \"#utility.yul\":997:1030   */\n          tag_101\n            /* \"#utility.yul\":1024:1029   */\n          dup2\n            /* \"#utility.yul\":997:1030   */\n          tag_82\n          jump\t// in\n        tag_101:\n            /* \"#utility.yul\":897:1036   */\n          swap3\n          swap2\n          pop\n          pop\n          jump\t// out\n            /* \"#utility.yul\":1042:1371   */\n        tag_14:\n            /* \"#utility.yul\":1101:1107   */\n          0x00\n            /* \"#utility.yul\":1150:1152   */\n          0x20\n            /* \"#utility.yul\":1138:1147   */\n          dup3\n            /* \"#utility.yul\":1129:1136   */\n          dup5\n            /* \"#utility.yul\":1125:1148   */\n          sub\n            /* \"#utility.yul\":1121:1153   */\n          slt\n            /* \"#utility.yul\":1118:1237   */\n          iszero\n          tag_103\n          jumpi\n            /* \"#utility.yul\":1156:1235   */\n          tag_104\n          tag_80\n          jump\t// in\n        tag_104:\n            /* \"#utility.yul\":1118:1237   */\n        tag_103:\n            /* \"#utility.yul\":1276:1277   */\n          0x00\n            /* \"#utility.yul\":1301:1354   */\n          tag_105\n            /* \"#utility.yul\":1346:1353   */\n          dup5\n            /* \"#utility.yul\":1337:1343   */\n          dup3\n            /* \"#utility.yul\":1326:1335   */\n          dup6\n            /* \"#utility.yul\":1322:1344   */\n          add\n            /* \"#utility.yul\":1301:1354   */\n          tag_83\n          jump\t// in\n        tag_105:\n            /* \"#utility.yul\":1291:1354   */\n          swap2\n          pop\n            /* \"#utility.yul\":1247:1364   */\n          pop\n            /* \"#utility.yul\":1042:1371   */\n          swap3\n          swap2\n          pop\n          pop\n          jump\t// out\n            /* \"#utility.yul\":1377:1557   */\n        tag_84:\n            /* \"#utility.yul\":1425:1502   */\n          0x4e487b7100000000000000000000000000000000000000000000000000000000\n            /* \"#utility.yul\":1422:1423   */\n          0x00\n            /* \"#utility.yul\":1415:1503   */\n          mstore\n            /* \"#utility.yul\":1522:1526   */\n          0x11\n            /* \"#utility.yul\":1519:1520   */\n          0x04\n            /* \"#utility.yul\":1512:1527   */\n          mstore\n            /* \"#utility.yul\":1546:1550   */\n          0x24\n            /* \"#utility.yul\":1543:1544   */\n          0x00\n            /* \"#utility.yul\":1536:1551   */\n          revert\n            /* \"#utility.yul\":1563:1757   */\n        tag_32:\n            /* \"#utility.yul\":1603:1607   */\n          0x00\n            /* \"#utility.yul\":1623:1643   */\n          tag_108\n            /* \"#utility.yul\":1641:1642   */\n          dup3\n            /* \"#utility.yul\":1623:1643   */\n          tag_77\n          jump\t// in\n        tag_108:\n            /* \"#utility.yul\":1618:1643   */\n          swap2\n          pop\n            /* \"#utility.yul\":1657:1677   */\n          tag_109\n            /* \"#utility.yul\":1675:1676   */\n          dup4\n            /* \"#utility.yul\":1657:1677   */\n          tag_77\n          jump\t// in\n        tag_109:\n            /* \"#utility.yul\":1652:1677   */\n          swap3\n          pop\n            /* \"#utility.yul\":1701:1702   */\n          dup3\n            /* \"#utility.yul\":1698:1699   */\n          dup3\n            /* \"#utility.yul\":1694:1703   */\n          sub\n            /* \"#utility.yul\":1686:1703   */\n          swap1\n          pop\n            /* \"#utility.yul\":1725:1726   */\n          dup2\n            /* \"#utility.yul\":1719:1723   */\n          dup2\n            /* \"#utility.yul\":1716:1727   */\n          gt\n            /* \"#utility.yul\":1713:1750   */\n          iszero\n          tag_110\n          jumpi\n            /* \"#utility.yul\":1730:1748   */\n          tag_111\n          tag_84\n          jump\t// in\n        tag_111:\n            /* \"#utility.yul\":1713:1750   */\n        tag_110:\n            /* \"#utility.yul\":1563:1757   */\n          swap3\n          swap2\n          pop\n          pop\n          jump\t// out\n            /* \"#utility.yul\":1763:1943   */\n        tag_37:\n            /* \"#utility.yul\":1811:1888   */\n          0x4e487b7100000000000000000000000000000000000000000000000000000000\n            /* \"#utility.yul\":1808:1809   */\n          0x00\n            /* \"#utility.yul\":1801:1889   */\n          mstore\n            /* \"#utility.yul\":1908:1912   */\n          0x32\n            /* \"#utility.yul\":1905:1906   */\n          0x04\n            /* \"#utility.yul\":1898:1913   */\n          mstore\n            /* \"#utility.yul\":1932:1936   */\n          0x24\n            /* \"#utility.yul\":1929:1930   */\n          0x00\n            /* \"#utility.yul\":1922:1937   */\n          revert\n            /* \"#utility.yul\":1949:2129   */\n        tag_41:\n            /* \"#utility.yul\":1997:2074   */\n          0x4e487b7100000000000000000000000000000000000000000000000000000000\n            /* \"#utility.yul\":1994:1995   */\n          0x00\n            /* \"#utility.yul\":1987:2075   */\n          mstore\n            /* \"#utility.yul\":2094:2098   */\n          0x31\n            /* \"#utility.yul\":2091:2092   */\n          0x04\n            /* \"#utility.yul\":2084:2099   */\n          mstore\n            /* \"#utility.yul\":2118:2122   */\n          0x24\n            /* \"#utility.yul\":2115:2116   */\n          0x00\n            /* \"#utility.yul\":2108:2123   */\n          revert\n            /* \"#utility.yul\":2135:2304   */\n        tag_85:\n            /* \"#utility.yul\":2219:2230   */\n          0x00\n            /* \"#utility.yul\":2253:2259   */\n          dup3\n            /* \"#utility.yul\":2248:2251   */\n          dup3\n            /* \"#utility.yul\":2241:2260   */\n          mstore\n            /* \"#utility.yul\":2293:2297   */\n          0x20\n            /* \"#utility.yul\":2288:2291   */\n          dup3\n            /* \"#utility.yul\":2284:2298   */\n          add\n            /* \"#utility.yul\":2269:2298   */\n          swap1\n          pop\n            /* \"#utility.yul\":2135:2304   */\n          swap3\n          swap2\n          pop\n          pop\n          jump\t// out\n            /* \"#utility.yul\":2310:2481   */\n        tag_86:\n            /* \"#utility.yul\":2450:2473   */\n          0x43616e6e6f742064656c657465206e756c6c7074720000000000000000000000\n            /* \"#utility.yul\":2446:2447   */\n          0x00\n            /* \"#utility.yul\":2438:2444   */\n          dup3\n            /* \"#utility.yul\":2434:2448   */\n          add\n            /* \"#utility.yul\":2427:2474   */\n          mstore\n            /* \"#utility.yul\":2310:2481   */\n          pop\n          jump\t// out\n            /* \"#utility.yul\":2487:2853   */\n        tag_87:\n            /* \"#utility.yul\":2629:2632   */\n          0x00\n            /* \"#utility.yul\":2650:2717   */\n          tag_117\n            /* \"#utility.yul\":2714:2716   */\n          0x15\n            /* \"#utility.yul\":2709:2712   */\n          dup4\n            /* \"#utility.yul\":2650:2717   */\n          tag_85\n          jump\t// in\n        tag_117:\n            /* \"#utility.yul\":2643:2717   */\n          swap2\n          pop\n            /* \"#utility.yul\":2726:2819   */\n          tag_118\n            /* \"#utility.yul\":2815:2818   */\n          dup3\n            /* \"#utility.yul\":2726:2819   */\n          tag_86\n          jump\t// in\n        tag_118:\n            /* \"#utility.yul\":2844:2846   */\n          0x20\n            /* \"#utility.yul\":2839:2842   */\n          dup3\n            /* \"#utility.yul\":2835:2847   */\n          add\n            /* \"#utility.yul\":2828:2847   */\n          swap1\n          pop\n            /* \"#utility.yul\":2487:2853   */\n          swap2\n          swap1\n          pop\n          jump\t// out\n            /* \"#utility.yul\":2859:3278   */\n        tag_47:\n            /* \"#utility.yul\":3025:3029   */\n          0x00\n            /* \"#utility.yul\":3063:3065   */\n          0x20\n            /* \"#utility.yul\":3052:3061   */\n          dup3\n            /* \"#utility.yul\":3048:3066   */\n          add\n            /* \"#utility.yul\":3040:3066   */\n          swap1\n          pop\n            /* \"#utility.yul\":3112:3121   */\n          dup2\n            /* \"#utility.yul\":3106:3110   */\n          dup2\n            /* \"#utility.yul\":3102:3122   */\n          sub\n            /* \"#utility.yul\":3098:3099   */\n          0x00\n            /* \"#utility.yul\":3087:3096   */\n          dup4\n            /* \"#utility.yul\":3083:3100   */\n          add\n            /* \"#utility.yul\":3076:3123   */\n          mstore\n            /* \"#utility.yul\":3140:3271   */\n          tag_120\n            /* \"#utility.yul\":3266:3270   */\n          dup2\n            /* \"#utility.yul\":3140:3271   */\n          tag_87\n          jump\t// in\n        tag_120:\n            /* \"#utility.yul\":3132:3271   */\n          swap1\n          pop\n            /* \"#utility.yul\":2859:3278   */\n          swap2\n          swap1\n          pop\n          jump\t// out\n\n        auxdata: 0xa264697066735822122064a6f7ebd4ac736104c492e88b8164f0fe076101dabe3219644bdf97d928ba5b64736f6c63430008120033\n    }\n}\n",
				"bytecode": {
					"linkReferences": {},
					"object": "608060405234801561001057600080fd5b5060405161001d9061007f565b604051809103906000f080158015610039573d6000803e3d6000fd5b50600160006101000a81548173ffffffffffffffffffffffffffffffffffffffff021916908373ffffffffffffffffffffffffffffffffffffffff16021790555061008c565b61062d806110ac83390190565b6110118061009b6000396000f3fe608060405234801561001057600080fd5b50600436106100575760003560e01c806313bdfacd1461005c5780631c01f2921461007b5780632f5f3b3c146100ab578063959ac484146100c9578063a4ece52c146100f9575b600080fd5b610064610117565b604051610072929190610bb5565b60405180910390f35b61009560048036038101906100909190610c1d565b610303565b6040516100a29190610c59565b60405180910390f35b6100b3610327565b6040516100c09190610cf3565b60405180910390f35b6100e360048036038101906100de9190610c1d565b61034d565b6040516100f09190610c59565b60405180910390f35b61010161062e565b60405161010e9190610c59565b60405180910390f35b6060806000808054905067ffffffffffffffff81111561013a57610139610d0e565b5b6040519080825280602002602001820160405280156101685781602001602082028036833780820191505090505b5090506000808054905067ffffffffffffffff81111561018b5761018a610d0e565b5b6040519080825280602002602001820160405280156101b95781602001602082028036833780820191505090505b50905060005b6000805490508110156102f657600160009054906101000a900473ffffffffffffffffffffffffffffffffffffffff1673ffffffffffffffffffffffffffffffffffffffff1663f9d6a52e6000838154811061021e5761021d610d3d565b5b90600052602060002001546040518263ffffffff1660e01b81526004016102459190610c59565b602060405180830381865afa158015610262573d6000803e3d6000fd5b505050506040513d601f19601f820116820180604052508101906102869190610d81565b83828151811061029957610298610d3d565b5b602002602001018181525050600081815481106102b9576102b8610d3d565b5b90600052602060002001548282815181106102d7576102d6610d3d565b5b60200260200101818152505080806102ee90610ddd565b9150506101bf565b5081819350935050509091565b6000818154811061031357600080fd5b906000526020600020016000915090505481565b600160009054906101000a900473ffffffffffffffffffffffffffffffffffffffff1681565b600080600160009054906101000a900473ffffffffffffffffffffffffffffffffffffffff1673ffffffffffffffffffffffffffffffffffffffff1663e96aff0b846040518263ffffffff1660e01b81526004016103ab9190610c59565b6020604051808303816000875af11580156103ca573d6000803e3d6000fd5b505050506040513d601f19601f820116820180604052508101906103ee9190610d81565b905060008190806001815401808255809150506001900390600052602060002001600090919091909150556000600160008054905061042d9190610e25565b90505b6000811115610624576000600260018361044a9190610e25565b6104549190610e88565b9050600160009054906101000a900473ffffffffffffffffffffffffffffffffffffffff1673ffffffffffffffffffffffffffffffffffffffff1663f9d6a52e600084815481106104a8576104a7610d3d565b5b90600052602060002001546040518263ffffffff1660e01b81526004016104cf9190610c59565b602060405180830381865afa1580156104ec573d6000803e3d6000fd5b505050506040513d601f19601f820116820180604052508101906105109190610d81565b600160009054906101000a900473ffffffffffffffffffffffffffffffffffffffff1673ffffffffffffffffffffffffffffffffffffffff1663f9d6a52e6000848154811061056257610561610d3d565b5b90600052602060002001546040518263ffffffff1660e01b81526004016105899190610c59565b602060405180830381865afa1580156105a6573d6000803e3d6000fd5b505050506040513d601f19601f820116820180604052508101906105ca9190610d81565b106105d55750610624565b61061b600082815481106105ec576105eb610d3d565b5b90600052602060002001546000848154811061060b5761060a610d3d565b5b9060005260206000200154610725565b80915050610430565b8192505050919050565b60008060008054905011610677576040517f08c379a000000000000000000000000000000000000000000000000000000000815260040161066e90610f16565b60405180910390fd5b60008060008154811061068d5761068c610d3d565b5b90600052602060002001549050600060016000805490506106ae9190610e25565b815481106106bf576106be610d3d565b5b9060005260206000200154600080815481106106de576106dd610d3d565b5b906000526020600020018190555060008054806106fe576106fd610f36565b5b6001900381819060005260206000200160009055905561071e6000610735565b8091505090565b6000829050819250809150505050565b600060018260026107469190610f65565b6107509190610fa7565b9050600060028360026107639190610f65565b61076d9190610fa7565b90506000839050600080549050831080156108f95750600160009054906101000a900473ffffffffffffffffffffffffffffffffffffffff1673ffffffffffffffffffffffffffffffffffffffff1663f9d6a52e600083815481106107d5576107d4610d3d565b5b90600052602060002001546040518263ffffffff1660e01b81526004016107fc9190610c59565b602060405180830381865afa158015610819573d6000803e3d6000fd5b505050506040513d601f19601f8201168201806040525081019061083d9190610d81565b600160009054906101000a900473ffffffffffffffffffffffffffffffffffffffff1673ffffffffffffffffffffffffffffffffffffffff1663f9d6a52e6000868154811061088f5761088e610d3d565b5b90600052602060002001546040518263ffffffff1660e01b81526004016108b69190610c59565b602060405180830381865afa1580156108d3573d6000803e3d6000fd5b505050506040513d601f19601f820116820180604052508101906108f79190610d81565b115b15610902578290505b60008054905082108015610a875750600160009054906101000a900473ffffffffffffffffffffffffffffffffffffffff1673ffffffffffffffffffffffffffffffffffffffff1663f9d6a52e6000838154811061096357610962610d3d565b5b90600052602060002001546040518263ffffffff1660e01b815260040161098a9190610c59565b602060405180830381865afa1580156109a7573d6000803e3d6000fd5b505050506040513d601f19601f820116820180604052508101906109cb9190610d81565b600160009054906101000a900473ffffffffffffffffffffffffffffffffffffffff1673ffffffffffffffffffffffffffffffffffffffff1663f9d6a52e60008581548110610a1d57610a1c610d3d565b5b90600052602060002001546040518263ffffffff1660e01b8152600401610a449190610c59565b602060405180830381865afa158015610a61573d6000803e3d6000fd5b505050506040513d601f19601f82011682018060405250810190610a859190610d81565b115b15610a90578190505b838114610ae757610add60008581548110610aae57610aad610d3d565b5b906000526020600020015460008381548110610acd57610acc610d3d565b5b9060005260206000200154610725565b610ae681610735565b5b50505050565b600081519050919050565b600082825260208201905092915050565b6000819050602082019050919050565b6000819050919050565b610b2c81610b19565b82525050565b6000610b3e8383610b23565b60208301905092915050565b6000602082019050919050565b6000610b6282610aed565b610b6c8185610af8565b9350610b7783610b09565b8060005b83811015610ba8578151610b8f8882610b32565b9750610b9a83610b4a565b925050600181019050610b7b565b5085935050505092915050565b60006040820190508181036000830152610bcf8185610b57565b90508181036020830152610be38184610b57565b90509392505050565b600080fd5b610bfa81610b19565b8114610c0557600080fd5b50565b600081359050610c1781610bf1565b92915050565b600060208284031215610c3357610c32610bec565b5b6000610c4184828501610c08565b91505092915050565b610c5381610b19565b82525050565b6000602082019050610c6e6000830184610c4a565b92915050565b600073ffffffffffffffffffffffffffffffffffffffff82169050919050565b6000819050919050565b6000610cb9610cb4610caf84610c74565b610c94565b610c74565b9050919050565b6000610ccb82610c9e565b9050919050565b6000610cdd82610cc0565b9050919050565b610ced81610cd2565b82525050565b6000602082019050610d086000830184610ce4565b92915050565b7f4e487b7100000000000000000000000000000000000000000000000000000000600052604160045260246000fd5b7f4e487b7100000000000000000000000000000000000000000000000000000000600052603260045260246000fd5b600081519050610d7b81610bf1565b92915050565b600060208284031215610d9757610d96610bec565b5b6000610da584828501610d6c565b91505092915050565b7f4e487b7100000000000000000000000000000000000000000000000000000000600052601160045260246000fd5b6000610de882610b19565b91507fffffffffffffffffffffffffffffffffffffffffffffffffffffffffffffffff8203610e1a57610e19610dae565b5b600182019050919050565b6000610e3082610b19565b9150610e3b83610b19565b9250828203905081811115610e5357610e52610dae565b5b92915050565b7f4e487b7100000000000000000000000000000000000000000000000000000000600052601260045260246000fd5b6000610e9382610b19565b9150610e9e83610b19565b925082610eae57610ead610e59565b5b828204905092915050565b600082825260208201905092915050565b7f4865617020697320656d70747900000000000000000000000000000000000000600082015250565b6000610f00600d83610eb9565b9150610f0b82610eca565b602082019050919050565b60006020820190508181036000830152610f2f81610ef3565b9050919050565b7f4e487b7100000000000000000000000000000000000000000000000000000000600052603160045260246000fd5b6000610f7082610b19565b9150610f7b83610b19565b9250828202610f8981610b19565b91508282048414831517610fa057610f9f610dae565b5b5092915050565b6000610fb282610b19565b9150610fbd83610b19565b9250828201905080821115610fd557610fd4610dae565b5b9291505056fea2646970667358221220ed5176da448f9b67cd64e670f5edd308f13351acdd255256fd202e3c9bb64d6764736f6c63430008120033608060405234801561001057600080fd5b50600080806001815401808255809150506001900390600052602060002001600090919091909150556105e5806100486000396000f3fe608060405234801561001057600080fd5b50600436106100575760003560e01c806392d8e4281461005c578063a47ea7181461007a578063e96aff0b14610096578063f63c2e09146100c6578063f9d6a52e146100f6575b600080fd5b610064610126565b60405161007191906103f8565b60405180910390f35b610094600480360381019061008f9190610444565b6101d7565b005b6100b060048036038101906100ab9190610444565b6102c0565b6040516100bd91906103f8565b60405180910390f35b6100e060048036038101906100db9190610444565b610397565b6040516100ed91906103f8565b60405180910390f35b610110600480360381019061010b9190610444565b6103bb565b60405161011d91906103f8565b60405180910390f35b600080600180549050036101755760008080600181540180825580915050600190039060005260206000200160009091909190915055600160008054905061016e91906104a0565b90506101d4565b6000600180808054905061018991906104a0565b8154811061019a576101996104d4565b5b9060005260206000200154905060018054806101b9576101b8610503565b5b60019003818190600052602060002001600090559055809150505b90565b600081141580156101ec575060008054905081105b61022b576040517f08c379a00000000000000000000000000000000000000000000000000000000081526004016102229061058f565b60405180910390fd5b600160008054905061023d91906104a0565b810361027057600080548061025557610254610503565b5b600190038181906000526020600020016000905590556102bd565b6000808281548110610285576102846104d4565b5b906000526020600020018190555060018190806001815401808255809150506001900390600052602060002001600090919091909150555b50565b60008060018054905003610310576000829080600181540180825580915050600190039060005260206000200160009091909190915055600160008054905061030991906104a0565b9050610392565b6000600180808054905061032491906104a0565b81548110610335576103346104d4565b5b90600052602060002001549050600180548061035457610353610503565b5b60019003818190600052602060002001600090559055826000828154811061037f5761037e6104d4565b5b9060005260206000200181905550809150505b919050565b600181815481106103a757600080fd5b906000526020600020016000915090505481565b600081815481106103cb57600080fd5b906000526020600020016000915090505481565b6000819050919050565b6103f2816103df565b82525050565b600060208201905061040d60008301846103e9565b92915050565b600080fd5b610421816103df565b811461042c57600080fd5b50565b60008135905061043e81610418565b92915050565b60006020828403121561045a57610459610413565b5b60006104688482850161042f565b91505092915050565b7f4e487b7100000000000000000000000000000000000000000000000000000000600052601160045260246000fd5b60006104ab826103df565b91506104b6836103df565b92508282039050818111156104ce576104cd610471565b5b92915050565b7f4e487b7100000000000000000000000000000000000000000000000000000000600052603260045260246000fd5b7f4e487b7100000000000000000000000000000000000000000000000000000000600052603160045260246000fd5b600082825260208201905092915050565b7f43616e6e6f742064656c657465206e756c6c7074720000000000000000000000600082015250565b6000610579601583610532565b915061058482610543565b602082019050919050565b600060208201905081810360008301526105a88161056c565b905091905056fea264697066735822122064a6f7ebd4ac736104c492e88b8164f0fe076101dabe3219644bdf97d928ba5b64736f6c63430008120033",
					"opcodes": "PUSH1 0x80 PUSH1 0x40 MSTORE CALLVALUE DUP1 ISZERO PUSH2 0x10 JUMPI PUSH1 0x0 DUP1 REVERT JUMPDEST POP PUSH1 0x40 MLOAD PUSH2 0x1D SWAP1 PUSH2 0x7F JUMP JUMPDEST PUSH1 0x40 MLOAD DUP1 SWAP2 SUB SWAP1 PUSH1 0x0 CREATE DUP1 ISZERO DUP1 ISZERO PUSH2 0x39 JUMPI RETURNDATASIZE PUSH1 0x0 DUP1 RETURNDATACOPY RETURNDATASIZE PUSH1 0x0 REVERT JUMPDEST POP PUSH1 0x1 PUSH1 0x0 PUSH2 0x100 EXP DUP2 SLOAD DUP2 PUSH20 0xFFFFFFFFFFFFFFFFFFFFFFFFFFFFFFFFFFFFFFFF MUL NOT AND SWAP1 DUP4 PUSH20 0xFFFFFFFFFFFFFFFFFFFFFFFFFFFFFFFFFFFFFFFF AND MUL OR SWAP1 SSTORE POP PUSH2 0x8C JUMP JUMPDEST PUSH2 0x62D DUP1 PUSH2 0x10AC DUP4 CODECOPY ADD SWAP1 JUMP JUMPDEST PUSH2 0x1011 DUP1 PUSH2 0x9B PUSH1 0x0 CODECOPY PUSH1 0x0 RETURN INVALID PUSH1 0x80 PUSH1 0x40 MSTORE CALLVALUE DUP1 ISZERO PUSH2 0x10 JUMPI PUSH1 0x0 DUP1 REVERT JUMPDEST POP PUSH1 0x4 CALLDATASIZE LT PUSH2 0x57 JUMPI PUSH1 0x0 CALLDATALOAD PUSH1 0xE0 SHR DUP1 PUSH4 0x13BDFACD EQ PUSH2 0x5C JUMPI DUP1 PUSH4 0x1C01F292 EQ PUSH2 0x7B JUMPI DUP1 PUSH4 0x2F5F3B3C EQ PUSH2 0xAB JUMPI DUP1 PUSH4 0x959AC484 EQ PUSH2 0xC9 JUMPI DUP1 PUSH4 0xA4ECE52C EQ PUSH2 0xF9 JUMPI JUMPDEST PUSH1 0x0 DUP1 REVERT JUMPDEST PUSH2 0x64 PUSH2 0x117 JUMP JUMPDEST PUSH1 0x40 MLOAD PUSH2 0x72 SWAP3 SWAP2 SWAP1 PUSH2 0xBB5 JUMP JUMPDEST PUSH1 0x40 MLOAD DUP1 SWAP2 SUB SWAP1 RETURN JUMPDEST PUSH2 0x95 PUSH1 0x4 DUP1 CALLDATASIZE SUB DUP2 ADD SWAP1 PUSH2 0x90 SWAP2 SWAP1 PUSH2 0xC1D JUMP JUMPDEST PUSH2 0x303 JUMP JUMPDEST PUSH1 0x40 MLOAD PUSH2 0xA2 SWAP2 SWAP1 PUSH2 0xC59 JUMP JUMPDEST PUSH1 0x40 MLOAD DUP1 SWAP2 SUB SWAP1 RETURN JUMPDEST PUSH2 0xB3 PUSH2 0x327 JUMP JUMPDEST PUSH1 0x40 MLOAD PUSH2 0xC0 SWAP2 SWAP1 PUSH2 0xCF3 JUMP JUMPDEST PUSH1 0x40 MLOAD DUP1 SWAP2 SUB SWAP1 RETURN JUMPDEST PUSH2 0xE3 PUSH1 0x4 DUP1 CALLDATASIZE SUB DUP2 ADD SWAP1 PUSH2 0xDE SWAP2 SWAP1 PUSH2 0xC1D JUMP JUMPDEST PUSH2 0x34D JUMP JUMPDEST PUSH1 0x40 MLOAD PUSH2 0xF0 SWAP2 SWAP1 PUSH2 0xC59 JUMP JUMPDEST PUSH1 0x40 MLOAD DUP1 SWAP2 SUB SWAP1 RETURN JUMPDEST PUSH2 0x101 PUSH2 0x62E JUMP JUMPDEST PUSH1 0x40 MLOAD PUSH2 0x10E SWAP2 SWAP1 PUSH2 0xC59 JUMP JUMPDEST PUSH1 0x40 MLOAD DUP1 SWAP2 SUB SWAP1 RETURN JUMPDEST PUSH1 0x60 DUP1 PUSH1 0x0 DUP1 DUP1 SLOAD SWAP1 POP PUSH8 0xFFFFFFFFFFFFFFFF DUP2 GT ISZERO PUSH2 0x13A JUMPI PUSH2 0x139 PUSH2 0xD0E JUMP JUMPDEST JUMPDEST PUSH1 0x40 MLOAD SWAP1 DUP1 DUP3 MSTORE DUP1 PUSH1 0x20 MUL PUSH1 0x20 ADD DUP3 ADD PUSH1 0x40 MSTORE DUP1 ISZERO PUSH2 0x168 JUMPI DUP2 PUSH1 0x20 ADD PUSH1 0x20 DUP3 MUL DUP1 CALLDATASIZE DUP4 CALLDATACOPY DUP1 DUP3 ADD SWAP2 POP POP SWAP1 POP JUMPDEST POP SWAP1 POP PUSH1 0x0 DUP1 DUP1 SLOAD SWAP1 POP PUSH8 0xFFFFFFFFFFFFFFFF DUP2 GT ISZERO PUSH2 0x18B JUMPI PUSH2 0x18A PUSH2 0xD0E JUMP JUMPDEST JUMPDEST PUSH1 0x40 MLOAD SWAP1 DUP1 DUP3 MSTORE DUP1 PUSH1 0x20 MUL PUSH1 0x20 ADD DUP3 ADD PUSH1 0x40 MSTORE DUP1 ISZERO PUSH2 0x1B9 JUMPI DUP2 PUSH1 0x20 ADD PUSH1 0x20 DUP3 MUL DUP1 CALLDATASIZE DUP4 CALLDATACOPY DUP1 DUP3 ADD SWAP2 POP POP SWAP1 POP JUMPDEST POP SWAP1 POP PUSH1 0x0 JUMPDEST PUSH1 0x0 DUP1 SLOAD SWAP1 POP DUP2 LT ISZERO PUSH2 0x2F6 JUMPI PUSH1 0x1 PUSH1 0x0 SWAP1 SLOAD SWAP1 PUSH2 0x100 EXP SWAP1 DIV PUSH20 0xFFFFFFFFFFFFFFFFFFFFFFFFFFFFFFFFFFFFFFFF AND PUSH20 0xFFFFFFFFFFFFFFFFFFFFFFFFFFFFFFFFFFFFFFFF AND PUSH4 0xF9D6A52E PUSH1 0x0 DUP4 DUP2 SLOAD DUP2 LT PUSH2 0x21E JUMPI PUSH2 0x21D PUSH2 0xD3D JUMP JUMPDEST JUMPDEST SWAP1 PUSH1 0x0 MSTORE PUSH1 0x20 PUSH1 0x0 KECCAK256 ADD SLOAD PUSH1 0x40 MLOAD DUP3 PUSH4 0xFFFFFFFF AND PUSH1 0xE0 SHL DUP2 MSTORE PUSH1 0x4 ADD PUSH2 0x245 SWAP2 SWAP1 PUSH2 0xC59 JUMP JUMPDEST PUSH1 0x20 PUSH1 0x40 MLOAD DUP1 DUP4 SUB DUP2 DUP7 GAS STATICCALL ISZERO DUP1 ISZERO PUSH2 0x262 JUMPI RETURNDATASIZE PUSH1 0x0 DUP1 RETURNDATACOPY RETURNDATASIZE PUSH1 0x0 REVERT JUMPDEST POP POP POP POP PUSH1 0x40 MLOAD RETURNDATASIZE PUSH1 0x1F NOT PUSH1 0x1F DUP3 ADD AND DUP3 ADD DUP1 PUSH1 0x40 MSTORE POP DUP2 ADD SWAP1 PUSH2 0x286 SWAP2 SWAP1 PUSH2 0xD81 JUMP JUMPDEST DUP4 DUP3 DUP2 MLOAD DUP2 LT PUSH2 0x299 JUMPI PUSH2 0x298 PUSH2 0xD3D JUMP JUMPDEST JUMPDEST PUSH1 0x20 MUL PUSH1 0x20 ADD ADD DUP2 DUP2 MSTORE POP POP PUSH1 0x0 DUP2 DUP2 SLOAD DUP2 LT PUSH2 0x2B9 JUMPI PUSH2 0x2B8 PUSH2 0xD3D JUMP JUMPDEST JUMPDEST SWAP1 PUSH1 0x0 MSTORE PUSH1 0x20 PUSH1 0x0 KECCAK256 ADD SLOAD DUP3 DUP3 DUP2 MLOAD DUP2 LT PUSH2 0x2D7 JUMPI PUSH2 0x2D6 PUSH2 0xD3D JUMP JUMPDEST JUMPDEST PUSH1 0x20 MUL PUSH1 0x20 ADD ADD DUP2 DUP2 MSTORE POP POP DUP1 DUP1 PUSH2 0x2EE SWAP1 PUSH2 0xDDD JUMP JUMPDEST SWAP2 POP POP PUSH2 0x1BF JUMP JUMPDEST POP DUP2 DUP2 SWAP4 POP SWAP4 POP POP POP SWAP1 SWAP2 JUMP JUMPDEST PUSH1 0x0 DUP2 DUP2 SLOAD DUP2 LT PUSH2 0x313 JUMPI PUSH1 0x0 DUP1 REVERT JUMPDEST SWAP1 PUSH1 0x0 MSTORE PUSH1 0x20 PUSH1 0x0 KECCAK256 ADD PUSH1 0x0 SWAP2 POP SWAP1 POP SLOAD DUP2 JUMP JUMPDEST PUSH1 0x1 PUSH1 0x0 SWAP1 SLOAD SWAP1 PUSH2 0x100 EXP SWAP1 DIV PUSH20 0xFFFFFFFFFFFFFFFFFFFFFFFFFFFFFFFFFFFFFFFF AND DUP2 JUMP JUMPDEST PUSH1 0x0 DUP1 PUSH1 0x1 PUSH1 0x0 SWAP1 SLOAD SWAP1 PUSH2 0x100 EXP SWAP1 DIV PUSH20 0xFFFFFFFFFFFFFFFFFFFFFFFFFFFFFFFFFFFFFFFF AND PUSH20 0xFFFFFFFFFFFFFFFFFFFFFFFFFFFFFFFFFFFFFFFF AND PUSH4 0xE96AFF0B DUP5 PUSH1 0x40 MLOAD DUP3 PUSH4 0xFFFFFFFF AND PUSH1 0xE0 SHL DUP2 MSTORE PUSH1 0x4 ADD PUSH2 0x3AB SWAP2 SWAP1 PUSH2 0xC59 JUMP JUMPDEST PUSH1 0x20 PUSH1 0x40 MLOAD DUP1 DUP4 SUB DUP2 PUSH1 0x0 DUP8 GAS CALL ISZERO DUP1 ISZERO PUSH2 0x3CA JUMPI RETURNDATASIZE PUSH1 0x0 DUP1 RETURNDATACOPY RETURNDATASIZE PUSH1 0x0 REVERT JUMPDEST POP POP POP POP PUSH1 0x40 MLOAD RETURNDATASIZE PUSH1 0x1F NOT PUSH1 0x1F DUP3 ADD AND DUP3 ADD DUP1 PUSH1 0x40 MSTORE POP DUP2 ADD SWAP1 PUSH2 0x3EE SWAP2 SWAP1 PUSH2 0xD81 JUMP JUMPDEST SWAP1 POP PUSH1 0x0 DUP2 SWAP1 DUP1 PUSH1 0x1 DUP2 SLOAD ADD DUP1 DUP3 SSTORE DUP1 SWAP2 POP POP PUSH1 0x1 SWAP1 SUB SWAP1 PUSH1 0x0 MSTORE PUSH1 0x20 PUSH1 0x0 KECCAK256 ADD PUSH1 0x0 SWAP1 SWAP2 SWAP1 SWAP2 SWAP1 SWAP2 POP SSTORE PUSH1 0x0 PUSH1 0x1 PUSH1 0x0 DUP1 SLOAD SWAP1 POP PUSH2 0x42D SWAP2 SWAP1 PUSH2 0xE25 JUMP JUMPDEST SWAP1 POP JUMPDEST PUSH1 0x0 DUP2 GT ISZERO PUSH2 0x624 JUMPI PUSH1 0x0 PUSH1 0x2 PUSH1 0x1 DUP4 PUSH2 0x44A SWAP2 SWAP1 PUSH2 0xE25 JUMP JUMPDEST PUSH2 0x454 SWAP2 SWAP1 PUSH2 0xE88 JUMP JUMPDEST SWAP1 POP PUSH1 0x1 PUSH1 0x0 SWAP1 SLOAD SWAP1 PUSH2 0x100 EXP SWAP1 DIV PUSH20 0xFFFFFFFFFFFFFFFFFFFFFFFFFFFFFFFFFFFFFFFF AND PUSH20 0xFFFFFFFFFFFFFFFFFFFFFFFFFFFFFFFFFFFFFFFF AND PUSH4 0xF9D6A52E PUSH1 0x0 DUP5 DUP2 SLOAD DUP2 LT PUSH2 0x4A8 JUMPI PUSH2 0x4A7 PUSH2 0xD3D JUMP JUMPDEST JUMPDEST SWAP1 PUSH1 0x0 MSTORE PUSH1 0x20 PUSH1 0x0 KECCAK256 ADD SLOAD PUSH1 0x40 MLOAD DUP3 PUSH4 0xFFFFFFFF AND PUSH1 0xE0 SHL DUP2 MSTORE PUSH1 0x4 ADD PUSH2 0x4CF SWAP2 SWAP1 PUSH2 0xC59 JUMP JUMPDEST PUSH1 0x20 PUSH1 0x40 MLOAD DUP1 DUP4 SUB DUP2 DUP7 GAS STATICCALL ISZERO DUP1 ISZERO PUSH2 0x4EC JUMPI RETURNDATASIZE PUSH1 0x0 DUP1 RETURNDATACOPY RETURNDATASIZE PUSH1 0x0 REVERT JUMPDEST POP POP POP POP PUSH1 0x40 MLOAD RETURNDATASIZE PUSH1 0x1F NOT PUSH1 0x1F DUP3 ADD AND DUP3 ADD DUP1 PUSH1 0x40 MSTORE POP DUP2 ADD SWAP1 PUSH2 0x510 SWAP2 SWAP1 PUSH2 0xD81 JUMP JUMPDEST PUSH1 0x1 PUSH1 0x0 SWAP1 SLOAD SWAP1 PUSH2 0x100 EXP SWAP1 DIV PUSH20 0xFFFFFFFFFFFFFFFFFFFFFFFFFFFFFFFFFFFFFFFF AND PUSH20 0xFFFFFFFFFFFFFFFFFFFFFFFFFFFFFFFFFFFFFFFF AND PUSH4 0xF9D6A52E PUSH1 0x0 DUP5 DUP2 SLOAD DUP2 LT PUSH2 0x562 JUMPI PUSH2 0x561 PUSH2 0xD3D JUMP JUMPDEST JUMPDEST SWAP1 PUSH1 0x0 MSTORE PUSH1 0x20 PUSH1 0x0 KECCAK256 ADD SLOAD PUSH1 0x40 MLOAD DUP3 PUSH4 0xFFFFFFFF AND PUSH1 0xE0 SHL DUP2 MSTORE PUSH1 0x4 ADD PUSH2 0x589 SWAP2 SWAP1 PUSH2 0xC59 JUMP JUMPDEST PUSH1 0x20 PUSH1 0x40 MLOAD DUP1 DUP4 SUB DUP2 DUP7 GAS STATICCALL ISZERO DUP1 ISZERO PUSH2 0x5A6 JUMPI RETURNDATASIZE PUSH1 0x0 DUP1 RETURNDATACOPY RETURNDATASIZE PUSH1 0x0 REVERT JUMPDEST POP POP POP POP PUSH1 0x40 MLOAD RETURNDATASIZE PUSH1 0x1F NOT PUSH1 0x1F DUP3 ADD AND DUP3 ADD DUP1 PUSH1 0x40 MSTORE POP DUP2 ADD SWAP1 PUSH2 0x5CA SWAP2 SWAP1 PUSH2 0xD81 JUMP JUMPDEST LT PUSH2 0x5D5 JUMPI POP PUSH2 0x624 JUMP JUMPDEST PUSH2 0x61B PUSH1 0x0 DUP3 DUP2 SLOAD DUP2 LT PUSH2 0x5EC JUMPI PUSH2 0x5EB PUSH2 0xD3D JUMP JUMPDEST JUMPDEST SWAP1 PUSH1 0x0 MSTORE PUSH1 0x20 PUSH1 0x0 KECCAK256 ADD SLOAD PUSH1 0x0 DUP5 DUP2 SLOAD DUP2 LT PUSH2 0x60B JUMPI PUSH2 0x60A PUSH2 0xD3D JUMP JUMPDEST JUMPDEST SWAP1 PUSH1 0x0 MSTORE PUSH1 0x20 PUSH1 0x0 KECCAK256 ADD SLOAD PUSH2 0x725 JUMP JUMPDEST DUP1 SWAP2 POP POP PUSH2 0x430 JUMP JUMPDEST DUP2 SWAP3 POP POP POP SWAP2 SWAP1 POP JUMP JUMPDEST PUSH1 0x0 DUP1 PUSH1 0x0 DUP1 SLOAD SWAP1 POP GT PUSH2 0x677 JUMPI PUSH1 0x40 MLOAD PUSH32 0x8C379A000000000000000000000000000000000000000000000000000000000 DUP2 MSTORE PUSH1 0x4 ADD PUSH2 0x66E SWAP1 PUSH2 0xF16 JUMP JUMPDEST PUSH1 0x40 MLOAD DUP1 SWAP2 SUB SWAP1 REVERT JUMPDEST PUSH1 0x0 DUP1 PUSH1 0x0 DUP2 SLOAD DUP2 LT PUSH2 0x68D JUMPI PUSH2 0x68C PUSH2 0xD3D JUMP JUMPDEST JUMPDEST SWAP1 PUSH1 0x0 MSTORE PUSH1 0x20 PUSH1 0x0 KECCAK256 ADD SLOAD SWAP1 POP PUSH1 0x0 PUSH1 0x1 PUSH1 0x0 DUP1 SLOAD SWAP1 POP PUSH2 0x6AE SWAP2 SWAP1 PUSH2 0xE25 JUMP JUMPDEST DUP2 SLOAD DUP2 LT PUSH2 0x6BF JUMPI PUSH2 0x6BE PUSH2 0xD3D JUMP JUMPDEST JUMPDEST SWAP1 PUSH1 0x0 MSTORE PUSH1 0x20 PUSH1 0x0 KECCAK256 ADD SLOAD PUSH1 0x0 DUP1 DUP2 SLOAD DUP2 LT PUSH2 0x6DE JUMPI PUSH2 0x6DD PUSH2 0xD3D JUMP JUMPDEST JUMPDEST SWAP1 PUSH1 0x0 MSTORE PUSH1 0x20 PUSH1 0x0 KECCAK256 ADD DUP2 SWAP1 SSTORE POP PUSH1 0x0 DUP1 SLOAD DUP1 PUSH2 0x6FE JUMPI PUSH2 0x6FD PUSH2 0xF36 JUMP JUMPDEST JUMPDEST PUSH1 0x1 SWAP1 SUB DUP2 DUP2 SWAP1 PUSH1 0x0 MSTORE PUSH1 0x20 PUSH1 0x0 KECCAK256 ADD PUSH1 0x0 SWAP1 SSTORE SWAP1 SSTORE PUSH2 0x71E PUSH1 0x0 PUSH2 0x735 JUMP JUMPDEST DUP1 SWAP2 POP POP SWAP1 JUMP JUMPDEST PUSH1 0x0 DUP3 SWAP1 POP DUP2 SWAP3 POP DUP1 SWAP2 POP POP POP POP JUMP JUMPDEST PUSH1 0x0 PUSH1 0x1 DUP3 PUSH1 0x2 PUSH2 0x746 SWAP2 SWAP1 PUSH2 0xF65 JUMP JUMPDEST PUSH2 0x750 SWAP2 SWAP1 PUSH2 0xFA7 JUMP JUMPDEST SWAP1 POP PUSH1 0x0 PUSH1 0x2 DUP4 PUSH1 0x2 PUSH2 0x763 SWAP2 SWAP1 PUSH2 0xF65 JUMP JUMPDEST PUSH2 0x76D SWAP2 SWAP1 PUSH2 0xFA7 JUMP JUMPDEST SWAP1 POP PUSH1 0x0 DUP4 SWAP1 POP PUSH1 0x0 DUP1 SLOAD SWAP1 POP DUP4 LT DUP1 ISZERO PUSH2 0x8F9 JUMPI POP PUSH1 0x1 PUSH1 0x0 SWAP1 SLOAD SWAP1 PUSH2 0x100 EXP SWAP1 DIV PUSH20 0xFFFFFFFFFFFFFFFFFFFFFFFFFFFFFFFFFFFFFFFF AND PUSH20 0xFFFFFFFFFFFFFFFFFFFFFFFFFFFFFFFFFFFFFFFF AND PUSH4 0xF9D6A52E PUSH1 0x0 DUP4 DUP2 SLOAD DUP2 LT PUSH2 0x7D5 JUMPI PUSH2 0x7D4 PUSH2 0xD3D JUMP JUMPDEST JUMPDEST SWAP1 PUSH1 0x0 MSTORE PUSH1 0x20 PUSH1 0x0 KECCAK256 ADD SLOAD PUSH1 0x40 MLOAD DUP3 PUSH4 0xFFFFFFFF AND PUSH1 0xE0 SHL DUP2 MSTORE PUSH1 0x4 ADD PUSH2 0x7FC SWAP2 SWAP1 PUSH2 0xC59 JUMP JUMPDEST PUSH1 0x20 PUSH1 0x40 MLOAD DUP1 DUP4 SUB DUP2 DUP7 GAS STATICCALL ISZERO DUP1 ISZERO PUSH2 0x819 JUMPI RETURNDATASIZE PUSH1 0x0 DUP1 RETURNDATACOPY RETURNDATASIZE PUSH1 0x0 REVERT JUMPDEST POP POP POP POP PUSH1 0x40 MLOAD RETURNDATASIZE PUSH1 0x1F NOT PUSH1 0x1F DUP3 ADD AND DUP3 ADD DUP1 PUSH1 0x40 MSTORE POP DUP2 ADD SWAP1 PUSH2 0x83D SWAP2 SWAP1 PUSH2 0xD81 JUMP JUMPDEST PUSH1 0x1 PUSH1 0x0 SWAP1 SLOAD SWAP1 PUSH2 0x100 EXP SWAP1 DIV PUSH20 0xFFFFFFFFFFFFFFFFFFFFFFFFFFFFFFFFFFFFFFFF AND PUSH20 0xFFFFFFFFFFFFFFFFFFFFFFFFFFFFFFFFFFFFFFFF AND PUSH4 0xF9D6A52E PUSH1 0x0 DUP7 DUP2 SLOAD DUP2 LT PUSH2 0x88F JUMPI PUSH2 0x88E PUSH2 0xD3D JUMP JUMPDEST JUMPDEST SWAP1 PUSH1 0x0 MSTORE PUSH1 0x20 PUSH1 0x0 KECCAK256 ADD SLOAD PUSH1 0x40 MLOAD DUP3 PUSH4 0xFFFFFFFF AND PUSH1 0xE0 SHL DUP2 MSTORE PUSH1 0x4 ADD PUSH2 0x8B6 SWAP2 SWAP1 PUSH2 0xC59 JUMP JUMPDEST PUSH1 0x20 PUSH1 0x40 MLOAD DUP1 DUP4 SUB DUP2 DUP7 GAS STATICCALL ISZERO DUP1 ISZERO PUSH2 0x8D3 JUMPI RETURNDATASIZE PUSH1 0x0 DUP1 RETURNDATACOPY RETURNDATASIZE PUSH1 0x0 REVERT JUMPDEST POP POP POP POP PUSH1 0x40 MLOAD RETURNDATASIZE PUSH1 0x1F NOT PUSH1 0x1F DUP3 ADD AND DUP3 ADD DUP1 PUSH1 0x40 MSTORE POP DUP2 ADD SWAP1 PUSH2 0x8F7 SWAP2 SWAP1 PUSH2 0xD81 JUMP JUMPDEST GT JUMPDEST ISZERO PUSH2 0x902 JUMPI DUP3 SWAP1 POP JUMPDEST PUSH1 0x0 DUP1 SLOAD SWAP1 POP DUP3 LT DUP1 ISZERO PUSH2 0xA87 JUMPI POP PUSH1 0x1 PUSH1 0x0 SWAP1 SLOAD SWAP1 PUSH2 0x100 EXP SWAP1 DIV PUSH20 0xFFFFFFFFFFFFFFFFFFFFFFFFFFFFFFFFFFFFFFFF AND PUSH20 0xFFFFFFFFFFFFFFFFFFFFFFFFFFFFFFFFFFFFFFFF AND PUSH4 0xF9D6A52E PUSH1 0x0 DUP4 DUP2 SLOAD DUP2 LT PUSH2 0x963 JUMPI PUSH2 0x962 PUSH2 0xD3D JUMP JUMPDEST JUMPDEST SWAP1 PUSH1 0x0 MSTORE PUSH1 0x20 PUSH1 0x0 KECCAK256 ADD SLOAD PUSH1 0x40 MLOAD DUP3 PUSH4 0xFFFFFFFF AND PUSH1 0xE0 SHL DUP2 MSTORE PUSH1 0x4 ADD PUSH2 0x98A SWAP2 SWAP1 PUSH2 0xC59 JUMP JUMPDEST PUSH1 0x20 PUSH1 0x40 MLOAD DUP1 DUP4 SUB DUP2 DUP7 GAS STATICCALL ISZERO DUP1 ISZERO PUSH2 0x9A7 JUMPI RETURNDATASIZE PUSH1 0x0 DUP1 RETURNDATACOPY RETURNDATASIZE PUSH1 0x0 REVERT JUMPDEST POP POP POP POP PUSH1 0x40 MLOAD RETURNDATASIZE PUSH1 0x1F NOT PUSH1 0x1F DUP3 ADD AND DUP3 ADD DUP1 PUSH1 0x40 MSTORE POP DUP2 ADD SWAP1 PUSH2 0x9CB SWAP2 SWAP1 PUSH2 0xD81 JUMP JUMPDEST PUSH1 0x1 PUSH1 0x0 SWAP1 SLOAD SWAP1 PUSH2 0x100 EXP SWAP1 DIV PUSH20 0xFFFFFFFFFFFFFFFFFFFFFFFFFFFFFFFFFFFFFFFF AND PUSH20 0xFFFFFFFFFFFFFFFFFFFFFFFFFFFFFFFFFFFFFFFF AND PUSH4 0xF9D6A52E PUSH1 0x0 DUP6 DUP2 SLOAD DUP2 LT PUSH2 0xA1D JUMPI PUSH2 0xA1C PUSH2 0xD3D JUMP JUMPDEST JUMPDEST SWAP1 PUSH1 0x0 MSTORE PUSH1 0x20 PUSH1 0x0 KECCAK256 ADD SLOAD PUSH1 0x40 MLOAD DUP3 PUSH4 0xFFFFFFFF AND PUSH1 0xE0 SHL DUP2 MSTORE PUSH1 0x4 ADD PUSH2 0xA44 SWAP2 SWAP1 PUSH2 0xC59 JUMP JUMPDEST PUSH1 0x20 PUSH1 0x40 MLOAD DUP1 DUP4 SUB DUP2 DUP7 GAS STATICCALL ISZERO DUP1 ISZERO PUSH2 0xA61 JUMPI RETURNDATASIZE PUSH1 0x0 DUP1 RETURNDATACOPY RETURNDATASIZE PUSH1 0x0 REVERT JUMPDEST POP POP POP POP PUSH1 0x40 MLOAD RETURNDATASIZE PUSH1 0x1F NOT PUSH1 0x1F DUP3 ADD AND DUP3 ADD DUP1 PUSH1 0x40 MSTORE POP DUP2 ADD SWAP1 PUSH2 0xA85 SWAP2 SWAP1 PUSH2 0xD81 JUMP JUMPDEST GT JUMPDEST ISZERO PUSH2 0xA90 JUMPI DUP2 SWAP1 POP JUMPDEST DUP4 DUP2 EQ PUSH2 0xAE7 JUMPI PUSH2 0xADD PUSH1 0x0 DUP6 DUP2 SLOAD DUP2 LT PUSH2 0xAAE JUMPI PUSH2 0xAAD PUSH2 0xD3D JUMP JUMPDEST JUMPDEST SWAP1 PUSH1 0x0 MSTORE PUSH1 0x20 PUSH1 0x0 KECCAK256 ADD SLOAD PUSH1 0x0 DUP4 DUP2 SLOAD DUP2 LT PUSH2 0xACD JUMPI PUSH2 0xACC PUSH2 0xD3D JUMP JUMPDEST JUMPDEST SWAP1 PUSH1 0x0 MSTORE PUSH1 0x20 PUSH1 0x0 KECCAK256 ADD SLOAD PUSH2 0x725 JUMP JUMPDEST PUSH2 0xAE6 DUP2 PUSH2 0x735 JUMP JUMPDEST JUMPDEST POP POP POP POP JUMP JUMPDEST PUSH1 0x0 DUP2 MLOAD SWAP1 POP SWAP2 SWAP1 POP JUMP JUMPDEST PUSH1 0x0 DUP3 DUP3 MSTORE PUSH1 0x20 DUP3 ADD SWAP1 POP SWAP3 SWAP2 POP POP JUMP JUMPDEST PUSH1 0x0 DUP2 SWAP1 POP PUSH1 0x20 DUP3 ADD SWAP1 POP SWAP2 SWAP1 POP JUMP JUMPDEST PUSH1 0x0 DUP2 SWAP1 POP SWAP2 SWAP1 POP JUMP JUMPDEST PUSH2 0xB2C DUP2 PUSH2 0xB19 JUMP JUMPDEST DUP3 MSTORE POP POP JUMP JUMPDEST PUSH1 0x0 PUSH2 0xB3E DUP4 DUP4 PUSH2 0xB23 JUMP JUMPDEST PUSH1 0x20 DUP4 ADD SWAP1 POP SWAP3 SWAP2 POP POP JUMP JUMPDEST PUSH1 0x0 PUSH1 0x20 DUP3 ADD SWAP1 POP SWAP2 SWAP1 POP JUMP JUMPDEST PUSH1 0x0 PUSH2 0xB62 DUP3 PUSH2 0xAED JUMP JUMPDEST PUSH2 0xB6C DUP2 DUP6 PUSH2 0xAF8 JUMP JUMPDEST SWAP4 POP PUSH2 0xB77 DUP4 PUSH2 0xB09 JUMP JUMPDEST DUP1 PUSH1 0x0 JUMPDEST DUP4 DUP2 LT ISZERO PUSH2 0xBA8 JUMPI DUP2 MLOAD PUSH2 0xB8F DUP9 DUP3 PUSH2 0xB32 JUMP JUMPDEST SWAP8 POP PUSH2 0xB9A DUP4 PUSH2 0xB4A JUMP JUMPDEST SWAP3 POP POP PUSH1 0x1 DUP2 ADD SWAP1 POP PUSH2 0xB7B JUMP JUMPDEST POP DUP6 SWAP4 POP POP POP POP SWAP3 SWAP2 POP POP JUMP JUMPDEST PUSH1 0x0 PUSH1 0x40 DUP3 ADD SWAP1 POP DUP2 DUP2 SUB PUSH1 0x0 DUP4 ADD MSTORE PUSH2 0xBCF DUP2 DUP6 PUSH2 0xB57 JUMP JUMPDEST SWAP1 POP DUP2 DUP2 SUB PUSH1 0x20 DUP4 ADD MSTORE PUSH2 0xBE3 DUP2 DUP5 PUSH2 0xB57 JUMP JUMPDEST SWAP1 POP SWAP4 SWAP3 POP POP POP JUMP JUMPDEST PUSH1 0x0 DUP1 REVERT JUMPDEST PUSH2 0xBFA DUP2 PUSH2 0xB19 JUMP JUMPDEST DUP2 EQ PUSH2 0xC05 JUMPI PUSH1 0x0 DUP1 REVERT JUMPDEST POP JUMP JUMPDEST PUSH1 0x0 DUP2 CALLDATALOAD SWAP1 POP PUSH2 0xC17 DUP2 PUSH2 0xBF1 JUMP JUMPDEST SWAP3 SWAP2 POP POP JUMP JUMPDEST PUSH1 0x0 PUSH1 0x20 DUP3 DUP5 SUB SLT ISZERO PUSH2 0xC33 JUMPI PUSH2 0xC32 PUSH2 0xBEC JUMP JUMPDEST JUMPDEST PUSH1 0x0 PUSH2 0xC41 DUP5 DUP3 DUP6 ADD PUSH2 0xC08 JUMP JUMPDEST SWAP2 POP POP SWAP3 SWAP2 POP POP JUMP JUMPDEST PUSH2 0xC53 DUP2 PUSH2 0xB19 JUMP JUMPDEST DUP3 MSTORE POP POP JUMP JUMPDEST PUSH1 0x0 PUSH1 0x20 DUP3 ADD SWAP1 POP PUSH2 0xC6E PUSH1 0x0 DUP4 ADD DUP5 PUSH2 0xC4A JUMP JUMPDEST SWAP3 SWAP2 POP POP JUMP JUMPDEST PUSH1 0x0 PUSH20 0xFFFFFFFFFFFFFFFFFFFFFFFFFFFFFFFFFFFFFFFF DUP3 AND SWAP1 POP SWAP2 SWAP1 POP JUMP JUMPDEST PUSH1 0x0 DUP2 SWAP1 POP SWAP2 SWAP1 POP JUMP JUMPDEST PUSH1 0x0 PUSH2 0xCB9 PUSH2 0xCB4 PUSH2 0xCAF DUP5 PUSH2 0xC74 JUMP JUMPDEST PUSH2 0xC94 JUMP JUMPDEST PUSH2 0xC74 JUMP JUMPDEST SWAP1 POP SWAP2 SWAP1 POP JUMP JUMPDEST PUSH1 0x0 PUSH2 0xCCB DUP3 PUSH2 0xC9E JUMP JUMPDEST SWAP1 POP SWAP2 SWAP1 POP JUMP JUMPDEST PUSH1 0x0 PUSH2 0xCDD DUP3 PUSH2 0xCC0 JUMP JUMPDEST SWAP1 POP SWAP2 SWAP1 POP JUMP JUMPDEST PUSH2 0xCED DUP2 PUSH2 0xCD2 JUMP JUMPDEST DUP3 MSTORE POP POP JUMP JUMPDEST PUSH1 0x0 PUSH1 0x20 DUP3 ADD SWAP1 POP PUSH2 0xD08 PUSH1 0x0 DUP4 ADD DUP5 PUSH2 0xCE4 JUMP JUMPDEST SWAP3 SWAP2 POP POP JUMP JUMPDEST PUSH32 0x4E487B7100000000000000000000000000000000000000000000000000000000 PUSH1 0x0 MSTORE PUSH1 0x41 PUSH1 0x4 MSTORE PUSH1 0x24 PUSH1 0x0 REVERT JUMPDEST PUSH32 0x4E487B7100000000000000000000000000000000000000000000000000000000 PUSH1 0x0 MSTORE PUSH1 0x32 PUSH1 0x4 MSTORE PUSH1 0x24 PUSH1 0x0 REVERT JUMPDEST PUSH1 0x0 DUP2 MLOAD SWAP1 POP PUSH2 0xD7B DUP2 PUSH2 0xBF1 JUMP JUMPDEST SWAP3 SWAP2 POP POP JUMP JUMPDEST PUSH1 0x0 PUSH1 0x20 DUP3 DUP5 SUB SLT ISZERO PUSH2 0xD97 JUMPI PUSH2 0xD96 PUSH2 0xBEC JUMP JUMPDEST JUMPDEST PUSH1 0x0 PUSH2 0xDA5 DUP5 DUP3 DUP6 ADD PUSH2 0xD6C JUMP JUMPDEST SWAP2 POP POP SWAP3 SWAP2 POP POP JUMP JUMPDEST PUSH32 0x4E487B7100000000000000000000000000000000000000000000000000000000 PUSH1 0x0 MSTORE PUSH1 0x11 PUSH1 0x4 MSTORE PUSH1 0x24 PUSH1 0x0 REVERT JUMPDEST PUSH1 0x0 PUSH2 0xDE8 DUP3 PUSH2 0xB19 JUMP JUMPDEST SWAP2 POP PUSH32 0xFFFFFFFFFFFFFFFFFFFFFFFFFFFFFFFFFFFFFFFFFFFFFFFFFFFFFFFFFFFFFFFF DUP3 SUB PUSH2 0xE1A JUMPI PUSH2 0xE19 PUSH2 0xDAE JUMP JUMPDEST JUMPDEST PUSH1 0x1 DUP3 ADD SWAP1 POP SWAP2 SWAP1 POP JUMP JUMPDEST PUSH1 0x0 PUSH2 0xE30 DUP3 PUSH2 0xB19 JUMP JUMPDEST SWAP2 POP PUSH2 0xE3B DUP4 PUSH2 0xB19 JUMP JUMPDEST SWAP3 POP DUP3 DUP3 SUB SWAP1 POP DUP2 DUP2 GT ISZERO PUSH2 0xE53 JUMPI PUSH2 0xE52 PUSH2 0xDAE JUMP JUMPDEST JUMPDEST SWAP3 SWAP2 POP POP JUMP JUMPDEST PUSH32 0x4E487B7100000000000000000000000000000000000000000000000000000000 PUSH1 0x0 MSTORE PUSH1 0x12 PUSH1 0x4 MSTORE PUSH1 0x24 PUSH1 0x0 REVERT JUMPDEST PUSH1 0x0 PUSH2 0xE93 DUP3 PUSH2 0xB19 JUMP JUMPDEST SWAP2 POP PUSH2 0xE9E DUP4 PUSH2 0xB19 JUMP JUMPDEST SWAP3 POP DUP3 PUSH2 0xEAE JUMPI PUSH2 0xEAD PUSH2 0xE59 JUMP JUMPDEST JUMPDEST DUP3 DUP3 DIV SWAP1 POP SWAP3 SWAP2 POP POP JUMP JUMPDEST PUSH1 0x0 DUP3 DUP3 MSTORE PUSH1 0x20 DUP3 ADD SWAP1 POP SWAP3 SWAP2 POP POP JUMP JUMPDEST PUSH32 0x4865617020697320656D70747900000000000000000000000000000000000000 PUSH1 0x0 DUP3 ADD MSTORE POP JUMP JUMPDEST PUSH1 0x0 PUSH2 0xF00 PUSH1 0xD DUP4 PUSH2 0xEB9 JUMP JUMPDEST SWAP2 POP PUSH2 0xF0B DUP3 PUSH2 0xECA JUMP JUMPDEST PUSH1 0x20 DUP3 ADD SWAP1 POP SWAP2 SWAP1 POP JUMP JUMPDEST PUSH1 0x0 PUSH1 0x20 DUP3 ADD SWAP1 POP DUP2 DUP2 SUB PUSH1 0x0 DUP4 ADD MSTORE PUSH2 0xF2F DUP2 PUSH2 0xEF3 JUMP JUMPDEST SWAP1 POP SWAP2 SWAP1 POP JUMP JUMPDEST PUSH32 0x4E487B7100000000000000000000000000000000000000000000000000000000 PUSH1 0x0 MSTORE PUSH1 0x31 PUSH1 0x4 MSTORE PUSH1 0x24 PUSH1 0x0 REVERT JUMPDEST PUSH1 0x0 PUSH2 0xF70 DUP3 PUSH2 0xB19 JUMP JUMPDEST SWAP2 POP PUSH2 0xF7B DUP4 PUSH2 0xB19 JUMP JUMPDEST SWAP3 POP DUP3 DUP3 MUL PUSH2 0xF89 DUP2 PUSH2 0xB19 JUMP JUMPDEST SWAP2 POP DUP3 DUP3 DIV DUP5 EQ DUP4 ISZERO OR PUSH2 0xFA0 JUMPI PUSH2 0xF9F PUSH2 0xDAE JUMP JUMPDEST JUMPDEST POP SWAP3 SWAP2 POP POP JUMP JUMPDEST PUSH1 0x0 PUSH2 0xFB2 DUP3 PUSH2 0xB19 JUMP JUMPDEST SWAP2 POP PUSH2 0xFBD DUP4 PUSH2 0xB19 JUMP JUMPDEST SWAP3 POP DUP3 DUP3 ADD SWAP1 POP DUP1 DUP3 GT ISZERO PUSH2 0xFD5 JUMPI PUSH2 0xFD4 PUSH2 0xDAE JUMP JUMPDEST JUMPDEST SWAP3 SWAP2 POP POP JUMP INVALID LOG2 PUSH5 0x6970667358 0x22 SLT KECCAK256 0xED MLOAD PUSH23 0xDA448F9B67CD64E670F5EDD308F13351ACDD255256FD20 0x2E EXTCODECOPY SWAP12 0xB6 0x4D PUSH8 0x64736F6C63430008 SLT STOP CALLER PUSH1 0x80 PUSH1 0x40 MSTORE CALLVALUE DUP1 ISZERO PUSH2 0x10 JUMPI PUSH1 0x0 DUP1 REVERT JUMPDEST POP PUSH1 0x0 DUP1 DUP1 PUSH1 0x1 DUP2 SLOAD ADD DUP1 DUP3 SSTORE DUP1 SWAP2 POP POP PUSH1 0x1 SWAP1 SUB SWAP1 PUSH1 0x0 MSTORE PUSH1 0x20 PUSH1 0x0 KECCAK256 ADD PUSH1 0x0 SWAP1 SWAP2 SWAP1 SWAP2 SWAP1 SWAP2 POP SSTORE PUSH2 0x5E5 DUP1 PUSH2 0x48 PUSH1 0x0 CODECOPY PUSH1 0x0 RETURN INVALID PUSH1 0x80 PUSH1 0x40 MSTORE CALLVALUE DUP1 ISZERO PUSH2 0x10 JUMPI PUSH1 0x0 DUP1 REVERT JUMPDEST POP PUSH1 0x4 CALLDATASIZE LT PUSH2 0x57 JUMPI PUSH1 0x0 CALLDATALOAD PUSH1 0xE0 SHR DUP1 PUSH4 0x92D8E428 EQ PUSH2 0x5C JUMPI DUP1 PUSH4 0xA47EA718 EQ PUSH2 0x7A JUMPI DUP1 PUSH4 0xE96AFF0B EQ PUSH2 0x96 JUMPI DUP1 PUSH4 0xF63C2E09 EQ PUSH2 0xC6 JUMPI DUP1 PUSH4 0xF9D6A52E EQ PUSH2 0xF6 JUMPI JUMPDEST PUSH1 0x0 DUP1 REVERT JUMPDEST PUSH2 0x64 PUSH2 0x126 JUMP JUMPDEST PUSH1 0x40 MLOAD PUSH2 0x71 SWAP2 SWAP1 PUSH2 0x3F8 JUMP JUMPDEST PUSH1 0x40 MLOAD DUP1 SWAP2 SUB SWAP1 RETURN JUMPDEST PUSH2 0x94 PUSH1 0x4 DUP1 CALLDATASIZE SUB DUP2 ADD SWAP1 PUSH2 0x8F SWAP2 SWAP1 PUSH2 0x444 JUMP JUMPDEST PUSH2 0x1D7 JUMP JUMPDEST STOP JUMPDEST PUSH2 0xB0 PUSH1 0x4 DUP1 CALLDATASIZE SUB DUP2 ADD SWAP1 PUSH2 0xAB SWAP2 SWAP1 PUSH2 0x444 JUMP JUMPDEST PUSH2 0x2C0 JUMP JUMPDEST PUSH1 0x40 MLOAD PUSH2 0xBD SWAP2 SWAP1 PUSH2 0x3F8 JUMP JUMPDEST PUSH1 0x40 MLOAD DUP1 SWAP2 SUB SWAP1 RETURN JUMPDEST PUSH2 0xE0 PUSH1 0x4 DUP1 CALLDATASIZE SUB DUP2 ADD SWAP1 PUSH2 0xDB SWAP2 SWAP1 PUSH2 0x444 JUMP JUMPDEST PUSH2 0x397 JUMP JUMPDEST PUSH1 0x40 MLOAD PUSH2 0xED SWAP2 SWAP1 PUSH2 0x3F8 JUMP JUMPDEST PUSH1 0x40 MLOAD DUP1 SWAP2 SUB SWAP1 RETURN JUMPDEST PUSH2 0x110 PUSH1 0x4 DUP1 CALLDATASIZE SUB DUP2 ADD SWAP1 PUSH2 0x10B SWAP2 SWAP1 PUSH2 0x444 JUMP JUMPDEST PUSH2 0x3BB JUMP JUMPDEST PUSH1 0x40 MLOAD PUSH2 0x11D SWAP2 SWAP1 PUSH2 0x3F8 JUMP JUMPDEST PUSH1 0x40 MLOAD DUP1 SWAP2 SUB SWAP1 RETURN JUMPDEST PUSH1 0x0 DUP1 PUSH1 0x1 DUP1 SLOAD SWAP1 POP SUB PUSH2 0x175 JUMPI PUSH1 0x0 DUP1 DUP1 PUSH1 0x1 DUP2 SLOAD ADD DUP1 DUP3 SSTORE DUP1 SWAP2 POP POP PUSH1 0x1 SWAP1 SUB SWAP1 PUSH1 0x0 MSTORE PUSH1 0x20 PUSH1 0x0 KECCAK256 ADD PUSH1 0x0 SWAP1 SWAP2 SWAP1 SWAP2 SWAP1 SWAP2 POP SSTORE PUSH1 0x1 PUSH1 0x0 DUP1 SLOAD SWAP1 POP PUSH2 0x16E SWAP2 SWAP1 PUSH2 0x4A0 JUMP JUMPDEST SWAP1 POP PUSH2 0x1D4 JUMP JUMPDEST PUSH1 0x0 PUSH1 0x1 DUP1 DUP1 DUP1 SLOAD SWAP1 POP PUSH2 0x189 SWAP2 SWAP1 PUSH2 0x4A0 JUMP JUMPDEST DUP2 SLOAD DUP2 LT PUSH2 0x19A JUMPI PUSH2 0x199 PUSH2 0x4D4 JUMP JUMPDEST JUMPDEST SWAP1 PUSH1 0x0 MSTORE PUSH1 0x20 PUSH1 0x0 KECCAK256 ADD SLOAD SWAP1 POP PUSH1 0x1 DUP1 SLOAD DUP1 PUSH2 0x1B9 JUMPI PUSH2 0x1B8 PUSH2 0x503 JUMP JUMPDEST JUMPDEST PUSH1 0x1 SWAP1 SUB DUP2 DUP2 SWAP1 PUSH1 0x0 MSTORE PUSH1 0x20 PUSH1 0x0 KECCAK256 ADD PUSH1 0x0 SWAP1 SSTORE SWAP1 SSTORE DUP1 SWAP2 POP POP JUMPDEST SWAP1 JUMP JUMPDEST PUSH1 0x0 DUP2 EQ ISZERO DUP1 ISZERO PUSH2 0x1EC JUMPI POP PUSH1 0x0 DUP1 SLOAD SWAP1 POP DUP2 LT JUMPDEST PUSH2 0x22B JUMPI PUSH1 0x40 MLOAD PUSH32 0x8C379A000000000000000000000000000000000000000000000000000000000 DUP2 MSTORE PUSH1 0x4 ADD PUSH2 0x222 SWAP1 PUSH2 0x58F JUMP JUMPDEST PUSH1 0x40 MLOAD DUP1 SWAP2 SUB SWAP1 REVERT JUMPDEST PUSH1 0x1 PUSH1 0x0 DUP1 SLOAD SWAP1 POP PUSH2 0x23D SWAP2 SWAP1 PUSH2 0x4A0 JUMP JUMPDEST DUP2 SUB PUSH2 0x270 JUMPI PUSH1 0x0 DUP1 SLOAD DUP1 PUSH2 0x255 JUMPI PUSH2 0x254 PUSH2 0x503 JUMP JUMPDEST JUMPDEST PUSH1 0x1 SWAP1 SUB DUP2 DUP2 SWAP1 PUSH1 0x0 MSTORE PUSH1 0x20 PUSH1 0x0 KECCAK256 ADD PUSH1 0x0 SWAP1 SSTORE SWAP1 SSTORE PUSH2 0x2BD JUMP JUMPDEST PUSH1 0x0 DUP1 DUP3 DUP2 SLOAD DUP2 LT PUSH2 0x285 JUMPI PUSH2 0x284 PUSH2 0x4D4 JUMP JUMPDEST JUMPDEST SWAP1 PUSH1 0x0 MSTORE PUSH1 0x20 PUSH1 0x0 KECCAK256 ADD DUP2 SWAP1 SSTORE POP PUSH1 0x1 DUP2 SWAP1 DUP1 PUSH1 0x1 DUP2 SLOAD ADD DUP1 DUP3 SSTORE DUP1 SWAP2 POP POP PUSH1 0x1 SWAP1 SUB SWAP1 PUSH1 0x0 MSTORE PUSH1 0x20 PUSH1 0x0 KECCAK256 ADD PUSH1 0x0 SWAP1 SWAP2 SWAP1 SWAP2 SWAP1 SWAP2 POP SSTORE JUMPDEST POP JUMP JUMPDEST PUSH1 0x0 DUP1 PUSH1 0x1 DUP1 SLOAD SWAP1 POP SUB PUSH2 0x310 JUMPI PUSH1 0x0 DUP3 SWAP1 DUP1 PUSH1 0x1 DUP2 SLOAD ADD DUP1 DUP3 SSTORE DUP1 SWAP2 POP POP PUSH1 0x1 SWAP1 SUB SWAP1 PUSH1 0x0 MSTORE PUSH1 0x20 PUSH1 0x0 KECCAK256 ADD PUSH1 0x0 SWAP1 SWAP2 SWAP1 SWAP2 SWAP1 SWAP2 POP SSTORE PUSH1 0x1 PUSH1 0x0 DUP1 SLOAD SWAP1 POP PUSH2 0x309 SWAP2 SWAP1 PUSH2 0x4A0 JUMP JUMPDEST SWAP1 POP PUSH2 0x392 JUMP JUMPDEST PUSH1 0x0 PUSH1 0x1 DUP1 DUP1 DUP1 SLOAD SWAP1 POP PUSH2 0x324 SWAP2 SWAP1 PUSH2 0x4A0 JUMP JUMPDEST DUP2 SLOAD DUP2 LT PUSH2 0x335 JUMPI PUSH2 0x334 PUSH2 0x4D4 JUMP JUMPDEST JUMPDEST SWAP1 PUSH1 0x0 MSTORE PUSH1 0x20 PUSH1 0x0 KECCAK256 ADD SLOAD SWAP1 POP PUSH1 0x1 DUP1 SLOAD DUP1 PUSH2 0x354 JUMPI PUSH2 0x353 PUSH2 0x503 JUMP JUMPDEST JUMPDEST PUSH1 0x1 SWAP1 SUB DUP2 DUP2 SWAP1 PUSH1 0x0 MSTORE PUSH1 0x20 PUSH1 0x0 KECCAK256 ADD PUSH1 0x0 SWAP1 SSTORE SWAP1 SSTORE DUP3 PUSH1 0x0 DUP3 DUP2 SLOAD DUP2 LT PUSH2 0x37F JUMPI PUSH2 0x37E PUSH2 0x4D4 JUMP JUMPDEST JUMPDEST SWAP1 PUSH1 0x0 MSTORE PUSH1 0x20 PUSH1 0x0 KECCAK256 ADD DUP2 SWAP1 SSTORE POP DUP1 SWAP2 POP POP JUMPDEST SWAP2 SWAP1 POP JUMP JUMPDEST PUSH1 0x1 DUP2 DUP2 SLOAD DUP2 LT PUSH2 0x3A7 JUMPI PUSH1 0x0 DUP1 REVERT JUMPDEST SWAP1 PUSH1 0x0 MSTORE PUSH1 0x20 PUSH1 0x0 KECCAK256 ADD PUSH1 0x0 SWAP2 POP SWAP1 POP SLOAD DUP2 JUMP JUMPDEST PUSH1 0x0 DUP2 DUP2 SLOAD DUP2 LT PUSH2 0x3CB JUMPI PUSH1 0x0 DUP1 REVERT JUMPDEST SWAP1 PUSH1 0x0 MSTORE PUSH1 0x20 PUSH1 0x0 KECCAK256 ADD PUSH1 0x0 SWAP2 POP SWAP1 POP SLOAD DUP2 JUMP JUMPDEST PUSH1 0x0 DUP2 SWAP1 POP SWAP2 SWAP1 POP JUMP JUMPDEST PUSH2 0x3F2 DUP2 PUSH2 0x3DF JUMP JUMPDEST DUP3 MSTORE POP POP JUMP JUMPDEST PUSH1 0x0 PUSH1 0x20 DUP3 ADD SWAP1 POP PUSH2 0x40D PUSH1 0x0 DUP4 ADD DUP5 PUSH2 0x3E9 JUMP JUMPDEST SWAP3 SWAP2 POP POP JUMP JUMPDEST PUSH1 0x0 DUP1 REVERT JUMPDEST PUSH2 0x421 DUP2 PUSH2 0x3DF JUMP JUMPDEST DUP2 EQ PUSH2 0x42C JUMPI PUSH1 0x0 DUP1 REVERT JUMPDEST POP JUMP JUMPDEST PUSH1 0x0 DUP2 CALLDATALOAD SWAP1 POP PUSH2 0x43E DUP2 PUSH2 0x418 JUMP JUMPDEST SWAP3 SWAP2 POP POP JUMP JUMPDEST PUSH1 0x0 PUSH1 0x20 DUP3 DUP5 SUB SLT ISZERO PUSH2 0x45A JUMPI PUSH2 0x459 PUSH2 0x413 JUMP JUMPDEST JUMPDEST PUSH1 0x0 PUSH2 0x468 DUP5 DUP3 DUP6 ADD PUSH2 0x42F JUMP JUMPDEST SWAP2 POP POP SWAP3 SWAP2 POP POP JUMP JUMPDEST PUSH32 0x4E487B7100000000000000000000000000000000000000000000000000000000 PUSH1 0x0 MSTORE PUSH1 0x11 PUSH1 0x4 MSTORE PUSH1 0x24 PUSH1 0x0 REVERT JUMPDEST PUSH1 0x0 PUSH2 0x4AB DUP3 PUSH2 0x3DF JUMP JUMPDEST SWAP2 POP PUSH2 0x4B6 DUP4 PUSH2 0x3DF JUMP JUMPDEST SWAP3 POP DUP3 DUP3 SUB SWAP1 POP DUP2 DUP2 GT ISZERO PUSH2 0x4CE JUMPI PUSH2 0x4CD PUSH2 0x471 JUMP JUMPDEST JUMPDEST SWAP3 SWAP2 POP POP JUMP JUMPDEST PUSH32 0x4E487B7100000000000000000000000000000000000000000000000000000000 PUSH1 0x0 MSTORE PUSH1 0x32 PUSH1 0x4 MSTORE PUSH1 0x24 PUSH1 0x0 REVERT JUMPDEST PUSH32 0x4E487B7100000000000000000000000000000000000000000000000000000000 PUSH1 0x0 MSTORE PUSH1 0x31 PUSH1 0x4 MSTORE PUSH1 0x24 PUSH1 0x0 REVERT JUMPDEST PUSH1 0x0 DUP3 DUP3 MSTORE PUSH1 0x20 DUP3 ADD SWAP1 POP SWAP3 SWAP2 POP POP JUMP JUMPDEST PUSH32 0x43616E6E6F742064656C657465206E756C6C7074720000000000000000000000 PUSH1 0x0 DUP3 ADD MSTORE POP JUMP JUMPDEST PUSH1 0x0 PUSH2 0x579 PUSH1 0x15 DUP4 PUSH2 0x532 JUMP JUMPDEST SWAP2 POP PUSH2 0x584 DUP3 PUSH2 0x543 JUMP JUMPDEST PUSH1 0x20 DUP3 ADD SWAP1 POP SWAP2 SWAP1 POP JUMP JUMPDEST PUSH1 0x0 PUSH1 0x20 DUP3 ADD SWAP1 POP DUP2 DUP2 SUB PUSH1 0x0 DUP4 ADD MSTORE PUSH2 0x5A8 DUP2 PUSH2 0x56C JUMP JUMPDEST SWAP1 POP SWAP2 SWAP1 POP JUMP INVALID LOG2 PUSH5 0x6970667358 0x22 SLT KECCAK256 PUSH5 0xA6F7EBD4AC PUSH20 0x6104C492E88B8164F0FE076101DABE3219644BDF SWAP8 0xD9 0x28 0xBA JUMPDEST PUSH5 0x736F6C6343 STOP ADDMOD SLT STOP CALLER "
				},
				"gasEstimates": {
					"creation": {
						"codeDepositCost": "822600",
						"executionCost": "infinite",
						"totalCost": "infinite"
					},
					"external": {
						"heap(uint256)": "infinite",
						"pointer()": "infinite",
						"pop()": "infinite",
						"print()": "infinite",
						"push(uint256)": "infinite"
					},
					"internal": {
						"_swap(uint256,uint256)": "42",
						"heapify(uint256)": "infinite"
					}
				},
				"methodIdentifiers": {
					"heap(uint256)": "1c01f292",
					"pointer()": "2f5f3b3c",
					"pop()": "a4ece52c",
					"print()": "13bdfacd",
					"push(uint256)": "959ac484"
				}
			},
			"storageLayout": {
				"storage": [
					{
						"astId": 5,
						"contract": "W6/heappointer.sol:maxHeap",
						"label": "heap",
						"offset": 0,
						"slot": "0",
						"type": "t_array(t_uint256)dyn_storage"
					},
					{
						"astId": 8,
						"contract": "W6/heappointer.sol:maxHeap",
						"label": "pointer",
						"offset": 0,
						"slot": "1",
						"type": "t_contract(Pointer)544"
					}
				],
				"types": {
					"t_array(t_uint256)dyn_storage": {
						"base": "t_uint256",
						"encoding": "dynamic_array",
						"label": "uint256[]",
						"numberOfBytes": "32"
					},
					"t_contract(Pointer)544": {
						"encoding": "inplace",
						"label": "contract Pointer",
						"numberOfBytes": "20"
					},
					"t_uint256": {
						"encoding": "inplace",
						"label": "uint256",
						"numberOfBytes": "32"
					}
				}
			},
			"userdoc": {
				"kind": "user",
				"methods": {},
				"version": 1
			}
		}
	}
}