{
	"W6/pointer.sol": {
		"Pointer": {
			"abi": [
				{
					"inputs": [],
					"stateMutability": "nonpayable",
					"type": "constructor"
				},
				{
					"inputs": [
						{
							"internalType": "uint256",
							"name": "p",
							"type": "uint256"
						}
					],
					"name": "delete_uint256",
					"outputs": [],
					"stateMutability": "nonpayable",
					"type": "function"
				},
				{
					"inputs": [],
					"name": "new_uint256",
					"outputs": [
						{
							"internalType": "uint256",
							"name": "",
							"type": "uint256"
						}
					],
					"stateMutability": "nonpayable",
					"type": "function"
				},
				{
					"inputs": [
						{
							"internalType": "uint256",
							"name": "value",
							"type": "uint256"
						}
					],
					"name": "new_uint256",
					"outputs": [
						{
							"internalType": "uint256",
							"name": "",
							"type": "uint256"
						}
					],
					"stateMutability": "nonpayable",
					"type": "function"
				},
				{
					"inputs": [
						{
							"internalType": "uint256",
							"name": "",
							"type": "uint256"
						}
					],
					"name": "nullPointer",
					"outputs": [
						{
							"internalType": "uint256",
							"name": "",
							"type": "uint256"
						}
					],
					"stateMutability": "view",
					"type": "function"
				},
				{
					"inputs": [
						{
							"internalType": "uint256",
							"name": "",
							"type": "uint256"
						}
					],
					"name": "pointer",
					"outputs": [
						{
							"internalType": "uint256",
							"name": "",
							"type": "uint256"
						}
					],
					"stateMutability": "view",
					"type": "function"
				}
			],
			"devdoc": {
				"kind": "dev",
				"methods": {},
				"version": 1
			},
			"evm": {
				"assembly": "    /* \"W6/pointer.sol\":73:1255  contract Pointer{... */\n  mstore(0x40, 0x80)\n    /* \"W6/pointer.sol\":218:266  constructor() {... */\n  callvalue\n  dup1\n  iszero\n  tag_1\n  jumpi\n  0x00\n  dup1\n  revert\ntag_1:\n  pop\n    /* \"W6/pointer.sol\":243:250  pointer */\n  0x00\n    /* \"W6/pointer.sol\":256:257  0 */\n  dup1\n    /* \"W6/pointer.sol\":243:258  pointer.push(0) */\n  dup1\n  0x01\n  dup2\n  sload\n  add\n  dup1\n  dup3\n  sstore\n  dup1\n  swap2\n  pop\n  pop\n  0x01\n  swap1\n  sub\n  swap1\n  0x00\n  mstore\n  keccak256(0x00, 0x20)\n  add\n  0x00\n  swap1\n  swap2\n  swap1\n  swap2\n  swap1\n  swap2\n  pop\n  sstore\n    /* \"W6/pointer.sol\":73:1255  contract Pointer{... */\n  dataSize(sub_0)\n  dup1\n  dataOffset(sub_0)\n  0x00\n  codecopy\n  0x00\n  return\nstop\n\nsub_0: assembly {\n        /* \"W6/pointer.sol\":73:1255  contract Pointer{... */\n      mstore(0x40, 0x80)\n      callvalue\n      dup1\n      iszero\n      tag_1\n      jumpi\n      0x00\n      dup1\n      revert\n    tag_1:\n      pop\n      jumpi(tag_2, lt(calldatasize, 0x04))\n      shr(0xe0, calldataload(0x00))\n      dup1\n      0x92d8e428\n      eq\n      tag_3\n      jumpi\n      dup1\n      0xa47ea718\n      eq\n      tag_4\n      jumpi\n      dup1\n      0xe96aff0b\n      eq\n      tag_5\n      jumpi\n      dup1\n      0xf63c2e09\n      eq\n      tag_6\n      jumpi\n      dup1\n      0xf9d6a52e\n      eq\n      tag_7\n      jumpi\n    tag_2:\n      0x00\n      dup1\n      revert\n        /* \"W6/pointer.sol\":272:590  function new_uint256() public returns (uint256){... */\n    tag_3:\n      tag_8\n      tag_9\n      jump\t// in\n    tag_8:\n      mload(0x40)\n      tag_10\n      swap2\n      swap1\n      tag_11\n      jump\t// in\n    tag_10:\n      mload(0x40)\n      dup1\n      swap2\n      sub\n      swap1\n      return\n        /* \"W6/pointer.sol\":970:1252  function delete_uint256(uint256 p) public{... */\n    tag_4:\n      tag_12\n      0x04\n      dup1\n      calldatasize\n      sub\n      dup2\n      add\n      swap1\n      tag_13\n      swap2\n      swap1\n      tag_14\n      jump\t// in\n    tag_13:\n      tag_15\n      jump\t// in\n    tag_12:\n      stop\n        /* \"W6/pointer.sol\":596:964  function new_uint256(uint256 value) public returns (uint256){... */\n    tag_5:\n      tag_16\n      0x04\n      dup1\n      calldatasize\n      sub\n      dup2\n      add\n      swap1\n      tag_17\n      swap2\n      swap1\n      tag_14\n      jump\t// in\n    tag_17:\n      tag_18\n      jump\t// in\n    tag_16:\n      mload(0x40)\n      tag_19\n      swap2\n      swap1\n      tag_11\n      jump\t// in\n    tag_19:\n      mload(0x40)\n      dup1\n      swap2\n      sub\n      swap1\n      return\n        /* \"W6/pointer.sol\":183:211  uint256[] public nullPointer */\n    tag_6:\n      tag_20\n      0x04\n      dup1\n      calldatasize\n      sub\n      dup2\n      add\n      swap1\n      tag_21\n      swap2\n      swap1\n      tag_14\n      jump\t// in\n    tag_21:\n      tag_22\n      jump\t// in\n    tag_20:\n      mload(0x40)\n      tag_23\n      swap2\n      swap1\n      tag_11\n      jump\t// in\n    tag_23:\n      mload(0x40)\n      dup1\n      swap2\n      sub\n      swap1\n      return\n        /* \"W6/pointer.sol\":96:120  uint256[] public pointer */\n    tag_7:\n      tag_24\n      0x04\n      dup1\n      calldatasize\n      sub\n      dup2\n      add\n      swap1\n      tag_25\n      swap2\n      swap1\n      tag_14\n      jump\t// in\n    tag_25:\n      tag_26\n      jump\t// in\n    tag_24:\n      mload(0x40)\n      tag_27\n      swap2\n      swap1\n      tag_11\n      jump\t// in\n    tag_27:\n      mload(0x40)\n      dup1\n      swap2\n      sub\n      swap1\n      return\n        /* \"W6/pointer.sol\":272:590  function new_uint256() public returns (uint256){... */\n    tag_9:\n        /* \"W6/pointer.sol\":311:318  uint256 */\n      0x00\n        /* \"W6/pointer.sol\":356:357  0 */\n      dup1\n        /* \"W6/pointer.sol\":334:345  nullPointer */\n      0x01\n        /* \"W6/pointer.sol\":334:352  nullPointer.length */\n      dup1\n      sload\n      swap1\n      pop\n        /* \"W6/pointer.sol\":334:357  nullPointer.length == 0 */\n      sub\n        /* \"W6/pointer.sol\":330:583  if (nullPointer.length == 0){... */\n      tag_29\n      jumpi\n        /* \"W6/pointer.sol\":373:380  pointer */\n      0x00\n        /* \"W6/pointer.sol\":386:387  0 */\n      dup1\n        /* \"W6/pointer.sol\":373:388  pointer.push(0) */\n      dup1\n      0x01\n      dup2\n      sload\n      add\n      dup1\n      dup3\n      sstore\n      dup1\n      swap2\n      pop\n      pop\n      0x01\n      swap1\n      sub\n      swap1\n      0x00\n      mstore\n      keccak256(0x00, 0x20)\n      add\n      0x00\n      swap1\n      swap2\n      swap1\n      swap2\n      swap1\n      swap2\n      pop\n      sstore\n        /* \"W6/pointer.sol\":427:428  1 */\n      0x01\n        /* \"W6/pointer.sol\":410:417  pointer */\n      0x00\n        /* \"W6/pointer.sol\":410:424  pointer.length */\n      dup1\n      sload\n      swap1\n      pop\n        /* \"W6/pointer.sol\":410:428  pointer.length - 1 */\n      tag_31\n      swap2\n      swap1\n      tag_32\n      jump\t// in\n    tag_31:\n        /* \"W6/pointer.sol\":403:428  return pointer.length - 1 */\n      swap1\n      pop\n      jump(tag_28)\n        /* \"W6/pointer.sol\":330:583  if (nullPointer.length == 0){... */\n    tag_29:\n        /* \"W6/pointer.sol\":469:478  uint256 p */\n      0x00\n        /* \"W6/pointer.sol\":481:492  nullPointer */\n      0x01\n        /* \"W6/pointer.sol\":514:515  1 */\n      dup1\n        /* \"W6/pointer.sol\":493:504  nullPointer */\n      dup1\n        /* \"W6/pointer.sol\":493:511  nullPointer.length */\n      dup1\n      sload\n      swap1\n      pop\n        /* \"W6/pointer.sol\":493:515  nullPointer.length - 1 */\n      tag_34\n      swap2\n      swap1\n      tag_32\n      jump\t// in\n    tag_34:\n        /* \"W6/pointer.sol\":481:516  nullPointer[nullPointer.length - 1] */\n      dup2\n      sload\n      dup2\n      lt\n      tag_35\n      jumpi\n      tag_36\n      tag_37\n      jump\t// in\n    tag_36:\n    tag_35:\n      swap1\n      0x00\n      mstore\n      keccak256(0x00, 0x20)\n      add\n      sload\n        /* \"W6/pointer.sol\":469:516  uint256 p = nullPointer[nullPointer.length - 1] */\n      swap1\n      pop\n        /* \"W6/pointer.sol\":531:542  nullPointer */\n      0x01\n        /* \"W6/pointer.sol\":531:548  nullPointer.pop() */\n      dup1\n      sload\n      dup1\n      tag_39\n      jumpi\n      tag_40\n      tag_41\n      jump\t// in\n    tag_40:\n    tag_39:\n      0x01\n      swap1\n      sub\n      dup2\n      dup2\n      swap1\n      0x00\n      mstore\n      keccak256(0x00, 0x20)\n      add\n      0x00\n      swap1\n      sstore\n      swap1\n      sstore\n        /* \"W6/pointer.sol\":570:571  p */\n      dup1\n        /* \"W6/pointer.sol\":563:571  return p */\n      swap2\n      pop\n      pop\n        /* \"W6/pointer.sol\":272:590  function new_uint256() public returns (uint256){... */\n    tag_28:\n      swap1\n      jump\t// out\n        /* \"W6/pointer.sol\":970:1252  function delete_uint256(uint256 p) public{... */\n    tag_15:\n        /* \"W6/pointer.sol\":1036:1037  0 */\n      0x00\n        /* \"W6/pointer.sol\":1031:1032  p */\n      dup2\n        /* \"W6/pointer.sol\":1031:1037  p != 0 */\n      eq\n      iszero\n        /* \"W6/pointer.sol\":1031:1055  p != 0&&p<pointer.length */\n      dup1\n      iszero\n      tag_44\n      jumpi\n      pop\n        /* \"W6/pointer.sol\":1041:1048  pointer */\n      0x00\n        /* \"W6/pointer.sol\":1041:1055  pointer.length */\n      dup1\n      sload\n      swap1\n      pop\n        /* \"W6/pointer.sol\":1039:1040  p */\n      dup2\n        /* \"W6/pointer.sol\":1039:1055  p<pointer.length */\n      lt\n        /* \"W6/pointer.sol\":1031:1055  p != 0&&p<pointer.length */\n    tag_44:\n        /* \"W6/pointer.sol\":1022:1082  require((p != 0&&p<pointer.length), \"Cannot delete nullptr\") */\n      tag_45\n      jumpi\n      mload(0x40)\n      0x08c379a000000000000000000000000000000000000000000000000000000000\n      dup2\n      mstore\n      0x04\n      add\n      tag_46\n      swap1\n      tag_47\n      jump\t// in\n    tag_46:\n      mload(0x40)\n      dup1\n      swap2\n      sub\n      swap1\n      revert\n    tag_45:\n        /* \"W6/pointer.sol\":1114:1115  1 */\n      0x01\n        /* \"W6/pointer.sol\":1099:1106  pointer */\n      0x00\n        /* \"W6/pointer.sol\":1099:1113  pointer.length */\n      dup1\n      sload\n      swap1\n      pop\n        /* \"W6/pointer.sol\":1099:1115  pointer.length-1 */\n      tag_48\n      swap2\n      swap1\n      tag_32\n      jump\t// in\n    tag_48:\n        /* \"W6/pointer.sol\":1096:1097  p */\n      dup2\n        /* \"W6/pointer.sol\":1096:1115  p==pointer.length-1 */\n      sub\n        /* \"W6/pointer.sol\":1093:1245  if(p==pointer.length-1){... */\n      tag_49\n      jumpi\n        /* \"W6/pointer.sol\":1131:1138  pointer */\n      0x00\n        /* \"W6/pointer.sol\":1131:1144  pointer.pop() */\n      dup1\n      sload\n      dup1\n      tag_50\n      jumpi\n      tag_51\n      tag_41\n      jump\t// in\n    tag_51:\n    tag_50:\n      0x01\n      swap1\n      sub\n      dup2\n      dup2\n      swap1\n      0x00\n      mstore\n      keccak256(0x00, 0x20)\n      add\n      0x00\n      swap1\n      sstore\n      swap1\n      sstore\n        /* \"W6/pointer.sol\":1093:1245  if(p==pointer.length-1){... */\n      jump(tag_53)\n    tag_49:\n        /* \"W6/pointer.sol\":1198:1199  0 */\n      0x00\n        /* \"W6/pointer.sol\":1185:1192  pointer */\n      dup1\n        /* \"W6/pointer.sol\":1193:1194  p */\n      dup3\n        /* \"W6/pointer.sol\":1185:1195  pointer[p] */\n      dup2\n      sload\n      dup2\n      lt\n      tag_54\n      jumpi\n      tag_55\n      tag_37\n      jump\t// in\n    tag_55:\n    tag_54:\n      swap1\n      0x00\n      mstore\n      keccak256(0x00, 0x20)\n      add\n        /* \"W6/pointer.sol\":1185:1199  pointer[p] = 0 */\n      dup2\n      swap1\n      sstore\n      pop\n        /* \"W6/pointer.sol\":1214:1225  nullPointer */\n      0x01\n        /* \"W6/pointer.sol\":1231:1232  p */\n      dup2\n        /* \"W6/pointer.sol\":1214:1233  nullPointer.push(p) */\n      swap1\n      dup1\n      0x01\n      dup2\n      sload\n      add\n      dup1\n      dup3\n      sstore\n      dup1\n      swap2\n      pop\n      pop\n      0x01\n      swap1\n      sub\n      swap1\n      0x00\n      mstore\n      keccak256(0x00, 0x20)\n      add\n      0x00\n      swap1\n      swap2\n      swap1\n      swap2\n      swap1\n      swap2\n      pop\n      sstore\n        /* \"W6/pointer.sol\":1093:1245  if(p==pointer.length-1){... */\n    tag_53:\n        /* \"W6/pointer.sol\":970:1252  function delete_uint256(uint256 p) public{... */\n      pop\n      jump\t// out\n        /* \"W6/pointer.sol\":596:964  function new_uint256(uint256 value) public returns (uint256){... */\n    tag_18:\n        /* \"W6/pointer.sol\":648:655  uint256 */\n      0x00\n        /* \"W6/pointer.sol\":693:694  0 */\n      dup1\n        /* \"W6/pointer.sol\":671:682  nullPointer */\n      0x01\n        /* \"W6/pointer.sol\":671:689  nullPointer.length */\n      dup1\n      sload\n      swap1\n      pop\n        /* \"W6/pointer.sol\":671:694  nullPointer.length == 0 */\n      sub\n        /* \"W6/pointer.sol\":667:957  if (nullPointer.length == 0){... */\n      tag_59\n      jumpi\n        /* \"W6/pointer.sol\":710:717  pointer */\n      0x00\n        /* \"W6/pointer.sol\":723:728  value */\n      dup3\n        /* \"W6/pointer.sol\":710:729  pointer.push(value) */\n      swap1\n      dup1\n      0x01\n      dup2\n      sload\n      add\n      dup1\n      dup3\n      sstore\n      dup1\n      swap2\n      pop\n      pop\n      0x01\n      swap1\n      sub\n      swap1\n      0x00\n      mstore\n      keccak256(0x00, 0x20)\n      add\n      0x00\n      swap1\n      swap2\n      swap1\n      swap2\n      swap1\n      swap2\n      pop\n      sstore\n        /* \"W6/pointer.sol\":768:769  1 */\n      0x01\n        /* \"W6/pointer.sol\":751:758  pointer */\n      0x00\n        /* \"W6/pointer.sol\":751:765  pointer.length */\n      dup1\n      sload\n      swap1\n      pop\n        /* \"W6/pointer.sol\":751:769  pointer.length - 1 */\n      tag_61\n      swap2\n      swap1\n      tag_32\n      jump\t// in\n    tag_61:\n        /* \"W6/pointer.sol\":744:769  return pointer.length - 1 */\n      swap1\n      pop\n      jump(tag_58)\n        /* \"W6/pointer.sol\":667:957  if (nullPointer.length == 0){... */\n    tag_59:\n        /* \"W6/pointer.sol\":810:819  uint256 p */\n      0x00\n        /* \"W6/pointer.sol\":822:833  nullPointer */\n      0x01\n        /* \"W6/pointer.sol\":855:856  1 */\n      dup1\n        /* \"W6/pointer.sol\":834:845  nullPointer */\n      dup1\n        /* \"W6/pointer.sol\":834:852  nullPointer.length */\n      dup1\n      sload\n      swap1\n      pop\n        /* \"W6/pointer.sol\":834:856  nullPointer.length - 1 */\n      tag_63\n      swap2\n      swap1\n      tag_32\n      jump\t// in\n    tag_63:\n        /* \"W6/pointer.sol\":822:857  nullPointer[nullPointer.length - 1] */\n      dup2\n      sload\n      dup2\n      lt\n      tag_64\n      jumpi\n      tag_65\n      tag_37\n      jump\t// in\n    tag_65:\n    tag_64:\n      swap1\n      0x00\n      mstore\n      keccak256(0x00, 0x20)\n      add\n      sload\n        /* \"W6/pointer.sol\":810:857  uint256 p = nullPointer[nullPointer.length - 1] */\n      swap1\n      pop\n        /* \"W6/pointer.sol\":872:883  nullPointer */\n      0x01\n        /* \"W6/pointer.sol\":872:889  nullPointer.pop() */\n      dup1\n      sload\n      dup1\n      tag_67\n      jumpi\n      tag_68\n      tag_41\n      jump\t// in\n    tag_68:\n    tag_67:\n      0x01\n      swap1\n      sub\n      dup2\n      dup2\n      swap1\n      0x00\n      mstore\n      keccak256(0x00, 0x20)\n      add\n      0x00\n      swap1\n      sstore\n      swap1\n      sstore\n        /* \"W6/pointer.sol\":917:922  value */\n      dup3\n        /* \"W6/pointer.sol\":904:911  pointer */\n      0x00\n        /* \"W6/pointer.sol\":912:913  p */\n      dup3\n        /* \"W6/pointer.sol\":904:914  pointer[p] */\n      dup2\n      sload\n      dup2\n      lt\n      tag_70\n      jumpi\n      tag_71\n      tag_37\n      jump\t// in\n    tag_71:\n    tag_70:\n      swap1\n      0x00\n      mstore\n      keccak256(0x00, 0x20)\n      add\n        /* \"W6/pointer.sol\":904:922  pointer[p] = value */\n      dup2\n      swap1\n      sstore\n      pop\n        /* \"W6/pointer.sol\":944:945  p */\n      dup1\n        /* \"W6/pointer.sol\":937:945  return p */\n      swap2\n      pop\n      pop\n        /* \"W6/pointer.sol\":596:964  function new_uint256(uint256 value) public returns (uint256){... */\n    tag_58:\n      swap2\n      swap1\n      pop\n      jump\t// out\n        /* \"W6/pointer.sol\":183:211  uint256[] public nullPointer */\n    tag_22:\n      0x01\n      dup2\n      dup2\n      sload\n      dup2\n      lt\n      tag_73\n      jumpi\n      0x00\n      dup1\n      revert\n    tag_73:\n      swap1\n      0x00\n      mstore\n      keccak256(0x00, 0x20)\n      add\n      0x00\n      swap2\n      pop\n      swap1\n      pop\n      sload\n      dup2\n      jump\t// out\n        /* \"W6/pointer.sol\":96:120  uint256[] public pointer */\n    tag_26:\n      0x00\n      dup2\n      dup2\n      sload\n      dup2\n      lt\n      tag_75\n      jumpi\n      0x00\n      dup1\n      revert\n    tag_75:\n      swap1\n      0x00\n      mstore\n      keccak256(0x00, 0x20)\n      add\n      0x00\n      swap2\n      pop\n      swap1\n      pop\n      sload\n      dup2\n      jump\t// out\n        /* \"#utility.yul\":7:84   */\n    tag_77:\n        /* \"#utility.yul\":44:51   */\n      0x00\n        /* \"#utility.yul\":73:78   */\n      dup2\n        /* \"#utility.yul\":62:78   */\n      swap1\n      pop\n        /* \"#utility.yul\":7:84   */\n      swap2\n      swap1\n      pop\n      jump\t// out\n        /* \"#utility.yul\":90:208   */\n    tag_78:\n        /* \"#utility.yul\":177:201   */\n      tag_91\n        /* \"#utility.yul\":195:200   */\n      dup2\n        /* \"#utility.yul\":177:201   */\n      tag_77\n      jump\t// in\n    tag_91:\n        /* \"#utility.yul\":172:175   */\n      dup3\n        /* \"#utility.yul\":165:202   */\n      mstore\n        /* \"#utility.yul\":90:208   */\n      pop\n      pop\n      jump\t// out\n        /* \"#utility.yul\":214:436   */\n    tag_11:\n        /* \"#utility.yul\":307:311   */\n      0x00\n        /* \"#utility.yul\":345:347   */\n      0x20\n        /* \"#utility.yul\":334:343   */\n      dup3\n        /* \"#utility.yul\":330:348   */\n      add\n        /* \"#utility.yul\":322:348   */\n      swap1\n      pop\n        /* \"#utility.yul\":358:429   */\n      tag_93\n        /* \"#utility.yul\":426:427   */\n      0x00\n        /* \"#utility.yul\":415:424   */\n      dup4\n        /* \"#utility.yul\":411:428   */\n      add\n        /* \"#utility.yul\":402:408   */\n      dup5\n        /* \"#utility.yul\":358:429   */\n      tag_78\n      jump\t// in\n    tag_93:\n        /* \"#utility.yul\":214:436   */\n      swap3\n      swap2\n      pop\n      pop\n      jump\t// out\n        /* \"#utility.yul\":523:640   */\n    tag_80:\n        /* \"#utility.yul\":632:633   */\n      0x00\n        /* \"#utility.yul\":629:630   */\n      dup1\n        /* \"#utility.yul\":622:634   */\n      revert\n        /* \"#utility.yul\":769:891   */\n    tag_82:\n        /* \"#utility.yul\":842:866   */\n      tag_98\n        /* \"#utility.yul\":860:865   */\n      dup2\n        /* \"#utility.yul\":842:866   */\n      tag_77\n      jump\t// in\n    tag_98:\n        /* \"#utility.yul\":835:840   */\n      dup2\n        /* \"#utility.yul\":832:867   */\n      eq\n        /* \"#utility.yul\":822:885   */\n      tag_99\n      jumpi\n        /* \"#utility.yul\":881:882   */\n      0x00\n        /* \"#utility.yul\":878:879   */\n      dup1\n        /* \"#utility.yul\":871:883   */\n      revert\n        /* \"#utility.yul\":822:885   */\n    tag_99:\n        /* \"#utility.yul\":769:891   */\n      pop\n      jump\t// out\n        /* \"#utility.yul\":897:1036   */\n    tag_83:\n        /* \"#utility.yul\":943:948   */\n      0x00\n        /* \"#utility.yul\":981:987   */\n      dup2\n        /* \"#utility.yul\":968:988   */\n      calldataload\n        /* \"#utility.yul\":959:988   */\n      swap1\n      pop\n        /* \"#utility.yul\":997:1030   */\n      tag_101\n        /* \"#utility.yul\":1024:1029   */\n      dup2\n        /* \"#utility.yul\":997:1030   */\n      tag_82\n      jump\t// in\n    tag_101:\n        /* \"#utility.yul\":897:1036   */\n      swap3\n      swap2\n      pop\n      pop\n      jump\t// out\n        /* \"#utility.yul\":1042:1371   */\n    tag_14:\n        /* \"#utility.yul\":1101:1107   */\n      0x00\n        /* \"#utility.yul\":1150:1152   */\n      0x20\n        /* \"#utility.yul\":1138:1147   */\n      dup3\n        /* \"#utility.yul\":1129:1136   */\n      dup5\n        /* \"#utility.yul\":1125:1148   */\n      sub\n        /* \"#utility.yul\":1121:1153   */\n      slt\n        /* \"#utility.yul\":1118:1237   */\n      iszero\n      tag_103\n      jumpi\n        /* \"#utility.yul\":1156:1235   */\n      tag_104\n      tag_80\n      jump\t// in\n    tag_104:\n        /* \"#utility.yul\":1118:1237   */\n    tag_103:\n        /* \"#utility.yul\":1276:1277   */\n      0x00\n        /* \"#utility.yul\":1301:1354   */\n      tag_105\n        /* \"#utility.yul\":1346:1353   */\n      dup5\n        /* \"#utility.yul\":1337:1343   */\n      dup3\n        /* \"#utility.yul\":1326:1335   */\n      dup6\n        /* \"#utility.yul\":1322:1344   */\n      add\n        /* \"#utility.yul\":1301:1354   */\n      tag_83\n      jump\t// in\n    tag_105:\n        /* \"#utility.yul\":1291:1354   */\n      swap2\n      pop\n        /* \"#utility.yul\":1247:1364   */\n      pop\n        /* \"#utility.yul\":1042:1371   */\n      swap3\n      swap2\n      pop\n      pop\n      jump\t// out\n        /* \"#utility.yul\":1377:1557   */\n    tag_84:\n        /* \"#utility.yul\":1425:1502   */\n      0x4e487b7100000000000000000000000000000000000000000000000000000000\n        /* \"#utility.yul\":1422:1423   */\n      0x00\n        /* \"#utility.yul\":1415:1503   */\n      mstore\n        /* \"#utility.yul\":1522:1526   */\n      0x11\n        /* \"#utility.yul\":1519:1520   */\n      0x04\n        /* \"#utility.yul\":1512:1527   */\n      mstore\n        /* \"#utility.yul\":1546:1550   */\n      0x24\n        /* \"#utility.yul\":1543:1544   */\n      0x00\n        /* \"#utility.yul\":1536:1551   */\n      revert\n        /* \"#utility.yul\":1563:1757   */\n    tag_32:\n        /* \"#utility.yul\":1603:1607   */\n      0x00\n        /* \"#utility.yul\":1623:1643   */\n      tag_108\n        /* \"#utility.yul\":1641:1642   */\n      dup3\n        /* \"#utility.yul\":1623:1643   */\n      tag_77\n      jump\t// in\n    tag_108:\n        /* \"#utility.yul\":1618:1643   */\n      swap2\n      pop\n        /* \"#utility.yul\":1657:1677   */\n      tag_109\n        /* \"#utility.yul\":1675:1676   */\n      dup4\n        /* \"#utility.yul\":1657:1677   */\n      tag_77\n      jump\t// in\n    tag_109:\n        /* \"#utility.yul\":1652:1677   */\n      swap3\n      pop\n        /* \"#utility.yul\":1701:1702   */\n      dup3\n        /* \"#utility.yul\":1698:1699   */\n      dup3\n        /* \"#utility.yul\":1694:1703   */\n      sub\n        /* \"#utility.yul\":1686:1703   */\n      swap1\n      pop\n        /* \"#utility.yul\":1725:1726   */\n      dup2\n        /* \"#utility.yul\":1719:1723   */\n      dup2\n        /* \"#utility.yul\":1716:1727   */\n      gt\n        /* \"#utility.yul\":1713:1750   */\n      iszero\n      tag_110\n      jumpi\n        /* \"#utility.yul\":1730:1748   */\n      tag_111\n      tag_84\n      jump\t// in\n    tag_111:\n        /* \"#utility.yul\":1713:1750   */\n    tag_110:\n        /* \"#utility.yul\":1563:1757   */\n      swap3\n      swap2\n      pop\n      pop\n      jump\t// out\n        /* \"#utility.yul\":1763:1943   */\n    tag_37:\n        /* \"#utility.yul\":1811:1888   */\n      0x4e487b7100000000000000000000000000000000000000000000000000000000\n        /* \"#utility.yul\":1808:1809   */\n      0x00\n        /* \"#utility.yul\":1801:1889   */\n      mstore\n        /* \"#utility.yul\":1908:1912   */\n      0x32\n        /* \"#utility.yul\":1905:1906   */\n      0x04\n        /* \"#utility.yul\":1898:1913   */\n      mstore\n        /* \"#utility.yul\":1932:1936   */\n      0x24\n        /* \"#utility.yul\":1929:1930   */\n      0x00\n        /* \"#utility.yul\":1922:1937   */\n      revert\n        /* \"#utility.yul\":1949:2129   */\n    tag_41:\n        /* \"#utility.yul\":1997:2074   */\n      0x4e487b7100000000000000000000000000000000000000000000000000000000\n        /* \"#utility.yul\":1994:1995   */\n      0x00\n        /* \"#utility.yul\":1987:2075   */\n      mstore\n        /* \"#utility.yul\":2094:2098   */\n      0x31\n        /* \"#utility.yul\":2091:2092   */\n      0x04\n        /* \"#utility.yul\":2084:2099   */\n      mstore\n        /* \"#utility.yul\":2118:2122   */\n      0x24\n        /* \"#utility.yul\":2115:2116   */\n      0x00\n        /* \"#utility.yul\":2108:2123   */\n      revert\n        /* \"#utility.yul\":2135:2304   */\n    tag_85:\n        /* \"#utility.yul\":2219:2230   */\n      0x00\n        /* \"#utility.yul\":2253:2259   */\n      dup3\n        /* \"#utility.yul\":2248:2251   */\n      dup3\n        /* \"#utility.yul\":2241:2260   */\n      mstore\n        /* \"#utility.yul\":2293:2297   */\n      0x20\n        /* \"#utility.yul\":2288:2291   */\n      dup3\n        /* \"#utility.yul\":2284:2298   */\n      add\n        /* \"#utility.yul\":2269:2298   */\n      swap1\n      pop\n        /* \"#utility.yul\":2135:2304   */\n      swap3\n      swap2\n      pop\n      pop\n      jump\t// out\n        /* \"#utility.yul\":2310:2481   */\n    tag_86:\n        /* \"#utility.yul\":2450:2473   */\n      0x43616e6e6f742064656c657465206e756c6c7074720000000000000000000000\n        /* \"#utility.yul\":2446:2447   */\n      0x00\n        /* \"#utility.yul\":2438:2444   */\n      dup3\n        /* \"#utility.yul\":2434:2448   */\n      add\n        /* \"#utility.yul\":2427:2474   */\n      mstore\n        /* \"#utility.yul\":2310:2481   */\n      pop\n      jump\t// out\n        /* \"#utility.yul\":2487:2853   */\n    tag_87:\n        /* \"#utility.yul\":2629:2632   */\n      0x00\n        /* \"#utility.yul\":2650:2717   */\n      tag_117\n        /* \"#utility.yul\":2714:2716   */\n      0x15\n        /* \"#utility.yul\":2709:2712   */\n      dup4\n        /* \"#utility.yul\":2650:2717   */\n      tag_85\n      jump\t// in\n    tag_117:\n        /* \"#utility.yul\":2643:2717   */\n      swap2\n      pop\n        /* \"#utility.yul\":2726:2819   */\n      tag_118\n        /* \"#utility.yul\":2815:2818   */\n      dup3\n        /* \"#utility.yul\":2726:2819   */\n      tag_86\n      jump\t// in\n    tag_118:\n        /* \"#utility.yul\":2844:2846   */\n      0x20\n        /* \"#utility.yul\":2839:2842   */\n      dup3\n        /* \"#utility.yul\":2835:2847   */\n      add\n        /* \"#utility.yul\":2828:2847   */\n      swap1\n      pop\n        /* \"#utility.yul\":2487:2853   */\n      swap2\n      swap1\n      pop\n      jump\t// out\n        /* \"#utility.yul\":2859:3278   */\n    tag_47:\n        /* \"#utility.yul\":3025:3029   */\n      0x00\n        /* \"#utility.yul\":3063:3065   */\n      0x20\n        /* \"#utility.yul\":3052:3061   */\n      dup3\n        /* \"#utility.yul\":3048:3066   */\n      add\n        /* \"#utility.yul\":3040:3066   */\n      swap1\n      pop\n        /* \"#utility.yul\":3112:3121   */\n      dup2\n        /* \"#utility.yul\":3106:3110   */\n      dup2\n        /* \"#utility.yul\":3102:3122   */\n      sub\n        /* \"#utility.yul\":3098:3099   */\n      0x00\n        /* \"#utility.yul\":3087:3096   */\n      dup4\n        /* \"#utility.yul\":3083:3100   */\n      add\n        /* \"#utility.yul\":3076:3123   */\n      mstore\n        /* \"#utility.yul\":3140:3271   */\n      tag_120\n        /* \"#utility.yul\":3266:3270   */\n      dup2\n        /* \"#utility.yul\":3140:3271   */\n      tag_87\n      jump\t// in\n    tag_120:\n        /* \"#utility.yul\":3132:3271   */\n      swap1\n      pop\n        /* \"#utility.yul\":2859:3278   */\n      swap2\n      swap1\n      pop\n      jump\t// out\n\n    auxdata: 0xa264697066735822122064a6f7ebd4ac736104c492e88b8164f0fe076101dabe3219644bdf97d928ba5b64736f6c63430008120033\n}\n",
				"bytecode": {
					"linkReferences": {},
					"object": "608060405234801561001057600080fd5b50600080806001815401808255809150506001900390600052602060002001600090919091909150556105e5806100486000396000f3fe608060405234801561001057600080fd5b50600436106100575760003560e01c806392d8e4281461005c578063a47ea7181461007a578063e96aff0b14610096578063f63c2e09146100c6578063f9d6a52e146100f6575b600080fd5b610064610126565b60405161007191906103f8565b60405180910390f35b610094600480360381019061008f9190610444565b6101d7565b005b6100b060048036038101906100ab9190610444565b6102c0565b6040516100bd91906103f8565b60405180910390f35b6100e060048036038101906100db9190610444565b610397565b6040516100ed91906103f8565b60405180910390f35b610110600480360381019061010b9190610444565b6103bb565b60405161011d91906103f8565b60405180910390f35b600080600180549050036101755760008080600181540180825580915050600190039060005260206000200160009091909190915055600160008054905061016e91906104a0565b90506101d4565b6000600180808054905061018991906104a0565b8154811061019a576101996104d4565b5b9060005260206000200154905060018054806101b9576101b8610503565b5b60019003818190600052602060002001600090559055809150505b90565b600081141580156101ec575060008054905081105b61022b576040517f08c379a00000000000000000000000000000000000000000000000000000000081526004016102229061058f565b60405180910390fd5b600160008054905061023d91906104a0565b810361027057600080548061025557610254610503565b5b600190038181906000526020600020016000905590556102bd565b6000808281548110610285576102846104d4565b5b906000526020600020018190555060018190806001815401808255809150506001900390600052602060002001600090919091909150555b50565b60008060018054905003610310576000829080600181540180825580915050600190039060005260206000200160009091909190915055600160008054905061030991906104a0565b9050610392565b6000600180808054905061032491906104a0565b81548110610335576103346104d4565b5b90600052602060002001549050600180548061035457610353610503565b5b60019003818190600052602060002001600090559055826000828154811061037f5761037e6104d4565b5b9060005260206000200181905550809150505b919050565b600181815481106103a757600080fd5b906000526020600020016000915090505481565b600081815481106103cb57600080fd5b906000526020600020016000915090505481565b6000819050919050565b6103f2816103df565b82525050565b600060208201905061040d60008301846103e9565b92915050565b600080fd5b610421816103df565b811461042c57600080fd5b50565b60008135905061043e81610418565b92915050565b60006020828403121561045a57610459610413565b5b60006104688482850161042f565b91505092915050565b7f4e487b7100000000000000000000000000000000000000000000000000000000600052601160045260246000fd5b60006104ab826103df565b91506104b6836103df565b92508282039050818111156104ce576104cd610471565b5b92915050565b7f4e487b7100000000000000000000000000000000000000000000000000000000600052603260045260246000fd5b7f4e487b7100000000000000000000000000000000000000000000000000000000600052603160045260246000fd5b600082825260208201905092915050565b7f43616e6e6f742064656c657465206e756c6c7074720000000000000000000000600082015250565b6000610579601583610532565b915061058482610543565b602082019050919050565b600060208201905081810360008301526105a88161056c565b905091905056fea264697066735822122064a6f7ebd4ac736104c492e88b8164f0fe076101dabe3219644bdf97d928ba5b64736f6c63430008120033",
					"opcodes": "PUSH1 0x80 PUSH1 0x40 MSTORE CALLVALUE DUP1 ISZERO PUSH2 0x10 JUMPI PUSH1 0x0 DUP1 REVERT JUMPDEST POP PUSH1 0x0 DUP1 DUP1 PUSH1 0x1 DUP2 SLOAD ADD DUP1 DUP3 SSTORE DUP1 SWAP2 POP POP PUSH1 0x1 SWAP1 SUB SWAP1 PUSH1 0x0 MSTORE PUSH1 0x20 PUSH1 0x0 KECCAK256 ADD PUSH1 0x0 SWAP1 SWAP2 SWAP1 SWAP2 SWAP1 SWAP2 POP SSTORE PUSH2 0x5E5 DUP1 PUSH2 0x48 PUSH1 0x0 CODECOPY PUSH1 0x0 RETURN INVALID PUSH1 0x80 PUSH1 0x40 MSTORE CALLVALUE DUP1 ISZERO PUSH2 0x10 JUMPI PUSH1 0x0 DUP1 REVERT JUMPDEST POP PUSH1 0x4 CALLDATASIZE LT PUSH2 0x57 JUMPI PUSH1 0x0 CALLDATALOAD PUSH1 0xE0 SHR DUP1 PUSH4 0x92D8E428 EQ PUSH2 0x5C JUMPI DUP1 PUSH4 0xA47EA718 EQ PUSH2 0x7A JUMPI DUP1 PUSH4 0xE96AFF0B EQ PUSH2 0x96 JUMPI DUP1 PUSH4 0xF63C2E09 EQ PUSH2 0xC6 JUMPI DUP1 PUSH4 0xF9D6A52E EQ PUSH2 0xF6 JUMPI JUMPDEST PUSH1 0x0 DUP1 REVERT JUMPDEST PUSH2 0x64 PUSH2 0x126 JUMP JUMPDEST PUSH1 0x40 MLOAD PUSH2 0x71 SWAP2 SWAP1 PUSH2 0x3F8 JUMP JUMPDEST PUSH1 0x40 MLOAD DUP1 SWAP2 SUB SWAP1 RETURN JUMPDEST PUSH2 0x94 PUSH1 0x4 DUP1 CALLDATASIZE SUB DUP2 ADD SWAP1 PUSH2 0x8F SWAP2 SWAP1 PUSH2 0x444 JUMP JUMPDEST PUSH2 0x1D7 JUMP JUMPDEST STOP JUMPDEST PUSH2 0xB0 PUSH1 0x4 DUP1 CALLDATASIZE SUB DUP2 ADD SWAP1 PUSH2 0xAB SWAP2 SWAP1 PUSH2 0x444 JUMP JUMPDEST PUSH2 0x2C0 JUMP JUMPDEST PUSH1 0x40 MLOAD PUSH2 0xBD SWAP2 SWAP1 PUSH2 0x3F8 JUMP JUMPDEST PUSH1 0x40 MLOAD DUP1 SWAP2 SUB SWAP1 RETURN JUMPDEST PUSH2 0xE0 PUSH1 0x4 DUP1 CALLDATASIZE SUB DUP2 ADD SWAP1 PUSH2 0xDB SWAP2 SWAP1 PUSH2 0x444 JUMP JUMPDEST PUSH2 0x397 JUMP JUMPDEST PUSH1 0x40 MLOAD PUSH2 0xED SWAP2 SWAP1 PUSH2 0x3F8 JUMP JUMPDEST PUSH1 0x40 MLOAD DUP1 SWAP2 SUB SWAP1 RETURN JUMPDEST PUSH2 0x110 PUSH1 0x4 DUP1 CALLDATASIZE SUB DUP2 ADD SWAP1 PUSH2 0x10B SWAP2 SWAP1 PUSH2 0x444 JUMP JUMPDEST PUSH2 0x3BB JUMP JUMPDEST PUSH1 0x40 MLOAD PUSH2 0x11D SWAP2 SWAP1 PUSH2 0x3F8 JUMP JUMPDEST PUSH1 0x40 MLOAD DUP1 SWAP2 SUB SWAP1 RETURN JUMPDEST PUSH1 0x0 DUP1 PUSH1 0x1 DUP1 SLOAD SWAP1 POP SUB PUSH2 0x175 JUMPI PUSH1 0x0 DUP1 DUP1 PUSH1 0x1 DUP2 SLOAD ADD DUP1 DUP3 SSTORE DUP1 SWAP2 POP POP PUSH1 0x1 SWAP1 SUB SWAP1 PUSH1 0x0 MSTORE PUSH1 0x20 PUSH1 0x0 KECCAK256 ADD PUSH1 0x0 SWAP1 SWAP2 SWAP1 SWAP2 SWAP1 SWAP2 POP SSTORE PUSH1 0x1 PUSH1 0x0 DUP1 SLOAD SWAP1 POP PUSH2 0x16E SWAP2 SWAP1 PUSH2 0x4A0 JUMP JUMPDEST SWAP1 POP PUSH2 0x1D4 JUMP JUMPDEST PUSH1 0x0 PUSH1 0x1 DUP1 DUP1 DUP1 SLOAD SWAP1 POP PUSH2 0x189 SWAP2 SWAP1 PUSH2 0x4A0 JUMP JUMPDEST DUP2 SLOAD DUP2 LT PUSH2 0x19A JUMPI PUSH2 0x199 PUSH2 0x4D4 JUMP JUMPDEST JUMPDEST SWAP1 PUSH1 0x0 MSTORE PUSH1 0x20 PUSH1 0x0 KECCAK256 ADD SLOAD SWAP1 POP PUSH1 0x1 DUP1 SLOAD DUP1 PUSH2 0x1B9 JUMPI PUSH2 0x1B8 PUSH2 0x503 JUMP JUMPDEST JUMPDEST PUSH1 0x1 SWAP1 SUB DUP2 DUP2 SWAP1 PUSH1 0x0 MSTORE PUSH1 0x20 PUSH1 0x0 KECCAK256 ADD PUSH1 0x0 SWAP1 SSTORE SWAP1 SSTORE DUP1 SWAP2 POP POP JUMPDEST SWAP1 JUMP JUMPDEST PUSH1 0x0 DUP2 EQ ISZERO DUP1 ISZERO PUSH2 0x1EC JUMPI POP PUSH1 0x0 DUP1 SLOAD SWAP1 POP DUP2 LT JUMPDEST PUSH2 0x22B JUMPI PUSH1 0x40 MLOAD PUSH32 0x8C379A000000000000000000000000000000000000000000000000000000000 DUP2 MSTORE PUSH1 0x4 ADD PUSH2 0x222 SWAP1 PUSH2 0x58F JUMP JUMPDEST PUSH1 0x40 MLOAD DUP1 SWAP2 SUB SWAP1 REVERT JUMPDEST PUSH1 0x1 PUSH1 0x0 DUP1 SLOAD SWAP1 POP PUSH2 0x23D SWAP2 SWAP1 PUSH2 0x4A0 JUMP JUMPDEST DUP2 SUB PUSH2 0x270 JUMPI PUSH1 0x0 DUP1 SLOAD DUP1 PUSH2 0x255 JUMPI PUSH2 0x254 PUSH2 0x503 JUMP JUMPDEST JUMPDEST PUSH1 0x1 SWAP1 SUB DUP2 DUP2 SWAP1 PUSH1 0x0 MSTORE PUSH1 0x20 PUSH1 0x0 KECCAK256 ADD PUSH1 0x0 SWAP1 SSTORE SWAP1 SSTORE PUSH2 0x2BD JUMP JUMPDEST PUSH1 0x0 DUP1 DUP3 DUP2 SLOAD DUP2 LT PUSH2 0x285 JUMPI PUSH2 0x284 PUSH2 0x4D4 JUMP JUMPDEST JUMPDEST SWAP1 PUSH1 0x0 MSTORE PUSH1 0x20 PUSH1 0x0 KECCAK256 ADD DUP2 SWAP1 SSTORE POP PUSH1 0x1 DUP2 SWAP1 DUP1 PUSH1 0x1 DUP2 SLOAD ADD DUP1 DUP3 SSTORE DUP1 SWAP2 POP POP PUSH1 0x1 SWAP1 SUB SWAP1 PUSH1 0x0 MSTORE PUSH1 0x20 PUSH1 0x0 KECCAK256 ADD PUSH1 0x0 SWAP1 SWAP2 SWAP1 SWAP2 SWAP1 SWAP2 POP SSTORE JUMPDEST POP JUMP JUMPDEST PUSH1 0x0 DUP1 PUSH1 0x1 DUP1 SLOAD SWAP1 POP SUB PUSH2 0x310 JUMPI PUSH1 0x0 DUP3 SWAP1 DUP1 PUSH1 0x1 DUP2 SLOAD ADD DUP1 DUP3 SSTORE DUP1 SWAP2 POP POP PUSH1 0x1 SWAP1 SUB SWAP1 PUSH1 0x0 MSTORE PUSH1 0x20 PUSH1 0x0 KECCAK256 ADD PUSH1 0x0 SWAP1 SWAP2 SWAP1 SWAP2 SWAP1 SWAP2 POP SSTORE PUSH1 0x1 PUSH1 0x0 DUP1 SLOAD SWAP1 POP PUSH2 0x309 SWAP2 SWAP1 PUSH2 0x4A0 JUMP JUMPDEST SWAP1 POP PUSH2 0x392 JUMP JUMPDEST PUSH1 0x0 PUSH1 0x1 DUP1 DUP1 DUP1 SLOAD SWAP1 POP PUSH2 0x324 SWAP2 SWAP1 PUSH2 0x4A0 JUMP JUMPDEST DUP2 SLOAD DUP2 LT PUSH2 0x335 JUMPI PUSH2 0x334 PUSH2 0x4D4 JUMP JUMPDEST JUMPDEST SWAP1 PUSH1 0x0 MSTORE PUSH1 0x20 PUSH1 0x0 KECCAK256 ADD SLOAD SWAP1 POP PUSH1 0x1 DUP1 SLOAD DUP1 PUSH2 0x354 JUMPI PUSH2 0x353 PUSH2 0x503 JUMP JUMPDEST JUMPDEST PUSH1 0x1 SWAP1 SUB DUP2 DUP2 SWAP1 PUSH1 0x0 MSTORE PUSH1 0x20 PUSH1 0x0 KECCAK256 ADD PUSH1 0x0 SWAP1 SSTORE SWAP1 SSTORE DUP3 PUSH1 0x0 DUP3 DUP2 SLOAD DUP2 LT PUSH2 0x37F JUMPI PUSH2 0x37E PUSH2 0x4D4 JUMP JUMPDEST JUMPDEST SWAP1 PUSH1 0x0 MSTORE PUSH1 0x20 PUSH1 0x0 KECCAK256 ADD DUP2 SWAP1 SSTORE POP DUP1 SWAP2 POP POP JUMPDEST SWAP2 SWAP1 POP JUMP JUMPDEST PUSH1 0x1 DUP2 DUP2 SLOAD DUP2 LT PUSH2 0x3A7 JUMPI PUSH1 0x0 DUP1 REVERT JUMPDEST SWAP1 PUSH1 0x0 MSTORE PUSH1 0x20 PUSH1 0x0 KECCAK256 ADD PUSH1 0x0 SWAP2 POP SWAP1 POP SLOAD DUP2 JUMP JUMPDEST PUSH1 0x0 DUP2 DUP2 SLOAD DUP2 LT PUSH2 0x3CB JUMPI PUSH1 0x0 DUP1 REVERT JUMPDEST SWAP1 PUSH1 0x0 MSTORE PUSH1 0x20 PUSH1 0x0 KECCAK256 ADD PUSH1 0x0 SWAP2 POP SWAP1 POP SLOAD DUP2 JUMP JUMPDEST PUSH1 0x0 DUP2 SWAP1 POP SWAP2 SWAP1 POP JUMP JUMPDEST PUSH2 0x3F2 DUP2 PUSH2 0x3DF JUMP JUMPDEST DUP3 MSTORE POP POP JUMP JUMPDEST PUSH1 0x0 PUSH1 0x20 DUP3 ADD SWAP1 POP PUSH2 0x40D PUSH1 0x0 DUP4 ADD DUP5 PUSH2 0x3E9 JUMP JUMPDEST SWAP3 SWAP2 POP POP JUMP JUMPDEST PUSH1 0x0 DUP1 REVERT JUMPDEST PUSH2 0x421 DUP2 PUSH2 0x3DF JUMP JUMPDEST DUP2 EQ PUSH2 0x42C JUMPI PUSH1 0x0 DUP1 REVERT JUMPDEST POP JUMP JUMPDEST PUSH1 0x0 DUP2 CALLDATALOAD SWAP1 POP PUSH2 0x43E DUP2 PUSH2 0x418 JUMP JUMPDEST SWAP3 SWAP2 POP POP JUMP JUMPDEST PUSH1 0x0 PUSH1 0x20 DUP3 DUP5 SUB SLT ISZERO PUSH2 0x45A JUMPI PUSH2 0x459 PUSH2 0x413 JUMP JUMPDEST JUMPDEST PUSH1 0x0 PUSH2 0x468 DUP5 DUP3 DUP6 ADD PUSH2 0x42F JUMP JUMPDEST SWAP2 POP POP SWAP3 SWAP2 POP POP JUMP JUMPDEST PUSH32 0x4E487B7100000000000000000000000000000000000000000000000000000000 PUSH1 0x0 MSTORE PUSH1 0x11 PUSH1 0x4 MSTORE PUSH1 0x24 PUSH1 0x0 REVERT JUMPDEST PUSH1 0x0 PUSH2 0x4AB DUP3 PUSH2 0x3DF JUMP JUMPDEST SWAP2 POP PUSH2 0x4B6 DUP4 PUSH2 0x3DF JUMP JUMPDEST SWAP3 POP DUP3 DUP3 SUB SWAP1 POP DUP2 DUP2 GT ISZERO PUSH2 0x4CE JUMPI PUSH2 0x4CD PUSH2 0x471 JUMP JUMPDEST JUMPDEST SWAP3 SWAP2 POP POP JUMP JUMPDEST PUSH32 0x4E487B7100000000000000000000000000000000000000000000000000000000 PUSH1 0x0 MSTORE PUSH1 0x32 PUSH1 0x4 MSTORE PUSH1 0x24 PUSH1 0x0 REVERT JUMPDEST PUSH32 0x4E487B7100000000000000000000000000000000000000000000000000000000 PUSH1 0x0 MSTORE PUSH1 0x31 PUSH1 0x4 MSTORE PUSH1 0x24 PUSH1 0x0 REVERT JUMPDEST PUSH1 0x0 DUP3 DUP3 MSTORE PUSH1 0x20 DUP3 ADD SWAP1 POP SWAP3 SWAP2 POP POP JUMP JUMPDEST PUSH32 0x43616E6E6F742064656C657465206E756C6C7074720000000000000000000000 PUSH1 0x0 DUP3 ADD MSTORE POP JUMP JUMPDEST PUSH1 0x0 PUSH2 0x579 PUSH1 0x15 DUP4 PUSH2 0x532 JUMP JUMPDEST SWAP2 POP PUSH2 0x584 DUP3 PUSH2 0x543 JUMP JUMPDEST PUSH1 0x20 DUP3 ADD SWAP1 POP SWAP2 SWAP1 POP JUMP JUMPDEST PUSH1 0x0 PUSH1 0x20 DUP3 ADD SWAP1 POP DUP2 DUP2 SUB PUSH1 0x0 DUP4 ADD MSTORE PUSH2 0x5A8 DUP2 PUSH2 0x56C JUMP JUMPDEST SWAP1 POP SWAP2 SWAP1 POP JUMP INVALID LOG2 PUSH5 0x6970667358 0x22 SLT KECCAK256 PUSH5 0xA6F7EBD4AC PUSH20 0x6104C492E88B8164F0FE076101DABE3219644BDF SWAP8 0xD9 0x28 0xBA JUMPDEST PUSH5 0x736F6C6343 STOP ADDMOD SLT STOP CALLER "
				},
				"gasEstimates": {
					"creation": {
						"codeDepositCost": "301800",
						"executionCost": "29663",
						"totalCost": "331463"
					},
					"external": {
						"delete_uint256(uint256)": "infinite",
						"new_uint256()": "infinite",
						"new_uint256(uint256)": "infinite",
						"nullPointer(uint256)": "infinite",
						"pointer(uint256)": "infinite"
					}
				},
				"methodIdentifiers": {
					"delete_uint256(uint256)": "a47ea718",
					"new_uint256()": "92d8e428",
					"new_uint256(uint256)": "e96aff0b",
					"nullPointer(uint256)": "f63c2e09",
					"pointer(uint256)": "f9d6a52e"
				}
			},
			"storageLayout": {
				"storage": [
					{
						"astId": 397,
						"contract": "W6/pointer.sol:Pointer",
						"label": "pointer",
						"offset": 0,
						"slot": "0",
						"type": "t_array(t_uint256)dyn_storage"
					},
					{
						"astId": 400,
						"contract": "W6/pointer.sol:Pointer",
						"label": "nullPointer",
						"offset": 0,
						"slot": "1",
						"type": "t_array(t_uint256)dyn_storage"
					}
				],
				"types": {
					"t_array(t_uint256)dyn_storage": {
						"base": "t_uint256",
						"encoding": "dynamic_array",
						"label": "uint256[]",
						"numberOfBytes": "32"
					},
					"t_uint256": {
						"encoding": "inplace",
						"label": "uint256",
						"numberOfBytes": "32"
					}
				}
			},
			"userdoc": {
				"kind": "user",
				"methods": {},
				"version": 1
			}
		}
	}
}