{
	"W6/comput.sol": {
		"BigIntExample": {
			"abi": [
				{
					"inputs": [],
					"name": "calculate",
					"outputs": [
						{
							"components": [
								{
									"internalType": "uint256[]",
									"name": "limbs",
									"type": "uint256[]"
								}
							],
							"internalType": "struct BigInt.bigint",
							"name": "",
							"type": "tuple"
						}
					],
					"stateMutability": "pure",
					"type": "function"
				}
			],
			"devdoc": {
				"kind": "dev",
				"methods": {},
				"version": 1
			},
			"evm": {
				"assembly": "    /* \"W6/comput.sol\":86:910  contract BigIntExample {... */\n  mstore(0x40, 0x80)\n  callvalue\n  dup1\n  iszero\n  tag_1\n  jumpi\n  0x00\n  dup1\n  revert\ntag_1:\n  pop\n  dataSize(sub_0)\n  dup1\n  dataOffset(sub_0)\n  0x00\n  codecopy\n  0x00\n  return\nstop\n\nsub_0: assembly {\n        /* \"W6/comput.sol\":86:910  contract BigIntExample {... */\n      mstore(0x40, 0x80)\n      callvalue\n      dup1\n      iszero\n      tag_1\n      jumpi\n      0x00\n      dup1\n      revert\n    tag_1:\n      pop\n      jumpi(tag_2, lt(calldatasize, 0x04))\n      shr(0xe0, calldataload(0x00))\n      dup1\n      0xca77ab65\n      eq\n      tag_3\n      jumpi\n    tag_2:\n      0x00\n      dup1\n      revert\n        /* \"W6/comput.sol\":275:907  function calculate() public pure returns (BigInt.bigint memory) {... */\n    tag_3:\n      tag_4\n      tag_5\n      jump\t// in\n    tag_4:\n      mload(0x40)\n      tag_6\n      swap2\n      swap1\n      tag_7\n      jump\t// in\n    tag_6:\n      mload(0x40)\n      dup1\n      swap2\n      sub\n      swap1\n      return\n    tag_5:\n        /* \"W6/comput.sol\":317:337  BigInt.bigint memory */\n      tag_8\n      tag_9\n      jump\t// in\n    tag_8:\n        /* \"W6/comput.sol\":386:414  BigInt.bigint memory baseTen */\n      0x00\n        /* \"W6/comput.sol\":417:481  BigInt.bigint({... */\n      mload(0x40)\n      dup1\n      0x20\n      add\n      0x40\n      mstore\n      dup1\n        /* \"W6/comput.sol\":467:468  1 */\n      0x01\n        /* \"W6/comput.sol\":453:469  new uint256[](1) */\n      0xffffffffffffffff\n      dup2\n      gt\n      iszero\n      tag_11\n      jumpi\n      tag_12\n      tag_13\n      jump\t// in\n    tag_12:\n    tag_11:\n      mload(0x40)\n      swap1\n      dup1\n      dup3\n      mstore\n      dup1\n      0x20\n      mul\n      0x20\n      add\n      dup3\n      add\n      0x40\n      mstore\n      dup1\n      iszero\n      tag_14\n      jumpi\n      dup2\n      0x20\n      add\n      0x20\n      dup3\n      mul\n      dup1\n      calldatasize\n      dup4\n      calldatacopy\n      dup1\n      dup3\n      add\n      swap2\n      pop\n      pop\n      swap1\n      pop\n    tag_14:\n      pop\n        /* \"W6/comput.sol\":417:481  BigInt.bigint({... */\n      dup2\n      mstore\n      pop\n        /* \"W6/comput.sol\":386:481  BigInt.bigint memory baseTen = BigInt.bigint({... */\n      swap1\n      pop\n        /* \"W6/comput.sol\":511:517  10**77 */\n      0xdd15fe86affad91249ef0eb713f39ebeaa987b6e6fd2a0000000000000000000\n        /* \"W6/comput.sol\":492:499  baseTen */\n      dup2\n        /* \"W6/comput.sol\":492:505  baseTen.limbs */\n      0x00\n      add\n      mload\n        /* \"W6/comput.sol\":506:507  0 */\n      0x00\n        /* \"W6/comput.sol\":492:508  baseTen.limbs[0] */\n      dup2\n      mload\n      dup2\n      lt\n      tag_15\n      jumpi\n      tag_16\n      tag_17\n      jump\t// in\n    tag_16:\n    tag_15:\n      0x20\n      mul\n      0x20\n      add\n      add\n        /* \"W6/comput.sol\":492:517  baseTen.limbs[0] = 10**77 */\n      dup2\n      dup2\n      mstore\n      pop\n      pop\n        /* \"W6/comput.sol\":567:586  uint256 limbsLength */\n      0x00\n        /* \"W6/comput.sol\":593:611  ceilDiv(1234, 128) */\n      tag_18\n        /* \"W6/comput.sol\":601:605  1234 */\n      0x04d2\n        /* \"W6/comput.sol\":607:610  128 */\n      0x80\n        /* \"W6/comput.sol\":593:600  ceilDiv */\n      tag_19\n        /* \"W6/comput.sol\":593:611  ceilDiv(1234, 128) */\n      jump\t// in\n    tag_18:\n        /* \"W6/comput.sol\":589:590  1 */\n      0x01\n        /* \"W6/comput.sol\":589:611  1 + ceilDiv(1234, 128) */\n      tag_20\n      swap2\n      swap1\n      tag_21\n      jump\t// in\n    tag_20:\n        /* \"W6/comput.sol\":567:611  uint256 limbsLength = 1 + ceilDiv(1234, 128) */\n      swap1\n      pop\n        /* \"W6/comput.sol\":622:650  BigInt.bigint memory baseTwo */\n      0x00\n        /* \"W6/comput.sol\":653:727  BigInt.bigint({... */\n      mload(0x40)\n      dup1\n      0x20\n      add\n      0x40\n      mstore\n      dup1\n        /* \"W6/comput.sol\":703:714  limbsLength */\n      dup4\n        /* \"W6/comput.sol\":689:715  new uint256[](limbsLength) */\n      0xffffffffffffffff\n      dup2\n      gt\n      iszero\n      tag_22\n      jumpi\n      tag_23\n      tag_13\n      jump\t// in\n    tag_23:\n    tag_22:\n      mload(0x40)\n      swap1\n      dup1\n      dup3\n      mstore\n      dup1\n      0x20\n      mul\n      0x20\n      add\n      dup3\n      add\n      0x40\n      mstore\n      dup1\n      iszero\n      tag_24\n      jumpi\n      dup2\n      0x20\n      add\n      0x20\n      dup3\n      mul\n      dup1\n      calldatasize\n      dup4\n      calldatacopy\n      dup1\n      dup3\n      add\n      swap2\n      pop\n      pop\n      swap1\n      pop\n    tag_24:\n      pop\n        /* \"W6/comput.sol\":653:727  BigInt.bigint({... */\n      dup2\n      mstore\n      pop\n        /* \"W6/comput.sol\":622:727  BigInt.bigint memory baseTwo = BigInt.bigint({... */\n      swap1\n      pop\n        /* \"W6/comput.sol\":738:758  baseTwo.setBit(1234) */\n      tag_25\n        /* \"W6/comput.sol\":753:757  1234 */\n      0x04d2\n        /* \"W6/comput.sol\":738:745  baseTwo */\n      dup3\n        /* \"W6/comput.sol\":738:752  baseTwo.setBit */\n      tag_26\n      swap1\n        /* \"W6/comput.sol\":738:758  baseTwo.setBit(1234) */\n      swap2\n      swap1\n      0xffffffff\n      and\n      jump\t// in\n    tag_25:\n        /* \"W6/comput.sol\":820:847  BigInt.bigint memory result */\n      0x00\n        /* \"W6/comput.sol\":850:875  baseTen.multiply(baseTwo) */\n      tag_27\n        /* \"W6/comput.sol\":867:874  baseTwo */\n      dup3\n        /* \"W6/comput.sol\":850:857  baseTen */\n      dup6\n        /* \"W6/comput.sol\":850:866  baseTen.multiply */\n      tag_28\n      swap1\n        /* \"W6/comput.sol\":850:875  baseTen.multiply(baseTwo) */\n      swap2\n      swap1\n      0xffffffff\n      and\n      jump\t// in\n    tag_27:\n        /* \"W6/comput.sol\":820:875  BigInt.bigint memory result = baseTen.multiply(baseTwo) */\n      swap1\n      pop\n        /* \"W6/comput.sol\":893:899  result */\n      dup1\n        /* \"W6/comput.sol\":886:899  return result */\n      swap5\n      pop\n      pop\n      pop\n      pop\n      pop\n        /* \"W6/comput.sol\":275:907  function calculate() public pure returns (BigInt.bigint memory) {... */\n      swap1\n      jump\t// out\n        /* \"W6/comput.sol\":155:267  function ceilDiv(uint256 a, uint256 b) internal pure returns (uint256) {... */\n    tag_19:\n        /* \"W6/comput.sol\":217:224  uint256 */\n      0x00\n        /* \"W6/comput.sol\":258:259  b */\n      dup2\n        /* \"W6/comput.sol\":253:254  1 */\n      0x01\n        /* \"W6/comput.sol\":249:250  b */\n      dup4\n        /* \"W6/comput.sol\":245:246  a */\n      dup6\n        /* \"W6/comput.sol\":245:250  a + b */\n      tag_30\n      swap2\n      swap1\n      tag_21\n      jump\t// in\n    tag_30:\n        /* \"W6/comput.sol\":245:254  a + b - 1 */\n      tag_31\n      swap2\n      swap1\n      tag_32\n      jump\t// in\n    tag_31:\n        /* \"W6/comput.sol\":244:259  (a + b - 1) / b */\n      tag_33\n      swap2\n      swap1\n      tag_34\n      jump\t// in\n    tag_33:\n        /* \"W6/comput.sol\":237:259  return (a + b - 1) / b */\n      swap1\n      pop\n        /* \"W6/comput.sol\":155:267  function ceilDiv(uint256 a, uint256 b) internal pure returns (uint256) {... */\n      swap3\n      swap2\n      pop\n      pop\n      jump\t// out\n        /* \"W6/bignum.sol\":4640:5131  function setBit(bigint memory a, uint256 position) internal pure {... */\n    tag_26:\n        /* \"W6/bignum.sol\":4716:4733  uint256 limbIndex */\n      0x00\n        /* \"W6/bignum.sol\":4747:4750  128 */\n      0x80\n        /* \"W6/bignum.sol\":4736:4744  position */\n      dup3\n        /* \"W6/bignum.sol\":4736:4750  position / 128 */\n      tag_36\n      swap2\n      swap1\n      tag_34\n      jump\t// in\n    tag_36:\n        /* \"W6/bignum.sol\":4716:4750  uint256 limbIndex = position / 128 */\n      swap1\n      pop\n        /* \"W6/bignum.sol\":4761:4777  uint256 bitIndex */\n      0x00\n        /* \"W6/bignum.sol\":4791:4794  128 */\n      0x80\n        /* \"W6/bignum.sol\":4780:4788  position */\n      dup4\n        /* \"W6/bignum.sol\":4780:4794  position % 128 */\n      tag_37\n      swap2\n      swap1\n      tag_38\n      jump\t// in\n    tag_37:\n        /* \"W6/bignum.sol\":4761:4794  uint256 bitIndex = position % 128 */\n      swap1\n      pop\n        /* \"W6/bignum.sol\":4824:4825  a */\n      dup4\n        /* \"W6/bignum.sol\":4824:4831  a.limbs */\n      0x00\n      add\n      mload\n        /* \"W6/bignum.sol\":4824:4838  a.limbs.length */\n      mload\n        /* \"W6/bignum.sol\":4811:4820  limbIndex */\n      dup3\n        /* \"W6/bignum.sol\":4811:4838  limbIndex >= a.limbs.length */\n      lt\n        /* \"W6/bignum.sol\":4807:5074  if (limbIndex >= a.limbs.length) {... */\n      tag_39\n      jumpi\n        /* \"W6/bignum.sol\":4855:4880  uint256[] memory newLimbs */\n      0x00\n        /* \"W6/bignum.sol\":4909:4910  1 */\n      0x01\n        /* \"W6/bignum.sol\":4897:4906  limbIndex */\n      dup4\n        /* \"W6/bignum.sol\":4897:4910  limbIndex + 1 */\n      tag_40\n      swap2\n      swap1\n      tag_21\n      jump\t// in\n    tag_40:\n        /* \"W6/bignum.sol\":4883:4911  new uint256[](limbIndex + 1) */\n      0xffffffffffffffff\n      dup2\n      gt\n      iszero\n      tag_41\n      jumpi\n      tag_42\n      tag_13\n      jump\t// in\n    tag_42:\n    tag_41:\n      mload(0x40)\n      swap1\n      dup1\n      dup3\n      mstore\n      dup1\n      0x20\n      mul\n      0x20\n      add\n      dup3\n      add\n      0x40\n      mstore\n      dup1\n      iszero\n      tag_43\n      jumpi\n      dup2\n      0x20\n      add\n      0x20\n      dup3\n      mul\n      dup1\n      calldatasize\n      dup4\n      calldatacopy\n      dup1\n      dup3\n      add\n      swap2\n      pop\n      pop\n      swap1\n      pop\n    tag_43:\n      pop\n        /* \"W6/bignum.sol\":4855:4911  uint256[] memory newLimbs = new uint256[](limbIndex + 1) */\n      swap1\n      pop\n        /* \"W6/bignum.sol\":4931:4940  uint256 i */\n      0x00\n        /* \"W6/bignum.sol\":4926:5030  for (uint256 i = 0; i < a.limbs.length; i++) {... */\n    tag_44:\n        /* \"W6/bignum.sol\":4950:4951  a */\n      dup6\n        /* \"W6/bignum.sol\":4950:4957  a.limbs */\n      0x00\n      add\n      mload\n        /* \"W6/bignum.sol\":4950:4964  a.limbs.length */\n      mload\n        /* \"W6/bignum.sol\":4946:4947  i */\n      dup2\n        /* \"W6/bignum.sol\":4946:4964  i < a.limbs.length */\n      lt\n        /* \"W6/bignum.sol\":4926:5030  for (uint256 i = 0; i < a.limbs.length; i++) {... */\n      iszero\n      tag_45\n      jumpi\n        /* \"W6/bignum.sol\":5004:5005  a */\n      dup6\n        /* \"W6/bignum.sol\":5004:5011  a.limbs */\n      0x00\n      add\n      mload\n        /* \"W6/bignum.sol\":5012:5013  i */\n      dup2\n        /* \"W6/bignum.sol\":5004:5014  a.limbs[i] */\n      dup2\n      mload\n      dup2\n      lt\n      tag_47\n      jumpi\n      tag_48\n      tag_17\n      jump\t// in\n    tag_48:\n    tag_47:\n      0x20\n      mul\n      0x20\n      add\n      add\n      mload\n        /* \"W6/bignum.sol\":4990:4998  newLimbs */\n      dup3\n        /* \"W6/bignum.sol\":4999:5000  i */\n      dup3\n        /* \"W6/bignum.sol\":4990:5001  newLimbs[i] */\n      dup2\n      mload\n      dup2\n      lt\n      tag_49\n      jumpi\n      tag_50\n      tag_17\n      jump\t// in\n    tag_50:\n    tag_49:\n      0x20\n      mul\n      0x20\n      add\n      add\n        /* \"W6/bignum.sol\":4990:5014  newLimbs[i] = a.limbs[i] */\n      dup2\n      dup2\n      mstore\n      pop\n      pop\n        /* \"W6/bignum.sol\":4966:4969  i++ */\n      dup1\n      dup1\n      tag_51\n      swap1\n      tag_52\n      jump\t// in\n    tag_51:\n      swap2\n      pop\n      pop\n        /* \"W6/bignum.sol\":4926:5030  for (uint256 i = 0; i < a.limbs.length; i++) {... */\n      jump(tag_44)\n    tag_45:\n      pop\n        /* \"W6/bignum.sol\":5054:5062  newLimbs */\n      dup1\n        /* \"W6/bignum.sol\":5044:5045  a */\n      dup6\n        /* \"W6/bignum.sol\":5044:5051  a.limbs */\n      0x00\n      add\n        /* \"W6/bignum.sol\":5044:5062  a.limbs = newLimbs */\n      dup2\n      swap1\n      mstore\n      pop\n        /* \"W6/bignum.sol\":4840:5074  {... */\n      pop\n        /* \"W6/bignum.sol\":4807:5074  if (limbIndex >= a.limbs.length) {... */\n    tag_39:\n        /* \"W6/bignum.sol\":5114:5122  bitIndex */\n      dup1\n        /* \"W6/bignum.sol\":5109:5110  1 */\n      0x01\n        /* \"W6/bignum.sol\":5109:5122  1 << bitIndex */\n      swap1\n      shl\n        /* \"W6/bignum.sol\":5086:5087  a */\n      dup5\n        /* \"W6/bignum.sol\":5086:5093  a.limbs */\n      0x00\n      add\n      mload\n        /* \"W6/bignum.sol\":5094:5103  limbIndex */\n      dup4\n        /* \"W6/bignum.sol\":5086:5104  a.limbs[limbIndex] */\n      dup2\n      mload\n      dup2\n      lt\n      tag_53\n      jumpi\n      tag_54\n      tag_17\n      jump\t// in\n    tag_54:\n    tag_53:\n      0x20\n      mul\n      0x20\n      add\n      add\n        /* \"W6/bignum.sol\":5086:5123  a.limbs[limbIndex] |= (1 << bitIndex) */\n      dup2\n      dup2\n      mload\n      or\n      swap2\n      pop\n      dup2\n      dup2\n      mstore\n      pop\n      pop\n        /* \"W6/bignum.sol\":4705:5131  {... */\n      pop\n      pop\n        /* \"W6/bignum.sol\":4640:5131  function setBit(bigint memory a, uint256 position) internal pure {... */\n      pop\n      pop\n      jump\t// out\n        /* \"W6/bignum.sol\":884:1524  function multiply(bigint memory a, bigint memory b) internal pure returns (bigint memory) {... */\n    tag_28:\n        /* \"W6/bignum.sol\":959:972  bigint memory */\n      tag_55\n      tag_9\n      jump\t// in\n    tag_55:\n        /* \"W6/bignum.sol\":985:1005  bigint memory result */\n      tag_57\n      tag_9\n      jump\t// in\n    tag_57:\n        /* \"W6/bignum.sol\":1062:1063  b */\n      dup3\n        /* \"W6/bignum.sol\":1062:1069  b.limbs */\n      0x00\n      add\n      mload\n        /* \"W6/bignum.sol\":1062:1076  b.limbs.length */\n      mload\n        /* \"W6/bignum.sol\":1045:1046  a */\n      dup5\n        /* \"W6/bignum.sol\":1045:1052  a.limbs */\n      0x00\n      add\n      mload\n        /* \"W6/bignum.sol\":1045:1059  a.limbs.length */\n      mload\n        /* \"W6/bignum.sol\":1045:1076  a.limbs.length + b.limbs.length */\n      tag_58\n      swap2\n      swap1\n      tag_21\n      jump\t// in\n    tag_58:\n        /* \"W6/bignum.sol\":1031:1077  new uint256[](a.limbs.length + b.limbs.length) */\n      0xffffffffffffffff\n      dup2\n      gt\n      iszero\n      tag_59\n      jumpi\n      tag_60\n      tag_13\n      jump\t// in\n    tag_60:\n    tag_59:\n      mload(0x40)\n      swap1\n      dup1\n      dup3\n      mstore\n      dup1\n      0x20\n      mul\n      0x20\n      add\n      dup3\n      add\n      0x40\n      mstore\n      dup1\n      iszero\n      tag_61\n      jumpi\n      dup2\n      0x20\n      add\n      0x20\n      dup3\n      mul\n      dup1\n      calldatasize\n      dup4\n      calldatacopy\n      dup1\n      dup3\n      add\n      swap2\n      pop\n      pop\n      swap1\n      pop\n    tag_61:\n      pop\n        /* \"W6/bignum.sol\":1016:1022  result */\n      dup2\n        /* \"W6/bignum.sol\":1016:1028  result.limbs */\n      0x00\n      add\n        /* \"W6/bignum.sol\":1016:1077  result.limbs = new uint256[](a.limbs.length + b.limbs.length) */\n      dup2\n      swap1\n      mstore\n      pop\n        /* \"W6/bignum.sol\":1095:1104  uint256 i */\n      0x00\n        /* \"W6/bignum.sol\":1090:1491  for (uint256 i = 0; i < a.limbs.length; i++) {... */\n    tag_62:\n        /* \"W6/bignum.sol\":1114:1115  a */\n      dup5\n        /* \"W6/bignum.sol\":1114:1121  a.limbs */\n      0x00\n      add\n      mload\n        /* \"W6/bignum.sol\":1114:1128  a.limbs.length */\n      mload\n        /* \"W6/bignum.sol\":1110:1111  i */\n      dup2\n        /* \"W6/bignum.sol\":1110:1128  i < a.limbs.length */\n      lt\n        /* \"W6/bignum.sol\":1090:1491  for (uint256 i = 0; i < a.limbs.length; i++) {... */\n      iszero\n      tag_63\n      jumpi\n        /* \"W6/bignum.sol\":1150:1163  uint256 carry */\n      0x00\n        /* \"W6/bignum.sol\":1187:1196  uint256 j */\n      dup1\n        /* \"W6/bignum.sol\":1182:1425  for (uint256 j = 0; j < b.limbs.length; j++) {... */\n    tag_65:\n        /* \"W6/bignum.sol\":1206:1207  b */\n      dup6\n        /* \"W6/bignum.sol\":1206:1213  b.limbs */\n      0x00\n      add\n      mload\n        /* \"W6/bignum.sol\":1206:1220  b.limbs.length */\n      mload\n        /* \"W6/bignum.sol\":1202:1203  j */\n      dup2\n        /* \"W6/bignum.sol\":1202:1220  j < b.limbs.length */\n      lt\n        /* \"W6/bignum.sol\":1182:1425  for (uint256 j = 0; j < b.limbs.length; j++) {... */\n      iszero\n      tag_66\n      jumpi\n        /* \"W6/bignum.sol\":1246:1257  uint256 mul */\n      0x00\n        /* \"W6/bignum.sol\":1294:1300  result */\n      dup5\n        /* \"W6/bignum.sol\":1294:1306  result.limbs */\n      0x00\n      add\n      mload\n        /* \"W6/bignum.sol\":1311:1312  j */\n      dup3\n        /* \"W6/bignum.sol\":1307:1308  i */\n      dup6\n        /* \"W6/bignum.sol\":1307:1312  i + j */\n      tag_68\n      swap2\n      swap1\n      tag_21\n      jump\t// in\n    tag_68:\n        /* \"W6/bignum.sol\":1294:1313  result.limbs[i + j] */\n      dup2\n      mload\n      dup2\n      lt\n      tag_69\n      jumpi\n      tag_70\n      tag_17\n      jump\t// in\n    tag_70:\n    tag_69:\n      0x20\n      mul\n      0x20\n      add\n      add\n      mload\n        /* \"W6/bignum.sol\":1286:1291  carry */\n      dup4\n        /* \"W6/bignum.sol\":1273:1274  b */\n      dup9\n        /* \"W6/bignum.sol\":1273:1280  b.limbs */\n      0x00\n      add\n      mload\n        /* \"W6/bignum.sol\":1281:1282  j */\n      dup5\n        /* \"W6/bignum.sol\":1273:1283  b.limbs[j] */\n      dup2\n      mload\n      dup2\n      lt\n      tag_71\n      jumpi\n      tag_72\n      tag_17\n      jump\t// in\n    tag_72:\n    tag_71:\n      0x20\n      mul\n      0x20\n      add\n      add\n      mload\n        /* \"W6/bignum.sol\":1260:1261  a */\n      dup11\n        /* \"W6/bignum.sol\":1260:1267  a.limbs */\n      0x00\n      add\n      mload\n        /* \"W6/bignum.sol\":1268:1269  i */\n      dup8\n        /* \"W6/bignum.sol\":1260:1270  a.limbs[i] */\n      dup2\n      mload\n      dup2\n      lt\n      tag_73\n      jumpi\n      tag_74\n      tag_17\n      jump\t// in\n    tag_74:\n    tag_73:\n      0x20\n      mul\n      0x20\n      add\n      add\n      mload\n        /* \"W6/bignum.sol\":1260:1283  a.limbs[i] * b.limbs[j] */\n      tag_75\n      swap2\n      swap1\n      tag_76\n      jump\t// in\n    tag_75:\n        /* \"W6/bignum.sol\":1260:1291  a.limbs[i] * b.limbs[j] + carry */\n      tag_77\n      swap2\n      swap1\n      tag_21\n      jump\t// in\n    tag_77:\n        /* \"W6/bignum.sol\":1260:1313  a.limbs[i] * b.limbs[j] + carry + result.limbs[i + j] */\n      tag_78\n      swap2\n      swap1\n      tag_21\n      jump\t// in\n    tag_78:\n        /* \"W6/bignum.sol\":1246:1313  uint256 mul = a.limbs[i] * b.limbs[j] + carry + result.limbs[i + j] */\n      swap1\n      pop\n        /* \"W6/bignum.sol\":1361:1367  2**128 */\n      0x0100000000000000000000000000000000\n        /* \"W6/bignum.sol\":1354:1357  mul */\n      dup2\n        /* \"W6/bignum.sol\":1354:1368  mul % (2**128) */\n      tag_79\n      swap2\n      swap1\n      tag_38\n      jump\t// in\n    tag_79:\n        /* \"W6/bignum.sol\":1332:1338  result */\n      dup6\n        /* \"W6/bignum.sol\":1332:1344  result.limbs */\n      0x00\n      add\n      mload\n        /* \"W6/bignum.sol\":1349:1350  j */\n      dup4\n        /* \"W6/bignum.sol\":1345:1346  i */\n      dup7\n        /* \"W6/bignum.sol\":1345:1350  i + j */\n      tag_80\n      swap2\n      swap1\n      tag_21\n      jump\t// in\n    tag_80:\n        /* \"W6/bignum.sol\":1332:1351  result.limbs[i + j] */\n      dup2\n      mload\n      dup2\n      lt\n      tag_81\n      jumpi\n      tag_82\n      tag_17\n      jump\t// in\n    tag_82:\n    tag_81:\n      0x20\n      mul\n      0x20\n      add\n      add\n        /* \"W6/bignum.sol\":1332:1368  result.limbs[i + j] = mul % (2**128) */\n      dup2\n      dup2\n      mstore\n      pop\n      pop\n        /* \"W6/bignum.sol\":1402:1408  2**128 */\n      0x0100000000000000000000000000000000\n        /* \"W6/bignum.sol\":1395:1398  mul */\n      dup2\n        /* \"W6/bignum.sol\":1395:1409  mul / (2**128) */\n      tag_83\n      swap2\n      swap1\n      tag_34\n      jump\t// in\n    tag_83:\n        /* \"W6/bignum.sol\":1387:1409  carry = mul / (2**128) */\n      swap3\n      pop\n        /* \"W6/bignum.sol\":1227:1425  {... */\n      pop\n        /* \"W6/bignum.sol\":1222:1225  j++ */\n      dup1\n      dup1\n      tag_84\n      swap1\n      tag_52\n      jump\t// in\n    tag_84:\n      swap2\n      pop\n      pop\n        /* \"W6/bignum.sol\":1182:1425  for (uint256 j = 0; j < b.limbs.length; j++) {... */\n      jump(tag_65)\n    tag_66:\n      pop\n        /* \"W6/bignum.sol\":1474:1479  carry */\n      dup1\n        /* \"W6/bignum.sol\":1439:1445  result */\n      dup4\n        /* \"W6/bignum.sol\":1439:1451  result.limbs */\n      0x00\n      add\n      mload\n        /* \"W6/bignum.sol\":1456:1457  b */\n      dup7\n        /* \"W6/bignum.sol\":1456:1463  b.limbs */\n      0x00\n      add\n      mload\n        /* \"W6/bignum.sol\":1456:1470  b.limbs.length */\n      mload\n        /* \"W6/bignum.sol\":1452:1453  i */\n      dup5\n        /* \"W6/bignum.sol\":1452:1470  i + b.limbs.length */\n      tag_85\n      swap2\n      swap1\n      tag_21\n      jump\t// in\n    tag_85:\n        /* \"W6/bignum.sol\":1439:1471  result.limbs[i + b.limbs.length] */\n      dup2\n      mload\n      dup2\n      lt\n      tag_86\n      jumpi\n      tag_87\n      tag_17\n      jump\t// in\n    tag_87:\n    tag_86:\n      0x20\n      mul\n      0x20\n      add\n      add\n        /* \"W6/bignum.sol\":1439:1479  result.limbs[i + b.limbs.length] = carry */\n      dup2\n      dup2\n      mstore\n      pop\n      pop\n        /* \"W6/bignum.sol\":1135:1491  {... */\n      pop\n        /* \"W6/bignum.sol\":1130:1133  i++ */\n      dup1\n      dup1\n      tag_88\n      swap1\n      tag_52\n      jump\t// in\n    tag_88:\n      swap2\n      pop\n      pop\n        /* \"W6/bignum.sol\":1090:1491  for (uint256 i = 0; i < a.limbs.length; i++) {... */\n      jump(tag_62)\n    tag_63:\n      pop\n        /* \"W6/bignum.sol\":1510:1516  result */\n      dup1\n        /* \"W6/bignum.sol\":1503:1516  return result */\n      swap2\n      pop\n      pop\n        /* \"W6/bignum.sol\":884:1524  function multiply(bigint memory a, bigint memory b) internal pure returns (bigint memory) {... */\n      swap3\n      swap2\n      pop\n      pop\n      jump\t// out\n    tag_9:\n      mload(0x40)\n      dup1\n      0x20\n      add\n      0x40\n      mstore\n      dup1\n      0x60\n      dup2\n      mstore\n      pop\n      swap1\n      jump\t// out\n        /* \"#utility.yul\":7:121   */\n    tag_89:\n        /* \"#utility.yul\":74:80   */\n      0x00\n        /* \"#utility.yul\":108:113   */\n      dup2\n        /* \"#utility.yul\":102:114   */\n      mload\n        /* \"#utility.yul\":92:114   */\n      swap1\n      pop\n        /* \"#utility.yul\":7:121   */\n      swap2\n      swap1\n      pop\n      jump\t// out\n        /* \"#utility.yul\":127:301   */\n    tag_90:\n        /* \"#utility.yul\":216:227   */\n      0x00\n        /* \"#utility.yul\":250:256   */\n      dup3\n        /* \"#utility.yul\":245:248   */\n      dup3\n        /* \"#utility.yul\":238:257   */\n      mstore\n        /* \"#utility.yul\":290:294   */\n      0x20\n        /* \"#utility.yul\":285:288   */\n      dup3\n        /* \"#utility.yul\":281:295   */\n      add\n        /* \"#utility.yul\":266:295   */\n      swap1\n      pop\n        /* \"#utility.yul\":127:301   */\n      swap3\n      swap2\n      pop\n      pop\n      jump\t// out\n        /* \"#utility.yul\":307:439   */\n    tag_91:\n        /* \"#utility.yul\":374:378   */\n      0x00\n        /* \"#utility.yul\":397:400   */\n      dup2\n        /* \"#utility.yul\":389:400   */\n      swap1\n      pop\n        /* \"#utility.yul\":427:431   */\n      0x20\n        /* \"#utility.yul\":422:425   */\n      dup3\n        /* \"#utility.yul\":418:432   */\n      add\n        /* \"#utility.yul\":410:432   */\n      swap1\n      pop\n        /* \"#utility.yul\":307:439   */\n      swap2\n      swap1\n      pop\n      jump\t// out\n        /* \"#utility.yul\":445:522   */\n    tag_92:\n        /* \"#utility.yul\":482:489   */\n      0x00\n        /* \"#utility.yul\":511:516   */\n      dup2\n        /* \"#utility.yul\":500:516   */\n      swap1\n      pop\n        /* \"#utility.yul\":445:522   */\n      swap2\n      swap1\n      pop\n      jump\t// out\n        /* \"#utility.yul\":528:636   */\n    tag_93:\n        /* \"#utility.yul\":605:629   */\n      tag_106\n        /* \"#utility.yul\":623:628   */\n      dup2\n        /* \"#utility.yul\":605:629   */\n      tag_92\n      jump\t// in\n    tag_106:\n        /* \"#utility.yul\":600:603   */\n      dup3\n        /* \"#utility.yul\":593:630   */\n      mstore\n        /* \"#utility.yul\":528:636   */\n      pop\n      pop\n      jump\t// out\n        /* \"#utility.yul\":642:821   */\n    tag_94:\n        /* \"#utility.yul\":711:721   */\n      0x00\n        /* \"#utility.yul\":732:778   */\n      tag_108\n        /* \"#utility.yul\":774:777   */\n      dup4\n        /* \"#utility.yul\":766:772   */\n      dup4\n        /* \"#utility.yul\":732:778   */\n      tag_93\n      jump\t// in\n    tag_108:\n        /* \"#utility.yul\":810:814   */\n      0x20\n        /* \"#utility.yul\":805:808   */\n      dup4\n        /* \"#utility.yul\":801:815   */\n      add\n        /* \"#utility.yul\":787:815   */\n      swap1\n      pop\n        /* \"#utility.yul\":642:821   */\n      swap3\n      swap2\n      pop\n      pop\n      jump\t// out\n        /* \"#utility.yul\":827:940   */\n    tag_95:\n        /* \"#utility.yul\":897:901   */\n      0x00\n        /* \"#utility.yul\":929:933   */\n      0x20\n        /* \"#utility.yul\":924:927   */\n      dup3\n        /* \"#utility.yul\":920:934   */\n      add\n        /* \"#utility.yul\":912:934   */\n      swap1\n      pop\n        /* \"#utility.yul\":827:940   */\n      swap2\n      swap1\n      pop\n      jump\t// out\n        /* \"#utility.yul\":976:1688   */\n    tag_96:\n        /* \"#utility.yul\":1085:1088   */\n      0x00\n        /* \"#utility.yul\":1114:1168   */\n      tag_111\n        /* \"#utility.yul\":1162:1167   */\n      dup3\n        /* \"#utility.yul\":1114:1168   */\n      tag_89\n      jump\t// in\n    tag_111:\n        /* \"#utility.yul\":1184:1260   */\n      tag_112\n        /* \"#utility.yul\":1253:1259   */\n      dup2\n        /* \"#utility.yul\":1248:1251   */\n      dup6\n        /* \"#utility.yul\":1184:1260   */\n      tag_90\n      jump\t// in\n    tag_112:\n        /* \"#utility.yul\":1177:1260   */\n      swap4\n      pop\n        /* \"#utility.yul\":1284:1340   */\n      tag_113\n        /* \"#utility.yul\":1334:1339   */\n      dup4\n        /* \"#utility.yul\":1284:1340   */\n      tag_91\n      jump\t// in\n    tag_113:\n        /* \"#utility.yul\":1363:1370   */\n      dup1\n        /* \"#utility.yul\":1394:1395   */\n      0x00\n        /* \"#utility.yul\":1379:1663   */\n    tag_114:\n        /* \"#utility.yul\":1404:1410   */\n      dup4\n        /* \"#utility.yul\":1401:1402   */\n      dup2\n        /* \"#utility.yul\":1398:1411   */\n      lt\n        /* \"#utility.yul\":1379:1663   */\n      iszero\n      tag_116\n      jumpi\n        /* \"#utility.yul\":1480:1486   */\n      dup2\n        /* \"#utility.yul\":1474:1487   */\n      mload\n        /* \"#utility.yul\":1507:1570   */\n      tag_117\n        /* \"#utility.yul\":1566:1569   */\n      dup9\n        /* \"#utility.yul\":1551:1564   */\n      dup3\n        /* \"#utility.yul\":1507:1570   */\n      tag_94\n      jump\t// in\n    tag_117:\n        /* \"#utility.yul\":1500:1570   */\n      swap8\n      pop\n        /* \"#utility.yul\":1593:1653   */\n      tag_118\n        /* \"#utility.yul\":1646:1652   */\n      dup4\n        /* \"#utility.yul\":1593:1653   */\n      tag_95\n      jump\t// in\n    tag_118:\n        /* \"#utility.yul\":1583:1653   */\n      swap3\n      pop\n        /* \"#utility.yul\":1439:1663   */\n      pop\n        /* \"#utility.yul\":1426:1427   */\n      0x01\n        /* \"#utility.yul\":1423:1424   */\n      dup2\n        /* \"#utility.yul\":1419:1428   */\n      add\n        /* \"#utility.yul\":1414:1428   */\n      swap1\n      pop\n        /* \"#utility.yul\":1379:1663   */\n      jump(tag_114)\n    tag_116:\n        /* \"#utility.yul\":1383:1397   */\n      pop\n        /* \"#utility.yul\":1679:1682   */\n      dup6\n        /* \"#utility.yul\":1672:1682   */\n      swap4\n      pop\n        /* \"#utility.yul\":1090:1688   */\n      pop\n      pop\n      pop\n        /* \"#utility.yul\":976:1688   */\n      swap3\n      swap2\n      pop\n      pop\n      jump\t// out\n        /* \"#utility.yul\":1746:2201   */\n    tag_97:\n        /* \"#utility.yul\":1857:1860   */\n      0x00\n        /* \"#utility.yul\":1893:1897   */\n      0x20\n        /* \"#utility.yul\":1888:1891   */\n      dup4\n        /* \"#utility.yul\":1884:1898   */\n      add\n        /* \"#utility.yul\":1981:1985   */\n      0x00\n        /* \"#utility.yul\":1974:1979   */\n      dup4\n        /* \"#utility.yul\":1970:1986   */\n      add\n        /* \"#utility.yul\":1964:1987   */\n      mload\n        /* \"#utility.yul\":2034:2037   */\n      dup5\n        /* \"#utility.yul\":2028:2032   */\n      dup3\n        /* \"#utility.yul\":2024:2038   */\n      sub\n        /* \"#utility.yul\":2017:2021   */\n      0x00\n        /* \"#utility.yul\":2012:2015   */\n      dup7\n        /* \"#utility.yul\":2008:2022   */\n      add\n        /* \"#utility.yul\":2001:2039   */\n      mstore\n        /* \"#utility.yul\":2060:2163   */\n      tag_120\n        /* \"#utility.yul\":2158:2162   */\n      dup3\n        /* \"#utility.yul\":2144:2156   */\n      dup3\n        /* \"#utility.yul\":2060:2163   */\n      tag_96\n      jump\t// in\n    tag_120:\n        /* \"#utility.yul\":2052:2163   */\n      swap2\n      pop\n        /* \"#utility.yul\":1908:2174   */\n      pop\n        /* \"#utility.yul\":2191:2195   */\n      dup1\n        /* \"#utility.yul\":2184:2195   */\n      swap2\n      pop\n        /* \"#utility.yul\":1862:2201   */\n      pop\n        /* \"#utility.yul\":1746:2201   */\n      swap3\n      swap2\n      pop\n      pop\n      jump\t// out\n        /* \"#utility.yul\":2207:2564   */\n    tag_7:\n        /* \"#utility.yul\":2342:2346   */\n      0x00\n        /* \"#utility.yul\":2380:2382   */\n      0x20\n        /* \"#utility.yul\":2369:2378   */\n      dup3\n        /* \"#utility.yul\":2365:2383   */\n      add\n        /* \"#utility.yul\":2357:2383   */\n      swap1\n      pop\n        /* \"#utility.yul\":2429:2438   */\n      dup2\n        /* \"#utility.yul\":2423:2427   */\n      dup2\n        /* \"#utility.yul\":2419:2439   */\n      sub\n        /* \"#utility.yul\":2415:2416   */\n      0x00\n        /* \"#utility.yul\":2404:2413   */\n      dup4\n        /* \"#utility.yul\":2400:2417   */\n      add\n        /* \"#utility.yul\":2393:2440   */\n      mstore\n        /* \"#utility.yul\":2457:2557   */\n      tag_122\n        /* \"#utility.yul\":2552:2556   */\n      dup2\n        /* \"#utility.yul\":2543:2549   */\n      dup5\n        /* \"#utility.yul\":2457:2557   */\n      tag_97\n      jump\t// in\n    tag_122:\n        /* \"#utility.yul\":2449:2557   */\n      swap1\n      pop\n        /* \"#utility.yul\":2207:2564   */\n      swap3\n      swap2\n      pop\n      pop\n      jump\t// out\n        /* \"#utility.yul\":2570:2750   */\n    tag_13:\n        /* \"#utility.yul\":2618:2695   */\n      0x4e487b7100000000000000000000000000000000000000000000000000000000\n        /* \"#utility.yul\":2615:2616   */\n      0x00\n        /* \"#utility.yul\":2608:2696   */\n      mstore\n        /* \"#utility.yul\":2715:2719   */\n      0x41\n        /* \"#utility.yul\":2712:2713   */\n      0x04\n        /* \"#utility.yul\":2705:2720   */\n      mstore\n        /* \"#utility.yul\":2739:2743   */\n      0x24\n        /* \"#utility.yul\":2736:2737   */\n      0x00\n        /* \"#utility.yul\":2729:2744   */\n      revert\n        /* \"#utility.yul\":2756:2936   */\n    tag_17:\n        /* \"#utility.yul\":2804:2881   */\n      0x4e487b7100000000000000000000000000000000000000000000000000000000\n        /* \"#utility.yul\":2801:2802   */\n      0x00\n        /* \"#utility.yul\":2794:2882   */\n      mstore\n        /* \"#utility.yul\":2901:2905   */\n      0x32\n        /* \"#utility.yul\":2898:2899   */\n      0x04\n        /* \"#utility.yul\":2891:2906   */\n      mstore\n        /* \"#utility.yul\":2925:2929   */\n      0x24\n        /* \"#utility.yul\":2922:2923   */\n      0x00\n        /* \"#utility.yul\":2915:2930   */\n      revert\n        /* \"#utility.yul\":2942:3122   */\n    tag_98:\n        /* \"#utility.yul\":2990:3067   */\n      0x4e487b7100000000000000000000000000000000000000000000000000000000\n        /* \"#utility.yul\":2987:2988   */\n      0x00\n        /* \"#utility.yul\":2980:3068   */\n      mstore\n        /* \"#utility.yul\":3087:3091   */\n      0x11\n        /* \"#utility.yul\":3084:3085   */\n      0x04\n        /* \"#utility.yul\":3077:3092   */\n      mstore\n        /* \"#utility.yul\":3111:3115   */\n      0x24\n        /* \"#utility.yul\":3108:3109   */\n      0x00\n        /* \"#utility.yul\":3101:3116   */\n      revert\n        /* \"#utility.yul\":3128:3319   */\n    tag_21:\n        /* \"#utility.yul\":3168:3171   */\n      0x00\n        /* \"#utility.yul\":3187:3207   */\n      tag_127\n        /* \"#utility.yul\":3205:3206   */\n      dup3\n        /* \"#utility.yul\":3187:3207   */\n      tag_92\n      jump\t// in\n    tag_127:\n        /* \"#utility.yul\":3182:3207   */\n      swap2\n      pop\n        /* \"#utility.yul\":3221:3241   */\n      tag_128\n        /* \"#utility.yul\":3239:3240   */\n      dup4\n        /* \"#utility.yul\":3221:3241   */\n      tag_92\n      jump\t// in\n    tag_128:\n        /* \"#utility.yul\":3216:3241   */\n      swap3\n      pop\n        /* \"#utility.yul\":3264:3265   */\n      dup3\n        /* \"#utility.yul\":3261:3262   */\n      dup3\n        /* \"#utility.yul\":3257:3266   */\n      add\n        /* \"#utility.yul\":3250:3266   */\n      swap1\n      pop\n        /* \"#utility.yul\":3285:3288   */\n      dup1\n        /* \"#utility.yul\":3282:3283   */\n      dup3\n        /* \"#utility.yul\":3279:3289   */\n      gt\n        /* \"#utility.yul\":3276:3312   */\n      iszero\n      tag_129\n      jumpi\n        /* \"#utility.yul\":3292:3310   */\n      tag_130\n      tag_98\n      jump\t// in\n    tag_130:\n        /* \"#utility.yul\":3276:3312   */\n    tag_129:\n        /* \"#utility.yul\":3128:3319   */\n      swap3\n      swap2\n      pop\n      pop\n      jump\t// out\n        /* \"#utility.yul\":3325:3519   */\n    tag_32:\n        /* \"#utility.yul\":3365:3369   */\n      0x00\n        /* \"#utility.yul\":3385:3405   */\n      tag_132\n        /* \"#utility.yul\":3403:3404   */\n      dup3\n        /* \"#utility.yul\":3385:3405   */\n      tag_92\n      jump\t// in\n    tag_132:\n        /* \"#utility.yul\":3380:3405   */\n      swap2\n      pop\n        /* \"#utility.yul\":3419:3439   */\n      tag_133\n        /* \"#utility.yul\":3437:3438   */\n      dup4\n        /* \"#utility.yul\":3419:3439   */\n      tag_92\n      jump\t// in\n    tag_133:\n        /* \"#utility.yul\":3414:3439   */\n      swap3\n      pop\n        /* \"#utility.yul\":3463:3464   */\n      dup3\n        /* \"#utility.yul\":3460:3461   */\n      dup3\n        /* \"#utility.yul\":3456:3465   */\n      sub\n        /* \"#utility.yul\":3448:3465   */\n      swap1\n      pop\n        /* \"#utility.yul\":3487:3488   */\n      dup2\n        /* \"#utility.yul\":3481:3485   */\n      dup2\n        /* \"#utility.yul\":3478:3489   */\n      gt\n        /* \"#utility.yul\":3475:3512   */\n      iszero\n      tag_134\n      jumpi\n        /* \"#utility.yul\":3492:3510   */\n      tag_135\n      tag_98\n      jump\t// in\n    tag_135:\n        /* \"#utility.yul\":3475:3512   */\n    tag_134:\n        /* \"#utility.yul\":3325:3519   */\n      swap3\n      swap2\n      pop\n      pop\n      jump\t// out\n        /* \"#utility.yul\":3525:3705   */\n    tag_99:\n        /* \"#utility.yul\":3573:3650   */\n      0x4e487b7100000000000000000000000000000000000000000000000000000000\n        /* \"#utility.yul\":3570:3571   */\n      0x00\n        /* \"#utility.yul\":3563:3651   */\n      mstore\n        /* \"#utility.yul\":3670:3674   */\n      0x12\n        /* \"#utility.yul\":3667:3668   */\n      0x04\n        /* \"#utility.yul\":3660:3675   */\n      mstore\n        /* \"#utility.yul\":3694:3698   */\n      0x24\n        /* \"#utility.yul\":3691:3692   */\n      0x00\n        /* \"#utility.yul\":3684:3699   */\n      revert\n        /* \"#utility.yul\":3711:3896   */\n    tag_34:\n        /* \"#utility.yul\":3751:3752   */\n      0x00\n        /* \"#utility.yul\":3768:3788   */\n      tag_138\n        /* \"#utility.yul\":3786:3787   */\n      dup3\n        /* \"#utility.yul\":3768:3788   */\n      tag_92\n      jump\t// in\n    tag_138:\n        /* \"#utility.yul\":3763:3788   */\n      swap2\n      pop\n        /* \"#utility.yul\":3802:3822   */\n      tag_139\n        /* \"#utility.yul\":3820:3821   */\n      dup4\n        /* \"#utility.yul\":3802:3822   */\n      tag_92\n      jump\t// in\n    tag_139:\n        /* \"#utility.yul\":3797:3822   */\n      swap3\n      pop\n        /* \"#utility.yul\":3841:3842   */\n      dup3\n        /* \"#utility.yul\":3831:3866   */\n      tag_140\n      jumpi\n        /* \"#utility.yul\":3846:3864   */\n      tag_141\n      tag_99\n      jump\t// in\n    tag_141:\n        /* \"#utility.yul\":3831:3866   */\n    tag_140:\n        /* \"#utility.yul\":3888:3889   */\n      dup3\n        /* \"#utility.yul\":3885:3886   */\n      dup3\n        /* \"#utility.yul\":3881:3890   */\n      div\n        /* \"#utility.yul\":3876:3890   */\n      swap1\n      pop\n        /* \"#utility.yul\":3711:3896   */\n      swap3\n      swap2\n      pop\n      pop\n      jump\t// out\n        /* \"#utility.yul\":3902:4078   */\n    tag_38:\n        /* \"#utility.yul\":3934:3935   */\n      0x00\n        /* \"#utility.yul\":3951:3971   */\n      tag_143\n        /* \"#utility.yul\":3969:3970   */\n      dup3\n        /* \"#utility.yul\":3951:3971   */\n      tag_92\n      jump\t// in\n    tag_143:\n        /* \"#utility.yul\":3946:3971   */\n      swap2\n      pop\n        /* \"#utility.yul\":3985:4005   */\n      tag_144\n        /* \"#utility.yul\":4003:4004   */\n      dup4\n        /* \"#utility.yul\":3985:4005   */\n      tag_92\n      jump\t// in\n    tag_144:\n        /* \"#utility.yul\":3980:4005   */\n      swap3\n      pop\n        /* \"#utility.yul\":4024:4025   */\n      dup3\n        /* \"#utility.yul\":4014:4049   */\n      tag_145\n      jumpi\n        /* \"#utility.yul\":4029:4047   */\n      tag_146\n      tag_99\n      jump\t// in\n    tag_146:\n        /* \"#utility.yul\":4014:4049   */\n    tag_145:\n        /* \"#utility.yul\":4070:4071   */\n      dup3\n        /* \"#utility.yul\":4067:4068   */\n      dup3\n        /* \"#utility.yul\":4063:4072   */\n      mod\n        /* \"#utility.yul\":4058:4072   */\n      swap1\n      pop\n        /* \"#utility.yul\":3902:4078   */\n      swap3\n      swap2\n      pop\n      pop\n      jump\t// out\n        /* \"#utility.yul\":4084:4317   */\n    tag_52:\n        /* \"#utility.yul\":4123:4126   */\n      0x00\n        /* \"#utility.yul\":4146:4170   */\n      tag_148\n        /* \"#utility.yul\":4164:4169   */\n      dup3\n        /* \"#utility.yul\":4146:4170   */\n      tag_92\n      jump\t// in\n    tag_148:\n        /* \"#utility.yul\":4137:4170   */\n      swap2\n      pop\n        /* \"#utility.yul\":4192:4258   */\n      0xffffffffffffffffffffffffffffffffffffffffffffffffffffffffffffffff\n        /* \"#utility.yul\":4185:4190   */\n      dup3\n        /* \"#utility.yul\":4182:4259   */\n      sub\n        /* \"#utility.yul\":4179:4282   */\n      tag_149\n      jumpi\n        /* \"#utility.yul\":4262:4280   */\n      tag_150\n      tag_98\n      jump\t// in\n    tag_150:\n        /* \"#utility.yul\":4179:4282   */\n    tag_149:\n        /* \"#utility.yul\":4309:4310   */\n      0x01\n        /* \"#utility.yul\":4302:4307   */\n      dup3\n        /* \"#utility.yul\":4298:4311   */\n      add\n        /* \"#utility.yul\":4291:4311   */\n      swap1\n      pop\n        /* \"#utility.yul\":4084:4317   */\n      swap2\n      swap1\n      pop\n      jump\t// out\n        /* \"#utility.yul\":4323:4733   */\n    tag_76:\n        /* \"#utility.yul\":4363:4370   */\n      0x00\n        /* \"#utility.yul\":4386:4406   */\n      tag_152\n        /* \"#utility.yul\":4404:4405   */\n      dup3\n        /* \"#utility.yul\":4386:4406   */\n      tag_92\n      jump\t// in\n    tag_152:\n        /* \"#utility.yul\":4381:4406   */\n      swap2\n      pop\n        /* \"#utility.yul\":4420:4440   */\n      tag_153\n        /* \"#utility.yul\":4438:4439   */\n      dup4\n        /* \"#utility.yul\":4420:4440   */\n      tag_92\n      jump\t// in\n    tag_153:\n        /* \"#utility.yul\":4415:4440   */\n      swap3\n      pop\n        /* \"#utility.yul\":4475:4476   */\n      dup3\n        /* \"#utility.yul\":4472:4473   */\n      dup3\n        /* \"#utility.yul\":4468:4477   */\n      mul\n        /* \"#utility.yul\":4497:4527   */\n      tag_154\n        /* \"#utility.yul\":4515:4526   */\n      dup2\n        /* \"#utility.yul\":4497:4527   */\n      tag_92\n      jump\t// in\n    tag_154:\n        /* \"#utility.yul\":4486:4527   */\n      swap2\n      pop\n        /* \"#utility.yul\":4676:4677   */\n      dup3\n        /* \"#utility.yul\":4667:4674   */\n      dup3\n        /* \"#utility.yul\":4663:4678   */\n      div\n        /* \"#utility.yul\":4660:4661   */\n      dup5\n        /* \"#utility.yul\":4657:4679   */\n      eq\n        /* \"#utility.yul\":4637:4638   */\n      dup4\n        /* \"#utility.yul\":4630:4639   */\n      iszero\n        /* \"#utility.yul\":4610:4693   */\n      or\n        /* \"#utility.yul\":4587:4726   */\n      tag_155\n      jumpi\n        /* \"#utility.yul\":4706:4724   */\n      tag_156\n      tag_98\n      jump\t// in\n    tag_156:\n        /* \"#utility.yul\":4587:4726   */\n    tag_155:\n        /* \"#utility.yul\":4371:4733   */\n      pop\n        /* \"#utility.yul\":4323:4733   */\n      swap3\n      swap2\n      pop\n      pop\n      jump\t// out\n\n    auxdata: 0xa26469706673582212208f8a6b8761b798ebd8ebade8f984336f18e1274e3b20b2ffa107d3b22f0a58f664736f6c63430008120033\n}\n",
				"bytecode": {
					"linkReferences": {},
					"object": "608060405234801561001057600080fd5b5061085b806100206000396000f3fe608060405234801561001057600080fd5b506004361061002b5760003560e01c8063ca77ab6514610030575b600080fd5b61003861004e565b60405161004591906105f3565b60405180910390f35b6100566104ee565b60006040518060200160405280600167ffffffffffffffff81111561007e5761007d610615565b5b6040519080825280602002602001820160405280156100ac5781602001602082028036833780820191505090505b5081525090507fdd15fe86affad91249ef0eb713f39ebeaa987b6e6fd2a000000000000000000081600001516000815181106100eb576100ea610644565b5b60200260200101818152505060006101066104d260806101a5565b600161011291906106a2565b9050600060405180602001604052808367ffffffffffffffff81111561013b5761013a610615565b5b6040519080825280602002602001820160405280156101695781602001602082028036833780820191505090505b5081525090506101846104d2826101d290919063ffffffff16565b600061019982856102fa90919063ffffffff16565b90508094505050505090565b600081600183856101b691906106a2565b6101c091906106d6565b6101ca9190610739565b905092915050565b60006080826101e19190610739565b905060006080836101f2919061076a565b905083600001515182106102c657600060018361020f91906106a2565b67ffffffffffffffff81111561022857610227610615565b5b6040519080825280602002602001820160405280156102565781602001602082028036833780820191505090505b50905060005b8560000151518110156102ba57856000015181815181106102805761027f610644565b5b602002602001015182828151811061029b5761029a610644565b5b60200260200101818152505080806102b29061079b565b91505061025c565b50808560000181905250505b806001901b846000015183815181106102e2576102e1610644565b5b60200260200101818151179150818152505050505050565b6103026104ee565b61030a6104ee565b82600001515184600001515161032091906106a2565b67ffffffffffffffff81111561033957610338610615565b5b6040519080825280602002602001820160405280156103675781602001602082028036833780820191505090505b50816000018190525060005b8460000151518110156104e3576000805b85600001515181101561049a576000846000015182856103a491906106a2565b815181106103b5576103b4610644565b5b602002602001015183886000015184815181106103d5576103d4610644565b5b60200260200101518a6000015187815181106103f4576103f3610644565b5b602002602001015161040691906107e3565b61041091906106a2565b61041a91906106a2565b905070010000000000000000000000000000000081610439919061076a565b8560000151838661044a91906106a2565b8151811061045b5761045a610644565b5b602002602001018181525050700100000000000000000000000000000000816104849190610739565b92505080806104929061079b565b915050610384565b50808360000151866000015151846104b291906106a2565b815181106104c3576104c2610644565b5b6020026020010181815250505080806104db9061079b565b915050610373565b508091505092915050565b6040518060200160405280606081525090565b600081519050919050565b600082825260208201905092915050565b6000819050602082019050919050565b6000819050919050565b6105408161052d565b82525050565b60006105528383610537565b60208301905092915050565b6000602082019050919050565b600061057682610501565b610580818561050c565b935061058b8361051d565b8060005b838110156105bc5781516105a38882610546565b97506105ae8361055e565b92505060018101905061058f565b5085935050505092915050565b600060208301600083015184820360008601526105e6828261056b565b9150508091505092915050565b6000602082019050818103600083015261060d81846105c9565b905092915050565b7f4e487b7100000000000000000000000000000000000000000000000000000000600052604160045260246000fd5b7f4e487b7100000000000000000000000000000000000000000000000000000000600052603260045260246000fd5b7f4e487b7100000000000000000000000000000000000000000000000000000000600052601160045260246000fd5b60006106ad8261052d565b91506106b88361052d565b92508282019050808211156106d0576106cf610673565b5b92915050565b60006106e18261052d565b91506106ec8361052d565b925082820390508181111561070457610703610673565b5b92915050565b7f4e487b7100000000000000000000000000000000000000000000000000000000600052601260045260246000fd5b60006107448261052d565b915061074f8361052d565b92508261075f5761075e61070a565b5b828204905092915050565b60006107758261052d565b91506107808361052d565b9250826107905761078f61070a565b5b828206905092915050565b60006107a68261052d565b91507fffffffffffffffffffffffffffffffffffffffffffffffffffffffffffffffff82036107d8576107d7610673565b5b600182019050919050565b60006107ee8261052d565b91506107f98361052d565b92508282026108078161052d565b9150828204841483151761081e5761081d610673565b5b509291505056fea26469706673582212208f8a6b8761b798ebd8ebade8f984336f18e1274e3b20b2ffa107d3b22f0a58f664736f6c63430008120033",
					"opcodes": "PUSH1 0x80 PUSH1 0x40 MSTORE CALLVALUE DUP1 ISZERO PUSH2 0x10 JUMPI PUSH1 0x0 DUP1 REVERT JUMPDEST POP PUSH2 0x85B DUP1 PUSH2 0x20 PUSH1 0x0 CODECOPY PUSH1 0x0 RETURN INVALID PUSH1 0x80 PUSH1 0x40 MSTORE CALLVALUE DUP1 ISZERO PUSH2 0x10 JUMPI PUSH1 0x0 DUP1 REVERT JUMPDEST POP PUSH1 0x4 CALLDATASIZE LT PUSH2 0x2B JUMPI PUSH1 0x0 CALLDATALOAD PUSH1 0xE0 SHR DUP1 PUSH4 0xCA77AB65 EQ PUSH2 0x30 JUMPI JUMPDEST PUSH1 0x0 DUP1 REVERT JUMPDEST PUSH2 0x38 PUSH2 0x4E JUMP JUMPDEST PUSH1 0x40 MLOAD PUSH2 0x45 SWAP2 SWAP1 PUSH2 0x5F3 JUMP JUMPDEST PUSH1 0x40 MLOAD DUP1 SWAP2 SUB SWAP1 RETURN JUMPDEST PUSH2 0x56 PUSH2 0x4EE JUMP JUMPDEST PUSH1 0x0 PUSH1 0x40 MLOAD DUP1 PUSH1 0x20 ADD PUSH1 0x40 MSTORE DUP1 PUSH1 0x1 PUSH8 0xFFFFFFFFFFFFFFFF DUP2 GT ISZERO PUSH2 0x7E JUMPI PUSH2 0x7D PUSH2 0x615 JUMP JUMPDEST JUMPDEST PUSH1 0x40 MLOAD SWAP1 DUP1 DUP3 MSTORE DUP1 PUSH1 0x20 MUL PUSH1 0x20 ADD DUP3 ADD PUSH1 0x40 MSTORE DUP1 ISZERO PUSH2 0xAC JUMPI DUP2 PUSH1 0x20 ADD PUSH1 0x20 DUP3 MUL DUP1 CALLDATASIZE DUP4 CALLDATACOPY DUP1 DUP3 ADD SWAP2 POP POP SWAP1 POP JUMPDEST POP DUP2 MSTORE POP SWAP1 POP PUSH32 0xDD15FE86AFFAD91249EF0EB713F39EBEAA987B6E6FD2A0000000000000000000 DUP2 PUSH1 0x0 ADD MLOAD PUSH1 0x0 DUP2 MLOAD DUP2 LT PUSH2 0xEB JUMPI PUSH2 0xEA PUSH2 0x644 JUMP JUMPDEST JUMPDEST PUSH1 0x20 MUL PUSH1 0x20 ADD ADD DUP2 DUP2 MSTORE POP POP PUSH1 0x0 PUSH2 0x106 PUSH2 0x4D2 PUSH1 0x80 PUSH2 0x1A5 JUMP JUMPDEST PUSH1 0x1 PUSH2 0x112 SWAP2 SWAP1 PUSH2 0x6A2 JUMP JUMPDEST SWAP1 POP PUSH1 0x0 PUSH1 0x40 MLOAD DUP1 PUSH1 0x20 ADD PUSH1 0x40 MSTORE DUP1 DUP4 PUSH8 0xFFFFFFFFFFFFFFFF DUP2 GT ISZERO PUSH2 0x13B JUMPI PUSH2 0x13A PUSH2 0x615 JUMP JUMPDEST JUMPDEST PUSH1 0x40 MLOAD SWAP1 DUP1 DUP3 MSTORE DUP1 PUSH1 0x20 MUL PUSH1 0x20 ADD DUP3 ADD PUSH1 0x40 MSTORE DUP1 ISZERO PUSH2 0x169 JUMPI DUP2 PUSH1 0x20 ADD PUSH1 0x20 DUP3 MUL DUP1 CALLDATASIZE DUP4 CALLDATACOPY DUP1 DUP3 ADD SWAP2 POP POP SWAP1 POP JUMPDEST POP DUP2 MSTORE POP SWAP1 POP PUSH2 0x184 PUSH2 0x4D2 DUP3 PUSH2 0x1D2 SWAP1 SWAP2 SWAP1 PUSH4 0xFFFFFFFF AND JUMP JUMPDEST PUSH1 0x0 PUSH2 0x199 DUP3 DUP6 PUSH2 0x2FA SWAP1 SWAP2 SWAP1 PUSH4 0xFFFFFFFF AND JUMP JUMPDEST SWAP1 POP DUP1 SWAP5 POP POP POP POP POP SWAP1 JUMP JUMPDEST PUSH1 0x0 DUP2 PUSH1 0x1 DUP4 DUP6 PUSH2 0x1B6 SWAP2 SWAP1 PUSH2 0x6A2 JUMP JUMPDEST PUSH2 0x1C0 SWAP2 SWAP1 PUSH2 0x6D6 JUMP JUMPDEST PUSH2 0x1CA SWAP2 SWAP1 PUSH2 0x739 JUMP JUMPDEST SWAP1 POP SWAP3 SWAP2 POP POP JUMP JUMPDEST PUSH1 0x0 PUSH1 0x80 DUP3 PUSH2 0x1E1 SWAP2 SWAP1 PUSH2 0x739 JUMP JUMPDEST SWAP1 POP PUSH1 0x0 PUSH1 0x80 DUP4 PUSH2 0x1F2 SWAP2 SWAP1 PUSH2 0x76A JUMP JUMPDEST SWAP1 POP DUP4 PUSH1 0x0 ADD MLOAD MLOAD DUP3 LT PUSH2 0x2C6 JUMPI PUSH1 0x0 PUSH1 0x1 DUP4 PUSH2 0x20F SWAP2 SWAP1 PUSH2 0x6A2 JUMP JUMPDEST PUSH8 0xFFFFFFFFFFFFFFFF DUP2 GT ISZERO PUSH2 0x228 JUMPI PUSH2 0x227 PUSH2 0x615 JUMP JUMPDEST JUMPDEST PUSH1 0x40 MLOAD SWAP1 DUP1 DUP3 MSTORE DUP1 PUSH1 0x20 MUL PUSH1 0x20 ADD DUP3 ADD PUSH1 0x40 MSTORE DUP1 ISZERO PUSH2 0x256 JUMPI DUP2 PUSH1 0x20 ADD PUSH1 0x20 DUP3 MUL DUP1 CALLDATASIZE DUP4 CALLDATACOPY DUP1 DUP3 ADD SWAP2 POP POP SWAP1 POP JUMPDEST POP SWAP1 POP PUSH1 0x0 JUMPDEST DUP6 PUSH1 0x0 ADD MLOAD MLOAD DUP2 LT ISZERO PUSH2 0x2BA JUMPI DUP6 PUSH1 0x0 ADD MLOAD DUP2 DUP2 MLOAD DUP2 LT PUSH2 0x280 JUMPI PUSH2 0x27F PUSH2 0x644 JUMP JUMPDEST JUMPDEST PUSH1 0x20 MUL PUSH1 0x20 ADD ADD MLOAD DUP3 DUP3 DUP2 MLOAD DUP2 LT PUSH2 0x29B JUMPI PUSH2 0x29A PUSH2 0x644 JUMP JUMPDEST JUMPDEST PUSH1 0x20 MUL PUSH1 0x20 ADD ADD DUP2 DUP2 MSTORE POP POP DUP1 DUP1 PUSH2 0x2B2 SWAP1 PUSH2 0x79B JUMP JUMPDEST SWAP2 POP POP PUSH2 0x25C JUMP JUMPDEST POP DUP1 DUP6 PUSH1 0x0 ADD DUP2 SWAP1 MSTORE POP POP JUMPDEST DUP1 PUSH1 0x1 SWAP1 SHL DUP5 PUSH1 0x0 ADD MLOAD DUP4 DUP2 MLOAD DUP2 LT PUSH2 0x2E2 JUMPI PUSH2 0x2E1 PUSH2 0x644 JUMP JUMPDEST JUMPDEST PUSH1 0x20 MUL PUSH1 0x20 ADD ADD DUP2 DUP2 MLOAD OR SWAP2 POP DUP2 DUP2 MSTORE POP POP POP POP POP POP JUMP JUMPDEST PUSH2 0x302 PUSH2 0x4EE JUMP JUMPDEST PUSH2 0x30A PUSH2 0x4EE JUMP JUMPDEST DUP3 PUSH1 0x0 ADD MLOAD MLOAD DUP5 PUSH1 0x0 ADD MLOAD MLOAD PUSH2 0x320 SWAP2 SWAP1 PUSH2 0x6A2 JUMP JUMPDEST PUSH8 0xFFFFFFFFFFFFFFFF DUP2 GT ISZERO PUSH2 0x339 JUMPI PUSH2 0x338 PUSH2 0x615 JUMP JUMPDEST JUMPDEST PUSH1 0x40 MLOAD SWAP1 DUP1 DUP3 MSTORE DUP1 PUSH1 0x20 MUL PUSH1 0x20 ADD DUP3 ADD PUSH1 0x40 MSTORE DUP1 ISZERO PUSH2 0x367 JUMPI DUP2 PUSH1 0x20 ADD PUSH1 0x20 DUP3 MUL DUP1 CALLDATASIZE DUP4 CALLDATACOPY DUP1 DUP3 ADD SWAP2 POP POP SWAP1 POP JUMPDEST POP DUP2 PUSH1 0x0 ADD DUP2 SWAP1 MSTORE POP PUSH1 0x0 JUMPDEST DUP5 PUSH1 0x0 ADD MLOAD MLOAD DUP2 LT ISZERO PUSH2 0x4E3 JUMPI PUSH1 0x0 DUP1 JUMPDEST DUP6 PUSH1 0x0 ADD MLOAD MLOAD DUP2 LT ISZERO PUSH2 0x49A JUMPI PUSH1 0x0 DUP5 PUSH1 0x0 ADD MLOAD DUP3 DUP6 PUSH2 0x3A4 SWAP2 SWAP1 PUSH2 0x6A2 JUMP JUMPDEST DUP2 MLOAD DUP2 LT PUSH2 0x3B5 JUMPI PUSH2 0x3B4 PUSH2 0x644 JUMP JUMPDEST JUMPDEST PUSH1 0x20 MUL PUSH1 0x20 ADD ADD MLOAD DUP4 DUP9 PUSH1 0x0 ADD MLOAD DUP5 DUP2 MLOAD DUP2 LT PUSH2 0x3D5 JUMPI PUSH2 0x3D4 PUSH2 0x644 JUMP JUMPDEST JUMPDEST PUSH1 0x20 MUL PUSH1 0x20 ADD ADD MLOAD DUP11 PUSH1 0x0 ADD MLOAD DUP8 DUP2 MLOAD DUP2 LT PUSH2 0x3F4 JUMPI PUSH2 0x3F3 PUSH2 0x644 JUMP JUMPDEST JUMPDEST PUSH1 0x20 MUL PUSH1 0x20 ADD ADD MLOAD PUSH2 0x406 SWAP2 SWAP1 PUSH2 0x7E3 JUMP JUMPDEST PUSH2 0x410 SWAP2 SWAP1 PUSH2 0x6A2 JUMP JUMPDEST PUSH2 0x41A SWAP2 SWAP1 PUSH2 0x6A2 JUMP JUMPDEST SWAP1 POP PUSH17 0x100000000000000000000000000000000 DUP2 PUSH2 0x439 SWAP2 SWAP1 PUSH2 0x76A JUMP JUMPDEST DUP6 PUSH1 0x0 ADD MLOAD DUP4 DUP7 PUSH2 0x44A SWAP2 SWAP1 PUSH2 0x6A2 JUMP JUMPDEST DUP2 MLOAD DUP2 LT PUSH2 0x45B JUMPI PUSH2 0x45A PUSH2 0x644 JUMP JUMPDEST JUMPDEST PUSH1 0x20 MUL PUSH1 0x20 ADD ADD DUP2 DUP2 MSTORE POP POP PUSH17 0x100000000000000000000000000000000 DUP2 PUSH2 0x484 SWAP2 SWAP1 PUSH2 0x739 JUMP JUMPDEST SWAP3 POP POP DUP1 DUP1 PUSH2 0x492 SWAP1 PUSH2 0x79B JUMP JUMPDEST SWAP2 POP POP PUSH2 0x384 JUMP JUMPDEST POP DUP1 DUP4 PUSH1 0x0 ADD MLOAD DUP7 PUSH1 0x0 ADD MLOAD MLOAD DUP5 PUSH2 0x4B2 SWAP2 SWAP1 PUSH2 0x6A2 JUMP JUMPDEST DUP2 MLOAD DUP2 LT PUSH2 0x4C3 JUMPI PUSH2 0x4C2 PUSH2 0x644 JUMP JUMPDEST JUMPDEST PUSH1 0x20 MUL PUSH1 0x20 ADD ADD DUP2 DUP2 MSTORE POP POP POP DUP1 DUP1 PUSH2 0x4DB SWAP1 PUSH2 0x79B JUMP JUMPDEST SWAP2 POP POP PUSH2 0x373 JUMP JUMPDEST POP DUP1 SWAP2 POP POP SWAP3 SWAP2 POP POP JUMP JUMPDEST PUSH1 0x40 MLOAD DUP1 PUSH1 0x20 ADD PUSH1 0x40 MSTORE DUP1 PUSH1 0x60 DUP2 MSTORE POP SWAP1 JUMP JUMPDEST PUSH1 0x0 DUP2 MLOAD SWAP1 POP SWAP2 SWAP1 POP JUMP JUMPDEST PUSH1 0x0 DUP3 DUP3 MSTORE PUSH1 0x20 DUP3 ADD SWAP1 POP SWAP3 SWAP2 POP POP JUMP JUMPDEST PUSH1 0x0 DUP2 SWAP1 POP PUSH1 0x20 DUP3 ADD SWAP1 POP SWAP2 SWAP1 POP JUMP JUMPDEST PUSH1 0x0 DUP2 SWAP1 POP SWAP2 SWAP1 POP JUMP JUMPDEST PUSH2 0x540 DUP2 PUSH2 0x52D JUMP JUMPDEST DUP3 MSTORE POP POP JUMP JUMPDEST PUSH1 0x0 PUSH2 0x552 DUP4 DUP4 PUSH2 0x537 JUMP JUMPDEST PUSH1 0x20 DUP4 ADD SWAP1 POP SWAP3 SWAP2 POP POP JUMP JUMPDEST PUSH1 0x0 PUSH1 0x20 DUP3 ADD SWAP1 POP SWAP2 SWAP1 POP JUMP JUMPDEST PUSH1 0x0 PUSH2 0x576 DUP3 PUSH2 0x501 JUMP JUMPDEST PUSH2 0x580 DUP2 DUP6 PUSH2 0x50C JUMP JUMPDEST SWAP4 POP PUSH2 0x58B DUP4 PUSH2 0x51D JUMP JUMPDEST DUP1 PUSH1 0x0 JUMPDEST DUP4 DUP2 LT ISZERO PUSH2 0x5BC JUMPI DUP2 MLOAD PUSH2 0x5A3 DUP9 DUP3 PUSH2 0x546 JUMP JUMPDEST SWAP8 POP PUSH2 0x5AE DUP4 PUSH2 0x55E JUMP JUMPDEST SWAP3 POP POP PUSH1 0x1 DUP2 ADD SWAP1 POP PUSH2 0x58F JUMP JUMPDEST POP DUP6 SWAP4 POP POP POP POP SWAP3 SWAP2 POP POP JUMP JUMPDEST PUSH1 0x0 PUSH1 0x20 DUP4 ADD PUSH1 0x0 DUP4 ADD MLOAD DUP5 DUP3 SUB PUSH1 0x0 DUP7 ADD MSTORE PUSH2 0x5E6 DUP3 DUP3 PUSH2 0x56B JUMP JUMPDEST SWAP2 POP POP DUP1 SWAP2 POP POP SWAP3 SWAP2 POP POP JUMP JUMPDEST PUSH1 0x0 PUSH1 0x20 DUP3 ADD SWAP1 POP DUP2 DUP2 SUB PUSH1 0x0 DUP4 ADD MSTORE PUSH2 0x60D DUP2 DUP5 PUSH2 0x5C9 JUMP JUMPDEST SWAP1 POP SWAP3 SWAP2 POP POP JUMP JUMPDEST PUSH32 0x4E487B7100000000000000000000000000000000000000000000000000000000 PUSH1 0x0 MSTORE PUSH1 0x41 PUSH1 0x4 MSTORE PUSH1 0x24 PUSH1 0x0 REVERT JUMPDEST PUSH32 0x4E487B7100000000000000000000000000000000000000000000000000000000 PUSH1 0x0 MSTORE PUSH1 0x32 PUSH1 0x4 MSTORE PUSH1 0x24 PUSH1 0x0 REVERT JUMPDEST PUSH32 0x4E487B7100000000000000000000000000000000000000000000000000000000 PUSH1 0x0 MSTORE PUSH1 0x11 PUSH1 0x4 MSTORE PUSH1 0x24 PUSH1 0x0 REVERT JUMPDEST PUSH1 0x0 PUSH2 0x6AD DUP3 PUSH2 0x52D JUMP JUMPDEST SWAP2 POP PUSH2 0x6B8 DUP4 PUSH2 0x52D JUMP JUMPDEST SWAP3 POP DUP3 DUP3 ADD SWAP1 POP DUP1 DUP3 GT ISZERO PUSH2 0x6D0 JUMPI PUSH2 0x6CF PUSH2 0x673 JUMP JUMPDEST JUMPDEST SWAP3 SWAP2 POP POP JUMP JUMPDEST PUSH1 0x0 PUSH2 0x6E1 DUP3 PUSH2 0x52D JUMP JUMPDEST SWAP2 POP PUSH2 0x6EC DUP4 PUSH2 0x52D JUMP JUMPDEST SWAP3 POP DUP3 DUP3 SUB SWAP1 POP DUP2 DUP2 GT ISZERO PUSH2 0x704 JUMPI PUSH2 0x703 PUSH2 0x673 JUMP JUMPDEST JUMPDEST SWAP3 SWAP2 POP POP JUMP JUMPDEST PUSH32 0x4E487B7100000000000000000000000000000000000000000000000000000000 PUSH1 0x0 MSTORE PUSH1 0x12 PUSH1 0x4 MSTORE PUSH1 0x24 PUSH1 0x0 REVERT JUMPDEST PUSH1 0x0 PUSH2 0x744 DUP3 PUSH2 0x52D JUMP JUMPDEST SWAP2 POP PUSH2 0x74F DUP4 PUSH2 0x52D JUMP JUMPDEST SWAP3 POP DUP3 PUSH2 0x75F JUMPI PUSH2 0x75E PUSH2 0x70A JUMP JUMPDEST JUMPDEST DUP3 DUP3 DIV SWAP1 POP SWAP3 SWAP2 POP POP JUMP JUMPDEST PUSH1 0x0 PUSH2 0x775 DUP3 PUSH2 0x52D JUMP JUMPDEST SWAP2 POP PUSH2 0x780 DUP4 PUSH2 0x52D JUMP JUMPDEST SWAP3 POP DUP3 PUSH2 0x790 JUMPI PUSH2 0x78F PUSH2 0x70A JUMP JUMPDEST JUMPDEST DUP3 DUP3 MOD SWAP1 POP SWAP3 SWAP2 POP POP JUMP JUMPDEST PUSH1 0x0 PUSH2 0x7A6 DUP3 PUSH2 0x52D JUMP JUMPDEST SWAP2 POP PUSH32 0xFFFFFFFFFFFFFFFFFFFFFFFFFFFFFFFFFFFFFFFFFFFFFFFFFFFFFFFFFFFFFFFF DUP3 SUB PUSH2 0x7D8 JUMPI PUSH2 0x7D7 PUSH2 0x673 JUMP JUMPDEST JUMPDEST PUSH1 0x1 DUP3 ADD SWAP1 POP SWAP2 SWAP1 POP JUMP JUMPDEST PUSH1 0x0 PUSH2 0x7EE DUP3 PUSH2 0x52D JUMP JUMPDEST SWAP2 POP PUSH2 0x7F9 DUP4 PUSH2 0x52D JUMP JUMPDEST SWAP3 POP DUP3 DUP3 MUL PUSH2 0x807 DUP2 PUSH2 0x52D JUMP JUMPDEST SWAP2 POP DUP3 DUP3 DIV DUP5 EQ DUP4 ISZERO OR PUSH2 0x81E JUMPI PUSH2 0x81D PUSH2 0x673 JUMP JUMPDEST JUMPDEST POP SWAP3 SWAP2 POP POP JUMP INVALID LOG2 PUSH5 0x6970667358 0x22 SLT KECCAK256 DUP16 DUP11 PUSH12 0x8761B798EBD8EBADE8F98433 PUSH16 0x18E1274E3B20B2FFA107D3B22F0A58F6 PUSH5 0x736F6C6343 STOP ADDMOD SLT STOP CALLER "
				},
				"gasEstimates": {
					"creation": {
						"codeDepositCost": "427800",
						"executionCost": "461",
						"totalCost": "428261"
					},
					"external": {
						"calculate()": "infinite"
					},
					"internal": {
						"ceilDiv(uint256,uint256)": "infinite"
					}
				},
				"methodIdentifiers": {
					"calculate()": "ca77ab65"
				}
			},
			"storageLayout": {
				"storage": [],
				"types": null
			},
			"userdoc": {
				"kind": "user",
				"methods": {},
				"version": 1
			}
		}
	}
}