{
	"W6/bignum.sol": {
		"BigIntCalculator": {
			"abi": [
				{
					"inputs": [
						{
							"components": [
								{
									"internalType": "uint256[]",
									"name": "limbs",
									"type": "uint256[]"
								}
							],
							"internalType": "struct BigInt.bigint",
							"name": "a",
							"type": "tuple"
						},
						{
							"components": [
								{
									"internalType": "uint256[]",
									"name": "limbs",
									"type": "uint256[]"
								}
							],
							"internalType": "struct BigInt.bigint",
							"name": "b",
							"type": "tuple"
						}
					],
					"name": "add",
					"outputs": [
						{
							"components": [
								{
									"internalType": "uint256[]",
									"name": "limbs",
									"type": "uint256[]"
								}
							],
							"internalType": "struct BigInt.bigint",
							"name": "",
							"type": "tuple"
						}
					],
					"stateMutability": "pure",
					"type": "function"
				},
				{
					"inputs": [
						{
							"components": [
								{
									"internalType": "uint256[]",
									"name": "limbs",
									"type": "uint256[]"
								}
							],
							"internalType": "struct BigInt.bigint",
							"name": "a",
							"type": "tuple"
						},
						{
							"components": [
								{
									"internalType": "uint256[]",
									"name": "limbs",
									"type": "uint256[]"
								}
							],
							"internalType": "struct BigInt.bigint",
							"name": "b",
							"type": "tuple"
						}
					],
					"name": "multiply",
					"outputs": [
						{
							"components": [
								{
									"internalType": "uint256[]",
									"name": "limbs",
									"type": "uint256[]"
								}
							],
							"internalType": "struct BigInt.bigint",
							"name": "",
							"type": "tuple"
						}
					],
					"stateMutability": "pure",
					"type": "function"
				}
			],
			"devdoc": {
				"kind": "dev",
				"methods": {},
				"version": 1
			},
			"evm": {
				"assembly": "    /* \"W6/bignum.sol\":5142:5523  contract BigIntCalculator {... */\n  mstore(0x40, 0x80)\n  callvalue\n  dup1\n  iszero\n  tag_1\n  jumpi\n  0x00\n  dup1\n  revert\ntag_1:\n  pop\n  dataSize(sub_0)\n  dup1\n  dataOffset(sub_0)\n  0x00\n  codecopy\n  0x00\n  return\nstop\n\nsub_0: assembly {\n        /* \"W6/bignum.sol\":5142:5523  contract BigIntCalculator {... */\n      mstore(0x40, 0x80)\n      callvalue\n      dup1\n      iszero\n      tag_1\n      jumpi\n      0x00\n      dup1\n      revert\n    tag_1:\n      pop\n      jumpi(tag_2, lt(calldatasize, 0x04))\n      shr(0xe0, calldataload(0x00))\n      dup1\n      0x22e6c9f2\n      eq\n      tag_3\n      jumpi\n      dup1\n      0x7303f9a5\n      eq\n      tag_4\n      jumpi\n    tag_2:\n      0x00\n      dup1\n      revert\n        /* \"W6/bignum.sol\":5366:5520  function multiply(BigInt.bigint calldata a, BigInt.bigint calldata b) external pure returns (BigInt.bigint memory) {... */\n    tag_3:\n      tag_5\n      0x04\n      dup1\n      calldatasize\n      sub\n      dup2\n      add\n      swap1\n      tag_6\n      swap2\n      swap1\n      tag_7\n      jump\t// in\n    tag_6:\n      tag_8\n      jump\t// in\n    tag_5:\n      mload(0x40)\n      tag_9\n      swap2\n      swap1\n      tag_10\n      jump\t// in\n    tag_9:\n      mload(0x40)\n      dup1\n      swap2\n      sub\n      swap1\n      return\n        /* \"W6/bignum.sol\":5214:5358  function add(BigInt.bigint calldata a, BigInt.bigint calldata b) external pure returns (BigInt.bigint memory) {... */\n    tag_4:\n      tag_11\n      0x04\n      dup1\n      calldatasize\n      sub\n      dup2\n      add\n      swap1\n      tag_12\n      swap2\n      swap1\n      tag_7\n      jump\t// in\n    tag_12:\n      tag_13\n      jump\t// in\n    tag_11:\n      mload(0x40)\n      tag_14\n      swap2\n      swap1\n      tag_10\n      jump\t// in\n    tag_14:\n      mload(0x40)\n      dup1\n      swap2\n      sub\n      swap1\n      return\n        /* \"W6/bignum.sol\":5366:5520  function multiply(BigInt.bigint calldata a, BigInt.bigint calldata b) external pure returns (BigInt.bigint memory) {... */\n    tag_8:\n        /* \"W6/bignum.sol\":5459:5479  BigInt.bigint memory */\n      tag_15\n      tag_16\n      jump\t// in\n    tag_15:\n        /* \"W6/bignum.sol\":5499:5512  a.multiply(b) */\n      tag_18\n        /* \"W6/bignum.sol\":5510:5511  b */\n      dup3\n        /* \"W6/bignum.sol\":5499:5512  a.multiply(b) */\n      tag_19\n      swap1\n      tag_20\n      jump\t// in\n    tag_19:\n        /* \"W6/bignum.sol\":5499:5500  a */\n      dup5\n        /* \"W6/bignum.sol\":5499:5509  a.multiply */\n      tag_21\n      swap1\n      tag_20\n      jump\t// in\n    tag_21:\n      tag_22\n      swap1\n        /* \"W6/bignum.sol\":5499:5512  a.multiply(b) */\n      swap2\n      swap1\n      0xffffffff\n      and\n      jump\t// in\n    tag_18:\n        /* \"W6/bignum.sol\":5492:5512  return a.multiply(b) */\n      swap1\n      pop\n        /* \"W6/bignum.sol\":5366:5520  function multiply(BigInt.bigint calldata a, BigInt.bigint calldata b) external pure returns (BigInt.bigint memory) {... */\n      swap3\n      swap2\n      pop\n      pop\n      jump\t// out\n        /* \"W6/bignum.sol\":5214:5358  function add(BigInt.bigint calldata a, BigInt.bigint calldata b) external pure returns (BigInt.bigint memory) {... */\n    tag_13:\n        /* \"W6/bignum.sol\":5302:5322  BigInt.bigint memory */\n      tag_23\n      tag_16\n      jump\t// in\n    tag_23:\n        /* \"W6/bignum.sol\":5342:5350  a.add(b) */\n      tag_25\n        /* \"W6/bignum.sol\":5348:5349  b */\n      dup3\n        /* \"W6/bignum.sol\":5342:5350  a.add(b) */\n      tag_26\n      swap1\n      tag_20\n      jump\t// in\n    tag_26:\n        /* \"W6/bignum.sol\":5342:5343  a */\n      dup5\n        /* \"W6/bignum.sol\":5342:5347  a.add */\n      tag_27\n      swap1\n      tag_20\n      jump\t// in\n    tag_27:\n      tag_28\n      swap1\n        /* \"W6/bignum.sol\":5342:5350  a.add(b) */\n      swap2\n      swap1\n      0xffffffff\n      and\n      jump\t// in\n    tag_25:\n        /* \"W6/bignum.sol\":5335:5350  return a.add(b) */\n      swap1\n      pop\n        /* \"W6/bignum.sol\":5214:5358  function add(BigInt.bigint calldata a, BigInt.bigint calldata b) external pure returns (BigInt.bigint memory) {... */\n      swap3\n      swap2\n      pop\n      pop\n      jump\t// out\n        /* \"W6/bignum.sol\":884:1524  function multiply(bigint memory a, bigint memory b) internal pure returns (bigint memory) {... */\n    tag_22:\n        /* \"W6/bignum.sol\":959:972  bigint memory */\n      tag_29\n      tag_16\n      jump\t// in\n    tag_29:\n        /* \"W6/bignum.sol\":985:1005  bigint memory result */\n      tag_31\n      tag_16\n      jump\t// in\n    tag_31:\n        /* \"W6/bignum.sol\":1062:1063  b */\n      dup3\n        /* \"W6/bignum.sol\":1062:1069  b.limbs */\n      0x00\n      add\n      mload\n        /* \"W6/bignum.sol\":1062:1076  b.limbs.length */\n      mload\n        /* \"W6/bignum.sol\":1045:1046  a */\n      dup5\n        /* \"W6/bignum.sol\":1045:1052  a.limbs */\n      0x00\n      add\n      mload\n        /* \"W6/bignum.sol\":1045:1059  a.limbs.length */\n      mload\n        /* \"W6/bignum.sol\":1045:1076  a.limbs.length + b.limbs.length */\n      tag_32\n      swap2\n      swap1\n      tag_33\n      jump\t// in\n    tag_32:\n        /* \"W6/bignum.sol\":1031:1077  new uint256[](a.limbs.length + b.limbs.length) */\n      0xffffffffffffffff\n      dup2\n      gt\n      iszero\n      tag_34\n      jumpi\n      tag_35\n      tag_36\n      jump\t// in\n    tag_35:\n    tag_34:\n      mload(0x40)\n      swap1\n      dup1\n      dup3\n      mstore\n      dup1\n      0x20\n      mul\n      0x20\n      add\n      dup3\n      add\n      0x40\n      mstore\n      dup1\n      iszero\n      tag_37\n      jumpi\n      dup2\n      0x20\n      add\n      0x20\n      dup3\n      mul\n      dup1\n      calldatasize\n      dup4\n      calldatacopy\n      dup1\n      dup3\n      add\n      swap2\n      pop\n      pop\n      swap1\n      pop\n    tag_37:\n      pop\n        /* \"W6/bignum.sol\":1016:1022  result */\n      dup2\n        /* \"W6/bignum.sol\":1016:1028  result.limbs */\n      0x00\n      add\n        /* \"W6/bignum.sol\":1016:1077  result.limbs = new uint256[](a.limbs.length + b.limbs.length) */\n      dup2\n      swap1\n      mstore\n      pop\n        /* \"W6/bignum.sol\":1095:1104  uint256 i */\n      0x00\n        /* \"W6/bignum.sol\":1090:1491  for (uint256 i = 0; i < a.limbs.length; i++) {... */\n    tag_38:\n        /* \"W6/bignum.sol\":1114:1115  a */\n      dup5\n        /* \"W6/bignum.sol\":1114:1121  a.limbs */\n      0x00\n      add\n      mload\n        /* \"W6/bignum.sol\":1114:1128  a.limbs.length */\n      mload\n        /* \"W6/bignum.sol\":1110:1111  i */\n      dup2\n        /* \"W6/bignum.sol\":1110:1128  i < a.limbs.length */\n      lt\n        /* \"W6/bignum.sol\":1090:1491  for (uint256 i = 0; i < a.limbs.length; i++) {... */\n      iszero\n      tag_39\n      jumpi\n        /* \"W6/bignum.sol\":1150:1163  uint256 carry */\n      0x00\n        /* \"W6/bignum.sol\":1187:1196  uint256 j */\n      dup1\n        /* \"W6/bignum.sol\":1182:1425  for (uint256 j = 0; j < b.limbs.length; j++) {... */\n    tag_41:\n        /* \"W6/bignum.sol\":1206:1207  b */\n      dup6\n        /* \"W6/bignum.sol\":1206:1213  b.limbs */\n      0x00\n      add\n      mload\n        /* \"W6/bignum.sol\":1206:1220  b.limbs.length */\n      mload\n        /* \"W6/bignum.sol\":1202:1203  j */\n      dup2\n        /* \"W6/bignum.sol\":1202:1220  j < b.limbs.length */\n      lt\n        /* \"W6/bignum.sol\":1182:1425  for (uint256 j = 0; j < b.limbs.length; j++) {... */\n      iszero\n      tag_42\n      jumpi\n        /* \"W6/bignum.sol\":1246:1257  uint256 mul */\n      0x00\n        /* \"W6/bignum.sol\":1294:1300  result */\n      dup5\n        /* \"W6/bignum.sol\":1294:1306  result.limbs */\n      0x00\n      add\n      mload\n        /* \"W6/bignum.sol\":1311:1312  j */\n      dup3\n        /* \"W6/bignum.sol\":1307:1308  i */\n      dup6\n        /* \"W6/bignum.sol\":1307:1312  i + j */\n      tag_44\n      swap2\n      swap1\n      tag_33\n      jump\t// in\n    tag_44:\n        /* \"W6/bignum.sol\":1294:1313  result.limbs[i + j] */\n      dup2\n      mload\n      dup2\n      lt\n      tag_45\n      jumpi\n      tag_46\n      tag_47\n      jump\t// in\n    tag_46:\n    tag_45:\n      0x20\n      mul\n      0x20\n      add\n      add\n      mload\n        /* \"W6/bignum.sol\":1286:1291  carry */\n      dup4\n        /* \"W6/bignum.sol\":1273:1274  b */\n      dup9\n        /* \"W6/bignum.sol\":1273:1280  b.limbs */\n      0x00\n      add\n      mload\n        /* \"W6/bignum.sol\":1281:1282  j */\n      dup5\n        /* \"W6/bignum.sol\":1273:1283  b.limbs[j] */\n      dup2\n      mload\n      dup2\n      lt\n      tag_48\n      jumpi\n      tag_49\n      tag_47\n      jump\t// in\n    tag_49:\n    tag_48:\n      0x20\n      mul\n      0x20\n      add\n      add\n      mload\n        /* \"W6/bignum.sol\":1260:1261  a */\n      dup11\n        /* \"W6/bignum.sol\":1260:1267  a.limbs */\n      0x00\n      add\n      mload\n        /* \"W6/bignum.sol\":1268:1269  i */\n      dup8\n        /* \"W6/bignum.sol\":1260:1270  a.limbs[i] */\n      dup2\n      mload\n      dup2\n      lt\n      tag_50\n      jumpi\n      tag_51\n      tag_47\n      jump\t// in\n    tag_51:\n    tag_50:\n      0x20\n      mul\n      0x20\n      add\n      add\n      mload\n        /* \"W6/bignum.sol\":1260:1283  a.limbs[i] * b.limbs[j] */\n      tag_52\n      swap2\n      swap1\n      tag_53\n      jump\t// in\n    tag_52:\n        /* \"W6/bignum.sol\":1260:1291  a.limbs[i] * b.limbs[j] + carry */\n      tag_54\n      swap2\n      swap1\n      tag_33\n      jump\t// in\n    tag_54:\n        /* \"W6/bignum.sol\":1260:1313  a.limbs[i] * b.limbs[j] + carry + result.limbs[i + j] */\n      tag_55\n      swap2\n      swap1\n      tag_33\n      jump\t// in\n    tag_55:\n        /* \"W6/bignum.sol\":1246:1313  uint256 mul = a.limbs[i] * b.limbs[j] + carry + result.limbs[i + j] */\n      swap1\n      pop\n        /* \"W6/bignum.sol\":1361:1367  2**128 */\n      0x0100000000000000000000000000000000\n        /* \"W6/bignum.sol\":1354:1357  mul */\n      dup2\n        /* \"W6/bignum.sol\":1354:1368  mul % (2**128) */\n      tag_56\n      swap2\n      swap1\n      tag_57\n      jump\t// in\n    tag_56:\n        /* \"W6/bignum.sol\":1332:1338  result */\n      dup6\n        /* \"W6/bignum.sol\":1332:1344  result.limbs */\n      0x00\n      add\n      mload\n        /* \"W6/bignum.sol\":1349:1350  j */\n      dup4\n        /* \"W6/bignum.sol\":1345:1346  i */\n      dup7\n        /* \"W6/bignum.sol\":1345:1350  i + j */\n      tag_58\n      swap2\n      swap1\n      tag_33\n      jump\t// in\n    tag_58:\n        /* \"W6/bignum.sol\":1332:1351  result.limbs[i + j] */\n      dup2\n      mload\n      dup2\n      lt\n      tag_59\n      jumpi\n      tag_60\n      tag_47\n      jump\t// in\n    tag_60:\n    tag_59:\n      0x20\n      mul\n      0x20\n      add\n      add\n        /* \"W6/bignum.sol\":1332:1368  result.limbs[i + j] = mul % (2**128) */\n      dup2\n      dup2\n      mstore\n      pop\n      pop\n        /* \"W6/bignum.sol\":1402:1408  2**128 */\n      0x0100000000000000000000000000000000\n        /* \"W6/bignum.sol\":1395:1398  mul */\n      dup2\n        /* \"W6/bignum.sol\":1395:1409  mul / (2**128) */\n      tag_61\n      swap2\n      swap1\n      tag_62\n      jump\t// in\n    tag_61:\n        /* \"W6/bignum.sol\":1387:1409  carry = mul / (2**128) */\n      swap3\n      pop\n        /* \"W6/bignum.sol\":1227:1425  {... */\n      pop\n        /* \"W6/bignum.sol\":1222:1225  j++ */\n      dup1\n      dup1\n      tag_63\n      swap1\n      tag_64\n      jump\t// in\n    tag_63:\n      swap2\n      pop\n      pop\n        /* \"W6/bignum.sol\":1182:1425  for (uint256 j = 0; j < b.limbs.length; j++) {... */\n      jump(tag_41)\n    tag_42:\n      pop\n        /* \"W6/bignum.sol\":1474:1479  carry */\n      dup1\n        /* \"W6/bignum.sol\":1439:1445  result */\n      dup4\n        /* \"W6/bignum.sol\":1439:1451  result.limbs */\n      0x00\n      add\n      mload\n        /* \"W6/bignum.sol\":1456:1457  b */\n      dup7\n        /* \"W6/bignum.sol\":1456:1463  b.limbs */\n      0x00\n      add\n      mload\n        /* \"W6/bignum.sol\":1456:1470  b.limbs.length */\n      mload\n        /* \"W6/bignum.sol\":1452:1453  i */\n      dup5\n        /* \"W6/bignum.sol\":1452:1470  i + b.limbs.length */\n      tag_65\n      swap2\n      swap1\n      tag_33\n      jump\t// in\n    tag_65:\n        /* \"W6/bignum.sol\":1439:1471  result.limbs[i + b.limbs.length] */\n      dup2\n      mload\n      dup2\n      lt\n      tag_66\n      jumpi\n      tag_67\n      tag_47\n      jump\t// in\n    tag_67:\n    tag_66:\n      0x20\n      mul\n      0x20\n      add\n      add\n        /* \"W6/bignum.sol\":1439:1479  result.limbs[i + b.limbs.length] = carry */\n      dup2\n      dup2\n      mstore\n      pop\n      pop\n        /* \"W6/bignum.sol\":1135:1491  {... */\n      pop\n        /* \"W6/bignum.sol\":1130:1133  i++ */\n      dup1\n      dup1\n      tag_68\n      swap1\n      tag_64\n      jump\t// in\n    tag_68:\n      swap2\n      pop\n      pop\n        /* \"W6/bignum.sol\":1090:1491  for (uint256 i = 0; i < a.limbs.length; i++) {... */\n      jump(tag_38)\n    tag_39:\n      pop\n        /* \"W6/bignum.sol\":1510:1516  result */\n      dup1\n        /* \"W6/bignum.sol\":1503:1516  return result */\n      swap2\n      pop\n      pop\n        /* \"W6/bignum.sol\":884:1524  function multiply(bigint memory a, bigint memory b) internal pure returns (bigint memory) {... */\n      swap3\n      swap2\n      pop\n      pop\n      jump\t// out\n        /* \"W6/bignum.sol\":138:876  function add(bigint memory a, bigint memory b) internal pure returns (bigint memory) {... */\n    tag_28:\n        /* \"W6/bignum.sol\":208:221  bigint memory */\n      tag_69\n      tag_16\n      jump\t// in\n    tag_69:\n        /* \"W6/bignum.sol\":234:248  uint256 length */\n      0x00\n        /* \"W6/bignum.sol\":251:286  max(a.limbs.length, b.limbs.length) */\n      tag_71\n        /* \"W6/bignum.sol\":255:256  a */\n      dup5\n        /* \"W6/bignum.sol\":255:262  a.limbs */\n      0x00\n      add\n      mload\n        /* \"W6/bignum.sol\":255:269  a.limbs.length */\n      mload\n        /* \"W6/bignum.sol\":271:272  b */\n      dup5\n        /* \"W6/bignum.sol\":271:278  b.limbs */\n      0x00\n      add\n      mload\n        /* \"W6/bignum.sol\":271:285  b.limbs.length */\n      mload\n        /* \"W6/bignum.sol\":251:254  max */\n      tag_72\n        /* \"W6/bignum.sol\":251:286  max(a.limbs.length, b.limbs.length) */\n      jump\t// in\n    tag_71:\n        /* \"W6/bignum.sol\":234:286  uint256 length = max(a.limbs.length, b.limbs.length) */\n      swap1\n      pop\n        /* \"W6/bignum.sol\":299:319  bigint memory result */\n      tag_73\n      tag_16\n      jump\t// in\n    tag_73:\n        /* \"W6/bignum.sol\":368:369  1 */\n      0x01\n        /* \"W6/bignum.sol\":359:365  length */\n      dup3\n        /* \"W6/bignum.sol\":359:369  length + 1 */\n      tag_74\n      swap2\n      swap1\n      tag_33\n      jump\t// in\n    tag_74:\n        /* \"W6/bignum.sol\":345:370  new uint256[](length + 1) */\n      0xffffffffffffffff\n      dup2\n      gt\n      iszero\n      tag_75\n      jumpi\n      tag_76\n      tag_36\n      jump\t// in\n    tag_76:\n    tag_75:\n      mload(0x40)\n      swap1\n      dup1\n      dup3\n      mstore\n      dup1\n      0x20\n      mul\n      0x20\n      add\n      dup3\n      add\n      0x40\n      mstore\n      dup1\n      iszero\n      tag_77\n      jumpi\n      dup2\n      0x20\n      add\n      0x20\n      dup3\n      mul\n      dup1\n      calldatasize\n      dup4\n      calldatacopy\n      dup1\n      dup3\n      add\n      swap2\n      pop\n      pop\n      swap1\n      pop\n    tag_77:\n      pop\n        /* \"W6/bignum.sol\":330:336  result */\n      dup2\n        /* \"W6/bignum.sol\":330:342  result.limbs */\n      0x00\n      add\n        /* \"W6/bignum.sol\":330:370  result.limbs = new uint256[](length + 1) */\n      dup2\n      swap1\n      mstore\n      pop\n        /* \"W6/bignum.sol\":383:396  uint256 carry */\n      0x00\n        /* \"W6/bignum.sol\":416:425  uint256 i */\n      dup1\n        /* \"W6/bignum.sol\":411:760  for (uint256 i = 0; i < length; i++) {... */\n    tag_78:\n        /* \"W6/bignum.sol\":435:441  length */\n      dup4\n        /* \"W6/bignum.sol\":431:432  i */\n      dup2\n        /* \"W6/bignum.sol\":431:441  i < length */\n      lt\n        /* \"W6/bignum.sol\":411:760  for (uint256 i = 0; i < length; i++) {... */\n      iszero\n      tag_79\n      jumpi\n        /* \"W6/bignum.sol\":463:474  uint256 sum */\n      0x00\n        /* \"W6/bignum.sol\":477:482  carry */\n      dup3\n        /* \"W6/bignum.sol\":463:482  uint256 sum = carry */\n      swap1\n      pop\n        /* \"W6/bignum.sol\":505:506  a */\n      dup8\n        /* \"W6/bignum.sol\":505:512  a.limbs */\n      0x00\n      add\n      mload\n        /* \"W6/bignum.sol\":505:519  a.limbs.length */\n      mload\n        /* \"W6/bignum.sol\":501:502  i */\n      dup3\n        /* \"W6/bignum.sol\":501:519  i < a.limbs.length */\n      lt\n        /* \"W6/bignum.sol\":497:573  if (i < a.limbs.length) {... */\n      iszero\n      tag_81\n      jumpi\n        /* \"W6/bignum.sol\":547:548  a */\n      dup8\n        /* \"W6/bignum.sol\":547:554  a.limbs */\n      0x00\n      add\n      mload\n        /* \"W6/bignum.sol\":555:556  i */\n      dup3\n        /* \"W6/bignum.sol\":547:557  a.limbs[i] */\n      dup2\n      mload\n      dup2\n      lt\n      tag_82\n      jumpi\n      tag_83\n      tag_47\n      jump\t// in\n    tag_83:\n    tag_82:\n      0x20\n      mul\n      0x20\n      add\n      add\n      mload\n        /* \"W6/bignum.sol\":540:557  sum += a.limbs[i] */\n      dup2\n      tag_84\n      swap2\n      swap1\n      tag_33\n      jump\t// in\n    tag_84:\n      swap1\n      pop\n        /* \"W6/bignum.sol\":497:573  if (i < a.limbs.length) {... */\n    tag_81:\n        /* \"W6/bignum.sol\":595:596  b */\n      dup7\n        /* \"W6/bignum.sol\":595:602  b.limbs */\n      0x00\n      add\n      mload\n        /* \"W6/bignum.sol\":595:609  b.limbs.length */\n      mload\n        /* \"W6/bignum.sol\":591:592  i */\n      dup3\n        /* \"W6/bignum.sol\":591:609  i < b.limbs.length */\n      lt\n        /* \"W6/bignum.sol\":587:663  if (i < b.limbs.length) {... */\n      iszero\n      tag_85\n      jumpi\n        /* \"W6/bignum.sol\":637:638  b */\n      dup7\n        /* \"W6/bignum.sol\":637:644  b.limbs */\n      0x00\n      add\n      mload\n        /* \"W6/bignum.sol\":645:646  i */\n      dup3\n        /* \"W6/bignum.sol\":637:647  b.limbs[i] */\n      dup2\n      mload\n      dup2\n      lt\n      tag_86\n      jumpi\n      tag_87\n      tag_47\n      jump\t// in\n    tag_87:\n    tag_86:\n      0x20\n      mul\n      0x20\n      add\n      add\n      mload\n        /* \"W6/bignum.sol\":630:647  sum += b.limbs[i] */\n      dup2\n      tag_88\n      swap2\n      swap1\n      tag_33\n      jump\t// in\n    tag_88:\n      swap1\n      pop\n        /* \"W6/bignum.sol\":587:663  if (i < b.limbs.length) {... */\n    tag_85:\n        /* \"W6/bignum.sol\":704:710  2**128 */\n      0x0100000000000000000000000000000000\n        /* \"W6/bignum.sol\":697:700  sum */\n      dup2\n        /* \"W6/bignum.sol\":697:711  sum % (2**128) */\n      tag_89\n      swap2\n      swap1\n      tag_57\n      jump\t// in\n    tag_89:\n        /* \"W6/bignum.sol\":679:685  result */\n      dup5\n        /* \"W6/bignum.sol\":679:691  result.limbs */\n      0x00\n      add\n      mload\n        /* \"W6/bignum.sol\":692:693  i */\n      dup4\n        /* \"W6/bignum.sol\":679:694  result.limbs[i] */\n      dup2\n      mload\n      dup2\n      lt\n      tag_90\n      jumpi\n      tag_91\n      tag_47\n      jump\t// in\n    tag_91:\n    tag_90:\n      0x20\n      mul\n      0x20\n      add\n      add\n        /* \"W6/bignum.sol\":679:711  result.limbs[i] = sum % (2**128) */\n      dup2\n      dup2\n      mstore\n      pop\n      pop\n        /* \"W6/bignum.sol\":741:747  2**128 */\n      0x0100000000000000000000000000000000\n        /* \"W6/bignum.sol\":734:737  sum */\n      dup2\n        /* \"W6/bignum.sol\":734:748  sum / (2**128) */\n      tag_92\n      swap2\n      swap1\n      tag_62\n      jump\t// in\n    tag_92:\n        /* \"W6/bignum.sol\":726:748  carry = sum / (2**128) */\n      swap3\n      pop\n        /* \"W6/bignum.sol\":448:760  {... */\n      pop\n        /* \"W6/bignum.sol\":443:446  i++ */\n      dup1\n      dup1\n      tag_93\n      swap1\n      tag_64\n      jump\t// in\n    tag_93:\n      swap2\n      pop\n      pop\n        /* \"W6/bignum.sol\":411:760  for (uint256 i = 0; i < length; i++) {... */\n      jump(tag_78)\n    tag_79:\n      pop\n        /* \"W6/bignum.sol\":785:786  0 */\n      0x00\n        /* \"W6/bignum.sol\":776:781  carry */\n      dup2\n        /* \"W6/bignum.sol\":776:786  carry != 0 */\n      eq\n        /* \"W6/bignum.sol\":772:843  if (carry != 0) {... */\n      tag_94\n      jumpi\n        /* \"W6/bignum.sol\":826:831  carry */\n      dup1\n        /* \"W6/bignum.sol\":803:809  result */\n      dup3\n        /* \"W6/bignum.sol\":803:815  result.limbs */\n      0x00\n      add\n      mload\n        /* \"W6/bignum.sol\":816:822  length */\n      dup5\n        /* \"W6/bignum.sol\":803:823  result.limbs[length] */\n      dup2\n      mload\n      dup2\n      lt\n      tag_95\n      jumpi\n      tag_96\n      tag_47\n      jump\t// in\n    tag_96:\n    tag_95:\n      0x20\n      mul\n      0x20\n      add\n      add\n        /* \"W6/bignum.sol\":803:831  result.limbs[length] = carry */\n      dup2\n      dup2\n      mstore\n      pop\n      pop\n        /* \"W6/bignum.sol\":772:843  if (carry != 0) {... */\n    tag_94:\n        /* \"W6/bignum.sol\":862:868  result */\n      dup2\n        /* \"W6/bignum.sol\":855:868  return result */\n      swap4\n      pop\n      pop\n      pop\n      pop\n        /* \"W6/bignum.sol\":138:876  function add(bigint memory a, bigint memory b) internal pure returns (bigint memory) {... */\n      swap3\n      swap2\n      pop\n      pop\n      jump\t// out\n        /* \"W6/bignum.sol\":3967:4073  function max(uint256 a, uint256 b) private pure returns (uint256) {... */\n    tag_72:\n        /* \"W6/bignum.sol\":4024:4031  uint256 */\n      0x00\n        /* \"W6/bignum.sol\":4056:4057  b */\n      dup2\n        /* \"W6/bignum.sol\":4051:4052  a */\n      dup4\n        /* \"W6/bignum.sol\":4051:4057  a >= b */\n      lt\n      iszero\n        /* \"W6/bignum.sol\":4051:4065  a >= b ? a : b */\n      tag_98\n      jumpi\n        /* \"W6/bignum.sol\":4064:4065  b */\n      dup2\n        /* \"W6/bignum.sol\":4051:4065  a >= b ? a : b */\n      jump(tag_99)\n    tag_98:\n        /* \"W6/bignum.sol\":4060:4061  a */\n      dup3\n        /* \"W6/bignum.sol\":4051:4065  a >= b ? a : b */\n    tag_99:\n        /* \"W6/bignum.sol\":4044:4065  return a >= b ? a : b */\n      swap1\n      pop\n        /* \"W6/bignum.sol\":3967:4073  function max(uint256 a, uint256 b) private pure returns (uint256) {... */\n      swap3\n      swap2\n      pop\n      pop\n      jump\t// out\n    tag_16:\n      mload(0x40)\n      dup1\n      0x20\n      add\n      0x40\n      mstore\n      dup1\n      0x60\n      dup2\n      mstore\n      pop\n      swap1\n      jump\t// out\n        /* \"#utility.yul\":7:82   */\n    tag_100:\n        /* \"#utility.yul\":40:46   */\n      0x00\n        /* \"#utility.yul\":73:75   */\n      0x40\n        /* \"#utility.yul\":67:76   */\n      mload\n        /* \"#utility.yul\":57:76   */\n      swap1\n      pop\n        /* \"#utility.yul\":7:82   */\n      swap1\n      jump\t// out\n        /* \"#utility.yul\":88:205   */\n    tag_101:\n        /* \"#utility.yul\":197:198   */\n      0x00\n        /* \"#utility.yul\":194:195   */\n      dup1\n        /* \"#utility.yul\":187:199   */\n      revert\n        /* \"#utility.yul\":211:328   */\n    tag_102:\n        /* \"#utility.yul\":320:321   */\n      0x00\n        /* \"#utility.yul\":317:318   */\n      dup1\n        /* \"#utility.yul\":310:322   */\n      revert\n        /* \"#utility.yul\":334:451   */\n    tag_103:\n        /* \"#utility.yul\":443:444   */\n      0x00\n        /* \"#utility.yul\":440:441   */\n      dup1\n        /* \"#utility.yul\":433:445   */\n      revert\n        /* \"#utility.yul\":485:712   */\n    tag_104:\n        /* \"#utility.yul\":554:559   */\n      0x00\n        /* \"#utility.yul\":595:597   */\n      0x20\n        /* \"#utility.yul\":586:592   */\n      dup3\n        /* \"#utility.yul\":581:584   */\n      dup5\n        /* \"#utility.yul\":577:593   */\n      sub\n        /* \"#utility.yul\":573:598   */\n      slt\n        /* \"#utility.yul\":570:682   */\n      iszero\n      tag_135\n      jumpi\n        /* \"#utility.yul\":601:680   */\n      tag_136\n      tag_103\n      jump\t// in\n    tag_136:\n        /* \"#utility.yul\":570:682   */\n    tag_135:\n        /* \"#utility.yul\":700:706   */\n      dup2\n        /* \"#utility.yul\":691:706   */\n      swap1\n      pop\n        /* \"#utility.yul\":485:712   */\n      swap3\n      swap2\n      pop\n      pop\n      jump\t// out\n        /* \"#utility.yul\":718:1604   */\n    tag_7:\n        /* \"#utility.yul\":832:838   */\n      0x00\n        /* \"#utility.yul\":840:846   */\n      dup1\n        /* \"#utility.yul\":889:891   */\n      0x40\n        /* \"#utility.yul\":877:886   */\n      dup4\n        /* \"#utility.yul\":868:875   */\n      dup6\n        /* \"#utility.yul\":864:887   */\n      sub\n        /* \"#utility.yul\":860:892   */\n      slt\n        /* \"#utility.yul\":857:976   */\n      iszero\n      tag_138\n      jumpi\n        /* \"#utility.yul\":895:974   */\n      tag_139\n      tag_101\n      jump\t// in\n    tag_139:\n        /* \"#utility.yul\":857:976   */\n    tag_138:\n        /* \"#utility.yul\":1043:1044   */\n      0x00\n        /* \"#utility.yul\":1032:1041   */\n      dup4\n        /* \"#utility.yul\":1028:1045   */\n      add\n        /* \"#utility.yul\":1015:1046   */\n      calldataload\n        /* \"#utility.yul\":1073:1091   */\n      0xffffffffffffffff\n        /* \"#utility.yul\":1065:1071   */\n      dup2\n        /* \"#utility.yul\":1062:1092   */\n      gt\n        /* \"#utility.yul\":1059:1176   */\n      iszero\n      tag_140\n      jumpi\n        /* \"#utility.yul\":1095:1174   */\n      tag_141\n      tag_102\n      jump\t// in\n    tag_141:\n        /* \"#utility.yul\":1059:1176   */\n    tag_140:\n        /* \"#utility.yul\":1200:1276   */\n      tag_142\n        /* \"#utility.yul\":1268:1275   */\n      dup6\n        /* \"#utility.yul\":1259:1265   */\n      dup3\n        /* \"#utility.yul\":1248:1257   */\n      dup7\n        /* \"#utility.yul\":1244:1266   */\n      add\n        /* \"#utility.yul\":1200:1276   */\n      tag_104\n      jump\t// in\n    tag_142:\n        /* \"#utility.yul\":1190:1276   */\n      swap3\n      pop\n        /* \"#utility.yul\":986:1286   */\n      pop\n        /* \"#utility.yul\":1353:1355   */\n      0x20\n        /* \"#utility.yul\":1342:1351   */\n      dup4\n        /* \"#utility.yul\":1338:1356   */\n      add\n        /* \"#utility.yul\":1325:1357   */\n      calldataload\n        /* \"#utility.yul\":1384:1402   */\n      0xffffffffffffffff\n        /* \"#utility.yul\":1376:1382   */\n      dup2\n        /* \"#utility.yul\":1373:1403   */\n      gt\n        /* \"#utility.yul\":1370:1487   */\n      iszero\n      tag_143\n      jumpi\n        /* \"#utility.yul\":1406:1485   */\n      tag_144\n      tag_102\n      jump\t// in\n    tag_144:\n        /* \"#utility.yul\":1370:1487   */\n    tag_143:\n        /* \"#utility.yul\":1511:1587   */\n      tag_145\n        /* \"#utility.yul\":1579:1586   */\n      dup6\n        /* \"#utility.yul\":1570:1576   */\n      dup3\n        /* \"#utility.yul\":1559:1568   */\n      dup7\n        /* \"#utility.yul\":1555:1577   */\n      add\n        /* \"#utility.yul\":1511:1587   */\n      tag_104\n      jump\t// in\n    tag_145:\n        /* \"#utility.yul\":1501:1587   */\n      swap2\n      pop\n        /* \"#utility.yul\":1296:1597   */\n      pop\n        /* \"#utility.yul\":718:1604   */\n      swap3\n      pop\n      swap3\n      swap1\n      pop\n      jump\t// out\n        /* \"#utility.yul\":1610:1724   */\n    tag_105:\n        /* \"#utility.yul\":1677:1683   */\n      0x00\n        /* \"#utility.yul\":1711:1716   */\n      dup2\n        /* \"#utility.yul\":1705:1717   */\n      mload\n        /* \"#utility.yul\":1695:1717   */\n      swap1\n      pop\n        /* \"#utility.yul\":1610:1724   */\n      swap2\n      swap1\n      pop\n      jump\t// out\n        /* \"#utility.yul\":1730:1904   */\n    tag_106:\n        /* \"#utility.yul\":1819:1830   */\n      0x00\n        /* \"#utility.yul\":1853:1859   */\n      dup3\n        /* \"#utility.yul\":1848:1851   */\n      dup3\n        /* \"#utility.yul\":1841:1860   */\n      mstore\n        /* \"#utility.yul\":1893:1897   */\n      0x20\n        /* \"#utility.yul\":1888:1891   */\n      dup3\n        /* \"#utility.yul\":1884:1898   */\n      add\n        /* \"#utility.yul\":1869:1898   */\n      swap1\n      pop\n        /* \"#utility.yul\":1730:1904   */\n      swap3\n      swap2\n      pop\n      pop\n      jump\t// out\n        /* \"#utility.yul\":1910:2042   */\n    tag_107:\n        /* \"#utility.yul\":1977:1981   */\n      0x00\n        /* \"#utility.yul\":2000:2003   */\n      dup2\n        /* \"#utility.yul\":1992:2003   */\n      swap1\n      pop\n        /* \"#utility.yul\":2030:2034   */\n      0x20\n        /* \"#utility.yul\":2025:2028   */\n      dup3\n        /* \"#utility.yul\":2021:2035   */\n      add\n        /* \"#utility.yul\":2013:2035   */\n      swap1\n      pop\n        /* \"#utility.yul\":1910:2042   */\n      swap2\n      swap1\n      pop\n      jump\t// out\n        /* \"#utility.yul\":2048:2125   */\n    tag_108:\n        /* \"#utility.yul\":2085:2092   */\n      0x00\n        /* \"#utility.yul\":2114:2119   */\n      dup2\n        /* \"#utility.yul\":2103:2119   */\n      swap1\n      pop\n        /* \"#utility.yul\":2048:2125   */\n      swap2\n      swap1\n      pop\n      jump\t// out\n        /* \"#utility.yul\":2131:2239   */\n    tag_109:\n        /* \"#utility.yul\":2208:2232   */\n      tag_151\n        /* \"#utility.yul\":2226:2231   */\n      dup2\n        /* \"#utility.yul\":2208:2232   */\n      tag_108\n      jump\t// in\n    tag_151:\n        /* \"#utility.yul\":2203:2206   */\n      dup3\n        /* \"#utility.yul\":2196:2233   */\n      mstore\n        /* \"#utility.yul\":2131:2239   */\n      pop\n      pop\n      jump\t// out\n        /* \"#utility.yul\":2245:2424   */\n    tag_110:\n        /* \"#utility.yul\":2314:2324   */\n      0x00\n        /* \"#utility.yul\":2335:2381   */\n      tag_153\n        /* \"#utility.yul\":2377:2380   */\n      dup4\n        /* \"#utility.yul\":2369:2375   */\n      dup4\n        /* \"#utility.yul\":2335:2381   */\n      tag_109\n      jump\t// in\n    tag_153:\n        /* \"#utility.yul\":2413:2417   */\n      0x20\n        /* \"#utility.yul\":2408:2411   */\n      dup4\n        /* \"#utility.yul\":2404:2418   */\n      add\n        /* \"#utility.yul\":2390:2418   */\n      swap1\n      pop\n        /* \"#utility.yul\":2245:2424   */\n      swap3\n      swap2\n      pop\n      pop\n      jump\t// out\n        /* \"#utility.yul\":2430:2543   */\n    tag_111:\n        /* \"#utility.yul\":2500:2504   */\n      0x00\n        /* \"#utility.yul\":2532:2536   */\n      0x20\n        /* \"#utility.yul\":2527:2530   */\n      dup3\n        /* \"#utility.yul\":2523:2537   */\n      add\n        /* \"#utility.yul\":2515:2537   */\n      swap1\n      pop\n        /* \"#utility.yul\":2430:2543   */\n      swap2\n      swap1\n      pop\n      jump\t// out\n        /* \"#utility.yul\":2579:3291   */\n    tag_112:\n        /* \"#utility.yul\":2688:2691   */\n      0x00\n        /* \"#utility.yul\":2717:2771   */\n      tag_156\n        /* \"#utility.yul\":2765:2770   */\n      dup3\n        /* \"#utility.yul\":2717:2771   */\n      tag_105\n      jump\t// in\n    tag_156:\n        /* \"#utility.yul\":2787:2863   */\n      tag_157\n        /* \"#utility.yul\":2856:2862   */\n      dup2\n        /* \"#utility.yul\":2851:2854   */\n      dup6\n        /* \"#utility.yul\":2787:2863   */\n      tag_106\n      jump\t// in\n    tag_157:\n        /* \"#utility.yul\":2780:2863   */\n      swap4\n      pop\n        /* \"#utility.yul\":2887:2943   */\n      tag_158\n        /* \"#utility.yul\":2937:2942   */\n      dup4\n        /* \"#utility.yul\":2887:2943   */\n      tag_107\n      jump\t// in\n    tag_158:\n        /* \"#utility.yul\":2966:2973   */\n      dup1\n        /* \"#utility.yul\":2997:2998   */\n      0x00\n        /* \"#utility.yul\":2982:3266   */\n    tag_159:\n        /* \"#utility.yul\":3007:3013   */\n      dup4\n        /* \"#utility.yul\":3004:3005   */\n      dup2\n        /* \"#utility.yul\":3001:3014   */\n      lt\n        /* \"#utility.yul\":2982:3266   */\n      iszero\n      tag_161\n      jumpi\n        /* \"#utility.yul\":3083:3089   */\n      dup2\n        /* \"#utility.yul\":3077:3090   */\n      mload\n        /* \"#utility.yul\":3110:3173   */\n      tag_162\n        /* \"#utility.yul\":3169:3172   */\n      dup9\n        /* \"#utility.yul\":3154:3167   */\n      dup3\n        /* \"#utility.yul\":3110:3173   */\n      tag_110\n      jump\t// in\n    tag_162:\n        /* \"#utility.yul\":3103:3173   */\n      swap8\n      pop\n        /* \"#utility.yul\":3196:3256   */\n      tag_163\n        /* \"#utility.yul\":3249:3255   */\n      dup4\n        /* \"#utility.yul\":3196:3256   */\n      tag_111\n      jump\t// in\n    tag_163:\n        /* \"#utility.yul\":3186:3256   */\n      swap3\n      pop\n        /* \"#utility.yul\":3042:3266   */\n      pop\n        /* \"#utility.yul\":3029:3030   */\n      0x01\n        /* \"#utility.yul\":3026:3027   */\n      dup2\n        /* \"#utility.yul\":3022:3031   */\n      add\n        /* \"#utility.yul\":3017:3031   */\n      swap1\n      pop\n        /* \"#utility.yul\":2982:3266   */\n      jump(tag_159)\n    tag_161:\n        /* \"#utility.yul\":2986:3000   */\n      pop\n        /* \"#utility.yul\":3282:3285   */\n      dup6\n        /* \"#utility.yul\":3275:3285   */\n      swap4\n      pop\n        /* \"#utility.yul\":2693:3291   */\n      pop\n      pop\n      pop\n        /* \"#utility.yul\":2579:3291   */\n      swap3\n      swap2\n      pop\n      pop\n      jump\t// out\n        /* \"#utility.yul\":3349:3804   */\n    tag_113:\n        /* \"#utility.yul\":3460:3463   */\n      0x00\n        /* \"#utility.yul\":3496:3500   */\n      0x20\n        /* \"#utility.yul\":3491:3494   */\n      dup4\n        /* \"#utility.yul\":3487:3501   */\n      add\n        /* \"#utility.yul\":3584:3588   */\n      0x00\n        /* \"#utility.yul\":3577:3582   */\n      dup4\n        /* \"#utility.yul\":3573:3589   */\n      add\n        /* \"#utility.yul\":3567:3590   */\n      mload\n        /* \"#utility.yul\":3637:3640   */\n      dup5\n        /* \"#utility.yul\":3631:3635   */\n      dup3\n        /* \"#utility.yul\":3627:3641   */\n      sub\n        /* \"#utility.yul\":3620:3624   */\n      0x00\n        /* \"#utility.yul\":3615:3618   */\n      dup7\n        /* \"#utility.yul\":3611:3625   */\n      add\n        /* \"#utility.yul\":3604:3642   */\n      mstore\n        /* \"#utility.yul\":3663:3766   */\n      tag_165\n        /* \"#utility.yul\":3761:3765   */\n      dup3\n        /* \"#utility.yul\":3747:3759   */\n      dup3\n        /* \"#utility.yul\":3663:3766   */\n      tag_112\n      jump\t// in\n    tag_165:\n        /* \"#utility.yul\":3655:3766   */\n      swap2\n      pop\n        /* \"#utility.yul\":3511:3777   */\n      pop\n        /* \"#utility.yul\":3794:3798   */\n      dup1\n        /* \"#utility.yul\":3787:3798   */\n      swap2\n      pop\n        /* \"#utility.yul\":3465:3804   */\n      pop\n        /* \"#utility.yul\":3349:3804   */\n      swap3\n      swap2\n      pop\n      pop\n      jump\t// out\n        /* \"#utility.yul\":3810:4167   */\n    tag_10:\n        /* \"#utility.yul\":3945:3949   */\n      0x00\n        /* \"#utility.yul\":3983:3985   */\n      0x20\n        /* \"#utility.yul\":3972:3981   */\n      dup3\n        /* \"#utility.yul\":3968:3986   */\n      add\n        /* \"#utility.yul\":3960:3986   */\n      swap1\n      pop\n        /* \"#utility.yul\":4032:4041   */\n      dup2\n        /* \"#utility.yul\":4026:4030   */\n      dup2\n        /* \"#utility.yul\":4022:4042   */\n      sub\n        /* \"#utility.yul\":4018:4019   */\n      0x00\n        /* \"#utility.yul\":4007:4016   */\n      dup4\n        /* \"#utility.yul\":4003:4020   */\n      add\n        /* \"#utility.yul\":3996:4043   */\n      mstore\n        /* \"#utility.yul\":4060:4160   */\n      tag_167\n        /* \"#utility.yul\":4155:4159   */\n      dup2\n        /* \"#utility.yul\":4146:4152   */\n      dup5\n        /* \"#utility.yul\":4060:4160   */\n      tag_113\n      jump\t// in\n    tag_167:\n        /* \"#utility.yul\":4052:4160   */\n      swap1\n      pop\n        /* \"#utility.yul\":3810:4167   */\n      swap3\n      swap2\n      pop\n      pop\n      jump\t// out\n        /* \"#utility.yul\":4173:4290   */\n    tag_114:\n        /* \"#utility.yul\":4282:4283   */\n      0x00\n        /* \"#utility.yul\":4279:4280   */\n      dup1\n        /* \"#utility.yul\":4272:4284   */\n      revert\n        /* \"#utility.yul\":4296:4398   */\n    tag_115:\n        /* \"#utility.yul\":4337:4343   */\n      0x00\n        /* \"#utility.yul\":4388:4390   */\n      0x1f\n        /* \"#utility.yul\":4384:4391   */\n      not\n        /* \"#utility.yul\":4379:4381   */\n      0x1f\n        /* \"#utility.yul\":4372:4377   */\n      dup4\n        /* \"#utility.yul\":4368:4382   */\n      add\n        /* \"#utility.yul\":4364:4392   */\n      and\n        /* \"#utility.yul\":4354:4392   */\n      swap1\n      pop\n        /* \"#utility.yul\":4296:4398   */\n      swap2\n      swap1\n      pop\n      jump\t// out\n        /* \"#utility.yul\":4404:4584   */\n    tag_36:\n        /* \"#utility.yul\":4452:4529   */\n      0x4e487b7100000000000000000000000000000000000000000000000000000000\n        /* \"#utility.yul\":4449:4450   */\n      0x00\n        /* \"#utility.yul\":4442:4530   */\n      mstore\n        /* \"#utility.yul\":4549:4553   */\n      0x41\n        /* \"#utility.yul\":4546:4547   */\n      0x04\n        /* \"#utility.yul\":4539:4554   */\n      mstore\n        /* \"#utility.yul\":4573:4577   */\n      0x24\n        /* \"#utility.yul\":4570:4571   */\n      0x00\n        /* \"#utility.yul\":4563:4578   */\n      revert\n        /* \"#utility.yul\":4590:4871   */\n    tag_116:\n        /* \"#utility.yul\":4673:4700   */\n      tag_172\n        /* \"#utility.yul\":4695:4699   */\n      dup3\n        /* \"#utility.yul\":4673:4700   */\n      tag_115\n      jump\t// in\n    tag_172:\n        /* \"#utility.yul\":4665:4671   */\n      dup2\n        /* \"#utility.yul\":4661:4701   */\n      add\n        /* \"#utility.yul\":4803:4809   */\n      dup2\n        /* \"#utility.yul\":4791:4801   */\n      dup2\n        /* \"#utility.yul\":4788:4810   */\n      lt\n        /* \"#utility.yul\":4767:4785   */\n      0xffffffffffffffff\n        /* \"#utility.yul\":4755:4765   */\n      dup3\n        /* \"#utility.yul\":4752:4786   */\n      gt\n        /* \"#utility.yul\":4749:4811   */\n      or\n        /* \"#utility.yul\":4746:4834   */\n      iszero\n      tag_173\n      jumpi\n        /* \"#utility.yul\":4814:4832   */\n      tag_174\n      tag_36\n      jump\t// in\n    tag_174:\n        /* \"#utility.yul\":4746:4834   */\n    tag_173:\n        /* \"#utility.yul\":4854:4864   */\n      dup1\n        /* \"#utility.yul\":4850:4852   */\n      0x40\n        /* \"#utility.yul\":4843:4865   */\n      mstore\n        /* \"#utility.yul\":4633:4871   */\n      pop\n        /* \"#utility.yul\":4590:4871   */\n      pop\n      pop\n      jump\t// out\n        /* \"#utility.yul\":4877:5006   */\n    tag_117:\n        /* \"#utility.yul\":4911:4917   */\n      0x00\n        /* \"#utility.yul\":4938:4958   */\n      tag_176\n      tag_100\n      jump\t// in\n    tag_176:\n        /* \"#utility.yul\":4928:4958   */\n      swap1\n      pop\n        /* \"#utility.yul\":4967:5000   */\n      tag_177\n        /* \"#utility.yul\":4995:4999   */\n      dup3\n        /* \"#utility.yul\":4987:4993   */\n      dup3\n        /* \"#utility.yul\":4967:5000   */\n      tag_116\n      jump\t// in\n    tag_177:\n        /* \"#utility.yul\":4877:5006   */\n      swap2\n      swap1\n      pop\n      jump\t// out\n        /* \"#utility.yul\":5012:5129   */\n    tag_118:\n        /* \"#utility.yul\":5121:5122   */\n      0x00\n        /* \"#utility.yul\":5118:5119   */\n      dup1\n        /* \"#utility.yul\":5111:5123   */\n      revert\n        /* \"#utility.yul\":5135:5252   */\n    tag_119:\n        /* \"#utility.yul\":5244:5245   */\n      0x00\n        /* \"#utility.yul\":5241:5242   */\n      dup1\n        /* \"#utility.yul\":5234:5246   */\n      revert\n        /* \"#utility.yul\":5258:5569   */\n    tag_120:\n        /* \"#utility.yul\":5335:5339   */\n      0x00\n        /* \"#utility.yul\":5425:5443   */\n      0xffffffffffffffff\n        /* \"#utility.yul\":5417:5423   */\n      dup3\n        /* \"#utility.yul\":5414:5444   */\n      gt\n        /* \"#utility.yul\":5411:5467   */\n      iszero\n      tag_181\n      jumpi\n        /* \"#utility.yul\":5447:5465   */\n      tag_182\n      tag_36\n      jump\t// in\n    tag_182:\n        /* \"#utility.yul\":5411:5467   */\n    tag_181:\n        /* \"#utility.yul\":5497:5501   */\n      0x20\n        /* \"#utility.yul\":5489:5495   */\n      dup3\n        /* \"#utility.yul\":5485:5502   */\n      mul\n        /* \"#utility.yul\":5477:5502   */\n      swap1\n      pop\n        /* \"#utility.yul\":5557:5561   */\n      0x20\n        /* \"#utility.yul\":5551:5555   */\n      dup2\n        /* \"#utility.yul\":5547:5562   */\n      add\n        /* \"#utility.yul\":5539:5562   */\n      swap1\n      pop\n        /* \"#utility.yul\":5258:5569   */\n      swap2\n      swap1\n      pop\n      jump\t// out\n        /* \"#utility.yul\":5575:5692   */\n    tag_121:\n        /* \"#utility.yul\":5684:5685   */\n      0x00\n        /* \"#utility.yul\":5681:5682   */\n      dup1\n        /* \"#utility.yul\":5674:5686   */\n      revert\n        /* \"#utility.yul\":5698:5820   */\n    tag_122:\n        /* \"#utility.yul\":5771:5795   */\n      tag_185\n        /* \"#utility.yul\":5789:5794   */\n      dup2\n        /* \"#utility.yul\":5771:5795   */\n      tag_108\n      jump\t// in\n    tag_185:\n        /* \"#utility.yul\":5764:5769   */\n      dup2\n        /* \"#utility.yul\":5761:5796   */\n      eq\n        /* \"#utility.yul\":5751:5814   */\n      tag_186\n      jumpi\n        /* \"#utility.yul\":5810:5811   */\n      0x00\n        /* \"#utility.yul\":5807:5808   */\n      dup1\n        /* \"#utility.yul\":5800:5812   */\n      revert\n        /* \"#utility.yul\":5751:5814   */\n    tag_186:\n        /* \"#utility.yul\":5698:5820   */\n      pop\n      jump\t// out\n        /* \"#utility.yul\":5826:5965   */\n    tag_123:\n        /* \"#utility.yul\":5872:5877   */\n      0x00\n        /* \"#utility.yul\":5910:5916   */\n      dup2\n        /* \"#utility.yul\":5897:5917   */\n      calldataload\n        /* \"#utility.yul\":5888:5917   */\n      swap1\n      pop\n        /* \"#utility.yul\":5926:5959   */\n      tag_188\n        /* \"#utility.yul\":5953:5958   */\n      dup2\n        /* \"#utility.yul\":5926:5959   */\n      tag_122\n      jump\t// in\n    tag_188:\n        /* \"#utility.yul\":5826:5965   */\n      swap3\n      swap2\n      pop\n      pop\n      jump\t// out\n        /* \"#utility.yul\":5988:6698   */\n    tag_124:\n        /* \"#utility.yul\":6084:6089   */\n      0x00\n        /* \"#utility.yul\":6109:6190   */\n      tag_190\n        /* \"#utility.yul\":6125:6189   */\n      tag_191\n        /* \"#utility.yul\":6182:6188   */\n      dup5\n        /* \"#utility.yul\":6125:6189   */\n      tag_120\n      jump\t// in\n    tag_191:\n        /* \"#utility.yul\":6109:6190   */\n      tag_117\n      jump\t// in\n    tag_190:\n        /* \"#utility.yul\":6100:6190   */\n      swap1\n      pop\n        /* \"#utility.yul\":6210:6215   */\n      dup1\n        /* \"#utility.yul\":6239:6245   */\n      dup4\n        /* \"#utility.yul\":6232:6237   */\n      dup3\n        /* \"#utility.yul\":6225:6246   */\n      mstore\n        /* \"#utility.yul\":6273:6277   */\n      0x20\n        /* \"#utility.yul\":6266:6271   */\n      dup3\n        /* \"#utility.yul\":6262:6278   */\n      add\n        /* \"#utility.yul\":6255:6278   */\n      swap1\n      pop\n        /* \"#utility.yul\":6326:6330   */\n      0x20\n        /* \"#utility.yul\":6318:6324   */\n      dup5\n        /* \"#utility.yul\":6314:6331   */\n      mul\n        /* \"#utility.yul\":6306:6312   */\n      dup4\n        /* \"#utility.yul\":6302:6332   */\n      add\n        /* \"#utility.yul\":6355:6358   */\n      dup6\n        /* \"#utility.yul\":6347:6353   */\n      dup2\n        /* \"#utility.yul\":6344:6359   */\n      gt\n        /* \"#utility.yul\":6341:6463   */\n      iszero\n      tag_192\n      jumpi\n        /* \"#utility.yul\":6374:6453   */\n      tag_193\n      tag_121\n      jump\t// in\n    tag_193:\n        /* \"#utility.yul\":6341:6463   */\n    tag_192:\n        /* \"#utility.yul\":6489:6495   */\n      dup4\n        /* \"#utility.yul\":6472:6692   */\n    tag_194:\n        /* \"#utility.yul\":6506:6512   */\n      dup2\n        /* \"#utility.yul\":6501:6504   */\n      dup2\n        /* \"#utility.yul\":6498:6513   */\n      lt\n        /* \"#utility.yul\":6472:6692   */\n      iszero\n      tag_196\n      jumpi\n        /* \"#utility.yul\":6581:6584   */\n      dup1\n        /* \"#utility.yul\":6610:6647   */\n      tag_197\n        /* \"#utility.yul\":6643:6646   */\n      dup9\n        /* \"#utility.yul\":6631:6641   */\n      dup3\n        /* \"#utility.yul\":6610:6647   */\n      tag_123\n      jump\t// in\n    tag_197:\n        /* \"#utility.yul\":6605:6608   */\n      dup5\n        /* \"#utility.yul\":6598:6648   */\n      mstore\n        /* \"#utility.yul\":6677:6681   */\n      0x20\n        /* \"#utility.yul\":6672:6675   */\n      dup5\n        /* \"#utility.yul\":6668:6682   */\n      add\n        /* \"#utility.yul\":6661:6682   */\n      swap4\n      pop\n        /* \"#utility.yul\":6548:6692   */\n      pop\n        /* \"#utility.yul\":6532:6536   */\n      0x20\n        /* \"#utility.yul\":6527:6530   */\n      dup2\n        /* \"#utility.yul\":6523:6537   */\n      add\n        /* \"#utility.yul\":6516:6537   */\n      swap1\n      pop\n        /* \"#utility.yul\":6472:6692   */\n      jump(tag_194)\n    tag_196:\n        /* \"#utility.yul\":6476:6497   */\n      pop\n        /* \"#utility.yul\":6090:6698   */\n      pop\n      pop\n        /* \"#utility.yul\":5988:6698   */\n      swap4\n      swap3\n      pop\n      pop\n      pop\n      jump\t// out\n        /* \"#utility.yul\":6721:7091   */\n    tag_125:\n        /* \"#utility.yul\":6792:6797   */\n      0x00\n        /* \"#utility.yul\":6841:6844   */\n      dup3\n        /* \"#utility.yul\":6834:6838   */\n      0x1f\n        /* \"#utility.yul\":6826:6832   */\n      dup4\n        /* \"#utility.yul\":6822:6839   */\n      add\n        /* \"#utility.yul\":6818:6845   */\n      slt\n        /* \"#utility.yul\":6808:6930   */\n      tag_199\n      jumpi\n        /* \"#utility.yul\":6849:6928   */\n      tag_200\n      tag_119\n      jump\t// in\n    tag_200:\n        /* \"#utility.yul\":6808:6930   */\n    tag_199:\n        /* \"#utility.yul\":6966:6972   */\n      dup2\n        /* \"#utility.yul\":6953:6973   */\n      calldataload\n        /* \"#utility.yul\":6991:7085   */\n      tag_201\n        /* \"#utility.yul\":7081:7084   */\n      dup5\n        /* \"#utility.yul\":7073:7079   */\n      dup3\n        /* \"#utility.yul\":7066:7070   */\n      0x20\n        /* \"#utility.yul\":7058:7064   */\n      dup7\n        /* \"#utility.yul\":7054:7071   */\n      add\n        /* \"#utility.yul\":6991:7085   */\n      tag_124\n      jump\t// in\n    tag_201:\n        /* \"#utility.yul\":6982:7085   */\n      swap2\n      pop\n        /* \"#utility.yul\":6798:7091   */\n      pop\n        /* \"#utility.yul\":6721:7091   */\n      swap3\n      swap2\n      pop\n      pop\n      jump\t// out\n        /* \"#utility.yul\":7125:7720   */\n    tag_126:\n        /* \"#utility.yul\":7195:7200   */\n      0x00\n        /* \"#utility.yul\":7239:7243   */\n      0x20\n        /* \"#utility.yul\":7227:7236   */\n      dup3\n        /* \"#utility.yul\":7222:7225   */\n      dup5\n        /* \"#utility.yul\":7218:7237   */\n      sub\n        /* \"#utility.yul\":7214:7244   */\n      slt\n        /* \"#utility.yul\":7211:7328   */\n      iszero\n      tag_203\n      jumpi\n        /* \"#utility.yul\":7247:7326   */\n      tag_204\n      tag_114\n      jump\t// in\n    tag_204:\n        /* \"#utility.yul\":7211:7328   */\n    tag_203:\n        /* \"#utility.yul\":7346:7367   */\n      tag_205\n        /* \"#utility.yul\":7362:7366   */\n      0x20\n        /* \"#utility.yul\":7346:7367   */\n      tag_117\n      jump\t// in\n    tag_205:\n        /* \"#utility.yul\":7337:7367   */\n      swap1\n      pop\n        /* \"#utility.yul\":7455:7456   */\n      0x00\n        /* \"#utility.yul\":7444:7453   */\n      dup3\n        /* \"#utility.yul\":7440:7457   */\n      add\n        /* \"#utility.yul\":7427:7458   */\n      calldataload\n        /* \"#utility.yul\":7485:7503   */\n      0xffffffffffffffff\n        /* \"#utility.yul\":7477:7483   */\n      dup2\n        /* \"#utility.yul\":7474:7504   */\n      gt\n        /* \"#utility.yul\":7471:7588   */\n      iszero\n      tag_206\n      jumpi\n        /* \"#utility.yul\":7507:7586   */\n      tag_207\n      tag_118\n      jump\t// in\n    tag_207:\n        /* \"#utility.yul\":7471:7588   */\n    tag_206:\n        /* \"#utility.yul\":7627:7701   */\n      tag_208\n        /* \"#utility.yul\":7697:7700   */\n      dup5\n        /* \"#utility.yul\":7688:7694   */\n      dup3\n        /* \"#utility.yul\":7677:7686   */\n      dup6\n        /* \"#utility.yul\":7673:7695   */\n      add\n        /* \"#utility.yul\":7627:7701   */\n      tag_125\n      jump\t// in\n    tag_208:\n        /* \"#utility.yul\":7620:7624   */\n      0x00\n        /* \"#utility.yul\":7613:7618   */\n      dup4\n        /* \"#utility.yul\":7609:7625   */\n      add\n        /* \"#utility.yul\":7602:7702   */\n      mstore\n        /* \"#utility.yul\":7377:7713   */\n      pop\n        /* \"#utility.yul\":7125:7720   */\n      swap3\n      swap2\n      pop\n      pop\n      jump\t// out\n        /* \"#utility.yul\":7726:7925   */\n    tag_20:\n        /* \"#utility.yul\":7820:7829   */\n      0x00\n        /* \"#utility.yul\":7854:7918   */\n      tag_210\n        /* \"#utility.yul\":7903:7917   */\n      calldatasize\n        /* \"#utility.yul\":7896:7901   */\n      dup4\n        /* \"#utility.yul\":7854:7918   */\n      tag_126\n      jump\t// in\n    tag_210:\n        /* \"#utility.yul\":7841:7918   */\n      swap1\n      pop\n        /* \"#utility.yul\":7726:7925   */\n      swap2\n      swap1\n      pop\n      jump\t// out\n        /* \"#utility.yul\":7931:8111   */\n    tag_127:\n        /* \"#utility.yul\":7979:8056   */\n      0x4e487b7100000000000000000000000000000000000000000000000000000000\n        /* \"#utility.yul\":7976:7977   */\n      0x00\n        /* \"#utility.yul\":7969:8057   */\n      mstore\n        /* \"#utility.yul\":8076:8080   */\n      0x11\n        /* \"#utility.yul\":8073:8074   */\n      0x04\n        /* \"#utility.yul\":8066:8081   */\n      mstore\n        /* \"#utility.yul\":8100:8104   */\n      0x24\n        /* \"#utility.yul\":8097:8098   */\n      0x00\n        /* \"#utility.yul\":8090:8105   */\n      revert\n        /* \"#utility.yul\":8117:8308   */\n    tag_33:\n        /* \"#utility.yul\":8157:8160   */\n      0x00\n        /* \"#utility.yul\":8176:8196   */\n      tag_213\n        /* \"#utility.yul\":8194:8195   */\n      dup3\n        /* \"#utility.yul\":8176:8196   */\n      tag_108\n      jump\t// in\n    tag_213:\n        /* \"#utility.yul\":8171:8196   */\n      swap2\n      pop\n        /* \"#utility.yul\":8210:8230   */\n      tag_214\n        /* \"#utility.yul\":8228:8229   */\n      dup4\n        /* \"#utility.yul\":8210:8230   */\n      tag_108\n      jump\t// in\n    tag_214:\n        /* \"#utility.yul\":8205:8230   */\n      swap3\n      pop\n        /* \"#utility.yul\":8253:8254   */\n      dup3\n        /* \"#utility.yul\":8250:8251   */\n      dup3\n        /* \"#utility.yul\":8246:8255   */\n      add\n        /* \"#utility.yul\":8239:8255   */\n      swap1\n      pop\n        /* \"#utility.yul\":8274:8277   */\n      dup1\n        /* \"#utility.yul\":8271:8272   */\n      dup3\n        /* \"#utility.yul\":8268:8278   */\n      gt\n        /* \"#utility.yul\":8265:8301   */\n      iszero\n      tag_215\n      jumpi\n        /* \"#utility.yul\":8281:8299   */\n      tag_216\n      tag_127\n      jump\t// in\n    tag_216:\n        /* \"#utility.yul\":8265:8301   */\n    tag_215:\n        /* \"#utility.yul\":8117:8308   */\n      swap3\n      swap2\n      pop\n      pop\n      jump\t// out\n        /* \"#utility.yul\":8314:8494   */\n    tag_47:\n        /* \"#utility.yul\":8362:8439   */\n      0x4e487b7100000000000000000000000000000000000000000000000000000000\n        /* \"#utility.yul\":8359:8360   */\n      0x00\n        /* \"#utility.yul\":8352:8440   */\n      mstore\n        /* \"#utility.yul\":8459:8463   */\n      0x32\n        /* \"#utility.yul\":8456:8457   */\n      0x04\n        /* \"#utility.yul\":8449:8464   */\n      mstore\n        /* \"#utility.yul\":8483:8487   */\n      0x24\n        /* \"#utility.yul\":8480:8481   */\n      0x00\n        /* \"#utility.yul\":8473:8488   */\n      revert\n        /* \"#utility.yul\":8500:8910   */\n    tag_53:\n        /* \"#utility.yul\":8540:8547   */\n      0x00\n        /* \"#utility.yul\":8563:8583   */\n      tag_219\n        /* \"#utility.yul\":8581:8582   */\n      dup3\n        /* \"#utility.yul\":8563:8583   */\n      tag_108\n      jump\t// in\n    tag_219:\n        /* \"#utility.yul\":8558:8583   */\n      swap2\n      pop\n        /* \"#utility.yul\":8597:8617   */\n      tag_220\n        /* \"#utility.yul\":8615:8616   */\n      dup4\n        /* \"#utility.yul\":8597:8617   */\n      tag_108\n      jump\t// in\n    tag_220:\n        /* \"#utility.yul\":8592:8617   */\n      swap3\n      pop\n        /* \"#utility.yul\":8652:8653   */\n      dup3\n        /* \"#utility.yul\":8649:8650   */\n      dup3\n        /* \"#utility.yul\":8645:8654   */\n      mul\n        /* \"#utility.yul\":8674:8704   */\n      tag_221\n        /* \"#utility.yul\":8692:8703   */\n      dup2\n        /* \"#utility.yul\":8674:8704   */\n      tag_108\n      jump\t// in\n    tag_221:\n        /* \"#utility.yul\":8663:8704   */\n      swap2\n      pop\n        /* \"#utility.yul\":8853:8854   */\n      dup3\n        /* \"#utility.yul\":8844:8851   */\n      dup3\n        /* \"#utility.yul\":8840:8855   */\n      div\n        /* \"#utility.yul\":8837:8838   */\n      dup5\n        /* \"#utility.yul\":8834:8856   */\n      eq\n        /* \"#utility.yul\":8814:8815   */\n      dup4\n        /* \"#utility.yul\":8807:8816   */\n      iszero\n        /* \"#utility.yul\":8787:8870   */\n      or\n        /* \"#utility.yul\":8764:8903   */\n      tag_222\n      jumpi\n        /* \"#utility.yul\":8883:8901   */\n      tag_223\n      tag_127\n      jump\t// in\n    tag_223:\n        /* \"#utility.yul\":8764:8903   */\n    tag_222:\n        /* \"#utility.yul\":8548:8910   */\n      pop\n        /* \"#utility.yul\":8500:8910   */\n      swap3\n      swap2\n      pop\n      pop\n      jump\t// out\n        /* \"#utility.yul\":8916:9096   */\n    tag_128:\n        /* \"#utility.yul\":8964:9041   */\n      0x4e487b7100000000000000000000000000000000000000000000000000000000\n        /* \"#utility.yul\":8961:8962   */\n      0x00\n        /* \"#utility.yul\":8954:9042   */\n      mstore\n        /* \"#utility.yul\":9061:9065   */\n      0x12\n        /* \"#utility.yul\":9058:9059   */\n      0x04\n        /* \"#utility.yul\":9051:9066   */\n      mstore\n        /* \"#utility.yul\":9085:9089   */\n      0x24\n        /* \"#utility.yul\":9082:9083   */\n      0x00\n        /* \"#utility.yul\":9075:9090   */\n      revert\n        /* \"#utility.yul\":9102:9278   */\n    tag_57:\n        /* \"#utility.yul\":9134:9135   */\n      0x00\n        /* \"#utility.yul\":9151:9171   */\n      tag_226\n        /* \"#utility.yul\":9169:9170   */\n      dup3\n        /* \"#utility.yul\":9151:9171   */\n      tag_108\n      jump\t// in\n    tag_226:\n        /* \"#utility.yul\":9146:9171   */\n      swap2\n      pop\n        /* \"#utility.yul\":9185:9205   */\n      tag_227\n        /* \"#utility.yul\":9203:9204   */\n      dup4\n        /* \"#utility.yul\":9185:9205   */\n      tag_108\n      jump\t// in\n    tag_227:\n        /* \"#utility.yul\":9180:9205   */\n      swap3\n      pop\n        /* \"#utility.yul\":9224:9225   */\n      dup3\n        /* \"#utility.yul\":9214:9249   */\n      tag_228\n      jumpi\n        /* \"#utility.yul\":9229:9247   */\n      tag_229\n      tag_128\n      jump\t// in\n    tag_229:\n        /* \"#utility.yul\":9214:9249   */\n    tag_228:\n        /* \"#utility.yul\":9270:9271   */\n      dup3\n        /* \"#utility.yul\":9267:9268   */\n      dup3\n        /* \"#utility.yul\":9263:9272   */\n      mod\n        /* \"#utility.yul\":9258:9272   */\n      swap1\n      pop\n        /* \"#utility.yul\":9102:9278   */\n      swap3\n      swap2\n      pop\n      pop\n      jump\t// out\n        /* \"#utility.yul\":9284:9469   */\n    tag_62:\n        /* \"#utility.yul\":9324:9325   */\n      0x00\n        /* \"#utility.yul\":9341:9361   */\n      tag_231\n        /* \"#utility.yul\":9359:9360   */\n      dup3\n        /* \"#utility.yul\":9341:9361   */\n      tag_108\n      jump\t// in\n    tag_231:\n        /* \"#utility.yul\":9336:9361   */\n      swap2\n      pop\n        /* \"#utility.yul\":9375:9395   */\n      tag_232\n        /* \"#utility.yul\":9393:9394   */\n      dup4\n        /* \"#utility.yul\":9375:9395   */\n      tag_108\n      jump\t// in\n    tag_232:\n        /* \"#utility.yul\":9370:9395   */\n      swap3\n      pop\n        /* \"#utility.yul\":9414:9415   */\n      dup3\n        /* \"#utility.yul\":9404:9439   */\n      tag_233\n      jumpi\n        /* \"#utility.yul\":9419:9437   */\n      tag_234\n      tag_128\n      jump\t// in\n    tag_234:\n        /* \"#utility.yul\":9404:9439   */\n    tag_233:\n        /* \"#utility.yul\":9461:9462   */\n      dup3\n        /* \"#utility.yul\":9458:9459   */\n      dup3\n        /* \"#utility.yul\":9454:9463   */\n      div\n        /* \"#utility.yul\":9449:9463   */\n      swap1\n      pop\n        /* \"#utility.yul\":9284:9469   */\n      swap3\n      swap2\n      pop\n      pop\n      jump\t// out\n        /* \"#utility.yul\":9475:9708   */\n    tag_64:\n        /* \"#utility.yul\":9514:9517   */\n      0x00\n        /* \"#utility.yul\":9537:9561   */\n      tag_236\n        /* \"#utility.yul\":9555:9560   */\n      dup3\n        /* \"#utility.yul\":9537:9561   */\n      tag_108\n      jump\t// in\n    tag_236:\n        /* \"#utility.yul\":9528:9561   */\n      swap2\n      pop\n        /* \"#utility.yul\":9583:9649   */\n      0xffffffffffffffffffffffffffffffffffffffffffffffffffffffffffffffff\n        /* \"#utility.yul\":9576:9581   */\n      dup3\n        /* \"#utility.yul\":9573:9650   */\n      sub\n        /* \"#utility.yul\":9570:9673   */\n      tag_237\n      jumpi\n        /* \"#utility.yul\":9653:9671   */\n      tag_238\n      tag_127\n      jump\t// in\n    tag_238:\n        /* \"#utility.yul\":9570:9673   */\n    tag_237:\n        /* \"#utility.yul\":9700:9701   */\n      0x01\n        /* \"#utility.yul\":9693:9698   */\n      dup3\n        /* \"#utility.yul\":9689:9702   */\n      add\n        /* \"#utility.yul\":9682:9702   */\n      swap1\n      pop\n        /* \"#utility.yul\":9475:9708   */\n      swap2\n      swap1\n      pop\n      jump\t// out\n\n    auxdata: 0xa2646970667358221220f941c6acdfeeca0e2bc480f871f703fb1b06abdb74dfec1495e52b45cb93592c64736f6c63430008120033\n}\n",
				"bytecode": {
					"linkReferences": {},
					"object": "608060405234801561001057600080fd5b50610a7e806100206000396000f3fe608060405234801561001057600080fd5b50600436106100365760003560e01c806322e6c9f21461003b5780637303f9a51461006b575b600080fd5b61005560048036038101906100509190610515565b61009b565b604051610062919061067f565b60405180910390f35b61008560048036038101906100809190610515565b6100d0565b604051610092919061067f565b60405180910390f35b6100a36104ca565b6100c8826100b090610888565b846100ba90610888565b61010590919063ffffffff16565b905092915050565b6100d86104ca565b6100fd826100e590610888565b846100ef90610888565b6102f990919063ffffffff16565b905092915050565b61010d6104ca565b6101156104ca565b82600001515184600001515161012b91906108ca565b67ffffffffffffffff811115610144576101436106b7565b5b6040519080825280602002602001820160405280156101725781602001602082028036833780820191505090505b50816000018190525060005b8460000151518110156102ee576000805b8560000151518110156102a5576000846000015182856101af91906108ca565b815181106101c0576101bf6108fe565b5b602002602001015183886000015184815181106101e0576101df6108fe565b5b60200260200101518a6000015187815181106101ff576101fe6108fe565b5b6020026020010151610211919061092d565b61021b91906108ca565b61022591906108ca565b905070010000000000000000000000000000000081610244919061099e565b8560000151838661025591906108ca565b81518110610266576102656108fe565b5b6020026020010181815250507001000000000000000000000000000000008161028f91906109cf565b925050808061029d90610a00565b91505061018f565b50808360000151866000015151846102bd91906108ca565b815181106102ce576102cd6108fe565b5b6020026020010181815250505080806102e690610a00565b91505061017e565b508091505092915050565b6103016104ca565b60006103178460000151518460000151516104b0565b90506103216104ca565b60018261032e91906108ca565b67ffffffffffffffff811115610347576103466106b7565b5b6040519080825280602002602001820160405280156103755781602001602082028036833780820191505090505b5081600001819052506000805b838110156104765760008290508760000151518210156103c957876000015182815181106103b3576103b26108fe565b5b6020026020010151816103c691906108ca565b90505b86600001515182101561040357866000015182815181106103ed576103ec6108fe565b5b60200260200101518161040091906108ca565b90505b70010000000000000000000000000000000081610420919061099e565b84600001518381518110610437576104366108fe565b5b6020026020010181815250507001000000000000000000000000000000008161046091906109cf565b925050808061046e90610a00565b915050610382565b50600081146104a4578082600001518481518110610497576104966108fe565b5b6020026020010181815250505b81935050505092915050565b6000818310156104c057816104c2565b825b905092915050565b6040518060200160405280606081525090565b6000604051905090565b600080fd5b600080fd5b600080fd5b60006020828403121561050c5761050b6104f1565b5b81905092915050565b6000806040838503121561052c5761052b6104e7565b5b600083013567ffffffffffffffff81111561054a576105496104ec565b5b610556858286016104f6565b925050602083013567ffffffffffffffff811115610577576105766104ec565b5b610583858286016104f6565b9150509250929050565b600081519050919050565b600082825260208201905092915050565b6000819050602082019050919050565b6000819050919050565b6105cc816105b9565b82525050565b60006105de83836105c3565b60208301905092915050565b6000602082019050919050565b60006106028261058d565b61060c8185610598565b9350610617836105a9565b8060005b8381101561064857815161062f88826105d2565b975061063a836105ea565b92505060018101905061061b565b5085935050505092915050565b6000602083016000830151848203600086015261067282826105f7565b9150508091505092915050565b600060208201905081810360008301526106998184610655565b905092915050565b600080fd5b6000601f19601f8301169050919050565b7f4e487b7100000000000000000000000000000000000000000000000000000000600052604160045260246000fd5b6106ef826106a6565b810181811067ffffffffffffffff8211171561070e5761070d6106b7565b5b80604052505050565b60006107216104dd565b905061072d82826106e6565b919050565b600080fd5b600080fd5b600067ffffffffffffffff821115610757576107566106b7565b5b602082029050602081019050919050565b600080fd5b610776816105b9565b811461078157600080fd5b50565b6000813590506107938161076d565b92915050565b60006107ac6107a78461073c565b610717565b905080838252602082019050602084028301858111156107cf576107ce610768565b5b835b818110156107f857806107e48882610784565b8452602084019350506020810190506107d1565b5050509392505050565b600082601f83011261081757610816610737565b5b8135610827848260208601610799565b91505092915050565b600060208284031215610846576108456106a1565b5b6108506020610717565b9050600082013567ffffffffffffffff8111156108705761086f610732565b5b61087c84828501610802565b60008301525092915050565b60006108943683610830565b9050919050565b7f4e487b7100000000000000000000000000000000000000000000000000000000600052601160045260246000fd5b60006108d5826105b9565b91506108e0836105b9565b92508282019050808211156108f8576108f761089b565b5b92915050565b7f4e487b7100000000000000000000000000000000000000000000000000000000600052603260045260246000fd5b6000610938826105b9565b9150610943836105b9565b9250828202610951816105b9565b915082820484148315176109685761096761089b565b5b5092915050565b7f4e487b7100000000000000000000000000000000000000000000000000000000600052601260045260246000fd5b60006109a9826105b9565b91506109b4836105b9565b9250826109c4576109c361096f565b5b828206905092915050565b60006109da826105b9565b91506109e5836105b9565b9250826109f5576109f461096f565b5b828204905092915050565b6000610a0b826105b9565b91507fffffffffffffffffffffffffffffffffffffffffffffffffffffffffffffffff8203610a3d57610a3c61089b565b5b60018201905091905056fea2646970667358221220f941c6acdfeeca0e2bc480f871f703fb1b06abdb74dfec1495e52b45cb93592c64736f6c63430008120033",
					"opcodes": "PUSH1 0x80 PUSH1 0x40 MSTORE CALLVALUE DUP1 ISZERO PUSH2 0x10 JUMPI PUSH1 0x0 DUP1 REVERT JUMPDEST POP PUSH2 0xA7E DUP1 PUSH2 0x20 PUSH1 0x0 CODECOPY PUSH1 0x0 RETURN INVALID PUSH1 0x80 PUSH1 0x40 MSTORE CALLVALUE DUP1 ISZERO PUSH2 0x10 JUMPI PUSH1 0x0 DUP1 REVERT JUMPDEST POP PUSH1 0x4 CALLDATASIZE LT PUSH2 0x36 JUMPI PUSH1 0x0 CALLDATALOAD PUSH1 0xE0 SHR DUP1 PUSH4 0x22E6C9F2 EQ PUSH2 0x3B JUMPI DUP1 PUSH4 0x7303F9A5 EQ PUSH2 0x6B JUMPI JUMPDEST PUSH1 0x0 DUP1 REVERT JUMPDEST PUSH2 0x55 PUSH1 0x4 DUP1 CALLDATASIZE SUB DUP2 ADD SWAP1 PUSH2 0x50 SWAP2 SWAP1 PUSH2 0x515 JUMP JUMPDEST PUSH2 0x9B JUMP JUMPDEST PUSH1 0x40 MLOAD PUSH2 0x62 SWAP2 SWAP1 PUSH2 0x67F JUMP JUMPDEST PUSH1 0x40 MLOAD DUP1 SWAP2 SUB SWAP1 RETURN JUMPDEST PUSH2 0x85 PUSH1 0x4 DUP1 CALLDATASIZE SUB DUP2 ADD SWAP1 PUSH2 0x80 SWAP2 SWAP1 PUSH2 0x515 JUMP JUMPDEST PUSH2 0xD0 JUMP JUMPDEST PUSH1 0x40 MLOAD PUSH2 0x92 SWAP2 SWAP1 PUSH2 0x67F JUMP JUMPDEST PUSH1 0x40 MLOAD DUP1 SWAP2 SUB SWAP1 RETURN JUMPDEST PUSH2 0xA3 PUSH2 0x4CA JUMP JUMPDEST PUSH2 0xC8 DUP3 PUSH2 0xB0 SWAP1 PUSH2 0x888 JUMP JUMPDEST DUP5 PUSH2 0xBA SWAP1 PUSH2 0x888 JUMP JUMPDEST PUSH2 0x105 SWAP1 SWAP2 SWAP1 PUSH4 0xFFFFFFFF AND JUMP JUMPDEST SWAP1 POP SWAP3 SWAP2 POP POP JUMP JUMPDEST PUSH2 0xD8 PUSH2 0x4CA JUMP JUMPDEST PUSH2 0xFD DUP3 PUSH2 0xE5 SWAP1 PUSH2 0x888 JUMP JUMPDEST DUP5 PUSH2 0xEF SWAP1 PUSH2 0x888 JUMP JUMPDEST PUSH2 0x2F9 SWAP1 SWAP2 SWAP1 PUSH4 0xFFFFFFFF AND JUMP JUMPDEST SWAP1 POP SWAP3 SWAP2 POP POP JUMP JUMPDEST PUSH2 0x10D PUSH2 0x4CA JUMP JUMPDEST PUSH2 0x115 PUSH2 0x4CA JUMP JUMPDEST DUP3 PUSH1 0x0 ADD MLOAD MLOAD DUP5 PUSH1 0x0 ADD MLOAD MLOAD PUSH2 0x12B SWAP2 SWAP1 PUSH2 0x8CA JUMP JUMPDEST PUSH8 0xFFFFFFFFFFFFFFFF DUP2 GT ISZERO PUSH2 0x144 JUMPI PUSH2 0x143 PUSH2 0x6B7 JUMP JUMPDEST JUMPDEST PUSH1 0x40 MLOAD SWAP1 DUP1 DUP3 MSTORE DUP1 PUSH1 0x20 MUL PUSH1 0x20 ADD DUP3 ADD PUSH1 0x40 MSTORE DUP1 ISZERO PUSH2 0x172 JUMPI DUP2 PUSH1 0x20 ADD PUSH1 0x20 DUP3 MUL DUP1 CALLDATASIZE DUP4 CALLDATACOPY DUP1 DUP3 ADD SWAP2 POP POP SWAP1 POP JUMPDEST POP DUP2 PUSH1 0x0 ADD DUP2 SWAP1 MSTORE POP PUSH1 0x0 JUMPDEST DUP5 PUSH1 0x0 ADD MLOAD MLOAD DUP2 LT ISZERO PUSH2 0x2EE JUMPI PUSH1 0x0 DUP1 JUMPDEST DUP6 PUSH1 0x0 ADD MLOAD MLOAD DUP2 LT ISZERO PUSH2 0x2A5 JUMPI PUSH1 0x0 DUP5 PUSH1 0x0 ADD MLOAD DUP3 DUP6 PUSH2 0x1AF SWAP2 SWAP1 PUSH2 0x8CA JUMP JUMPDEST DUP2 MLOAD DUP2 LT PUSH2 0x1C0 JUMPI PUSH2 0x1BF PUSH2 0x8FE JUMP JUMPDEST JUMPDEST PUSH1 0x20 MUL PUSH1 0x20 ADD ADD MLOAD DUP4 DUP9 PUSH1 0x0 ADD MLOAD DUP5 DUP2 MLOAD DUP2 LT PUSH2 0x1E0 JUMPI PUSH2 0x1DF PUSH2 0x8FE JUMP JUMPDEST JUMPDEST PUSH1 0x20 MUL PUSH1 0x20 ADD ADD MLOAD DUP11 PUSH1 0x0 ADD MLOAD DUP8 DUP2 MLOAD DUP2 LT PUSH2 0x1FF JUMPI PUSH2 0x1FE PUSH2 0x8FE JUMP JUMPDEST JUMPDEST PUSH1 0x20 MUL PUSH1 0x20 ADD ADD MLOAD PUSH2 0x211 SWAP2 SWAP1 PUSH2 0x92D JUMP JUMPDEST PUSH2 0x21B SWAP2 SWAP1 PUSH2 0x8CA JUMP JUMPDEST PUSH2 0x225 SWAP2 SWAP1 PUSH2 0x8CA JUMP JUMPDEST SWAP1 POP PUSH17 0x100000000000000000000000000000000 DUP2 PUSH2 0x244 SWAP2 SWAP1 PUSH2 0x99E JUMP JUMPDEST DUP6 PUSH1 0x0 ADD MLOAD DUP4 DUP7 PUSH2 0x255 SWAP2 SWAP1 PUSH2 0x8CA JUMP JUMPDEST DUP2 MLOAD DUP2 LT PUSH2 0x266 JUMPI PUSH2 0x265 PUSH2 0x8FE JUMP JUMPDEST JUMPDEST PUSH1 0x20 MUL PUSH1 0x20 ADD ADD DUP2 DUP2 MSTORE POP POP PUSH17 0x100000000000000000000000000000000 DUP2 PUSH2 0x28F SWAP2 SWAP1 PUSH2 0x9CF JUMP JUMPDEST SWAP3 POP POP DUP1 DUP1 PUSH2 0x29D SWAP1 PUSH2 0xA00 JUMP JUMPDEST SWAP2 POP POP PUSH2 0x18F JUMP JUMPDEST POP DUP1 DUP4 PUSH1 0x0 ADD MLOAD DUP7 PUSH1 0x0 ADD MLOAD MLOAD DUP5 PUSH2 0x2BD SWAP2 SWAP1 PUSH2 0x8CA JUMP JUMPDEST DUP2 MLOAD DUP2 LT PUSH2 0x2CE JUMPI PUSH2 0x2CD PUSH2 0x8FE JUMP JUMPDEST JUMPDEST PUSH1 0x20 MUL PUSH1 0x20 ADD ADD DUP2 DUP2 MSTORE POP POP POP DUP1 DUP1 PUSH2 0x2E6 SWAP1 PUSH2 0xA00 JUMP JUMPDEST SWAP2 POP POP PUSH2 0x17E JUMP JUMPDEST POP DUP1 SWAP2 POP POP SWAP3 SWAP2 POP POP JUMP JUMPDEST PUSH2 0x301 PUSH2 0x4CA JUMP JUMPDEST PUSH1 0x0 PUSH2 0x317 DUP5 PUSH1 0x0 ADD MLOAD MLOAD DUP5 PUSH1 0x0 ADD MLOAD MLOAD PUSH2 0x4B0 JUMP JUMPDEST SWAP1 POP PUSH2 0x321 PUSH2 0x4CA JUMP JUMPDEST PUSH1 0x1 DUP3 PUSH2 0x32E SWAP2 SWAP1 PUSH2 0x8CA JUMP JUMPDEST PUSH8 0xFFFFFFFFFFFFFFFF DUP2 GT ISZERO PUSH2 0x347 JUMPI PUSH2 0x346 PUSH2 0x6B7 JUMP JUMPDEST JUMPDEST PUSH1 0x40 MLOAD SWAP1 DUP1 DUP3 MSTORE DUP1 PUSH1 0x20 MUL PUSH1 0x20 ADD DUP3 ADD PUSH1 0x40 MSTORE DUP1 ISZERO PUSH2 0x375 JUMPI DUP2 PUSH1 0x20 ADD PUSH1 0x20 DUP3 MUL DUP1 CALLDATASIZE DUP4 CALLDATACOPY DUP1 DUP3 ADD SWAP2 POP POP SWAP1 POP JUMPDEST POP DUP2 PUSH1 0x0 ADD DUP2 SWAP1 MSTORE POP PUSH1 0x0 DUP1 JUMPDEST DUP4 DUP2 LT ISZERO PUSH2 0x476 JUMPI PUSH1 0x0 DUP3 SWAP1 POP DUP8 PUSH1 0x0 ADD MLOAD MLOAD DUP3 LT ISZERO PUSH2 0x3C9 JUMPI DUP8 PUSH1 0x0 ADD MLOAD DUP3 DUP2 MLOAD DUP2 LT PUSH2 0x3B3 JUMPI PUSH2 0x3B2 PUSH2 0x8FE JUMP JUMPDEST JUMPDEST PUSH1 0x20 MUL PUSH1 0x20 ADD ADD MLOAD DUP2 PUSH2 0x3C6 SWAP2 SWAP1 PUSH2 0x8CA JUMP JUMPDEST SWAP1 POP JUMPDEST DUP7 PUSH1 0x0 ADD MLOAD MLOAD DUP3 LT ISZERO PUSH2 0x403 JUMPI DUP7 PUSH1 0x0 ADD MLOAD DUP3 DUP2 MLOAD DUP2 LT PUSH2 0x3ED JUMPI PUSH2 0x3EC PUSH2 0x8FE JUMP JUMPDEST JUMPDEST PUSH1 0x20 MUL PUSH1 0x20 ADD ADD MLOAD DUP2 PUSH2 0x400 SWAP2 SWAP1 PUSH2 0x8CA JUMP JUMPDEST SWAP1 POP JUMPDEST PUSH17 0x100000000000000000000000000000000 DUP2 PUSH2 0x420 SWAP2 SWAP1 PUSH2 0x99E JUMP JUMPDEST DUP5 PUSH1 0x0 ADD MLOAD DUP4 DUP2 MLOAD DUP2 LT PUSH2 0x437 JUMPI PUSH2 0x436 PUSH2 0x8FE JUMP JUMPDEST JUMPDEST PUSH1 0x20 MUL PUSH1 0x20 ADD ADD DUP2 DUP2 MSTORE POP POP PUSH17 0x100000000000000000000000000000000 DUP2 PUSH2 0x460 SWAP2 SWAP1 PUSH2 0x9CF JUMP JUMPDEST SWAP3 POP POP DUP1 DUP1 PUSH2 0x46E SWAP1 PUSH2 0xA00 JUMP JUMPDEST SWAP2 POP POP PUSH2 0x382 JUMP JUMPDEST POP PUSH1 0x0 DUP2 EQ PUSH2 0x4A4 JUMPI DUP1 DUP3 PUSH1 0x0 ADD MLOAD DUP5 DUP2 MLOAD DUP2 LT PUSH2 0x497 JUMPI PUSH2 0x496 PUSH2 0x8FE JUMP JUMPDEST JUMPDEST PUSH1 0x20 MUL PUSH1 0x20 ADD ADD DUP2 DUP2 MSTORE POP POP JUMPDEST DUP2 SWAP4 POP POP POP POP SWAP3 SWAP2 POP POP JUMP JUMPDEST PUSH1 0x0 DUP2 DUP4 LT ISZERO PUSH2 0x4C0 JUMPI DUP2 PUSH2 0x4C2 JUMP JUMPDEST DUP3 JUMPDEST SWAP1 POP SWAP3 SWAP2 POP POP JUMP JUMPDEST PUSH1 0x40 MLOAD DUP1 PUSH1 0x20 ADD PUSH1 0x40 MSTORE DUP1 PUSH1 0x60 DUP2 MSTORE POP SWAP1 JUMP JUMPDEST PUSH1 0x0 PUSH1 0x40 MLOAD SWAP1 POP SWAP1 JUMP JUMPDEST PUSH1 0x0 DUP1 REVERT JUMPDEST PUSH1 0x0 DUP1 REVERT JUMPDEST PUSH1 0x0 DUP1 REVERT JUMPDEST PUSH1 0x0 PUSH1 0x20 DUP3 DUP5 SUB SLT ISZERO PUSH2 0x50C JUMPI PUSH2 0x50B PUSH2 0x4F1 JUMP JUMPDEST JUMPDEST DUP2 SWAP1 POP SWAP3 SWAP2 POP POP JUMP JUMPDEST PUSH1 0x0 DUP1 PUSH1 0x40 DUP4 DUP6 SUB SLT ISZERO PUSH2 0x52C JUMPI PUSH2 0x52B PUSH2 0x4E7 JUMP JUMPDEST JUMPDEST PUSH1 0x0 DUP4 ADD CALLDATALOAD PUSH8 0xFFFFFFFFFFFFFFFF DUP2 GT ISZERO PUSH2 0x54A JUMPI PUSH2 0x549 PUSH2 0x4EC JUMP JUMPDEST JUMPDEST PUSH2 0x556 DUP6 DUP3 DUP7 ADD PUSH2 0x4F6 JUMP JUMPDEST SWAP3 POP POP PUSH1 0x20 DUP4 ADD CALLDATALOAD PUSH8 0xFFFFFFFFFFFFFFFF DUP2 GT ISZERO PUSH2 0x577 JUMPI PUSH2 0x576 PUSH2 0x4EC JUMP JUMPDEST JUMPDEST PUSH2 0x583 DUP6 DUP3 DUP7 ADD PUSH2 0x4F6 JUMP JUMPDEST SWAP2 POP POP SWAP3 POP SWAP3 SWAP1 POP JUMP JUMPDEST PUSH1 0x0 DUP2 MLOAD SWAP1 POP SWAP2 SWAP1 POP JUMP JUMPDEST PUSH1 0x0 DUP3 DUP3 MSTORE PUSH1 0x20 DUP3 ADD SWAP1 POP SWAP3 SWAP2 POP POP JUMP JUMPDEST PUSH1 0x0 DUP2 SWAP1 POP PUSH1 0x20 DUP3 ADD SWAP1 POP SWAP2 SWAP1 POP JUMP JUMPDEST PUSH1 0x0 DUP2 SWAP1 POP SWAP2 SWAP1 POP JUMP JUMPDEST PUSH2 0x5CC DUP2 PUSH2 0x5B9 JUMP JUMPDEST DUP3 MSTORE POP POP JUMP JUMPDEST PUSH1 0x0 PUSH2 0x5DE DUP4 DUP4 PUSH2 0x5C3 JUMP JUMPDEST PUSH1 0x20 DUP4 ADD SWAP1 POP SWAP3 SWAP2 POP POP JUMP JUMPDEST PUSH1 0x0 PUSH1 0x20 DUP3 ADD SWAP1 POP SWAP2 SWAP1 POP JUMP JUMPDEST PUSH1 0x0 PUSH2 0x602 DUP3 PUSH2 0x58D JUMP JUMPDEST PUSH2 0x60C DUP2 DUP6 PUSH2 0x598 JUMP JUMPDEST SWAP4 POP PUSH2 0x617 DUP4 PUSH2 0x5A9 JUMP JUMPDEST DUP1 PUSH1 0x0 JUMPDEST DUP4 DUP2 LT ISZERO PUSH2 0x648 JUMPI DUP2 MLOAD PUSH2 0x62F DUP9 DUP3 PUSH2 0x5D2 JUMP JUMPDEST SWAP8 POP PUSH2 0x63A DUP4 PUSH2 0x5EA JUMP JUMPDEST SWAP3 POP POP PUSH1 0x1 DUP2 ADD SWAP1 POP PUSH2 0x61B JUMP JUMPDEST POP DUP6 SWAP4 POP POP POP POP SWAP3 SWAP2 POP POP JUMP JUMPDEST PUSH1 0x0 PUSH1 0x20 DUP4 ADD PUSH1 0x0 DUP4 ADD MLOAD DUP5 DUP3 SUB PUSH1 0x0 DUP7 ADD MSTORE PUSH2 0x672 DUP3 DUP3 PUSH2 0x5F7 JUMP JUMPDEST SWAP2 POP POP DUP1 SWAP2 POP POP SWAP3 SWAP2 POP POP JUMP JUMPDEST PUSH1 0x0 PUSH1 0x20 DUP3 ADD SWAP1 POP DUP2 DUP2 SUB PUSH1 0x0 DUP4 ADD MSTORE PUSH2 0x699 DUP2 DUP5 PUSH2 0x655 JUMP JUMPDEST SWAP1 POP SWAP3 SWAP2 POP POP JUMP JUMPDEST PUSH1 0x0 DUP1 REVERT JUMPDEST PUSH1 0x0 PUSH1 0x1F NOT PUSH1 0x1F DUP4 ADD AND SWAP1 POP SWAP2 SWAP1 POP JUMP JUMPDEST PUSH32 0x4E487B7100000000000000000000000000000000000000000000000000000000 PUSH1 0x0 MSTORE PUSH1 0x41 PUSH1 0x4 MSTORE PUSH1 0x24 PUSH1 0x0 REVERT JUMPDEST PUSH2 0x6EF DUP3 PUSH2 0x6A6 JUMP JUMPDEST DUP2 ADD DUP2 DUP2 LT PUSH8 0xFFFFFFFFFFFFFFFF DUP3 GT OR ISZERO PUSH2 0x70E JUMPI PUSH2 0x70D PUSH2 0x6B7 JUMP JUMPDEST JUMPDEST DUP1 PUSH1 0x40 MSTORE POP POP POP JUMP JUMPDEST PUSH1 0x0 PUSH2 0x721 PUSH2 0x4DD JUMP JUMPDEST SWAP1 POP PUSH2 0x72D DUP3 DUP3 PUSH2 0x6E6 JUMP JUMPDEST SWAP2 SWAP1 POP JUMP JUMPDEST PUSH1 0x0 DUP1 REVERT JUMPDEST PUSH1 0x0 DUP1 REVERT JUMPDEST PUSH1 0x0 PUSH8 0xFFFFFFFFFFFFFFFF DUP3 GT ISZERO PUSH2 0x757 JUMPI PUSH2 0x756 PUSH2 0x6B7 JUMP JUMPDEST JUMPDEST PUSH1 0x20 DUP3 MUL SWAP1 POP PUSH1 0x20 DUP2 ADD SWAP1 POP SWAP2 SWAP1 POP JUMP JUMPDEST PUSH1 0x0 DUP1 REVERT JUMPDEST PUSH2 0x776 DUP2 PUSH2 0x5B9 JUMP JUMPDEST DUP2 EQ PUSH2 0x781 JUMPI PUSH1 0x0 DUP1 REVERT JUMPDEST POP JUMP JUMPDEST PUSH1 0x0 DUP2 CALLDATALOAD SWAP1 POP PUSH2 0x793 DUP2 PUSH2 0x76D JUMP JUMPDEST SWAP3 SWAP2 POP POP JUMP JUMPDEST PUSH1 0x0 PUSH2 0x7AC PUSH2 0x7A7 DUP5 PUSH2 0x73C JUMP JUMPDEST PUSH2 0x717 JUMP JUMPDEST SWAP1 POP DUP1 DUP4 DUP3 MSTORE PUSH1 0x20 DUP3 ADD SWAP1 POP PUSH1 0x20 DUP5 MUL DUP4 ADD DUP6 DUP2 GT ISZERO PUSH2 0x7CF JUMPI PUSH2 0x7CE PUSH2 0x768 JUMP JUMPDEST JUMPDEST DUP4 JUMPDEST DUP2 DUP2 LT ISZERO PUSH2 0x7F8 JUMPI DUP1 PUSH2 0x7E4 DUP9 DUP3 PUSH2 0x784 JUMP JUMPDEST DUP5 MSTORE PUSH1 0x20 DUP5 ADD SWAP4 POP POP PUSH1 0x20 DUP2 ADD SWAP1 POP PUSH2 0x7D1 JUMP JUMPDEST POP POP POP SWAP4 SWAP3 POP POP POP JUMP JUMPDEST PUSH1 0x0 DUP3 PUSH1 0x1F DUP4 ADD SLT PUSH2 0x817 JUMPI PUSH2 0x816 PUSH2 0x737 JUMP JUMPDEST JUMPDEST DUP2 CALLDATALOAD PUSH2 0x827 DUP5 DUP3 PUSH1 0x20 DUP7 ADD PUSH2 0x799 JUMP JUMPDEST SWAP2 POP POP SWAP3 SWAP2 POP POP JUMP JUMPDEST PUSH1 0x0 PUSH1 0x20 DUP3 DUP5 SUB SLT ISZERO PUSH2 0x846 JUMPI PUSH2 0x845 PUSH2 0x6A1 JUMP JUMPDEST JUMPDEST PUSH2 0x850 PUSH1 0x20 PUSH2 0x717 JUMP JUMPDEST SWAP1 POP PUSH1 0x0 DUP3 ADD CALLDATALOAD PUSH8 0xFFFFFFFFFFFFFFFF DUP2 GT ISZERO PUSH2 0x870 JUMPI PUSH2 0x86F PUSH2 0x732 JUMP JUMPDEST JUMPDEST PUSH2 0x87C DUP5 DUP3 DUP6 ADD PUSH2 0x802 JUMP JUMPDEST PUSH1 0x0 DUP4 ADD MSTORE POP SWAP3 SWAP2 POP POP JUMP JUMPDEST PUSH1 0x0 PUSH2 0x894 CALLDATASIZE DUP4 PUSH2 0x830 JUMP JUMPDEST SWAP1 POP SWAP2 SWAP1 POP JUMP JUMPDEST PUSH32 0x4E487B7100000000000000000000000000000000000000000000000000000000 PUSH1 0x0 MSTORE PUSH1 0x11 PUSH1 0x4 MSTORE PUSH1 0x24 PUSH1 0x0 REVERT JUMPDEST PUSH1 0x0 PUSH2 0x8D5 DUP3 PUSH2 0x5B9 JUMP JUMPDEST SWAP2 POP PUSH2 0x8E0 DUP4 PUSH2 0x5B9 JUMP JUMPDEST SWAP3 POP DUP3 DUP3 ADD SWAP1 POP DUP1 DUP3 GT ISZERO PUSH2 0x8F8 JUMPI PUSH2 0x8F7 PUSH2 0x89B JUMP JUMPDEST JUMPDEST SWAP3 SWAP2 POP POP JUMP JUMPDEST PUSH32 0x4E487B7100000000000000000000000000000000000000000000000000000000 PUSH1 0x0 MSTORE PUSH1 0x32 PUSH1 0x4 MSTORE PUSH1 0x24 PUSH1 0x0 REVERT JUMPDEST PUSH1 0x0 PUSH2 0x938 DUP3 PUSH2 0x5B9 JUMP JUMPDEST SWAP2 POP PUSH2 0x943 DUP4 PUSH2 0x5B9 JUMP JUMPDEST SWAP3 POP DUP3 DUP3 MUL PUSH2 0x951 DUP2 PUSH2 0x5B9 JUMP JUMPDEST SWAP2 POP DUP3 DUP3 DIV DUP5 EQ DUP4 ISZERO OR PUSH2 0x968 JUMPI PUSH2 0x967 PUSH2 0x89B JUMP JUMPDEST JUMPDEST POP SWAP3 SWAP2 POP POP JUMP JUMPDEST PUSH32 0x4E487B7100000000000000000000000000000000000000000000000000000000 PUSH1 0x0 MSTORE PUSH1 0x12 PUSH1 0x4 MSTORE PUSH1 0x24 PUSH1 0x0 REVERT JUMPDEST PUSH1 0x0 PUSH2 0x9A9 DUP3 PUSH2 0x5B9 JUMP JUMPDEST SWAP2 POP PUSH2 0x9B4 DUP4 PUSH2 0x5B9 JUMP JUMPDEST SWAP3 POP DUP3 PUSH2 0x9C4 JUMPI PUSH2 0x9C3 PUSH2 0x96F JUMP JUMPDEST JUMPDEST DUP3 DUP3 MOD SWAP1 POP SWAP3 SWAP2 POP POP JUMP JUMPDEST PUSH1 0x0 PUSH2 0x9DA DUP3 PUSH2 0x5B9 JUMP JUMPDEST SWAP2 POP PUSH2 0x9E5 DUP4 PUSH2 0x5B9 JUMP JUMPDEST SWAP3 POP DUP3 PUSH2 0x9F5 JUMPI PUSH2 0x9F4 PUSH2 0x96F JUMP JUMPDEST JUMPDEST DUP3 DUP3 DIV SWAP1 POP SWAP3 SWAP2 POP POP JUMP JUMPDEST PUSH1 0x0 PUSH2 0xA0B DUP3 PUSH2 0x5B9 JUMP JUMPDEST SWAP2 POP PUSH32 0xFFFFFFFFFFFFFFFFFFFFFFFFFFFFFFFFFFFFFFFFFFFFFFFFFFFFFFFFFFFFFFFF DUP3 SUB PUSH2 0xA3D JUMPI PUSH2 0xA3C PUSH2 0x89B JUMP JUMPDEST JUMPDEST PUSH1 0x1 DUP3 ADD SWAP1 POP SWAP2 SWAP1 POP JUMP INVALID LOG2 PUSH5 0x6970667358 0x22 SLT KECCAK256 0xF9 COINBASE 0xC6 0xAC 0xDF 0xEE 0xCA 0xE 0x2B 0xC4 DUP1 0xF8 PUSH18 0xF703FB1B06ABDB74DFEC1495E52B45CB9359 0x2C PUSH5 0x736F6C6343 STOP ADDMOD SLT STOP CALLER "
				},
				"gasEstimates": {
					"creation": {
						"codeDepositCost": "537200",
						"executionCost": "568",
						"totalCost": "537768"
					},
					"external": {
						"add((uint256[]),(uint256[]))": "infinite",
						"multiply((uint256[]),(uint256[]))": "infinite"
					}
				},
				"methodIdentifiers": {
					"add((uint256[]),(uint256[]))": "7303f9a5",
					"multiply((uint256[]),(uint256[]))": "22e6c9f2"
				}
			},
			"storageLayout": {
				"storage": [],
				"types": null
			},
			"userdoc": {
				"kind": "user",
				"methods": {},
				"version": 1
			}
		}
	}
}