{
  "abi": [
    {
      "inputs": [
        {
          "internalType": "address",
          "name": "_token",
          "type": "address"
        }
      ],
      "stateMutability": "nonpayable",
      "type": "constructor"
    },
    {
      "inputs": [],
      "name": "ETH_ADDRESS",
      "outputs": [
        {
          "internalType": "address",
          "name": "",
          "type": "address"
        }
      ],
      "stateMutability": "view",
      "type": "function"
    },
    {
      "inputs": [
        {
          "internalType": "uint256",
          "name": "x",
          "type": "uint256"
        }
      ],
      "name": "_sqrt",
      "outputs": [
        {
          "internalType": "uint256",
          "name": "",
          "type": "uint256"
        }
      ],
      "stateMutability": "pure",
      "type": "function"
    },
    {
      "inputs": [
        {
          "internalType": "uint256",
          "name": "_amount1",
          "type": "uint256"
        }
      ],
      "name": "addLiquidity",
      "outputs": [
        {
          "internalType": "uint256",
          "name": "shares",
          "type": "uint256"
        }
      ],
      "stateMutability": "payable",
      "type": "function"
    },
    {
      "inputs": [
        {
          "internalType": "address",
          "name": "",
          "type": "address"
        }
      ],
      "name": "balanceOf",
      "outputs": [
        {
          "internalType": "uint256",
          "name": "",
          "type": "uint256"
        }
      ],
      "stateMutability": "view",
      "type": "function"
    },
    {
      "inputs": [],
      "name": "getERCPrice",
      "outputs": [
        {
          "internalType": "uint256",
          "name": "",
          "type": "uint256"
        }
      ],
      "stateMutability": "view",
      "type": "function"
    },
    {
      "inputs": [],
      "name": "getETHPrice",
      "outputs": [
        {
          "internalType": "uint256",
          "name": "",
          "type": "uint256"
        }
      ],
      "stateMutability": "view",
      "type": "function"
    },
    {
      "inputs": [
        {
          "internalType": "uint256",
          "name": "_shares",
          "type": "uint256"
        }
      ],
      "name": "removeLiquidity",
      "outputs": [
        {
          "internalType": "uint256",
          "name": "amount0",
          "type": "uint256"
        },
        {
          "internalType": "uint256",
          "name": "amount1",
          "type": "uint256"
        }
      ],
      "stateMutability": "nonpayable",
      "type": "function"
    },
    {
      "inputs": [
        {
          "internalType": "address",
          "name": "_user",
          "type": "address"
        },
        {
          "internalType": "uint256",
          "name": "_shares",
          "type": "uint256"
        }
      ],
      "name": "removeLiquidity",
      "outputs": [
        {
          "internalType": "uint256",
          "name": "amount0",
          "type": "uint256"
        },
        {
          "internalType": "uint256",
          "name": "amount1",
          "type": "uint256"
        }
      ],
      "stateMutability": "nonpayable",
      "type": "function"
    },
    {
      "inputs": [],
      "name": "reserve0",
      "outputs": [
        {
          "internalType": "uint256",
          "name": "",
          "type": "uint256"
        }
      ],
      "stateMutability": "view",
      "type": "function"
    },
    {
      "inputs": [],
      "name": "reserve1",
      "outputs": [
        {
          "internalType": "uint256",
          "name": "",
          "type": "uint256"
        }
      ],
      "stateMutability": "view",
      "type": "function"
    },
    {
      "inputs": [
        {
          "internalType": "uint256",
          "name": "_amountIn",
          "type": "uint256"
        }
      ],
      "name": "swap",
      "outputs": [
        {
          "internalType": "uint256",
          "name": "amountOut",
          "type": "uint256"
        }
      ],
      "stateMutability": "payable",
      "type": "function"
    },
    {
      "inputs": [
        {
          "internalType": "uint256",
          "name": "_amountIn",
          "type": "uint256"
        }
      ],
      "name": "swapTokenForETH",
      "outputs": [
        {
          "internalType": "uint256",
          "name": "amountOut",
          "type": "uint256"
        }
      ],
      "stateMutability": "nonpayable",
      "type": "function"
    },
    {
      "inputs": [],
      "name": "token",
      "outputs": [
        {
          "internalType": "contract IERC20",
          "name": "",
          "type": "address"
        }
      ],
      "stateMutability": "view",
      "type": "function"
    },
    {
      "inputs": [],
      "name": "totalSupply",
      "outputs": [
        {
          "internalType": "uint256",
          "name": "",
          "type": "uint256"
        }
      ],
      "stateMutability": "view",
      "type": "function"
    }
  ],
  "bytecode": {
    "object": "0x60a060405234801561001057600080fd5b50604051610f20380380610f2083398101604081905261002f91610040565b6001600160a01b0316608052610070565b60006020828403121561005257600080fd5b81516001600160a01b038116811461006957600080fd5b9392505050565b608051610e566100ca60003960008181610273015281816102cf0152818161048701528181610624015281816106ea015281816107ca0152818161086301528181610a6f01528181610b730152610c3a0152610e566000f3fe6080604052600436106100dd5760003560e01c806394b918de1161007f578063a607a8d911610059578063a607a8d91461021f578063a734f06e14610234578063fc0c546a14610261578063fcc2ba081461029557600080fd5b806394b918de146101b75780639c8f9f23146101ca578063a201ccf6146101ff57600080fd5b80635a76f25e116100bb5780635a76f25e146101345780636a263f021461014a5780636fb84b741461016a57806370a082311461018a57600080fd5b806318160ddd146100e2578063443cb4bc1461010b57806351c6590a14610121575b600080fd5b3480156100ee57600080fd5b506100f860025481565b6040519081526020015b60405180910390f35b34801561011757600080fd5b506100f860005481565b6100f861012f366004610cf6565b6102aa565b34801561014057600080fd5b506100f860015481565b34801561015657600080fd5b506100f8610165366004610cf6565b610504565b34801561017657600080fd5b506100f8610185366004610cf6565b61056c565b34801561019657600080fd5b506100f86101a5366004610d2b565b60036020526000908152604090205481565b6100f86101c5366004610cf6565b610721565b3480156101d657600080fd5b506101ea6101e5366004610cf6565b610892565b60408051928352602083019190915201610102565b34801561020b57600080fd5b506101ea61021a366004610d46565b6108b6565b34801561022b57600080fd5b506100f86108e5565b34801561024057600080fd5b50610249600081565b6040516001600160a01b039091168152602001610102565b34801561026d57600080fd5b506102497f000000000000000000000000000000000000000000000000000000000000000081565b3480156102a157600080fd5b506100f861095f565b6040516323b872dd60e01b8152336004820152306024820152604481018290526000907f00000000000000000000000000000000000000000000000000000000000000006001600160a01b0316906323b872dd906064016020604051808303816000875af1158015610320573d6000803e3d6000fd5b505050506040513d601f19601f820116820180604052508101906103449190610d70565b50600054349015158061035957506000600154115b156103bf578060015461036c9190610da8565b8360005461037a9190610da8565b146103bf5760405162461bcd60e51b815260206004820152601060248201526f78202f207920213d206478202f20647960801b60448201526064015b60405180910390fd5b6002546000036103dd576103d66101658483610da8565b915061041d565b61041a600054600254836103f19190610da8565b6103fb9190610dbf565b60015460025461040b9087610da8565b6104159190610dbf565b6109ca565b91505b6000821161045a5760405162461bcd60e51b815260206004820152600a6024820152690736861726573203d20360b41b60448201526064016103b6565b61046433836109e5565b6040516370a0823160e01b81523060048201526104fe9047906001600160a01b037f000000000000000000000000000000000000000000000000000000000000000016906370a08231906024015b602060405180830381865afa1580156104cf573d6000803e3d6000fd5b505050506040513d601f19601f820116820180604052508101906104f39190610de1565b600091909155600155565b50919050565b60008160000361051657506000919050565b60006002610525846001610dfa565b61052f9190610dbf565b9050825b8082101561056557508060028161054a8187610dbf565b6105549190610dfa565b61055e9190610dbf565b9150610533565b9392505050565b6000806103e861057e846103e5610da8565b6105889190610dbf565b9050806001546105989190610dfa565b816000546105a69190610da8565b6105b09190610dbf565b9150600082116106025760405162461bcd60e51b815260206004820152601a60248201527f496e73756666696369656e74206f757470757420616d6f756e7400000000000060448201526064016103b6565b6040516323b872dd60e01b8152336004820152306024820152604481018490527f00000000000000000000000000000000000000000000000000000000000000006001600160a01b0316906323b872dd906064016020604051808303816000875af1158015610675573d6000803e3d6000fd5b505050506040513d601f19601f820116820180604052508101906106999190610d70565b50604051339083156108fc029084906000818181858888f193505050501580156106c7573d6000803e3d6000fd5b506104fe6106d58347610e0d565b6040516370a0823160e01b81523060048201527f00000000000000000000000000000000000000000000000000000000000000006001600160a01b0316906370a08231906024016104b2565b60008134146107685760405162461bcd60e51b815260206004820152601360248201527208aa89040c2dadeeadce840dad2e6dac2e8c6d606b1b60448201526064016103b6565b60006103e8610779846103e5610da8565b6107839190610dbf565b9050806000546107939190610dfa565b816001546107a19190610da8565b6107ab9190610dbf565b60405163a9059cbb60e01b8152336004820152602481018290529092507f00000000000000000000000000000000000000000000000000000000000000006001600160a01b03169063a9059cbb906044016020604051808303816000875af115801561081b573d6000803e3d6000fd5b505050506040513d601f19601f8201168201806040525081019061083f9190610d70565b506040516370a0823160e01b81523060048201526104fe9047906001600160a01b037f000000000000000000000000000000000000000000000000000000000000000016906370a08231906024016104b2565b3360009081526003602052604081205481906108ad90610a2f565b91509150915091565b6001600160a01b03821660009081526003602052604081205481906108da90610a2f565b915091509250929050565b6000806001546000546108f89190610dfa565b116109385760405162461bcd60e51b815260206004820152601060248201526f496e76616c696420726573657276657360801b60448201526064016103b6565b60005460015461095090670de0b6b3a7640000610da8565b61095a9190610dbf565b905090565b6000806001546000546109729190610dfa565b116109b25760405162461bcd60e51b815260206004820152601060248201526f496e76616c696420726573657276657360801b60448201526064016103b6565b60015460005461095090670de0b6b3a7640000610da8565b6000818311156109da57816109dc565b825b90505b92915050565b6001600160a01b03821660009081526003602052604081208054839290610a0d908490610dfa565b925050819055508060026000828254610a269190610dfa565b90915550505050565b6000806002544784610a419190610da8565b610a4b9190610dbf565b6002546040516370a0823160e01b8152306004820152919350906001600160a01b037f000000000000000000000000000000000000000000000000000000000000000016906370a0823190602401602060405180830381865afa158015610ab6573d6000803e3d6000fd5b505050506040513d601f19601f82011682018060405250810190610ada9190610de1565b610ae49085610da8565b610aee9190610dbf565b9050600082118015610b005750600081115b610b455760405162461bcd60e51b81526020600482015260166024820152750616d6f756e7430206f7220616d6f756e7431203d20360541b60448201526064016103b6565b610b4f3384610cb5565b610bf0610b5c8347610e0d565b6040516370a0823160e01b815230600482015283907f00000000000000000000000000000000000000000000000000000000000000006001600160a01b0316906370a0823190602401602060405180830381865afa158015610bc2573d6000803e3d6000fd5b505050506040513d601f19601f82011682018060405250810190610be69190610de1565b6104f39190610e0d565b604051339083156108fc029084906000818181858888f19350505050158015610c1d573d6000803e3d6000fd5b5060405163a9059cbb60e01b8152336004820152602481018290527f00000000000000000000000000000000000000000000000000000000000000006001600160a01b03169063a9059cbb906044016020604051808303816000875af1158015610c8b573d6000803e3d6000fd5b505050506040513d601f19601f82011682018060405250810190610caf9190610d70565b50915091565b6001600160a01b03821660009081526003602052604081208054839290610cdd908490610e0d565b925050819055508060026000828254610a269190610e0d565b600060208284031215610d0857600080fd5b5035919050565b80356001600160a01b0381168114610d2657600080fd5b919050565b600060208284031215610d3d57600080fd5b6109dc82610d0f565b60008060408385031215610d5957600080fd5b610d6283610d0f565b946020939093013593505050565b600060208284031215610d8257600080fd5b8151801515811461056557600080fd5b634e487b7160e01b600052601160045260246000fd5b80820281158282048414176109df576109df610d92565b600082610ddc57634e487b7160e01b600052601260045260246000fd5b500490565b600060208284031215610df357600080fd5b5051919050565b808201808211156109df576109df610d92565b818103818111156109df576109df610d9256fea2646970667358221220d946baa20fe6423926a747d734845370878f84e2dfae29f272cbb131d2590ee964736f6c63430008120033",
    "linkReferences": {}
  },
  "methodIdentifiers": {
    "ETH_ADDRESS()": "a734f06e",
    "_sqrt(uint256)": "6a263f02",
    "addLiquidity(uint256)": "51c6590a",
    "balanceOf(address)": "70a08231",
    "getERCPrice()": "fcc2ba08",
    "getETHPrice()": "a607a8d9",
    "removeLiquidity(address,uint256)": "a201ccf6",
    "removeLiquidity(uint256)": "9c8f9f23",
    "reserve0()": "443cb4bc",
    "reserve1()": "5a76f25e",
    "swap(uint256)": "94b918de",
    "swapTokenForETH(uint256)": "6fb84b74",
    "token()": "fc0c546a",
    "totalSupply()": "18160ddd"
  },
  "id": 22
}