{
  "abi": [
    {
      "inputs": [
        {
          "internalType": "address",
          "name": "_token",
          "type": "address"
        }
      ],
      "stateMutability": "nonpayable",
      "type": "constructor"
    },
    {
      "inputs": [],
      "name": "ETH_ADDRESS",
      "outputs": [
        {
          "internalType": "address",
          "name": "",
          "type": "address"
        }
      ],
      "stateMutability": "view",
      "type": "function"
    },
    {
      "inputs": [
        {
          "internalType": "uint256",
          "name": "_amount1",
          "type": "uint256"
        }
      ],
      "name": "addLiquidity",
      "outputs": [
        {
          "internalType": "uint256",
          "name": "shares",
          "type": "uint256"
        }
      ],
      "stateMutability": "payable",
      "type": "function"
    },
    {
      "inputs": [
        {
          "internalType": "address",
          "name": "",
          "type": "address"
        }
      ],
      "name": "balanceOf",
      "outputs": [
        {
          "internalType": "uint256",
          "name": "",
          "type": "uint256"
        }
      ],
      "stateMutability": "view",
      "type": "function"
    },
    {
      "inputs": [
        {
          "internalType": "uint256",
          "name": "amountIn",
          "type": "uint256"
        }
      ],
      "name": "calculateSlippage",
      "outputs": [
        {
          "internalType": "uint256",
          "name": "",
          "type": "uint256"
        }
      ],
      "stateMutability": "view",
      "type": "function"
    },
    {
      "inputs": [],
      "name": "getERCPrice",
      "outputs": [
        {
          "internalType": "uint256",
          "name": "",
          "type": "uint256"
        }
      ],
      "stateMutability": "view",
      "type": "function"
    },
    {
      "inputs": [],
      "name": "getETHPrice",
      "outputs": [
        {
          "internalType": "uint256",
          "name": "",
          "type": "uint256"
        }
      ],
      "stateMutability": "view",
      "type": "function"
    },
    {
      "inputs": [
        {
          "internalType": "uint256",
          "name": "_amount",
          "type": "uint256"
        }
      ],
      "name": "getPricePredictETH",
      "outputs": [
        {
          "internalType": "uint256",
          "name": "",
          "type": "uint256"
        }
      ],
      "stateMutability": "view",
      "type": "function"
    },
    {
      "inputs": [
        {
          "internalType": "uint256",
          "name": "_amount",
          "type": "uint256"
        }
      ],
      "name": "getPricePredicttGD",
      "outputs": [
        {
          "internalType": "uint256",
          "name": "",
          "type": "uint256"
        }
      ],
      "stateMutability": "view",
      "type": "function"
    },
    {
      "inputs": [],
      "name": "my_shars",
      "outputs": [
        {
          "internalType": "uint256",
          "name": "",
          "type": "uint256"
        }
      ],
      "stateMutability": "view",
      "type": "function"
    },
    {
      "inputs": [
        {
          "internalType": "address",
          "name": "_user",
          "type": "address"
        }
      ],
      "name": "removeAllLiquidity",
      "outputs": [
        {
          "internalType": "uint256",
          "name": "amount0",
          "type": "uint256"
        },
        {
          "internalType": "uint256",
          "name": "amount1",
          "type": "uint256"
        }
      ],
      "stateMutability": "nonpayable",
      "type": "function"
    },
    {
      "inputs": [
        {
          "internalType": "uint256",
          "name": "_shares",
          "type": "uint256"
        }
      ],
      "name": "removeLiquidity",
      "outputs": [
        {
          "internalType": "uint256",
          "name": "amount0",
          "type": "uint256"
        },
        {
          "internalType": "uint256",
          "name": "amount1",
          "type": "uint256"
        }
      ],
      "stateMutability": "nonpayable",
      "type": "function"
    },
    {
      "inputs": [
        {
          "internalType": "address",
          "name": "_user",
          "type": "address"
        },
        {
          "internalType": "uint256",
          "name": "_shares",
          "type": "uint256"
        }
      ],
      "name": "removeLiquidity",
      "outputs": [
        {
          "internalType": "uint256",
          "name": "amount0",
          "type": "uint256"
        },
        {
          "internalType": "uint256",
          "name": "amount1",
          "type": "uint256"
        }
      ],
      "stateMutability": "nonpayable",
      "type": "function"
    },
    {
      "inputs": [],
      "name": "reserve0",
      "outputs": [
        {
          "internalType": "uint256",
          "name": "",
          "type": "uint256"
        }
      ],
      "stateMutability": "view",
      "type": "function"
    },
    {
      "inputs": [],
      "name": "reserve1",
      "outputs": [
        {
          "internalType": "uint256",
          "name": "",
          "type": "uint256"
        }
      ],
      "stateMutability": "view",
      "type": "function"
    },
    {
      "inputs": [
        {
          "internalType": "address",
          "name": "_user",
          "type": "address"
        }
      ],
      "name": "sharesOf",
      "outputs": [
        {
          "internalType": "uint256",
          "name": "",
          "type": "uint256"
        }
      ],
      "stateMutability": "view",
      "type": "function"
    },
    {
      "inputs": [
        {
          "internalType": "uint256",
          "name": "_amountIn",
          "type": "uint256"
        }
      ],
      "name": "swap",
      "outputs": [
        {
          "internalType": "uint256",
          "name": "amountOut",
          "type": "uint256"
        }
      ],
      "stateMutability": "payable",
      "type": "function"
    },
    {
      "inputs": [
        {
          "internalType": "uint256",
          "name": "_amountIn",
          "type": "uint256"
        }
      ],
      "name": "swapTokenForETH",
      "outputs": [
        {
          "internalType": "uint256",
          "name": "amountOut",
          "type": "uint256"
        }
      ],
      "stateMutability": "nonpayable",
      "type": "function"
    },
    {
      "inputs": [],
      "name": "token",
      "outputs": [
        {
          "internalType": "contract IERC20",
          "name": "",
          "type": "address"
        }
      ],
      "stateMutability": "view",
      "type": "function"
    },
    {
      "inputs": [],
      "name": "totalSupply",
      "outputs": [
        {
          "internalType": "uint256",
          "name": "",
          "type": "uint256"
        }
      ],
      "stateMutability": "view",
      "type": "function"
    }
  ],
  "bytecode": {
    "object": "0x60a060405234801561001057600080fd5b5060405161137438038061137483398101604081905261002f91610040565b6001600160a01b0316608052610070565b60006020828403121561005257600080fd5b81516001600160a01b038116811461006957600080fd5b9392505050565b6080516112aa6100ca60003960008181610362015281816104aa015281816106b90152818161095f01528181610a2501528181610b3401528181610bcd01528181610e9101528181610f95015261106f01526112aa6000f3fe6080604052600436106101145760003560e01c806370a08231116100a0578063a607a8d911610064578063a607a8d9146102d8578063a734f06e146102ed578063f5eb42dc1461031a578063fc0c546a14610350578063fcc2ba081461038457600080fd5b806370a08231146102235780637a6a5e1b1461025057806394b918de146102855780639c8f9f2314610298578063a201ccf6146102b857600080fd5b806351c6590a116100e757806351c6590a146101985780635628570c146101ab5780635a76f25e146101cb5780636cae4f84146101e15780636fb84b741461020357600080fd5b806318160ddd146101195780633b84bcd51461014257806340c79a5f14610162578063443cb4bc14610182575b600080fd5b34801561012557600080fd5b5061012f60025481565b6040519081526020015b60405180910390f35b34801561014e57600080fd5b5061012f61015d366004611125565b610399565b34801561016e57600080fd5b5061012f61017d366004611125565b61041c565b34801561018e57600080fd5b5061012f60005481565b61012f6101a6366004611125565b610485565b3480156101b757600080fd5b5061012f6101c6366004611125565b610736565b3480156101d757600080fd5b5061012f60015481565b3480156101ed57600080fd5b503360009081526003602052604090205461012f565b34801561020f57600080fd5b5061012f61021e366004611125565b6108a7565b34801561022f57600080fd5b5061012f61023e366004611155565b60036020526000908152604090205481565b34801561025c57600080fd5b5061027061026b366004611155565b610a5c565b60408051928352602083019190915201610139565b61012f610293366004611125565b610a8b565b3480156102a457600080fd5b506102706102b3366004611125565b610bfc565b3480156102c457600080fd5b506102706102d3366004611170565b610c5e565b3480156102e457600080fd5b5061012f610cd4565b3480156102f957600080fd5b50610302600081565b6040516001600160a01b039091168152602001610139565b34801561032657600080fd5b5061012f610335366004611155565b6001600160a01b031660009081526003602052604090205490565b34801561035c57600080fd5b506103027f000000000000000000000000000000000000000000000000000000000000000081565b34801561039057600080fd5b5061012f610d2b565b6000806001546000546103ac91906111b0565b116103d25760405162461bcd60e51b81526004016103c9906111c3565b60405180910390fd5b60006103e86103e3846103e56111ed565b6103ed9190611204565b9050806000546103fd91906111b0565b8160015461040b91906111ed565b6104159190611204565b9392505050565b60008060015460005461042f91906111b0565b1161044c5760405162461bcd60e51b81526004016103c9906111c3565b60006103e861045d846103e56111ed565b6104679190611204565b90508060015461047791906111b0565b8160005461040b91906111ed565b6040516323b872dd60e01b8152336004820152306024820152604481018290526000907f00000000000000000000000000000000000000000000000000000000000000006001600160a01b0316906323b872dd906064016020604051808303816000875af11580156104fb573d6000803e3d6000fd5b505050506040513d601f19601f8201168201806040525081019061051f9190611226565b50600054349015158061053457506000600154115b156105ec578060015461054791906111ed565b8360005461055591906111ed565b146105ec57600080548260015461056c91906111ed565b6105769190611204565b9050808411156105a957600061058c8286611248565b9050610597816108a7565b6105a190846111b0565b9250506105e9565b6000600154600054836105bc91906111ed565b6105c69190611204565b6105d09084611248565b90506105db81610a8b565b6105e590866111b0565b9450505b92505b60025460000361060f5761060861060384836111ed565b610d73565b915061064f565b61064c6000546002548361062391906111ed565b61062d9190611204565b60015460025461063d90876111ed565b6106479190611204565b610ddd565b91505b6000821161068c5760405162461bcd60e51b815260206004820152600a6024820152690736861726573203d20360b41b60448201526064016103c9565b6106963383610df7565b6040516370a0823160e01b81523060048201526107309047906001600160a01b037f000000000000000000000000000000000000000000000000000000000000000016906370a08231906024015b602060405180830381865afa158015610701573d6000803e3d6000fd5b505050506040513d601f19601f82011682018060405250810190610725919061125b565b600091909155600155565b50919050565b600080821161077e5760405162461bcd60e51b8152602060048201526014602482015273125b9d985b1a59081a5b9c1d5d08185b5bdd5b9d60621b60448201526064016103c9565b60006103e861078f846103e56111ed565b6107999190611204565b90506000816000546107ab91906111b0565b826001546107b991906111ed565b6107c39190611204565b90506000811161080d5760405162461bcd60e51b8152602060048201526015602482015274125b9d985b1a59081bdd5d1c1d5d08185b5bdd5b9d605a1b60448201526064016103c9565b6000610817610d2b565b90506000670de0b6b3a764000061082e83886111ed565b6108389190611204565b905060008184111561086c578161084f8186611248565b61085b906103e86111ed565b6108659190611204565b9050610890565b816108778582611248565b610883906103e86111ed565b61088d9190611204565b90505b61089c816103e8610e41565b979650505050505050565b6000806103e86108b9846103e56111ed565b6108c39190611204565b9050806001546108d391906111b0565b816000546108e191906111ed565b6108eb9190611204565b91506000821161093d5760405162461bcd60e51b815260206004820152601a60248201527f496e73756666696369656e74206f757470757420616d6f756e7400000000000060448201526064016103c9565b6040516323b872dd60e01b8152336004820152306024820152604481018490527f00000000000000000000000000000000000000000000000000000000000000006001600160a01b0316906323b872dd906064016020604051808303816000875af11580156109b0573d6000803e3d6000fd5b505050506040513d601f19601f820116820180604052508101906109d49190611226565b50604051339083156108fc029084906000818181858888f19350505050158015610a02573d6000803e3d6000fd5b50610730610a108347611248565b6040516370a0823160e01b81523060048201527f00000000000000000000000000000000000000000000000000000000000000006001600160a01b0316906370a08231906024016106e4565b6001600160a01b0381166000908152600360205260408120548190610a82908490610e51565b91509150915091565b6000813414610ad25760405162461bcd60e51b815260206004820152601360248201527208aa89040c2dadeeadce840dad2e6dac2e8c6d606b1b60448201526064016103c9565b60006103e8610ae3846103e56111ed565b610aed9190611204565b905080600054610afd91906111b0565b81600154610b0b91906111ed565b610b159190611204565b60405163a9059cbb60e01b8152336004820152602481018290529092507f00000000000000000000000000000000000000000000000000000000000000006001600160a01b03169063a9059cbb906044016020604051808303816000875af1158015610b85573d6000803e3d6000fd5b505050506040513d601f19601f82011682018060405250810190610ba99190611226565b506040516370a0823160e01b81523060048201526107309047906001600160a01b037f000000000000000000000000000000000000000000000000000000000000000016906370a08231906024016106e4565b336000908152600360205260408120548190831115610c545760405162461bcd60e51b8152602060048201526014602482015273496e73756666696369656e742062616c616e636560601b60448201526064016103c9565b610a823384610e51565b6001600160a01b0382166000908152600360205260408120548190831115610cbf5760405162461bcd60e51b8152602060048201526014602482015273496e73756666696369656e742062616c616e636560601b60448201526064016103c9565b610cc98484610e51565b915091509250929050565b600080600154600054610ce791906111b0565b11610d045760405162461bcd60e51b81526004016103c9906111c3565b600054600154610d1c90670de0b6b3a76400006111ed565b610d269190611204565b905090565b600080600154600054610d3e91906111b0565b11610d5b5760405162461bcd60e51b81526004016103c9906111c3565b600154600054610d1c90670de0b6b3a76400006111ed565b60006003821115610dce5750806000610d8d600283611204565b610d989060016111b0565b90505b8181101561073057905080600281610db38186611204565b610dbd91906111b0565b610dc79190611204565b9050610d9b565b8115610dd8575060015b919050565b6000818310610dec5781610dee565b825b90505b92915050565b6001600160a01b03821660009081526003602052604081208054839290610e1f9084906111b0565b925050819055508060026000828254610e3891906111b0565b90915550505050565b600081831115610dec5781610dee565b6000806002544784610e6391906111ed565b610e6d9190611204565b6002546040516370a0823160e01b8152306004820152919350906001600160a01b037f000000000000000000000000000000000000000000000000000000000000000016906370a0823190602401602060405180830381865afa158015610ed8573d6000803e3d6000fd5b505050506040513d601f19601f82011682018060405250810190610efc919061125b565b610f0690856111ed565b610f109190611204565b9050600082118015610f225750600081115b610f675760405162461bcd60e51b81526020600482015260166024820152750616d6f756e7430206f7220616d6f756e7431203d20360541b60448201526064016103c9565b610f7184846110e4565b611012610f7e8347611248565b6040516370a0823160e01b815230600482015283907f00000000000000000000000000000000000000000000000000000000000000006001600160a01b0316906370a0823190602401602060405180830381865afa158015610fe4573d6000803e3d6000fd5b505050506040513d601f19601f82011682018060405250810190611008919061125b565b6107259190611248565b6040516001600160a01b0385169083156108fc029084906000818181858888f19350505050158015611048573d6000803e3d6000fd5b5060405163a9059cbb60e01b81526001600160a01b038581166004830152602482018390527f0000000000000000000000000000000000000000000000000000000000000000169063a9059cbb906044016020604051808303816000875af11580156110b8573d6000803e3d6000fd5b505050506040513d601f19601f820116820180604052508101906110dc9190611226565b509250929050565b6001600160a01b0382166000908152600360205260408120805483929061110c908490611248565b925050819055508060026000828254610e389190611248565b60006020828403121561113757600080fd5b5035919050565b80356001600160a01b0381168114610dd857600080fd5b60006020828403121561116757600080fd5b610dee8261113e565b6000806040838503121561118357600080fd5b61118c8361113e565b946020939093013593505050565b634e487b7160e01b600052601160045260246000fd5b80820180821115610df157610df161119a565b60208082526010908201526f496e76616c696420726573657276657360801b604082015260600190565b8082028115828204841417610df157610df161119a565b60008261122157634e487b7160e01b600052601260045260246000fd5b500490565b60006020828403121561123857600080fd5b8151801515811461041557600080fd5b81810381811115610df157610df161119a565b60006020828403121561126d57600080fd5b505191905056fea264697066735822122002b154ae081f78e76cfb458d69f0e5115eba43dd31c31d3d3bd9ae1559267fdb64736f6c63430008120033",
    "linkReferences": {}
  },
  "methodIdentifiers": {
    "ETH_ADDRESS()": "a734f06e",
    "addLiquidity(uint256)": "51c6590a",
    "balanceOf(address)": "70a08231",
    "calculateSlippage(uint256)": "5628570c",
    "getERCPrice()": "fcc2ba08",
    "getETHPrice()": "a607a8d9",
    "getPricePredictETH(uint256)": "40c79a5f",
    "getPricePredicttGD(uint256)": "3b84bcd5",
    "my_shars()": "6cae4f84",
    "removeAllLiquidity(address)": "7a6a5e1b",
    "removeLiquidity(address,uint256)": "a201ccf6",
    "removeLiquidity(uint256)": "9c8f9f23",
    "reserve0()": "443cb4bc",
    "reserve1()": "5a76f25e",
    "sharesOf(address)": "f5eb42dc",
    "swap(uint256)": "94b918de",
    "swapTokenForETH(uint256)": "6fb84b74",
    "token()": "fc0c546a",
    "totalSupply()": "18160ddd"
  },
  "id": 25
}