{
  "abi": [
    {
      "inputs": [
        {
          "internalType": "address",
          "name": "_token",
          "type": "address"
        }
      ],
      "stateMutability": "nonpayable",
      "type": "constructor"
    },
    {
      "inputs": [],
      "name": "ETH_ADDRESS",
      "outputs": [
        {
          "internalType": "address",
          "name": "",
          "type": "address"
        }
      ],
      "stateMutability": "view",
      "type": "function"
    },
    {
      "inputs": [
        {
          "internalType": "uint256",
          "name": "x",
          "type": "uint256"
        }
      ],
      "name": "_sqrt",
      "outputs": [
        {
          "internalType": "uint256",
          "name": "",
          "type": "uint256"
        }
      ],
      "stateMutability": "pure",
      "type": "function"
    },
    {
      "inputs": [
        {
          "internalType": "uint256",
          "name": "_amount1",
          "type": "uint256"
        }
      ],
      "name": "addLiquidity",
      "outputs": [
        {
          "internalType": "uint256",
          "name": "shares",
          "type": "uint256"
        }
      ],
      "stateMutability": "payable",
      "type": "function"
    },
    {
      "inputs": [],
      "name": "all_Share",
      "outputs": [
        {
          "internalType": "uint256",
          "name": "",
          "type": "uint256"
        }
      ],
      "stateMutability": "view",
      "type": "function"
    },
    {
      "inputs": [
        {
          "internalType": "address",
          "name": "",
          "type": "address"
        }
      ],
      "name": "au_LPindex",
      "outputs": [
        {
          "internalType": "uint256",
          "name": "",
          "type": "uint256"
        }
      ],
      "stateMutability": "view",
      "type": "function"
    },
    {
      "inputs": [
        {
          "internalType": "address",
          "name": "",
          "type": "address"
        }
      ],
      "name": "balanceOf",
      "outputs": [
        {
          "internalType": "uint256",
          "name": "",
          "type": "uint256"
        }
      ],
      "stateMutability": "view",
      "type": "function"
    },
    {
      "inputs": [
        {
          "internalType": "uint256",
          "name": "",
          "type": "uint256"
        }
      ],
      "name": "diff_LP",
      "outputs": [
        {
          "internalType": "int256",
          "name": "",
          "type": "int256"
        }
      ],
      "stateMutability": "view",
      "type": "function"
    },
    {
      "inputs": [],
      "name": "getERCPrice",
      "outputs": [
        {
          "internalType": "uint256",
          "name": "",
          "type": "uint256"
        }
      ],
      "stateMutability": "view",
      "type": "function"
    },
    {
      "inputs": [],
      "name": "getETHPrice",
      "outputs": [
        {
          "internalType": "uint256",
          "name": "",
          "type": "uint256"
        }
      ],
      "stateMutability": "view",
      "type": "function"
    },
    {
      "inputs": [],
      "name": "my_Share",
      "outputs": [
        {
          "internalType": "uint256",
          "name": "",
          "type": "uint256"
        }
      ],
      "stateMutability": "view",
      "type": "function"
    },
    {
      "inputs": [
        {
          "internalType": "uint256",
          "name": "_share",
          "type": "uint256"
        }
      ],
      "name": "removeLiquidity",
      "outputs": [],
      "stateMutability": "nonpayable",
      "type": "function"
    },
    {
      "inputs": [],
      "name": "reserve0",
      "outputs": [
        {
          "internalType": "uint256",
          "name": "",
          "type": "uint256"
        }
      ],
      "stateMutability": "view",
      "type": "function"
    },
    {
      "inputs": [],
      "name": "reserve1",
      "outputs": [
        {
          "internalType": "uint256",
          "name": "",
          "type": "uint256"
        }
      ],
      "stateMutability": "view",
      "type": "function"
    },
    {
      "inputs": [
        {
          "internalType": "address",
          "name": "_user",
          "type": "address"
        }
      ],
      "name": "share_Of",
      "outputs": [
        {
          "internalType": "uint256",
          "name": "",
          "type": "uint256"
        }
      ],
      "stateMutability": "view",
      "type": "function"
    },
    {
      "inputs": [],
      "name": "sumLP",
      "outputs": [
        {
          "internalType": "uint256",
          "name": "",
          "type": "uint256"
        }
      ],
      "stateMutability": "view",
      "type": "function"
    },
    {
      "inputs": [
        {
          "internalType": "address",
          "name": "a",
          "type": "address"
        },
        {
          "internalType": "address",
          "name": "b",
          "type": "address"
        }
      ],
      "name": "swap",
      "outputs": [
        {
          "internalType": "address",
          "name": "",
          "type": "address"
        },
        {
          "internalType": "address",
          "name": "",
          "type": "address"
        }
      ],
      "stateMutability": "pure",
      "type": "function"
    },
    {
      "inputs": [
        {
          "internalType": "uint256",
          "name": "_amountIn",
          "type": "uint256"
        }
      ],
      "name": "swap",
      "outputs": [
        {
          "internalType": "uint256",
          "name": "amountOut",
          "type": "uint256"
        }
      ],
      "stateMutability": "payable",
      "type": "function"
    },
    {
      "inputs": [
        {
          "internalType": "int256",
          "name": "a",
          "type": "int256"
        },
        {
          "internalType": "int256",
          "name": "b",
          "type": "int256"
        }
      ],
      "name": "swap",
      "outputs": [
        {
          "internalType": "int256",
          "name": "",
          "type": "int256"
        },
        {
          "internalType": "int256",
          "name": "",
          "type": "int256"
        }
      ],
      "stateMutability": "pure",
      "type": "function"
    },
    {
      "inputs": [
        {
          "internalType": "uint256",
          "name": "a",
          "type": "uint256"
        },
        {
          "internalType": "uint256",
          "name": "b",
          "type": "uint256"
        }
      ],
      "name": "swap",
      "outputs": [
        {
          "internalType": "uint256",
          "name": "",
          "type": "uint256"
        },
        {
          "internalType": "uint256",
          "name": "",
          "type": "uint256"
        }
      ],
      "stateMutability": "pure",
      "type": "function"
    },
    {
      "inputs": [
        {
          "internalType": "uint256",
          "name": "_amountIn",
          "type": "uint256"
        }
      ],
      "name": "swapTokenForETH",
      "outputs": [
        {
          "internalType": "uint256",
          "name": "amountOut",
          "type": "uint256"
        }
      ],
      "stateMutability": "nonpayable",
      "type": "function"
    },
    {
      "inputs": [],
      "name": "token",
      "outputs": [
        {
          "internalType": "contract IERC20",
          "name": "",
          "type": "address"
        }
      ],
      "stateMutability": "view",
      "type": "function"
    },
    {
      "inputs": [],
      "name": "totalSupply",
      "outputs": [
        {
          "internalType": "uint256",
          "name": "",
          "type": "uint256"
        }
      ],
      "stateMutability": "view",
      "type": "function"
    },
    {
      "inputs": [
        {
          "internalType": "uint256",
          "name": "",
          "type": "uint256"
        }
      ],
      "name": "ua_LPaddress",
      "outputs": [
        {
          "internalType": "address",
          "name": "",
          "type": "address"
        }
      ],
      "stateMutability": "view",
      "type": "function"
    }
  ],
  "bytecode": {
    "object": "0x60a060405234801561001057600080fd5b5060405161160d38038061160d83398101604081905261002f91610072565b6001600160a01b03166080526006805460018101825560009182527ff652222313e28459528d920b65115c16c04f3efc82aaedc97be59f3f377c0d3f01556100a2565b60006020828403121561008457600080fd5b81516001600160a01b038116811461009b57600080fd5b9392505050565b6080516115116100fc600039600081816103f4015281816104500152818161066701528181610804015281816108ca015281816109e001528181610a7901528181610e4301528181610f47015261100e01526115116000f3fe6080604052600436106101405760003560e01c806394b918de116100b6578063ca3465491161006f578063ca3465491461035c578063d96073cf1461035c578063e26f6c5e1461038c578063f6a75f75146103c2578063fc0c546a146103e2578063fcc2ba081461041657600080fd5b806394b918de146102985780639c8f9f23146102ab578063a607a8d9146102cd578063a734f06e146102e2578063ad129c7a1461030f578063b26daf881461032f57600080fd5b806369b113fd1161010857806369b113fd146101c25780636a263f02146101d85780636b76484e146101f85780636fb84b741461023657806370a08231146102565780638012fe561461028357600080fd5b806318160ddd146101455780631d5fb6171461016e578063443cb4bc1461018357806351c6590a146101995780635a76f25e146101ac575b600080fd5b34801561015157600080fd5b5061015b60025481565b6040519081526020015b60405180910390f35b34801561017a57600080fd5b5060025461015b565b34801561018f57600080fd5b5061015b60005481565b61015b6101a73660046112f9565b61042b565b3480156101b857600080fd5b5061015b60015481565b3480156101ce57600080fd5b5061015b60075481565b3480156101e457600080fd5b5061015b6101f33660046112f9565b6106e4565b34801561020457600080fd5b5061021661021336600461132e565b91565b604080516001600160a01b03938416815292909116602083015201610165565b34801561024257600080fd5b5061015b6102513660046112f9565b61074c565b34801561026257600080fd5b5061015b610271366004611361565b60036020526000908152604090205481565b34801561028f57600080fd5b5061015b610901565b61015b6102a63660046112f9565b610930565b3480156102b757600080fd5b506102cb6102c63660046112f9565b610aa8565b005b3480156102d957600080fd5b5061015b610b08565b3480156102ee57600080fd5b506102f7600081565b6040516001600160a01b039091168152602001610165565b34801561031b57600080fd5b5061015b61032a366004611361565b610b82565b34801561033b57600080fd5b5061015b61034a366004611361565b60046020526000908152604090205481565b34801561036857600080fd5b5061037761021336600461137c565b60408051928352602083019190915201610165565b34801561039857600080fd5b506102f76103a73660046112f9565b6005602052600090815260409020546001600160a01b031681565b3480156103ce57600080fd5b5061015b6103dd3660046112f9565b610bb4565b3480156103ee57600080fd5b506102f77f000000000000000000000000000000000000000000000000000000000000000081565b34801561042257600080fd5b5061015b610bd5565b6040516323b872dd60e01b8152336004820152306024820152604481018290526000907f00000000000000000000000000000000000000000000000000000000000000006001600160a01b0316906323b872dd906064016020604051808303816000875af11580156104a1573d6000803e3d6000fd5b505050506040513d601f19601f820116820180604052508101906104c5919061139e565b506001546000805434926104d8916113d6565b111561059a57806001546104ec91906113e9565b836000546104fa91906113e9565b1461059a5760015460009061050f85826113e9565b6105199190611400565b600080549192509061052b84826113e9565b6105359190611400565b90508183101561056d57600061054b8683611422565b905060006105588261074c565b905061056481866113d6565b94505050610597565b60006105798484611422565b9050600061058682610930565b905061059281886113d6565b965050505b50505b6002546000036105b8576105b16101f384836113e9565b91506105f8565b6105f5600054600254836105cc91906113e9565b6105d69190611400565b6001546002546105e690876113e9565b6105f09190611400565b610c40565b91505b6000821161063a5760405162461bcd60e51b815260206004820152600a6024820152690736861726573203d20360b41b60448201526064015b60405180910390fd5b6106443383610c5b565b6040516370a0823160e01b81523060048201526106de9047906001600160a01b037f000000000000000000000000000000000000000000000000000000000000000016906370a08231906024015b602060405180830381865afa1580156106af573d6000803e3d6000fd5b505050506040513d601f19601f820116820180604052508101906106d39190611435565b600091909155600155565b50919050565b6000816000036106f657506000919050565b600060026107058460016113d6565b61070f9190611400565b9050825b8082101561074557508060028161072a8187611400565b61073491906113d6565b61073e9190611400565b9150610713565b9392505050565b6000806103e861075e846103e56113e9565b6107689190611400565b90508060015461077891906113d6565b8160005461078691906113e9565b6107909190611400565b9150600082116107e25760405162461bcd60e51b815260206004820152601a60248201527f496e73756666696369656e74206f757470757420616d6f756e740000000000006044820152606401610631565b6040516323b872dd60e01b8152336004820152306024820152604481018490527f00000000000000000000000000000000000000000000000000000000000000006001600160a01b0316906323b872dd906064016020604051808303816000875af1158015610855573d6000803e3d6000fd5b505050506040513d601f19601f82011682018060405250810190610879919061139e565b50604051339083156108fc029084906000818181858888f193505050501580156108a7573d6000803e3d6000fd5b506106de6108b58347611422565b6040516370a0823160e01b81523060048201527f00000000000000000000000000000000000000000000000000000000000000006001600160a01b0316906370a0823190602401610692565b60008061090d33610cd7565b3360009081526003602052604090205490915061092a90826113e9565b91505090565b60008134146109775760405162461bcd60e51b815260206004820152601360248201527208aa89040c2dadeeadce840dad2e6dac2e8c6d606b1b6044820152606401610631565b60006103e8610988846103e56113e9565b6109929190611400565b9050806000546109a291906113d6565b816001546109b091906113e9565b6109ba9190611400565b91506109c4610d40565b60405163a9059cbb60e01b8152336004820152602481018390527f00000000000000000000000000000000000000000000000000000000000000006001600160a01b03169063a9059cbb906044016020604051808303816000875af1158015610a31573d6000803e3d6000fd5b505050506040513d601f19601f82011682018060405250810190610a55919061139e565b506040516370a0823160e01b81523060048201526106de9047906001600160a01b037f000000000000000000000000000000000000000000000000000000000000000016906370a0823190602401610692565b6000610ab333610b82565b905081811015610af95760405162461bcd60e51b81526020600482015260116024820152700e6d0c2e4cae640dcdee840cadcdeeaced607b1b6044820152606401610631565b610b0282610e03565b50505050565b600080600154600054610b1b91906113d6565b11610b5b5760405162461bcd60e51b815260206004820152601060248201526f496e76616c696420726573657276657360801b6044820152606401610631565b600054600154610b7390670de0b6b3a76400006113e9565b610b7d9190611400565b905090565b600080610b8e83610cd7565b6001600160a01b03841660009081526003602052604090205490915061074590826113e9565b60068181548110610bc457600080fd5b600091825260209091200154905081565b600080600154600054610be891906113d6565b11610c285760405162461bcd60e51b815260206004820152601060248201526f496e76616c696420726573657276657360801b6044820152606401610631565b600154600054610b7390670de0b6b3a76400006113e9565b600081831115610c505781610c52565b825b90505b92915050565b6001600160a01b03821660009081526003602052604081208054839290610c839084906113d6565b925050819055508060026000828254610c9c91906113d6565b90915550506006805460018101825560009182527ff652222313e28459528d920b65115c16c04f3efc82aaedc97be59f3f377c0d3f01555050565b600080805b6001600160a01b038416600090815260046020526040902054811015610d395760068181548110610d0f57610d0f61144e565b906000526020600020015482610d2591906113d6565b915080610d3181611464565b915050610cdc565b5092915050565b600654610d4f90600190611422565b60026000828254610d6091906113d6565b9091555050600654610d7490600190611422565b60076000828254610d8591906113d6565b9250508190555060016006600081548110610da257610da261144e565b906000526020600020016000828254610dbb919061147d565b90915550506006805460019190610dd3908390611422565b81548110610de357610de361144e565b906000526020600020016000828254610dfc91906114a5565b9091555050565b6000806002544784610e1591906113e9565b610e1f9190611400565b6002546040516370a0823160e01b8152306004820152919350906001600160a01b037f000000000000000000000000000000000000000000000000000000000000000016906370a0823190602401602060405180830381865afa158015610e8a573d6000803e3d6000fd5b505050506040513d601f19601f82011682018060405250810190610eae9190611435565b610eb890856113e9565b610ec29190611400565b9050600082118015610ed45750600081115b610f195760405162461bcd60e51b81526020600482015260166024820152750616d6f756e7430206f7220616d6f756e7431203d20360541b6044820152606401610631565b610f233384611089565b610fc4610f308347611422565b6040516370a0823160e01b815230600482015283907f00000000000000000000000000000000000000000000000000000000000000006001600160a01b0316906370a0823190602401602060405180830381865afa158015610f96573d6000803e3d6000fd5b505050506040513d601f19601f82011682018060405250810190610fba9190611435565b6106d39190611422565b604051339083156108fc029084906000818181858888f19350505050158015610ff1573d6000803e3d6000fd5b5060405163a9059cbb60e01b8152336004820152602481018290527f00000000000000000000000000000000000000000000000000000000000000006001600160a01b03169063a9059cbb906044016020604051808303816000875af115801561105f573d6000803e3d6000fd5b505050506040513d601f19601f82011682018060405250810190611083919061139e565b50915091565b61109282610cd7565b61109c9082611400565b6001600160a01b038316600090815260036020526040812080549091906110c4908490611422565b9250508190555080600260008282546110dd9190611422565b909155506110ec9050826110f0565b5050565b6001600160a01b0381166000908152600360205260409020541561114b5760405162461bcd60e51b815260206004820152601260248201527162616c616e6365206e6f7420656d7074792160701b6044820152606401610631565b6001600160a01b03811660009081526004602052604081205460065490919061117690600290611422565b9050600061118384610cd7565b905080600760008282546111979190611422565b9091555050600082815260056020818152604080842080546001600160a01b039081168652600480855283872080549a9055898752858552838720805493548316885290855283872054875294909352932080546001600160a01b031980821695841695909517909155825490931692169190911790556006805461125f919061122390600190611422565b815481106112335761123361144e565b9060005260206000200154600684815481106112515761125161144e565b906000526020600020015491565b50506006805480611272576112726114c5565b6001900381819060005260206000200160009055905580600684600161129891906113d6565b815481106112a8576112a861144e565b9060005260206000200160008282546112c191906114a5565b90915550506007546112d4908290611422565b600684815481106112e7576112e761144e565b60009182526020909120015550505050565b60006020828403121561130b57600080fd5b5035919050565b80356001600160a01b038116811461132957600080fd5b919050565b6000806040838503121561134157600080fd5b61134a83611312565b915061135860208401611312565b90509250929050565b60006020828403121561137357600080fd5b610c5282611312565b6000806040838503121561138f57600080fd5b50508035926020909101359150565b6000602082840312156113b057600080fd5b8151801515811461074557600080fd5b634e487b7160e01b600052601160045260246000fd5b80820180821115610c5557610c556113c0565b8082028115828204841417610c5557610c556113c0565b60008261141d57634e487b7160e01b600052601260045260246000fd5b500490565b81810381811115610c5557610c556113c0565b60006020828403121561144757600080fd5b5051919050565b634e487b7160e01b600052603260045260246000fd5b600060018201611476576114766113c0565b5060010190565b808201828112600083128015821682158216171561149d5761149d6113c0565b505092915050565b8181036000831280158383131683831282161715610d3957610d396113c0565b634e487b7160e01b600052603160045260246000fdfea2646970667358221220d4f81f68a1d649795f5abc75c7d04e2187e9f91a63fe6ff25ff003a17106694a64736f6c63430008120033",
    "linkReferences": {}
  },
  "methodIdentifiers": {
    "ETH_ADDRESS()": "a734f06e",
    "_sqrt(uint256)": "6a263f02",
    "addLiquidity(uint256)": "51c6590a",
    "all_Share()": "1d5fb617",
    "au_LPindex(address)": "b26daf88",
    "balanceOf(address)": "70a08231",
    "diff_LP(uint256)": "f6a75f75",
    "getERCPrice()": "fcc2ba08",
    "getETHPrice()": "a607a8d9",
    "my_Share()": "8012fe56",
    "removeLiquidity(uint256)": "9c8f9f23",
    "reserve0()": "443cb4bc",
    "reserve1()": "5a76f25e",
    "share_Of(address)": "ad129c7a",
    "sumLP()": "69b113fd",
    "swap(address,address)": "6b76484e",
    "swap(int256,int256)": "ca346549",
    "swap(uint256)": "94b918de",
    "swap(uint256,uint256)": "d96073cf",
    "swapTokenForETH(uint256)": "6fb84b74",
    "token()": "fc0c546a",
    "totalSupply()": "18160ddd",
    "ua_LPaddress(uint256)": "e26f6c5e"
  },
  "id": 23
}