{
  "abi": [
    {
      "inputs": [
        {
          "internalType": "address",
          "name": "_token",
          "type": "address"
        }
      ],
      "stateMutability": "nonpayable",
      "type": "constructor"
    },
    {
      "inputs": [],
      "name": "ETH_ADDRESS",
      "outputs": [
        {
          "internalType": "address",
          "name": "",
          "type": "address"
        }
      ],
      "stateMutability": "view",
      "type": "function"
    },
    {
      "inputs": [
        {
          "internalType": "uint256",
          "name": "_amount1",
          "type": "uint256"
        }
      ],
      "name": "addLiquidity",
      "outputs": [
        {
          "internalType": "uint256",
          "name": "shares",
          "type": "uint256"
        }
      ],
      "stateMutability": "payable",
      "type": "function"
    },
    {
      "inputs": [
        {
          "internalType": "address",
          "name": "",
          "type": "address"
        }
      ],
      "name": "balanceOf",
      "outputs": [
        {
          "internalType": "uint256",
          "name": "",
          "type": "uint256"
        }
      ],
      "stateMutability": "view",
      "type": "function"
    },
    {
      "inputs": [],
      "name": "getERCPrice",
      "outputs": [
        {
          "internalType": "uint256",
          "name": "",
          "type": "uint256"
        }
      ],
      "stateMutability": "view",
      "type": "function"
    },
    {
      "inputs": [],
      "name": "getETHPrice",
      "outputs": [
        {
          "internalType": "uint256",
          "name": "",
          "type": "uint256"
        }
      ],
      "stateMutability": "view",
      "type": "function"
    },
    {
      "inputs": [],
      "name": "my_shars",
      "outputs": [
        {
          "internalType": "uint256",
          "name": "",
          "type": "uint256"
        }
      ],
      "stateMutability": "view",
      "type": "function"
    },
    {
      "inputs": [
        {
          "internalType": "address",
          "name": "_user",
          "type": "address"
        }
      ],
      "name": "removeAllLiquidity",
      "outputs": [
        {
          "internalType": "uint256",
          "name": "amount0",
          "type": "uint256"
        },
        {
          "internalType": "uint256",
          "name": "amount1",
          "type": "uint256"
        }
      ],
      "stateMutability": "nonpayable",
      "type": "function"
    },
    {
      "inputs": [
        {
          "internalType": "uint256",
          "name": "_shares",
          "type": "uint256"
        }
      ],
      "name": "removeLiquidity",
      "outputs": [
        {
          "internalType": "uint256",
          "name": "amount0",
          "type": "uint256"
        },
        {
          "internalType": "uint256",
          "name": "amount1",
          "type": "uint256"
        }
      ],
      "stateMutability": "nonpayable",
      "type": "function"
    },
    {
      "inputs": [
        {
          "internalType": "address",
          "name": "_user",
          "type": "address"
        },
        {
          "internalType": "uint256",
          "name": "_shares",
          "type": "uint256"
        }
      ],
      "name": "removeLiquidity",
      "outputs": [
        {
          "internalType": "uint256",
          "name": "amount0",
          "type": "uint256"
        },
        {
          "internalType": "uint256",
          "name": "amount1",
          "type": "uint256"
        }
      ],
      "stateMutability": "nonpayable",
      "type": "function"
    },
    {
      "inputs": [],
      "name": "reserve0",
      "outputs": [
        {
          "internalType": "uint256",
          "name": "",
          "type": "uint256"
        }
      ],
      "stateMutability": "view",
      "type": "function"
    },
    {
      "inputs": [],
      "name": "reserve1",
      "outputs": [
        {
          "internalType": "uint256",
          "name": "",
          "type": "uint256"
        }
      ],
      "stateMutability": "view",
      "type": "function"
    },
    {
      "inputs": [
        {
          "internalType": "address",
          "name": "_user",
          "type": "address"
        }
      ],
      "name": "sharesOf",
      "outputs": [
        {
          "internalType": "uint256",
          "name": "",
          "type": "uint256"
        }
      ],
      "stateMutability": "view",
      "type": "function"
    },
    {
      "inputs": [
        {
          "internalType": "uint256",
          "name": "_amountIn",
          "type": "uint256"
        }
      ],
      "name": "swap",
      "outputs": [
        {
          "internalType": "uint256",
          "name": "amountOut",
          "type": "uint256"
        }
      ],
      "stateMutability": "payable",
      "type": "function"
    },
    {
      "inputs": [
        {
          "internalType": "uint256",
          "name": "_amountIn",
          "type": "uint256"
        }
      ],
      "name": "swapTokenForETH",
      "outputs": [
        {
          "internalType": "uint256",
          "name": "amountOut",
          "type": "uint256"
        }
      ],
      "stateMutability": "nonpayable",
      "type": "function"
    },
    {
      "inputs": [],
      "name": "token",
      "outputs": [
        {
          "internalType": "contract IERC20",
          "name": "",
          "type": "address"
        }
      ],
      "stateMutability": "view",
      "type": "function"
    },
    {
      "inputs": [],
      "name": "totalSupply",
      "outputs": [
        {
          "internalType": "uint256",
          "name": "",
          "type": "uint256"
        }
      ],
      "stateMutability": "view",
      "type": "function"
    }
  ],
  "bytecode": {
    "object": "0x60a060405234801561001057600080fd5b5060405161105738038061105783398101604081905261002f91610040565b6001600160a01b0316608052610070565b60006020828403121561005257600080fd5b81516001600160a01b038116811461006957600080fd5b9392505050565b608051610f8d6100ca600039600081816102e10152818161033d015281816104fa0152818161062f015281816106f5015281816108040152818161089d01528181610b9701528181610c9b0152610d750152610f8d6000f3fe6080604052600436106100f35760003560e01c806394b918de1161008a578063a734f06e11610059578063a734f06e1461026c578063f5eb42dc14610299578063fc0c546a146102cf578063fcc2ba081461030357600080fd5b806394b918de146102045780639c8f9f2314610217578063a201ccf614610237578063a607a8d91461025757600080fd5b80636cae4f84116100c65780636cae4f84146101605780636fb84b741461018257806370a08231146101a25780637a6a5e1b146101cf57600080fd5b806318160ddd146100f8578063443cb4bc1461012157806351c6590a146101375780635a76f25e1461014a575b600080fd5b34801561010457600080fd5b5061010e60025481565b6040519081526020015b60405180910390f35b34801561012d57600080fd5b5061010e60005481565b61010e610145366004610e2b565b610318565b34801561015657600080fd5b5061010e60015481565b34801561016c57600080fd5b503360009081526003602052604090205461010e565b34801561018e57600080fd5b5061010e61019d366004610e2b565b610577565b3480156101ae57600080fd5b5061010e6101bd366004610e5b565b60036020526000908152604090205481565b3480156101db57600080fd5b506101ef6101ea366004610e5b565b61072c565b60408051928352602083019190915201610118565b61010e610212366004610e2b565b61075b565b34801561022357600080fd5b506101ef610232366004610e2b565b6108cc565b34801561024357600080fd5b506101ef610252366004610e76565b61092e565b34801561026357600080fd5b5061010e6109a4565b34801561027857600080fd5b50610281600081565b6040516001600160a01b039091168152602001610118565b3480156102a557600080fd5b5061010e6102b4366004610e5b565b6001600160a01b031660009081526003602052604090205490565b3480156102db57600080fd5b506102817f000000000000000000000000000000000000000000000000000000000000000081565b34801561030f57600080fd5b5061010e610a1e565b6040516323b872dd60e01b8152336004820152306024820152604481018290526000907f00000000000000000000000000000000000000000000000000000000000000006001600160a01b0316906323b872dd906064016020604051808303816000875af115801561038e573d6000803e3d6000fd5b505050506040513d601f19601f820116820180604052508101906103b29190610ea0565b5060005434901515806103c757506000600154115b1561042d57806001546103da9190610edf565b836000546103e89190610edf565b1461042d5760405162461bcd60e51b815260206004820152601060248201526f78202f207920213d206478202f20647960801b60448201526064015b60405180910390fd5b600254600003610450576104496104448483610edf565b610a89565b9150610490565b61048d600054600254836104649190610edf565b61046e9190610ef6565b60015460025461047e9087610edf565b6104889190610ef6565b610af3565b91505b600082116104cd5760405162461bcd60e51b815260206004820152600a6024820152690736861726573203d20360b41b6044820152606401610424565b6104d73383610b0d565b6040516370a0823160e01b81523060048201526105719047906001600160a01b037f000000000000000000000000000000000000000000000000000000000000000016906370a08231906024015b602060405180830381865afa158015610542573d6000803e3d6000fd5b505050506040513d601f19601f820116820180604052508101906105669190610f18565b600091909155600155565b50919050565b6000806103e8610589846103e5610edf565b6105939190610ef6565b9050806001546105a39190610f31565b816000546105b19190610edf565b6105bb9190610ef6565b91506000821161060d5760405162461bcd60e51b815260206004820152601a60248201527f496e73756666696369656e74206f757470757420616d6f756e740000000000006044820152606401610424565b6040516323b872dd60e01b8152336004820152306024820152604481018490527f00000000000000000000000000000000000000000000000000000000000000006001600160a01b0316906323b872dd906064016020604051808303816000875af1158015610680573d6000803e3d6000fd5b505050506040513d601f19601f820116820180604052508101906106a49190610ea0565b50604051339083156108fc029084906000818181858888f193505050501580156106d2573d6000803e3d6000fd5b506105716106e08347610f44565b6040516370a0823160e01b81523060048201527f00000000000000000000000000000000000000000000000000000000000000006001600160a01b0316906370a0823190602401610525565b6001600160a01b0381166000908152600360205260408120548190610752908490610b57565b91509150915091565b60008134146107a25760405162461bcd60e51b815260206004820152601360248201527208aa89040c2dadeeadce840dad2e6dac2e8c6d606b1b6044820152606401610424565b60006103e86107b3846103e5610edf565b6107bd9190610ef6565b9050806000546107cd9190610f31565b816001546107db9190610edf565b6107e59190610ef6565b60405163a9059cbb60e01b8152336004820152602481018290529092507f00000000000000000000000000000000000000000000000000000000000000006001600160a01b03169063a9059cbb906044016020604051808303816000875af1158015610855573d6000803e3d6000fd5b505050506040513d601f19601f820116820180604052508101906108799190610ea0565b506040516370a0823160e01b81523060048201526105719047906001600160a01b037f000000000000000000000000000000000000000000000000000000000000000016906370a0823190602401610525565b3360009081526003602052604081205481908311156109245760405162461bcd60e51b8152602060048201526014602482015273496e73756666696369656e742062616c616e636560601b6044820152606401610424565b6107523384610b57565b6001600160a01b038216600090815260036020526040812054819083111561098f5760405162461bcd60e51b8152602060048201526014602482015273496e73756666696369656e742062616c616e636560601b6044820152606401610424565b6109998484610b57565b915091509250929050565b6000806001546000546109b79190610f31565b116109f75760405162461bcd60e51b815260206004820152601060248201526f496e76616c696420726573657276657360801b6044820152606401610424565b600054600154610a0f90670de0b6b3a7640000610edf565b610a199190610ef6565b905090565b600080600154600054610a319190610f31565b11610a715760405162461bcd60e51b815260206004820152601060248201526f496e76616c696420726573657276657360801b6044820152606401610424565b600154600054610a0f90670de0b6b3a7640000610edf565b60006003821115610ae45750806000610aa3600283610ef6565b610aae906001610f31565b90505b8181101561057157905080600281610ac98186610ef6565b610ad39190610f31565b610add9190610ef6565b9050610ab1565b8115610aee575060015b919050565b6000818310610b025781610b04565b825b90505b92915050565b6001600160a01b03821660009081526003602052604081208054839290610b35908490610f31565b925050819055508060026000828254610b4e9190610f31565b90915550505050565b6000806002544784610b699190610edf565b610b739190610ef6565b6002546040516370a0823160e01b8152306004820152919350906001600160a01b037f000000000000000000000000000000000000000000000000000000000000000016906370a0823190602401602060405180830381865afa158015610bde573d6000803e3d6000fd5b505050506040513d601f19601f82011682018060405250810190610c029190610f18565b610c0c9085610edf565b610c169190610ef6565b9050600082118015610c285750600081115b610c6d5760405162461bcd60e51b81526020600482015260166024820152750616d6f756e7430206f7220616d6f756e7431203d20360541b6044820152606401610424565b610c778484610dea565b610d18610c848347610f44565b6040516370a0823160e01b815230600482015283907f00000000000000000000000000000000000000000000000000000000000000006001600160a01b0316906370a0823190602401602060405180830381865afa158015610cea573d6000803e3d6000fd5b505050506040513d601f19601f82011682018060405250810190610d0e9190610f18565b6105669190610f44565b6040516001600160a01b0385169083156108fc029084906000818181858888f19350505050158015610d4e573d6000803e3d6000fd5b5060405163a9059cbb60e01b81526001600160a01b038581166004830152602482018390527f0000000000000000000000000000000000000000000000000000000000000000169063a9059cbb906044016020604051808303816000875af1158015610dbe573d6000803e3d6000fd5b505050506040513d601f19601f82011682018060405250810190610de29190610ea0565b509250929050565b6001600160a01b03821660009081526003602052604081208054839290610e12908490610f44565b925050819055508060026000828254610b4e9190610f44565b600060208284031215610e3d57600080fd5b5035919050565b80356001600160a01b0381168114610aee57600080fd5b600060208284031215610e6d57600080fd5b610b0482610e44565b60008060408385031215610e8957600080fd5b610e9283610e44565b946020939093013593505050565b600060208284031215610eb257600080fd5b81518015158114610ec257600080fd5b9392505050565b634e487b7160e01b600052601160045260246000fd5b8082028115828204841417610b0757610b07610ec9565b600082610f1357634e487b7160e01b600052601260045260246000fd5b500490565b600060208284031215610f2a57600080fd5b5051919050565b80820180821115610b0757610b07610ec9565b81810381811115610b0757610b07610ec956fea2646970667358221220f9f274abd0f4b5211149a4d5aff8d588814d7d2c7c529d9178b57b9b9eccc10664736f6c63430008120033",
    "linkReferences": {}
  },
  "methodIdentifiers": {
    "ETH_ADDRESS()": "a734f06e",
    "addLiquidity(uint256)": "51c6590a",
    "balanceOf(address)": "70a08231",
    "getERCPrice()": "fcc2ba08",
    "getETHPrice()": "a607a8d9",
    "my_shars()": "6cae4f84",
    "removeAllLiquidity(address)": "7a6a5e1b",
    "removeLiquidity(address,uint256)": "a201ccf6",
    "removeLiquidity(uint256)": "9c8f9f23",
    "reserve0()": "443cb4bc",
    "reserve1()": "5a76f25e",
    "sharesOf(address)": "f5eb42dc",
    "swap(uint256)": "94b918de",
    "swapTokenForETH(uint256)": "6fb84b74",
    "token()": "fc0c546a",
    "totalSupply()": "18160ddd"
  },
  "id": 24
}