{
  "abi": [
    {
      "inputs": [
        {
          "internalType": "address",
          "name": "_token",
          "type": "address"
        }
      ],
      "stateMutability": "nonpayable",
      "type": "constructor"
    },
    {
      "inputs": [],
      "name": "ETH_ADDRESS",
      "outputs": [
        {
          "internalType": "address",
          "name": "",
          "type": "address"
        }
      ],
      "stateMutability": "view",
      "type": "function"
    },
    {
      "inputs": [
        {
          "internalType": "uint256",
          "name": "_amount1",
          "type": "uint256"
        }
      ],
      "name": "addLiquidity",
      "outputs": [
        {
          "internalType": "uint256",
          "name": "shares",
          "type": "uint256"
        }
      ],
      "stateMutability": "payable",
      "type": "function"
    },
    {
      "inputs": [
        {
          "internalType": "address",
          "name": "",
          "type": "address"
        }
      ],
      "name": "balanceOf",
      "outputs": [
        {
          "internalType": "uint256",
          "name": "",
          "type": "uint256"
        }
      ],
      "stateMutability": "view",
      "type": "function"
    },
    {
      "inputs": [],
      "name": "getERCPrice",
      "outputs": [
        {
          "internalType": "uint256",
          "name": "",
          "type": "uint256"
        }
      ],
      "stateMutability": "view",
      "type": "function"
    },
    {
      "inputs": [],
      "name": "getETHPrice",
      "outputs": [
        {
          "internalType": "uint256",
          "name": "",
          "type": "uint256"
        }
      ],
      "stateMutability": "view",
      "type": "function"
    },
    {
      "inputs": [],
      "name": "my_shars",
      "outputs": [
        {
          "internalType": "uint256",
          "name": "",
          "type": "uint256"
        }
      ],
      "stateMutability": "view",
      "type": "function"
    },
    {
      "inputs": [
        {
          "internalType": "uint256",
          "name": "_shares",
          "type": "uint256"
        }
      ],
      "name": "removeLiquidity",
      "outputs": [
        {
          "internalType": "uint256",
          "name": "amount0",
          "type": "uint256"
        },
        {
          "internalType": "uint256",
          "name": "amount1",
          "type": "uint256"
        }
      ],
      "stateMutability": "nonpayable",
      "type": "function"
    },
    {
      "inputs": [
        {
          "internalType": "address",
          "name": "_user",
          "type": "address"
        },
        {
          "internalType": "uint256",
          "name": "_shares",
          "type": "uint256"
        }
      ],
      "name": "removeLiquidity",
      "outputs": [
        {
          "internalType": "uint256",
          "name": "amount0",
          "type": "uint256"
        },
        {
          "internalType": "uint256",
          "name": "amount1",
          "type": "uint256"
        }
      ],
      "stateMutability": "nonpayable",
      "type": "function"
    },
    {
      "inputs": [],
      "name": "reserve0",
      "outputs": [
        {
          "internalType": "uint256",
          "name": "",
          "type": "uint256"
        }
      ],
      "stateMutability": "view",
      "type": "function"
    },
    {
      "inputs": [],
      "name": "reserve1",
      "outputs": [
        {
          "internalType": "uint256",
          "name": "",
          "type": "uint256"
        }
      ],
      "stateMutability": "view",
      "type": "function"
    },
    {
      "inputs": [
        {
          "internalType": "address",
          "name": "_user",
          "type": "address"
        }
      ],
      "name": "sharesOf",
      "outputs": [
        {
          "internalType": "uint256",
          "name": "",
          "type": "uint256"
        }
      ],
      "stateMutability": "view",
      "type": "function"
    },
    {
      "inputs": [
        {
          "internalType": "uint256",
          "name": "_amountIn",
          "type": "uint256"
        }
      ],
      "name": "swap",
      "outputs": [
        {
          "internalType": "uint256",
          "name": "amountOut",
          "type": "uint256"
        }
      ],
      "stateMutability": "payable",
      "type": "function"
    },
    {
      "inputs": [
        {
          "internalType": "uint256",
          "name": "_amountIn",
          "type": "uint256"
        }
      ],
      "name": "swapTokenForETH",
      "outputs": [
        {
          "internalType": "uint256",
          "name": "amountOut",
          "type": "uint256"
        }
      ],
      "stateMutability": "nonpayable",
      "type": "function"
    },
    {
      "inputs": [],
      "name": "token",
      "outputs": [
        {
          "internalType": "contract IERC20",
          "name": "",
          "type": "address"
        }
      ],
      "stateMutability": "view",
      "type": "function"
    },
    {
      "inputs": [],
      "name": "totalSupply",
      "outputs": [
        {
          "internalType": "uint256",
          "name": "",
          "type": "uint256"
        }
      ],
      "stateMutability": "view",
      "type": "function"
    }
  ],
  "bytecode": {
    "object": "0x60a060405234801561001057600080fd5b5060405161100638038061100683398101604081905261002f91610040565b6001600160a01b0316608052610070565b60006020828403121561005257600080fd5b81516001600160a01b038116811461006957600080fd5b9392505050565b608051610f3c6100ca600039600081816102b601528181610312015281816104cf01528181610604015281816106ca015281816107aa0152818161084301528181610b4601528181610c4a0152610d240152610f3c6000f3fe6080604052600436106100e85760003560e01c806394b918de1161008a578063a734f06e11610059578063a734f06e14610241578063f5eb42dc1461026e578063fc0c546a146102a4578063fcc2ba08146102d857600080fd5b806394b918de146101c45780639c8f9f23146101d7578063a201ccf61461020c578063a607a8d91461022c57600080fd5b80635a76f25e116100c65780635a76f25e1461013f5780636cae4f84146101555780636fb84b741461017757806370a082311461019757600080fd5b806318160ddd146100ed578063443cb4bc1461011657806351c6590a1461012c575b600080fd5b3480156100f957600080fd5b5061010360025481565b6040519081526020015b60405180910390f35b34801561012257600080fd5b5061010360005481565b61010361013a366004610dda565b6102ed565b34801561014b57600080fd5b5061010360015481565b34801561016157600080fd5b5033600090815260036020526040902054610103565b34801561018357600080fd5b50610103610192366004610dda565b61054c565b3480156101a357600080fd5b506101036101b2366004610e0a565b60036020526000908152604090205481565b6101036101d2366004610dda565b610701565b3480156101e357600080fd5b506101f76101f2366004610dda565b610872565b6040805192835260208301919091520161010d565b34801561021857600080fd5b506101f7610227366004610e25565b6108dd565b34801561023857600080fd5b50610103610953565b34801561024d57600080fd5b50610256600081565b6040516001600160a01b03909116815260200161010d565b34801561027a57600080fd5b50610103610289366004610e0a565b6001600160a01b031660009081526003602052604090205490565b3480156102b057600080fd5b506102567f000000000000000000000000000000000000000000000000000000000000000081565b3480156102e457600080fd5b506101036109cd565b6040516323b872dd60e01b8152336004820152306024820152604481018290526000907f00000000000000000000000000000000000000000000000000000000000000006001600160a01b0316906323b872dd906064016020604051808303816000875af1158015610363573d6000803e3d6000fd5b505050506040513d601f19601f820116820180604052508101906103879190610e4f565b50600054349015158061039c57506000600154115b1561040257806001546103af9190610e8e565b836000546103bd9190610e8e565b146104025760405162461bcd60e51b815260206004820152601060248201526f78202f207920213d206478202f20647960801b60448201526064015b60405180910390fd5b6002546000036104255761041e6104198483610e8e565b610a38565b9150610465565b610462600054600254836104399190610e8e565b6104439190610ea5565b6001546002546104539087610e8e565b61045d9190610ea5565b610aa2565b91505b600082116104a25760405162461bcd60e51b815260206004820152600a6024820152690736861726573203d20360b41b60448201526064016103f9565b6104ac3383610abc565b6040516370a0823160e01b81523060048201526105469047906001600160a01b037f000000000000000000000000000000000000000000000000000000000000000016906370a08231906024015b602060405180830381865afa158015610517573d6000803e3d6000fd5b505050506040513d601f19601f8201168201806040525081019061053b9190610ec7565b600091909155600155565b50919050565b6000806103e861055e846103e5610e8e565b6105689190610ea5565b9050806001546105789190610ee0565b816000546105869190610e8e565b6105909190610ea5565b9150600082116105e25760405162461bcd60e51b815260206004820152601a60248201527f496e73756666696369656e74206f757470757420616d6f756e7400000000000060448201526064016103f9565b6040516323b872dd60e01b8152336004820152306024820152604481018490527f00000000000000000000000000000000000000000000000000000000000000006001600160a01b0316906323b872dd906064016020604051808303816000875af1158015610655573d6000803e3d6000fd5b505050506040513d601f19601f820116820180604052508101906106799190610e4f565b50604051339083156108fc029084906000818181858888f193505050501580156106a7573d6000803e3d6000fd5b506105466106b58347610ef3565b6040516370a0823160e01b81523060048201527f00000000000000000000000000000000000000000000000000000000000000006001600160a01b0316906370a08231906024016104fa565b60008134146107485760405162461bcd60e51b815260206004820152601360248201527208aa89040c2dadeeadce840dad2e6dac2e8c6d606b1b60448201526064016103f9565b60006103e8610759846103e5610e8e565b6107639190610ea5565b9050806000546107739190610ee0565b816001546107819190610e8e565b61078b9190610ea5565b60405163a9059cbb60e01b8152336004820152602481018290529092507f00000000000000000000000000000000000000000000000000000000000000006001600160a01b03169063a9059cbb906044016020604051808303816000875af11580156107fb573d6000803e3d6000fd5b505050506040513d601f19601f8201168201806040525081019061081f9190610e4f565b506040516370a0823160e01b81523060048201526105469047906001600160a01b037f000000000000000000000000000000000000000000000000000000000000000016906370a08231906024016104fa565b3360009081526003602052604081205481908311156108ca5760405162461bcd60e51b8152602060048201526014602482015273496e73756666696369656e742062616c616e636560601b60448201526064016103f9565b6108d43384610b06565b91509150915091565b6001600160a01b038216600090815260036020526040812054819083111561093e5760405162461bcd60e51b8152602060048201526014602482015273496e73756666696369656e742062616c616e636560601b60448201526064016103f9565b6109488484610b06565b915091509250929050565b6000806001546000546109669190610ee0565b116109a65760405162461bcd60e51b815260206004820152601060248201526f496e76616c696420726573657276657360801b60448201526064016103f9565b6000546001546109be90670de0b6b3a7640000610e8e565b6109c89190610ea5565b905090565b6000806001546000546109e09190610ee0565b11610a205760405162461bcd60e51b815260206004820152601060248201526f496e76616c696420726573657276657360801b60448201526064016103f9565b6001546000546109be90670de0b6b3a7640000610e8e565b60006003821115610a935750806000610a52600283610ea5565b610a5d906001610ee0565b90505b8181101561054657905080600281610a788186610ea5565b610a829190610ee0565b610a8c9190610ea5565b9050610a60565b8115610a9d575060015b919050565b6000818310610ab15781610ab3565b825b90505b92915050565b6001600160a01b03821660009081526003602052604081208054839290610ae4908490610ee0565b925050819055508060026000828254610afd9190610ee0565b90915550505050565b6000806002544784610b189190610e8e565b610b229190610ea5565b6002546040516370a0823160e01b8152306004820152919350906001600160a01b037f000000000000000000000000000000000000000000000000000000000000000016906370a0823190602401602060405180830381865afa158015610b8d573d6000803e3d6000fd5b505050506040513d601f19601f82011682018060405250810190610bb19190610ec7565b610bbb9085610e8e565b610bc59190610ea5565b9050600082118015610bd75750600081115b610c1c5760405162461bcd60e51b81526020600482015260166024820152750616d6f756e7430206f7220616d6f756e7431203d20360541b60448201526064016103f9565b610c268484610d99565b610cc7610c338347610ef3565b6040516370a0823160e01b815230600482015283907f00000000000000000000000000000000000000000000000000000000000000006001600160a01b0316906370a0823190602401602060405180830381865afa158015610c99573d6000803e3d6000fd5b505050506040513d601f19601f82011682018060405250810190610cbd9190610ec7565b61053b9190610ef3565b6040516001600160a01b0385169083156108fc029084906000818181858888f19350505050158015610cfd573d6000803e3d6000fd5b5060405163a9059cbb60e01b81526001600160a01b038581166004830152602482018390527f0000000000000000000000000000000000000000000000000000000000000000169063a9059cbb906044016020604051808303816000875af1158015610d6d573d6000803e3d6000fd5b505050506040513d601f19601f82011682018060405250810190610d919190610e4f565b509250929050565b6001600160a01b03821660009081526003602052604081208054839290610dc1908490610ef3565b925050819055508060026000828254610afd9190610ef3565b600060208284031215610dec57600080fd5b5035919050565b80356001600160a01b0381168114610a9d57600080fd5b600060208284031215610e1c57600080fd5b610ab382610df3565b60008060408385031215610e3857600080fd5b610e4183610df3565b946020939093013593505050565b600060208284031215610e6157600080fd5b81518015158114610e7157600080fd5b9392505050565b634e487b7160e01b600052601160045260246000fd5b8082028115828204841417610ab657610ab6610e78565b600082610ec257634e487b7160e01b600052601260045260246000fd5b500490565b600060208284031215610ed957600080fd5b5051919050565b80820180821115610ab657610ab6610e78565b81810381811115610ab657610ab6610e7856fea2646970667358221220f91c3c81b20696900d66bec2c0a8e0673c70bcf8c1b8fb7925f014dbd1eba57364736f6c63430008120033",
    "linkReferences": {}
  },
  "methodIdentifiers": {
    "ETH_ADDRESS()": "a734f06e",
    "addLiquidity(uint256)": "51c6590a",
    "balanceOf(address)": "70a08231",
    "getERCPrice()": "fcc2ba08",
    "getETHPrice()": "a607a8d9",
    "my_shars()": "6cae4f84",
    "removeLiquidity(address,uint256)": "a201ccf6",
    "removeLiquidity(uint256)": "9c8f9f23",
    "reserve0()": "443cb4bc",
    "reserve1()": "5a76f25e",
    "sharesOf(address)": "f5eb42dc",
    "swap(uint256)": "94b918de",
    "swapTokenForETH(uint256)": "6fb84b74",
    "token()": "fc0c546a",
    "totalSupply()": "18160ddd"
  },
  "id": 24
}