{
  "abi": [
    {
      "inputs": [
        {
          "internalType": "address",
          "name": "_token",
          "type": "address"
        }
      ],
      "stateMutability": "nonpayable",
      "type": "constructor"
    },
    {
      "inputs": [],
      "name": "ETH_ADDRESS",
      "outputs": [
        {
          "internalType": "address",
          "name": "",
          "type": "address"
        }
      ],
      "stateMutability": "view",
      "type": "function"
    },
    {
      "inputs": [
        {
          "internalType": "uint256",
          "name": "_amount1",
          "type": "uint256"
        }
      ],
      "name": "addLiquidity",
      "outputs": [
        {
          "internalType": "uint256",
          "name": "shares",
          "type": "uint256"
        }
      ],
      "stateMutability": "payable",
      "type": "function"
    },
    {
      "inputs": [
        {
          "internalType": "address",
          "name": "",
          "type": "address"
        }
      ],
      "name": "balanceOf",
      "outputs": [
        {
          "internalType": "uint256",
          "name": "",
          "type": "uint256"
        }
      ],
      "stateMutability": "view",
      "type": "function"
    },
    {
      "inputs": [],
      "name": "getERCPrice",
      "outputs": [
        {
          "internalType": "uint256",
          "name": "",
          "type": "uint256"
        }
      ],
      "stateMutability": "view",
      "type": "function"
    },
    {
      "inputs": [],
      "name": "getETHPrice",
      "outputs": [
        {
          "internalType": "uint256",
          "name": "",
          "type": "uint256"
        }
      ],
      "stateMutability": "view",
      "type": "function"
    },
    {
      "inputs": [],
      "name": "my_shars",
      "outputs": [
        {
          "internalType": "uint256",
          "name": "",
          "type": "uint256"
        }
      ],
      "stateMutability": "view",
      "type": "function"
    },
    {
      "inputs": [
        {
          "internalType": "address",
          "name": "_user",
          "type": "address"
        }
      ],
      "name": "removeAllLiquidity",
      "outputs": [
        {
          "internalType": "uint256",
          "name": "amount0",
          "type": "uint256"
        },
        {
          "internalType": "uint256",
          "name": "amount1",
          "type": "uint256"
        }
      ],
      "stateMutability": "nonpayable",
      "type": "function"
    },
    {
      "inputs": [
        {
          "internalType": "uint256",
          "name": "_shares",
          "type": "uint256"
        }
      ],
      "name": "removeLiquidity",
      "outputs": [
        {
          "internalType": "uint256",
          "name": "amount0",
          "type": "uint256"
        },
        {
          "internalType": "uint256",
          "name": "amount1",
          "type": "uint256"
        }
      ],
      "stateMutability": "nonpayable",
      "type": "function"
    },
    {
      "inputs": [
        {
          "internalType": "address",
          "name": "_user",
          "type": "address"
        },
        {
          "internalType": "uint256",
          "name": "_shares",
          "type": "uint256"
        }
      ],
      "name": "removeLiquidity",
      "outputs": [
        {
          "internalType": "uint256",
          "name": "amount0",
          "type": "uint256"
        },
        {
          "internalType": "uint256",
          "name": "amount1",
          "type": "uint256"
        }
      ],
      "stateMutability": "nonpayable",
      "type": "function"
    },
    {
      "inputs": [],
      "name": "reserve0",
      "outputs": [
        {
          "internalType": "uint256",
          "name": "",
          "type": "uint256"
        }
      ],
      "stateMutability": "view",
      "type": "function"
    },
    {
      "inputs": [],
      "name": "reserve1",
      "outputs": [
        {
          "internalType": "uint256",
          "name": "",
          "type": "uint256"
        }
      ],
      "stateMutability": "view",
      "type": "function"
    },
    {
      "inputs": [
        {
          "internalType": "address",
          "name": "_user",
          "type": "address"
        }
      ],
      "name": "sharesOf",
      "outputs": [
        {
          "internalType": "uint256",
          "name": "",
          "type": "uint256"
        }
      ],
      "stateMutability": "view",
      "type": "function"
    },
    {
      "inputs": [
        {
          "internalType": "uint256",
          "name": "_amountIn",
          "type": "uint256"
        }
      ],
      "name": "swap",
      "outputs": [
        {
          "internalType": "uint256",
          "name": "amountOut",
          "type": "uint256"
        }
      ],
      "stateMutability": "payable",
      "type": "function"
    },
    {
      "inputs": [
        {
          "internalType": "uint256",
          "name": "_amountIn",
          "type": "uint256"
        }
      ],
      "name": "swapTokenForETH",
      "outputs": [
        {
          "internalType": "uint256",
          "name": "amountOut",
          "type": "uint256"
        }
      ],
      "stateMutability": "nonpayable",
      "type": "function"
    },
    {
      "inputs": [],
      "name": "token",
      "outputs": [
        {
          "internalType": "contract IERC20",
          "name": "",
          "type": "address"
        }
      ],
      "stateMutability": "view",
      "type": "function"
    },
    {
      "inputs": [],
      "name": "totalSupply",
      "outputs": [
        {
          "internalType": "uint256",
          "name": "",
          "type": "uint256"
        }
      ],
      "stateMutability": "view",
      "type": "function"
    }
  ],
  "bytecode": {
    "object": "0x60a060405234801561001057600080fd5b506040516110ae3803806110ae83398101604081905261002f91610040565b6001600160a01b0316608052610070565b60006020828403121561005257600080fd5b81516001600160a01b038116811461006957600080fd5b9392505050565b608051610fe46100ca600039600081816102e10152818161033d01528181610551015281816106860152818161074c0152818161085b015281816108f401528181610bee01528181610cf20152610dcc0152610fe46000f3fe6080604052600436106100f35760003560e01c806394b918de1161008a578063a734f06e11610059578063a734f06e1461026c578063f5eb42dc14610299578063fc0c546a146102cf578063fcc2ba081461030357600080fd5b806394b918de146102045780639c8f9f2314610217578063a201ccf614610237578063a607a8d91461025757600080fd5b80636cae4f84116100c65780636cae4f84146101605780636fb84b741461018257806370a08231146101a25780637a6a5e1b146101cf57600080fd5b806318160ddd146100f8578063443cb4bc1461012157806351c6590a146101375780635a76f25e1461014a575b600080fd5b34801561010457600080fd5b5061010e60025481565b6040519081526020015b60405180910390f35b34801561012d57600080fd5b5061010e60005481565b61010e610145366004610e82565b610318565b34801561015657600080fd5b5061010e60015481565b34801561016c57600080fd5b503360009081526003602052604090205461010e565b34801561018e57600080fd5b5061010e61019d366004610e82565b6105ce565b3480156101ae57600080fd5b5061010e6101bd366004610eb2565b60036020526000908152604090205481565b3480156101db57600080fd5b506101ef6101ea366004610eb2565b610783565b60408051928352602083019190915201610118565b61010e610212366004610e82565b6107b2565b34801561022357600080fd5b506101ef610232366004610e82565b610923565b34801561024357600080fd5b506101ef610252366004610ecd565b610985565b34801561026357600080fd5b5061010e6109fb565b34801561027857600080fd5b50610281600081565b6040516001600160a01b039091168152602001610118565b3480156102a557600080fd5b5061010e6102b4366004610eb2565b6001600160a01b031660009081526003602052604090205490565b3480156102db57600080fd5b506102817f000000000000000000000000000000000000000000000000000000000000000081565b34801561030f57600080fd5b5061010e610a75565b6040516323b872dd60e01b8152336004820152306024820152604481018290526000907f00000000000000000000000000000000000000000000000000000000000000006001600160a01b0316906323b872dd906064016020604051808303816000875af115801561038e573d6000803e3d6000fd5b505050506040513d601f19601f820116820180604052508101906103b29190610ef7565b5060005434901515806103c757506000600154115b1561047f57806001546103da9190610f36565b836000546103e89190610f36565b1461047f5760008054826001546103ff9190610f36565b6104099190610f4d565b90508084111561043c57600061041f8286610f6f565b905061042a816105ce565b6104349084610f82565b92505061047c565b60006001546000548361044f9190610f36565b6104599190610f4d565b6104639084610f6f565b905061046e816107b2565b6104789086610f82565b9450505b92505b6002546000036104a25761049b6104968483610f36565b610ae0565b91506104e2565b6104df600054600254836104b69190610f36565b6104c09190610f4d565b6001546002546104d09087610f36565b6104da9190610f4d565b610b4a565b91505b600082116105245760405162461bcd60e51b815260206004820152600a6024820152690736861726573203d20360b41b60448201526064015b60405180910390fd5b61052e3383610b64565b6040516370a0823160e01b81523060048201526105c89047906001600160a01b037f000000000000000000000000000000000000000000000000000000000000000016906370a08231906024015b602060405180830381865afa158015610599573d6000803e3d6000fd5b505050506040513d601f19601f820116820180604052508101906105bd9190610f95565b600091909155600155565b50919050565b6000806103e86105e0846103e5610f36565b6105ea9190610f4d565b9050806001546105fa9190610f82565b816000546106089190610f36565b6106129190610f4d565b9150600082116106645760405162461bcd60e51b815260206004820152601a60248201527f496e73756666696369656e74206f757470757420616d6f756e74000000000000604482015260640161051b565b6040516323b872dd60e01b8152336004820152306024820152604481018490527f00000000000000000000000000000000000000000000000000000000000000006001600160a01b0316906323b872dd906064016020604051808303816000875af11580156106d7573d6000803e3d6000fd5b505050506040513d601f19601f820116820180604052508101906106fb9190610ef7565b50604051339083156108fc029084906000818181858888f19350505050158015610729573d6000803e3d6000fd5b506105c86107378347610f6f565b6040516370a0823160e01b81523060048201527f00000000000000000000000000000000000000000000000000000000000000006001600160a01b0316906370a082319060240161057c565b6001600160a01b03811660009081526003602052604081205481906107a9908490610bae565b91509150915091565b60008134146107f95760405162461bcd60e51b815260206004820152601360248201527208aa89040c2dadeeadce840dad2e6dac2e8c6d606b1b604482015260640161051b565b60006103e861080a846103e5610f36565b6108149190610f4d565b9050806000546108249190610f82565b816001546108329190610f36565b61083c9190610f4d565b60405163a9059cbb60e01b8152336004820152602481018290529092507f00000000000000000000000000000000000000000000000000000000000000006001600160a01b03169063a9059cbb906044016020604051808303816000875af11580156108ac573d6000803e3d6000fd5b505050506040513d601f19601f820116820180604052508101906108d09190610ef7565b506040516370a0823160e01b81523060048201526105c89047906001600160a01b037f000000000000000000000000000000000000000000000000000000000000000016906370a082319060240161057c565b33600090815260036020526040812054819083111561097b5760405162461bcd60e51b8152602060048201526014602482015273496e73756666696369656e742062616c616e636560601b604482015260640161051b565b6107a93384610bae565b6001600160a01b03821660009081526003602052604081205481908311156109e65760405162461bcd60e51b8152602060048201526014602482015273496e73756666696369656e742062616c616e636560601b604482015260640161051b565b6109f08484610bae565b915091509250929050565b600080600154600054610a0e9190610f82565b11610a4e5760405162461bcd60e51b815260206004820152601060248201526f496e76616c696420726573657276657360801b604482015260640161051b565b600054600154610a6690670de0b6b3a7640000610f36565b610a709190610f4d565b905090565b600080600154600054610a889190610f82565b11610ac85760405162461bcd60e51b815260206004820152601060248201526f496e76616c696420726573657276657360801b604482015260640161051b565b600154600054610a6690670de0b6b3a7640000610f36565b60006003821115610b3b5750806000610afa600283610f4d565b610b05906001610f82565b90505b818110156105c857905080600281610b208186610f4d565b610b2a9190610f82565b610b349190610f4d565b9050610b08565b8115610b45575060015b919050565b6000818310610b595781610b5b565b825b90505b92915050565b6001600160a01b03821660009081526003602052604081208054839290610b8c908490610f82565b925050819055508060026000828254610ba59190610f82565b90915550505050565b6000806002544784610bc09190610f36565b610bca9190610f4d565b6002546040516370a0823160e01b8152306004820152919350906001600160a01b037f000000000000000000000000000000000000000000000000000000000000000016906370a0823190602401602060405180830381865afa158015610c35573d6000803e3d6000fd5b505050506040513d601f19601f82011682018060405250810190610c599190610f95565b610c639085610f36565b610c6d9190610f4d565b9050600082118015610c7f5750600081115b610cc45760405162461bcd60e51b81526020600482015260166024820152750616d6f756e7430206f7220616d6f756e7431203d20360541b604482015260640161051b565b610cce8484610e41565b610d6f610cdb8347610f6f565b6040516370a0823160e01b815230600482015283907f00000000000000000000000000000000000000000000000000000000000000006001600160a01b0316906370a0823190602401602060405180830381865afa158015610d41573d6000803e3d6000fd5b505050506040513d601f19601f82011682018060405250810190610d659190610f95565b6105bd9190610f6f565b6040516001600160a01b0385169083156108fc029084906000818181858888f19350505050158015610da5573d6000803e3d6000fd5b5060405163a9059cbb60e01b81526001600160a01b038581166004830152602482018390527f0000000000000000000000000000000000000000000000000000000000000000169063a9059cbb906044016020604051808303816000875af1158015610e15573d6000803e3d6000fd5b505050506040513d601f19601f82011682018060405250810190610e399190610ef7565b509250929050565b6001600160a01b03821660009081526003602052604081208054839290610e69908490610f6f565b925050819055508060026000828254610ba59190610f6f565b600060208284031215610e9457600080fd5b5035919050565b80356001600160a01b0381168114610b4557600080fd5b600060208284031215610ec457600080fd5b610b5b82610e9b565b60008060408385031215610ee057600080fd5b610ee983610e9b565b946020939093013593505050565b600060208284031215610f0957600080fd5b81518015158114610f1957600080fd5b9392505050565b634e487b7160e01b600052601160045260246000fd5b8082028115828204841417610b5e57610b5e610f20565b600082610f6a57634e487b7160e01b600052601260045260246000fd5b500490565b81810381811115610b5e57610b5e610f20565b80820180821115610b5e57610b5e610f20565b600060208284031215610fa757600080fd5b505191905056fea2646970667358221220e3efec151de345f591f997fd124501b4a19e90b6c21348a9b4bd3fc24641dc0364736f6c63430008120033",
    "linkReferences": {}
  },
  "methodIdentifiers": {
    "ETH_ADDRESS()": "a734f06e",
    "addLiquidity(uint256)": "51c6590a",
    "balanceOf(address)": "70a08231",
    "getERCPrice()": "fcc2ba08",
    "getETHPrice()": "a607a8d9",
    "my_shars()": "6cae4f84",
    "removeAllLiquidity(address)": "7a6a5e1b",
    "removeLiquidity(address,uint256)": "a201ccf6",
    "removeLiquidity(uint256)": "9c8f9f23",
    "reserve0()": "443cb4bc",
    "reserve1()": "5a76f25e",
    "sharesOf(address)": "f5eb42dc",
    "swap(uint256)": "94b918de",
    "swapTokenForETH(uint256)": "6fb84b74",
    "token()": "fc0c546a",
    "totalSupply()": "18160ddd"
  },
  "id": 24
}