{
	"data": {
		"bytecode": {
			"linkReferences": {},
			"object": "6109a1610053600b82828239805160001a607314610046577f4e487b7100000000000000000000000000000000000000000000000000000000600052600060045260246000fd5b30600052607381538281f3fe73000000000000000000000000000000000000000030146080604052600436106100355760003560e01c8063385a7ef81461003a575b600080fd5b610054600480360381019061004f919061067e565b61006a565b60405161006191906107de565b60405180910390f35b610072610466565b6000610088846000015151846000015151610434565b905060006100a085600001515185600001515161044d565b90506100aa610466565b6001836100b7919061082f565b67ffffffffffffffff8111156100d0576100cf6104a3565b5b6040519080825280602002602001820160405280156100fe5781602001602082028036833780820191505090505b50816000018190525060005b82811015610190578560000151818151811061012957610128610863565b5b60200260200101518760000151828151811061014857610147610863565b5b602002602001015161015a919061082f565b8260000151828151811061017157610170610863565b5b602002602001018181525050808061018890610892565b91505061010a565b5060008290505b8381101561022a57856000015151876000015151116101d457856000015181815181106101c7576101c6610863565b5b60200260200101516101f4565b866000015181815181106101eb576101ea610863565b5b60200260200101515b8260000151828151811061020b5761020a610863565b5b602002602001018181525050808061022290610892565b915050610197565b5060005b8381101561033a576f4b3b4ca85a86c47a098a2240000000008260000151828151811061025e5761025d610863565b5b602002602001015110610327576f4b3b4ca85a86c47a098a2240000000008260000151828151811061029357610292610863565b5b60200260200101516102a59190610909565b82600001516001836102b7919061082f565b815181106102c8576102c7610863565b5b602002602001018181516102dc919061082f565b915081815250506f4b3b4ca85a86c47a098a2240000000008260000151828151811061030b5761030a610863565b5b6020026020010181815161031f919061093a565b915081815250505b808061033290610892565b91505061022e565b5060008160000151848151811061035457610353610863565b5b60200260200101510361042757610369610466565b8367ffffffffffffffff811115610383576103826104a3565b5b6040519080825280602002602001820160405280156103b15781602001602082028036833780820191505090505b50816000018190525060005b8481101561041a57826000015181815181106103dc576103db610863565b5b6020026020010151826000015182815181106103fb576103fa610863565b5b602002602001018181525050808061041290610892565b9150506103bd565b508094505050505061042e565b8093505050505b92915050565b60008183116104435781610445565b825b905092915050565b600081831061045c578161045e565b825b905092915050565b6040518060200160405280606081525090565b6000604051905090565b600080fd5b600080fd5b600080fd5b6000601f19601f8301169050919050565b7f4e487b7100000000000000000000000000000000000000000000000000000000600052604160045260246000fd5b6104db82610492565b810181811067ffffffffffffffff821117156104fa576104f96104a3565b5b80604052505050565b600061050d610479565b905061051982826104d2565b919050565b600080fd5b600080fd5b600067ffffffffffffffff821115610543576105426104a3565b5b602082029050602081019050919050565b600080fd5b6000819050919050565b61056c81610559565b811461057757600080fd5b50565b60008135905061058981610563565b92915050565b60006105a261059d84610528565b610503565b905080838252602082019050602084028301858111156105c5576105c4610554565b5b835b818110156105ee57806105da888261057a565b8452602084019350506020810190506105c7565b5050509392505050565b600082601f83011261060d5761060c610523565b5b813561061d84826020860161058f565b91505092915050565b60006020828403121561063c5761063b61048d565b5b6106466020610503565b9050600082013567ffffffffffffffff8111156106665761066561051e565b5b610672848285016105f8565b60008301525092915050565b6000806040838503121561069557610694610483565b5b600083013567ffffffffffffffff8111156106b3576106b2610488565b5b6106bf85828601610626565b925050602083013567ffffffffffffffff8111156106e0576106df610488565b5b6106ec85828601610626565b9150509250929050565b600081519050919050565b600082825260208201905092915050565b6000819050602082019050919050565b61072b81610559565b82525050565b600061073d8383610722565b60208301905092915050565b6000602082019050919050565b6000610761826106f6565b61076b8185610701565b935061077683610712565b8060005b838110156107a757815161078e8882610731565b975061079983610749565b92505060018101905061077a565b5085935050505092915050565b600060208301600083015184820360008601526107d18282610756565b9150508091505092915050565b600060208201905081810360008301526107f881846107b4565b905092915050565b7f4e487b7100000000000000000000000000000000000000000000000000000000600052601160045260246000fd5b600061083a82610559565b915061084583610559565b925082820190508082111561085d5761085c610800565b5b92915050565b7f4e487b7100000000000000000000000000000000000000000000000000000000600052603260045260246000fd5b600061089d82610559565b91507fffffffffffffffffffffffffffffffffffffffffffffffffffffffffffffffff82036108cf576108ce610800565b5b600182019050919050565b7f4e487b7100000000000000000000000000000000000000000000000000000000600052601260045260246000fd5b600061091482610559565b915061091f83610559565b92508261092f5761092e6108da565b5b828204905092915050565b600061094582610559565b915061095083610559565b9250826109605761095f6108da565b5b82820690509291505056fea26469706673582212204d900a4827ff4056641cb7f9457c6c06400fbaf0b52f450734912a60f4030dcb64736f6c63430008120033",
			"opcodes": "PUSH2 0x9A1 PUSH2 0x53 PUSH1 0xB DUP3 DUP3 DUP3 CODECOPY DUP1 MLOAD PUSH1 0x0 BYTE PUSH1 0x73 EQ PUSH2 0x46 JUMPI PUSH32 0x4E487B7100000000000000000000000000000000000000000000000000000000 PUSH1 0x0 MSTORE PUSH1 0x0 PUSH1 0x4 MSTORE PUSH1 0x24 PUSH1 0x0 REVERT JUMPDEST ADDRESS PUSH1 0x0 MSTORE PUSH1 0x73 DUP2 MSTORE8 DUP3 DUP2 RETURN INVALID PUSH20 0x0 ADDRESS EQ PUSH1 0x80 PUSH1 0x40 MSTORE PUSH1 0x4 CALLDATASIZE LT PUSH2 0x35 JUMPI PUSH1 0x0 CALLDATALOAD PUSH1 0xE0 SHR DUP1 PUSH4 0x385A7EF8 EQ PUSH2 0x3A JUMPI JUMPDEST PUSH1 0x0 DUP1 REVERT JUMPDEST PUSH2 0x54 PUSH1 0x4 DUP1 CALLDATASIZE SUB DUP2 ADD SWAP1 PUSH2 0x4F SWAP2 SWAP1 PUSH2 0x67E JUMP JUMPDEST PUSH2 0x6A JUMP JUMPDEST PUSH1 0x40 MLOAD PUSH2 0x61 SWAP2 SWAP1 PUSH2 0x7DE JUMP JUMPDEST PUSH1 0x40 MLOAD DUP1 SWAP2 SUB SWAP1 RETURN JUMPDEST PUSH2 0x72 PUSH2 0x466 JUMP JUMPDEST PUSH1 0x0 PUSH2 0x88 DUP5 PUSH1 0x0 ADD MLOAD MLOAD DUP5 PUSH1 0x0 ADD MLOAD MLOAD PUSH2 0x434 JUMP JUMPDEST SWAP1 POP PUSH1 0x0 PUSH2 0xA0 DUP6 PUSH1 0x0 ADD MLOAD MLOAD DUP6 PUSH1 0x0 ADD MLOAD MLOAD PUSH2 0x44D JUMP JUMPDEST SWAP1 POP PUSH2 0xAA PUSH2 0x466 JUMP JUMPDEST PUSH1 0x1 DUP4 PUSH2 0xB7 SWAP2 SWAP1 PUSH2 0x82F JUMP JUMPDEST PUSH8 0xFFFFFFFFFFFFFFFF DUP2 GT ISZERO PUSH2 0xD0 JUMPI PUSH2 0xCF PUSH2 0x4A3 JUMP JUMPDEST JUMPDEST PUSH1 0x40 MLOAD SWAP1 DUP1 DUP3 MSTORE DUP1 PUSH1 0x20 MUL PUSH1 0x20 ADD DUP3 ADD PUSH1 0x40 MSTORE DUP1 ISZERO PUSH2 0xFE JUMPI DUP2 PUSH1 0x20 ADD PUSH1 0x20 DUP3 MUL DUP1 CALLDATASIZE DUP4 CALLDATACOPY DUP1 DUP3 ADD SWAP2 POP POP SWAP1 POP JUMPDEST POP DUP2 PUSH1 0x0 ADD DUP2 SWAP1 MSTORE POP PUSH1 0x0 JUMPDEST DUP3 DUP2 LT ISZERO PUSH2 0x190 JUMPI DUP6 PUSH1 0x0 ADD MLOAD DUP2 DUP2 MLOAD DUP2 LT PUSH2 0x129 JUMPI PUSH2 0x128 PUSH2 0x863 JUMP JUMPDEST JUMPDEST PUSH1 0x20 MUL PUSH1 0x20 ADD ADD MLOAD DUP8 PUSH1 0x0 ADD MLOAD DUP3 DUP2 MLOAD DUP2 LT PUSH2 0x148 JUMPI PUSH2 0x147 PUSH2 0x863 JUMP JUMPDEST JUMPDEST PUSH1 0x20 MUL PUSH1 0x20 ADD ADD MLOAD PUSH2 0x15A SWAP2 SWAP1 PUSH2 0x82F JUMP JUMPDEST DUP3 PUSH1 0x0 ADD MLOAD DUP3 DUP2 MLOAD DUP2 LT PUSH2 0x171 JUMPI PUSH2 0x170 PUSH2 0x863 JUMP JUMPDEST JUMPDEST PUSH1 0x20 MUL PUSH1 0x20 ADD ADD DUP2 DUP2 MSTORE POP POP DUP1 DUP1 PUSH2 0x188 SWAP1 PUSH2 0x892 JUMP JUMPDEST SWAP2 POP POP PUSH2 0x10A JUMP JUMPDEST POP PUSH1 0x0 DUP3 SWAP1 POP JUMPDEST DUP4 DUP2 LT ISZERO PUSH2 0x22A JUMPI DUP6 PUSH1 0x0 ADD MLOAD MLOAD DUP8 PUSH1 0x0 ADD MLOAD MLOAD GT PUSH2 0x1D4 JUMPI DUP6 PUSH1 0x0 ADD MLOAD DUP2 DUP2 MLOAD DUP2 LT PUSH2 0x1C7 JUMPI PUSH2 0x1C6 PUSH2 0x863 JUMP JUMPDEST JUMPDEST PUSH1 0x20 MUL PUSH1 0x20 ADD ADD MLOAD PUSH2 0x1F4 JUMP JUMPDEST DUP7 PUSH1 0x0 ADD MLOAD DUP2 DUP2 MLOAD DUP2 LT PUSH2 0x1EB JUMPI PUSH2 0x1EA PUSH2 0x863 JUMP JUMPDEST JUMPDEST PUSH1 0x20 MUL PUSH1 0x20 ADD ADD MLOAD JUMPDEST DUP3 PUSH1 0x0 ADD MLOAD DUP3 DUP2 MLOAD DUP2 LT PUSH2 0x20B JUMPI PUSH2 0x20A PUSH2 0x863 JUMP JUMPDEST JUMPDEST PUSH1 0x20 MUL PUSH1 0x20 ADD ADD DUP2 DUP2 MSTORE POP POP DUP1 DUP1 PUSH2 0x222 SWAP1 PUSH2 0x892 JUMP JUMPDEST SWAP2 POP POP PUSH2 0x197 JUMP JUMPDEST POP PUSH1 0x0 JUMPDEST DUP4 DUP2 LT ISZERO PUSH2 0x33A JUMPI PUSH16 0x4B3B4CA85A86C47A098A224000000000 DUP3 PUSH1 0x0 ADD MLOAD DUP3 DUP2 MLOAD DUP2 LT PUSH2 0x25E JUMPI PUSH2 0x25D PUSH2 0x863 JUMP JUMPDEST JUMPDEST PUSH1 0x20 MUL PUSH1 0x20 ADD ADD MLOAD LT PUSH2 0x327 JUMPI PUSH16 0x4B3B4CA85A86C47A098A224000000000 DUP3 PUSH1 0x0 ADD MLOAD DUP3 DUP2 MLOAD DUP2 LT PUSH2 0x293 JUMPI PUSH2 0x292 PUSH2 0x863 JUMP JUMPDEST JUMPDEST PUSH1 0x20 MUL PUSH1 0x20 ADD ADD MLOAD PUSH2 0x2A5 SWAP2 SWAP1 PUSH2 0x909 JUMP JUMPDEST DUP3 PUSH1 0x0 ADD MLOAD PUSH1 0x1 DUP4 PUSH2 0x2B7 SWAP2 SWAP1 PUSH2 0x82F JUMP JUMPDEST DUP2 MLOAD DUP2 LT PUSH2 0x2C8 JUMPI PUSH2 0x2C7 PUSH2 0x863 JUMP JUMPDEST JUMPDEST PUSH1 0x20 MUL PUSH1 0x20 ADD ADD DUP2 DUP2 MLOAD PUSH2 0x2DC SWAP2 SWAP1 PUSH2 0x82F JUMP JUMPDEST SWAP2 POP DUP2 DUP2 MSTORE POP POP PUSH16 0x4B3B4CA85A86C47A098A224000000000 DUP3 PUSH1 0x0 ADD MLOAD DUP3 DUP2 MLOAD DUP2 LT PUSH2 0x30B JUMPI PUSH2 0x30A PUSH2 0x863 JUMP JUMPDEST JUMPDEST PUSH1 0x20 MUL PUSH1 0x20 ADD ADD DUP2 DUP2 MLOAD PUSH2 0x31F SWAP2 SWAP1 PUSH2 0x93A JUMP JUMPDEST SWAP2 POP DUP2 DUP2 MSTORE POP POP JUMPDEST DUP1 DUP1 PUSH2 0x332 SWAP1 PUSH2 0x892 JUMP JUMPDEST SWAP2 POP POP PUSH2 0x22E JUMP JUMPDEST POP PUSH1 0x0 DUP2 PUSH1 0x0 ADD MLOAD DUP5 DUP2 MLOAD DUP2 LT PUSH2 0x354 JUMPI PUSH2 0x353 PUSH2 0x863 JUMP JUMPDEST JUMPDEST PUSH1 0x20 MUL PUSH1 0x20 ADD ADD MLOAD SUB PUSH2 0x427 JUMPI PUSH2 0x369 PUSH2 0x466 JUMP JUMPDEST DUP4 PUSH8 0xFFFFFFFFFFFFFFFF DUP2 GT ISZERO PUSH2 0x383 JUMPI PUSH2 0x382 PUSH2 0x4A3 JUMP JUMPDEST JUMPDEST PUSH1 0x40 MLOAD SWAP1 DUP1 DUP3 MSTORE DUP1 PUSH1 0x20 MUL PUSH1 0x20 ADD DUP3 ADD PUSH1 0x40 MSTORE DUP1 ISZERO PUSH2 0x3B1 JUMPI DUP2 PUSH1 0x20 ADD PUSH1 0x20 DUP3 MUL DUP1 CALLDATASIZE DUP4 CALLDATACOPY DUP1 DUP3 ADD SWAP2 POP POP SWAP1 POP JUMPDEST POP DUP2 PUSH1 0x0 ADD DUP2 SWAP1 MSTORE POP PUSH1 0x0 JUMPDEST DUP5 DUP2 LT ISZERO PUSH2 0x41A JUMPI DUP3 PUSH1 0x0 ADD MLOAD DUP2 DUP2 MLOAD DUP2 LT PUSH2 0x3DC JUMPI PUSH2 0x3DB PUSH2 0x863 JUMP JUMPDEST JUMPDEST PUSH1 0x20 MUL PUSH1 0x20 ADD ADD MLOAD DUP3 PUSH1 0x0 ADD MLOAD DUP3 DUP2 MLOAD DUP2 LT PUSH2 0x3FB JUMPI PUSH2 0x3FA PUSH2 0x863 JUMP JUMPDEST JUMPDEST PUSH1 0x20 MUL PUSH1 0x20 ADD ADD DUP2 DUP2 MSTORE POP POP DUP1 DUP1 PUSH2 0x412 SWAP1 PUSH2 0x892 JUMP JUMPDEST SWAP2 POP POP PUSH2 0x3BD JUMP JUMPDEST POP DUP1 SWAP5 POP POP POP POP POP PUSH2 0x42E JUMP JUMPDEST DUP1 SWAP4 POP POP POP POP JUMPDEST SWAP3 SWAP2 POP POP JUMP JUMPDEST PUSH1 0x0 DUP2 DUP4 GT PUSH2 0x443 JUMPI DUP2 PUSH2 0x445 JUMP JUMPDEST DUP3 JUMPDEST SWAP1 POP SWAP3 SWAP2 POP POP JUMP JUMPDEST PUSH1 0x0 DUP2 DUP4 LT PUSH2 0x45C JUMPI DUP2 PUSH2 0x45E JUMP JUMPDEST DUP3 JUMPDEST SWAP1 POP SWAP3 SWAP2 POP POP JUMP JUMPDEST PUSH1 0x40 MLOAD DUP1 PUSH1 0x20 ADD PUSH1 0x40 MSTORE DUP1 PUSH1 0x60 DUP2 MSTORE POP SWAP1 JUMP JUMPDEST PUSH1 0x0 PUSH1 0x40 MLOAD SWAP1 POP SWAP1 JUMP JUMPDEST PUSH1 0x0 DUP1 REVERT JUMPDEST PUSH1 0x0 DUP1 REVERT JUMPDEST PUSH1 0x0 DUP1 REVERT JUMPDEST PUSH1 0x0 PUSH1 0x1F NOT PUSH1 0x1F DUP4 ADD AND SWAP1 POP SWAP2 SWAP1 POP JUMP JUMPDEST PUSH32 0x4E487B7100000000000000000000000000000000000000000000000000000000 PUSH1 0x0 MSTORE PUSH1 0x41 PUSH1 0x4 MSTORE PUSH1 0x24 PUSH1 0x0 REVERT JUMPDEST PUSH2 0x4DB DUP3 PUSH2 0x492 JUMP JUMPDEST DUP2 ADD DUP2 DUP2 LT PUSH8 0xFFFFFFFFFFFFFFFF DUP3 GT OR ISZERO PUSH2 0x4FA JUMPI PUSH2 0x4F9 PUSH2 0x4A3 JUMP JUMPDEST JUMPDEST DUP1 PUSH1 0x40 MSTORE POP POP POP JUMP JUMPDEST PUSH1 0x0 PUSH2 0x50D PUSH2 0x479 JUMP JUMPDEST SWAP1 POP PUSH2 0x519 DUP3 DUP3 PUSH2 0x4D2 JUMP JUMPDEST SWAP2 SWAP1 POP JUMP JUMPDEST PUSH1 0x0 DUP1 REVERT JUMPDEST PUSH1 0x0 DUP1 REVERT JUMPDEST PUSH1 0x0 PUSH8 0xFFFFFFFFFFFFFFFF DUP3 GT ISZERO PUSH2 0x543 JUMPI PUSH2 0x542 PUSH2 0x4A3 JUMP JUMPDEST JUMPDEST PUSH1 0x20 DUP3 MUL SWAP1 POP PUSH1 0x20 DUP2 ADD SWAP1 POP SWAP2 SWAP1 POP JUMP JUMPDEST PUSH1 0x0 DUP1 REVERT JUMPDEST PUSH1 0x0 DUP2 SWAP1 POP SWAP2 SWAP1 POP JUMP JUMPDEST PUSH2 0x56C DUP2 PUSH2 0x559 JUMP JUMPDEST DUP2 EQ PUSH2 0x577 JUMPI PUSH1 0x0 DUP1 REVERT JUMPDEST POP JUMP JUMPDEST PUSH1 0x0 DUP2 CALLDATALOAD SWAP1 POP PUSH2 0x589 DUP2 PUSH2 0x563 JUMP JUMPDEST SWAP3 SWAP2 POP POP JUMP JUMPDEST PUSH1 0x0 PUSH2 0x5A2 PUSH2 0x59D DUP5 PUSH2 0x528 JUMP JUMPDEST PUSH2 0x503 JUMP JUMPDEST SWAP1 POP DUP1 DUP4 DUP3 MSTORE PUSH1 0x20 DUP3 ADD SWAP1 POP PUSH1 0x20 DUP5 MUL DUP4 ADD DUP6 DUP2 GT ISZERO PUSH2 0x5C5 JUMPI PUSH2 0x5C4 PUSH2 0x554 JUMP JUMPDEST JUMPDEST DUP4 JUMPDEST DUP2 DUP2 LT ISZERO PUSH2 0x5EE JUMPI DUP1 PUSH2 0x5DA DUP9 DUP3 PUSH2 0x57A JUMP JUMPDEST DUP5 MSTORE PUSH1 0x20 DUP5 ADD SWAP4 POP POP PUSH1 0x20 DUP2 ADD SWAP1 POP PUSH2 0x5C7 JUMP JUMPDEST POP POP POP SWAP4 SWAP3 POP POP POP JUMP JUMPDEST PUSH1 0x0 DUP3 PUSH1 0x1F DUP4 ADD SLT PUSH2 0x60D JUMPI PUSH2 0x60C PUSH2 0x523 JUMP JUMPDEST JUMPDEST DUP2 CALLDATALOAD PUSH2 0x61D DUP5 DUP3 PUSH1 0x20 DUP7 ADD PUSH2 0x58F JUMP JUMPDEST SWAP2 POP POP SWAP3 SWAP2 POP POP JUMP JUMPDEST PUSH1 0x0 PUSH1 0x20 DUP3 DUP5 SUB SLT ISZERO PUSH2 0x63C JUMPI PUSH2 0x63B PUSH2 0x48D JUMP JUMPDEST JUMPDEST PUSH2 0x646 PUSH1 0x20 PUSH2 0x503 JUMP JUMPDEST SWAP1 POP PUSH1 0x0 DUP3 ADD CALLDATALOAD PUSH8 0xFFFFFFFFFFFFFFFF DUP2 GT ISZERO PUSH2 0x666 JUMPI PUSH2 0x665 PUSH2 0x51E JUMP JUMPDEST JUMPDEST PUSH2 0x672 DUP5 DUP3 DUP6 ADD PUSH2 0x5F8 JUMP JUMPDEST PUSH1 0x0 DUP4 ADD MSTORE POP SWAP3 SWAP2 POP POP JUMP JUMPDEST PUSH1 0x0 DUP1 PUSH1 0x40 DUP4 DUP6 SUB SLT ISZERO PUSH2 0x695 JUMPI PUSH2 0x694 PUSH2 0x483 JUMP JUMPDEST JUMPDEST PUSH1 0x0 DUP4 ADD CALLDATALOAD PUSH8 0xFFFFFFFFFFFFFFFF DUP2 GT ISZERO PUSH2 0x6B3 JUMPI PUSH2 0x6B2 PUSH2 0x488 JUMP JUMPDEST JUMPDEST PUSH2 0x6BF DUP6 DUP3 DUP7 ADD PUSH2 0x626 JUMP JUMPDEST SWAP3 POP POP PUSH1 0x20 DUP4 ADD CALLDATALOAD PUSH8 0xFFFFFFFFFFFFFFFF DUP2 GT ISZERO PUSH2 0x6E0 JUMPI PUSH2 0x6DF PUSH2 0x488 JUMP JUMPDEST JUMPDEST PUSH2 0x6EC DUP6 DUP3 DUP7 ADD PUSH2 0x626 JUMP JUMPDEST SWAP2 POP POP SWAP3 POP SWAP3 SWAP1 POP JUMP JUMPDEST PUSH1 0x0 DUP2 MLOAD SWAP1 POP SWAP2 SWAP1 POP JUMP JUMPDEST PUSH1 0x0 DUP3 DUP3 MSTORE PUSH1 0x20 DUP3 ADD SWAP1 POP SWAP3 SWAP2 POP POP JUMP JUMPDEST PUSH1 0x0 DUP2 SWAP1 POP PUSH1 0x20 DUP3 ADD SWAP1 POP SWAP2 SWAP1 POP JUMP JUMPDEST PUSH2 0x72B DUP2 PUSH2 0x559 JUMP JUMPDEST DUP3 MSTORE POP POP JUMP JUMPDEST PUSH1 0x0 PUSH2 0x73D DUP4 DUP4 PUSH2 0x722 JUMP JUMPDEST PUSH1 0x20 DUP4 ADD SWAP1 POP SWAP3 SWAP2 POP POP JUMP JUMPDEST PUSH1 0x0 PUSH1 0x20 DUP3 ADD SWAP1 POP SWAP2 SWAP1 POP JUMP JUMPDEST PUSH1 0x0 PUSH2 0x761 DUP3 PUSH2 0x6F6 JUMP JUMPDEST PUSH2 0x76B DUP2 DUP6 PUSH2 0x701 JUMP JUMPDEST SWAP4 POP PUSH2 0x776 DUP4 PUSH2 0x712 JUMP JUMPDEST DUP1 PUSH1 0x0 JUMPDEST DUP4 DUP2 LT ISZERO PUSH2 0x7A7 JUMPI DUP2 MLOAD PUSH2 0x78E DUP9 DUP3 PUSH2 0x731 JUMP JUMPDEST SWAP8 POP PUSH2 0x799 DUP4 PUSH2 0x749 JUMP JUMPDEST SWAP3 POP POP PUSH1 0x1 DUP2 ADD SWAP1 POP PUSH2 0x77A JUMP JUMPDEST POP DUP6 SWAP4 POP POP POP POP SWAP3 SWAP2 POP POP JUMP JUMPDEST PUSH1 0x0 PUSH1 0x20 DUP4 ADD PUSH1 0x0 DUP4 ADD MLOAD DUP5 DUP3 SUB PUSH1 0x0 DUP7 ADD MSTORE PUSH2 0x7D1 DUP3 DUP3 PUSH2 0x756 JUMP JUMPDEST SWAP2 POP POP DUP1 SWAP2 POP POP SWAP3 SWAP2 POP POP JUMP JUMPDEST PUSH1 0x0 PUSH1 0x20 DUP3 ADD SWAP1 POP DUP2 DUP2 SUB PUSH1 0x0 DUP4 ADD MSTORE PUSH2 0x7F8 DUP2 DUP5 PUSH2 0x7B4 JUMP JUMPDEST SWAP1 POP SWAP3 SWAP2 POP POP JUMP JUMPDEST PUSH32 0x4E487B7100000000000000000000000000000000000000000000000000000000 PUSH1 0x0 MSTORE PUSH1 0x11 PUSH1 0x4 MSTORE PUSH1 0x24 PUSH1 0x0 REVERT JUMPDEST PUSH1 0x0 PUSH2 0x83A DUP3 PUSH2 0x559 JUMP JUMPDEST SWAP2 POP PUSH2 0x845 DUP4 PUSH2 0x559 JUMP JUMPDEST SWAP3 POP DUP3 DUP3 ADD SWAP1 POP DUP1 DUP3 GT ISZERO PUSH2 0x85D JUMPI PUSH2 0x85C PUSH2 0x800 JUMP JUMPDEST JUMPDEST SWAP3 SWAP2 POP POP JUMP JUMPDEST PUSH32 0x4E487B7100000000000000000000000000000000000000000000000000000000 PUSH1 0x0 MSTORE PUSH1 0x32 PUSH1 0x4 MSTORE PUSH1 0x24 PUSH1 0x0 REVERT JUMPDEST PUSH1 0x0 PUSH2 0x89D DUP3 PUSH2 0x559 JUMP JUMPDEST SWAP2 POP PUSH32 0xFFFFFFFFFFFFFFFFFFFFFFFFFFFFFFFFFFFFFFFFFFFFFFFFFFFFFFFFFFFFFFFF DUP3 SUB PUSH2 0x8CF JUMPI PUSH2 0x8CE PUSH2 0x800 JUMP JUMPDEST JUMPDEST PUSH1 0x1 DUP3 ADD SWAP1 POP SWAP2 SWAP1 POP JUMP JUMPDEST PUSH32 0x4E487B7100000000000000000000000000000000000000000000000000000000 PUSH1 0x0 MSTORE PUSH1 0x12 PUSH1 0x4 MSTORE PUSH1 0x24 PUSH1 0x0 REVERT JUMPDEST PUSH1 0x0 PUSH2 0x914 DUP3 PUSH2 0x559 JUMP JUMPDEST SWAP2 POP PUSH2 0x91F DUP4 PUSH2 0x559 JUMP JUMPDEST SWAP3 POP DUP3 PUSH2 0x92F JUMPI PUSH2 0x92E PUSH2 0x8DA JUMP JUMPDEST JUMPDEST DUP3 DUP3 DIV SWAP1 POP SWAP3 SWAP2 POP POP JUMP JUMPDEST PUSH1 0x0 PUSH2 0x945 DUP3 PUSH2 0x559 JUMP JUMPDEST SWAP2 POP PUSH2 0x950 DUP4 PUSH2 0x559 JUMP JUMPDEST SWAP3 POP DUP3 PUSH2 0x960 JUMPI PUSH2 0x95F PUSH2 0x8DA JUMP JUMPDEST JUMPDEST DUP3 DUP3 MOD SWAP1 POP SWAP3 SWAP2 POP POP JUMP INVALID LOG2 PUSH5 0x6970667358 0x22 SLT KECCAK256 0x4D SWAP1 EXP BASEFEE 0x27 SELFDESTRUCT BLOCKHASH JUMP PUSH5 0x1CB7F9457C PUSH13 0x6400FBAF0B52F450734912A60 DELEGATECALL SUB 0xD 0xCB PUSH5 0x736F6C6343 STOP ADDMOD SLT STOP CALLER "
		},
		"gasEstimates": {
			"creation": {
				"codeDepositCost": "493000",
				"executionCost": "555",
				"totalCost": "493555"
			},
			"external": {
				"add(BigInt.bigint,BigInt.bigint)": "infinite"
			},
			"internal": {
				"bytesToUint256(bytes memory)": "infinite",
				"compare(struct BigInt.bigint memory,struct BigInt.bigint memory)": "infinite",
				"divide(struct BigInt.bigint memory,struct BigInt.bigint memory)": "infinite",
				"get_Decimal(struct BigInt.bigint memory)": "infinite",
				"karatsubaMultiply(struct BigInt.bigint memory,struct BigInt.bigint memory)": "infinite",
				"leftShift(struct BigInt.bigint memory,uint256)": "infinite",
				"max(uint256,uint256)": "64",
				"min(uint256,uint256)": "64",
				"mod(struct BigInt.bigint memory,uint256)": "infinite",
				"reverse(string memory)": "infinite",
				"rightShift(struct BigInt.bigint memory,uint256)": "infinite",
				"setBit(struct BigInt.bigint memory,uint256)": "infinite",
				"set_String(string memory)": "infinite",
				"set_Uint256(uint256)": "infinite",
				"slice(struct BigInt.bigint memory,uint256,uint256)": "infinite",
				"stringToUint256(string memory)": "infinite",
				"subtract(struct BigInt.bigint memory,struct BigInt.bigint memory)": "infinite"
			}
		},
		"methodIdentifiers": {
			"add(BigInt.bigint,BigInt.bigint)": "385a7ef8"
		}
	},
	"abi": [
		{
			"inputs": [
				{
					"components": [
						{
							"internalType": "uint256[]",
							"name": "limbs",
							"type": "uint256[]"
						}
					],
					"internalType": "struct BigInt.bigint",
					"name": "a",
					"type": "tuple"
				},
				{
					"components": [
						{
							"internalType": "uint256[]",
							"name": "limbs",
							"type": "uint256[]"
						}
					],
					"internalType": "struct BigInt.bigint",
					"name": "b",
					"type": "tuple"
				}
			],
			"name": "add",
			"outputs": [
				{
					"components": [
						{
							"internalType": "uint256[]",
							"name": "limbs",
							"type": "uint256[]"
						}
					],
					"internalType": "struct BigInt.bigint",
					"name": "",
					"type": "tuple"
				}
			],
			"stateMutability": "pure",
			"type": "function"
		}
	]
}